{
	"erc3643/erc3643/Compliance/modular/Modules/ConditionalTransferModule.sol": {
		"ConditionalTransferModule": {
			"abi": [
				{
					"anonymous": false,
					"inputs": [
						{
							"indexed": false,
							"internalType": "address",
							"name": "_from",
							"type": "address"
						},
						{
							"indexed": false,
							"internalType": "address",
							"name": "_to",
							"type": "address"
						},
						{
							"indexed": false,
							"internalType": "uint256",
							"name": "_amount",
							"type": "uint256"
						},
						{
							"indexed": false,
							"internalType": "address",
							"name": "_token",
							"type": "address"
						}
					],
					"name": "ApprovalRemoved",
					"type": "event"
				},
				{
					"anonymous": false,
					"inputs": [
						{
							"indexed": true,
							"internalType": "address",
							"name": "_compliance",
							"type": "address"
						}
					],
					"name": "ComplianceBound",
					"type": "event"
				},
				{
					"anonymous": false,
					"inputs": [
						{
							"indexed": true,
							"internalType": "address",
							"name": "_compliance",
							"type": "address"
						}
					],
					"name": "ComplianceUnbound",
					"type": "event"
				},
				{
					"anonymous": false,
					"inputs": [
						{
							"indexed": false,
							"internalType": "address",
							"name": "_from",
							"type": "address"
						},
						{
							"indexed": false,
							"internalType": "address",
							"name": "_to",
							"type": "address"
						},
						{
							"indexed": false,
							"internalType": "uint256",
							"name": "_amount",
							"type": "uint256"
						},
						{
							"indexed": false,
							"internalType": "address",
							"name": "_token",
							"type": "address"
						}
					],
					"name": "TransferApproved",
					"type": "event"
				},
				{
					"inputs": [
						{
							"internalType": "address",
							"name": "_from",
							"type": "address"
						},
						{
							"internalType": "address",
							"name": "_to",
							"type": "address"
						},
						{
							"internalType": "uint256",
							"name": "_amount",
							"type": "uint256"
						}
					],
					"name": "approveTransfer",
					"outputs": [],
					"stateMutability": "nonpayable",
					"type": "function"
				},
				{
					"inputs": [
						{
							"internalType": "address[]",
							"name": "_from",
							"type": "address[]"
						},
						{
							"internalType": "address[]",
							"name": "_to",
							"type": "address[]"
						},
						{
							"internalType": "uint256[]",
							"name": "_amount",
							"type": "uint256[]"
						}
					],
					"name": "batchApproveTransfers",
					"outputs": [],
					"stateMutability": "nonpayable",
					"type": "function"
				},
				{
					"inputs": [
						{
							"internalType": "address[]",
							"name": "_from",
							"type": "address[]"
						},
						{
							"internalType": "address[]",
							"name": "_to",
							"type": "address[]"
						},
						{
							"internalType": "uint256[]",
							"name": "_amount",
							"type": "uint256[]"
						}
					],
					"name": "batchUnApproveTransfers",
					"outputs": [],
					"stateMutability": "nonpayable",
					"type": "function"
				},
				{
					"inputs": [
						{
							"internalType": "address",
							"name": "_compliance",
							"type": "address"
						}
					],
					"name": "bindCompliance",
					"outputs": [],
					"stateMutability": "nonpayable",
					"type": "function"
				},
				{
					"inputs": [
						{
							"internalType": "address",
							"name": "_from",
							"type": "address"
						},
						{
							"internalType": "address",
							"name": "_to",
							"type": "address"
						},
						{
							"internalType": "uint256",
							"name": "_amount",
							"type": "uint256"
						},
						{
							"internalType": "address",
							"name": "_token",
							"type": "address"
						}
					],
					"name": "calculateTransferHash",
					"outputs": [
						{
							"internalType": "bytes32",
							"name": "",
							"type": "bytes32"
						}
					],
					"stateMutability": "pure",
					"type": "function"
				},
				{
					"inputs": [
						{
							"internalType": "address",
							"name": "_compliance",
							"type": "address"
						},
						{
							"internalType": "bytes32",
							"name": "_transferHash",
							"type": "bytes32"
						}
					],
					"name": "getTransferApprovals",
					"outputs": [
						{
							"internalType": "uint256",
							"name": "",
							"type": "uint256"
						}
					],
					"stateMutability": "view",
					"type": "function"
				},
				{
					"inputs": [
						{
							"internalType": "address",
							"name": "_compliance",
							"type": "address"
						}
					],
					"name": "isComplianceBound",
					"outputs": [
						{
							"internalType": "bool",
							"name": "",
							"type": "bool"
						}
					],
					"stateMutability": "view",
					"type": "function"
				},
				{
					"inputs": [
						{
							"internalType": "address",
							"name": "_compliance",
							"type": "address"
						},
						{
							"internalType": "bytes32",
							"name": "_transferHash",
							"type": "bytes32"
						}
					],
					"name": "isTransferApproved",
					"outputs": [
						{
							"internalType": "bool",
							"name": "",
							"type": "bool"
						}
					],
					"stateMutability": "view",
					"type": "function"
				},
				{
					"inputs": [
						{
							"internalType": "address",
							"name": "_from",
							"type": "address"
						},
						{
							"internalType": "uint256",
							"name": "_value",
							"type": "uint256"
						}
					],
					"name": "moduleBurnAction",
					"outputs": [],
					"stateMutability": "nonpayable",
					"type": "function"
				},
				{
					"inputs": [
						{
							"internalType": "address",
							"name": "_from",
							"type": "address"
						},
						{
							"internalType": "address",
							"name": "_to",
							"type": "address"
						},
						{
							"internalType": "uint256",
							"name": "_value",
							"type": "uint256"
						},
						{
							"internalType": "address",
							"name": "_compliance",
							"type": "address"
						}
					],
					"name": "moduleCheck",
					"outputs": [
						{
							"internalType": "bool",
							"name": "",
							"type": "bool"
						}
					],
					"stateMutability": "view",
					"type": "function"
				},
				{
					"inputs": [
						{
							"internalType": "address",
							"name": "_to",
							"type": "address"
						},
						{
							"internalType": "uint256",
							"name": "_value",
							"type": "uint256"
						}
					],
					"name": "moduleMintAction",
					"outputs": [],
					"stateMutability": "nonpayable",
					"type": "function"
				},
				{
					"inputs": [
						{
							"internalType": "address",
							"name": "_from",
							"type": "address"
						},
						{
							"internalType": "address",
							"name": "_to",
							"type": "address"
						},
						{
							"internalType": "uint256",
							"name": "_value",
							"type": "uint256"
						}
					],
					"name": "moduleTransferAction",
					"outputs": [],
					"stateMutability": "nonpayable",
					"type": "function"
				},
				{
					"inputs": [
						{
							"internalType": "address",
							"name": "_from",
							"type": "address"
						},
						{
							"internalType": "address",
							"name": "_to",
							"type": "address"
						},
						{
							"internalType": "uint256",
							"name": "_amount",
							"type": "uint256"
						}
					],
					"name": "unApproveTransfer",
					"outputs": [],
					"stateMutability": "nonpayable",
					"type": "function"
				},
				{
					"inputs": [
						{
							"internalType": "address",
							"name": "_compliance",
							"type": "address"
						}
					],
					"name": "unbindCompliance",
					"outputs": [],
					"stateMutability": "nonpayable",
					"type": "function"
				}
			],
			"devdoc": {
				"kind": "dev",
				"methods": {},
				"version": 1
			},
			"evm": {
				"assembly": "    /* \"erc3643/erc3643/Compliance/modular/Modules/ConditionalTransferModule.sol\":125:4530  contract ConditionalTransferModule is AbstractModule {... */\n  mstore(0x40, 0x80)\n  callvalue\n  dup1\n  iszero\n  tag_1\n  jumpi\n  0x00\n  dup1\n  revert\ntag_1:\n  pop\n  dataSize(sub_0)\n  dup1\n  dataOffset(sub_0)\n  0x00\n  codecopy\n  0x00\n  return\nstop\n\nsub_0: assembly {\n        /* \"erc3643/erc3643/Compliance/modular/Modules/ConditionalTransferModule.sol\":125:4530  contract ConditionalTransferModule is AbstractModule {... */\n      mstore(0x40, 0x80)\n      callvalue\n      dup1\n      iszero\n      tag_1\n      jumpi\n      0x00\n      dup1\n      revert\n    tag_1:\n      pop\n      jumpi(tag_2, lt(calldatasize, 0x04))\n      shr(0xe0, calldataload(0x00))\n      dup1\n      0x4cf4d295\n      gt\n      tag_17\n      jumpi\n      dup1\n      0xbdf5a415\n      gt\n      tag_18\n      jumpi\n      dup1\n      0xbdf5a415\n      eq\n      tag_13\n      jumpi\n      dup1\n      0xe2cb5c34\n      eq\n      tag_14\n      jumpi\n      dup1\n      0xf104a8c9\n      eq\n      tag_8\n      jumpi\n      dup1\n      0xf3850dbf\n      eq\n      tag_16\n      jumpi\n      0x00\n      dup1\n      revert\n    tag_18:\n      dup1\n      0x4cf4d295\n      eq\n      tag_10\n      jumpi\n      dup1\n      0x82580805\n      eq\n      tag_11\n      jumpi\n      dup1\n      0x93386519\n      eq\n      tag_12\n      jumpi\n      0x00\n      dup1\n      revert\n    tag_17:\n      dup1\n      0x202a6376\n      gt\n      tag_19\n      jumpi\n      dup1\n      0x202a6376\n      eq\n      tag_6\n      jumpi\n      dup1\n      0x2cb7e1ec\n      eq\n      tag_7\n      jumpi\n      dup1\n      0x372491a2\n      eq\n      tag_8\n      jumpi\n      dup1\n      0x4a932544\n      eq\n      tag_9\n      jumpi\n      0x00\n      dup1\n      revert\n    tag_19:\n      dup1\n      0x013b7ce4\n      eq\n      tag_3\n      jumpi\n      dup1\n      0x0694a5fb\n      eq\n      tag_4\n      jumpi\n      dup1\n      0x1c7a1793\n      eq\n      tag_5\n      jumpi\n    tag_2:\n      0x00\n      dup1\n      revert\n        /* \"erc3643/erc3643/Compliance/modular/Modules/ConditionalTransferModule.sol\":2146:2558  function moduleCheck(... */\n    tag_3:\n      tag_20\n      tag_21\n      calldatasize\n      0x04\n      tag_22\n      jump\t// in\n    tag_21:\n      tag_23\n      jump\t// in\n    tag_20:\n      mload(0x40)\n        /* \"#utility.yul\":918:932   */\n      swap1\n      iszero\n        /* \"#utility.yul\":911:933   */\n      iszero\n        /* \"#utility.yul\":893:934   */\n      dup2\n      mstore\n        /* \"#utility.yul\":881:883   */\n      0x20\n        /* \"#utility.yul\":866:884   */\n      add\n        /* \"erc3643/erc3643/Compliance/modular/Modules/ConditionalTransferModule.sol\":2146:2558  function moduleCheck(... */\n    tag_24:\n      mload(0x40)\n      dup1\n      swap2\n      sub\n      swap1\n      return\n        /* \"erc3643/erc3643/Compliance/modular/Modules/AbstractModule.sol\":975:1323  function unbindCompliance(address _compliance) external onlyComplianceCall override {... */\n    tag_4:\n      tag_26\n      tag_27\n      calldatasize\n      0x04\n      tag_28\n      jump\t// in\n    tag_27:\n      tag_29\n      jump\t// in\n    tag_26:\n      stop\n        /* \"erc3643/erc3643/Compliance/modular/Modules/ConditionalTransferModule.sol\":3098:3744  function unApproveTransfer(... */\n    tag_5:\n      tag_26\n      tag_31\n      calldatasize\n      0x04\n      tag_32\n      jump\t// in\n    tag_31:\n      tag_33\n      jump\t// in\n        /* \"erc3643/erc3643/Compliance/modular/Modules/ConditionalTransferModule.sol\":4227:4528  function calculateTransferHash(... */\n    tag_6:\n      tag_34\n      tag_35\n      calldatasize\n      0x04\n      tag_22\n      jump\t// in\n    tag_35:\n        /* \"erc3643/erc3643/Compliance/modular/Modules/ConditionalTransferModule.sol\":4443:4482  abi.encode(_from, _to, _amount, _token) */\n      0x40\n      dup1\n      mload\n      sub(shl(0xa0, 0x01), 0x01)\n        /* \"#utility.yul\":6405:6420   */\n      swap6\n      dup7\n      and\n        /* \"erc3643/erc3643/Compliance/modular/Modules/ConditionalTransferModule.sol\":4443:4482  abi.encode(_from, _to, _amount, _token) */\n      0x20\n      dup1\n      dup4\n      add\n        /* \"#utility.yul\":6387:6421   */\n      swap2\n      swap1\n      swap2\n      mstore\n        /* \"#utility.yul\":6457:6472   */\n      swap5\n      dup7\n      and\n        /* \"#utility.yul\":6437:6455   */\n      dup2\n      dup4\n      add\n        /* \"#utility.yul\":6430:6473   */\n      mstore\n        /* \"#utility.yul\":6489:6507   */\n      0x60\n      dup2\n      add\n        /* \"#utility.yul\":6482:6516   */\n      swap4\n      swap1\n      swap4\n      mstore\n        /* \"#utility.yul\":6552:6567   */\n      swap4\n      and\n        /* \"#utility.yul\":6532:6550   */\n      0x80\n      dup1\n      dup4\n      add\n        /* \"#utility.yul\":6525:6568   */\n      swap2\n      swap1\n      swap2\n      mstore\n        /* \"erc3643/erc3643/Compliance/modular/Modules/ConditionalTransferModule.sol\":4443:4482  abi.encode(_from, _to, _amount, _token) */\n      dup4\n      mload\n      dup1\n      dup4\n      sub\n      swap1\n      swap2\n      add\n      dup2\n      mstore\n        /* \"#utility.yul\":6321:6340   */\n      0xa0\n      swap1\n      swap2\n      add\n        /* \"erc3643/erc3643/Compliance/modular/Modules/ConditionalTransferModule.sol\":4443:4482  abi.encode(_from, _to, _amount, _token) */\n      swap1\n      swap3\n      mstore\n        /* \"erc3643/erc3643/Compliance/modular/Modules/ConditionalTransferModule.sol\":4420:4492  keccak256(... */\n      dup2\n      mload\n      swap2\n      add\n      keccak256\n      swap1\n        /* \"erc3643/erc3643/Compliance/modular/Modules/ConditionalTransferModule.sol\":4227:4528  function calculateTransferHash(... */\n      jump\n    tag_34:\n      mload(0x40)\n        /* \"#utility.yul\":1804:1829   */\n      swap1\n      dup2\n      mstore\n        /* \"#utility.yul\":1792:1794   */\n      0x20\n        /* \"#utility.yul\":1777:1795   */\n      add\n        /* \"erc3643/erc3643/Compliance/modular/Modules/ConditionalTransferModule.sol\":4227:4528  function calculateTransferHash(... */\n      tag_24\n        /* \"#utility.yul\":1658:1835   */\n      jump\n        /* \"erc3643/erc3643/Compliance/modular/Modules/ConditionalTransferModule.sol\":1240:1882  function moduleTransferAction(... */\n    tag_7:\n      tag_26\n      tag_40\n      calldatasize\n      0x04\n      tag_32\n      jump\t// in\n    tag_40:\n      tag_41\n      jump\t// in\n        /* \"erc3643/erc3643/Compliance/modular/Modules/ConditionalTransferModule.sol\":2016:2140  function moduleBurnAction(address _from, uint256 _value)... */\n    tag_8:\n      tag_26\n      tag_43\n      calldatasize\n      0x04\n      tag_44\n      jump\t// in\n    tag_43:\n      tag_45\n      jump\t// in\n        /* \"erc3643/erc3643/Compliance/modular/Modules/AbstractModule.sol\":565:967  function bindCompliance(address _compliance) external override {... */\n    tag_9:\n      tag_26\n      tag_47\n      calldatasize\n      0x04\n      tag_28\n      jump\t// in\n    tag_47:\n      tag_48\n      jump\t// in\n        /* \"erc3643/erc3643/Compliance/modular/Modules/AbstractModule.sol\":1331:1472  function isComplianceBound(address _compliance) external view override returns (bool) {... */\n    tag_10:\n      tag_20\n      tag_50\n      calldatasize\n      0x04\n      tag_28\n      jump\t// in\n    tag_50:\n      sub(shl(0xa0, 0x01), 0x01)\n        /* \"erc3643/erc3643/Compliance/modular/Modules/AbstractModule.sol\":1435:1464  _complianceBound[_compliance] */\n      and\n        /* \"erc3643/erc3643/Compliance/modular/Modules/AbstractModule.sol\":1411:1415  bool */\n      0x00\n        /* \"erc3643/erc3643/Compliance/modular/Modules/AbstractModule.sol\":1435:1464  _complianceBound[_compliance] */\n      swap1\n      dup2\n      mstore\n      0x20\n      dup2\n      swap1\n      mstore\n      0x40\n      swap1\n      keccak256\n      sload\n      0xff\n      and\n      swap1\n        /* \"erc3643/erc3643/Compliance/modular/Modules/AbstractModule.sol\":1331:1472  function isComplianceBound(address _compliance) external view override returns (bool) {... */\n      jump\n        /* \"erc3643/erc3643/Compliance/modular/Modules/ConditionalTransferModule.sol\":2564:3092  function approveTransfer(... */\n    tag_11:\n      tag_26\n      tag_54\n      calldatasize\n      0x04\n      tag_32\n      jump\t// in\n    tag_54:\n      tag_55\n      jump\t// in\n        /* \"erc3643/erc3643/Compliance/modular/Modules/ConditionalTransferModule.sol\":3750:4011  function isTransferApproved(address _compliance, bytes32 _transferHash)... */\n    tag_12:\n      tag_20\n      tag_57\n      calldatasize\n      0x04\n      tag_44\n      jump\t// in\n    tag_57:\n      tag_59\n      jump\t// in\n        /* \"erc3643/erc3643/Compliance/modular/Modules/ConditionalTransferModule.sol\":4017:4221  function getTransferApprovals(address _compliance, bytes32 _transferHash)... */\n    tag_13:\n      tag_34\n      tag_62\n      calldatasize\n      0x04\n      tag_44\n      jump\t// in\n    tag_62:\n      sub(shl(0xa0, 0x01), 0x01)\n        /* \"erc3643/erc3643/Compliance/modular/Modules/ConditionalTransferModule.sol\":4167:4198  _transfersApproved[_compliance] */\n      swap2\n      swap1\n      swap2\n      and\n        /* \"erc3643/erc3643/Compliance/modular/Modules/ConditionalTransferModule.sol\":4136:4143  uint256 */\n      0x00\n        /* \"erc3643/erc3643/Compliance/modular/Modules/ConditionalTransferModule.sol\":4167:4198  _transfersApproved[_compliance] */\n      swap1\n      dup2\n      mstore\n        /* \"erc3643/erc3643/Compliance/modular/Modules/ConditionalTransferModule.sol\":4167:4185  _transfersApproved */\n      0x01\n        /* \"erc3643/erc3643/Compliance/modular/Modules/ConditionalTransferModule.sol\":4167:4198  _transfersApproved[_compliance] */\n      0x20\n      swap1\n      dup2\n      mstore\n      0x40\n      dup1\n      dup4\n      keccak256\n        /* \"erc3643/erc3643/Compliance/modular/Modules/ConditionalTransferModule.sol\":4166:4214  (_transfersApproved[_compliance])[_transferHash] */\n      swap4\n      dup4\n      mstore\n      swap3\n      swap1\n      mstore\n      keccak256\n      sload\n      swap1\n        /* \"erc3643/erc3643/Compliance/modular/Modules/ConditionalTransferModule.sol\":4017:4221  function getTransferApprovals(address _compliance, bytes32 _transferHash)... */\n      jump\n        /* \"erc3643/erc3643/Compliance/modular/Modules/ConditionalTransferModule.sol\":934:1234  function batchUnApproveTransfers(... */\n    tag_14:\n      tag_26\n      tag_67\n      calldatasize\n      0x04\n      tag_68\n      jump\t// in\n    tag_67:\n      tag_69\n      jump\t// in\n        /* \"erc3643/erc3643/Compliance/modular/Modules/ConditionalTransferModule.sol\":632:928  function batchApproveTransfers(... */\n    tag_16:\n      tag_26\n      tag_74\n      calldatasize\n      0x04\n      tag_68\n      jump\t// in\n    tag_74:\n      tag_75\n      jump\t// in\n        /* \"erc3643/erc3643/Compliance/modular/Modules/ConditionalTransferModule.sol\":2146:2558  function moduleCheck(... */\n    tag_23:\n        /* \"erc3643/erc3643/Compliance/modular/Modules/ConditionalTransferModule.sol\":2302:2306  bool */\n      0x00\n        /* \"erc3643/erc3643/Compliance/modular/Modules/ConditionalTransferModule.sol\":2318:2338  bytes32 transferHash */\n      dup1\n        /* \"erc3643/erc3643/Compliance/modular/Modules/ConditionalTransferModule.sol\":2341:2489  calculateTransferHash(... */\n      tag_77\n        /* \"erc3643/erc3643/Compliance/modular/Modules/ConditionalTransferModule.sol\":2376:2381  _from */\n      dup7\n        /* \"erc3643/erc3643/Compliance/modular/Modules/ConditionalTransferModule.sol\":2395:2398  _to */\n      dup7\n        /* \"erc3643/erc3643/Compliance/modular/Modules/ConditionalTransferModule.sol\":2412:2418  _value */\n      dup7\n        /* \"erc3643/erc3643/Compliance/modular/Modules/ConditionalTransferModule.sol\":2451:2462  _compliance */\n      dup7\n      sub(shl(0xa0, 0x01), 0x01)\n        /* \"erc3643/erc3643/Compliance/modular/Modules/ConditionalTransferModule.sol\":2432:2477  IModularCompliance(_compliance).getTokenBound */\n      and\n      0x6a3edf28\n        /* \"erc3643/erc3643/Compliance/modular/Modules/ConditionalTransferModule.sol\":2432:2479  IModularCompliance(_compliance).getTokenBound() */\n      mload(0x40)\n      dup2\n      0xffffffff\n      and\n      0xe0\n      shl\n      dup2\n      mstore\n      0x04\n      add\n      0x20\n      mload(0x40)\n      dup1\n      dup4\n      sub\n      dup2\n      dup7\n      gas\n      staticcall\n      iszero\n      dup1\n      iszero\n      tag_79\n      jumpi\n      returndatasize\n      0x00\n      dup1\n      returndatacopy\n      revert(0x00, returndatasize)\n    tag_79:\n      pop\n      pop\n      pop\n      pop\n      mload(0x40)\n      returndatasize\n      not(0x1f)\n      0x1f\n      dup3\n      add\n      and\n      dup3\n      add\n      dup1\n      0x40\n      mstore\n      pop\n      dup2\n      add\n      swap1\n      tag_35\n      swap2\n      swap1\n      tag_81\n      jump\t// in\n        /* \"erc3643/erc3643/Compliance/modular/Modules/ConditionalTransferModule.sol\":2341:2489  calculateTransferHash(... */\n    tag_77:\n        /* \"erc3643/erc3643/Compliance/modular/Modules/ConditionalTransferModule.sol\":2318:2489  bytes32 transferHash = calculateTransferHash(... */\n      swap1\n      pop\n        /* \"erc3643/erc3643/Compliance/modular/Modules/ConditionalTransferModule.sol\":2506:2551  isTransferApproved(_compliance, transferHash) */\n      tag_82\n        /* \"erc3643/erc3643/Compliance/modular/Modules/ConditionalTransferModule.sol\":2525:2536  _compliance */\n      dup4\n        /* \"erc3643/erc3643/Compliance/modular/Modules/ConditionalTransferModule.sol\":2538:2550  transferHash */\n      dup3\n        /* \"erc3643/erc3643/Compliance/modular/Modules/ConditionalTransferModule.sol\":2506:2524  isTransferApproved */\n      tag_59\n        /* \"erc3643/erc3643/Compliance/modular/Modules/ConditionalTransferModule.sol\":2506:2551  isTransferApproved(_compliance, transferHash) */\n      jump\t// in\n    tag_82:\n        /* \"erc3643/erc3643/Compliance/modular/Modules/ConditionalTransferModule.sol\":2499:2551  return isTransferApproved(_compliance, transferHash) */\n      swap7\n        /* \"erc3643/erc3643/Compliance/modular/Modules/ConditionalTransferModule.sol\":2146:2558  function moduleCheck(... */\n      swap6\n      pop\n      pop\n      pop\n      pop\n      pop\n      pop\n      jump\t// out\n        /* \"erc3643/erc3643/Compliance/modular/Modules/AbstractModule.sol\":975:1323  function unbindCompliance(address _compliance) external onlyComplianceCall override {... */\n    tag_29:\n        /* \"erc3643/erc3643/Compliance/modular/Modules/AbstractModule.sol\":491:501  msg.sender */\n      caller\n        /* \"erc3643/erc3643/Compliance/modular/Modules/AbstractModule.sol\":474:490  _complianceBound */\n      0x00\n        /* \"erc3643/erc3643/Compliance/modular/Modules/AbstractModule.sol\":474:502  _complianceBound[msg.sender] */\n      swap1\n      dup2\n      mstore\n      0x20\n      dup2\n      swap1\n      mstore\n      0x40\n      swap1\n      keccak256\n      sload\n      0xff\n      and\n        /* \"erc3643/erc3643/Compliance/modular/Modules/AbstractModule.sol\":466:537  require(_complianceBound[msg.sender], \"only bound compliance can call\") */\n      tag_84\n      jumpi\n      mload(0x40)\n      shl(0xe5, 0x461bcd)\n      dup2\n      mstore\n      0x04\n      add\n      tag_85\n      swap1\n      tag_86\n      jump\t// in\n    tag_85:\n      mload(0x40)\n      dup1\n      swap2\n      sub\n      swap1\n      revert\n    tag_84:\n      sub(shl(0xa0, 0x01), 0x01)\n        /* \"erc3643/erc3643/Compliance/modular/Modules/AbstractModule.sol\":1078:1103  _compliance != address(0) */\n      dup2\n      and\n        /* \"erc3643/erc3643/Compliance/modular/Modules/AbstractModule.sol\":1070:1139  require(_compliance != address(0), \"invalid argument - zero address\") */\n      tag_88\n      jumpi\n      mload(0x40)\n      shl(0xe5, 0x461bcd)\n      dup2\n      mstore\n        /* \"#utility.yul\":4944:4946   */\n      0x20\n        /* \"erc3643/erc3643/Compliance/modular/Modules/AbstractModule.sol\":1070:1139  require(_compliance != address(0), \"invalid argument - zero address\") */\n      0x04\n      dup3\n      add\n        /* \"#utility.yul\":4926:4947   */\n      mstore\n        /* \"#utility.yul\":4983:4985   */\n      0x1f\n        /* \"#utility.yul\":4963:4981   */\n      0x24\n      dup3\n      add\n        /* \"#utility.yul\":4956:4986   */\n      mstore\n        /* \"#utility.yul\":5022:5055   */\n      0x696e76616c696420617267756d656e74202d207a65726f206164647265737300\n        /* \"#utility.yul\":5002:5020   */\n      0x44\n      dup3\n      add\n        /* \"#utility.yul\":4995:5056   */\n      mstore\n        /* \"#utility.yul\":5073:5091   */\n      0x64\n      add\n        /* \"erc3643/erc3643/Compliance/modular/Modules/AbstractModule.sol\":1070:1139  require(_compliance != address(0), \"invalid argument - zero address\") */\n      tag_85\n        /* \"#utility.yul\":4742:5097   */\n      jump\n        /* \"erc3643/erc3643/Compliance/modular/Modules/AbstractModule.sol\":1070:1139  require(_compliance != address(0), \"invalid argument - zero address\") */\n    tag_88:\n        /* \"erc3643/erc3643/Compliance/modular/Modules/AbstractModule.sol\":1158:1168  msg.sender */\n      caller\n      sub(shl(0xa0, 0x01), 0x01)\n        /* \"erc3643/erc3643/Compliance/modular/Modules/AbstractModule.sol\":1158:1183  msg.sender == _compliance */\n      dup3\n      and\n      eq\n        /* \"erc3643/erc3643/Compliance/modular/Modules/AbstractModule.sol\":1150:1221  require(msg.sender == _compliance, \"only compliance contract can call\") */\n      tag_91\n      jumpi\n      mload(0x40)\n      shl(0xe5, 0x461bcd)\n      dup2\n      mstore\n      0x04\n      add\n      tag_85\n      swap1\n      tag_93\n      jump\t// in\n    tag_91:\n      sub(shl(0xa0, 0x01), 0x01)\n        /* \"erc3643/erc3643/Compliance/modular/Modules/AbstractModule.sol\":1232:1261  _complianceBound[_compliance] */\n      dup2\n      and\n        /* \"erc3643/erc3643/Compliance/modular/Modules/AbstractModule.sol\":1264:1269  false */\n      0x00\n        /* \"erc3643/erc3643/Compliance/modular/Modules/AbstractModule.sol\":1232:1261  _complianceBound[_compliance] */\n      dup2\n      dup2\n      mstore\n      0x20\n      dup2\n      swap1\n      mstore\n      0x40\n      dup1\n      dup3\n      keccak256\n        /* \"erc3643/erc3643/Compliance/modular/Modules/AbstractModule.sol\":1232:1269  _complianceBound[_compliance] = false */\n      dup1\n      sload\n      not(0xff)\n      and\n      swap1\n      sstore\n        /* \"erc3643/erc3643/Compliance/modular/Modules/AbstractModule.sol\":1285:1315  ComplianceUnbound(_compliance) */\n      mload\n      0x408b49d9be1c914c52a0227e18a077e5a892dddf32a26cfa94a5d9708fad7718\n      swap2\n        /* \"erc3643/erc3643/Compliance/modular/Modules/AbstractModule.sol\":1264:1269  false */\n      swap1\n        /* \"erc3643/erc3643/Compliance/modular/Modules/AbstractModule.sol\":1285:1315  ComplianceUnbound(_compliance) */\n      log2\n        /* \"erc3643/erc3643/Compliance/modular/Modules/AbstractModule.sol\":975:1323  function unbindCompliance(address _compliance) external onlyComplianceCall override {... */\n      pop\n      jump\t// out\n        /* \"erc3643/erc3643/Compliance/modular/Modules/ConditionalTransferModule.sol\":3098:3744  function unApproveTransfer(... */\n    tag_33:\n        /* \"erc3643/erc3643/Compliance/modular/Modules/AbstractModule.sol\":491:501  msg.sender */\n      caller\n        /* \"erc3643/erc3643/Compliance/modular/Modules/AbstractModule.sol\":474:490  _complianceBound */\n      0x00\n        /* \"erc3643/erc3643/Compliance/modular/Modules/AbstractModule.sol\":474:502  _complianceBound[msg.sender] */\n      swap1\n      dup2\n      mstore\n      0x20\n      dup2\n      swap1\n      mstore\n      0x40\n      swap1\n      keccak256\n      sload\n      0xff\n      and\n        /* \"erc3643/erc3643/Compliance/modular/Modules/AbstractModule.sol\":466:537  require(_complianceBound[msg.sender], \"only bound compliance can call\") */\n      tag_95\n      jumpi\n      mload(0x40)\n      shl(0xe5, 0x461bcd)\n      dup2\n      mstore\n      0x04\n      add\n      tag_85\n      swap1\n      tag_86\n      jump\t// in\n    tag_95:\n        /* \"erc3643/erc3643/Compliance/modular/Modules/ConditionalTransferModule.sol\":3236:3256  bytes32 transferHash */\n      0x00\n        /* \"erc3643/erc3643/Compliance/modular/Modules/ConditionalTransferModule.sol\":3259:3407  calculateTransferHash(... */\n      tag_98\n        /* \"erc3643/erc3643/Compliance/modular/Modules/ConditionalTransferModule.sol\":3294:3299  _from */\n      dup5\n        /* \"erc3643/erc3643/Compliance/modular/Modules/ConditionalTransferModule.sol\":3313:3316  _to */\n      dup5\n        /* \"erc3643/erc3643/Compliance/modular/Modules/ConditionalTransferModule.sol\":3330:3337  _amount */\n      dup5\n        /* \"erc3643/erc3643/Compliance/modular/Modules/ConditionalTransferModule.sol\":3370:3380  msg.sender */\n      caller\n      sub(shl(0xa0, 0x01), 0x01)\n        /* \"erc3643/erc3643/Compliance/modular/Modules/ConditionalTransferModule.sol\":3351:3395  IModularCompliance(msg.sender).getTokenBound */\n      and\n      0x6a3edf28\n        /* \"erc3643/erc3643/Compliance/modular/Modules/ConditionalTransferModule.sol\":3351:3397  IModularCompliance(msg.sender).getTokenBound() */\n      mload(0x40)\n      dup2\n      0xffffffff\n      and\n      0xe0\n      shl\n      dup2\n      mstore\n      0x04\n      add\n      0x20\n      mload(0x40)\n      dup1\n      dup4\n      sub\n      dup2\n      dup7\n      gas\n      staticcall\n      iszero\n      dup1\n      iszero\n      tag_79\n      jumpi\n      returndatasize\n      0x00\n      dup1\n      returndatacopy\n      revert(0x00, returndatasize)\n        /* \"erc3643/erc3643/Compliance/modular/Modules/ConditionalTransferModule.sol\":3259:3407  calculateTransferHash(... */\n    tag_98:\n        /* \"erc3643/erc3643/Compliance/modular/Modules/ConditionalTransferModule.sol\":3457:3467  msg.sender */\n      caller\n        /* \"erc3643/erc3643/Compliance/modular/Modules/ConditionalTransferModule.sol\":3485:3486  0 */\n      0x00\n        /* \"erc3643/erc3643/Compliance/modular/Modules/ConditionalTransferModule.sol\":3438:3468  _transfersApproved[msg.sender] */\n      swap1\n      dup2\n      mstore\n        /* \"erc3643/erc3643/Compliance/modular/Modules/ConditionalTransferModule.sol\":3438:3456  _transfersApproved */\n      0x01\n        /* \"erc3643/erc3643/Compliance/modular/Modules/ConditionalTransferModule.sol\":3438:3468  _transfersApproved[msg.sender] */\n      0x20\n      swap1\n      dup2\n      mstore\n      0x40\n      dup1\n      dup4\n      keccak256\n        /* \"erc3643/erc3643/Compliance/modular/Modules/ConditionalTransferModule.sol\":3438:3482  _transfersApproved[msg.sender][transferHash] */\n      dup5\n      dup5\n      mstore\n      swap1\n      swap2\n      mstore\n      swap1\n      keccak256\n      sload\n        /* \"erc3643/erc3643/Compliance/modular/Modules/ConditionalTransferModule.sol\":3236:3407  bytes32 transferHash = calculateTransferHash(... */\n      swap1\n      swap2\n      pop\n        /* \"erc3643/erc3643/Compliance/modular/Modules/ConditionalTransferModule.sol\":3417:3524  require(... */\n      tag_102\n      jumpi\n      mload(0x40)\n      shl(0xe5, 0x461bcd)\n      dup2\n      mstore\n        /* \"#utility.yul\":5706:5708   */\n      0x20\n        /* \"erc3643/erc3643/Compliance/modular/Modules/ConditionalTransferModule.sol\":3417:3524  require(... */\n      0x04\n      dup3\n      add\n        /* \"#utility.yul\":5688:5709   */\n      mstore\n        /* \"#utility.yul\":5745:5747   */\n      0x0c\n        /* \"#utility.yul\":5725:5743   */\n      0x24\n      dup3\n      add\n        /* \"#utility.yul\":5718:5748   */\n      mstore\n      shl(0xa2, 0x1b9bdd08185c1c1c9bdd9959)\n        /* \"#utility.yul\":5764:5782   */\n      0x44\n      dup3\n      add\n        /* \"#utility.yul\":5757:5799   */\n      mstore\n        /* \"#utility.yul\":5816:5834   */\n      0x64\n      add\n        /* \"erc3643/erc3643/Compliance/modular/Modules/ConditionalTransferModule.sol\":3417:3524  require(... */\n      tag_85\n        /* \"#utility.yul\":5504:5840   */\n      jump\n        /* \"erc3643/erc3643/Compliance/modular/Modules/ConditionalTransferModule.sol\":3417:3524  require(... */\n    tag_102:\n        /* \"erc3643/erc3643/Compliance/modular/Modules/ConditionalTransferModule.sol\":3553:3563  msg.sender */\n      caller\n        /* \"erc3643/erc3643/Compliance/modular/Modules/ConditionalTransferModule.sol\":3534:3564  _transfersApproved[msg.sender] */\n      0x00\n      swap1\n      dup2\n      mstore\n        /* \"erc3643/erc3643/Compliance/modular/Modules/ConditionalTransferModule.sol\":3534:3552  _transfersApproved */\n      0x01\n        /* \"erc3643/erc3643/Compliance/modular/Modules/ConditionalTransferModule.sol\":3534:3564  _transfersApproved[msg.sender] */\n      0x20\n      swap1\n      dup2\n      mstore\n      0x40\n      dup1\n      dup4\n      keccak256\n        /* \"erc3643/erc3643/Compliance/modular/Modules/ConditionalTransferModule.sol\":3534:3578  _transfersApproved[msg.sender][transferHash] */\n      dup5\n      dup5\n      mstore\n      swap1\n      swap2\n      mstore\n      dup2\n      keccak256\n        /* \"erc3643/erc3643/Compliance/modular/Modules/ConditionalTransferModule.sol\":3534:3580  _transfersApproved[msg.sender][transferHash]-- */\n      dup1\n      sload\n      swap2\n      tag_105\n      dup4\n      tag_106\n      jump\t// in\n    tag_105:\n      swap2\n      swap1\n      pop\n      sstore\n      pop\n        /* \"erc3643/erc3643/Compliance/modular/Modules/ConditionalTransferModule.sol\":3595:3737  ApprovalRemoved(... */\n      0x611476e33c1d844d9fa71ba7de6e7130e18b22971d28580fd76321e4af696356\n        /* \"erc3643/erc3643/Compliance/modular/Modules/ConditionalTransferModule.sol\":3624:3629  _from */\n      dup5\n        /* \"erc3643/erc3643/Compliance/modular/Modules/ConditionalTransferModule.sol\":3643:3646  _to */\n      dup5\n        /* \"erc3643/erc3643/Compliance/modular/Modules/ConditionalTransferModule.sol\":3660:3667  _amount */\n      dup5\n        /* \"erc3643/erc3643/Compliance/modular/Modules/ConditionalTransferModule.sol\":3700:3710  msg.sender */\n      caller\n      sub(shl(0xa0, 0x01), 0x01)\n        /* \"erc3643/erc3643/Compliance/modular/Modules/ConditionalTransferModule.sol\":3681:3725  IModularCompliance(msg.sender).getTokenBound */\n      and\n      0x6a3edf28\n        /* \"erc3643/erc3643/Compliance/modular/Modules/ConditionalTransferModule.sol\":3681:3727  IModularCompliance(msg.sender).getTokenBound() */\n      mload(0x40)\n      dup2\n      0xffffffff\n      and\n      0xe0\n      shl\n      dup2\n      mstore\n      0x04\n      add\n      0x20\n      mload(0x40)\n      dup1\n      dup4\n      sub\n      dup2\n      dup7\n      gas\n      staticcall\n      iszero\n      dup1\n      iszero\n      tag_108\n      jumpi\n      returndatasize\n      0x00\n      dup1\n      returndatacopy\n      revert(0x00, returndatasize)\n    tag_108:\n      pop\n      pop\n      pop\n      pop\n      mload(0x40)\n      returndatasize\n      not(0x1f)\n      0x1f\n      dup3\n      add\n      and\n      dup3\n      add\n      dup1\n      0x40\n      mstore\n      pop\n      dup2\n      add\n      swap1\n      tag_109\n      swap2\n      swap1\n      tag_81\n      jump\t// in\n    tag_109:\n        /* \"erc3643/erc3643/Compliance/modular/Modules/ConditionalTransferModule.sol\":3595:3737  ApprovalRemoved(... */\n      0x40\n      dup1\n      mload\n      sub(shl(0xa0, 0x01), 0x01)\n        /* \"#utility.yul\":6405:6420   */\n      swap6\n      dup7\n      and\n        /* \"#utility.yul\":6387:6421   */\n      dup2\n      mstore\n        /* \"#utility.yul\":6457:6472   */\n      swap4\n      dup6\n      and\n        /* \"#utility.yul\":6452:6454   */\n      0x20\n        /* \"#utility.yul\":6437:6455   */\n      dup6\n      add\n        /* \"#utility.yul\":6430:6473   */\n      mstore\n        /* \"#utility.yul\":6489:6507   */\n      dup4\n      add\n        /* \"#utility.yul\":6482:6516   */\n      swap2\n      swap1\n      swap2\n      mstore\n        /* \"#utility.yul\":6552:6567   */\n      swap1\n      swap2\n      and\n        /* \"#utility.yul\":6547:6549   */\n      0x60\n        /* \"#utility.yul\":6532:6550   */\n      dup3\n      add\n        /* \"#utility.yul\":6525:6568   */\n      mstore\n        /* \"#utility.yul\":6336:6339   */\n      0x80\n        /* \"#utility.yul\":6321:6340   */\n      add\n        /* \"erc3643/erc3643/Compliance/modular/Modules/ConditionalTransferModule.sol\":3595:3737  ApprovalRemoved(... */\n      mload(0x40)\n      dup1\n      swap2\n      sub\n      swap1\n      log1\n        /* \"erc3643/erc3643/Compliance/modular/Modules/ConditionalTransferModule.sol\":3226:3744  {... */\n      pop\n        /* \"erc3643/erc3643/Compliance/modular/Modules/ConditionalTransferModule.sol\":3098:3744  function unApproveTransfer(... */\n      pop\n      pop\n      pop\n      jump\t// out\n        /* \"erc3643/erc3643/Compliance/modular/Modules/ConditionalTransferModule.sol\":1240:1882  function moduleTransferAction(... */\n    tag_41:\n        /* \"erc3643/erc3643/Compliance/modular/Modules/AbstractModule.sol\":491:501  msg.sender */\n      caller\n        /* \"erc3643/erc3643/Compliance/modular/Modules/AbstractModule.sol\":474:490  _complianceBound */\n      0x00\n        /* \"erc3643/erc3643/Compliance/modular/Modules/AbstractModule.sol\":474:502  _complianceBound[msg.sender] */\n      swap1\n      dup2\n      mstore\n      0x20\n      dup2\n      swap1\n      mstore\n      0x40\n      swap1\n      keccak256\n      sload\n      0xff\n      and\n        /* \"erc3643/erc3643/Compliance/modular/Modules/AbstractModule.sol\":466:537  require(_complianceBound[msg.sender], \"only bound compliance can call\") */\n      tag_115\n      jumpi\n      mload(0x40)\n      shl(0xe5, 0x461bcd)\n      dup2\n      mstore\n      0x04\n      add\n      tag_85\n      swap1\n      tag_86\n      jump\t// in\n    tag_115:\n        /* \"erc3643/erc3643/Compliance/modular/Modules/ConditionalTransferModule.sol\":1391:1411  bytes32 transferHash */\n      0x00\n        /* \"erc3643/erc3643/Compliance/modular/Modules/ConditionalTransferModule.sol\":1414:1561  calculateTransferHash(... */\n      tag_118\n        /* \"erc3643/erc3643/Compliance/modular/Modules/ConditionalTransferModule.sol\":1449:1454  _from */\n      dup5\n        /* \"erc3643/erc3643/Compliance/modular/Modules/ConditionalTransferModule.sol\":1468:1471  _to */\n      dup5\n        /* \"erc3643/erc3643/Compliance/modular/Modules/ConditionalTransferModule.sol\":1485:1491  _value */\n      dup5\n        /* \"erc3643/erc3643/Compliance/modular/Modules/ConditionalTransferModule.sol\":1524:1534  msg.sender */\n      caller\n      sub(shl(0xa0, 0x01), 0x01)\n        /* \"erc3643/erc3643/Compliance/modular/Modules/ConditionalTransferModule.sol\":1505:1549  IModularCompliance(msg.sender).getTokenBound */\n      and\n      0x6a3edf28\n        /* \"erc3643/erc3643/Compliance/modular/Modules/ConditionalTransferModule.sol\":1505:1551  IModularCompliance(msg.sender).getTokenBound() */\n      mload(0x40)\n      dup2\n      0xffffffff\n      and\n      0xe0\n      shl\n      dup2\n      mstore\n      0x04\n      add\n      0x20\n      mload(0x40)\n      dup1\n      dup4\n      sub\n      dup2\n      dup7\n      gas\n      staticcall\n      iszero\n      dup1\n      iszero\n      tag_79\n      jumpi\n      returndatasize\n      0x00\n      dup1\n      returndatacopy\n      revert(0x00, returndatasize)\n        /* \"erc3643/erc3643/Compliance/modular/Modules/ConditionalTransferModule.sol\":1414:1561  calculateTransferHash(... */\n    tag_118:\n        /* \"erc3643/erc3643/Compliance/modular/Modules/ConditionalTransferModule.sol\":1594:1604  msg.sender */\n      caller\n        /* \"erc3643/erc3643/Compliance/modular/Modules/ConditionalTransferModule.sol\":1622:1623  0 */\n      0x00\n        /* \"erc3643/erc3643/Compliance/modular/Modules/ConditionalTransferModule.sol\":1575:1605  _transfersApproved[msg.sender] */\n      swap1\n      dup2\n      mstore\n        /* \"erc3643/erc3643/Compliance/modular/Modules/ConditionalTransferModule.sol\":1575:1593  _transfersApproved */\n      0x01\n        /* \"erc3643/erc3643/Compliance/modular/Modules/ConditionalTransferModule.sol\":1575:1605  _transfersApproved[msg.sender] */\n      0x20\n      swap1\n      dup2\n      mstore\n      0x40\n      dup1\n      dup4\n      keccak256\n        /* \"erc3643/erc3643/Compliance/modular/Modules/ConditionalTransferModule.sol\":1575:1619  _transfersApproved[msg.sender][transferHash] */\n      dup5\n      dup5\n      mstore\n      swap1\n      swap2\n      mstore\n      swap1\n      keccak256\n      sload\n        /* \"erc3643/erc3643/Compliance/modular/Modules/ConditionalTransferModule.sol\":1391:1561  bytes32 transferHash = calculateTransferHash(... */\n      swap1\n      swap2\n      pop\n        /* \"erc3643/erc3643/Compliance/modular/Modules/ConditionalTransferModule.sol\":1575:1623  _transfersApproved[msg.sender][transferHash] > 0 */\n      iszero\n        /* \"erc3643/erc3643/Compliance/modular/Modules/ConditionalTransferModule.sol\":1571:1876  if (_transfersApproved[msg.sender][transferHash] > 0) {... */\n      tag_122\n      jumpi\n        /* \"erc3643/erc3643/Compliance/modular/Modules/ConditionalTransferModule.sol\":1658:1668  msg.sender */\n      caller\n        /* \"erc3643/erc3643/Compliance/modular/Modules/ConditionalTransferModule.sol\":1639:1669  _transfersApproved[msg.sender] */\n      0x00\n      swap1\n      dup2\n      mstore\n        /* \"erc3643/erc3643/Compliance/modular/Modules/ConditionalTransferModule.sol\":1639:1657  _transfersApproved */\n      0x01\n        /* \"erc3643/erc3643/Compliance/modular/Modules/ConditionalTransferModule.sol\":1639:1669  _transfersApproved[msg.sender] */\n      0x20\n      swap1\n      dup2\n      mstore\n      0x40\n      dup1\n      dup4\n      keccak256\n        /* \"erc3643/erc3643/Compliance/modular/Modules/ConditionalTransferModule.sol\":1639:1683  _transfersApproved[msg.sender][transferHash] */\n      dup5\n      dup5\n      mstore\n      swap1\n      swap2\n      mstore\n      dup2\n      keccak256\n        /* \"erc3643/erc3643/Compliance/modular/Modules/ConditionalTransferModule.sol\":1639:1685  _transfersApproved[msg.sender][transferHash]-- */\n      dup1\n      sload\n      swap2\n      tag_105\n      dup4\n      tag_106\n      jump\t// in\n        /* \"erc3643/erc3643/Compliance/modular/Modules/ConditionalTransferModule.sol\":1571:1876  if (_transfersApproved[msg.sender][transferHash] > 0) {... */\n    tag_122:\n        /* \"erc3643/erc3643/Compliance/modular/Modules/ConditionalTransferModule.sol\":1381:1882  {... */\n      pop\n        /* \"erc3643/erc3643/Compliance/modular/Modules/ConditionalTransferModule.sol\":1240:1882  function moduleTransferAction(... */\n      pop\n      pop\n      pop\n      jump\t// out\n        /* \"erc3643/erc3643/Compliance/modular/Modules/ConditionalTransferModule.sol\":2016:2140  function moduleBurnAction(address _from, uint256 _value)... */\n    tag_45:\n        /* \"erc3643/erc3643/Compliance/modular/Modules/AbstractModule.sol\":491:501  msg.sender */\n      caller\n        /* \"erc3643/erc3643/Compliance/modular/Modules/AbstractModule.sol\":474:490  _complianceBound */\n      0x00\n        /* \"erc3643/erc3643/Compliance/modular/Modules/AbstractModule.sol\":474:502  _complianceBound[msg.sender] */\n      swap1\n      dup2\n      mstore\n      0x20\n      dup2\n      swap1\n      mstore\n      0x40\n      swap1\n      keccak256\n      sload\n      0xff\n      and\n        /* \"erc3643/erc3643/Compliance/modular/Modules/AbstractModule.sol\":466:537  require(_complianceBound[msg.sender], \"only bound compliance can call\") */\n      tag_129\n      jumpi\n      mload(0x40)\n      shl(0xe5, 0x461bcd)\n      dup2\n      mstore\n      0x04\n      add\n      tag_85\n      swap1\n      tag_86\n      jump\t// in\n    tag_129:\n        /* \"erc3643/erc3643/Compliance/modular/Modules/ConditionalTransferModule.sol\":2016:2140  function moduleBurnAction(address _from, uint256 _value)... */\n      pop\n      pop\n      jump\t// out\n        /* \"erc3643/erc3643/Compliance/modular/Modules/AbstractModule.sol\":565:967  function bindCompliance(address _compliance) external override {... */\n    tag_48:\n      sub(shl(0xa0, 0x01), 0x01)\n        /* \"erc3643/erc3643/Compliance/modular/Modules/AbstractModule.sol\":647:672  _compliance != address(0) */\n      dup2\n      and\n        /* \"erc3643/erc3643/Compliance/modular/Modules/AbstractModule.sol\":639:708  require(_compliance != address(0), \"invalid argument - zero address\") */\n      tag_133\n      jumpi\n      mload(0x40)\n      shl(0xe5, 0x461bcd)\n      dup2\n      mstore\n        /* \"#utility.yul\":4944:4946   */\n      0x20\n        /* \"erc3643/erc3643/Compliance/modular/Modules/AbstractModule.sol\":639:708  require(_compliance != address(0), \"invalid argument - zero address\") */\n      0x04\n      dup3\n      add\n        /* \"#utility.yul\":4926:4947   */\n      mstore\n        /* \"#utility.yul\":4983:4985   */\n      0x1f\n        /* \"#utility.yul\":4963:4981   */\n      0x24\n      dup3\n      add\n        /* \"#utility.yul\":4956:4986   */\n      mstore\n        /* \"#utility.yul\":5022:5055   */\n      0x696e76616c696420617267756d656e74202d207a65726f206164647265737300\n        /* \"#utility.yul\":5002:5020   */\n      0x44\n      dup3\n      add\n        /* \"#utility.yul\":4995:5056   */\n      mstore\n        /* \"#utility.yul\":5073:5091   */\n      0x64\n      add\n        /* \"erc3643/erc3643/Compliance/modular/Modules/AbstractModule.sol\":639:708  require(_compliance != address(0), \"invalid argument - zero address\") */\n      tag_85\n        /* \"#utility.yul\":4742:5097   */\n      jump\n        /* \"erc3643/erc3643/Compliance/modular/Modules/AbstractModule.sol\":639:708  require(_compliance != address(0), \"invalid argument - zero address\") */\n    tag_133:\n      sub(shl(0xa0, 0x01), 0x01)\n        /* \"erc3643/erc3643/Compliance/modular/Modules/AbstractModule.sol\":728:757  _complianceBound[_compliance] */\n      dup2\n      and\n        /* \"erc3643/erc3643/Compliance/modular/Modules/AbstractModule.sol\":728:744  _complianceBound */\n      0x00\n        /* \"erc3643/erc3643/Compliance/modular/Modules/AbstractModule.sol\":728:757  _complianceBound[_compliance] */\n      swap1\n      dup2\n      mstore\n      0x20\n      dup2\n      swap1\n      mstore\n      0x40\n      swap1\n      keccak256\n      sload\n      0xff\n      and\n        /* \"erc3643/erc3643/Compliance/modular/Modules/AbstractModule.sol\":727:757  !_complianceBound[_compliance] */\n      iszero\n        /* \"erc3643/erc3643/Compliance/modular/Modules/AbstractModule.sol\":719:786  require(!_complianceBound[_compliance], \"compliance already bound\") */\n      tag_135\n      jumpi\n      mload(0x40)\n      shl(0xe5, 0x461bcd)\n      dup2\n      mstore\n        /* \"#utility.yul\":6781:6783   */\n      0x20\n        /* \"erc3643/erc3643/Compliance/modular/Modules/AbstractModule.sol\":719:786  require(!_complianceBound[_compliance], \"compliance already bound\") */\n      0x04\n      dup3\n      add\n        /* \"#utility.yul\":6763:6784   */\n      mstore\n        /* \"#utility.yul\":6820:6822   */\n      0x18\n        /* \"#utility.yul\":6800:6818   */\n      0x24\n      dup3\n      add\n        /* \"#utility.yul\":6793:6823   */\n      mstore\n        /* \"#utility.yul\":6859:6885   */\n      0x636f6d706c69616e636520616c726561647920626f756e640000000000000000\n        /* \"#utility.yul\":6839:6857   */\n      0x44\n      dup3\n      add\n        /* \"#utility.yul\":6832:6886   */\n      mstore\n        /* \"#utility.yul\":6903:6921   */\n      0x64\n      add\n        /* \"erc3643/erc3643/Compliance/modular/Modules/AbstractModule.sol\":719:786  require(!_complianceBound[_compliance], \"compliance already bound\") */\n      tag_85\n        /* \"#utility.yul\":6579:6927   */\n      jump\n        /* \"erc3643/erc3643/Compliance/modular/Modules/AbstractModule.sol\":719:786  require(!_complianceBound[_compliance], \"compliance already bound\") */\n    tag_135:\n        /* \"erc3643/erc3643/Compliance/modular/Modules/AbstractModule.sol\":805:815  msg.sender */\n      caller\n      sub(shl(0xa0, 0x01), 0x01)\n        /* \"erc3643/erc3643/Compliance/modular/Modules/AbstractModule.sol\":805:830  msg.sender == _compliance */\n      dup3\n      and\n      eq\n        /* \"erc3643/erc3643/Compliance/modular/Modules/AbstractModule.sol\":797:868  require(msg.sender == _compliance, \"only compliance contract can call\") */\n      tag_138\n      jumpi\n      mload(0x40)\n      shl(0xe5, 0x461bcd)\n      dup2\n      mstore\n      0x04\n      add\n      tag_85\n      swap1\n      tag_93\n      jump\t// in\n    tag_138:\n      sub(shl(0xa0, 0x01), 0x01)\n        /* \"erc3643/erc3643/Compliance/modular/Modules/AbstractModule.sol\":879:908  _complianceBound[_compliance] */\n      dup2\n      and\n        /* \"erc3643/erc3643/Compliance/modular/Modules/AbstractModule.sol\":879:895  _complianceBound */\n      0x00\n        /* \"erc3643/erc3643/Compliance/modular/Modules/AbstractModule.sol\":879:908  _complianceBound[_compliance] */\n      dup2\n      dup2\n      mstore\n      0x20\n      dup2\n      swap1\n      mstore\n      0x40\n      dup1\n      dup3\n      keccak256\n        /* \"erc3643/erc3643/Compliance/modular/Modules/AbstractModule.sol\":879:915  _complianceBound[_compliance] = true */\n      dup1\n      sload\n      not(0xff)\n      and\n        /* \"erc3643/erc3643/Compliance/modular/Modules/AbstractModule.sol\":911:915  true */\n      0x01\n        /* \"erc3643/erc3643/Compliance/modular/Modules/AbstractModule.sol\":879:915  _complianceBound[_compliance] = true */\n      or\n      swap1\n      sstore\n        /* \"erc3643/erc3643/Compliance/modular/Modules/AbstractModule.sol\":931:959  ComplianceBound(_compliance) */\n      mload\n      0x1f7b76c58fb697eb53c6c7c1becb96911516a136e24d7ced386b2355358b75a3\n      swap2\n        /* \"erc3643/erc3643/Compliance/modular/Modules/AbstractModule.sol\":879:895  _complianceBound */\n      swap1\n        /* \"erc3643/erc3643/Compliance/modular/Modules/AbstractModule.sol\":931:959  ComplianceBound(_compliance) */\n      log2\n        /* \"erc3643/erc3643/Compliance/modular/Modules/AbstractModule.sol\":565:967  function bindCompliance(address _compliance) external override {... */\n      pop\n      jump\t// out\n        /* \"erc3643/erc3643/Compliance/modular/Modules/ConditionalTransferModule.sol\":2564:3092  function approveTransfer(... */\n    tag_55:\n        /* \"erc3643/erc3643/Compliance/modular/Modules/AbstractModule.sol\":491:501  msg.sender */\n      caller\n        /* \"erc3643/erc3643/Compliance/modular/Modules/AbstractModule.sol\":474:490  _complianceBound */\n      0x00\n        /* \"erc3643/erc3643/Compliance/modular/Modules/AbstractModule.sol\":474:502  _complianceBound[msg.sender] */\n      swap1\n      dup2\n      mstore\n      0x20\n      dup2\n      swap1\n      mstore\n      0x40\n      swap1\n      keccak256\n      sload\n      0xff\n      and\n        /* \"erc3643/erc3643/Compliance/modular/Modules/AbstractModule.sol\":466:537  require(_complianceBound[msg.sender], \"only bound compliance can call\") */\n      tag_142\n      jumpi\n      mload(0x40)\n      shl(0xe5, 0x461bcd)\n      dup2\n      mstore\n      0x04\n      add\n      tag_85\n      swap1\n      tag_86\n      jump\t// in\n    tag_142:\n        /* \"erc3643/erc3643/Compliance/modular/Modules/ConditionalTransferModule.sol\":2700:2720  bytes32 transferHash */\n      0x00\n        /* \"erc3643/erc3643/Compliance/modular/Modules/ConditionalTransferModule.sol\":2723:2871  calculateTransferHash(... */\n      tag_145\n        /* \"erc3643/erc3643/Compliance/modular/Modules/ConditionalTransferModule.sol\":2758:2763  _from */\n      dup5\n        /* \"erc3643/erc3643/Compliance/modular/Modules/ConditionalTransferModule.sol\":2777:2780  _to */\n      dup5\n        /* \"erc3643/erc3643/Compliance/modular/Modules/ConditionalTransferModule.sol\":2794:2801  _amount */\n      dup5\n        /* \"erc3643/erc3643/Compliance/modular/Modules/ConditionalTransferModule.sol\":2834:2844  msg.sender */\n      caller\n      sub(shl(0xa0, 0x01), 0x01)\n        /* \"erc3643/erc3643/Compliance/modular/Modules/ConditionalTransferModule.sol\":2815:2859  IModularCompliance(msg.sender).getTokenBound */\n      and\n      0x6a3edf28\n        /* \"erc3643/erc3643/Compliance/modular/Modules/ConditionalTransferModule.sol\":2815:2861  IModularCompliance(msg.sender).getTokenBound() */\n      mload(0x40)\n      dup2\n      0xffffffff\n      and\n      0xe0\n      shl\n      dup2\n      mstore\n      0x04\n      add\n      0x20\n      mload(0x40)\n      dup1\n      dup4\n      sub\n      dup2\n      dup7\n      gas\n      staticcall\n      iszero\n      dup1\n      iszero\n      tag_79\n      jumpi\n      returndatasize\n      0x00\n      dup1\n      returndatacopy\n      revert(0x00, returndatasize)\n        /* \"erc3643/erc3643/Compliance/modular/Modules/ConditionalTransferModule.sol\":2723:2871  calculateTransferHash(... */\n    tag_145:\n        /* \"erc3643/erc3643/Compliance/modular/Modules/ConditionalTransferModule.sol\":2900:2910  msg.sender */\n      caller\n        /* \"erc3643/erc3643/Compliance/modular/Modules/ConditionalTransferModule.sol\":2881:2911  _transfersApproved[msg.sender] */\n      0x00\n      swap1\n      dup2\n      mstore\n        /* \"erc3643/erc3643/Compliance/modular/Modules/ConditionalTransferModule.sol\":2881:2899  _transfersApproved */\n      0x01\n        /* \"erc3643/erc3643/Compliance/modular/Modules/ConditionalTransferModule.sol\":2881:2911  _transfersApproved[msg.sender] */\n      0x20\n      swap1\n      dup2\n      mstore\n      0x40\n      dup1\n      dup4\n      keccak256\n        /* \"erc3643/erc3643/Compliance/modular/Modules/ConditionalTransferModule.sol\":2881:2925  _transfersApproved[msg.sender][transferHash] */\n      dup5\n      dup5\n      mstore\n      swap1\n      swap2\n      mstore\n      dup2\n      keccak256\n        /* \"erc3643/erc3643/Compliance/modular/Modules/ConditionalTransferModule.sol\":2881:2927  _transfersApproved[msg.sender][transferHash]++ */\n      dup1\n      sload\n        /* \"erc3643/erc3643/Compliance/modular/Modules/ConditionalTransferModule.sol\":2700:2871  bytes32 transferHash = calculateTransferHash(... */\n      swap3\n      swap4\n      pop\n        /* \"erc3643/erc3643/Compliance/modular/Modules/ConditionalTransferModule.sol\":2881:2925  _transfersApproved[msg.sender][transferHash] */\n      swap1\n        /* \"erc3643/erc3643/Compliance/modular/Modules/ConditionalTransferModule.sol\":2881:2927  _transfersApproved[msg.sender][transferHash]++ */\n      tag_149\n      dup4\n      tag_150\n      jump\t// in\n    tag_149:\n      swap2\n      swap1\n      pop\n      sstore\n      pop\n        /* \"erc3643/erc3643/Compliance/modular/Modules/ConditionalTransferModule.sol\":2942:3085  TransferApproved(... */\n      0x776c895685d60b5ac3aa2c3381ed2b021825c000fbb0d8ff1359636700aa1651\n        /* \"erc3643/erc3643/Compliance/modular/Modules/ConditionalTransferModule.sol\":2972:2977  _from */\n      dup5\n        /* \"erc3643/erc3643/Compliance/modular/Modules/ConditionalTransferModule.sol\":2991:2994  _to */\n      dup5\n        /* \"erc3643/erc3643/Compliance/modular/Modules/ConditionalTransferModule.sol\":3008:3015  _amount */\n      dup5\n        /* \"erc3643/erc3643/Compliance/modular/Modules/ConditionalTransferModule.sol\":3048:3058  msg.sender */\n      caller\n      sub(shl(0xa0, 0x01), 0x01)\n        /* \"erc3643/erc3643/Compliance/modular/Modules/ConditionalTransferModule.sol\":3029:3073  IModularCompliance(msg.sender).getTokenBound */\n      and\n      0x6a3edf28\n        /* \"erc3643/erc3643/Compliance/modular/Modules/ConditionalTransferModule.sol\":3029:3075  IModularCompliance(msg.sender).getTokenBound() */\n      mload(0x40)\n      dup2\n      0xffffffff\n      and\n      0xe0\n      shl\n      dup2\n      mstore\n      0x04\n      add\n      0x20\n      mload(0x40)\n      dup1\n      dup4\n      sub\n      dup2\n      dup7\n      gas\n      staticcall\n      iszero\n      dup1\n      iszero\n      tag_108\n      jumpi\n      returndatasize\n      0x00\n      dup1\n      returndatacopy\n      revert(0x00, returndatasize)\n        /* \"erc3643/erc3643/Compliance/modular/Modules/ConditionalTransferModule.sol\":3750:4011  function isTransferApproved(address _compliance, bytes32 _transferHash)... */\n    tag_59:\n      sub(shl(0xa0, 0x01), 0x01)\n        /* \"erc3643/erc3643/Compliance/modular/Modules/ConditionalTransferModule.sol\":3893:3924  _transfersApproved[_compliance] */\n      dup3\n      and\n        /* \"erc3643/erc3643/Compliance/modular/Modules/ConditionalTransferModule.sol\":3867:3871  bool */\n      0x00\n        /* \"erc3643/erc3643/Compliance/modular/Modules/ConditionalTransferModule.sol\":3893:3924  _transfersApproved[_compliance] */\n      swap1\n      dup2\n      mstore\n        /* \"erc3643/erc3643/Compliance/modular/Modules/ConditionalTransferModule.sol\":3893:3911  _transfersApproved */\n      0x01\n        /* \"erc3643/erc3643/Compliance/modular/Modules/ConditionalTransferModule.sol\":3893:3924  _transfersApproved[_compliance] */\n      0x20\n      swap1\n      dup2\n      mstore\n      0x40\n      dup1\n      dup4\n      keccak256\n        /* \"erc3643/erc3643/Compliance/modular/Modules/ConditionalTransferModule.sol\":3892:3940  (_transfersApproved[_compliance])[_transferHash] */\n      dup5\n      dup5\n      mstore\n      swap1\n      swap2\n      mstore\n      dup2\n      keccak256\n      sload\n        /* \"erc3643/erc3643/Compliance/modular/Modules/ConditionalTransferModule.sol\":3891:3945  ((_transfersApproved[_compliance])[_transferHash]) > 0 */\n      iszero\n        /* \"erc3643/erc3643/Compliance/modular/Modules/ConditionalTransferModule.sol\":3887:3983  if (((_transfersApproved[_compliance])[_transferHash]) > 0) {... */\n      tag_156\n      jumpi\n      pop\n        /* \"erc3643/erc3643/Compliance/modular/Modules/ConditionalTransferModule.sol\":3968:3972  true */\n      0x01\n        /* \"erc3643/erc3643/Compliance/modular/Modules/ConditionalTransferModule.sol\":3961:3972  return true */\n      jump(tag_155)\n        /* \"erc3643/erc3643/Compliance/modular/Modules/ConditionalTransferModule.sol\":3887:3983  if (((_transfersApproved[_compliance])[_transferHash]) > 0) {... */\n    tag_156:\n      pop\n        /* \"erc3643/erc3643/Compliance/modular/Modules/ConditionalTransferModule.sol\":3999:4004  false */\n      0x00\n        /* \"erc3643/erc3643/Compliance/modular/Modules/ConditionalTransferModule.sol\":3750:4011  function isTransferApproved(address _compliance, bytes32 _transferHash)... */\n    tag_155:\n      swap3\n      swap2\n      pop\n      pop\n      jump\t// out\n        /* \"erc3643/erc3643/Compliance/modular/Modules/ConditionalTransferModule.sol\":934:1234  function batchUnApproveTransfers(... */\n    tag_69:\n        /* \"erc3643/erc3643/Compliance/modular/Modules/AbstractModule.sol\":491:501  msg.sender */\n      caller\n        /* \"erc3643/erc3643/Compliance/modular/Modules/AbstractModule.sol\":474:490  _complianceBound */\n      0x00\n        /* \"erc3643/erc3643/Compliance/modular/Modules/AbstractModule.sol\":474:502  _complianceBound[msg.sender] */\n      swap1\n      dup2\n      mstore\n      0x20\n      dup2\n      swap1\n      mstore\n      0x40\n      swap1\n      keccak256\n      sload\n      0xff\n      and\n        /* \"erc3643/erc3643/Compliance/modular/Modules/AbstractModule.sol\":466:537  require(_complianceBound[msg.sender], \"only bound compliance can call\") */\n      tag_159\n      jumpi\n      mload(0x40)\n      shl(0xe5, 0x461bcd)\n      dup2\n      mstore\n      0x04\n      add\n      tag_85\n      swap1\n      tag_86\n      jump\t// in\n    tag_159:\n        /* \"erc3643/erc3643/Compliance/modular/Modules/ConditionalTransferModule.sol\":1118:1127  uint256 i */\n      0x00\n        /* \"erc3643/erc3643/Compliance/modular/Modules/ConditionalTransferModule.sol\":1113:1228  for (uint256 i = 0; i < _from.length; i++) {... */\n    tag_162:\n        /* \"erc3643/erc3643/Compliance/modular/Modules/ConditionalTransferModule.sol\":1133:1149  i < _from.length */\n      dup6\n      dup2\n      lt\n        /* \"erc3643/erc3643/Compliance/modular/Modules/ConditionalTransferModule.sol\":1113:1228  for (uint256 i = 0; i < _from.length; i++) {... */\n      iszero\n      tag_163\n      jumpi\n        /* \"erc3643/erc3643/Compliance/modular/Modules/ConditionalTransferModule.sol\":1170:1217  unApproveTransfer(_from[i], _to[i], _amount[i]) */\n      tag_165\n        /* \"erc3643/erc3643/Compliance/modular/Modules/ConditionalTransferModule.sol\":1188:1193  _from */\n      dup8\n      dup8\n        /* \"erc3643/erc3643/Compliance/modular/Modules/ConditionalTransferModule.sol\":1194:1195  i */\n      dup4\n        /* \"erc3643/erc3643/Compliance/modular/Modules/ConditionalTransferModule.sol\":1188:1196  _from[i] */\n      dup2\n      dup2\n      lt\n      tag_167\n      jumpi\n      tag_167\n      tag_168\n      jump\t// in\n    tag_167:\n      swap1\n      pop\n      0x20\n      mul\n      add\n      0x20\n      dup2\n      add\n      swap1\n      tag_169\n      swap2\n      swap1\n      tag_28\n      jump\t// in\n    tag_169:\n        /* \"erc3643/erc3643/Compliance/modular/Modules/ConditionalTransferModule.sol\":1198:1201  _to */\n      dup7\n      dup7\n        /* \"erc3643/erc3643/Compliance/modular/Modules/ConditionalTransferModule.sol\":1202:1203  i */\n      dup5\n        /* \"erc3643/erc3643/Compliance/modular/Modules/ConditionalTransferModule.sol\":1198:1204  _to[i] */\n      dup2\n      dup2\n      lt\n      tag_171\n      jumpi\n      tag_171\n      tag_168\n      jump\t// in\n    tag_171:\n      swap1\n      pop\n      0x20\n      mul\n      add\n      0x20\n      dup2\n      add\n      swap1\n      tag_172\n      swap2\n      swap1\n      tag_28\n      jump\t// in\n    tag_172:\n        /* \"erc3643/erc3643/Compliance/modular/Modules/ConditionalTransferModule.sol\":1206:1213  _amount */\n      dup6\n      dup6\n        /* \"erc3643/erc3643/Compliance/modular/Modules/ConditionalTransferModule.sol\":1214:1215  i */\n      dup6\n        /* \"erc3643/erc3643/Compliance/modular/Modules/ConditionalTransferModule.sol\":1206:1216  _amount[i] */\n      dup2\n      dup2\n      lt\n      tag_174\n      jumpi\n      tag_174\n      tag_168\n      jump\t// in\n    tag_174:\n      swap1\n      pop\n      0x20\n      mul\n      add\n      calldataload\n        /* \"erc3643/erc3643/Compliance/modular/Modules/ConditionalTransferModule.sol\":1170:1187  unApproveTransfer */\n      tag_33\n        /* \"erc3643/erc3643/Compliance/modular/Modules/ConditionalTransferModule.sol\":1170:1217  unApproveTransfer(_from[i], _to[i], _amount[i]) */\n      jump\t// in\n    tag_165:\n        /* \"erc3643/erc3643/Compliance/modular/Modules/ConditionalTransferModule.sol\":1151:1154  i++ */\n      dup1\n      tag_175\n      dup2\n      tag_150\n      jump\t// in\n    tag_175:\n      swap2\n      pop\n      pop\n        /* \"erc3643/erc3643/Compliance/modular/Modules/ConditionalTransferModule.sol\":1113:1228  for (uint256 i = 0; i < _from.length; i++) {... */\n      jump(tag_162)\n    tag_163:\n      pop\n        /* \"erc3643/erc3643/Compliance/modular/Modules/ConditionalTransferModule.sol\":934:1234  function batchUnApproveTransfers(... */\n      pop\n      pop\n      pop\n      pop\n      pop\n      pop\n      jump\t// out\n        /* \"erc3643/erc3643/Compliance/modular/Modules/ConditionalTransferModule.sol\":632:928  function batchApproveTransfers(... */\n    tag_75:\n        /* \"erc3643/erc3643/Compliance/modular/Modules/AbstractModule.sol\":491:501  msg.sender */\n      caller\n        /* \"erc3643/erc3643/Compliance/modular/Modules/AbstractModule.sol\":474:490  _complianceBound */\n      0x00\n        /* \"erc3643/erc3643/Compliance/modular/Modules/AbstractModule.sol\":474:502  _complianceBound[msg.sender] */\n      swap1\n      dup2\n      mstore\n      0x20\n      dup2\n      swap1\n      mstore\n      0x40\n      swap1\n      keccak256\n      sload\n      0xff\n      and\n        /* \"erc3643/erc3643/Compliance/modular/Modules/AbstractModule.sol\":466:537  require(_complianceBound[msg.sender], \"only bound compliance can call\") */\n      tag_181\n      jumpi\n      mload(0x40)\n      shl(0xe5, 0x461bcd)\n      dup2\n      mstore\n      0x04\n      add\n      tag_85\n      swap1\n      tag_86\n      jump\t// in\n    tag_181:\n        /* \"erc3643/erc3643/Compliance/modular/Modules/ConditionalTransferModule.sol\":814:823  uint256 i */\n      0x00\n        /* \"erc3643/erc3643/Compliance/modular/Modules/ConditionalTransferModule.sol\":809:922  for (uint256 i = 0; i < _from.length; i++) {... */\n    tag_184:\n        /* \"erc3643/erc3643/Compliance/modular/Modules/ConditionalTransferModule.sol\":829:845  i < _from.length */\n      dup6\n      dup2\n      lt\n        /* \"erc3643/erc3643/Compliance/modular/Modules/ConditionalTransferModule.sol\":809:922  for (uint256 i = 0; i < _from.length; i++) {... */\n      iszero\n      tag_163\n      jumpi\n        /* \"erc3643/erc3643/Compliance/modular/Modules/ConditionalTransferModule.sol\":866:911  approveTransfer(_from[i], _to[i], _amount[i]) */\n      tag_187\n        /* \"erc3643/erc3643/Compliance/modular/Modules/ConditionalTransferModule.sol\":882:887  _from */\n      dup8\n      dup8\n        /* \"erc3643/erc3643/Compliance/modular/Modules/ConditionalTransferModule.sol\":888:889  i */\n      dup4\n        /* \"erc3643/erc3643/Compliance/modular/Modules/ConditionalTransferModule.sol\":882:890  _from[i] */\n      dup2\n      dup2\n      lt\n      tag_189\n      jumpi\n      tag_189\n      tag_168\n      jump\t// in\n    tag_189:\n      swap1\n      pop\n      0x20\n      mul\n      add\n      0x20\n      dup2\n      add\n      swap1\n      tag_190\n      swap2\n      swap1\n      tag_28\n      jump\t// in\n    tag_190:\n        /* \"erc3643/erc3643/Compliance/modular/Modules/ConditionalTransferModule.sol\":892:895  _to */\n      dup7\n      dup7\n        /* \"erc3643/erc3643/Compliance/modular/Modules/ConditionalTransferModule.sol\":896:897  i */\n      dup5\n        /* \"erc3643/erc3643/Compliance/modular/Modules/ConditionalTransferModule.sol\":892:898  _to[i] */\n      dup2\n      dup2\n      lt\n      tag_192\n      jumpi\n      tag_192\n      tag_168\n      jump\t// in\n    tag_192:\n      swap1\n      pop\n      0x20\n      mul\n      add\n      0x20\n      dup2\n      add\n      swap1\n      tag_193\n      swap2\n      swap1\n      tag_28\n      jump\t// in\n    tag_193:\n        /* \"erc3643/erc3643/Compliance/modular/Modules/ConditionalTransferModule.sol\":900:907  _amount */\n      dup6\n      dup6\n        /* \"erc3643/erc3643/Compliance/modular/Modules/ConditionalTransferModule.sol\":908:909  i */\n      dup6\n        /* \"erc3643/erc3643/Compliance/modular/Modules/ConditionalTransferModule.sol\":900:910  _amount[i] */\n      dup2\n      dup2\n      lt\n      tag_195\n      jumpi\n      tag_195\n      tag_168\n      jump\t// in\n    tag_195:\n      swap1\n      pop\n      0x20\n      mul\n      add\n      calldataload\n        /* \"erc3643/erc3643/Compliance/modular/Modules/ConditionalTransferModule.sol\":866:881  approveTransfer */\n      tag_55\n        /* \"erc3643/erc3643/Compliance/modular/Modules/ConditionalTransferModule.sol\":866:911  approveTransfer(_from[i], _to[i], _amount[i]) */\n      jump\t// in\n    tag_187:\n        /* \"erc3643/erc3643/Compliance/modular/Modules/ConditionalTransferModule.sol\":847:850  i++ */\n      dup1\n      tag_196\n      dup2\n      tag_150\n      jump\t// in\n    tag_196:\n      swap2\n      pop\n      pop\n        /* \"erc3643/erc3643/Compliance/modular/Modules/ConditionalTransferModule.sol\":809:922  for (uint256 i = 0; i < _from.length; i++) {... */\n      jump(tag_184)\n        /* \"#utility.yul\":14:145   */\n    tag_197:\n      sub(shl(0xa0, 0x01), 0x01)\n        /* \"#utility.yul\":89:120   */\n      dup2\n      and\n        /* \"#utility.yul\":79:121   */\n      dup2\n      eq\n        /* \"#utility.yul\":69:139   */\n      tag_202\n      jumpi\n        /* \"#utility.yul\":135:136   */\n      0x00\n        /* \"#utility.yul\":132:133   */\n      dup1\n        /* \"#utility.yul\":125:137   */\n      revert\n        /* \"#utility.yul\":69:139   */\n    tag_202:\n        /* \"#utility.yul\":14:145   */\n      pop\n      jump\t// out\n        /* \"#utility.yul\":150:748   */\n    tag_22:\n        /* \"#utility.yul\":236:242   */\n      0x00\n        /* \"#utility.yul\":244:250   */\n      dup1\n        /* \"#utility.yul\":252:258   */\n      0x00\n        /* \"#utility.yul\":260:266   */\n      dup1\n        /* \"#utility.yul\":313:316   */\n      0x80\n        /* \"#utility.yul\":301:310   */\n      dup6\n        /* \"#utility.yul\":292:299   */\n      dup8\n        /* \"#utility.yul\":288:311   */\n      sub\n        /* \"#utility.yul\":284:317   */\n      slt\n        /* \"#utility.yul\":281:334   */\n      iszero\n      tag_204\n      jumpi\n        /* \"#utility.yul\":330:331   */\n      0x00\n        /* \"#utility.yul\":327:328   */\n      dup1\n        /* \"#utility.yul\":320:332   */\n      revert\n        /* \"#utility.yul\":281:334   */\n    tag_204:\n        /* \"#utility.yul\":369:378   */\n      dup5\n        /* \"#utility.yul\":356:379   */\n      calldataload\n        /* \"#utility.yul\":388:419   */\n      tag_205\n        /* \"#utility.yul\":413:418   */\n      dup2\n        /* \"#utility.yul\":388:419   */\n      tag_197\n      jump\t// in\n    tag_205:\n        /* \"#utility.yul\":438:443   */\n      swap4\n      pop\n        /* \"#utility.yul\":495:497   */\n      0x20\n        /* \"#utility.yul\":480:498   */\n      dup6\n      add\n        /* \"#utility.yul\":467:499   */\n      calldataload\n        /* \"#utility.yul\":508:541   */\n      tag_206\n        /* \"#utility.yul\":467:499   */\n      dup2\n        /* \"#utility.yul\":508:541   */\n      tag_197\n      jump\t// in\n    tag_206:\n        /* \"#utility.yul\":560:567   */\n      swap3\n      pop\n        /* \"#utility.yul\":614:616   */\n      0x40\n        /* \"#utility.yul\":599:617   */\n      dup6\n      add\n        /* \"#utility.yul\":586:618   */\n      calldataload\n      swap2\n      pop\n        /* \"#utility.yul\":670:672   */\n      0x60\n        /* \"#utility.yul\":655:673   */\n      dup6\n      add\n        /* \"#utility.yul\":642:674   */\n      calldataload\n        /* \"#utility.yul\":683:716   */\n      tag_207\n        /* \"#utility.yul\":642:674   */\n      dup2\n        /* \"#utility.yul\":683:716   */\n      tag_197\n      jump\t// in\n    tag_207:\n        /* \"#utility.yul\":150:748   */\n      swap4\n      swap7\n      swap3\n      swap6\n      pop\n      swap1\n      swap4\n      pop\n      pop\n      jump\t// out\n        /* \"#utility.yul\":945:1192   */\n    tag_28:\n        /* \"#utility.yul\":1004:1010   */\n      0x00\n        /* \"#utility.yul\":1057:1059   */\n      0x20\n        /* \"#utility.yul\":1045:1054   */\n      dup3\n        /* \"#utility.yul\":1036:1043   */\n      dup5\n        /* \"#utility.yul\":1032:1055   */\n      sub\n        /* \"#utility.yul\":1028:1060   */\n      slt\n        /* \"#utility.yul\":1025:1077   */\n      iszero\n      tag_210\n      jumpi\n        /* \"#utility.yul\":1073:1074   */\n      0x00\n        /* \"#utility.yul\":1070:1071   */\n      dup1\n        /* \"#utility.yul\":1063:1075   */\n      revert\n        /* \"#utility.yul\":1025:1077   */\n    tag_210:\n        /* \"#utility.yul\":1112:1121   */\n      dup2\n        /* \"#utility.yul\":1099:1122   */\n      calldataload\n        /* \"#utility.yul\":1131:1162   */\n      tag_211\n        /* \"#utility.yul\":1156:1161   */\n      dup2\n        /* \"#utility.yul\":1131:1162   */\n      tag_197\n      jump\t// in\n    tag_211:\n        /* \"#utility.yul\":1181:1186   */\n      swap4\n        /* \"#utility.yul\":945:1192   */\n      swap3\n      pop\n      pop\n      pop\n      jump\t// out\n        /* \"#utility.yul\":1197:1653   */\n    tag_32:\n        /* \"#utility.yul\":1274:1280   */\n      0x00\n        /* \"#utility.yul\":1282:1288   */\n      dup1\n        /* \"#utility.yul\":1290:1296   */\n      0x00\n        /* \"#utility.yul\":1343:1345   */\n      0x60\n        /* \"#utility.yul\":1331:1340   */\n      dup5\n        /* \"#utility.yul\":1322:1329   */\n      dup7\n        /* \"#utility.yul\":1318:1341   */\n      sub\n        /* \"#utility.yul\":1314:1346   */\n      slt\n        /* \"#utility.yul\":1311:1363   */\n      iszero\n      tag_213\n      jumpi\n        /* \"#utility.yul\":1359:1360   */\n      0x00\n        /* \"#utility.yul\":1356:1357   */\n      dup1\n        /* \"#utility.yul\":1349:1361   */\n      revert\n        /* \"#utility.yul\":1311:1363   */\n    tag_213:\n        /* \"#utility.yul\":1398:1407   */\n      dup4\n        /* \"#utility.yul\":1385:1408   */\n      calldataload\n        /* \"#utility.yul\":1417:1448   */\n      tag_214\n        /* \"#utility.yul\":1442:1447   */\n      dup2\n        /* \"#utility.yul\":1417:1448   */\n      tag_197\n      jump\t// in\n    tag_214:\n        /* \"#utility.yul\":1467:1472   */\n      swap3\n      pop\n        /* \"#utility.yul\":1524:1526   */\n      0x20\n        /* \"#utility.yul\":1509:1527   */\n      dup5\n      add\n        /* \"#utility.yul\":1496:1528   */\n      calldataload\n        /* \"#utility.yul\":1537:1570   */\n      tag_215\n        /* \"#utility.yul\":1496:1528   */\n      dup2\n        /* \"#utility.yul\":1537:1570   */\n      tag_197\n      jump\t// in\n    tag_215:\n        /* \"#utility.yul\":1197:1653   */\n      swap3\n      swap6\n        /* \"#utility.yul\":1589:1596   */\n      swap3\n      swap5\n      pop\n      pop\n      pop\n        /* \"#utility.yul\":1643:1645   */\n      0x40\n        /* \"#utility.yul\":1628:1646   */\n      swap2\n      swap1\n      swap2\n      add\n        /* \"#utility.yul\":1615:1647   */\n      calldataload\n      swap1\n        /* \"#utility.yul\":1197:1653   */\n      jump\t// out\n        /* \"#utility.yul\":1840:2155   */\n    tag_44:\n        /* \"#utility.yul\":1908:1914   */\n      0x00\n        /* \"#utility.yul\":1916:1922   */\n      dup1\n        /* \"#utility.yul\":1969:1971   */\n      0x40\n        /* \"#utility.yul\":1957:1966   */\n      dup4\n        /* \"#utility.yul\":1948:1955   */\n      dup6\n        /* \"#utility.yul\":1944:1967   */\n      sub\n        /* \"#utility.yul\":1940:1972   */\n      slt\n        /* \"#utility.yul\":1937:1989   */\n      iszero\n      tag_218\n      jumpi\n        /* \"#utility.yul\":1985:1986   */\n      0x00\n        /* \"#utility.yul\":1982:1983   */\n      dup1\n        /* \"#utility.yul\":1975:1987   */\n      revert\n        /* \"#utility.yul\":1937:1989   */\n    tag_218:\n        /* \"#utility.yul\":2024:2033   */\n      dup3\n        /* \"#utility.yul\":2011:2034   */\n      calldataload\n        /* \"#utility.yul\":2043:2074   */\n      tag_219\n        /* \"#utility.yul\":2068:2073   */\n      dup2\n        /* \"#utility.yul\":2043:2074   */\n      tag_197\n      jump\t// in\n    tag_219:\n        /* \"#utility.yul\":2093:2098   */\n      swap5\n        /* \"#utility.yul\":2145:2147   */\n      0x20\n        /* \"#utility.yul\":2130:2148   */\n      swap4\n      swap1\n      swap4\n      add\n        /* \"#utility.yul\":2117:2149   */\n      calldataload\n      swap4\n      pop\n      pop\n      pop\n        /* \"#utility.yul\":1840:2155   */\n      jump\t// out\n        /* \"#utility.yul\":2662:3029   */\n    tag_198:\n        /* \"#utility.yul\":2725:2733   */\n      0x00\n        /* \"#utility.yul\":2735:2741   */\n      dup1\n        /* \"#utility.yul\":2789:2792   */\n      dup4\n        /* \"#utility.yul\":2782:2786   */\n      0x1f\n        /* \"#utility.yul\":2774:2780   */\n      dup5\n        /* \"#utility.yul\":2770:2787   */\n      add\n        /* \"#utility.yul\":2766:2793   */\n      slt\n        /* \"#utility.yul\":2756:2811   */\n      tag_225\n      jumpi\n        /* \"#utility.yul\":2807:2808   */\n      0x00\n        /* \"#utility.yul\":2804:2805   */\n      dup1\n        /* \"#utility.yul\":2797:2809   */\n      revert\n        /* \"#utility.yul\":2756:2811   */\n    tag_225:\n      pop\n        /* \"#utility.yul\":2830:2850   */\n      dup2\n      calldataload\n        /* \"#utility.yul\":2873:2891   */\n      0xffffffffffffffff\n        /* \"#utility.yul\":2862:2892   */\n      dup2\n      gt\n        /* \"#utility.yul\":2859:2909   */\n      iszero\n      tag_226\n      jumpi\n        /* \"#utility.yul\":2905:2906   */\n      0x00\n        /* \"#utility.yul\":2902:2903   */\n      dup1\n        /* \"#utility.yul\":2895:2907   */\n      revert\n        /* \"#utility.yul\":2859:2909   */\n    tag_226:\n        /* \"#utility.yul\":2942:2946   */\n      0x20\n        /* \"#utility.yul\":2934:2940   */\n      dup4\n        /* \"#utility.yul\":2930:2947   */\n      add\n        /* \"#utility.yul\":2918:2947   */\n      swap2\n      pop\n        /* \"#utility.yul\":3002:3005   */\n      dup4\n        /* \"#utility.yul\":2995:2999   */\n      0x20\n        /* \"#utility.yul\":2985:2991   */\n      dup3\n        /* \"#utility.yul\":2982:2983   */\n      0x05\n        /* \"#utility.yul\":2978:2992   */\n      shl\n        /* \"#utility.yul\":2970:2976   */\n      dup6\n        /* \"#utility.yul\":2966:2993   */\n      add\n        /* \"#utility.yul\":2962:3000   */\n      add\n        /* \"#utility.yul\":2959:3006   */\n      gt\n        /* \"#utility.yul\":2956:3023   */\n      iszero\n      tag_227\n      jumpi\n        /* \"#utility.yul\":3019:3020   */\n      0x00\n        /* \"#utility.yul\":3016:3017   */\n      dup1\n        /* \"#utility.yul\":3009:3021   */\n      revert\n        /* \"#utility.yul\":2956:3023   */\n    tag_227:\n        /* \"#utility.yul\":2662:3029   */\n      swap3\n      pop\n      swap3\n      swap1\n      pop\n      jump\t// out\n        /* \"#utility.yul\":3034:4122   */\n    tag_68:\n        /* \"#utility.yul\":3192:3198   */\n      0x00\n        /* \"#utility.yul\":3200:3206   */\n      dup1\n        /* \"#utility.yul\":3208:3214   */\n      0x00\n        /* \"#utility.yul\":3216:3222   */\n      dup1\n        /* \"#utility.yul\":3224:3230   */\n      0x00\n        /* \"#utility.yul\":3232:3238   */\n      dup1\n        /* \"#utility.yul\":3285:3287   */\n      0x60\n        /* \"#utility.yul\":3273:3282   */\n      dup8\n        /* \"#utility.yul\":3264:3271   */\n      dup10\n        /* \"#utility.yul\":3260:3283   */\n      sub\n        /* \"#utility.yul\":3256:3288   */\n      slt\n        /* \"#utility.yul\":3253:3305   */\n      iszero\n      tag_229\n      jumpi\n        /* \"#utility.yul\":3301:3302   */\n      0x00\n        /* \"#utility.yul\":3298:3299   */\n      dup1\n        /* \"#utility.yul\":3291:3303   */\n      revert\n        /* \"#utility.yul\":3253:3305   */\n    tag_229:\n        /* \"#utility.yul\":3341:3350   */\n      dup7\n        /* \"#utility.yul\":3328:3351   */\n      calldataload\n        /* \"#utility.yul\":3370:3388   */\n      0xffffffffffffffff\n        /* \"#utility.yul\":3411:3413   */\n      dup1\n        /* \"#utility.yul\":3403:3409   */\n      dup3\n        /* \"#utility.yul\":3400:3414   */\n      gt\n        /* \"#utility.yul\":3397:3431   */\n      iszero\n      tag_230\n      jumpi\n        /* \"#utility.yul\":3427:3428   */\n      0x00\n        /* \"#utility.yul\":3424:3425   */\n      dup1\n        /* \"#utility.yul\":3417:3429   */\n      revert\n        /* \"#utility.yul\":3397:3431   */\n    tag_230:\n        /* \"#utility.yul\":3466:3536   */\n      tag_231\n        /* \"#utility.yul\":3528:3535   */\n      dup11\n        /* \"#utility.yul\":3519:3525   */\n      dup4\n        /* \"#utility.yul\":3508:3517   */\n      dup12\n        /* \"#utility.yul\":3504:3526   */\n      add\n        /* \"#utility.yul\":3466:3536   */\n      tag_198\n      jump\t// in\n    tag_231:\n        /* \"#utility.yul\":3555:3563   */\n      swap1\n      swap9\n      pop\n        /* \"#utility.yul\":3440:3536   */\n      swap7\n      pop\n        /* \"#utility.yul\":3643:3645   */\n      0x20\n        /* \"#utility.yul\":3628:3646   */\n      dup10\n      add\n        /* \"#utility.yul\":3615:3647   */\n      calldataload\n      swap2\n      pop\n        /* \"#utility.yul\":3659:3675   */\n      dup1\n      dup3\n      gt\n        /* \"#utility.yul\":3656:3692   */\n      iszero\n      tag_232\n      jumpi\n        /* \"#utility.yul\":3688:3689   */\n      0x00\n        /* \"#utility.yul\":3685:3686   */\n      dup1\n        /* \"#utility.yul\":3678:3690   */\n      revert\n        /* \"#utility.yul\":3656:3692   */\n    tag_232:\n        /* \"#utility.yul\":3727:3799   */\n      tag_233\n        /* \"#utility.yul\":3791:3798   */\n      dup11\n        /* \"#utility.yul\":3780:3788   */\n      dup4\n        /* \"#utility.yul\":3769:3778   */\n      dup12\n        /* \"#utility.yul\":3765:3789   */\n      add\n        /* \"#utility.yul\":3727:3799   */\n      tag_198\n      jump\t// in\n    tag_233:\n        /* \"#utility.yul\":3818:3826   */\n      swap1\n      swap7\n      pop\n        /* \"#utility.yul\":3701:3799   */\n      swap5\n      pop\n        /* \"#utility.yul\":3906:3908   */\n      0x40\n        /* \"#utility.yul\":3891:3909   */\n      dup10\n      add\n        /* \"#utility.yul\":3878:3910   */\n      calldataload\n      swap2\n      pop\n        /* \"#utility.yul\":3922:3938   */\n      dup1\n      dup3\n      gt\n        /* \"#utility.yul\":3919:3955   */\n      iszero\n      tag_234\n      jumpi\n        /* \"#utility.yul\":3951:3952   */\n      0x00\n        /* \"#utility.yul\":3948:3949   */\n      dup1\n        /* \"#utility.yul\":3941:3953   */\n      revert\n        /* \"#utility.yul\":3919:3955   */\n    tag_234:\n      pop\n        /* \"#utility.yul\":3990:4062   */\n      tag_235\n        /* \"#utility.yul\":4054:4061   */\n      dup10\n        /* \"#utility.yul\":4043:4051   */\n      dup3\n        /* \"#utility.yul\":4032:4041   */\n      dup11\n        /* \"#utility.yul\":4028:4052   */\n      add\n        /* \"#utility.yul\":3990:4062   */\n      tag_198\n      jump\t// in\n    tag_235:\n        /* \"#utility.yul\":3034:4122   */\n      swap8\n      swap11\n      swap7\n      swap10\n      pop\n      swap5\n      swap8\n      pop\n      swap3\n      swap6\n        /* \"#utility.yul\":4081:4089   */\n      swap4\n      swap5\n        /* \"#utility.yul\":3034:4122   */\n      swap3\n      pop\n      pop\n      pop\n      jump\t// out\n        /* \"#utility.yul\":4127:4378   */\n    tag_81:\n        /* \"#utility.yul\":4197:4203   */\n      0x00\n        /* \"#utility.yul\":4250:4252   */\n      0x20\n        /* \"#utility.yul\":4238:4247   */\n      dup3\n        /* \"#utility.yul\":4229:4236   */\n      dup5\n        /* \"#utility.yul\":4225:4248   */\n      sub\n        /* \"#utility.yul\":4221:4253   */\n      slt\n        /* \"#utility.yul\":4218:4270   */\n      iszero\n      tag_237\n      jumpi\n        /* \"#utility.yul\":4266:4267   */\n      0x00\n        /* \"#utility.yul\":4263:4264   */\n      dup1\n        /* \"#utility.yul\":4256:4268   */\n      revert\n        /* \"#utility.yul\":4218:4270   */\n    tag_237:\n        /* \"#utility.yul\":4298:4307   */\n      dup2\n        /* \"#utility.yul\":4292:4308   */\n      mload\n        /* \"#utility.yul\":4317:4348   */\n      tag_211\n        /* \"#utility.yul\":4342:4347   */\n      dup2\n        /* \"#utility.yul\":4317:4348   */\n      tag_197\n      jump\t// in\n        /* \"#utility.yul\":4383:4737   */\n    tag_86:\n        /* \"#utility.yul\":4585:4587   */\n      0x20\n        /* \"#utility.yul\":4567:4588   */\n      dup1\n      dup3\n      mstore\n        /* \"#utility.yul\":4624:4626   */\n      0x1e\n        /* \"#utility.yul\":4604:4622   */\n      swap1\n      dup3\n      add\n        /* \"#utility.yul\":4597:4627   */\n      mstore\n        /* \"#utility.yul\":4663:4695   */\n      0x6f6e6c7920626f756e6420636f6d706c69616e63652063616e2063616c6c0000\n        /* \"#utility.yul\":4658:4660   */\n      0x40\n        /* \"#utility.yul\":4643:4661   */\n      dup3\n      add\n        /* \"#utility.yul\":4636:4696   */\n      mstore\n        /* \"#utility.yul\":4728:4730   */\n      0x60\n        /* \"#utility.yul\":4713:4731   */\n      add\n      swap1\n        /* \"#utility.yul\":4383:4737   */\n      jump\t// out\n        /* \"#utility.yul\":5102:5499   */\n    tag_93:\n        /* \"#utility.yul\":5304:5306   */\n      0x20\n        /* \"#utility.yul\":5286:5307   */\n      dup1\n      dup3\n      mstore\n        /* \"#utility.yul\":5343:5345   */\n      0x21\n        /* \"#utility.yul\":5323:5341   */\n      swap1\n      dup3\n      add\n        /* \"#utility.yul\":5316:5346   */\n      mstore\n        /* \"#utility.yul\":5382:5416   */\n      0x6f6e6c7920636f6d706c69616e636520636f6e74726163742063616e2063616c\n        /* \"#utility.yul\":5377:5379   */\n      0x40\n        /* \"#utility.yul\":5362:5380   */\n      dup3\n      add\n        /* \"#utility.yul\":5355:5417   */\n      mstore\n      shl(0xfa, 0x1b)\n        /* \"#utility.yul\":5448:5450   */\n      0x60\n        /* \"#utility.yul\":5433:5451   */\n      dup3\n      add\n        /* \"#utility.yul\":5426:5457   */\n      mstore\n        /* \"#utility.yul\":5489:5492   */\n      0x80\n        /* \"#utility.yul\":5474:5493   */\n      add\n      swap1\n        /* \"#utility.yul\":5102:5499   */\n      jump\t// out\n        /* \"#utility.yul\":5845:5972   */\n    tag_199:\n        /* \"#utility.yul\":5906:5916   */\n      0x4e487b71\n        /* \"#utility.yul\":5901:5904   */\n      0xe0\n        /* \"#utility.yul\":5897:5917   */\n      shl\n        /* \"#utility.yul\":5894:5895   */\n      0x00\n        /* \"#utility.yul\":5887:5918   */\n      mstore\n        /* \"#utility.yul\":5937:5941   */\n      0x11\n        /* \"#utility.yul\":5934:5935   */\n      0x04\n        /* \"#utility.yul\":5927:5942   */\n      mstore\n        /* \"#utility.yul\":5961:5965   */\n      0x24\n        /* \"#utility.yul\":5958:5959   */\n      0x00\n        /* \"#utility.yul\":5951:5966   */\n      revert\n        /* \"#utility.yul\":5977:6113   */\n    tag_106:\n        /* \"#utility.yul\":6016:6019   */\n      0x00\n        /* \"#utility.yul\":6044:6049   */\n      dup2\n        /* \"#utility.yul\":6034:6073   */\n      tag_246\n      jumpi\n        /* \"#utility.yul\":6053:6071   */\n      tag_246\n      tag_199\n      jump\t// in\n    tag_246:\n      pop\n      not(0x00)\n        /* \"#utility.yul\":6089:6107   */\n      add\n      swap1\n        /* \"#utility.yul\":5977:6113   */\n      jump\t// out\n        /* \"#utility.yul\":6932:7067   */\n    tag_150:\n        /* \"#utility.yul\":6971:6974   */\n      0x00\n        /* \"#utility.yul\":6992:7009   */\n      0x01\n      dup3\n      add\n        /* \"#utility.yul\":6989:7032   */\n      tag_251\n      jumpi\n        /* \"#utility.yul\":7012:7030   */\n      tag_251\n      tag_199\n      jump\t// in\n    tag_251:\n      pop\n        /* \"#utility.yul\":7059:7060   */\n      0x01\n        /* \"#utility.yul\":7048:7061   */\n      add\n      swap1\n        /* \"#utility.yul\":6932:7067   */\n      jump\t// out\n        /* \"#utility.yul\":7072:7199   */\n    tag_168:\n        /* \"#utility.yul\":7133:7143   */\n      0x4e487b71\n        /* \"#utility.yul\":7128:7131   */\n      0xe0\n        /* \"#utility.yul\":7124:7144   */\n      shl\n        /* \"#utility.yul\":7121:7122   */\n      0x00\n        /* \"#utility.yul\":7114:7145   */\n      mstore\n        /* \"#utility.yul\":7164:7168   */\n      0x32\n        /* \"#utility.yul\":7161:7162   */\n      0x04\n        /* \"#utility.yul\":7154:7169   */\n      mstore\n        /* \"#utility.yul\":7188:7192   */\n      0x24\n        /* \"#utility.yul\":7185:7186   */\n      0x00\n        /* \"#utility.yul\":7178:7193   */\n      revert\n\n    auxdata: 0xa264697066735822122089725f5066f5f4f3127d7db1660d3b9c0b70ef38b46ef4939afa06dcd60ba4f164736f6c63430008110033\n}\n",
				"bytecode": {
					"linkReferences": {},
					"object": "608060405234801561001057600080fd5b50610db7806100206000396000f3fe608060405234801561001057600080fd5b50600436106100ea5760003560e01c80634cf4d2951161008c578063bdf5a41511610066578063bdf5a41514610232578063e2cb5c3414610268578063f104a8c9146101ba578063f3850dbf1461027b57600080fd5b80634cf4d295146101e0578063825808051461020c578063933865191461021f57600080fd5b8063202a6376116100c8578063202a63761461013f5780632cb7e1ec146101a7578063372491a2146101ba5780634a932544146101cd57600080fd5b8063013b7ce4146100ef5780630694a5fb146101175780631c7a17931461012c575b600080fd5b6101026100fd366004610ac6565b61028e565b60405190151581526020015b60405180910390f35b61012a610125366004610b19565b61030f565b005b61012a61013a366004610b3d565b61040e565b61019961014d366004610ac6565b604080516001600160a01b0395861660208083019190915294861681830152606081019390935293166080808301919091528351808303909101815260a0909101909252815191012090565b60405190815260200161010e565b61012a6101b5366004610b3d565b6105c5565b61012a6101c8366004610b7e565b610689565b61012a6101db366004610b19565b6106bc565b6101026101ee366004610b19565b6001600160a01b031660009081526020819052604090205460ff1690565b61012a61021a366004610b3d565b6107ef565b61010261022d366004610b7e565b6108f4565b610199610240366004610b7e565b6001600160a01b03919091166000908152600160209081526040808320938352929052205490565b61012a610276366004610bf6565b61092f565b61012a610289366004610bf6565b6109f3565b6000806102f9868686866001600160a01b0316636a3edf286040518163ffffffff1660e01b8152600401602060405180830381865afa1580156102d5573d6000803e3d6000fd5b505050506040513d601f19601f8201168201806040525081019061014d9190610c90565b905061030583826108f4565b9695505050505050565b3360009081526020819052604090205460ff166103475760405162461bcd60e51b815260040161033e90610cad565b60405180910390fd5b6001600160a01b03811661039d5760405162461bcd60e51b815260206004820152601f60248201527f696e76616c696420617267756d656e74202d207a65726f206164647265737300604482015260640161033e565b336001600160a01b038216146103c55760405162461bcd60e51b815260040161033e90610ce4565b6001600160a01b038116600081815260208190526040808220805460ff19169055517f408b49d9be1c914c52a0227e18a077e5a892dddf32a26cfa94a5d9708fad77189190a250565b3360009081526020819052604090205460ff1661043d5760405162461bcd60e51b815260040161033e90610cad565b6000610483848484336001600160a01b0316636a3edf286040518163ffffffff1660e01b8152600401602060405180830381865afa1580156102d5573d6000803e3d6000fd5b3360009081526001602090815260408083208484529091529020549091506104dc5760405162461bcd60e51b815260206004820152600c60248201526b1b9bdd08185c1c1c9bdd995960a21b604482015260640161033e565b336000908152600160209081526040808320848452909152812080549161050283610d3b565b91905055507f611476e33c1d844d9fa71ba7de6e7130e18b22971d28580fd76321e4af696356848484336001600160a01b0316636a3edf286040518163ffffffff1660e01b8152600401602060405180830381865afa158015610569573d6000803e3d6000fd5b505050506040513d601f19601f8201168201806040525081019061058d9190610c90565b604080516001600160a01b0395861681529385166020850152830191909152909116606082015260800160405180910390a150505050565b3360009081526020819052604090205460ff166105f45760405162461bcd60e51b815260040161033e90610cad565b600061063a848484336001600160a01b0316636a3edf286040518163ffffffff1660e01b8152600401602060405180830381865afa1580156102d5573d6000803e3d6000fd5b3360009081526001602090815260408083208484529091529020549091501561068357336000908152600160209081526040808320848452909152812080549161050283610d3b565b50505050565b3360009081526020819052604090205460ff166106b85760405162461bcd60e51b815260040161033e90610cad565b5050565b6001600160a01b0381166107125760405162461bcd60e51b815260206004820152601f60248201527f696e76616c696420617267756d656e74202d207a65726f206164647265737300604482015260640161033e565b6001600160a01b03811660009081526020819052604090205460ff161561077b5760405162461bcd60e51b815260206004820152601860248201527f636f6d706c69616e636520616c726561647920626f756e640000000000000000604482015260640161033e565b336001600160a01b038216146107a35760405162461bcd60e51b815260040161033e90610ce4565b6001600160a01b038116600081815260208190526040808220805460ff19166001179055517f1f7b76c58fb697eb53c6c7c1becb96911516a136e24d7ced386b2355358b75a39190a250565b3360009081526020819052604090205460ff1661081e5760405162461bcd60e51b815260040161033e90610cad565b6000610864848484336001600160a01b0316636a3edf286040518163ffffffff1660e01b8152600401602060405180830381865afa1580156102d5573d6000803e3d6000fd5b336000908152600160209081526040808320848452909152812080549293509061088d83610d52565b91905055507f776c895685d60b5ac3aa2c3381ed2b021825c000fbb0d8ff1359636700aa1651848484336001600160a01b0316636a3edf286040518163ffffffff1660e01b8152600401602060405180830381865afa158015610569573d6000803e3d6000fd5b6001600160a01b03821660009081526001602090815260408083208484529091528120541561092557506001610929565b5060005b92915050565b3360009081526020819052604090205460ff1661095e5760405162461bcd60e51b815260040161033e90610cad565b60005b858110156109ea576109d887878381811061097e5761097e610d6b565b90506020020160208101906109939190610b19565b8686848181106109a5576109a5610d6b565b90506020020160208101906109ba9190610b19565b8585858181106109cc576109cc610d6b565b9050602002013561040e565b806109e281610d52565b915050610961565b50505050505050565b3360009081526020819052604090205460ff16610a225760405162461bcd60e51b815260040161033e90610cad565b60005b858110156109ea57610a9c878783818110610a4257610a42610d6b565b9050602002016020810190610a579190610b19565b868684818110610a6957610a69610d6b565b9050602002016020810190610a7e9190610b19565b858585818110610a9057610a90610d6b565b905060200201356107ef565b80610aa681610d52565b915050610a25565b6001600160a01b0381168114610ac357600080fd5b50565b60008060008060808587031215610adc57600080fd5b8435610ae781610aae565b93506020850135610af781610aae565b9250604085013591506060850135610b0e81610aae565b939692955090935050565b600060208284031215610b2b57600080fd5b8135610b3681610aae565b9392505050565b600080600060608486031215610b5257600080fd5b8335610b5d81610aae565b92506020840135610b6d81610aae565b929592945050506040919091013590565b60008060408385031215610b9157600080fd5b8235610b9c81610aae565b946020939093013593505050565b60008083601f840112610bbc57600080fd5b50813567ffffffffffffffff811115610bd457600080fd5b6020830191508360208260051b8501011115610bef57600080fd5b9250929050565b60008060008060008060608789031215610c0f57600080fd5b863567ffffffffffffffff80821115610c2757600080fd5b610c338a838b01610baa565b90985096506020890135915080821115610c4c57600080fd5b610c588a838b01610baa565b90965094506040890135915080821115610c7157600080fd5b50610c7e89828a01610baa565b979a9699509497509295939492505050565b600060208284031215610ca257600080fd5b8151610b3681610aae565b6020808252601e908201527f6f6e6c7920626f756e6420636f6d706c69616e63652063616e2063616c6c0000604082015260600190565b60208082526021908201527f6f6e6c7920636f6d706c69616e636520636f6e74726163742063616e2063616c6040820152601b60fa1b606082015260800190565b634e487b7160e01b600052601160045260246000fd5b600081610d4a57610d4a610d25565b506000190190565b600060018201610d6457610d64610d25565b5060010190565b634e487b7160e01b600052603260045260246000fdfea264697066735822122089725f5066f5f4f3127d7db1660d3b9c0b70ef38b46ef4939afa06dcd60ba4f164736f6c63430008110033",
					"opcodes": "PUSH1 0x80 PUSH1 0x40 MSTORE CALLVALUE DUP1 ISZERO PUSH2 0x10 JUMPI PUSH1 0x0 DUP1 REVERT JUMPDEST POP PUSH2 0xDB7 DUP1 PUSH2 0x20 PUSH1 0x0 CODECOPY PUSH1 0x0 RETURN INVALID PUSH1 0x80 PUSH1 0x40 MSTORE CALLVALUE DUP1 ISZERO PUSH2 0x10 JUMPI PUSH1 0x0 DUP1 REVERT JUMPDEST POP PUSH1 0x4 CALLDATASIZE LT PUSH2 0xEA JUMPI PUSH1 0x0 CALLDATALOAD PUSH1 0xE0 SHR DUP1 PUSH4 0x4CF4D295 GT PUSH2 0x8C JUMPI DUP1 PUSH4 0xBDF5A415 GT PUSH2 0x66 JUMPI DUP1 PUSH4 0xBDF5A415 EQ PUSH2 0x232 JUMPI DUP1 PUSH4 0xE2CB5C34 EQ PUSH2 0x268 JUMPI DUP1 PUSH4 0xF104A8C9 EQ PUSH2 0x1BA JUMPI DUP1 PUSH4 0xF3850DBF EQ PUSH2 0x27B JUMPI PUSH1 0x0 DUP1 REVERT JUMPDEST DUP1 PUSH4 0x4CF4D295 EQ PUSH2 0x1E0 JUMPI DUP1 PUSH4 0x82580805 EQ PUSH2 0x20C JUMPI DUP1 PUSH4 0x93386519 EQ PUSH2 0x21F JUMPI PUSH1 0x0 DUP1 REVERT JUMPDEST DUP1 PUSH4 0x202A6376 GT PUSH2 0xC8 JUMPI DUP1 PUSH4 0x202A6376 EQ PUSH2 0x13F JUMPI DUP1 PUSH4 0x2CB7E1EC EQ PUSH2 0x1A7 JUMPI DUP1 PUSH4 0x372491A2 EQ PUSH2 0x1BA JUMPI DUP1 PUSH4 0x4A932544 EQ PUSH2 0x1CD JUMPI PUSH1 0x0 DUP1 REVERT JUMPDEST DUP1 PUSH4 0x13B7CE4 EQ PUSH2 0xEF JUMPI DUP1 PUSH4 0x694A5FB EQ PUSH2 0x117 JUMPI DUP1 PUSH4 0x1C7A1793 EQ PUSH2 0x12C JUMPI JUMPDEST PUSH1 0x0 DUP1 REVERT JUMPDEST PUSH2 0x102 PUSH2 0xFD CALLDATASIZE PUSH1 0x4 PUSH2 0xAC6 JUMP JUMPDEST PUSH2 0x28E JUMP JUMPDEST PUSH1 0x40 MLOAD SWAP1 ISZERO ISZERO DUP2 MSTORE PUSH1 0x20 ADD JUMPDEST PUSH1 0x40 MLOAD DUP1 SWAP2 SUB SWAP1 RETURN JUMPDEST PUSH2 0x12A PUSH2 0x125 CALLDATASIZE PUSH1 0x4 PUSH2 0xB19 JUMP JUMPDEST PUSH2 0x30F JUMP JUMPDEST STOP JUMPDEST PUSH2 0x12A PUSH2 0x13A CALLDATASIZE PUSH1 0x4 PUSH2 0xB3D JUMP JUMPDEST PUSH2 0x40E JUMP JUMPDEST PUSH2 0x199 PUSH2 0x14D CALLDATASIZE PUSH1 0x4 PUSH2 0xAC6 JUMP JUMPDEST PUSH1 0x40 DUP1 MLOAD PUSH1 0x1 PUSH1 0x1 PUSH1 0xA0 SHL SUB SWAP6 DUP7 AND PUSH1 0x20 DUP1 DUP4 ADD SWAP2 SWAP1 SWAP2 MSTORE SWAP5 DUP7 AND DUP2 DUP4 ADD MSTORE PUSH1 0x60 DUP2 ADD SWAP4 SWAP1 SWAP4 MSTORE SWAP4 AND PUSH1 0x80 DUP1 DUP4 ADD SWAP2 SWAP1 SWAP2 MSTORE DUP4 MLOAD DUP1 DUP4 SUB SWAP1 SWAP2 ADD DUP2 MSTORE PUSH1 0xA0 SWAP1 SWAP2 ADD SWAP1 SWAP3 MSTORE DUP2 MLOAD SWAP2 ADD KECCAK256 SWAP1 JUMP JUMPDEST PUSH1 0x40 MLOAD SWAP1 DUP2 MSTORE PUSH1 0x20 ADD PUSH2 0x10E JUMP JUMPDEST PUSH2 0x12A PUSH2 0x1B5 CALLDATASIZE PUSH1 0x4 PUSH2 0xB3D JUMP JUMPDEST PUSH2 0x5C5 JUMP JUMPDEST PUSH2 0x12A PUSH2 0x1C8 CALLDATASIZE PUSH1 0x4 PUSH2 0xB7E JUMP JUMPDEST PUSH2 0x689 JUMP JUMPDEST PUSH2 0x12A PUSH2 0x1DB CALLDATASIZE PUSH1 0x4 PUSH2 0xB19 JUMP JUMPDEST PUSH2 0x6BC JUMP JUMPDEST PUSH2 0x102 PUSH2 0x1EE CALLDATASIZE PUSH1 0x4 PUSH2 0xB19 JUMP JUMPDEST PUSH1 0x1 PUSH1 0x1 PUSH1 0xA0 SHL SUB AND PUSH1 0x0 SWAP1 DUP2 MSTORE PUSH1 0x20 DUP2 SWAP1 MSTORE PUSH1 0x40 SWAP1 KECCAK256 SLOAD PUSH1 0xFF AND SWAP1 JUMP JUMPDEST PUSH2 0x12A PUSH2 0x21A CALLDATASIZE PUSH1 0x4 PUSH2 0xB3D JUMP JUMPDEST PUSH2 0x7EF JUMP JUMPDEST PUSH2 0x102 PUSH2 0x22D CALLDATASIZE PUSH1 0x4 PUSH2 0xB7E JUMP JUMPDEST PUSH2 0x8F4 JUMP JUMPDEST PUSH2 0x199 PUSH2 0x240 CALLDATASIZE PUSH1 0x4 PUSH2 0xB7E JUMP JUMPDEST PUSH1 0x1 PUSH1 0x1 PUSH1 0xA0 SHL SUB SWAP2 SWAP1 SWAP2 AND PUSH1 0x0 SWAP1 DUP2 MSTORE PUSH1 0x1 PUSH1 0x20 SWAP1 DUP2 MSTORE PUSH1 0x40 DUP1 DUP4 KECCAK256 SWAP4 DUP4 MSTORE SWAP3 SWAP1 MSTORE KECCAK256 SLOAD SWAP1 JUMP JUMPDEST PUSH2 0x12A PUSH2 0x276 CALLDATASIZE PUSH1 0x4 PUSH2 0xBF6 JUMP JUMPDEST PUSH2 0x92F JUMP JUMPDEST PUSH2 0x12A PUSH2 0x289 CALLDATASIZE PUSH1 0x4 PUSH2 0xBF6 JUMP JUMPDEST PUSH2 0x9F3 JUMP JUMPDEST PUSH1 0x0 DUP1 PUSH2 0x2F9 DUP7 DUP7 DUP7 DUP7 PUSH1 0x1 PUSH1 0x1 PUSH1 0xA0 SHL SUB AND PUSH4 0x6A3EDF28 PUSH1 0x40 MLOAD DUP2 PUSH4 0xFFFFFFFF AND PUSH1 0xE0 SHL DUP2 MSTORE PUSH1 0x4 ADD PUSH1 0x20 PUSH1 0x40 MLOAD DUP1 DUP4 SUB DUP2 DUP7 GAS STATICCALL ISZERO DUP1 ISZERO PUSH2 0x2D5 JUMPI RETURNDATASIZE PUSH1 0x0 DUP1 RETURNDATACOPY RETURNDATASIZE PUSH1 0x0 REVERT JUMPDEST POP POP POP POP PUSH1 0x40 MLOAD RETURNDATASIZE PUSH1 0x1F NOT PUSH1 0x1F DUP3 ADD AND DUP3 ADD DUP1 PUSH1 0x40 MSTORE POP DUP2 ADD SWAP1 PUSH2 0x14D SWAP2 SWAP1 PUSH2 0xC90 JUMP JUMPDEST SWAP1 POP PUSH2 0x305 DUP4 DUP3 PUSH2 0x8F4 JUMP JUMPDEST SWAP7 SWAP6 POP POP POP POP POP POP JUMP JUMPDEST CALLER PUSH1 0x0 SWAP1 DUP2 MSTORE PUSH1 0x20 DUP2 SWAP1 MSTORE PUSH1 0x40 SWAP1 KECCAK256 SLOAD PUSH1 0xFF AND PUSH2 0x347 JUMPI PUSH1 0x40 MLOAD PUSH3 0x461BCD PUSH1 0xE5 SHL DUP2 MSTORE PUSH1 0x4 ADD PUSH2 0x33E SWAP1 PUSH2 0xCAD JUMP JUMPDEST PUSH1 0x40 MLOAD DUP1 SWAP2 SUB SWAP1 REVERT JUMPDEST PUSH1 0x1 PUSH1 0x1 PUSH1 0xA0 SHL SUB DUP2 AND PUSH2 0x39D JUMPI PUSH1 0x40 MLOAD PUSH3 0x461BCD PUSH1 0xE5 SHL DUP2 MSTORE PUSH1 0x20 PUSH1 0x4 DUP3 ADD MSTORE PUSH1 0x1F PUSH1 0x24 DUP3 ADD MSTORE PUSH32 0x696E76616C696420617267756D656E74202D207A65726F206164647265737300 PUSH1 0x44 DUP3 ADD MSTORE PUSH1 0x64 ADD PUSH2 0x33E JUMP JUMPDEST CALLER PUSH1 0x1 PUSH1 0x1 PUSH1 0xA0 SHL SUB DUP3 AND EQ PUSH2 0x3C5 JUMPI PUSH1 0x40 MLOAD PUSH3 0x461BCD PUSH1 0xE5 SHL DUP2 MSTORE PUSH1 0x4 ADD PUSH2 0x33E SWAP1 PUSH2 0xCE4 JUMP JUMPDEST PUSH1 0x1 PUSH1 0x1 PUSH1 0xA0 SHL SUB DUP2 AND PUSH1 0x0 DUP2 DUP2 MSTORE PUSH1 0x20 DUP2 SWAP1 MSTORE PUSH1 0x40 DUP1 DUP3 KECCAK256 DUP1 SLOAD PUSH1 0xFF NOT AND SWAP1 SSTORE MLOAD PUSH32 0x408B49D9BE1C914C52A0227E18A077E5A892DDDF32A26CFA94A5D9708FAD7718 SWAP2 SWAP1 LOG2 POP JUMP JUMPDEST CALLER PUSH1 0x0 SWAP1 DUP2 MSTORE PUSH1 0x20 DUP2 SWAP1 MSTORE PUSH1 0x40 SWAP1 KECCAK256 SLOAD PUSH1 0xFF AND PUSH2 0x43D JUMPI PUSH1 0x40 MLOAD PUSH3 0x461BCD PUSH1 0xE5 SHL DUP2 MSTORE PUSH1 0x4 ADD PUSH2 0x33E SWAP1 PUSH2 0xCAD JUMP JUMPDEST PUSH1 0x0 PUSH2 0x483 DUP5 DUP5 DUP5 CALLER PUSH1 0x1 PUSH1 0x1 PUSH1 0xA0 SHL SUB AND PUSH4 0x6A3EDF28 PUSH1 0x40 MLOAD DUP2 PUSH4 0xFFFFFFFF AND PUSH1 0xE0 SHL DUP2 MSTORE PUSH1 0x4 ADD PUSH1 0x20 PUSH1 0x40 MLOAD DUP1 DUP4 SUB DUP2 DUP7 GAS STATICCALL ISZERO DUP1 ISZERO PUSH2 0x2D5 JUMPI RETURNDATASIZE PUSH1 0x0 DUP1 RETURNDATACOPY RETURNDATASIZE PUSH1 0x0 REVERT JUMPDEST CALLER PUSH1 0x0 SWAP1 DUP2 MSTORE PUSH1 0x1 PUSH1 0x20 SWAP1 DUP2 MSTORE PUSH1 0x40 DUP1 DUP4 KECCAK256 DUP5 DUP5 MSTORE SWAP1 SWAP2 MSTORE SWAP1 KECCAK256 SLOAD SWAP1 SWAP2 POP PUSH2 0x4DC JUMPI PUSH1 0x40 MLOAD PUSH3 0x461BCD PUSH1 0xE5 SHL DUP2 MSTORE PUSH1 0x20 PUSH1 0x4 DUP3 ADD MSTORE PUSH1 0xC PUSH1 0x24 DUP3 ADD MSTORE PUSH12 0x1B9BDD08185C1C1C9BDD9959 PUSH1 0xA2 SHL PUSH1 0x44 DUP3 ADD MSTORE PUSH1 0x64 ADD PUSH2 0x33E JUMP JUMPDEST CALLER PUSH1 0x0 SWAP1 DUP2 MSTORE PUSH1 0x1 PUSH1 0x20 SWAP1 DUP2 MSTORE PUSH1 0x40 DUP1 DUP4 KECCAK256 DUP5 DUP5 MSTORE SWAP1 SWAP2 MSTORE DUP2 KECCAK256 DUP1 SLOAD SWAP2 PUSH2 0x502 DUP4 PUSH2 0xD3B JUMP JUMPDEST SWAP2 SWAP1 POP SSTORE POP PUSH32 0x611476E33C1D844D9FA71BA7DE6E7130E18B22971D28580FD76321E4AF696356 DUP5 DUP5 DUP5 CALLER PUSH1 0x1 PUSH1 0x1 PUSH1 0xA0 SHL SUB AND PUSH4 0x6A3EDF28 PUSH1 0x40 MLOAD DUP2 PUSH4 0xFFFFFFFF AND PUSH1 0xE0 SHL DUP2 MSTORE PUSH1 0x4 ADD PUSH1 0x20 PUSH1 0x40 MLOAD DUP1 DUP4 SUB DUP2 DUP7 GAS STATICCALL ISZERO DUP1 ISZERO PUSH2 0x569 JUMPI RETURNDATASIZE PUSH1 0x0 DUP1 RETURNDATACOPY RETURNDATASIZE PUSH1 0x0 REVERT JUMPDEST POP POP POP POP PUSH1 0x40 MLOAD RETURNDATASIZE PUSH1 0x1F NOT PUSH1 0x1F DUP3 ADD AND DUP3 ADD DUP1 PUSH1 0x40 MSTORE POP DUP2 ADD SWAP1 PUSH2 0x58D SWAP2 SWAP1 PUSH2 0xC90 JUMP JUMPDEST PUSH1 0x40 DUP1 MLOAD PUSH1 0x1 PUSH1 0x1 PUSH1 0xA0 SHL SUB SWAP6 DUP7 AND DUP2 MSTORE SWAP4 DUP6 AND PUSH1 0x20 DUP6 ADD MSTORE DUP4 ADD SWAP2 SWAP1 SWAP2 MSTORE SWAP1 SWAP2 AND PUSH1 0x60 DUP3 ADD MSTORE PUSH1 0x80 ADD PUSH1 0x40 MLOAD DUP1 SWAP2 SUB SWAP1 LOG1 POP POP POP POP JUMP JUMPDEST CALLER PUSH1 0x0 SWAP1 DUP2 MSTORE PUSH1 0x20 DUP2 SWAP1 MSTORE PUSH1 0x40 SWAP1 KECCAK256 SLOAD PUSH1 0xFF AND PUSH2 0x5F4 JUMPI PUSH1 0x40 MLOAD PUSH3 0x461BCD PUSH1 0xE5 SHL DUP2 MSTORE PUSH1 0x4 ADD PUSH2 0x33E SWAP1 PUSH2 0xCAD JUMP JUMPDEST PUSH1 0x0 PUSH2 0x63A DUP5 DUP5 DUP5 CALLER PUSH1 0x1 PUSH1 0x1 PUSH1 0xA0 SHL SUB AND PUSH4 0x6A3EDF28 PUSH1 0x40 MLOAD DUP2 PUSH4 0xFFFFFFFF AND PUSH1 0xE0 SHL DUP2 MSTORE PUSH1 0x4 ADD PUSH1 0x20 PUSH1 0x40 MLOAD DUP1 DUP4 SUB DUP2 DUP7 GAS STATICCALL ISZERO DUP1 ISZERO PUSH2 0x2D5 JUMPI RETURNDATASIZE PUSH1 0x0 DUP1 RETURNDATACOPY RETURNDATASIZE PUSH1 0x0 REVERT JUMPDEST CALLER PUSH1 0x0 SWAP1 DUP2 MSTORE PUSH1 0x1 PUSH1 0x20 SWAP1 DUP2 MSTORE PUSH1 0x40 DUP1 DUP4 KECCAK256 DUP5 DUP5 MSTORE SWAP1 SWAP2 MSTORE SWAP1 KECCAK256 SLOAD SWAP1 SWAP2 POP ISZERO PUSH2 0x683 JUMPI CALLER PUSH1 0x0 SWAP1 DUP2 MSTORE PUSH1 0x1 PUSH1 0x20 SWAP1 DUP2 MSTORE PUSH1 0x40 DUP1 DUP4 KECCAK256 DUP5 DUP5 MSTORE SWAP1 SWAP2 MSTORE DUP2 KECCAK256 DUP1 SLOAD SWAP2 PUSH2 0x502 DUP4 PUSH2 0xD3B JUMP JUMPDEST POP POP POP POP JUMP JUMPDEST CALLER PUSH1 0x0 SWAP1 DUP2 MSTORE PUSH1 0x20 DUP2 SWAP1 MSTORE PUSH1 0x40 SWAP1 KECCAK256 SLOAD PUSH1 0xFF AND PUSH2 0x6B8 JUMPI PUSH1 0x40 MLOAD PUSH3 0x461BCD PUSH1 0xE5 SHL DUP2 MSTORE PUSH1 0x4 ADD PUSH2 0x33E SWAP1 PUSH2 0xCAD JUMP JUMPDEST POP POP JUMP JUMPDEST PUSH1 0x1 PUSH1 0x1 PUSH1 0xA0 SHL SUB DUP2 AND PUSH2 0x712 JUMPI PUSH1 0x40 MLOAD PUSH3 0x461BCD PUSH1 0xE5 SHL DUP2 MSTORE PUSH1 0x20 PUSH1 0x4 DUP3 ADD MSTORE PUSH1 0x1F PUSH1 0x24 DUP3 ADD MSTORE PUSH32 0x696E76616C696420617267756D656E74202D207A65726F206164647265737300 PUSH1 0x44 DUP3 ADD MSTORE PUSH1 0x64 ADD PUSH2 0x33E JUMP JUMPDEST PUSH1 0x1 PUSH1 0x1 PUSH1 0xA0 SHL SUB DUP2 AND PUSH1 0x0 SWAP1 DUP2 MSTORE PUSH1 0x20 DUP2 SWAP1 MSTORE PUSH1 0x40 SWAP1 KECCAK256 SLOAD PUSH1 0xFF AND ISZERO PUSH2 0x77B JUMPI PUSH1 0x40 MLOAD PUSH3 0x461BCD PUSH1 0xE5 SHL DUP2 MSTORE PUSH1 0x20 PUSH1 0x4 DUP3 ADD MSTORE PUSH1 0x18 PUSH1 0x24 DUP3 ADD MSTORE PUSH32 0x636F6D706C69616E636520616C726561647920626F756E640000000000000000 PUSH1 0x44 DUP3 ADD MSTORE PUSH1 0x64 ADD PUSH2 0x33E JUMP JUMPDEST CALLER PUSH1 0x1 PUSH1 0x1 PUSH1 0xA0 SHL SUB DUP3 AND EQ PUSH2 0x7A3 JUMPI PUSH1 0x40 MLOAD PUSH3 0x461BCD PUSH1 0xE5 SHL DUP2 MSTORE PUSH1 0x4 ADD PUSH2 0x33E SWAP1 PUSH2 0xCE4 JUMP JUMPDEST PUSH1 0x1 PUSH1 0x1 PUSH1 0xA0 SHL SUB DUP2 AND PUSH1 0x0 DUP2 DUP2 MSTORE PUSH1 0x20 DUP2 SWAP1 MSTORE PUSH1 0x40 DUP1 DUP3 KECCAK256 DUP1 SLOAD PUSH1 0xFF NOT AND PUSH1 0x1 OR SWAP1 SSTORE MLOAD PUSH32 0x1F7B76C58FB697EB53C6C7C1BECB96911516A136E24D7CED386B2355358B75A3 SWAP2 SWAP1 LOG2 POP JUMP JUMPDEST CALLER PUSH1 0x0 SWAP1 DUP2 MSTORE PUSH1 0x20 DUP2 SWAP1 MSTORE PUSH1 0x40 SWAP1 KECCAK256 SLOAD PUSH1 0xFF AND PUSH2 0x81E JUMPI PUSH1 0x40 MLOAD PUSH3 0x461BCD PUSH1 0xE5 SHL DUP2 MSTORE PUSH1 0x4 ADD PUSH2 0x33E SWAP1 PUSH2 0xCAD JUMP JUMPDEST PUSH1 0x0 PUSH2 0x864 DUP5 DUP5 DUP5 CALLER PUSH1 0x1 PUSH1 0x1 PUSH1 0xA0 SHL SUB AND PUSH4 0x6A3EDF28 PUSH1 0x40 MLOAD DUP2 PUSH4 0xFFFFFFFF AND PUSH1 0xE0 SHL DUP2 MSTORE PUSH1 0x4 ADD PUSH1 0x20 PUSH1 0x40 MLOAD DUP1 DUP4 SUB DUP2 DUP7 GAS STATICCALL ISZERO DUP1 ISZERO PUSH2 0x2D5 JUMPI RETURNDATASIZE PUSH1 0x0 DUP1 RETURNDATACOPY RETURNDATASIZE PUSH1 0x0 REVERT JUMPDEST CALLER PUSH1 0x0 SWAP1 DUP2 MSTORE PUSH1 0x1 PUSH1 0x20 SWAP1 DUP2 MSTORE PUSH1 0x40 DUP1 DUP4 KECCAK256 DUP5 DUP5 MSTORE SWAP1 SWAP2 MSTORE DUP2 KECCAK256 DUP1 SLOAD SWAP3 SWAP4 POP SWAP1 PUSH2 0x88D DUP4 PUSH2 0xD52 JUMP JUMPDEST SWAP2 SWAP1 POP SSTORE POP PUSH32 0x776C895685D60B5AC3AA2C3381ED2B021825C000FBB0D8FF1359636700AA1651 DUP5 DUP5 DUP5 CALLER PUSH1 0x1 PUSH1 0x1 PUSH1 0xA0 SHL SUB AND PUSH4 0x6A3EDF28 PUSH1 0x40 MLOAD DUP2 PUSH4 0xFFFFFFFF AND PUSH1 0xE0 SHL DUP2 MSTORE PUSH1 0x4 ADD PUSH1 0x20 PUSH1 0x40 MLOAD DUP1 DUP4 SUB DUP2 DUP7 GAS STATICCALL ISZERO DUP1 ISZERO PUSH2 0x569 JUMPI RETURNDATASIZE PUSH1 0x0 DUP1 RETURNDATACOPY RETURNDATASIZE PUSH1 0x0 REVERT JUMPDEST PUSH1 0x1 PUSH1 0x1 PUSH1 0xA0 SHL SUB DUP3 AND PUSH1 0x0 SWAP1 DUP2 MSTORE PUSH1 0x1 PUSH1 0x20 SWAP1 DUP2 MSTORE PUSH1 0x40 DUP1 DUP4 KECCAK256 DUP5 DUP5 MSTORE SWAP1 SWAP2 MSTORE DUP2 KECCAK256 SLOAD ISZERO PUSH2 0x925 JUMPI POP PUSH1 0x1 PUSH2 0x929 JUMP JUMPDEST POP PUSH1 0x0 JUMPDEST SWAP3 SWAP2 POP POP JUMP JUMPDEST CALLER PUSH1 0x0 SWAP1 DUP2 MSTORE PUSH1 0x20 DUP2 SWAP1 MSTORE PUSH1 0x40 SWAP1 KECCAK256 SLOAD PUSH1 0xFF AND PUSH2 0x95E JUMPI PUSH1 0x40 MLOAD PUSH3 0x461BCD PUSH1 0xE5 SHL DUP2 MSTORE PUSH1 0x4 ADD PUSH2 0x33E SWAP1 PUSH2 0xCAD JUMP JUMPDEST PUSH1 0x0 JUMPDEST DUP6 DUP2 LT ISZERO PUSH2 0x9EA JUMPI PUSH2 0x9D8 DUP8 DUP8 DUP4 DUP2 DUP2 LT PUSH2 0x97E JUMPI PUSH2 0x97E PUSH2 0xD6B JUMP JUMPDEST SWAP1 POP PUSH1 0x20 MUL ADD PUSH1 0x20 DUP2 ADD SWAP1 PUSH2 0x993 SWAP2 SWAP1 PUSH2 0xB19 JUMP JUMPDEST DUP7 DUP7 DUP5 DUP2 DUP2 LT PUSH2 0x9A5 JUMPI PUSH2 0x9A5 PUSH2 0xD6B JUMP JUMPDEST SWAP1 POP PUSH1 0x20 MUL ADD PUSH1 0x20 DUP2 ADD SWAP1 PUSH2 0x9BA SWAP2 SWAP1 PUSH2 0xB19 JUMP JUMPDEST DUP6 DUP6 DUP6 DUP2 DUP2 LT PUSH2 0x9CC JUMPI PUSH2 0x9CC PUSH2 0xD6B JUMP JUMPDEST SWAP1 POP PUSH1 0x20 MUL ADD CALLDATALOAD PUSH2 0x40E JUMP JUMPDEST DUP1 PUSH2 0x9E2 DUP2 PUSH2 0xD52 JUMP JUMPDEST SWAP2 POP POP PUSH2 0x961 JUMP JUMPDEST POP POP POP POP POP POP POP JUMP JUMPDEST CALLER PUSH1 0x0 SWAP1 DUP2 MSTORE PUSH1 0x20 DUP2 SWAP1 MSTORE PUSH1 0x40 SWAP1 KECCAK256 SLOAD PUSH1 0xFF AND PUSH2 0xA22 JUMPI PUSH1 0x40 MLOAD PUSH3 0x461BCD PUSH1 0xE5 SHL DUP2 MSTORE PUSH1 0x4 ADD PUSH2 0x33E SWAP1 PUSH2 0xCAD JUMP JUMPDEST PUSH1 0x0 JUMPDEST DUP6 DUP2 LT ISZERO PUSH2 0x9EA JUMPI PUSH2 0xA9C DUP8 DUP8 DUP4 DUP2 DUP2 LT PUSH2 0xA42 JUMPI PUSH2 0xA42 PUSH2 0xD6B JUMP JUMPDEST SWAP1 POP PUSH1 0x20 MUL ADD PUSH1 0x20 DUP2 ADD SWAP1 PUSH2 0xA57 SWAP2 SWAP1 PUSH2 0xB19 JUMP JUMPDEST DUP7 DUP7 DUP5 DUP2 DUP2 LT PUSH2 0xA69 JUMPI PUSH2 0xA69 PUSH2 0xD6B JUMP JUMPDEST SWAP1 POP PUSH1 0x20 MUL ADD PUSH1 0x20 DUP2 ADD SWAP1 PUSH2 0xA7E SWAP2 SWAP1 PUSH2 0xB19 JUMP JUMPDEST DUP6 DUP6 DUP6 DUP2 DUP2 LT PUSH2 0xA90 JUMPI PUSH2 0xA90 PUSH2 0xD6B JUMP JUMPDEST SWAP1 POP PUSH1 0x20 MUL ADD CALLDATALOAD PUSH2 0x7EF JUMP JUMPDEST DUP1 PUSH2 0xAA6 DUP2 PUSH2 0xD52 JUMP JUMPDEST SWAP2 POP POP PUSH2 0xA25 JUMP JUMPDEST PUSH1 0x1 PUSH1 0x1 PUSH1 0xA0 SHL SUB DUP2 AND DUP2 EQ PUSH2 0xAC3 JUMPI PUSH1 0x0 DUP1 REVERT JUMPDEST POP JUMP JUMPDEST PUSH1 0x0 DUP1 PUSH1 0x0 DUP1 PUSH1 0x80 DUP6 DUP8 SUB SLT ISZERO PUSH2 0xADC JUMPI PUSH1 0x0 DUP1 REVERT JUMPDEST DUP5 CALLDATALOAD PUSH2 0xAE7 DUP2 PUSH2 0xAAE JUMP JUMPDEST SWAP4 POP PUSH1 0x20 DUP6 ADD CALLDATALOAD PUSH2 0xAF7 DUP2 PUSH2 0xAAE JUMP JUMPDEST SWAP3 POP PUSH1 0x40 DUP6 ADD CALLDATALOAD SWAP2 POP PUSH1 0x60 DUP6 ADD CALLDATALOAD PUSH2 0xB0E DUP2 PUSH2 0xAAE JUMP JUMPDEST SWAP4 SWAP7 SWAP3 SWAP6 POP SWAP1 SWAP4 POP POP JUMP JUMPDEST PUSH1 0x0 PUSH1 0x20 DUP3 DUP5 SUB SLT ISZERO PUSH2 0xB2B JUMPI PUSH1 0x0 DUP1 REVERT JUMPDEST DUP2 CALLDATALOAD PUSH2 0xB36 DUP2 PUSH2 0xAAE JUMP JUMPDEST SWAP4 SWAP3 POP POP POP JUMP JUMPDEST PUSH1 0x0 DUP1 PUSH1 0x0 PUSH1 0x60 DUP5 DUP7 SUB SLT ISZERO PUSH2 0xB52 JUMPI PUSH1 0x0 DUP1 REVERT JUMPDEST DUP4 CALLDATALOAD PUSH2 0xB5D DUP2 PUSH2 0xAAE JUMP JUMPDEST SWAP3 POP PUSH1 0x20 DUP5 ADD CALLDATALOAD PUSH2 0xB6D DUP2 PUSH2 0xAAE JUMP JUMPDEST SWAP3 SWAP6 SWAP3 SWAP5 POP POP POP PUSH1 0x40 SWAP2 SWAP1 SWAP2 ADD CALLDATALOAD SWAP1 JUMP JUMPDEST PUSH1 0x0 DUP1 PUSH1 0x40 DUP4 DUP6 SUB SLT ISZERO PUSH2 0xB91 JUMPI PUSH1 0x0 DUP1 REVERT JUMPDEST DUP3 CALLDATALOAD PUSH2 0xB9C DUP2 PUSH2 0xAAE JUMP JUMPDEST SWAP5 PUSH1 0x20 SWAP4 SWAP1 SWAP4 ADD CALLDATALOAD SWAP4 POP POP POP JUMP JUMPDEST PUSH1 0x0 DUP1 DUP4 PUSH1 0x1F DUP5 ADD SLT PUSH2 0xBBC JUMPI PUSH1 0x0 DUP1 REVERT JUMPDEST POP DUP2 CALLDATALOAD PUSH8 0xFFFFFFFFFFFFFFFF DUP2 GT ISZERO PUSH2 0xBD4 JUMPI PUSH1 0x0 DUP1 REVERT JUMPDEST PUSH1 0x20 DUP4 ADD SWAP2 POP DUP4 PUSH1 0x20 DUP3 PUSH1 0x5 SHL DUP6 ADD ADD GT ISZERO PUSH2 0xBEF JUMPI PUSH1 0x0 DUP1 REVERT JUMPDEST SWAP3 POP SWAP3 SWAP1 POP JUMP JUMPDEST PUSH1 0x0 DUP1 PUSH1 0x0 DUP1 PUSH1 0x0 DUP1 PUSH1 0x60 DUP8 DUP10 SUB SLT ISZERO PUSH2 0xC0F JUMPI PUSH1 0x0 DUP1 REVERT JUMPDEST DUP7 CALLDATALOAD PUSH8 0xFFFFFFFFFFFFFFFF DUP1 DUP3 GT ISZERO PUSH2 0xC27 JUMPI PUSH1 0x0 DUP1 REVERT JUMPDEST PUSH2 0xC33 DUP11 DUP4 DUP12 ADD PUSH2 0xBAA JUMP JUMPDEST SWAP1 SWAP9 POP SWAP7 POP PUSH1 0x20 DUP10 ADD CALLDATALOAD SWAP2 POP DUP1 DUP3 GT ISZERO PUSH2 0xC4C JUMPI PUSH1 0x0 DUP1 REVERT JUMPDEST PUSH2 0xC58 DUP11 DUP4 DUP12 ADD PUSH2 0xBAA JUMP JUMPDEST SWAP1 SWAP7 POP SWAP5 POP PUSH1 0x40 DUP10 ADD CALLDATALOAD SWAP2 POP DUP1 DUP3 GT ISZERO PUSH2 0xC71 JUMPI PUSH1 0x0 DUP1 REVERT JUMPDEST POP PUSH2 0xC7E DUP10 DUP3 DUP11 ADD PUSH2 0xBAA JUMP JUMPDEST SWAP8 SWAP11 SWAP7 SWAP10 POP SWAP5 SWAP8 POP SWAP3 SWAP6 SWAP4 SWAP5 SWAP3 POP POP POP JUMP JUMPDEST PUSH1 0x0 PUSH1 0x20 DUP3 DUP5 SUB SLT ISZERO PUSH2 0xCA2 JUMPI PUSH1 0x0 DUP1 REVERT JUMPDEST DUP2 MLOAD PUSH2 0xB36 DUP2 PUSH2 0xAAE JUMP JUMPDEST PUSH1 0x20 DUP1 DUP3 MSTORE PUSH1 0x1E SWAP1 DUP3 ADD MSTORE PUSH32 0x6F6E6C7920626F756E6420636F6D706C69616E63652063616E2063616C6C0000 PUSH1 0x40 DUP3 ADD MSTORE PUSH1 0x60 ADD SWAP1 JUMP JUMPDEST PUSH1 0x20 DUP1 DUP3 MSTORE PUSH1 0x21 SWAP1 DUP3 ADD MSTORE PUSH32 0x6F6E6C7920636F6D706C69616E636520636F6E74726163742063616E2063616C PUSH1 0x40 DUP3 ADD MSTORE PUSH1 0x1B PUSH1 0xFA SHL PUSH1 0x60 DUP3 ADD MSTORE PUSH1 0x80 ADD SWAP1 JUMP JUMPDEST PUSH4 0x4E487B71 PUSH1 0xE0 SHL PUSH1 0x0 MSTORE PUSH1 0x11 PUSH1 0x4 MSTORE PUSH1 0x24 PUSH1 0x0 REVERT JUMPDEST PUSH1 0x0 DUP2 PUSH2 0xD4A JUMPI PUSH2 0xD4A PUSH2 0xD25 JUMP JUMPDEST POP PUSH1 0x0 NOT ADD SWAP1 JUMP JUMPDEST PUSH1 0x0 PUSH1 0x1 DUP3 ADD PUSH2 0xD64 JUMPI PUSH2 0xD64 PUSH2 0xD25 JUMP JUMPDEST POP PUSH1 0x1 ADD SWAP1 JUMP JUMPDEST PUSH4 0x4E487B71 PUSH1 0xE0 SHL PUSH1 0x0 MSTORE PUSH1 0x32 PUSH1 0x4 MSTORE PUSH1 0x24 PUSH1 0x0 REVERT INVALID LOG2 PUSH5 0x6970667358 0x22 SLT KECCAK256 DUP10 PUSH19 0x5F5066F5F4F3127D7DB1660D3B9C0B70EF38B4 PUSH15 0xF4939AFA06DCD60BA4F164736F6C63 NUMBER STOP ADDMOD GT STOP CALLER "
				},
				"gasEstimates": {
					"creation": {
						"codeDepositCost": "702200",
						"executionCost": "734",
						"totalCost": "702934"
					},
					"external": {
						"approveTransfer(address,address,uint256)": "infinite",
						"batchApproveTransfers(address[],address[],uint256[])": "infinite",
						"batchUnApproveTransfers(address[],address[],uint256[])": "infinite",
						"bindCompliance(address)": "28132",
						"calculateTransferHash(address,address,uint256,address)": "infinite",
						"getTransferApprovals(address,bytes32)": "2652",
						"isComplianceBound(address)": "2558",
						"isTransferApproved(address,bytes32)": "2741",
						"moduleBurnAction(address,uint256)": "2706",
						"moduleCheck(address,address,uint256,address)": "infinite",
						"moduleMintAction(address,uint256)": "2705",
						"moduleTransferAction(address,address,uint256)": "infinite",
						"unApproveTransfer(address,address,uint256)": "infinite",
						"unbindCompliance(address)": "28061"
					}
				},
				"methodIdentifiers": {
					"approveTransfer(address,address,uint256)": "82580805",
					"batchApproveTransfers(address[],address[],uint256[])": "f3850dbf",
					"batchUnApproveTransfers(address[],address[],uint256[])": "e2cb5c34",
					"bindCompliance(address)": "4a932544",
					"calculateTransferHash(address,address,uint256,address)": "202a6376",
					"getTransferApprovals(address,bytes32)": "bdf5a415",
					"isComplianceBound(address)": "4cf4d295",
					"isTransferApproved(address,bytes32)": "93386519",
					"moduleBurnAction(address,uint256)": "372491a2",
					"moduleCheck(address,address,uint256,address)": "013b7ce4",
					"moduleMintAction(address,uint256)": "f104a8c9",
					"moduleTransferAction(address,address,uint256)": "2cb7e1ec",
					"unApproveTransfer(address,address,uint256)": "1c7a1793",
					"unbindCompliance(address)": "0694a5fb"
				}
			},
			"storageLayout": {
				"storage": [
					{
						"astId": 515,
						"contract": "erc3643/erc3643/Compliance/modular/Modules/ConditionalTransferModule.sol:ConditionalTransferModule",
						"label": "_complianceBound",
						"offset": 0,
						"slot": "0",
						"type": "t_mapping(t_address,t_bool)"
					},
					{
						"astId": 646,
						"contract": "erc3643/erc3643/Compliance/modular/Modules/ConditionalTransferModule.sol:ConditionalTransferModule",
						"label": "_transfersApproved",
						"offset": 0,
						"slot": "1",
						"type": "t_mapping(t_address,t_mapping(t_bytes32,t_uint256))"
					}
				],
				"types": {
					"t_address": {
						"encoding": "inplace",
						"label": "address",
						"numberOfBytes": "20"
					},
					"t_bool": {
						"encoding": "inplace",
						"label": "bool",
						"numberOfBytes": "1"
					},
					"t_bytes32": {
						"encoding": "inplace",
						"label": "bytes32",
						"numberOfBytes": "32"
					},
					"t_mapping(t_address,t_bool)": {
						"encoding": "mapping",
						"key": "t_address",
						"label": "mapping(address => bool)",
						"numberOfBytes": "32",
						"value": "t_bool"
					},
					"t_mapping(t_address,t_mapping(t_bytes32,t_uint256))": {
						"encoding": "mapping",
						"key": "t_address",
						"label": "mapping(address => mapping(bytes32 => uint256))",
						"numberOfBytes": "32",
						"value": "t_mapping(t_bytes32,t_uint256)"
					},
					"t_mapping(t_bytes32,t_uint256)": {
						"encoding": "mapping",
						"key": "t_bytes32",
						"label": "mapping(bytes32 => uint256)",
						"numberOfBytes": "32",
						"value": "t_uint256"
					},
					"t_uint256": {
						"encoding": "inplace",
						"label": "uint256",
						"numberOfBytes": "32"
					}
				}
			},
			"userdoc": {
				"kind": "user",
				"methods": {},
				"version": 1
			}
		}
	}
}