{
	"erc3643/erc3643/Compliance/modular/Modules/CountryRestrictModule.sol": {
		"CountryRestrictModule": {
			"abi": [
				{
					"anonymous": false,
					"inputs": [
						{
							"indexed": true,
							"internalType": "address",
							"name": "_compliance",
							"type": "address"
						},
						{
							"indexed": false,
							"internalType": "uint16",
							"name": "_country",
							"type": "uint16"
						}
					],
					"name": "AddedRestrictedCountry",
					"type": "event"
				},
				{
					"anonymous": false,
					"inputs": [
						{
							"indexed": true,
							"internalType": "address",
							"name": "_compliance",
							"type": "address"
						}
					],
					"name": "ComplianceBound",
					"type": "event"
				},
				{
					"anonymous": false,
					"inputs": [
						{
							"indexed": true,
							"internalType": "address",
							"name": "_compliance",
							"type": "address"
						}
					],
					"name": "ComplianceUnbound",
					"type": "event"
				},
				{
					"anonymous": false,
					"inputs": [
						{
							"indexed": true,
							"internalType": "address",
							"name": "_compliance",
							"type": "address"
						},
						{
							"indexed": false,
							"internalType": "uint16",
							"name": "_country",
							"type": "uint16"
						}
					],
					"name": "RemovedRestrictedCountry",
					"type": "event"
				},
				{
					"inputs": [
						{
							"internalType": "uint16",
							"name": "_country",
							"type": "uint16"
						}
					],
					"name": "addCountryRestriction",
					"outputs": [],
					"stateMutability": "nonpayable",
					"type": "function"
				},
				{
					"inputs": [
						{
							"internalType": "uint16[]",
							"name": "_countries",
							"type": "uint16[]"
						}
					],
					"name": "batchRestrictCountries",
					"outputs": [],
					"stateMutability": "nonpayable",
					"type": "function"
				},
				{
					"inputs": [
						{
							"internalType": "uint16[]",
							"name": "_countries",
							"type": "uint16[]"
						}
					],
					"name": "batchUnrestrictCountries",
					"outputs": [],
					"stateMutability": "nonpayable",
					"type": "function"
				},
				{
					"inputs": [
						{
							"internalType": "address",
							"name": "_compliance",
							"type": "address"
						}
					],
					"name": "bindCompliance",
					"outputs": [],
					"stateMutability": "nonpayable",
					"type": "function"
				},
				{
					"inputs": [
						{
							"internalType": "address",
							"name": "_compliance",
							"type": "address"
						}
					],
					"name": "isComplianceBound",
					"outputs": [
						{
							"internalType": "bool",
							"name": "",
							"type": "bool"
						}
					],
					"stateMutability": "view",
					"type": "function"
				},
				{
					"inputs": [
						{
							"internalType": "address",
							"name": "_compliance",
							"type": "address"
						},
						{
							"internalType": "uint16",
							"name": "_country",
							"type": "uint16"
						}
					],
					"name": "isCountryRestricted",
					"outputs": [
						{
							"internalType": "bool",
							"name": "",
							"type": "bool"
						}
					],
					"stateMutability": "view",
					"type": "function"
				},
				{
					"inputs": [
						{
							"internalType": "address",
							"name": "_from",
							"type": "address"
						},
						{
							"internalType": "uint256",
							"name": "_value",
							"type": "uint256"
						}
					],
					"name": "moduleBurnAction",
					"outputs": [],
					"stateMutability": "nonpayable",
					"type": "function"
				},
				{
					"inputs": [
						{
							"internalType": "address",
							"name": "",
							"type": "address"
						},
						{
							"internalType": "address",
							"name": "_to",
							"type": "address"
						},
						{
							"internalType": "uint256",
							"name": "",
							"type": "uint256"
						},
						{
							"internalType": "address",
							"name": "_compliance",
							"type": "address"
						}
					],
					"name": "moduleCheck",
					"outputs": [
						{
							"internalType": "bool",
							"name": "",
							"type": "bool"
						}
					],
					"stateMutability": "view",
					"type": "function"
				},
				{
					"inputs": [
						{
							"internalType": "address",
							"name": "_to",
							"type": "address"
						},
						{
							"internalType": "uint256",
							"name": "_value",
							"type": "uint256"
						}
					],
					"name": "moduleMintAction",
					"outputs": [],
					"stateMutability": "nonpayable",
					"type": "function"
				},
				{
					"inputs": [
						{
							"internalType": "address",
							"name": "_from",
							"type": "address"
						},
						{
							"internalType": "address",
							"name": "_to",
							"type": "address"
						},
						{
							"internalType": "uint256",
							"name": "_value",
							"type": "uint256"
						}
					],
					"name": "moduleTransferAction",
					"outputs": [],
					"stateMutability": "nonpayable",
					"type": "function"
				},
				{
					"inputs": [
						{
							"internalType": "uint16",
							"name": "_country",
							"type": "uint16"
						}
					],
					"name": "removeCountryRestriction",
					"outputs": [],
					"stateMutability": "nonpayable",
					"type": "function"
				},
				{
					"inputs": [
						{
							"internalType": "address",
							"name": "_compliance",
							"type": "address"
						}
					],
					"name": "unbindCompliance",
					"outputs": [],
					"stateMutability": "nonpayable",
					"type": "function"
				}
			],
			"devdoc": {
				"kind": "dev",
				"methods": {},
				"version": 1
			},
			"evm": {
				"assembly": "    /* \"erc3643/erc3643/Compliance/modular/Modules/CountryRestrictModule.sol\":131:3307  contract CountryRestrictModule is AbstractModule {... */\n  mstore(0x40, 0x80)\n  callvalue\n  dup1\n  iszero\n  tag_1\n  jumpi\n  0x00\n  dup1\n  revert\ntag_1:\n  pop\n  dataSize(sub_0)\n  dup1\n  dataOffset(sub_0)\n  0x00\n  codecopy\n  0x00\n  return\nstop\n\nsub_0: assembly {\n        /* \"erc3643/erc3643/Compliance/modular/Modules/CountryRestrictModule.sol\":131:3307  contract CountryRestrictModule is AbstractModule {... */\n      mstore(0x40, 0x80)\n      callvalue\n      dup1\n      iszero\n      tag_1\n      jumpi\n      0x00\n      dup1\n      revert\n    tag_1:\n      pop\n      jumpi(tag_2, lt(calldatasize, 0x04))\n      shr(0xe0, calldataload(0x00))\n      dup1\n      0x372491a2\n      gt\n      tag_15\n      jumpi\n      dup1\n      0x372491a2\n      eq\n      tag_9\n      jumpi\n      dup1\n      0x4a932544\n      eq\n      tag_10\n      jumpi\n      dup1\n      0x4cf4d295\n      eq\n      tag_11\n      jumpi\n      dup1\n      0x6aae7b26\n      eq\n      tag_12\n      jumpi\n      dup1\n      0xbdf9a07e\n      eq\n      tag_13\n      jumpi\n      dup1\n      0xf104a8c9\n      eq\n      tag_9\n      jumpi\n      0x00\n      dup1\n      revert\n    tag_15:\n      dup1\n      0x013b7ce4\n      eq\n      tag_3\n      jumpi\n      dup1\n      0x0333ce24\n      eq\n      tag_4\n      jumpi\n      dup1\n      0x0694a5fb\n      eq\n      tag_5\n      jumpi\n      dup1\n      0x249c981d\n      eq\n      tag_6\n      jumpi\n      dup1\n      0x2cb7e1ec\n      eq\n      tag_7\n      jumpi\n      dup1\n      0x30236f4a\n      eq\n      tag_8\n      jumpi\n    tag_2:\n      0x00\n      dup1\n      revert\n        /* \"erc3643/erc3643/Compliance/modular/Modules/CountryRestrictModule.sol\":2517:2891  function moduleCheck(... */\n    tag_3:\n      tag_16\n      tag_17\n      calldatasize\n      0x04\n      tag_18\n      jump\t// in\n    tag_17:\n      tag_19\n      jump\t// in\n    tag_16:\n      mload(0x40)\n        /* \"#utility.yul\":918:932   */\n      swap1\n      iszero\n        /* \"#utility.yul\":911:933   */\n      iszero\n        /* \"#utility.yul\":893:934   */\n      dup2\n      mstore\n        /* \"#utility.yul\":881:883   */\n      0x20\n        /* \"#utility.yul\":866:884   */\n      add\n        /* \"erc3643/erc3643/Compliance/modular/Modules/CountryRestrictModule.sol\":2517:2891  function moduleCheck(... */\n      mload(0x40)\n      dup1\n      swap2\n      sub\n      swap1\n      return\n        /* \"erc3643/erc3643/Compliance/modular/Modules/CountryRestrictModule.sol\":519:828  function addCountryRestriction(uint16 _country) external onlyComplianceCall {... */\n    tag_4:\n      tag_22\n      tag_23\n      calldatasize\n      0x04\n      tag_24\n      jump\t// in\n    tag_23:\n      tag_25\n      jump\t// in\n    tag_22:\n      stop\n        /* \"erc3643/erc3643/Compliance/modular/Modules/AbstractModule.sol\":975:1323  function unbindCompliance(address _compliance) external onlyComplianceCall override {... */\n    tag_5:\n      tag_22\n      tag_27\n      calldatasize\n      0x04\n      tag_28\n      jump\t// in\n    tag_27:\n      tag_29\n      jump\t// in\n        /* \"erc3643/erc3643/Compliance/modular/Modules/CountryRestrictModule.sol\":1671:2182  function batchUnrestrictCountries(uint16[] calldata _countries) external onlyComplianceCall {... */\n    tag_6:\n      tag_22\n      tag_31\n      calldatasize\n      0x04\n      tag_32\n      jump\t// in\n    tag_31:\n      tag_33\n      jump\t// in\n        /* \"erc3643/erc3643/Compliance/modular/Modules/CountryRestrictModule.sol\":2190:2303  function moduleTransferAction(address _from, address _to, uint256 _value) external override onlyComplianceCall {} */\n    tag_7:\n      tag_22\n      tag_35\n      calldatasize\n      0x04\n      tag_36\n      jump\t// in\n    tag_35:\n      tag_37\n      jump\t// in\n        /* \"erc3643/erc3643/Compliance/modular/Modules/CountryRestrictModule.sol\":2899:3071  function isCountryRestricted(address _compliance, uint16 _country) public view... */\n    tag_8:\n      tag_16\n      tag_39\n      calldatasize\n      0x04\n      tag_40\n      jump\t// in\n    tag_39:\n      sub(shl(0xa0, 0x01), 0x01)\n        /* \"erc3643/erc3643/Compliance/modular/Modules/CountryRestrictModule.sol\":3018:3051  _restrictedCountries[_compliance] */\n      dup3\n      and\n        /* \"erc3643/erc3643/Compliance/modular/Modules/CountryRestrictModule.sol\":2992:2996  bool */\n      0x00\n        /* \"erc3643/erc3643/Compliance/modular/Modules/CountryRestrictModule.sol\":3018:3051  _restrictedCountries[_compliance] */\n      swap1\n      dup2\n      mstore\n        /* \"erc3643/erc3643/Compliance/modular/Modules/CountryRestrictModule.sol\":3018:3038  _restrictedCountries */\n      0x01\n        /* \"erc3643/erc3643/Compliance/modular/Modules/CountryRestrictModule.sol\":3018:3051  _restrictedCountries[_compliance] */\n      0x20\n      swap1\n      dup2\n      mstore\n      0x40\n      dup1\n      dup4\n      keccak256\n        /* \"erc3643/erc3643/Compliance/modular/Modules/CountryRestrictModule.sol\":3017:3062  (_restrictedCountries[_compliance])[_country] */\n      0xffff\n      dup6\n      and\n      dup5\n      mstore\n      swap1\n      swap2\n      mstore\n      swap1\n      keccak256\n      sload\n      0xff\n      and\n        /* \"erc3643/erc3643/Compliance/modular/Modules/CountryRestrictModule.sol\":2899:3071  function isCountryRestricted(address _compliance, uint16 _country) public view... */\n      swap3\n      swap2\n      pop\n      pop\n      jump\n        /* \"erc3643/erc3643/Compliance/modular/Modules/CountryRestrictModule.sol\":2413:2509  function moduleBurnAction(address _from, uint256 _value) external override onlyComplianceCall {} */\n    tag_9:\n      tag_22\n      tag_44\n      calldatasize\n      0x04\n      tag_45\n      jump\t// in\n    tag_44:\n      tag_46\n      jump\t// in\n        /* \"erc3643/erc3643/Compliance/modular/Modules/AbstractModule.sol\":565:967  function bindCompliance(address _compliance) external override {... */\n    tag_10:\n      tag_22\n      tag_48\n      calldatasize\n      0x04\n      tag_28\n      jump\t// in\n    tag_48:\n      tag_49\n      jump\t// in\n        /* \"erc3643/erc3643/Compliance/modular/Modules/AbstractModule.sol\":1331:1472  function isComplianceBound(address _compliance) external view override returns (bool) {... */\n    tag_11:\n      tag_16\n      tag_51\n      calldatasize\n      0x04\n      tag_28\n      jump\t// in\n    tag_51:\n      sub(shl(0xa0, 0x01), 0x01)\n        /* \"erc3643/erc3643/Compliance/modular/Modules/AbstractModule.sol\":1435:1464  _complianceBound[_compliance] */\n      and\n        /* \"erc3643/erc3643/Compliance/modular/Modules/AbstractModule.sol\":1411:1415  bool */\n      0x00\n        /* \"erc3643/erc3643/Compliance/modular/Modules/AbstractModule.sol\":1435:1464  _complianceBound[_compliance] */\n      swap1\n      dup2\n      mstore\n      0x20\n      dup2\n      swap1\n      mstore\n      0x40\n      swap1\n      keccak256\n      sload\n      0xff\n      and\n      swap1\n        /* \"erc3643/erc3643/Compliance/modular/Modules/AbstractModule.sol\":1331:1472  function isComplianceBound(address _compliance) external view override returns (bool) {... */\n      jump\n        /* \"erc3643/erc3643/Compliance/modular/Modules/CountryRestrictModule.sol\":836:1146  function removeCountryRestriction(uint16 _country) external onlyComplianceCall {... */\n    tag_12:\n      tag_22\n      tag_55\n      calldatasize\n      0x04\n      tag_24\n      jump\t// in\n    tag_55:\n      tag_56\n      jump\t// in\n        /* \"erc3643/erc3643/Compliance/modular/Modules/CountryRestrictModule.sol\":1154:1663  function batchRestrictCountries(uint16[] calldata _countries) external onlyComplianceCall {... */\n    tag_13:\n      tag_22\n      tag_58\n      calldatasize\n      0x04\n      tag_32\n      jump\t// in\n    tag_58:\n      tag_59\n      jump\t// in\n        /* \"erc3643/erc3643/Compliance/modular/Modules/CountryRestrictModule.sol\":2517:2891  function moduleCheck(... */\n    tag_19:\n        /* \"erc3643/erc3643/Compliance/modular/Modules/CountryRestrictModule.sol\":2686:2690  bool */\n      0x00\n        /* \"erc3643/erc3643/Compliance/modular/Modules/CountryRestrictModule.sol\":2703:2725  uint16 receiverCountry */\n      dup1\n        /* \"erc3643/erc3643/Compliance/modular/Modules/CountryRestrictModule.sol\":2728:2757  _getCountry(_compliance, _to) */\n      tag_64\n        /* \"erc3643/erc3643/Compliance/modular/Modules/CountryRestrictModule.sol\":2740:2751  _compliance */\n      dup4\n        /* \"erc3643/erc3643/Compliance/modular/Modules/CountryRestrictModule.sol\":2753:2756  _to */\n      dup7\n        /* \"erc3643/erc3643/Compliance/modular/Modules/CountryRestrictModule.sol\":2728:2739  _getCountry */\n      tag_65\n        /* \"erc3643/erc3643/Compliance/modular/Modules/CountryRestrictModule.sol\":2728:2757  _getCountry(_compliance, _to) */\n      jump\t// in\n    tag_64:\n      sub(shl(0xa0, 0x01), 0x01)\n        /* \"erc3643/erc3643/Compliance/modular/Modules/CountryRestrictModule.sol\":3018:3051  _restrictedCountries[_compliance] */\n      dup5\n      and\n        /* \"erc3643/erc3643/Compliance/modular/Modules/CountryRestrictModule.sol\":2992:2996  bool */\n      0x00\n        /* \"erc3643/erc3643/Compliance/modular/Modules/CountryRestrictModule.sol\":3018:3051  _restrictedCountries[_compliance] */\n      swap1\n      dup2\n      mstore\n        /* \"erc3643/erc3643/Compliance/modular/Modules/CountryRestrictModule.sol\":3018:3038  _restrictedCountries */\n      0x01\n        /* \"erc3643/erc3643/Compliance/modular/Modules/CountryRestrictModule.sol\":3018:3051  _restrictedCountries[_compliance] */\n      0x20\n      swap1\n      dup2\n      mstore\n      0x40\n      dup1\n      dup4\n      keccak256\n        /* \"erc3643/erc3643/Compliance/modular/Modules/CountryRestrictModule.sol\":3017:3062  (_restrictedCountries[_compliance])[_country] */\n      0xffff\n      dup6\n      and\n      dup5\n      mstore\n      swap1\n      swap2\n      mstore\n      swap1\n      keccak256\n      sload\n        /* \"erc3643/erc3643/Compliance/modular/Modules/CountryRestrictModule.sol\":2703:2757  uint16 receiverCountry = _getCountry(_compliance, _to) */\n      swap1\n      swap2\n      pop\n        /* \"erc3643/erc3643/Compliance/modular/Modules/CountryRestrictModule.sol\":3017:3062  (_restrictedCountries[_compliance])[_country] */\n      0xff\n      and\n        /* \"erc3643/erc3643/Compliance/modular/Modules/CountryRestrictModule.sol\":2768:2862  if (isCountryRestricted(_compliance, receiverCountry)) {... */\n      iszero\n      tag_67\n      jumpi\n        /* \"erc3643/erc3643/Compliance/modular/Modules/CountryRestrictModule.sol\":2845:2850  false */\n      0x00\n        /* \"erc3643/erc3643/Compliance/modular/Modules/CountryRestrictModule.sol\":2838:2850  return false */\n      swap2\n      pop\n      pop\n      jump(tag_63)\n        /* \"erc3643/erc3643/Compliance/modular/Modules/CountryRestrictModule.sol\":2768:2862  if (isCountryRestricted(_compliance, receiverCountry)) {... */\n    tag_67:\n        /* \"erc3643/erc3643/Compliance/modular/Modules/CountryRestrictModule.sol\":2879:2883  true */\n      0x01\n        /* \"erc3643/erc3643/Compliance/modular/Modules/CountryRestrictModule.sol\":2872:2883  return true */\n      swap2\n      pop\n      pop\n        /* \"erc3643/erc3643/Compliance/modular/Modules/CountryRestrictModule.sol\":2517:2891  function moduleCheck(... */\n    tag_63:\n      swap5\n      swap4\n      pop\n      pop\n      pop\n      pop\n      jump\t// out\n        /* \"erc3643/erc3643/Compliance/modular/Modules/CountryRestrictModule.sol\":519:828  function addCountryRestriction(uint16 _country) external onlyComplianceCall {... */\n    tag_25:\n        /* \"erc3643/erc3643/Compliance/modular/Modules/AbstractModule.sol\":491:501  msg.sender */\n      caller\n        /* \"erc3643/erc3643/Compliance/modular/Modules/AbstractModule.sol\":474:490  _complianceBound */\n      0x00\n        /* \"erc3643/erc3643/Compliance/modular/Modules/AbstractModule.sol\":474:502  _complianceBound[msg.sender] */\n      swap1\n      dup2\n      mstore\n      0x20\n      dup2\n      swap1\n      mstore\n      0x40\n      swap1\n      keccak256\n      sload\n      0xff\n      and\n        /* \"erc3643/erc3643/Compliance/modular/Modules/AbstractModule.sol\":466:537  require(_complianceBound[msg.sender], \"only bound compliance can call\") */\n      tag_69\n      jumpi\n      mload(0x40)\n      shl(0xe5, 0x461bcd)\n      dup2\n      mstore\n      0x04\n      add\n      tag_70\n      swap1\n      tag_71\n      jump\t// in\n    tag_70:\n      mload(0x40)\n      dup1\n      swap2\n      sub\n      swap1\n      revert\n    tag_69:\n        /* \"erc3643/erc3643/Compliance/modular/Modules/CountryRestrictModule.sol\":636:646  msg.sender */\n      caller\n        /* \"erc3643/erc3643/Compliance/modular/Modules/CountryRestrictModule.sol\":615:647  _restrictedCountries[msg.sender] */\n      0x00\n      swap1\n      dup2\n      mstore\n        /* \"erc3643/erc3643/Compliance/modular/Modules/CountryRestrictModule.sol\":615:635  _restrictedCountries */\n      0x01\n        /* \"erc3643/erc3643/Compliance/modular/Modules/CountryRestrictModule.sol\":615:647  _restrictedCountries[msg.sender] */\n      0x20\n      swap1\n      dup2\n      mstore\n      0x40\n      dup1\n      dup4\n      keccak256\n        /* \"erc3643/erc3643/Compliance/modular/Modules/CountryRestrictModule.sol\":614:658  (_restrictedCountries[msg.sender])[_country] */\n      0xffff\n      dup6\n      and\n      dup5\n      mstore\n      swap1\n      swap2\n      mstore\n      swap1\n      keccak256\n      sload\n      0xff\n      and\n        /* \"erc3643/erc3643/Compliance/modular/Modules/CountryRestrictModule.sol\":614:667  (_restrictedCountries[msg.sender])[_country] == false */\n      iszero\n        /* \"erc3643/erc3643/Compliance/modular/Modules/CountryRestrictModule.sol\":606:698  require((_restrictedCountries[msg.sender])[_country] == false, \"country already restricted\") */\n      tag_73\n      jumpi\n      mload(0x40)\n      shl(0xe5, 0x461bcd)\n      dup2\n      mstore\n        /* \"#utility.yul\":3921:3923   */\n      0x20\n        /* \"erc3643/erc3643/Compliance/modular/Modules/CountryRestrictModule.sol\":606:698  require((_restrictedCountries[msg.sender])[_country] == false, \"country already restricted\") */\n      0x04\n      dup3\n      add\n        /* \"#utility.yul\":3903:3924   */\n      mstore\n        /* \"#utility.yul\":3960:3962   */\n      0x1a\n        /* \"#utility.yul\":3940:3958   */\n      0x24\n      dup3\n      add\n        /* \"#utility.yul\":3933:3963   */\n      mstore\n        /* \"#utility.yul\":3999:4027   */\n      0x636f756e74727920616c72656164792072657374726963746564000000000000\n        /* \"#utility.yul\":3979:3997   */\n      0x44\n      dup3\n      add\n        /* \"#utility.yul\":3972:4028   */\n      mstore\n        /* \"#utility.yul\":4045:4063   */\n      0x64\n      add\n        /* \"erc3643/erc3643/Compliance/modular/Modules/CountryRestrictModule.sol\":606:698  require((_restrictedCountries[msg.sender])[_country] == false, \"country already restricted\") */\n      tag_70\n        /* \"#utility.yul\":3719:4069   */\n      jump\n        /* \"erc3643/erc3643/Compliance/modular/Modules/CountryRestrictModule.sol\":606:698  require((_restrictedCountries[msg.sender])[_country] == false, \"country already restricted\") */\n    tag_73:\n        /* \"erc3643/erc3643/Compliance/modular/Modules/CountryRestrictModule.sol\":731:741  msg.sender */\n      caller\n        /* \"erc3643/erc3643/Compliance/modular/Modules/CountryRestrictModule.sol\":710:742  _restrictedCountries[msg.sender] */\n      0x00\n      dup2\n      dup2\n      mstore\n        /* \"erc3643/erc3643/Compliance/modular/Modules/CountryRestrictModule.sol\":756:760  true */\n      0x01\n        /* \"erc3643/erc3643/Compliance/modular/Modules/CountryRestrictModule.sol\":710:742  _restrictedCountries[msg.sender] */\n      0x20\n      dup2\n      dup2\n      mstore\n      0x40\n      dup1\n      dup5\n      keccak256\n        /* \"erc3643/erc3643/Compliance/modular/Modules/CountryRestrictModule.sol\":709:753  (_restrictedCountries[msg.sender])[_country] */\n      0xffff\n      dup8\n      and\n      dup1\n      dup7\n      mstore\n      swap1\n      dup4\n      mstore\n      swap4\n      dup2\n      swap1\n      keccak256\n        /* \"erc3643/erc3643/Compliance/modular/Modules/CountryRestrictModule.sol\":709:760  (_restrictedCountries[msg.sender])[_country] = true */\n      dup1\n      sload\n      not(0xff)\n      and\n      swap1\n      swap4\n      or\n      swap1\n      swap3\n      sstore\n        /* \"erc3643/erc3643/Compliance/modular/Modules/CountryRestrictModule.sol\":776:820  AddedRestrictedCountry(msg.sender, _country) */\n      swap1\n      mload\n        /* \"#utility.yul\":4218:4256   */\n      swap2\n      dup3\n      mstore\n        /* \"erc3643/erc3643/Compliance/modular/Modules/CountryRestrictModule.sol\":776:820  AddedRestrictedCountry(msg.sender, _country) */\n      0x5e0addf626d7d7091ab7aebf34682c3203384648734760b24921e31ddcec0bb5\n      swap2\n        /* \"#utility.yul\":4191:4209   */\n      add\n        /* \"erc3643/erc3643/Compliance/modular/Modules/CountryRestrictModule.sol\":776:820  AddedRestrictedCountry(msg.sender, _country) */\n    tag_76:\n      mload(0x40)\n      dup1\n      swap2\n      sub\n      swap1\n      log2\n        /* \"erc3643/erc3643/Compliance/modular/Modules/CountryRestrictModule.sol\":519:828  function addCountryRestriction(uint16 _country) external onlyComplianceCall {... */\n      pop\n      jump\t// out\n        /* \"erc3643/erc3643/Compliance/modular/Modules/AbstractModule.sol\":975:1323  function unbindCompliance(address _compliance) external onlyComplianceCall override {... */\n    tag_29:\n        /* \"erc3643/erc3643/Compliance/modular/Modules/AbstractModule.sol\":491:501  msg.sender */\n      caller\n        /* \"erc3643/erc3643/Compliance/modular/Modules/AbstractModule.sol\":474:490  _complianceBound */\n      0x00\n        /* \"erc3643/erc3643/Compliance/modular/Modules/AbstractModule.sol\":474:502  _complianceBound[msg.sender] */\n      swap1\n      dup2\n      mstore\n      0x20\n      dup2\n      swap1\n      mstore\n      0x40\n      swap1\n      keccak256\n      sload\n      0xff\n      and\n        /* \"erc3643/erc3643/Compliance/modular/Modules/AbstractModule.sol\":466:537  require(_complianceBound[msg.sender], \"only bound compliance can call\") */\n      tag_79\n      jumpi\n      mload(0x40)\n      shl(0xe5, 0x461bcd)\n      dup2\n      mstore\n      0x04\n      add\n      tag_70\n      swap1\n      tag_71\n      jump\t// in\n    tag_79:\n      sub(shl(0xa0, 0x01), 0x01)\n        /* \"erc3643/erc3643/Compliance/modular/Modules/AbstractModule.sol\":1078:1103  _compliance != address(0) */\n      dup2\n      and\n        /* \"erc3643/erc3643/Compliance/modular/Modules/AbstractModule.sol\":1070:1139  require(_compliance != address(0), \"invalid argument - zero address\") */\n      tag_82\n      jumpi\n      mload(0x40)\n      shl(0xe5, 0x461bcd)\n      dup2\n      mstore\n        /* \"#utility.yul\":4469:4471   */\n      0x20\n        /* \"erc3643/erc3643/Compliance/modular/Modules/AbstractModule.sol\":1070:1139  require(_compliance != address(0), \"invalid argument - zero address\") */\n      0x04\n      dup3\n      add\n        /* \"#utility.yul\":4451:4472   */\n      mstore\n        /* \"#utility.yul\":4508:4510   */\n      0x1f\n        /* \"#utility.yul\":4488:4506   */\n      0x24\n      dup3\n      add\n        /* \"#utility.yul\":4481:4511   */\n      mstore\n        /* \"#utility.yul\":4547:4580   */\n      0x696e76616c696420617267756d656e74202d207a65726f206164647265737300\n        /* \"#utility.yul\":4527:4545   */\n      0x44\n      dup3\n      add\n        /* \"#utility.yul\":4520:4581   */\n      mstore\n        /* \"#utility.yul\":4598:4616   */\n      0x64\n      add\n        /* \"erc3643/erc3643/Compliance/modular/Modules/AbstractModule.sol\":1070:1139  require(_compliance != address(0), \"invalid argument - zero address\") */\n      tag_70\n        /* \"#utility.yul\":4267:4622   */\n      jump\n        /* \"erc3643/erc3643/Compliance/modular/Modules/AbstractModule.sol\":1070:1139  require(_compliance != address(0), \"invalid argument - zero address\") */\n    tag_82:\n        /* \"erc3643/erc3643/Compliance/modular/Modules/AbstractModule.sol\":1158:1168  msg.sender */\n      caller\n      sub(shl(0xa0, 0x01), 0x01)\n        /* \"erc3643/erc3643/Compliance/modular/Modules/AbstractModule.sol\":1158:1183  msg.sender == _compliance */\n      dup3\n      and\n      eq\n        /* \"erc3643/erc3643/Compliance/modular/Modules/AbstractModule.sol\":1150:1221  require(msg.sender == _compliance, \"only compliance contract can call\") */\n      tag_85\n      jumpi\n      mload(0x40)\n      shl(0xe5, 0x461bcd)\n      dup2\n      mstore\n      0x04\n      add\n      tag_70\n      swap1\n      tag_87\n      jump\t// in\n    tag_85:\n      sub(shl(0xa0, 0x01), 0x01)\n        /* \"erc3643/erc3643/Compliance/modular/Modules/AbstractModule.sol\":1232:1261  _complianceBound[_compliance] */\n      dup2\n      and\n        /* \"erc3643/erc3643/Compliance/modular/Modules/AbstractModule.sol\":1264:1269  false */\n      0x00\n        /* \"erc3643/erc3643/Compliance/modular/Modules/AbstractModule.sol\":1232:1261  _complianceBound[_compliance] */\n      dup2\n      dup2\n      mstore\n      0x20\n      dup2\n      swap1\n      mstore\n      0x40\n      dup1\n      dup3\n      keccak256\n        /* \"erc3643/erc3643/Compliance/modular/Modules/AbstractModule.sol\":1232:1269  _complianceBound[_compliance] = false */\n      dup1\n      sload\n      not(0xff)\n      and\n      swap1\n      sstore\n        /* \"erc3643/erc3643/Compliance/modular/Modules/AbstractModule.sol\":1285:1315  ComplianceUnbound(_compliance) */\n      mload\n      0x408b49d9be1c914c52a0227e18a077e5a892dddf32a26cfa94a5d9708fad7718\n      swap2\n        /* \"erc3643/erc3643/Compliance/modular/Modules/AbstractModule.sol\":1264:1269  false */\n      swap1\n        /* \"erc3643/erc3643/Compliance/modular/Modules/AbstractModule.sol\":1285:1315  ComplianceUnbound(_compliance) */\n      log2\n        /* \"erc3643/erc3643/Compliance/modular/Modules/AbstractModule.sol\":975:1323  function unbindCompliance(address _compliance) external onlyComplianceCall override {... */\n      pop\n      jump\t// out\n        /* \"erc3643/erc3643/Compliance/modular/Modules/CountryRestrictModule.sol\":1671:2182  function batchUnrestrictCountries(uint16[] calldata _countries) external onlyComplianceCall {... */\n    tag_33:\n        /* \"erc3643/erc3643/Compliance/modular/Modules/AbstractModule.sol\":491:501  msg.sender */\n      caller\n        /* \"erc3643/erc3643/Compliance/modular/Modules/AbstractModule.sol\":474:490  _complianceBound */\n      0x00\n        /* \"erc3643/erc3643/Compliance/modular/Modules/AbstractModule.sol\":474:502  _complianceBound[msg.sender] */\n      swap1\n      dup2\n      mstore\n      0x20\n      dup2\n      swap1\n      mstore\n      0x40\n      swap1\n      keccak256\n      sload\n      0xff\n      and\n        /* \"erc3643/erc3643/Compliance/modular/Modules/AbstractModule.sol\":466:537  require(_complianceBound[msg.sender], \"only bound compliance can call\") */\n      tag_89\n      jumpi\n      mload(0x40)\n      shl(0xe5, 0x461bcd)\n      dup2\n      mstore\n      0x04\n      add\n      tag_70\n      swap1\n      tag_71\n      jump\t// in\n    tag_89:\n        /* \"erc3643/erc3643/Compliance/modular/Modules/CountryRestrictModule.sol\":1802:1805  195 */\n      0xc3\n        /* \"erc3643/erc3643/Compliance/modular/Modules/CountryRestrictModule.sol\":1782:1805  _countries.length < 195 */\n      dup2\n      lt\n        /* \"erc3643/erc3643/Compliance/modular/Modules/CountryRestrictModule.sol\":1774:1854  require(_countries.length < 195, \"maximum 195 can be unrestricted in one batch\") */\n      tag_92\n      jumpi\n      mload(0x40)\n      shl(0xe5, 0x461bcd)\n      dup2\n      mstore\n        /* \"#utility.yul\":5231:5233   */\n      0x20\n        /* \"erc3643/erc3643/Compliance/modular/Modules/CountryRestrictModule.sol\":1774:1854  require(_countries.length < 195, \"maximum 195 can be unrestricted in one batch\") */\n      0x04\n      dup3\n      add\n        /* \"#utility.yul\":5213:5234   */\n      mstore\n        /* \"#utility.yul\":5270:5272   */\n      0x2c\n        /* \"#utility.yul\":5250:5268   */\n      0x24\n      dup3\n      add\n        /* \"#utility.yul\":5243:5273   */\n      mstore\n        /* \"#utility.yul\":5309:5343   */\n      0x6d6178696d756d203139352063616e20626520756e7265737472696374656420\n        /* \"#utility.yul\":5289:5307   */\n      0x44\n      dup3\n      add\n        /* \"#utility.yul\":5282:5344   */\n      mstore\n      shl(0xa3, 0x0d2dc40dedcca40c4c2e8c6d)\n        /* \"#utility.yul\":5360:5378   */\n      0x64\n      dup3\n      add\n        /* \"#utility.yul\":5353:5395   */\n      mstore\n        /* \"#utility.yul\":5412:5431   */\n      0x84\n      add\n        /* \"erc3643/erc3643/Compliance/modular/Modules/CountryRestrictModule.sol\":1774:1854  require(_countries.length < 195, \"maximum 195 can be unrestricted in one batch\") */\n      tag_70\n        /* \"#utility.yul\":5029:5437   */\n      jump\n        /* \"erc3643/erc3643/Compliance/modular/Modules/CountryRestrictModule.sol\":1774:1854  require(_countries.length < 195, \"maximum 195 can be unrestricted in one batch\") */\n    tag_92:\n        /* \"erc3643/erc3643/Compliance/modular/Modules/CountryRestrictModule.sol\":1870:1879  uint256 i */\n      0x00\n        /* \"erc3643/erc3643/Compliance/modular/Modules/CountryRestrictModule.sol\":1865:2175  for (uint256 i = 0; i < _countries.length; i++) {... */\n    tag_95:\n        /* \"erc3643/erc3643/Compliance/modular/Modules/CountryRestrictModule.sol\":1885:1906  i < _countries.length */\n      dup2\n      dup2\n      lt\n        /* \"erc3643/erc3643/Compliance/modular/Modules/CountryRestrictModule.sol\":1865:2175  for (uint256 i = 0; i < _countries.length; i++) {... */\n      iszero\n      tag_96\n      jumpi\n        /* \"erc3643/erc3643/Compliance/modular/Modules/CountryRestrictModule.sol\":1958:1968  msg.sender */\n      caller\n        /* \"erc3643/erc3643/Compliance/modular/Modules/CountryRestrictModule.sol\":1937:1969  _restrictedCountries[msg.sender] */\n      0x00\n      swap1\n      dup2\n      mstore\n        /* \"erc3643/erc3643/Compliance/modular/Modules/CountryRestrictModule.sol\":1937:1957  _restrictedCountries */\n      0x01\n        /* \"erc3643/erc3643/Compliance/modular/Modules/CountryRestrictModule.sol\":1937:1969  _restrictedCountries[msg.sender] */\n      0x20\n      mstore\n      0x40\n      dup2\n      keccak256\n      swap1\n        /* \"erc3643/erc3643/Compliance/modular/Modules/CountryRestrictModule.sol\":1971:1981  _countries */\n      dup5\n      dup5\n        /* \"erc3643/erc3643/Compliance/modular/Modules/CountryRestrictModule.sol\":1982:1983  i */\n      dup5\n        /* \"erc3643/erc3643/Compliance/modular/Modules/CountryRestrictModule.sol\":1971:1984  _countries[i] */\n      dup2\n      dup2\n      lt\n      tag_99\n      jumpi\n      tag_99\n      tag_100\n      jump\t// in\n    tag_99:\n      swap1\n      pop\n      0x20\n      mul\n      add\n      0x20\n      dup2\n      add\n      swap1\n      tag_101\n      swap2\n      swap1\n      tag_24\n      jump\t// in\n    tag_101:\n        /* \"erc3643/erc3643/Compliance/modular/Modules/CountryRestrictModule.sol\":1936:1985  (_restrictedCountries[msg.sender])[_countries[i]] */\n      0xffff\n      and\n      dup2\n      mstore\n      0x20\n      dup2\n      add\n      swap2\n      swap1\n      swap2\n      mstore\n      0x40\n      add\n      0x00\n      keccak256\n      sload\n      0xff\n      and\n        /* \"erc3643/erc3643/Compliance/modular/Modules/CountryRestrictModule.sol\":1936:1993  (_restrictedCountries[msg.sender])[_countries[i]] == true */\n      iszero\n      iszero\n        /* \"erc3643/erc3643/Compliance/modular/Modules/CountryRestrictModule.sol\":1936:1985  (_restrictedCountries[msg.sender])[_countries[i]] */\n      0x01\n        /* \"erc3643/erc3643/Compliance/modular/Modules/CountryRestrictModule.sol\":1936:1993  (_restrictedCountries[msg.sender])[_countries[i]] == true */\n      eq\n        /* \"erc3643/erc3643/Compliance/modular/Modules/CountryRestrictModule.sol\":1928:2020  require((_restrictedCountries[msg.sender])[_countries[i]] == true, \"country not restricted\") */\n      tag_102\n      jumpi\n      mload(0x40)\n      shl(0xe5, 0x461bcd)\n      dup2\n      mstore\n        /* \"#utility.yul\":5776:5778   */\n      0x20\n        /* \"erc3643/erc3643/Compliance/modular/Modules/CountryRestrictModule.sol\":1928:2020  require((_restrictedCountries[msg.sender])[_countries[i]] == true, \"country not restricted\") */\n      0x04\n      dup3\n      add\n        /* \"#utility.yul\":5758:5779   */\n      mstore\n        /* \"#utility.yul\":5815:5817   */\n      0x16\n        /* \"#utility.yul\":5795:5813   */\n      0x24\n      dup3\n      add\n        /* \"#utility.yul\":5788:5818   */\n      mstore\n      shl(0x52, 0x18dbdd5b9d1c9e481b9bdd081c995cdd1c9a58dd1959)\n        /* \"#utility.yul\":5834:5852   */\n      0x44\n      dup3\n      add\n        /* \"#utility.yul\":5827:5879   */\n      mstore\n        /* \"#utility.yul\":5896:5914   */\n      0x64\n      add\n        /* \"erc3643/erc3643/Compliance/modular/Modules/CountryRestrictModule.sol\":1928:2020  require((_restrictedCountries[msg.sender])[_countries[i]] == true, \"country not restricted\") */\n      tag_70\n        /* \"#utility.yul\":5574:5920   */\n      jump\n        /* \"erc3643/erc3643/Compliance/modular/Modules/CountryRestrictModule.sol\":1928:2020  require((_restrictedCountries[msg.sender])[_countries[i]] == true, \"country not restricted\") */\n    tag_102:\n        /* \"erc3643/erc3643/Compliance/modular/Modules/CountryRestrictModule.sol\":2057:2067  msg.sender */\n      caller\n        /* \"erc3643/erc3643/Compliance/modular/Modules/CountryRestrictModule.sol\":2087:2092  false */\n      0x00\n        /* \"erc3643/erc3643/Compliance/modular/Modules/CountryRestrictModule.sol\":2036:2068  _restrictedCountries[msg.sender] */\n      swap1\n      dup2\n      mstore\n        /* \"erc3643/erc3643/Compliance/modular/Modules/CountryRestrictModule.sol\":2036:2056  _restrictedCountries */\n      0x01\n        /* \"erc3643/erc3643/Compliance/modular/Modules/CountryRestrictModule.sol\":2036:2068  _restrictedCountries[msg.sender] */\n      0x20\n      mstore\n      0x40\n      dup2\n      keccak256\n        /* \"erc3643/erc3643/Compliance/modular/Modules/CountryRestrictModule.sol\":2087:2092  false */\n      dup2\n        /* \"erc3643/erc3643/Compliance/modular/Modules/CountryRestrictModule.sol\":2070:2080  _countries */\n      dup6\n      dup6\n        /* \"erc3643/erc3643/Compliance/modular/Modules/CountryRestrictModule.sol\":2081:2082  i */\n      dup6\n        /* \"erc3643/erc3643/Compliance/modular/Modules/CountryRestrictModule.sol\":2070:2083  _countries[i] */\n      dup2\n      dup2\n      lt\n      tag_106\n      jumpi\n      tag_106\n      tag_100\n      jump\t// in\n    tag_106:\n      swap1\n      pop\n      0x20\n      mul\n      add\n      0x20\n      dup2\n      add\n      swap1\n      tag_107\n      swap2\n      swap1\n      tag_24\n      jump\t// in\n    tag_107:\n        /* \"erc3643/erc3643/Compliance/modular/Modules/CountryRestrictModule.sol\":2035:2084  (_restrictedCountries[msg.sender])[_countries[i]] */\n      0xffff\n      and\n      dup2\n      mstore\n      0x20\n      dup2\n      add\n      swap2\n      swap1\n      swap2\n      mstore\n      0x40\n      add\n      0x00\n      keccak256\n        /* \"erc3643/erc3643/Compliance/modular/Modules/CountryRestrictModule.sol\":2035:2092  (_restrictedCountries[msg.sender])[_countries[i]] = false */\n      dup1\n      sload\n      not(0xff)\n      and\n      swap2\n      iszero\n      iszero\n      swap2\n      swap1\n      swap2\n      or\n      swap1\n      sstore\n        /* \"erc3643/erc3643/Compliance/modular/Modules/CountryRestrictModule.sol\":2137:2147  msg.sender */\n      caller\n        /* \"erc3643/erc3643/Compliance/modular/Modules/CountryRestrictModule.sol\":2112:2163  RemovedRestrictedCountry(msg.sender, _countries[i]) */\n      0xfb8bb575200aa114265a31c7d8ebeb4e395bd3cd9d0914c4bfa2a511d2011a7a\n        /* \"erc3643/erc3643/Compliance/modular/Modules/CountryRestrictModule.sol\":2149:2159  _countries */\n      dup5\n      dup5\n        /* \"erc3643/erc3643/Compliance/modular/Modules/CountryRestrictModule.sol\":2160:2161  i */\n      dup5\n        /* \"erc3643/erc3643/Compliance/modular/Modules/CountryRestrictModule.sol\":2149:2162  _countries[i] */\n      dup2\n      dup2\n      lt\n      tag_109\n      jumpi\n      tag_109\n      tag_100\n      jump\t// in\n    tag_109:\n      swap1\n      pop\n      0x20\n      mul\n      add\n      0x20\n      dup2\n      add\n      swap1\n      tag_110\n      swap2\n      swap1\n      tag_24\n      jump\t// in\n    tag_110:\n        /* \"erc3643/erc3643/Compliance/modular/Modules/CountryRestrictModule.sol\":2112:2163  RemovedRestrictedCountry(msg.sender, _countries[i]) */\n      mload(0x40)\n        /* \"#utility.yul\":4248:4254   */\n      0xffff\n        /* \"#utility.yul\":4236:4255   */\n      swap1\n      swap2\n      and\n        /* \"#utility.yul\":4218:4256   */\n      dup2\n      mstore\n        /* \"#utility.yul\":4206:4208   */\n      0x20\n        /* \"#utility.yul\":4191:4209   */\n      add\n        /* \"erc3643/erc3643/Compliance/modular/Modules/CountryRestrictModule.sol\":2112:2163  RemovedRestrictedCountry(msg.sender, _countries[i]) */\n      mload(0x40)\n      dup1\n      swap2\n      sub\n      swap1\n      log2\n        /* \"erc3643/erc3643/Compliance/modular/Modules/CountryRestrictModule.sol\":1908:1911  i++ */\n      dup1\n      tag_112\n      dup2\n      tag_113\n      jump\t// in\n    tag_112:\n      swap2\n      pop\n      pop\n        /* \"erc3643/erc3643/Compliance/modular/Modules/CountryRestrictModule.sol\":1865:2175  for (uint256 i = 0; i < _countries.length; i++) {... */\n      jump(tag_95)\n    tag_96:\n      pop\n        /* \"erc3643/erc3643/Compliance/modular/Modules/CountryRestrictModule.sol\":1671:2182  function batchUnrestrictCountries(uint16[] calldata _countries) external onlyComplianceCall {... */\n      pop\n      pop\n      jump\t// out\n        /* \"erc3643/erc3643/Compliance/modular/Modules/CountryRestrictModule.sol\":2190:2303  function moduleTransferAction(address _from, address _to, uint256 _value) external override onlyComplianceCall {} */\n    tag_37:\n        /* \"erc3643/erc3643/Compliance/modular/Modules/AbstractModule.sol\":491:501  msg.sender */\n      caller\n        /* \"erc3643/erc3643/Compliance/modular/Modules/AbstractModule.sol\":474:490  _complianceBound */\n      0x00\n        /* \"erc3643/erc3643/Compliance/modular/Modules/AbstractModule.sol\":474:502  _complianceBound[msg.sender] */\n      swap1\n      dup2\n      mstore\n      0x20\n      dup2\n      swap1\n      mstore\n      0x40\n      swap1\n      keccak256\n      sload\n      0xff\n      and\n        /* \"erc3643/erc3643/Compliance/modular/Modules/AbstractModule.sol\":466:537  require(_complianceBound[msg.sender], \"only bound compliance can call\") */\n      tag_96\n      jumpi\n      mload(0x40)\n      shl(0xe5, 0x461bcd)\n      dup2\n      mstore\n      0x04\n      add\n      tag_70\n      swap1\n      tag_71\n      jump\t// in\n        /* \"erc3643/erc3643/Compliance/modular/Modules/CountryRestrictModule.sol\":2413:2509  function moduleBurnAction(address _from, uint256 _value) external override onlyComplianceCall {} */\n    tag_46:\n        /* \"erc3643/erc3643/Compliance/modular/Modules/AbstractModule.sol\":491:501  msg.sender */\n      caller\n        /* \"erc3643/erc3643/Compliance/modular/Modules/AbstractModule.sol\":474:490  _complianceBound */\n      0x00\n        /* \"erc3643/erc3643/Compliance/modular/Modules/AbstractModule.sol\":474:502  _complianceBound[msg.sender] */\n      swap1\n      dup2\n      mstore\n      0x20\n      dup2\n      swap1\n      mstore\n      0x40\n      swap1\n      keccak256\n      sload\n      0xff\n      and\n        /* \"erc3643/erc3643/Compliance/modular/Modules/AbstractModule.sol\":466:537  require(_complianceBound[msg.sender], \"only bound compliance can call\") */\n      tag_120\n      jumpi\n      mload(0x40)\n      shl(0xe5, 0x461bcd)\n      dup2\n      mstore\n      0x04\n      add\n      tag_70\n      swap1\n      tag_71\n      jump\t// in\n    tag_120:\n        /* \"erc3643/erc3643/Compliance/modular/Modules/CountryRestrictModule.sol\":2413:2509  function moduleBurnAction(address _from, uint256 _value) external override onlyComplianceCall {} */\n      pop\n      pop\n      jump\t// out\n        /* \"erc3643/erc3643/Compliance/modular/Modules/AbstractModule.sol\":565:967  function bindCompliance(address _compliance) external override {... */\n    tag_49:\n      sub(shl(0xa0, 0x01), 0x01)\n        /* \"erc3643/erc3643/Compliance/modular/Modules/AbstractModule.sol\":647:672  _compliance != address(0) */\n      dup2\n      and\n        /* \"erc3643/erc3643/Compliance/modular/Modules/AbstractModule.sol\":639:708  require(_compliance != address(0), \"invalid argument - zero address\") */\n      tag_124\n      jumpi\n      mload(0x40)\n      shl(0xe5, 0x461bcd)\n      dup2\n      mstore\n        /* \"#utility.yul\":4469:4471   */\n      0x20\n        /* \"erc3643/erc3643/Compliance/modular/Modules/AbstractModule.sol\":639:708  require(_compliance != address(0), \"invalid argument - zero address\") */\n      0x04\n      dup3\n      add\n        /* \"#utility.yul\":4451:4472   */\n      mstore\n        /* \"#utility.yul\":4508:4510   */\n      0x1f\n        /* \"#utility.yul\":4488:4506   */\n      0x24\n      dup3\n      add\n        /* \"#utility.yul\":4481:4511   */\n      mstore\n        /* \"#utility.yul\":4547:4580   */\n      0x696e76616c696420617267756d656e74202d207a65726f206164647265737300\n        /* \"#utility.yul\":4527:4545   */\n      0x44\n      dup3\n      add\n        /* \"#utility.yul\":4520:4581   */\n      mstore\n        /* \"#utility.yul\":4598:4616   */\n      0x64\n      add\n        /* \"erc3643/erc3643/Compliance/modular/Modules/AbstractModule.sol\":639:708  require(_compliance != address(0), \"invalid argument - zero address\") */\n      tag_70\n        /* \"#utility.yul\":4267:4622   */\n      jump\n        /* \"erc3643/erc3643/Compliance/modular/Modules/AbstractModule.sol\":639:708  require(_compliance != address(0), \"invalid argument - zero address\") */\n    tag_124:\n      sub(shl(0xa0, 0x01), 0x01)\n        /* \"erc3643/erc3643/Compliance/modular/Modules/AbstractModule.sol\":728:757  _complianceBound[_compliance] */\n      dup2\n      and\n        /* \"erc3643/erc3643/Compliance/modular/Modules/AbstractModule.sol\":728:744  _complianceBound */\n      0x00\n        /* \"erc3643/erc3643/Compliance/modular/Modules/AbstractModule.sol\":728:757  _complianceBound[_compliance] */\n      swap1\n      dup2\n      mstore\n      0x20\n      dup2\n      swap1\n      mstore\n      0x40\n      swap1\n      keccak256\n      sload\n      0xff\n      and\n        /* \"erc3643/erc3643/Compliance/modular/Modules/AbstractModule.sol\":727:757  !_complianceBound[_compliance] */\n      iszero\n        /* \"erc3643/erc3643/Compliance/modular/Modules/AbstractModule.sol\":719:786  require(!_complianceBound[_compliance], \"compliance already bound\") */\n      tag_126\n      jumpi\n      mload(0x40)\n      shl(0xe5, 0x461bcd)\n      dup2\n      mstore\n        /* \"#utility.yul\":6364:6366   */\n      0x20\n        /* \"erc3643/erc3643/Compliance/modular/Modules/AbstractModule.sol\":719:786  require(!_complianceBound[_compliance], \"compliance already bound\") */\n      0x04\n      dup3\n      add\n        /* \"#utility.yul\":6346:6367   */\n      mstore\n        /* \"#utility.yul\":6403:6405   */\n      0x18\n        /* \"#utility.yul\":6383:6401   */\n      0x24\n      dup3\n      add\n        /* \"#utility.yul\":6376:6406   */\n      mstore\n        /* \"#utility.yul\":6442:6468   */\n      0x636f6d706c69616e636520616c726561647920626f756e640000000000000000\n        /* \"#utility.yul\":6422:6440   */\n      0x44\n      dup3\n      add\n        /* \"#utility.yul\":6415:6469   */\n      mstore\n        /* \"#utility.yul\":6486:6504   */\n      0x64\n      add\n        /* \"erc3643/erc3643/Compliance/modular/Modules/AbstractModule.sol\":719:786  require(!_complianceBound[_compliance], \"compliance already bound\") */\n      tag_70\n        /* \"#utility.yul\":6162:6510   */\n      jump\n        /* \"erc3643/erc3643/Compliance/modular/Modules/AbstractModule.sol\":719:786  require(!_complianceBound[_compliance], \"compliance already bound\") */\n    tag_126:\n        /* \"erc3643/erc3643/Compliance/modular/Modules/AbstractModule.sol\":805:815  msg.sender */\n      caller\n      sub(shl(0xa0, 0x01), 0x01)\n        /* \"erc3643/erc3643/Compliance/modular/Modules/AbstractModule.sol\":805:830  msg.sender == _compliance */\n      dup3\n      and\n      eq\n        /* \"erc3643/erc3643/Compliance/modular/Modules/AbstractModule.sol\":797:868  require(msg.sender == _compliance, \"only compliance contract can call\") */\n      tag_129\n      jumpi\n      mload(0x40)\n      shl(0xe5, 0x461bcd)\n      dup2\n      mstore\n      0x04\n      add\n      tag_70\n      swap1\n      tag_87\n      jump\t// in\n    tag_129:\n      sub(shl(0xa0, 0x01), 0x01)\n        /* \"erc3643/erc3643/Compliance/modular/Modules/AbstractModule.sol\":879:908  _complianceBound[_compliance] */\n      dup2\n      and\n        /* \"erc3643/erc3643/Compliance/modular/Modules/AbstractModule.sol\":879:895  _complianceBound */\n      0x00\n        /* \"erc3643/erc3643/Compliance/modular/Modules/AbstractModule.sol\":879:908  _complianceBound[_compliance] */\n      dup2\n      dup2\n      mstore\n      0x20\n      dup2\n      swap1\n      mstore\n      0x40\n      dup1\n      dup3\n      keccak256\n        /* \"erc3643/erc3643/Compliance/modular/Modules/AbstractModule.sol\":879:915  _complianceBound[_compliance] = true */\n      dup1\n      sload\n      not(0xff)\n      and\n        /* \"erc3643/erc3643/Compliance/modular/Modules/AbstractModule.sol\":911:915  true */\n      0x01\n        /* \"erc3643/erc3643/Compliance/modular/Modules/AbstractModule.sol\":879:915  _complianceBound[_compliance] = true */\n      or\n      swap1\n      sstore\n        /* \"erc3643/erc3643/Compliance/modular/Modules/AbstractModule.sol\":931:959  ComplianceBound(_compliance) */\n      mload\n      0x1f7b76c58fb697eb53c6c7c1becb96911516a136e24d7ced386b2355358b75a3\n      swap2\n        /* \"erc3643/erc3643/Compliance/modular/Modules/AbstractModule.sol\":879:895  _complianceBound */\n      swap1\n        /* \"erc3643/erc3643/Compliance/modular/Modules/AbstractModule.sol\":931:959  ComplianceBound(_compliance) */\n      log2\n        /* \"erc3643/erc3643/Compliance/modular/Modules/AbstractModule.sol\":565:967  function bindCompliance(address _compliance) external override {... */\n      pop\n      jump\t// out\n        /* \"erc3643/erc3643/Compliance/modular/Modules/CountryRestrictModule.sol\":836:1146  function removeCountryRestriction(uint16 _country) external onlyComplianceCall {... */\n    tag_56:\n        /* \"erc3643/erc3643/Compliance/modular/Modules/AbstractModule.sol\":491:501  msg.sender */\n      caller\n        /* \"erc3643/erc3643/Compliance/modular/Modules/AbstractModule.sol\":474:490  _complianceBound */\n      0x00\n        /* \"erc3643/erc3643/Compliance/modular/Modules/AbstractModule.sol\":474:502  _complianceBound[msg.sender] */\n      swap1\n      dup2\n      mstore\n      0x20\n      dup2\n      swap1\n      mstore\n      0x40\n      swap1\n      keccak256\n      sload\n      0xff\n      and\n        /* \"erc3643/erc3643/Compliance/modular/Modules/AbstractModule.sol\":466:537  require(_complianceBound[msg.sender], \"only bound compliance can call\") */\n      tag_133\n      jumpi\n      mload(0x40)\n      shl(0xe5, 0x461bcd)\n      dup2\n      mstore\n      0x04\n      add\n      tag_70\n      swap1\n      tag_71\n      jump\t// in\n    tag_133:\n        /* \"erc3643/erc3643/Compliance/modular/Modules/CountryRestrictModule.sol\":956:966  msg.sender */\n      caller\n        /* \"erc3643/erc3643/Compliance/modular/Modules/CountryRestrictModule.sol\":935:967  _restrictedCountries[msg.sender] */\n      0x00\n      swap1\n      dup2\n      mstore\n        /* \"erc3643/erc3643/Compliance/modular/Modules/CountryRestrictModule.sol\":935:955  _restrictedCountries */\n      0x01\n        /* \"erc3643/erc3643/Compliance/modular/Modules/CountryRestrictModule.sol\":935:967  _restrictedCountries[msg.sender] */\n      0x20\n      dup2\n      dup2\n      mstore\n      0x40\n      dup1\n      dup5\n      keccak256\n        /* \"erc3643/erc3643/Compliance/modular/Modules/CountryRestrictModule.sol\":934:978  (_restrictedCountries[msg.sender])[_country] */\n      0xffff\n      dup7\n      and\n      dup6\n      mstore\n      swap1\n      swap2\n      mstore\n      swap1\n      swap2\n      keccak256\n      sload\n      0xff\n      and\n        /* \"erc3643/erc3643/Compliance/modular/Modules/CountryRestrictModule.sol\":934:986  (_restrictedCountries[msg.sender])[_country] == true */\n      iszero\n      iszero\n      eq\n        /* \"erc3643/erc3643/Compliance/modular/Modules/CountryRestrictModule.sol\":926:1013  require((_restrictedCountries[msg.sender])[_country] == true, \"country not restricted\") */\n      tag_136\n      jumpi\n      mload(0x40)\n      shl(0xe5, 0x461bcd)\n      dup2\n      mstore\n        /* \"#utility.yul\":5776:5778   */\n      0x20\n        /* \"erc3643/erc3643/Compliance/modular/Modules/CountryRestrictModule.sol\":926:1013  require((_restrictedCountries[msg.sender])[_country] == true, \"country not restricted\") */\n      0x04\n      dup3\n      add\n        /* \"#utility.yul\":5758:5779   */\n      mstore\n        /* \"#utility.yul\":5815:5817   */\n      0x16\n        /* \"#utility.yul\":5795:5813   */\n      0x24\n      dup3\n      add\n        /* \"#utility.yul\":5788:5818   */\n      mstore\n      shl(0x52, 0x18dbdd5b9d1c9e481b9bdd081c995cdd1c9a58dd1959)\n        /* \"#utility.yul\":5834:5852   */\n      0x44\n      dup3\n      add\n        /* \"#utility.yul\":5827:5879   */\n      mstore\n        /* \"#utility.yul\":5896:5914   */\n      0x64\n      add\n        /* \"erc3643/erc3643/Compliance/modular/Modules/CountryRestrictModule.sol\":926:1013  require((_restrictedCountries[msg.sender])[_country] == true, \"country not restricted\") */\n      tag_70\n        /* \"#utility.yul\":5574:5920   */\n      jump\n        /* \"erc3643/erc3643/Compliance/modular/Modules/CountryRestrictModule.sol\":926:1013  require((_restrictedCountries[msg.sender])[_country] == true, \"country not restricted\") */\n    tag_136:\n        /* \"erc3643/erc3643/Compliance/modular/Modules/CountryRestrictModule.sol\":1046:1056  msg.sender */\n      caller\n        /* \"erc3643/erc3643/Compliance/modular/Modules/CountryRestrictModule.sol\":1071:1076  false */\n      0x00\n        /* \"erc3643/erc3643/Compliance/modular/Modules/CountryRestrictModule.sol\":1025:1057  _restrictedCountries[msg.sender] */\n      dup2\n      dup2\n      mstore\n        /* \"erc3643/erc3643/Compliance/modular/Modules/CountryRestrictModule.sol\":1025:1045  _restrictedCountries */\n      0x01\n        /* \"erc3643/erc3643/Compliance/modular/Modules/CountryRestrictModule.sol\":1025:1057  _restrictedCountries[msg.sender] */\n      0x20\n      swap1\n      dup2\n      mstore\n      0x40\n      dup1\n      dup4\n      keccak256\n        /* \"erc3643/erc3643/Compliance/modular/Modules/CountryRestrictModule.sol\":1024:1068  (_restrictedCountries[msg.sender])[_country] */\n      0xffff\n      dup7\n      and\n      dup1\n      dup6\n      mstore\n      swap1\n      dup4\n      mstore\n      swap3\n      dup2\n      swap1\n      keccak256\n        /* \"erc3643/erc3643/Compliance/modular/Modules/CountryRestrictModule.sol\":1024:1076  (_restrictedCountries[msg.sender])[_country] = false */\n      dup1\n      sload\n      not(0xff)\n      and\n      swap1\n      sstore\n        /* \"erc3643/erc3643/Compliance/modular/Modules/CountryRestrictModule.sol\":1092:1138  RemovedRestrictedCountry(msg.sender, _country) */\n      mload\n        /* \"#utility.yul\":4218:4256   */\n      swap2\n      dup3\n      mstore\n        /* \"erc3643/erc3643/Compliance/modular/Modules/CountryRestrictModule.sol\":1092:1138  RemovedRestrictedCountry(msg.sender, _country) */\n      0xfb8bb575200aa114265a31c7d8ebeb4e395bd3cd9d0914c4bfa2a511d2011a7a\n      swap2\n        /* \"#utility.yul\":4191:4209   */\n      add\n        /* \"erc3643/erc3643/Compliance/modular/Modules/CountryRestrictModule.sol\":1092:1138  RemovedRestrictedCountry(msg.sender, _country) */\n      tag_76\n        /* \"#utility.yul\":4074:4262   */\n      jump\n        /* \"erc3643/erc3643/Compliance/modular/Modules/CountryRestrictModule.sol\":1154:1663  function batchRestrictCountries(uint16[] calldata _countries) external onlyComplianceCall {... */\n    tag_59:\n        /* \"erc3643/erc3643/Compliance/modular/Modules/AbstractModule.sol\":491:501  msg.sender */\n      caller\n        /* \"erc3643/erc3643/Compliance/modular/Modules/AbstractModule.sol\":474:490  _complianceBound */\n      0x00\n        /* \"erc3643/erc3643/Compliance/modular/Modules/AbstractModule.sol\":474:502  _complianceBound[msg.sender] */\n      swap1\n      dup2\n      mstore\n      0x20\n      dup2\n      swap1\n      mstore\n      0x40\n      swap1\n      keccak256\n      sload\n      0xff\n      and\n        /* \"erc3643/erc3643/Compliance/modular/Modules/AbstractModule.sol\":466:537  require(_complianceBound[msg.sender], \"only bound compliance can call\") */\n      tag_140\n      jumpi\n      mload(0x40)\n      shl(0xe5, 0x461bcd)\n      dup2\n      mstore\n      0x04\n      add\n      tag_70\n      swap1\n      tag_71\n      jump\t// in\n    tag_140:\n        /* \"erc3643/erc3643/Compliance/modular/Modules/CountryRestrictModule.sol\":1283:1286  195 */\n      0xc3\n        /* \"erc3643/erc3643/Compliance/modular/Modules/CountryRestrictModule.sol\":1263:1286  _countries.length < 195 */\n      dup2\n      lt\n        /* \"erc3643/erc3643/Compliance/modular/Modules/CountryRestrictModule.sol\":1255:1333  require(_countries.length < 195, \"maximum 195 can be restricted in one batch\") */\n      tag_143\n      jumpi\n      mload(0x40)\n      shl(0xe5, 0x461bcd)\n      dup2\n      mstore\n        /* \"#utility.yul\":6717:6719   */\n      0x20\n        /* \"erc3643/erc3643/Compliance/modular/Modules/CountryRestrictModule.sol\":1255:1333  require(_countries.length < 195, \"maximum 195 can be restricted in one batch\") */\n      0x04\n      dup3\n      add\n        /* \"#utility.yul\":6699:6720   */\n      mstore\n        /* \"#utility.yul\":6756:6758   */\n      0x2a\n        /* \"#utility.yul\":6736:6754   */\n      0x24\n      dup3\n      add\n        /* \"#utility.yul\":6729:6759   */\n      mstore\n        /* \"#utility.yul\":6795:6829   */\n      0x6d6178696d756d203139352063616e206265207265737472696374656420696e\n        /* \"#utility.yul\":6775:6793   */\n      0x44\n      dup3\n      add\n        /* \"#utility.yul\":6768:6830   */\n      mstore\n      shl(0xb3, 0x040dedcca40c4c2e8c6d)\n        /* \"#utility.yul\":6846:6864   */\n      0x64\n      dup3\n      add\n        /* \"#utility.yul\":6839:6879   */\n      mstore\n        /* \"#utility.yul\":6896:6915   */\n      0x84\n      add\n        /* \"erc3643/erc3643/Compliance/modular/Modules/CountryRestrictModule.sol\":1255:1333  require(_countries.length < 195, \"maximum 195 can be restricted in one batch\") */\n      tag_70\n        /* \"#utility.yul\":6515:6921   */\n      jump\n        /* \"erc3643/erc3643/Compliance/modular/Modules/CountryRestrictModule.sol\":1255:1333  require(_countries.length < 195, \"maximum 195 can be restricted in one batch\") */\n    tag_143:\n        /* \"erc3643/erc3643/Compliance/modular/Modules/CountryRestrictModule.sol\":1349:1358  uint256 i */\n      0x00\n        /* \"erc3643/erc3643/Compliance/modular/Modules/CountryRestrictModule.sol\":1344:1656  for (uint256 i = 0; i < _countries.length; i++) {... */\n    tag_146:\n        /* \"erc3643/erc3643/Compliance/modular/Modules/CountryRestrictModule.sol\":1364:1385  i < _countries.length */\n      dup2\n      dup2\n      lt\n        /* \"erc3643/erc3643/Compliance/modular/Modules/CountryRestrictModule.sol\":1344:1656  for (uint256 i = 0; i < _countries.length; i++) {... */\n      iszero\n      tag_96\n      jumpi\n        /* \"erc3643/erc3643/Compliance/modular/Modules/CountryRestrictModule.sol\":1437:1447  msg.sender */\n      caller\n        /* \"erc3643/erc3643/Compliance/modular/Modules/CountryRestrictModule.sol\":1416:1448  _restrictedCountries[msg.sender] */\n      0x00\n      swap1\n      dup2\n      mstore\n        /* \"erc3643/erc3643/Compliance/modular/Modules/CountryRestrictModule.sol\":1416:1436  _restrictedCountries */\n      0x01\n        /* \"erc3643/erc3643/Compliance/modular/Modules/CountryRestrictModule.sol\":1416:1448  _restrictedCountries[msg.sender] */\n      0x20\n      mstore\n      0x40\n      dup2\n      keccak256\n      swap1\n        /* \"erc3643/erc3643/Compliance/modular/Modules/CountryRestrictModule.sol\":1450:1460  _countries */\n      dup5\n      dup5\n        /* \"erc3643/erc3643/Compliance/modular/Modules/CountryRestrictModule.sol\":1461:1462  i */\n      dup5\n        /* \"erc3643/erc3643/Compliance/modular/Modules/CountryRestrictModule.sol\":1450:1463  _countries[i] */\n      dup2\n      dup2\n      lt\n      tag_150\n      jumpi\n      tag_150\n      tag_100\n      jump\t// in\n    tag_150:\n      swap1\n      pop\n      0x20\n      mul\n      add\n      0x20\n      dup2\n      add\n      swap1\n      tag_151\n      swap2\n      swap1\n      tag_24\n      jump\t// in\n    tag_151:\n        /* \"erc3643/erc3643/Compliance/modular/Modules/CountryRestrictModule.sol\":1415:1464  (_restrictedCountries[msg.sender])[_countries[i]] */\n      0xffff\n      and\n      dup2\n      mstore\n      0x20\n      dup2\n      add\n      swap2\n      swap1\n      swap2\n      mstore\n      0x40\n      add\n      0x00\n      keccak256\n      sload\n      0xff\n      and\n        /* \"erc3643/erc3643/Compliance/modular/Modules/CountryRestrictModule.sol\":1415:1473  (_restrictedCountries[msg.sender])[_countries[i]] == false */\n      iszero\n        /* \"erc3643/erc3643/Compliance/modular/Modules/CountryRestrictModule.sol\":1407:1504  require((_restrictedCountries[msg.sender])[_countries[i]] == false, \"country already restricted\") */\n      tag_152\n      jumpi\n      mload(0x40)\n      shl(0xe5, 0x461bcd)\n      dup2\n      mstore\n        /* \"#utility.yul\":3921:3923   */\n      0x20\n        /* \"erc3643/erc3643/Compliance/modular/Modules/CountryRestrictModule.sol\":1407:1504  require((_restrictedCountries[msg.sender])[_countries[i]] == false, \"country already restricted\") */\n      0x04\n      dup3\n      add\n        /* \"#utility.yul\":3903:3924   */\n      mstore\n        /* \"#utility.yul\":3960:3962   */\n      0x1a\n        /* \"#utility.yul\":3940:3958   */\n      0x24\n      dup3\n      add\n        /* \"#utility.yul\":3933:3963   */\n      mstore\n        /* \"#utility.yul\":3999:4027   */\n      0x636f756e74727920616c72656164792072657374726963746564000000000000\n        /* \"#utility.yul\":3979:3997   */\n      0x44\n      dup3\n      add\n        /* \"#utility.yul\":3972:4028   */\n      mstore\n        /* \"#utility.yul\":4045:4063   */\n      0x64\n      add\n        /* \"erc3643/erc3643/Compliance/modular/Modules/CountryRestrictModule.sol\":1407:1504  require((_restrictedCountries[msg.sender])[_countries[i]] == false, \"country already restricted\") */\n      tag_70\n        /* \"#utility.yul\":3719:4069   */\n      jump\n        /* \"erc3643/erc3643/Compliance/modular/Modules/CountryRestrictModule.sol\":1407:1504  require((_restrictedCountries[msg.sender])[_countries[i]] == false, \"country already restricted\") */\n    tag_152:\n        /* \"erc3643/erc3643/Compliance/modular/Modules/CountryRestrictModule.sol\":1541:1551  msg.sender */\n      caller\n        /* \"erc3643/erc3643/Compliance/modular/Modules/CountryRestrictModule.sol\":1520:1552  _restrictedCountries[msg.sender] */\n      0x00\n      swap1\n      dup2\n      mstore\n        /* \"erc3643/erc3643/Compliance/modular/Modules/CountryRestrictModule.sol\":1571:1575  true */\n      0x01\n        /* \"erc3643/erc3643/Compliance/modular/Modules/CountryRestrictModule.sol\":1520:1552  _restrictedCountries[msg.sender] */\n      0x20\n      dup2\n      swap1\n      mstore\n      0x40\n      dup3\n      keccak256\n        /* \"erc3643/erc3643/Compliance/modular/Modules/CountryRestrictModule.sol\":1571:1575  true */\n      swap1\n      swap2\n        /* \"erc3643/erc3643/Compliance/modular/Modules/CountryRestrictModule.sol\":1554:1564  _countries */\n      dup6\n      dup6\n        /* \"erc3643/erc3643/Compliance/modular/Modules/CountryRestrictModule.sol\":1565:1566  i */\n      dup6\n        /* \"erc3643/erc3643/Compliance/modular/Modules/CountryRestrictModule.sol\":1554:1567  _countries[i] */\n      dup2\n      dup2\n      lt\n      tag_155\n      jumpi\n      tag_155\n      tag_100\n      jump\t// in\n    tag_155:\n      swap1\n      pop\n      0x20\n      mul\n      add\n      0x20\n      dup2\n      add\n      swap1\n      tag_156\n      swap2\n      swap1\n      tag_24\n      jump\t// in\n    tag_156:\n        /* \"erc3643/erc3643/Compliance/modular/Modules/CountryRestrictModule.sol\":1519:1568  (_restrictedCountries[msg.sender])[_countries[i]] */\n      0xffff\n      and\n      dup2\n      mstore\n      0x20\n      dup2\n      add\n      swap2\n      swap1\n      swap2\n      mstore\n      0x40\n      add\n      0x00\n      keccak256\n        /* \"erc3643/erc3643/Compliance/modular/Modules/CountryRestrictModule.sol\":1519:1575  (_restrictedCountries[msg.sender])[_countries[i]] = true */\n      dup1\n      sload\n      not(0xff)\n      and\n      swap2\n      iszero\n      iszero\n      swap2\n      swap1\n      swap2\n      or\n      swap1\n      sstore\n        /* \"erc3643/erc3643/Compliance/modular/Modules/CountryRestrictModule.sol\":1618:1628  msg.sender */\n      caller\n        /* \"erc3643/erc3643/Compliance/modular/Modules/CountryRestrictModule.sol\":1595:1644  AddedRestrictedCountry(msg.sender, _countries[i]) */\n      0x5e0addf626d7d7091ab7aebf34682c3203384648734760b24921e31ddcec0bb5\n        /* \"erc3643/erc3643/Compliance/modular/Modules/CountryRestrictModule.sol\":1630:1640  _countries */\n      dup5\n      dup5\n        /* \"erc3643/erc3643/Compliance/modular/Modules/CountryRestrictModule.sol\":1641:1642  i */\n      dup5\n        /* \"erc3643/erc3643/Compliance/modular/Modules/CountryRestrictModule.sol\":1630:1643  _countries[i] */\n      dup2\n      dup2\n      lt\n      tag_158\n      jumpi\n      tag_158\n      tag_100\n      jump\t// in\n    tag_158:\n      swap1\n      pop\n      0x20\n      mul\n      add\n      0x20\n      dup2\n      add\n      swap1\n      tag_159\n      swap2\n      swap1\n      tag_24\n      jump\t// in\n    tag_159:\n        /* \"erc3643/erc3643/Compliance/modular/Modules/CountryRestrictModule.sol\":1595:1644  AddedRestrictedCountry(msg.sender, _countries[i]) */\n      mload(0x40)\n        /* \"#utility.yul\":4248:4254   */\n      0xffff\n        /* \"#utility.yul\":4236:4255   */\n      swap1\n      swap2\n      and\n        /* \"#utility.yul\":4218:4256   */\n      dup2\n      mstore\n        /* \"#utility.yul\":4206:4208   */\n      0x20\n        /* \"#utility.yul\":4191:4209   */\n      add\n        /* \"erc3643/erc3643/Compliance/modular/Modules/CountryRestrictModule.sol\":1595:1644  AddedRestrictedCountry(msg.sender, _countries[i]) */\n      mload(0x40)\n      dup1\n      swap2\n      sub\n      swap1\n      log2\n        /* \"erc3643/erc3643/Compliance/modular/Modules/CountryRestrictModule.sol\":1387:1390  i++ */\n      dup1\n      tag_161\n      dup2\n      tag_113\n      jump\t// in\n    tag_161:\n      swap2\n      pop\n      pop\n        /* \"erc3643/erc3643/Compliance/modular/Modules/CountryRestrictModule.sol\":1344:1656  for (uint256 i = 0; i < _countries.length; i++) {... */\n      jump(tag_146)\n        /* \"erc3643/erc3643/Compliance/modular/Modules/CountryRestrictModule.sol\":3079:3304  function _getCountry(address _compliance, address _userAddress) internal view returns (uint16) {... */\n    tag_65:\n        /* \"erc3643/erc3643/Compliance/modular/Modules/CountryRestrictModule.sol\":3166:3172  uint16 */\n      0x00\n        /* \"erc3643/erc3643/Compliance/modular/Modules/CountryRestrictModule.sol\":3218:3229  _compliance */\n      dup3\n      sub(shl(0xa0, 0x01), 0x01)\n        /* \"erc3643/erc3643/Compliance/modular/Modules/CountryRestrictModule.sol\":3199:3244  IModularCompliance(_compliance).getTokenBound */\n      and\n      0x6a3edf28\n        /* \"erc3643/erc3643/Compliance/modular/Modules/CountryRestrictModule.sol\":3199:3246  IModularCompliance(_compliance).getTokenBound() */\n      mload(0x40)\n      dup2\n      0xffffffff\n      and\n      0xe0\n      shl\n      dup2\n      mstore\n      0x04\n      add\n      0x20\n      mload(0x40)\n      dup1\n      dup4\n      sub\n      dup2\n      dup7\n      gas\n      staticcall\n      iszero\n      dup1\n      iszero\n      tag_168\n      jumpi\n      returndatasize\n      0x00\n      dup1\n      returndatacopy\n      revert(0x00, returndatasize)\n    tag_168:\n      pop\n      pop\n      pop\n      pop\n      mload(0x40)\n      returndatasize\n      not(0x1f)\n      0x1f\n      dup3\n      add\n      and\n      dup3\n      add\n      dup1\n      0x40\n      mstore\n      pop\n      dup2\n      add\n      swap1\n      tag_169\n      swap2\n      swap1\n      tag_170\n      jump\t// in\n    tag_169:\n      sub(shl(0xa0, 0x01), 0x01)\n        /* \"erc3643/erc3643/Compliance/modular/Modules/CountryRestrictModule.sol\":3192:3264  IToken(IModularCompliance(_compliance).getTokenBound()).identityRegistry */\n      and\n      0x134e18f4\n        /* \"erc3643/erc3643/Compliance/modular/Modules/CountryRestrictModule.sol\":3192:3266  IToken(IModularCompliance(_compliance).getTokenBound()).identityRegistry() */\n      mload(0x40)\n      dup2\n      0xffffffff\n      and\n      0xe0\n      shl\n      dup2\n      mstore\n      0x04\n      add\n      0x20\n      mload(0x40)\n      dup1\n      dup4\n      sub\n      dup2\n      dup7\n      gas\n      staticcall\n      iszero\n      dup1\n      iszero\n      tag_172\n      jumpi\n      returndatasize\n      0x00\n      dup1\n      returndatacopy\n      revert(0x00, returndatasize)\n    tag_172:\n      pop\n      pop\n      pop\n      pop\n      mload(0x40)\n      returndatasize\n      not(0x1f)\n      0x1f\n      dup3\n      add\n      and\n      dup3\n      add\n      dup1\n      0x40\n      mstore\n      pop\n      dup2\n      add\n      swap1\n      tag_173\n      swap2\n      swap1\n      tag_170\n      jump\t// in\n    tag_173:\n        /* \"erc3643/erc3643/Compliance/modular/Modules/CountryRestrictModule.sol\":3192:3296  IToken(IModularCompliance(_compliance).getTokenBound()).identityRegistry().investorCountry(_userAddress) */\n      mload(0x40)\n      shl(0xe0, 0x7e42683b)\n      dup2\n      mstore\n      sub(shl(0xa0, 0x01), 0x01)\n        /* \"#utility.yul\":7628:7660   */\n      dup5\n      dup2\n      and\n        /* \"erc3643/erc3643/Compliance/modular/Modules/CountryRestrictModule.sol\":3192:3296  IToken(IModularCompliance(_compliance).getTokenBound()).identityRegistry().investorCountry(_userAddress) */\n      0x04\n      dup4\n      add\n        /* \"#utility.yul\":7610:7661   */\n      mstore\n        /* \"erc3643/erc3643/Compliance/modular/Modules/CountryRestrictModule.sol\":3192:3282  IToken(IModularCompliance(_compliance).getTokenBound()).identityRegistry().investorCountry */\n      swap2\n      swap1\n      swap2\n      and\n      swap1\n      0x7e42683b\n      swap1\n        /* \"#utility.yul\":7583:7601   */\n      0x24\n      add\n        /* \"erc3643/erc3643/Compliance/modular/Modules/CountryRestrictModule.sol\":3192:3296  IToken(IModularCompliance(_compliance).getTokenBound()).identityRegistry().investorCountry(_userAddress) */\n      0x20\n      mload(0x40)\n      dup1\n      dup4\n      sub\n      dup2\n      dup7\n      gas\n      staticcall\n      iszero\n      dup1\n      iszero\n      tag_178\n      jumpi\n      returndatasize\n      0x00\n      dup1\n      returndatacopy\n      revert(0x00, returndatasize)\n    tag_178:\n      pop\n      pop\n      pop\n      pop\n      mload(0x40)\n      returndatasize\n      not(0x1f)\n      0x1f\n      dup3\n      add\n      and\n      dup3\n      add\n      dup1\n      0x40\n      mstore\n      pop\n      dup2\n      add\n      swap1\n      tag_179\n      swap2\n      swap1\n      tag_180\n      jump\t// in\n    tag_179:\n        /* \"erc3643/erc3643/Compliance/modular/Modules/CountryRestrictModule.sol\":3185:3296  return IToken(IModularCompliance(_compliance).getTokenBound()).identityRegistry().investorCountry(_userAddress) */\n      swap4\n        /* \"erc3643/erc3643/Compliance/modular/Modules/CountryRestrictModule.sol\":3079:3304  function _getCountry(address _compliance, address _userAddress) internal view returns (uint16) {... */\n      swap3\n      pop\n      pop\n      pop\n      jump\t// out\n        /* \"#utility.yul\":14:145   */\n    tag_181:\n      sub(shl(0xa0, 0x01), 0x01)\n        /* \"#utility.yul\":89:120   */\n      dup2\n      and\n        /* \"#utility.yul\":79:121   */\n      dup2\n      eq\n        /* \"#utility.yul\":69:139   */\n      tag_185\n      jumpi\n        /* \"#utility.yul\":135:136   */\n      0x00\n        /* \"#utility.yul\":132:133   */\n      dup1\n        /* \"#utility.yul\":125:137   */\n      revert\n        /* \"#utility.yul\":69:139   */\n    tag_185:\n        /* \"#utility.yul\":14:145   */\n      pop\n      jump\t// out\n        /* \"#utility.yul\":150:748   */\n    tag_18:\n        /* \"#utility.yul\":236:242   */\n      0x00\n        /* \"#utility.yul\":244:250   */\n      dup1\n        /* \"#utility.yul\":252:258   */\n      0x00\n        /* \"#utility.yul\":260:266   */\n      dup1\n        /* \"#utility.yul\":313:316   */\n      0x80\n        /* \"#utility.yul\":301:310   */\n      dup6\n        /* \"#utility.yul\":292:299   */\n      dup8\n        /* \"#utility.yul\":288:311   */\n      sub\n        /* \"#utility.yul\":284:317   */\n      slt\n        /* \"#utility.yul\":281:334   */\n      iszero\n      tag_187\n      jumpi\n        /* \"#utility.yul\":330:331   */\n      0x00\n        /* \"#utility.yul\":327:328   */\n      dup1\n        /* \"#utility.yul\":320:332   */\n      revert\n        /* \"#utility.yul\":281:334   */\n    tag_187:\n        /* \"#utility.yul\":369:378   */\n      dup5\n        /* \"#utility.yul\":356:379   */\n      calldataload\n        /* \"#utility.yul\":388:419   */\n      tag_188\n        /* \"#utility.yul\":413:418   */\n      dup2\n        /* \"#utility.yul\":388:419   */\n      tag_181\n      jump\t// in\n    tag_188:\n        /* \"#utility.yul\":438:443   */\n      swap4\n      pop\n        /* \"#utility.yul\":495:497   */\n      0x20\n        /* \"#utility.yul\":480:498   */\n      dup6\n      add\n        /* \"#utility.yul\":467:499   */\n      calldataload\n        /* \"#utility.yul\":508:541   */\n      tag_189\n        /* \"#utility.yul\":467:499   */\n      dup2\n        /* \"#utility.yul\":508:541   */\n      tag_181\n      jump\t// in\n    tag_189:\n        /* \"#utility.yul\":560:567   */\n      swap3\n      pop\n        /* \"#utility.yul\":614:616   */\n      0x40\n        /* \"#utility.yul\":599:617   */\n      dup6\n      add\n        /* \"#utility.yul\":586:618   */\n      calldataload\n      swap2\n      pop\n        /* \"#utility.yul\":670:672   */\n      0x60\n        /* \"#utility.yul\":655:673   */\n      dup6\n      add\n        /* \"#utility.yul\":642:674   */\n      calldataload\n        /* \"#utility.yul\":683:716   */\n      tag_190\n        /* \"#utility.yul\":642:674   */\n      dup2\n        /* \"#utility.yul\":683:716   */\n      tag_181\n      jump\t// in\n    tag_190:\n        /* \"#utility.yul\":150:748   */\n      swap4\n      swap7\n      swap3\n      swap6\n      pop\n      swap1\n      swap4\n      pop\n      pop\n      jump\t// out\n        /* \"#utility.yul\":945:1062   */\n    tag_182:\n        /* \"#utility.yul\":1030:1036   */\n      0xffff\n        /* \"#utility.yul\":1023:1028   */\n      dup2\n        /* \"#utility.yul\":1019:1037   */\n      and\n        /* \"#utility.yul\":1012:1017   */\n      dup2\n        /* \"#utility.yul\":1009:1038   */\n      eq\n        /* \"#utility.yul\":999:1056   */\n      tag_185\n      jumpi\n        /* \"#utility.yul\":1052:1053   */\n      0x00\n        /* \"#utility.yul\":1049:1050   */\n      dup1\n        /* \"#utility.yul\":1042:1054   */\n      revert\n        /* \"#utility.yul\":1067:1312   */\n    tag_24:\n        /* \"#utility.yul\":1125:1131   */\n      0x00\n        /* \"#utility.yul\":1178:1180   */\n      0x20\n        /* \"#utility.yul\":1166:1175   */\n      dup3\n        /* \"#utility.yul\":1157:1164   */\n      dup5\n        /* \"#utility.yul\":1153:1176   */\n      sub\n        /* \"#utility.yul\":1149:1181   */\n      slt\n        /* \"#utility.yul\":1146:1198   */\n      iszero\n      tag_195\n      jumpi\n        /* \"#utility.yul\":1194:1195   */\n      0x00\n        /* \"#utility.yul\":1191:1192   */\n      dup1\n        /* \"#utility.yul\":1184:1196   */\n      revert\n        /* \"#utility.yul\":1146:1198   */\n    tag_195:\n        /* \"#utility.yul\":1233:1242   */\n      dup2\n        /* \"#utility.yul\":1220:1243   */\n      calldataload\n        /* \"#utility.yul\":1252:1282   */\n      tag_179\n        /* \"#utility.yul\":1276:1281   */\n      dup2\n        /* \"#utility.yul\":1252:1282   */\n      tag_182\n      jump\t// in\n        /* \"#utility.yul\":1317:1564   */\n    tag_28:\n        /* \"#utility.yul\":1376:1382   */\n      0x00\n        /* \"#utility.yul\":1429:1431   */\n      0x20\n        /* \"#utility.yul\":1417:1426   */\n      dup3\n        /* \"#utility.yul\":1408:1415   */\n      dup5\n        /* \"#utility.yul\":1404:1427   */\n      sub\n        /* \"#utility.yul\":1400:1432   */\n      slt\n        /* \"#utility.yul\":1397:1449   */\n      iszero\n      tag_198\n      jumpi\n        /* \"#utility.yul\":1445:1446   */\n      0x00\n        /* \"#utility.yul\":1442:1443   */\n      dup1\n        /* \"#utility.yul\":1435:1447   */\n      revert\n        /* \"#utility.yul\":1397:1449   */\n    tag_198:\n        /* \"#utility.yul\":1484:1493   */\n      dup2\n        /* \"#utility.yul\":1471:1494   */\n      calldataload\n        /* \"#utility.yul\":1503:1534   */\n      tag_179\n        /* \"#utility.yul\":1528:1533   */\n      dup2\n        /* \"#utility.yul\":1503:1534   */\n      tag_181\n      jump\t// in\n        /* \"#utility.yul\":1569:2183   */\n    tag_32:\n        /* \"#utility.yul\":1654:1660   */\n      0x00\n        /* \"#utility.yul\":1662:1668   */\n      dup1\n        /* \"#utility.yul\":1715:1717   */\n      0x20\n        /* \"#utility.yul\":1703:1712   */\n      dup4\n        /* \"#utility.yul\":1694:1701   */\n      dup6\n        /* \"#utility.yul\":1690:1713   */\n      sub\n        /* \"#utility.yul\":1686:1718   */\n      slt\n        /* \"#utility.yul\":1683:1735   */\n      iszero\n      tag_201\n      jumpi\n        /* \"#utility.yul\":1731:1732   */\n      0x00\n        /* \"#utility.yul\":1728:1729   */\n      dup1\n        /* \"#utility.yul\":1721:1733   */\n      revert\n        /* \"#utility.yul\":1683:1735   */\n    tag_201:\n        /* \"#utility.yul\":1771:1780   */\n      dup3\n        /* \"#utility.yul\":1758:1781   */\n      calldataload\n        /* \"#utility.yul\":1800:1818   */\n      0xffffffffffffffff\n        /* \"#utility.yul\":1841:1843   */\n      dup1\n        /* \"#utility.yul\":1833:1839   */\n      dup3\n        /* \"#utility.yul\":1830:1844   */\n      gt\n        /* \"#utility.yul\":1827:1861   */\n      iszero\n      tag_202\n      jumpi\n        /* \"#utility.yul\":1857:1858   */\n      0x00\n        /* \"#utility.yul\":1854:1855   */\n      dup1\n        /* \"#utility.yul\":1847:1859   */\n      revert\n        /* \"#utility.yul\":1827:1861   */\n    tag_202:\n        /* \"#utility.yul\":1895:1901   */\n      dup2\n        /* \"#utility.yul\":1884:1893   */\n      dup6\n        /* \"#utility.yul\":1880:1902   */\n      add\n        /* \"#utility.yul\":1870:1902   */\n      swap2\n      pop\n        /* \"#utility.yul\":1940:1947   */\n      dup6\n        /* \"#utility.yul\":1933:1937   */\n      0x1f\n        /* \"#utility.yul\":1929:1931   */\n      dup4\n        /* \"#utility.yul\":1925:1938   */\n      add\n        /* \"#utility.yul\":1921:1948   */\n      slt\n        /* \"#utility.yul\":1911:1966   */\n      tag_203\n      jumpi\n        /* \"#utility.yul\":1962:1963   */\n      0x00\n        /* \"#utility.yul\":1959:1960   */\n      dup1\n        /* \"#utility.yul\":1952:1964   */\n      revert\n        /* \"#utility.yul\":1911:1966   */\n    tag_203:\n        /* \"#utility.yul\":2002:2004   */\n      dup2\n        /* \"#utility.yul\":1989:2005   */\n      calldataload\n        /* \"#utility.yul\":2028:2030   */\n      dup2\n        /* \"#utility.yul\":2020:2026   */\n      dup2\n        /* \"#utility.yul\":2017:2031   */\n      gt\n        /* \"#utility.yul\":2014:2048   */\n      iszero\n      tag_204\n      jumpi\n        /* \"#utility.yul\":2044:2045   */\n      0x00\n        /* \"#utility.yul\":2041:2042   */\n      dup1\n        /* \"#utility.yul\":2034:2046   */\n      revert\n        /* \"#utility.yul\":2014:2048   */\n    tag_204:\n        /* \"#utility.yul\":2097:2104   */\n      dup7\n        /* \"#utility.yul\":2092:2094   */\n      0x20\n        /* \"#utility.yul\":2082:2088   */\n      dup3\n        /* \"#utility.yul\":2079:2080   */\n      0x05\n        /* \"#utility.yul\":2075:2089   */\n      shl\n        /* \"#utility.yul\":2071:2073   */\n      dup6\n        /* \"#utility.yul\":2067:2090   */\n      add\n        /* \"#utility.yul\":2063:2095   */\n      add\n        /* \"#utility.yul\":2060:2105   */\n      gt\n        /* \"#utility.yul\":2057:2122   */\n      iszero\n      tag_205\n      jumpi\n        /* \"#utility.yul\":2118:2119   */\n      0x00\n        /* \"#utility.yul\":2115:2116   */\n      dup1\n        /* \"#utility.yul\":2108:2120   */\n      revert\n        /* \"#utility.yul\":2057:2122   */\n    tag_205:\n        /* \"#utility.yul\":2149:2151   */\n      0x20\n        /* \"#utility.yul\":2141:2152   */\n      swap3\n      swap1\n      swap3\n      add\n      swap7\n        /* \"#utility.yul\":2171:2177   */\n      swap2\n      swap6\n      pop\n        /* \"#utility.yul\":1569:2183   */\n      swap1\n      swap4\n      pop\n      pop\n      pop\n      pop\n      jump\t// out\n        /* \"#utility.yul\":2188:2644   */\n    tag_36:\n        /* \"#utility.yul\":2265:2271   */\n      0x00\n        /* \"#utility.yul\":2273:2279   */\n      dup1\n        /* \"#utility.yul\":2281:2287   */\n      0x00\n        /* \"#utility.yul\":2334:2336   */\n      0x60\n        /* \"#utility.yul\":2322:2331   */\n      dup5\n        /* \"#utility.yul\":2313:2320   */\n      dup7\n        /* \"#utility.yul\":2309:2332   */\n      sub\n        /* \"#utility.yul\":2305:2337   */\n      slt\n        /* \"#utility.yul\":2302:2354   */\n      iszero\n      tag_207\n      jumpi\n        /* \"#utility.yul\":2350:2351   */\n      0x00\n        /* \"#utility.yul\":2347:2348   */\n      dup1\n        /* \"#utility.yul\":2340:2352   */\n      revert\n        /* \"#utility.yul\":2302:2354   */\n    tag_207:\n        /* \"#utility.yul\":2389:2398   */\n      dup4\n        /* \"#utility.yul\":2376:2399   */\n      calldataload\n        /* \"#utility.yul\":2408:2439   */\n      tag_208\n        /* \"#utility.yul\":2433:2438   */\n      dup2\n        /* \"#utility.yul\":2408:2439   */\n      tag_181\n      jump\t// in\n    tag_208:\n        /* \"#utility.yul\":2458:2463   */\n      swap3\n      pop\n        /* \"#utility.yul\":2515:2517   */\n      0x20\n        /* \"#utility.yul\":2500:2518   */\n      dup5\n      add\n        /* \"#utility.yul\":2487:2519   */\n      calldataload\n        /* \"#utility.yul\":2528:2561   */\n      tag_209\n        /* \"#utility.yul\":2487:2519   */\n      dup2\n        /* \"#utility.yul\":2528:2561   */\n      tag_181\n      jump\t// in\n    tag_209:\n        /* \"#utility.yul\":2188:2644   */\n      swap3\n      swap6\n        /* \"#utility.yul\":2580:2587   */\n      swap3\n      swap5\n      pop\n      pop\n      pop\n        /* \"#utility.yul\":2634:2636   */\n      0x40\n        /* \"#utility.yul\":2619:2637   */\n      swap2\n      swap1\n      swap2\n      add\n        /* \"#utility.yul\":2606:2638   */\n      calldataload\n      swap1\n        /* \"#utility.yul\":2188:2644   */\n      jump\t// out\n        /* \"#utility.yul\":2649:3035   */\n    tag_40:\n        /* \"#utility.yul\":2716:2722   */\n      0x00\n        /* \"#utility.yul\":2724:2730   */\n      dup1\n        /* \"#utility.yul\":2777:2779   */\n      0x40\n        /* \"#utility.yul\":2765:2774   */\n      dup4\n        /* \"#utility.yul\":2756:2763   */\n      dup6\n        /* \"#utility.yul\":2752:2775   */\n      sub\n        /* \"#utility.yul\":2748:2780   */\n      slt\n        /* \"#utility.yul\":2745:2797   */\n      iszero\n      tag_211\n      jumpi\n        /* \"#utility.yul\":2793:2794   */\n      0x00\n        /* \"#utility.yul\":2790:2791   */\n      dup1\n        /* \"#utility.yul\":2783:2795   */\n      revert\n        /* \"#utility.yul\":2745:2797   */\n    tag_211:\n        /* \"#utility.yul\":2832:2841   */\n      dup3\n        /* \"#utility.yul\":2819:2842   */\n      calldataload\n        /* \"#utility.yul\":2851:2882   */\n      tag_212\n        /* \"#utility.yul\":2876:2881   */\n      dup2\n        /* \"#utility.yul\":2851:2882   */\n      tag_181\n      jump\t// in\n    tag_212:\n        /* \"#utility.yul\":2901:2906   */\n      swap2\n      pop\n        /* \"#utility.yul\":2958:2960   */\n      0x20\n        /* \"#utility.yul\":2943:2961   */\n      dup4\n      add\n        /* \"#utility.yul\":2930:2962   */\n      calldataload\n        /* \"#utility.yul\":2971:3003   */\n      tag_213\n        /* \"#utility.yul\":2930:2962   */\n      dup2\n        /* \"#utility.yul\":2971:3003   */\n      tag_182\n      jump\t// in\n    tag_213:\n        /* \"#utility.yul\":3022:3029   */\n      dup1\n        /* \"#utility.yul\":3012:3029   */\n      swap2\n      pop\n      pop\n        /* \"#utility.yul\":2649:3035   */\n      swap3\n      pop\n      swap3\n      swap1\n      pop\n      jump\t// out\n        /* \"#utility.yul\":3040:3355   */\n    tag_45:\n        /* \"#utility.yul\":3108:3114   */\n      0x00\n        /* \"#utility.yul\":3116:3122   */\n      dup1\n        /* \"#utility.yul\":3169:3171   */\n      0x40\n        /* \"#utility.yul\":3157:3166   */\n      dup4\n        /* \"#utility.yul\":3148:3155   */\n      dup6\n        /* \"#utility.yul\":3144:3167   */\n      sub\n        /* \"#utility.yul\":3140:3172   */\n      slt\n        /* \"#utility.yul\":3137:3189   */\n      iszero\n      tag_215\n      jumpi\n        /* \"#utility.yul\":3185:3186   */\n      0x00\n        /* \"#utility.yul\":3182:3183   */\n      dup1\n        /* \"#utility.yul\":3175:3187   */\n      revert\n        /* \"#utility.yul\":3137:3189   */\n    tag_215:\n        /* \"#utility.yul\":3224:3233   */\n      dup3\n        /* \"#utility.yul\":3211:3234   */\n      calldataload\n        /* \"#utility.yul\":3243:3274   */\n      tag_216\n        /* \"#utility.yul\":3268:3273   */\n      dup2\n        /* \"#utility.yul\":3243:3274   */\n      tag_181\n      jump\t// in\n    tag_216:\n        /* \"#utility.yul\":3293:3298   */\n      swap5\n        /* \"#utility.yul\":3345:3347   */\n      0x20\n        /* \"#utility.yul\":3330:3348   */\n      swap4\n      swap1\n      swap4\n      add\n        /* \"#utility.yul\":3317:3349   */\n      calldataload\n      swap4\n      pop\n      pop\n      pop\n        /* \"#utility.yul\":3040:3355   */\n      jump\t// out\n        /* \"#utility.yul\":3360:3714   */\n    tag_71:\n        /* \"#utility.yul\":3562:3564   */\n      0x20\n        /* \"#utility.yul\":3544:3565   */\n      dup1\n      dup3\n      mstore\n        /* \"#utility.yul\":3601:3603   */\n      0x1e\n        /* \"#utility.yul\":3581:3599   */\n      swap1\n      dup3\n      add\n        /* \"#utility.yul\":3574:3604   */\n      mstore\n        /* \"#utility.yul\":3640:3672   */\n      0x6f6e6c7920626f756e6420636f6d706c69616e63652063616e2063616c6c0000\n        /* \"#utility.yul\":3635:3637   */\n      0x40\n        /* \"#utility.yul\":3620:3638   */\n      dup3\n      add\n        /* \"#utility.yul\":3613:3673   */\n      mstore\n        /* \"#utility.yul\":3705:3707   */\n      0x60\n        /* \"#utility.yul\":3690:3708   */\n      add\n      swap1\n        /* \"#utility.yul\":3360:3714   */\n      jump\t// out\n        /* \"#utility.yul\":4627:5024   */\n    tag_87:\n        /* \"#utility.yul\":4829:4831   */\n      0x20\n        /* \"#utility.yul\":4811:4832   */\n      dup1\n      dup3\n      mstore\n        /* \"#utility.yul\":4868:4870   */\n      0x21\n        /* \"#utility.yul\":4848:4866   */\n      swap1\n      dup3\n      add\n        /* \"#utility.yul\":4841:4871   */\n      mstore\n        /* \"#utility.yul\":4907:4941   */\n      0x6f6e6c7920636f6d706c69616e636520636f6e74726163742063616e2063616c\n        /* \"#utility.yul\":4902:4904   */\n      0x40\n        /* \"#utility.yul\":4887:4905   */\n      dup3\n      add\n        /* \"#utility.yul\":4880:4942   */\n      mstore\n      shl(0xfa, 0x1b)\n        /* \"#utility.yul\":4973:4975   */\n      0x60\n        /* \"#utility.yul\":4958:4976   */\n      dup3\n      add\n        /* \"#utility.yul\":4951:4982   */\n      mstore\n        /* \"#utility.yul\":5014:5017   */\n      0x80\n        /* \"#utility.yul\":4999:5018   */\n      add\n      swap1\n        /* \"#utility.yul\":4627:5024   */\n      jump\t// out\n        /* \"#utility.yul\":5442:5569   */\n    tag_100:\n        /* \"#utility.yul\":5503:5513   */\n      0x4e487b71\n        /* \"#utility.yul\":5498:5501   */\n      0xe0\n        /* \"#utility.yul\":5494:5514   */\n      shl\n        /* \"#utility.yul\":5491:5492   */\n      0x00\n        /* \"#utility.yul\":5484:5515   */\n      mstore\n        /* \"#utility.yul\":5534:5538   */\n      0x32\n        /* \"#utility.yul\":5531:5532   */\n      0x04\n        /* \"#utility.yul\":5524:5539   */\n      mstore\n        /* \"#utility.yul\":5558:5562   */\n      0x24\n        /* \"#utility.yul\":5555:5556   */\n      0x00\n        /* \"#utility.yul\":5548:5563   */\n      revert\n        /* \"#utility.yul\":5925:6157   */\n    tag_113:\n        /* \"#utility.yul\":5964:5967   */\n      0x00\n        /* \"#utility.yul\":5985:6002   */\n      0x01\n      dup3\n      add\n        /* \"#utility.yul\":5982:6122   */\n      tag_226\n      jumpi\n        /* \"#utility.yul\":6044:6054   */\n      0x4e487b71\n        /* \"#utility.yul\":6039:6042   */\n      0xe0\n        /* \"#utility.yul\":6035:6055   */\n      shl\n        /* \"#utility.yul\":6032:6033   */\n      0x00\n        /* \"#utility.yul\":6025:6056   */\n      mstore\n        /* \"#utility.yul\":6079:6083   */\n      0x11\n        /* \"#utility.yul\":6076:6077   */\n      0x04\n        /* \"#utility.yul\":6069:6084   */\n      mstore\n        /* \"#utility.yul\":6107:6111   */\n      0x24\n        /* \"#utility.yul\":6104:6105   */\n      0x00\n        /* \"#utility.yul\":6097:6112   */\n      revert\n        /* \"#utility.yul\":5982:6122   */\n    tag_226:\n      pop\n        /* \"#utility.yul\":6149:6150   */\n      0x01\n        /* \"#utility.yul\":6138:6151   */\n      add\n      swap1\n        /* \"#utility.yul\":5925:6157   */\n      jump\t// out\n        /* \"#utility.yul\":6926:7177   */\n    tag_170:\n        /* \"#utility.yul\":6996:7002   */\n      0x00\n        /* \"#utility.yul\":7049:7051   */\n      0x20\n        /* \"#utility.yul\":7037:7046   */\n      dup3\n        /* \"#utility.yul\":7028:7035   */\n      dup5\n        /* \"#utility.yul\":7024:7047   */\n      sub\n        /* \"#utility.yul\":7020:7052   */\n      slt\n        /* \"#utility.yul\":7017:7069   */\n      iszero\n      tag_230\n      jumpi\n        /* \"#utility.yul\":7065:7066   */\n      0x00\n        /* \"#utility.yul\":7062:7063   */\n      dup1\n        /* \"#utility.yul\":7055:7067   */\n      revert\n        /* \"#utility.yul\":7017:7069   */\n    tag_230:\n        /* \"#utility.yul\":7097:7106   */\n      dup2\n        /* \"#utility.yul\":7091:7107   */\n      mload\n        /* \"#utility.yul\":7116:7147   */\n      tag_179\n        /* \"#utility.yul\":7141:7146   */\n      dup2\n        /* \"#utility.yul\":7116:7147   */\n      tag_181\n      jump\t// in\n        /* \"#utility.yul\":7672:7921   */\n    tag_180:\n        /* \"#utility.yul\":7741:7747   */\n      0x00\n        /* \"#utility.yul\":7794:7796   */\n      0x20\n        /* \"#utility.yul\":7782:7791   */\n      dup3\n        /* \"#utility.yul\":7773:7780   */\n      dup5\n        /* \"#utility.yul\":7769:7792   */\n      sub\n        /* \"#utility.yul\":7765:7797   */\n      slt\n        /* \"#utility.yul\":7762:7814   */\n      iszero\n      tag_237\n      jumpi\n        /* \"#utility.yul\":7810:7811   */\n      0x00\n        /* \"#utility.yul\":7807:7808   */\n      dup1\n        /* \"#utility.yul\":7800:7812   */\n      revert\n        /* \"#utility.yul\":7762:7814   */\n    tag_237:\n        /* \"#utility.yul\":7842:7851   */\n      dup2\n        /* \"#utility.yul\":7836:7852   */\n      mload\n        /* \"#utility.yul\":7861:7891   */\n      tag_179\n        /* \"#utility.yul\":7885:7890   */\n      dup2\n        /* \"#utility.yul\":7861:7891   */\n      tag_182\n      jump\t// in\n\n    auxdata: 0xa26469706673582212209b714a944ab793ea92d180de93a94a310e3bca2511ba62d455d86a34a095239c64736f6c63430008110033\n}\n",
				"bytecode": {
					"linkReferences": {},
					"object": "608060405234801561001057600080fd5b50610efb806100206000396000f3fe608060405234801561001057600080fd5b50600436106100b45760003560e01c8063372491a211610071578063372491a21461016d5780634a932544146101805780634cf4d295146101935780636aae7b26146101bf578063bdf9a07e146101d2578063f104a8c91461016d57600080fd5b8063013b7ce4146100b95780630333ce24146100e05780630694a5fb146100f5578063249c981d146101085780632cb7e1ec1461011b57806330236f4a1461012e575b600080fd5b6100cc6100c7366004610c1e565b6101e5565b604051901515815260200160405180910390f35b6100f36100ee366004610c81565b61023d565b005b6100f3610103366004610c9e565b610345565b6100f3610116366004610cbb565b61043b565b6100f3610129366004610d30565b610643565b6100cc61013c366004610d71565b6001600160a01b038216600090815260016020908152604080832061ffff8516845290915290205460ff1692915050565b6100f361017b366004610daa565b610672565b6100f361018e366004610c9e565b6106a5565b6100cc6101a1366004610c9e565b6001600160a01b031660009081526020819052604090205460ff1690565b6100f36101cd366004610c81565b6107d8565b6100f36101e0366004610cbb565b6108c7565b6000806101f28386610ace565b6001600160a01b038416600090815260016020908152604080832061ffff8516845290915290205490915060ff161561022f576000915050610235565b60019150505b949350505050565b3360009081526020819052604090205460ff166102755760405162461bcd60e51b815260040161026c90610dd6565b60405180910390fd5b33600090815260016020908152604080832061ffff8516845290915290205460ff16156102e45760405162461bcd60e51b815260206004820152601a60248201527f636f756e74727920616c72656164792072657374726963746564000000000000604482015260640161026c565b33600081815260016020818152604080842061ffff871680865290835293819020805460ff191690931790925590519182527f5e0addf626d7d7091ab7aebf34682c3203384648734760b24921e31ddcec0bb591015b60405180910390a250565b3360009081526020819052604090205460ff166103745760405162461bcd60e51b815260040161026c90610dd6565b6001600160a01b0381166103ca5760405162461bcd60e51b815260206004820152601f60248201527f696e76616c696420617267756d656e74202d207a65726f206164647265737300604482015260640161026c565b336001600160a01b038216146103f25760405162461bcd60e51b815260040161026c90610e0d565b6001600160a01b038116600081815260208190526040808220805460ff19169055517f408b49d9be1c914c52a0227e18a077e5a892dddf32a26cfa94a5d9708fad77189190a250565b3360009081526020819052604090205460ff1661046a5760405162461bcd60e51b815260040161026c90610dd6565b60c381106104cf5760405162461bcd60e51b815260206004820152602c60248201527f6d6178696d756d203139352063616e20626520756e726573747269637465642060448201526b0d2dc40dedcca40c4c2e8c6d60a31b606482015260840161026c565b60005b8181101561063e57336000908152600160205260408120908484848181106104fc576104fc610e4e565b90506020020160208101906105119190610c81565b61ffff16815260208101919091526040016000205460ff1615156001146105735760405162461bcd60e51b815260206004820152601660248201527518dbdd5b9d1c9e481b9bdd081c995cdd1c9a58dd195960521b604482015260640161026c565b3360009081526001602052604081208185858581811061059557610595610e4e565b90506020020160208101906105aa9190610c81565b61ffff1681526020810191909152604001600020805460ff1916911515919091179055337ffb8bb575200aa114265a31c7d8ebeb4e395bd3cd9d0914c4bfa2a511d2011a7a84848481811061060157610601610e4e565b90506020020160208101906106169190610c81565b60405161ffff909116815260200160405180910390a28061063681610e64565b9150506104d2565b505050565b3360009081526020819052604090205460ff1661063e5760405162461bcd60e51b815260040161026c90610dd6565b3360009081526020819052604090205460ff166106a15760405162461bcd60e51b815260040161026c90610dd6565b5050565b6001600160a01b0381166106fb5760405162461bcd60e51b815260206004820152601f60248201527f696e76616c696420617267756d656e74202d207a65726f206164647265737300604482015260640161026c565b6001600160a01b03811660009081526020819052604090205460ff16156107645760405162461bcd60e51b815260206004820152601860248201527f636f6d706c69616e636520616c726561647920626f756e640000000000000000604482015260640161026c565b336001600160a01b0382161461078c5760405162461bcd60e51b815260040161026c90610e0d565b6001600160a01b038116600081815260208190526040808220805460ff19166001179055517f1f7b76c58fb697eb53c6c7c1becb96911516a136e24d7ced386b2355358b75a39190a250565b3360009081526020819052604090205460ff166108075760405162461bcd60e51b815260040161026c90610dd6565b33600090815260016020818152604080842061ffff861685529091529091205460ff161515146108725760405162461bcd60e51b815260206004820152601660248201527518dbdd5b9d1c9e481b9bdd081c995cdd1c9a58dd195960521b604482015260640161026c565b33600081815260016020908152604080832061ffff861680855290835292819020805460ff19169055519182527ffb8bb575200aa114265a31c7d8ebeb4e395bd3cd9d0914c4bfa2a511d2011a7a910161033a565b3360009081526020819052604090205460ff166108f65760405162461bcd60e51b815260040161026c90610dd6565b60c381106109595760405162461bcd60e51b815260206004820152602a60248201527f6d6178696d756d203139352063616e206265207265737472696374656420696e604482015269040dedcca40c4c2e8c6d60b31b606482015260840161026c565b60005b8181101561063e573360009081526001602052604081209084848481811061098657610986610e4e565b905060200201602081019061099b9190610c81565b61ffff16815260208101919091526040016000205460ff1615610a005760405162461bcd60e51b815260206004820152601a60248201527f636f756e74727920616c72656164792072657374726963746564000000000000604482015260640161026c565b33600090815260016020819052604082209091858585818110610a2557610a25610e4e565b9050602002016020810190610a3a9190610c81565b61ffff1681526020810191909152604001600020805460ff1916911515919091179055337f5e0addf626d7d7091ab7aebf34682c3203384648734760b24921e31ddcec0bb5848484818110610a9157610a91610e4e565b9050602002016020810190610aa69190610c81565b60405161ffff909116815260200160405180910390a280610ac681610e64565b91505061095c565b6000826001600160a01b0316636a3edf286040518163ffffffff1660e01b8152600401602060405180830381865afa158015610b0e573d6000803e3d6000fd5b505050506040513d601f19601f82011682018060405250810190610b329190610e8b565b6001600160a01b031663134e18f46040518163ffffffff1660e01b8152600401602060405180830381865afa158015610b6f573d6000803e3d6000fd5b505050506040513d601f19601f82011682018060405250810190610b939190610e8b565b604051637e42683b60e01b81526001600160a01b0384811660048301529190911690637e42683b90602401602060405180830381865afa158015610bdb573d6000803e3d6000fd5b505050506040513d601f19601f82011682018060405250810190610bff9190610ea8565b9392505050565b6001600160a01b0381168114610c1b57600080fd5b50565b60008060008060808587031215610c3457600080fd5b8435610c3f81610c06565b93506020850135610c4f81610c06565b9250604085013591506060850135610c6681610c06565b939692955090935050565b61ffff81168114610c1b57600080fd5b600060208284031215610c9357600080fd5b8135610bff81610c71565b600060208284031215610cb057600080fd5b8135610bff81610c06565b60008060208385031215610cce57600080fd5b823567ffffffffffffffff80821115610ce657600080fd5b818501915085601f830112610cfa57600080fd5b813581811115610d0957600080fd5b8660208260051b8501011115610d1e57600080fd5b60209290920196919550909350505050565b600080600060608486031215610d4557600080fd5b8335610d5081610c06565b92506020840135610d6081610c06565b929592945050506040919091013590565b60008060408385031215610d8457600080fd5b8235610d8f81610c06565b91506020830135610d9f81610c71565b809150509250929050565b60008060408385031215610dbd57600080fd5b8235610dc881610c06565b946020939093013593505050565b6020808252601e908201527f6f6e6c7920626f756e6420636f6d706c69616e63652063616e2063616c6c0000604082015260600190565b60208082526021908201527f6f6e6c7920636f6d706c69616e636520636f6e74726163742063616e2063616c6040820152601b60fa1b606082015260800190565b634e487b7160e01b600052603260045260246000fd5b600060018201610e8457634e487b7160e01b600052601160045260246000fd5b5060010190565b600060208284031215610e9d57600080fd5b8151610bff81610c06565b600060208284031215610eba57600080fd5b8151610bff81610c7156fea26469706673582212209b714a944ab793ea92d180de93a94a310e3bca2511ba62d455d86a34a095239c64736f6c63430008110033",
					"opcodes": "PUSH1 0x80 PUSH1 0x40 MSTORE CALLVALUE DUP1 ISZERO PUSH2 0x10 JUMPI PUSH1 0x0 DUP1 REVERT JUMPDEST POP PUSH2 0xEFB DUP1 PUSH2 0x20 PUSH1 0x0 CODECOPY PUSH1 0x0 RETURN INVALID PUSH1 0x80 PUSH1 0x40 MSTORE CALLVALUE DUP1 ISZERO PUSH2 0x10 JUMPI PUSH1 0x0 DUP1 REVERT JUMPDEST POP PUSH1 0x4 CALLDATASIZE LT PUSH2 0xB4 JUMPI PUSH1 0x0 CALLDATALOAD PUSH1 0xE0 SHR DUP1 PUSH4 0x372491A2 GT PUSH2 0x71 JUMPI DUP1 PUSH4 0x372491A2 EQ PUSH2 0x16D JUMPI DUP1 PUSH4 0x4A932544 EQ PUSH2 0x180 JUMPI DUP1 PUSH4 0x4CF4D295 EQ PUSH2 0x193 JUMPI DUP1 PUSH4 0x6AAE7B26 EQ PUSH2 0x1BF JUMPI DUP1 PUSH4 0xBDF9A07E EQ PUSH2 0x1D2 JUMPI DUP1 PUSH4 0xF104A8C9 EQ PUSH2 0x16D JUMPI PUSH1 0x0 DUP1 REVERT JUMPDEST DUP1 PUSH4 0x13B7CE4 EQ PUSH2 0xB9 JUMPI DUP1 PUSH4 0x333CE24 EQ PUSH2 0xE0 JUMPI DUP1 PUSH4 0x694A5FB EQ PUSH2 0xF5 JUMPI DUP1 PUSH4 0x249C981D EQ PUSH2 0x108 JUMPI DUP1 PUSH4 0x2CB7E1EC EQ PUSH2 0x11B JUMPI DUP1 PUSH4 0x30236F4A EQ PUSH2 0x12E JUMPI JUMPDEST PUSH1 0x0 DUP1 REVERT JUMPDEST PUSH2 0xCC PUSH2 0xC7 CALLDATASIZE PUSH1 0x4 PUSH2 0xC1E JUMP JUMPDEST PUSH2 0x1E5 JUMP JUMPDEST PUSH1 0x40 MLOAD SWAP1 ISZERO ISZERO DUP2 MSTORE PUSH1 0x20 ADD PUSH1 0x40 MLOAD DUP1 SWAP2 SUB SWAP1 RETURN JUMPDEST PUSH2 0xF3 PUSH2 0xEE CALLDATASIZE PUSH1 0x4 PUSH2 0xC81 JUMP JUMPDEST PUSH2 0x23D JUMP JUMPDEST STOP JUMPDEST PUSH2 0xF3 PUSH2 0x103 CALLDATASIZE PUSH1 0x4 PUSH2 0xC9E JUMP JUMPDEST PUSH2 0x345 JUMP JUMPDEST PUSH2 0xF3 PUSH2 0x116 CALLDATASIZE PUSH1 0x4 PUSH2 0xCBB JUMP JUMPDEST PUSH2 0x43B JUMP JUMPDEST PUSH2 0xF3 PUSH2 0x129 CALLDATASIZE PUSH1 0x4 PUSH2 0xD30 JUMP JUMPDEST PUSH2 0x643 JUMP JUMPDEST PUSH2 0xCC PUSH2 0x13C CALLDATASIZE PUSH1 0x4 PUSH2 0xD71 JUMP JUMPDEST PUSH1 0x1 PUSH1 0x1 PUSH1 0xA0 SHL SUB DUP3 AND PUSH1 0x0 SWAP1 DUP2 MSTORE PUSH1 0x1 PUSH1 0x20 SWAP1 DUP2 MSTORE PUSH1 0x40 DUP1 DUP4 KECCAK256 PUSH2 0xFFFF DUP6 AND DUP5 MSTORE SWAP1 SWAP2 MSTORE SWAP1 KECCAK256 SLOAD PUSH1 0xFF AND SWAP3 SWAP2 POP POP JUMP JUMPDEST PUSH2 0xF3 PUSH2 0x17B CALLDATASIZE PUSH1 0x4 PUSH2 0xDAA JUMP JUMPDEST PUSH2 0x672 JUMP JUMPDEST PUSH2 0xF3 PUSH2 0x18E CALLDATASIZE PUSH1 0x4 PUSH2 0xC9E JUMP JUMPDEST PUSH2 0x6A5 JUMP JUMPDEST PUSH2 0xCC PUSH2 0x1A1 CALLDATASIZE PUSH1 0x4 PUSH2 0xC9E JUMP JUMPDEST PUSH1 0x1 PUSH1 0x1 PUSH1 0xA0 SHL SUB AND PUSH1 0x0 SWAP1 DUP2 MSTORE PUSH1 0x20 DUP2 SWAP1 MSTORE PUSH1 0x40 SWAP1 KECCAK256 SLOAD PUSH1 0xFF AND SWAP1 JUMP JUMPDEST PUSH2 0xF3 PUSH2 0x1CD CALLDATASIZE PUSH1 0x4 PUSH2 0xC81 JUMP JUMPDEST PUSH2 0x7D8 JUMP JUMPDEST PUSH2 0xF3 PUSH2 0x1E0 CALLDATASIZE PUSH1 0x4 PUSH2 0xCBB JUMP JUMPDEST PUSH2 0x8C7 JUMP JUMPDEST PUSH1 0x0 DUP1 PUSH2 0x1F2 DUP4 DUP7 PUSH2 0xACE JUMP JUMPDEST PUSH1 0x1 PUSH1 0x1 PUSH1 0xA0 SHL SUB DUP5 AND PUSH1 0x0 SWAP1 DUP2 MSTORE PUSH1 0x1 PUSH1 0x20 SWAP1 DUP2 MSTORE PUSH1 0x40 DUP1 DUP4 KECCAK256 PUSH2 0xFFFF DUP6 AND DUP5 MSTORE SWAP1 SWAP2 MSTORE SWAP1 KECCAK256 SLOAD SWAP1 SWAP2 POP PUSH1 0xFF AND ISZERO PUSH2 0x22F JUMPI PUSH1 0x0 SWAP2 POP POP PUSH2 0x235 JUMP JUMPDEST PUSH1 0x1 SWAP2 POP POP JUMPDEST SWAP5 SWAP4 POP POP POP POP JUMP JUMPDEST CALLER PUSH1 0x0 SWAP1 DUP2 MSTORE PUSH1 0x20 DUP2 SWAP1 MSTORE PUSH1 0x40 SWAP1 KECCAK256 SLOAD PUSH1 0xFF AND PUSH2 0x275 JUMPI PUSH1 0x40 MLOAD PUSH3 0x461BCD PUSH1 0xE5 SHL DUP2 MSTORE PUSH1 0x4 ADD PUSH2 0x26C SWAP1 PUSH2 0xDD6 JUMP JUMPDEST PUSH1 0x40 MLOAD DUP1 SWAP2 SUB SWAP1 REVERT JUMPDEST CALLER PUSH1 0x0 SWAP1 DUP2 MSTORE PUSH1 0x1 PUSH1 0x20 SWAP1 DUP2 MSTORE PUSH1 0x40 DUP1 DUP4 KECCAK256 PUSH2 0xFFFF DUP6 AND DUP5 MSTORE SWAP1 SWAP2 MSTORE SWAP1 KECCAK256 SLOAD PUSH1 0xFF AND ISZERO PUSH2 0x2E4 JUMPI PUSH1 0x40 MLOAD PUSH3 0x461BCD PUSH1 0xE5 SHL DUP2 MSTORE PUSH1 0x20 PUSH1 0x4 DUP3 ADD MSTORE PUSH1 0x1A PUSH1 0x24 DUP3 ADD MSTORE PUSH32 0x636F756E74727920616C72656164792072657374726963746564000000000000 PUSH1 0x44 DUP3 ADD MSTORE PUSH1 0x64 ADD PUSH2 0x26C JUMP JUMPDEST CALLER PUSH1 0x0 DUP2 DUP2 MSTORE PUSH1 0x1 PUSH1 0x20 DUP2 DUP2 MSTORE PUSH1 0x40 DUP1 DUP5 KECCAK256 PUSH2 0xFFFF DUP8 AND DUP1 DUP7 MSTORE SWAP1 DUP4 MSTORE SWAP4 DUP2 SWAP1 KECCAK256 DUP1 SLOAD PUSH1 0xFF NOT AND SWAP1 SWAP4 OR SWAP1 SWAP3 SSTORE SWAP1 MLOAD SWAP2 DUP3 MSTORE PUSH32 0x5E0ADDF626D7D7091AB7AEBF34682C3203384648734760B24921E31DDCEC0BB5 SWAP2 ADD JUMPDEST PUSH1 0x40 MLOAD DUP1 SWAP2 SUB SWAP1 LOG2 POP JUMP JUMPDEST CALLER PUSH1 0x0 SWAP1 DUP2 MSTORE PUSH1 0x20 DUP2 SWAP1 MSTORE PUSH1 0x40 SWAP1 KECCAK256 SLOAD PUSH1 0xFF AND PUSH2 0x374 JUMPI PUSH1 0x40 MLOAD PUSH3 0x461BCD PUSH1 0xE5 SHL DUP2 MSTORE PUSH1 0x4 ADD PUSH2 0x26C SWAP1 PUSH2 0xDD6 JUMP JUMPDEST PUSH1 0x1 PUSH1 0x1 PUSH1 0xA0 SHL SUB DUP2 AND PUSH2 0x3CA JUMPI PUSH1 0x40 MLOAD PUSH3 0x461BCD PUSH1 0xE5 SHL DUP2 MSTORE PUSH1 0x20 PUSH1 0x4 DUP3 ADD MSTORE PUSH1 0x1F PUSH1 0x24 DUP3 ADD MSTORE PUSH32 0x696E76616C696420617267756D656E74202D207A65726F206164647265737300 PUSH1 0x44 DUP3 ADD MSTORE PUSH1 0x64 ADD PUSH2 0x26C JUMP JUMPDEST CALLER PUSH1 0x1 PUSH1 0x1 PUSH1 0xA0 SHL SUB DUP3 AND EQ PUSH2 0x3F2 JUMPI PUSH1 0x40 MLOAD PUSH3 0x461BCD PUSH1 0xE5 SHL DUP2 MSTORE PUSH1 0x4 ADD PUSH2 0x26C SWAP1 PUSH2 0xE0D JUMP JUMPDEST PUSH1 0x1 PUSH1 0x1 PUSH1 0xA0 SHL SUB DUP2 AND PUSH1 0x0 DUP2 DUP2 MSTORE PUSH1 0x20 DUP2 SWAP1 MSTORE PUSH1 0x40 DUP1 DUP3 KECCAK256 DUP1 SLOAD PUSH1 0xFF NOT AND SWAP1 SSTORE MLOAD PUSH32 0x408B49D9BE1C914C52A0227E18A077E5A892DDDF32A26CFA94A5D9708FAD7718 SWAP2 SWAP1 LOG2 POP JUMP JUMPDEST CALLER PUSH1 0x0 SWAP1 DUP2 MSTORE PUSH1 0x20 DUP2 SWAP1 MSTORE PUSH1 0x40 SWAP1 KECCAK256 SLOAD PUSH1 0xFF AND PUSH2 0x46A JUMPI PUSH1 0x40 MLOAD PUSH3 0x461BCD PUSH1 0xE5 SHL DUP2 MSTORE PUSH1 0x4 ADD PUSH2 0x26C SWAP1 PUSH2 0xDD6 JUMP JUMPDEST PUSH1 0xC3 DUP2 LT PUSH2 0x4CF JUMPI PUSH1 0x40 MLOAD PUSH3 0x461BCD PUSH1 0xE5 SHL DUP2 MSTORE PUSH1 0x20 PUSH1 0x4 DUP3 ADD MSTORE PUSH1 0x2C PUSH1 0x24 DUP3 ADD MSTORE PUSH32 0x6D6178696D756D203139352063616E20626520756E7265737472696374656420 PUSH1 0x44 DUP3 ADD MSTORE PUSH12 0xD2DC40DEDCCA40C4C2E8C6D PUSH1 0xA3 SHL PUSH1 0x64 DUP3 ADD MSTORE PUSH1 0x84 ADD PUSH2 0x26C JUMP JUMPDEST PUSH1 0x0 JUMPDEST DUP2 DUP2 LT ISZERO PUSH2 0x63E JUMPI CALLER PUSH1 0x0 SWAP1 DUP2 MSTORE PUSH1 0x1 PUSH1 0x20 MSTORE PUSH1 0x40 DUP2 KECCAK256 SWAP1 DUP5 DUP5 DUP5 DUP2 DUP2 LT PUSH2 0x4FC JUMPI PUSH2 0x4FC PUSH2 0xE4E JUMP JUMPDEST SWAP1 POP PUSH1 0x20 MUL ADD PUSH1 0x20 DUP2 ADD SWAP1 PUSH2 0x511 SWAP2 SWAP1 PUSH2 0xC81 JUMP JUMPDEST PUSH2 0xFFFF AND DUP2 MSTORE PUSH1 0x20 DUP2 ADD SWAP2 SWAP1 SWAP2 MSTORE PUSH1 0x40 ADD PUSH1 0x0 KECCAK256 SLOAD PUSH1 0xFF AND ISZERO ISZERO PUSH1 0x1 EQ PUSH2 0x573 JUMPI PUSH1 0x40 MLOAD PUSH3 0x461BCD PUSH1 0xE5 SHL DUP2 MSTORE PUSH1 0x20 PUSH1 0x4 DUP3 ADD MSTORE PUSH1 0x16 PUSH1 0x24 DUP3 ADD MSTORE PUSH22 0x18DBDD5B9D1C9E481B9BDD081C995CDD1C9A58DD1959 PUSH1 0x52 SHL PUSH1 0x44 DUP3 ADD MSTORE PUSH1 0x64 ADD PUSH2 0x26C JUMP JUMPDEST CALLER PUSH1 0x0 SWAP1 DUP2 MSTORE PUSH1 0x1 PUSH1 0x20 MSTORE PUSH1 0x40 DUP2 KECCAK256 DUP2 DUP6 DUP6 DUP6 DUP2 DUP2 LT PUSH2 0x595 JUMPI PUSH2 0x595 PUSH2 0xE4E JUMP JUMPDEST SWAP1 POP PUSH1 0x20 MUL ADD PUSH1 0x20 DUP2 ADD SWAP1 PUSH2 0x5AA SWAP2 SWAP1 PUSH2 0xC81 JUMP JUMPDEST PUSH2 0xFFFF AND DUP2 MSTORE PUSH1 0x20 DUP2 ADD SWAP2 SWAP1 SWAP2 MSTORE PUSH1 0x40 ADD PUSH1 0x0 KECCAK256 DUP1 SLOAD PUSH1 0xFF NOT AND SWAP2 ISZERO ISZERO SWAP2 SWAP1 SWAP2 OR SWAP1 SSTORE CALLER PUSH32 0xFB8BB575200AA114265A31C7D8EBEB4E395BD3CD9D0914C4BFA2A511D2011A7A DUP5 DUP5 DUP5 DUP2 DUP2 LT PUSH2 0x601 JUMPI PUSH2 0x601 PUSH2 0xE4E JUMP JUMPDEST SWAP1 POP PUSH1 0x20 MUL ADD PUSH1 0x20 DUP2 ADD SWAP1 PUSH2 0x616 SWAP2 SWAP1 PUSH2 0xC81 JUMP JUMPDEST PUSH1 0x40 MLOAD PUSH2 0xFFFF SWAP1 SWAP2 AND DUP2 MSTORE PUSH1 0x20 ADD PUSH1 0x40 MLOAD DUP1 SWAP2 SUB SWAP1 LOG2 DUP1 PUSH2 0x636 DUP2 PUSH2 0xE64 JUMP JUMPDEST SWAP2 POP POP PUSH2 0x4D2 JUMP JUMPDEST POP POP POP JUMP JUMPDEST CALLER PUSH1 0x0 SWAP1 DUP2 MSTORE PUSH1 0x20 DUP2 SWAP1 MSTORE PUSH1 0x40 SWAP1 KECCAK256 SLOAD PUSH1 0xFF AND PUSH2 0x63E JUMPI PUSH1 0x40 MLOAD PUSH3 0x461BCD PUSH1 0xE5 SHL DUP2 MSTORE PUSH1 0x4 ADD PUSH2 0x26C SWAP1 PUSH2 0xDD6 JUMP JUMPDEST CALLER PUSH1 0x0 SWAP1 DUP2 MSTORE PUSH1 0x20 DUP2 SWAP1 MSTORE PUSH1 0x40 SWAP1 KECCAK256 SLOAD PUSH1 0xFF AND PUSH2 0x6A1 JUMPI PUSH1 0x40 MLOAD PUSH3 0x461BCD PUSH1 0xE5 SHL DUP2 MSTORE PUSH1 0x4 ADD PUSH2 0x26C SWAP1 PUSH2 0xDD6 JUMP JUMPDEST POP POP JUMP JUMPDEST PUSH1 0x1 PUSH1 0x1 PUSH1 0xA0 SHL SUB DUP2 AND PUSH2 0x6FB JUMPI PUSH1 0x40 MLOAD PUSH3 0x461BCD PUSH1 0xE5 SHL DUP2 MSTORE PUSH1 0x20 PUSH1 0x4 DUP3 ADD MSTORE PUSH1 0x1F PUSH1 0x24 DUP3 ADD MSTORE PUSH32 0x696E76616C696420617267756D656E74202D207A65726F206164647265737300 PUSH1 0x44 DUP3 ADD MSTORE PUSH1 0x64 ADD PUSH2 0x26C JUMP JUMPDEST PUSH1 0x1 PUSH1 0x1 PUSH1 0xA0 SHL SUB DUP2 AND PUSH1 0x0 SWAP1 DUP2 MSTORE PUSH1 0x20 DUP2 SWAP1 MSTORE PUSH1 0x40 SWAP1 KECCAK256 SLOAD PUSH1 0xFF AND ISZERO PUSH2 0x764 JUMPI PUSH1 0x40 MLOAD PUSH3 0x461BCD PUSH1 0xE5 SHL DUP2 MSTORE PUSH1 0x20 PUSH1 0x4 DUP3 ADD MSTORE PUSH1 0x18 PUSH1 0x24 DUP3 ADD MSTORE PUSH32 0x636F6D706C69616E636520616C726561647920626F756E640000000000000000 PUSH1 0x44 DUP3 ADD MSTORE PUSH1 0x64 ADD PUSH2 0x26C JUMP JUMPDEST CALLER PUSH1 0x1 PUSH1 0x1 PUSH1 0xA0 SHL SUB DUP3 AND EQ PUSH2 0x78C JUMPI PUSH1 0x40 MLOAD PUSH3 0x461BCD PUSH1 0xE5 SHL DUP2 MSTORE PUSH1 0x4 ADD PUSH2 0x26C SWAP1 PUSH2 0xE0D JUMP JUMPDEST PUSH1 0x1 PUSH1 0x1 PUSH1 0xA0 SHL SUB DUP2 AND PUSH1 0x0 DUP2 DUP2 MSTORE PUSH1 0x20 DUP2 SWAP1 MSTORE PUSH1 0x40 DUP1 DUP3 KECCAK256 DUP1 SLOAD PUSH1 0xFF NOT AND PUSH1 0x1 OR SWAP1 SSTORE MLOAD PUSH32 0x1F7B76C58FB697EB53C6C7C1BECB96911516A136E24D7CED386B2355358B75A3 SWAP2 SWAP1 LOG2 POP JUMP JUMPDEST CALLER PUSH1 0x0 SWAP1 DUP2 MSTORE PUSH1 0x20 DUP2 SWAP1 MSTORE PUSH1 0x40 SWAP1 KECCAK256 SLOAD PUSH1 0xFF AND PUSH2 0x807 JUMPI PUSH1 0x40 MLOAD PUSH3 0x461BCD PUSH1 0xE5 SHL DUP2 MSTORE PUSH1 0x4 ADD PUSH2 0x26C SWAP1 PUSH2 0xDD6 JUMP JUMPDEST CALLER PUSH1 0x0 SWAP1 DUP2 MSTORE PUSH1 0x1 PUSH1 0x20 DUP2 DUP2 MSTORE PUSH1 0x40 DUP1 DUP5 KECCAK256 PUSH2 0xFFFF DUP7 AND DUP6 MSTORE SWAP1 SWAP2 MSTORE SWAP1 SWAP2 KECCAK256 SLOAD PUSH1 0xFF AND ISZERO ISZERO EQ PUSH2 0x872 JUMPI PUSH1 0x40 MLOAD PUSH3 0x461BCD PUSH1 0xE5 SHL DUP2 MSTORE PUSH1 0x20 PUSH1 0x4 DUP3 ADD MSTORE PUSH1 0x16 PUSH1 0x24 DUP3 ADD MSTORE PUSH22 0x18DBDD5B9D1C9E481B9BDD081C995CDD1C9A58DD1959 PUSH1 0x52 SHL PUSH1 0x44 DUP3 ADD MSTORE PUSH1 0x64 ADD PUSH2 0x26C JUMP JUMPDEST CALLER PUSH1 0x0 DUP2 DUP2 MSTORE PUSH1 0x1 PUSH1 0x20 SWAP1 DUP2 MSTORE PUSH1 0x40 DUP1 DUP4 KECCAK256 PUSH2 0xFFFF DUP7 AND DUP1 DUP6 MSTORE SWAP1 DUP4 MSTORE SWAP3 DUP2 SWAP1 KECCAK256 DUP1 SLOAD PUSH1 0xFF NOT AND SWAP1 SSTORE MLOAD SWAP2 DUP3 MSTORE PUSH32 0xFB8BB575200AA114265A31C7D8EBEB4E395BD3CD9D0914C4BFA2A511D2011A7A SWAP2 ADD PUSH2 0x33A JUMP JUMPDEST CALLER PUSH1 0x0 SWAP1 DUP2 MSTORE PUSH1 0x20 DUP2 SWAP1 MSTORE PUSH1 0x40 SWAP1 KECCAK256 SLOAD PUSH1 0xFF AND PUSH2 0x8F6 JUMPI PUSH1 0x40 MLOAD PUSH3 0x461BCD PUSH1 0xE5 SHL DUP2 MSTORE PUSH1 0x4 ADD PUSH2 0x26C SWAP1 PUSH2 0xDD6 JUMP JUMPDEST PUSH1 0xC3 DUP2 LT PUSH2 0x959 JUMPI PUSH1 0x40 MLOAD PUSH3 0x461BCD PUSH1 0xE5 SHL DUP2 MSTORE PUSH1 0x20 PUSH1 0x4 DUP3 ADD MSTORE PUSH1 0x2A PUSH1 0x24 DUP3 ADD MSTORE PUSH32 0x6D6178696D756D203139352063616E206265207265737472696374656420696E PUSH1 0x44 DUP3 ADD MSTORE PUSH10 0x40DEDCCA40C4C2E8C6D PUSH1 0xB3 SHL PUSH1 0x64 DUP3 ADD MSTORE PUSH1 0x84 ADD PUSH2 0x26C JUMP JUMPDEST PUSH1 0x0 JUMPDEST DUP2 DUP2 LT ISZERO PUSH2 0x63E JUMPI CALLER PUSH1 0x0 SWAP1 DUP2 MSTORE PUSH1 0x1 PUSH1 0x20 MSTORE PUSH1 0x40 DUP2 KECCAK256 SWAP1 DUP5 DUP5 DUP5 DUP2 DUP2 LT PUSH2 0x986 JUMPI PUSH2 0x986 PUSH2 0xE4E JUMP JUMPDEST SWAP1 POP PUSH1 0x20 MUL ADD PUSH1 0x20 DUP2 ADD SWAP1 PUSH2 0x99B SWAP2 SWAP1 PUSH2 0xC81 JUMP JUMPDEST PUSH2 0xFFFF AND DUP2 MSTORE PUSH1 0x20 DUP2 ADD SWAP2 SWAP1 SWAP2 MSTORE PUSH1 0x40 ADD PUSH1 0x0 KECCAK256 SLOAD PUSH1 0xFF AND ISZERO PUSH2 0xA00 JUMPI PUSH1 0x40 MLOAD PUSH3 0x461BCD PUSH1 0xE5 SHL DUP2 MSTORE PUSH1 0x20 PUSH1 0x4 DUP3 ADD MSTORE PUSH1 0x1A PUSH1 0x24 DUP3 ADD MSTORE PUSH32 0x636F756E74727920616C72656164792072657374726963746564000000000000 PUSH1 0x44 DUP3 ADD MSTORE PUSH1 0x64 ADD PUSH2 0x26C JUMP JUMPDEST CALLER PUSH1 0x0 SWAP1 DUP2 MSTORE PUSH1 0x1 PUSH1 0x20 DUP2 SWAP1 MSTORE PUSH1 0x40 DUP3 KECCAK256 SWAP1 SWAP2 DUP6 DUP6 DUP6 DUP2 DUP2 LT PUSH2 0xA25 JUMPI PUSH2 0xA25 PUSH2 0xE4E JUMP JUMPDEST SWAP1 POP PUSH1 0x20 MUL ADD PUSH1 0x20 DUP2 ADD SWAP1 PUSH2 0xA3A SWAP2 SWAP1 PUSH2 0xC81 JUMP JUMPDEST PUSH2 0xFFFF AND DUP2 MSTORE PUSH1 0x20 DUP2 ADD SWAP2 SWAP1 SWAP2 MSTORE PUSH1 0x40 ADD PUSH1 0x0 KECCAK256 DUP1 SLOAD PUSH1 0xFF NOT AND SWAP2 ISZERO ISZERO SWAP2 SWAP1 SWAP2 OR SWAP1 SSTORE CALLER PUSH32 0x5E0ADDF626D7D7091AB7AEBF34682C3203384648734760B24921E31DDCEC0BB5 DUP5 DUP5 DUP5 DUP2 DUP2 LT PUSH2 0xA91 JUMPI PUSH2 0xA91 PUSH2 0xE4E JUMP JUMPDEST SWAP1 POP PUSH1 0x20 MUL ADD PUSH1 0x20 DUP2 ADD SWAP1 PUSH2 0xAA6 SWAP2 SWAP1 PUSH2 0xC81 JUMP JUMPDEST PUSH1 0x40 MLOAD PUSH2 0xFFFF SWAP1 SWAP2 AND DUP2 MSTORE PUSH1 0x20 ADD PUSH1 0x40 MLOAD DUP1 SWAP2 SUB SWAP1 LOG2 DUP1 PUSH2 0xAC6 DUP2 PUSH2 0xE64 JUMP JUMPDEST SWAP2 POP POP PUSH2 0x95C JUMP JUMPDEST PUSH1 0x0 DUP3 PUSH1 0x1 PUSH1 0x1 PUSH1 0xA0 SHL SUB AND PUSH4 0x6A3EDF28 PUSH1 0x40 MLOAD DUP2 PUSH4 0xFFFFFFFF AND PUSH1 0xE0 SHL DUP2 MSTORE PUSH1 0x4 ADD PUSH1 0x20 PUSH1 0x40 MLOAD DUP1 DUP4 SUB DUP2 DUP7 GAS STATICCALL ISZERO DUP1 ISZERO PUSH2 0xB0E JUMPI RETURNDATASIZE PUSH1 0x0 DUP1 RETURNDATACOPY RETURNDATASIZE PUSH1 0x0 REVERT JUMPDEST POP POP POP POP PUSH1 0x40 MLOAD RETURNDATASIZE PUSH1 0x1F NOT PUSH1 0x1F DUP3 ADD AND DUP3 ADD DUP1 PUSH1 0x40 MSTORE POP DUP2 ADD SWAP1 PUSH2 0xB32 SWAP2 SWAP1 PUSH2 0xE8B JUMP JUMPDEST PUSH1 0x1 PUSH1 0x1 PUSH1 0xA0 SHL SUB AND PUSH4 0x134E18F4 PUSH1 0x40 MLOAD DUP2 PUSH4 0xFFFFFFFF AND PUSH1 0xE0 SHL DUP2 MSTORE PUSH1 0x4 ADD PUSH1 0x20 PUSH1 0x40 MLOAD DUP1 DUP4 SUB DUP2 DUP7 GAS STATICCALL ISZERO DUP1 ISZERO PUSH2 0xB6F JUMPI RETURNDATASIZE PUSH1 0x0 DUP1 RETURNDATACOPY RETURNDATASIZE PUSH1 0x0 REVERT JUMPDEST POP POP POP POP PUSH1 0x40 MLOAD RETURNDATASIZE PUSH1 0x1F NOT PUSH1 0x1F DUP3 ADD AND DUP3 ADD DUP1 PUSH1 0x40 MSTORE POP DUP2 ADD SWAP1 PUSH2 0xB93 SWAP2 SWAP1 PUSH2 0xE8B JUMP JUMPDEST PUSH1 0x40 MLOAD PUSH4 0x7E42683B PUSH1 0xE0 SHL DUP2 MSTORE PUSH1 0x1 PUSH1 0x1 PUSH1 0xA0 SHL SUB DUP5 DUP2 AND PUSH1 0x4 DUP4 ADD MSTORE SWAP2 SWAP1 SWAP2 AND SWAP1 PUSH4 0x7E42683B SWAP1 PUSH1 0x24 ADD PUSH1 0x20 PUSH1 0x40 MLOAD DUP1 DUP4 SUB DUP2 DUP7 GAS STATICCALL ISZERO DUP1 ISZERO PUSH2 0xBDB JUMPI RETURNDATASIZE PUSH1 0x0 DUP1 RETURNDATACOPY RETURNDATASIZE PUSH1 0x0 REVERT JUMPDEST POP POP POP POP PUSH1 0x40 MLOAD RETURNDATASIZE PUSH1 0x1F NOT PUSH1 0x1F DUP3 ADD AND DUP3 ADD DUP1 PUSH1 0x40 MSTORE POP DUP2 ADD SWAP1 PUSH2 0xBFF SWAP2 SWAP1 PUSH2 0xEA8 JUMP JUMPDEST SWAP4 SWAP3 POP POP POP JUMP JUMPDEST PUSH1 0x1 PUSH1 0x1 PUSH1 0xA0 SHL SUB DUP2 AND DUP2 EQ PUSH2 0xC1B JUMPI PUSH1 0x0 DUP1 REVERT JUMPDEST POP JUMP JUMPDEST PUSH1 0x0 DUP1 PUSH1 0x0 DUP1 PUSH1 0x80 DUP6 DUP8 SUB SLT ISZERO PUSH2 0xC34 JUMPI PUSH1 0x0 DUP1 REVERT JUMPDEST DUP5 CALLDATALOAD PUSH2 0xC3F DUP2 PUSH2 0xC06 JUMP JUMPDEST SWAP4 POP PUSH1 0x20 DUP6 ADD CALLDATALOAD PUSH2 0xC4F DUP2 PUSH2 0xC06 JUMP JUMPDEST SWAP3 POP PUSH1 0x40 DUP6 ADD CALLDATALOAD SWAP2 POP PUSH1 0x60 DUP6 ADD CALLDATALOAD PUSH2 0xC66 DUP2 PUSH2 0xC06 JUMP JUMPDEST SWAP4 SWAP7 SWAP3 SWAP6 POP SWAP1 SWAP4 POP POP JUMP JUMPDEST PUSH2 0xFFFF DUP2 AND DUP2 EQ PUSH2 0xC1B JUMPI PUSH1 0x0 DUP1 REVERT JUMPDEST PUSH1 0x0 PUSH1 0x20 DUP3 DUP5 SUB SLT ISZERO PUSH2 0xC93 JUMPI PUSH1 0x0 DUP1 REVERT JUMPDEST DUP2 CALLDATALOAD PUSH2 0xBFF DUP2 PUSH2 0xC71 JUMP JUMPDEST PUSH1 0x0 PUSH1 0x20 DUP3 DUP5 SUB SLT ISZERO PUSH2 0xCB0 JUMPI PUSH1 0x0 DUP1 REVERT JUMPDEST DUP2 CALLDATALOAD PUSH2 0xBFF DUP2 PUSH2 0xC06 JUMP JUMPDEST PUSH1 0x0 DUP1 PUSH1 0x20 DUP4 DUP6 SUB SLT ISZERO PUSH2 0xCCE JUMPI PUSH1 0x0 DUP1 REVERT JUMPDEST DUP3 CALLDATALOAD PUSH8 0xFFFFFFFFFFFFFFFF DUP1 DUP3 GT ISZERO PUSH2 0xCE6 JUMPI PUSH1 0x0 DUP1 REVERT JUMPDEST DUP2 DUP6 ADD SWAP2 POP DUP6 PUSH1 0x1F DUP4 ADD SLT PUSH2 0xCFA JUMPI PUSH1 0x0 DUP1 REVERT JUMPDEST DUP2 CALLDATALOAD DUP2 DUP2 GT ISZERO PUSH2 0xD09 JUMPI PUSH1 0x0 DUP1 REVERT JUMPDEST DUP7 PUSH1 0x20 DUP3 PUSH1 0x5 SHL DUP6 ADD ADD GT ISZERO PUSH2 0xD1E JUMPI PUSH1 0x0 DUP1 REVERT JUMPDEST PUSH1 0x20 SWAP3 SWAP1 SWAP3 ADD SWAP7 SWAP2 SWAP6 POP SWAP1 SWAP4 POP POP POP POP JUMP JUMPDEST PUSH1 0x0 DUP1 PUSH1 0x0 PUSH1 0x60 DUP5 DUP7 SUB SLT ISZERO PUSH2 0xD45 JUMPI PUSH1 0x0 DUP1 REVERT JUMPDEST DUP4 CALLDATALOAD PUSH2 0xD50 DUP2 PUSH2 0xC06 JUMP JUMPDEST SWAP3 POP PUSH1 0x20 DUP5 ADD CALLDATALOAD PUSH2 0xD60 DUP2 PUSH2 0xC06 JUMP JUMPDEST SWAP3 SWAP6 SWAP3 SWAP5 POP POP POP PUSH1 0x40 SWAP2 SWAP1 SWAP2 ADD CALLDATALOAD SWAP1 JUMP JUMPDEST PUSH1 0x0 DUP1 PUSH1 0x40 DUP4 DUP6 SUB SLT ISZERO PUSH2 0xD84 JUMPI PUSH1 0x0 DUP1 REVERT JUMPDEST DUP3 CALLDATALOAD PUSH2 0xD8F DUP2 PUSH2 0xC06 JUMP JUMPDEST SWAP2 POP PUSH1 0x20 DUP4 ADD CALLDATALOAD PUSH2 0xD9F DUP2 PUSH2 0xC71 JUMP JUMPDEST DUP1 SWAP2 POP POP SWAP3 POP SWAP3 SWAP1 POP JUMP JUMPDEST PUSH1 0x0 DUP1 PUSH1 0x40 DUP4 DUP6 SUB SLT ISZERO PUSH2 0xDBD JUMPI PUSH1 0x0 DUP1 REVERT JUMPDEST DUP3 CALLDATALOAD PUSH2 0xDC8 DUP2 PUSH2 0xC06 JUMP JUMPDEST SWAP5 PUSH1 0x20 SWAP4 SWAP1 SWAP4 ADD CALLDATALOAD SWAP4 POP POP POP JUMP JUMPDEST PUSH1 0x20 DUP1 DUP3 MSTORE PUSH1 0x1E SWAP1 DUP3 ADD MSTORE PUSH32 0x6F6E6C7920626F756E6420636F6D706C69616E63652063616E2063616C6C0000 PUSH1 0x40 DUP3 ADD MSTORE PUSH1 0x60 ADD SWAP1 JUMP JUMPDEST PUSH1 0x20 DUP1 DUP3 MSTORE PUSH1 0x21 SWAP1 DUP3 ADD MSTORE PUSH32 0x6F6E6C7920636F6D706C69616E636520636F6E74726163742063616E2063616C PUSH1 0x40 DUP3 ADD MSTORE PUSH1 0x1B PUSH1 0xFA SHL PUSH1 0x60 DUP3 ADD MSTORE PUSH1 0x80 ADD SWAP1 JUMP JUMPDEST PUSH4 0x4E487B71 PUSH1 0xE0 SHL PUSH1 0x0 MSTORE PUSH1 0x32 PUSH1 0x4 MSTORE PUSH1 0x24 PUSH1 0x0 REVERT JUMPDEST PUSH1 0x0 PUSH1 0x1 DUP3 ADD PUSH2 0xE84 JUMPI PUSH4 0x4E487B71 PUSH1 0xE0 SHL PUSH1 0x0 MSTORE PUSH1 0x11 PUSH1 0x4 MSTORE PUSH1 0x24 PUSH1 0x0 REVERT JUMPDEST POP PUSH1 0x1 ADD SWAP1 JUMP JUMPDEST PUSH1 0x0 PUSH1 0x20 DUP3 DUP5 SUB SLT ISZERO PUSH2 0xE9D JUMPI PUSH1 0x0 DUP1 REVERT JUMPDEST DUP2 MLOAD PUSH2 0xBFF DUP2 PUSH2 0xC06 JUMP JUMPDEST PUSH1 0x0 PUSH1 0x20 DUP3 DUP5 SUB SLT ISZERO PUSH2 0xEBA JUMPI PUSH1 0x0 DUP1 REVERT JUMPDEST DUP2 MLOAD PUSH2 0xBFF DUP2 PUSH2 0xC71 JUMP INVALID LOG2 PUSH5 0x6970667358 0x22 SLT KECCAK256 SWAP12 PUSH18 0x4A944AB793EA92D180DE93A94A310E3BCA25 GT 0xBA PUSH3 0xD455D8 PUSH11 0x34A095239C64736F6C6343 STOP ADDMOD GT STOP CALLER "
				},
				"gasEstimates": {
					"creation": {
						"codeDepositCost": "767000",
						"executionCost": "799",
						"totalCost": "767799"
					},
					"external": {
						"addCountryRestriction(uint16)": "30590",
						"batchRestrictCountries(uint16[])": "infinite",
						"batchUnrestrictCountries(uint16[])": "infinite",
						"bindCompliance(address)": "28065",
						"isComplianceBound(address)": "2578",
						"isCountryRestricted(address,uint16)": "infinite",
						"moduleBurnAction(address,uint256)": "2639",
						"moduleCheck(address,address,uint256,address)": "infinite",
						"moduleMintAction(address,uint256)": "2749",
						"moduleTransferAction(address,address,uint256)": "infinite",
						"removeCountryRestriction(uint16)": "30638",
						"unbindCompliance(address)": "28060"
					},
					"internal": {
						"_getCountry(address,address)": "infinite"
					}
				},
				"methodIdentifiers": {
					"addCountryRestriction(uint16)": "0333ce24",
					"batchRestrictCountries(uint16[])": "bdf9a07e",
					"batchUnrestrictCountries(uint16[])": "249c981d",
					"bindCompliance(address)": "4a932544",
					"isComplianceBound(address)": "4cf4d295",
					"isCountryRestricted(address,uint16)": "30236f4a",
					"moduleBurnAction(address,uint256)": "372491a2",
					"moduleCheck(address,address,uint256,address)": "013b7ce4",
					"moduleMintAction(address,uint256)": "f104a8c9",
					"moduleTransferAction(address,address,uint256)": "2cb7e1ec",
					"removeCountryRestriction(uint16)": "6aae7b26",
					"unbindCompliance(address)": "0694a5fb"
				}
			},
			"storageLayout": {
				"storage": [
					{
						"astId": 515,
						"contract": "erc3643/erc3643/Compliance/modular/Modules/CountryRestrictModule.sol:CountryRestrictModule",
						"label": "_complianceBound",
						"offset": 0,
						"slot": "0",
						"type": "t_mapping(t_address,t_bool)"
					},
					{
						"astId": 646,
						"contract": "erc3643/erc3643/Compliance/modular/Modules/CountryRestrictModule.sol:CountryRestrictModule",
						"label": "_restrictedCountries",
						"offset": 0,
						"slot": "1",
						"type": "t_mapping(t_address,t_mapping(t_uint16,t_bool))"
					}
				],
				"types": {
					"t_address": {
						"encoding": "inplace",
						"label": "address",
						"numberOfBytes": "20"
					},
					"t_bool": {
						"encoding": "inplace",
						"label": "bool",
						"numberOfBytes": "1"
					},
					"t_mapping(t_address,t_bool)": {
						"encoding": "mapping",
						"key": "t_address",
						"label": "mapping(address => bool)",
						"numberOfBytes": "32",
						"value": "t_bool"
					},
					"t_mapping(t_address,t_mapping(t_uint16,t_bool))": {
						"encoding": "mapping",
						"key": "t_address",
						"label": "mapping(address => mapping(uint16 => bool))",
						"numberOfBytes": "32",
						"value": "t_mapping(t_uint16,t_bool)"
					},
					"t_mapping(t_uint16,t_bool)": {
						"encoding": "mapping",
						"key": "t_uint16",
						"label": "mapping(uint16 => bool)",
						"numberOfBytes": "32",
						"value": "t_bool"
					},
					"t_uint16": {
						"encoding": "inplace",
						"label": "uint16",
						"numberOfBytes": "2"
					}
				}
			},
			"userdoc": {
				"kind": "user",
				"methods": {},
				"version": 1
			}
		}
	}
}