{
	"erc3643/erc3643/Compliance/modular/Modules/CountryAllowModule.sol": {
		"CountryAllowModule": {
			"abi": [
				{
					"inputs": [
						{
							"internalType": "address",
							"name": "_compliance",
							"type": "address"
						},
						{
							"internalType": "uint16",
							"name": "_country",
							"type": "uint16"
						}
					],
					"name": "CountryAlreadyAllowed",
					"type": "error"
				},
				{
					"inputs": [
						{
							"internalType": "address",
							"name": "_compliance",
							"type": "address"
						},
						{
							"internalType": "uint16",
							"name": "_country",
							"type": "uint16"
						}
					],
					"name": "CountryNotAllowed",
					"type": "error"
				},
				{
					"anonymous": false,
					"inputs": [
						{
							"indexed": true,
							"internalType": "address",
							"name": "_compliance",
							"type": "address"
						}
					],
					"name": "ComplianceBound",
					"type": "event"
				},
				{
					"anonymous": false,
					"inputs": [
						{
							"indexed": true,
							"internalType": "address",
							"name": "_compliance",
							"type": "address"
						}
					],
					"name": "ComplianceUnbound",
					"type": "event"
				},
				{
					"anonymous": false,
					"inputs": [
						{
							"indexed": false,
							"internalType": "address",
							"name": "_compliance",
							"type": "address"
						},
						{
							"indexed": false,
							"internalType": "uint16",
							"name": "_country",
							"type": "uint16"
						}
					],
					"name": "CountryAllowed",
					"type": "event"
				},
				{
					"anonymous": false,
					"inputs": [
						{
							"indexed": false,
							"internalType": "address",
							"name": "_compliance",
							"type": "address"
						},
						{
							"indexed": false,
							"internalType": "uint16",
							"name": "_country",
							"type": "uint16"
						}
					],
					"name": "CountryUnallowed",
					"type": "event"
				},
				{
					"inputs": [
						{
							"internalType": "uint16",
							"name": "_country",
							"type": "uint16"
						}
					],
					"name": "addAllowedCountry",
					"outputs": [],
					"stateMutability": "nonpayable",
					"type": "function"
				},
				{
					"inputs": [
						{
							"internalType": "uint16[]",
							"name": "_countries",
							"type": "uint16[]"
						}
					],
					"name": "batchAllowCountries",
					"outputs": [],
					"stateMutability": "nonpayable",
					"type": "function"
				},
				{
					"inputs": [
						{
							"internalType": "uint16[]",
							"name": "_countries",
							"type": "uint16[]"
						}
					],
					"name": "batchDisallowCountries",
					"outputs": [],
					"stateMutability": "nonpayable",
					"type": "function"
				},
				{
					"inputs": [
						{
							"internalType": "address",
							"name": "_compliance",
							"type": "address"
						}
					],
					"name": "bindCompliance",
					"outputs": [],
					"stateMutability": "nonpayable",
					"type": "function"
				},
				{
					"inputs": [
						{
							"internalType": "address",
							"name": "_compliance",
							"type": "address"
						}
					],
					"name": "isComplianceBound",
					"outputs": [
						{
							"internalType": "bool",
							"name": "",
							"type": "bool"
						}
					],
					"stateMutability": "view",
					"type": "function"
				},
				{
					"inputs": [
						{
							"internalType": "address",
							"name": "_compliance",
							"type": "address"
						},
						{
							"internalType": "uint16",
							"name": "_country",
							"type": "uint16"
						}
					],
					"name": "isCountryAllowed",
					"outputs": [
						{
							"internalType": "bool",
							"name": "",
							"type": "bool"
						}
					],
					"stateMutability": "view",
					"type": "function"
				},
				{
					"inputs": [
						{
							"internalType": "address",
							"name": "_from",
							"type": "address"
						},
						{
							"internalType": "uint256",
							"name": "_value",
							"type": "uint256"
						}
					],
					"name": "moduleBurnAction",
					"outputs": [],
					"stateMutability": "nonpayable",
					"type": "function"
				},
				{
					"inputs": [
						{
							"internalType": "address",
							"name": "",
							"type": "address"
						},
						{
							"internalType": "address",
							"name": "_to",
							"type": "address"
						},
						{
							"internalType": "uint256",
							"name": "",
							"type": "uint256"
						},
						{
							"internalType": "address",
							"name": "_compliance",
							"type": "address"
						}
					],
					"name": "moduleCheck",
					"outputs": [
						{
							"internalType": "bool",
							"name": "",
							"type": "bool"
						}
					],
					"stateMutability": "view",
					"type": "function"
				},
				{
					"inputs": [
						{
							"internalType": "address",
							"name": "_to",
							"type": "address"
						},
						{
							"internalType": "uint256",
							"name": "_value",
							"type": "uint256"
						}
					],
					"name": "moduleMintAction",
					"outputs": [],
					"stateMutability": "nonpayable",
					"type": "function"
				},
				{
					"inputs": [
						{
							"internalType": "address",
							"name": "_from",
							"type": "address"
						},
						{
							"internalType": "address",
							"name": "_to",
							"type": "address"
						},
						{
							"internalType": "uint256",
							"name": "_value",
							"type": "uint256"
						}
					],
					"name": "moduleTransferAction",
					"outputs": [],
					"stateMutability": "nonpayable",
					"type": "function"
				},
				{
					"inputs": [
						{
							"internalType": "uint16",
							"name": "_country",
							"type": "uint16"
						}
					],
					"name": "removeAllowedCountry",
					"outputs": [],
					"stateMutability": "nonpayable",
					"type": "function"
				},
				{
					"inputs": [
						{
							"internalType": "address",
							"name": "_compliance",
							"type": "address"
						}
					],
					"name": "unbindCompliance",
					"outputs": [],
					"stateMutability": "nonpayable",
					"type": "function"
				}
			],
			"devdoc": {
				"kind": "dev",
				"methods": {},
				"version": 1
			},
			"evm": {
				"assembly": "    /* \"erc3643/erc3643/Compliance/modular/Modules/CountryAllowModule.sol\":125:3146  contract CountryAllowModule is AbstractModule {... */\n  mstore(0x40, 0x80)\n  callvalue\n  dup1\n  iszero\n  tag_1\n  jumpi\n  0x00\n  dup1\n  revert\ntag_1:\n  pop\n  dataSize(sub_0)\n  dup1\n  dataOffset(sub_0)\n  0x00\n  codecopy\n  0x00\n  return\nstop\n\nsub_0: assembly {\n        /* \"erc3643/erc3643/Compliance/modular/Modules/CountryAllowModule.sol\":125:3146  contract CountryAllowModule is AbstractModule {... */\n      mstore(0x40, 0x80)\n      callvalue\n      dup1\n      iszero\n      tag_1\n      jumpi\n      0x00\n      dup1\n      revert\n    tag_1:\n      pop\n      jumpi(tag_2, lt(calldatasize, 0x04))\n      shr(0xe0, calldataload(0x00))\n      dup1\n      0x4cf4d295\n      gt\n      tag_15\n      jumpi\n      dup1\n      0x4cf4d295\n      eq\n      tag_9\n      jumpi\n      dup1\n      0x4f44425e\n      eq\n      tag_10\n      jumpi\n      dup1\n      0x771c5281\n      eq\n      tag_11\n      jumpi\n      dup1\n      0x817544c3\n      eq\n      tag_12\n      jumpi\n      dup1\n      0xc08e1502\n      eq\n      tag_13\n      jumpi\n      dup1\n      0xf104a8c9\n      eq\n      tag_7\n      jumpi\n      0x00\n      dup1\n      revert\n    tag_15:\n      dup1\n      0x013b7ce4\n      eq\n      tag_3\n      jumpi\n      dup1\n      0x0694a5fb\n      eq\n      tag_4\n      jumpi\n      dup1\n      0x0f4f0904\n      eq\n      tag_5\n      jumpi\n      dup1\n      0x2cb7e1ec\n      eq\n      tag_6\n      jumpi\n      dup1\n      0x372491a2\n      eq\n      tag_7\n      jumpi\n      dup1\n      0x4a932544\n      eq\n      tag_8\n      jumpi\n    tag_2:\n      0x00\n      dup1\n      revert\n        /* \"erc3643/erc3643/Compliance/modular/Modules/CountryAllowModule.sol\":2348:2652  function moduleCheck(... */\n    tag_3:\n      tag_16\n      tag_17\n      calldatasize\n      0x04\n      tag_18\n      jump\t// in\n    tag_17:\n      tag_19\n      jump\t// in\n    tag_16:\n      mload(0x40)\n        /* \"#utility.yul\":918:932   */\n      swap1\n      iszero\n        /* \"#utility.yul\":911:933   */\n      iszero\n        /* \"#utility.yul\":893:934   */\n      dup2\n      mstore\n        /* \"#utility.yul\":881:883   */\n      0x20\n        /* \"#utility.yul\":866:884   */\n      add\n        /* \"erc3643/erc3643/Compliance/modular/Modules/CountryAllowModule.sol\":2348:2652  function moduleCheck(... */\n      mload(0x40)\n      dup1\n      swap2\n      sub\n      swap1\n      return\n        /* \"erc3643/erc3643/Compliance/modular/Modules/AbstractModule.sol\":975:1323  function unbindCompliance(address _compliance) external onlyComplianceCall override {... */\n    tag_4:\n      tag_22\n      tag_23\n      calldatasize\n      0x04\n      tag_24\n      jump\t// in\n    tag_23:\n      tag_25\n      jump\t// in\n    tag_22:\n      stop\n        /* \"erc3643/erc3643/Compliance/modular/Modules/CountryAllowModule.sol\":2658:2841  function isCountryAllowed(address _compliance, uint16 _country)... */\n    tag_5:\n      tag_16\n      tag_27\n      calldatasize\n      0x04\n      tag_28\n      jump\t// in\n    tag_27:\n      sub(shl(0xa0, 0x01), 0x01)\n        /* \"erc3643/erc3643/Compliance/modular/Modules/CountryAllowModule.sol\":2794:2824  _allowedCountries[_compliance] */\n      dup3\n      and\n        /* \"erc3643/erc3643/Compliance/modular/Modules/CountryAllowModule.sol\":2767:2771  bool */\n      0x00\n        /* \"erc3643/erc3643/Compliance/modular/Modules/CountryAllowModule.sol\":2794:2824  _allowedCountries[_compliance] */\n      swap1\n      dup2\n      mstore\n        /* \"erc3643/erc3643/Compliance/modular/Modules/CountryAllowModule.sol\":2794:2811  _allowedCountries */\n      0x01\n        /* \"erc3643/erc3643/Compliance/modular/Modules/CountryAllowModule.sol\":2794:2824  _allowedCountries[_compliance] */\n      0x20\n      swap1\n      dup2\n      mstore\n      0x40\n      dup1\n      dup4\n      keccak256\n        /* \"erc3643/erc3643/Compliance/modular/Modules/CountryAllowModule.sol\":2794:2834  _allowedCountries[_compliance][_country] */\n      0xffff\n      dup6\n      and\n      dup5\n      mstore\n      swap1\n      swap2\n      mstore\n      swap1\n      keccak256\n      sload\n      0xff\n      and\n        /* \"erc3643/erc3643/Compliance/modular/Modules/CountryAllowModule.sol\":2658:2841  function isCountryAllowed(address _compliance, uint16 _country)... */\n      swap3\n      swap2\n      pop\n      pop\n      jump\n        /* \"erc3643/erc3643/Compliance/modular/Modules/CountryAllowModule.sol\":1941:2084  function moduleTransferAction(... */\n    tag_6:\n      tag_22\n      tag_32\n      calldatasize\n      0x04\n      tag_33\n      jump\t// in\n    tag_32:\n      tag_34\n      jump\t// in\n        /* \"erc3643/erc3643/Compliance/modular/Modules/CountryAllowModule.sol\":2218:2342  function moduleBurnAction(address _from, uint256 _value)... */\n    tag_7:\n      tag_22\n      tag_36\n      calldatasize\n      0x04\n      tag_37\n      jump\t// in\n    tag_36:\n      tag_38\n      jump\t// in\n        /* \"erc3643/erc3643/Compliance/modular/Modules/AbstractModule.sol\":565:967  function bindCompliance(address _compliance) external override {... */\n    tag_8:\n      tag_22\n      tag_40\n      calldatasize\n      0x04\n      tag_24\n      jump\t// in\n    tag_40:\n      tag_41\n      jump\t// in\n        /* \"erc3643/erc3643/Compliance/modular/Modules/AbstractModule.sol\":1331:1472  function isComplianceBound(address _compliance) external view override returns (bool) {... */\n    tag_9:\n      tag_16\n      tag_43\n      calldatasize\n      0x04\n      tag_24\n      jump\t// in\n    tag_43:\n      sub(shl(0xa0, 0x01), 0x01)\n        /* \"erc3643/erc3643/Compliance/modular/Modules/AbstractModule.sol\":1435:1464  _complianceBound[_compliance] */\n      and\n        /* \"erc3643/erc3643/Compliance/modular/Modules/AbstractModule.sol\":1411:1415  bool */\n      0x00\n        /* \"erc3643/erc3643/Compliance/modular/Modules/AbstractModule.sol\":1435:1464  _complianceBound[_compliance] */\n      swap1\n      dup2\n      mstore\n      0x20\n      dup2\n      swap1\n      mstore\n      0x40\n      swap1\n      keccak256\n      sload\n      0xff\n      and\n      swap1\n        /* \"erc3643/erc3643/Compliance/modular/Modules/AbstractModule.sol\":1331:1472  function isComplianceBound(address _compliance) external view override returns (bool) {... */\n      jump\n        /* \"erc3643/erc3643/Compliance/modular/Modules/CountryAllowModule.sol\":1296:1611  function addAllowedCountry(uint16 _country) external onlyComplianceCall {... */\n    tag_10:\n      tag_22\n      tag_47\n      calldatasize\n      0x04\n      tag_48\n      jump\t// in\n    tag_47:\n      tag_49\n      jump\t// in\n        /* \"erc3643/erc3643/Compliance/modular/Modules/CountryAllowModule.sol\":660:969  function batchAllowCountries(uint16[] calldata _countries)... */\n    tag_11:\n      tag_22\n      tag_51\n      calldatasize\n      0x04\n      tag_52\n      jump\t// in\n    tag_51:\n      tag_53\n      jump\t// in\n        /* \"erc3643/erc3643/Compliance/modular/Modules/CountryAllowModule.sol\":1617:1935  function removeAllowedCountry(uint16 _country) external onlyComplianceCall {... */\n    tag_12:\n      tag_22\n      tag_55\n      calldatasize\n      0x04\n      tag_48\n      jump\t// in\n    tag_55:\n      tag_56\n      jump\t// in\n        /* \"erc3643/erc3643/Compliance/modular/Modules/CountryAllowModule.sol\":975:1290  function batchDisallowCountries(uint16[] calldata _countries)... */\n    tag_13:\n      tag_22\n      tag_58\n      calldatasize\n      0x04\n      tag_52\n      jump\t// in\n    tag_58:\n      tag_59\n      jump\t// in\n        /* \"erc3643/erc3643/Compliance/modular/Modules/CountryAllowModule.sol\":2348:2652  function moduleCheck(... */\n    tag_19:\n        /* \"erc3643/erc3643/Compliance/modular/Modules/CountryAllowModule.sol\":2512:2516  bool */\n      0x00\n        /* \"erc3643/erc3643/Compliance/modular/Modules/CountryAllowModule.sol\":2528:2550  uint16 receiverCountry */\n      dup1\n        /* \"erc3643/erc3643/Compliance/modular/Modules/CountryAllowModule.sol\":2553:2582  _getCountry(_compliance, _to) */\n      tag_64\n        /* \"erc3643/erc3643/Compliance/modular/Modules/CountryAllowModule.sol\":2565:2576  _compliance */\n      dup4\n        /* \"erc3643/erc3643/Compliance/modular/Modules/CountryAllowModule.sol\":2578:2581  _to */\n      dup7\n        /* \"erc3643/erc3643/Compliance/modular/Modules/CountryAllowModule.sol\":2553:2564  _getCountry */\n      tag_65\n        /* \"erc3643/erc3643/Compliance/modular/Modules/CountryAllowModule.sol\":2553:2582  _getCountry(_compliance, _to) */\n      jump\t// in\n    tag_64:\n      sub(shl(0xa0, 0x01), 0x01)\n        /* \"erc3643/erc3643/Compliance/modular/Modules/CountryAllowModule.sol\":2794:2824  _allowedCountries[_compliance] */\n      dup5\n      and\n        /* \"erc3643/erc3643/Compliance/modular/Modules/CountryAllowModule.sol\":2767:2771  bool */\n      0x00\n        /* \"erc3643/erc3643/Compliance/modular/Modules/CountryAllowModule.sol\":2794:2824  _allowedCountries[_compliance] */\n      swap1\n      dup2\n      mstore\n        /* \"erc3643/erc3643/Compliance/modular/Modules/CountryAllowModule.sol\":2794:2811  _allowedCountries */\n      0x01\n        /* \"erc3643/erc3643/Compliance/modular/Modules/CountryAllowModule.sol\":2794:2824  _allowedCountries[_compliance] */\n      0x20\n      swap1\n      dup2\n      mstore\n      0x40\n      dup1\n      dup4\n      keccak256\n        /* \"erc3643/erc3643/Compliance/modular/Modules/CountryAllowModule.sol\":2794:2834  _allowedCountries[_compliance][_country] */\n      0xffff\n      dup6\n      and\n      dup5\n      mstore\n      swap1\n      swap2\n      mstore\n      swap1\n      keccak256\n      sload\n        /* \"erc3643/erc3643/Compliance/modular/Modules/CountryAllowModule.sol\":2528:2582  uint16 receiverCountry = _getCountry(_compliance, _to) */\n      swap1\n      swap2\n      pop\n        /* \"erc3643/erc3643/Compliance/modular/Modules/CountryAllowModule.sol\":2794:2834  _allowedCountries[_compliance][_country] */\n      0xff\n      and\n        /* \"erc3643/erc3643/Compliance/modular/Modules/CountryAllowModule.sol\":2592:2645  return isCountryAllowed(_compliance, receiverCountry) */\n      swap7\n        /* \"erc3643/erc3643/Compliance/modular/Modules/CountryAllowModule.sol\":2348:2652  function moduleCheck(... */\n      swap6\n      pop\n      pop\n      pop\n      pop\n      pop\n      pop\n      jump\t// out\n        /* \"erc3643/erc3643/Compliance/modular/Modules/AbstractModule.sol\":975:1323  function unbindCompliance(address _compliance) external onlyComplianceCall override {... */\n    tag_25:\n        /* \"erc3643/erc3643/Compliance/modular/Modules/AbstractModule.sol\":491:501  msg.sender */\n      caller\n        /* \"erc3643/erc3643/Compliance/modular/Modules/AbstractModule.sol\":474:490  _complianceBound */\n      0x00\n        /* \"erc3643/erc3643/Compliance/modular/Modules/AbstractModule.sol\":474:502  _complianceBound[msg.sender] */\n      swap1\n      dup2\n      mstore\n      0x20\n      dup2\n      swap1\n      mstore\n      0x40\n      swap1\n      keccak256\n      sload\n      0xff\n      and\n        /* \"erc3643/erc3643/Compliance/modular/Modules/AbstractModule.sol\":466:537  require(_complianceBound[msg.sender], \"only bound compliance can call\") */\n      tag_68\n      jumpi\n      mload(0x40)\n      shl(0xe5, 0x461bcd)\n      dup2\n      mstore\n      0x04\n      add\n      tag_69\n      swap1\n      tag_70\n      jump\t// in\n    tag_69:\n      mload(0x40)\n      dup1\n      swap2\n      sub\n      swap1\n      revert\n    tag_68:\n      sub(shl(0xa0, 0x01), 0x01)\n        /* \"erc3643/erc3643/Compliance/modular/Modules/AbstractModule.sol\":1078:1103  _compliance != address(0) */\n      dup2\n      and\n        /* \"erc3643/erc3643/Compliance/modular/Modules/AbstractModule.sol\":1070:1139  require(_compliance != address(0), \"invalid argument - zero address\") */\n      tag_72\n      jumpi\n      mload(0x40)\n      shl(0xe5, 0x461bcd)\n      dup2\n      mstore\n        /* \"#utility.yul\":3921:3923   */\n      0x20\n        /* \"erc3643/erc3643/Compliance/modular/Modules/AbstractModule.sol\":1070:1139  require(_compliance != address(0), \"invalid argument - zero address\") */\n      0x04\n      dup3\n      add\n        /* \"#utility.yul\":3903:3924   */\n      mstore\n        /* \"#utility.yul\":3960:3962   */\n      0x1f\n        /* \"#utility.yul\":3940:3958   */\n      0x24\n      dup3\n      add\n        /* \"#utility.yul\":3933:3963   */\n      mstore\n        /* \"#utility.yul\":3999:4032   */\n      0x696e76616c696420617267756d656e74202d207a65726f206164647265737300\n        /* \"#utility.yul\":3979:3997   */\n      0x44\n      dup3\n      add\n        /* \"#utility.yul\":3972:4033   */\n      mstore\n        /* \"#utility.yul\":4050:4068   */\n      0x64\n      add\n        /* \"erc3643/erc3643/Compliance/modular/Modules/AbstractModule.sol\":1070:1139  require(_compliance != address(0), \"invalid argument - zero address\") */\n      tag_69\n        /* \"#utility.yul\":3719:4074   */\n      jump\n        /* \"erc3643/erc3643/Compliance/modular/Modules/AbstractModule.sol\":1070:1139  require(_compliance != address(0), \"invalid argument - zero address\") */\n    tag_72:\n        /* \"erc3643/erc3643/Compliance/modular/Modules/AbstractModule.sol\":1158:1168  msg.sender */\n      caller\n      sub(shl(0xa0, 0x01), 0x01)\n        /* \"erc3643/erc3643/Compliance/modular/Modules/AbstractModule.sol\":1158:1183  msg.sender == _compliance */\n      dup3\n      and\n      eq\n        /* \"erc3643/erc3643/Compliance/modular/Modules/AbstractModule.sol\":1150:1221  require(msg.sender == _compliance, \"only compliance contract can call\") */\n      tag_75\n      jumpi\n      mload(0x40)\n      shl(0xe5, 0x461bcd)\n      dup2\n      mstore\n      0x04\n      add\n      tag_69\n      swap1\n      tag_77\n      jump\t// in\n    tag_75:\n      sub(shl(0xa0, 0x01), 0x01)\n        /* \"erc3643/erc3643/Compliance/modular/Modules/AbstractModule.sol\":1232:1261  _complianceBound[_compliance] */\n      dup2\n      and\n        /* \"erc3643/erc3643/Compliance/modular/Modules/AbstractModule.sol\":1264:1269  false */\n      0x00\n        /* \"erc3643/erc3643/Compliance/modular/Modules/AbstractModule.sol\":1232:1261  _complianceBound[_compliance] */\n      dup2\n      dup2\n      mstore\n      0x20\n      dup2\n      swap1\n      mstore\n      0x40\n      dup1\n      dup3\n      keccak256\n        /* \"erc3643/erc3643/Compliance/modular/Modules/AbstractModule.sol\":1232:1269  _complianceBound[_compliance] = false */\n      dup1\n      sload\n      not(0xff)\n      and\n      swap1\n      sstore\n        /* \"erc3643/erc3643/Compliance/modular/Modules/AbstractModule.sol\":1285:1315  ComplianceUnbound(_compliance) */\n      mload\n      0x408b49d9be1c914c52a0227e18a077e5a892dddf32a26cfa94a5d9708fad7718\n      swap2\n        /* \"erc3643/erc3643/Compliance/modular/Modules/AbstractModule.sol\":1264:1269  false */\n      swap1\n        /* \"erc3643/erc3643/Compliance/modular/Modules/AbstractModule.sol\":1285:1315  ComplianceUnbound(_compliance) */\n      log2\n        /* \"erc3643/erc3643/Compliance/modular/Modules/AbstractModule.sol\":975:1323  function unbindCompliance(address _compliance) external onlyComplianceCall override {... */\n      pop\n      jump\t// out\n        /* \"erc3643/erc3643/Compliance/modular/Modules/CountryAllowModule.sol\":1941:2084  function moduleTransferAction(... */\n    tag_34:\n        /* \"erc3643/erc3643/Compliance/modular/Modules/AbstractModule.sol\":491:501  msg.sender */\n      caller\n        /* \"erc3643/erc3643/Compliance/modular/Modules/AbstractModule.sol\":474:490  _complianceBound */\n      0x00\n        /* \"erc3643/erc3643/Compliance/modular/Modules/AbstractModule.sol\":474:502  _complianceBound[msg.sender] */\n      swap1\n      dup2\n      mstore\n      0x20\n      dup2\n      swap1\n      mstore\n      0x40\n      swap1\n      keccak256\n      sload\n      0xff\n      and\n        /* \"erc3643/erc3643/Compliance/modular/Modules/AbstractModule.sol\":466:537  require(_complianceBound[msg.sender], \"only bound compliance can call\") */\n      tag_80\n      jumpi\n      mload(0x40)\n      shl(0xe5, 0x461bcd)\n      dup2\n      mstore\n      0x04\n      add\n      tag_69\n      swap1\n      tag_70\n      jump\t// in\n    tag_80:\n        /* \"erc3643/erc3643/Compliance/modular/Modules/CountryAllowModule.sol\":1941:2084  function moduleTransferAction(... */\n      pop\n      pop\n      pop\n      jump\t// out\n        /* \"erc3643/erc3643/Compliance/modular/Modules/CountryAllowModule.sol\":2218:2342  function moduleBurnAction(address _from, uint256 _value)... */\n    tag_38:\n        /* \"erc3643/erc3643/Compliance/modular/Modules/AbstractModule.sol\":491:501  msg.sender */\n      caller\n        /* \"erc3643/erc3643/Compliance/modular/Modules/AbstractModule.sol\":474:490  _complianceBound */\n      0x00\n        /* \"erc3643/erc3643/Compliance/modular/Modules/AbstractModule.sol\":474:502  _complianceBound[msg.sender] */\n      swap1\n      dup2\n      mstore\n      0x20\n      dup2\n      swap1\n      mstore\n      0x40\n      swap1\n      keccak256\n      sload\n      0xff\n      and\n        /* \"erc3643/erc3643/Compliance/modular/Modules/AbstractModule.sol\":466:537  require(_complianceBound[msg.sender], \"only bound compliance can call\") */\n      tag_84\n      jumpi\n      mload(0x40)\n      shl(0xe5, 0x461bcd)\n      dup2\n      mstore\n      0x04\n      add\n      tag_69\n      swap1\n      tag_70\n      jump\t// in\n    tag_84:\n        /* \"erc3643/erc3643/Compliance/modular/Modules/CountryAllowModule.sol\":2218:2342  function moduleBurnAction(address _from, uint256 _value)... */\n      pop\n      pop\n      jump\t// out\n        /* \"erc3643/erc3643/Compliance/modular/Modules/AbstractModule.sol\":565:967  function bindCompliance(address _compliance) external override {... */\n    tag_41:\n      sub(shl(0xa0, 0x01), 0x01)\n        /* \"erc3643/erc3643/Compliance/modular/Modules/AbstractModule.sol\":647:672  _compliance != address(0) */\n      dup2\n      and\n        /* \"erc3643/erc3643/Compliance/modular/Modules/AbstractModule.sol\":639:708  require(_compliance != address(0), \"invalid argument - zero address\") */\n      tag_88\n      jumpi\n      mload(0x40)\n      shl(0xe5, 0x461bcd)\n      dup2\n      mstore\n        /* \"#utility.yul\":3921:3923   */\n      0x20\n        /* \"erc3643/erc3643/Compliance/modular/Modules/AbstractModule.sol\":639:708  require(_compliance != address(0), \"invalid argument - zero address\") */\n      0x04\n      dup3\n      add\n        /* \"#utility.yul\":3903:3924   */\n      mstore\n        /* \"#utility.yul\":3960:3962   */\n      0x1f\n        /* \"#utility.yul\":3940:3958   */\n      0x24\n      dup3\n      add\n        /* \"#utility.yul\":3933:3963   */\n      mstore\n        /* \"#utility.yul\":3999:4032   */\n      0x696e76616c696420617267756d656e74202d207a65726f206164647265737300\n        /* \"#utility.yul\":3979:3997   */\n      0x44\n      dup3\n      add\n        /* \"#utility.yul\":3972:4033   */\n      mstore\n        /* \"#utility.yul\":4050:4068   */\n      0x64\n      add\n        /* \"erc3643/erc3643/Compliance/modular/Modules/AbstractModule.sol\":639:708  require(_compliance != address(0), \"invalid argument - zero address\") */\n      tag_69\n        /* \"#utility.yul\":3719:4074   */\n      jump\n        /* \"erc3643/erc3643/Compliance/modular/Modules/AbstractModule.sol\":639:708  require(_compliance != address(0), \"invalid argument - zero address\") */\n    tag_88:\n      sub(shl(0xa0, 0x01), 0x01)\n        /* \"erc3643/erc3643/Compliance/modular/Modules/AbstractModule.sol\":728:757  _complianceBound[_compliance] */\n      dup2\n      and\n        /* \"erc3643/erc3643/Compliance/modular/Modules/AbstractModule.sol\":728:744  _complianceBound */\n      0x00\n        /* \"erc3643/erc3643/Compliance/modular/Modules/AbstractModule.sol\":728:757  _complianceBound[_compliance] */\n      swap1\n      dup2\n      mstore\n      0x20\n      dup2\n      swap1\n      mstore\n      0x40\n      swap1\n      keccak256\n      sload\n      0xff\n      and\n        /* \"erc3643/erc3643/Compliance/modular/Modules/AbstractModule.sol\":727:757  !_complianceBound[_compliance] */\n      iszero\n        /* \"erc3643/erc3643/Compliance/modular/Modules/AbstractModule.sol\":719:786  require(!_complianceBound[_compliance], \"compliance already bound\") */\n      tag_90\n      jumpi\n      mload(0x40)\n      shl(0xe5, 0x461bcd)\n      dup2\n      mstore\n        /* \"#utility.yul\":4683:4685   */\n      0x20\n        /* \"erc3643/erc3643/Compliance/modular/Modules/AbstractModule.sol\":719:786  require(!_complianceBound[_compliance], \"compliance already bound\") */\n      0x04\n      dup3\n      add\n        /* \"#utility.yul\":4665:4686   */\n      mstore\n        /* \"#utility.yul\":4722:4724   */\n      0x18\n        /* \"#utility.yul\":4702:4720   */\n      0x24\n      dup3\n      add\n        /* \"#utility.yul\":4695:4725   */\n      mstore\n        /* \"#utility.yul\":4761:4787   */\n      0x636f6d706c69616e636520616c726561647920626f756e640000000000000000\n        /* \"#utility.yul\":4741:4759   */\n      0x44\n      dup3\n      add\n        /* \"#utility.yul\":4734:4788   */\n      mstore\n        /* \"#utility.yul\":4805:4823   */\n      0x64\n      add\n        /* \"erc3643/erc3643/Compliance/modular/Modules/AbstractModule.sol\":719:786  require(!_complianceBound[_compliance], \"compliance already bound\") */\n      tag_69\n        /* \"#utility.yul\":4481:4829   */\n      jump\n        /* \"erc3643/erc3643/Compliance/modular/Modules/AbstractModule.sol\":719:786  require(!_complianceBound[_compliance], \"compliance already bound\") */\n    tag_90:\n        /* \"erc3643/erc3643/Compliance/modular/Modules/AbstractModule.sol\":805:815  msg.sender */\n      caller\n      sub(shl(0xa0, 0x01), 0x01)\n        /* \"erc3643/erc3643/Compliance/modular/Modules/AbstractModule.sol\":805:830  msg.sender == _compliance */\n      dup3\n      and\n      eq\n        /* \"erc3643/erc3643/Compliance/modular/Modules/AbstractModule.sol\":797:868  require(msg.sender == _compliance, \"only compliance contract can call\") */\n      tag_93\n      jumpi\n      mload(0x40)\n      shl(0xe5, 0x461bcd)\n      dup2\n      mstore\n      0x04\n      add\n      tag_69\n      swap1\n      tag_77\n      jump\t// in\n    tag_93:\n      sub(shl(0xa0, 0x01), 0x01)\n        /* \"erc3643/erc3643/Compliance/modular/Modules/AbstractModule.sol\":879:908  _complianceBound[_compliance] */\n      dup2\n      and\n        /* \"erc3643/erc3643/Compliance/modular/Modules/AbstractModule.sol\":879:895  _complianceBound */\n      0x00\n        /* \"erc3643/erc3643/Compliance/modular/Modules/AbstractModule.sol\":879:908  _complianceBound[_compliance] */\n      dup2\n      dup2\n      mstore\n      0x20\n      dup2\n      swap1\n      mstore\n      0x40\n      dup1\n      dup3\n      keccak256\n        /* \"erc3643/erc3643/Compliance/modular/Modules/AbstractModule.sol\":879:915  _complianceBound[_compliance] = true */\n      dup1\n      sload\n      not(0xff)\n      and\n        /* \"erc3643/erc3643/Compliance/modular/Modules/AbstractModule.sol\":911:915  true */\n      0x01\n        /* \"erc3643/erc3643/Compliance/modular/Modules/AbstractModule.sol\":879:915  _complianceBound[_compliance] = true */\n      or\n      swap1\n      sstore\n        /* \"erc3643/erc3643/Compliance/modular/Modules/AbstractModule.sol\":931:959  ComplianceBound(_compliance) */\n      mload\n      0x1f7b76c58fb697eb53c6c7c1becb96911516a136e24d7ced386b2355358b75a3\n      swap2\n        /* \"erc3643/erc3643/Compliance/modular/Modules/AbstractModule.sol\":879:895  _complianceBound */\n      swap1\n        /* \"erc3643/erc3643/Compliance/modular/Modules/AbstractModule.sol\":931:959  ComplianceBound(_compliance) */\n      log2\n        /* \"erc3643/erc3643/Compliance/modular/Modules/AbstractModule.sol\":565:967  function bindCompliance(address _compliance) external override {... */\n      pop\n      jump\t// out\n        /* \"erc3643/erc3643/Compliance/modular/Modules/CountryAllowModule.sol\":1296:1611  function addAllowedCountry(uint16 _country) external onlyComplianceCall {... */\n    tag_49:\n        /* \"erc3643/erc3643/Compliance/modular/Modules/AbstractModule.sol\":491:501  msg.sender */\n      caller\n        /* \"erc3643/erc3643/Compliance/modular/Modules/AbstractModule.sol\":474:490  _complianceBound */\n      0x00\n        /* \"erc3643/erc3643/Compliance/modular/Modules/AbstractModule.sol\":474:502  _complianceBound[msg.sender] */\n      swap1\n      dup2\n      mstore\n      0x20\n      dup2\n      swap1\n      mstore\n      0x40\n      swap1\n      keccak256\n      sload\n      0xff\n      and\n        /* \"erc3643/erc3643/Compliance/modular/Modules/AbstractModule.sol\":466:537  require(_complianceBound[msg.sender], \"only bound compliance can call\") */\n      tag_97\n      jumpi\n      mload(0x40)\n      shl(0xe5, 0x461bcd)\n      dup2\n      mstore\n      0x04\n      add\n      tag_69\n      swap1\n      tag_70\n      jump\t// in\n    tag_97:\n        /* \"erc3643/erc3643/Compliance/modular/Modules/CountryAllowModule.sol\":1401:1411  msg.sender */\n      caller\n        /* \"erc3643/erc3643/Compliance/modular/Modules/CountryAllowModule.sol\":1383:1412  _allowedCountries[msg.sender] */\n      0x00\n      swap1\n      dup2\n      mstore\n        /* \"erc3643/erc3643/Compliance/modular/Modules/CountryAllowModule.sol\":1383:1400  _allowedCountries */\n      0x01\n        /* \"erc3643/erc3643/Compliance/modular/Modules/CountryAllowModule.sol\":1383:1412  _allowedCountries[msg.sender] */\n      0x20\n      dup2\n      dup2\n      mstore\n      0x40\n      dup1\n      dup5\n      keccak256\n        /* \"erc3643/erc3643/Compliance/modular/Modules/CountryAllowModule.sol\":1382:1423  (_allowedCountries[msg.sender])[_country] */\n      0xffff\n      dup7\n      and\n      dup6\n      mstore\n      swap1\n      swap2\n      mstore\n      swap1\n      swap2\n      keccak256\n      sload\n      0xff\n      and\n        /* \"erc3643/erc3643/Compliance/modular/Modules/CountryAllowModule.sol\":1382:1431  (_allowedCountries[msg.sender])[_country] == true */\n      iszero\n      iszero\n      swap1\n      sub\n        /* \"erc3643/erc3643/Compliance/modular/Modules/CountryAllowModule.sol\":1378:1495  if ((_allowedCountries[msg.sender])[_country] == true)... */\n      tag_100\n      jumpi\n        /* \"erc3643/erc3643/Compliance/modular/Modules/CountryAllowModule.sol\":1474:1484  msg.sender */\n      caller\n        /* \"erc3643/erc3643/Compliance/modular/Modules/CountryAllowModule.sol\":1486:1494  _country */\n      dup2\n        /* \"erc3643/erc3643/Compliance/modular/Modules/CountryAllowModule.sol\":1452:1495  CountryAlreadyAllowed(msg.sender, _country) */\n      mload(0x40)\n      shl(0xe0, 0xaf6d6135)\n      dup2\n      mstore\n      0x04\n      add\n      tag_69\n      swap3\n      swap2\n      swap1\n      tag_102\n      jump\t// in\n        /* \"erc3643/erc3643/Compliance/modular/Modules/CountryAllowModule.sol\":1378:1495  if ((_allowedCountries[msg.sender])[_country] == true)... */\n    tag_100:\n        /* \"erc3643/erc3643/Compliance/modular/Modules/CountryAllowModule.sol\":1524:1534  msg.sender */\n      caller\n        /* \"erc3643/erc3643/Compliance/modular/Modules/CountryAllowModule.sol\":1506:1535  _allowedCountries[msg.sender] */\n      0x00\n      dup2\n      dup2\n      mstore\n        /* \"erc3643/erc3643/Compliance/modular/Modules/CountryAllowModule.sol\":1549:1553  true */\n      0x01\n        /* \"erc3643/erc3643/Compliance/modular/Modules/CountryAllowModule.sol\":1506:1535  _allowedCountries[msg.sender] */\n      0x20\n      dup2\n      dup2\n      mstore\n      0x40\n      dup1\n      dup5\n      keccak256\n        /* \"erc3643/erc3643/Compliance/modular/Modules/CountryAllowModule.sol\":1505:1546  (_allowedCountries[msg.sender])[_country] */\n      0xffff\n      dup8\n      and\n      dup6\n      mstore\n      swap1\n      swap2\n      mstore\n      swap2\n      dup3\n      swap1\n      keccak256\n        /* \"erc3643/erc3643/Compliance/modular/Modules/CountryAllowModule.sol\":1505:1553  (_allowedCountries[msg.sender])[_country] = true */\n      dup1\n      sload\n      not(0xff)\n      and\n      swap1\n      swap2\n      or\n      swap1\n      sstore\n        /* \"erc3643/erc3643/Compliance/modular/Modules/CountryAllowModule.sol\":1568:1604  CountryAllowed(msg.sender, _country) */\n      mload\n      0x48c279381632bf87fca2680865a7384b6eb20716fd96b882b305a2198930a074\n      swap2\n      tag_103\n      swap2\n        /* \"erc3643/erc3643/Compliance/modular/Modules/CountryAllowModule.sol\":1537:1545  _country */\n      dup5\n      swap1\n        /* \"erc3643/erc3643/Compliance/modular/Modules/CountryAllowModule.sol\":1568:1604  CountryAllowed(msg.sender, _country) */\n      tag_102\n      jump\t// in\n    tag_103:\n      mload(0x40)\n      dup1\n      swap2\n      sub\n      swap1\n      log1\n        /* \"erc3643/erc3643/Compliance/modular/Modules/CountryAllowModule.sol\":1296:1611  function addAllowedCountry(uint16 _country) external onlyComplianceCall {... */\n      pop\n      jump\t// out\n        /* \"erc3643/erc3643/Compliance/modular/Modules/CountryAllowModule.sol\":660:969  function batchAllowCountries(uint16[] calldata _countries)... */\n    tag_53:\n        /* \"erc3643/erc3643/Compliance/modular/Modules/AbstractModule.sol\":491:501  msg.sender */\n      caller\n        /* \"erc3643/erc3643/Compliance/modular/Modules/AbstractModule.sol\":474:490  _complianceBound */\n      0x00\n        /* \"erc3643/erc3643/Compliance/modular/Modules/AbstractModule.sol\":474:502  _complianceBound[msg.sender] */\n      swap1\n      dup2\n      mstore\n      0x20\n      dup2\n      swap1\n      mstore\n      0x40\n      swap1\n      keccak256\n      sload\n      0xff\n      and\n        /* \"erc3643/erc3643/Compliance/modular/Modules/AbstractModule.sol\":466:537  require(_complianceBound[msg.sender], \"only bound compliance can call\") */\n      tag_105\n      jumpi\n      mload(0x40)\n      shl(0xe5, 0x461bcd)\n      dup2\n      mstore\n      0x04\n      add\n      tag_69\n      swap1\n      tag_70\n      jump\t// in\n    tag_105:\n        /* \"erc3643/erc3643/Compliance/modular/Modules/CountryAllowModule.sol\":782:791  uint256 i */\n      0x00\n        /* \"erc3643/erc3643/Compliance/modular/Modules/CountryAllowModule.sol\":777:963  for (uint256 i = 0; i < _countries.length; i++) {... */\n    tag_108:\n        /* \"erc3643/erc3643/Compliance/modular/Modules/CountryAllowModule.sol\":797:818  i < _countries.length */\n      dup2\n      dup2\n      lt\n        /* \"erc3643/erc3643/Compliance/modular/Modules/CountryAllowModule.sol\":777:963  for (uint256 i = 0; i < _countries.length; i++) {... */\n      iszero\n      tag_80\n      jumpi\n        /* \"erc3643/erc3643/Compliance/modular/Modules/CountryAllowModule.sol\":858:868  msg.sender */\n      caller\n        /* \"erc3643/erc3643/Compliance/modular/Modules/CountryAllowModule.sol\":840:869  _allowedCountries[msg.sender] */\n      0x00\n      swap1\n      dup2\n      mstore\n        /* \"erc3643/erc3643/Compliance/modular/Modules/CountryAllowModule.sol\":888:892  true */\n      0x01\n        /* \"erc3643/erc3643/Compliance/modular/Modules/CountryAllowModule.sol\":840:869  _allowedCountries[msg.sender] */\n      0x20\n      dup2\n      swap1\n      mstore\n      0x40\n      dup3\n      keccak256\n        /* \"erc3643/erc3643/Compliance/modular/Modules/CountryAllowModule.sol\":888:892  true */\n      swap1\n      swap2\n        /* \"erc3643/erc3643/Compliance/modular/Modules/CountryAllowModule.sol\":871:881  _countries */\n      dup6\n      dup6\n        /* \"erc3643/erc3643/Compliance/modular/Modules/CountryAllowModule.sol\":882:883  i */\n      dup6\n        /* \"erc3643/erc3643/Compliance/modular/Modules/CountryAllowModule.sol\":871:884  _countries[i] */\n      dup2\n      dup2\n      lt\n      tag_112\n      jumpi\n      tag_112\n      tag_113\n      jump\t// in\n    tag_112:\n      swap1\n      pop\n      0x20\n      mul\n      add\n      0x20\n      dup2\n      add\n      swap1\n      tag_114\n      swap2\n      swap1\n      tag_48\n      jump\t// in\n    tag_114:\n        /* \"erc3643/erc3643/Compliance/modular/Modules/CountryAllowModule.sol\":839:885  (_allowedCountries[msg.sender])[_countries[i]] */\n      0xffff\n      and\n      dup2\n      mstore\n      0x20\n      dup2\n      add\n      swap2\n      swap1\n      swap2\n      mstore\n      0x40\n      add\n      0x00\n      keccak256\n        /* \"erc3643/erc3643/Compliance/modular/Modules/CountryAllowModule.sol\":839:892  (_allowedCountries[msg.sender])[_countries[i]] = true */\n      dup1\n      sload\n      not(0xff)\n      and\n      swap2\n      iszero\n      iszero\n      swap2\n      swap1\n      swap2\n      or\n      swap1\n      sstore\n        /* \"erc3643/erc3643/Compliance/modular/Modules/CountryAllowModule.sol\":911:952  CountryAllowed(msg.sender, _countries[i]) */\n      0x48c279381632bf87fca2680865a7384b6eb20716fd96b882b305a2198930a074\n        /* \"erc3643/erc3643/Compliance/modular/Modules/CountryAllowModule.sol\":926:936  msg.sender */\n      caller\n        /* \"erc3643/erc3643/Compliance/modular/Modules/CountryAllowModule.sol\":938:948  _countries */\n      dup5\n      dup5\n        /* \"erc3643/erc3643/Compliance/modular/Modules/CountryAllowModule.sol\":949:950  i */\n      dup5\n        /* \"erc3643/erc3643/Compliance/modular/Modules/CountryAllowModule.sol\":938:951  _countries[i] */\n      dup2\n      dup2\n      lt\n      tag_116\n      jumpi\n      tag_116\n      tag_113\n      jump\t// in\n    tag_116:\n      swap1\n      pop\n      0x20\n      mul\n      add\n      0x20\n      dup2\n      add\n      swap1\n      tag_117\n      swap2\n      swap1\n      tag_48\n      jump\t// in\n    tag_117:\n        /* \"erc3643/erc3643/Compliance/modular/Modules/CountryAllowModule.sol\":911:952  CountryAllowed(msg.sender, _countries[i]) */\n      mload(0x40)\n      tag_118\n      swap3\n      swap2\n      swap1\n      tag_102\n      jump\t// in\n    tag_118:\n      mload(0x40)\n      dup1\n      swap2\n      sub\n      swap1\n      log1\n        /* \"erc3643/erc3643/Compliance/modular/Modules/CountryAllowModule.sol\":820:823  i++ */\n      dup1\n      tag_119\n      dup2\n      tag_120\n      jump\t// in\n    tag_119:\n      swap2\n      pop\n      pop\n        /* \"erc3643/erc3643/Compliance/modular/Modules/CountryAllowModule.sol\":777:963  for (uint256 i = 0; i < _countries.length; i++) {... */\n      jump(tag_108)\n        /* \"erc3643/erc3643/Compliance/modular/Modules/CountryAllowModule.sol\":1617:1935  function removeAllowedCountry(uint16 _country) external onlyComplianceCall {... */\n    tag_56:\n        /* \"erc3643/erc3643/Compliance/modular/Modules/AbstractModule.sol\":491:501  msg.sender */\n      caller\n        /* \"erc3643/erc3643/Compliance/modular/Modules/AbstractModule.sol\":474:490  _complianceBound */\n      0x00\n        /* \"erc3643/erc3643/Compliance/modular/Modules/AbstractModule.sol\":474:502  _complianceBound[msg.sender] */\n      swap1\n      dup2\n      mstore\n      0x20\n      dup2\n      swap1\n      mstore\n      0x40\n      swap1\n      keccak256\n      sload\n      0xff\n      and\n        /* \"erc3643/erc3643/Compliance/modular/Modules/AbstractModule.sol\":466:537  require(_complianceBound[msg.sender], \"only bound compliance can call\") */\n      tag_122\n      jumpi\n      mload(0x40)\n      shl(0xe5, 0x461bcd)\n      dup2\n      mstore\n      0x04\n      add\n      tag_69\n      swap1\n      tag_70\n      jump\t// in\n    tag_122:\n        /* \"erc3643/erc3643/Compliance/modular/Modules/CountryAllowModule.sol\":1725:1735  msg.sender */\n      caller\n        /* \"erc3643/erc3643/Compliance/modular/Modules/CountryAllowModule.sol\":1707:1736  _allowedCountries[msg.sender] */\n      0x00\n      swap1\n      dup2\n      mstore\n        /* \"erc3643/erc3643/Compliance/modular/Modules/CountryAllowModule.sol\":1707:1724  _allowedCountries */\n      0x01\n        /* \"erc3643/erc3643/Compliance/modular/Modules/CountryAllowModule.sol\":1707:1736  _allowedCountries[msg.sender] */\n      0x20\n      swap1\n      dup2\n      mstore\n      0x40\n      dup1\n      dup4\n      keccak256\n        /* \"erc3643/erc3643/Compliance/modular/Modules/CountryAllowModule.sol\":1706:1747  (_allowedCountries[msg.sender])[_country] */\n      0xffff\n      dup6\n      and\n      dup5\n      mstore\n      swap1\n      swap2\n      mstore\n      dup2\n      keccak256\n      sload\n      0xff\n      and\n        /* \"erc3643/erc3643/Compliance/modular/Modules/CountryAllowModule.sol\":1706:1756  (_allowedCountries[msg.sender])[_country] == false */\n      iszero\n      iszero\n      swap1\n      sub\n        /* \"erc3643/erc3643/Compliance/modular/Modules/CountryAllowModule.sol\":1702:1816  if ((_allowedCountries[msg.sender])[_country] == false)... */\n      tag_125\n      jumpi\n        /* \"erc3643/erc3643/Compliance/modular/Modules/CountryAllowModule.sol\":1795:1805  msg.sender */\n      caller\n        /* \"erc3643/erc3643/Compliance/modular/Modules/CountryAllowModule.sol\":1807:1815  _country */\n      dup2\n        /* \"erc3643/erc3643/Compliance/modular/Modules/CountryAllowModule.sol\":1777:1816  CountryNotAllowed(msg.sender, _country) */\n      mload(0x40)\n      shl(0xe1, 0x236a6875)\n      dup2\n      mstore\n      0x04\n      add\n      tag_69\n      swap3\n      swap2\n      swap1\n      tag_102\n      jump\t// in\n        /* \"erc3643/erc3643/Compliance/modular/Modules/CountryAllowModule.sol\":1702:1816  if ((_allowedCountries[msg.sender])[_country] == false)... */\n    tag_125:\n        /* \"erc3643/erc3643/Compliance/modular/Modules/CountryAllowModule.sol\":1845:1855  msg.sender */\n      caller\n        /* \"erc3643/erc3643/Compliance/modular/Modules/CountryAllowModule.sol\":1870:1875  false */\n      0x00\n        /* \"erc3643/erc3643/Compliance/modular/Modules/CountryAllowModule.sol\":1827:1856  _allowedCountries[msg.sender] */\n      dup2\n      dup2\n      mstore\n        /* \"erc3643/erc3643/Compliance/modular/Modules/CountryAllowModule.sol\":1827:1844  _allowedCountries */\n      0x01\n        /* \"erc3643/erc3643/Compliance/modular/Modules/CountryAllowModule.sol\":1827:1856  _allowedCountries[msg.sender] */\n      0x20\n      swap1\n      dup2\n      mstore\n      0x40\n      dup1\n      dup4\n      keccak256\n        /* \"erc3643/erc3643/Compliance/modular/Modules/CountryAllowModule.sol\":1826:1867  (_allowedCountries[msg.sender])[_country] */\n      0xffff\n      dup7\n      and\n      dup5\n      mstore\n      swap1\n      swap2\n      mstore\n      swap1\n      dup2\n      swap1\n      keccak256\n        /* \"erc3643/erc3643/Compliance/modular/Modules/CountryAllowModule.sol\":1826:1875  (_allowedCountries[msg.sender])[_country] = false */\n      dup1\n      sload\n      not(0xff)\n      and\n      swap1\n      sstore\n        /* \"erc3643/erc3643/Compliance/modular/Modules/CountryAllowModule.sol\":1890:1928  CountryUnallowed(msg.sender, _country) */\n      mload\n      0x35c7374bcb82f2355cb703c8ab6162f87fe83b99618bdb78c6d19b07ddf060a2\n      swap2\n      tag_103\n      swap2\n        /* \"erc3643/erc3643/Compliance/modular/Modules/CountryAllowModule.sol\":1858:1866  _country */\n      dup5\n      swap1\n        /* \"erc3643/erc3643/Compliance/modular/Modules/CountryAllowModule.sol\":1890:1928  CountryUnallowed(msg.sender, _country) */\n      tag_102\n      jump\t// in\n        /* \"erc3643/erc3643/Compliance/modular/Modules/CountryAllowModule.sol\":975:1290  function batchDisallowCountries(uint16[] calldata _countries)... */\n    tag_59:\n        /* \"erc3643/erc3643/Compliance/modular/Modules/AbstractModule.sol\":491:501  msg.sender */\n      caller\n        /* \"erc3643/erc3643/Compliance/modular/Modules/AbstractModule.sol\":474:490  _complianceBound */\n      0x00\n        /* \"erc3643/erc3643/Compliance/modular/Modules/AbstractModule.sol\":474:502  _complianceBound[msg.sender] */\n      swap1\n      dup2\n      mstore\n      0x20\n      dup2\n      swap1\n      mstore\n      0x40\n      swap1\n      keccak256\n      sload\n      0xff\n      and\n        /* \"erc3643/erc3643/Compliance/modular/Modules/AbstractModule.sol\":466:537  require(_complianceBound[msg.sender], \"only bound compliance can call\") */\n      tag_129\n      jumpi\n      mload(0x40)\n      shl(0xe5, 0x461bcd)\n      dup2\n      mstore\n      0x04\n      add\n      tag_69\n      swap1\n      tag_70\n      jump\t// in\n    tag_129:\n        /* \"erc3643/erc3643/Compliance/modular/Modules/CountryAllowModule.sol\":1100:1109  uint256 i */\n      0x00\n        /* \"erc3643/erc3643/Compliance/modular/Modules/CountryAllowModule.sol\":1095:1284  for (uint256 i = 0; i < _countries.length; i++) {... */\n    tag_132:\n        /* \"erc3643/erc3643/Compliance/modular/Modules/CountryAllowModule.sol\":1115:1136  i < _countries.length */\n      dup2\n      dup2\n      lt\n        /* \"erc3643/erc3643/Compliance/modular/Modules/CountryAllowModule.sol\":1095:1284  for (uint256 i = 0; i < _countries.length; i++) {... */\n      iszero\n      tag_80\n      jumpi\n        /* \"erc3643/erc3643/Compliance/modular/Modules/CountryAllowModule.sol\":1176:1186  msg.sender */\n      caller\n        /* \"erc3643/erc3643/Compliance/modular/Modules/CountryAllowModule.sol\":1206:1211  false */\n      0x00\n        /* \"erc3643/erc3643/Compliance/modular/Modules/CountryAllowModule.sol\":1158:1187  _allowedCountries[msg.sender] */\n      swap1\n      dup2\n      mstore\n        /* \"erc3643/erc3643/Compliance/modular/Modules/CountryAllowModule.sol\":1158:1175  _allowedCountries */\n      0x01\n        /* \"erc3643/erc3643/Compliance/modular/Modules/CountryAllowModule.sol\":1158:1187  _allowedCountries[msg.sender] */\n      0x20\n      mstore\n      0x40\n      dup2\n      keccak256\n        /* \"erc3643/erc3643/Compliance/modular/Modules/CountryAllowModule.sol\":1206:1211  false */\n      dup2\n        /* \"erc3643/erc3643/Compliance/modular/Modules/CountryAllowModule.sol\":1189:1199  _countries */\n      dup6\n      dup6\n        /* \"erc3643/erc3643/Compliance/modular/Modules/CountryAllowModule.sol\":1200:1201  i */\n      dup6\n        /* \"erc3643/erc3643/Compliance/modular/Modules/CountryAllowModule.sol\":1189:1202  _countries[i] */\n      dup2\n      dup2\n      lt\n      tag_136\n      jumpi\n      tag_136\n      tag_113\n      jump\t// in\n    tag_136:\n      swap1\n      pop\n      0x20\n      mul\n      add\n      0x20\n      dup2\n      add\n      swap1\n      tag_137\n      swap2\n      swap1\n      tag_48\n      jump\t// in\n    tag_137:\n        /* \"erc3643/erc3643/Compliance/modular/Modules/CountryAllowModule.sol\":1157:1203  (_allowedCountries[msg.sender])[_countries[i]] */\n      0xffff\n      and\n      dup2\n      mstore\n      0x20\n      dup2\n      add\n      swap2\n      swap1\n      swap2\n      mstore\n      0x40\n      add\n      0x00\n      keccak256\n        /* \"erc3643/erc3643/Compliance/modular/Modules/CountryAllowModule.sol\":1157:1211  (_allowedCountries[msg.sender])[_countries[i]] = false */\n      dup1\n      sload\n      not(0xff)\n      and\n      swap2\n      iszero\n      iszero\n      swap2\n      swap1\n      swap2\n      or\n      swap1\n      sstore\n        /* \"erc3643/erc3643/Compliance/modular/Modules/CountryAllowModule.sol\":1230:1273  CountryUnallowed(msg.sender, _countries[i]) */\n      0x35c7374bcb82f2355cb703c8ab6162f87fe83b99618bdb78c6d19b07ddf060a2\n        /* \"erc3643/erc3643/Compliance/modular/Modules/CountryAllowModule.sol\":1247:1257  msg.sender */\n      caller\n        /* \"erc3643/erc3643/Compliance/modular/Modules/CountryAllowModule.sol\":1259:1269  _countries */\n      dup5\n      dup5\n        /* \"erc3643/erc3643/Compliance/modular/Modules/CountryAllowModule.sol\":1270:1271  i */\n      dup5\n        /* \"erc3643/erc3643/Compliance/modular/Modules/CountryAllowModule.sol\":1259:1272  _countries[i] */\n      dup2\n      dup2\n      lt\n      tag_139\n      jumpi\n      tag_139\n      tag_113\n      jump\t// in\n    tag_139:\n      swap1\n      pop\n      0x20\n      mul\n      add\n      0x20\n      dup2\n      add\n      swap1\n      tag_140\n      swap2\n      swap1\n      tag_48\n      jump\t// in\n    tag_140:\n        /* \"erc3643/erc3643/Compliance/modular/Modules/CountryAllowModule.sol\":1230:1273  CountryUnallowed(msg.sender, _countries[i]) */\n      mload(0x40)\n      tag_141\n      swap3\n      swap2\n      swap1\n      tag_102\n      jump\t// in\n    tag_141:\n      mload(0x40)\n      dup1\n      swap2\n      sub\n      swap1\n      log1\n        /* \"erc3643/erc3643/Compliance/modular/Modules/CountryAllowModule.sol\":1138:1141  i++ */\n      dup1\n      tag_142\n      dup2\n      tag_120\n      jump\t// in\n    tag_142:\n      swap2\n      pop\n      pop\n        /* \"erc3643/erc3643/Compliance/modular/Modules/CountryAllowModule.sol\":1095:1284  for (uint256 i = 0; i < _countries.length; i++) {... */\n      jump(tag_132)\n        /* \"erc3643/erc3643/Compliance/modular/Modules/CountryAllowModule.sol\":2847:3144  function _getCountry(address _compliance, address _userAddress)... */\n    tag_65:\n        /* \"erc3643/erc3643/Compliance/modular/Modules/CountryAllowModule.sol\":2958:2964  uint16 */\n      0x00\n        /* \"erc3643/erc3643/Compliance/modular/Modules/CountryAllowModule.sol\":3025:3036  _compliance */\n      dup3\n      sub(shl(0xa0, 0x01), 0x01)\n        /* \"erc3643/erc3643/Compliance/modular/Modules/CountryAllowModule.sol\":3006:3051  IModularCompliance(_compliance).getTokenBound */\n      and\n      0x6a3edf28\n        /* \"erc3643/erc3643/Compliance/modular/Modules/CountryAllowModule.sol\":3006:3053  IModularCompliance(_compliance).getTokenBound() */\n      mload(0x40)\n      dup2\n      0xffffffff\n      and\n      0xe0\n      shl\n      dup2\n      mstore\n      0x04\n      add\n      0x20\n      mload(0x40)\n      dup1\n      dup4\n      sub\n      dup2\n      dup7\n      gas\n      staticcall\n      iszero\n      dup1\n      iszero\n      tag_149\n      jumpi\n      returndatasize\n      0x00\n      dup1\n      returndatacopy\n      revert(0x00, returndatasize)\n    tag_149:\n      pop\n      pop\n      pop\n      pop\n      mload(0x40)\n      returndatasize\n      not(0x1f)\n      0x1f\n      dup3\n      add\n      and\n      dup3\n      add\n      dup1\n      0x40\n      mstore\n      pop\n      dup2\n      add\n      swap1\n      tag_150\n      swap2\n      swap1\n      tag_151\n      jump\t// in\n    tag_150:\n      sub(shl(0xa0, 0x01), 0x01)\n        /* \"erc3643/erc3643/Compliance/modular/Modules/CountryAllowModule.sol\":2999:3088  IToken(IModularCompliance(_compliance).getTokenBound())... */\n      and\n      0x134e18f4\n        /* \"erc3643/erc3643/Compliance/modular/Modules/CountryAllowModule.sol\":2999:3090  IToken(IModularCompliance(_compliance).getTokenBound())... */\n      mload(0x40)\n      dup2\n      0xffffffff\n      and\n      0xe0\n      shl\n      dup2\n      mstore\n      0x04\n      add\n      0x20\n      mload(0x40)\n      dup1\n      dup4\n      sub\n      dup2\n      dup7\n      gas\n      staticcall\n      iszero\n      dup1\n      iszero\n      tag_153\n      jumpi\n      returndatasize\n      0x00\n      dup1\n      returndatacopy\n      revert(0x00, returndatasize)\n    tag_153:\n      pop\n      pop\n      pop\n      pop\n      mload(0x40)\n      returndatasize\n      not(0x1f)\n      0x1f\n      dup3\n      add\n      and\n      dup3\n      add\n      dup1\n      0x40\n      mstore\n      pop\n      dup2\n      add\n      swap1\n      tag_154\n      swap2\n      swap1\n      tag_151\n      jump\t// in\n    tag_154:\n        /* \"erc3643/erc3643/Compliance/modular/Modules/CountryAllowModule.sol\":2999:3137  IToken(IModularCompliance(_compliance).getTokenBound())... */\n      mload(0x40)\n      shl(0xe0, 0x7e42683b)\n      dup2\n      mstore\n      sub(shl(0xa0, 0x01), 0x01)\n        /* \"#utility.yul\":6195:6227   */\n      dup5\n      dup2\n      and\n        /* \"erc3643/erc3643/Compliance/modular/Modules/CountryAllowModule.sol\":2999:3137  IToken(IModularCompliance(_compliance).getTokenBound())... */\n      0x04\n      dup4\n      add\n        /* \"#utility.yul\":6177:6228   */\n      mstore\n        /* \"erc3643/erc3643/Compliance/modular/Modules/CountryAllowModule.sol\":2999:3123  IToken(IModularCompliance(_compliance).getTokenBound())... */\n      swap2\n      swap1\n      swap2\n      and\n      swap1\n      0x7e42683b\n      swap1\n        /* \"#utility.yul\":6150:6168   */\n      0x24\n      add\n        /* \"erc3643/erc3643/Compliance/modular/Modules/CountryAllowModule.sol\":2999:3137  IToken(IModularCompliance(_compliance).getTokenBound())... */\n      0x20\n      mload(0x40)\n      dup1\n      dup4\n      sub\n      dup2\n      dup7\n      gas\n      staticcall\n      iszero\n      dup1\n      iszero\n      tag_159\n      jumpi\n      returndatasize\n      0x00\n      dup1\n      returndatacopy\n      revert(0x00, returndatasize)\n    tag_159:\n      pop\n      pop\n      pop\n      pop\n      mload(0x40)\n      returndatasize\n      not(0x1f)\n      0x1f\n      dup3\n      add\n      and\n      dup3\n      add\n      dup1\n      0x40\n      mstore\n      pop\n      dup2\n      add\n      swap1\n      tag_160\n      swap2\n      swap1\n      tag_161\n      jump\t// in\n    tag_160:\n        /* \"erc3643/erc3643/Compliance/modular/Modules/CountryAllowModule.sol\":2980:3137  return... */\n      swap4\n        /* \"erc3643/erc3643/Compliance/modular/Modules/CountryAllowModule.sol\":2847:3144  function _getCountry(address _compliance, address _userAddress)... */\n      swap3\n      pop\n      pop\n      pop\n      jump\t// out\n        /* \"#utility.yul\":14:145   */\n    tag_162:\n      sub(shl(0xa0, 0x01), 0x01)\n        /* \"#utility.yul\":89:120   */\n      dup2\n      and\n        /* \"#utility.yul\":79:121   */\n      dup2\n      eq\n        /* \"#utility.yul\":69:139   */\n      tag_166\n      jumpi\n        /* \"#utility.yul\":135:136   */\n      0x00\n        /* \"#utility.yul\":132:133   */\n      dup1\n        /* \"#utility.yul\":125:137   */\n      revert\n        /* \"#utility.yul\":69:139   */\n    tag_166:\n        /* \"#utility.yul\":14:145   */\n      pop\n      jump\t// out\n        /* \"#utility.yul\":150:748   */\n    tag_18:\n        /* \"#utility.yul\":236:242   */\n      0x00\n        /* \"#utility.yul\":244:250   */\n      dup1\n        /* \"#utility.yul\":252:258   */\n      0x00\n        /* \"#utility.yul\":260:266   */\n      dup1\n        /* \"#utility.yul\":313:316   */\n      0x80\n        /* \"#utility.yul\":301:310   */\n      dup6\n        /* \"#utility.yul\":292:299   */\n      dup8\n        /* \"#utility.yul\":288:311   */\n      sub\n        /* \"#utility.yul\":284:317   */\n      slt\n        /* \"#utility.yul\":281:334   */\n      iszero\n      tag_168\n      jumpi\n        /* \"#utility.yul\":330:331   */\n      0x00\n        /* \"#utility.yul\":327:328   */\n      dup1\n        /* \"#utility.yul\":320:332   */\n      revert\n        /* \"#utility.yul\":281:334   */\n    tag_168:\n        /* \"#utility.yul\":369:378   */\n      dup5\n        /* \"#utility.yul\":356:379   */\n      calldataload\n        /* \"#utility.yul\":388:419   */\n      tag_169\n        /* \"#utility.yul\":413:418   */\n      dup2\n        /* \"#utility.yul\":388:419   */\n      tag_162\n      jump\t// in\n    tag_169:\n        /* \"#utility.yul\":438:443   */\n      swap4\n      pop\n        /* \"#utility.yul\":495:497   */\n      0x20\n        /* \"#utility.yul\":480:498   */\n      dup6\n      add\n        /* \"#utility.yul\":467:499   */\n      calldataload\n        /* \"#utility.yul\":508:541   */\n      tag_170\n        /* \"#utility.yul\":467:499   */\n      dup2\n        /* \"#utility.yul\":508:541   */\n      tag_162\n      jump\t// in\n    tag_170:\n        /* \"#utility.yul\":560:567   */\n      swap3\n      pop\n        /* \"#utility.yul\":614:616   */\n      0x40\n        /* \"#utility.yul\":599:617   */\n      dup6\n      add\n        /* \"#utility.yul\":586:618   */\n      calldataload\n      swap2\n      pop\n        /* \"#utility.yul\":670:672   */\n      0x60\n        /* \"#utility.yul\":655:673   */\n      dup6\n      add\n        /* \"#utility.yul\":642:674   */\n      calldataload\n        /* \"#utility.yul\":683:716   */\n      tag_171\n        /* \"#utility.yul\":642:674   */\n      dup2\n        /* \"#utility.yul\":683:716   */\n      tag_162\n      jump\t// in\n    tag_171:\n        /* \"#utility.yul\":150:748   */\n      swap4\n      swap7\n      swap3\n      swap6\n      pop\n      swap1\n      swap4\n      pop\n      pop\n      jump\t// out\n        /* \"#utility.yul\":945:1192   */\n    tag_24:\n        /* \"#utility.yul\":1004:1010   */\n      0x00\n        /* \"#utility.yul\":1057:1059   */\n      0x20\n        /* \"#utility.yul\":1045:1054   */\n      dup3\n        /* \"#utility.yul\":1036:1043   */\n      dup5\n        /* \"#utility.yul\":1032:1055   */\n      sub\n        /* \"#utility.yul\":1028:1060   */\n      slt\n        /* \"#utility.yul\":1025:1077   */\n      iszero\n      tag_174\n      jumpi\n        /* \"#utility.yul\":1073:1074   */\n      0x00\n        /* \"#utility.yul\":1070:1071   */\n      dup1\n        /* \"#utility.yul\":1063:1075   */\n      revert\n        /* \"#utility.yul\":1025:1077   */\n    tag_174:\n        /* \"#utility.yul\":1112:1121   */\n      dup2\n        /* \"#utility.yul\":1099:1122   */\n      calldataload\n        /* \"#utility.yul\":1131:1162   */\n      tag_160\n        /* \"#utility.yul\":1156:1161   */\n      dup2\n        /* \"#utility.yul\":1131:1162   */\n      tag_162\n      jump\t// in\n        /* \"#utility.yul\":1197:1314   */\n    tag_163:\n        /* \"#utility.yul\":1282:1288   */\n      0xffff\n        /* \"#utility.yul\":1275:1280   */\n      dup2\n        /* \"#utility.yul\":1271:1289   */\n      and\n        /* \"#utility.yul\":1264:1269   */\n      dup2\n        /* \"#utility.yul\":1261:1290   */\n      eq\n        /* \"#utility.yul\":1251:1308   */\n      tag_166\n      jumpi\n        /* \"#utility.yul\":1304:1305   */\n      0x00\n        /* \"#utility.yul\":1301:1302   */\n      dup1\n        /* \"#utility.yul\":1294:1306   */\n      revert\n        /* \"#utility.yul\":1319:1705   */\n    tag_28:\n        /* \"#utility.yul\":1386:1392   */\n      0x00\n        /* \"#utility.yul\":1394:1400   */\n      dup1\n        /* \"#utility.yul\":1447:1449   */\n      0x40\n        /* \"#utility.yul\":1435:1444   */\n      dup4\n        /* \"#utility.yul\":1426:1433   */\n      dup6\n        /* \"#utility.yul\":1422:1445   */\n      sub\n        /* \"#utility.yul\":1418:1450   */\n      slt\n        /* \"#utility.yul\":1415:1467   */\n      iszero\n      tag_179\n      jumpi\n        /* \"#utility.yul\":1463:1464   */\n      0x00\n        /* \"#utility.yul\":1460:1461   */\n      dup1\n        /* \"#utility.yul\":1453:1465   */\n      revert\n        /* \"#utility.yul\":1415:1467   */\n    tag_179:\n        /* \"#utility.yul\":1502:1511   */\n      dup3\n        /* \"#utility.yul\":1489:1512   */\n      calldataload\n        /* \"#utility.yul\":1521:1552   */\n      tag_180\n        /* \"#utility.yul\":1546:1551   */\n      dup2\n        /* \"#utility.yul\":1521:1552   */\n      tag_162\n      jump\t// in\n    tag_180:\n        /* \"#utility.yul\":1571:1576   */\n      swap2\n      pop\n        /* \"#utility.yul\":1628:1630   */\n      0x20\n        /* \"#utility.yul\":1613:1631   */\n      dup4\n      add\n        /* \"#utility.yul\":1600:1632   */\n      calldataload\n        /* \"#utility.yul\":1641:1673   */\n      tag_181\n        /* \"#utility.yul\":1600:1632   */\n      dup2\n        /* \"#utility.yul\":1641:1673   */\n      tag_163\n      jump\t// in\n    tag_181:\n        /* \"#utility.yul\":1692:1699   */\n      dup1\n        /* \"#utility.yul\":1682:1699   */\n      swap2\n      pop\n      pop\n        /* \"#utility.yul\":1319:1705   */\n      swap3\n      pop\n      swap3\n      swap1\n      pop\n      jump\t// out\n        /* \"#utility.yul\":1710:2166   */\n    tag_33:\n        /* \"#utility.yul\":1787:1793   */\n      0x00\n        /* \"#utility.yul\":1795:1801   */\n      dup1\n        /* \"#utility.yul\":1803:1809   */\n      0x00\n        /* \"#utility.yul\":1856:1858   */\n      0x60\n        /* \"#utility.yul\":1844:1853   */\n      dup5\n        /* \"#utility.yul\":1835:1842   */\n      dup7\n        /* \"#utility.yul\":1831:1854   */\n      sub\n        /* \"#utility.yul\":1827:1859   */\n      slt\n        /* \"#utility.yul\":1824:1876   */\n      iszero\n      tag_183\n      jumpi\n        /* \"#utility.yul\":1872:1873   */\n      0x00\n        /* \"#utility.yul\":1869:1870   */\n      dup1\n        /* \"#utility.yul\":1862:1874   */\n      revert\n        /* \"#utility.yul\":1824:1876   */\n    tag_183:\n        /* \"#utility.yul\":1911:1920   */\n      dup4\n        /* \"#utility.yul\":1898:1921   */\n      calldataload\n        /* \"#utility.yul\":1930:1961   */\n      tag_184\n        /* \"#utility.yul\":1955:1960   */\n      dup2\n        /* \"#utility.yul\":1930:1961   */\n      tag_162\n      jump\t// in\n    tag_184:\n        /* \"#utility.yul\":1980:1985   */\n      swap3\n      pop\n        /* \"#utility.yul\":2037:2039   */\n      0x20\n        /* \"#utility.yul\":2022:2040   */\n      dup5\n      add\n        /* \"#utility.yul\":2009:2041   */\n      calldataload\n        /* \"#utility.yul\":2050:2083   */\n      tag_185\n        /* \"#utility.yul\":2009:2041   */\n      dup2\n        /* \"#utility.yul\":2050:2083   */\n      tag_162\n      jump\t// in\n    tag_185:\n        /* \"#utility.yul\":1710:2166   */\n      swap3\n      swap6\n        /* \"#utility.yul\":2102:2109   */\n      swap3\n      swap5\n      pop\n      pop\n      pop\n        /* \"#utility.yul\":2156:2158   */\n      0x40\n        /* \"#utility.yul\":2141:2159   */\n      swap2\n      swap1\n      swap2\n      add\n        /* \"#utility.yul\":2128:2160   */\n      calldataload\n      swap1\n        /* \"#utility.yul\":1710:2166   */\n      jump\t// out\n        /* \"#utility.yul\":2171:2486   */\n    tag_37:\n        /* \"#utility.yul\":2239:2245   */\n      0x00\n        /* \"#utility.yul\":2247:2253   */\n      dup1\n        /* \"#utility.yul\":2300:2302   */\n      0x40\n        /* \"#utility.yul\":2288:2297   */\n      dup4\n        /* \"#utility.yul\":2279:2286   */\n      dup6\n        /* \"#utility.yul\":2275:2298   */\n      sub\n        /* \"#utility.yul\":2271:2303   */\n      slt\n        /* \"#utility.yul\":2268:2320   */\n      iszero\n      tag_187\n      jumpi\n        /* \"#utility.yul\":2316:2317   */\n      0x00\n        /* \"#utility.yul\":2313:2314   */\n      dup1\n        /* \"#utility.yul\":2306:2318   */\n      revert\n        /* \"#utility.yul\":2268:2320   */\n    tag_187:\n        /* \"#utility.yul\":2355:2364   */\n      dup3\n        /* \"#utility.yul\":2342:2365   */\n      calldataload\n        /* \"#utility.yul\":2374:2405   */\n      tag_188\n        /* \"#utility.yul\":2399:2404   */\n      dup2\n        /* \"#utility.yul\":2374:2405   */\n      tag_162\n      jump\t// in\n    tag_188:\n        /* \"#utility.yul\":2424:2429   */\n      swap5\n        /* \"#utility.yul\":2476:2478   */\n      0x20\n        /* \"#utility.yul\":2461:2479   */\n      swap4\n      swap1\n      swap4\n      add\n        /* \"#utility.yul\":2448:2480   */\n      calldataload\n      swap4\n      pop\n      pop\n      pop\n        /* \"#utility.yul\":2171:2486   */\n      jump\t// out\n        /* \"#utility.yul\":2491:2736   */\n    tag_48:\n        /* \"#utility.yul\":2549:2555   */\n      0x00\n        /* \"#utility.yul\":2602:2604   */\n      0x20\n        /* \"#utility.yul\":2590:2599   */\n      dup3\n        /* \"#utility.yul\":2581:2588   */\n      dup5\n        /* \"#utility.yul\":2577:2600   */\n      sub\n        /* \"#utility.yul\":2573:2605   */\n      slt\n        /* \"#utility.yul\":2570:2622   */\n      iszero\n      tag_190\n      jumpi\n        /* \"#utility.yul\":2618:2619   */\n      0x00\n        /* \"#utility.yul\":2615:2616   */\n      dup1\n        /* \"#utility.yul\":2608:2620   */\n      revert\n        /* \"#utility.yul\":2570:2622   */\n    tag_190:\n        /* \"#utility.yul\":2657:2666   */\n      dup2\n        /* \"#utility.yul\":2644:2667   */\n      calldataload\n        /* \"#utility.yul\":2676:2706   */\n      tag_160\n        /* \"#utility.yul\":2700:2705   */\n      dup2\n        /* \"#utility.yul\":2676:2706   */\n      tag_163\n      jump\t// in\n        /* \"#utility.yul\":2741:3355   */\n    tag_52:\n        /* \"#utility.yul\":2826:2832   */\n      0x00\n        /* \"#utility.yul\":2834:2840   */\n      dup1\n        /* \"#utility.yul\":2887:2889   */\n      0x20\n        /* \"#utility.yul\":2875:2884   */\n      dup4\n        /* \"#utility.yul\":2866:2873   */\n      dup6\n        /* \"#utility.yul\":2862:2885   */\n      sub\n        /* \"#utility.yul\":2858:2890   */\n      slt\n        /* \"#utility.yul\":2855:2907   */\n      iszero\n      tag_193\n      jumpi\n        /* \"#utility.yul\":2903:2904   */\n      0x00\n        /* \"#utility.yul\":2900:2901   */\n      dup1\n        /* \"#utility.yul\":2893:2905   */\n      revert\n        /* \"#utility.yul\":2855:2907   */\n    tag_193:\n        /* \"#utility.yul\":2943:2952   */\n      dup3\n        /* \"#utility.yul\":2930:2953   */\n      calldataload\n        /* \"#utility.yul\":2972:2990   */\n      0xffffffffffffffff\n        /* \"#utility.yul\":3013:3015   */\n      dup1\n        /* \"#utility.yul\":3005:3011   */\n      dup3\n        /* \"#utility.yul\":3002:3016   */\n      gt\n        /* \"#utility.yul\":2999:3033   */\n      iszero\n      tag_194\n      jumpi\n        /* \"#utility.yul\":3029:3030   */\n      0x00\n        /* \"#utility.yul\":3026:3027   */\n      dup1\n        /* \"#utility.yul\":3019:3031   */\n      revert\n        /* \"#utility.yul\":2999:3033   */\n    tag_194:\n        /* \"#utility.yul\":3067:3073   */\n      dup2\n        /* \"#utility.yul\":3056:3065   */\n      dup6\n        /* \"#utility.yul\":3052:3074   */\n      add\n        /* \"#utility.yul\":3042:3074   */\n      swap2\n      pop\n        /* \"#utility.yul\":3112:3119   */\n      dup6\n        /* \"#utility.yul\":3105:3109   */\n      0x1f\n        /* \"#utility.yul\":3101:3103   */\n      dup4\n        /* \"#utility.yul\":3097:3110   */\n      add\n        /* \"#utility.yul\":3093:3120   */\n      slt\n        /* \"#utility.yul\":3083:3138   */\n      tag_195\n      jumpi\n        /* \"#utility.yul\":3134:3135   */\n      0x00\n        /* \"#utility.yul\":3131:3132   */\n      dup1\n        /* \"#utility.yul\":3124:3136   */\n      revert\n        /* \"#utility.yul\":3083:3138   */\n    tag_195:\n        /* \"#utility.yul\":3174:3176   */\n      dup2\n        /* \"#utility.yul\":3161:3177   */\n      calldataload\n        /* \"#utility.yul\":3200:3202   */\n      dup2\n        /* \"#utility.yul\":3192:3198   */\n      dup2\n        /* \"#utility.yul\":3189:3203   */\n      gt\n        /* \"#utility.yul\":3186:3220   */\n      iszero\n      tag_196\n      jumpi\n        /* \"#utility.yul\":3216:3217   */\n      0x00\n        /* \"#utility.yul\":3213:3214   */\n      dup1\n        /* \"#utility.yul\":3206:3218   */\n      revert\n        /* \"#utility.yul\":3186:3220   */\n    tag_196:\n        /* \"#utility.yul\":3269:3276   */\n      dup7\n        /* \"#utility.yul\":3264:3266   */\n      0x20\n        /* \"#utility.yul\":3254:3260   */\n      dup3\n        /* \"#utility.yul\":3251:3252   */\n      0x05\n        /* \"#utility.yul\":3247:3261   */\n      shl\n        /* \"#utility.yul\":3243:3245   */\n      dup6\n        /* \"#utility.yul\":3239:3262   */\n      add\n        /* \"#utility.yul\":3235:3267   */\n      add\n        /* \"#utility.yul\":3232:3277   */\n      gt\n        /* \"#utility.yul\":3229:3294   */\n      iszero\n      tag_197\n      jumpi\n        /* \"#utility.yul\":3290:3291   */\n      0x00\n        /* \"#utility.yul\":3287:3288   */\n      dup1\n        /* \"#utility.yul\":3280:3292   */\n      revert\n        /* \"#utility.yul\":3229:3294   */\n    tag_197:\n        /* \"#utility.yul\":3321:3323   */\n      0x20\n        /* \"#utility.yul\":3313:3324   */\n      swap3\n      swap1\n      swap3\n      add\n      swap7\n        /* \"#utility.yul\":3343:3349   */\n      swap2\n      swap6\n      pop\n        /* \"#utility.yul\":2741:3355   */\n      swap1\n      swap4\n      pop\n      pop\n      pop\n      pop\n      jump\t// out\n        /* \"#utility.yul\":3360:3714   */\n    tag_70:\n        /* \"#utility.yul\":3562:3564   */\n      0x20\n        /* \"#utility.yul\":3544:3565   */\n      dup1\n      dup3\n      mstore\n        /* \"#utility.yul\":3601:3603   */\n      0x1e\n        /* \"#utility.yul\":3581:3599   */\n      swap1\n      dup3\n      add\n        /* \"#utility.yul\":3574:3604   */\n      mstore\n        /* \"#utility.yul\":3640:3672   */\n      0x6f6e6c7920626f756e6420636f6d706c69616e63652063616e2063616c6c0000\n        /* \"#utility.yul\":3635:3637   */\n      0x40\n        /* \"#utility.yul\":3620:3638   */\n      dup3\n      add\n        /* \"#utility.yul\":3613:3673   */\n      mstore\n        /* \"#utility.yul\":3705:3707   */\n      0x60\n        /* \"#utility.yul\":3690:3708   */\n      add\n      swap1\n        /* \"#utility.yul\":3360:3714   */\n      jump\t// out\n        /* \"#utility.yul\":4079:4476   */\n    tag_77:\n        /* \"#utility.yul\":4281:4283   */\n      0x20\n        /* \"#utility.yul\":4263:4284   */\n      dup1\n      dup3\n      mstore\n        /* \"#utility.yul\":4320:4322   */\n      0x21\n        /* \"#utility.yul\":4300:4318   */\n      swap1\n      dup3\n      add\n        /* \"#utility.yul\":4293:4323   */\n      mstore\n        /* \"#utility.yul\":4359:4393   */\n      0x6f6e6c7920636f6d706c69616e636520636f6e74726163742063616e2063616c\n        /* \"#utility.yul\":4354:4356   */\n      0x40\n        /* \"#utility.yul\":4339:4357   */\n      dup3\n      add\n        /* \"#utility.yul\":4332:4394   */\n      mstore\n      shl(0xfa, 0x1b)\n        /* \"#utility.yul\":4425:4427   */\n      0x60\n        /* \"#utility.yul\":4410:4428   */\n      dup3\n      add\n        /* \"#utility.yul\":4403:4434   */\n      mstore\n        /* \"#utility.yul\":4466:4469   */\n      0x80\n        /* \"#utility.yul\":4451:4470   */\n      add\n      swap1\n        /* \"#utility.yul\":4079:4476   */\n      jump\t// out\n        /* \"#utility.yul\":4834:5119   */\n    tag_102:\n      sub(shl(0xa0, 0x01), 0x01)\n        /* \"#utility.yul\":5024:5056   */\n      swap3\n      swap1\n      swap3\n      and\n        /* \"#utility.yul\":5006:5057   */\n      dup3\n      mstore\n        /* \"#utility.yul\":5105:5111   */\n      0xffff\n        /* \"#utility.yul\":5093:5112   */\n      and\n        /* \"#utility.yul\":5088:5090   */\n      0x20\n        /* \"#utility.yul\":5073:5091   */\n      dup3\n      add\n        /* \"#utility.yul\":5066:5113   */\n      mstore\n        /* \"#utility.yul\":4994:4996   */\n      0x40\n        /* \"#utility.yul\":4979:4997   */\n      add\n      swap1\n        /* \"#utility.yul\":4834:5119   */\n      jump\t// out\n        /* \"#utility.yul\":5124:5251   */\n    tag_113:\n        /* \"#utility.yul\":5185:5195   */\n      0x4e487b71\n        /* \"#utility.yul\":5180:5183   */\n      0xe0\n        /* \"#utility.yul\":5176:5196   */\n      shl\n        /* \"#utility.yul\":5173:5174   */\n      0x00\n        /* \"#utility.yul\":5166:5197   */\n      mstore\n        /* \"#utility.yul\":5216:5220   */\n      0x32\n        /* \"#utility.yul\":5213:5214   */\n      0x04\n        /* \"#utility.yul\":5206:5221   */\n      mstore\n        /* \"#utility.yul\":5240:5244   */\n      0x24\n        /* \"#utility.yul\":5237:5238   */\n      0x00\n        /* \"#utility.yul\":5230:5245   */\n      revert\n        /* \"#utility.yul\":5256:5488   */\n    tag_120:\n        /* \"#utility.yul\":5295:5298   */\n      0x00\n        /* \"#utility.yul\":5316:5333   */\n      0x01\n      dup3\n      add\n        /* \"#utility.yul\":5313:5453   */\n      tag_205\n      jumpi\n        /* \"#utility.yul\":5375:5385   */\n      0x4e487b71\n        /* \"#utility.yul\":5370:5373   */\n      0xe0\n        /* \"#utility.yul\":5366:5386   */\n      shl\n        /* \"#utility.yul\":5363:5364   */\n      0x00\n        /* \"#utility.yul\":5356:5387   */\n      mstore\n        /* \"#utility.yul\":5410:5414   */\n      0x11\n        /* \"#utility.yul\":5407:5408   */\n      0x04\n        /* \"#utility.yul\":5400:5415   */\n      mstore\n        /* \"#utility.yul\":5438:5442   */\n      0x24\n        /* \"#utility.yul\":5435:5436   */\n      0x00\n        /* \"#utility.yul\":5428:5443   */\n      revert\n        /* \"#utility.yul\":5313:5453   */\n    tag_205:\n      pop\n        /* \"#utility.yul\":5480:5481   */\n      0x01\n        /* \"#utility.yul\":5469:5482   */\n      add\n      swap1\n        /* \"#utility.yul\":5256:5488   */\n      jump\t// out\n        /* \"#utility.yul\":5493:5744   */\n    tag_151:\n        /* \"#utility.yul\":5563:5569   */\n      0x00\n        /* \"#utility.yul\":5616:5618   */\n      0x20\n        /* \"#utility.yul\":5604:5613   */\n      dup3\n        /* \"#utility.yul\":5595:5602   */\n      dup5\n        /* \"#utility.yul\":5591:5614   */\n      sub\n        /* \"#utility.yul\":5587:5619   */\n      slt\n        /* \"#utility.yul\":5584:5636   */\n      iszero\n      tag_207\n      jumpi\n        /* \"#utility.yul\":5632:5633   */\n      0x00\n        /* \"#utility.yul\":5629:5630   */\n      dup1\n        /* \"#utility.yul\":5622:5634   */\n      revert\n        /* \"#utility.yul\":5584:5636   */\n    tag_207:\n        /* \"#utility.yul\":5664:5673   */\n      dup2\n        /* \"#utility.yul\":5658:5674   */\n      mload\n        /* \"#utility.yul\":5683:5714   */\n      tag_160\n        /* \"#utility.yul\":5708:5713   */\n      dup2\n        /* \"#utility.yul\":5683:5714   */\n      tag_162\n      jump\t// in\n        /* \"#utility.yul\":6239:6488   */\n    tag_161:\n        /* \"#utility.yul\":6308:6314   */\n      0x00\n        /* \"#utility.yul\":6361:6363   */\n      0x20\n        /* \"#utility.yul\":6349:6358   */\n      dup3\n        /* \"#utility.yul\":6340:6347   */\n      dup5\n        /* \"#utility.yul\":6336:6359   */\n      sub\n        /* \"#utility.yul\":6332:6364   */\n      slt\n        /* \"#utility.yul\":6329:6381   */\n      iszero\n      tag_214\n      jumpi\n        /* \"#utility.yul\":6377:6378   */\n      0x00\n        /* \"#utility.yul\":6374:6375   */\n      dup1\n        /* \"#utility.yul\":6367:6379   */\n      revert\n        /* \"#utility.yul\":6329:6381   */\n    tag_214:\n        /* \"#utility.yul\":6409:6418   */\n      dup2\n        /* \"#utility.yul\":6403:6419   */\n      mload\n        /* \"#utility.yul\":6428:6458   */\n      tag_160\n        /* \"#utility.yul\":6452:6457   */\n      dup2\n        /* \"#utility.yul\":6428:6458   */\n      tag_163\n      jump\t// in\n\n    auxdata: 0xa264697066735822122097dd6184d6757182795a4d2bd2b826ebc1d37426db2a0f366708c9ab6d45a1a964736f6c63430008110033\n}\n",
				"bytecode": {
					"linkReferences": {},
					"object": "608060405234801561001057600080fd5b50610cc1806100206000396000f3fe608060405234801561001057600080fd5b50600436106100b45760003560e01c80634cf4d295116100715780634cf4d2951461016d5780634f44425e14610199578063771c5281146101ac578063817544c3146101bf578063c08e1502146101d2578063f104a8c91461014757600080fd5b8063013b7ce4146100b95780630694a5fb146100e05780630f4f0904146100f55780632cb7e1ec14610134578063372491a2146101475780634a9325441461015a575b600080fd5b6100cc6100c73660046109c7565b6101e5565b604051901515815260200160405180910390f35b6100f36100ee366004610a1a565b61022a565b005b6100cc610103366004610a47565b6001600160a01b038216600090815260016020908152604080832061ffff8516845290915290205460ff1692915050565b6100f3610142366004610a80565b610329565b6100f3610155366004610ac1565b61035d565b6100f3610168366004610a1a565b610390565b6100cc61017b366004610a1a565b6001600160a01b031660009081526020819052604090205460ff1690565b6100f36101a7366004610aed565b6104c3565b6100f36101ba366004610b0a565b61059e565b6100f36101cd366004610aed565b6106a6565b6100f36101e0366004610b0a565b610772565b6000806101f28386610877565b6001600160a01b038416600090815260016020908152604080832061ffff8516845290915290205490915060ff169695505050505050565b3360009081526020819052604090205460ff166102625760405162461bcd60e51b815260040161025990610b7f565b60405180910390fd5b6001600160a01b0381166102b85760405162461bcd60e51b815260206004820152601f60248201527f696e76616c696420617267756d656e74202d207a65726f2061646472657373006044820152606401610259565b336001600160a01b038216146102e05760405162461bcd60e51b815260040161025990610bb6565b6001600160a01b038116600081815260208190526040808220805460ff19169055517f408b49d9be1c914c52a0227e18a077e5a892dddf32a26cfa94a5d9708fad77189190a250565b3360009081526020819052604090205460ff166103585760405162461bcd60e51b815260040161025990610b7f565b505050565b3360009081526020819052604090205460ff1661038c5760405162461bcd60e51b815260040161025990610b7f565b5050565b6001600160a01b0381166103e65760405162461bcd60e51b815260206004820152601f60248201527f696e76616c696420617267756d656e74202d207a65726f2061646472657373006044820152606401610259565b6001600160a01b03811660009081526020819052604090205460ff161561044f5760405162461bcd60e51b815260206004820152601860248201527f636f6d706c69616e636520616c726561647920626f756e6400000000000000006044820152606401610259565b336001600160a01b038216146104775760405162461bcd60e51b815260040161025990610bb6565b6001600160a01b038116600081815260208190526040808220805460ff19166001179055517f1f7b76c58fb697eb53c6c7c1becb96911516a136e24d7ced386b2355358b75a39190a250565b3360009081526020819052604090205460ff166104f25760405162461bcd60e51b815260040161025990610b7f565b33600090815260016020818152604080842061ffff861685529091529091205460ff161515900361053a57338160405163af6d613560e01b8152600401610259929190610bf7565b33600081815260016020818152604080842061ffff8716855290915291829020805460ff19169091179055517f48c279381632bf87fca2680865a7384b6eb20716fd96b882b305a2198930a07491610593918490610bf7565b60405180910390a150565b3360009081526020819052604090205460ff166105cd5760405162461bcd60e51b815260040161025990610b7f565b60005b8181101561035857336000908152600160208190526040822090918585858181106105fd576105fd610c14565b90506020020160208101906106129190610aed565b61ffff1681526020810191909152604001600020805460ff19169115159190911790557f48c279381632bf87fca2680865a7384b6eb20716fd96b882b305a2198930a0743384848481811061066957610669610c14565b905060200201602081019061067e9190610aed565b60405161068c929190610bf7565b60405180910390a18061069e81610c2a565b9150506105d0565b3360009081526020819052604090205460ff166106d55760405162461bcd60e51b815260040161025990610b7f565b33600090815260016020908152604080832061ffff8516845290915281205460ff161515900361071c57338160405163236a687560e11b8152600401610259929190610bf7565b33600081815260016020908152604080832061ffff8616845290915290819020805460ff19169055517f35c7374bcb82f2355cb703c8ab6162f87fe83b99618bdb78c6d19b07ddf060a291610593918490610bf7565b3360009081526020819052604090205460ff166107a15760405162461bcd60e51b815260040161025990610b7f565b60005b8181101561035857336000908152600160205260408120818585858181106107ce576107ce610c14565b90506020020160208101906107e39190610aed565b61ffff1681526020810191909152604001600020805460ff19169115159190911790557f35c7374bcb82f2355cb703c8ab6162f87fe83b99618bdb78c6d19b07ddf060a23384848481811061083a5761083a610c14565b905060200201602081019061084f9190610aed565b60405161085d929190610bf7565b60405180910390a18061086f81610c2a565b9150506107a4565b6000826001600160a01b0316636a3edf286040518163ffffffff1660e01b8152600401602060405180830381865afa1580156108b7573d6000803e3d6000fd5b505050506040513d601f19601f820116820180604052508101906108db9190610c51565b6001600160a01b031663134e18f46040518163ffffffff1660e01b8152600401602060405180830381865afa158015610918573d6000803e3d6000fd5b505050506040513d601f19601f8201168201806040525081019061093c9190610c51565b604051637e42683b60e01b81526001600160a01b0384811660048301529190911690637e42683b90602401602060405180830381865afa158015610984573d6000803e3d6000fd5b505050506040513d601f19601f820116820180604052508101906109a89190610c6e565b9392505050565b6001600160a01b03811681146109c457600080fd5b50565b600080600080608085870312156109dd57600080fd5b84356109e8816109af565b935060208501356109f8816109af565b9250604085013591506060850135610a0f816109af565b939692955090935050565b600060208284031215610a2c57600080fd5b81356109a8816109af565b61ffff811681146109c457600080fd5b60008060408385031215610a5a57600080fd5b8235610a65816109af565b91506020830135610a7581610a37565b809150509250929050565b600080600060608486031215610a9557600080fd5b8335610aa0816109af565b92506020840135610ab0816109af565b929592945050506040919091013590565b60008060408385031215610ad457600080fd5b8235610adf816109af565b946020939093013593505050565b600060208284031215610aff57600080fd5b81356109a881610a37565b60008060208385031215610b1d57600080fd5b823567ffffffffffffffff80821115610b3557600080fd5b818501915085601f830112610b4957600080fd5b813581811115610b5857600080fd5b8660208260051b8501011115610b6d57600080fd5b60209290920196919550909350505050565b6020808252601e908201527f6f6e6c7920626f756e6420636f6d706c69616e63652063616e2063616c6c0000604082015260600190565b60208082526021908201527f6f6e6c7920636f6d706c69616e636520636f6e74726163742063616e2063616c6040820152601b60fa1b606082015260800190565b6001600160a01b0392909216825261ffff16602082015260400190565b634e487b7160e01b600052603260045260246000fd5b600060018201610c4a57634e487b7160e01b600052601160045260246000fd5b5060010190565b600060208284031215610c6357600080fd5b81516109a8816109af565b600060208284031215610c8057600080fd5b81516109a881610a3756fea264697066735822122097dd6184d6757182795a4d2bd2b826ebc1d37426db2a0f366708c9ab6d45a1a964736f6c63430008110033",
					"opcodes": "PUSH1 0x80 PUSH1 0x40 MSTORE CALLVALUE DUP1 ISZERO PUSH2 0x10 JUMPI PUSH1 0x0 DUP1 REVERT JUMPDEST POP PUSH2 0xCC1 DUP1 PUSH2 0x20 PUSH1 0x0 CODECOPY PUSH1 0x0 RETURN INVALID PUSH1 0x80 PUSH1 0x40 MSTORE CALLVALUE DUP1 ISZERO PUSH2 0x10 JUMPI PUSH1 0x0 DUP1 REVERT JUMPDEST POP PUSH1 0x4 CALLDATASIZE LT PUSH2 0xB4 JUMPI PUSH1 0x0 CALLDATALOAD PUSH1 0xE0 SHR DUP1 PUSH4 0x4CF4D295 GT PUSH2 0x71 JUMPI DUP1 PUSH4 0x4CF4D295 EQ PUSH2 0x16D JUMPI DUP1 PUSH4 0x4F44425E EQ PUSH2 0x199 JUMPI DUP1 PUSH4 0x771C5281 EQ PUSH2 0x1AC JUMPI DUP1 PUSH4 0x817544C3 EQ PUSH2 0x1BF JUMPI DUP1 PUSH4 0xC08E1502 EQ PUSH2 0x1D2 JUMPI DUP1 PUSH4 0xF104A8C9 EQ PUSH2 0x147 JUMPI PUSH1 0x0 DUP1 REVERT JUMPDEST DUP1 PUSH4 0x13B7CE4 EQ PUSH2 0xB9 JUMPI DUP1 PUSH4 0x694A5FB EQ PUSH2 0xE0 JUMPI DUP1 PUSH4 0xF4F0904 EQ PUSH2 0xF5 JUMPI DUP1 PUSH4 0x2CB7E1EC EQ PUSH2 0x134 JUMPI DUP1 PUSH4 0x372491A2 EQ PUSH2 0x147 JUMPI DUP1 PUSH4 0x4A932544 EQ PUSH2 0x15A JUMPI JUMPDEST PUSH1 0x0 DUP1 REVERT JUMPDEST PUSH2 0xCC PUSH2 0xC7 CALLDATASIZE PUSH1 0x4 PUSH2 0x9C7 JUMP JUMPDEST PUSH2 0x1E5 JUMP JUMPDEST PUSH1 0x40 MLOAD SWAP1 ISZERO ISZERO DUP2 MSTORE PUSH1 0x20 ADD PUSH1 0x40 MLOAD DUP1 SWAP2 SUB SWAP1 RETURN JUMPDEST PUSH2 0xF3 PUSH2 0xEE CALLDATASIZE PUSH1 0x4 PUSH2 0xA1A JUMP JUMPDEST PUSH2 0x22A JUMP JUMPDEST STOP JUMPDEST PUSH2 0xCC PUSH2 0x103 CALLDATASIZE PUSH1 0x4 PUSH2 0xA47 JUMP JUMPDEST PUSH1 0x1 PUSH1 0x1 PUSH1 0xA0 SHL SUB DUP3 AND PUSH1 0x0 SWAP1 DUP2 MSTORE PUSH1 0x1 PUSH1 0x20 SWAP1 DUP2 MSTORE PUSH1 0x40 DUP1 DUP4 KECCAK256 PUSH2 0xFFFF DUP6 AND DUP5 MSTORE SWAP1 SWAP2 MSTORE SWAP1 KECCAK256 SLOAD PUSH1 0xFF AND SWAP3 SWAP2 POP POP JUMP JUMPDEST PUSH2 0xF3 PUSH2 0x142 CALLDATASIZE PUSH1 0x4 PUSH2 0xA80 JUMP JUMPDEST PUSH2 0x329 JUMP JUMPDEST PUSH2 0xF3 PUSH2 0x155 CALLDATASIZE PUSH1 0x4 PUSH2 0xAC1 JUMP JUMPDEST PUSH2 0x35D JUMP JUMPDEST PUSH2 0xF3 PUSH2 0x168 CALLDATASIZE PUSH1 0x4 PUSH2 0xA1A JUMP JUMPDEST PUSH2 0x390 JUMP JUMPDEST PUSH2 0xCC PUSH2 0x17B CALLDATASIZE PUSH1 0x4 PUSH2 0xA1A JUMP JUMPDEST PUSH1 0x1 PUSH1 0x1 PUSH1 0xA0 SHL SUB AND PUSH1 0x0 SWAP1 DUP2 MSTORE PUSH1 0x20 DUP2 SWAP1 MSTORE PUSH1 0x40 SWAP1 KECCAK256 SLOAD PUSH1 0xFF AND SWAP1 JUMP JUMPDEST PUSH2 0xF3 PUSH2 0x1A7 CALLDATASIZE PUSH1 0x4 PUSH2 0xAED JUMP JUMPDEST PUSH2 0x4C3 JUMP JUMPDEST PUSH2 0xF3 PUSH2 0x1BA CALLDATASIZE PUSH1 0x4 PUSH2 0xB0A JUMP JUMPDEST PUSH2 0x59E JUMP JUMPDEST PUSH2 0xF3 PUSH2 0x1CD CALLDATASIZE PUSH1 0x4 PUSH2 0xAED JUMP JUMPDEST PUSH2 0x6A6 JUMP JUMPDEST PUSH2 0xF3 PUSH2 0x1E0 CALLDATASIZE PUSH1 0x4 PUSH2 0xB0A JUMP JUMPDEST PUSH2 0x772 JUMP JUMPDEST PUSH1 0x0 DUP1 PUSH2 0x1F2 DUP4 DUP7 PUSH2 0x877 JUMP JUMPDEST PUSH1 0x1 PUSH1 0x1 PUSH1 0xA0 SHL SUB DUP5 AND PUSH1 0x0 SWAP1 DUP2 MSTORE PUSH1 0x1 PUSH1 0x20 SWAP1 DUP2 MSTORE PUSH1 0x40 DUP1 DUP4 KECCAK256 PUSH2 0xFFFF DUP6 AND DUP5 MSTORE SWAP1 SWAP2 MSTORE SWAP1 KECCAK256 SLOAD SWAP1 SWAP2 POP PUSH1 0xFF AND SWAP7 SWAP6 POP POP POP POP POP POP JUMP JUMPDEST CALLER PUSH1 0x0 SWAP1 DUP2 MSTORE PUSH1 0x20 DUP2 SWAP1 MSTORE PUSH1 0x40 SWAP1 KECCAK256 SLOAD PUSH1 0xFF AND PUSH2 0x262 JUMPI PUSH1 0x40 MLOAD PUSH3 0x461BCD PUSH1 0xE5 SHL DUP2 MSTORE PUSH1 0x4 ADD PUSH2 0x259 SWAP1 PUSH2 0xB7F JUMP JUMPDEST PUSH1 0x40 MLOAD DUP1 SWAP2 SUB SWAP1 REVERT JUMPDEST PUSH1 0x1 PUSH1 0x1 PUSH1 0xA0 SHL SUB DUP2 AND PUSH2 0x2B8 JUMPI PUSH1 0x40 MLOAD PUSH3 0x461BCD PUSH1 0xE5 SHL DUP2 MSTORE PUSH1 0x20 PUSH1 0x4 DUP3 ADD MSTORE PUSH1 0x1F PUSH1 0x24 DUP3 ADD MSTORE PUSH32 0x696E76616C696420617267756D656E74202D207A65726F206164647265737300 PUSH1 0x44 DUP3 ADD MSTORE PUSH1 0x64 ADD PUSH2 0x259 JUMP JUMPDEST CALLER PUSH1 0x1 PUSH1 0x1 PUSH1 0xA0 SHL SUB DUP3 AND EQ PUSH2 0x2E0 JUMPI PUSH1 0x40 MLOAD PUSH3 0x461BCD PUSH1 0xE5 SHL DUP2 MSTORE PUSH1 0x4 ADD PUSH2 0x259 SWAP1 PUSH2 0xBB6 JUMP JUMPDEST PUSH1 0x1 PUSH1 0x1 PUSH1 0xA0 SHL SUB DUP2 AND PUSH1 0x0 DUP2 DUP2 MSTORE PUSH1 0x20 DUP2 SWAP1 MSTORE PUSH1 0x40 DUP1 DUP3 KECCAK256 DUP1 SLOAD PUSH1 0xFF NOT AND SWAP1 SSTORE MLOAD PUSH32 0x408B49D9BE1C914C52A0227E18A077E5A892DDDF32A26CFA94A5D9708FAD7718 SWAP2 SWAP1 LOG2 POP JUMP JUMPDEST CALLER PUSH1 0x0 SWAP1 DUP2 MSTORE PUSH1 0x20 DUP2 SWAP1 MSTORE PUSH1 0x40 SWAP1 KECCAK256 SLOAD PUSH1 0xFF AND PUSH2 0x358 JUMPI PUSH1 0x40 MLOAD PUSH3 0x461BCD PUSH1 0xE5 SHL DUP2 MSTORE PUSH1 0x4 ADD PUSH2 0x259 SWAP1 PUSH2 0xB7F JUMP JUMPDEST POP POP POP JUMP JUMPDEST CALLER PUSH1 0x0 SWAP1 DUP2 MSTORE PUSH1 0x20 DUP2 SWAP1 MSTORE PUSH1 0x40 SWAP1 KECCAK256 SLOAD PUSH1 0xFF AND PUSH2 0x38C JUMPI PUSH1 0x40 MLOAD PUSH3 0x461BCD PUSH1 0xE5 SHL DUP2 MSTORE PUSH1 0x4 ADD PUSH2 0x259 SWAP1 PUSH2 0xB7F JUMP JUMPDEST POP POP JUMP JUMPDEST PUSH1 0x1 PUSH1 0x1 PUSH1 0xA0 SHL SUB DUP2 AND PUSH2 0x3E6 JUMPI PUSH1 0x40 MLOAD PUSH3 0x461BCD PUSH1 0xE5 SHL DUP2 MSTORE PUSH1 0x20 PUSH1 0x4 DUP3 ADD MSTORE PUSH1 0x1F PUSH1 0x24 DUP3 ADD MSTORE PUSH32 0x696E76616C696420617267756D656E74202D207A65726F206164647265737300 PUSH1 0x44 DUP3 ADD MSTORE PUSH1 0x64 ADD PUSH2 0x259 JUMP JUMPDEST PUSH1 0x1 PUSH1 0x1 PUSH1 0xA0 SHL SUB DUP2 AND PUSH1 0x0 SWAP1 DUP2 MSTORE PUSH1 0x20 DUP2 SWAP1 MSTORE PUSH1 0x40 SWAP1 KECCAK256 SLOAD PUSH1 0xFF AND ISZERO PUSH2 0x44F JUMPI PUSH1 0x40 MLOAD PUSH3 0x461BCD PUSH1 0xE5 SHL DUP2 MSTORE PUSH1 0x20 PUSH1 0x4 DUP3 ADD MSTORE PUSH1 0x18 PUSH1 0x24 DUP3 ADD MSTORE PUSH32 0x636F6D706C69616E636520616C726561647920626F756E640000000000000000 PUSH1 0x44 DUP3 ADD MSTORE PUSH1 0x64 ADD PUSH2 0x259 JUMP JUMPDEST CALLER PUSH1 0x1 PUSH1 0x1 PUSH1 0xA0 SHL SUB DUP3 AND EQ PUSH2 0x477 JUMPI PUSH1 0x40 MLOAD PUSH3 0x461BCD PUSH1 0xE5 SHL DUP2 MSTORE PUSH1 0x4 ADD PUSH2 0x259 SWAP1 PUSH2 0xBB6 JUMP JUMPDEST PUSH1 0x1 PUSH1 0x1 PUSH1 0xA0 SHL SUB DUP2 AND PUSH1 0x0 DUP2 DUP2 MSTORE PUSH1 0x20 DUP2 SWAP1 MSTORE PUSH1 0x40 DUP1 DUP3 KECCAK256 DUP1 SLOAD PUSH1 0xFF NOT AND PUSH1 0x1 OR SWAP1 SSTORE MLOAD PUSH32 0x1F7B76C58FB697EB53C6C7C1BECB96911516A136E24D7CED386B2355358B75A3 SWAP2 SWAP1 LOG2 POP JUMP JUMPDEST CALLER PUSH1 0x0 SWAP1 DUP2 MSTORE PUSH1 0x20 DUP2 SWAP1 MSTORE PUSH1 0x40 SWAP1 KECCAK256 SLOAD PUSH1 0xFF AND PUSH2 0x4F2 JUMPI PUSH1 0x40 MLOAD PUSH3 0x461BCD PUSH1 0xE5 SHL DUP2 MSTORE PUSH1 0x4 ADD PUSH2 0x259 SWAP1 PUSH2 0xB7F JUMP JUMPDEST CALLER PUSH1 0x0 SWAP1 DUP2 MSTORE PUSH1 0x1 PUSH1 0x20 DUP2 DUP2 MSTORE PUSH1 0x40 DUP1 DUP5 KECCAK256 PUSH2 0xFFFF DUP7 AND DUP6 MSTORE SWAP1 SWAP2 MSTORE SWAP1 SWAP2 KECCAK256 SLOAD PUSH1 0xFF AND ISZERO ISZERO SWAP1 SUB PUSH2 0x53A JUMPI CALLER DUP2 PUSH1 0x40 MLOAD PUSH4 0xAF6D6135 PUSH1 0xE0 SHL DUP2 MSTORE PUSH1 0x4 ADD PUSH2 0x259 SWAP3 SWAP2 SWAP1 PUSH2 0xBF7 JUMP JUMPDEST CALLER PUSH1 0x0 DUP2 DUP2 MSTORE PUSH1 0x1 PUSH1 0x20 DUP2 DUP2 MSTORE PUSH1 0x40 DUP1 DUP5 KECCAK256 PUSH2 0xFFFF DUP8 AND DUP6 MSTORE SWAP1 SWAP2 MSTORE SWAP2 DUP3 SWAP1 KECCAK256 DUP1 SLOAD PUSH1 0xFF NOT AND SWAP1 SWAP2 OR SWAP1 SSTORE MLOAD PUSH32 0x48C279381632BF87FCA2680865A7384B6EB20716FD96B882B305A2198930A074 SWAP2 PUSH2 0x593 SWAP2 DUP5 SWAP1 PUSH2 0xBF7 JUMP JUMPDEST PUSH1 0x40 MLOAD DUP1 SWAP2 SUB SWAP1 LOG1 POP JUMP JUMPDEST CALLER PUSH1 0x0 SWAP1 DUP2 MSTORE PUSH1 0x20 DUP2 SWAP1 MSTORE PUSH1 0x40 SWAP1 KECCAK256 SLOAD PUSH1 0xFF AND PUSH2 0x5CD JUMPI PUSH1 0x40 MLOAD PUSH3 0x461BCD PUSH1 0xE5 SHL DUP2 MSTORE PUSH1 0x4 ADD PUSH2 0x259 SWAP1 PUSH2 0xB7F JUMP JUMPDEST PUSH1 0x0 JUMPDEST DUP2 DUP2 LT ISZERO PUSH2 0x358 JUMPI CALLER PUSH1 0x0 SWAP1 DUP2 MSTORE PUSH1 0x1 PUSH1 0x20 DUP2 SWAP1 MSTORE PUSH1 0x40 DUP3 KECCAK256 SWAP1 SWAP2 DUP6 DUP6 DUP6 DUP2 DUP2 LT PUSH2 0x5FD JUMPI PUSH2 0x5FD PUSH2 0xC14 JUMP JUMPDEST SWAP1 POP PUSH1 0x20 MUL ADD PUSH1 0x20 DUP2 ADD SWAP1 PUSH2 0x612 SWAP2 SWAP1 PUSH2 0xAED JUMP JUMPDEST PUSH2 0xFFFF AND DUP2 MSTORE PUSH1 0x20 DUP2 ADD SWAP2 SWAP1 SWAP2 MSTORE PUSH1 0x40 ADD PUSH1 0x0 KECCAK256 DUP1 SLOAD PUSH1 0xFF NOT AND SWAP2 ISZERO ISZERO SWAP2 SWAP1 SWAP2 OR SWAP1 SSTORE PUSH32 0x48C279381632BF87FCA2680865A7384B6EB20716FD96B882B305A2198930A074 CALLER DUP5 DUP5 DUP5 DUP2 DUP2 LT PUSH2 0x669 JUMPI PUSH2 0x669 PUSH2 0xC14 JUMP JUMPDEST SWAP1 POP PUSH1 0x20 MUL ADD PUSH1 0x20 DUP2 ADD SWAP1 PUSH2 0x67E SWAP2 SWAP1 PUSH2 0xAED JUMP JUMPDEST PUSH1 0x40 MLOAD PUSH2 0x68C SWAP3 SWAP2 SWAP1 PUSH2 0xBF7 JUMP JUMPDEST PUSH1 0x40 MLOAD DUP1 SWAP2 SUB SWAP1 LOG1 DUP1 PUSH2 0x69E DUP2 PUSH2 0xC2A JUMP JUMPDEST SWAP2 POP POP PUSH2 0x5D0 JUMP JUMPDEST CALLER PUSH1 0x0 SWAP1 DUP2 MSTORE PUSH1 0x20 DUP2 SWAP1 MSTORE PUSH1 0x40 SWAP1 KECCAK256 SLOAD PUSH1 0xFF AND PUSH2 0x6D5 JUMPI PUSH1 0x40 MLOAD PUSH3 0x461BCD PUSH1 0xE5 SHL DUP2 MSTORE PUSH1 0x4 ADD PUSH2 0x259 SWAP1 PUSH2 0xB7F JUMP JUMPDEST CALLER PUSH1 0x0 SWAP1 DUP2 MSTORE PUSH1 0x1 PUSH1 0x20 SWAP1 DUP2 MSTORE PUSH1 0x40 DUP1 DUP4 KECCAK256 PUSH2 0xFFFF DUP6 AND DUP5 MSTORE SWAP1 SWAP2 MSTORE DUP2 KECCAK256 SLOAD PUSH1 0xFF AND ISZERO ISZERO SWAP1 SUB PUSH2 0x71C JUMPI CALLER DUP2 PUSH1 0x40 MLOAD PUSH4 0x236A6875 PUSH1 0xE1 SHL DUP2 MSTORE PUSH1 0x4 ADD PUSH2 0x259 SWAP3 SWAP2 SWAP1 PUSH2 0xBF7 JUMP JUMPDEST CALLER PUSH1 0x0 DUP2 DUP2 MSTORE PUSH1 0x1 PUSH1 0x20 SWAP1 DUP2 MSTORE PUSH1 0x40 DUP1 DUP4 KECCAK256 PUSH2 0xFFFF DUP7 AND DUP5 MSTORE SWAP1 SWAP2 MSTORE SWAP1 DUP2 SWAP1 KECCAK256 DUP1 SLOAD PUSH1 0xFF NOT AND SWAP1 SSTORE MLOAD PUSH32 0x35C7374BCB82F2355CB703C8AB6162F87FE83B99618BDB78C6D19B07DDF060A2 SWAP2 PUSH2 0x593 SWAP2 DUP5 SWAP1 PUSH2 0xBF7 JUMP JUMPDEST CALLER PUSH1 0x0 SWAP1 DUP2 MSTORE PUSH1 0x20 DUP2 SWAP1 MSTORE PUSH1 0x40 SWAP1 KECCAK256 SLOAD PUSH1 0xFF AND PUSH2 0x7A1 JUMPI PUSH1 0x40 MLOAD PUSH3 0x461BCD PUSH1 0xE5 SHL DUP2 MSTORE PUSH1 0x4 ADD PUSH2 0x259 SWAP1 PUSH2 0xB7F JUMP JUMPDEST PUSH1 0x0 JUMPDEST DUP2 DUP2 LT ISZERO PUSH2 0x358 JUMPI CALLER PUSH1 0x0 SWAP1 DUP2 MSTORE PUSH1 0x1 PUSH1 0x20 MSTORE PUSH1 0x40 DUP2 KECCAK256 DUP2 DUP6 DUP6 DUP6 DUP2 DUP2 LT PUSH2 0x7CE JUMPI PUSH2 0x7CE PUSH2 0xC14 JUMP JUMPDEST SWAP1 POP PUSH1 0x20 MUL ADD PUSH1 0x20 DUP2 ADD SWAP1 PUSH2 0x7E3 SWAP2 SWAP1 PUSH2 0xAED JUMP JUMPDEST PUSH2 0xFFFF AND DUP2 MSTORE PUSH1 0x20 DUP2 ADD SWAP2 SWAP1 SWAP2 MSTORE PUSH1 0x40 ADD PUSH1 0x0 KECCAK256 DUP1 SLOAD PUSH1 0xFF NOT AND SWAP2 ISZERO ISZERO SWAP2 SWAP1 SWAP2 OR SWAP1 SSTORE PUSH32 0x35C7374BCB82F2355CB703C8AB6162F87FE83B99618BDB78C6D19B07DDF060A2 CALLER DUP5 DUP5 DUP5 DUP2 DUP2 LT PUSH2 0x83A JUMPI PUSH2 0x83A PUSH2 0xC14 JUMP JUMPDEST SWAP1 POP PUSH1 0x20 MUL ADD PUSH1 0x20 DUP2 ADD SWAP1 PUSH2 0x84F SWAP2 SWAP1 PUSH2 0xAED JUMP JUMPDEST PUSH1 0x40 MLOAD PUSH2 0x85D SWAP3 SWAP2 SWAP1 PUSH2 0xBF7 JUMP JUMPDEST PUSH1 0x40 MLOAD DUP1 SWAP2 SUB SWAP1 LOG1 DUP1 PUSH2 0x86F DUP2 PUSH2 0xC2A JUMP JUMPDEST SWAP2 POP POP PUSH2 0x7A4 JUMP JUMPDEST PUSH1 0x0 DUP3 PUSH1 0x1 PUSH1 0x1 PUSH1 0xA0 SHL SUB AND PUSH4 0x6A3EDF28 PUSH1 0x40 MLOAD DUP2 PUSH4 0xFFFFFFFF AND PUSH1 0xE0 SHL DUP2 MSTORE PUSH1 0x4 ADD PUSH1 0x20 PUSH1 0x40 MLOAD DUP1 DUP4 SUB DUP2 DUP7 GAS STATICCALL ISZERO DUP1 ISZERO PUSH2 0x8B7 JUMPI RETURNDATASIZE PUSH1 0x0 DUP1 RETURNDATACOPY RETURNDATASIZE PUSH1 0x0 REVERT JUMPDEST POP POP POP POP PUSH1 0x40 MLOAD RETURNDATASIZE PUSH1 0x1F NOT PUSH1 0x1F DUP3 ADD AND DUP3 ADD DUP1 PUSH1 0x40 MSTORE POP DUP2 ADD SWAP1 PUSH2 0x8DB SWAP2 SWAP1 PUSH2 0xC51 JUMP JUMPDEST PUSH1 0x1 PUSH1 0x1 PUSH1 0xA0 SHL SUB AND PUSH4 0x134E18F4 PUSH1 0x40 MLOAD DUP2 PUSH4 0xFFFFFFFF AND PUSH1 0xE0 SHL DUP2 MSTORE PUSH1 0x4 ADD PUSH1 0x20 PUSH1 0x40 MLOAD DUP1 DUP4 SUB DUP2 DUP7 GAS STATICCALL ISZERO DUP1 ISZERO PUSH2 0x918 JUMPI RETURNDATASIZE PUSH1 0x0 DUP1 RETURNDATACOPY RETURNDATASIZE PUSH1 0x0 REVERT JUMPDEST POP POP POP POP PUSH1 0x40 MLOAD RETURNDATASIZE PUSH1 0x1F NOT PUSH1 0x1F DUP3 ADD AND DUP3 ADD DUP1 PUSH1 0x40 MSTORE POP DUP2 ADD SWAP1 PUSH2 0x93C SWAP2 SWAP1 PUSH2 0xC51 JUMP JUMPDEST PUSH1 0x40 MLOAD PUSH4 0x7E42683B PUSH1 0xE0 SHL DUP2 MSTORE PUSH1 0x1 PUSH1 0x1 PUSH1 0xA0 SHL SUB DUP5 DUP2 AND PUSH1 0x4 DUP4 ADD MSTORE SWAP2 SWAP1 SWAP2 AND SWAP1 PUSH4 0x7E42683B SWAP1 PUSH1 0x24 ADD PUSH1 0x20 PUSH1 0x40 MLOAD DUP1 DUP4 SUB DUP2 DUP7 GAS STATICCALL ISZERO DUP1 ISZERO PUSH2 0x984 JUMPI RETURNDATASIZE PUSH1 0x0 DUP1 RETURNDATACOPY RETURNDATASIZE PUSH1 0x0 REVERT JUMPDEST POP POP POP POP PUSH1 0x40 MLOAD RETURNDATASIZE PUSH1 0x1F NOT PUSH1 0x1F DUP3 ADD AND DUP3 ADD DUP1 PUSH1 0x40 MSTORE POP DUP2 ADD SWAP1 PUSH2 0x9A8 SWAP2 SWAP1 PUSH2 0xC6E JUMP JUMPDEST SWAP4 SWAP3 POP POP POP JUMP JUMPDEST PUSH1 0x1 PUSH1 0x1 PUSH1 0xA0 SHL SUB DUP2 AND DUP2 EQ PUSH2 0x9C4 JUMPI PUSH1 0x0 DUP1 REVERT JUMPDEST POP JUMP JUMPDEST PUSH1 0x0 DUP1 PUSH1 0x0 DUP1 PUSH1 0x80 DUP6 DUP8 SUB SLT ISZERO PUSH2 0x9DD JUMPI PUSH1 0x0 DUP1 REVERT JUMPDEST DUP5 CALLDATALOAD PUSH2 0x9E8 DUP2 PUSH2 0x9AF JUMP JUMPDEST SWAP4 POP PUSH1 0x20 DUP6 ADD CALLDATALOAD PUSH2 0x9F8 DUP2 PUSH2 0x9AF JUMP JUMPDEST SWAP3 POP PUSH1 0x40 DUP6 ADD CALLDATALOAD SWAP2 POP PUSH1 0x60 DUP6 ADD CALLDATALOAD PUSH2 0xA0F DUP2 PUSH2 0x9AF JUMP JUMPDEST SWAP4 SWAP7 SWAP3 SWAP6 POP SWAP1 SWAP4 POP POP JUMP JUMPDEST PUSH1 0x0 PUSH1 0x20 DUP3 DUP5 SUB SLT ISZERO PUSH2 0xA2C JUMPI PUSH1 0x0 DUP1 REVERT JUMPDEST DUP2 CALLDATALOAD PUSH2 0x9A8 DUP2 PUSH2 0x9AF JUMP JUMPDEST PUSH2 0xFFFF DUP2 AND DUP2 EQ PUSH2 0x9C4 JUMPI PUSH1 0x0 DUP1 REVERT JUMPDEST PUSH1 0x0 DUP1 PUSH1 0x40 DUP4 DUP6 SUB SLT ISZERO PUSH2 0xA5A JUMPI PUSH1 0x0 DUP1 REVERT JUMPDEST DUP3 CALLDATALOAD PUSH2 0xA65 DUP2 PUSH2 0x9AF JUMP JUMPDEST SWAP2 POP PUSH1 0x20 DUP4 ADD CALLDATALOAD PUSH2 0xA75 DUP2 PUSH2 0xA37 JUMP JUMPDEST DUP1 SWAP2 POP POP SWAP3 POP SWAP3 SWAP1 POP JUMP JUMPDEST PUSH1 0x0 DUP1 PUSH1 0x0 PUSH1 0x60 DUP5 DUP7 SUB SLT ISZERO PUSH2 0xA95 JUMPI PUSH1 0x0 DUP1 REVERT JUMPDEST DUP4 CALLDATALOAD PUSH2 0xAA0 DUP2 PUSH2 0x9AF JUMP JUMPDEST SWAP3 POP PUSH1 0x20 DUP5 ADD CALLDATALOAD PUSH2 0xAB0 DUP2 PUSH2 0x9AF JUMP JUMPDEST SWAP3 SWAP6 SWAP3 SWAP5 POP POP POP PUSH1 0x40 SWAP2 SWAP1 SWAP2 ADD CALLDATALOAD SWAP1 JUMP JUMPDEST PUSH1 0x0 DUP1 PUSH1 0x40 DUP4 DUP6 SUB SLT ISZERO PUSH2 0xAD4 JUMPI PUSH1 0x0 DUP1 REVERT JUMPDEST DUP3 CALLDATALOAD PUSH2 0xADF DUP2 PUSH2 0x9AF JUMP JUMPDEST SWAP5 PUSH1 0x20 SWAP4 SWAP1 SWAP4 ADD CALLDATALOAD SWAP4 POP POP POP JUMP JUMPDEST PUSH1 0x0 PUSH1 0x20 DUP3 DUP5 SUB SLT ISZERO PUSH2 0xAFF JUMPI PUSH1 0x0 DUP1 REVERT JUMPDEST DUP2 CALLDATALOAD PUSH2 0x9A8 DUP2 PUSH2 0xA37 JUMP JUMPDEST PUSH1 0x0 DUP1 PUSH1 0x20 DUP4 DUP6 SUB SLT ISZERO PUSH2 0xB1D JUMPI PUSH1 0x0 DUP1 REVERT JUMPDEST DUP3 CALLDATALOAD PUSH8 0xFFFFFFFFFFFFFFFF DUP1 DUP3 GT ISZERO PUSH2 0xB35 JUMPI PUSH1 0x0 DUP1 REVERT JUMPDEST DUP2 DUP6 ADD SWAP2 POP DUP6 PUSH1 0x1F DUP4 ADD SLT PUSH2 0xB49 JUMPI PUSH1 0x0 DUP1 REVERT JUMPDEST DUP2 CALLDATALOAD DUP2 DUP2 GT ISZERO PUSH2 0xB58 JUMPI PUSH1 0x0 DUP1 REVERT JUMPDEST DUP7 PUSH1 0x20 DUP3 PUSH1 0x5 SHL DUP6 ADD ADD GT ISZERO PUSH2 0xB6D JUMPI PUSH1 0x0 DUP1 REVERT JUMPDEST PUSH1 0x20 SWAP3 SWAP1 SWAP3 ADD SWAP7 SWAP2 SWAP6 POP SWAP1 SWAP4 POP POP POP POP JUMP JUMPDEST PUSH1 0x20 DUP1 DUP3 MSTORE PUSH1 0x1E SWAP1 DUP3 ADD MSTORE PUSH32 0x6F6E6C7920626F756E6420636F6D706C69616E63652063616E2063616C6C0000 PUSH1 0x40 DUP3 ADD MSTORE PUSH1 0x60 ADD SWAP1 JUMP JUMPDEST PUSH1 0x20 DUP1 DUP3 MSTORE PUSH1 0x21 SWAP1 DUP3 ADD MSTORE PUSH32 0x6F6E6C7920636F6D706C69616E636520636F6E74726163742063616E2063616C PUSH1 0x40 DUP3 ADD MSTORE PUSH1 0x1B PUSH1 0xFA SHL PUSH1 0x60 DUP3 ADD MSTORE PUSH1 0x80 ADD SWAP1 JUMP JUMPDEST PUSH1 0x1 PUSH1 0x1 PUSH1 0xA0 SHL SUB SWAP3 SWAP1 SWAP3 AND DUP3 MSTORE PUSH2 0xFFFF AND PUSH1 0x20 DUP3 ADD MSTORE PUSH1 0x40 ADD SWAP1 JUMP JUMPDEST PUSH4 0x4E487B71 PUSH1 0xE0 SHL PUSH1 0x0 MSTORE PUSH1 0x32 PUSH1 0x4 MSTORE PUSH1 0x24 PUSH1 0x0 REVERT JUMPDEST PUSH1 0x0 PUSH1 0x1 DUP3 ADD PUSH2 0xC4A JUMPI PUSH4 0x4E487B71 PUSH1 0xE0 SHL PUSH1 0x0 MSTORE PUSH1 0x11 PUSH1 0x4 MSTORE PUSH1 0x24 PUSH1 0x0 REVERT JUMPDEST POP PUSH1 0x1 ADD SWAP1 JUMP JUMPDEST PUSH1 0x0 PUSH1 0x20 DUP3 DUP5 SUB SLT ISZERO PUSH2 0xC63 JUMPI PUSH1 0x0 DUP1 REVERT JUMPDEST DUP2 MLOAD PUSH2 0x9A8 DUP2 PUSH2 0x9AF JUMP JUMPDEST PUSH1 0x0 PUSH1 0x20 DUP3 DUP5 SUB SLT ISZERO PUSH2 0xC80 JUMPI PUSH1 0x0 DUP1 REVERT JUMPDEST DUP2 MLOAD PUSH2 0x9A8 DUP2 PUSH2 0xA37 JUMP INVALID LOG2 PUSH5 0x6970667358 0x22 SLT KECCAK256 SWAP8 0xDD PUSH2 0x84D6 PUSH22 0x7182795A4D2BD2B826EBC1D37426DB2A0F366708C9AB PUSH14 0x45A1A964736F6C63430008110033 "
				},
				"gasEstimates": {
					"creation": {
						"codeDepositCost": "653000",
						"executionCost": "689",
						"totalCost": "653689"
					},
					"external": {
						"addAllowedCountry(uint16)": "30556",
						"batchAllowCountries(uint16[])": "infinite",
						"batchDisallowCountries(uint16[])": "infinite",
						"bindCompliance(address)": "28154",
						"isComplianceBound(address)": "2534",
						"isCountryAllowed(address,uint16)": "infinite",
						"moduleBurnAction(address,uint256)": "2728",
						"moduleCheck(address,address,uint256,address)": "infinite",
						"moduleMintAction(address,uint256)": "2749",
						"moduleTransferAction(address,address,uint256)": "infinite",
						"removeAllowedCountry(uint16)": "30588",
						"unbindCompliance(address)": "28038"
					},
					"internal": {
						"_getCountry(address,address)": "infinite"
					}
				},
				"methodIdentifiers": {
					"addAllowedCountry(uint16)": "4f44425e",
					"batchAllowCountries(uint16[])": "771c5281",
					"batchDisallowCountries(uint16[])": "c08e1502",
					"bindCompliance(address)": "4a932544",
					"isComplianceBound(address)": "4cf4d295",
					"isCountryAllowed(address,uint16)": "0f4f0904",
					"moduleBurnAction(address,uint256)": "372491a2",
					"moduleCheck(address,address,uint256,address)": "013b7ce4",
					"moduleMintAction(address,uint256)": "f104a8c9",
					"moduleTransferAction(address,address,uint256)": "2cb7e1ec",
					"removeAllowedCountry(uint16)": "817544c3",
					"unbindCompliance(address)": "0694a5fb"
				}
			},
			"storageLayout": {
				"storage": [
					{
						"astId": 515,
						"contract": "erc3643/erc3643/Compliance/modular/Modules/CountryAllowModule.sol:CountryAllowModule",
						"label": "_complianceBound",
						"offset": 0,
						"slot": "0",
						"type": "t_mapping(t_address,t_bool)"
					},
					{
						"astId": 646,
						"contract": "erc3643/erc3643/Compliance/modular/Modules/CountryAllowModule.sol:CountryAllowModule",
						"label": "_allowedCountries",
						"offset": 0,
						"slot": "1",
						"type": "t_mapping(t_address,t_mapping(t_uint16,t_bool))"
					}
				],
				"types": {
					"t_address": {
						"encoding": "inplace",
						"label": "address",
						"numberOfBytes": "20"
					},
					"t_bool": {
						"encoding": "inplace",
						"label": "bool",
						"numberOfBytes": "1"
					},
					"t_mapping(t_address,t_bool)": {
						"encoding": "mapping",
						"key": "t_address",
						"label": "mapping(address => bool)",
						"numberOfBytes": "32",
						"value": "t_bool"
					},
					"t_mapping(t_address,t_mapping(t_uint16,t_bool))": {
						"encoding": "mapping",
						"key": "t_address",
						"label": "mapping(address => mapping(uint16 => bool))",
						"numberOfBytes": "32",
						"value": "t_mapping(t_uint16,t_bool)"
					},
					"t_mapping(t_uint16,t_bool)": {
						"encoding": "mapping",
						"key": "t_uint16",
						"label": "mapping(uint16 => bool)",
						"numberOfBytes": "32",
						"value": "t_bool"
					},
					"t_uint16": {
						"encoding": "inplace",
						"label": "uint16",
						"numberOfBytes": "2"
					}
				}
			},
			"userdoc": {
				"kind": "user",
				"methods": {},
				"version": 1
			}
		}
	}
}