{
	"data": {
		"bytecode": {
			"linkReferences": {},
			"object": "608060405234801561001057600080fd5b506040516109e63803806109e683398101604081905261002f916104ad565b6001600160a01b0387161580159061004f57506001600160a01b03861615155b801561006357506001600160a01b03851615155b6100b45760405162461bcd60e51b815260206004820152601f60248201527f696e76616c696420617267756d656e74202d207a65726f20616464726573730060448201526064015b60405180910390fd5b6040516020016100cf90602080825260009082015260400190565b60405160208183030381529060405280519060200120846040516020016100f69190610598565b6040516020818303038152906040528051906020012014158015610170575060405160200161013090602080825260009082015260400190565b60405160208183030381529060405280519060200120836040516020016101579190610598565b6040516020818303038152906040528051906020012014155b6101bc5760405162461bcd60e51b815260206004820152601f60248201527f696e76616c696420617267756d656e74202d20656d70747920737472696e670060448201526064016100ab565b60128260ff1611156102105760405162461bcd60e51b815260206004820152601960248201527f646563696d616c73206265747765656e203020616e642031380000000000000060448201526064016100ab565b610226876000805160206109c683398151915255565b6040516001600160a01b038816907f3b1074392ed8e8424715d0dda2197eede67080b377fc8370e26f3e882207f6b890600090a260006102726000805160206109c68339815191525490565b6001600160a01b031663709bc7f36040518163ffffffff1660e01b8152600401602060405180830381865afa1580156102af573d6000803e3d6000fd5b505050506040513d601f19601f820116820180604052508101906102d391906105b2565b90506000816001600160a01b03168888888888886040516024016102fc969594939291906105cd565b60408051601f198184030181529181526020820180516001600160e01b0316633e46d86760e21b179052516103319190610628565b600060405180830381855af49150503d806000811461036c576040519150601f19603f3d011682016040523d82523d6000602084013e610371565b606091505b50509050806103c25760405162461bcd60e51b815260206004820152601660248201527f496e697469616c697a6174696f6e206661696c65642e0000000000000000000060448201526064016100ab565b505050505050505050610644565b80516001600160a01b03811681146103e757600080fd5b919050565b634e487b7160e01b600052604160045260246000fd5b60005b8381101561041d578181015183820152602001610405565b50506000910152565b600082601f83011261043757600080fd5b81516001600160401b0380821115610451576104516103ec565b604051601f8301601f19908116603f01168101908282118183101715610479576104796103ec565b8160405283815286602085880101111561049257600080fd5b6104a3846020830160208901610402565b9695505050505050565b600080600080600080600060e0888a0312156104c857600080fd5b6104d1886103d0565b96506104df602089016103d0565b95506104ed604089016103d0565b60608901519095506001600160401b038082111561050a57600080fd5b6105168b838c01610426565b955060808a015191508082111561052c57600080fd5b506105398a828b01610426565b93505060a088015160ff8116811461055057600080fd5b915061055e60c089016103d0565b905092959891949750929550565b60008151808452610584816020860160208601610402565b601f01601f19169290920160200192915050565b6020815260006105ab602083018461056c565b9392505050565b6000602082840312156105c457600080fd5b6105ab826103d0565b600060018060a01b038089168352808816602084015260c060408401526105f760c084018861056c565b8381036060850152610609818861056c565b60ff969096166080850152509290921660a09091015250949350505050565b6000825161063a818460208701610402565b9190910192915050565b610373806106536000396000f3fe608060405234801561001057600080fd5b50600436106100415760003560e01c806324173669146100e75780632d5f11871461010257806392dd9d651461012a575b600061005960008051602061031e8339815191525490565b6001600160a01b031663709bc7f36040518163ffffffff1660e01b8152600401602060405180830381865afa158015610096573d6000803e3d6000fd5b505050506040513d601f19601f820116820180604052508101906100ba91906102b5565b90503660008037600080366000846127105a03f43d806000803e8180156100e057816000f35b816000fd5b005b6100ef61013d565b6040519081526020015b60405180910390f35b60008051602061031e833981519152546040516001600160a01b0390911681526020016100f9565b6100e56101383660046102d9565b61016f565b600061016a60017f4cd9b827ca535ceb0880425d70eff88561ecdf04dc32fcf7ff3b15c587f8a8716102f6565b919050565b60008051602061031e833981519152546001600160a01b0316336001600160a01b0316146101fa5760405162461bcd60e51b815260206004820152602d60248201527f6f6e6c792063757272656e7420696d706c656d656e746174696f6e417574686f60448201526c1c9a5d1e4818d85b8818d85b1b609a1b60648201526084015b60405180910390fd5b6001600160a01b0381166102505760405162461bcd60e51b815260206004820152601f60248201527f696e76616c696420617267756d656e74202d207a65726f20616464726573730060448201526064016101f1565b6102668160008051602061031e83398151915255565b6040516001600160a01b038216907f3b1074392ed8e8424715d0dda2197eede67080b377fc8370e26f3e882207f6b890600090a250565b6001600160a01b03811681146102b257600080fd5b50565b6000602082840312156102c757600080fd5b81516102d28161029d565b9392505050565b6000602082840312156102eb57600080fd5b81356102d28161029d565b8181038181111561031757634e487b7160e01b600052601160045260246000fd5b9291505056fec5f16f0fcc639fa48a6947836d9850f504798523bf8c9a3a87d5876cf622bcf7a264697066735822122070b3e734bdbc60053cc1b3ce9d84023d4b047dbce306d600176ed8c4b5254ed864736f6c63430008110033c5f16f0fcc639fa48a6947836d9850f504798523bf8c9a3a87d5876cf622bcf7",
			"opcodes": "PUSH1 0x80 PUSH1 0x40 MSTORE CALLVALUE DUP1 ISZERO PUSH2 0x10 JUMPI PUSH1 0x0 DUP1 REVERT JUMPDEST POP PUSH1 0x40 MLOAD PUSH2 0x9E6 CODESIZE SUB DUP1 PUSH2 0x9E6 DUP4 CODECOPY DUP2 ADD PUSH1 0x40 DUP2 SWAP1 MSTORE PUSH2 0x2F SWAP2 PUSH2 0x4AD JUMP JUMPDEST PUSH1 0x1 PUSH1 0x1 PUSH1 0xA0 SHL SUB DUP8 AND ISZERO DUP1 ISZERO SWAP1 PUSH2 0x4F JUMPI POP PUSH1 0x1 PUSH1 0x1 PUSH1 0xA0 SHL SUB DUP7 AND ISZERO ISZERO JUMPDEST DUP1 ISZERO PUSH2 0x63 JUMPI POP PUSH1 0x1 PUSH1 0x1 PUSH1 0xA0 SHL SUB DUP6 AND ISZERO ISZERO JUMPDEST PUSH2 0xB4 JUMPI PUSH1 0x40 MLOAD PUSH3 0x461BCD PUSH1 0xE5 SHL DUP2 MSTORE PUSH1 0x20 PUSH1 0x4 DUP3 ADD MSTORE PUSH1 0x1F PUSH1 0x24 DUP3 ADD MSTORE PUSH32 0x696E76616C696420617267756D656E74202D207A65726F206164647265737300 PUSH1 0x44 DUP3 ADD MSTORE PUSH1 0x64 ADD JUMPDEST PUSH1 0x40 MLOAD DUP1 SWAP2 SUB SWAP1 REVERT JUMPDEST PUSH1 0x40 MLOAD PUSH1 0x20 ADD PUSH2 0xCF SWAP1 PUSH1 0x20 DUP1 DUP3 MSTORE PUSH1 0x0 SWAP1 DUP3 ADD MSTORE PUSH1 0x40 ADD SWAP1 JUMP JUMPDEST PUSH1 0x40 MLOAD PUSH1 0x20 DUP2 DUP4 SUB SUB DUP2 MSTORE SWAP1 PUSH1 0x40 MSTORE DUP1 MLOAD SWAP1 PUSH1 0x20 ADD KECCAK256 DUP5 PUSH1 0x40 MLOAD PUSH1 0x20 ADD PUSH2 0xF6 SWAP2 SWAP1 PUSH2 0x598 JUMP JUMPDEST PUSH1 0x40 MLOAD PUSH1 0x20 DUP2 DUP4 SUB SUB DUP2 MSTORE SWAP1 PUSH1 0x40 MSTORE DUP1 MLOAD SWAP1 PUSH1 0x20 ADD KECCAK256 EQ ISZERO DUP1 ISZERO PUSH2 0x170 JUMPI POP PUSH1 0x40 MLOAD PUSH1 0x20 ADD PUSH2 0x130 SWAP1 PUSH1 0x20 DUP1 DUP3 MSTORE PUSH1 0x0 SWAP1 DUP3 ADD MSTORE PUSH1 0x40 ADD SWAP1 JUMP JUMPDEST PUSH1 0x40 MLOAD PUSH1 0x20 DUP2 DUP4 SUB SUB DUP2 MSTORE SWAP1 PUSH1 0x40 MSTORE DUP1 MLOAD SWAP1 PUSH1 0x20 ADD KECCAK256 DUP4 PUSH1 0x40 MLOAD PUSH1 0x20 ADD PUSH2 0x157 SWAP2 SWAP1 PUSH2 0x598 JUMP JUMPDEST PUSH1 0x40 MLOAD PUSH1 0x20 DUP2 DUP4 SUB SUB DUP2 MSTORE SWAP1 PUSH1 0x40 MSTORE DUP1 MLOAD SWAP1 PUSH1 0x20 ADD KECCAK256 EQ ISZERO JUMPDEST PUSH2 0x1BC JUMPI PUSH1 0x40 MLOAD PUSH3 0x461BCD PUSH1 0xE5 SHL DUP2 MSTORE PUSH1 0x20 PUSH1 0x4 DUP3 ADD MSTORE PUSH1 0x1F PUSH1 0x24 DUP3 ADD MSTORE PUSH32 0x696E76616C696420617267756D656E74202D20656D70747920737472696E6700 PUSH1 0x44 DUP3 ADD MSTORE PUSH1 0x64 ADD PUSH2 0xAB JUMP JUMPDEST PUSH1 0x12 DUP3 PUSH1 0xFF AND GT ISZERO PUSH2 0x210 JUMPI PUSH1 0x40 MLOAD PUSH3 0x461BCD PUSH1 0xE5 SHL DUP2 MSTORE PUSH1 0x20 PUSH1 0x4 DUP3 ADD MSTORE PUSH1 0x19 PUSH1 0x24 DUP3 ADD MSTORE PUSH32 0x646563696D616C73206265747765656E203020616E6420313800000000000000 PUSH1 0x44 DUP3 ADD MSTORE PUSH1 0x64 ADD PUSH2 0xAB JUMP JUMPDEST PUSH2 0x226 DUP8 PUSH1 0x0 DUP1 MLOAD PUSH1 0x20 PUSH2 0x9C6 DUP4 CODECOPY DUP2 MLOAD SWAP2 MSTORE SSTORE JUMP JUMPDEST PUSH1 0x40 MLOAD PUSH1 0x1 PUSH1 0x1 PUSH1 0xA0 SHL SUB DUP9 AND SWAP1 PUSH32 0x3B1074392ED8E8424715D0DDA2197EEDE67080B377FC8370E26F3E882207F6B8 SWAP1 PUSH1 0x0 SWAP1 LOG2 PUSH1 0x0 PUSH2 0x272 PUSH1 0x0 DUP1 MLOAD PUSH1 0x20 PUSH2 0x9C6 DUP4 CODECOPY DUP2 MLOAD SWAP2 MSTORE SLOAD SWAP1 JUMP JUMPDEST PUSH1 0x1 PUSH1 0x1 PUSH1 0xA0 SHL SUB AND PUSH4 0x709BC7F3 PUSH1 0x40 MLOAD DUP2 PUSH4 0xFFFFFFFF AND PUSH1 0xE0 SHL DUP2 MSTORE PUSH1 0x4 ADD PUSH1 0x20 PUSH1 0x40 MLOAD DUP1 DUP4 SUB DUP2 DUP7 GAS STATICCALL ISZERO DUP1 ISZERO PUSH2 0x2AF JUMPI RETURNDATASIZE PUSH1 0x0 DUP1 RETURNDATACOPY RETURNDATASIZE PUSH1 0x0 REVERT JUMPDEST POP POP POP POP PUSH1 0x40 MLOAD RETURNDATASIZE PUSH1 0x1F NOT PUSH1 0x1F DUP3 ADD AND DUP3 ADD DUP1 PUSH1 0x40 MSTORE POP DUP2 ADD SWAP1 PUSH2 0x2D3 SWAP2 SWAP1 PUSH2 0x5B2 JUMP JUMPDEST SWAP1 POP PUSH1 0x0 DUP2 PUSH1 0x1 PUSH1 0x1 PUSH1 0xA0 SHL SUB AND DUP9 DUP9 DUP9 DUP9 DUP9 DUP9 PUSH1 0x40 MLOAD PUSH1 0x24 ADD PUSH2 0x2FC SWAP7 SWAP6 SWAP5 SWAP4 SWAP3 SWAP2 SWAP1 PUSH2 0x5CD JUMP JUMPDEST PUSH1 0x40 DUP1 MLOAD PUSH1 0x1F NOT DUP2 DUP5 SUB ADD DUP2 MSTORE SWAP2 DUP2 MSTORE PUSH1 0x20 DUP3 ADD DUP1 MLOAD PUSH1 0x1 PUSH1 0x1 PUSH1 0xE0 SHL SUB AND PUSH4 0x3E46D867 PUSH1 0xE2 SHL OR SWAP1 MSTORE MLOAD PUSH2 0x331 SWAP2 SWAP1 PUSH2 0x628 JUMP JUMPDEST PUSH1 0x0 PUSH1 0x40 MLOAD DUP1 DUP4 SUB DUP2 DUP6 GAS DELEGATECALL SWAP2 POP POP RETURNDATASIZE DUP1 PUSH1 0x0 DUP2 EQ PUSH2 0x36C JUMPI PUSH1 0x40 MLOAD SWAP2 POP PUSH1 0x1F NOT PUSH1 0x3F RETURNDATASIZE ADD AND DUP3 ADD PUSH1 0x40 MSTORE RETURNDATASIZE DUP3 MSTORE RETURNDATASIZE PUSH1 0x0 PUSH1 0x20 DUP5 ADD RETURNDATACOPY PUSH2 0x371 JUMP JUMPDEST PUSH1 0x60 SWAP2 POP JUMPDEST POP POP SWAP1 POP DUP1 PUSH2 0x3C2 JUMPI PUSH1 0x40 MLOAD PUSH3 0x461BCD PUSH1 0xE5 SHL DUP2 MSTORE PUSH1 0x20 PUSH1 0x4 DUP3 ADD MSTORE PUSH1 0x16 PUSH1 0x24 DUP3 ADD MSTORE PUSH32 0x496E697469616C697A6174696F6E206661696C65642E00000000000000000000 PUSH1 0x44 DUP3 ADD MSTORE PUSH1 0x64 ADD PUSH2 0xAB JUMP JUMPDEST POP POP POP POP POP POP POP POP POP PUSH2 0x644 JUMP JUMPDEST DUP1 MLOAD PUSH1 0x1 PUSH1 0x1 PUSH1 0xA0 SHL SUB DUP2 AND DUP2 EQ PUSH2 0x3E7 JUMPI PUSH1 0x0 DUP1 REVERT JUMPDEST SWAP2 SWAP1 POP JUMP JUMPDEST PUSH4 0x4E487B71 PUSH1 0xE0 SHL PUSH1 0x0 MSTORE PUSH1 0x41 PUSH1 0x4 MSTORE PUSH1 0x24 PUSH1 0x0 REVERT JUMPDEST PUSH1 0x0 JUMPDEST DUP4 DUP2 LT ISZERO PUSH2 0x41D JUMPI DUP2 DUP2 ADD MLOAD DUP4 DUP3 ADD MSTORE PUSH1 0x20 ADD PUSH2 0x405 JUMP JUMPDEST POP POP PUSH1 0x0 SWAP2 ADD MSTORE JUMP JUMPDEST PUSH1 0x0 DUP3 PUSH1 0x1F DUP4 ADD SLT PUSH2 0x437 JUMPI PUSH1 0x0 DUP1 REVERT JUMPDEST DUP2 MLOAD PUSH1 0x1 PUSH1 0x1 PUSH1 0x40 SHL SUB DUP1 DUP3 GT ISZERO PUSH2 0x451 JUMPI PUSH2 0x451 PUSH2 0x3EC JUMP JUMPDEST PUSH1 0x40 MLOAD PUSH1 0x1F DUP4 ADD PUSH1 0x1F NOT SWAP1 DUP2 AND PUSH1 0x3F ADD AND DUP2 ADD SWAP1 DUP3 DUP3 GT DUP2 DUP4 LT OR ISZERO PUSH2 0x479 JUMPI PUSH2 0x479 PUSH2 0x3EC JUMP JUMPDEST DUP2 PUSH1 0x40 MSTORE DUP4 DUP2 MSTORE DUP7 PUSH1 0x20 DUP6 DUP9 ADD ADD GT ISZERO PUSH2 0x492 JUMPI PUSH1 0x0 DUP1 REVERT JUMPDEST PUSH2 0x4A3 DUP5 PUSH1 0x20 DUP4 ADD PUSH1 0x20 DUP10 ADD PUSH2 0x402 JUMP JUMPDEST SWAP7 SWAP6 POP POP POP POP POP POP JUMP JUMPDEST PUSH1 0x0 DUP1 PUSH1 0x0 DUP1 PUSH1 0x0 DUP1 PUSH1 0x0 PUSH1 0xE0 DUP9 DUP11 SUB SLT ISZERO PUSH2 0x4C8 JUMPI PUSH1 0x0 DUP1 REVERT JUMPDEST PUSH2 0x4D1 DUP9 PUSH2 0x3D0 JUMP JUMPDEST SWAP7 POP PUSH2 0x4DF PUSH1 0x20 DUP10 ADD PUSH2 0x3D0 JUMP JUMPDEST SWAP6 POP PUSH2 0x4ED PUSH1 0x40 DUP10 ADD PUSH2 0x3D0 JUMP JUMPDEST PUSH1 0x60 DUP10 ADD MLOAD SWAP1 SWAP6 POP PUSH1 0x1 PUSH1 0x1 PUSH1 0x40 SHL SUB DUP1 DUP3 GT ISZERO PUSH2 0x50A JUMPI PUSH1 0x0 DUP1 REVERT JUMPDEST PUSH2 0x516 DUP12 DUP4 DUP13 ADD PUSH2 0x426 JUMP JUMPDEST SWAP6 POP PUSH1 0x80 DUP11 ADD MLOAD SWAP2 POP DUP1 DUP3 GT ISZERO PUSH2 0x52C JUMPI PUSH1 0x0 DUP1 REVERT JUMPDEST POP PUSH2 0x539 DUP11 DUP3 DUP12 ADD PUSH2 0x426 JUMP JUMPDEST SWAP4 POP POP PUSH1 0xA0 DUP9 ADD MLOAD PUSH1 0xFF DUP2 AND DUP2 EQ PUSH2 0x550 JUMPI PUSH1 0x0 DUP1 REVERT JUMPDEST SWAP2 POP PUSH2 0x55E PUSH1 0xC0 DUP10 ADD PUSH2 0x3D0 JUMP JUMPDEST SWAP1 POP SWAP3 SWAP6 SWAP9 SWAP2 SWAP5 SWAP8 POP SWAP3 SWAP6 POP JUMP JUMPDEST PUSH1 0x0 DUP2 MLOAD DUP1 DUP5 MSTORE PUSH2 0x584 DUP2 PUSH1 0x20 DUP7 ADD PUSH1 0x20 DUP7 ADD PUSH2 0x402 JUMP JUMPDEST PUSH1 0x1F ADD PUSH1 0x1F NOT AND SWAP3 SWAP1 SWAP3 ADD PUSH1 0x20 ADD SWAP3 SWAP2 POP POP JUMP JUMPDEST PUSH1 0x20 DUP2 MSTORE PUSH1 0x0 PUSH2 0x5AB PUSH1 0x20 DUP4 ADD DUP5 PUSH2 0x56C JUMP JUMPDEST SWAP4 SWAP3 POP POP POP JUMP JUMPDEST PUSH1 0x0 PUSH1 0x20 DUP3 DUP5 SUB SLT ISZERO PUSH2 0x5C4 JUMPI PUSH1 0x0 DUP1 REVERT JUMPDEST PUSH2 0x5AB DUP3 PUSH2 0x3D0 JUMP JUMPDEST PUSH1 0x0 PUSH1 0x1 DUP1 PUSH1 0xA0 SHL SUB DUP1 DUP10 AND DUP4 MSTORE DUP1 DUP9 AND PUSH1 0x20 DUP5 ADD MSTORE PUSH1 0xC0 PUSH1 0x40 DUP5 ADD MSTORE PUSH2 0x5F7 PUSH1 0xC0 DUP5 ADD DUP9 PUSH2 0x56C JUMP JUMPDEST DUP4 DUP2 SUB PUSH1 0x60 DUP6 ADD MSTORE PUSH2 0x609 DUP2 DUP9 PUSH2 0x56C JUMP JUMPDEST PUSH1 0xFF SWAP7 SWAP1 SWAP7 AND PUSH1 0x80 DUP6 ADD MSTORE POP SWAP3 SWAP1 SWAP3 AND PUSH1 0xA0 SWAP1 SWAP2 ADD MSTORE POP SWAP5 SWAP4 POP POP POP POP JUMP JUMPDEST PUSH1 0x0 DUP3 MLOAD PUSH2 0x63A DUP2 DUP5 PUSH1 0x20 DUP8 ADD PUSH2 0x402 JUMP JUMPDEST SWAP2 SWAP1 SWAP2 ADD SWAP3 SWAP2 POP POP JUMP JUMPDEST PUSH2 0x373 DUP1 PUSH2 0x653 PUSH1 0x0 CODECOPY PUSH1 0x0 RETURN INVALID PUSH1 0x80 PUSH1 0x40 MSTORE CALLVALUE DUP1 ISZERO PUSH2 0x10 JUMPI PUSH1 0x0 DUP1 REVERT JUMPDEST POP PUSH1 0x4 CALLDATASIZE LT PUSH2 0x41 JUMPI PUSH1 0x0 CALLDATALOAD PUSH1 0xE0 SHR DUP1 PUSH4 0x24173669 EQ PUSH2 0xE7 JUMPI DUP1 PUSH4 0x2D5F1187 EQ PUSH2 0x102 JUMPI DUP1 PUSH4 0x92DD9D65 EQ PUSH2 0x12A JUMPI JUMPDEST PUSH1 0x0 PUSH2 0x59 PUSH1 0x0 DUP1 MLOAD PUSH1 0x20 PUSH2 0x31E DUP4 CODECOPY DUP2 MLOAD SWAP2 MSTORE SLOAD SWAP1 JUMP JUMPDEST PUSH1 0x1 PUSH1 0x1 PUSH1 0xA0 SHL SUB AND PUSH4 0x709BC7F3 PUSH1 0x40 MLOAD DUP2 PUSH4 0xFFFFFFFF AND PUSH1 0xE0 SHL DUP2 MSTORE PUSH1 0x4 ADD PUSH1 0x20 PUSH1 0x40 MLOAD DUP1 DUP4 SUB DUP2 DUP7 GAS STATICCALL ISZERO DUP1 ISZERO PUSH2 0x96 JUMPI RETURNDATASIZE PUSH1 0x0 DUP1 RETURNDATACOPY RETURNDATASIZE PUSH1 0x0 REVERT JUMPDEST POP POP POP POP PUSH1 0x40 MLOAD RETURNDATASIZE PUSH1 0x1F NOT PUSH1 0x1F DUP3 ADD AND DUP3 ADD DUP1 PUSH1 0x40 MSTORE POP DUP2 ADD SWAP1 PUSH2 0xBA SWAP2 SWAP1 PUSH2 0x2B5 JUMP JUMPDEST SWAP1 POP CALLDATASIZE PUSH1 0x0 DUP1 CALLDATACOPY PUSH1 0x0 DUP1 CALLDATASIZE PUSH1 0x0 DUP5 PUSH2 0x2710 GAS SUB DELEGATECALL RETURNDATASIZE DUP1 PUSH1 0x0 DUP1 RETURNDATACOPY DUP2 DUP1 ISZERO PUSH2 0xE0 JUMPI DUP2 PUSH1 0x0 RETURN JUMPDEST DUP2 PUSH1 0x0 REVERT JUMPDEST STOP JUMPDEST PUSH2 0xEF PUSH2 0x13D JUMP JUMPDEST PUSH1 0x40 MLOAD SWAP1 DUP2 MSTORE PUSH1 0x20 ADD JUMPDEST PUSH1 0x40 MLOAD DUP1 SWAP2 SUB SWAP1 RETURN JUMPDEST PUSH1 0x0 DUP1 MLOAD PUSH1 0x20 PUSH2 0x31E DUP4 CODECOPY DUP2 MLOAD SWAP2 MSTORE SLOAD PUSH1 0x40 MLOAD PUSH1 0x1 PUSH1 0x1 PUSH1 0xA0 SHL SUB SWAP1 SWAP2 AND DUP2 MSTORE PUSH1 0x20 ADD PUSH2 0xF9 JUMP JUMPDEST PUSH2 0xE5 PUSH2 0x138 CALLDATASIZE PUSH1 0x4 PUSH2 0x2D9 JUMP JUMPDEST PUSH2 0x16F JUMP JUMPDEST PUSH1 0x0 PUSH2 0x16A PUSH1 0x1 PUSH32 0x4CD9B827CA535CEB0880425D70EFF88561ECDF04DC32FCF7FF3B15C587F8A871 PUSH2 0x2F6 JUMP JUMPDEST SWAP2 SWAP1 POP JUMP JUMPDEST PUSH1 0x0 DUP1 MLOAD PUSH1 0x20 PUSH2 0x31E DUP4 CODECOPY DUP2 MLOAD SWAP2 MSTORE SLOAD PUSH1 0x1 PUSH1 0x1 PUSH1 0xA0 SHL SUB AND CALLER PUSH1 0x1 PUSH1 0x1 PUSH1 0xA0 SHL SUB AND EQ PUSH2 0x1FA JUMPI PUSH1 0x40 MLOAD PUSH3 0x461BCD PUSH1 0xE5 SHL DUP2 MSTORE PUSH1 0x20 PUSH1 0x4 DUP3 ADD MSTORE PUSH1 0x2D PUSH1 0x24 DUP3 ADD MSTORE PUSH32 0x6F6E6C792063757272656E7420696D706C656D656E746174696F6E417574686F PUSH1 0x44 DUP3 ADD MSTORE PUSH13 0x1C9A5D1E4818D85B8818D85B1B PUSH1 0x9A SHL PUSH1 0x64 DUP3 ADD MSTORE PUSH1 0x84 ADD JUMPDEST PUSH1 0x40 MLOAD DUP1 SWAP2 SUB SWAP1 REVERT JUMPDEST PUSH1 0x1 PUSH1 0x1 PUSH1 0xA0 SHL SUB DUP2 AND PUSH2 0x250 JUMPI PUSH1 0x40 MLOAD PUSH3 0x461BCD PUSH1 0xE5 SHL DUP2 MSTORE PUSH1 0x20 PUSH1 0x4 DUP3 ADD MSTORE PUSH1 0x1F PUSH1 0x24 DUP3 ADD MSTORE PUSH32 0x696E76616C696420617267756D656E74202D207A65726F206164647265737300 PUSH1 0x44 DUP3 ADD MSTORE PUSH1 0x64 ADD PUSH2 0x1F1 JUMP JUMPDEST PUSH2 0x266 DUP2 PUSH1 0x0 DUP1 MLOAD PUSH1 0x20 PUSH2 0x31E DUP4 CODECOPY DUP2 MLOAD SWAP2 MSTORE SSTORE JUMP JUMPDEST PUSH1 0x40 MLOAD PUSH1 0x1 PUSH1 0x1 PUSH1 0xA0 SHL SUB DUP3 AND SWAP1 PUSH32 0x3B1074392ED8E8424715D0DDA2197EEDE67080B377FC8370E26F3E882207F6B8 SWAP1 PUSH1 0x0 SWAP1 LOG2 POP JUMP JUMPDEST PUSH1 0x1 PUSH1 0x1 PUSH1 0xA0 SHL SUB DUP2 AND DUP2 EQ PUSH2 0x2B2 JUMPI PUSH1 0x0 DUP1 REVERT JUMPDEST POP JUMP JUMPDEST PUSH1 0x0 PUSH1 0x20 DUP3 DUP5 SUB SLT ISZERO PUSH2 0x2C7 JUMPI PUSH1 0x0 DUP1 REVERT JUMPDEST DUP2 MLOAD PUSH2 0x2D2 DUP2 PUSH2 0x29D JUMP JUMPDEST SWAP4 SWAP3 POP POP POP JUMP JUMPDEST PUSH1 0x0 PUSH1 0x20 DUP3 DUP5 SUB SLT ISZERO PUSH2 0x2EB JUMPI PUSH1 0x0 DUP1 REVERT JUMPDEST DUP2 CALLDATALOAD PUSH2 0x2D2 DUP2 PUSH2 0x29D JUMP JUMPDEST DUP2 DUP2 SUB DUP2 DUP2 GT ISZERO PUSH2 0x317 JUMPI PUSH4 0x4E487B71 PUSH1 0xE0 SHL PUSH1 0x0 MSTORE PUSH1 0x11 PUSH1 0x4 MSTORE PUSH1 0x24 PUSH1 0x0 REVERT JUMPDEST SWAP3 SWAP2 POP POP JUMP INVALID 0xC5 CALL PUSH16 0xFCC639FA48A6947836D9850F5047985 0x23 0xBF DUP13 SWAP11 GASPRICE DUP8 0xD5 DUP8 PUSH13 0xF622BCF7A26469706673582212 KECCAK256 PUSH17 0xB3E734BDBC60053CC1B3CE9D84023D4B04 PUSH30 0xBCE306D600176ED8C4B5254ED864736F6C63430008110033C5F16F0FCC63 SWAP16 LOG4 DUP11 PUSH10 0x47836D9850F504798523 0xBF DUP13 SWAP11 GASPRICE DUP8 0xD5 DUP8 PUSH13 0xF622BCF7000000000000000000 "
		},
		"gasEstimates": {
			"creation": {
				"codeDepositCost": "176600",
				"executionCost": "infinite",
				"totalCost": "infinite"
			},
			"external": {
				"": "infinite",
				"getImplementationAuthority()": "infinite",
				"getslot()": "254",
				"setImplementationAuthority(address)": "infinite"
			}
		},
		"methodIdentifiers": {
			"getImplementationAuthority()": "2d5f1187",
			"getslot()": "24173669",
			"setImplementationAuthority(address)": "92dd9d65"
		}
	},
	"abi": [
		{
			"inputs": [
				{
					"internalType": "address",
					"name": "implementationAuthority",
					"type": "address"
				},
				{
					"internalType": "address",
					"name": "_identityRegistry",
					"type": "address"
				},
				{
					"internalType": "address",
					"name": "_compliance",
					"type": "address"
				},
				{
					"internalType": "string",
					"name": "_name",
					"type": "string"
				},
				{
					"internalType": "string",
					"name": "_symbol",
					"type": "string"
				},
				{
					"internalType": "uint8",
					"name": "_decimals",
					"type": "uint8"
				},
				{
					"internalType": "address",
					"name": "_onchainID",
					"type": "address"
				}
			],
			"stateMutability": "nonpayable",
			"type": "constructor"
		},
		{
			"anonymous": false,
			"inputs": [
				{
					"indexed": true,
					"internalType": "address",
					"name": "_implementationAuthority",
					"type": "address"
				}
			],
			"name": "ImplementationAuthoritySet",
			"type": "event"
		},
		{
			"anonymous": false,
			"inputs": [
				{
					"indexed": false,
					"internalType": "uint8",
					"name": "version",
					"type": "uint8"
				}
			],
			"name": "Initialized",
			"type": "event"
		},
		{
			"stateMutability": "nonpayable",
			"type": "fallback"
		},
		{
			"inputs": [],
			"name": "getImplementationAuthority",
			"outputs": [
				{
					"internalType": "address",
					"name": "",
					"type": "address"
				}
			],
			"stateMutability": "view",
			"type": "function"
		},
		{
			"inputs": [],
			"name": "getslot",
			"outputs": [
				{
					"internalType": "bytes32",
					"name": "",
					"type": "bytes32"
				}
			],
			"stateMutability": "pure",
			"type": "function"
		},
		{
			"inputs": [
				{
					"internalType": "address",
					"name": "_newImplementationAuthority",
					"type": "address"
				}
			],
			"name": "setImplementationAuthority",
			"outputs": [],
			"stateMutability": "nonpayable",
			"type": "function"
		}
	]
}