{
	"data": {
		"bytecode": {
			"linkReferences": {},
			"object": "608060405234801561001057600080fd5b50611f1c806100206000396000f3fe608060405234801561001057600080fd5b50600436106101c45760003560e01c80637e42683b116100f9578063b9209e3311610097578063e744d78911610071578063e744d789146103d5578063f0eb5e54146103e8578063f11abfd8146103fb578063f2fde38b1461040c57600080fd5b8063b9209e331461039a578063d547741f146103ad578063e58378bb146103c057600080fd5b806391d14854116100d357806391d148541461035b578063a217fddf1461036e578063a8d29d1d14610376578063b4f3fcb71461038957600080fd5b80637e42683b146103115780638da5cb5b146103375780638e098ca11461034857600080fd5b80633b239a7f116101665780635dbe47e8116101405780635dbe47e8146102d0578063653dc9f1146102e3578063670af6a9146102f6578063715018a61461030957600080fd5b80633b239a7f146102855780633b3e12f414610298578063454a03e0146102bd57600080fd5b8063248a9ca3116101a2578063248a9ca31461022957806326d941ae1461024c5780632f2ff15d1461025f57806336568abe1461027257600080fd5b806301ffc9a7146101c9578063184b9559146101f157806322459e1814610206575b600080fd5b6101dc6101d73660046116f5565b61041f565b60405190151581526020015b60405180910390f35b6102046101ff366004611734565b610456565b005b61021b600080516020611ec783398151915281565b6040519081526020016101e8565b61021b61023736600461177f565b60009081526065602052604090206001015490565b61020461025a366004611798565b6106f6565b61020461026d3660046117b5565b610759565b6102046102803660046117b5565b610783565b6102046102933660046117f5565b610801565b60c9546001600160a01b03165b6040516001600160a01b0390911681526020016101e8565b6102046102cb366004611823565b6108c1565b6101dc6102de366004611798565b610988565b6102046102f13660046118af565b6109b2565b610204610304366004611798565b610a50565b610204610ab3565b61032461031f366004611798565b610ac7565b60405161ffff90911681526020016101e8565b6097546001600160a01b03166102a5565b610204610356366004611949565b610b36565b6101dc6103693660046117b5565b610c00565b61021b600081565b610204610384366004611798565b610c2b565b60ca546001600160a01b03166102a5565b6101dc6103a8366004611798565b610cec565b6102046103bb3660046117b5565b611175565b61021b600080516020611ea783398151915281565b6102046103e3366004611798565b61119a565b6102a56103f6366004611798565b6111fd565b60cb546001600160a01b03166102a5565b61020461041a366004611798565b61126c565b60006001600160e01b03198216637965db0b60e01b148061045057506301ffc9a760e01b6001600160e01b03198316145b92915050565b600054610100900460ff16158080156104765750600054600160ff909116105b806104905750303b158015610490575060005460ff166001145b6104f85760405162461bcd60e51b815260206004820152602e60248201527f496e697469616c697a61626c653a20636f6e747261637420697320616c72656160448201526d191e481a5b9a5d1a585b1a5e995960921b60648201526084015b60405180910390fd5b6000805460ff19166001179055801561051b576000805461ff0019166101001790555b6105266000336112e5565b61053e600080516020611ea7833981519152336112e5565b610556600080516020611ec7833981519152336112e5565b6001600160a01b0384161580159061057657506001600160a01b03831615155b801561058a57506001600160a01b03821615155b6105d65760405162461bcd60e51b815260206004820152601f60248201527f696e76616c696420617267756d656e74202d207a65726f20616464726573730060448201526064016104ef565b60c980546001600160a01b038086166001600160a01b0319928316811790935560ca805488831690841617905560cb8054918616919092161790556040517f7170bf15b246e880b2369cd7c67d057760d8a35149e8c64dde91efa22bcc76d090600090a26040516001600160a01b038516907f1b98cb79e6f73020175fe87333f1b91ad6a881519c0afe30340c2599b2b4bde090600090a26040516001600160a01b038316907f2fa8b95c1db7afe99e3398f3792f008135cedc1fa26b0bb2ecd2352cd166d53c90600090a26106aa61136b565b80156106f0576000805461ff0019169055604051600181527f7f26b83ff96e1f2b6a682f133852f6798a09c465da95921460cefb38474024989060200160405180910390a15b50505050565b600080516020611ea783398151915261070e8161139a565b60cb80546001600160a01b0319166001600160a01b0384169081179091556040517f2fa8b95c1db7afe99e3398f3792f008135cedc1fa26b0bb2ecd2352cd166d53c90600090a25050565b6000828152606560205260409020600101546107748161139a565b61077e83836112e5565b505050565b6001600160a01b03811633146107f35760405162461bcd60e51b815260206004820152602f60248201527f416363657373436f6e74726f6c3a2063616e206f6e6c792072656e6f756e636560448201526e103937b632b9903337b91039b2b63360891b60648201526084016104ef565b6107fd82826113a4565b5050565b600080516020611ec78339815191526108198161139a565b60cb54604051639f3418d560e01b81526001600160a01b03858116600483015261ffff8516602483015290911690639f3418d590604401600060405180830381600087803b15801561086a57600080fd5b505af115801561087e573d6000803e3d6000fd5b505060405161ffff851692506001600160a01b03861691507f04ed3b726495c2dca1ff1215d9ca54e1a4030abb5e82b0f6ce55702416cee85390600090a3505050565b600080516020611ec78339815191526108d98161139a565b60cb5460405163a53410dd60e01b81526001600160a01b038681166004830152858116602483015261ffff851660448301529091169063a53410dd90606401600060405180830381600087803b15801561093257600080fd5b505af1158015610946573d6000803e3d6000fd5b50506040516001600160a01b038087169350871691507f6ae73635c50d24a45af6fbd5e016ac4bed179addbc8bf24e04ff0fcc6d33af1990600090a350505050565b600080610994836111fd565b6001600160a01b0316036109aa57506000919050565b506001919050565b60005b85811015610a4757610a358787838181106109d2576109d2611977565b90506020020160208101906109e79190611798565b8686848181106109f9576109f9611977565b9050602002016020810190610a0e9190611798565b858585818110610a2057610a20611977565b90506020020160208101906102cb919061198d565b80610a3f816119c0565b9150506109b5565b50505050505050565b600080516020611ea7833981519152610a688161139a565b60c980546001600160a01b0319166001600160a01b0384169081179091556040517f7170bf15b246e880b2369cd7c67d057760d8a35149e8c64dde91efa22bcc76d090600090a25050565b610abb61140b565b610ac56000611465565b565b60cb54604051631c9f84ef60e21b81526001600160a01b038381166004830152600092169063727e13bc90602401602060405180830381865afa158015610b12573d6000803e3d6000fd5b505050506040513d601f19601f8201168201806040525081019061045091906119d9565b600080516020611ec7833981519152610b4e8161139a565b6000610b59846111fd565b60cb54604051637402e7c360e11b81526001600160a01b038781166004830152868116602483015292935091169063e805cf8690604401600060405180830381600087803b158015610baa57600080fd5b505af1158015610bbe573d6000803e3d6000fd5b50506040516001600160a01b038087169350841691507fe98082932c8056a0f514da9104e4a66bc2cbaef102ad59d90c4b24220ebf601090600090a350505050565b60009182526065602090815260408084206001600160a01b0393909316845291905290205460ff1690565b600080516020611ec7833981519152610c438161139a565b6000610c4e836111fd565b60cb5460405163cf191bcd60e01b81526001600160a01b03868116600483015292935091169063cf191bcd90602401600060405180830381600087803b158015610c9757600080fd5b505af1158015610cab573d6000803e3d6000fd5b50506040516001600160a01b038085169350861691507f59d6590e225b81befe259af056324092801080acbb7feab310eb34678871f32790600090a3505050565b600080610cf8836111fd565b6001600160a01b031603610d0e57506000919050565b60c954604080516337c2758160e21b815290516000926001600160a01b03169163df09d60491600480830192869291908290030181865afa158015610d57573d6000803e3d6000fd5b505050506040513d6000823e601f3d908101601f19168201604052610d7f9190810190611a61565b90508051600003610d935750600192915050565b600080600060608060005b86518110156111665760ca5487516000916001600160a01b0316906352c111d1908a9085908110610dd157610dd1611977565b60200260200101516040518263ffffffff1660e01b8152600401610df791815260200190565b600060405180830381865afa158015610e14573d6000803e3d6000fd5b505050506040513d6000823e601f3d908101601f19168201604052610e3c9190810190611af7565b90508051600003610e57575060009998505050505050505050565b6000815167ffffffffffffffff811115610e7357610e736119f6565b604051908082528060200260200182016040528015610e9c578160200160208202803683370190505b50905060005b8251811015610f4957828181518110610ebd57610ebd611977565b60200260200101518a8581518110610ed757610ed7611977565b6020026020010151604051602001610f049291906001600160a01b03929092168252602082015260400190565b60405160208183030381529060405280519060200120828281518110610f2c57610f2c611977565b602090810291909101015280610f41816119c0565b915050610ea2565b5060005b815181101561115057610f5f8c6111fd565b6001600160a01b031663c9100bcb838381518110610f7f57610f7f611977565b60200260200101516040518263ffffffff1660e01b8152600401610fa591815260200190565b600060405180830381865afa158015610fc2573d6000803e3d6000fd5b505050506040513d6000823e601f3d908101601f19168201604052610fea9190810190611c19565b508e51949d50929b50909950975095508a908590811061100c5761100c611977565b6020026020010151890361111857866001600160a01b031663c0969a6e6110328e6111fd565b8c878151811061104457611044611977565b602002602001015189896040518563ffffffff1660e01b815260040161106d9493929190611d07565b602060405180830381865afa9250505080156110a6575060408051601f3d908101601f191682019092526110a391810190611d40565b60015b6110d557600182516110b89190611d62565b81036110d0575060009b9a5050505050505050505050565b61113e565b80156110e057825191505b801580156110fa5750600183516110f79190611d62565b82145b15611112575060009c9b505050505050505050505050565b5061113e565b600182516111269190611d62565b810361113e575060009b9a5050505050505050505050565b80611148816119c0565b915050610f4d565b505050808061115e906119c0565b915050610d9e565b50600198975050505050505050565b6000828152606560205260409020600101546111908161139a565b61077e83836113a4565b600080516020611ea78339815191526111b28161139a565b60ca80546001600160a01b0319166001600160a01b0384169081179091556040517f1b98cb79e6f73020175fe87333f1b91ad6a881519c0afe30340c2599b2b4bde090600090a25050565b60cb54604051637988d3a560e01b81526001600160a01b0383811660048301526000921690637988d3a590602401602060405180830381865afa158015611248573d6000803e3d6000fd5b505050506040513d601f19601f820116820180604052508101906104509190611d75565b61127461140b565b6001600160a01b0381166112d95760405162461bcd60e51b815260206004820152602660248201527f4f776e61626c653a206e6577206f776e657220697320746865207a65726f206160448201526564647265737360d01b60648201526084016104ef565b6112e281611465565b50565b6112ef8282610c00565b6107fd5760008281526065602090815260408083206001600160a01b03851684529091529020805460ff191660011790556113273390565b6001600160a01b0316816001600160a01b0316837f2f8788117e7eff1d82e926ec794901d17c78024a50270940304540a733656f0d60405160405180910390a45050565b600054610100900460ff166113925760405162461bcd60e51b81526004016104ef90611d92565b610ac56114b7565b6112e281336114e7565b6113ae8282610c00565b156107fd5760008281526065602090815260408083206001600160a01b0385168085529252808320805460ff1916905551339285917ff6391f5c32d9c69d2a47ea670b442974b53935d1edc7fd64eb21e047a839171b9190a45050565b6097546001600160a01b03163314610ac55760405162461bcd60e51b815260206004820181905260248201527f4f776e61626c653a2063616c6c6572206973206e6f7420746865206f776e657260448201526064016104ef565b609780546001600160a01b038381166001600160a01b0319831681179093556040519116919082907f8be0079c531659141344cd1fd0a4f28419497f9722a3daafe3b4186f6b6457e090600090a35050565b600054610100900460ff166114de5760405162461bcd60e51b81526004016104ef90611d92565b610ac533611465565b6114f18282610c00565b6107fd576114fe81611540565b611509836020611552565b60405160200161151a929190611ddd565b60408051601f198184030181529082905262461bcd60e51b82526104ef91600401611e52565b60606104506001600160a01b03831660145b60606000611561836002611e65565b61156c906002611e7c565b67ffffffffffffffff811115611584576115846119f6565b6040519080825280601f01601f1916602001820160405280156115ae576020820181803683370190505b509050600360fc1b816000815181106115c9576115c9611977565b60200101906001600160f81b031916908160001a905350600f60fb1b816001815181106115f8576115f8611977565b60200101906001600160f81b031916908160001a905350600061161c846002611e65565b611627906001611e7c565b90505b600181111561169f576f181899199a1a9b1b9c1cb0b131b232b360811b85600f166010811061165b5761165b611977565b1a60f81b82828151811061167157611671611977565b60200101906001600160f81b031916908160001a90535060049490941c9361169881611e8f565b905061162a565b5083156116ee5760405162461bcd60e51b815260206004820181905260248201527f537472696e67733a20686578206c656e67746820696e73756666696369656e7460448201526064016104ef565b9392505050565b60006020828403121561170757600080fd5b81356001600160e01b0319811681146116ee57600080fd5b6001600160a01b03811681146112e257600080fd5b60008060006060848603121561174957600080fd5b83356117548161171f565b925060208401356117648161171f565b915060408401356117748161171f565b809150509250925092565b60006020828403121561179157600080fd5b5035919050565b6000602082840312156117aa57600080fd5b81356116ee8161171f565b600080604083850312156117c857600080fd5b8235915060208301356117da8161171f565b809150509250929050565b61ffff811681146112e257600080fd5b6000806040838503121561180857600080fd5b82356118138161171f565b915060208301356117da816117e5565b60008060006060848603121561183857600080fd5b83356118438161171f565b925060208401356118538161171f565b91506040840135611774816117e5565b60008083601f84011261187557600080fd5b50813567ffffffffffffffff81111561188d57600080fd5b6020830191508360208260051b85010111156118a857600080fd5b9250929050565b600080600080600080606087890312156118c857600080fd5b863567ffffffffffffffff808211156118e057600080fd5b6118ec8a838b01611863565b9098509650602089013591508082111561190557600080fd5b6119118a838b01611863565b9096509450604089013591508082111561192a57600080fd5b5061193789828a01611863565b979a9699509497509295939492505050565b6000806040838503121561195c57600080fd5b82356119678161171f565b915060208301356117da8161171f565b634e487b7160e01b600052603260045260246000fd5b60006020828403121561199f57600080fd5b81356116ee816117e5565b634e487b7160e01b600052601160045260246000fd5b6000600182016119d2576119d26119aa565b5060010190565b6000602082840312156119eb57600080fd5b81516116ee816117e5565b634e487b7160e01b600052604160045260246000fd5b604051601f8201601f1916810167ffffffffffffffff81118282101715611a3557611a356119f6565b604052919050565b600067ffffffffffffffff821115611a5757611a576119f6565b5060051b60200190565b60006020808385031215611a7457600080fd5b825167ffffffffffffffff811115611a8b57600080fd5b8301601f81018513611a9c57600080fd5b8051611aaf611aaa82611a3d565b611a0c565b81815260059190911b82018301908381019087831115611ace57600080fd5b928401925b82841015611aec57835182529284019290840190611ad3565b979650505050505050565b60006020808385031215611b0a57600080fd5b825167ffffffffffffffff811115611b2157600080fd5b8301601f81018513611b3257600080fd5b8051611b40611aaa82611a3d565b81815260059190911b82018301908381019087831115611b5f57600080fd5b928401925b82841015611aec578351611b778161171f565b82529284019290840190611b64565b60005b83811015611ba1578181015183820152602001611b89565b50506000910152565b600067ffffffffffffffff831115611bc457611bc46119f6565b611bd7601f8401601f1916602001611a0c565b9050828152838383011115611beb57600080fd5b6116ee836020830184611b86565b600082601f830112611c0a57600080fd5b6116ee83835160208501611baa565b60008060008060008060c08789031215611c3257600080fd5b86519550602087015194506040870151611c4b8161171f565b606088015190945067ffffffffffffffff80821115611c6957600080fd5b611c758a838b01611bf9565b94506080890151915080821115611c8b57600080fd5b611c978a838b01611bf9565b935060a0890151915080821115611cad57600080fd5b508701601f81018913611cbf57600080fd5b611cce89825160208401611baa565b9150509295509295509295565b60008151808452611cf3816020860160208601611b86565b601f01601f19169290920160200192915050565b60018060a01b0385168152836020820152608060408201526000611d2e6080830185611cdb565b8281036060840152611aec8185611cdb565b600060208284031215611d5257600080fd5b815180151581146116ee57600080fd5b81810381811115610450576104506119aa565b600060208284031215611d8757600080fd5b81516116ee8161171f565b6020808252602b908201527f496e697469616c697a61626c653a20636f6e7472616374206973206e6f74206960408201526a6e697469616c697a696e6760a81b606082015260800190565b7f416363657373436f6e74726f6c3a206163636f756e7420000000000000000000815260008351611e15816017850160208801611b86565b7001034b99036b4b9b9b4b733903937b6329607d1b6017918401918201528351611e46816028840160208801611b86565b01602801949350505050565b6020815260006116ee6020830184611cdb565b8082028115828204841417610450576104506119aa565b80820180821115610450576104506119aa565b600081611e9e57611e9e6119aa565b50600019019056feb19546dff01e856fb3f010c267a7b1c60363cf8a4664e21cc89c26224620214ecab5a0bfe0b79d2c4b1c2e02599fa044d115b7511f9659307cb4276950967709a264697066735822122030b0b5bbe17f19b43de4c88f46b0fd1f74b05922fdb5cf32ff18c9e301eb7dd864736f6c63430008110033",
			"opcodes": "PUSH1 0x80 PUSH1 0x40 MSTORE CALLVALUE DUP1 ISZERO PUSH2 0x10 JUMPI PUSH1 0x0 DUP1 REVERT JUMPDEST POP PUSH2 0x1F1C DUP1 PUSH2 0x20 PUSH1 0x0 CODECOPY PUSH1 0x0 RETURN INVALID PUSH1 0x80 PUSH1 0x40 MSTORE CALLVALUE DUP1 ISZERO PUSH2 0x10 JUMPI PUSH1 0x0 DUP1 REVERT JUMPDEST POP PUSH1 0x4 CALLDATASIZE LT PUSH2 0x1C4 JUMPI PUSH1 0x0 CALLDATALOAD PUSH1 0xE0 SHR DUP1 PUSH4 0x7E42683B GT PUSH2 0xF9 JUMPI DUP1 PUSH4 0xB9209E33 GT PUSH2 0x97 JUMPI DUP1 PUSH4 0xE744D789 GT PUSH2 0x71 JUMPI DUP1 PUSH4 0xE744D789 EQ PUSH2 0x3D5 JUMPI DUP1 PUSH4 0xF0EB5E54 EQ PUSH2 0x3E8 JUMPI DUP1 PUSH4 0xF11ABFD8 EQ PUSH2 0x3FB JUMPI DUP1 PUSH4 0xF2FDE38B EQ PUSH2 0x40C JUMPI PUSH1 0x0 DUP1 REVERT JUMPDEST DUP1 PUSH4 0xB9209E33 EQ PUSH2 0x39A JUMPI DUP1 PUSH4 0xD547741F EQ PUSH2 0x3AD JUMPI DUP1 PUSH4 0xE58378BB EQ PUSH2 0x3C0 JUMPI PUSH1 0x0 DUP1 REVERT JUMPDEST DUP1 PUSH4 0x91D14854 GT PUSH2 0xD3 JUMPI DUP1 PUSH4 0x91D14854 EQ PUSH2 0x35B JUMPI DUP1 PUSH4 0xA217FDDF EQ PUSH2 0x36E JUMPI DUP1 PUSH4 0xA8D29D1D EQ PUSH2 0x376 JUMPI DUP1 PUSH4 0xB4F3FCB7 EQ PUSH2 0x389 JUMPI PUSH1 0x0 DUP1 REVERT JUMPDEST DUP1 PUSH4 0x7E42683B EQ PUSH2 0x311 JUMPI DUP1 PUSH4 0x8DA5CB5B EQ PUSH2 0x337 JUMPI DUP1 PUSH4 0x8E098CA1 EQ PUSH2 0x348 JUMPI PUSH1 0x0 DUP1 REVERT JUMPDEST DUP1 PUSH4 0x3B239A7F GT PUSH2 0x166 JUMPI DUP1 PUSH4 0x5DBE47E8 GT PUSH2 0x140 JUMPI DUP1 PUSH4 0x5DBE47E8 EQ PUSH2 0x2D0 JUMPI DUP1 PUSH4 0x653DC9F1 EQ PUSH2 0x2E3 JUMPI DUP1 PUSH4 0x670AF6A9 EQ PUSH2 0x2F6 JUMPI DUP1 PUSH4 0x715018A6 EQ PUSH2 0x309 JUMPI PUSH1 0x0 DUP1 REVERT JUMPDEST DUP1 PUSH4 0x3B239A7F EQ PUSH2 0x285 JUMPI DUP1 PUSH4 0x3B3E12F4 EQ PUSH2 0x298 JUMPI DUP1 PUSH4 0x454A03E0 EQ PUSH2 0x2BD JUMPI PUSH1 0x0 DUP1 REVERT JUMPDEST DUP1 PUSH4 0x248A9CA3 GT PUSH2 0x1A2 JUMPI DUP1 PUSH4 0x248A9CA3 EQ PUSH2 0x229 JUMPI DUP1 PUSH4 0x26D941AE EQ PUSH2 0x24C JUMPI DUP1 PUSH4 0x2F2FF15D EQ PUSH2 0x25F JUMPI DUP1 PUSH4 0x36568ABE EQ PUSH2 0x272 JUMPI PUSH1 0x0 DUP1 REVERT JUMPDEST DUP1 PUSH4 0x1FFC9A7 EQ PUSH2 0x1C9 JUMPI DUP1 PUSH4 0x184B9559 EQ PUSH2 0x1F1 JUMPI DUP1 PUSH4 0x22459E18 EQ PUSH2 0x206 JUMPI JUMPDEST PUSH1 0x0 DUP1 REVERT JUMPDEST PUSH2 0x1DC PUSH2 0x1D7 CALLDATASIZE PUSH1 0x4 PUSH2 0x16F5 JUMP JUMPDEST PUSH2 0x41F JUMP JUMPDEST PUSH1 0x40 MLOAD SWAP1 ISZERO ISZERO DUP2 MSTORE PUSH1 0x20 ADD JUMPDEST PUSH1 0x40 MLOAD DUP1 SWAP2 SUB SWAP1 RETURN JUMPDEST PUSH2 0x204 PUSH2 0x1FF CALLDATASIZE PUSH1 0x4 PUSH2 0x1734 JUMP JUMPDEST PUSH2 0x456 JUMP JUMPDEST STOP JUMPDEST PUSH2 0x21B PUSH1 0x0 DUP1 MLOAD PUSH1 0x20 PUSH2 0x1EC7 DUP4 CODECOPY DUP2 MLOAD SWAP2 MSTORE DUP2 JUMP JUMPDEST PUSH1 0x40 MLOAD SWAP1 DUP2 MSTORE PUSH1 0x20 ADD PUSH2 0x1E8 JUMP JUMPDEST PUSH2 0x21B PUSH2 0x237 CALLDATASIZE PUSH1 0x4 PUSH2 0x177F JUMP JUMPDEST PUSH1 0x0 SWAP1 DUP2 MSTORE PUSH1 0x65 PUSH1 0x20 MSTORE PUSH1 0x40 SWAP1 KECCAK256 PUSH1 0x1 ADD SLOAD SWAP1 JUMP JUMPDEST PUSH2 0x204 PUSH2 0x25A CALLDATASIZE PUSH1 0x4 PUSH2 0x1798 JUMP JUMPDEST PUSH2 0x6F6 JUMP JUMPDEST PUSH2 0x204 PUSH2 0x26D CALLDATASIZE PUSH1 0x4 PUSH2 0x17B5 JUMP JUMPDEST PUSH2 0x759 JUMP JUMPDEST PUSH2 0x204 PUSH2 0x280 CALLDATASIZE PUSH1 0x4 PUSH2 0x17B5 JUMP JUMPDEST PUSH2 0x783 JUMP JUMPDEST PUSH2 0x204 PUSH2 0x293 CALLDATASIZE PUSH1 0x4 PUSH2 0x17F5 JUMP JUMPDEST PUSH2 0x801 JUMP JUMPDEST PUSH1 0xC9 SLOAD PUSH1 0x1 PUSH1 0x1 PUSH1 0xA0 SHL SUB AND JUMPDEST PUSH1 0x40 MLOAD PUSH1 0x1 PUSH1 0x1 PUSH1 0xA0 SHL SUB SWAP1 SWAP2 AND DUP2 MSTORE PUSH1 0x20 ADD PUSH2 0x1E8 JUMP JUMPDEST PUSH2 0x204 PUSH2 0x2CB CALLDATASIZE PUSH1 0x4 PUSH2 0x1823 JUMP JUMPDEST PUSH2 0x8C1 JUMP JUMPDEST PUSH2 0x1DC PUSH2 0x2DE CALLDATASIZE PUSH1 0x4 PUSH2 0x1798 JUMP JUMPDEST PUSH2 0x988 JUMP JUMPDEST PUSH2 0x204 PUSH2 0x2F1 CALLDATASIZE PUSH1 0x4 PUSH2 0x18AF JUMP JUMPDEST PUSH2 0x9B2 JUMP JUMPDEST PUSH2 0x204 PUSH2 0x304 CALLDATASIZE PUSH1 0x4 PUSH2 0x1798 JUMP JUMPDEST PUSH2 0xA50 JUMP JUMPDEST PUSH2 0x204 PUSH2 0xAB3 JUMP JUMPDEST PUSH2 0x324 PUSH2 0x31F CALLDATASIZE PUSH1 0x4 PUSH2 0x1798 JUMP JUMPDEST PUSH2 0xAC7 JUMP JUMPDEST PUSH1 0x40 MLOAD PUSH2 0xFFFF SWAP1 SWAP2 AND DUP2 MSTORE PUSH1 0x20 ADD PUSH2 0x1E8 JUMP JUMPDEST PUSH1 0x97 SLOAD PUSH1 0x1 PUSH1 0x1 PUSH1 0xA0 SHL SUB AND PUSH2 0x2A5 JUMP JUMPDEST PUSH2 0x204 PUSH2 0x356 CALLDATASIZE PUSH1 0x4 PUSH2 0x1949 JUMP JUMPDEST PUSH2 0xB36 JUMP JUMPDEST PUSH2 0x1DC PUSH2 0x369 CALLDATASIZE PUSH1 0x4 PUSH2 0x17B5 JUMP JUMPDEST PUSH2 0xC00 JUMP JUMPDEST PUSH2 0x21B PUSH1 0x0 DUP2 JUMP JUMPDEST PUSH2 0x204 PUSH2 0x384 CALLDATASIZE PUSH1 0x4 PUSH2 0x1798 JUMP JUMPDEST PUSH2 0xC2B JUMP JUMPDEST PUSH1 0xCA SLOAD PUSH1 0x1 PUSH1 0x1 PUSH1 0xA0 SHL SUB AND PUSH2 0x2A5 JUMP JUMPDEST PUSH2 0x1DC PUSH2 0x3A8 CALLDATASIZE PUSH1 0x4 PUSH2 0x1798 JUMP JUMPDEST PUSH2 0xCEC JUMP JUMPDEST PUSH2 0x204 PUSH2 0x3BB CALLDATASIZE PUSH1 0x4 PUSH2 0x17B5 JUMP JUMPDEST PUSH2 0x1175 JUMP JUMPDEST PUSH2 0x21B PUSH1 0x0 DUP1 MLOAD PUSH1 0x20 PUSH2 0x1EA7 DUP4 CODECOPY DUP2 MLOAD SWAP2 MSTORE DUP2 JUMP JUMPDEST PUSH2 0x204 PUSH2 0x3E3 CALLDATASIZE PUSH1 0x4 PUSH2 0x1798 JUMP JUMPDEST PUSH2 0x119A JUMP JUMPDEST PUSH2 0x2A5 PUSH2 0x3F6 CALLDATASIZE PUSH1 0x4 PUSH2 0x1798 JUMP JUMPDEST PUSH2 0x11FD JUMP JUMPDEST PUSH1 0xCB SLOAD PUSH1 0x1 PUSH1 0x1 PUSH1 0xA0 SHL SUB AND PUSH2 0x2A5 JUMP JUMPDEST PUSH2 0x204 PUSH2 0x41A CALLDATASIZE PUSH1 0x4 PUSH2 0x1798 JUMP JUMPDEST PUSH2 0x126C JUMP JUMPDEST PUSH1 0x0 PUSH1 0x1 PUSH1 0x1 PUSH1 0xE0 SHL SUB NOT DUP3 AND PUSH4 0x7965DB0B PUSH1 0xE0 SHL EQ DUP1 PUSH2 0x450 JUMPI POP PUSH4 0x1FFC9A7 PUSH1 0xE0 SHL PUSH1 0x1 PUSH1 0x1 PUSH1 0xE0 SHL SUB NOT DUP4 AND EQ JUMPDEST SWAP3 SWAP2 POP POP JUMP JUMPDEST PUSH1 0x0 SLOAD PUSH2 0x100 SWAP1 DIV PUSH1 0xFF AND ISZERO DUP1 DUP1 ISZERO PUSH2 0x476 JUMPI POP PUSH1 0x0 SLOAD PUSH1 0x1 PUSH1 0xFF SWAP1 SWAP2 AND LT JUMPDEST DUP1 PUSH2 0x490 JUMPI POP ADDRESS EXTCODESIZE ISZERO DUP1 ISZERO PUSH2 0x490 JUMPI POP PUSH1 0x0 SLOAD PUSH1 0xFF AND PUSH1 0x1 EQ JUMPDEST PUSH2 0x4F8 JUMPI PUSH1 0x40 MLOAD PUSH3 0x461BCD PUSH1 0xE5 SHL DUP2 MSTORE PUSH1 0x20 PUSH1 0x4 DUP3 ADD MSTORE PUSH1 0x2E PUSH1 0x24 DUP3 ADD MSTORE PUSH32 0x496E697469616C697A61626C653A20636F6E747261637420697320616C726561 PUSH1 0x44 DUP3 ADD MSTORE PUSH14 0x191E481A5B9A5D1A585B1A5E9959 PUSH1 0x92 SHL PUSH1 0x64 DUP3 ADD MSTORE PUSH1 0x84 ADD JUMPDEST PUSH1 0x40 MLOAD DUP1 SWAP2 SUB SWAP1 REVERT JUMPDEST PUSH1 0x0 DUP1 SLOAD PUSH1 0xFF NOT AND PUSH1 0x1 OR SWAP1 SSTORE DUP1 ISZERO PUSH2 0x51B JUMPI PUSH1 0x0 DUP1 SLOAD PUSH2 0xFF00 NOT AND PUSH2 0x100 OR SWAP1 SSTORE JUMPDEST PUSH2 0x526 PUSH1 0x0 CALLER PUSH2 0x12E5 JUMP JUMPDEST PUSH2 0x53E PUSH1 0x0 DUP1 MLOAD PUSH1 0x20 PUSH2 0x1EA7 DUP4 CODECOPY DUP2 MLOAD SWAP2 MSTORE CALLER PUSH2 0x12E5 JUMP JUMPDEST PUSH2 0x556 PUSH1 0x0 DUP1 MLOAD PUSH1 0x20 PUSH2 0x1EC7 DUP4 CODECOPY DUP2 MLOAD SWAP2 MSTORE CALLER PUSH2 0x12E5 JUMP JUMPDEST PUSH1 0x1 PUSH1 0x1 PUSH1 0xA0 SHL SUB DUP5 AND ISZERO DUP1 ISZERO SWAP1 PUSH2 0x576 JUMPI POP PUSH1 0x1 PUSH1 0x1 PUSH1 0xA0 SHL SUB DUP4 AND ISZERO ISZERO JUMPDEST DUP1 ISZERO PUSH2 0x58A JUMPI POP PUSH1 0x1 PUSH1 0x1 PUSH1 0xA0 SHL SUB DUP3 AND ISZERO ISZERO JUMPDEST PUSH2 0x5D6 JUMPI PUSH1 0x40 MLOAD PUSH3 0x461BCD PUSH1 0xE5 SHL DUP2 MSTORE PUSH1 0x20 PUSH1 0x4 DUP3 ADD MSTORE PUSH1 0x1F PUSH1 0x24 DUP3 ADD MSTORE PUSH32 0x696E76616C696420617267756D656E74202D207A65726F206164647265737300 PUSH1 0x44 DUP3 ADD MSTORE PUSH1 0x64 ADD PUSH2 0x4EF JUMP JUMPDEST PUSH1 0xC9 DUP1 SLOAD PUSH1 0x1 PUSH1 0x1 PUSH1 0xA0 SHL SUB DUP1 DUP7 AND PUSH1 0x1 PUSH1 0x1 PUSH1 0xA0 SHL SUB NOT SWAP3 DUP4 AND DUP2 OR SWAP1 SWAP4 SSTORE PUSH1 0xCA DUP1 SLOAD DUP9 DUP4 AND SWAP1 DUP5 AND OR SWAP1 SSTORE PUSH1 0xCB DUP1 SLOAD SWAP2 DUP7 AND SWAP2 SWAP1 SWAP3 AND OR SWAP1 SSTORE PUSH1 0x40 MLOAD PUSH32 0x7170BF15B246E880B2369CD7C67D057760D8A35149E8C64DDE91EFA22BCC76D0 SWAP1 PUSH1 0x0 SWAP1 LOG2 PUSH1 0x40 MLOAD PUSH1 0x1 PUSH1 0x1 PUSH1 0xA0 SHL SUB DUP6 AND SWAP1 PUSH32 0x1B98CB79E6F73020175FE87333F1B91AD6A881519C0AFE30340C2599B2B4BDE0 SWAP1 PUSH1 0x0 SWAP1 LOG2 PUSH1 0x40 MLOAD PUSH1 0x1 PUSH1 0x1 PUSH1 0xA0 SHL SUB DUP4 AND SWAP1 PUSH32 0x2FA8B95C1DB7AFE99E3398F3792F008135CEDC1FA26B0BB2ECD2352CD166D53C SWAP1 PUSH1 0x0 SWAP1 LOG2 PUSH2 0x6AA PUSH2 0x136B JUMP JUMPDEST DUP1 ISZERO PUSH2 0x6F0 JUMPI PUSH1 0x0 DUP1 SLOAD PUSH2 0xFF00 NOT AND SWAP1 SSTORE PUSH1 0x40 MLOAD PUSH1 0x1 DUP2 MSTORE PUSH32 0x7F26B83FF96E1F2B6A682F133852F6798A09C465DA95921460CEFB3847402498 SWAP1 PUSH1 0x20 ADD PUSH1 0x40 MLOAD DUP1 SWAP2 SUB SWAP1 LOG1 JUMPDEST POP POP POP POP JUMP JUMPDEST PUSH1 0x0 DUP1 MLOAD PUSH1 0x20 PUSH2 0x1EA7 DUP4 CODECOPY DUP2 MLOAD SWAP2 MSTORE PUSH2 0x70E DUP2 PUSH2 0x139A JUMP JUMPDEST PUSH1 0xCB DUP1 SLOAD PUSH1 0x1 PUSH1 0x1 PUSH1 0xA0 SHL SUB NOT AND PUSH1 0x1 PUSH1 0x1 PUSH1 0xA0 SHL SUB DUP5 AND SWAP1 DUP2 OR SWAP1 SWAP2 SSTORE PUSH1 0x40 MLOAD PUSH32 0x2FA8B95C1DB7AFE99E3398F3792F008135CEDC1FA26B0BB2ECD2352CD166D53C SWAP1 PUSH1 0x0 SWAP1 LOG2 POP POP JUMP JUMPDEST PUSH1 0x0 DUP3 DUP2 MSTORE PUSH1 0x65 PUSH1 0x20 MSTORE PUSH1 0x40 SWAP1 KECCAK256 PUSH1 0x1 ADD SLOAD PUSH2 0x774 DUP2 PUSH2 0x139A JUMP JUMPDEST PUSH2 0x77E DUP4 DUP4 PUSH2 0x12E5 JUMP JUMPDEST POP POP POP JUMP JUMPDEST PUSH1 0x1 PUSH1 0x1 PUSH1 0xA0 SHL SUB DUP2 AND CALLER EQ PUSH2 0x7F3 JUMPI PUSH1 0x40 MLOAD PUSH3 0x461BCD PUSH1 0xE5 SHL DUP2 MSTORE PUSH1 0x20 PUSH1 0x4 DUP3 ADD MSTORE PUSH1 0x2F PUSH1 0x24 DUP3 ADD MSTORE PUSH32 0x416363657373436F6E74726F6C3A2063616E206F6E6C792072656E6F756E6365 PUSH1 0x44 DUP3 ADD MSTORE PUSH15 0x103937B632B9903337B91039B2B633 PUSH1 0x89 SHL PUSH1 0x64 DUP3 ADD MSTORE PUSH1 0x84 ADD PUSH2 0x4EF JUMP JUMPDEST PUSH2 0x7FD DUP3 DUP3 PUSH2 0x13A4 JUMP JUMPDEST POP POP JUMP JUMPDEST PUSH1 0x0 DUP1 MLOAD PUSH1 0x20 PUSH2 0x1EC7 DUP4 CODECOPY DUP2 MLOAD SWAP2 MSTORE PUSH2 0x819 DUP2 PUSH2 0x139A JUMP JUMPDEST PUSH1 0xCB SLOAD PUSH1 0x40 MLOAD PUSH4 0x9F3418D5 PUSH1 0xE0 SHL DUP2 MSTORE PUSH1 0x1 PUSH1 0x1 PUSH1 0xA0 SHL SUB DUP6 DUP2 AND PUSH1 0x4 DUP4 ADD MSTORE PUSH2 0xFFFF DUP6 AND PUSH1 0x24 DUP4 ADD MSTORE SWAP1 SWAP2 AND SWAP1 PUSH4 0x9F3418D5 SWAP1 PUSH1 0x44 ADD PUSH1 0x0 PUSH1 0x40 MLOAD DUP1 DUP4 SUB DUP2 PUSH1 0x0 DUP8 DUP1 EXTCODESIZE ISZERO DUP1 ISZERO PUSH2 0x86A JUMPI PUSH1 0x0 DUP1 REVERT JUMPDEST POP GAS CALL ISZERO DUP1 ISZERO PUSH2 0x87E JUMPI RETURNDATASIZE PUSH1 0x0 DUP1 RETURNDATACOPY RETURNDATASIZE PUSH1 0x0 REVERT JUMPDEST POP POP PUSH1 0x40 MLOAD PUSH2 0xFFFF DUP6 AND SWAP3 POP PUSH1 0x1 PUSH1 0x1 PUSH1 0xA0 SHL SUB DUP7 AND SWAP2 POP PUSH32 0x4ED3B726495C2DCA1FF1215D9CA54E1A4030ABB5E82B0F6CE55702416CEE853 SWAP1 PUSH1 0x0 SWAP1 LOG3 POP POP POP JUMP JUMPDEST PUSH1 0x0 DUP1 MLOAD PUSH1 0x20 PUSH2 0x1EC7 DUP4 CODECOPY DUP2 MLOAD SWAP2 MSTORE PUSH2 0x8D9 DUP2 PUSH2 0x139A JUMP JUMPDEST PUSH1 0xCB SLOAD PUSH1 0x40 MLOAD PUSH4 0xA53410DD PUSH1 0xE0 SHL DUP2 MSTORE PUSH1 0x1 PUSH1 0x1 PUSH1 0xA0 SHL SUB DUP7 DUP2 AND PUSH1 0x4 DUP4 ADD MSTORE DUP6 DUP2 AND PUSH1 0x24 DUP4 ADD MSTORE PUSH2 0xFFFF DUP6 AND PUSH1 0x44 DUP4 ADD MSTORE SWAP1 SWAP2 AND SWAP1 PUSH4 0xA53410DD SWAP1 PUSH1 0x64 ADD PUSH1 0x0 PUSH1 0x40 MLOAD DUP1 DUP4 SUB DUP2 PUSH1 0x0 DUP8 DUP1 EXTCODESIZE ISZERO DUP1 ISZERO PUSH2 0x932 JUMPI PUSH1 0x0 DUP1 REVERT JUMPDEST POP GAS CALL ISZERO DUP1 ISZERO PUSH2 0x946 JUMPI RETURNDATASIZE PUSH1 0x0 DUP1 RETURNDATACOPY RETURNDATASIZE PUSH1 0x0 REVERT JUMPDEST POP POP PUSH1 0x40 MLOAD PUSH1 0x1 PUSH1 0x1 PUSH1 0xA0 SHL SUB DUP1 DUP8 AND SWAP4 POP DUP8 AND SWAP2 POP PUSH32 0x6AE73635C50D24A45AF6FBD5E016AC4BED179ADDBC8BF24E04FF0FCC6D33AF19 SWAP1 PUSH1 0x0 SWAP1 LOG3 POP POP POP POP JUMP JUMPDEST PUSH1 0x0 DUP1 PUSH2 0x994 DUP4 PUSH2 0x11FD JUMP JUMPDEST PUSH1 0x1 PUSH1 0x1 PUSH1 0xA0 SHL SUB AND SUB PUSH2 0x9AA JUMPI POP PUSH1 0x0 SWAP2 SWAP1 POP JUMP JUMPDEST POP PUSH1 0x1 SWAP2 SWAP1 POP JUMP JUMPDEST PUSH1 0x0 JUMPDEST DUP6 DUP2 LT ISZERO PUSH2 0xA47 JUMPI PUSH2 0xA35 DUP8 DUP8 DUP4 DUP2 DUP2 LT PUSH2 0x9D2 JUMPI PUSH2 0x9D2 PUSH2 0x1977 JUMP JUMPDEST SWAP1 POP PUSH1 0x20 MUL ADD PUSH1 0x20 DUP2 ADD SWAP1 PUSH2 0x9E7 SWAP2 SWAP1 PUSH2 0x1798 JUMP JUMPDEST DUP7 DUP7 DUP5 DUP2 DUP2 LT PUSH2 0x9F9 JUMPI PUSH2 0x9F9 PUSH2 0x1977 JUMP JUMPDEST SWAP1 POP PUSH1 0x20 MUL ADD PUSH1 0x20 DUP2 ADD SWAP1 PUSH2 0xA0E SWAP2 SWAP1 PUSH2 0x1798 JUMP JUMPDEST DUP6 DUP6 DUP6 DUP2 DUP2 LT PUSH2 0xA20 JUMPI PUSH2 0xA20 PUSH2 0x1977 JUMP JUMPDEST SWAP1 POP PUSH1 0x20 MUL ADD PUSH1 0x20 DUP2 ADD SWAP1 PUSH2 0x2CB SWAP2 SWAP1 PUSH2 0x198D JUMP JUMPDEST DUP1 PUSH2 0xA3F DUP2 PUSH2 0x19C0 JUMP JUMPDEST SWAP2 POP POP PUSH2 0x9B5 JUMP JUMPDEST POP POP POP POP POP POP POP JUMP JUMPDEST PUSH1 0x0 DUP1 MLOAD PUSH1 0x20 PUSH2 0x1EA7 DUP4 CODECOPY DUP2 MLOAD SWAP2 MSTORE PUSH2 0xA68 DUP2 PUSH2 0x139A JUMP JUMPDEST PUSH1 0xC9 DUP1 SLOAD PUSH1 0x1 PUSH1 0x1 PUSH1 0xA0 SHL SUB NOT AND PUSH1 0x1 PUSH1 0x1 PUSH1 0xA0 SHL SUB DUP5 AND SWAP1 DUP2 OR SWAP1 SWAP2 SSTORE PUSH1 0x40 MLOAD PUSH32 0x7170BF15B246E880B2369CD7C67D057760D8A35149E8C64DDE91EFA22BCC76D0 SWAP1 PUSH1 0x0 SWAP1 LOG2 POP POP JUMP JUMPDEST PUSH2 0xABB PUSH2 0x140B JUMP JUMPDEST PUSH2 0xAC5 PUSH1 0x0 PUSH2 0x1465 JUMP JUMPDEST JUMP JUMPDEST PUSH1 0xCB SLOAD PUSH1 0x40 MLOAD PUSH4 0x1C9F84EF PUSH1 0xE2 SHL DUP2 MSTORE PUSH1 0x1 PUSH1 0x1 PUSH1 0xA0 SHL SUB DUP4 DUP2 AND PUSH1 0x4 DUP4 ADD MSTORE PUSH1 0x0 SWAP3 AND SWAP1 PUSH4 0x727E13BC SWAP1 PUSH1 0x24 ADD PUSH1 0x20 PUSH1 0x40 MLOAD DUP1 DUP4 SUB DUP2 DUP7 GAS STATICCALL ISZERO DUP1 ISZERO PUSH2 0xB12 JUMPI RETURNDATASIZE PUSH1 0x0 DUP1 RETURNDATACOPY RETURNDATASIZE PUSH1 0x0 REVERT JUMPDEST POP POP POP POP PUSH1 0x40 MLOAD RETURNDATASIZE PUSH1 0x1F NOT PUSH1 0x1F DUP3 ADD AND DUP3 ADD DUP1 PUSH1 0x40 MSTORE POP DUP2 ADD SWAP1 PUSH2 0x450 SWAP2 SWAP1 PUSH2 0x19D9 JUMP JUMPDEST PUSH1 0x0 DUP1 MLOAD PUSH1 0x20 PUSH2 0x1EC7 DUP4 CODECOPY DUP2 MLOAD SWAP2 MSTORE PUSH2 0xB4E DUP2 PUSH2 0x139A JUMP JUMPDEST PUSH1 0x0 PUSH2 0xB59 DUP5 PUSH2 0x11FD JUMP JUMPDEST PUSH1 0xCB SLOAD PUSH1 0x40 MLOAD PUSH4 0x7402E7C3 PUSH1 0xE1 SHL DUP2 MSTORE PUSH1 0x1 PUSH1 0x1 PUSH1 0xA0 SHL SUB DUP8 DUP2 AND PUSH1 0x4 DUP4 ADD MSTORE DUP7 DUP2 AND PUSH1 0x24 DUP4 ADD MSTORE SWAP3 SWAP4 POP SWAP2 AND SWAP1 PUSH4 0xE805CF86 SWAP1 PUSH1 0x44 ADD PUSH1 0x0 PUSH1 0x40 MLOAD DUP1 DUP4 SUB DUP2 PUSH1 0x0 DUP8 DUP1 EXTCODESIZE ISZERO DUP1 ISZERO PUSH2 0xBAA JUMPI PUSH1 0x0 DUP1 REVERT JUMPDEST POP GAS CALL ISZERO DUP1 ISZERO PUSH2 0xBBE JUMPI RETURNDATASIZE PUSH1 0x0 DUP1 RETURNDATACOPY RETURNDATASIZE PUSH1 0x0 REVERT JUMPDEST POP POP PUSH1 0x40 MLOAD PUSH1 0x1 PUSH1 0x1 PUSH1 0xA0 SHL SUB DUP1 DUP8 AND SWAP4 POP DUP5 AND SWAP2 POP PUSH32 0xE98082932C8056A0F514DA9104E4A66BC2CBAEF102AD59D90C4B24220EBF6010 SWAP1 PUSH1 0x0 SWAP1 LOG3 POP POP POP POP JUMP JUMPDEST PUSH1 0x0 SWAP2 DUP3 MSTORE PUSH1 0x65 PUSH1 0x20 SWAP1 DUP2 MSTORE PUSH1 0x40 DUP1 DUP5 KECCAK256 PUSH1 0x1 PUSH1 0x1 PUSH1 0xA0 SHL SUB SWAP4 SWAP1 SWAP4 AND DUP5 MSTORE SWAP2 SWAP1 MSTORE SWAP1 KECCAK256 SLOAD PUSH1 0xFF AND SWAP1 JUMP JUMPDEST PUSH1 0x0 DUP1 MLOAD PUSH1 0x20 PUSH2 0x1EC7 DUP4 CODECOPY DUP2 MLOAD SWAP2 MSTORE PUSH2 0xC43 DUP2 PUSH2 0x139A JUMP JUMPDEST PUSH1 0x0 PUSH2 0xC4E DUP4 PUSH2 0x11FD JUMP JUMPDEST PUSH1 0xCB SLOAD PUSH1 0x40 MLOAD PUSH4 0xCF191BCD PUSH1 0xE0 SHL DUP2 MSTORE PUSH1 0x1 PUSH1 0x1 PUSH1 0xA0 SHL SUB DUP7 DUP2 AND PUSH1 0x4 DUP4 ADD MSTORE SWAP3 SWAP4 POP SWAP2 AND SWAP1 PUSH4 0xCF191BCD SWAP1 PUSH1 0x24 ADD PUSH1 0x0 PUSH1 0x40 MLOAD DUP1 DUP4 SUB DUP2 PUSH1 0x0 DUP8 DUP1 EXTCODESIZE ISZERO DUP1 ISZERO PUSH2 0xC97 JUMPI PUSH1 0x0 DUP1 REVERT JUMPDEST POP GAS CALL ISZERO DUP1 ISZERO PUSH2 0xCAB JUMPI RETURNDATASIZE PUSH1 0x0 DUP1 RETURNDATACOPY RETURNDATASIZE PUSH1 0x0 REVERT JUMPDEST POP POP PUSH1 0x40 MLOAD PUSH1 0x1 PUSH1 0x1 PUSH1 0xA0 SHL SUB DUP1 DUP6 AND SWAP4 POP DUP7 AND SWAP2 POP PUSH32 0x59D6590E225B81BEFE259AF056324092801080ACBB7FEAB310EB34678871F327 SWAP1 PUSH1 0x0 SWAP1 LOG3 POP POP POP JUMP JUMPDEST PUSH1 0x0 DUP1 PUSH2 0xCF8 DUP4 PUSH2 0x11FD JUMP JUMPDEST PUSH1 0x1 PUSH1 0x1 PUSH1 0xA0 SHL SUB AND SUB PUSH2 0xD0E JUMPI POP PUSH1 0x0 SWAP2 SWAP1 POP JUMP JUMPDEST PUSH1 0xC9 SLOAD PUSH1 0x40 DUP1 MLOAD PUSH4 0x37C27581 PUSH1 0xE2 SHL DUP2 MSTORE SWAP1 MLOAD PUSH1 0x0 SWAP3 PUSH1 0x1 PUSH1 0x1 PUSH1 0xA0 SHL SUB AND SWAP2 PUSH4 0xDF09D604 SWAP2 PUSH1 0x4 DUP1 DUP4 ADD SWAP3 DUP7 SWAP3 SWAP2 SWAP1 DUP3 SWAP1 SUB ADD DUP2 DUP7 GAS STATICCALL ISZERO DUP1 ISZERO PUSH2 0xD57 JUMPI RETURNDATASIZE PUSH1 0x0 DUP1 RETURNDATACOPY RETURNDATASIZE PUSH1 0x0 REVERT JUMPDEST POP POP POP POP PUSH1 0x40 MLOAD RETURNDATASIZE PUSH1 0x0 DUP3 RETURNDATACOPY PUSH1 0x1F RETURNDATASIZE SWAP1 DUP2 ADD PUSH1 0x1F NOT AND DUP3 ADD PUSH1 0x40 MSTORE PUSH2 0xD7F SWAP2 SWAP1 DUP2 ADD SWAP1 PUSH2 0x1A61 JUMP JUMPDEST SWAP1 POP DUP1 MLOAD PUSH1 0x0 SUB PUSH2 0xD93 JUMPI POP PUSH1 0x1 SWAP3 SWAP2 POP POP JUMP JUMPDEST PUSH1 0x0 DUP1 PUSH1 0x0 PUSH1 0x60 DUP1 PUSH1 0x0 JUMPDEST DUP7 MLOAD DUP2 LT ISZERO PUSH2 0x1166 JUMPI PUSH1 0xCA SLOAD DUP8 MLOAD PUSH1 0x0 SWAP2 PUSH1 0x1 PUSH1 0x1 PUSH1 0xA0 SHL SUB AND SWAP1 PUSH4 0x52C111D1 SWAP1 DUP11 SWAP1 DUP6 SWAP1 DUP2 LT PUSH2 0xDD1 JUMPI PUSH2 0xDD1 PUSH2 0x1977 JUMP JUMPDEST PUSH1 0x20 MUL PUSH1 0x20 ADD ADD MLOAD PUSH1 0x40 MLOAD DUP3 PUSH4 0xFFFFFFFF AND PUSH1 0xE0 SHL DUP2 MSTORE PUSH1 0x4 ADD PUSH2 0xDF7 SWAP2 DUP2 MSTORE PUSH1 0x20 ADD SWAP1 JUMP JUMPDEST PUSH1 0x0 PUSH1 0x40 MLOAD DUP1 DUP4 SUB DUP2 DUP7 GAS STATICCALL ISZERO DUP1 ISZERO PUSH2 0xE14 JUMPI RETURNDATASIZE PUSH1 0x0 DUP1 RETURNDATACOPY RETURNDATASIZE PUSH1 0x0 REVERT JUMPDEST POP POP POP POP PUSH1 0x40 MLOAD RETURNDATASIZE PUSH1 0x0 DUP3 RETURNDATACOPY PUSH1 0x1F RETURNDATASIZE SWAP1 DUP2 ADD PUSH1 0x1F NOT AND DUP3 ADD PUSH1 0x40 MSTORE PUSH2 0xE3C SWAP2 SWAP1 DUP2 ADD SWAP1 PUSH2 0x1AF7 JUMP JUMPDEST SWAP1 POP DUP1 MLOAD PUSH1 0x0 SUB PUSH2 0xE57 JUMPI POP PUSH1 0x0 SWAP10 SWAP9 POP POP POP POP POP POP POP POP POP JUMP JUMPDEST PUSH1 0x0 DUP2 MLOAD PUSH8 0xFFFFFFFFFFFFFFFF DUP2 GT ISZERO PUSH2 0xE73 JUMPI PUSH2 0xE73 PUSH2 0x19F6 JUMP JUMPDEST PUSH1 0x40 MLOAD SWAP1 DUP1 DUP3 MSTORE DUP1 PUSH1 0x20 MUL PUSH1 0x20 ADD DUP3 ADD PUSH1 0x40 MSTORE DUP1 ISZERO PUSH2 0xE9C JUMPI DUP2 PUSH1 0x20 ADD PUSH1 0x20 DUP3 MUL DUP1 CALLDATASIZE DUP4 CALLDATACOPY ADD SWAP1 POP JUMPDEST POP SWAP1 POP PUSH1 0x0 JUMPDEST DUP3 MLOAD DUP2 LT ISZERO PUSH2 0xF49 JUMPI DUP3 DUP2 DUP2 MLOAD DUP2 LT PUSH2 0xEBD JUMPI PUSH2 0xEBD PUSH2 0x1977 JUMP JUMPDEST PUSH1 0x20 MUL PUSH1 0x20 ADD ADD MLOAD DUP11 DUP6 DUP2 MLOAD DUP2 LT PUSH2 0xED7 JUMPI PUSH2 0xED7 PUSH2 0x1977 JUMP JUMPDEST PUSH1 0x20 MUL PUSH1 0x20 ADD ADD MLOAD PUSH1 0x40 MLOAD PUSH1 0x20 ADD PUSH2 0xF04 SWAP3 SWAP2 SWAP1 PUSH1 0x1 PUSH1 0x1 PUSH1 0xA0 SHL SUB SWAP3 SWAP1 SWAP3 AND DUP3 MSTORE PUSH1 0x20 DUP3 ADD MSTORE PUSH1 0x40 ADD SWAP1 JUMP JUMPDEST PUSH1 0x40 MLOAD PUSH1 0x20 DUP2 DUP4 SUB SUB DUP2 MSTORE SWAP1 PUSH1 0x40 MSTORE DUP1 MLOAD SWAP1 PUSH1 0x20 ADD KECCAK256 DUP3 DUP3 DUP2 MLOAD DUP2 LT PUSH2 0xF2C JUMPI PUSH2 0xF2C PUSH2 0x1977 JUMP JUMPDEST PUSH1 0x20 SWAP1 DUP2 MUL SWAP2 SWAP1 SWAP2 ADD ADD MSTORE DUP1 PUSH2 0xF41 DUP2 PUSH2 0x19C0 JUMP JUMPDEST SWAP2 POP POP PUSH2 0xEA2 JUMP JUMPDEST POP PUSH1 0x0 JUMPDEST DUP2 MLOAD DUP2 LT ISZERO PUSH2 0x1150 JUMPI PUSH2 0xF5F DUP13 PUSH2 0x11FD JUMP JUMPDEST PUSH1 0x1 PUSH1 0x1 PUSH1 0xA0 SHL SUB AND PUSH4 0xC9100BCB DUP4 DUP4 DUP2 MLOAD DUP2 LT PUSH2 0xF7F JUMPI PUSH2 0xF7F PUSH2 0x1977 JUMP JUMPDEST PUSH1 0x20 MUL PUSH1 0x20 ADD ADD MLOAD PUSH1 0x40 MLOAD DUP3 PUSH4 0xFFFFFFFF AND PUSH1 0xE0 SHL DUP2 MSTORE PUSH1 0x4 ADD PUSH2 0xFA5 SWAP2 DUP2 MSTORE PUSH1 0x20 ADD SWAP1 JUMP JUMPDEST PUSH1 0x0 PUSH1 0x40 MLOAD DUP1 DUP4 SUB DUP2 DUP7 GAS STATICCALL ISZERO DUP1 ISZERO PUSH2 0xFC2 JUMPI RETURNDATASIZE PUSH1 0x0 DUP1 RETURNDATACOPY RETURNDATASIZE PUSH1 0x0 REVERT JUMPDEST POP POP POP POP PUSH1 0x40 MLOAD RETURNDATASIZE PUSH1 0x0 DUP3 RETURNDATACOPY PUSH1 0x1F RETURNDATASIZE SWAP1 DUP2 ADD PUSH1 0x1F NOT AND DUP3 ADD PUSH1 0x40 MSTORE PUSH2 0xFEA SWAP2 SWAP1 DUP2 ADD SWAP1 PUSH2 0x1C19 JUMP JUMPDEST POP DUP15 MLOAD SWAP5 SWAP14 POP SWAP3 SWAP12 POP SWAP1 SWAP10 POP SWAP8 POP SWAP6 POP DUP11 SWAP1 DUP6 SWAP1 DUP2 LT PUSH2 0x100C JUMPI PUSH2 0x100C PUSH2 0x1977 JUMP JUMPDEST PUSH1 0x20 MUL PUSH1 0x20 ADD ADD MLOAD DUP10 SUB PUSH2 0x1118 JUMPI DUP7 PUSH1 0x1 PUSH1 0x1 PUSH1 0xA0 SHL SUB AND PUSH4 0xC0969A6E PUSH2 0x1032 DUP15 PUSH2 0x11FD JUMP JUMPDEST DUP13 DUP8 DUP2 MLOAD DUP2 LT PUSH2 0x1044 JUMPI PUSH2 0x1044 PUSH2 0x1977 JUMP JUMPDEST PUSH1 0x20 MUL PUSH1 0x20 ADD ADD MLOAD DUP10 DUP10 PUSH1 0x40 MLOAD DUP6 PUSH4 0xFFFFFFFF AND PUSH1 0xE0 SHL DUP2 MSTORE PUSH1 0x4 ADD PUSH2 0x106D SWAP5 SWAP4 SWAP3 SWAP2 SWAP1 PUSH2 0x1D07 JUMP JUMPDEST PUSH1 0x20 PUSH1 0x40 MLOAD DUP1 DUP4 SUB DUP2 DUP7 GAS STATICCALL SWAP3 POP POP POP DUP1 ISZERO PUSH2 0x10A6 JUMPI POP PUSH1 0x40 DUP1 MLOAD PUSH1 0x1F RETURNDATASIZE SWAP1 DUP2 ADD PUSH1 0x1F NOT AND DUP3 ADD SWAP1 SWAP3 MSTORE PUSH2 0x10A3 SWAP2 DUP2 ADD SWAP1 PUSH2 0x1D40 JUMP JUMPDEST PUSH1 0x1 JUMPDEST PUSH2 0x10D5 JUMPI PUSH1 0x1 DUP3 MLOAD PUSH2 0x10B8 SWAP2 SWAP1 PUSH2 0x1D62 JUMP JUMPDEST DUP2 SUB PUSH2 0x10D0 JUMPI POP PUSH1 0x0 SWAP12 SWAP11 POP POP POP POP POP POP POP POP POP POP POP JUMP JUMPDEST PUSH2 0x113E JUMP JUMPDEST DUP1 ISZERO PUSH2 0x10E0 JUMPI DUP3 MLOAD SWAP2 POP JUMPDEST DUP1 ISZERO DUP1 ISZERO PUSH2 0x10FA JUMPI POP PUSH1 0x1 DUP4 MLOAD PUSH2 0x10F7 SWAP2 SWAP1 PUSH2 0x1D62 JUMP JUMPDEST DUP3 EQ JUMPDEST ISZERO PUSH2 0x1112 JUMPI POP PUSH1 0x0 SWAP13 SWAP12 POP POP POP POP POP POP POP POP POP POP POP POP JUMP JUMPDEST POP PUSH2 0x113E JUMP JUMPDEST PUSH1 0x1 DUP3 MLOAD PUSH2 0x1126 SWAP2 SWAP1 PUSH2 0x1D62 JUMP JUMPDEST DUP2 SUB PUSH2 0x113E JUMPI POP PUSH1 0x0 SWAP12 SWAP11 POP POP POP POP POP POP POP POP POP POP POP JUMP JUMPDEST DUP1 PUSH2 0x1148 DUP2 PUSH2 0x19C0 JUMP JUMPDEST SWAP2 POP POP PUSH2 0xF4D JUMP JUMPDEST POP POP POP DUP1 DUP1 PUSH2 0x115E SWAP1 PUSH2 0x19C0 JUMP JUMPDEST SWAP2 POP POP PUSH2 0xD9E JUMP JUMPDEST POP PUSH1 0x1 SWAP9 SWAP8 POP POP POP POP POP POP POP POP JUMP JUMPDEST PUSH1 0x0 DUP3 DUP2 MSTORE PUSH1 0x65 PUSH1 0x20 MSTORE PUSH1 0x40 SWAP1 KECCAK256 PUSH1 0x1 ADD SLOAD PUSH2 0x1190 DUP2 PUSH2 0x139A JUMP JUMPDEST PUSH2 0x77E DUP4 DUP4 PUSH2 0x13A4 JUMP JUMPDEST PUSH1 0x0 DUP1 MLOAD PUSH1 0x20 PUSH2 0x1EA7 DUP4 CODECOPY DUP2 MLOAD SWAP2 MSTORE PUSH2 0x11B2 DUP2 PUSH2 0x139A JUMP JUMPDEST PUSH1 0xCA DUP1 SLOAD PUSH1 0x1 PUSH1 0x1 PUSH1 0xA0 SHL SUB NOT AND PUSH1 0x1 PUSH1 0x1 PUSH1 0xA0 SHL SUB DUP5 AND SWAP1 DUP2 OR SWAP1 SWAP2 SSTORE PUSH1 0x40 MLOAD PUSH32 0x1B98CB79E6F73020175FE87333F1B91AD6A881519C0AFE30340C2599B2B4BDE0 SWAP1 PUSH1 0x0 SWAP1 LOG2 POP POP JUMP JUMPDEST PUSH1 0xCB SLOAD PUSH1 0x40 MLOAD PUSH4 0x7988D3A5 PUSH1 0xE0 SHL DUP2 MSTORE PUSH1 0x1 PUSH1 0x1 PUSH1 0xA0 SHL SUB DUP4 DUP2 AND PUSH1 0x4 DUP4 ADD MSTORE PUSH1 0x0 SWAP3 AND SWAP1 PUSH4 0x7988D3A5 SWAP1 PUSH1 0x24 ADD PUSH1 0x20 PUSH1 0x40 MLOAD DUP1 DUP4 SUB DUP2 DUP7 GAS STATICCALL ISZERO DUP1 ISZERO PUSH2 0x1248 JUMPI RETURNDATASIZE PUSH1 0x0 DUP1 RETURNDATACOPY RETURNDATASIZE PUSH1 0x0 REVERT JUMPDEST POP POP POP POP PUSH1 0x40 MLOAD RETURNDATASIZE PUSH1 0x1F NOT PUSH1 0x1F DUP3 ADD AND DUP3 ADD DUP1 PUSH1 0x40 MSTORE POP DUP2 ADD SWAP1 PUSH2 0x450 SWAP2 SWAP1 PUSH2 0x1D75 JUMP JUMPDEST PUSH2 0x1274 PUSH2 0x140B JUMP JUMPDEST PUSH1 0x1 PUSH1 0x1 PUSH1 0xA0 SHL SUB DUP2 AND PUSH2 0x12D9 JUMPI PUSH1 0x40 MLOAD PUSH3 0x461BCD PUSH1 0xE5 SHL DUP2 MSTORE PUSH1 0x20 PUSH1 0x4 DUP3 ADD MSTORE PUSH1 0x26 PUSH1 0x24 DUP3 ADD MSTORE PUSH32 0x4F776E61626C653A206E6577206F776E657220697320746865207A65726F2061 PUSH1 0x44 DUP3 ADD MSTORE PUSH6 0x646472657373 PUSH1 0xD0 SHL PUSH1 0x64 DUP3 ADD MSTORE PUSH1 0x84 ADD PUSH2 0x4EF JUMP JUMPDEST PUSH2 0x12E2 DUP2 PUSH2 0x1465 JUMP JUMPDEST POP JUMP JUMPDEST PUSH2 0x12EF DUP3 DUP3 PUSH2 0xC00 JUMP JUMPDEST PUSH2 0x7FD JUMPI PUSH1 0x0 DUP3 DUP2 MSTORE PUSH1 0x65 PUSH1 0x20 SWAP1 DUP2 MSTORE PUSH1 0x40 DUP1 DUP4 KECCAK256 PUSH1 0x1 PUSH1 0x1 PUSH1 0xA0 SHL SUB DUP6 AND DUP5 MSTORE SWAP1 SWAP2 MSTORE SWAP1 KECCAK256 DUP1 SLOAD PUSH1 0xFF NOT AND PUSH1 0x1 OR SWAP1 SSTORE PUSH2 0x1327 CALLER SWAP1 JUMP JUMPDEST PUSH1 0x1 PUSH1 0x1 PUSH1 0xA0 SHL SUB AND DUP2 PUSH1 0x1 PUSH1 0x1 PUSH1 0xA0 SHL SUB AND DUP4 PUSH32 0x2F8788117E7EFF1D82E926EC794901D17C78024A50270940304540A733656F0D PUSH1 0x40 MLOAD PUSH1 0x40 MLOAD DUP1 SWAP2 SUB SWAP1 LOG4 POP POP JUMP JUMPDEST PUSH1 0x0 SLOAD PUSH2 0x100 SWAP1 DIV PUSH1 0xFF AND PUSH2 0x1392 JUMPI PUSH1 0x40 MLOAD PUSH3 0x461BCD PUSH1 0xE5 SHL DUP2 MSTORE PUSH1 0x4 ADD PUSH2 0x4EF SWAP1 PUSH2 0x1D92 JUMP JUMPDEST PUSH2 0xAC5 PUSH2 0x14B7 JUMP JUMPDEST PUSH2 0x12E2 DUP2 CALLER PUSH2 0x14E7 JUMP JUMPDEST PUSH2 0x13AE DUP3 DUP3 PUSH2 0xC00 JUMP JUMPDEST ISZERO PUSH2 0x7FD JUMPI PUSH1 0x0 DUP3 DUP2 MSTORE PUSH1 0x65 PUSH1 0x20 SWAP1 DUP2 MSTORE PUSH1 0x40 DUP1 DUP4 KECCAK256 PUSH1 0x1 PUSH1 0x1 PUSH1 0xA0 SHL SUB DUP6 AND DUP1 DUP6 MSTORE SWAP3 MSTORE DUP1 DUP4 KECCAK256 DUP1 SLOAD PUSH1 0xFF NOT AND SWAP1 SSTORE MLOAD CALLER SWAP3 DUP6 SWAP2 PUSH32 0xF6391F5C32D9C69D2A47EA670B442974B53935D1EDC7FD64EB21E047A839171B SWAP2 SWAP1 LOG4 POP POP JUMP JUMPDEST PUSH1 0x97 SLOAD PUSH1 0x1 PUSH1 0x1 PUSH1 0xA0 SHL SUB AND CALLER EQ PUSH2 0xAC5 JUMPI PUSH1 0x40 MLOAD PUSH3 0x461BCD PUSH1 0xE5 SHL DUP2 MSTORE PUSH1 0x20 PUSH1 0x4 DUP3 ADD DUP2 SWAP1 MSTORE PUSH1 0x24 DUP3 ADD MSTORE PUSH32 0x4F776E61626C653A2063616C6C6572206973206E6F7420746865206F776E6572 PUSH1 0x44 DUP3 ADD MSTORE PUSH1 0x64 ADD PUSH2 0x4EF JUMP JUMPDEST PUSH1 0x97 DUP1 SLOAD PUSH1 0x1 PUSH1 0x1 PUSH1 0xA0 SHL SUB DUP4 DUP2 AND PUSH1 0x1 PUSH1 0x1 PUSH1 0xA0 SHL SUB NOT DUP4 AND DUP2 OR SWAP1 SWAP4 SSTORE PUSH1 0x40 MLOAD SWAP2 AND SWAP2 SWAP1 DUP3 SWAP1 PUSH32 0x8BE0079C531659141344CD1FD0A4F28419497F9722A3DAAFE3B4186F6B6457E0 SWAP1 PUSH1 0x0 SWAP1 LOG3 POP POP JUMP JUMPDEST PUSH1 0x0 SLOAD PUSH2 0x100 SWAP1 DIV PUSH1 0xFF AND PUSH2 0x14DE JUMPI PUSH1 0x40 MLOAD PUSH3 0x461BCD PUSH1 0xE5 SHL DUP2 MSTORE PUSH1 0x4 ADD PUSH2 0x4EF SWAP1 PUSH2 0x1D92 JUMP JUMPDEST PUSH2 0xAC5 CALLER PUSH2 0x1465 JUMP JUMPDEST PUSH2 0x14F1 DUP3 DUP3 PUSH2 0xC00 JUMP JUMPDEST PUSH2 0x7FD JUMPI PUSH2 0x14FE DUP2 PUSH2 0x1540 JUMP JUMPDEST PUSH2 0x1509 DUP4 PUSH1 0x20 PUSH2 0x1552 JUMP JUMPDEST PUSH1 0x40 MLOAD PUSH1 0x20 ADD PUSH2 0x151A SWAP3 SWAP2 SWAP1 PUSH2 0x1DDD JUMP JUMPDEST PUSH1 0x40 DUP1 MLOAD PUSH1 0x1F NOT DUP2 DUP5 SUB ADD DUP2 MSTORE SWAP1 DUP3 SWAP1 MSTORE PUSH3 0x461BCD PUSH1 0xE5 SHL DUP3 MSTORE PUSH2 0x4EF SWAP2 PUSH1 0x4 ADD PUSH2 0x1E52 JUMP JUMPDEST PUSH1 0x60 PUSH2 0x450 PUSH1 0x1 PUSH1 0x1 PUSH1 0xA0 SHL SUB DUP4 AND PUSH1 0x14 JUMPDEST PUSH1 0x60 PUSH1 0x0 PUSH2 0x1561 DUP4 PUSH1 0x2 PUSH2 0x1E65 JUMP JUMPDEST PUSH2 0x156C SWAP1 PUSH1 0x2 PUSH2 0x1E7C JUMP JUMPDEST PUSH8 0xFFFFFFFFFFFFFFFF DUP2 GT ISZERO PUSH2 0x1584 JUMPI PUSH2 0x1584 PUSH2 0x19F6 JUMP JUMPDEST PUSH1 0x40 MLOAD SWAP1 DUP1 DUP3 MSTORE DUP1 PUSH1 0x1F ADD PUSH1 0x1F NOT AND PUSH1 0x20 ADD DUP3 ADD PUSH1 0x40 MSTORE DUP1 ISZERO PUSH2 0x15AE JUMPI PUSH1 0x20 DUP3 ADD DUP2 DUP1 CALLDATASIZE DUP4 CALLDATACOPY ADD SWAP1 POP JUMPDEST POP SWAP1 POP PUSH1 0x3 PUSH1 0xFC SHL DUP2 PUSH1 0x0 DUP2 MLOAD DUP2 LT PUSH2 0x15C9 JUMPI PUSH2 0x15C9 PUSH2 0x1977 JUMP JUMPDEST PUSH1 0x20 ADD ADD SWAP1 PUSH1 0x1 PUSH1 0x1 PUSH1 0xF8 SHL SUB NOT AND SWAP1 DUP2 PUSH1 0x0 BYTE SWAP1 MSTORE8 POP PUSH1 0xF PUSH1 0xFB SHL DUP2 PUSH1 0x1 DUP2 MLOAD DUP2 LT PUSH2 0x15F8 JUMPI PUSH2 0x15F8 PUSH2 0x1977 JUMP JUMPDEST PUSH1 0x20 ADD ADD SWAP1 PUSH1 0x1 PUSH1 0x1 PUSH1 0xF8 SHL SUB NOT AND SWAP1 DUP2 PUSH1 0x0 BYTE SWAP1 MSTORE8 POP PUSH1 0x0 PUSH2 0x161C DUP5 PUSH1 0x2 PUSH2 0x1E65 JUMP JUMPDEST PUSH2 0x1627 SWAP1 PUSH1 0x1 PUSH2 0x1E7C JUMP JUMPDEST SWAP1 POP JUMPDEST PUSH1 0x1 DUP2 GT ISZERO PUSH2 0x169F JUMPI PUSH16 0x181899199A1A9B1B9C1CB0B131B232B3 PUSH1 0x81 SHL DUP6 PUSH1 0xF AND PUSH1 0x10 DUP2 LT PUSH2 0x165B JUMPI PUSH2 0x165B PUSH2 0x1977 JUMP JUMPDEST BYTE PUSH1 0xF8 SHL DUP3 DUP3 DUP2 MLOAD DUP2 LT PUSH2 0x1671 JUMPI PUSH2 0x1671 PUSH2 0x1977 JUMP JUMPDEST PUSH1 0x20 ADD ADD SWAP1 PUSH1 0x1 PUSH1 0x1 PUSH1 0xF8 SHL SUB NOT AND SWAP1 DUP2 PUSH1 0x0 BYTE SWAP1 MSTORE8 POP PUSH1 0x4 SWAP5 SWAP1 SWAP5 SHR SWAP4 PUSH2 0x1698 DUP2 PUSH2 0x1E8F JUMP JUMPDEST SWAP1 POP PUSH2 0x162A JUMP JUMPDEST POP DUP4 ISZERO PUSH2 0x16EE JUMPI PUSH1 0x40 MLOAD PUSH3 0x461BCD PUSH1 0xE5 SHL DUP2 MSTORE PUSH1 0x20 PUSH1 0x4 DUP3 ADD DUP2 SWAP1 MSTORE PUSH1 0x24 DUP3 ADD MSTORE PUSH32 0x537472696E67733A20686578206C656E67746820696E73756666696369656E74 PUSH1 0x44 DUP3 ADD MSTORE PUSH1 0x64 ADD PUSH2 0x4EF JUMP JUMPDEST SWAP4 SWAP3 POP POP POP JUMP JUMPDEST PUSH1 0x0 PUSH1 0x20 DUP3 DUP5 SUB SLT ISZERO PUSH2 0x1707 JUMPI PUSH1 0x0 DUP1 REVERT JUMPDEST DUP2 CALLDATALOAD PUSH1 0x1 PUSH1 0x1 PUSH1 0xE0 SHL SUB NOT DUP2 AND DUP2 EQ PUSH2 0x16EE JUMPI PUSH1 0x0 DUP1 REVERT JUMPDEST PUSH1 0x1 PUSH1 0x1 PUSH1 0xA0 SHL SUB DUP2 AND DUP2 EQ PUSH2 0x12E2 JUMPI PUSH1 0x0 DUP1 REVERT JUMPDEST PUSH1 0x0 DUP1 PUSH1 0x0 PUSH1 0x60 DUP5 DUP7 SUB SLT ISZERO PUSH2 0x1749 JUMPI PUSH1 0x0 DUP1 REVERT JUMPDEST DUP4 CALLDATALOAD PUSH2 0x1754 DUP2 PUSH2 0x171F JUMP JUMPDEST SWAP3 POP PUSH1 0x20 DUP5 ADD CALLDATALOAD PUSH2 0x1764 DUP2 PUSH2 0x171F JUMP JUMPDEST SWAP2 POP PUSH1 0x40 DUP5 ADD CALLDATALOAD PUSH2 0x1774 DUP2 PUSH2 0x171F JUMP JUMPDEST DUP1 SWAP2 POP POP SWAP3 POP SWAP3 POP SWAP3 JUMP JUMPDEST PUSH1 0x0 PUSH1 0x20 DUP3 DUP5 SUB SLT ISZERO PUSH2 0x1791 JUMPI PUSH1 0x0 DUP1 REVERT JUMPDEST POP CALLDATALOAD SWAP2 SWAP1 POP JUMP JUMPDEST PUSH1 0x0 PUSH1 0x20 DUP3 DUP5 SUB SLT ISZERO PUSH2 0x17AA JUMPI PUSH1 0x0 DUP1 REVERT JUMPDEST DUP2 CALLDATALOAD PUSH2 0x16EE DUP2 PUSH2 0x171F JUMP JUMPDEST PUSH1 0x0 DUP1 PUSH1 0x40 DUP4 DUP6 SUB SLT ISZERO PUSH2 0x17C8 JUMPI PUSH1 0x0 DUP1 REVERT JUMPDEST DUP3 CALLDATALOAD SWAP2 POP PUSH1 0x20 DUP4 ADD CALLDATALOAD PUSH2 0x17DA DUP2 PUSH2 0x171F JUMP JUMPDEST DUP1 SWAP2 POP POP SWAP3 POP SWAP3 SWAP1 POP JUMP JUMPDEST PUSH2 0xFFFF DUP2 AND DUP2 EQ PUSH2 0x12E2 JUMPI PUSH1 0x0 DUP1 REVERT JUMPDEST PUSH1 0x0 DUP1 PUSH1 0x40 DUP4 DUP6 SUB SLT ISZERO PUSH2 0x1808 JUMPI PUSH1 0x0 DUP1 REVERT JUMPDEST DUP3 CALLDATALOAD PUSH2 0x1813 DUP2 PUSH2 0x171F JUMP JUMPDEST SWAP2 POP PUSH1 0x20 DUP4 ADD CALLDATALOAD PUSH2 0x17DA DUP2 PUSH2 0x17E5 JUMP JUMPDEST PUSH1 0x0 DUP1 PUSH1 0x0 PUSH1 0x60 DUP5 DUP7 SUB SLT ISZERO PUSH2 0x1838 JUMPI PUSH1 0x0 DUP1 REVERT JUMPDEST DUP4 CALLDATALOAD PUSH2 0x1843 DUP2 PUSH2 0x171F JUMP JUMPDEST SWAP3 POP PUSH1 0x20 DUP5 ADD CALLDATALOAD PUSH2 0x1853 DUP2 PUSH2 0x171F JUMP JUMPDEST SWAP2 POP PUSH1 0x40 DUP5 ADD CALLDATALOAD PUSH2 0x1774 DUP2 PUSH2 0x17E5 JUMP JUMPDEST PUSH1 0x0 DUP1 DUP4 PUSH1 0x1F DUP5 ADD SLT PUSH2 0x1875 JUMPI PUSH1 0x0 DUP1 REVERT JUMPDEST POP DUP2 CALLDATALOAD PUSH8 0xFFFFFFFFFFFFFFFF DUP2 GT ISZERO PUSH2 0x188D JUMPI PUSH1 0x0 DUP1 REVERT JUMPDEST PUSH1 0x20 DUP4 ADD SWAP2 POP DUP4 PUSH1 0x20 DUP3 PUSH1 0x5 SHL DUP6 ADD ADD GT ISZERO PUSH2 0x18A8 JUMPI PUSH1 0x0 DUP1 REVERT JUMPDEST SWAP3 POP SWAP3 SWAP1 POP JUMP JUMPDEST PUSH1 0x0 DUP1 PUSH1 0x0 DUP1 PUSH1 0x0 DUP1 PUSH1 0x60 DUP8 DUP10 SUB SLT ISZERO PUSH2 0x18C8 JUMPI PUSH1 0x0 DUP1 REVERT JUMPDEST DUP7 CALLDATALOAD PUSH8 0xFFFFFFFFFFFFFFFF DUP1 DUP3 GT ISZERO PUSH2 0x18E0 JUMPI PUSH1 0x0 DUP1 REVERT JUMPDEST PUSH2 0x18EC DUP11 DUP4 DUP12 ADD PUSH2 0x1863 JUMP JUMPDEST SWAP1 SWAP9 POP SWAP7 POP PUSH1 0x20 DUP10 ADD CALLDATALOAD SWAP2 POP DUP1 DUP3 GT ISZERO PUSH2 0x1905 JUMPI PUSH1 0x0 DUP1 REVERT JUMPDEST PUSH2 0x1911 DUP11 DUP4 DUP12 ADD PUSH2 0x1863 JUMP JUMPDEST SWAP1 SWAP7 POP SWAP5 POP PUSH1 0x40 DUP10 ADD CALLDATALOAD SWAP2 POP DUP1 DUP3 GT ISZERO PUSH2 0x192A JUMPI PUSH1 0x0 DUP1 REVERT JUMPDEST POP PUSH2 0x1937 DUP10 DUP3 DUP11 ADD PUSH2 0x1863 JUMP JUMPDEST SWAP8 SWAP11 SWAP7 SWAP10 POP SWAP5 SWAP8 POP SWAP3 SWAP6 SWAP4 SWAP5 SWAP3 POP POP POP JUMP JUMPDEST PUSH1 0x0 DUP1 PUSH1 0x40 DUP4 DUP6 SUB SLT ISZERO PUSH2 0x195C JUMPI PUSH1 0x0 DUP1 REVERT JUMPDEST DUP3 CALLDATALOAD PUSH2 0x1967 DUP2 PUSH2 0x171F JUMP JUMPDEST SWAP2 POP PUSH1 0x20 DUP4 ADD CALLDATALOAD PUSH2 0x17DA DUP2 PUSH2 0x171F JUMP JUMPDEST PUSH4 0x4E487B71 PUSH1 0xE0 SHL PUSH1 0x0 MSTORE PUSH1 0x32 PUSH1 0x4 MSTORE PUSH1 0x24 PUSH1 0x0 REVERT JUMPDEST PUSH1 0x0 PUSH1 0x20 DUP3 DUP5 SUB SLT ISZERO PUSH2 0x199F JUMPI PUSH1 0x0 DUP1 REVERT JUMPDEST DUP2 CALLDATALOAD PUSH2 0x16EE DUP2 PUSH2 0x17E5 JUMP JUMPDEST PUSH4 0x4E487B71 PUSH1 0xE0 SHL PUSH1 0x0 MSTORE PUSH1 0x11 PUSH1 0x4 MSTORE PUSH1 0x24 PUSH1 0x0 REVERT JUMPDEST PUSH1 0x0 PUSH1 0x1 DUP3 ADD PUSH2 0x19D2 JUMPI PUSH2 0x19D2 PUSH2 0x19AA JUMP JUMPDEST POP PUSH1 0x1 ADD SWAP1 JUMP JUMPDEST PUSH1 0x0 PUSH1 0x20 DUP3 DUP5 SUB SLT ISZERO PUSH2 0x19EB JUMPI PUSH1 0x0 DUP1 REVERT JUMPDEST DUP2 MLOAD PUSH2 0x16EE DUP2 PUSH2 0x17E5 JUMP JUMPDEST PUSH4 0x4E487B71 PUSH1 0xE0 SHL PUSH1 0x0 MSTORE PUSH1 0x41 PUSH1 0x4 MSTORE PUSH1 0x24 PUSH1 0x0 REVERT JUMPDEST PUSH1 0x40 MLOAD PUSH1 0x1F DUP3 ADD PUSH1 0x1F NOT AND DUP2 ADD PUSH8 0xFFFFFFFFFFFFFFFF DUP2 GT DUP3 DUP3 LT OR ISZERO PUSH2 0x1A35 JUMPI PUSH2 0x1A35 PUSH2 0x19F6 JUMP JUMPDEST PUSH1 0x40 MSTORE SWAP2 SWAP1 POP JUMP JUMPDEST PUSH1 0x0 PUSH8 0xFFFFFFFFFFFFFFFF DUP3 GT ISZERO PUSH2 0x1A57 JUMPI PUSH2 0x1A57 PUSH2 0x19F6 JUMP JUMPDEST POP PUSH1 0x5 SHL PUSH1 0x20 ADD SWAP1 JUMP JUMPDEST PUSH1 0x0 PUSH1 0x20 DUP1 DUP4 DUP6 SUB SLT ISZERO PUSH2 0x1A74 JUMPI PUSH1 0x0 DUP1 REVERT JUMPDEST DUP3 MLOAD PUSH8 0xFFFFFFFFFFFFFFFF DUP2 GT ISZERO PUSH2 0x1A8B JUMPI PUSH1 0x0 DUP1 REVERT JUMPDEST DUP4 ADD PUSH1 0x1F DUP2 ADD DUP6 SGT PUSH2 0x1A9C JUMPI PUSH1 0x0 DUP1 REVERT JUMPDEST DUP1 MLOAD PUSH2 0x1AAF PUSH2 0x1AAA DUP3 PUSH2 0x1A3D JUMP JUMPDEST PUSH2 0x1A0C JUMP JUMPDEST DUP2 DUP2 MSTORE PUSH1 0x5 SWAP2 SWAP1 SWAP2 SHL DUP3 ADD DUP4 ADD SWAP1 DUP4 DUP2 ADD SWAP1 DUP8 DUP4 GT ISZERO PUSH2 0x1ACE JUMPI PUSH1 0x0 DUP1 REVERT JUMPDEST SWAP3 DUP5 ADD SWAP3 JUMPDEST DUP3 DUP5 LT ISZERO PUSH2 0x1AEC JUMPI DUP4 MLOAD DUP3 MSTORE SWAP3 DUP5 ADD SWAP3 SWAP1 DUP5 ADD SWAP1 PUSH2 0x1AD3 JUMP JUMPDEST SWAP8 SWAP7 POP POP POP POP POP POP POP JUMP JUMPDEST PUSH1 0x0 PUSH1 0x20 DUP1 DUP4 DUP6 SUB SLT ISZERO PUSH2 0x1B0A JUMPI PUSH1 0x0 DUP1 REVERT JUMPDEST DUP3 MLOAD PUSH8 0xFFFFFFFFFFFFFFFF DUP2 GT ISZERO PUSH2 0x1B21 JUMPI PUSH1 0x0 DUP1 REVERT JUMPDEST DUP4 ADD PUSH1 0x1F DUP2 ADD DUP6 SGT PUSH2 0x1B32 JUMPI PUSH1 0x0 DUP1 REVERT JUMPDEST DUP1 MLOAD PUSH2 0x1B40 PUSH2 0x1AAA DUP3 PUSH2 0x1A3D JUMP JUMPDEST DUP2 DUP2 MSTORE PUSH1 0x5 SWAP2 SWAP1 SWAP2 SHL DUP3 ADD DUP4 ADD SWAP1 DUP4 DUP2 ADD SWAP1 DUP8 DUP4 GT ISZERO PUSH2 0x1B5F JUMPI PUSH1 0x0 DUP1 REVERT JUMPDEST SWAP3 DUP5 ADD SWAP3 JUMPDEST DUP3 DUP5 LT ISZERO PUSH2 0x1AEC JUMPI DUP4 MLOAD PUSH2 0x1B77 DUP2 PUSH2 0x171F JUMP JUMPDEST DUP3 MSTORE SWAP3 DUP5 ADD SWAP3 SWAP1 DUP5 ADD SWAP1 PUSH2 0x1B64 JUMP JUMPDEST PUSH1 0x0 JUMPDEST DUP4 DUP2 LT ISZERO PUSH2 0x1BA1 JUMPI DUP2 DUP2 ADD MLOAD DUP4 DUP3 ADD MSTORE PUSH1 0x20 ADD PUSH2 0x1B89 JUMP JUMPDEST POP POP PUSH1 0x0 SWAP2 ADD MSTORE JUMP JUMPDEST PUSH1 0x0 PUSH8 0xFFFFFFFFFFFFFFFF DUP4 GT ISZERO PUSH2 0x1BC4 JUMPI PUSH2 0x1BC4 PUSH2 0x19F6 JUMP JUMPDEST PUSH2 0x1BD7 PUSH1 0x1F DUP5 ADD PUSH1 0x1F NOT AND PUSH1 0x20 ADD PUSH2 0x1A0C JUMP JUMPDEST SWAP1 POP DUP3 DUP2 MSTORE DUP4 DUP4 DUP4 ADD GT ISZERO PUSH2 0x1BEB JUMPI PUSH1 0x0 DUP1 REVERT JUMPDEST PUSH2 0x16EE DUP4 PUSH1 0x20 DUP4 ADD DUP5 PUSH2 0x1B86 JUMP JUMPDEST PUSH1 0x0 DUP3 PUSH1 0x1F DUP4 ADD SLT PUSH2 0x1C0A JUMPI PUSH1 0x0 DUP1 REVERT JUMPDEST PUSH2 0x16EE DUP4 DUP4 MLOAD PUSH1 0x20 DUP6 ADD PUSH2 0x1BAA JUMP JUMPDEST PUSH1 0x0 DUP1 PUSH1 0x0 DUP1 PUSH1 0x0 DUP1 PUSH1 0xC0 DUP8 DUP10 SUB SLT ISZERO PUSH2 0x1C32 JUMPI PUSH1 0x0 DUP1 REVERT JUMPDEST DUP7 MLOAD SWAP6 POP PUSH1 0x20 DUP8 ADD MLOAD SWAP5 POP PUSH1 0x40 DUP8 ADD MLOAD PUSH2 0x1C4B DUP2 PUSH2 0x171F JUMP JUMPDEST PUSH1 0x60 DUP9 ADD MLOAD SWAP1 SWAP5 POP PUSH8 0xFFFFFFFFFFFFFFFF DUP1 DUP3 GT ISZERO PUSH2 0x1C69 JUMPI PUSH1 0x0 DUP1 REVERT JUMPDEST PUSH2 0x1C75 DUP11 DUP4 DUP12 ADD PUSH2 0x1BF9 JUMP JUMPDEST SWAP5 POP PUSH1 0x80 DUP10 ADD MLOAD SWAP2 POP DUP1 DUP3 GT ISZERO PUSH2 0x1C8B JUMPI PUSH1 0x0 DUP1 REVERT JUMPDEST PUSH2 0x1C97 DUP11 DUP4 DUP12 ADD PUSH2 0x1BF9 JUMP JUMPDEST SWAP4 POP PUSH1 0xA0 DUP10 ADD MLOAD SWAP2 POP DUP1 DUP3 GT ISZERO PUSH2 0x1CAD JUMPI PUSH1 0x0 DUP1 REVERT JUMPDEST POP DUP8 ADD PUSH1 0x1F DUP2 ADD DUP10 SGT PUSH2 0x1CBF JUMPI PUSH1 0x0 DUP1 REVERT JUMPDEST PUSH2 0x1CCE DUP10 DUP3 MLOAD PUSH1 0x20 DUP5 ADD PUSH2 0x1BAA JUMP JUMPDEST SWAP2 POP POP SWAP3 SWAP6 POP SWAP3 SWAP6 POP SWAP3 SWAP6 JUMP JUMPDEST PUSH1 0x0 DUP2 MLOAD DUP1 DUP5 MSTORE PUSH2 0x1CF3 DUP2 PUSH1 0x20 DUP7 ADD PUSH1 0x20 DUP7 ADD PUSH2 0x1B86 JUMP JUMPDEST PUSH1 0x1F ADD PUSH1 0x1F NOT AND SWAP3 SWAP1 SWAP3 ADD PUSH1 0x20 ADD SWAP3 SWAP2 POP POP JUMP JUMPDEST PUSH1 0x1 DUP1 PUSH1 0xA0 SHL SUB DUP6 AND DUP2 MSTORE DUP4 PUSH1 0x20 DUP3 ADD MSTORE PUSH1 0x80 PUSH1 0x40 DUP3 ADD MSTORE PUSH1 0x0 PUSH2 0x1D2E PUSH1 0x80 DUP4 ADD DUP6 PUSH2 0x1CDB JUMP JUMPDEST DUP3 DUP2 SUB PUSH1 0x60 DUP5 ADD MSTORE PUSH2 0x1AEC DUP2 DUP6 PUSH2 0x1CDB JUMP JUMPDEST PUSH1 0x0 PUSH1 0x20 DUP3 DUP5 SUB SLT ISZERO PUSH2 0x1D52 JUMPI PUSH1 0x0 DUP1 REVERT JUMPDEST DUP2 MLOAD DUP1 ISZERO ISZERO DUP2 EQ PUSH2 0x16EE JUMPI PUSH1 0x0 DUP1 REVERT JUMPDEST DUP2 DUP2 SUB DUP2 DUP2 GT ISZERO PUSH2 0x450 JUMPI PUSH2 0x450 PUSH2 0x19AA JUMP JUMPDEST PUSH1 0x0 PUSH1 0x20 DUP3 DUP5 SUB SLT ISZERO PUSH2 0x1D87 JUMPI PUSH1 0x0 DUP1 REVERT JUMPDEST DUP2 MLOAD PUSH2 0x16EE DUP2 PUSH2 0x171F JUMP JUMPDEST PUSH1 0x20 DUP1 DUP3 MSTORE PUSH1 0x2B SWAP1 DUP3 ADD MSTORE PUSH32 0x496E697469616C697A61626C653A20636F6E7472616374206973206E6F742069 PUSH1 0x40 DUP3 ADD MSTORE PUSH11 0x6E697469616C697A696E67 PUSH1 0xA8 SHL PUSH1 0x60 DUP3 ADD MSTORE PUSH1 0x80 ADD SWAP1 JUMP JUMPDEST PUSH32 0x416363657373436F6E74726F6C3A206163636F756E7420000000000000000000 DUP2 MSTORE PUSH1 0x0 DUP4 MLOAD PUSH2 0x1E15 DUP2 PUSH1 0x17 DUP6 ADD PUSH1 0x20 DUP9 ADD PUSH2 0x1B86 JUMP JUMPDEST PUSH17 0x1034B99036B4B9B9B4B733903937B6329 PUSH1 0x7D SHL PUSH1 0x17 SWAP2 DUP5 ADD SWAP2 DUP3 ADD MSTORE DUP4 MLOAD PUSH2 0x1E46 DUP2 PUSH1 0x28 DUP5 ADD PUSH1 0x20 DUP9 ADD PUSH2 0x1B86 JUMP JUMPDEST ADD PUSH1 0x28 ADD SWAP5 SWAP4 POP POP POP POP JUMP JUMPDEST PUSH1 0x20 DUP2 MSTORE PUSH1 0x0 PUSH2 0x16EE PUSH1 0x20 DUP4 ADD DUP5 PUSH2 0x1CDB JUMP JUMPDEST DUP1 DUP3 MUL DUP2 ISZERO DUP3 DUP3 DIV DUP5 EQ OR PUSH2 0x450 JUMPI PUSH2 0x450 PUSH2 0x19AA JUMP JUMPDEST DUP1 DUP3 ADD DUP1 DUP3 GT ISZERO PUSH2 0x450 JUMPI PUSH2 0x450 PUSH2 0x19AA JUMP JUMPDEST PUSH1 0x0 DUP2 PUSH2 0x1E9E JUMPI PUSH2 0x1E9E PUSH2 0x19AA JUMP JUMPDEST POP PUSH1 0x0 NOT ADD SWAP1 JUMP INVALID 0xB1 SWAP6 CHAINID 0xDF CREATE 0x1E DUP6 PUSH16 0xB3F010C267A7B1C60363CF8A4664E21C 0xC8 SWAP13 0x26 0x22 CHAINID KECCAK256 0x21 0x4E 0xCA 0xB5 LOG0 0xBF 0xE0 0xB7 SWAP14 0x2C 0x4B SHR 0x2E MUL MSIZE SWAP16 LOG0 DIFFICULTY 0xD1 ISZERO 0xB7 MLOAD 0x1F SWAP7 MSIZE ADDRESS PUSH29 0xB4276950967709A264697066735822122030B0B5BBE17F19B43DE4C88F CHAINID 0xB0 REVERT 0x1F PUSH21 0xB05922FDB5CF32FF18C9E301EB7DD864736F6C6343 STOP ADDMOD GT STOP CALLER "
		},
		"gasEstimates": {
			"creation": {
				"codeDepositCost": "1592800",
				"executionCost": "1666",
				"totalCost": "1594466"
			},
			"external": {
				"AGENT_ROLE()": "infinite",
				"DEFAULT_ADMIN_ROLE()": "262",
				"OWNER_ROLE()": "infinite",
				"batchRegisterIdentity(address[],address[],uint16[])": "infinite",
				"contains(address)": "infinite",
				"deleteIdentity(address)": "infinite",
				"getRoleAdmin(bytes32)": "2490",
				"grantRole(bytes32,address)": "infinite",
				"hasRole(bytes32,address)": "2698",
				"identity(address)": "infinite",
				"identityStorage()": "2419",
				"init(address,address,address)": "infinite",
				"investorCountry(address)": "infinite",
				"isVerified(address)": "infinite",
				"issuersRegistry()": "2442",
				"owner()": "2399",
				"registerIdentity(address,address,uint16)": "infinite",
				"renounceOwnership()": "infinite",
				"renounceRole(bytes32,address)": "29112",
				"revokeRole(bytes32,address)": "infinite",
				"setClaimTopicsRegistry(address)": "infinite",
				"setIdentityRegistryStorage(address)": "infinite",
				"setTrustedIssuersRegistry(address)": "infinite",
				"supportsInterface(bytes4)": "473",
				"topicsRegistry()": "2388",
				"transferOwnership(address)": "infinite",
				"updateCountry(address,uint16)": "infinite",
				"updateIdentity(address,address)": "infinite"
			}
		},
		"methodIdentifiers": {
			"AGENT_ROLE()": "22459e18",
			"DEFAULT_ADMIN_ROLE()": "a217fddf",
			"OWNER_ROLE()": "e58378bb",
			"batchRegisterIdentity(address[],address[],uint16[])": "653dc9f1",
			"contains(address)": "5dbe47e8",
			"deleteIdentity(address)": "a8d29d1d",
			"getRoleAdmin(bytes32)": "248a9ca3",
			"grantRole(bytes32,address)": "2f2ff15d",
			"hasRole(bytes32,address)": "91d14854",
			"identity(address)": "f0eb5e54",
			"identityStorage()": "f11abfd8",
			"init(address,address,address)": "184b9559",
			"investorCountry(address)": "7e42683b",
			"isVerified(address)": "b9209e33",
			"issuersRegistry()": "b4f3fcb7",
			"owner()": "8da5cb5b",
			"registerIdentity(address,address,uint16)": "454a03e0",
			"renounceOwnership()": "715018a6",
			"renounceRole(bytes32,address)": "36568abe",
			"revokeRole(bytes32,address)": "d547741f",
			"setClaimTopicsRegistry(address)": "670af6a9",
			"setIdentityRegistryStorage(address)": "26d941ae",
			"setTrustedIssuersRegistry(address)": "e744d789",
			"supportsInterface(bytes4)": "01ffc9a7",
			"topicsRegistry()": "3b3e12f4",
			"transferOwnership(address)": "f2fde38b",
			"updateCountry(address,uint16)": "3b239a7f",
			"updateIdentity(address,address)": "8e098ca1"
		}
	},
	"abi": [
		{
			"anonymous": false,
			"inputs": [
				{
					"indexed": true,
					"internalType": "address",
					"name": "claimTopicsRegistry",
					"type": "address"
				}
			],
			"name": "ClaimTopicsRegistrySet",
			"type": "event"
		},
		{
			"anonymous": false,
			"inputs": [
				{
					"indexed": true,
					"internalType": "address",
					"name": "investorAddress",
					"type": "address"
				},
				{
					"indexed": true,
					"internalType": "uint16",
					"name": "country",
					"type": "uint16"
				}
			],
			"name": "CountryUpdated",
			"type": "event"
		},
		{
			"anonymous": false,
			"inputs": [
				{
					"indexed": true,
					"internalType": "address",
					"name": "investorAddress",
					"type": "address"
				},
				{
					"indexed": true,
					"internalType": "contract IIdentity",
					"name": "identity",
					"type": "address"
				}
			],
			"name": "IdentityRegistered",
			"type": "event"
		},
		{
			"anonymous": false,
			"inputs": [
				{
					"indexed": true,
					"internalType": "address",
					"name": "investorAddress",
					"type": "address"
				},
				{
					"indexed": true,
					"internalType": "contract IIdentity",
					"name": "identity",
					"type": "address"
				}
			],
			"name": "IdentityRemoved",
			"type": "event"
		},
		{
			"anonymous": false,
			"inputs": [
				{
					"indexed": true,
					"internalType": "address",
					"name": "identityStorage",
					"type": "address"
				}
			],
			"name": "IdentityStorageSet",
			"type": "event"
		},
		{
			"anonymous": false,
			"inputs": [
				{
					"indexed": true,
					"internalType": "contract IIdentity",
					"name": "oldIdentity",
					"type": "address"
				},
				{
					"indexed": true,
					"internalType": "contract IIdentity",
					"name": "newIdentity",
					"type": "address"
				}
			],
			"name": "IdentityUpdated",
			"type": "event"
		},
		{
			"anonymous": false,
			"inputs": [
				{
					"indexed": false,
					"internalType": "uint8",
					"name": "version",
					"type": "uint8"
				}
			],
			"name": "Initialized",
			"type": "event"
		},
		{
			"anonymous": false,
			"inputs": [
				{
					"indexed": true,
					"internalType": "address",
					"name": "previousOwner",
					"type": "address"
				},
				{
					"indexed": true,
					"internalType": "address",
					"name": "newOwner",
					"type": "address"
				}
			],
			"name": "OwnershipTransferred",
			"type": "event"
		},
		{
			"anonymous": false,
			"inputs": [
				{
					"indexed": true,
					"internalType": "bytes32",
					"name": "role",
					"type": "bytes32"
				},
				{
					"indexed": true,
					"internalType": "bytes32",
					"name": "previousAdminRole",
					"type": "bytes32"
				},
				{
					"indexed": true,
					"internalType": "bytes32",
					"name": "newAdminRole",
					"type": "bytes32"
				}
			],
			"name": "RoleAdminChanged",
			"type": "event"
		},
		{
			"anonymous": false,
			"inputs": [
				{
					"indexed": true,
					"internalType": "bytes32",
					"name": "role",
					"type": "bytes32"
				},
				{
					"indexed": true,
					"internalType": "address",
					"name": "account",
					"type": "address"
				},
				{
					"indexed": true,
					"internalType": "address",
					"name": "sender",
					"type": "address"
				}
			],
			"name": "RoleGranted",
			"type": "event"
		},
		{
			"anonymous": false,
			"inputs": [
				{
					"indexed": true,
					"internalType": "bytes32",
					"name": "role",
					"type": "bytes32"
				},
				{
					"indexed": true,
					"internalType": "address",
					"name": "account",
					"type": "address"
				},
				{
					"indexed": true,
					"internalType": "address",
					"name": "sender",
					"type": "address"
				}
			],
			"name": "RoleRevoked",
			"type": "event"
		},
		{
			"anonymous": false,
			"inputs": [
				{
					"indexed": true,
					"internalType": "address",
					"name": "trustedIssuersRegistry",
					"type": "address"
				}
			],
			"name": "TrustedIssuersRegistrySet",
			"type": "event"
		},
		{
			"inputs": [],
			"name": "AGENT_ROLE",
			"outputs": [
				{
					"internalType": "bytes32",
					"name": "",
					"type": "bytes32"
				}
			],
			"stateMutability": "view",
			"type": "function"
		},
		{
			"inputs": [],
			"name": "DEFAULT_ADMIN_ROLE",
			"outputs": [
				{
					"internalType": "bytes32",
					"name": "",
					"type": "bytes32"
				}
			],
			"stateMutability": "view",
			"type": "function"
		},
		{
			"inputs": [],
			"name": "OWNER_ROLE",
			"outputs": [
				{
					"internalType": "bytes32",
					"name": "",
					"type": "bytes32"
				}
			],
			"stateMutability": "view",
			"type": "function"
		},
		{
			"inputs": [
				{
					"internalType": "address[]",
					"name": "_userAddresses",
					"type": "address[]"
				},
				{
					"internalType": "contract IIdentity[]",
					"name": "_identities",
					"type": "address[]"
				},
				{
					"internalType": "uint16[]",
					"name": "_countries",
					"type": "uint16[]"
				}
			],
			"name": "batchRegisterIdentity",
			"outputs": [],
			"stateMutability": "nonpayable",
			"type": "function"
		},
		{
			"inputs": [
				{
					"internalType": "address",
					"name": "_userAddress",
					"type": "address"
				}
			],
			"name": "contains",
			"outputs": [
				{
					"internalType": "bool",
					"name": "",
					"type": "bool"
				}
			],
			"stateMutability": "view",
			"type": "function"
		},
		{
			"inputs": [
				{
					"internalType": "address",
					"name": "_userAddress",
					"type": "address"
				}
			],
			"name": "deleteIdentity",
			"outputs": [],
			"stateMutability": "nonpayable",
			"type": "function"
		},
		{
			"inputs": [
				{
					"internalType": "bytes32",
					"name": "role",
					"type": "bytes32"
				}
			],
			"name": "getRoleAdmin",
			"outputs": [
				{
					"internalType": "bytes32",
					"name": "",
					"type": "bytes32"
				}
			],
			"stateMutability": "view",
			"type": "function"
		},
		{
			"inputs": [
				{
					"internalType": "bytes32",
					"name": "role",
					"type": "bytes32"
				},
				{
					"internalType": "address",
					"name": "account",
					"type": "address"
				}
			],
			"name": "grantRole",
			"outputs": [],
			"stateMutability": "nonpayable",
			"type": "function"
		},
		{
			"inputs": [
				{
					"internalType": "bytes32",
					"name": "role",
					"type": "bytes32"
				},
				{
					"internalType": "address",
					"name": "account",
					"type": "address"
				}
			],
			"name": "hasRole",
			"outputs": [
				{
					"internalType": "bool",
					"name": "",
					"type": "bool"
				}
			],
			"stateMutability": "view",
			"type": "function"
		},
		{
			"inputs": [
				{
					"internalType": "address",
					"name": "_userAddress",
					"type": "address"
				}
			],
			"name": "identity",
			"outputs": [
				{
					"internalType": "contract IIdentity",
					"name": "",
					"type": "address"
				}
			],
			"stateMutability": "view",
			"type": "function"
		},
		{
			"inputs": [],
			"name": "identityStorage",
			"outputs": [
				{
					"internalType": "contract IIdentityRegistryStorage",
					"name": "",
					"type": "address"
				}
			],
			"stateMutability": "view",
			"type": "function"
		},
		{
			"inputs": [
				{
					"internalType": "address",
					"name": "_trustedIssuersRegistry",
					"type": "address"
				},
				{
					"internalType": "address",
					"name": "_claimTopicsRegistry",
					"type": "address"
				},
				{
					"internalType": "address",
					"name": "_identityStorage",
					"type": "address"
				}
			],
			"name": "init",
			"outputs": [],
			"stateMutability": "nonpayable",
			"type": "function"
		},
		{
			"inputs": [
				{
					"internalType": "address",
					"name": "_userAddress",
					"type": "address"
				}
			],
			"name": "investorCountry",
			"outputs": [
				{
					"internalType": "uint16",
					"name": "",
					"type": "uint16"
				}
			],
			"stateMutability": "view",
			"type": "function"
		},
		{
			"inputs": [
				{
					"internalType": "address",
					"name": "_userAddress",
					"type": "address"
				}
			],
			"name": "isVerified",
			"outputs": [
				{
					"internalType": "bool",
					"name": "",
					"type": "bool"
				}
			],
			"stateMutability": "view",
			"type": "function"
		},
		{
			"inputs": [],
			"name": "issuersRegistry",
			"outputs": [
				{
					"internalType": "contract ITrustedIssuersRegistry",
					"name": "",
					"type": "address"
				}
			],
			"stateMutability": "view",
			"type": "function"
		},
		{
			"inputs": [],
			"name": "owner",
			"outputs": [
				{
					"internalType": "address",
					"name": "",
					"type": "address"
				}
			],
			"stateMutability": "view",
			"type": "function"
		},
		{
			"inputs": [
				{
					"internalType": "address",
					"name": "_userAddress",
					"type": "address"
				},
				{
					"internalType": "contract IIdentity",
					"name": "_identity",
					"type": "address"
				},
				{
					"internalType": "uint16",
					"name": "_country",
					"type": "uint16"
				}
			],
			"name": "registerIdentity",
			"outputs": [],
			"stateMutability": "nonpayable",
			"type": "function"
		},
		{
			"inputs": [],
			"name": "renounceOwnership",
			"outputs": [],
			"stateMutability": "nonpayable",
			"type": "function"
		},
		{
			"inputs": [
				{
					"internalType": "bytes32",
					"name": "role",
					"type": "bytes32"
				},
				{
					"internalType": "address",
					"name": "account",
					"type": "address"
				}
			],
			"name": "renounceRole",
			"outputs": [],
			"stateMutability": "nonpayable",
			"type": "function"
		},
		{
			"inputs": [
				{
					"internalType": "bytes32",
					"name": "role",
					"type": "bytes32"
				},
				{
					"internalType": "address",
					"name": "account",
					"type": "address"
				}
			],
			"name": "revokeRole",
			"outputs": [],
			"stateMutability": "nonpayable",
			"type": "function"
		},
		{
			"inputs": [
				{
					"internalType": "address",
					"name": "_claimTopicsRegistry",
					"type": "address"
				}
			],
			"name": "setClaimTopicsRegistry",
			"outputs": [],
			"stateMutability": "nonpayable",
			"type": "function"
		},
		{
			"inputs": [
				{
					"internalType": "address",
					"name": "_identityRegistryStorage",
					"type": "address"
				}
			],
			"name": "setIdentityRegistryStorage",
			"outputs": [],
			"stateMutability": "nonpayable",
			"type": "function"
		},
		{
			"inputs": [
				{
					"internalType": "address",
					"name": "_trustedIssuersRegistry",
					"type": "address"
				}
			],
			"name": "setTrustedIssuersRegistry",
			"outputs": [],
			"stateMutability": "nonpayable",
			"type": "function"
		},
		{
			"inputs": [
				{
					"internalType": "bytes4",
					"name": "interfaceId",
					"type": "bytes4"
				}
			],
			"name": "supportsInterface",
			"outputs": [
				{
					"internalType": "bool",
					"name": "",
					"type": "bool"
				}
			],
			"stateMutability": "view",
			"type": "function"
		},
		{
			"inputs": [],
			"name": "topicsRegistry",
			"outputs": [
				{
					"internalType": "contract IClaimTopicsRegistry",
					"name": "",
					"type": "address"
				}
			],
			"stateMutability": "view",
			"type": "function"
		},
		{
			"inputs": [
				{
					"internalType": "address",
					"name": "newOwner",
					"type": "address"
				}
			],
			"name": "transferOwnership",
			"outputs": [],
			"stateMutability": "nonpayable",
			"type": "function"
		},
		{
			"inputs": [
				{
					"internalType": "address",
					"name": "_userAddress",
					"type": "address"
				},
				{
					"internalType": "uint16",
					"name": "_country",
					"type": "uint16"
				}
			],
			"name": "updateCountry",
			"outputs": [],
			"stateMutability": "nonpayable",
			"type": "function"
		},
		{
			"inputs": [
				{
					"internalType": "address",
					"name": "_userAddress",
					"type": "address"
				},
				{
					"internalType": "contract IIdentity",
					"name": "_identity",
					"type": "address"
				}
			],
			"name": "updateIdentity",
			"outputs": [],
			"stateMutability": "nonpayable",
			"type": "function"
		}
	]
}