{
	"Tokeny Project/Compliance/modular/ModularCompliance.sol": {
		"ModularCompliance": {
			"abi": [
				{
					"anonymous": false,
					"inputs": [
						{
							"indexed": false,
							"internalType": "uint8",
							"name": "version",
							"type": "uint8"
						}
					],
					"name": "Initialized",
					"type": "event"
				},
				{
					"anonymous": false,
					"inputs": [
						{
							"indexed": true,
							"internalType": "address",
							"name": "_module",
							"type": "address"
						}
					],
					"name": "ModuleAdded",
					"type": "event"
				},
				{
					"anonymous": false,
					"inputs": [
						{
							"indexed": true,
							"internalType": "address",
							"name": "target",
							"type": "address"
						},
						{
							"indexed": false,
							"internalType": "bytes4",
							"name": "selector",
							"type": "bytes4"
						}
					],
					"name": "ModuleInteraction",
					"type": "event"
				},
				{
					"anonymous": false,
					"inputs": [
						{
							"indexed": true,
							"internalType": "address",
							"name": "_module",
							"type": "address"
						}
					],
					"name": "ModuleRemoved",
					"type": "event"
				},
				{
					"anonymous": false,
					"inputs": [
						{
							"indexed": true,
							"internalType": "address",
							"name": "previousOwner",
							"type": "address"
						},
						{
							"indexed": true,
							"internalType": "address",
							"name": "newOwner",
							"type": "address"
						}
					],
					"name": "OwnershipTransferred",
					"type": "event"
				},
				{
					"anonymous": false,
					"inputs": [
						{
							"indexed": false,
							"internalType": "address",
							"name": "_token",
							"type": "address"
						}
					],
					"name": "TokenBound",
					"type": "event"
				},
				{
					"anonymous": false,
					"inputs": [
						{
							"indexed": false,
							"internalType": "address",
							"name": "_token",
							"type": "address"
						}
					],
					"name": "TokenUnbound",
					"type": "event"
				},
				{
					"inputs": [
						{
							"internalType": "address",
							"name": "_module",
							"type": "address"
						}
					],
					"name": "addModule",
					"outputs": [],
					"stateMutability": "nonpayable",
					"type": "function"
				},
				{
					"inputs": [
						{
							"internalType": "address",
							"name": "_token",
							"type": "address"
						}
					],
					"name": "bindToken",
					"outputs": [],
					"stateMutability": "nonpayable",
					"type": "function"
				},
				{
					"inputs": [
						{
							"internalType": "bytes",
							"name": "callData",
							"type": "bytes"
						},
						{
							"internalType": "address",
							"name": "_module",
							"type": "address"
						}
					],
					"name": "callModuleFunction",
					"outputs": [],
					"stateMutability": "nonpayable",
					"type": "function"
				},
				{
					"inputs": [
						{
							"internalType": "address",
							"name": "_from",
							"type": "address"
						},
						{
							"internalType": "address",
							"name": "_to",
							"type": "address"
						},
						{
							"internalType": "uint256",
							"name": "_value",
							"type": "uint256"
						}
					],
					"name": "canTransfer",
					"outputs": [
						{
							"internalType": "bool",
							"name": "",
							"type": "bool"
						}
					],
					"stateMutability": "view",
					"type": "function"
				},
				{
					"inputs": [
						{
							"internalType": "address",
							"name": "_to",
							"type": "address"
						},
						{
							"internalType": "uint256",
							"name": "_value",
							"type": "uint256"
						}
					],
					"name": "created",
					"outputs": [],
					"stateMutability": "nonpayable",
					"type": "function"
				},
				{
					"inputs": [
						{
							"internalType": "address",
							"name": "_from",
							"type": "address"
						},
						{
							"internalType": "uint256",
							"name": "_value",
							"type": "uint256"
						}
					],
					"name": "destroyed",
					"outputs": [],
					"stateMutability": "nonpayable",
					"type": "function"
				},
				{
					"inputs": [],
					"name": "getModules",
					"outputs": [
						{
							"internalType": "address[]",
							"name": "",
							"type": "address[]"
						}
					],
					"stateMutability": "view",
					"type": "function"
				},
				{
					"inputs": [],
					"name": "getTokenBound",
					"outputs": [
						{
							"internalType": "address",
							"name": "",
							"type": "address"
						}
					],
					"stateMutability": "view",
					"type": "function"
				},
				{
					"inputs": [],
					"name": "init",
					"outputs": [],
					"stateMutability": "nonpayable",
					"type": "function"
				},
				{
					"inputs": [
						{
							"internalType": "address",
							"name": "_module",
							"type": "address"
						}
					],
					"name": "isModuleBound",
					"outputs": [
						{
							"internalType": "bool",
							"name": "",
							"type": "bool"
						}
					],
					"stateMutability": "view",
					"type": "function"
				},
				{
					"inputs": [],
					"name": "owner",
					"outputs": [
						{
							"internalType": "address",
							"name": "",
							"type": "address"
						}
					],
					"stateMutability": "view",
					"type": "function"
				},
				{
					"inputs": [
						{
							"internalType": "address",
							"name": "_module",
							"type": "address"
						}
					],
					"name": "removeModule",
					"outputs": [],
					"stateMutability": "nonpayable",
					"type": "function"
				},
				{
					"inputs": [],
					"name": "renounceOwnership",
					"outputs": [],
					"stateMutability": "nonpayable",
					"type": "function"
				},
				{
					"inputs": [
						{
							"internalType": "address",
							"name": "newOwner",
							"type": "address"
						}
					],
					"name": "transferOwnership",
					"outputs": [],
					"stateMutability": "nonpayable",
					"type": "function"
				},
				{
					"inputs": [
						{
							"internalType": "address",
							"name": "_from",
							"type": "address"
						},
						{
							"internalType": "address",
							"name": "_to",
							"type": "address"
						},
						{
							"internalType": "uint256",
							"name": "_value",
							"type": "uint256"
						}
					],
					"name": "transferred",
					"outputs": [],
					"stateMutability": "nonpayable",
					"type": "function"
				},
				{
					"inputs": [
						{
							"internalType": "address",
							"name": "_token",
							"type": "address"
						}
					],
					"name": "unbindToken",
					"outputs": [],
					"stateMutability": "nonpayable",
					"type": "function"
				}
			],
			"devdoc": {
				"kind": "dev",
				"methods": {
					"addModule(address)": {
						"details": "adds a module to the list of compliance modules",
						"params": {
							"_module": "address of the module to add  there cannot be more than 25 modules bound to the modular compliance for gas cost reasons  This function can be called ONLY by the owner of the compliance contract  Emits a ModuleAdded event"
						}
					},
					"bindToken(address)": {
						"details": "binds a token to the compliance contract",
						"params": {
							"_token": "address of the token to bind  This function can be called ONLY by the owner of the compliance contract  Emits a TokenBound event"
						}
					},
					"callModuleFunction(bytes,address)": {
						"details": "calls any function on bound modules  can be called only on bound modules",
						"params": {
							"_module": "The address of the module  This function can be called only by the modular compliance owner  emits a `ModuleInteraction` event",
							"callData": "the bytecode for interaction with the module, abi encoded"
						}
					},
					"getModules()": {
						"details": "getter for the modules bound to the compliance contract  returns address array of module contracts bound to the compliance"
					},
					"getTokenBound()": {
						"details": "getter for the address of the token bound  returns the address of the token"
					},
					"isModuleBound(address)": {
						"details": "checks if a module is bound to the compliance contract  returns true if module is bound, false otherwise"
					},
					"owner()": {
						"details": "Returns the address of the current owner."
					},
					"removeModule(address)": {
						"details": "removes a module from the list of compliance modules",
						"params": {
							"_module": "address of the module to remove  This function can be called ONLY by the owner of the compliance contract  Emits a ModuleRemoved event"
						}
					},
					"renounceOwnership()": {
						"details": "Leaves the contract without owner. It will not be possible to call `onlyOwner` functions. Can only be called by the current owner. NOTE: Renouncing ownership will leave the contract without an owner, thereby disabling any functionality that is only available to the owner."
					},
					"transferOwnership(address)": {
						"details": "Transfers ownership of the contract to a new account (`newOwner`). Can only be called by the current owner."
					},
					"unbindToken(address)": {
						"details": "unbinds a token from the compliance contract",
						"params": {
							"_token": "address of the token to unbind  This function can be called ONLY by the owner of the compliance contract  Emits a TokenUnbound event"
						}
					}
				},
				"version": 1
			},
			"evm": {
				"assembly": "    /* \"Tokeny Project/Compliance/modular/ModularCompliance.sol\":326:5613  contract ModularCompliance is IModularCompliance, OwnableUpgradeable, MCStorage {... */\n  mstore(0x40, 0x80)\n  callvalue\n  dup1\n  iszero\n  tag_1\n  jumpi\n  0x00\n  dup1\n  revert\ntag_1:\n  pop\n  dataSize(sub_0)\n  dup1\n  dataOffset(sub_0)\n  0x00\n  codecopy\n  0x00\n  return\nstop\n\nsub_0: assembly {\n        /* \"Tokeny Project/Compliance/modular/ModularCompliance.sol\":326:5613  contract ModularCompliance is IModularCompliance, OwnableUpgradeable, MCStorage {... */\n      mstore(0x40, 0x80)\n      callvalue\n      dup1\n      iszero\n      tag_1\n      jumpi\n      0x00\n      dup1\n      revert\n    tag_1:\n      pop\n      jumpi(tag_2, lt(calldatasize, 0x04))\n      shr(0xe0, calldataload(0x00))\n      dup1\n      0x8da5cb5b\n      gt\n      tag_19\n      jumpi\n      dup1\n      0xe1c7392a\n      gt\n      tag_20\n      jumpi\n      dup1\n      0xe1c7392a\n      eq\n      tag_15\n      jumpi\n      dup1\n      0xe46638e6\n      eq\n      tag_16\n      jumpi\n      dup1\n      0xefb22d33\n      eq\n      tag_17\n      jumpi\n      dup1\n      0xf2fde38b\n      eq\n      tag_18\n      jumpi\n      jump(tag_2)\n    tag_20:\n      dup1\n      0x8da5cb5b\n      eq\n      tag_11\n      jumpi\n      dup1\n      0xa0632461\n      eq\n      tag_12\n      jumpi\n      dup1\n      0xa446d49f\n      eq\n      tag_13\n      jumpi\n      dup1\n      0xb2494df3\n      eq\n      tag_14\n      jumpi\n      jump(tag_2)\n    tag_19:\n      dup1\n      0x6a3edf28\n      gt\n      tag_21\n      jumpi\n      dup1\n      0x6a3edf28\n      eq\n      tag_7\n      jumpi\n      dup1\n      0x715018a6\n      eq\n      tag_8\n      jumpi\n      dup1\n      0x8baf29b4\n      eq\n      tag_9\n      jumpi\n      dup1\n      0x8d2ea772\n      eq\n      tag_10\n      jumpi\n      jump(tag_2)\n    tag_21:\n      dup1\n      0x1ed86f19\n      eq\n      tag_3\n      jumpi\n      dup1\n      0x3ff5aa02\n      eq\n      tag_4\n      jumpi\n      dup1\n      0x40db3b50\n      eq\n      tag_5\n      jumpi\n      dup1\n      0x5f8dead3\n      eq\n      tag_6\n      jumpi\n    tag_2:\n      0x00\n      dup1\n      revert\n        /* \"Tokeny Project/Compliance/modular/ModularCompliance.sol\":1487:1942  function addModule(address _module) external override onlyOwner {... */\n    tag_3:\n      tag_22\n      0x04\n      dup1\n      calldatasize\n      sub\n      dup2\n      add\n      swap1\n      tag_23\n      swap2\n      swap1\n      tag_24\n      jump\t// in\n    tag_23:\n      tag_25\n      jump\t// in\n    tag_22:\n      stop\n        /* \"Tokeny Project/Compliance/modular/ModularCompliance.sol\":675:1102  function bindToken(address _token) external override {... */\n    tag_4:\n      tag_26\n      0x04\n      dup1\n      calldatasize\n      sub\n      dup2\n      add\n      swap1\n      tag_27\n      swap2\n      swap1\n      tag_24\n      jump\t// in\n    tag_27:\n      tag_28\n      jump\t// in\n    tag_26:\n      stop\n        /* \"Tokeny Project/Compliance/modular/ModularCompliance.sol\":1110:1479  function unbindToken(address _token) external override {... */\n    tag_5:\n      tag_29\n      0x04\n      dup1\n      calldatasize\n      sub\n      dup2\n      add\n      swap1\n      tag_30\n      swap2\n      swap1\n      tag_24\n      jump\t// in\n    tag_30:\n      tag_31\n      jump\t// in\n    tag_29:\n      stop\n        /* \"Tokeny Project/Compliance/modular/ModularCompliance.sol\":3090:3477  function created(address _to, uint256 _value) external onlyToken override {... */\n    tag_6:\n      tag_32\n      0x04\n      dup1\n      calldatasize\n      sub\n      dup2\n      add\n      swap1\n      tag_33\n      swap2\n      swap1\n      tag_34\n      jump\t// in\n    tag_33:\n      tag_35\n      jump\t// in\n    tag_32:\n      stop\n        /* \"Tokeny Project/Compliance/modular/ModularCompliance.sol\":4887:4990  function getTokenBound() external view override returns (address) {... */\n    tag_7:\n      tag_36\n      tag_37\n      jump\t// in\n    tag_36:\n      mload(0x40)\n      tag_38\n      swap2\n      swap1\n      tag_39\n      jump\t// in\n    tag_38:\n      mload(0x40)\n      dup1\n      swap2\n      sub\n      swap1\n      return\n        /* \"@openzeppelin/contracts-upgradeable/access/OwnableUpgradeable.sol\":2064:2165  function renounceOwnership() public virtual onlyOwner {... */\n    tag_8:\n      tag_40\n      tag_41\n      jump\t// in\n    tag_40:\n      stop\n        /* \"Tokeny Project/Compliance/modular/ModularCompliance.sol\":2601:3082  function transferred(address _from, address _to, uint256 _value) external onlyToken override {... */\n    tag_9:\n      tag_42\n      0x04\n      dup1\n      calldatasize\n      sub\n      dup2\n      add\n      swap1\n      tag_43\n      swap2\n      swap1\n      tag_44\n      jump\t// in\n    tag_43:\n      tag_45\n      jump\t// in\n    tag_42:\n      stop\n        /* \"Tokeny Project/Compliance/modular/ModularCompliance.sol\":3485:3880  function destroyed(address _from, uint256 _value) external onlyToken override {... */\n    tag_10:\n      tag_46\n      0x04\n      dup1\n      calldatasize\n      sub\n      dup2\n      add\n      swap1\n      tag_47\n      swap2\n      swap1\n      tag_34\n      jump\t// in\n    tag_47:\n      tag_48\n      jump\t// in\n    tag_46:\n      stop\n        /* \"@openzeppelin/contracts-upgradeable/access/OwnableUpgradeable.sol\":1441:1526  function owner() public view virtual returns (address) {... */\n    tag_11:\n      tag_49\n      tag_50\n      jump\t// in\n    tag_49:\n      mload(0x40)\n      tag_51\n      swap2\n      swap1\n      tag_39\n      jump\t// in\n    tag_51:\n      mload(0x40)\n      dup1\n      swap2\n      sub\n      swap1\n      return\n        /* \"Tokeny Project/Compliance/modular/ModularCompliance.sol\":1950:2593  function removeModule(address _module) external override onlyOwner {... */\n    tag_12:\n      tag_52\n      0x04\n      dup1\n      calldatasize\n      sub\n      dup2\n      add\n      swap1\n      tag_53\n      swap2\n      swap1\n      tag_24\n      jump\t// in\n    tag_53:\n      tag_54\n      jump\t// in\n    tag_52:\n      stop\n        /* \"Tokeny Project/Compliance/modular/ModularCompliance.sol\":4640:4765  function isModuleBound(address _module) external view override returns (bool) {... */\n    tag_13:\n      tag_55\n      0x04\n      dup1\n      calldatasize\n      sub\n      dup2\n      add\n      swap1\n      tag_56\n      swap2\n      swap1\n      tag_24\n      jump\t// in\n    tag_56:\n      tag_57\n      jump\t// in\n    tag_55:\n      mload(0x40)\n      tag_58\n      swap2\n      swap1\n      tag_59\n      jump\t// in\n    tag_58:\n      mload(0x40)\n      dup1\n      swap2\n      sub\n      swap1\n      return\n        /* \"Tokeny Project/Compliance/modular/ModularCompliance.sol\":4773:4879  function getModules() external view override returns (address[] memory) {... */\n    tag_14:\n      tag_60\n      tag_61\n      jump\t// in\n    tag_60:\n      mload(0x40)\n      tag_62\n      swap2\n      swap1\n      tag_63\n      jump\t// in\n    tag_62:\n      mload(0x40)\n      dup1\n      swap2\n      sub\n      swap1\n      return\n        /* \"Tokeny Project/Compliance/modular/ModularCompliance.sol\":595:667  function init() external initializer {... */\n    tag_15:\n      tag_64\n      tag_65\n      jump\t// in\n    tag_64:\n      stop\n        /* \"Tokeny Project/Compliance/modular/ModularCompliance.sol\":4998:5368  function canTransfer(address _from, address _to, uint256 _value) external view override returns (bool) {... */\n    tag_16:\n      tag_66\n      0x04\n      dup1\n      calldatasize\n      sub\n      dup2\n      add\n      swap1\n      tag_67\n      swap2\n      swap1\n      tag_44\n      jump\t// in\n    tag_67:\n      tag_68\n      jump\t// in\n    tag_66:\n      mload(0x40)\n      tag_69\n      swap2\n      swap1\n      tag_59\n      jump\t// in\n    tag_69:\n      mload(0x40)\n      dup1\n      swap2\n      sub\n      swap1\n      return\n        /* \"Tokeny Project/Compliance/modular/ModularCompliance.sol\":3888:4632  function callModuleFunction(bytes calldata callData, address _module) external override onlyOwner {... */\n    tag_17:\n      tag_70\n      0x04\n      dup1\n      calldatasize\n      sub\n      dup2\n      add\n      swap1\n      tag_71\n      swap2\n      swap1\n      tag_72\n      jump\t// in\n    tag_71:\n      tag_73\n      jump\t// in\n    tag_70:\n      stop\n        /* \"@openzeppelin/contracts-upgradeable/access/OwnableUpgradeable.sol\":2314:2512  function transferOwnership(address newOwner) public virtual onlyOwner {... */\n    tag_18:\n      tag_74\n      0x04\n      dup1\n      calldatasize\n      sub\n      dup2\n      add\n      swap1\n      tag_75\n      swap2\n      swap1\n      tag_24\n      jump\t// in\n    tag_75:\n      tag_76\n      jump\t// in\n    tag_74:\n      stop\n        /* \"Tokeny Project/Compliance/modular/ModularCompliance.sol\":1487:1942  function addModule(address _module) external override onlyOwner {... */\n    tag_25:\n        /* \"@openzeppelin/contracts-upgradeable/access/OwnableUpgradeable.sol\":1334:1347  _checkOwner() */\n      tag_78\n        /* \"@openzeppelin/contracts-upgradeable/access/OwnableUpgradeable.sol\":1334:1345  _checkOwner */\n      tag_79\n        /* \"@openzeppelin/contracts-upgradeable/access/OwnableUpgradeable.sol\":1334:1347  _checkOwner() */\n      jump\t// in\n    tag_78:\n        /* \"Tokeny Project/Compliance/modular/ModularCompliance.sol\":1589:1590  0 */\n      0x00\n        /* \"Tokeny Project/Compliance/modular/ModularCompliance.sol\":1570:1591  _module != address(0) */\n      0xffffffffffffffffffffffffffffffffffffffff\n      and\n        /* \"Tokeny Project/Compliance/modular/ModularCompliance.sol\":1570:1577  _module */\n      dup2\n        /* \"Tokeny Project/Compliance/modular/ModularCompliance.sol\":1570:1591  _module != address(0) */\n      0xffffffffffffffffffffffffffffffffffffffff\n      and\n      sub\n        /* \"Tokeny Project/Compliance/modular/ModularCompliance.sol\":1562:1627  require(_module != address(0), \"invalid argument - zero address\") */\n      tag_81\n      jumpi\n      mload(0x40)\n      0x08c379a000000000000000000000000000000000000000000000000000000000\n      dup2\n      mstore\n      0x04\n      add\n      tag_82\n      swap1\n      tag_83\n      jump\t// in\n    tag_82:\n      mload(0x40)\n      dup1\n      swap2\n      sub\n      swap1\n      revert\n    tag_81:\n        /* \"Tokeny Project/Compliance/modular/ModularCompliance.sol\":1647:1659  _moduleBound */\n      0x67\n        /* \"Tokeny Project/Compliance/modular/ModularCompliance.sol\":1647:1668  _moduleBound[_module] */\n      0x00\n        /* \"Tokeny Project/Compliance/modular/ModularCompliance.sol\":1660:1667  _module */\n      dup3\n        /* \"Tokeny Project/Compliance/modular/ModularCompliance.sol\":1647:1668  _moduleBound[_module] */\n      0xffffffffffffffffffffffffffffffffffffffff\n      and\n      0xffffffffffffffffffffffffffffffffffffffff\n      and\n      dup2\n      mstore\n      0x20\n      add\n      swap1\n      dup2\n      mstore\n      0x20\n      add\n      0x00\n      keccak256\n      0x00\n      swap1\n      sload\n      swap1\n      0x0100\n      exp\n      swap1\n      div\n      0xff\n      and\n        /* \"Tokeny Project/Compliance/modular/ModularCompliance.sol\":1646:1668  !_moduleBound[_module] */\n      iszero\n        /* \"Tokeny Project/Compliance/modular/ModularCompliance.sol\":1638:1693  require(!_moduleBound[_module], \"module already bound\") */\n      tag_84\n      jumpi\n      mload(0x40)\n      0x08c379a000000000000000000000000000000000000000000000000000000000\n      dup2\n      mstore\n      0x04\n      add\n      tag_85\n      swap1\n      tag_86\n      jump\t// in\n    tag_85:\n      mload(0x40)\n      dup1\n      swap2\n      sub\n      swap1\n      revert\n    tag_84:\n        /* \"Tokeny Project/Compliance/modular/ModularCompliance.sol\":1731:1733  24 */\n      0x18\n        /* \"Tokeny Project/Compliance/modular/ModularCompliance.sol\":1712:1720  _modules */\n      0x66\n        /* \"Tokeny Project/Compliance/modular/ModularCompliance.sol\":1712:1727  _modules.length */\n      dup1\n      sload\n      swap1\n      pop\n        /* \"Tokeny Project/Compliance/modular/ModularCompliance.sol\":1712:1733  _modules.length <= 24 */\n      gt\n      iszero\n        /* \"Tokeny Project/Compliance/modular/ModularCompliance.sol\":1704:1769  require(_modules.length <= 24, \"cannot add more than 25 modules\") */\n      tag_87\n      jumpi\n      mload(0x40)\n      0x08c379a000000000000000000000000000000000000000000000000000000000\n      dup2\n      mstore\n      0x04\n      add\n      tag_88\n      swap1\n      tag_89\n      jump\t// in\n    tag_88:\n      mload(0x40)\n      dup1\n      swap2\n      sub\n      swap1\n      revert\n    tag_87:\n        /* \"Tokeny Project/Compliance/modular/ModularCompliance.sol\":1788:1795  _module */\n      dup1\n        /* \"Tokeny Project/Compliance/modular/ModularCompliance.sol\":1780:1811  IModule(_module).bindCompliance */\n      0xffffffffffffffffffffffffffffffffffffffff\n      and\n      0x4a932544\n        /* \"Tokeny Project/Compliance/modular/ModularCompliance.sol\":1820:1824  this */\n      address\n        /* \"Tokeny Project/Compliance/modular/ModularCompliance.sol\":1780:1826  IModule(_module).bindCompliance(address(this)) */\n      mload(0x40)\n      dup3\n      0xffffffff\n      and\n      0xe0\n      shl\n      dup2\n      mstore\n      0x04\n      add\n      tag_90\n      swap2\n      swap1\n      tag_39\n      jump\t// in\n    tag_90:\n      0x00\n      mload(0x40)\n      dup1\n      dup4\n      sub\n      dup2\n      0x00\n      dup8\n      dup1\n      extcodesize\n      iszero\n      dup1\n      iszero\n      tag_91\n      jumpi\n      0x00\n      dup1\n      revert\n    tag_91:\n      pop\n      gas\n      call\n      iszero\n      dup1\n      iszero\n      tag_93\n      jumpi\n      returndatasize\n      0x00\n      dup1\n      returndatacopy\n      revert(0x00, returndatasize)\n    tag_93:\n      pop\n      pop\n      pop\n      pop\n        /* \"Tokeny Project/Compliance/modular/ModularCompliance.sol\":1837:1845  _modules */\n      0x66\n        /* \"Tokeny Project/Compliance/modular/ModularCompliance.sol\":1851:1858  _module */\n      dup2\n        /* \"Tokeny Project/Compliance/modular/ModularCompliance.sol\":1837:1859  _modules.push(_module) */\n      swap1\n      dup1\n      0x01\n      dup2\n      sload\n      add\n      dup1\n      dup3\n      sstore\n      dup1\n      swap2\n      pop\n      pop\n      0x01\n      swap1\n      sub\n      swap1\n      0x00\n      mstore\n      keccak256(0x00, 0x20)\n      add\n      0x00\n      swap1\n      swap2\n      swap1\n      swap2\n      swap1\n      swap2\n      0x0100\n      exp\n      dup2\n      sload\n      dup2\n      0xffffffffffffffffffffffffffffffffffffffff\n      mul\n      not\n      and\n      swap1\n      dup4\n      0xffffffffffffffffffffffffffffffffffffffff\n      and\n      mul\n      or\n      swap1\n      sstore\n      pop\n        /* \"Tokeny Project/Compliance/modular/ModularCompliance.sol\":1894:1898  true */\n      0x01\n        /* \"Tokeny Project/Compliance/modular/ModularCompliance.sol\":1870:1882  _moduleBound */\n      0x67\n        /* \"Tokeny Project/Compliance/modular/ModularCompliance.sol\":1870:1891  _moduleBound[_module] */\n      0x00\n        /* \"Tokeny Project/Compliance/modular/ModularCompliance.sol\":1883:1890  _module */\n      dup4\n        /* \"Tokeny Project/Compliance/modular/ModularCompliance.sol\":1870:1891  _moduleBound[_module] */\n      0xffffffffffffffffffffffffffffffffffffffff\n      and\n      0xffffffffffffffffffffffffffffffffffffffff\n      and\n      dup2\n      mstore\n      0x20\n      add\n      swap1\n      dup2\n      mstore\n      0x20\n      add\n      0x00\n      keccak256\n      0x00\n        /* \"Tokeny Project/Compliance/modular/ModularCompliance.sol\":1870:1898  _moduleBound[_module] = true */\n      0x0100\n      exp\n      dup2\n      sload\n      dup2\n      0xff\n      mul\n      not\n      and\n      swap1\n      dup4\n      iszero\n      iszero\n      mul\n      or\n      swap1\n      sstore\n      pop\n        /* \"Tokeny Project/Compliance/modular/ModularCompliance.sol\":1926:1933  _module */\n      dup1\n        /* \"Tokeny Project/Compliance/modular/ModularCompliance.sol\":1914:1934  ModuleAdded(_module) */\n      0xffffffffffffffffffffffffffffffffffffffff\n      and\n      0xead6a006345da1073a106d5f32372d2d2204f46cb0b4bca8f5ebafcbbed12b8a\n      mload(0x40)\n      mload(0x40)\n      dup1\n      swap2\n      sub\n      swap1\n      log2\n        /* \"Tokeny Project/Compliance/modular/ModularCompliance.sol\":1487:1942  function addModule(address _module) external override onlyOwner {... */\n      pop\n      jump\t// out\n        /* \"Tokeny Project/Compliance/modular/ModularCompliance.sol\":675:1102  function bindToken(address _token) external override {... */\n    tag_28:\n        /* \"Tokeny Project/Compliance/modular/ModularCompliance.sol\":758:768  msg.sender */\n      caller\n        /* \"Tokeny Project/Compliance/modular/ModularCompliance.sol\":747:768  owner() == msg.sender */\n      0xffffffffffffffffffffffffffffffffffffffff\n      and\n        /* \"Tokeny Project/Compliance/modular/ModularCompliance.sol\":747:754  owner() */\n      tag_96\n        /* \"Tokeny Project/Compliance/modular/ModularCompliance.sol\":747:752  owner */\n      tag_50\n        /* \"Tokeny Project/Compliance/modular/ModularCompliance.sol\":747:754  owner() */\n      jump\t// in\n    tag_96:\n        /* \"Tokeny Project/Compliance/modular/ModularCompliance.sol\":747:768  owner() == msg.sender */\n      0xffffffffffffffffffffffffffffffffffffffff\n      and\n      eq\n        /* \"Tokeny Project/Compliance/modular/ModularCompliance.sol\":747:823  owner() == msg.sender || (_tokenBound == address(0) && msg.sender == _token) */\n      dup1\n      tag_97\n      jumpi\n      pop\n        /* \"Tokeny Project/Compliance/modular/ModularCompliance.sol\":796:797  0 */\n      0x00\n        /* \"Tokeny Project/Compliance/modular/ModularCompliance.sol\":773:798  _tokenBound == address(0) */\n      0xffffffffffffffffffffffffffffffffffffffff\n      and\n        /* \"Tokeny Project/Compliance/modular/ModularCompliance.sol\":773:784  _tokenBound */\n      0x65\n      0x00\n      swap1\n      sload\n      swap1\n      0x0100\n      exp\n      swap1\n      div\n      0xffffffffffffffffffffffffffffffffffffffff\n      and\n        /* \"Tokeny Project/Compliance/modular/ModularCompliance.sol\":773:798  _tokenBound == address(0) */\n      0xffffffffffffffffffffffffffffffffffffffff\n      and\n      eq\n        /* \"Tokeny Project/Compliance/modular/ModularCompliance.sol\":773:822  _tokenBound == address(0) && msg.sender == _token */\n      dup1\n      iszero\n      tag_98\n      jumpi\n      pop\n        /* \"Tokeny Project/Compliance/modular/ModularCompliance.sol\":816:822  _token */\n      dup1\n        /* \"Tokeny Project/Compliance/modular/ModularCompliance.sol\":802:822  msg.sender == _token */\n      0xffffffffffffffffffffffffffffffffffffffff\n      and\n        /* \"Tokeny Project/Compliance/modular/ModularCompliance.sol\":802:812  msg.sender */\n      caller\n        /* \"Tokeny Project/Compliance/modular/ModularCompliance.sol\":802:822  msg.sender == _token */\n      0xffffffffffffffffffffffffffffffffffffffff\n      and\n      eq\n        /* \"Tokeny Project/Compliance/modular/ModularCompliance.sol\":773:822  _tokenBound == address(0) && msg.sender == _token */\n    tag_98:\n        /* \"Tokeny Project/Compliance/modular/ModularCompliance.sol\":747:823  owner() == msg.sender || (_tokenBound == address(0) && msg.sender == _token) */\n    tag_97:\n        /* \"Tokeny Project/Compliance/modular/ModularCompliance.sol\":739:865  require(owner() == msg.sender || (_tokenBound == address(0) && msg.sender == _token),... */\n      tag_99\n      jumpi\n      mload(0x40)\n      0x08c379a000000000000000000000000000000000000000000000000000000000\n      dup2\n      mstore\n      0x04\n      add\n      tag_100\n      swap1\n      tag_101\n      jump\t// in\n    tag_100:\n      mload(0x40)\n      dup1\n      swap2\n      sub\n      swap1\n      revert\n    tag_99:\n        /* \"Tokeny Project/Compliance/modular/ModularCompliance.sol\":902:903  0 */\n      0x00\n        /* \"Tokeny Project/Compliance/modular/ModularCompliance.sol\":884:904  _token != address(0) */\n      0xffffffffffffffffffffffffffffffffffffffff\n      and\n        /* \"Tokeny Project/Compliance/modular/ModularCompliance.sol\":884:890  _token */\n      dup2\n        /* \"Tokeny Project/Compliance/modular/ModularCompliance.sol\":884:904  _token != address(0) */\n      0xffffffffffffffffffffffffffffffffffffffff\n      and\n      sub\n        /* \"Tokeny Project/Compliance/modular/ModularCompliance.sol\":876:940  require(_token != address(0), \"invalid argument - zero address\") */\n      tag_102\n      jumpi\n      mload(0x40)\n      0x08c379a000000000000000000000000000000000000000000000000000000000\n      dup2\n      mstore\n      0x04\n      add\n      tag_103\n      swap1\n      tag_83\n      jump\t// in\n    tag_103:\n      mload(0x40)\n      dup1\n      swap2\n      sub\n      swap1\n      revert\n    tag_102:\n        /* \"Tokeny Project/Compliance/modular/ModularCompliance.sol\":965:971  _token */\n      dup1\n        /* \"Tokeny Project/Compliance/modular/ModularCompliance.sol\":951:962  _tokenBound */\n      0x65\n      0x00\n        /* \"Tokeny Project/Compliance/modular/ModularCompliance.sol\":951:971  _tokenBound = _token */\n      0x0100\n      exp\n      dup2\n      sload\n      dup2\n      0xffffffffffffffffffffffffffffffffffffffff\n      mul\n      not\n      and\n      swap1\n      dup4\n      0xffffffffffffffffffffffffffffffffffffffff\n      and\n      mul\n      or\n      swap1\n      sstore\n      pop\n        /* \"Tokeny Project/Compliance/modular/ModularCompliance.sol\":1076:1094  TokenBound(_token) */\n      0x2de35142b19ed5a07796cf30791959c592018f70b1d2d7c460eef8ffe713692b\n        /* \"Tokeny Project/Compliance/modular/ModularCompliance.sol\":1087:1093  _token */\n      dup2\n        /* \"Tokeny Project/Compliance/modular/ModularCompliance.sol\":1076:1094  TokenBound(_token) */\n      mload(0x40)\n      tag_104\n      swap2\n      swap1\n      tag_39\n      jump\t// in\n    tag_104:\n      mload(0x40)\n      dup1\n      swap2\n      sub\n      swap1\n      log1\n        /* \"Tokeny Project/Compliance/modular/ModularCompliance.sol\":675:1102  function bindToken(address _token) external override {... */\n      pop\n      jump\t// out\n        /* \"Tokeny Project/Compliance/modular/ModularCompliance.sol\":1110:1479  function unbindToken(address _token) external override {... */\n    tag_31:\n        /* \"Tokeny Project/Compliance/modular/ModularCompliance.sol\":1195:1205  msg.sender */\n      caller\n        /* \"Tokeny Project/Compliance/modular/ModularCompliance.sol\":1184:1205  owner() == msg.sender */\n      0xffffffffffffffffffffffffffffffffffffffff\n      and\n        /* \"Tokeny Project/Compliance/modular/ModularCompliance.sol\":1184:1191  owner() */\n      tag_106\n        /* \"Tokeny Project/Compliance/modular/ModularCompliance.sol\":1184:1189  owner */\n      tag_50\n        /* \"Tokeny Project/Compliance/modular/ModularCompliance.sol\":1184:1191  owner() */\n      jump\t// in\n    tag_106:\n        /* \"Tokeny Project/Compliance/modular/ModularCompliance.sol\":1184:1205  owner() == msg.sender */\n      0xffffffffffffffffffffffffffffffffffffffff\n      and\n      eq\n        /* \"Tokeny Project/Compliance/modular/ModularCompliance.sol\":1184:1229  owner() == msg.sender || msg.sender == _token */\n      dup1\n      tag_107\n      jumpi\n      pop\n        /* \"Tokeny Project/Compliance/modular/ModularCompliance.sol\":1223:1229  _token */\n      dup1\n        /* \"Tokeny Project/Compliance/modular/ModularCompliance.sol\":1209:1229  msg.sender == _token */\n      0xffffffffffffffffffffffffffffffffffffffff\n      and\n        /* \"Tokeny Project/Compliance/modular/ModularCompliance.sol\":1209:1219  msg.sender */\n      caller\n        /* \"Tokeny Project/Compliance/modular/ModularCompliance.sol\":1209:1229  msg.sender == _token */\n      0xffffffffffffffffffffffffffffffffffffffff\n      and\n      eq\n        /* \"Tokeny Project/Compliance/modular/ModularCompliance.sol\":1184:1229  owner() == msg.sender || msg.sender == _token */\n    tag_107:\n        /* \"Tokeny Project/Compliance/modular/ModularCompliance.sol\":1176:1263  require(owner() == msg.sender || msg.sender == _token , \"only owner or token can call\") */\n      tag_108\n      jumpi\n      mload(0x40)\n      0x08c379a000000000000000000000000000000000000000000000000000000000\n      dup2\n      mstore\n      0x04\n      add\n      tag_109\n      swap1\n      tag_101\n      jump\t// in\n    tag_109:\n      mload(0x40)\n      dup1\n      swap2\n      sub\n      swap1\n      revert\n    tag_108:\n        /* \"Tokeny Project/Compliance/modular/ModularCompliance.sol\":1292:1303  _tokenBound */\n      0x65\n      0x00\n      swap1\n      sload\n      swap1\n      0x0100\n      exp\n      swap1\n      div\n      0xffffffffffffffffffffffffffffffffffffffff\n      and\n        /* \"Tokeny Project/Compliance/modular/ModularCompliance.sol\":1282:1303  _token == _tokenBound */\n      0xffffffffffffffffffffffffffffffffffffffff\n      and\n        /* \"Tokeny Project/Compliance/modular/ModularCompliance.sol\":1282:1288  _token */\n      dup2\n        /* \"Tokeny Project/Compliance/modular/ModularCompliance.sol\":1282:1303  _token == _tokenBound */\n      0xffffffffffffffffffffffffffffffffffffffff\n      and\n      eq\n        /* \"Tokeny Project/Compliance/modular/ModularCompliance.sol\":1274:1331  require(_token == _tokenBound, \"This token is not bound\") */\n      tag_110\n      jumpi\n      mload(0x40)\n      0x08c379a000000000000000000000000000000000000000000000000000000000\n      dup2\n      mstore\n      0x04\n      add\n      tag_111\n      swap1\n      tag_112\n      jump\t// in\n    tag_111:\n      mload(0x40)\n      dup1\n      swap2\n      sub\n      swap1\n      revert\n    tag_110:\n        /* \"Tokeny Project/Compliance/modular/ModularCompliance.sol\":1368:1369  0 */\n      0x00\n        /* \"Tokeny Project/Compliance/modular/ModularCompliance.sol\":1350:1370  _token != address(0) */\n      0xffffffffffffffffffffffffffffffffffffffff\n      and\n        /* \"Tokeny Project/Compliance/modular/ModularCompliance.sol\":1350:1356  _token */\n      dup2\n        /* \"Tokeny Project/Compliance/modular/ModularCompliance.sol\":1350:1370  _token != address(0) */\n      0xffffffffffffffffffffffffffffffffffffffff\n      and\n      sub\n        /* \"Tokeny Project/Compliance/modular/ModularCompliance.sol\":1342:1406  require(_token != address(0), \"invalid argument - zero address\") */\n      tag_113\n      jumpi\n      mload(0x40)\n      0x08c379a000000000000000000000000000000000000000000000000000000000\n      dup2\n      mstore\n      0x04\n      add\n      tag_114\n      swap1\n      tag_83\n      jump\t// in\n    tag_114:\n      mload(0x40)\n      dup1\n      swap2\n      sub\n      swap1\n      revert\n    tag_113:\n        /* \"Tokeny Project/Compliance/modular/ModularCompliance.sol\":1424:1435  _tokenBound */\n      0x65\n      0x00\n        /* \"Tokeny Project/Compliance/modular/ModularCompliance.sol\":1417:1435  delete _tokenBound */\n      0x0100\n      exp\n      dup2\n      sload\n      swap1\n      0xffffffffffffffffffffffffffffffffffffffff\n      mul\n      not\n      and\n      swap1\n      sstore\n        /* \"Tokeny Project/Compliance/modular/ModularCompliance.sol\":1451:1471  TokenUnbound(_token) */\n      0x28a4ca7134a3b3f9aff286e79ad3daadb4a06d1b43d037a3a98bdc074edd9b7a\n        /* \"Tokeny Project/Compliance/modular/ModularCompliance.sol\":1464:1470  _token */\n      dup2\n        /* \"Tokeny Project/Compliance/modular/ModularCompliance.sol\":1451:1471  TokenUnbound(_token) */\n      mload(0x40)\n      tag_115\n      swap2\n      swap1\n      tag_39\n      jump\t// in\n    tag_115:\n      mload(0x40)\n      dup1\n      swap2\n      sub\n      swap1\n      log1\n        /* \"Tokeny Project/Compliance/modular/ModularCompliance.sol\":1110:1479  function unbindToken(address _token) external override {... */\n      pop\n      jump\t// out\n        /* \"Tokeny Project/Compliance/modular/ModularCompliance.sol\":3090:3477  function created(address _to, uint256 _value) external onlyToken override {... */\n    tag_35:\n        /* \"Tokeny Project/Compliance/modular/ModularCompliance.sol\":483:494  _tokenBound */\n      0x65\n      0x00\n      swap1\n      sload\n      swap1\n      0x0100\n      exp\n      swap1\n      div\n      0xffffffffffffffffffffffffffffffffffffffff\n      and\n        /* \"Tokeny Project/Compliance/modular/ModularCompliance.sol\":469:494  msg.sender == _tokenBound */\n      0xffffffffffffffffffffffffffffffffffffffff\n      and\n        /* \"Tokeny Project/Compliance/modular/ModularCompliance.sol\":469:479  msg.sender */\n      caller\n        /* \"Tokeny Project/Compliance/modular/ModularCompliance.sol\":469:494  msg.sender == _tokenBound */\n      0xffffffffffffffffffffffffffffffffffffffff\n      and\n      eq\n        /* \"Tokeny Project/Compliance/modular/ModularCompliance.sol\":461:567  require(msg.sender == _tokenBound, \"error : this address is not a token bound to the compliance contract\") */\n      tag_117\n      jumpi\n      mload(0x40)\n      0x08c379a000000000000000000000000000000000000000000000000000000000\n      dup2\n      mstore\n      0x04\n      add\n      tag_118\n      swap1\n      tag_119\n      jump\t// in\n    tag_118:\n      mload(0x40)\n      dup1\n      swap2\n      sub\n      swap1\n      revert\n    tag_117:\n        /* \"Tokeny Project/Compliance/modular/ModularCompliance.sol\":3198:3199  0 */\n      0x00\n        /* \"Tokeny Project/Compliance/modular/ModularCompliance.sol\":3183:3200  _to != address(0) */\n      0xffffffffffffffffffffffffffffffffffffffff\n      and\n        /* \"Tokeny Project/Compliance/modular/ModularCompliance.sol\":3183:3186  _to */\n      dup3\n        /* \"Tokeny Project/Compliance/modular/ModularCompliance.sol\":3183:3200  _to != address(0) */\n      0xffffffffffffffffffffffffffffffffffffffff\n      and\n      sub\n        /* \"Tokeny Project/Compliance/modular/ModularCompliance.sol\":3175:3236  require(_to != address(0), \"invalid argument - zero address\") */\n      tag_121\n      jumpi\n      mload(0x40)\n      0x08c379a000000000000000000000000000000000000000000000000000000000\n      dup2\n      mstore\n      0x04\n      add\n      tag_122\n      swap1\n      tag_83\n      jump\t// in\n    tag_122:\n      mload(0x40)\n      dup1\n      swap2\n      sub\n      swap1\n      revert\n    tag_121:\n        /* \"Tokeny Project/Compliance/modular/ModularCompliance.sol\":3264:3265  0 */\n      0x00\n        /* \"Tokeny Project/Compliance/modular/ModularCompliance.sol\":3255:3261  _value */\n      dup2\n        /* \"Tokeny Project/Compliance/modular/ModularCompliance.sol\":3255:3265  _value > 0 */\n      gt\n        /* \"Tokeny Project/Compliance/modular/ModularCompliance.sol\":3247:3302  require(_value > 0, \"invalid argument - no value mint\") */\n      tag_123\n      jumpi\n      mload(0x40)\n      0x08c379a000000000000000000000000000000000000000000000000000000000\n      dup2\n      mstore\n      0x04\n      add\n      tag_124\n      swap1\n      tag_125\n      jump\t// in\n    tag_124:\n      mload(0x40)\n      dup1\n      swap2\n      sub\n      swap1\n      revert\n    tag_123:\n        /* \"Tokeny Project/Compliance/modular/ModularCompliance.sol\":3313:3327  uint256 length */\n      0x00\n        /* \"Tokeny Project/Compliance/modular/ModularCompliance.sol\":3330:3338  _modules */\n      0x66\n        /* \"Tokeny Project/Compliance/modular/ModularCompliance.sol\":3330:3345  _modules.length */\n      dup1\n      sload\n      swap1\n      pop\n        /* \"Tokeny Project/Compliance/modular/ModularCompliance.sol\":3313:3345  uint256 length = _modules.length */\n      swap1\n      pop\n        /* \"Tokeny Project/Compliance/modular/ModularCompliance.sol\":3361:3370  uint256 i */\n      0x00\n        /* \"Tokeny Project/Compliance/modular/ModularCompliance.sol\":3356:3470  for (uint256 i = 0; i < length; i++) {... */\n    tag_126:\n        /* \"Tokeny Project/Compliance/modular/ModularCompliance.sol\":3380:3386  length */\n      dup2\n        /* \"Tokeny Project/Compliance/modular/ModularCompliance.sol\":3376:3377  i */\n      dup2\n        /* \"Tokeny Project/Compliance/modular/ModularCompliance.sol\":3376:3386  i < length */\n      lt\n        /* \"Tokeny Project/Compliance/modular/ModularCompliance.sol\":3356:3470  for (uint256 i = 0; i < length; i++) {... */\n      iszero\n      tag_127\n      jumpi\n        /* \"Tokeny Project/Compliance/modular/ModularCompliance.sol\":3416:3424  _modules */\n      0x66\n        /* \"Tokeny Project/Compliance/modular/ModularCompliance.sol\":3425:3426  i */\n      dup2\n        /* \"Tokeny Project/Compliance/modular/ModularCompliance.sol\":3416:3427  _modules[i] */\n      dup2\n      sload\n      dup2\n      lt\n      tag_129\n      jumpi\n      tag_130\n      tag_131\n      jump\t// in\n    tag_130:\n    tag_129:\n      swap1\n      0x00\n      mstore\n      keccak256(0x00, 0x20)\n      add\n      0x00\n      swap1\n      sload\n      swap1\n      0x0100\n      exp\n      swap1\n      div\n      0xffffffffffffffffffffffffffffffffffffffff\n      and\n        /* \"Tokeny Project/Compliance/modular/ModularCompliance.sol\":3408:3445  IModule(_modules[i]).moduleMintAction */\n      0xffffffffffffffffffffffffffffffffffffffff\n      and\n      0xf104a8c9\n        /* \"Tokeny Project/Compliance/modular/ModularCompliance.sol\":3446:3449  _to */\n      dup6\n        /* \"Tokeny Project/Compliance/modular/ModularCompliance.sol\":3451:3457  _value */\n      dup6\n        /* \"Tokeny Project/Compliance/modular/ModularCompliance.sol\":3408:3458  IModule(_modules[i]).moduleMintAction(_to, _value) */\n      mload(0x40)\n      dup4\n      0xffffffff\n      and\n      0xe0\n      shl\n      dup2\n      mstore\n      0x04\n      add\n      tag_133\n      swap3\n      swap2\n      swap1\n      tag_134\n      jump\t// in\n    tag_133:\n      0x00\n      mload(0x40)\n      dup1\n      dup4\n      sub\n      dup2\n      0x00\n      dup8\n      dup1\n      extcodesize\n      iszero\n      dup1\n      iszero\n      tag_135\n      jumpi\n      0x00\n      dup1\n      revert\n    tag_135:\n      pop\n      gas\n      call\n      iszero\n      dup1\n      iszero\n      tag_137\n      jumpi\n      returndatasize\n      0x00\n      dup1\n      returndatacopy\n      revert(0x00, returndatasize)\n    tag_137:\n      pop\n      pop\n      pop\n      pop\n        /* \"Tokeny Project/Compliance/modular/ModularCompliance.sol\":3388:3391  i++ */\n      dup1\n      dup1\n      tag_138\n      swap1\n      tag_139\n      jump\t// in\n    tag_138:\n      swap2\n      pop\n      pop\n        /* \"Tokeny Project/Compliance/modular/ModularCompliance.sol\":3356:3470  for (uint256 i = 0; i < length; i++) {... */\n      jump(tag_126)\n    tag_127:\n      pop\n        /* \"Tokeny Project/Compliance/modular/ModularCompliance.sol\":3164:3477  {... */\n      pop\n        /* \"Tokeny Project/Compliance/modular/ModularCompliance.sol\":3090:3477  function created(address _to, uint256 _value) external onlyToken override {... */\n      pop\n      pop\n      jump\t// out\n        /* \"Tokeny Project/Compliance/modular/ModularCompliance.sol\":4887:4990  function getTokenBound() external view override returns (address) {... */\n    tag_37:\n        /* \"Tokeny Project/Compliance/modular/ModularCompliance.sol\":4944:4951  address */\n      0x00\n        /* \"Tokeny Project/Compliance/modular/ModularCompliance.sol\":4971:4982  _tokenBound */\n      0x65\n      0x00\n      swap1\n      sload\n      swap1\n      0x0100\n      exp\n      swap1\n      div\n      0xffffffffffffffffffffffffffffffffffffffff\n      and\n        /* \"Tokeny Project/Compliance/modular/ModularCompliance.sol\":4964:4982  return _tokenBound */\n      swap1\n      pop\n        /* \"Tokeny Project/Compliance/modular/ModularCompliance.sol\":4887:4990  function getTokenBound() external view override returns (address) {... */\n      swap1\n      jump\t// out\n        /* \"@openzeppelin/contracts-upgradeable/access/OwnableUpgradeable.sol\":2064:2165  function renounceOwnership() public virtual onlyOwner {... */\n    tag_41:\n        /* \"@openzeppelin/contracts-upgradeable/access/OwnableUpgradeable.sol\":1334:1347  _checkOwner() */\n      tag_142\n        /* \"@openzeppelin/contracts-upgradeable/access/OwnableUpgradeable.sol\":1334:1345  _checkOwner */\n      tag_79\n        /* \"@openzeppelin/contracts-upgradeable/access/OwnableUpgradeable.sol\":1334:1347  _checkOwner() */\n      jump\t// in\n    tag_142:\n        /* \"@openzeppelin/contracts-upgradeable/access/OwnableUpgradeable.sol\":2128:2158  _transferOwnership(address(0)) */\n      tag_144\n        /* \"@openzeppelin/contracts-upgradeable/access/OwnableUpgradeable.sol\":2155:2156  0 */\n      0x00\n        /* \"@openzeppelin/contracts-upgradeable/access/OwnableUpgradeable.sol\":2128:2146  _transferOwnership */\n      tag_145\n        /* \"@openzeppelin/contracts-upgradeable/access/OwnableUpgradeable.sol\":2128:2158  _transferOwnership(address(0)) */\n      jump\t// in\n    tag_144:\n        /* \"@openzeppelin/contracts-upgradeable/access/OwnableUpgradeable.sol\":2064:2165  function renounceOwnership() public virtual onlyOwner {... */\n      jump\t// out\n        /* \"Tokeny Project/Compliance/modular/ModularCompliance.sol\":2601:3082  function transferred(address _from, address _to, uint256 _value) external onlyToken override {... */\n    tag_45:\n        /* \"Tokeny Project/Compliance/modular/ModularCompliance.sol\":483:494  _tokenBound */\n      0x65\n      0x00\n      swap1\n      sload\n      swap1\n      0x0100\n      exp\n      swap1\n      div\n      0xffffffffffffffffffffffffffffffffffffffff\n      and\n        /* \"Tokeny Project/Compliance/modular/ModularCompliance.sol\":469:494  msg.sender == _tokenBound */\n      0xffffffffffffffffffffffffffffffffffffffff\n      and\n        /* \"Tokeny Project/Compliance/modular/ModularCompliance.sol\":469:479  msg.sender */\n      caller\n        /* \"Tokeny Project/Compliance/modular/ModularCompliance.sol\":469:494  msg.sender == _tokenBound */\n      0xffffffffffffffffffffffffffffffffffffffff\n      and\n      eq\n        /* \"Tokeny Project/Compliance/modular/ModularCompliance.sol\":461:567  require(msg.sender == _tokenBound, \"error : this address is not a token bound to the compliance contract\") */\n      tag_147\n      jumpi\n      mload(0x40)\n      0x08c379a000000000000000000000000000000000000000000000000000000000\n      dup2\n      mstore\n      0x04\n      add\n      tag_148\n      swap1\n      tag_119\n      jump\t// in\n    tag_148:\n      mload(0x40)\n      dup1\n      swap2\n      sub\n      swap1\n      revert\n    tag_147:\n        /* \"Tokeny Project/Compliance/modular/ModularCompliance.sol\":2744:2745  0 */\n      0x00\n        /* \"Tokeny Project/Compliance/modular/ModularCompliance.sol\":2727:2746  _from != address(0) */\n      0xffffffffffffffffffffffffffffffffffffffff\n      and\n        /* \"Tokeny Project/Compliance/modular/ModularCompliance.sol\":2727:2732  _from */\n      dup4\n        /* \"Tokeny Project/Compliance/modular/ModularCompliance.sol\":2727:2746  _from != address(0) */\n      0xffffffffffffffffffffffffffffffffffffffff\n      and\n      eq\n      iszero\n        /* \"Tokeny Project/Compliance/modular/ModularCompliance.sol\":2727:2780  _from != address(0)... */\n      dup1\n      iszero\n      tag_150\n      jumpi\n      pop\n        /* \"Tokeny Project/Compliance/modular/ModularCompliance.sol\":2778:2779  0 */\n      0x00\n        /* \"Tokeny Project/Compliance/modular/ModularCompliance.sol\":2763:2780  _to != address(0) */\n      0xffffffffffffffffffffffffffffffffffffffff\n      and\n        /* \"Tokeny Project/Compliance/modular/ModularCompliance.sol\":2763:2766  _to */\n      dup3\n        /* \"Tokeny Project/Compliance/modular/ModularCompliance.sol\":2763:2780  _to != address(0) */\n      0xffffffffffffffffffffffffffffffffffffffff\n      and\n      eq\n      iszero\n        /* \"Tokeny Project/Compliance/modular/ModularCompliance.sol\":2727:2780  _from != address(0)... */\n    tag_150:\n        /* \"Tokeny Project/Compliance/modular/ModularCompliance.sol\":2705:2826  require(... */\n      tag_151\n      jumpi\n      mload(0x40)\n      0x08c379a000000000000000000000000000000000000000000000000000000000\n      dup2\n      mstore\n      0x04\n      add\n      tag_152\n      swap1\n      tag_83\n      jump\t// in\n    tag_152:\n      mload(0x40)\n      dup1\n      swap2\n      sub\n      swap1\n      revert\n    tag_151:\n        /* \"Tokeny Project/Compliance/modular/ModularCompliance.sol\":2854:2855  0 */\n      0x00\n        /* \"Tokeny Project/Compliance/modular/ModularCompliance.sol\":2845:2851  _value */\n      dup2\n        /* \"Tokeny Project/Compliance/modular/ModularCompliance.sol\":2845:2855  _value > 0 */\n      gt\n        /* \"Tokeny Project/Compliance/modular/ModularCompliance.sol\":2837:2896  require(_value > 0, \"invalid argument - no value transfer\") */\n      tag_153\n      jumpi\n      mload(0x40)\n      0x08c379a000000000000000000000000000000000000000000000000000000000\n      dup2\n      mstore\n      0x04\n      add\n      tag_154\n      swap1\n      tag_155\n      jump\t// in\n    tag_154:\n      mload(0x40)\n      dup1\n      swap2\n      sub\n      swap1\n      revert\n    tag_153:\n        /* \"Tokeny Project/Compliance/modular/ModularCompliance.sol\":2907:2921  uint256 length */\n      0x00\n        /* \"Tokeny Project/Compliance/modular/ModularCompliance.sol\":2924:2932  _modules */\n      0x66\n        /* \"Tokeny Project/Compliance/modular/ModularCompliance.sol\":2924:2939  _modules.length */\n      dup1\n      sload\n      swap1\n      pop\n        /* \"Tokeny Project/Compliance/modular/ModularCompliance.sol\":2907:2939  uint256 length = _modules.length */\n      swap1\n      pop\n        /* \"Tokeny Project/Compliance/modular/ModularCompliance.sol\":2955:2964  uint256 i */\n      0x00\n        /* \"Tokeny Project/Compliance/modular/ModularCompliance.sol\":2950:3075  for (uint256 i = 0; i < length; i++) {... */\n    tag_156:\n        /* \"Tokeny Project/Compliance/modular/ModularCompliance.sol\":2974:2980  length */\n      dup2\n        /* \"Tokeny Project/Compliance/modular/ModularCompliance.sol\":2970:2971  i */\n      dup2\n        /* \"Tokeny Project/Compliance/modular/ModularCompliance.sol\":2970:2980  i < length */\n      lt\n        /* \"Tokeny Project/Compliance/modular/ModularCompliance.sol\":2950:3075  for (uint256 i = 0; i < length; i++) {... */\n      iszero\n      tag_157\n      jumpi\n        /* \"Tokeny Project/Compliance/modular/ModularCompliance.sol\":3010:3018  _modules */\n      0x66\n        /* \"Tokeny Project/Compliance/modular/ModularCompliance.sol\":3019:3020  i */\n      dup2\n        /* \"Tokeny Project/Compliance/modular/ModularCompliance.sol\":3010:3021  _modules[i] */\n      dup2\n      sload\n      dup2\n      lt\n      tag_159\n      jumpi\n      tag_160\n      tag_131\n      jump\t// in\n    tag_160:\n    tag_159:\n      swap1\n      0x00\n      mstore\n      keccak256(0x00, 0x20)\n      add\n      0x00\n      swap1\n      sload\n      swap1\n      0x0100\n      exp\n      swap1\n      div\n      0xffffffffffffffffffffffffffffffffffffffff\n      and\n        /* \"Tokeny Project/Compliance/modular/ModularCompliance.sol\":3002:3043  IModule(_modules[i]).moduleTransferAction */\n      0xffffffffffffffffffffffffffffffffffffffff\n      and\n      0x2cb7e1ec\n        /* \"Tokeny Project/Compliance/modular/ModularCompliance.sol\":3044:3049  _from */\n      dup7\n        /* \"Tokeny Project/Compliance/modular/ModularCompliance.sol\":3051:3054  _to */\n      dup7\n        /* \"Tokeny Project/Compliance/modular/ModularCompliance.sol\":3056:3062  _value */\n      dup7\n        /* \"Tokeny Project/Compliance/modular/ModularCompliance.sol\":3002:3063  IModule(_modules[i]).moduleTransferAction(_from, _to, _value) */\n      mload(0x40)\n      dup5\n      0xffffffff\n      and\n      0xe0\n      shl\n      dup2\n      mstore\n      0x04\n      add\n      tag_162\n      swap4\n      swap3\n      swap2\n      swap1\n      tag_163\n      jump\t// in\n    tag_162:\n      0x00\n      mload(0x40)\n      dup1\n      dup4\n      sub\n      dup2\n      0x00\n      dup8\n      dup1\n      extcodesize\n      iszero\n      dup1\n      iszero\n      tag_164\n      jumpi\n      0x00\n      dup1\n      revert\n    tag_164:\n      pop\n      gas\n      call\n      iszero\n      dup1\n      iszero\n      tag_166\n      jumpi\n      returndatasize\n      0x00\n      dup1\n      returndatacopy\n      revert(0x00, returndatasize)\n    tag_166:\n      pop\n      pop\n      pop\n      pop\n        /* \"Tokeny Project/Compliance/modular/ModularCompliance.sol\":2982:2985  i++ */\n      dup1\n      dup1\n      tag_167\n      swap1\n      tag_139\n      jump\t// in\n    tag_167:\n      swap2\n      pop\n      pop\n        /* \"Tokeny Project/Compliance/modular/ModularCompliance.sol\":2950:3075  for (uint256 i = 0; i < length; i++) {... */\n      jump(tag_156)\n    tag_157:\n      pop\n        /* \"Tokeny Project/Compliance/modular/ModularCompliance.sol\":2694:3082  {... */\n      pop\n        /* \"Tokeny Project/Compliance/modular/ModularCompliance.sol\":2601:3082  function transferred(address _from, address _to, uint256 _value) external onlyToken override {... */\n      pop\n      pop\n      pop\n      jump\t// out\n        /* \"Tokeny Project/Compliance/modular/ModularCompliance.sol\":3485:3880  function destroyed(address _from, uint256 _value) external onlyToken override {... */\n    tag_48:\n        /* \"Tokeny Project/Compliance/modular/ModularCompliance.sol\":483:494  _tokenBound */\n      0x65\n      0x00\n      swap1\n      sload\n      swap1\n      0x0100\n      exp\n      swap1\n      div\n      0xffffffffffffffffffffffffffffffffffffffff\n      and\n        /* \"Tokeny Project/Compliance/modular/ModularCompliance.sol\":469:494  msg.sender == _tokenBound */\n      0xffffffffffffffffffffffffffffffffffffffff\n      and\n        /* \"Tokeny Project/Compliance/modular/ModularCompliance.sol\":469:479  msg.sender */\n      caller\n        /* \"Tokeny Project/Compliance/modular/ModularCompliance.sol\":469:494  msg.sender == _tokenBound */\n      0xffffffffffffffffffffffffffffffffffffffff\n      and\n      eq\n        /* \"Tokeny Project/Compliance/modular/ModularCompliance.sol\":461:567  require(msg.sender == _tokenBound, \"error : this address is not a token bound to the compliance contract\") */\n      tag_169\n      jumpi\n      mload(0x40)\n      0x08c379a000000000000000000000000000000000000000000000000000000000\n      dup2\n      mstore\n      0x04\n      add\n      tag_170\n      swap1\n      tag_119\n      jump\t// in\n    tag_170:\n      mload(0x40)\n      dup1\n      swap2\n      sub\n      swap1\n      revert\n    tag_169:\n        /* \"Tokeny Project/Compliance/modular/ModularCompliance.sol\":3599:3600  0 */\n      0x00\n        /* \"Tokeny Project/Compliance/modular/ModularCompliance.sol\":3582:3601  _from != address(0) */\n      0xffffffffffffffffffffffffffffffffffffffff\n      and\n        /* \"Tokeny Project/Compliance/modular/ModularCompliance.sol\":3582:3587  _from */\n      dup3\n        /* \"Tokeny Project/Compliance/modular/ModularCompliance.sol\":3582:3601  _from != address(0) */\n      0xffffffffffffffffffffffffffffffffffffffff\n      and\n      sub\n        /* \"Tokeny Project/Compliance/modular/ModularCompliance.sol\":3574:3637  require(_from != address(0), \"invalid argument - zero address\") */\n      tag_172\n      jumpi\n      mload(0x40)\n      0x08c379a000000000000000000000000000000000000000000000000000000000\n      dup2\n      mstore\n      0x04\n      add\n      tag_173\n      swap1\n      tag_83\n      jump\t// in\n    tag_173:\n      mload(0x40)\n      dup1\n      swap2\n      sub\n      swap1\n      revert\n    tag_172:\n        /* \"Tokeny Project/Compliance/modular/ModularCompliance.sol\":3665:3666  0 */\n      0x00\n        /* \"Tokeny Project/Compliance/modular/ModularCompliance.sol\":3656:3662  _value */\n      dup2\n        /* \"Tokeny Project/Compliance/modular/ModularCompliance.sol\":3656:3666  _value > 0 */\n      gt\n        /* \"Tokeny Project/Compliance/modular/ModularCompliance.sol\":3648:3703  require(_value > 0, \"invalid argument - no value burn\") */\n      tag_174\n      jumpi\n      mload(0x40)\n      0x08c379a000000000000000000000000000000000000000000000000000000000\n      dup2\n      mstore\n      0x04\n      add\n      tag_175\n      swap1\n      tag_176\n      jump\t// in\n    tag_175:\n      mload(0x40)\n      dup1\n      swap2\n      sub\n      swap1\n      revert\n    tag_174:\n        /* \"Tokeny Project/Compliance/modular/ModularCompliance.sol\":3714:3728  uint256 length */\n      0x00\n        /* \"Tokeny Project/Compliance/modular/ModularCompliance.sol\":3731:3739  _modules */\n      0x66\n        /* \"Tokeny Project/Compliance/modular/ModularCompliance.sol\":3731:3746  _modules.length */\n      dup1\n      sload\n      swap1\n      pop\n        /* \"Tokeny Project/Compliance/modular/ModularCompliance.sol\":3714:3746  uint256 length = _modules.length */\n      swap1\n      pop\n        /* \"Tokeny Project/Compliance/modular/ModularCompliance.sol\":3762:3771  uint256 i */\n      0x00\n        /* \"Tokeny Project/Compliance/modular/ModularCompliance.sol\":3757:3873  for (uint256 i = 0; i < length; i++) {... */\n    tag_177:\n        /* \"Tokeny Project/Compliance/modular/ModularCompliance.sol\":3781:3787  length */\n      dup2\n        /* \"Tokeny Project/Compliance/modular/ModularCompliance.sol\":3777:3778  i */\n      dup2\n        /* \"Tokeny Project/Compliance/modular/ModularCompliance.sol\":3777:3787  i < length */\n      lt\n        /* \"Tokeny Project/Compliance/modular/ModularCompliance.sol\":3757:3873  for (uint256 i = 0; i < length; i++) {... */\n      iszero\n      tag_178\n      jumpi\n        /* \"Tokeny Project/Compliance/modular/ModularCompliance.sol\":3817:3825  _modules */\n      0x66\n        /* \"Tokeny Project/Compliance/modular/ModularCompliance.sol\":3826:3827  i */\n      dup2\n        /* \"Tokeny Project/Compliance/modular/ModularCompliance.sol\":3817:3828  _modules[i] */\n      dup2\n      sload\n      dup2\n      lt\n      tag_180\n      jumpi\n      tag_181\n      tag_131\n      jump\t// in\n    tag_181:\n    tag_180:\n      swap1\n      0x00\n      mstore\n      keccak256(0x00, 0x20)\n      add\n      0x00\n      swap1\n      sload\n      swap1\n      0x0100\n      exp\n      swap1\n      div\n      0xffffffffffffffffffffffffffffffffffffffff\n      and\n        /* \"Tokeny Project/Compliance/modular/ModularCompliance.sol\":3809:3846  IModule(_modules[i]).moduleBurnAction */\n      0xffffffffffffffffffffffffffffffffffffffff\n      and\n      0x372491a2\n        /* \"Tokeny Project/Compliance/modular/ModularCompliance.sol\":3847:3852  _from */\n      dup6\n        /* \"Tokeny Project/Compliance/modular/ModularCompliance.sol\":3854:3860  _value */\n      dup6\n        /* \"Tokeny Project/Compliance/modular/ModularCompliance.sol\":3809:3861  IModule(_modules[i]).moduleBurnAction(_from, _value) */\n      mload(0x40)\n      dup4\n      0xffffffff\n      and\n      0xe0\n      shl\n      dup2\n      mstore\n      0x04\n      add\n      tag_183\n      swap3\n      swap2\n      swap1\n      tag_134\n      jump\t// in\n    tag_183:\n      0x00\n      mload(0x40)\n      dup1\n      dup4\n      sub\n      dup2\n      0x00\n      dup8\n      dup1\n      extcodesize\n      iszero\n      dup1\n      iszero\n      tag_184\n      jumpi\n      0x00\n      dup1\n      revert\n    tag_184:\n      pop\n      gas\n      call\n      iszero\n      dup1\n      iszero\n      tag_186\n      jumpi\n      returndatasize\n      0x00\n      dup1\n      returndatacopy\n      revert(0x00, returndatasize)\n    tag_186:\n      pop\n      pop\n      pop\n      pop\n        /* \"Tokeny Project/Compliance/modular/ModularCompliance.sol\":3789:3792  i++ */\n      dup1\n      dup1\n      tag_187\n      swap1\n      tag_139\n      jump\t// in\n    tag_187:\n      swap2\n      pop\n      pop\n        /* \"Tokeny Project/Compliance/modular/ModularCompliance.sol\":3757:3873  for (uint256 i = 0; i < length; i++) {... */\n      jump(tag_177)\n    tag_178:\n      pop\n        /* \"Tokeny Project/Compliance/modular/ModularCompliance.sol\":3563:3880  {... */\n      pop\n        /* \"Tokeny Project/Compliance/modular/ModularCompliance.sol\":3485:3880  function destroyed(address _from, uint256 _value) external onlyToken override {... */\n      pop\n      pop\n      jump\t// out\n        /* \"@openzeppelin/contracts-upgradeable/access/OwnableUpgradeable.sol\":1441:1526  function owner() public view virtual returns (address) {... */\n    tag_50:\n        /* \"@openzeppelin/contracts-upgradeable/access/OwnableUpgradeable.sol\":1487:1494  address */\n      0x00\n        /* \"@openzeppelin/contracts-upgradeable/access/OwnableUpgradeable.sol\":1513:1519  _owner */\n      0x33\n      0x00\n      swap1\n      sload\n      swap1\n      0x0100\n      exp\n      swap1\n      div\n      0xffffffffffffffffffffffffffffffffffffffff\n      and\n        /* \"@openzeppelin/contracts-upgradeable/access/OwnableUpgradeable.sol\":1506:1519  return _owner */\n      swap1\n      pop\n        /* \"@openzeppelin/contracts-upgradeable/access/OwnableUpgradeable.sol\":1441:1526  function owner() public view virtual returns (address) {... */\n      swap1\n      jump\t// out\n        /* \"Tokeny Project/Compliance/modular/ModularCompliance.sol\":1950:2593  function removeModule(address _module) external override onlyOwner {... */\n    tag_54:\n        /* \"@openzeppelin/contracts-upgradeable/access/OwnableUpgradeable.sol\":1334:1347  _checkOwner() */\n      tag_190\n        /* \"@openzeppelin/contracts-upgradeable/access/OwnableUpgradeable.sol\":1334:1345  _checkOwner */\n      tag_79\n        /* \"@openzeppelin/contracts-upgradeable/access/OwnableUpgradeable.sol\":1334:1347  _checkOwner() */\n      jump\t// in\n    tag_190:\n        /* \"Tokeny Project/Compliance/modular/ModularCompliance.sol\":2055:2056  0 */\n      0x00\n        /* \"Tokeny Project/Compliance/modular/ModularCompliance.sol\":2036:2057  _module != address(0) */\n      0xffffffffffffffffffffffffffffffffffffffff\n      and\n        /* \"Tokeny Project/Compliance/modular/ModularCompliance.sol\":2036:2043  _module */\n      dup2\n        /* \"Tokeny Project/Compliance/modular/ModularCompliance.sol\":2036:2057  _module != address(0) */\n      0xffffffffffffffffffffffffffffffffffffffff\n      and\n      sub\n        /* \"Tokeny Project/Compliance/modular/ModularCompliance.sol\":2028:2093  require(_module != address(0), \"invalid argument - zero address\") */\n      tag_192\n      jumpi\n      mload(0x40)\n      0x08c379a000000000000000000000000000000000000000000000000000000000\n      dup2\n      mstore\n      0x04\n      add\n      tag_193\n      swap1\n      tag_83\n      jump\t// in\n    tag_193:\n      mload(0x40)\n      dup1\n      swap2\n      sub\n      swap1\n      revert\n    tag_192:\n        /* \"Tokeny Project/Compliance/modular/ModularCompliance.sol\":2112:2124  _moduleBound */\n      0x67\n        /* \"Tokeny Project/Compliance/modular/ModularCompliance.sol\":2112:2133  _moduleBound[_module] */\n      0x00\n        /* \"Tokeny Project/Compliance/modular/ModularCompliance.sol\":2125:2132  _module */\n      dup3\n        /* \"Tokeny Project/Compliance/modular/ModularCompliance.sol\":2112:2133  _moduleBound[_module] */\n      0xffffffffffffffffffffffffffffffffffffffff\n      and\n      0xffffffffffffffffffffffffffffffffffffffff\n      and\n      dup2\n      mstore\n      0x20\n      add\n      swap1\n      dup2\n      mstore\n      0x20\n      add\n      0x00\n      keccak256\n      0x00\n      swap1\n      sload\n      swap1\n      0x0100\n      exp\n      swap1\n      div\n      0xff\n      and\n        /* \"Tokeny Project/Compliance/modular/ModularCompliance.sol\":2104:2154  require(_moduleBound[_module], \"module not bound\") */\n      tag_194\n      jumpi\n      mload(0x40)\n      0x08c379a000000000000000000000000000000000000000000000000000000000\n      dup2\n      mstore\n      0x04\n      add\n      tag_195\n      swap1\n      tag_196\n      jump\t// in\n    tag_195:\n      mload(0x40)\n      dup1\n      swap2\n      sub\n      swap1\n      revert\n    tag_194:\n        /* \"Tokeny Project/Compliance/modular/ModularCompliance.sol\":2165:2179  uint256 length */\n      0x00\n        /* \"Tokeny Project/Compliance/modular/ModularCompliance.sol\":2182:2190  _modules */\n      0x66\n        /* \"Tokeny Project/Compliance/modular/ModularCompliance.sol\":2182:2197  _modules.length */\n      dup1\n      sload\n      swap1\n      pop\n        /* \"Tokeny Project/Compliance/modular/ModularCompliance.sol\":2165:2197  uint256 length = _modules.length */\n      swap1\n      pop\n        /* \"Tokeny Project/Compliance/modular/ModularCompliance.sol\":2213:2222  uint256 i */\n      0x00\n        /* \"Tokeny Project/Compliance/modular/ModularCompliance.sol\":2208:2586  for (uint256 i = 0; i < length; i++) {... */\n    tag_197:\n        /* \"Tokeny Project/Compliance/modular/ModularCompliance.sol\":2232:2238  length */\n      dup2\n        /* \"Tokeny Project/Compliance/modular/ModularCompliance.sol\":2228:2229  i */\n      dup2\n        /* \"Tokeny Project/Compliance/modular/ModularCompliance.sol\":2228:2238  i < length */\n      lt\n        /* \"Tokeny Project/Compliance/modular/ModularCompliance.sol\":2208:2586  for (uint256 i = 0; i < length; i++) {... */\n      iszero\n      tag_198\n      jumpi\n        /* \"Tokeny Project/Compliance/modular/ModularCompliance.sol\":2279:2286  _module */\n      dup3\n        /* \"Tokeny Project/Compliance/modular/ModularCompliance.sol\":2264:2286  _modules[i] == _module */\n      0xffffffffffffffffffffffffffffffffffffffff\n      and\n        /* \"Tokeny Project/Compliance/modular/ModularCompliance.sol\":2264:2272  _modules */\n      0x66\n        /* \"Tokeny Project/Compliance/modular/ModularCompliance.sol\":2273:2274  i */\n      dup3\n        /* \"Tokeny Project/Compliance/modular/ModularCompliance.sol\":2264:2275  _modules[i] */\n      dup2\n      sload\n      dup2\n      lt\n      tag_200\n      jumpi\n      tag_201\n      tag_131\n      jump\t// in\n    tag_201:\n    tag_200:\n      swap1\n      0x00\n      mstore\n      keccak256(0x00, 0x20)\n      add\n      0x00\n      swap1\n      sload\n      swap1\n      0x0100\n      exp\n      swap1\n      div\n      0xffffffffffffffffffffffffffffffffffffffff\n      and\n        /* \"Tokeny Project/Compliance/modular/ModularCompliance.sol\":2264:2286  _modules[i] == _module */\n      0xffffffffffffffffffffffffffffffffffffffff\n      and\n      sub\n        /* \"Tokeny Project/Compliance/modular/ModularCompliance.sol\":2260:2575  if (_modules[i] == _module) {... */\n      tag_203\n      jumpi\n        /* \"Tokeny Project/Compliance/modular/ModularCompliance.sol\":2315:2322  _module */\n      dup3\n        /* \"Tokeny Project/Compliance/modular/ModularCompliance.sol\":2307:2340  IModule(_module).unbindCompliance */\n      0xffffffffffffffffffffffffffffffffffffffff\n      and\n      0x0694a5fb\n        /* \"Tokeny Project/Compliance/modular/ModularCompliance.sol\":2349:2353  this */\n      address\n        /* \"Tokeny Project/Compliance/modular/ModularCompliance.sol\":2307:2355  IModule(_module).unbindCompliance(address(this)) */\n      mload(0x40)\n      dup3\n      0xffffffff\n      and\n      0xe0\n      shl\n      dup2\n      mstore\n      0x04\n      add\n      tag_204\n      swap2\n      swap1\n      tag_39\n      jump\t// in\n    tag_204:\n      0x00\n      mload(0x40)\n      dup1\n      dup4\n      sub\n      dup2\n      0x00\n      dup8\n      dup1\n      extcodesize\n      iszero\n      dup1\n      iszero\n      tag_205\n      jumpi\n      0x00\n      dup1\n      revert\n    tag_205:\n      pop\n      gas\n      call\n      iszero\n      dup1\n      iszero\n      tag_207\n      jumpi\n      returndatasize\n      0x00\n      dup1\n      returndatacopy\n      revert(0x00, returndatasize)\n    tag_207:\n      pop\n      pop\n      pop\n      pop\n        /* \"Tokeny Project/Compliance/modular/ModularCompliance.sol\":2388:2396  _modules */\n      0x66\n        /* \"Tokeny Project/Compliance/modular/ModularCompliance.sol\":2406:2407  1 */\n      0x01\n        /* \"Tokeny Project/Compliance/modular/ModularCompliance.sol\":2397:2403  length */\n      dup4\n        /* \"Tokeny Project/Compliance/modular/ModularCompliance.sol\":2397:2407  length - 1 */\n      tag_208\n      swap2\n      swap1\n      tag_209\n      jump\t// in\n    tag_208:\n        /* \"Tokeny Project/Compliance/modular/ModularCompliance.sol\":2388:2408  _modules[length - 1] */\n      dup2\n      sload\n      dup2\n      lt\n      tag_210\n      jumpi\n      tag_211\n      tag_131\n      jump\t// in\n    tag_211:\n    tag_210:\n      swap1\n      0x00\n      mstore\n      keccak256(0x00, 0x20)\n      add\n      0x00\n      swap1\n      sload\n      swap1\n      0x0100\n      exp\n      swap1\n      div\n      0xffffffffffffffffffffffffffffffffffffffff\n      and\n        /* \"Tokeny Project/Compliance/modular/ModularCompliance.sol\":2374:2382  _modules */\n      0x66\n        /* \"Tokeny Project/Compliance/modular/ModularCompliance.sol\":2383:2384  i */\n      dup3\n        /* \"Tokeny Project/Compliance/modular/ModularCompliance.sol\":2374:2385  _modules[i] */\n      dup2\n      sload\n      dup2\n      lt\n      tag_213\n      jumpi\n      tag_214\n      tag_131\n      jump\t// in\n    tag_214:\n    tag_213:\n      swap1\n      0x00\n      mstore\n      keccak256(0x00, 0x20)\n      add\n      0x00\n        /* \"Tokeny Project/Compliance/modular/ModularCompliance.sol\":2374:2408  _modules[i] = _modules[length - 1] */\n      0x0100\n      exp\n      dup2\n      sload\n      dup2\n      0xffffffffffffffffffffffffffffffffffffffff\n      mul\n      not\n      and\n      swap1\n      dup4\n      0xffffffffffffffffffffffffffffffffffffffff\n      and\n      mul\n      or\n      swap1\n      sstore\n      pop\n        /* \"Tokeny Project/Compliance/modular/ModularCompliance.sol\":2427:2435  _modules */\n      0x66\n        /* \"Tokeny Project/Compliance/modular/ModularCompliance.sol\":2427:2441  _modules.pop() */\n      dup1\n      sload\n      dup1\n      tag_216\n      jumpi\n      tag_217\n      tag_218\n      jump\t// in\n    tag_217:\n    tag_216:\n      0x01\n      swap1\n      sub\n      dup2\n      dup2\n      swap1\n      0x00\n      mstore\n      keccak256(0x00, 0x20)\n      add\n      exp(0x0100, 0x00)\n      dup2\n      sload\n      swap1\n      0xffffffffffffffffffffffffffffffffffffffff\n      mul\n      not\n      and\n      swap1\n      sstore\n      swap1\n      sstore\n        /* \"Tokeny Project/Compliance/modular/ModularCompliance.sol\":2484:2489  false */\n      0x00\n        /* \"Tokeny Project/Compliance/modular/ModularCompliance.sol\":2460:2472  _moduleBound */\n      0x67\n        /* \"Tokeny Project/Compliance/modular/ModularCompliance.sol\":2460:2481  _moduleBound[_module] */\n      0x00\n        /* \"Tokeny Project/Compliance/modular/ModularCompliance.sol\":2473:2480  _module */\n      dup6\n        /* \"Tokeny Project/Compliance/modular/ModularCompliance.sol\":2460:2481  _moduleBound[_module] */\n      0xffffffffffffffffffffffffffffffffffffffff\n      and\n      0xffffffffffffffffffffffffffffffffffffffff\n      and\n      dup2\n      mstore\n      0x20\n      add\n      swap1\n      dup2\n      mstore\n      0x20\n      add\n      0x00\n      keccak256\n      0x00\n        /* \"Tokeny Project/Compliance/modular/ModularCompliance.sol\":2460:2489  _moduleBound[_module] = false */\n      0x0100\n      exp\n      dup2\n      sload\n      dup2\n      0xff\n      mul\n      not\n      and\n      swap1\n      dup4\n      iszero\n      iszero\n      mul\n      or\n      swap1\n      sstore\n      pop\n        /* \"Tokeny Project/Compliance/modular/ModularCompliance.sol\":2527:2534  _module */\n      dup3\n        /* \"Tokeny Project/Compliance/modular/ModularCompliance.sol\":2513:2535  ModuleRemoved(_module) */\n      0xffffffffffffffffffffffffffffffffffffffff\n      and\n      0x0a1ee69f55c33d8467c69ca59ce2007a737a88603d75392972520bf67cb513b8\n      mload(0x40)\n      mload(0x40)\n      dup1\n      swap2\n      sub\n      swap1\n      log2\n        /* \"Tokeny Project/Compliance/modular/ModularCompliance.sol\":2554:2559  break */\n      jump(tag_198)\n        /* \"Tokeny Project/Compliance/modular/ModularCompliance.sol\":2260:2575  if (_modules[i] == _module) {... */\n    tag_203:\n        /* \"Tokeny Project/Compliance/modular/ModularCompliance.sol\":2240:2243  i++ */\n      dup1\n      dup1\n      tag_220\n      swap1\n      tag_139\n      jump\t// in\n    tag_220:\n      swap2\n      pop\n      pop\n        /* \"Tokeny Project/Compliance/modular/ModularCompliance.sol\":2208:2586  for (uint256 i = 0; i < length; i++) {... */\n      jump(tag_197)\n    tag_198:\n      pop\n        /* \"Tokeny Project/Compliance/modular/ModularCompliance.sol\":2017:2593  {... */\n      pop\n        /* \"Tokeny Project/Compliance/modular/ModularCompliance.sol\":1950:2593  function removeModule(address _module) external override onlyOwner {... */\n      pop\n      jump\t// out\n        /* \"Tokeny Project/Compliance/modular/ModularCompliance.sol\":4640:4765  function isModuleBound(address _module) external view override returns (bool) {... */\n    tag_57:\n        /* \"Tokeny Project/Compliance/modular/ModularCompliance.sol\":4712:4716  bool */\n      0x00\n        /* \"Tokeny Project/Compliance/modular/ModularCompliance.sol\":4736:4748  _moduleBound */\n      0x67\n        /* \"Tokeny Project/Compliance/modular/ModularCompliance.sol\":4736:4757  _moduleBound[_module] */\n      0x00\n        /* \"Tokeny Project/Compliance/modular/ModularCompliance.sol\":4749:4756  _module */\n      dup4\n        /* \"Tokeny Project/Compliance/modular/ModularCompliance.sol\":4736:4757  _moduleBound[_module] */\n      0xffffffffffffffffffffffffffffffffffffffff\n      and\n      0xffffffffffffffffffffffffffffffffffffffff\n      and\n      dup2\n      mstore\n      0x20\n      add\n      swap1\n      dup2\n      mstore\n      0x20\n      add\n      0x00\n      keccak256\n      0x00\n      swap1\n      sload\n      swap1\n      0x0100\n      exp\n      swap1\n      div\n      0xff\n      and\n        /* \"Tokeny Project/Compliance/modular/ModularCompliance.sol\":4729:4757  return _moduleBound[_module] */\n      swap1\n      pop\n        /* \"Tokeny Project/Compliance/modular/ModularCompliance.sol\":4640:4765  function isModuleBound(address _module) external view override returns (bool) {... */\n      swap2\n      swap1\n      pop\n      jump\t// out\n        /* \"Tokeny Project/Compliance/modular/ModularCompliance.sol\":4773:4879  function getModules() external view override returns (address[] memory) {... */\n    tag_61:\n        /* \"Tokeny Project/Compliance/modular/ModularCompliance.sol\":4827:4843  address[] memory */\n      0x60\n        /* \"Tokeny Project/Compliance/modular/ModularCompliance.sol\":4863:4871  _modules */\n      0x66\n        /* \"Tokeny Project/Compliance/modular/ModularCompliance.sol\":4856:4871  return _modules */\n      dup1\n      sload\n      dup1\n      0x20\n      mul\n      0x20\n      add\n      mload(0x40)\n      swap1\n      dup2\n      add\n      0x40\n      mstore\n      dup1\n      swap3\n      swap2\n      swap1\n      dup2\n      dup2\n      mstore\n      0x20\n      add\n      dup3\n      dup1\n      sload\n      dup1\n      iszero\n      tag_223\n      jumpi\n      0x20\n      mul\n      dup3\n      add\n      swap2\n      swap1\n      0x00\n      mstore\n      keccak256(0x00, 0x20)\n      swap1\n    tag_224:\n      dup2\n      0x00\n      swap1\n      sload\n      swap1\n      0x0100\n      exp\n      swap1\n      div\n      0xffffffffffffffffffffffffffffffffffffffff\n      and\n      0xffffffffffffffffffffffffffffffffffffffff\n      and\n      dup2\n      mstore\n      0x20\n      add\n      swap1\n      0x01\n      add\n      swap1\n      dup1\n      dup4\n      gt\n      tag_224\n      jumpi\n    tag_223:\n      pop\n      pop\n      pop\n      pop\n      pop\n      swap1\n      pop\n        /* \"Tokeny Project/Compliance/modular/ModularCompliance.sol\":4773:4879  function getModules() external view override returns (address[] memory) {... */\n      swap1\n      jump\t// out\n        /* \"Tokeny Project/Compliance/modular/ModularCompliance.sol\":595:667  function init() external initializer {... */\n    tag_65:\n        /* \"@openzeppelin/contracts-upgradeable/proxy/utils/Initializable.sol\":3279:3298  bool isTopLevelCall */\n      0x00\n        /* \"@openzeppelin/contracts-upgradeable/proxy/utils/Initializable.sol\":3302:3315  _initializing */\n      dup1\n      0x01\n      swap1\n      sload\n      swap1\n      0x0100\n      exp\n      swap1\n      div\n      0xff\n      and\n        /* \"@openzeppelin/contracts-upgradeable/proxy/utils/Initializable.sol\":3301:3315  !_initializing */\n      iszero\n        /* \"@openzeppelin/contracts-upgradeable/proxy/utils/Initializable.sol\":3279:3315  bool isTopLevelCall = !_initializing */\n      swap1\n      pop\n        /* \"@openzeppelin/contracts-upgradeable/proxy/utils/Initializable.sol\":3347:3361  isTopLevelCall */\n      dup1\n        /* \"@openzeppelin/contracts-upgradeable/proxy/utils/Initializable.sol\":3347:3381  isTopLevelCall && _initialized < 1 */\n      dup1\n      iszero\n      tag_226\n      jumpi\n      pop\n        /* \"@openzeppelin/contracts-upgradeable/proxy/utils/Initializable.sol\":3380:3381  1 */\n      0x01\n        /* \"@openzeppelin/contracts-upgradeable/proxy/utils/Initializable.sol\":3365:3377  _initialized */\n      0x00\n      dup1\n      sload\n      swap1\n      0x0100\n      exp\n      swap1\n      div\n      0xff\n      and\n        /* \"@openzeppelin/contracts-upgradeable/proxy/utils/Initializable.sol\":3365:3381  _initialized < 1 */\n      0xff\n      and\n      lt\n        /* \"@openzeppelin/contracts-upgradeable/proxy/utils/Initializable.sol\":3347:3381  isTopLevelCall && _initialized < 1 */\n    tag_226:\n        /* \"@openzeppelin/contracts-upgradeable/proxy/utils/Initializable.sol\":3346:3454  (isTopLevelCall && _initialized < 1) || (!AddressUpgradeable.isContract(address(this)) && _initialized == 1) */\n      dup1\n      tag_227\n      jumpi\n      pop\n        /* \"@openzeppelin/contracts-upgradeable/proxy/utils/Initializable.sol\":3388:3432  AddressUpgradeable.isContract(address(this)) */\n      tag_228\n        /* \"@openzeppelin/contracts-upgradeable/proxy/utils/Initializable.sol\":3426:3430  this */\n      address\n        /* \"@openzeppelin/contracts-upgradeable/proxy/utils/Initializable.sol\":3388:3417  AddressUpgradeable.isContract */\n      tag_229\n        /* \"@openzeppelin/contracts-upgradeable/proxy/utils/Initializable.sol\":3388:3432  AddressUpgradeable.isContract(address(this)) */\n      jump\t// in\n    tag_228:\n        /* \"@openzeppelin/contracts-upgradeable/proxy/utils/Initializable.sol\":3387:3432  !AddressUpgradeable.isContract(address(this)) */\n      iszero\n        /* \"@openzeppelin/contracts-upgradeable/proxy/utils/Initializable.sol\":3387:3453  !AddressUpgradeable.isContract(address(this)) && _initialized == 1 */\n      dup1\n      iszero\n      tag_230\n      jumpi\n      pop\n        /* \"@openzeppelin/contracts-upgradeable/proxy/utils/Initializable.sol\":3452:3453  1 */\n      0x01\n        /* \"@openzeppelin/contracts-upgradeable/proxy/utils/Initializable.sol\":3436:3448  _initialized */\n      0x00\n      dup1\n      sload\n      swap1\n      0x0100\n      exp\n      swap1\n      div\n      0xff\n      and\n        /* \"@openzeppelin/contracts-upgradeable/proxy/utils/Initializable.sol\":3436:3453  _initialized == 1 */\n      0xff\n      and\n      eq\n        /* \"@openzeppelin/contracts-upgradeable/proxy/utils/Initializable.sol\":3387:3453  !AddressUpgradeable.isContract(address(this)) && _initialized == 1 */\n    tag_230:\n        /* \"@openzeppelin/contracts-upgradeable/proxy/utils/Initializable.sol\":3346:3454  (isTopLevelCall && _initialized < 1) || (!AddressUpgradeable.isContract(address(this)) && _initialized == 1) */\n    tag_227:\n        /* \"@openzeppelin/contracts-upgradeable/proxy/utils/Initializable.sol\":3325:3526  require(... */\n      tag_231\n      jumpi\n      mload(0x40)\n      0x08c379a000000000000000000000000000000000000000000000000000000000\n      dup2\n      mstore\n      0x04\n      add\n      tag_232\n      swap1\n      tag_233\n      jump\t// in\n    tag_232:\n      mload(0x40)\n      dup1\n      swap2\n      sub\n      swap1\n      revert\n    tag_231:\n        /* \"@openzeppelin/contracts-upgradeable/proxy/utils/Initializable.sol\":3551:3552  1 */\n      0x01\n        /* \"@openzeppelin/contracts-upgradeable/proxy/utils/Initializable.sol\":3536:3548  _initialized */\n      0x00\n      dup1\n        /* \"@openzeppelin/contracts-upgradeable/proxy/utils/Initializable.sol\":3536:3552  _initialized = 1 */\n      0x0100\n      exp\n      dup2\n      sload\n      dup2\n      0xff\n      mul\n      not\n      and\n      swap1\n      dup4\n      0xff\n      and\n      mul\n      or\n      swap1\n      sstore\n      pop\n        /* \"@openzeppelin/contracts-upgradeable/proxy/utils/Initializable.sol\":3566:3580  isTopLevelCall */\n      dup1\n        /* \"@openzeppelin/contracts-upgradeable/proxy/utils/Initializable.sol\":3562:3627  if (isTopLevelCall) {... */\n      iszero\n      tag_234\n      jumpi\n        /* \"@openzeppelin/contracts-upgradeable/proxy/utils/Initializable.sol\":3612:3616  true */\n      0x01\n        /* \"@openzeppelin/contracts-upgradeable/proxy/utils/Initializable.sol\":3596:3609  _initializing */\n      0x00\n      0x01\n        /* \"@openzeppelin/contracts-upgradeable/proxy/utils/Initializable.sol\":3596:3616  _initializing = true */\n      0x0100\n      exp\n      dup2\n      sload\n      dup2\n      0xff\n      mul\n      not\n      and\n      swap1\n      dup4\n      iszero\n      iszero\n      mul\n      or\n      swap1\n      sstore\n      pop\n        /* \"@openzeppelin/contracts-upgradeable/proxy/utils/Initializable.sol\":3562:3627  if (isTopLevelCall) {... */\n    tag_234:\n        /* \"Tokeny Project/Compliance/modular/ModularCompliance.sol\":643:659  __Ownable_init() */\n      tag_236\n        /* \"Tokeny Project/Compliance/modular/ModularCompliance.sol\":643:657  __Ownable_init */\n      tag_237\n        /* \"Tokeny Project/Compliance/modular/ModularCompliance.sol\":643:659  __Ownable_init() */\n      jump\t// in\n    tag_236:\n        /* \"@openzeppelin/contracts-upgradeable/proxy/utils/Initializable.sol\":3651:3665  isTopLevelCall */\n      dup1\n        /* \"@openzeppelin/contracts-upgradeable/proxy/utils/Initializable.sol\":3647:3746  if (isTopLevelCall) {... */\n      iszero\n      tag_238\n      jumpi\n        /* \"@openzeppelin/contracts-upgradeable/proxy/utils/Initializable.sol\":3697:3702  false */\n      0x00\n        /* \"@openzeppelin/contracts-upgradeable/proxy/utils/Initializable.sol\":3681:3694  _initializing */\n      dup1\n      0x01\n        /* \"@openzeppelin/contracts-upgradeable/proxy/utils/Initializable.sol\":3681:3702  _initializing = false */\n      0x0100\n      exp\n      dup2\n      sload\n      dup2\n      0xff\n      mul\n      not\n      and\n      swap1\n      dup4\n      iszero\n      iszero\n      mul\n      or\n      swap1\n      sstore\n      pop\n        /* \"@openzeppelin/contracts-upgradeable/proxy/utils/Initializable.sol\":3721:3735  Initialized(1) */\n      0x7f26b83ff96e1f2b6a682f133852f6798a09c465da95921460cefb3847402498\n        /* \"@openzeppelin/contracts-upgradeable/proxy/utils/Initializable.sol\":3733:3734  1 */\n      0x01\n        /* \"@openzeppelin/contracts-upgradeable/proxy/utils/Initializable.sol\":3721:3735  Initialized(1) */\n      mload(0x40)\n      tag_239\n      swap2\n      swap1\n      tag_240\n      jump\t// in\n    tag_239:\n      mload(0x40)\n      dup1\n      swap2\n      sub\n      swap1\n      log1\n        /* \"@openzeppelin/contracts-upgradeable/proxy/utils/Initializable.sol\":3647:3746  if (isTopLevelCall) {... */\n    tag_238:\n        /* \"@openzeppelin/contracts-upgradeable/proxy/utils/Initializable.sol\":3269:3752  {... */\n      pop\n        /* \"Tokeny Project/Compliance/modular/ModularCompliance.sol\":595:667  function init() external initializer {... */\n      jump\t// out\n        /* \"Tokeny Project/Compliance/modular/ModularCompliance.sol\":4998:5368  function canTransfer(address _from, address _to, uint256 _value) external view override returns (bool) {... */\n    tag_68:\n        /* \"Tokeny Project/Compliance/modular/ModularCompliance.sol\":5095:5099  bool */\n      0x00\n        /* \"Tokeny Project/Compliance/modular/ModularCompliance.sol\":5112:5126  uint256 length */\n      dup1\n        /* \"Tokeny Project/Compliance/modular/ModularCompliance.sol\":5129:5137  _modules */\n      0x66\n        /* \"Tokeny Project/Compliance/modular/ModularCompliance.sol\":5129:5144  _modules.length */\n      dup1\n      sload\n      swap1\n      pop\n        /* \"Tokeny Project/Compliance/modular/ModularCompliance.sol\":5112:5144  uint256 length = _modules.length */\n      swap1\n      pop\n        /* \"Tokeny Project/Compliance/modular/ModularCompliance.sol\":5160:5169  uint256 i */\n      0x00\n        /* \"Tokeny Project/Compliance/modular/ModularCompliance.sol\":5155:5339  for (uint256 i = 0; i < length; i++) {... */\n    tag_242:\n        /* \"Tokeny Project/Compliance/modular/ModularCompliance.sol\":5179:5185  length */\n      dup2\n        /* \"Tokeny Project/Compliance/modular/ModularCompliance.sol\":5175:5176  i */\n      dup2\n        /* \"Tokeny Project/Compliance/modular/ModularCompliance.sol\":5175:5185  i < length */\n      lt\n        /* \"Tokeny Project/Compliance/modular/ModularCompliance.sol\":5155:5339  for (uint256 i = 0; i < length; i++) {... */\n      iszero\n      tag_243\n      jumpi\n        /* \"Tokeny Project/Compliance/modular/ModularCompliance.sol\":5220:5228  _modules */\n      0x66\n        /* \"Tokeny Project/Compliance/modular/ModularCompliance.sol\":5229:5230  i */\n      dup2\n        /* \"Tokeny Project/Compliance/modular/ModularCompliance.sol\":5220:5231  _modules[i] */\n      dup2\n      sload\n      dup2\n      lt\n      tag_245\n      jumpi\n      tag_246\n      tag_131\n      jump\t// in\n    tag_246:\n    tag_245:\n      swap1\n      0x00\n      mstore\n      keccak256(0x00, 0x20)\n      add\n      0x00\n      swap1\n      sload\n      swap1\n      0x0100\n      exp\n      swap1\n      div\n      0xffffffffffffffffffffffffffffffffffffffff\n      and\n        /* \"Tokeny Project/Compliance/modular/ModularCompliance.sol\":5212:5244  IModule(_modules[i]).moduleCheck */\n      0xffffffffffffffffffffffffffffffffffffffff\n      and\n      0x013b7ce4\n        /* \"Tokeny Project/Compliance/modular/ModularCompliance.sol\":5245:5250  _from */\n      dup8\n        /* \"Tokeny Project/Compliance/modular/ModularCompliance.sol\":5252:5255  _to */\n      dup8\n        /* \"Tokeny Project/Compliance/modular/ModularCompliance.sol\":5257:5263  _value */\n      dup8\n        /* \"Tokeny Project/Compliance/modular/ModularCompliance.sol\":5273:5277  this */\n      address\n        /* \"Tokeny Project/Compliance/modular/ModularCompliance.sol\":5212:5279  IModule(_modules[i]).moduleCheck(_from, _to, _value, address(this)) */\n      mload(0x40)\n      dup6\n      0xffffffff\n      and\n      0xe0\n      shl\n      dup2\n      mstore\n      0x04\n      add\n      tag_248\n      swap5\n      swap4\n      swap3\n      swap2\n      swap1\n      tag_249\n      jump\t// in\n    tag_248:\n      0x20\n      mload(0x40)\n      dup1\n      dup4\n      sub\n      dup2\n      dup7\n      gas\n      staticcall\n      iszero\n      dup1\n      iszero\n      tag_251\n      jumpi\n      returndatasize\n      0x00\n      dup1\n      returndatacopy\n      revert(0x00, returndatasize)\n    tag_251:\n      pop\n      pop\n      pop\n      pop\n      mload(0x40)\n      returndatasize\n      not(0x1f)\n      0x1f\n      dup3\n      add\n      and\n      dup3\n      add\n      dup1\n      0x40\n      mstore\n      pop\n      dup2\n      add\n      swap1\n      tag_252\n      swap2\n      swap1\n      tag_253\n      jump\t// in\n    tag_252:\n        /* \"Tokeny Project/Compliance/modular/ModularCompliance.sol\":5207:5328  if (!IModule(_modules[i]).moduleCheck(_from, _to, _value, address(this))) {... */\n      tag_254\n      jumpi\n        /* \"Tokeny Project/Compliance/modular/ModularCompliance.sol\":5307:5312  false */\n      0x00\n        /* \"Tokeny Project/Compliance/modular/ModularCompliance.sol\":5300:5312  return false */\n      swap3\n      pop\n      pop\n      pop\n      jump(tag_241)\n        /* \"Tokeny Project/Compliance/modular/ModularCompliance.sol\":5207:5328  if (!IModule(_modules[i]).moduleCheck(_from, _to, _value, address(this))) {... */\n    tag_254:\n        /* \"Tokeny Project/Compliance/modular/ModularCompliance.sol\":5187:5190  i++ */\n      dup1\n      dup1\n      tag_255\n      swap1\n      tag_139\n      jump\t// in\n    tag_255:\n      swap2\n      pop\n      pop\n        /* \"Tokeny Project/Compliance/modular/ModularCompliance.sol\":5155:5339  for (uint256 i = 0; i < length; i++) {... */\n      jump(tag_242)\n    tag_243:\n      pop\n        /* \"Tokeny Project/Compliance/modular/ModularCompliance.sol\":5356:5360  true */\n      0x01\n        /* \"Tokeny Project/Compliance/modular/ModularCompliance.sol\":5349:5360  return true */\n      swap2\n      pop\n      pop\n        /* \"Tokeny Project/Compliance/modular/ModularCompliance.sol\":4998:5368  function canTransfer(address _from, address _to, uint256 _value) external view override returns (bool) {... */\n    tag_241:\n      swap4\n      swap3\n      pop\n      pop\n      pop\n      jump\t// out\n        /* \"Tokeny Project/Compliance/modular/ModularCompliance.sol\":3888:4632  function callModuleFunction(bytes calldata callData, address _module) external override onlyOwner {... */\n    tag_73:\n        /* \"@openzeppelin/contracts-upgradeable/access/OwnableUpgradeable.sol\":1334:1347  _checkOwner() */\n      tag_257\n        /* \"@openzeppelin/contracts-upgradeable/access/OwnableUpgradeable.sol\":1334:1345  _checkOwner */\n      tag_79\n        /* \"@openzeppelin/contracts-upgradeable/access/OwnableUpgradeable.sol\":1334:1347  _checkOwner() */\n      jump\t// in\n    tag_257:\n        /* \"Tokeny Project/Compliance/modular/ModularCompliance.sol\":4005:4017  _moduleBound */\n      0x67\n        /* \"Tokeny Project/Compliance/modular/ModularCompliance.sol\":4005:4026  _moduleBound[_module] */\n      0x00\n        /* \"Tokeny Project/Compliance/modular/ModularCompliance.sol\":4018:4025  _module */\n      dup3\n        /* \"Tokeny Project/Compliance/modular/ModularCompliance.sol\":4005:4026  _moduleBound[_module] */\n      0xffffffffffffffffffffffffffffffffffffffff\n      and\n      0xffffffffffffffffffffffffffffffffffffffff\n      and\n      dup2\n      mstore\n      0x20\n      add\n      swap1\n      dup2\n      mstore\n      0x20\n      add\n      0x00\n      keccak256\n      0x00\n      swap1\n      sload\n      swap1\n      0x0100\n      exp\n      swap1\n      div\n      0xff\n      and\n        /* \"Tokeny Project/Compliance/modular/ModularCompliance.sol\":3997:4056  require(_moduleBound[_module], \"call only on bound module\") */\n      tag_259\n      jumpi\n      mload(0x40)\n      0x08c379a000000000000000000000000000000000000000000000000000000000\n      dup2\n      mstore\n      0x04\n      add\n      tag_260\n      swap1\n      tag_261\n      jump\t// in\n    tag_260:\n      mload(0x40)\n      dup1\n      swap2\n      sub\n      swap1\n      revert\n    tag_259:\n        /* \"Tokeny Project/Compliance/modular/ModularCompliance.sol\":4122:4126  0x40 */\n      0x40\n        /* \"Tokeny Project/Compliance/modular/ModularCompliance.sol\":4116:4127  mload(0x40) */\n      mload\n        /* \"Tokeny Project/Compliance/modular/ModularCompliance.sol\":4190:4205  callData.length */\n      dup3\n        /* \"Tokeny Project/Compliance/modular/ModularCompliance.sol\":4173:4188  callData.offset */\n      dup5\n        /* \"Tokeny Project/Compliance/modular/ModularCompliance.sol\":4154:4171  freeMemoryPointer */\n      dup3\n        /* \"Tokeny Project/Compliance/modular/ModularCompliance.sol\":4141:4206  calldatacopy(freeMemoryPointer, callData.offset, callData.length) */\n      calldatacopy\n        /* \"Tokeny Project/Compliance/modular/ModularCompliance.sol\":4399:4400  0 */\n      0x00\n        /* \"Tokeny Project/Compliance/modular/ModularCompliance.sol\":4383:4384  0 */\n      dup1\n        /* \"Tokeny Project/Compliance/modular/ModularCompliance.sol\":4353:4368  callData.length */\n      dup5\n        /* \"Tokeny Project/Compliance/modular/ModularCompliance.sol\":4321:4338  freeMemoryPointer */\n      dup4\n        /* \"Tokeny Project/Compliance/modular/ModularCompliance.sol\":4305:4306  0 */\n      0x00\n        /* \"Tokeny Project/Compliance/modular/ModularCompliance.sol\":4283:4290  _module */\n      dup7\n        /* \"Tokeny Project/Compliance/modular/ModularCompliance.sol\":4263:4268  gas() */\n      gas\n        /* \"Tokeny Project/Compliance/modular/ModularCompliance.sol\":4244:4415  call(... */\n      call\n        /* \"Tokeny Project/Compliance/modular/ModularCompliance.sol\":4220:4547  if iszero(... */\n      tag_262\n      jumpi\n        /* \"Tokeny Project/Compliance/modular/ModularCompliance.sol\":4470:4486  returndatasize() */\n      returndatasize\n        /* \"Tokeny Project/Compliance/modular/ModularCompliance.sol\":4467:4468  0 */\n      0x00\n        /* \"Tokeny Project/Compliance/modular/ModularCompliance.sol\":4464:4465  0 */\n      dup1\n        /* \"Tokeny Project/Compliance/modular/ModularCompliance.sol\":4449:4487  returndatacopy(0, 0, returndatasize()) */\n      returndatacopy\n        /* \"Tokeny Project/Compliance/modular/ModularCompliance.sol\":4515:4531  returndatasize() */\n      returndatasize\n        /* \"Tokeny Project/Compliance/modular/ModularCompliance.sol\":4512:4513  0 */\n      0x00\n        /* \"Tokeny Project/Compliance/modular/ModularCompliance.sol\":4505:4532  revert(0, returndatasize()) */\n      revert\n        /* \"Tokeny Project/Compliance/modular/ModularCompliance.sol\":4220:4547  if iszero(... */\n    tag_262:\n        /* \"Tokeny Project/Compliance/modular/ModularCompliance.sol\":4076:4558  {... */\n      pop\n        /* \"Tokeny Project/Compliance/modular/ModularCompliance.sol\":4593:4600  _module */\n      dup1\n        /* \"Tokeny Project/Compliance/modular/ModularCompliance.sol\":4575:4622  ModuleInteraction(_module, _selector(callData)) */\n      0xffffffffffffffffffffffffffffffffffffffff\n      and\n      0x20d79de70adcc6e9353d8a9a5646b46dc352710d0a310b1ad1f67faeca7ef891\n        /* \"Tokeny Project/Compliance/modular/ModularCompliance.sol\":4602:4621  _selector(callData) */\n      tag_263\n        /* \"Tokeny Project/Compliance/modular/ModularCompliance.sol\":4612:4620  callData */\n      dup6\n      dup6\n        /* \"Tokeny Project/Compliance/modular/ModularCompliance.sol\":4602:4611  _selector */\n      tag_264\n        /* \"Tokeny Project/Compliance/modular/ModularCompliance.sol\":4602:4621  _selector(callData) */\n      jump\t// in\n    tag_263:\n        /* \"Tokeny Project/Compliance/modular/ModularCompliance.sol\":4575:4622  ModuleInteraction(_module, _selector(callData)) */\n      mload(0x40)\n      tag_265\n      swap2\n      swap1\n      tag_266\n      jump\t// in\n    tag_265:\n      mload(0x40)\n      dup1\n      swap2\n      sub\n      swap1\n      log2\n        /* \"Tokeny Project/Compliance/modular/ModularCompliance.sol\":3888:4632  function callModuleFunction(bytes calldata callData, address _module) external override onlyOwner {... */\n      pop\n      pop\n      pop\n      jump\t// out\n        /* \"@openzeppelin/contracts-upgradeable/access/OwnableUpgradeable.sol\":2314:2512  function transferOwnership(address newOwner) public virtual onlyOwner {... */\n    tag_76:\n        /* \"@openzeppelin/contracts-upgradeable/access/OwnableUpgradeable.sol\":1334:1347  _checkOwner() */\n      tag_268\n        /* \"@openzeppelin/contracts-upgradeable/access/OwnableUpgradeable.sol\":1334:1345  _checkOwner */\n      tag_79\n        /* \"@openzeppelin/contracts-upgradeable/access/OwnableUpgradeable.sol\":1334:1347  _checkOwner() */\n      jump\t// in\n    tag_268:\n        /* \"@openzeppelin/contracts-upgradeable/access/OwnableUpgradeable.sol\":2422:2423  0 */\n      0x00\n        /* \"@openzeppelin/contracts-upgradeable/access/OwnableUpgradeable.sol\":2402:2424  newOwner != address(0) */\n      0xffffffffffffffffffffffffffffffffffffffff\n      and\n        /* \"@openzeppelin/contracts-upgradeable/access/OwnableUpgradeable.sol\":2402:2410  newOwner */\n      dup2\n        /* \"@openzeppelin/contracts-upgradeable/access/OwnableUpgradeable.sol\":2402:2424  newOwner != address(0) */\n      0xffffffffffffffffffffffffffffffffffffffff\n      and\n      sub\n        /* \"@openzeppelin/contracts-upgradeable/access/OwnableUpgradeable.sol\":2394:2467  require(newOwner != address(0), \"Ownable: new owner is the zero address\") */\n      tag_270\n      jumpi\n      mload(0x40)\n      0x08c379a000000000000000000000000000000000000000000000000000000000\n      dup2\n      mstore\n      0x04\n      add\n      tag_271\n      swap1\n      tag_272\n      jump\t// in\n    tag_271:\n      mload(0x40)\n      dup1\n      swap2\n      sub\n      swap1\n      revert\n    tag_270:\n        /* \"@openzeppelin/contracts-upgradeable/access/OwnableUpgradeable.sol\":2477:2505  _transferOwnership(newOwner) */\n      tag_273\n        /* \"@openzeppelin/contracts-upgradeable/access/OwnableUpgradeable.sol\":2496:2504  newOwner */\n      dup2\n        /* \"@openzeppelin/contracts-upgradeable/access/OwnableUpgradeable.sol\":2477:2495  _transferOwnership */\n      tag_145\n        /* \"@openzeppelin/contracts-upgradeable/access/OwnableUpgradeable.sol\":2477:2505  _transferOwnership(newOwner) */\n      jump\t// in\n    tag_273:\n        /* \"@openzeppelin/contracts-upgradeable/access/OwnableUpgradeable.sol\":2314:2512  function transferOwnership(address newOwner) public virtual onlyOwner {... */\n      pop\n      jump\t// out\n        /* \"@openzeppelin/contracts-upgradeable/access/OwnableUpgradeable.sol\":1599:1729  function _checkOwner() internal view virtual {... */\n    tag_79:\n        /* \"@openzeppelin/contracts-upgradeable/access/OwnableUpgradeable.sol\":1673:1685  _msgSender() */\n      tag_275\n        /* \"@openzeppelin/contracts-upgradeable/access/OwnableUpgradeable.sol\":1673:1683  _msgSender */\n      tag_276\n        /* \"@openzeppelin/contracts-upgradeable/access/OwnableUpgradeable.sol\":1673:1685  _msgSender() */\n      jump\t// in\n    tag_275:\n        /* \"@openzeppelin/contracts-upgradeable/access/OwnableUpgradeable.sol\":1662:1685  owner() == _msgSender() */\n      0xffffffffffffffffffffffffffffffffffffffff\n      and\n        /* \"@openzeppelin/contracts-upgradeable/access/OwnableUpgradeable.sol\":1662:1669  owner() */\n      tag_277\n        /* \"@openzeppelin/contracts-upgradeable/access/OwnableUpgradeable.sol\":1662:1667  owner */\n      tag_50\n        /* \"@openzeppelin/contracts-upgradeable/access/OwnableUpgradeable.sol\":1662:1669  owner() */\n      jump\t// in\n    tag_277:\n        /* \"@openzeppelin/contracts-upgradeable/access/OwnableUpgradeable.sol\":1662:1685  owner() == _msgSender() */\n      0xffffffffffffffffffffffffffffffffffffffff\n      and\n      eq\n        /* \"@openzeppelin/contracts-upgradeable/access/OwnableUpgradeable.sol\":1654:1722  require(owner() == _msgSender(), \"Ownable: caller is not the owner\") */\n      tag_278\n      jumpi\n      mload(0x40)\n      0x08c379a000000000000000000000000000000000000000000000000000000000\n      dup2\n      mstore\n      0x04\n      add\n      tag_279\n      swap1\n      tag_280\n      jump\t// in\n    tag_279:\n      mload(0x40)\n      dup1\n      swap2\n      sub\n      swap1\n      revert\n    tag_278:\n        /* \"@openzeppelin/contracts-upgradeable/access/OwnableUpgradeable.sol\":1599:1729  function _checkOwner() internal view virtual {... */\n      jump\t// out\n        /* \"@openzeppelin/contracts-upgradeable/access/OwnableUpgradeable.sol\":2666:2853  function _transferOwnership(address newOwner) internal virtual {... */\n    tag_145:\n        /* \"@openzeppelin/contracts-upgradeable/access/OwnableUpgradeable.sol\":2739:2755  address oldOwner */\n      0x00\n        /* \"@openzeppelin/contracts-upgradeable/access/OwnableUpgradeable.sol\":2758:2764  _owner */\n      0x33\n      0x00\n      swap1\n      sload\n      swap1\n      0x0100\n      exp\n      swap1\n      div\n      0xffffffffffffffffffffffffffffffffffffffff\n      and\n        /* \"@openzeppelin/contracts-upgradeable/access/OwnableUpgradeable.sol\":2739:2764  address oldOwner = _owner */\n      swap1\n      pop\n        /* \"@openzeppelin/contracts-upgradeable/access/OwnableUpgradeable.sol\":2783:2791  newOwner */\n      dup2\n        /* \"@openzeppelin/contracts-upgradeable/access/OwnableUpgradeable.sol\":2774:2780  _owner */\n      0x33\n      0x00\n        /* \"@openzeppelin/contracts-upgradeable/access/OwnableUpgradeable.sol\":2774:2791  _owner = newOwner */\n      0x0100\n      exp\n      dup2\n      sload\n      dup2\n      0xffffffffffffffffffffffffffffffffffffffff\n      mul\n      not\n      and\n      swap1\n      dup4\n      0xffffffffffffffffffffffffffffffffffffffff\n      and\n      mul\n      or\n      swap1\n      sstore\n      pop\n        /* \"@openzeppelin/contracts-upgradeable/access/OwnableUpgradeable.sol\":2837:2845  newOwner */\n      dup2\n        /* \"@openzeppelin/contracts-upgradeable/access/OwnableUpgradeable.sol\":2806:2846  OwnershipTransferred(oldOwner, newOwner) */\n      0xffffffffffffffffffffffffffffffffffffffff\n      and\n        /* \"@openzeppelin/contracts-upgradeable/access/OwnableUpgradeable.sol\":2827:2835  oldOwner */\n      dup2\n        /* \"@openzeppelin/contracts-upgradeable/access/OwnableUpgradeable.sol\":2806:2846  OwnershipTransferred(oldOwner, newOwner) */\n      0xffffffffffffffffffffffffffffffffffffffff\n      and\n      0x8be0079c531659141344cd1fd0a4f28419497f9722a3daafe3b4186f6b6457e0\n      mload(0x40)\n      mload(0x40)\n      dup1\n      swap2\n      sub\n      swap1\n      log3\n        /* \"@openzeppelin/contracts-upgradeable/access/OwnableUpgradeable.sol\":2729:2853  {... */\n      pop\n        /* \"@openzeppelin/contracts-upgradeable/access/OwnableUpgradeable.sol\":2666:2853  function _transferOwnership(address newOwner) internal virtual {... */\n      pop\n      jump\t// out\n        /* \"@openzeppelin/contracts-upgradeable/utils/AddressUpgradeable.sol\":1423:1743  function isContract(address account) internal view returns (bool) {... */\n    tag_229:\n        /* \"@openzeppelin/contracts-upgradeable/utils/AddressUpgradeable.sol\":1483:1487  bool */\n      0x00\n        /* \"@openzeppelin/contracts-upgradeable/utils/AddressUpgradeable.sol\":1735:1736  0 */\n      dup1\n        /* \"@openzeppelin/contracts-upgradeable/utils/AddressUpgradeable.sol\":1713:1720  account */\n      dup3\n        /* \"@openzeppelin/contracts-upgradeable/utils/AddressUpgradeable.sol\":1713:1732  account.code.length */\n      0xffffffffffffffffffffffffffffffffffffffff\n      and\n      extcodesize\n        /* \"@openzeppelin/contracts-upgradeable/utils/AddressUpgradeable.sol\":1713:1736  account.code.length > 0 */\n      gt\n        /* \"@openzeppelin/contracts-upgradeable/utils/AddressUpgradeable.sol\":1706:1736  return account.code.length > 0 */\n      swap1\n      pop\n        /* \"@openzeppelin/contracts-upgradeable/utils/AddressUpgradeable.sol\":1423:1743  function isContract(address account) internal view returns (bool) {... */\n      swap2\n      swap1\n      pop\n      jump\t// out\n        /* \"@openzeppelin/contracts-upgradeable/access/OwnableUpgradeable.sol\":1003:1098  function __Ownable_init() internal onlyInitializing {... */\n    tag_237:\n        /* \"@openzeppelin/contracts-upgradeable/proxy/utils/Initializable.sol\":5374:5387  _initializing */\n      0x00\n      0x01\n      swap1\n      sload\n      swap1\n      0x0100\n      exp\n      swap1\n      div\n      0xff\n      and\n        /* \"@openzeppelin/contracts-upgradeable/proxy/utils/Initializable.sol\":5366:5435  require(_initializing, \"Initializable: contract is not initializing\") */\n      tag_284\n      jumpi\n      mload(0x40)\n      0x08c379a000000000000000000000000000000000000000000000000000000000\n      dup2\n      mstore\n      0x04\n      add\n      tag_285\n      swap1\n      tag_286\n      jump\t// in\n    tag_285:\n      mload(0x40)\n      dup1\n      swap2\n      sub\n      swap1\n      revert\n    tag_284:\n        /* \"@openzeppelin/contracts-upgradeable/access/OwnableUpgradeable.sol\":1065:1091  __Ownable_init_unchained() */\n      tag_288\n        /* \"@openzeppelin/contracts-upgradeable/access/OwnableUpgradeable.sol\":1065:1089  __Ownable_init_unchained */\n      tag_289\n        /* \"@openzeppelin/contracts-upgradeable/access/OwnableUpgradeable.sol\":1065:1091  __Ownable_init_unchained() */\n      jump\t// in\n    tag_288:\n        /* \"@openzeppelin/contracts-upgradeable/access/OwnableUpgradeable.sol\":1003:1098  function __Ownable_init() internal onlyInitializing {... */\n      jump\t// out\n        /* \"Tokeny Project/Compliance/modular/ModularCompliance.sol\":5376:5610  function _selector(bytes calldata callData) internal pure returns (bytes4 result) {... */\n    tag_264:\n        /* \"Tokeny Project/Compliance/modular/ModularCompliance.sol\":5443:5456  bytes4 result */\n      0x00\n        /* \"Tokeny Project/Compliance/modular/ModularCompliance.sol\":5492:5493  4 */\n      0x04\n        /* \"Tokeny Project/Compliance/modular/ModularCompliance.sol\":5473:5481  callData */\n      dup4\n      dup4\n        /* \"Tokeny Project/Compliance/modular/ModularCompliance.sol\":5473:5488  callData.length */\n      swap1\n      pop\n        /* \"Tokeny Project/Compliance/modular/ModularCompliance.sol\":5473:5493  callData.length >= 4 */\n      lt\n        /* \"Tokeny Project/Compliance/modular/ModularCompliance.sol\":5469:5603  if (callData.length >= 4) {... */\n      tag_291\n      jumpi\n        /* \"Tokeny Project/Compliance/modular/ModularCompliance.sol\":5561:5576  callData.offset */\n      dup3\n        /* \"Tokeny Project/Compliance/modular/ModularCompliance.sol\":5548:5577  calldataload(callData.offset) */\n      calldataload\n        /* \"Tokeny Project/Compliance/modular/ModularCompliance.sol\":5538:5577  result := calldataload(callData.offset) */\n      swap1\n      pop\n        /* \"Tokeny Project/Compliance/modular/ModularCompliance.sol\":5469:5603  if (callData.length >= 4) {... */\n    tag_291:\n        /* \"Tokeny Project/Compliance/modular/ModularCompliance.sol\":5376:5610  function _selector(bytes calldata callData) internal pure returns (bytes4 result) {... */\n      swap3\n      swap2\n      pop\n      pop\n      jump\t// out\n        /* \"@openzeppelin/contracts-upgradeable/utils/ContextUpgradeable.sol\":850:946  function _msgSender() internal view virtual returns (address) {... */\n    tag_276:\n        /* \"@openzeppelin/contracts-upgradeable/utils/ContextUpgradeable.sol\":903:910  address */\n      0x00\n        /* \"@openzeppelin/contracts-upgradeable/utils/ContextUpgradeable.sol\":929:939  msg.sender */\n      caller\n        /* \"@openzeppelin/contracts-upgradeable/utils/ContextUpgradeable.sol\":922:939  return msg.sender */\n      swap1\n      pop\n        /* \"@openzeppelin/contracts-upgradeable/utils/ContextUpgradeable.sol\":850:946  function _msgSender() internal view virtual returns (address) {... */\n      swap1\n      jump\t// out\n        /* \"@openzeppelin/contracts-upgradeable/access/OwnableUpgradeable.sol\":1104:1215  function __Ownable_init_unchained() internal onlyInitializing {... */\n    tag_289:\n        /* \"@openzeppelin/contracts-upgradeable/proxy/utils/Initializable.sol\":5374:5387  _initializing */\n      0x00\n      0x01\n      swap1\n      sload\n      swap1\n      0x0100\n      exp\n      swap1\n      div\n      0xff\n      and\n        /* \"@openzeppelin/contracts-upgradeable/proxy/utils/Initializable.sol\":5366:5435  require(_initializing, \"Initializable: contract is not initializing\") */\n      tag_294\n      jumpi\n      mload(0x40)\n      0x08c379a000000000000000000000000000000000000000000000000000000000\n      dup2\n      mstore\n      0x04\n      add\n      tag_295\n      swap1\n      tag_286\n      jump\t// in\n    tag_295:\n      mload(0x40)\n      dup1\n      swap2\n      sub\n      swap1\n      revert\n    tag_294:\n        /* \"@openzeppelin/contracts-upgradeable/access/OwnableUpgradeable.sol\":1176:1208  _transferOwnership(_msgSender()) */\n      tag_297\n        /* \"@openzeppelin/contracts-upgradeable/access/OwnableUpgradeable.sol\":1195:1207  _msgSender() */\n      tag_298\n        /* \"@openzeppelin/contracts-upgradeable/access/OwnableUpgradeable.sol\":1195:1205  _msgSender */\n      tag_276\n        /* \"@openzeppelin/contracts-upgradeable/access/OwnableUpgradeable.sol\":1195:1207  _msgSender() */\n      jump\t// in\n    tag_298:\n        /* \"@openzeppelin/contracts-upgradeable/access/OwnableUpgradeable.sol\":1176:1194  _transferOwnership */\n      tag_145\n        /* \"@openzeppelin/contracts-upgradeable/access/OwnableUpgradeable.sol\":1176:1208  _transferOwnership(_msgSender()) */\n      jump\t// in\n    tag_297:\n        /* \"@openzeppelin/contracts-upgradeable/access/OwnableUpgradeable.sol\":1104:1215  function __Ownable_init_unchained() internal onlyInitializing {... */\n      jump\t// out\n        /* \"#utility.yul\":88:205   */\n    tag_300:\n        /* \"#utility.yul\":197:198   */\n      0x00\n        /* \"#utility.yul\":194:195   */\n      dup1\n        /* \"#utility.yul\":187:199   */\n      revert\n        /* \"#utility.yul\":211:328   */\n    tag_301:\n        /* \"#utility.yul\":320:321   */\n      0x00\n        /* \"#utility.yul\":317:318   */\n      dup1\n        /* \"#utility.yul\":310:322   */\n      revert\n        /* \"#utility.yul\":334:460   */\n    tag_302:\n        /* \"#utility.yul\":371:378   */\n      0x00\n        /* \"#utility.yul\":411:453   */\n      0xffffffffffffffffffffffffffffffffffffffff\n        /* \"#utility.yul\":404:409   */\n      dup3\n        /* \"#utility.yul\":400:454   */\n      and\n        /* \"#utility.yul\":389:454   */\n      swap1\n      pop\n        /* \"#utility.yul\":334:460   */\n      swap2\n      swap1\n      pop\n      jump\t// out\n        /* \"#utility.yul\":466:562   */\n    tag_303:\n        /* \"#utility.yul\":503:510   */\n      0x00\n        /* \"#utility.yul\":532:556   */\n      tag_371\n        /* \"#utility.yul\":550:555   */\n      dup3\n        /* \"#utility.yul\":532:556   */\n      tag_302\n      jump\t// in\n    tag_371:\n        /* \"#utility.yul\":521:556   */\n      swap1\n      pop\n        /* \"#utility.yul\":466:562   */\n      swap2\n      swap1\n      pop\n      jump\t// out\n        /* \"#utility.yul\":568:690   */\n    tag_304:\n        /* \"#utility.yul\":641:665   */\n      tag_373\n        /* \"#utility.yul\":659:664   */\n      dup2\n        /* \"#utility.yul\":641:665   */\n      tag_303\n      jump\t// in\n    tag_373:\n        /* \"#utility.yul\":634:639   */\n      dup2\n        /* \"#utility.yul\":631:666   */\n      eq\n        /* \"#utility.yul\":621:684   */\n      tag_374\n      jumpi\n        /* \"#utility.yul\":680:681   */\n      0x00\n        /* \"#utility.yul\":677:678   */\n      dup1\n        /* \"#utility.yul\":670:682   */\n      revert\n        /* \"#utility.yul\":621:684   */\n    tag_374:\n        /* \"#utility.yul\":568:690   */\n      pop\n      jump\t// out\n        /* \"#utility.yul\":696:835   */\n    tag_305:\n        /* \"#utility.yul\":742:747   */\n      0x00\n        /* \"#utility.yul\":780:786   */\n      dup2\n        /* \"#utility.yul\":767:787   */\n      calldataload\n        /* \"#utility.yul\":758:787   */\n      swap1\n      pop\n        /* \"#utility.yul\":796:829   */\n      tag_376\n        /* \"#utility.yul\":823:828   */\n      dup2\n        /* \"#utility.yul\":796:829   */\n      tag_304\n      jump\t// in\n    tag_376:\n        /* \"#utility.yul\":696:835   */\n      swap3\n      swap2\n      pop\n      pop\n      jump\t// out\n        /* \"#utility.yul\":841:1170   */\n    tag_24:\n        /* \"#utility.yul\":900:906   */\n      0x00\n        /* \"#utility.yul\":949:951   */\n      0x20\n        /* \"#utility.yul\":937:946   */\n      dup3\n        /* \"#utility.yul\":928:935   */\n      dup5\n        /* \"#utility.yul\":924:947   */\n      sub\n        /* \"#utility.yul\":920:952   */\n      slt\n        /* \"#utility.yul\":917:1036   */\n      iszero\n      tag_378\n      jumpi\n        /* \"#utility.yul\":955:1034   */\n      tag_379\n      tag_300\n      jump\t// in\n    tag_379:\n        /* \"#utility.yul\":917:1036   */\n    tag_378:\n        /* \"#utility.yul\":1075:1076   */\n      0x00\n        /* \"#utility.yul\":1100:1153   */\n      tag_380\n        /* \"#utility.yul\":1145:1152   */\n      dup5\n        /* \"#utility.yul\":1136:1142   */\n      dup3\n        /* \"#utility.yul\":1125:1134   */\n      dup6\n        /* \"#utility.yul\":1121:1143   */\n      add\n        /* \"#utility.yul\":1100:1153   */\n      tag_305\n      jump\t// in\n    tag_380:\n        /* \"#utility.yul\":1090:1153   */\n      swap2\n      pop\n        /* \"#utility.yul\":1046:1163   */\n      pop\n        /* \"#utility.yul\":841:1170   */\n      swap3\n      swap2\n      pop\n      pop\n      jump\t// out\n        /* \"#utility.yul\":1176:1253   */\n    tag_306:\n        /* \"#utility.yul\":1213:1220   */\n      0x00\n        /* \"#utility.yul\":1242:1247   */\n      dup2\n        /* \"#utility.yul\":1231:1247   */\n      swap1\n      pop\n        /* \"#utility.yul\":1176:1253   */\n      swap2\n      swap1\n      pop\n      jump\t// out\n        /* \"#utility.yul\":1259:1381   */\n    tag_307:\n        /* \"#utility.yul\":1332:1356   */\n      tag_383\n        /* \"#utility.yul\":1350:1355   */\n      dup2\n        /* \"#utility.yul\":1332:1356   */\n      tag_306\n      jump\t// in\n    tag_383:\n        /* \"#utility.yul\":1325:1330   */\n      dup2\n        /* \"#utility.yul\":1322:1357   */\n      eq\n        /* \"#utility.yul\":1312:1375   */\n      tag_384\n      jumpi\n        /* \"#utility.yul\":1371:1372   */\n      0x00\n        /* \"#utility.yul\":1368:1369   */\n      dup1\n        /* \"#utility.yul\":1361:1373   */\n      revert\n        /* \"#utility.yul\":1312:1375   */\n    tag_384:\n        /* \"#utility.yul\":1259:1381   */\n      pop\n      jump\t// out\n        /* \"#utility.yul\":1387:1526   */\n    tag_308:\n        /* \"#utility.yul\":1433:1438   */\n      0x00\n        /* \"#utility.yul\":1471:1477   */\n      dup2\n        /* \"#utility.yul\":1458:1478   */\n      calldataload\n        /* \"#utility.yul\":1449:1478   */\n      swap1\n      pop\n        /* \"#utility.yul\":1487:1520   */\n      tag_386\n        /* \"#utility.yul\":1514:1519   */\n      dup2\n        /* \"#utility.yul\":1487:1520   */\n      tag_307\n      jump\t// in\n    tag_386:\n        /* \"#utility.yul\":1387:1526   */\n      swap3\n      swap2\n      pop\n      pop\n      jump\t// out\n        /* \"#utility.yul\":1532:2006   */\n    tag_34:\n        /* \"#utility.yul\":1600:1606   */\n      0x00\n        /* \"#utility.yul\":1608:1614   */\n      dup1\n        /* \"#utility.yul\":1657:1659   */\n      0x40\n        /* \"#utility.yul\":1645:1654   */\n      dup4\n        /* \"#utility.yul\":1636:1643   */\n      dup6\n        /* \"#utility.yul\":1632:1655   */\n      sub\n        /* \"#utility.yul\":1628:1660   */\n      slt\n        /* \"#utility.yul\":1625:1744   */\n      iszero\n      tag_388\n      jumpi\n        /* \"#utility.yul\":1663:1742   */\n      tag_389\n      tag_300\n      jump\t// in\n    tag_389:\n        /* \"#utility.yul\":1625:1744   */\n    tag_388:\n        /* \"#utility.yul\":1783:1784   */\n      0x00\n        /* \"#utility.yul\":1808:1861   */\n      tag_390\n        /* \"#utility.yul\":1853:1860   */\n      dup6\n        /* \"#utility.yul\":1844:1850   */\n      dup3\n        /* \"#utility.yul\":1833:1842   */\n      dup7\n        /* \"#utility.yul\":1829:1851   */\n      add\n        /* \"#utility.yul\":1808:1861   */\n      tag_305\n      jump\t// in\n    tag_390:\n        /* \"#utility.yul\":1798:1861   */\n      swap3\n      pop\n        /* \"#utility.yul\":1754:1871   */\n      pop\n        /* \"#utility.yul\":1910:1912   */\n      0x20\n        /* \"#utility.yul\":1936:1989   */\n      tag_391\n        /* \"#utility.yul\":1981:1988   */\n      dup6\n        /* \"#utility.yul\":1972:1978   */\n      dup3\n        /* \"#utility.yul\":1961:1970   */\n      dup7\n        /* \"#utility.yul\":1957:1979   */\n      add\n        /* \"#utility.yul\":1936:1989   */\n      tag_308\n      jump\t// in\n    tag_391:\n        /* \"#utility.yul\":1926:1989   */\n      swap2\n      pop\n        /* \"#utility.yul\":1881:1999   */\n      pop\n        /* \"#utility.yul\":1532:2006   */\n      swap3\n      pop\n      swap3\n      swap1\n      pop\n      jump\t// out\n        /* \"#utility.yul\":2012:2130   */\n    tag_309:\n        /* \"#utility.yul\":2099:2123   */\n      tag_393\n        /* \"#utility.yul\":2117:2122   */\n      dup2\n        /* \"#utility.yul\":2099:2123   */\n      tag_303\n      jump\t// in\n    tag_393:\n        /* \"#utility.yul\":2094:2097   */\n      dup3\n        /* \"#utility.yul\":2087:2124   */\n      mstore\n        /* \"#utility.yul\":2012:2130   */\n      pop\n      pop\n      jump\t// out\n        /* \"#utility.yul\":2136:2358   */\n    tag_39:\n        /* \"#utility.yul\":2229:2233   */\n      0x00\n        /* \"#utility.yul\":2267:2269   */\n      0x20\n        /* \"#utility.yul\":2256:2265   */\n      dup3\n        /* \"#utility.yul\":2252:2270   */\n      add\n        /* \"#utility.yul\":2244:2270   */\n      swap1\n      pop\n        /* \"#utility.yul\":2280:2351   */\n      tag_395\n        /* \"#utility.yul\":2348:2349   */\n      0x00\n        /* \"#utility.yul\":2337:2346   */\n      dup4\n        /* \"#utility.yul\":2333:2350   */\n      add\n        /* \"#utility.yul\":2324:2330   */\n      dup5\n        /* \"#utility.yul\":2280:2351   */\n      tag_309\n      jump\t// in\n    tag_395:\n        /* \"#utility.yul\":2136:2358   */\n      swap3\n      swap2\n      pop\n      pop\n      jump\t// out\n        /* \"#utility.yul\":2364:2983   */\n    tag_44:\n        /* \"#utility.yul\":2441:2447   */\n      0x00\n        /* \"#utility.yul\":2449:2455   */\n      dup1\n        /* \"#utility.yul\":2457:2463   */\n      0x00\n        /* \"#utility.yul\":2506:2508   */\n      0x60\n        /* \"#utility.yul\":2494:2503   */\n      dup5\n        /* \"#utility.yul\":2485:2492   */\n      dup7\n        /* \"#utility.yul\":2481:2504   */\n      sub\n        /* \"#utility.yul\":2477:2509   */\n      slt\n        /* \"#utility.yul\":2474:2593   */\n      iszero\n      tag_397\n      jumpi\n        /* \"#utility.yul\":2512:2591   */\n      tag_398\n      tag_300\n      jump\t// in\n    tag_398:\n        /* \"#utility.yul\":2474:2593   */\n    tag_397:\n        /* \"#utility.yul\":2632:2633   */\n      0x00\n        /* \"#utility.yul\":2657:2710   */\n      tag_399\n        /* \"#utility.yul\":2702:2709   */\n      dup7\n        /* \"#utility.yul\":2693:2699   */\n      dup3\n        /* \"#utility.yul\":2682:2691   */\n      dup8\n        /* \"#utility.yul\":2678:2700   */\n      add\n        /* \"#utility.yul\":2657:2710   */\n      tag_305\n      jump\t// in\n    tag_399:\n        /* \"#utility.yul\":2647:2710   */\n      swap4\n      pop\n        /* \"#utility.yul\":2603:2720   */\n      pop\n        /* \"#utility.yul\":2759:2761   */\n      0x20\n        /* \"#utility.yul\":2785:2838   */\n      tag_400\n        /* \"#utility.yul\":2830:2837   */\n      dup7\n        /* \"#utility.yul\":2821:2827   */\n      dup3\n        /* \"#utility.yul\":2810:2819   */\n      dup8\n        /* \"#utility.yul\":2806:2828   */\n      add\n        /* \"#utility.yul\":2785:2838   */\n      tag_305\n      jump\t// in\n    tag_400:\n        /* \"#utility.yul\":2775:2838   */\n      swap3\n      pop\n        /* \"#utility.yul\":2730:2848   */\n      pop\n        /* \"#utility.yul\":2887:2889   */\n      0x40\n        /* \"#utility.yul\":2913:2966   */\n      tag_401\n        /* \"#utility.yul\":2958:2965   */\n      dup7\n        /* \"#utility.yul\":2949:2955   */\n      dup3\n        /* \"#utility.yul\":2938:2947   */\n      dup8\n        /* \"#utility.yul\":2934:2956   */\n      add\n        /* \"#utility.yul\":2913:2966   */\n      tag_308\n      jump\t// in\n    tag_401:\n        /* \"#utility.yul\":2903:2966   */\n      swap2\n      pop\n        /* \"#utility.yul\":2858:2976   */\n      pop\n        /* \"#utility.yul\":2364:2983   */\n      swap3\n      pop\n      swap3\n      pop\n      swap3\n      jump\t// out\n        /* \"#utility.yul\":2989:3079   */\n    tag_310:\n        /* \"#utility.yul\":3023:3030   */\n      0x00\n        /* \"#utility.yul\":3066:3071   */\n      dup2\n        /* \"#utility.yul\":3059:3072   */\n      iszero\n        /* \"#utility.yul\":3052:3073   */\n      iszero\n        /* \"#utility.yul\":3041:3073   */\n      swap1\n      pop\n        /* \"#utility.yul\":2989:3079   */\n      swap2\n      swap1\n      pop\n      jump\t// out\n        /* \"#utility.yul\":3085:3194   */\n    tag_311:\n        /* \"#utility.yul\":3166:3187   */\n      tag_404\n        /* \"#utility.yul\":3181:3186   */\n      dup2\n        /* \"#utility.yul\":3166:3187   */\n      tag_310\n      jump\t// in\n    tag_404:\n        /* \"#utility.yul\":3161:3164   */\n      dup3\n        /* \"#utility.yul\":3154:3188   */\n      mstore\n        /* \"#utility.yul\":3085:3194   */\n      pop\n      pop\n      jump\t// out\n        /* \"#utility.yul\":3200:3410   */\n    tag_59:\n        /* \"#utility.yul\":3287:3291   */\n      0x00\n        /* \"#utility.yul\":3325:3327   */\n      0x20\n        /* \"#utility.yul\":3314:3323   */\n      dup3\n        /* \"#utility.yul\":3310:3328   */\n      add\n        /* \"#utility.yul\":3302:3328   */\n      swap1\n      pop\n        /* \"#utility.yul\":3338:3403   */\n      tag_406\n        /* \"#utility.yul\":3400:3401   */\n      0x00\n        /* \"#utility.yul\":3389:3398   */\n      dup4\n        /* \"#utility.yul\":3385:3402   */\n      add\n        /* \"#utility.yul\":3376:3382   */\n      dup5\n        /* \"#utility.yul\":3338:3403   */\n      tag_311\n      jump\t// in\n    tag_406:\n        /* \"#utility.yul\":3200:3410   */\n      swap3\n      swap2\n      pop\n      pop\n      jump\t// out\n        /* \"#utility.yul\":3416:3530   */\n    tag_312:\n        /* \"#utility.yul\":3483:3489   */\n      0x00\n        /* \"#utility.yul\":3517:3522   */\n      dup2\n        /* \"#utility.yul\":3511:3523   */\n      mload\n        /* \"#utility.yul\":3501:3523   */\n      swap1\n      pop\n        /* \"#utility.yul\":3416:3530   */\n      swap2\n      swap1\n      pop\n      jump\t// out\n        /* \"#utility.yul\":3536:3720   */\n    tag_313:\n        /* \"#utility.yul\":3635:3646   */\n      0x00\n        /* \"#utility.yul\":3669:3675   */\n      dup3\n        /* \"#utility.yul\":3664:3667   */\n      dup3\n        /* \"#utility.yul\":3657:3676   */\n      mstore\n        /* \"#utility.yul\":3709:3713   */\n      0x20\n        /* \"#utility.yul\":3704:3707   */\n      dup3\n        /* \"#utility.yul\":3700:3714   */\n      add\n        /* \"#utility.yul\":3685:3714   */\n      swap1\n      pop\n        /* \"#utility.yul\":3536:3720   */\n      swap3\n      swap2\n      pop\n      pop\n      jump\t// out\n        /* \"#utility.yul\":3726:3858   */\n    tag_314:\n        /* \"#utility.yul\":3793:3797   */\n      0x00\n        /* \"#utility.yul\":3816:3819   */\n      dup2\n        /* \"#utility.yul\":3808:3819   */\n      swap1\n      pop\n        /* \"#utility.yul\":3846:3850   */\n      0x20\n        /* \"#utility.yul\":3841:3844   */\n      dup3\n        /* \"#utility.yul\":3837:3851   */\n      add\n        /* \"#utility.yul\":3829:3851   */\n      swap1\n      pop\n        /* \"#utility.yul\":3726:3858   */\n      swap2\n      swap1\n      pop\n      jump\t// out\n        /* \"#utility.yul\":3864:3972   */\n    tag_315:\n        /* \"#utility.yul\":3941:3965   */\n      tag_411\n        /* \"#utility.yul\":3959:3964   */\n      dup2\n        /* \"#utility.yul\":3941:3965   */\n      tag_303\n      jump\t// in\n    tag_411:\n        /* \"#utility.yul\":3936:3939   */\n      dup3\n        /* \"#utility.yul\":3929:3966   */\n      mstore\n        /* \"#utility.yul\":3864:3972   */\n      pop\n      pop\n      jump\t// out\n        /* \"#utility.yul\":3978:4157   */\n    tag_316:\n        /* \"#utility.yul\":4047:4057   */\n      0x00\n        /* \"#utility.yul\":4068:4114   */\n      tag_413\n        /* \"#utility.yul\":4110:4113   */\n      dup4\n        /* \"#utility.yul\":4102:4108   */\n      dup4\n        /* \"#utility.yul\":4068:4114   */\n      tag_315\n      jump\t// in\n    tag_413:\n        /* \"#utility.yul\":4146:4150   */\n      0x20\n        /* \"#utility.yul\":4141:4144   */\n      dup4\n        /* \"#utility.yul\":4137:4151   */\n      add\n        /* \"#utility.yul\":4123:4151   */\n      swap1\n      pop\n        /* \"#utility.yul\":3978:4157   */\n      swap3\n      swap2\n      pop\n      pop\n      jump\t// out\n        /* \"#utility.yul\":4163:4276   */\n    tag_317:\n        /* \"#utility.yul\":4233:4237   */\n      0x00\n        /* \"#utility.yul\":4265:4269   */\n      0x20\n        /* \"#utility.yul\":4260:4263   */\n      dup3\n        /* \"#utility.yul\":4256:4270   */\n      add\n        /* \"#utility.yul\":4248:4270   */\n      swap1\n      pop\n        /* \"#utility.yul\":4163:4276   */\n      swap2\n      swap1\n      pop\n      jump\t// out\n        /* \"#utility.yul\":4312:5044   */\n    tag_318:\n        /* \"#utility.yul\":4431:4434   */\n      0x00\n        /* \"#utility.yul\":4460:4514   */\n      tag_416\n        /* \"#utility.yul\":4508:4513   */\n      dup3\n        /* \"#utility.yul\":4460:4514   */\n      tag_312\n      jump\t// in\n    tag_416:\n        /* \"#utility.yul\":4530:4616   */\n      tag_417\n        /* \"#utility.yul\":4609:4615   */\n      dup2\n        /* \"#utility.yul\":4604:4607   */\n      dup6\n        /* \"#utility.yul\":4530:4616   */\n      tag_313\n      jump\t// in\n    tag_417:\n        /* \"#utility.yul\":4523:4616   */\n      swap4\n      pop\n        /* \"#utility.yul\":4640:4696   */\n      tag_418\n        /* \"#utility.yul\":4690:4695   */\n      dup4\n        /* \"#utility.yul\":4640:4696   */\n      tag_314\n      jump\t// in\n    tag_418:\n        /* \"#utility.yul\":4719:4726   */\n      dup1\n        /* \"#utility.yul\":4750:4751   */\n      0x00\n        /* \"#utility.yul\":4735:5019   */\n    tag_419:\n        /* \"#utility.yul\":4760:4766   */\n      dup4\n        /* \"#utility.yul\":4757:4758   */\n      dup2\n        /* \"#utility.yul\":4754:4767   */\n      lt\n        /* \"#utility.yul\":4735:5019   */\n      iszero\n      tag_421\n      jumpi\n        /* \"#utility.yul\":4836:4842   */\n      dup2\n        /* \"#utility.yul\":4830:4843   */\n      mload\n        /* \"#utility.yul\":4863:4926   */\n      tag_422\n        /* \"#utility.yul\":4922:4925   */\n      dup9\n        /* \"#utility.yul\":4907:4920   */\n      dup3\n        /* \"#utility.yul\":4863:4926   */\n      tag_316\n      jump\t// in\n    tag_422:\n        /* \"#utility.yul\":4856:4926   */\n      swap8\n      pop\n        /* \"#utility.yul\":4949:5009   */\n      tag_423\n        /* \"#utility.yul\":5002:5008   */\n      dup4\n        /* \"#utility.yul\":4949:5009   */\n      tag_317\n      jump\t// in\n    tag_423:\n        /* \"#utility.yul\":4939:5009   */\n      swap3\n      pop\n        /* \"#utility.yul\":4795:5019   */\n      pop\n        /* \"#utility.yul\":4782:4783   */\n      0x01\n        /* \"#utility.yul\":4779:4780   */\n      dup2\n        /* \"#utility.yul\":4775:4784   */\n      add\n        /* \"#utility.yul\":4770:4784   */\n      swap1\n      pop\n        /* \"#utility.yul\":4735:5019   */\n      jump(tag_419)\n    tag_421:\n        /* \"#utility.yul\":4739:4753   */\n      pop\n        /* \"#utility.yul\":5035:5038   */\n      dup6\n        /* \"#utility.yul\":5028:5038   */\n      swap4\n      pop\n        /* \"#utility.yul\":4436:5044   */\n      pop\n      pop\n      pop\n        /* \"#utility.yul\":4312:5044   */\n      swap3\n      swap2\n      pop\n      pop\n      jump\t// out\n        /* \"#utility.yul\":5050:5423   */\n    tag_63:\n        /* \"#utility.yul\":5193:5197   */\n      0x00\n        /* \"#utility.yul\":5231:5233   */\n      0x20\n        /* \"#utility.yul\":5220:5229   */\n      dup3\n        /* \"#utility.yul\":5216:5234   */\n      add\n        /* \"#utility.yul\":5208:5234   */\n      swap1\n      pop\n        /* \"#utility.yul\":5280:5289   */\n      dup2\n        /* \"#utility.yul\":5274:5278   */\n      dup2\n        /* \"#utility.yul\":5270:5290   */\n      sub\n        /* \"#utility.yul\":5266:5267   */\n      0x00\n        /* \"#utility.yul\":5255:5264   */\n      dup4\n        /* \"#utility.yul\":5251:5268   */\n      add\n        /* \"#utility.yul\":5244:5291   */\n      mstore\n        /* \"#utility.yul\":5308:5416   */\n      tag_425\n        /* \"#utility.yul\":5411:5415   */\n      dup2\n        /* \"#utility.yul\":5402:5408   */\n      dup5\n        /* \"#utility.yul\":5308:5416   */\n      tag_318\n      jump\t// in\n    tag_425:\n        /* \"#utility.yul\":5300:5416   */\n      swap1\n      pop\n        /* \"#utility.yul\":5050:5423   */\n      swap3\n      swap2\n      pop\n      pop\n      jump\t// out\n        /* \"#utility.yul\":5429:5546   */\n    tag_319:\n        /* \"#utility.yul\":5538:5539   */\n      0x00\n        /* \"#utility.yul\":5535:5536   */\n      dup1\n        /* \"#utility.yul\":5528:5540   */\n      revert\n        /* \"#utility.yul\":5552:5669   */\n    tag_320:\n        /* \"#utility.yul\":5661:5662   */\n      0x00\n        /* \"#utility.yul\":5658:5659   */\n      dup1\n        /* \"#utility.yul\":5651:5663   */\n      revert\n        /* \"#utility.yul\":5675:5792   */\n    tag_321:\n        /* \"#utility.yul\":5784:5785   */\n      0x00\n        /* \"#utility.yul\":5781:5782   */\n      dup1\n        /* \"#utility.yul\":5774:5786   */\n      revert\n        /* \"#utility.yul\":5811:6363   */\n    tag_322:\n        /* \"#utility.yul\":5868:5876   */\n      0x00\n        /* \"#utility.yul\":5878:5884   */\n      dup1\n        /* \"#utility.yul\":5928:5931   */\n      dup4\n        /* \"#utility.yul\":5921:5925   */\n      0x1f\n        /* \"#utility.yul\":5913:5919   */\n      dup5\n        /* \"#utility.yul\":5909:5926   */\n      add\n        /* \"#utility.yul\":5905:5932   */\n      slt\n        /* \"#utility.yul\":5895:6017   */\n      tag_430\n      jumpi\n        /* \"#utility.yul\":5936:6015   */\n      tag_431\n      tag_319\n      jump\t// in\n    tag_431:\n        /* \"#utility.yul\":5895:6017   */\n    tag_430:\n        /* \"#utility.yul\":6049:6055   */\n      dup3\n        /* \"#utility.yul\":6036:6056   */\n      calldataload\n        /* \"#utility.yul\":6026:6056   */\n      swap1\n      pop\n        /* \"#utility.yul\":6079:6097   */\n      0xffffffffffffffff\n        /* \"#utility.yul\":6071:6077   */\n      dup2\n        /* \"#utility.yul\":6068:6098   */\n      gt\n        /* \"#utility.yul\":6065:6182   */\n      iszero\n      tag_432\n      jumpi\n        /* \"#utility.yul\":6101:6180   */\n      tag_433\n      tag_320\n      jump\t// in\n    tag_433:\n        /* \"#utility.yul\":6065:6182   */\n    tag_432:\n        /* \"#utility.yul\":6215:6219   */\n      0x20\n        /* \"#utility.yul\":6207:6213   */\n      dup4\n        /* \"#utility.yul\":6203:6220   */\n      add\n        /* \"#utility.yul\":6191:6220   */\n      swap2\n      pop\n        /* \"#utility.yul\":6269:6272   */\n      dup4\n        /* \"#utility.yul\":6261:6265   */\n      0x01\n        /* \"#utility.yul\":6253:6259   */\n      dup3\n        /* \"#utility.yul\":6249:6266   */\n      mul\n        /* \"#utility.yul\":6239:6247   */\n      dup4\n        /* \"#utility.yul\":6235:6267   */\n      add\n        /* \"#utility.yul\":6232:6273   */\n      gt\n        /* \"#utility.yul\":6229:6357   */\n      iszero\n      tag_434\n      jumpi\n        /* \"#utility.yul\":6276:6355   */\n      tag_435\n      tag_321\n      jump\t// in\n    tag_435:\n        /* \"#utility.yul\":6229:6357   */\n    tag_434:\n        /* \"#utility.yul\":5811:6363   */\n      swap3\n      pop\n      swap3\n      swap1\n      pop\n      jump\t// out\n        /* \"#utility.yul\":6369:7041   */\n    tag_72:\n        /* \"#utility.yul\":6448:6454   */\n      0x00\n        /* \"#utility.yul\":6456:6462   */\n      dup1\n        /* \"#utility.yul\":6464:6470   */\n      0x00\n        /* \"#utility.yul\":6513:6515   */\n      0x40\n        /* \"#utility.yul\":6501:6510   */\n      dup5\n        /* \"#utility.yul\":6492:6499   */\n      dup7\n        /* \"#utility.yul\":6488:6511   */\n      sub\n        /* \"#utility.yul\":6484:6516   */\n      slt\n        /* \"#utility.yul\":6481:6600   */\n      iszero\n      tag_437\n      jumpi\n        /* \"#utility.yul\":6519:6598   */\n      tag_438\n      tag_300\n      jump\t// in\n    tag_438:\n        /* \"#utility.yul\":6481:6600   */\n    tag_437:\n        /* \"#utility.yul\":6667:6668   */\n      0x00\n        /* \"#utility.yul\":6656:6665   */\n      dup5\n        /* \"#utility.yul\":6652:6669   */\n      add\n        /* \"#utility.yul\":6639:6670   */\n      calldataload\n        /* \"#utility.yul\":6697:6715   */\n      0xffffffffffffffff\n        /* \"#utility.yul\":6689:6695   */\n      dup2\n        /* \"#utility.yul\":6686:6716   */\n      gt\n        /* \"#utility.yul\":6683:6800   */\n      iszero\n      tag_439\n      jumpi\n        /* \"#utility.yul\":6719:6798   */\n      tag_440\n      tag_301\n      jump\t// in\n    tag_440:\n        /* \"#utility.yul\":6683:6800   */\n    tag_439:\n        /* \"#utility.yul\":6832:6896   */\n      tag_441\n        /* \"#utility.yul\":6888:6895   */\n      dup7\n        /* \"#utility.yul\":6879:6885   */\n      dup3\n        /* \"#utility.yul\":6868:6877   */\n      dup8\n        /* \"#utility.yul\":6864:6886   */\n      add\n        /* \"#utility.yul\":6832:6896   */\n      tag_322\n      jump\t// in\n    tag_441:\n        /* \"#utility.yul\":6814:6896   */\n      swap4\n      pop\n      swap4\n      pop\n        /* \"#utility.yul\":6610:6906   */\n      pop\n        /* \"#utility.yul\":6945:6947   */\n      0x20\n        /* \"#utility.yul\":6971:7024   */\n      tag_442\n        /* \"#utility.yul\":7016:7023   */\n      dup7\n        /* \"#utility.yul\":7007:7013   */\n      dup3\n        /* \"#utility.yul\":6996:7005   */\n      dup8\n        /* \"#utility.yul\":6992:7014   */\n      add\n        /* \"#utility.yul\":6971:7024   */\n      tag_305\n      jump\t// in\n    tag_442:\n        /* \"#utility.yul\":6961:7024   */\n      swap2\n      pop\n        /* \"#utility.yul\":6916:7034   */\n      pop\n        /* \"#utility.yul\":6369:7041   */\n      swap3\n      pop\n      swap3\n      pop\n      swap3\n      jump\t// out\n        /* \"#utility.yul\":7047:7216   */\n    tag_323:\n        /* \"#utility.yul\":7131:7142   */\n      0x00\n        /* \"#utility.yul\":7165:7171   */\n      dup3\n        /* \"#utility.yul\":7160:7163   */\n      dup3\n        /* \"#utility.yul\":7153:7172   */\n      mstore\n        /* \"#utility.yul\":7205:7209   */\n      0x20\n        /* \"#utility.yul\":7200:7203   */\n      dup3\n        /* \"#utility.yul\":7196:7210   */\n      add\n        /* \"#utility.yul\":7181:7210   */\n      swap1\n      pop\n        /* \"#utility.yul\":7047:7216   */\n      swap3\n      swap2\n      pop\n      pop\n      jump\t// out\n        /* \"#utility.yul\":7222:7403   */\n    tag_324:\n        /* \"#utility.yul\":7362:7395   */\n      0x696e76616c696420617267756d656e74202d207a65726f206164647265737300\n        /* \"#utility.yul\":7358:7359   */\n      0x00\n        /* \"#utility.yul\":7350:7356   */\n      dup3\n        /* \"#utility.yul\":7346:7360   */\n      add\n        /* \"#utility.yul\":7339:7396   */\n      mstore\n        /* \"#utility.yul\":7222:7403   */\n      pop\n      jump\t// out\n        /* \"#utility.yul\":7409:7775   */\n    tag_325:\n        /* \"#utility.yul\":7551:7554   */\n      0x00\n        /* \"#utility.yul\":7572:7639   */\n      tag_446\n        /* \"#utility.yul\":7636:7638   */\n      0x1f\n        /* \"#utility.yul\":7631:7634   */\n      dup4\n        /* \"#utility.yul\":7572:7639   */\n      tag_323\n      jump\t// in\n    tag_446:\n        /* \"#utility.yul\":7565:7639   */\n      swap2\n      pop\n        /* \"#utility.yul\":7648:7741   */\n      tag_447\n        /* \"#utility.yul\":7737:7740   */\n      dup3\n        /* \"#utility.yul\":7648:7741   */\n      tag_324\n      jump\t// in\n    tag_447:\n        /* \"#utility.yul\":7766:7768   */\n      0x20\n        /* \"#utility.yul\":7761:7764   */\n      dup3\n        /* \"#utility.yul\":7757:7769   */\n      add\n        /* \"#utility.yul\":7750:7769   */\n      swap1\n      pop\n        /* \"#utility.yul\":7409:7775   */\n      swap2\n      swap1\n      pop\n      jump\t// out\n        /* \"#utility.yul\":7781:8200   */\n    tag_83:\n        /* \"#utility.yul\":7947:7951   */\n      0x00\n        /* \"#utility.yul\":7985:7987   */\n      0x20\n        /* \"#utility.yul\":7974:7983   */\n      dup3\n        /* \"#utility.yul\":7970:7988   */\n      add\n        /* \"#utility.yul\":7962:7988   */\n      swap1\n      pop\n        /* \"#utility.yul\":8034:8043   */\n      dup2\n        /* \"#utility.yul\":8028:8032   */\n      dup2\n        /* \"#utility.yul\":8024:8044   */\n      sub\n        /* \"#utility.yul\":8020:8021   */\n      0x00\n        /* \"#utility.yul\":8009:8018   */\n      dup4\n        /* \"#utility.yul\":8005:8022   */\n      add\n        /* \"#utility.yul\":7998:8045   */\n      mstore\n        /* \"#utility.yul\":8062:8193   */\n      tag_449\n        /* \"#utility.yul\":8188:8192   */\n      dup2\n        /* \"#utility.yul\":8062:8193   */\n      tag_325\n      jump\t// in\n    tag_449:\n        /* \"#utility.yul\":8054:8193   */\n      swap1\n      pop\n        /* \"#utility.yul\":7781:8200   */\n      swap2\n      swap1\n      pop\n      jump\t// out\n        /* \"#utility.yul\":8206:8376   */\n    tag_326:\n        /* \"#utility.yul\":8346:8368   */\n      0x6d6f64756c6520616c726561647920626f756e64000000000000000000000000\n        /* \"#utility.yul\":8342:8343   */\n      0x00\n        /* \"#utility.yul\":8334:8340   */\n      dup3\n        /* \"#utility.yul\":8330:8344   */\n      add\n        /* \"#utility.yul\":8323:8369   */\n      mstore\n        /* \"#utility.yul\":8206:8376   */\n      pop\n      jump\t// out\n        /* \"#utility.yul\":8382:8748   */\n    tag_327:\n        /* \"#utility.yul\":8524:8527   */\n      0x00\n        /* \"#utility.yul\":8545:8612   */\n      tag_452\n        /* \"#utility.yul\":8609:8611   */\n      0x14\n        /* \"#utility.yul\":8604:8607   */\n      dup4\n        /* \"#utility.yul\":8545:8612   */\n      tag_323\n      jump\t// in\n    tag_452:\n        /* \"#utility.yul\":8538:8612   */\n      swap2\n      pop\n        /* \"#utility.yul\":8621:8714   */\n      tag_453\n        /* \"#utility.yul\":8710:8713   */\n      dup3\n        /* \"#utility.yul\":8621:8714   */\n      tag_326\n      jump\t// in\n    tag_453:\n        /* \"#utility.yul\":8739:8741   */\n      0x20\n        /* \"#utility.yul\":8734:8737   */\n      dup3\n        /* \"#utility.yul\":8730:8742   */\n      add\n        /* \"#utility.yul\":8723:8742   */\n      swap1\n      pop\n        /* \"#utility.yul\":8382:8748   */\n      swap2\n      swap1\n      pop\n      jump\t// out\n        /* \"#utility.yul\":8754:9173   */\n    tag_86:\n        /* \"#utility.yul\":8920:8924   */\n      0x00\n        /* \"#utility.yul\":8958:8960   */\n      0x20\n        /* \"#utility.yul\":8947:8956   */\n      dup3\n        /* \"#utility.yul\":8943:8961   */\n      add\n        /* \"#utility.yul\":8935:8961   */\n      swap1\n      pop\n        /* \"#utility.yul\":9007:9016   */\n      dup2\n        /* \"#utility.yul\":9001:9005   */\n      dup2\n        /* \"#utility.yul\":8997:9017   */\n      sub\n        /* \"#utility.yul\":8993:8994   */\n      0x00\n        /* \"#utility.yul\":8982:8991   */\n      dup4\n        /* \"#utility.yul\":8978:8995   */\n      add\n        /* \"#utility.yul\":8971:9018   */\n      mstore\n        /* \"#utility.yul\":9035:9166   */\n      tag_455\n        /* \"#utility.yul\":9161:9165   */\n      dup2\n        /* \"#utility.yul\":9035:9166   */\n      tag_327\n      jump\t// in\n    tag_455:\n        /* \"#utility.yul\":9027:9166   */\n      swap1\n      pop\n        /* \"#utility.yul\":8754:9173   */\n      swap2\n      swap1\n      pop\n      jump\t// out\n        /* \"#utility.yul\":9179:9360   */\n    tag_328:\n        /* \"#utility.yul\":9319:9352   */\n      0x63616e6e6f7420616464206d6f7265207468616e203235206d6f64756c657300\n        /* \"#utility.yul\":9315:9316   */\n      0x00\n        /* \"#utility.yul\":9307:9313   */\n      dup3\n        /* \"#utility.yul\":9303:9317   */\n      add\n        /* \"#utility.yul\":9296:9353   */\n      mstore\n        /* \"#utility.yul\":9179:9360   */\n      pop\n      jump\t// out\n        /* \"#utility.yul\":9366:9732   */\n    tag_329:\n        /* \"#utility.yul\":9508:9511   */\n      0x00\n        /* \"#utility.yul\":9529:9596   */\n      tag_458\n        /* \"#utility.yul\":9593:9595   */\n      0x1f\n        /* \"#utility.yul\":9588:9591   */\n      dup4\n        /* \"#utility.yul\":9529:9596   */\n      tag_323\n      jump\t// in\n    tag_458:\n        /* \"#utility.yul\":9522:9596   */\n      swap2\n      pop\n        /* \"#utility.yul\":9605:9698   */\n      tag_459\n        /* \"#utility.yul\":9694:9697   */\n      dup3\n        /* \"#utility.yul\":9605:9698   */\n      tag_328\n      jump\t// in\n    tag_459:\n        /* \"#utility.yul\":9723:9725   */\n      0x20\n        /* \"#utility.yul\":9718:9721   */\n      dup3\n        /* \"#utility.yul\":9714:9726   */\n      add\n        /* \"#utility.yul\":9707:9726   */\n      swap1\n      pop\n        /* \"#utility.yul\":9366:9732   */\n      swap2\n      swap1\n      pop\n      jump\t// out\n        /* \"#utility.yul\":9738:10157   */\n    tag_89:\n        /* \"#utility.yul\":9904:9908   */\n      0x00\n        /* \"#utility.yul\":9942:9944   */\n      0x20\n        /* \"#utility.yul\":9931:9940   */\n      dup3\n        /* \"#utility.yul\":9927:9945   */\n      add\n        /* \"#utility.yul\":9919:9945   */\n      swap1\n      pop\n        /* \"#utility.yul\":9991:10000   */\n      dup2\n        /* \"#utility.yul\":9985:9989   */\n      dup2\n        /* \"#utility.yul\":9981:10001   */\n      sub\n        /* \"#utility.yul\":9977:9978   */\n      0x00\n        /* \"#utility.yul\":9966:9975   */\n      dup4\n        /* \"#utility.yul\":9962:9979   */\n      add\n        /* \"#utility.yul\":9955:10002   */\n      mstore\n        /* \"#utility.yul\":10019:10150   */\n      tag_461\n        /* \"#utility.yul\":10145:10149   */\n      dup2\n        /* \"#utility.yul\":10019:10150   */\n      tag_329\n      jump\t// in\n    tag_461:\n        /* \"#utility.yul\":10011:10150   */\n      swap1\n      pop\n        /* \"#utility.yul\":9738:10157   */\n      swap2\n      swap1\n      pop\n      jump\t// out\n        /* \"#utility.yul\":10163:10341   */\n    tag_330:\n        /* \"#utility.yul\":10303:10333   */\n      0x6f6e6c79206f776e6572206f7220746f6b656e2063616e2063616c6c00000000\n        /* \"#utility.yul\":10299:10300   */\n      0x00\n        /* \"#utility.yul\":10291:10297   */\n      dup3\n        /* \"#utility.yul\":10287:10301   */\n      add\n        /* \"#utility.yul\":10280:10334   */\n      mstore\n        /* \"#utility.yul\":10163:10341   */\n      pop\n      jump\t// out\n        /* \"#utility.yul\":10347:10713   */\n    tag_331:\n        /* \"#utility.yul\":10489:10492   */\n      0x00\n        /* \"#utility.yul\":10510:10577   */\n      tag_464\n        /* \"#utility.yul\":10574:10576   */\n      0x1c\n        /* \"#utility.yul\":10569:10572   */\n      dup4\n        /* \"#utility.yul\":10510:10577   */\n      tag_323\n      jump\t// in\n    tag_464:\n        /* \"#utility.yul\":10503:10577   */\n      swap2\n      pop\n        /* \"#utility.yul\":10586:10679   */\n      tag_465\n        /* \"#utility.yul\":10675:10678   */\n      dup3\n        /* \"#utility.yul\":10586:10679   */\n      tag_330\n      jump\t// in\n    tag_465:\n        /* \"#utility.yul\":10704:10706   */\n      0x20\n        /* \"#utility.yul\":10699:10702   */\n      dup3\n        /* \"#utility.yul\":10695:10707   */\n      add\n        /* \"#utility.yul\":10688:10707   */\n      swap1\n      pop\n        /* \"#utility.yul\":10347:10713   */\n      swap2\n      swap1\n      pop\n      jump\t// out\n        /* \"#utility.yul\":10719:11138   */\n    tag_101:\n        /* \"#utility.yul\":10885:10889   */\n      0x00\n        /* \"#utility.yul\":10923:10925   */\n      0x20\n        /* \"#utility.yul\":10912:10921   */\n      dup3\n        /* \"#utility.yul\":10908:10926   */\n      add\n        /* \"#utility.yul\":10900:10926   */\n      swap1\n      pop\n        /* \"#utility.yul\":10972:10981   */\n      dup2\n        /* \"#utility.yul\":10966:10970   */\n      dup2\n        /* \"#utility.yul\":10962:10982   */\n      sub\n        /* \"#utility.yul\":10958:10959   */\n      0x00\n        /* \"#utility.yul\":10947:10956   */\n      dup4\n        /* \"#utility.yul\":10943:10960   */\n      add\n        /* \"#utility.yul\":10936:10983   */\n      mstore\n        /* \"#utility.yul\":11000:11131   */\n      tag_467\n        /* \"#utility.yul\":11126:11130   */\n      dup2\n        /* \"#utility.yul\":11000:11131   */\n      tag_331\n      jump\t// in\n    tag_467:\n        /* \"#utility.yul\":10992:11131   */\n      swap1\n      pop\n        /* \"#utility.yul\":10719:11138   */\n      swap2\n      swap1\n      pop\n      jump\t// out\n        /* \"#utility.yul\":11144:11317   */\n    tag_332:\n        /* \"#utility.yul\":11284:11309   */\n      0x5468697320746f6b656e206973206e6f7420626f756e64000000000000000000\n        /* \"#utility.yul\":11280:11281   */\n      0x00\n        /* \"#utility.yul\":11272:11278   */\n      dup3\n        /* \"#utility.yul\":11268:11282   */\n      add\n        /* \"#utility.yul\":11261:11310   */\n      mstore\n        /* \"#utility.yul\":11144:11317   */\n      pop\n      jump\t// out\n        /* \"#utility.yul\":11323:11689   */\n    tag_333:\n        /* \"#utility.yul\":11465:11468   */\n      0x00\n        /* \"#utility.yul\":11486:11553   */\n      tag_470\n        /* \"#utility.yul\":11550:11552   */\n      0x17\n        /* \"#utility.yul\":11545:11548   */\n      dup4\n        /* \"#utility.yul\":11486:11553   */\n      tag_323\n      jump\t// in\n    tag_470:\n        /* \"#utility.yul\":11479:11553   */\n      swap2\n      pop\n        /* \"#utility.yul\":11562:11655   */\n      tag_471\n        /* \"#utility.yul\":11651:11654   */\n      dup3\n        /* \"#utility.yul\":11562:11655   */\n      tag_332\n      jump\t// in\n    tag_471:\n        /* \"#utility.yul\":11680:11682   */\n      0x20\n        /* \"#utility.yul\":11675:11678   */\n      dup3\n        /* \"#utility.yul\":11671:11683   */\n      add\n        /* \"#utility.yul\":11664:11683   */\n      swap1\n      pop\n        /* \"#utility.yul\":11323:11689   */\n      swap2\n      swap1\n      pop\n      jump\t// out\n        /* \"#utility.yul\":11695:12114   */\n    tag_112:\n        /* \"#utility.yul\":11861:11865   */\n      0x00\n        /* \"#utility.yul\":11899:11901   */\n      0x20\n        /* \"#utility.yul\":11888:11897   */\n      dup3\n        /* \"#utility.yul\":11884:11902   */\n      add\n        /* \"#utility.yul\":11876:11902   */\n      swap1\n      pop\n        /* \"#utility.yul\":11948:11957   */\n      dup2\n        /* \"#utility.yul\":11942:11946   */\n      dup2\n        /* \"#utility.yul\":11938:11958   */\n      sub\n        /* \"#utility.yul\":11934:11935   */\n      0x00\n        /* \"#utility.yul\":11923:11932   */\n      dup4\n        /* \"#utility.yul\":11919:11936   */\n      add\n        /* \"#utility.yul\":11912:11959   */\n      mstore\n        /* \"#utility.yul\":11976:12107   */\n      tag_473\n        /* \"#utility.yul\":12102:12106   */\n      dup2\n        /* \"#utility.yul\":11976:12107   */\n      tag_333\n      jump\t// in\n    tag_473:\n        /* \"#utility.yul\":11968:12107   */\n      swap1\n      pop\n        /* \"#utility.yul\":11695:12114   */\n      swap2\n      swap1\n      pop\n      jump\t// out\n        /* \"#utility.yul\":12120:12412   */\n    tag_334:\n        /* \"#utility.yul\":12260:12294   */\n      0x6572726f72203a20746869732061646472657373206973206e6f74206120746f\n        /* \"#utility.yul\":12256:12257   */\n      0x00\n        /* \"#utility.yul\":12248:12254   */\n      dup3\n        /* \"#utility.yul\":12244:12258   */\n      add\n        /* \"#utility.yul\":12237:12295   */\n      mstore\n        /* \"#utility.yul\":12329:12363   */\n      0x6b656e20626f756e6420746f2074686520636f6d706c69616e636520636f6e74\n        /* \"#utility.yul\":12324:12326   */\n      0x20\n        /* \"#utility.yul\":12316:12322   */\n      dup3\n        /* \"#utility.yul\":12312:12327   */\n      add\n        /* \"#utility.yul\":12305:12364   */\n      mstore\n        /* \"#utility.yul\":12398:12404   */\n      0x7261637400000000000000000000000000000000000000000000000000000000\n        /* \"#utility.yul\":12393:12395   */\n      0x40\n        /* \"#utility.yul\":12385:12391   */\n      dup3\n        /* \"#utility.yul\":12381:12396   */\n      add\n        /* \"#utility.yul\":12374:12405   */\n      mstore\n        /* \"#utility.yul\":12120:12412   */\n      pop\n      jump\t// out\n        /* \"#utility.yul\":12418:12784   */\n    tag_335:\n        /* \"#utility.yul\":12560:12563   */\n      0x00\n        /* \"#utility.yul\":12581:12648   */\n      tag_476\n        /* \"#utility.yul\":12645:12647   */\n      0x44\n        /* \"#utility.yul\":12640:12643   */\n      dup4\n        /* \"#utility.yul\":12581:12648   */\n      tag_323\n      jump\t// in\n    tag_476:\n        /* \"#utility.yul\":12574:12648   */\n      swap2\n      pop\n        /* \"#utility.yul\":12657:12750   */\n      tag_477\n        /* \"#utility.yul\":12746:12749   */\n      dup3\n        /* \"#utility.yul\":12657:12750   */\n      tag_334\n      jump\t// in\n    tag_477:\n        /* \"#utility.yul\":12775:12777   */\n      0x60\n        /* \"#utility.yul\":12770:12773   */\n      dup3\n        /* \"#utility.yul\":12766:12778   */\n      add\n        /* \"#utility.yul\":12759:12778   */\n      swap1\n      pop\n        /* \"#utility.yul\":12418:12784   */\n      swap2\n      swap1\n      pop\n      jump\t// out\n        /* \"#utility.yul\":12790:13209   */\n    tag_119:\n        /* \"#utility.yul\":12956:12960   */\n      0x00\n        /* \"#utility.yul\":12994:12996   */\n      0x20\n        /* \"#utility.yul\":12983:12992   */\n      dup3\n        /* \"#utility.yul\":12979:12997   */\n      add\n        /* \"#utility.yul\":12971:12997   */\n      swap1\n      pop\n        /* \"#utility.yul\":13043:13052   */\n      dup2\n        /* \"#utility.yul\":13037:13041   */\n      dup2\n        /* \"#utility.yul\":13033:13053   */\n      sub\n        /* \"#utility.yul\":13029:13030   */\n      0x00\n        /* \"#utility.yul\":13018:13027   */\n      dup4\n        /* \"#utility.yul\":13014:13031   */\n      add\n        /* \"#utility.yul\":13007:13054   */\n      mstore\n        /* \"#utility.yul\":13071:13202   */\n      tag_479\n        /* \"#utility.yul\":13197:13201   */\n      dup2\n        /* \"#utility.yul\":13071:13202   */\n      tag_335\n      jump\t// in\n    tag_479:\n        /* \"#utility.yul\":13063:13202   */\n      swap1\n      pop\n        /* \"#utility.yul\":12790:13209   */\n      swap2\n      swap1\n      pop\n      jump\t// out\n        /* \"#utility.yul\":13215:13397   */\n    tag_336:\n        /* \"#utility.yul\":13355:13389   */\n      0x696e76616c696420617267756d656e74202d206e6f2076616c7565206d696e74\n        /* \"#utility.yul\":13351:13352   */\n      0x00\n        /* \"#utility.yul\":13343:13349   */\n      dup3\n        /* \"#utility.yul\":13339:13353   */\n      add\n        /* \"#utility.yul\":13332:13390   */\n      mstore\n        /* \"#utility.yul\":13215:13397   */\n      pop\n      jump\t// out\n        /* \"#utility.yul\":13403:13769   */\n    tag_337:\n        /* \"#utility.yul\":13545:13548   */\n      0x00\n        /* \"#utility.yul\":13566:13633   */\n      tag_482\n        /* \"#utility.yul\":13630:13632   */\n      0x20\n        /* \"#utility.yul\":13625:13628   */\n      dup4\n        /* \"#utility.yul\":13566:13633   */\n      tag_323\n      jump\t// in\n    tag_482:\n        /* \"#utility.yul\":13559:13633   */\n      swap2\n      pop\n        /* \"#utility.yul\":13642:13735   */\n      tag_483\n        /* \"#utility.yul\":13731:13734   */\n      dup3\n        /* \"#utility.yul\":13642:13735   */\n      tag_336\n      jump\t// in\n    tag_483:\n        /* \"#utility.yul\":13760:13762   */\n      0x20\n        /* \"#utility.yul\":13755:13758   */\n      dup3\n        /* \"#utility.yul\":13751:13763   */\n      add\n        /* \"#utility.yul\":13744:13763   */\n      swap1\n      pop\n        /* \"#utility.yul\":13403:13769   */\n      swap2\n      swap1\n      pop\n      jump\t// out\n        /* \"#utility.yul\":13775:14194   */\n    tag_125:\n        /* \"#utility.yul\":13941:13945   */\n      0x00\n        /* \"#utility.yul\":13979:13981   */\n      0x20\n        /* \"#utility.yul\":13968:13977   */\n      dup3\n        /* \"#utility.yul\":13964:13982   */\n      add\n        /* \"#utility.yul\":13956:13982   */\n      swap1\n      pop\n        /* \"#utility.yul\":14028:14037   */\n      dup2\n        /* \"#utility.yul\":14022:14026   */\n      dup2\n        /* \"#utility.yul\":14018:14038   */\n      sub\n        /* \"#utility.yul\":14014:14015   */\n      0x00\n        /* \"#utility.yul\":14003:14012   */\n      dup4\n        /* \"#utility.yul\":13999:14016   */\n      add\n        /* \"#utility.yul\":13992:14039   */\n      mstore\n        /* \"#utility.yul\":14056:14187   */\n      tag_485\n        /* \"#utility.yul\":14182:14186   */\n      dup2\n        /* \"#utility.yul\":14056:14187   */\n      tag_337\n      jump\t// in\n    tag_485:\n        /* \"#utility.yul\":14048:14187   */\n      swap1\n      pop\n        /* \"#utility.yul\":13775:14194   */\n      swap2\n      swap1\n      pop\n      jump\t// out\n        /* \"#utility.yul\":14200:14380   */\n    tag_131:\n        /* \"#utility.yul\":14248:14325   */\n      0x4e487b7100000000000000000000000000000000000000000000000000000000\n        /* \"#utility.yul\":14245:14246   */\n      0x00\n        /* \"#utility.yul\":14238:14326   */\n      mstore\n        /* \"#utility.yul\":14345:14349   */\n      0x32\n        /* \"#utility.yul\":14342:14343   */\n      0x04\n        /* \"#utility.yul\":14335:14350   */\n      mstore\n        /* \"#utility.yul\":14369:14373   */\n      0x24\n        /* \"#utility.yul\":14366:14367   */\n      0x00\n        /* \"#utility.yul\":14359:14374   */\n      revert\n        /* \"#utility.yul\":14386:14504   */\n    tag_338:\n        /* \"#utility.yul\":14473:14497   */\n      tag_488\n        /* \"#utility.yul\":14491:14496   */\n      dup2\n        /* \"#utility.yul\":14473:14497   */\n      tag_306\n      jump\t// in\n    tag_488:\n        /* \"#utility.yul\":14468:14471   */\n      dup3\n        /* \"#utility.yul\":14461:14498   */\n      mstore\n        /* \"#utility.yul\":14386:14504   */\n      pop\n      pop\n      jump\t// out\n        /* \"#utility.yul\":14510:14842   */\n    tag_134:\n        /* \"#utility.yul\":14631:14635   */\n      0x00\n        /* \"#utility.yul\":14669:14671   */\n      0x40\n        /* \"#utility.yul\":14658:14667   */\n      dup3\n        /* \"#utility.yul\":14654:14672   */\n      add\n        /* \"#utility.yul\":14646:14672   */\n      swap1\n      pop\n        /* \"#utility.yul\":14682:14753   */\n      tag_490\n        /* \"#utility.yul\":14750:14751   */\n      0x00\n        /* \"#utility.yul\":14739:14748   */\n      dup4\n        /* \"#utility.yul\":14735:14752   */\n      add\n        /* \"#utility.yul\":14726:14732   */\n      dup6\n        /* \"#utility.yul\":14682:14753   */\n      tag_309\n      jump\t// in\n    tag_490:\n        /* \"#utility.yul\":14763:14835   */\n      tag_491\n        /* \"#utility.yul\":14831:14833   */\n      0x20\n        /* \"#utility.yul\":14820:14829   */\n      dup4\n        /* \"#utility.yul\":14816:14834   */\n      add\n        /* \"#utility.yul\":14807:14813   */\n      dup5\n        /* \"#utility.yul\":14763:14835   */\n      tag_338\n      jump\t// in\n    tag_491:\n        /* \"#utility.yul\":14510:14842   */\n      swap4\n      swap3\n      pop\n      pop\n      pop\n      jump\t// out\n        /* \"#utility.yul\":14848:15028   */\n    tag_339:\n        /* \"#utility.yul\":14896:14973   */\n      0x4e487b7100000000000000000000000000000000000000000000000000000000\n        /* \"#utility.yul\":14893:14894   */\n      0x00\n        /* \"#utility.yul\":14886:14974   */\n      mstore\n        /* \"#utility.yul\":14993:14997   */\n      0x11\n        /* \"#utility.yul\":14990:14991   */\n      0x04\n        /* \"#utility.yul\":14983:14998   */\n      mstore\n        /* \"#utility.yul\":15017:15021   */\n      0x24\n        /* \"#utility.yul\":15014:15015   */\n      0x00\n        /* \"#utility.yul\":15007:15022   */\n      revert\n        /* \"#utility.yul\":15034:15267   */\n    tag_139:\n        /* \"#utility.yul\":15073:15076   */\n      0x00\n        /* \"#utility.yul\":15096:15120   */\n      tag_494\n        /* \"#utility.yul\":15114:15119   */\n      dup3\n        /* \"#utility.yul\":15096:15120   */\n      tag_306\n      jump\t// in\n    tag_494:\n        /* \"#utility.yul\":15087:15120   */\n      swap2\n      pop\n        /* \"#utility.yul\":15142:15208   */\n      0xffffffffffffffffffffffffffffffffffffffffffffffffffffffffffffffff\n        /* \"#utility.yul\":15135:15140   */\n      dup3\n        /* \"#utility.yul\":15132:15209   */\n      sub\n        /* \"#utility.yul\":15129:15232   */\n      tag_495\n      jumpi\n        /* \"#utility.yul\":15212:15230   */\n      tag_496\n      tag_339\n      jump\t// in\n    tag_496:\n        /* \"#utility.yul\":15129:15232   */\n    tag_495:\n        /* \"#utility.yul\":15259:15260   */\n      0x01\n        /* \"#utility.yul\":15252:15257   */\n      dup3\n        /* \"#utility.yul\":15248:15261   */\n      add\n        /* \"#utility.yul\":15241:15261   */\n      swap1\n      pop\n        /* \"#utility.yul\":15034:15267   */\n      swap2\n      swap1\n      pop\n      jump\t// out\n        /* \"#utility.yul\":15273:15496   */\n    tag_340:\n        /* \"#utility.yul\":15413:15447   */\n      0x696e76616c696420617267756d656e74202d206e6f2076616c7565207472616e\n        /* \"#utility.yul\":15409:15410   */\n      0x00\n        /* \"#utility.yul\":15401:15407   */\n      dup3\n        /* \"#utility.yul\":15397:15411   */\n      add\n        /* \"#utility.yul\":15390:15448   */\n      mstore\n        /* \"#utility.yul\":15482:15488   */\n      0x7366657200000000000000000000000000000000000000000000000000000000\n        /* \"#utility.yul\":15477:15479   */\n      0x20\n        /* \"#utility.yul\":15469:15475   */\n      dup3\n        /* \"#utility.yul\":15465:15480   */\n      add\n        /* \"#utility.yul\":15458:15489   */\n      mstore\n        /* \"#utility.yul\":15273:15496   */\n      pop\n      jump\t// out\n        /* \"#utility.yul\":15502:15868   */\n    tag_341:\n        /* \"#utility.yul\":15644:15647   */\n      0x00\n        /* \"#utility.yul\":15665:15732   */\n      tag_499\n        /* \"#utility.yul\":15729:15731   */\n      0x24\n        /* \"#utility.yul\":15724:15727   */\n      dup4\n        /* \"#utility.yul\":15665:15732   */\n      tag_323\n      jump\t// in\n    tag_499:\n        /* \"#utility.yul\":15658:15732   */\n      swap2\n      pop\n        /* \"#utility.yul\":15741:15834   */\n      tag_500\n        /* \"#utility.yul\":15830:15833   */\n      dup3\n        /* \"#utility.yul\":15741:15834   */\n      tag_340\n      jump\t// in\n    tag_500:\n        /* \"#utility.yul\":15859:15861   */\n      0x40\n        /* \"#utility.yul\":15854:15857   */\n      dup3\n        /* \"#utility.yul\":15850:15862   */\n      add\n        /* \"#utility.yul\":15843:15862   */\n      swap1\n      pop\n        /* \"#utility.yul\":15502:15868   */\n      swap2\n      swap1\n      pop\n      jump\t// out\n        /* \"#utility.yul\":15874:16293   */\n    tag_155:\n        /* \"#utility.yul\":16040:16044   */\n      0x00\n        /* \"#utility.yul\":16078:16080   */\n      0x20\n        /* \"#utility.yul\":16067:16076   */\n      dup3\n        /* \"#utility.yul\":16063:16081   */\n      add\n        /* \"#utility.yul\":16055:16081   */\n      swap1\n      pop\n        /* \"#utility.yul\":16127:16136   */\n      dup2\n        /* \"#utility.yul\":16121:16125   */\n      dup2\n        /* \"#utility.yul\":16117:16137   */\n      sub\n        /* \"#utility.yul\":16113:16114   */\n      0x00\n        /* \"#utility.yul\":16102:16111   */\n      dup4\n        /* \"#utility.yul\":16098:16115   */\n      add\n        /* \"#utility.yul\":16091:16138   */\n      mstore\n        /* \"#utility.yul\":16155:16286   */\n      tag_502\n        /* \"#utility.yul\":16281:16285   */\n      dup2\n        /* \"#utility.yul\":16155:16286   */\n      tag_341\n      jump\t// in\n    tag_502:\n        /* \"#utility.yul\":16147:16286   */\n      swap1\n      pop\n        /* \"#utility.yul\":15874:16293   */\n      swap2\n      swap1\n      pop\n      jump\t// out\n        /* \"#utility.yul\":16299:16741   */\n    tag_163:\n        /* \"#utility.yul\":16448:16452   */\n      0x00\n        /* \"#utility.yul\":16486:16488   */\n      0x60\n        /* \"#utility.yul\":16475:16484   */\n      dup3\n        /* \"#utility.yul\":16471:16489   */\n      add\n        /* \"#utility.yul\":16463:16489   */\n      swap1\n      pop\n        /* \"#utility.yul\":16499:16570   */\n      tag_504\n        /* \"#utility.yul\":16567:16568   */\n      0x00\n        /* \"#utility.yul\":16556:16565   */\n      dup4\n        /* \"#utility.yul\":16552:16569   */\n      add\n        /* \"#utility.yul\":16543:16549   */\n      dup7\n        /* \"#utility.yul\":16499:16570   */\n      tag_309\n      jump\t// in\n    tag_504:\n        /* \"#utility.yul\":16580:16652   */\n      tag_505\n        /* \"#utility.yul\":16648:16650   */\n      0x20\n        /* \"#utility.yul\":16637:16646   */\n      dup4\n        /* \"#utility.yul\":16633:16651   */\n      add\n        /* \"#utility.yul\":16624:16630   */\n      dup6\n        /* \"#utility.yul\":16580:16652   */\n      tag_309\n      jump\t// in\n    tag_505:\n        /* \"#utility.yul\":16662:16734   */\n      tag_506\n        /* \"#utility.yul\":16730:16732   */\n      0x40\n        /* \"#utility.yul\":16719:16728   */\n      dup4\n        /* \"#utility.yul\":16715:16733   */\n      add\n        /* \"#utility.yul\":16706:16712   */\n      dup5\n        /* \"#utility.yul\":16662:16734   */\n      tag_338\n      jump\t// in\n    tag_506:\n        /* \"#utility.yul\":16299:16741   */\n      swap5\n      swap4\n      pop\n      pop\n      pop\n      pop\n      jump\t// out\n        /* \"#utility.yul\":16747:16929   */\n    tag_342:\n        /* \"#utility.yul\":16887:16921   */\n      0x696e76616c696420617267756d656e74202d206e6f2076616c7565206275726e\n        /* \"#utility.yul\":16883:16884   */\n      0x00\n        /* \"#utility.yul\":16875:16881   */\n      dup3\n        /* \"#utility.yul\":16871:16885   */\n      add\n        /* \"#utility.yul\":16864:16922   */\n      mstore\n        /* \"#utility.yul\":16747:16929   */\n      pop\n      jump\t// out\n        /* \"#utility.yul\":16935:17301   */\n    tag_343:\n        /* \"#utility.yul\":17077:17080   */\n      0x00\n        /* \"#utility.yul\":17098:17165   */\n      tag_509\n        /* \"#utility.yul\":17162:17164   */\n      0x20\n        /* \"#utility.yul\":17157:17160   */\n      dup4\n        /* \"#utility.yul\":17098:17165   */\n      tag_323\n      jump\t// in\n    tag_509:\n        /* \"#utility.yul\":17091:17165   */\n      swap2\n      pop\n        /* \"#utility.yul\":17174:17267   */\n      tag_510\n        /* \"#utility.yul\":17263:17266   */\n      dup3\n        /* \"#utility.yul\":17174:17267   */\n      tag_342\n      jump\t// in\n    tag_510:\n        /* \"#utility.yul\":17292:17294   */\n      0x20\n        /* \"#utility.yul\":17287:17290   */\n      dup3\n        /* \"#utility.yul\":17283:17295   */\n      add\n        /* \"#utility.yul\":17276:17295   */\n      swap1\n      pop\n        /* \"#utility.yul\":16935:17301   */\n      swap2\n      swap1\n      pop\n      jump\t// out\n        /* \"#utility.yul\":17307:17726   */\n    tag_176:\n        /* \"#utility.yul\":17473:17477   */\n      0x00\n        /* \"#utility.yul\":17511:17513   */\n      0x20\n        /* \"#utility.yul\":17500:17509   */\n      dup3\n        /* \"#utility.yul\":17496:17514   */\n      add\n        /* \"#utility.yul\":17488:17514   */\n      swap1\n      pop\n        /* \"#utility.yul\":17560:17569   */\n      dup2\n        /* \"#utility.yul\":17554:17558   */\n      dup2\n        /* \"#utility.yul\":17550:17570   */\n      sub\n        /* \"#utility.yul\":17546:17547   */\n      0x00\n        /* \"#utility.yul\":17535:17544   */\n      dup4\n        /* \"#utility.yul\":17531:17548   */\n      add\n        /* \"#utility.yul\":17524:17571   */\n      mstore\n        /* \"#utility.yul\":17588:17719   */\n      tag_512\n        /* \"#utility.yul\":17714:17718   */\n      dup2\n        /* \"#utility.yul\":17588:17719   */\n      tag_343\n      jump\t// in\n    tag_512:\n        /* \"#utility.yul\":17580:17719   */\n      swap1\n      pop\n        /* \"#utility.yul\":17307:17726   */\n      swap2\n      swap1\n      pop\n      jump\t// out\n        /* \"#utility.yul\":17732:17898   */\n    tag_344:\n        /* \"#utility.yul\":17872:17890   */\n      0x6d6f64756c65206e6f7420626f756e6400000000000000000000000000000000\n        /* \"#utility.yul\":17868:17869   */\n      0x00\n        /* \"#utility.yul\":17860:17866   */\n      dup3\n        /* \"#utility.yul\":17856:17870   */\n      add\n        /* \"#utility.yul\":17849:17891   */\n      mstore\n        /* \"#utility.yul\":17732:17898   */\n      pop\n      jump\t// out\n        /* \"#utility.yul\":17904:18270   */\n    tag_345:\n        /* \"#utility.yul\":18046:18049   */\n      0x00\n        /* \"#utility.yul\":18067:18134   */\n      tag_515\n        /* \"#utility.yul\":18131:18133   */\n      0x10\n        /* \"#utility.yul\":18126:18129   */\n      dup4\n        /* \"#utility.yul\":18067:18134   */\n      tag_323\n      jump\t// in\n    tag_515:\n        /* \"#utility.yul\":18060:18134   */\n      swap2\n      pop\n        /* \"#utility.yul\":18143:18236   */\n      tag_516\n        /* \"#utility.yul\":18232:18235   */\n      dup3\n        /* \"#utility.yul\":18143:18236   */\n      tag_344\n      jump\t// in\n    tag_516:\n        /* \"#utility.yul\":18261:18263   */\n      0x20\n        /* \"#utility.yul\":18256:18259   */\n      dup3\n        /* \"#utility.yul\":18252:18264   */\n      add\n        /* \"#utility.yul\":18245:18264   */\n      swap1\n      pop\n        /* \"#utility.yul\":17904:18270   */\n      swap2\n      swap1\n      pop\n      jump\t// out\n        /* \"#utility.yul\":18276:18695   */\n    tag_196:\n        /* \"#utility.yul\":18442:18446   */\n      0x00\n        /* \"#utility.yul\":18480:18482   */\n      0x20\n        /* \"#utility.yul\":18469:18478   */\n      dup3\n        /* \"#utility.yul\":18465:18483   */\n      add\n        /* \"#utility.yul\":18457:18483   */\n      swap1\n      pop\n        /* \"#utility.yul\":18529:18538   */\n      dup2\n        /* \"#utility.yul\":18523:18527   */\n      dup2\n        /* \"#utility.yul\":18519:18539   */\n      sub\n        /* \"#utility.yul\":18515:18516   */\n      0x00\n        /* \"#utility.yul\":18504:18513   */\n      dup4\n        /* \"#utility.yul\":18500:18517   */\n      add\n        /* \"#utility.yul\":18493:18540   */\n      mstore\n        /* \"#utility.yul\":18557:18688   */\n      tag_518\n        /* \"#utility.yul\":18683:18687   */\n      dup2\n        /* \"#utility.yul\":18557:18688   */\n      tag_345\n      jump\t// in\n    tag_518:\n        /* \"#utility.yul\":18549:18688   */\n      swap1\n      pop\n        /* \"#utility.yul\":18276:18695   */\n      swap2\n      swap1\n      pop\n      jump\t// out\n        /* \"#utility.yul\":18701:18895   */\n    tag_209:\n        /* \"#utility.yul\":18741:18745   */\n      0x00\n        /* \"#utility.yul\":18761:18781   */\n      tag_520\n        /* \"#utility.yul\":18779:18780   */\n      dup3\n        /* \"#utility.yul\":18761:18781   */\n      tag_306\n      jump\t// in\n    tag_520:\n        /* \"#utility.yul\":18756:18781   */\n      swap2\n      pop\n        /* \"#utility.yul\":18795:18815   */\n      tag_521\n        /* \"#utility.yul\":18813:18814   */\n      dup4\n        /* \"#utility.yul\":18795:18815   */\n      tag_306\n      jump\t// in\n    tag_521:\n        /* \"#utility.yul\":18790:18815   */\n      swap3\n      pop\n        /* \"#utility.yul\":18839:18840   */\n      dup3\n        /* \"#utility.yul\":18836:18837   */\n      dup3\n        /* \"#utility.yul\":18832:18841   */\n      sub\n        /* \"#utility.yul\":18824:18841   */\n      swap1\n      pop\n        /* \"#utility.yul\":18863:18864   */\n      dup2\n        /* \"#utility.yul\":18857:18861   */\n      dup2\n        /* \"#utility.yul\":18854:18865   */\n      gt\n        /* \"#utility.yul\":18851:18888   */\n      iszero\n      tag_522\n      jumpi\n        /* \"#utility.yul\":18868:18886   */\n      tag_523\n      tag_339\n      jump\t// in\n    tag_523:\n        /* \"#utility.yul\":18851:18888   */\n    tag_522:\n        /* \"#utility.yul\":18701:18895   */\n      swap3\n      swap2\n      pop\n      pop\n      jump\t// out\n        /* \"#utility.yul\":18901:19081   */\n    tag_218:\n        /* \"#utility.yul\":18949:19026   */\n      0x4e487b7100000000000000000000000000000000000000000000000000000000\n        /* \"#utility.yul\":18946:18947   */\n      0x00\n        /* \"#utility.yul\":18939:19027   */\n      mstore\n        /* \"#utility.yul\":19046:19050   */\n      0x31\n        /* \"#utility.yul\":19043:19044   */\n      0x04\n        /* \"#utility.yul\":19036:19051   */\n      mstore\n        /* \"#utility.yul\":19070:19074   */\n      0x24\n        /* \"#utility.yul\":19067:19068   */\n      0x00\n        /* \"#utility.yul\":19060:19075   */\n      revert\n        /* \"#utility.yul\":19087:19320   */\n    tag_346:\n        /* \"#utility.yul\":19227:19261   */\n      0x496e697469616c697a61626c653a20636f6e747261637420697320616c726561\n        /* \"#utility.yul\":19223:19224   */\n      0x00\n        /* \"#utility.yul\":19215:19221   */\n      dup3\n        /* \"#utility.yul\":19211:19225   */\n      add\n        /* \"#utility.yul\":19204:19262   */\n      mstore\n        /* \"#utility.yul\":19296:19312   */\n      0x647920696e697469616c697a6564000000000000000000000000000000000000\n        /* \"#utility.yul\":19291:19293   */\n      0x20\n        /* \"#utility.yul\":19283:19289   */\n      dup3\n        /* \"#utility.yul\":19279:19294   */\n      add\n        /* \"#utility.yul\":19272:19313   */\n      mstore\n        /* \"#utility.yul\":19087:19320   */\n      pop\n      jump\t// out\n        /* \"#utility.yul\":19326:19692   */\n    tag_347:\n        /* \"#utility.yul\":19468:19471   */\n      0x00\n        /* \"#utility.yul\":19489:19556   */\n      tag_527\n        /* \"#utility.yul\":19553:19555   */\n      0x2e\n        /* \"#utility.yul\":19548:19551   */\n      dup4\n        /* \"#utility.yul\":19489:19556   */\n      tag_323\n      jump\t// in\n    tag_527:\n        /* \"#utility.yul\":19482:19556   */\n      swap2\n      pop\n        /* \"#utility.yul\":19565:19658   */\n      tag_528\n        /* \"#utility.yul\":19654:19657   */\n      dup3\n        /* \"#utility.yul\":19565:19658   */\n      tag_346\n      jump\t// in\n    tag_528:\n        /* \"#utility.yul\":19683:19685   */\n      0x40\n        /* \"#utility.yul\":19678:19681   */\n      dup3\n        /* \"#utility.yul\":19674:19686   */\n      add\n        /* \"#utility.yul\":19667:19686   */\n      swap1\n      pop\n        /* \"#utility.yul\":19326:19692   */\n      swap2\n      swap1\n      pop\n      jump\t// out\n        /* \"#utility.yul\":19698:20117   */\n    tag_233:\n        /* \"#utility.yul\":19864:19868   */\n      0x00\n        /* \"#utility.yul\":19902:19904   */\n      0x20\n        /* \"#utility.yul\":19891:19900   */\n      dup3\n        /* \"#utility.yul\":19887:19905   */\n      add\n        /* \"#utility.yul\":19879:19905   */\n      swap1\n      pop\n        /* \"#utility.yul\":19951:19960   */\n      dup2\n        /* \"#utility.yul\":19945:19949   */\n      dup2\n        /* \"#utility.yul\":19941:19961   */\n      sub\n        /* \"#utility.yul\":19937:19938   */\n      0x00\n        /* \"#utility.yul\":19926:19935   */\n      dup4\n        /* \"#utility.yul\":19922:19939   */\n      add\n        /* \"#utility.yul\":19915:19962   */\n      mstore\n        /* \"#utility.yul\":19979:20110   */\n      tag_530\n        /* \"#utility.yul\":20105:20109   */\n      dup2\n        /* \"#utility.yul\":19979:20110   */\n      tag_347\n      jump\t// in\n    tag_530:\n        /* \"#utility.yul\":19971:20110   */\n      swap1\n      pop\n        /* \"#utility.yul\":19698:20117   */\n      swap2\n      swap1\n      pop\n      jump\t// out\n        /* \"#utility.yul\":20123:20208   */\n    tag_348:\n        /* \"#utility.yul\":20168:20175   */\n      0x00\n        /* \"#utility.yul\":20197:20202   */\n      dup2\n        /* \"#utility.yul\":20186:20202   */\n      swap1\n      pop\n        /* \"#utility.yul\":20123:20208   */\n      swap2\n      swap1\n      pop\n      jump\t// out\n        /* \"#utility.yul\":20214:20300   */\n    tag_349:\n        /* \"#utility.yul\":20249:20256   */\n      0x00\n        /* \"#utility.yul\":20289:20293   */\n      0xff\n        /* \"#utility.yul\":20282:20287   */\n      dup3\n        /* \"#utility.yul\":20278:20294   */\n      and\n        /* \"#utility.yul\":20267:20294   */\n      swap1\n      pop\n        /* \"#utility.yul\":20214:20300   */\n      swap2\n      swap1\n      pop\n      jump\t// out\n        /* \"#utility.yul\":20306:20366   */\n    tag_350:\n        /* \"#utility.yul\":20334:20337   */\n      0x00\n        /* \"#utility.yul\":20355:20360   */\n      dup2\n        /* \"#utility.yul\":20348:20360   */\n      swap1\n      pop\n        /* \"#utility.yul\":20306:20366   */\n      swap2\n      swap1\n      pop\n      jump\t// out\n        /* \"#utility.yul\":20372:20526   */\n    tag_351:\n        /* \"#utility.yul\":20428:20437   */\n      0x00\n        /* \"#utility.yul\":20461:20520   */\n      tag_535\n        /* \"#utility.yul\":20477:20519   */\n      tag_536\n        /* \"#utility.yul\":20486:20518   */\n      tag_537\n        /* \"#utility.yul\":20512:20517   */\n      dup5\n        /* \"#utility.yul\":20486:20518   */\n      tag_348\n      jump\t// in\n    tag_537:\n        /* \"#utility.yul\":20477:20519   */\n      tag_350\n      jump\t// in\n    tag_536:\n        /* \"#utility.yul\":20461:20520   */\n      tag_349\n      jump\t// in\n    tag_535:\n        /* \"#utility.yul\":20448:20520   */\n      swap1\n      pop\n        /* \"#utility.yul\":20372:20526   */\n      swap2\n      swap1\n      pop\n      jump\t// out\n        /* \"#utility.yul\":20532:20675   */\n    tag_352:\n        /* \"#utility.yul\":20625:20668   */\n      tag_539\n        /* \"#utility.yul\":20662:20667   */\n      dup2\n        /* \"#utility.yul\":20625:20668   */\n      tag_351\n      jump\t// in\n    tag_539:\n        /* \"#utility.yul\":20620:20623   */\n      dup3\n        /* \"#utility.yul\":20613:20669   */\n      mstore\n        /* \"#utility.yul\":20532:20675   */\n      pop\n      pop\n      jump\t// out\n        /* \"#utility.yul\":20681:20915   */\n    tag_240:\n        /* \"#utility.yul\":20780:20784   */\n      0x00\n        /* \"#utility.yul\":20818:20820   */\n      0x20\n        /* \"#utility.yul\":20807:20816   */\n      dup3\n        /* \"#utility.yul\":20803:20821   */\n      add\n        /* \"#utility.yul\":20795:20821   */\n      swap1\n      pop\n        /* \"#utility.yul\":20831:20908   */\n      tag_541\n        /* \"#utility.yul\":20905:20906   */\n      0x00\n        /* \"#utility.yul\":20894:20903   */\n      dup4\n        /* \"#utility.yul\":20890:20907   */\n      add\n        /* \"#utility.yul\":20881:20887   */\n      dup5\n        /* \"#utility.yul\":20831:20908   */\n      tag_352\n      jump\t// in\n    tag_541:\n        /* \"#utility.yul\":20681:20915   */\n      swap3\n      swap2\n      pop\n      pop\n      jump\t// out\n        /* \"#utility.yul\":20921:21474   */\n    tag_249:\n        /* \"#utility.yul\":21098:21102   */\n      0x00\n        /* \"#utility.yul\":21136:21139   */\n      0x80\n        /* \"#utility.yul\":21125:21134   */\n      dup3\n        /* \"#utility.yul\":21121:21140   */\n      add\n        /* \"#utility.yul\":21113:21140   */\n      swap1\n      pop\n        /* \"#utility.yul\":21150:21221   */\n      tag_543\n        /* \"#utility.yul\":21218:21219   */\n      0x00\n        /* \"#utility.yul\":21207:21216   */\n      dup4\n        /* \"#utility.yul\":21203:21220   */\n      add\n        /* \"#utility.yul\":21194:21200   */\n      dup8\n        /* \"#utility.yul\":21150:21221   */\n      tag_309\n      jump\t// in\n    tag_543:\n        /* \"#utility.yul\":21231:21303   */\n      tag_544\n        /* \"#utility.yul\":21299:21301   */\n      0x20\n        /* \"#utility.yul\":21288:21297   */\n      dup4\n        /* \"#utility.yul\":21284:21302   */\n      add\n        /* \"#utility.yul\":21275:21281   */\n      dup7\n        /* \"#utility.yul\":21231:21303   */\n      tag_309\n      jump\t// in\n    tag_544:\n        /* \"#utility.yul\":21313:21385   */\n      tag_545\n        /* \"#utility.yul\":21381:21383   */\n      0x40\n        /* \"#utility.yul\":21370:21379   */\n      dup4\n        /* \"#utility.yul\":21366:21384   */\n      add\n        /* \"#utility.yul\":21357:21363   */\n      dup6\n        /* \"#utility.yul\":21313:21385   */\n      tag_338\n      jump\t// in\n    tag_545:\n        /* \"#utility.yul\":21395:21467   */\n      tag_546\n        /* \"#utility.yul\":21463:21465   */\n      0x60\n        /* \"#utility.yul\":21452:21461   */\n      dup4\n        /* \"#utility.yul\":21448:21466   */\n      add\n        /* \"#utility.yul\":21439:21445   */\n      dup5\n        /* \"#utility.yul\":21395:21467   */\n      tag_309\n      jump\t// in\n    tag_546:\n        /* \"#utility.yul\":20921:21474   */\n      swap6\n      swap5\n      pop\n      pop\n      pop\n      pop\n      pop\n      jump\t// out\n        /* \"#utility.yul\":21480:21596   */\n    tag_353:\n        /* \"#utility.yul\":21550:21571   */\n      tag_548\n        /* \"#utility.yul\":21565:21570   */\n      dup2\n        /* \"#utility.yul\":21550:21571   */\n      tag_310\n      jump\t// in\n    tag_548:\n        /* \"#utility.yul\":21543:21548   */\n      dup2\n        /* \"#utility.yul\":21540:21572   */\n      eq\n        /* \"#utility.yul\":21530:21590   */\n      tag_549\n      jumpi\n        /* \"#utility.yul\":21586:21587   */\n      0x00\n        /* \"#utility.yul\":21583:21584   */\n      dup1\n        /* \"#utility.yul\":21576:21588   */\n      revert\n        /* \"#utility.yul\":21530:21590   */\n    tag_549:\n        /* \"#utility.yul\":21480:21596   */\n      pop\n      jump\t// out\n        /* \"#utility.yul\":21602:21739   */\n    tag_354:\n        /* \"#utility.yul\":21656:21661   */\n      0x00\n        /* \"#utility.yul\":21687:21693   */\n      dup2\n        /* \"#utility.yul\":21681:21694   */\n      mload\n        /* \"#utility.yul\":21672:21694   */\n      swap1\n      pop\n        /* \"#utility.yul\":21703:21733   */\n      tag_551\n        /* \"#utility.yul\":21727:21732   */\n      dup2\n        /* \"#utility.yul\":21703:21733   */\n      tag_353\n      jump\t// in\n    tag_551:\n        /* \"#utility.yul\":21602:21739   */\n      swap3\n      swap2\n      pop\n      pop\n      jump\t// out\n        /* \"#utility.yul\":21745:22090   */\n    tag_253:\n        /* \"#utility.yul\":21812:21818   */\n      0x00\n        /* \"#utility.yul\":21861:21863   */\n      0x20\n        /* \"#utility.yul\":21849:21858   */\n      dup3\n        /* \"#utility.yul\":21840:21847   */\n      dup5\n        /* \"#utility.yul\":21836:21859   */\n      sub\n        /* \"#utility.yul\":21832:21864   */\n      slt\n        /* \"#utility.yul\":21829:21948   */\n      iszero\n      tag_553\n      jumpi\n        /* \"#utility.yul\":21867:21946   */\n      tag_554\n      tag_300\n      jump\t// in\n    tag_554:\n        /* \"#utility.yul\":21829:21948   */\n    tag_553:\n        /* \"#utility.yul\":21987:21988   */\n      0x00\n        /* \"#utility.yul\":22012:22073   */\n      tag_555\n        /* \"#utility.yul\":22065:22072   */\n      dup5\n        /* \"#utility.yul\":22056:22062   */\n      dup3\n        /* \"#utility.yul\":22045:22054   */\n      dup6\n        /* \"#utility.yul\":22041:22063   */\n      add\n        /* \"#utility.yul\":22012:22073   */\n      tag_354\n      jump\t// in\n    tag_555:\n        /* \"#utility.yul\":22002:22073   */\n      swap2\n      pop\n        /* \"#utility.yul\":21958:22083   */\n      pop\n        /* \"#utility.yul\":21745:22090   */\n      swap3\n      swap2\n      pop\n      pop\n      jump\t// out\n        /* \"#utility.yul\":22096:22271   */\n    tag_355:\n        /* \"#utility.yul\":22236:22263   */\n      0x63616c6c206f6e6c79206f6e20626f756e64206d6f64756c6500000000000000\n        /* \"#utility.yul\":22232:22233   */\n      0x00\n        /* \"#utility.yul\":22224:22230   */\n      dup3\n        /* \"#utility.yul\":22220:22234   */\n      add\n        /* \"#utility.yul\":22213:22264   */\n      mstore\n        /* \"#utility.yul\":22096:22271   */\n      pop\n      jump\t// out\n        /* \"#utility.yul\":22277:22643   */\n    tag_356:\n        /* \"#utility.yul\":22419:22422   */\n      0x00\n        /* \"#utility.yul\":22440:22507   */\n      tag_558\n        /* \"#utility.yul\":22504:22506   */\n      0x19\n        /* \"#utility.yul\":22499:22502   */\n      dup4\n        /* \"#utility.yul\":22440:22507   */\n      tag_323\n      jump\t// in\n    tag_558:\n        /* \"#utility.yul\":22433:22507   */\n      swap2\n      pop\n        /* \"#utility.yul\":22516:22609   */\n      tag_559\n        /* \"#utility.yul\":22605:22608   */\n      dup3\n        /* \"#utility.yul\":22516:22609   */\n      tag_355\n      jump\t// in\n    tag_559:\n        /* \"#utility.yul\":22634:22636   */\n      0x20\n        /* \"#utility.yul\":22629:22632   */\n      dup3\n        /* \"#utility.yul\":22625:22637   */\n      add\n        /* \"#utility.yul\":22618:22637   */\n      swap1\n      pop\n        /* \"#utility.yul\":22277:22643   */\n      swap2\n      swap1\n      pop\n      jump\t// out\n        /* \"#utility.yul\":22649:23068   */\n    tag_261:\n        /* \"#utility.yul\":22815:22819   */\n      0x00\n        /* \"#utility.yul\":22853:22855   */\n      0x20\n        /* \"#utility.yul\":22842:22851   */\n      dup3\n        /* \"#utility.yul\":22838:22856   */\n      add\n        /* \"#utility.yul\":22830:22856   */\n      swap1\n      pop\n        /* \"#utility.yul\":22902:22911   */\n      dup2\n        /* \"#utility.yul\":22896:22900   */\n      dup2\n        /* \"#utility.yul\":22892:22912   */\n      sub\n        /* \"#utility.yul\":22888:22889   */\n      0x00\n        /* \"#utility.yul\":22877:22886   */\n      dup4\n        /* \"#utility.yul\":22873:22890   */\n      add\n        /* \"#utility.yul\":22866:22913   */\n      mstore\n        /* \"#utility.yul\":22930:23061   */\n      tag_561\n        /* \"#utility.yul\":23056:23060   */\n      dup2\n        /* \"#utility.yul\":22930:23061   */\n      tag_356\n      jump\t// in\n    tag_561:\n        /* \"#utility.yul\":22922:23061   */\n      swap1\n      pop\n        /* \"#utility.yul\":22649:23068   */\n      swap2\n      swap1\n      pop\n      jump\t// out\n        /* \"#utility.yul\":23074:23223   */\n    tag_357:\n        /* \"#utility.yul\":23110:23117   */\n      0x00\n        /* \"#utility.yul\":23150:23216   */\n      0xffffffff00000000000000000000000000000000000000000000000000000000\n        /* \"#utility.yul\":23143:23148   */\n      dup3\n        /* \"#utility.yul\":23139:23217   */\n      and\n        /* \"#utility.yul\":23128:23217   */\n      swap1\n      pop\n        /* \"#utility.yul\":23074:23223   */\n      swap2\n      swap1\n      pop\n      jump\t// out\n        /* \"#utility.yul\":23229:23344   */\n    tag_358:\n        /* \"#utility.yul\":23314:23337   */\n      tag_564\n        /* \"#utility.yul\":23331:23336   */\n      dup2\n        /* \"#utility.yul\":23314:23337   */\n      tag_357\n      jump\t// in\n    tag_564:\n        /* \"#utility.yul\":23309:23312   */\n      dup3\n        /* \"#utility.yul\":23302:23338   */\n      mstore\n        /* \"#utility.yul\":23229:23344   */\n      pop\n      pop\n      jump\t// out\n        /* \"#utility.yul\":23350:23568   */\n    tag_266:\n        /* \"#utility.yul\":23441:23445   */\n      0x00\n        /* \"#utility.yul\":23479:23481   */\n      0x20\n        /* \"#utility.yul\":23468:23477   */\n      dup3\n        /* \"#utility.yul\":23464:23482   */\n      add\n        /* \"#utility.yul\":23456:23482   */\n      swap1\n      pop\n        /* \"#utility.yul\":23492:23561   */\n      tag_566\n        /* \"#utility.yul\":23558:23559   */\n      0x00\n        /* \"#utility.yul\":23547:23556   */\n      dup4\n        /* \"#utility.yul\":23543:23560   */\n      add\n        /* \"#utility.yul\":23534:23540   */\n      dup5\n        /* \"#utility.yul\":23492:23561   */\n      tag_358\n      jump\t// in\n    tag_566:\n        /* \"#utility.yul\":23350:23568   */\n      swap3\n      swap2\n      pop\n      pop\n      jump\t// out\n        /* \"#utility.yul\":23574:23799   */\n    tag_359:\n        /* \"#utility.yul\":23714:23748   */\n      0x4f776e61626c653a206e6577206f776e657220697320746865207a65726f2061\n        /* \"#utility.yul\":23710:23711   */\n      0x00\n        /* \"#utility.yul\":23702:23708   */\n      dup3\n        /* \"#utility.yul\":23698:23712   */\n      add\n        /* \"#utility.yul\":23691:23749   */\n      mstore\n        /* \"#utility.yul\":23783:23791   */\n      0x6464726573730000000000000000000000000000000000000000000000000000\n        /* \"#utility.yul\":23778:23780   */\n      0x20\n        /* \"#utility.yul\":23770:23776   */\n      dup3\n        /* \"#utility.yul\":23766:23781   */\n      add\n        /* \"#utility.yul\":23759:23792   */\n      mstore\n        /* \"#utility.yul\":23574:23799   */\n      pop\n      jump\t// out\n        /* \"#utility.yul\":23805:24171   */\n    tag_360:\n        /* \"#utility.yul\":23947:23950   */\n      0x00\n        /* \"#utility.yul\":23968:24035   */\n      tag_569\n        /* \"#utility.yul\":24032:24034   */\n      0x26\n        /* \"#utility.yul\":24027:24030   */\n      dup4\n        /* \"#utility.yul\":23968:24035   */\n      tag_323\n      jump\t// in\n    tag_569:\n        /* \"#utility.yul\":23961:24035   */\n      swap2\n      pop\n        /* \"#utility.yul\":24044:24137   */\n      tag_570\n        /* \"#utility.yul\":24133:24136   */\n      dup3\n        /* \"#utility.yul\":24044:24137   */\n      tag_359\n      jump\t// in\n    tag_570:\n        /* \"#utility.yul\":24162:24164   */\n      0x40\n        /* \"#utility.yul\":24157:24160   */\n      dup3\n        /* \"#utility.yul\":24153:24165   */\n      add\n        /* \"#utility.yul\":24146:24165   */\n      swap1\n      pop\n        /* \"#utility.yul\":23805:24171   */\n      swap2\n      swap1\n      pop\n      jump\t// out\n        /* \"#utility.yul\":24177:24596   */\n    tag_272:\n        /* \"#utility.yul\":24343:24347   */\n      0x00\n        /* \"#utility.yul\":24381:24383   */\n      0x20\n        /* \"#utility.yul\":24370:24379   */\n      dup3\n        /* \"#utility.yul\":24366:24384   */\n      add\n        /* \"#utility.yul\":24358:24384   */\n      swap1\n      pop\n        /* \"#utility.yul\":24430:24439   */\n      dup2\n        /* \"#utility.yul\":24424:24428   */\n      dup2\n        /* \"#utility.yul\":24420:24440   */\n      sub\n        /* \"#utility.yul\":24416:24417   */\n      0x00\n        /* \"#utility.yul\":24405:24414   */\n      dup4\n        /* \"#utility.yul\":24401:24418   */\n      add\n        /* \"#utility.yul\":24394:24441   */\n      mstore\n        /* \"#utility.yul\":24458:24589   */\n      tag_572\n        /* \"#utility.yul\":24584:24588   */\n      dup2\n        /* \"#utility.yul\":24458:24589   */\n      tag_360\n      jump\t// in\n    tag_572:\n        /* \"#utility.yul\":24450:24589   */\n      swap1\n      pop\n        /* \"#utility.yul\":24177:24596   */\n      swap2\n      swap1\n      pop\n      jump\t// out\n        /* \"#utility.yul\":24602:24784   */\n    tag_361:\n        /* \"#utility.yul\":24742:24776   */\n      0x4f776e61626c653a2063616c6c6572206973206e6f7420746865206f776e6572\n        /* \"#utility.yul\":24738:24739   */\n      0x00\n        /* \"#utility.yul\":24730:24736   */\n      dup3\n        /* \"#utility.yul\":24726:24740   */\n      add\n        /* \"#utility.yul\":24719:24777   */\n      mstore\n        /* \"#utility.yul\":24602:24784   */\n      pop\n      jump\t// out\n        /* \"#utility.yul\":24790:25156   */\n    tag_362:\n        /* \"#utility.yul\":24932:24935   */\n      0x00\n        /* \"#utility.yul\":24953:25020   */\n      tag_575\n        /* \"#utility.yul\":25017:25019   */\n      0x20\n        /* \"#utility.yul\":25012:25015   */\n      dup4\n        /* \"#utility.yul\":24953:25020   */\n      tag_323\n      jump\t// in\n    tag_575:\n        /* \"#utility.yul\":24946:25020   */\n      swap2\n      pop\n        /* \"#utility.yul\":25029:25122   */\n      tag_576\n        /* \"#utility.yul\":25118:25121   */\n      dup3\n        /* \"#utility.yul\":25029:25122   */\n      tag_361\n      jump\t// in\n    tag_576:\n        /* \"#utility.yul\":25147:25149   */\n      0x20\n        /* \"#utility.yul\":25142:25145   */\n      dup3\n        /* \"#utility.yul\":25138:25150   */\n      add\n        /* \"#utility.yul\":25131:25150   */\n      swap1\n      pop\n        /* \"#utility.yul\":24790:25156   */\n      swap2\n      swap1\n      pop\n      jump\t// out\n        /* \"#utility.yul\":25162:25581   */\n    tag_280:\n        /* \"#utility.yul\":25328:25332   */\n      0x00\n        /* \"#utility.yul\":25366:25368   */\n      0x20\n        /* \"#utility.yul\":25355:25364   */\n      dup3\n        /* \"#utility.yul\":25351:25369   */\n      add\n        /* \"#utility.yul\":25343:25369   */\n      swap1\n      pop\n        /* \"#utility.yul\":25415:25424   */\n      dup2\n        /* \"#utility.yul\":25409:25413   */\n      dup2\n        /* \"#utility.yul\":25405:25425   */\n      sub\n        /* \"#utility.yul\":25401:25402   */\n      0x00\n        /* \"#utility.yul\":25390:25399   */\n      dup4\n        /* \"#utility.yul\":25386:25403   */\n      add\n        /* \"#utility.yul\":25379:25426   */\n      mstore\n        /* \"#utility.yul\":25443:25574   */\n      tag_578\n        /* \"#utility.yul\":25569:25573   */\n      dup2\n        /* \"#utility.yul\":25443:25574   */\n      tag_362\n      jump\t// in\n    tag_578:\n        /* \"#utility.yul\":25435:25574   */\n      swap1\n      pop\n        /* \"#utility.yul\":25162:25581   */\n      swap2\n      swap1\n      pop\n      jump\t// out\n        /* \"#utility.yul\":25587:25817   */\n    tag_363:\n        /* \"#utility.yul\":25727:25761   */\n      0x496e697469616c697a61626c653a20636f6e7472616374206973206e6f742069\n        /* \"#utility.yul\":25723:25724   */\n      0x00\n        /* \"#utility.yul\":25715:25721   */\n      dup3\n        /* \"#utility.yul\":25711:25725   */\n      add\n        /* \"#utility.yul\":25704:25762   */\n      mstore\n        /* \"#utility.yul\":25796:25809   */\n      0x6e697469616c697a696e67000000000000000000000000000000000000000000\n        /* \"#utility.yul\":25791:25793   */\n      0x20\n        /* \"#utility.yul\":25783:25789   */\n      dup3\n        /* \"#utility.yul\":25779:25794   */\n      add\n        /* \"#utility.yul\":25772:25810   */\n      mstore\n        /* \"#utility.yul\":25587:25817   */\n      pop\n      jump\t// out\n        /* \"#utility.yul\":25823:26189   */\n    tag_364:\n        /* \"#utility.yul\":25965:25968   */\n      0x00\n        /* \"#utility.yul\":25986:26053   */\n      tag_581\n        /* \"#utility.yul\":26050:26052   */\n      0x2b\n        /* \"#utility.yul\":26045:26048   */\n      dup4\n        /* \"#utility.yul\":25986:26053   */\n      tag_323\n      jump\t// in\n    tag_581:\n        /* \"#utility.yul\":25979:26053   */\n      swap2\n      pop\n        /* \"#utility.yul\":26062:26155   */\n      tag_582\n        /* \"#utility.yul\":26151:26154   */\n      dup3\n        /* \"#utility.yul\":26062:26155   */\n      tag_363\n      jump\t// in\n    tag_582:\n        /* \"#utility.yul\":26180:26182   */\n      0x40\n        /* \"#utility.yul\":26175:26178   */\n      dup3\n        /* \"#utility.yul\":26171:26183   */\n      add\n        /* \"#utility.yul\":26164:26183   */\n      swap1\n      pop\n        /* \"#utility.yul\":25823:26189   */\n      swap2\n      swap1\n      pop\n      jump\t// out\n        /* \"#utility.yul\":26195:26614   */\n    tag_286:\n        /* \"#utility.yul\":26361:26365   */\n      0x00\n        /* \"#utility.yul\":26399:26401   */\n      0x20\n        /* \"#utility.yul\":26388:26397   */\n      dup3\n        /* \"#utility.yul\":26384:26402   */\n      add\n        /* \"#utility.yul\":26376:26402   */\n      swap1\n      pop\n        /* \"#utility.yul\":26448:26457   */\n      dup2\n        /* \"#utility.yul\":26442:26446   */\n      dup2\n        /* \"#utility.yul\":26438:26458   */\n      sub\n        /* \"#utility.yul\":26434:26435   */\n      0x00\n        /* \"#utility.yul\":26423:26432   */\n      dup4\n        /* \"#utility.yul\":26419:26436   */\n      add\n        /* \"#utility.yul\":26412:26459   */\n      mstore\n        /* \"#utility.yul\":26476:26607   */\n      tag_584\n        /* \"#utility.yul\":26602:26606   */\n      dup2\n        /* \"#utility.yul\":26476:26607   */\n      tag_364\n      jump\t// in\n    tag_584:\n        /* \"#utility.yul\":26468:26607   */\n      swap1\n      pop\n        /* \"#utility.yul\":26195:26614   */\n      swap2\n      swap1\n      pop\n      jump\t// out\n\n    auxdata: 0xa2646970667358221220c41bd18e8839c10f231112c8dab38e7542361698242bbc7605f39cfbc3c5075e64736f6c63430008110033\n}\n",
				"bytecode": {
					"linkReferences": {},
					"object": "608060405234801561001057600080fd5b506128c5806100206000396000f3fe608060405234801561001057600080fd5b50600436106101005760003560e01c80638da5cb5b11610097578063e1c7392a11610066578063e1c7392a1461025d578063e46638e614610267578063efb22d3314610297578063f2fde38b146102b357610100565b80638da5cb5b146101d5578063a0632461146101f3578063a446d49f1461020f578063b2494df31461023f57610100565b80636a3edf28116100d35780636a3edf2814610175578063715018a6146101935780638baf29b41461019d5780638d2ea772146101b957610100565b80631ed86f19146101055780633ff5aa021461012157806340db3b501461013d5780635f8dead314610159575b600080fd5b61011f600480360381019061011a9190611b72565b6102cf565b005b61013b60048036038101906101369190611b72565b610588565b005b61015760048036038101906101529190611b72565b610777565b005b610173600480360381019061016e9190611bd5565b610980565b005b61017d610b9b565b60405161018a9190611c24565b60405180910390f35b61019b610bc5565b005b6101b760048036038101906101b29190611c3f565b610bd9565b005b6101d360048036038101906101ce9190611bd5565b610e31565b005b6101dd61104c565b6040516101ea9190611c24565b60405180910390f35b61020d60048036038101906102089190611b72565b611076565b005b61022960048036038101906102249190611b72565b611410565b6040516102369190611cad565b60405180910390f35b610247611466565b6040516102549190611d86565b60405180910390f35b6102656114f4565b005b610281600480360381019061027c9190611c3f565b611632565b60405161028e9190611cad565b60405180910390f35b6102b160048036038101906102ac9190611e0d565b611736565b005b6102cd60048036038101906102c89190611b72565b611846565b005b6102d76118c9565b600073ffffffffffffffffffffffffffffffffffffffff168173ffffffffffffffffffffffffffffffffffffffff1603610346576040517f08c379a000000000000000000000000000000000000000000000000000000000815260040161033d90611eca565b60405180910390fd5b606760008273ffffffffffffffffffffffffffffffffffffffff1673ffffffffffffffffffffffffffffffffffffffff16815260200190815260200160002060009054906101000a900460ff16156103d3576040517f08c379a00000000000000000000000000000000000000000000000000000000081526004016103ca90611f36565b60405180910390fd5b6018606680549050111561041c576040517f08c379a000000000000000000000000000000000000000000000000000000000815260040161041390611fa2565b60405180910390fd5b8073ffffffffffffffffffffffffffffffffffffffff16634a932544306040518263ffffffff1660e01b81526004016104559190611c24565b600060405180830381600087803b15801561046f57600080fd5b505af1158015610483573d6000803e3d6000fd5b505050506066819080600181540180825580915050600190039060005260206000200160009091909190916101000a81548173ffffffffffffffffffffffffffffffffffffffff021916908373ffffffffffffffffffffffffffffffffffffffff1602179055506001606760008373ffffffffffffffffffffffffffffffffffffffff1673ffffffffffffffffffffffffffffffffffffffff16815260200190815260200160002060006101000a81548160ff0219169083151502179055508073ffffffffffffffffffffffffffffffffffffffff167fead6a006345da1073a106d5f32372d2d2204f46cb0b4bca8f5ebafcbbed12b8a60405160405180910390a250565b3373ffffffffffffffffffffffffffffffffffffffff166105a761104c565b73ffffffffffffffffffffffffffffffffffffffff16148061064e5750600073ffffffffffffffffffffffffffffffffffffffff16606560009054906101000a900473ffffffffffffffffffffffffffffffffffffffff1673ffffffffffffffffffffffffffffffffffffffff1614801561064d57508073ffffffffffffffffffffffffffffffffffffffff163373ffffffffffffffffffffffffffffffffffffffff16145b5b61068d576040517f08c379a00000000000000000000000000000000000000000000000000000000081526004016106849061200e565b60405180910390fd5b600073ffffffffffffffffffffffffffffffffffffffff168173ffffffffffffffffffffffffffffffffffffffff16036106fc576040517f08c379a00000000000000000000000000000000000000000000000000000000081526004016106f390611eca565b60405180910390fd5b80606560006101000a81548173ffffffffffffffffffffffffffffffffffffffff021916908373ffffffffffffffffffffffffffffffffffffffff1602179055507f2de35142b19ed5a07796cf30791959c592018f70b1d2d7c460eef8ffe713692b8160405161076c9190611c24565b60405180910390a150565b3373ffffffffffffffffffffffffffffffffffffffff1661079661104c565b73ffffffffffffffffffffffffffffffffffffffff1614806107e357508073ffffffffffffffffffffffffffffffffffffffff163373ffffffffffffffffffffffffffffffffffffffff16145b610822576040517f08c379a00000000000000000000000000000000000000000000000000000000081526004016108199061200e565b60405180910390fd5b606560009054906101000a900473ffffffffffffffffffffffffffffffffffffffff1673ffffffffffffffffffffffffffffffffffffffff168173ffffffffffffffffffffffffffffffffffffffff16146108b2576040517f08c379a00000000000000000000000000000000000000000000000000000000081526004016108a99061207a565b60405180910390fd5b600073ffffffffffffffffffffffffffffffffffffffff168173ffffffffffffffffffffffffffffffffffffffff1603610921576040517f08c379a000000000000000000000000000000000000000000000000000000000815260040161091890611eca565b60405180910390fd5b606560006101000a81549073ffffffffffffffffffffffffffffffffffffffff02191690557f28a4ca7134a3b3f9aff286e79ad3daadb4a06d1b43d037a3a98bdc074edd9b7a816040516109759190611c24565b60405180910390a150565b606560009054906101000a900473ffffffffffffffffffffffffffffffffffffffff1673ffffffffffffffffffffffffffffffffffffffff163373ffffffffffffffffffffffffffffffffffffffff1614610a10576040517f08c379a0000000000000000000000000000000000000000000000000000000008152600401610a0790612132565b60405180910390fd5b600073ffffffffffffffffffffffffffffffffffffffff168273ffffffffffffffffffffffffffffffffffffffff1603610a7f576040517f08c379a0000000000000000000000000000000000000000000000000000000008152600401610a7690611eca565b60405180910390fd5b60008111610ac2576040517f08c379a0000000000000000000000000000000000000000000000000000000008152600401610ab99061219e565b60405180910390fd5b6000606680549050905060005b81811015610b955760668181548110610aeb57610aea6121be565b5b9060005260206000200160009054906101000a900473ffffffffffffffffffffffffffffffffffffffff1673ffffffffffffffffffffffffffffffffffffffff1663f104a8c985856040518363ffffffff1660e01b8152600401610b509291906121fc565b600060405180830381600087803b158015610b6a57600080fd5b505af1158015610b7e573d6000803e3d6000fd5b505050508080610b8d90612254565b915050610acf565b50505050565b6000606560009054906101000a900473ffffffffffffffffffffffffffffffffffffffff16905090565b610bcd6118c9565b610bd76000611947565b565b606560009054906101000a900473ffffffffffffffffffffffffffffffffffffffff1673ffffffffffffffffffffffffffffffffffffffff163373ffffffffffffffffffffffffffffffffffffffff1614610c69576040517f08c379a0000000000000000000000000000000000000000000000000000000008152600401610c6090612132565b60405180910390fd5b600073ffffffffffffffffffffffffffffffffffffffff168373ffffffffffffffffffffffffffffffffffffffff1614158015610cd35750600073ffffffffffffffffffffffffffffffffffffffff168273ffffffffffffffffffffffffffffffffffffffff1614155b610d12576040517f08c379a0000000000000000000000000000000000000000000000000000000008152600401610d0990611eca565b60405180910390fd5b60008111610d55576040517f08c379a0000000000000000000000000000000000000000000000000000000008152600401610d4c9061230e565b60405180910390fd5b6000606680549050905060005b81811015610e2a5760668181548110610d7e57610d7d6121be565b5b9060005260206000200160009054906101000a900473ffffffffffffffffffffffffffffffffffffffff1673ffffffffffffffffffffffffffffffffffffffff16632cb7e1ec8686866040518463ffffffff1660e01b8152600401610de59392919061232e565b600060405180830381600087803b158015610dff57600080fd5b505af1158015610e13573d6000803e3d6000fd5b505050508080610e2290612254565b915050610d62565b5050505050565b606560009054906101000a900473ffffffffffffffffffffffffffffffffffffffff1673ffffffffffffffffffffffffffffffffffffffff163373ffffffffffffffffffffffffffffffffffffffff1614610ec1576040517f08c379a0000000000000000000000000000000000000000000000000000000008152600401610eb890612132565b60405180910390fd5b600073ffffffffffffffffffffffffffffffffffffffff168273ffffffffffffffffffffffffffffffffffffffff1603610f30576040517f08c379a0000000000000000000000000000000000000000000000000000000008152600401610f2790611eca565b60405180910390fd5b60008111610f73576040517f08c379a0000000000000000000000000000000000000000000000000000000008152600401610f6a906123b1565b60405180910390fd5b6000606680549050905060005b818110156110465760668181548110610f9c57610f9b6121be565b5b9060005260206000200160009054906101000a900473ffffffffffffffffffffffffffffffffffffffff1673ffffffffffffffffffffffffffffffffffffffff1663372491a285856040518363ffffffff1660e01b81526004016110019291906121fc565b600060405180830381600087803b15801561101b57600080fd5b505af115801561102f573d6000803e3d6000fd5b50505050808061103e90612254565b915050610f80565b50505050565b6000603360009054906101000a900473ffffffffffffffffffffffffffffffffffffffff16905090565b61107e6118c9565b600073ffffffffffffffffffffffffffffffffffffffff168173ffffffffffffffffffffffffffffffffffffffff16036110ed576040517f08c379a00000000000000000000000000000000000000000000000000000000081526004016110e490611eca565b60405180910390fd5b606760008273ffffffffffffffffffffffffffffffffffffffff1673ffffffffffffffffffffffffffffffffffffffff16815260200190815260200160002060009054906101000a900460ff16611179576040517f08c379a00000000000000000000000000000000000000000000000000000000081526004016111709061241d565b60405180910390fd5b6000606680549050905060005b8181101561140b578273ffffffffffffffffffffffffffffffffffffffff16606682815481106111b9576111b86121be565b5b9060005260206000200160009054906101000a900473ffffffffffffffffffffffffffffffffffffffff1673ffffffffffffffffffffffffffffffffffffffff16036113f8578273ffffffffffffffffffffffffffffffffffffffff16630694a5fb306040518263ffffffff1660e01b81526004016112389190611c24565b600060405180830381600087803b15801561125257600080fd5b505af1158015611266573d6000803e3d6000fd5b505050506066600183611279919061243d565b8154811061128a576112896121be565b5b9060005260206000200160009054906101000a900473ffffffffffffffffffffffffffffffffffffffff16606682815481106112c9576112c86121be565b5b9060005260206000200160006101000a81548173ffffffffffffffffffffffffffffffffffffffff021916908373ffffffffffffffffffffffffffffffffffffffff160217905550606680548061132357611322612471565b5b6001900381819060005260206000200160006101000a81549073ffffffffffffffffffffffffffffffffffffffff021916905590556000606760008573ffffffffffffffffffffffffffffffffffffffff1673ffffffffffffffffffffffffffffffffffffffff16815260200190815260200160002060006101000a81548160ff0219169083151502179055508273ffffffffffffffffffffffffffffffffffffffff167f0a1ee69f55c33d8467c69ca59ce2007a737a88603d75392972520bf67cb513b860405160405180910390a261140b565b808061140390612254565b915050611186565b505050565b6000606760008373ffffffffffffffffffffffffffffffffffffffff1673ffffffffffffffffffffffffffffffffffffffff16815260200190815260200160002060009054906101000a900460ff169050919050565b606060668054806020026020016040519081016040528092919081815260200182805480156114ea57602002820191906000526020600020905b8160009054906101000a900473ffffffffffffffffffffffffffffffffffffffff1673ffffffffffffffffffffffffffffffffffffffff16815260200190600101908083116114a0575b5050505050905090565b60008060019054906101000a900460ff161590508080156115255750600160008054906101000a900460ff1660ff16105b80611552575061153430611a0d565b1580156115515750600160008054906101000a900460ff1660ff16145b5b611591576040517f08c379a000000000000000000000000000000000000000000000000000000000815260040161158890612512565b60405180910390fd5b60016000806101000a81548160ff021916908360ff16021790555080156115ce576001600060016101000a81548160ff0219169083151502179055505b6115d6611a30565b801561162f5760008060016101000a81548160ff0219169083151502179055507f7f26b83ff96e1f2b6a682f133852f6798a09c465da95921460cefb384740249860016040516116269190612584565b60405180910390a15b50565b600080606680549050905060005b81811015611728576066818154811061165c5761165b6121be565b5b9060005260206000200160009054906101000a900473ffffffffffffffffffffffffffffffffffffffff1673ffffffffffffffffffffffffffffffffffffffff1663013b7ce4878787306040518563ffffffff1660e01b81526004016116c5949392919061259f565b602060405180830381865afa1580156116e2573d6000803e3d6000fd5b505050506040513d601f19601f820116820180604052508101906117069190612610565b6117155760009250505061172f565b808061172090612254565b915050611640565b5060019150505b9392505050565b61173e6118c9565b606760008273ffffffffffffffffffffffffffffffffffffffff1673ffffffffffffffffffffffffffffffffffffffff16815260200190815260200160002060009054906101000a900460ff166117ca576040517f08c379a00000000000000000000000000000000000000000000000000000000081526004016117c190612689565b60405180910390fd5b6040518284823760008084836000865af16117e9573d6000803e3d6000fd5b508073ffffffffffffffffffffffffffffffffffffffff167f20d79de70adcc6e9353d8a9a5646b46dc352710d0a310b1ad1f67faeca7ef89161182c8585611a89565b60405161183991906126e4565b60405180910390a2505050565b61184e6118c9565b600073ffffffffffffffffffffffffffffffffffffffff168173ffffffffffffffffffffffffffffffffffffffff16036118bd576040517f08c379a00000000000000000000000000000000000000000000000000000000081526004016118b490612771565b60405180910390fd5b6118c681611947565b50565b6118d1611aa1565b73ffffffffffffffffffffffffffffffffffffffff166118ef61104c565b73ffffffffffffffffffffffffffffffffffffffff1614611945576040517f08c379a000000000000000000000000000000000000000000000000000000000815260040161193c906127dd565b60405180910390fd5b565b6000603360009054906101000a900473ffffffffffffffffffffffffffffffffffffffff16905081603360006101000a81548173ffffffffffffffffffffffffffffffffffffffff021916908373ffffffffffffffffffffffffffffffffffffffff1602179055508173ffffffffffffffffffffffffffffffffffffffff168173ffffffffffffffffffffffffffffffffffffffff167f8be0079c531659141344cd1fd0a4f28419497f9722a3daafe3b4186f6b6457e060405160405180910390a35050565b6000808273ffffffffffffffffffffffffffffffffffffffff163b119050919050565b600060019054906101000a900460ff16611a7f576040517f08c379a0000000000000000000000000000000000000000000000000000000008152600401611a769061286f565b60405180910390fd5b611a87611aa9565b565b600060048383905010611a9b57823590505b92915050565b600033905090565b600060019054906101000a900460ff16611af8576040517f08c379a0000000000000000000000000000000000000000000000000000000008152600401611aef9061286f565b60405180910390fd5b611b08611b03611aa1565b611947565b565b600080fd5b600080fd5b600073ffffffffffffffffffffffffffffffffffffffff82169050919050565b6000611b3f82611b14565b9050919050565b611b4f81611b34565b8114611b5a57600080fd5b50565b600081359050611b6c81611b46565b92915050565b600060208284031215611b8857611b87611b0a565b5b6000611b9684828501611b5d565b91505092915050565b6000819050919050565b611bb281611b9f565b8114611bbd57600080fd5b50565b600081359050611bcf81611ba9565b92915050565b60008060408385031215611bec57611beb611b0a565b5b6000611bfa85828601611b5d565b9250506020611c0b85828601611bc0565b9150509250929050565b611c1e81611b34565b82525050565b6000602082019050611c396000830184611c15565b92915050565b600080600060608486031215611c5857611c57611b0a565b5b6000611c6686828701611b5d565b9350506020611c7786828701611b5d565b9250506040611c8886828701611bc0565b9150509250925092565b60008115159050919050565b611ca781611c92565b82525050565b6000602082019050611cc26000830184611c9e565b92915050565b600081519050919050565b600082825260208201905092915050565b6000819050602082019050919050565b611cfd81611b34565b82525050565b6000611d0f8383611cf4565b60208301905092915050565b6000602082019050919050565b6000611d3382611cc8565b611d3d8185611cd3565b9350611d4883611ce4565b8060005b83811015611d79578151611d608882611d03565b9750611d6b83611d1b565b925050600181019050611d4c565b5085935050505092915050565b60006020820190508181036000830152611da08184611d28565b905092915050565b600080fd5b600080fd5b600080fd5b60008083601f840112611dcd57611dcc611da8565b5b8235905067ffffffffffffffff811115611dea57611de9611dad565b5b602083019150836001820283011115611e0657611e05611db2565b5b9250929050565b600080600060408486031215611e2657611e25611b0a565b5b600084013567ffffffffffffffff811115611e4457611e43611b0f565b5b611e5086828701611db7565b93509350506020611e6386828701611b5d565b9150509250925092565b600082825260208201905092915050565b7f696e76616c696420617267756d656e74202d207a65726f206164647265737300600082015250565b6000611eb4601f83611e6d565b9150611ebf82611e7e565b602082019050919050565b60006020820190508181036000830152611ee381611ea7565b9050919050565b7f6d6f64756c6520616c726561647920626f756e64000000000000000000000000600082015250565b6000611f20601483611e6d565b9150611f2b82611eea565b602082019050919050565b60006020820190508181036000830152611f4f81611f13565b9050919050565b7f63616e6e6f7420616464206d6f7265207468616e203235206d6f64756c657300600082015250565b6000611f8c601f83611e6d565b9150611f9782611f56565b602082019050919050565b60006020820190508181036000830152611fbb81611f7f565b9050919050565b7f6f6e6c79206f776e6572206f7220746f6b656e2063616e2063616c6c00000000600082015250565b6000611ff8601c83611e6d565b915061200382611fc2565b602082019050919050565b6000602082019050818103600083015261202781611feb565b9050919050565b7f5468697320746f6b656e206973206e6f7420626f756e64000000000000000000600082015250565b6000612064601783611e6d565b915061206f8261202e565b602082019050919050565b6000602082019050818103600083015261209381612057565b9050919050565b7f6572726f72203a20746869732061646472657373206973206e6f74206120746f60008201527f6b656e20626f756e6420746f2074686520636f6d706c69616e636520636f6e7460208201527f7261637400000000000000000000000000000000000000000000000000000000604082015250565b600061211c604483611e6d565b91506121278261209a565b606082019050919050565b6000602082019050818103600083015261214b8161210f565b9050919050565b7f696e76616c696420617267756d656e74202d206e6f2076616c7565206d696e74600082015250565b6000612188602083611e6d565b915061219382612152565b602082019050919050565b600060208201905081810360008301526121b78161217b565b9050919050565b7f4e487b7100000000000000000000000000000000000000000000000000000000600052603260045260246000fd5b6121f681611b9f565b82525050565b60006040820190506122116000830185611c15565b61221e60208301846121ed565b9392505050565b7f4e487b7100000000000000000000000000000000000000000000000000000000600052601160045260246000fd5b600061225f82611b9f565b91507fffffffffffffffffffffffffffffffffffffffffffffffffffffffffffffffff820361229157612290612225565b5b600182019050919050565b7f696e76616c696420617267756d656e74202d206e6f2076616c7565207472616e60008201527f7366657200000000000000000000000000000000000000000000000000000000602082015250565b60006122f8602483611e6d565b91506123038261229c565b604082019050919050565b60006020820190508181036000830152612327816122eb565b9050919050565b60006060820190506123436000830186611c15565b6123506020830185611c15565b61235d60408301846121ed565b949350505050565b7f696e76616c696420617267756d656e74202d206e6f2076616c7565206275726e600082015250565b600061239b602083611e6d565b91506123a682612365565b602082019050919050565b600060208201905081810360008301526123ca8161238e565b9050919050565b7f6d6f64756c65206e6f7420626f756e6400000000000000000000000000000000600082015250565b6000612407601083611e6d565b9150612412826123d1565b602082019050919050565b60006020820190508181036000830152612436816123fa565b9050919050565b600061244882611b9f565b915061245383611b9f565b925082820390508181111561246b5761246a612225565b5b92915050565b7f4e487b7100000000000000000000000000000000000000000000000000000000600052603160045260246000fd5b7f496e697469616c697a61626c653a20636f6e747261637420697320616c72656160008201527f647920696e697469616c697a6564000000000000000000000000000000000000602082015250565b60006124fc602e83611e6d565b9150612507826124a0565b604082019050919050565b6000602082019050818103600083015261252b816124ef565b9050919050565b6000819050919050565b600060ff82169050919050565b6000819050919050565b600061256e61256961256484612532565b612549565b61253c565b9050919050565b61257e81612553565b82525050565b60006020820190506125996000830184612575565b92915050565b60006080820190506125b46000830187611c15565b6125c16020830186611c15565b6125ce60408301856121ed565b6125db6060830184611c15565b95945050505050565b6125ed81611c92565b81146125f857600080fd5b50565b60008151905061260a816125e4565b92915050565b60006020828403121561262657612625611b0a565b5b6000612634848285016125fb565b91505092915050565b7f63616c6c206f6e6c79206f6e20626f756e64206d6f64756c6500000000000000600082015250565b6000612673601983611e6d565b915061267e8261263d565b602082019050919050565b600060208201905081810360008301526126a281612666565b9050919050565b60007fffffffff0000000000000000000000000000000000000000000000000000000082169050919050565b6126de816126a9565b82525050565b60006020820190506126f960008301846126d5565b92915050565b7f4f776e61626c653a206e6577206f776e657220697320746865207a65726f206160008201527f6464726573730000000000000000000000000000000000000000000000000000602082015250565b600061275b602683611e6d565b9150612766826126ff565b604082019050919050565b6000602082019050818103600083015261278a8161274e565b9050919050565b7f4f776e61626c653a2063616c6c6572206973206e6f7420746865206f776e6572600082015250565b60006127c7602083611e6d565b91506127d282612791565b602082019050919050565b600060208201905081810360008301526127f6816127ba565b9050919050565b7f496e697469616c697a61626c653a20636f6e7472616374206973206e6f74206960008201527f6e697469616c697a696e67000000000000000000000000000000000000000000602082015250565b6000612859602b83611e6d565b9150612864826127fd565b604082019050919050565b600060208201905081810360008301526128888161284c565b905091905056fea2646970667358221220c41bd18e8839c10f231112c8dab38e7542361698242bbc7605f39cfbc3c5075e64736f6c63430008110033",
					"opcodes": "PUSH1 0x80 PUSH1 0x40 MSTORE CALLVALUE DUP1 ISZERO PUSH2 0x10 JUMPI PUSH1 0x0 DUP1 REVERT JUMPDEST POP PUSH2 0x28C5 DUP1 PUSH2 0x20 PUSH1 0x0 CODECOPY PUSH1 0x0 RETURN INVALID PUSH1 0x80 PUSH1 0x40 MSTORE CALLVALUE DUP1 ISZERO PUSH2 0x10 JUMPI PUSH1 0x0 DUP1 REVERT JUMPDEST POP PUSH1 0x4 CALLDATASIZE LT PUSH2 0x100 JUMPI PUSH1 0x0 CALLDATALOAD PUSH1 0xE0 SHR DUP1 PUSH4 0x8DA5CB5B GT PUSH2 0x97 JUMPI DUP1 PUSH4 0xE1C7392A GT PUSH2 0x66 JUMPI DUP1 PUSH4 0xE1C7392A EQ PUSH2 0x25D JUMPI DUP1 PUSH4 0xE46638E6 EQ PUSH2 0x267 JUMPI DUP1 PUSH4 0xEFB22D33 EQ PUSH2 0x297 JUMPI DUP1 PUSH4 0xF2FDE38B EQ PUSH2 0x2B3 JUMPI PUSH2 0x100 JUMP JUMPDEST DUP1 PUSH4 0x8DA5CB5B EQ PUSH2 0x1D5 JUMPI DUP1 PUSH4 0xA0632461 EQ PUSH2 0x1F3 JUMPI DUP1 PUSH4 0xA446D49F EQ PUSH2 0x20F JUMPI DUP1 PUSH4 0xB2494DF3 EQ PUSH2 0x23F JUMPI PUSH2 0x100 JUMP JUMPDEST DUP1 PUSH4 0x6A3EDF28 GT PUSH2 0xD3 JUMPI DUP1 PUSH4 0x6A3EDF28 EQ PUSH2 0x175 JUMPI DUP1 PUSH4 0x715018A6 EQ PUSH2 0x193 JUMPI DUP1 PUSH4 0x8BAF29B4 EQ PUSH2 0x19D JUMPI DUP1 PUSH4 0x8D2EA772 EQ PUSH2 0x1B9 JUMPI PUSH2 0x100 JUMP JUMPDEST DUP1 PUSH4 0x1ED86F19 EQ PUSH2 0x105 JUMPI DUP1 PUSH4 0x3FF5AA02 EQ PUSH2 0x121 JUMPI DUP1 PUSH4 0x40DB3B50 EQ PUSH2 0x13D JUMPI DUP1 PUSH4 0x5F8DEAD3 EQ PUSH2 0x159 JUMPI JUMPDEST PUSH1 0x0 DUP1 REVERT JUMPDEST PUSH2 0x11F PUSH1 0x4 DUP1 CALLDATASIZE SUB DUP2 ADD SWAP1 PUSH2 0x11A SWAP2 SWAP1 PUSH2 0x1B72 JUMP JUMPDEST PUSH2 0x2CF JUMP JUMPDEST STOP JUMPDEST PUSH2 0x13B PUSH1 0x4 DUP1 CALLDATASIZE SUB DUP2 ADD SWAP1 PUSH2 0x136 SWAP2 SWAP1 PUSH2 0x1B72 JUMP JUMPDEST PUSH2 0x588 JUMP JUMPDEST STOP JUMPDEST PUSH2 0x157 PUSH1 0x4 DUP1 CALLDATASIZE SUB DUP2 ADD SWAP1 PUSH2 0x152 SWAP2 SWAP1 PUSH2 0x1B72 JUMP JUMPDEST PUSH2 0x777 JUMP JUMPDEST STOP JUMPDEST PUSH2 0x173 PUSH1 0x4 DUP1 CALLDATASIZE SUB DUP2 ADD SWAP1 PUSH2 0x16E SWAP2 SWAP1 PUSH2 0x1BD5 JUMP JUMPDEST PUSH2 0x980 JUMP JUMPDEST STOP JUMPDEST PUSH2 0x17D PUSH2 0xB9B JUMP JUMPDEST PUSH1 0x40 MLOAD PUSH2 0x18A SWAP2 SWAP1 PUSH2 0x1C24 JUMP JUMPDEST PUSH1 0x40 MLOAD DUP1 SWAP2 SUB SWAP1 RETURN JUMPDEST PUSH2 0x19B PUSH2 0xBC5 JUMP JUMPDEST STOP JUMPDEST PUSH2 0x1B7 PUSH1 0x4 DUP1 CALLDATASIZE SUB DUP2 ADD SWAP1 PUSH2 0x1B2 SWAP2 SWAP1 PUSH2 0x1C3F JUMP JUMPDEST PUSH2 0xBD9 JUMP JUMPDEST STOP JUMPDEST PUSH2 0x1D3 PUSH1 0x4 DUP1 CALLDATASIZE SUB DUP2 ADD SWAP1 PUSH2 0x1CE SWAP2 SWAP1 PUSH2 0x1BD5 JUMP JUMPDEST PUSH2 0xE31 JUMP JUMPDEST STOP JUMPDEST PUSH2 0x1DD PUSH2 0x104C JUMP JUMPDEST PUSH1 0x40 MLOAD PUSH2 0x1EA SWAP2 SWAP1 PUSH2 0x1C24 JUMP JUMPDEST PUSH1 0x40 MLOAD DUP1 SWAP2 SUB SWAP1 RETURN JUMPDEST PUSH2 0x20D PUSH1 0x4 DUP1 CALLDATASIZE SUB DUP2 ADD SWAP1 PUSH2 0x208 SWAP2 SWAP1 PUSH2 0x1B72 JUMP JUMPDEST PUSH2 0x1076 JUMP JUMPDEST STOP JUMPDEST PUSH2 0x229 PUSH1 0x4 DUP1 CALLDATASIZE SUB DUP2 ADD SWAP1 PUSH2 0x224 SWAP2 SWAP1 PUSH2 0x1B72 JUMP JUMPDEST PUSH2 0x1410 JUMP JUMPDEST PUSH1 0x40 MLOAD PUSH2 0x236 SWAP2 SWAP1 PUSH2 0x1CAD JUMP JUMPDEST PUSH1 0x40 MLOAD DUP1 SWAP2 SUB SWAP1 RETURN JUMPDEST PUSH2 0x247 PUSH2 0x1466 JUMP JUMPDEST PUSH1 0x40 MLOAD PUSH2 0x254 SWAP2 SWAP1 PUSH2 0x1D86 JUMP JUMPDEST PUSH1 0x40 MLOAD DUP1 SWAP2 SUB SWAP1 RETURN JUMPDEST PUSH2 0x265 PUSH2 0x14F4 JUMP JUMPDEST STOP JUMPDEST PUSH2 0x281 PUSH1 0x4 DUP1 CALLDATASIZE SUB DUP2 ADD SWAP1 PUSH2 0x27C SWAP2 SWAP1 PUSH2 0x1C3F JUMP JUMPDEST PUSH2 0x1632 JUMP JUMPDEST PUSH1 0x40 MLOAD PUSH2 0x28E SWAP2 SWAP1 PUSH2 0x1CAD JUMP JUMPDEST PUSH1 0x40 MLOAD DUP1 SWAP2 SUB SWAP1 RETURN JUMPDEST PUSH2 0x2B1 PUSH1 0x4 DUP1 CALLDATASIZE SUB DUP2 ADD SWAP1 PUSH2 0x2AC SWAP2 SWAP1 PUSH2 0x1E0D JUMP JUMPDEST PUSH2 0x1736 JUMP JUMPDEST STOP JUMPDEST PUSH2 0x2CD PUSH1 0x4 DUP1 CALLDATASIZE SUB DUP2 ADD SWAP1 PUSH2 0x2C8 SWAP2 SWAP1 PUSH2 0x1B72 JUMP JUMPDEST PUSH2 0x1846 JUMP JUMPDEST STOP JUMPDEST PUSH2 0x2D7 PUSH2 0x18C9 JUMP JUMPDEST PUSH1 0x0 PUSH20 0xFFFFFFFFFFFFFFFFFFFFFFFFFFFFFFFFFFFFFFFF AND DUP2 PUSH20 0xFFFFFFFFFFFFFFFFFFFFFFFFFFFFFFFFFFFFFFFF AND SUB PUSH2 0x346 JUMPI PUSH1 0x40 MLOAD PUSH32 0x8C379A000000000000000000000000000000000000000000000000000000000 DUP2 MSTORE PUSH1 0x4 ADD PUSH2 0x33D SWAP1 PUSH2 0x1ECA JUMP JUMPDEST PUSH1 0x40 MLOAD DUP1 SWAP2 SUB SWAP1 REVERT JUMPDEST PUSH1 0x67 PUSH1 0x0 DUP3 PUSH20 0xFFFFFFFFFFFFFFFFFFFFFFFFFFFFFFFFFFFFFFFF AND PUSH20 0xFFFFFFFFFFFFFFFFFFFFFFFFFFFFFFFFFFFFFFFF AND DUP2 MSTORE PUSH1 0x20 ADD SWAP1 DUP2 MSTORE PUSH1 0x20 ADD PUSH1 0x0 KECCAK256 PUSH1 0x0 SWAP1 SLOAD SWAP1 PUSH2 0x100 EXP SWAP1 DIV PUSH1 0xFF AND ISZERO PUSH2 0x3D3 JUMPI PUSH1 0x40 MLOAD PUSH32 0x8C379A000000000000000000000000000000000000000000000000000000000 DUP2 MSTORE PUSH1 0x4 ADD PUSH2 0x3CA SWAP1 PUSH2 0x1F36 JUMP JUMPDEST PUSH1 0x40 MLOAD DUP1 SWAP2 SUB SWAP1 REVERT JUMPDEST PUSH1 0x18 PUSH1 0x66 DUP1 SLOAD SWAP1 POP GT ISZERO PUSH2 0x41C JUMPI PUSH1 0x40 MLOAD PUSH32 0x8C379A000000000000000000000000000000000000000000000000000000000 DUP2 MSTORE PUSH1 0x4 ADD PUSH2 0x413 SWAP1 PUSH2 0x1FA2 JUMP JUMPDEST PUSH1 0x40 MLOAD DUP1 SWAP2 SUB SWAP1 REVERT JUMPDEST DUP1 PUSH20 0xFFFFFFFFFFFFFFFFFFFFFFFFFFFFFFFFFFFFFFFF AND PUSH4 0x4A932544 ADDRESS PUSH1 0x40 MLOAD DUP3 PUSH4 0xFFFFFFFF AND PUSH1 0xE0 SHL DUP2 MSTORE PUSH1 0x4 ADD PUSH2 0x455 SWAP2 SWAP1 PUSH2 0x1C24 JUMP JUMPDEST PUSH1 0x0 PUSH1 0x40 MLOAD DUP1 DUP4 SUB DUP2 PUSH1 0x0 DUP8 DUP1 EXTCODESIZE ISZERO DUP1 ISZERO PUSH2 0x46F JUMPI PUSH1 0x0 DUP1 REVERT JUMPDEST POP GAS CALL ISZERO DUP1 ISZERO PUSH2 0x483 JUMPI RETURNDATASIZE PUSH1 0x0 DUP1 RETURNDATACOPY RETURNDATASIZE PUSH1 0x0 REVERT JUMPDEST POP POP POP POP PUSH1 0x66 DUP2 SWAP1 DUP1 PUSH1 0x1 DUP2 SLOAD ADD DUP1 DUP3 SSTORE DUP1 SWAP2 POP POP PUSH1 0x1 SWAP1 SUB SWAP1 PUSH1 0x0 MSTORE PUSH1 0x20 PUSH1 0x0 KECCAK256 ADD PUSH1 0x0 SWAP1 SWAP2 SWAP1 SWAP2 SWAP1 SWAP2 PUSH2 0x100 EXP DUP2 SLOAD DUP2 PUSH20 0xFFFFFFFFFFFFFFFFFFFFFFFFFFFFFFFFFFFFFFFF MUL NOT AND SWAP1 DUP4 PUSH20 0xFFFFFFFFFFFFFFFFFFFFFFFFFFFFFFFFFFFFFFFF AND MUL OR SWAP1 SSTORE POP PUSH1 0x1 PUSH1 0x67 PUSH1 0x0 DUP4 PUSH20 0xFFFFFFFFFFFFFFFFFFFFFFFFFFFFFFFFFFFFFFFF AND PUSH20 0xFFFFFFFFFFFFFFFFFFFFFFFFFFFFFFFFFFFFFFFF AND DUP2 MSTORE PUSH1 0x20 ADD SWAP1 DUP2 MSTORE PUSH1 0x20 ADD PUSH1 0x0 KECCAK256 PUSH1 0x0 PUSH2 0x100 EXP DUP2 SLOAD DUP2 PUSH1 0xFF MUL NOT AND SWAP1 DUP4 ISZERO ISZERO MUL OR SWAP1 SSTORE POP DUP1 PUSH20 0xFFFFFFFFFFFFFFFFFFFFFFFFFFFFFFFFFFFFFFFF AND PUSH32 0xEAD6A006345DA1073A106D5F32372D2D2204F46CB0B4BCA8F5EBAFCBBED12B8A PUSH1 0x40 MLOAD PUSH1 0x40 MLOAD DUP1 SWAP2 SUB SWAP1 LOG2 POP JUMP JUMPDEST CALLER PUSH20 0xFFFFFFFFFFFFFFFFFFFFFFFFFFFFFFFFFFFFFFFF AND PUSH2 0x5A7 PUSH2 0x104C JUMP JUMPDEST PUSH20 0xFFFFFFFFFFFFFFFFFFFFFFFFFFFFFFFFFFFFFFFF AND EQ DUP1 PUSH2 0x64E JUMPI POP PUSH1 0x0 PUSH20 0xFFFFFFFFFFFFFFFFFFFFFFFFFFFFFFFFFFFFFFFF AND PUSH1 0x65 PUSH1 0x0 SWAP1 SLOAD SWAP1 PUSH2 0x100 EXP SWAP1 DIV PUSH20 0xFFFFFFFFFFFFFFFFFFFFFFFFFFFFFFFFFFFFFFFF AND PUSH20 0xFFFFFFFFFFFFFFFFFFFFFFFFFFFFFFFFFFFFFFFF AND EQ DUP1 ISZERO PUSH2 0x64D JUMPI POP DUP1 PUSH20 0xFFFFFFFFFFFFFFFFFFFFFFFFFFFFFFFFFFFFFFFF AND CALLER PUSH20 0xFFFFFFFFFFFFFFFFFFFFFFFFFFFFFFFFFFFFFFFF AND EQ JUMPDEST JUMPDEST PUSH2 0x68D JUMPI PUSH1 0x40 MLOAD PUSH32 0x8C379A000000000000000000000000000000000000000000000000000000000 DUP2 MSTORE PUSH1 0x4 ADD PUSH2 0x684 SWAP1 PUSH2 0x200E JUMP JUMPDEST PUSH1 0x40 MLOAD DUP1 SWAP2 SUB SWAP1 REVERT JUMPDEST PUSH1 0x0 PUSH20 0xFFFFFFFFFFFFFFFFFFFFFFFFFFFFFFFFFFFFFFFF AND DUP2 PUSH20 0xFFFFFFFFFFFFFFFFFFFFFFFFFFFFFFFFFFFFFFFF AND SUB PUSH2 0x6FC JUMPI PUSH1 0x40 MLOAD PUSH32 0x8C379A000000000000000000000000000000000000000000000000000000000 DUP2 MSTORE PUSH1 0x4 ADD PUSH2 0x6F3 SWAP1 PUSH2 0x1ECA JUMP JUMPDEST PUSH1 0x40 MLOAD DUP1 SWAP2 SUB SWAP1 REVERT JUMPDEST DUP1 PUSH1 0x65 PUSH1 0x0 PUSH2 0x100 EXP DUP2 SLOAD DUP2 PUSH20 0xFFFFFFFFFFFFFFFFFFFFFFFFFFFFFFFFFFFFFFFF MUL NOT AND SWAP1 DUP4 PUSH20 0xFFFFFFFFFFFFFFFFFFFFFFFFFFFFFFFFFFFFFFFF AND MUL OR SWAP1 SSTORE POP PUSH32 0x2DE35142B19ED5A07796CF30791959C592018F70B1D2D7C460EEF8FFE713692B DUP2 PUSH1 0x40 MLOAD PUSH2 0x76C SWAP2 SWAP1 PUSH2 0x1C24 JUMP JUMPDEST PUSH1 0x40 MLOAD DUP1 SWAP2 SUB SWAP1 LOG1 POP JUMP JUMPDEST CALLER PUSH20 0xFFFFFFFFFFFFFFFFFFFFFFFFFFFFFFFFFFFFFFFF AND PUSH2 0x796 PUSH2 0x104C JUMP JUMPDEST PUSH20 0xFFFFFFFFFFFFFFFFFFFFFFFFFFFFFFFFFFFFFFFF AND EQ DUP1 PUSH2 0x7E3 JUMPI POP DUP1 PUSH20 0xFFFFFFFFFFFFFFFFFFFFFFFFFFFFFFFFFFFFFFFF AND CALLER PUSH20 0xFFFFFFFFFFFFFFFFFFFFFFFFFFFFFFFFFFFFFFFF AND EQ JUMPDEST PUSH2 0x822 JUMPI PUSH1 0x40 MLOAD PUSH32 0x8C379A000000000000000000000000000000000000000000000000000000000 DUP2 MSTORE PUSH1 0x4 ADD PUSH2 0x819 SWAP1 PUSH2 0x200E JUMP JUMPDEST PUSH1 0x40 MLOAD DUP1 SWAP2 SUB SWAP1 REVERT JUMPDEST PUSH1 0x65 PUSH1 0x0 SWAP1 SLOAD SWAP1 PUSH2 0x100 EXP SWAP1 DIV PUSH20 0xFFFFFFFFFFFFFFFFFFFFFFFFFFFFFFFFFFFFFFFF AND PUSH20 0xFFFFFFFFFFFFFFFFFFFFFFFFFFFFFFFFFFFFFFFF AND DUP2 PUSH20 0xFFFFFFFFFFFFFFFFFFFFFFFFFFFFFFFFFFFFFFFF AND EQ PUSH2 0x8B2 JUMPI PUSH1 0x40 MLOAD PUSH32 0x8C379A000000000000000000000000000000000000000000000000000000000 DUP2 MSTORE PUSH1 0x4 ADD PUSH2 0x8A9 SWAP1 PUSH2 0x207A JUMP JUMPDEST PUSH1 0x40 MLOAD DUP1 SWAP2 SUB SWAP1 REVERT JUMPDEST PUSH1 0x0 PUSH20 0xFFFFFFFFFFFFFFFFFFFFFFFFFFFFFFFFFFFFFFFF AND DUP2 PUSH20 0xFFFFFFFFFFFFFFFFFFFFFFFFFFFFFFFFFFFFFFFF AND SUB PUSH2 0x921 JUMPI PUSH1 0x40 MLOAD PUSH32 0x8C379A000000000000000000000000000000000000000000000000000000000 DUP2 MSTORE PUSH1 0x4 ADD PUSH2 0x918 SWAP1 PUSH2 0x1ECA JUMP JUMPDEST PUSH1 0x40 MLOAD DUP1 SWAP2 SUB SWAP1 REVERT JUMPDEST PUSH1 0x65 PUSH1 0x0 PUSH2 0x100 EXP DUP2 SLOAD SWAP1 PUSH20 0xFFFFFFFFFFFFFFFFFFFFFFFFFFFFFFFFFFFFFFFF MUL NOT AND SWAP1 SSTORE PUSH32 0x28A4CA7134A3B3F9AFF286E79AD3DAADB4A06D1B43D037A3A98BDC074EDD9B7A DUP2 PUSH1 0x40 MLOAD PUSH2 0x975 SWAP2 SWAP1 PUSH2 0x1C24 JUMP JUMPDEST PUSH1 0x40 MLOAD DUP1 SWAP2 SUB SWAP1 LOG1 POP JUMP JUMPDEST PUSH1 0x65 PUSH1 0x0 SWAP1 SLOAD SWAP1 PUSH2 0x100 EXP SWAP1 DIV PUSH20 0xFFFFFFFFFFFFFFFFFFFFFFFFFFFFFFFFFFFFFFFF AND PUSH20 0xFFFFFFFFFFFFFFFFFFFFFFFFFFFFFFFFFFFFFFFF AND CALLER PUSH20 0xFFFFFFFFFFFFFFFFFFFFFFFFFFFFFFFFFFFFFFFF AND EQ PUSH2 0xA10 JUMPI PUSH1 0x40 MLOAD PUSH32 0x8C379A000000000000000000000000000000000000000000000000000000000 DUP2 MSTORE PUSH1 0x4 ADD PUSH2 0xA07 SWAP1 PUSH2 0x2132 JUMP JUMPDEST PUSH1 0x40 MLOAD DUP1 SWAP2 SUB SWAP1 REVERT JUMPDEST PUSH1 0x0 PUSH20 0xFFFFFFFFFFFFFFFFFFFFFFFFFFFFFFFFFFFFFFFF AND DUP3 PUSH20 0xFFFFFFFFFFFFFFFFFFFFFFFFFFFFFFFFFFFFFFFF AND SUB PUSH2 0xA7F JUMPI PUSH1 0x40 MLOAD PUSH32 0x8C379A000000000000000000000000000000000000000000000000000000000 DUP2 MSTORE PUSH1 0x4 ADD PUSH2 0xA76 SWAP1 PUSH2 0x1ECA JUMP JUMPDEST PUSH1 0x40 MLOAD DUP1 SWAP2 SUB SWAP1 REVERT JUMPDEST PUSH1 0x0 DUP2 GT PUSH2 0xAC2 JUMPI PUSH1 0x40 MLOAD PUSH32 0x8C379A000000000000000000000000000000000000000000000000000000000 DUP2 MSTORE PUSH1 0x4 ADD PUSH2 0xAB9 SWAP1 PUSH2 0x219E JUMP JUMPDEST PUSH1 0x40 MLOAD DUP1 SWAP2 SUB SWAP1 REVERT JUMPDEST PUSH1 0x0 PUSH1 0x66 DUP1 SLOAD SWAP1 POP SWAP1 POP PUSH1 0x0 JUMPDEST DUP2 DUP2 LT ISZERO PUSH2 0xB95 JUMPI PUSH1 0x66 DUP2 DUP2 SLOAD DUP2 LT PUSH2 0xAEB JUMPI PUSH2 0xAEA PUSH2 0x21BE JUMP JUMPDEST JUMPDEST SWAP1 PUSH1 0x0 MSTORE PUSH1 0x20 PUSH1 0x0 KECCAK256 ADD PUSH1 0x0 SWAP1 SLOAD SWAP1 PUSH2 0x100 EXP SWAP1 DIV PUSH20 0xFFFFFFFFFFFFFFFFFFFFFFFFFFFFFFFFFFFFFFFF AND PUSH20 0xFFFFFFFFFFFFFFFFFFFFFFFFFFFFFFFFFFFFFFFF AND PUSH4 0xF104A8C9 DUP6 DUP6 PUSH1 0x40 MLOAD DUP4 PUSH4 0xFFFFFFFF AND PUSH1 0xE0 SHL DUP2 MSTORE PUSH1 0x4 ADD PUSH2 0xB50 SWAP3 SWAP2 SWAP1 PUSH2 0x21FC JUMP JUMPDEST PUSH1 0x0 PUSH1 0x40 MLOAD DUP1 DUP4 SUB DUP2 PUSH1 0x0 DUP8 DUP1 EXTCODESIZE ISZERO DUP1 ISZERO PUSH2 0xB6A JUMPI PUSH1 0x0 DUP1 REVERT JUMPDEST POP GAS CALL ISZERO DUP1 ISZERO PUSH2 0xB7E JUMPI RETURNDATASIZE PUSH1 0x0 DUP1 RETURNDATACOPY RETURNDATASIZE PUSH1 0x0 REVERT JUMPDEST POP POP POP POP DUP1 DUP1 PUSH2 0xB8D SWAP1 PUSH2 0x2254 JUMP JUMPDEST SWAP2 POP POP PUSH2 0xACF JUMP JUMPDEST POP POP POP POP JUMP JUMPDEST PUSH1 0x0 PUSH1 0x65 PUSH1 0x0 SWAP1 SLOAD SWAP1 PUSH2 0x100 EXP SWAP1 DIV PUSH20 0xFFFFFFFFFFFFFFFFFFFFFFFFFFFFFFFFFFFFFFFF AND SWAP1 POP SWAP1 JUMP JUMPDEST PUSH2 0xBCD PUSH2 0x18C9 JUMP JUMPDEST PUSH2 0xBD7 PUSH1 0x0 PUSH2 0x1947 JUMP JUMPDEST JUMP JUMPDEST PUSH1 0x65 PUSH1 0x0 SWAP1 SLOAD SWAP1 PUSH2 0x100 EXP SWAP1 DIV PUSH20 0xFFFFFFFFFFFFFFFFFFFFFFFFFFFFFFFFFFFFFFFF AND PUSH20 0xFFFFFFFFFFFFFFFFFFFFFFFFFFFFFFFFFFFFFFFF AND CALLER PUSH20 0xFFFFFFFFFFFFFFFFFFFFFFFFFFFFFFFFFFFFFFFF AND EQ PUSH2 0xC69 JUMPI PUSH1 0x40 MLOAD PUSH32 0x8C379A000000000000000000000000000000000000000000000000000000000 DUP2 MSTORE PUSH1 0x4 ADD PUSH2 0xC60 SWAP1 PUSH2 0x2132 JUMP JUMPDEST PUSH1 0x40 MLOAD DUP1 SWAP2 SUB SWAP1 REVERT JUMPDEST PUSH1 0x0 PUSH20 0xFFFFFFFFFFFFFFFFFFFFFFFFFFFFFFFFFFFFFFFF AND DUP4 PUSH20 0xFFFFFFFFFFFFFFFFFFFFFFFFFFFFFFFFFFFFFFFF AND EQ ISZERO DUP1 ISZERO PUSH2 0xCD3 JUMPI POP PUSH1 0x0 PUSH20 0xFFFFFFFFFFFFFFFFFFFFFFFFFFFFFFFFFFFFFFFF AND DUP3 PUSH20 0xFFFFFFFFFFFFFFFFFFFFFFFFFFFFFFFFFFFFFFFF AND EQ ISZERO JUMPDEST PUSH2 0xD12 JUMPI PUSH1 0x40 MLOAD PUSH32 0x8C379A000000000000000000000000000000000000000000000000000000000 DUP2 MSTORE PUSH1 0x4 ADD PUSH2 0xD09 SWAP1 PUSH2 0x1ECA JUMP JUMPDEST PUSH1 0x40 MLOAD DUP1 SWAP2 SUB SWAP1 REVERT JUMPDEST PUSH1 0x0 DUP2 GT PUSH2 0xD55 JUMPI PUSH1 0x40 MLOAD PUSH32 0x8C379A000000000000000000000000000000000000000000000000000000000 DUP2 MSTORE PUSH1 0x4 ADD PUSH2 0xD4C SWAP1 PUSH2 0x230E JUMP JUMPDEST PUSH1 0x40 MLOAD DUP1 SWAP2 SUB SWAP1 REVERT JUMPDEST PUSH1 0x0 PUSH1 0x66 DUP1 SLOAD SWAP1 POP SWAP1 POP PUSH1 0x0 JUMPDEST DUP2 DUP2 LT ISZERO PUSH2 0xE2A JUMPI PUSH1 0x66 DUP2 DUP2 SLOAD DUP2 LT PUSH2 0xD7E JUMPI PUSH2 0xD7D PUSH2 0x21BE JUMP JUMPDEST JUMPDEST SWAP1 PUSH1 0x0 MSTORE PUSH1 0x20 PUSH1 0x0 KECCAK256 ADD PUSH1 0x0 SWAP1 SLOAD SWAP1 PUSH2 0x100 EXP SWAP1 DIV PUSH20 0xFFFFFFFFFFFFFFFFFFFFFFFFFFFFFFFFFFFFFFFF AND PUSH20 0xFFFFFFFFFFFFFFFFFFFFFFFFFFFFFFFFFFFFFFFF AND PUSH4 0x2CB7E1EC DUP7 DUP7 DUP7 PUSH1 0x40 MLOAD DUP5 PUSH4 0xFFFFFFFF AND PUSH1 0xE0 SHL DUP2 MSTORE PUSH1 0x4 ADD PUSH2 0xDE5 SWAP4 SWAP3 SWAP2 SWAP1 PUSH2 0x232E JUMP JUMPDEST PUSH1 0x0 PUSH1 0x40 MLOAD DUP1 DUP4 SUB DUP2 PUSH1 0x0 DUP8 DUP1 EXTCODESIZE ISZERO DUP1 ISZERO PUSH2 0xDFF JUMPI PUSH1 0x0 DUP1 REVERT JUMPDEST POP GAS CALL ISZERO DUP1 ISZERO PUSH2 0xE13 JUMPI RETURNDATASIZE PUSH1 0x0 DUP1 RETURNDATACOPY RETURNDATASIZE PUSH1 0x0 REVERT JUMPDEST POP POP POP POP DUP1 DUP1 PUSH2 0xE22 SWAP1 PUSH2 0x2254 JUMP JUMPDEST SWAP2 POP POP PUSH2 0xD62 JUMP JUMPDEST POP POP POP POP POP JUMP JUMPDEST PUSH1 0x65 PUSH1 0x0 SWAP1 SLOAD SWAP1 PUSH2 0x100 EXP SWAP1 DIV PUSH20 0xFFFFFFFFFFFFFFFFFFFFFFFFFFFFFFFFFFFFFFFF AND PUSH20 0xFFFFFFFFFFFFFFFFFFFFFFFFFFFFFFFFFFFFFFFF AND CALLER PUSH20 0xFFFFFFFFFFFFFFFFFFFFFFFFFFFFFFFFFFFFFFFF AND EQ PUSH2 0xEC1 JUMPI PUSH1 0x40 MLOAD PUSH32 0x8C379A000000000000000000000000000000000000000000000000000000000 DUP2 MSTORE PUSH1 0x4 ADD PUSH2 0xEB8 SWAP1 PUSH2 0x2132 JUMP JUMPDEST PUSH1 0x40 MLOAD DUP1 SWAP2 SUB SWAP1 REVERT JUMPDEST PUSH1 0x0 PUSH20 0xFFFFFFFFFFFFFFFFFFFFFFFFFFFFFFFFFFFFFFFF AND DUP3 PUSH20 0xFFFFFFFFFFFFFFFFFFFFFFFFFFFFFFFFFFFFFFFF AND SUB PUSH2 0xF30 JUMPI PUSH1 0x40 MLOAD PUSH32 0x8C379A000000000000000000000000000000000000000000000000000000000 DUP2 MSTORE PUSH1 0x4 ADD PUSH2 0xF27 SWAP1 PUSH2 0x1ECA JUMP JUMPDEST PUSH1 0x40 MLOAD DUP1 SWAP2 SUB SWAP1 REVERT JUMPDEST PUSH1 0x0 DUP2 GT PUSH2 0xF73 JUMPI PUSH1 0x40 MLOAD PUSH32 0x8C379A000000000000000000000000000000000000000000000000000000000 DUP2 MSTORE PUSH1 0x4 ADD PUSH2 0xF6A SWAP1 PUSH2 0x23B1 JUMP JUMPDEST PUSH1 0x40 MLOAD DUP1 SWAP2 SUB SWAP1 REVERT JUMPDEST PUSH1 0x0 PUSH1 0x66 DUP1 SLOAD SWAP1 POP SWAP1 POP PUSH1 0x0 JUMPDEST DUP2 DUP2 LT ISZERO PUSH2 0x1046 JUMPI PUSH1 0x66 DUP2 DUP2 SLOAD DUP2 LT PUSH2 0xF9C JUMPI PUSH2 0xF9B PUSH2 0x21BE JUMP JUMPDEST JUMPDEST SWAP1 PUSH1 0x0 MSTORE PUSH1 0x20 PUSH1 0x0 KECCAK256 ADD PUSH1 0x0 SWAP1 SLOAD SWAP1 PUSH2 0x100 EXP SWAP1 DIV PUSH20 0xFFFFFFFFFFFFFFFFFFFFFFFFFFFFFFFFFFFFFFFF AND PUSH20 0xFFFFFFFFFFFFFFFFFFFFFFFFFFFFFFFFFFFFFFFF AND PUSH4 0x372491A2 DUP6 DUP6 PUSH1 0x40 MLOAD DUP4 PUSH4 0xFFFFFFFF AND PUSH1 0xE0 SHL DUP2 MSTORE PUSH1 0x4 ADD PUSH2 0x1001 SWAP3 SWAP2 SWAP1 PUSH2 0x21FC JUMP JUMPDEST PUSH1 0x0 PUSH1 0x40 MLOAD DUP1 DUP4 SUB DUP2 PUSH1 0x0 DUP8 DUP1 EXTCODESIZE ISZERO DUP1 ISZERO PUSH2 0x101B JUMPI PUSH1 0x0 DUP1 REVERT JUMPDEST POP GAS CALL ISZERO DUP1 ISZERO PUSH2 0x102F JUMPI RETURNDATASIZE PUSH1 0x0 DUP1 RETURNDATACOPY RETURNDATASIZE PUSH1 0x0 REVERT JUMPDEST POP POP POP POP DUP1 DUP1 PUSH2 0x103E SWAP1 PUSH2 0x2254 JUMP JUMPDEST SWAP2 POP POP PUSH2 0xF80 JUMP JUMPDEST POP POP POP POP JUMP JUMPDEST PUSH1 0x0 PUSH1 0x33 PUSH1 0x0 SWAP1 SLOAD SWAP1 PUSH2 0x100 EXP SWAP1 DIV PUSH20 0xFFFFFFFFFFFFFFFFFFFFFFFFFFFFFFFFFFFFFFFF AND SWAP1 POP SWAP1 JUMP JUMPDEST PUSH2 0x107E PUSH2 0x18C9 JUMP JUMPDEST PUSH1 0x0 PUSH20 0xFFFFFFFFFFFFFFFFFFFFFFFFFFFFFFFFFFFFFFFF AND DUP2 PUSH20 0xFFFFFFFFFFFFFFFFFFFFFFFFFFFFFFFFFFFFFFFF AND SUB PUSH2 0x10ED JUMPI PUSH1 0x40 MLOAD PUSH32 0x8C379A000000000000000000000000000000000000000000000000000000000 DUP2 MSTORE PUSH1 0x4 ADD PUSH2 0x10E4 SWAP1 PUSH2 0x1ECA JUMP JUMPDEST PUSH1 0x40 MLOAD DUP1 SWAP2 SUB SWAP1 REVERT JUMPDEST PUSH1 0x67 PUSH1 0x0 DUP3 PUSH20 0xFFFFFFFFFFFFFFFFFFFFFFFFFFFFFFFFFFFFFFFF AND PUSH20 0xFFFFFFFFFFFFFFFFFFFFFFFFFFFFFFFFFFFFFFFF AND DUP2 MSTORE PUSH1 0x20 ADD SWAP1 DUP2 MSTORE PUSH1 0x20 ADD PUSH1 0x0 KECCAK256 PUSH1 0x0 SWAP1 SLOAD SWAP1 PUSH2 0x100 EXP SWAP1 DIV PUSH1 0xFF AND PUSH2 0x1179 JUMPI PUSH1 0x40 MLOAD PUSH32 0x8C379A000000000000000000000000000000000000000000000000000000000 DUP2 MSTORE PUSH1 0x4 ADD PUSH2 0x1170 SWAP1 PUSH2 0x241D JUMP JUMPDEST PUSH1 0x40 MLOAD DUP1 SWAP2 SUB SWAP1 REVERT JUMPDEST PUSH1 0x0 PUSH1 0x66 DUP1 SLOAD SWAP1 POP SWAP1 POP PUSH1 0x0 JUMPDEST DUP2 DUP2 LT ISZERO PUSH2 0x140B JUMPI DUP3 PUSH20 0xFFFFFFFFFFFFFFFFFFFFFFFFFFFFFFFFFFFFFFFF AND PUSH1 0x66 DUP3 DUP2 SLOAD DUP2 LT PUSH2 0x11B9 JUMPI PUSH2 0x11B8 PUSH2 0x21BE JUMP JUMPDEST JUMPDEST SWAP1 PUSH1 0x0 MSTORE PUSH1 0x20 PUSH1 0x0 KECCAK256 ADD PUSH1 0x0 SWAP1 SLOAD SWAP1 PUSH2 0x100 EXP SWAP1 DIV PUSH20 0xFFFFFFFFFFFFFFFFFFFFFFFFFFFFFFFFFFFFFFFF AND PUSH20 0xFFFFFFFFFFFFFFFFFFFFFFFFFFFFFFFFFFFFFFFF AND SUB PUSH2 0x13F8 JUMPI DUP3 PUSH20 0xFFFFFFFFFFFFFFFFFFFFFFFFFFFFFFFFFFFFFFFF AND PUSH4 0x694A5FB ADDRESS PUSH1 0x40 MLOAD DUP3 PUSH4 0xFFFFFFFF AND PUSH1 0xE0 SHL DUP2 MSTORE PUSH1 0x4 ADD PUSH2 0x1238 SWAP2 SWAP1 PUSH2 0x1C24 JUMP JUMPDEST PUSH1 0x0 PUSH1 0x40 MLOAD DUP1 DUP4 SUB DUP2 PUSH1 0x0 DUP8 DUP1 EXTCODESIZE ISZERO DUP1 ISZERO PUSH2 0x1252 JUMPI PUSH1 0x0 DUP1 REVERT JUMPDEST POP GAS CALL ISZERO DUP1 ISZERO PUSH2 0x1266 JUMPI RETURNDATASIZE PUSH1 0x0 DUP1 RETURNDATACOPY RETURNDATASIZE PUSH1 0x0 REVERT JUMPDEST POP POP POP POP PUSH1 0x66 PUSH1 0x1 DUP4 PUSH2 0x1279 SWAP2 SWAP1 PUSH2 0x243D JUMP JUMPDEST DUP2 SLOAD DUP2 LT PUSH2 0x128A JUMPI PUSH2 0x1289 PUSH2 0x21BE JUMP JUMPDEST JUMPDEST SWAP1 PUSH1 0x0 MSTORE PUSH1 0x20 PUSH1 0x0 KECCAK256 ADD PUSH1 0x0 SWAP1 SLOAD SWAP1 PUSH2 0x100 EXP SWAP1 DIV PUSH20 0xFFFFFFFFFFFFFFFFFFFFFFFFFFFFFFFFFFFFFFFF AND PUSH1 0x66 DUP3 DUP2 SLOAD DUP2 LT PUSH2 0x12C9 JUMPI PUSH2 0x12C8 PUSH2 0x21BE JUMP JUMPDEST JUMPDEST SWAP1 PUSH1 0x0 MSTORE PUSH1 0x20 PUSH1 0x0 KECCAK256 ADD PUSH1 0x0 PUSH2 0x100 EXP DUP2 SLOAD DUP2 PUSH20 0xFFFFFFFFFFFFFFFFFFFFFFFFFFFFFFFFFFFFFFFF MUL NOT AND SWAP1 DUP4 PUSH20 0xFFFFFFFFFFFFFFFFFFFFFFFFFFFFFFFFFFFFFFFF AND MUL OR SWAP1 SSTORE POP PUSH1 0x66 DUP1 SLOAD DUP1 PUSH2 0x1323 JUMPI PUSH2 0x1322 PUSH2 0x2471 JUMP JUMPDEST JUMPDEST PUSH1 0x1 SWAP1 SUB DUP2 DUP2 SWAP1 PUSH1 0x0 MSTORE PUSH1 0x20 PUSH1 0x0 KECCAK256 ADD PUSH1 0x0 PUSH2 0x100 EXP DUP2 SLOAD SWAP1 PUSH20 0xFFFFFFFFFFFFFFFFFFFFFFFFFFFFFFFFFFFFFFFF MUL NOT AND SWAP1 SSTORE SWAP1 SSTORE PUSH1 0x0 PUSH1 0x67 PUSH1 0x0 DUP6 PUSH20 0xFFFFFFFFFFFFFFFFFFFFFFFFFFFFFFFFFFFFFFFF AND PUSH20 0xFFFFFFFFFFFFFFFFFFFFFFFFFFFFFFFFFFFFFFFF AND DUP2 MSTORE PUSH1 0x20 ADD SWAP1 DUP2 MSTORE PUSH1 0x20 ADD PUSH1 0x0 KECCAK256 PUSH1 0x0 PUSH2 0x100 EXP DUP2 SLOAD DUP2 PUSH1 0xFF MUL NOT AND SWAP1 DUP4 ISZERO ISZERO MUL OR SWAP1 SSTORE POP DUP3 PUSH20 0xFFFFFFFFFFFFFFFFFFFFFFFFFFFFFFFFFFFFFFFF AND PUSH32 0xA1EE69F55C33D8467C69CA59CE2007A737A88603D75392972520BF67CB513B8 PUSH1 0x40 MLOAD PUSH1 0x40 MLOAD DUP1 SWAP2 SUB SWAP1 LOG2 PUSH2 0x140B JUMP JUMPDEST DUP1 DUP1 PUSH2 0x1403 SWAP1 PUSH2 0x2254 JUMP JUMPDEST SWAP2 POP POP PUSH2 0x1186 JUMP JUMPDEST POP POP POP JUMP JUMPDEST PUSH1 0x0 PUSH1 0x67 PUSH1 0x0 DUP4 PUSH20 0xFFFFFFFFFFFFFFFFFFFFFFFFFFFFFFFFFFFFFFFF AND PUSH20 0xFFFFFFFFFFFFFFFFFFFFFFFFFFFFFFFFFFFFFFFF AND DUP2 MSTORE PUSH1 0x20 ADD SWAP1 DUP2 MSTORE PUSH1 0x20 ADD PUSH1 0x0 KECCAK256 PUSH1 0x0 SWAP1 SLOAD SWAP1 PUSH2 0x100 EXP SWAP1 DIV PUSH1 0xFF AND SWAP1 POP SWAP2 SWAP1 POP JUMP JUMPDEST PUSH1 0x60 PUSH1 0x66 DUP1 SLOAD DUP1 PUSH1 0x20 MUL PUSH1 0x20 ADD PUSH1 0x40 MLOAD SWAP1 DUP2 ADD PUSH1 0x40 MSTORE DUP1 SWAP3 SWAP2 SWAP1 DUP2 DUP2 MSTORE PUSH1 0x20 ADD DUP3 DUP1 SLOAD DUP1 ISZERO PUSH2 0x14EA JUMPI PUSH1 0x20 MUL DUP3 ADD SWAP2 SWAP1 PUSH1 0x0 MSTORE PUSH1 0x20 PUSH1 0x0 KECCAK256 SWAP1 JUMPDEST DUP2 PUSH1 0x0 SWAP1 SLOAD SWAP1 PUSH2 0x100 EXP SWAP1 DIV PUSH20 0xFFFFFFFFFFFFFFFFFFFFFFFFFFFFFFFFFFFFFFFF AND PUSH20 0xFFFFFFFFFFFFFFFFFFFFFFFFFFFFFFFFFFFFFFFF AND DUP2 MSTORE PUSH1 0x20 ADD SWAP1 PUSH1 0x1 ADD SWAP1 DUP1 DUP4 GT PUSH2 0x14A0 JUMPI JUMPDEST POP POP POP POP POP SWAP1 POP SWAP1 JUMP JUMPDEST PUSH1 0x0 DUP1 PUSH1 0x1 SWAP1 SLOAD SWAP1 PUSH2 0x100 EXP SWAP1 DIV PUSH1 0xFF AND ISZERO SWAP1 POP DUP1 DUP1 ISZERO PUSH2 0x1525 JUMPI POP PUSH1 0x1 PUSH1 0x0 DUP1 SLOAD SWAP1 PUSH2 0x100 EXP SWAP1 DIV PUSH1 0xFF AND PUSH1 0xFF AND LT JUMPDEST DUP1 PUSH2 0x1552 JUMPI POP PUSH2 0x1534 ADDRESS PUSH2 0x1A0D JUMP JUMPDEST ISZERO DUP1 ISZERO PUSH2 0x1551 JUMPI POP PUSH1 0x1 PUSH1 0x0 DUP1 SLOAD SWAP1 PUSH2 0x100 EXP SWAP1 DIV PUSH1 0xFF AND PUSH1 0xFF AND EQ JUMPDEST JUMPDEST PUSH2 0x1591 JUMPI PUSH1 0x40 MLOAD PUSH32 0x8C379A000000000000000000000000000000000000000000000000000000000 DUP2 MSTORE PUSH1 0x4 ADD PUSH2 0x1588 SWAP1 PUSH2 0x2512 JUMP JUMPDEST PUSH1 0x40 MLOAD DUP1 SWAP2 SUB SWAP1 REVERT JUMPDEST PUSH1 0x1 PUSH1 0x0 DUP1 PUSH2 0x100 EXP DUP2 SLOAD DUP2 PUSH1 0xFF MUL NOT AND SWAP1 DUP4 PUSH1 0xFF AND MUL OR SWAP1 SSTORE POP DUP1 ISZERO PUSH2 0x15CE JUMPI PUSH1 0x1 PUSH1 0x0 PUSH1 0x1 PUSH2 0x100 EXP DUP2 SLOAD DUP2 PUSH1 0xFF MUL NOT AND SWAP1 DUP4 ISZERO ISZERO MUL OR SWAP1 SSTORE POP JUMPDEST PUSH2 0x15D6 PUSH2 0x1A30 JUMP JUMPDEST DUP1 ISZERO PUSH2 0x162F JUMPI PUSH1 0x0 DUP1 PUSH1 0x1 PUSH2 0x100 EXP DUP2 SLOAD DUP2 PUSH1 0xFF MUL NOT AND SWAP1 DUP4 ISZERO ISZERO MUL OR SWAP1 SSTORE POP PUSH32 0x7F26B83FF96E1F2B6A682F133852F6798A09C465DA95921460CEFB3847402498 PUSH1 0x1 PUSH1 0x40 MLOAD PUSH2 0x1626 SWAP2 SWAP1 PUSH2 0x2584 JUMP JUMPDEST PUSH1 0x40 MLOAD DUP1 SWAP2 SUB SWAP1 LOG1 JUMPDEST POP JUMP JUMPDEST PUSH1 0x0 DUP1 PUSH1 0x66 DUP1 SLOAD SWAP1 POP SWAP1 POP PUSH1 0x0 JUMPDEST DUP2 DUP2 LT ISZERO PUSH2 0x1728 JUMPI PUSH1 0x66 DUP2 DUP2 SLOAD DUP2 LT PUSH2 0x165C JUMPI PUSH2 0x165B PUSH2 0x21BE JUMP JUMPDEST JUMPDEST SWAP1 PUSH1 0x0 MSTORE PUSH1 0x20 PUSH1 0x0 KECCAK256 ADD PUSH1 0x0 SWAP1 SLOAD SWAP1 PUSH2 0x100 EXP SWAP1 DIV PUSH20 0xFFFFFFFFFFFFFFFFFFFFFFFFFFFFFFFFFFFFFFFF AND PUSH20 0xFFFFFFFFFFFFFFFFFFFFFFFFFFFFFFFFFFFFFFFF AND PUSH4 0x13B7CE4 DUP8 DUP8 DUP8 ADDRESS PUSH1 0x40 MLOAD DUP6 PUSH4 0xFFFFFFFF AND PUSH1 0xE0 SHL DUP2 MSTORE PUSH1 0x4 ADD PUSH2 0x16C5 SWAP5 SWAP4 SWAP3 SWAP2 SWAP1 PUSH2 0x259F JUMP JUMPDEST PUSH1 0x20 PUSH1 0x40 MLOAD DUP1 DUP4 SUB DUP2 DUP7 GAS STATICCALL ISZERO DUP1 ISZERO PUSH2 0x16E2 JUMPI RETURNDATASIZE PUSH1 0x0 DUP1 RETURNDATACOPY RETURNDATASIZE PUSH1 0x0 REVERT JUMPDEST POP POP POP POP PUSH1 0x40 MLOAD RETURNDATASIZE PUSH1 0x1F NOT PUSH1 0x1F DUP3 ADD AND DUP3 ADD DUP1 PUSH1 0x40 MSTORE POP DUP2 ADD SWAP1 PUSH2 0x1706 SWAP2 SWAP1 PUSH2 0x2610 JUMP JUMPDEST PUSH2 0x1715 JUMPI PUSH1 0x0 SWAP3 POP POP POP PUSH2 0x172F JUMP JUMPDEST DUP1 DUP1 PUSH2 0x1720 SWAP1 PUSH2 0x2254 JUMP JUMPDEST SWAP2 POP POP PUSH2 0x1640 JUMP JUMPDEST POP PUSH1 0x1 SWAP2 POP POP JUMPDEST SWAP4 SWAP3 POP POP POP JUMP JUMPDEST PUSH2 0x173E PUSH2 0x18C9 JUMP JUMPDEST PUSH1 0x67 PUSH1 0x0 DUP3 PUSH20 0xFFFFFFFFFFFFFFFFFFFFFFFFFFFFFFFFFFFFFFFF AND PUSH20 0xFFFFFFFFFFFFFFFFFFFFFFFFFFFFFFFFFFFFFFFF AND DUP2 MSTORE PUSH1 0x20 ADD SWAP1 DUP2 MSTORE PUSH1 0x20 ADD PUSH1 0x0 KECCAK256 PUSH1 0x0 SWAP1 SLOAD SWAP1 PUSH2 0x100 EXP SWAP1 DIV PUSH1 0xFF AND PUSH2 0x17CA JUMPI PUSH1 0x40 MLOAD PUSH32 0x8C379A000000000000000000000000000000000000000000000000000000000 DUP2 MSTORE PUSH1 0x4 ADD PUSH2 0x17C1 SWAP1 PUSH2 0x2689 JUMP JUMPDEST PUSH1 0x40 MLOAD DUP1 SWAP2 SUB SWAP1 REVERT JUMPDEST PUSH1 0x40 MLOAD DUP3 DUP5 DUP3 CALLDATACOPY PUSH1 0x0 DUP1 DUP5 DUP4 PUSH1 0x0 DUP7 GAS CALL PUSH2 0x17E9 JUMPI RETURNDATASIZE PUSH1 0x0 DUP1 RETURNDATACOPY RETURNDATASIZE PUSH1 0x0 REVERT JUMPDEST POP DUP1 PUSH20 0xFFFFFFFFFFFFFFFFFFFFFFFFFFFFFFFFFFFFFFFF AND PUSH32 0x20D79DE70ADCC6E9353D8A9A5646B46DC352710D0A310B1AD1F67FAECA7EF891 PUSH2 0x182C DUP6 DUP6 PUSH2 0x1A89 JUMP JUMPDEST PUSH1 0x40 MLOAD PUSH2 0x1839 SWAP2 SWAP1 PUSH2 0x26E4 JUMP JUMPDEST PUSH1 0x40 MLOAD DUP1 SWAP2 SUB SWAP1 LOG2 POP POP POP JUMP JUMPDEST PUSH2 0x184E PUSH2 0x18C9 JUMP JUMPDEST PUSH1 0x0 PUSH20 0xFFFFFFFFFFFFFFFFFFFFFFFFFFFFFFFFFFFFFFFF AND DUP2 PUSH20 0xFFFFFFFFFFFFFFFFFFFFFFFFFFFFFFFFFFFFFFFF AND SUB PUSH2 0x18BD JUMPI PUSH1 0x40 MLOAD PUSH32 0x8C379A000000000000000000000000000000000000000000000000000000000 DUP2 MSTORE PUSH1 0x4 ADD PUSH2 0x18B4 SWAP1 PUSH2 0x2771 JUMP JUMPDEST PUSH1 0x40 MLOAD DUP1 SWAP2 SUB SWAP1 REVERT JUMPDEST PUSH2 0x18C6 DUP2 PUSH2 0x1947 JUMP JUMPDEST POP JUMP JUMPDEST PUSH2 0x18D1 PUSH2 0x1AA1 JUMP JUMPDEST PUSH20 0xFFFFFFFFFFFFFFFFFFFFFFFFFFFFFFFFFFFFFFFF AND PUSH2 0x18EF PUSH2 0x104C JUMP JUMPDEST PUSH20 0xFFFFFFFFFFFFFFFFFFFFFFFFFFFFFFFFFFFFFFFF AND EQ PUSH2 0x1945 JUMPI PUSH1 0x40 MLOAD PUSH32 0x8C379A000000000000000000000000000000000000000000000000000000000 DUP2 MSTORE PUSH1 0x4 ADD PUSH2 0x193C SWAP1 PUSH2 0x27DD JUMP JUMPDEST PUSH1 0x40 MLOAD DUP1 SWAP2 SUB SWAP1 REVERT JUMPDEST JUMP JUMPDEST PUSH1 0x0 PUSH1 0x33 PUSH1 0x0 SWAP1 SLOAD SWAP1 PUSH2 0x100 EXP SWAP1 DIV PUSH20 0xFFFFFFFFFFFFFFFFFFFFFFFFFFFFFFFFFFFFFFFF AND SWAP1 POP DUP2 PUSH1 0x33 PUSH1 0x0 PUSH2 0x100 EXP DUP2 SLOAD DUP2 PUSH20 0xFFFFFFFFFFFFFFFFFFFFFFFFFFFFFFFFFFFFFFFF MUL NOT AND SWAP1 DUP4 PUSH20 0xFFFFFFFFFFFFFFFFFFFFFFFFFFFFFFFFFFFFFFFF AND MUL OR SWAP1 SSTORE POP DUP2 PUSH20 0xFFFFFFFFFFFFFFFFFFFFFFFFFFFFFFFFFFFFFFFF AND DUP2 PUSH20 0xFFFFFFFFFFFFFFFFFFFFFFFFFFFFFFFFFFFFFFFF AND PUSH32 0x8BE0079C531659141344CD1FD0A4F28419497F9722A3DAAFE3B4186F6B6457E0 PUSH1 0x40 MLOAD PUSH1 0x40 MLOAD DUP1 SWAP2 SUB SWAP1 LOG3 POP POP JUMP JUMPDEST PUSH1 0x0 DUP1 DUP3 PUSH20 0xFFFFFFFFFFFFFFFFFFFFFFFFFFFFFFFFFFFFFFFF AND EXTCODESIZE GT SWAP1 POP SWAP2 SWAP1 POP JUMP JUMPDEST PUSH1 0x0 PUSH1 0x1 SWAP1 SLOAD SWAP1 PUSH2 0x100 EXP SWAP1 DIV PUSH1 0xFF AND PUSH2 0x1A7F JUMPI PUSH1 0x40 MLOAD PUSH32 0x8C379A000000000000000000000000000000000000000000000000000000000 DUP2 MSTORE PUSH1 0x4 ADD PUSH2 0x1A76 SWAP1 PUSH2 0x286F JUMP JUMPDEST PUSH1 0x40 MLOAD DUP1 SWAP2 SUB SWAP1 REVERT JUMPDEST PUSH2 0x1A87 PUSH2 0x1AA9 JUMP JUMPDEST JUMP JUMPDEST PUSH1 0x0 PUSH1 0x4 DUP4 DUP4 SWAP1 POP LT PUSH2 0x1A9B JUMPI DUP3 CALLDATALOAD SWAP1 POP JUMPDEST SWAP3 SWAP2 POP POP JUMP JUMPDEST PUSH1 0x0 CALLER SWAP1 POP SWAP1 JUMP JUMPDEST PUSH1 0x0 PUSH1 0x1 SWAP1 SLOAD SWAP1 PUSH2 0x100 EXP SWAP1 DIV PUSH1 0xFF AND PUSH2 0x1AF8 JUMPI PUSH1 0x40 MLOAD PUSH32 0x8C379A000000000000000000000000000000000000000000000000000000000 DUP2 MSTORE PUSH1 0x4 ADD PUSH2 0x1AEF SWAP1 PUSH2 0x286F JUMP JUMPDEST PUSH1 0x40 MLOAD DUP1 SWAP2 SUB SWAP1 REVERT JUMPDEST PUSH2 0x1B08 PUSH2 0x1B03 PUSH2 0x1AA1 JUMP JUMPDEST PUSH2 0x1947 JUMP JUMPDEST JUMP JUMPDEST PUSH1 0x0 DUP1 REVERT JUMPDEST PUSH1 0x0 DUP1 REVERT JUMPDEST PUSH1 0x0 PUSH20 0xFFFFFFFFFFFFFFFFFFFFFFFFFFFFFFFFFFFFFFFF DUP3 AND SWAP1 POP SWAP2 SWAP1 POP JUMP JUMPDEST PUSH1 0x0 PUSH2 0x1B3F DUP3 PUSH2 0x1B14 JUMP JUMPDEST SWAP1 POP SWAP2 SWAP1 POP JUMP JUMPDEST PUSH2 0x1B4F DUP2 PUSH2 0x1B34 JUMP JUMPDEST DUP2 EQ PUSH2 0x1B5A JUMPI PUSH1 0x0 DUP1 REVERT JUMPDEST POP JUMP JUMPDEST PUSH1 0x0 DUP2 CALLDATALOAD SWAP1 POP PUSH2 0x1B6C DUP2 PUSH2 0x1B46 JUMP JUMPDEST SWAP3 SWAP2 POP POP JUMP JUMPDEST PUSH1 0x0 PUSH1 0x20 DUP3 DUP5 SUB SLT ISZERO PUSH2 0x1B88 JUMPI PUSH2 0x1B87 PUSH2 0x1B0A JUMP JUMPDEST JUMPDEST PUSH1 0x0 PUSH2 0x1B96 DUP5 DUP3 DUP6 ADD PUSH2 0x1B5D JUMP JUMPDEST SWAP2 POP POP SWAP3 SWAP2 POP POP JUMP JUMPDEST PUSH1 0x0 DUP2 SWAP1 POP SWAP2 SWAP1 POP JUMP JUMPDEST PUSH2 0x1BB2 DUP2 PUSH2 0x1B9F JUMP JUMPDEST DUP2 EQ PUSH2 0x1BBD JUMPI PUSH1 0x0 DUP1 REVERT JUMPDEST POP JUMP JUMPDEST PUSH1 0x0 DUP2 CALLDATALOAD SWAP1 POP PUSH2 0x1BCF DUP2 PUSH2 0x1BA9 JUMP JUMPDEST SWAP3 SWAP2 POP POP JUMP JUMPDEST PUSH1 0x0 DUP1 PUSH1 0x40 DUP4 DUP6 SUB SLT ISZERO PUSH2 0x1BEC JUMPI PUSH2 0x1BEB PUSH2 0x1B0A JUMP JUMPDEST JUMPDEST PUSH1 0x0 PUSH2 0x1BFA DUP6 DUP3 DUP7 ADD PUSH2 0x1B5D JUMP JUMPDEST SWAP3 POP POP PUSH1 0x20 PUSH2 0x1C0B DUP6 DUP3 DUP7 ADD PUSH2 0x1BC0 JUMP JUMPDEST SWAP2 POP POP SWAP3 POP SWAP3 SWAP1 POP JUMP JUMPDEST PUSH2 0x1C1E DUP2 PUSH2 0x1B34 JUMP JUMPDEST DUP3 MSTORE POP POP JUMP JUMPDEST PUSH1 0x0 PUSH1 0x20 DUP3 ADD SWAP1 POP PUSH2 0x1C39 PUSH1 0x0 DUP4 ADD DUP5 PUSH2 0x1C15 JUMP JUMPDEST SWAP3 SWAP2 POP POP JUMP JUMPDEST PUSH1 0x0 DUP1 PUSH1 0x0 PUSH1 0x60 DUP5 DUP7 SUB SLT ISZERO PUSH2 0x1C58 JUMPI PUSH2 0x1C57 PUSH2 0x1B0A JUMP JUMPDEST JUMPDEST PUSH1 0x0 PUSH2 0x1C66 DUP7 DUP3 DUP8 ADD PUSH2 0x1B5D JUMP JUMPDEST SWAP4 POP POP PUSH1 0x20 PUSH2 0x1C77 DUP7 DUP3 DUP8 ADD PUSH2 0x1B5D JUMP JUMPDEST SWAP3 POP POP PUSH1 0x40 PUSH2 0x1C88 DUP7 DUP3 DUP8 ADD PUSH2 0x1BC0 JUMP JUMPDEST SWAP2 POP POP SWAP3 POP SWAP3 POP SWAP3 JUMP JUMPDEST PUSH1 0x0 DUP2 ISZERO ISZERO SWAP1 POP SWAP2 SWAP1 POP JUMP JUMPDEST PUSH2 0x1CA7 DUP2 PUSH2 0x1C92 JUMP JUMPDEST DUP3 MSTORE POP POP JUMP JUMPDEST PUSH1 0x0 PUSH1 0x20 DUP3 ADD SWAP1 POP PUSH2 0x1CC2 PUSH1 0x0 DUP4 ADD DUP5 PUSH2 0x1C9E JUMP JUMPDEST SWAP3 SWAP2 POP POP JUMP JUMPDEST PUSH1 0x0 DUP2 MLOAD SWAP1 POP SWAP2 SWAP1 POP JUMP JUMPDEST PUSH1 0x0 DUP3 DUP3 MSTORE PUSH1 0x20 DUP3 ADD SWAP1 POP SWAP3 SWAP2 POP POP JUMP JUMPDEST PUSH1 0x0 DUP2 SWAP1 POP PUSH1 0x20 DUP3 ADD SWAP1 POP SWAP2 SWAP1 POP JUMP JUMPDEST PUSH2 0x1CFD DUP2 PUSH2 0x1B34 JUMP JUMPDEST DUP3 MSTORE POP POP JUMP JUMPDEST PUSH1 0x0 PUSH2 0x1D0F DUP4 DUP4 PUSH2 0x1CF4 JUMP JUMPDEST PUSH1 0x20 DUP4 ADD SWAP1 POP SWAP3 SWAP2 POP POP JUMP JUMPDEST PUSH1 0x0 PUSH1 0x20 DUP3 ADD SWAP1 POP SWAP2 SWAP1 POP JUMP JUMPDEST PUSH1 0x0 PUSH2 0x1D33 DUP3 PUSH2 0x1CC8 JUMP JUMPDEST PUSH2 0x1D3D DUP2 DUP6 PUSH2 0x1CD3 JUMP JUMPDEST SWAP4 POP PUSH2 0x1D48 DUP4 PUSH2 0x1CE4 JUMP JUMPDEST DUP1 PUSH1 0x0 JUMPDEST DUP4 DUP2 LT ISZERO PUSH2 0x1D79 JUMPI DUP2 MLOAD PUSH2 0x1D60 DUP9 DUP3 PUSH2 0x1D03 JUMP JUMPDEST SWAP8 POP PUSH2 0x1D6B DUP4 PUSH2 0x1D1B JUMP JUMPDEST SWAP3 POP POP PUSH1 0x1 DUP2 ADD SWAP1 POP PUSH2 0x1D4C JUMP JUMPDEST POP DUP6 SWAP4 POP POP POP POP SWAP3 SWAP2 POP POP JUMP JUMPDEST PUSH1 0x0 PUSH1 0x20 DUP3 ADD SWAP1 POP DUP2 DUP2 SUB PUSH1 0x0 DUP4 ADD MSTORE PUSH2 0x1DA0 DUP2 DUP5 PUSH2 0x1D28 JUMP JUMPDEST SWAP1 POP SWAP3 SWAP2 POP POP JUMP JUMPDEST PUSH1 0x0 DUP1 REVERT JUMPDEST PUSH1 0x0 DUP1 REVERT JUMPDEST PUSH1 0x0 DUP1 REVERT JUMPDEST PUSH1 0x0 DUP1 DUP4 PUSH1 0x1F DUP5 ADD SLT PUSH2 0x1DCD JUMPI PUSH2 0x1DCC PUSH2 0x1DA8 JUMP JUMPDEST JUMPDEST DUP3 CALLDATALOAD SWAP1 POP PUSH8 0xFFFFFFFFFFFFFFFF DUP2 GT ISZERO PUSH2 0x1DEA JUMPI PUSH2 0x1DE9 PUSH2 0x1DAD JUMP JUMPDEST JUMPDEST PUSH1 0x20 DUP4 ADD SWAP2 POP DUP4 PUSH1 0x1 DUP3 MUL DUP4 ADD GT ISZERO PUSH2 0x1E06 JUMPI PUSH2 0x1E05 PUSH2 0x1DB2 JUMP JUMPDEST JUMPDEST SWAP3 POP SWAP3 SWAP1 POP JUMP JUMPDEST PUSH1 0x0 DUP1 PUSH1 0x0 PUSH1 0x40 DUP5 DUP7 SUB SLT ISZERO PUSH2 0x1E26 JUMPI PUSH2 0x1E25 PUSH2 0x1B0A JUMP JUMPDEST JUMPDEST PUSH1 0x0 DUP5 ADD CALLDATALOAD PUSH8 0xFFFFFFFFFFFFFFFF DUP2 GT ISZERO PUSH2 0x1E44 JUMPI PUSH2 0x1E43 PUSH2 0x1B0F JUMP JUMPDEST JUMPDEST PUSH2 0x1E50 DUP7 DUP3 DUP8 ADD PUSH2 0x1DB7 JUMP JUMPDEST SWAP4 POP SWAP4 POP POP PUSH1 0x20 PUSH2 0x1E63 DUP7 DUP3 DUP8 ADD PUSH2 0x1B5D JUMP JUMPDEST SWAP2 POP POP SWAP3 POP SWAP3 POP SWAP3 JUMP JUMPDEST PUSH1 0x0 DUP3 DUP3 MSTORE PUSH1 0x20 DUP3 ADD SWAP1 POP SWAP3 SWAP2 POP POP JUMP JUMPDEST PUSH32 0x696E76616C696420617267756D656E74202D207A65726F206164647265737300 PUSH1 0x0 DUP3 ADD MSTORE POP JUMP JUMPDEST PUSH1 0x0 PUSH2 0x1EB4 PUSH1 0x1F DUP4 PUSH2 0x1E6D JUMP JUMPDEST SWAP2 POP PUSH2 0x1EBF DUP3 PUSH2 0x1E7E JUMP JUMPDEST PUSH1 0x20 DUP3 ADD SWAP1 POP SWAP2 SWAP1 POP JUMP JUMPDEST PUSH1 0x0 PUSH1 0x20 DUP3 ADD SWAP1 POP DUP2 DUP2 SUB PUSH1 0x0 DUP4 ADD MSTORE PUSH2 0x1EE3 DUP2 PUSH2 0x1EA7 JUMP JUMPDEST SWAP1 POP SWAP2 SWAP1 POP JUMP JUMPDEST PUSH32 0x6D6F64756C6520616C726561647920626F756E64000000000000000000000000 PUSH1 0x0 DUP3 ADD MSTORE POP JUMP JUMPDEST PUSH1 0x0 PUSH2 0x1F20 PUSH1 0x14 DUP4 PUSH2 0x1E6D JUMP JUMPDEST SWAP2 POP PUSH2 0x1F2B DUP3 PUSH2 0x1EEA JUMP JUMPDEST PUSH1 0x20 DUP3 ADD SWAP1 POP SWAP2 SWAP1 POP JUMP JUMPDEST PUSH1 0x0 PUSH1 0x20 DUP3 ADD SWAP1 POP DUP2 DUP2 SUB PUSH1 0x0 DUP4 ADD MSTORE PUSH2 0x1F4F DUP2 PUSH2 0x1F13 JUMP JUMPDEST SWAP1 POP SWAP2 SWAP1 POP JUMP JUMPDEST PUSH32 0x63616E6E6F7420616464206D6F7265207468616E203235206D6F64756C657300 PUSH1 0x0 DUP3 ADD MSTORE POP JUMP JUMPDEST PUSH1 0x0 PUSH2 0x1F8C PUSH1 0x1F DUP4 PUSH2 0x1E6D JUMP JUMPDEST SWAP2 POP PUSH2 0x1F97 DUP3 PUSH2 0x1F56 JUMP JUMPDEST PUSH1 0x20 DUP3 ADD SWAP1 POP SWAP2 SWAP1 POP JUMP JUMPDEST PUSH1 0x0 PUSH1 0x20 DUP3 ADD SWAP1 POP DUP2 DUP2 SUB PUSH1 0x0 DUP4 ADD MSTORE PUSH2 0x1FBB DUP2 PUSH2 0x1F7F JUMP JUMPDEST SWAP1 POP SWAP2 SWAP1 POP JUMP JUMPDEST PUSH32 0x6F6E6C79206F776E6572206F7220746F6B656E2063616E2063616C6C00000000 PUSH1 0x0 DUP3 ADD MSTORE POP JUMP JUMPDEST PUSH1 0x0 PUSH2 0x1FF8 PUSH1 0x1C DUP4 PUSH2 0x1E6D JUMP JUMPDEST SWAP2 POP PUSH2 0x2003 DUP3 PUSH2 0x1FC2 JUMP JUMPDEST PUSH1 0x20 DUP3 ADD SWAP1 POP SWAP2 SWAP1 POP JUMP JUMPDEST PUSH1 0x0 PUSH1 0x20 DUP3 ADD SWAP1 POP DUP2 DUP2 SUB PUSH1 0x0 DUP4 ADD MSTORE PUSH2 0x2027 DUP2 PUSH2 0x1FEB JUMP JUMPDEST SWAP1 POP SWAP2 SWAP1 POP JUMP JUMPDEST PUSH32 0x5468697320746F6B656E206973206E6F7420626F756E64000000000000000000 PUSH1 0x0 DUP3 ADD MSTORE POP JUMP JUMPDEST PUSH1 0x0 PUSH2 0x2064 PUSH1 0x17 DUP4 PUSH2 0x1E6D JUMP JUMPDEST SWAP2 POP PUSH2 0x206F DUP3 PUSH2 0x202E JUMP JUMPDEST PUSH1 0x20 DUP3 ADD SWAP1 POP SWAP2 SWAP1 POP JUMP JUMPDEST PUSH1 0x0 PUSH1 0x20 DUP3 ADD SWAP1 POP DUP2 DUP2 SUB PUSH1 0x0 DUP4 ADD MSTORE PUSH2 0x2093 DUP2 PUSH2 0x2057 JUMP JUMPDEST SWAP1 POP SWAP2 SWAP1 POP JUMP JUMPDEST PUSH32 0x6572726F72203A20746869732061646472657373206973206E6F74206120746F PUSH1 0x0 DUP3 ADD MSTORE PUSH32 0x6B656E20626F756E6420746F2074686520636F6D706C69616E636520636F6E74 PUSH1 0x20 DUP3 ADD MSTORE PUSH32 0x7261637400000000000000000000000000000000000000000000000000000000 PUSH1 0x40 DUP3 ADD MSTORE POP JUMP JUMPDEST PUSH1 0x0 PUSH2 0x211C PUSH1 0x44 DUP4 PUSH2 0x1E6D JUMP JUMPDEST SWAP2 POP PUSH2 0x2127 DUP3 PUSH2 0x209A JUMP JUMPDEST PUSH1 0x60 DUP3 ADD SWAP1 POP SWAP2 SWAP1 POP JUMP JUMPDEST PUSH1 0x0 PUSH1 0x20 DUP3 ADD SWAP1 POP DUP2 DUP2 SUB PUSH1 0x0 DUP4 ADD MSTORE PUSH2 0x214B DUP2 PUSH2 0x210F JUMP JUMPDEST SWAP1 POP SWAP2 SWAP1 POP JUMP JUMPDEST PUSH32 0x696E76616C696420617267756D656E74202D206E6F2076616C7565206D696E74 PUSH1 0x0 DUP3 ADD MSTORE POP JUMP JUMPDEST PUSH1 0x0 PUSH2 0x2188 PUSH1 0x20 DUP4 PUSH2 0x1E6D JUMP JUMPDEST SWAP2 POP PUSH2 0x2193 DUP3 PUSH2 0x2152 JUMP JUMPDEST PUSH1 0x20 DUP3 ADD SWAP1 POP SWAP2 SWAP1 POP JUMP JUMPDEST PUSH1 0x0 PUSH1 0x20 DUP3 ADD SWAP1 POP DUP2 DUP2 SUB PUSH1 0x0 DUP4 ADD MSTORE PUSH2 0x21B7 DUP2 PUSH2 0x217B JUMP JUMPDEST SWAP1 POP SWAP2 SWAP1 POP JUMP JUMPDEST PUSH32 0x4E487B7100000000000000000000000000000000000000000000000000000000 PUSH1 0x0 MSTORE PUSH1 0x32 PUSH1 0x4 MSTORE PUSH1 0x24 PUSH1 0x0 REVERT JUMPDEST PUSH2 0x21F6 DUP2 PUSH2 0x1B9F JUMP JUMPDEST DUP3 MSTORE POP POP JUMP JUMPDEST PUSH1 0x0 PUSH1 0x40 DUP3 ADD SWAP1 POP PUSH2 0x2211 PUSH1 0x0 DUP4 ADD DUP6 PUSH2 0x1C15 JUMP JUMPDEST PUSH2 0x221E PUSH1 0x20 DUP4 ADD DUP5 PUSH2 0x21ED JUMP JUMPDEST SWAP4 SWAP3 POP POP POP JUMP JUMPDEST PUSH32 0x4E487B7100000000000000000000000000000000000000000000000000000000 PUSH1 0x0 MSTORE PUSH1 0x11 PUSH1 0x4 MSTORE PUSH1 0x24 PUSH1 0x0 REVERT JUMPDEST PUSH1 0x0 PUSH2 0x225F DUP3 PUSH2 0x1B9F JUMP JUMPDEST SWAP2 POP PUSH32 0xFFFFFFFFFFFFFFFFFFFFFFFFFFFFFFFFFFFFFFFFFFFFFFFFFFFFFFFFFFFFFFFF DUP3 SUB PUSH2 0x2291 JUMPI PUSH2 0x2290 PUSH2 0x2225 JUMP JUMPDEST JUMPDEST PUSH1 0x1 DUP3 ADD SWAP1 POP SWAP2 SWAP1 POP JUMP JUMPDEST PUSH32 0x696E76616C696420617267756D656E74202D206E6F2076616C7565207472616E PUSH1 0x0 DUP3 ADD MSTORE PUSH32 0x7366657200000000000000000000000000000000000000000000000000000000 PUSH1 0x20 DUP3 ADD MSTORE POP JUMP JUMPDEST PUSH1 0x0 PUSH2 0x22F8 PUSH1 0x24 DUP4 PUSH2 0x1E6D JUMP JUMPDEST SWAP2 POP PUSH2 0x2303 DUP3 PUSH2 0x229C JUMP JUMPDEST PUSH1 0x40 DUP3 ADD SWAP1 POP SWAP2 SWAP1 POP JUMP JUMPDEST PUSH1 0x0 PUSH1 0x20 DUP3 ADD SWAP1 POP DUP2 DUP2 SUB PUSH1 0x0 DUP4 ADD MSTORE PUSH2 0x2327 DUP2 PUSH2 0x22EB JUMP JUMPDEST SWAP1 POP SWAP2 SWAP1 POP JUMP JUMPDEST PUSH1 0x0 PUSH1 0x60 DUP3 ADD SWAP1 POP PUSH2 0x2343 PUSH1 0x0 DUP4 ADD DUP7 PUSH2 0x1C15 JUMP JUMPDEST PUSH2 0x2350 PUSH1 0x20 DUP4 ADD DUP6 PUSH2 0x1C15 JUMP JUMPDEST PUSH2 0x235D PUSH1 0x40 DUP4 ADD DUP5 PUSH2 0x21ED JUMP JUMPDEST SWAP5 SWAP4 POP POP POP POP JUMP JUMPDEST PUSH32 0x696E76616C696420617267756D656E74202D206E6F2076616C7565206275726E PUSH1 0x0 DUP3 ADD MSTORE POP JUMP JUMPDEST PUSH1 0x0 PUSH2 0x239B PUSH1 0x20 DUP4 PUSH2 0x1E6D JUMP JUMPDEST SWAP2 POP PUSH2 0x23A6 DUP3 PUSH2 0x2365 JUMP JUMPDEST PUSH1 0x20 DUP3 ADD SWAP1 POP SWAP2 SWAP1 POP JUMP JUMPDEST PUSH1 0x0 PUSH1 0x20 DUP3 ADD SWAP1 POP DUP2 DUP2 SUB PUSH1 0x0 DUP4 ADD MSTORE PUSH2 0x23CA DUP2 PUSH2 0x238E JUMP JUMPDEST SWAP1 POP SWAP2 SWAP1 POP JUMP JUMPDEST PUSH32 0x6D6F64756C65206E6F7420626F756E6400000000000000000000000000000000 PUSH1 0x0 DUP3 ADD MSTORE POP JUMP JUMPDEST PUSH1 0x0 PUSH2 0x2407 PUSH1 0x10 DUP4 PUSH2 0x1E6D JUMP JUMPDEST SWAP2 POP PUSH2 0x2412 DUP3 PUSH2 0x23D1 JUMP JUMPDEST PUSH1 0x20 DUP3 ADD SWAP1 POP SWAP2 SWAP1 POP JUMP JUMPDEST PUSH1 0x0 PUSH1 0x20 DUP3 ADD SWAP1 POP DUP2 DUP2 SUB PUSH1 0x0 DUP4 ADD MSTORE PUSH2 0x2436 DUP2 PUSH2 0x23FA JUMP JUMPDEST SWAP1 POP SWAP2 SWAP1 POP JUMP JUMPDEST PUSH1 0x0 PUSH2 0x2448 DUP3 PUSH2 0x1B9F JUMP JUMPDEST SWAP2 POP PUSH2 0x2453 DUP4 PUSH2 0x1B9F JUMP JUMPDEST SWAP3 POP DUP3 DUP3 SUB SWAP1 POP DUP2 DUP2 GT ISZERO PUSH2 0x246B JUMPI PUSH2 0x246A PUSH2 0x2225 JUMP JUMPDEST JUMPDEST SWAP3 SWAP2 POP POP JUMP JUMPDEST PUSH32 0x4E487B7100000000000000000000000000000000000000000000000000000000 PUSH1 0x0 MSTORE PUSH1 0x31 PUSH1 0x4 MSTORE PUSH1 0x24 PUSH1 0x0 REVERT JUMPDEST PUSH32 0x496E697469616C697A61626C653A20636F6E747261637420697320616C726561 PUSH1 0x0 DUP3 ADD MSTORE PUSH32 0x647920696E697469616C697A6564000000000000000000000000000000000000 PUSH1 0x20 DUP3 ADD MSTORE POP JUMP JUMPDEST PUSH1 0x0 PUSH2 0x24FC PUSH1 0x2E DUP4 PUSH2 0x1E6D JUMP JUMPDEST SWAP2 POP PUSH2 0x2507 DUP3 PUSH2 0x24A0 JUMP JUMPDEST PUSH1 0x40 DUP3 ADD SWAP1 POP SWAP2 SWAP1 POP JUMP JUMPDEST PUSH1 0x0 PUSH1 0x20 DUP3 ADD SWAP1 POP DUP2 DUP2 SUB PUSH1 0x0 DUP4 ADD MSTORE PUSH2 0x252B DUP2 PUSH2 0x24EF JUMP JUMPDEST SWAP1 POP SWAP2 SWAP1 POP JUMP JUMPDEST PUSH1 0x0 DUP2 SWAP1 POP SWAP2 SWAP1 POP JUMP JUMPDEST PUSH1 0x0 PUSH1 0xFF DUP3 AND SWAP1 POP SWAP2 SWAP1 POP JUMP JUMPDEST PUSH1 0x0 DUP2 SWAP1 POP SWAP2 SWAP1 POP JUMP JUMPDEST PUSH1 0x0 PUSH2 0x256E PUSH2 0x2569 PUSH2 0x2564 DUP5 PUSH2 0x2532 JUMP JUMPDEST PUSH2 0x2549 JUMP JUMPDEST PUSH2 0x253C JUMP JUMPDEST SWAP1 POP SWAP2 SWAP1 POP JUMP JUMPDEST PUSH2 0x257E DUP2 PUSH2 0x2553 JUMP JUMPDEST DUP3 MSTORE POP POP JUMP JUMPDEST PUSH1 0x0 PUSH1 0x20 DUP3 ADD SWAP1 POP PUSH2 0x2599 PUSH1 0x0 DUP4 ADD DUP5 PUSH2 0x2575 JUMP JUMPDEST SWAP3 SWAP2 POP POP JUMP JUMPDEST PUSH1 0x0 PUSH1 0x80 DUP3 ADD SWAP1 POP PUSH2 0x25B4 PUSH1 0x0 DUP4 ADD DUP8 PUSH2 0x1C15 JUMP JUMPDEST PUSH2 0x25C1 PUSH1 0x20 DUP4 ADD DUP7 PUSH2 0x1C15 JUMP JUMPDEST PUSH2 0x25CE PUSH1 0x40 DUP4 ADD DUP6 PUSH2 0x21ED JUMP JUMPDEST PUSH2 0x25DB PUSH1 0x60 DUP4 ADD DUP5 PUSH2 0x1C15 JUMP JUMPDEST SWAP6 SWAP5 POP POP POP POP POP JUMP JUMPDEST PUSH2 0x25ED DUP2 PUSH2 0x1C92 JUMP JUMPDEST DUP2 EQ PUSH2 0x25F8 JUMPI PUSH1 0x0 DUP1 REVERT JUMPDEST POP JUMP JUMPDEST PUSH1 0x0 DUP2 MLOAD SWAP1 POP PUSH2 0x260A DUP2 PUSH2 0x25E4 JUMP JUMPDEST SWAP3 SWAP2 POP POP JUMP JUMPDEST PUSH1 0x0 PUSH1 0x20 DUP3 DUP5 SUB SLT ISZERO PUSH2 0x2626 JUMPI PUSH2 0x2625 PUSH2 0x1B0A JUMP JUMPDEST JUMPDEST PUSH1 0x0 PUSH2 0x2634 DUP5 DUP3 DUP6 ADD PUSH2 0x25FB JUMP JUMPDEST SWAP2 POP POP SWAP3 SWAP2 POP POP JUMP JUMPDEST PUSH32 0x63616C6C206F6E6C79206F6E20626F756E64206D6F64756C6500000000000000 PUSH1 0x0 DUP3 ADD MSTORE POP JUMP JUMPDEST PUSH1 0x0 PUSH2 0x2673 PUSH1 0x19 DUP4 PUSH2 0x1E6D JUMP JUMPDEST SWAP2 POP PUSH2 0x267E DUP3 PUSH2 0x263D JUMP JUMPDEST PUSH1 0x20 DUP3 ADD SWAP1 POP SWAP2 SWAP1 POP JUMP JUMPDEST PUSH1 0x0 PUSH1 0x20 DUP3 ADD SWAP1 POP DUP2 DUP2 SUB PUSH1 0x0 DUP4 ADD MSTORE PUSH2 0x26A2 DUP2 PUSH2 0x2666 JUMP JUMPDEST SWAP1 POP SWAP2 SWAP1 POP JUMP JUMPDEST PUSH1 0x0 PUSH32 0xFFFFFFFF00000000000000000000000000000000000000000000000000000000 DUP3 AND SWAP1 POP SWAP2 SWAP1 POP JUMP JUMPDEST PUSH2 0x26DE DUP2 PUSH2 0x26A9 JUMP JUMPDEST DUP3 MSTORE POP POP JUMP JUMPDEST PUSH1 0x0 PUSH1 0x20 DUP3 ADD SWAP1 POP PUSH2 0x26F9 PUSH1 0x0 DUP4 ADD DUP5 PUSH2 0x26D5 JUMP JUMPDEST SWAP3 SWAP2 POP POP JUMP JUMPDEST PUSH32 0x4F776E61626C653A206E6577206F776E657220697320746865207A65726F2061 PUSH1 0x0 DUP3 ADD MSTORE PUSH32 0x6464726573730000000000000000000000000000000000000000000000000000 PUSH1 0x20 DUP3 ADD MSTORE POP JUMP JUMPDEST PUSH1 0x0 PUSH2 0x275B PUSH1 0x26 DUP4 PUSH2 0x1E6D JUMP JUMPDEST SWAP2 POP PUSH2 0x2766 DUP3 PUSH2 0x26FF JUMP JUMPDEST PUSH1 0x40 DUP3 ADD SWAP1 POP SWAP2 SWAP1 POP JUMP JUMPDEST PUSH1 0x0 PUSH1 0x20 DUP3 ADD SWAP1 POP DUP2 DUP2 SUB PUSH1 0x0 DUP4 ADD MSTORE PUSH2 0x278A DUP2 PUSH2 0x274E JUMP JUMPDEST SWAP1 POP SWAP2 SWAP1 POP JUMP JUMPDEST PUSH32 0x4F776E61626C653A2063616C6C6572206973206E6F7420746865206F776E6572 PUSH1 0x0 DUP3 ADD MSTORE POP JUMP JUMPDEST PUSH1 0x0 PUSH2 0x27C7 PUSH1 0x20 DUP4 PUSH2 0x1E6D JUMP JUMPDEST SWAP2 POP PUSH2 0x27D2 DUP3 PUSH2 0x2791 JUMP JUMPDEST PUSH1 0x20 DUP3 ADD SWAP1 POP SWAP2 SWAP1 POP JUMP JUMPDEST PUSH1 0x0 PUSH1 0x20 DUP3 ADD SWAP1 POP DUP2 DUP2 SUB PUSH1 0x0 DUP4 ADD MSTORE PUSH2 0x27F6 DUP2 PUSH2 0x27BA JUMP JUMPDEST SWAP1 POP SWAP2 SWAP1 POP JUMP JUMPDEST PUSH32 0x496E697469616C697A61626C653A20636F6E7472616374206973206E6F742069 PUSH1 0x0 DUP3 ADD MSTORE PUSH32 0x6E697469616C697A696E67000000000000000000000000000000000000000000 PUSH1 0x20 DUP3 ADD MSTORE POP JUMP JUMPDEST PUSH1 0x0 PUSH2 0x2859 PUSH1 0x2B DUP4 PUSH2 0x1E6D JUMP JUMPDEST SWAP2 POP PUSH2 0x2864 DUP3 PUSH2 0x27FD JUMP JUMPDEST PUSH1 0x40 DUP3 ADD SWAP1 POP SWAP2 SWAP1 POP JUMP JUMPDEST PUSH1 0x0 PUSH1 0x20 DUP3 ADD SWAP1 POP DUP2 DUP2 SUB PUSH1 0x0 DUP4 ADD MSTORE PUSH2 0x2888 DUP2 PUSH2 0x284C JUMP JUMPDEST SWAP1 POP SWAP2 SWAP1 POP JUMP INVALID LOG2 PUSH5 0x6970667358 0x22 SLT KECCAK256 0xC4 SHL 0xD1 DUP15 DUP9 CODECOPY 0xC1 0xF 0x23 GT SLT 0xC8 0xDA 0xB3 DUP15 PUSH22 0x42361698242BBC7605F39CFBC3C5075E64736F6C6343 STOP ADDMOD GT STOP CALLER "
				},
				"gasEstimates": {
					"creation": {
						"codeDepositCost": "2087400",
						"executionCost": "2221",
						"totalCost": "2089621"
					},
					"external": {
						"addModule(address)": "infinite",
						"bindToken(address)": "infinite",
						"callModuleFunction(bytes,address)": "infinite",
						"canTransfer(address,address,uint256)": "infinite",
						"created(address,uint256)": "infinite",
						"destroyed(address,uint256)": "infinite",
						"getModules()": "infinite",
						"getTokenBound()": "2545",
						"init()": "116149",
						"isModuleBound(address)": "2950",
						"owner()": "2545",
						"removeModule(address)": "infinite",
						"renounceOwnership()": "30443",
						"transferOwnership(address)": "30832",
						"transferred(address,address,uint256)": "infinite",
						"unbindToken(address)": "infinite"
					},
					"internal": {
						"_selector(bytes calldata)": "64"
					}
				},
				"methodIdentifiers": {
					"addModule(address)": "1ed86f19",
					"bindToken(address)": "3ff5aa02",
					"callModuleFunction(bytes,address)": "efb22d33",
					"canTransfer(address,address,uint256)": "e46638e6",
					"created(address,uint256)": "5f8dead3",
					"destroyed(address,uint256)": "8d2ea772",
					"getModules()": "b2494df3",
					"getTokenBound()": "6a3edf28",
					"init()": "e1c7392a",
					"isModuleBound(address)": "a446d49f",
					"owner()": "8da5cb5b",
					"removeModule(address)": "a0632461",
					"renounceOwnership()": "715018a6",
					"transferOwnership(address)": "f2fde38b",
					"transferred(address,address,uint256)": "8baf29b4",
					"unbindToken(address)": "40db3b50"
				}
			},
			"storageLayout": {
				"storage": [
					{
						"astId": 462,
						"contract": "Tokeny Project/Compliance/modular/ModularCompliance.sol:ModularCompliance",
						"label": "_initialized",
						"offset": 0,
						"slot": "0",
						"type": "t_uint8"
					},
					{
						"astId": 465,
						"contract": "Tokeny Project/Compliance/modular/ModularCompliance.sol:ModularCompliance",
						"label": "_initializing",
						"offset": 1,
						"slot": "0",
						"type": "t_bool"
					},
					{
						"astId": 995,
						"contract": "Tokeny Project/Compliance/modular/ModularCompliance.sol:ModularCompliance",
						"label": "__gap",
						"offset": 0,
						"slot": "1",
						"type": "t_array(t_uint256)50_storage"
					},
					{
						"astId": 334,
						"contract": "Tokeny Project/Compliance/modular/ModularCompliance.sol:ModularCompliance",
						"label": "_owner",
						"offset": 0,
						"slot": "51",
						"type": "t_address"
					},
					{
						"astId": 454,
						"contract": "Tokeny Project/Compliance/modular/ModularCompliance.sol:ModularCompliance",
						"label": "__gap",
						"offset": 0,
						"slot": "52",
						"type": "t_array(t_uint256)49_storage"
					},
					{
						"astId": 1080,
						"contract": "Tokeny Project/Compliance/modular/ModularCompliance.sol:ModularCompliance",
						"label": "_tokenBound",
						"offset": 0,
						"slot": "101",
						"type": "t_address"
					},
					{
						"astId": 1084,
						"contract": "Tokeny Project/Compliance/modular/ModularCompliance.sol:ModularCompliance",
						"label": "_modules",
						"offset": 0,
						"slot": "102",
						"type": "t_array(t_address)dyn_storage"
					},
					{
						"astId": 1089,
						"contract": "Tokeny Project/Compliance/modular/ModularCompliance.sol:ModularCompliance",
						"label": "_moduleBound",
						"offset": 0,
						"slot": "103",
						"type": "t_mapping(t_address,t_bool)"
					},
					{
						"astId": 1093,
						"contract": "Tokeny Project/Compliance/modular/ModularCompliance.sol:ModularCompliance",
						"label": "__gap",
						"offset": 0,
						"slot": "104",
						"type": "t_array(t_uint256)49_storage"
					}
				],
				"types": {
					"t_address": {
						"encoding": "inplace",
						"label": "address",
						"numberOfBytes": "20"
					},
					"t_array(t_address)dyn_storage": {
						"base": "t_address",
						"encoding": "dynamic_array",
						"label": "address[]",
						"numberOfBytes": "32"
					},
					"t_array(t_uint256)49_storage": {
						"base": "t_uint256",
						"encoding": "inplace",
						"label": "uint256[49]",
						"numberOfBytes": "1568"
					},
					"t_array(t_uint256)50_storage": {
						"base": "t_uint256",
						"encoding": "inplace",
						"label": "uint256[50]",
						"numberOfBytes": "1600"
					},
					"t_bool": {
						"encoding": "inplace",
						"label": "bool",
						"numberOfBytes": "1"
					},
					"t_mapping(t_address,t_bool)": {
						"encoding": "mapping",
						"key": "t_address",
						"label": "mapping(address => bool)",
						"numberOfBytes": "32",
						"value": "t_bool"
					},
					"t_uint256": {
						"encoding": "inplace",
						"label": "uint256",
						"numberOfBytes": "32"
					},
					"t_uint8": {
						"encoding": "inplace",
						"label": "uint8",
						"numberOfBytes": "1"
					}
				}
			},
			"userdoc": {
				"events": {
					"ModuleAdded(address)": {
						"notice": "this event is emitted when a module has been added to the list of modules bound to the compliance contract  the event is emitted by the addModule function  `_module` is the address of the compliance module"
					},
					"ModuleRemoved(address)": {
						"notice": "this event is emitted when a module has been removed from the list of modules bound to the compliance contract  the event is emitted by the removeModule function  `_module` is the address of the compliance module"
					},
					"TokenBound(address)": {
						"notice": "this event is emitted when a token has been bound to the compliance contract  the event is emitted by the bindToken function  `_token` is the address of the token to bind"
					},
					"TokenUnbound(address)": {
						"notice": "this event is emitted when a token has been unbound from the compliance contract  the event is emitted by the unbindToken function  `_token` is the address of the token to unbind"
					}
				},
				"kind": "user",
				"methods": {},
				"version": 1
			}
		}
	}
}