{
	"erc3643/erc3643/Compliance/modular/ModularCompliance.sol": {
		"ModularCompliance": {
			"abi": [
				{
					"anonymous": false,
					"inputs": [
						{
							"indexed": false,
							"internalType": "uint8",
							"name": "version",
							"type": "uint8"
						}
					],
					"name": "Initialized",
					"type": "event"
				},
				{
					"anonymous": false,
					"inputs": [
						{
							"indexed": true,
							"internalType": "address",
							"name": "_module",
							"type": "address"
						}
					],
					"name": "ModuleAdded",
					"type": "event"
				},
				{
					"anonymous": false,
					"inputs": [
						{
							"indexed": true,
							"internalType": "address",
							"name": "target",
							"type": "address"
						},
						{
							"indexed": false,
							"internalType": "bytes4",
							"name": "selector",
							"type": "bytes4"
						}
					],
					"name": "ModuleInteraction",
					"type": "event"
				},
				{
					"anonymous": false,
					"inputs": [
						{
							"indexed": true,
							"internalType": "address",
							"name": "_module",
							"type": "address"
						}
					],
					"name": "ModuleRemoved",
					"type": "event"
				},
				{
					"anonymous": false,
					"inputs": [
						{
							"indexed": true,
							"internalType": "address",
							"name": "previousOwner",
							"type": "address"
						},
						{
							"indexed": true,
							"internalType": "address",
							"name": "newOwner",
							"type": "address"
						}
					],
					"name": "OwnershipTransferred",
					"type": "event"
				},
				{
					"anonymous": false,
					"inputs": [
						{
							"indexed": false,
							"internalType": "address",
							"name": "_token",
							"type": "address"
						}
					],
					"name": "TokenBound",
					"type": "event"
				},
				{
					"anonymous": false,
					"inputs": [
						{
							"indexed": false,
							"internalType": "address",
							"name": "_token",
							"type": "address"
						}
					],
					"name": "TokenUnbound",
					"type": "event"
				},
				{
					"inputs": [
						{
							"internalType": "address",
							"name": "_module",
							"type": "address"
						}
					],
					"name": "addModule",
					"outputs": [],
					"stateMutability": "nonpayable",
					"type": "function"
				},
				{
					"inputs": [
						{
							"internalType": "address",
							"name": "_token",
							"type": "address"
						}
					],
					"name": "bindToken",
					"outputs": [],
					"stateMutability": "nonpayable",
					"type": "function"
				},
				{
					"inputs": [
						{
							"internalType": "bytes",
							"name": "callData",
							"type": "bytes"
						},
						{
							"internalType": "address",
							"name": "_module",
							"type": "address"
						}
					],
					"name": "callModuleFunction",
					"outputs": [],
					"stateMutability": "nonpayable",
					"type": "function"
				},
				{
					"inputs": [
						{
							"internalType": "address",
							"name": "_from",
							"type": "address"
						},
						{
							"internalType": "address",
							"name": "_to",
							"type": "address"
						},
						{
							"internalType": "uint256",
							"name": "_value",
							"type": "uint256"
						}
					],
					"name": "canTransfer",
					"outputs": [
						{
							"internalType": "bool",
							"name": "",
							"type": "bool"
						}
					],
					"stateMutability": "view",
					"type": "function"
				},
				{
					"inputs": [
						{
							"internalType": "address",
							"name": "_to",
							"type": "address"
						},
						{
							"internalType": "uint256",
							"name": "_value",
							"type": "uint256"
						}
					],
					"name": "created",
					"outputs": [],
					"stateMutability": "nonpayable",
					"type": "function"
				},
				{
					"inputs": [
						{
							"internalType": "address",
							"name": "_from",
							"type": "address"
						},
						{
							"internalType": "uint256",
							"name": "_value",
							"type": "uint256"
						}
					],
					"name": "destroyed",
					"outputs": [],
					"stateMutability": "nonpayable",
					"type": "function"
				},
				{
					"inputs": [],
					"name": "getModules",
					"outputs": [
						{
							"internalType": "address[]",
							"name": "",
							"type": "address[]"
						}
					],
					"stateMutability": "view",
					"type": "function"
				},
				{
					"inputs": [],
					"name": "getTokenBound",
					"outputs": [
						{
							"internalType": "address",
							"name": "",
							"type": "address"
						}
					],
					"stateMutability": "view",
					"type": "function"
				},
				{
					"inputs": [],
					"name": "init",
					"outputs": [],
					"stateMutability": "nonpayable",
					"type": "function"
				},
				{
					"inputs": [
						{
							"internalType": "address",
							"name": "_module",
							"type": "address"
						}
					],
					"name": "isModuleBound",
					"outputs": [
						{
							"internalType": "bool",
							"name": "",
							"type": "bool"
						}
					],
					"stateMutability": "view",
					"type": "function"
				},
				{
					"inputs": [],
					"name": "owner",
					"outputs": [
						{
							"internalType": "address",
							"name": "",
							"type": "address"
						}
					],
					"stateMutability": "view",
					"type": "function"
				},
				{
					"inputs": [
						{
							"internalType": "address",
							"name": "_module",
							"type": "address"
						}
					],
					"name": "removeModule",
					"outputs": [],
					"stateMutability": "nonpayable",
					"type": "function"
				},
				{
					"inputs": [],
					"name": "renounceOwnership",
					"outputs": [],
					"stateMutability": "nonpayable",
					"type": "function"
				},
				{
					"inputs": [
						{
							"internalType": "address",
							"name": "newOwner",
							"type": "address"
						}
					],
					"name": "transferOwnership",
					"outputs": [],
					"stateMutability": "nonpayable",
					"type": "function"
				},
				{
					"inputs": [
						{
							"internalType": "address",
							"name": "_from",
							"type": "address"
						},
						{
							"internalType": "address",
							"name": "_to",
							"type": "address"
						},
						{
							"internalType": "uint256",
							"name": "_value",
							"type": "uint256"
						}
					],
					"name": "transferred",
					"outputs": [],
					"stateMutability": "nonpayable",
					"type": "function"
				},
				{
					"inputs": [
						{
							"internalType": "address",
							"name": "_token",
							"type": "address"
						}
					],
					"name": "unbindToken",
					"outputs": [],
					"stateMutability": "nonpayable",
					"type": "function"
				}
			],
			"devdoc": {
				"kind": "dev",
				"methods": {
					"owner()": {
						"details": "Returns the address of the current owner."
					},
					"renounceOwnership()": {
						"details": "Leaves the contract without owner. It will not be possible to call `onlyOwner` functions. Can only be called by the current owner. NOTE: Renouncing ownership will leave the contract without an owner, thereby disabling any functionality that is only available to the owner."
					},
					"transferOwnership(address)": {
						"details": "Transfers ownership of the contract to a new account (`newOwner`). Can only be called by the current owner."
					}
				},
				"version": 1
			},
			"evm": {
				"assembly": "    /* \"erc3643/erc3643/Compliance/modular/ModularCompliance.sol\":264:5909  contract ModularCompliance is... */\n  mstore(0x40, 0x80)\n  callvalue\n  dup1\n  iszero\n  tag_1\n  jumpi\n  0x00\n  dup1\n  revert\ntag_1:\n  pop\n  dataSize(sub_0)\n  dup1\n  dataOffset(sub_0)\n  0x00\n  codecopy\n  0x00\n  return\nstop\n\nsub_0: assembly {\n        /* \"erc3643/erc3643/Compliance/modular/ModularCompliance.sol\":264:5909  contract ModularCompliance is... */\n      mstore(0x40, 0x80)\n      callvalue\n      dup1\n      iszero\n      tag_1\n      jumpi\n      0x00\n      dup1\n      revert\n    tag_1:\n      pop\n      jumpi(tag_2, lt(calldatasize, 0x04))\n      shr(0xe0, calldataload(0x00))\n      dup1\n      0x8da5cb5b\n      gt\n      tag_19\n      jumpi\n      dup1\n      0xe1c7392a\n      gt\n      tag_20\n      jumpi\n      dup1\n      0xe1c7392a\n      eq\n      tag_15\n      jumpi\n      dup1\n      0xe46638e6\n      eq\n      tag_16\n      jumpi\n      dup1\n      0xefb22d33\n      eq\n      tag_17\n      jumpi\n      dup1\n      0xf2fde38b\n      eq\n      tag_18\n      jumpi\n      0x00\n      dup1\n      revert\n    tag_20:\n      dup1\n      0x8da5cb5b\n      eq\n      tag_11\n      jumpi\n      dup1\n      0xa0632461\n      eq\n      tag_12\n      jumpi\n      dup1\n      0xa446d49f\n      eq\n      tag_13\n      jumpi\n      dup1\n      0xb2494df3\n      eq\n      tag_14\n      jumpi\n      0x00\n      dup1\n      revert\n    tag_19:\n      dup1\n      0x6a3edf28\n      gt\n      tag_21\n      jumpi\n      dup1\n      0x6a3edf28\n      eq\n      tag_7\n      jumpi\n      dup1\n      0x715018a6\n      eq\n      tag_8\n      jumpi\n      dup1\n      0x8baf29b4\n      eq\n      tag_9\n      jumpi\n      dup1\n      0x8d2ea772\n      eq\n      tag_10\n      jumpi\n      0x00\n      dup1\n      revert\n    tag_21:\n      dup1\n      0x1ed86f19\n      eq\n      tag_3\n      jumpi\n      dup1\n      0x3ff5aa02\n      eq\n      tag_4\n      jumpi\n      dup1\n      0x40db3b50\n      eq\n      tag_5\n      jumpi\n      dup1\n      0x5f8dead3\n      eq\n      tag_6\n      jumpi\n    tag_2:\n      0x00\n      dup1\n      revert\n        /* \"erc3643/erc3643/Compliance/modular/ModularCompliance.sol\":1521:1968  function addModule(address _module) external override onlyOwner {... */\n    tag_3:\n      tag_22\n      tag_23\n      calldatasize\n      0x04\n      tag_24\n      jump\t// in\n    tag_23:\n      tag_25\n      jump\t// in\n    tag_22:\n      stop\n        /* \"erc3643/erc3643/Compliance/modular/ModularCompliance.sol\":650:1113  function bindToken(address _token) external override {... */\n    tag_4:\n      tag_22\n      tag_27\n      calldatasize\n      0x04\n      tag_24\n      jump\t// in\n    tag_27:\n      tag_28\n      jump\t// in\n        /* \"erc3643/erc3643/Compliance/modular/ModularCompliance.sol\":1119:1515  function unbindToken(address _token) external override {... */\n    tag_5:\n      tag_22\n      tag_30\n      calldatasize\n      0x04\n      tag_24\n      jump\t// in\n    tag_30:\n      tag_31\n      jump\t// in\n        /* \"erc3643/erc3643/Compliance/modular/ModularCompliance.sol\":3116:3496  function created(address _to, uint256 _value) external override onlyToken {... */\n    tag_6:\n      tag_22\n      tag_33\n      calldatasize\n      0x04\n      tag_34\n      jump\t// in\n    tag_33:\n      tag_35\n      jump\t// in\n        /* \"erc3643/erc3643/Compliance/modular/ModularCompliance.sol\":5018:5119  function getTokenBound() external view override returns (address) {... */\n    tag_7:\n        /* \"erc3643/erc3643/Compliance/modular/ModularCompliance.sol\":5101:5112  _tokenBound */\n      and(sub(shl(0xa0, 0x01), 0x01), sload(0x65))\n        /* \"erc3643/erc3643/Compliance/modular/ModularCompliance.sol\":5018:5119  function getTokenBound() external view override returns (address) {... */\n    tag_36:\n      mload(0x40)\n      sub(shl(0xa0, 0x01), 0x01)\n        /* \"#utility.yul\":806:838   */\n      swap1\n      swap2\n      and\n        /* \"#utility.yul\":788:839   */\n      dup2\n      mstore\n        /* \"#utility.yul\":776:778   */\n      0x20\n        /* \"#utility.yul\":761:779   */\n      add\n        /* \"erc3643/erc3643/Compliance/modular/ModularCompliance.sol\":5018:5119  function getTokenBound() external view override returns (address) {... */\n    tag_38:\n      mload(0x40)\n      dup1\n      swap2\n      sub\n      swap1\n      return\n        /* \"@openzeppelin/contracts-upgradeable/access/OwnableUpgradeable.sol\":2064:2165  function renounceOwnership() public virtual onlyOwner {... */\n    tag_8:\n      tag_22\n      tag_41\n      jump\t// in\n        /* \"erc3643/erc3643/Compliance/modular/ModularCompliance.sol\":2609:3110  function transferred(... */\n    tag_9:\n      tag_22\n      tag_43\n      calldatasize\n      0x04\n      tag_44\n      jump\t// in\n    tag_43:\n      tag_45\n      jump\t// in\n        /* \"erc3643/erc3643/Compliance/modular/ModularCompliance.sol\":3502:3918  function destroyed(address _from, uint256 _value)... */\n    tag_10:\n      tag_22\n      tag_47\n      calldatasize\n      0x04\n      tag_34\n      jump\t// in\n    tag_47:\n      tag_48\n      jump\t// in\n        /* \"@openzeppelin/contracts-upgradeable/access/OwnableUpgradeable.sol\":1441:1526  function owner() public view virtual returns (address) {... */\n    tag_11:\n        /* \"@openzeppelin/contracts-upgradeable/access/OwnableUpgradeable.sol\":1513:1519  _owner */\n      and(sub(shl(0xa0, 0x01), 0x01), sload(0x33))\n        /* \"@openzeppelin/contracts-upgradeable/access/OwnableUpgradeable.sol\":1441:1526  function owner() public view virtual returns (address) {... */\n      jump(tag_36)\n        /* \"erc3643/erc3643/Compliance/modular/ModularCompliance.sol\":1974:2603  function removeModule(address _module) external override onlyOwner {... */\n    tag_12:\n      tag_22\n      tag_53\n      calldatasize\n      0x04\n      tag_24\n      jump\t// in\n    tag_53:\n      tag_54\n      jump\t// in\n        /* \"erc3643/erc3643/Compliance/modular/ModularCompliance.sol\":4743:4902  function isModuleBound(address _module)... */\n    tag_13:\n      tag_55\n      tag_56\n      calldatasize\n      0x04\n      tag_24\n      jump\t// in\n    tag_56:\n      sub(shl(0xa0, 0x01), 0x01)\n        /* \"erc3643/erc3643/Compliance/modular/ModularCompliance.sol\":4874:4895  _moduleBound[_module] */\n      and\n        /* \"erc3643/erc3643/Compliance/modular/ModularCompliance.sol\":4847:4851  bool */\n      0x00\n        /* \"erc3643/erc3643/Compliance/modular/ModularCompliance.sol\":4874:4895  _moduleBound[_module] */\n      swap1\n      dup2\n      mstore\n        /* \"erc3643/erc3643/Compliance/modular/ModularCompliance.sol\":4874:4886  _moduleBound */\n      0x67\n        /* \"erc3643/erc3643/Compliance/modular/ModularCompliance.sol\":4874:4895  _moduleBound[_module] */\n      0x20\n      mstore\n      0x40\n      swap1\n      keccak256\n      sload\n      0xff\n      and\n      swap1\n        /* \"erc3643/erc3643/Compliance/modular/ModularCompliance.sol\":4743:4902  function isModuleBound(address _module)... */\n      jump\n    tag_55:\n      mload(0x40)\n        /* \"#utility.yul\":1348:1362   */\n      swap1\n      iszero\n        /* \"#utility.yul\":1341:1363   */\n      iszero\n        /* \"#utility.yul\":1323:1364   */\n      dup2\n      mstore\n        /* \"#utility.yul\":1311:1313   */\n      0x20\n        /* \"#utility.yul\":1296:1314   */\n      add\n        /* \"erc3643/erc3643/Compliance/modular/ModularCompliance.sol\":4743:4902  function isModuleBound(address _module)... */\n      tag_38\n        /* \"#utility.yul\":1183:1370   */\n      jump\n        /* \"erc3643/erc3643/Compliance/modular/ModularCompliance.sol\":4908:5012  function getModules() external view override returns (address[] memory) {... */\n    tag_14:\n      tag_60\n      tag_61\n      jump\t// in\n    tag_60:\n      mload(0x40)\n      tag_38\n      swap2\n      swap1\n      tag_63\n      jump\t// in\n        /* \"erc3643/erc3643/Compliance/modular/ModularCompliance.sol\":574:644  function init() external initializer {... */\n    tag_15:\n      tag_22\n      tag_65\n      jump\t// in\n        /* \"erc3643/erc3643/Compliance/modular/ModularCompliance.sol\":5125:5645  function canTransfer(... */\n    tag_16:\n      tag_55\n      tag_67\n      calldatasize\n      0x04\n      tag_44\n      jump\t// in\n    tag_67:\n      tag_68\n      jump\t// in\n        /* \"erc3643/erc3643/Compliance/modular/ModularCompliance.sol\":3924:4737  function callModuleFunction(bytes calldata callData, address _module)... */\n    tag_17:\n      tag_22\n      tag_71\n      calldatasize\n      0x04\n      tag_72\n      jump\t// in\n    tag_71:\n      tag_73\n      jump\t// in\n        /* \"@openzeppelin/contracts-upgradeable/access/OwnableUpgradeable.sol\":2314:2512  function transferOwnership(address newOwner) public virtual onlyOwner {... */\n    tag_18:\n      tag_22\n      tag_75\n      calldatasize\n      0x04\n      tag_24\n      jump\t// in\n    tag_75:\n      tag_76\n      jump\t// in\n        /* \"erc3643/erc3643/Compliance/modular/ModularCompliance.sol\":1521:1968  function addModule(address _module) external override onlyOwner {... */\n    tag_25:\n        /* \"@openzeppelin/contracts-upgradeable/access/OwnableUpgradeable.sol\":1334:1347  _checkOwner() */\n      tag_78\n        /* \"@openzeppelin/contracts-upgradeable/access/OwnableUpgradeable.sol\":1334:1345  _checkOwner */\n      tag_79\n        /* \"@openzeppelin/contracts-upgradeable/access/OwnableUpgradeable.sol\":1334:1347  _checkOwner() */\n      jump\t// in\n    tag_78:\n      sub(shl(0xa0, 0x01), 0x01)\n        /* \"erc3643/erc3643/Compliance/modular/ModularCompliance.sol\":1603:1624  _module != address(0) */\n      dup2\n      and\n        /* \"erc3643/erc3643/Compliance/modular/ModularCompliance.sol\":1595:1660  require(_module != address(0), \"invalid argument - zero address\") */\n      tag_81\n      jumpi\n      mload(0x40)\n      shl(0xe5, 0x461bcd)\n      dup2\n      mstore\n      0x04\n      add\n      tag_82\n      swap1\n      tag_83\n      jump\t// in\n    tag_82:\n      mload(0x40)\n      dup1\n      swap2\n      sub\n      swap1\n      revert\n    tag_81:\n      sub(shl(0xa0, 0x01), 0x01)\n        /* \"erc3643/erc3643/Compliance/modular/ModularCompliance.sol\":1679:1700  _moduleBound[_module] */\n      dup2\n      and\n      0x00\n      swap1\n      dup2\n      mstore\n        /* \"erc3643/erc3643/Compliance/modular/ModularCompliance.sol\":1679:1691  _moduleBound */\n      0x67\n        /* \"erc3643/erc3643/Compliance/modular/ModularCompliance.sol\":1679:1700  _moduleBound[_module] */\n      0x20\n      mstore\n      0x40\n      swap1\n      keccak256\n      sload\n      0xff\n      and\n        /* \"erc3643/erc3643/Compliance/modular/ModularCompliance.sol\":1678:1700  !_moduleBound[_module] */\n      iszero\n        /* \"erc3643/erc3643/Compliance/modular/ModularCompliance.sol\":1670:1725  require(!_moduleBound[_module], \"module already bound\") */\n      tag_84\n      jumpi\n      mload(0x40)\n      shl(0xe5, 0x461bcd)\n      dup2\n      mstore\n        /* \"#utility.yul\":3276:3278   */\n      0x20\n        /* \"erc3643/erc3643/Compliance/modular/ModularCompliance.sol\":1670:1725  require(!_moduleBound[_module], \"module already bound\") */\n      0x04\n      dup3\n      add\n        /* \"#utility.yul\":3258:3279   */\n      mstore\n        /* \"#utility.yul\":3315:3317   */\n      0x14\n        /* \"#utility.yul\":3295:3313   */\n      0x24\n      dup3\n      add\n        /* \"#utility.yul\":3288:3318   */\n      mstore\n      shl(0x62, 0x1b5bd91d5b1948185b1c9958591e48189bdd5b99)\n        /* \"#utility.yul\":3334:3352   */\n      0x44\n      dup3\n      add\n        /* \"#utility.yul\":3327:3377   */\n      mstore\n        /* \"#utility.yul\":3394:3412   */\n      0x64\n      add\n        /* \"erc3643/erc3643/Compliance/modular/ModularCompliance.sol\":1670:1725  require(!_moduleBound[_module], \"module already bound\") */\n      tag_82\n        /* \"#utility.yul\":3074:3418   */\n      jump\n        /* \"erc3643/erc3643/Compliance/modular/ModularCompliance.sol\":1670:1725  require(!_moduleBound[_module], \"module already bound\") */\n    tag_84:\n        /* \"erc3643/erc3643/Compliance/modular/ModularCompliance.sol\":1743:1751  _modules */\n      0x66\n        /* \"erc3643/erc3643/Compliance/modular/ModularCompliance.sol\":1743:1758  _modules.length */\n      sload\n        /* \"erc3643/erc3643/Compliance/modular/ModularCompliance.sol\":1762:1764  24 */\n      0x18\n      lt\n        /* \"erc3643/erc3643/Compliance/modular/ModularCompliance.sol\":1743:1764  _modules.length <= 24 */\n      iszero\n        /* \"erc3643/erc3643/Compliance/modular/ModularCompliance.sol\":1735:1800  require(_modules.length <= 24, \"cannot add more than 25 modules\") */\n      tag_87\n      jumpi\n      mload(0x40)\n      shl(0xe5, 0x461bcd)\n      dup2\n      mstore\n        /* \"#utility.yul\":3625:3627   */\n      0x20\n        /* \"erc3643/erc3643/Compliance/modular/ModularCompliance.sol\":1735:1800  require(_modules.length <= 24, \"cannot add more than 25 modules\") */\n      0x04\n      dup3\n      add\n        /* \"#utility.yul\":3607:3628   */\n      mstore\n        /* \"#utility.yul\":3664:3666   */\n      0x1f\n        /* \"#utility.yul\":3644:3662   */\n      0x24\n      dup3\n      add\n        /* \"#utility.yul\":3637:3667   */\n      mstore\n        /* \"#utility.yul\":3703:3736   */\n      0x63616e6e6f7420616464206d6f7265207468616e203235206d6f64756c657300\n        /* \"#utility.yul\":3683:3701   */\n      0x44\n      dup3\n      add\n        /* \"#utility.yul\":3676:3737   */\n      mstore\n        /* \"#utility.yul\":3754:3772   */\n      0x64\n      add\n        /* \"erc3643/erc3643/Compliance/modular/ModularCompliance.sol\":1735:1800  require(_modules.length <= 24, \"cannot add more than 25 modules\") */\n      tag_82\n        /* \"#utility.yul\":3423:3778   */\n      jump\n        /* \"erc3643/erc3643/Compliance/modular/ModularCompliance.sol\":1735:1800  require(_modules.length <= 24, \"cannot add more than 25 modules\") */\n    tag_87:\n        /* \"erc3643/erc3643/Compliance/modular/ModularCompliance.sol\":1810:1856  IModule(_module).bindCompliance(address(this)) */\n      mload(0x40)\n      shl(0xe2, 0x12a4c951)\n      dup2\n      mstore\n        /* \"erc3643/erc3643/Compliance/modular/ModularCompliance.sol\":1850:1854  this */\n      address\n        /* \"erc3643/erc3643/Compliance/modular/ModularCompliance.sol\":1810:1856  IModule(_module).bindCompliance(address(this)) */\n      0x04\n      dup3\n      add\n        /* \"#utility.yul\":788:839   */\n      mstore\n      sub(shl(0xa0, 0x01), 0x01)\n        /* \"erc3643/erc3643/Compliance/modular/ModularCompliance.sol\":1810:1841  IModule(_module).bindCompliance */\n      dup3\n      and\n      swap1\n      0x4a932544\n      swap1\n        /* \"#utility.yul\":761:779   */\n      0x24\n      add\n        /* \"erc3643/erc3643/Compliance/modular/ModularCompliance.sol\":1810:1856  IModule(_module).bindCompliance(address(this)) */\n      0x00\n      mload(0x40)\n      dup1\n      dup4\n      sub\n      dup2\n      0x00\n      dup8\n      dup1\n      extcodesize\n      iszero\n      dup1\n      iszero\n      tag_91\n      jumpi\n      0x00\n      dup1\n      revert\n    tag_91:\n      pop\n      gas\n      call\n      iszero\n      dup1\n      iszero\n      tag_93\n      jumpi\n      returndatasize\n      0x00\n      dup1\n      returndatacopy\n      revert(0x00, returndatasize)\n    tag_93:\n      pop\n      pop\n        /* \"erc3643/erc3643/Compliance/modular/ModularCompliance.sol\":1866:1874  _modules */\n      0x66\n        /* \"erc3643/erc3643/Compliance/modular/ModularCompliance.sol\":1866:1888  _modules.push(_module) */\n      dup1\n      sload\n      0x01\n      dup1\n      dup3\n      add\n      swap1\n      swap3\n      sstore\n      0x46501879b8ca8525e8c2fd519e2fbfcfa2ebea26501294aa02cbfcfb12e94354\n      add\n      dup1\n      sload\n      not(sub(shl(0xa0, 0x01), 0x01))\n      and\n      sub(shl(0xa0, 0x01), 0x01)\n      dup7\n      and\n      swap1\n      dup2\n      or\n      swap1\n      swap2\n      sstore\n      0x00\n        /* \"erc3643/erc3643/Compliance/modular/ModularCompliance.sol\":1898:1919  _moduleBound[_module] */\n      dup2\n      dup2\n      mstore\n        /* \"erc3643/erc3643/Compliance/modular/ModularCompliance.sol\":1898:1910  _moduleBound */\n      0x67\n        /* \"erc3643/erc3643/Compliance/modular/ModularCompliance.sol\":1866:1888  _modules.push(_module) */\n      0x20\n        /* \"erc3643/erc3643/Compliance/modular/ModularCompliance.sol\":1898:1919  _moduleBound[_module] */\n      mstore\n      0x40\n      dup1\n      dup3\n      keccak256\n        /* \"erc3643/erc3643/Compliance/modular/ModularCompliance.sol\":1898:1926  _moduleBound[_module] = true */\n      dup1\n      sload\n      not(0xff)\n      and\n      swap1\n      swap5\n      or\n      swap1\n      swap4\n      sstore\n        /* \"erc3643/erc3643/Compliance/modular/ModularCompliance.sol\":1941:1961  ModuleAdded(_module) */\n      swap2\n      mload\n        /* \"erc3643/erc3643/Compliance/modular/ModularCompliance.sol\":1866:1888  _modules.push(_module) */\n      swap1\n      swap4\n      pop\n        /* \"erc3643/erc3643/Compliance/modular/ModularCompliance.sol\":1941:1961  ModuleAdded(_module) */\n      0xead6a006345da1073a106d5f32372d2d2204f46cb0b4bca8f5ebafcbbed12b8a\n      swap3\n      pop\n      log2\n        /* \"erc3643/erc3643/Compliance/modular/ModularCompliance.sol\":1521:1968  function addModule(address _module) external override onlyOwner {... */\n      pop\n      jump\t// out\n        /* \"erc3643/erc3643/Compliance/modular/ModularCompliance.sol\":650:1113  function bindToken(address _token) external override {... */\n    tag_28:\n        /* \"erc3643/erc3643/Compliance/modular/ModularCompliance.sol\":745:755  msg.sender */\n      caller\n        /* \"erc3643/erc3643/Compliance/modular/ModularCompliance.sol\":734:741  owner() */\n      tag_96\n        /* \"@openzeppelin/contracts-upgradeable/access/OwnableUpgradeable.sol\":1513:1519  _owner */\n      and(sub(shl(0xa0, 0x01), 0x01), sload(0x33))\n      swap1\n        /* \"@openzeppelin/contracts-upgradeable/access/OwnableUpgradeable.sol\":1441:1526  function owner() public view virtual returns (address) {... */\n      jump\n        /* \"erc3643/erc3643/Compliance/modular/ModularCompliance.sol\":734:741  owner() */\n    tag_96:\n      sub(shl(0xa0, 0x01), 0x01)\n        /* \"erc3643/erc3643/Compliance/modular/ModularCompliance.sol\":734:755  owner() == msg.sender */\n      and\n      eq\n        /* \"erc3643/erc3643/Compliance/modular/ModularCompliance.sol\":734:826  owner() == msg.sender ||... */\n      dup1\n      tag_98\n      jumpi\n      pop\n        /* \"erc3643/erc3643/Compliance/modular/ModularCompliance.sol\":776:787  _tokenBound */\n      and(sub(shl(0xa0, 0x01), 0x01), sload(0x65))\n        /* \"erc3643/erc3643/Compliance/modular/ModularCompliance.sol\":776:801  _tokenBound == address(0) */\n      iszero\n        /* \"erc3643/erc3643/Compliance/modular/ModularCompliance.sol\":776:825  _tokenBound == address(0) && msg.sender == _token */\n      dup1\n      iszero\n      tag_98\n      jumpi\n      pop\n        /* \"erc3643/erc3643/Compliance/modular/ModularCompliance.sol\":805:815  msg.sender */\n      caller\n      sub(shl(0xa0, 0x01), 0x01)\n        /* \"erc3643/erc3643/Compliance/modular/ModularCompliance.sol\":805:825  msg.sender == _token */\n      dup3\n      and\n      eq\n        /* \"erc3643/erc3643/Compliance/modular/ModularCompliance.sol\":776:825  _tokenBound == address(0) && msg.sender == _token */\n    tag_98:\n        /* \"erc3643/erc3643/Compliance/modular/ModularCompliance.sol\":713:880  require(... */\n      tag_99\n      jumpi\n      mload(0x40)\n      shl(0xe5, 0x461bcd)\n      dup2\n      mstore\n        /* \"#utility.yul\":3985:3987   */\n      0x20\n        /* \"erc3643/erc3643/Compliance/modular/ModularCompliance.sol\":713:880  require(... */\n      0x04\n      dup3\n      add\n        /* \"#utility.yul\":3967:3988   */\n      mstore\n        /* \"#utility.yul\":4024:4026   */\n      0x1c\n        /* \"#utility.yul\":4004:4022   */\n      0x24\n      dup3\n      add\n        /* \"#utility.yul\":3997:4027   */\n      mstore\n        /* \"#utility.yul\":4063:4093   */\n      0x6f6e6c79206f776e6572206f7220746f6b656e2063616e2063616c6c00000000\n        /* \"#utility.yul\":4043:4061   */\n      0x44\n      dup3\n      add\n        /* \"#utility.yul\":4036:4094   */\n      mstore\n        /* \"#utility.yul\":4111:4129   */\n      0x64\n      add\n        /* \"erc3643/erc3643/Compliance/modular/ModularCompliance.sol\":713:880  require(... */\n      tag_82\n        /* \"#utility.yul\":3783:4135   */\n      jump\n        /* \"erc3643/erc3643/Compliance/modular/ModularCompliance.sol\":713:880  require(... */\n    tag_99:\n      sub(shl(0xa0, 0x01), 0x01)\n        /* \"erc3643/erc3643/Compliance/modular/ModularCompliance.sol\":898:918  _token != address(0) */\n      dup2\n      and\n        /* \"erc3643/erc3643/Compliance/modular/ModularCompliance.sol\":890:954  require(_token != address(0), \"invalid argument - zero address\") */\n      tag_102\n      jumpi\n      mload(0x40)\n      shl(0xe5, 0x461bcd)\n      dup2\n      mstore\n      0x04\n      add\n      tag_82\n      swap1\n      tag_83\n      jump\t// in\n    tag_102:\n        /* \"erc3643/erc3643/Compliance/modular/ModularCompliance.sol\":964:975  _tokenBound */\n      0x65\n        /* \"erc3643/erc3643/Compliance/modular/ModularCompliance.sol\":964:984  _tokenBound = _token */\n      dup1\n      sload\n      not(sub(shl(0xa0, 0x01), 0x01))\n      and\n      sub(shl(0xa0, 0x01), 0x01)\n      dup4\n      and\n      swap1\n      dup2\n      or\n      swap1\n      swap2\n      sstore\n        /* \"erc3643/erc3643/Compliance/modular/ModularCompliance.sol\":1088:1106  TokenBound(_token) */\n      mload(0x40)\n        /* \"#utility.yul\":788:839   */\n      swap1\n      dup2\n      mstore\n        /* \"erc3643/erc3643/Compliance/modular/ModularCompliance.sol\":1088:1106  TokenBound(_token) */\n      0x2de35142b19ed5a07796cf30791959c592018f70b1d2d7c460eef8ffe713692b\n      swap1\n        /* \"#utility.yul\":776:778   */\n      0x20\n        /* \"#utility.yul\":761:779   */\n      add\n        /* \"erc3643/erc3643/Compliance/modular/ModularCompliance.sol\":1088:1106  TokenBound(_token) */\n    tag_104:\n      mload(0x40)\n      dup1\n      swap2\n      sub\n      swap1\n      log1\n        /* \"erc3643/erc3643/Compliance/modular/ModularCompliance.sol\":650:1113  function bindToken(address _token) external override {... */\n      pop\n      jump\t// out\n        /* \"erc3643/erc3643/Compliance/modular/ModularCompliance.sol\":1119:1515  function unbindToken(address _token) external override {... */\n    tag_31:\n        /* \"erc3643/erc3643/Compliance/modular/ModularCompliance.sol\":1216:1226  msg.sender */\n      caller\n        /* \"erc3643/erc3643/Compliance/modular/ModularCompliance.sol\":1205:1212  owner() */\n      tag_106\n        /* \"@openzeppelin/contracts-upgradeable/access/OwnableUpgradeable.sol\":1513:1519  _owner */\n      and(sub(shl(0xa0, 0x01), 0x01), sload(0x33))\n      swap1\n        /* \"@openzeppelin/contracts-upgradeable/access/OwnableUpgradeable.sol\":1441:1526  function owner() public view virtual returns (address) {... */\n      jump\n        /* \"erc3643/erc3643/Compliance/modular/ModularCompliance.sol\":1205:1212  owner() */\n    tag_106:\n      sub(shl(0xa0, 0x01), 0x01)\n        /* \"erc3643/erc3643/Compliance/modular/ModularCompliance.sol\":1205:1226  owner() == msg.sender */\n      and\n      eq\n        /* \"erc3643/erc3643/Compliance/modular/ModularCompliance.sol\":1205:1250  owner() == msg.sender || msg.sender == _token */\n      dup1\n      tag_107\n      jumpi\n      pop\n        /* \"erc3643/erc3643/Compliance/modular/ModularCompliance.sol\":1230:1240  msg.sender */\n      caller\n      sub(shl(0xa0, 0x01), 0x01)\n        /* \"erc3643/erc3643/Compliance/modular/ModularCompliance.sol\":1230:1250  msg.sender == _token */\n      dup3\n      and\n      eq\n        /* \"erc3643/erc3643/Compliance/modular/ModularCompliance.sol\":1205:1250  owner() == msg.sender || msg.sender == _token */\n    tag_107:\n        /* \"erc3643/erc3643/Compliance/modular/ModularCompliance.sol\":1184:1304  require(... */\n      tag_108\n      jumpi\n      mload(0x40)\n      shl(0xe5, 0x461bcd)\n      dup2\n      mstore\n        /* \"#utility.yul\":3985:3987   */\n      0x20\n        /* \"erc3643/erc3643/Compliance/modular/ModularCompliance.sol\":1184:1304  require(... */\n      0x04\n      dup3\n      add\n        /* \"#utility.yul\":3967:3988   */\n      mstore\n        /* \"#utility.yul\":4024:4026   */\n      0x1c\n        /* \"#utility.yul\":4004:4022   */\n      0x24\n      dup3\n      add\n        /* \"#utility.yul\":3997:4027   */\n      mstore\n        /* \"#utility.yul\":4063:4093   */\n      0x6f6e6c79206f776e6572206f7220746f6b656e2063616e2063616c6c00000000\n        /* \"#utility.yul\":4043:4061   */\n      0x44\n      dup3\n      add\n        /* \"#utility.yul\":4036:4094   */\n      mstore\n        /* \"#utility.yul\":4111:4129   */\n      0x64\n      add\n        /* \"erc3643/erc3643/Compliance/modular/ModularCompliance.sol\":1184:1304  require(... */\n      tag_82\n        /* \"#utility.yul\":3783:4135   */\n      jump\n        /* \"erc3643/erc3643/Compliance/modular/ModularCompliance.sol\":1184:1304  require(... */\n    tag_108:\n        /* \"erc3643/erc3643/Compliance/modular/ModularCompliance.sol\":1332:1343  _tokenBound */\n      sload(0x65)\n      sub(shl(0xa0, 0x01), 0x01)\n        /* \"erc3643/erc3643/Compliance/modular/ModularCompliance.sol\":1322:1343  _token == _tokenBound */\n      dup3\n      dup2\n      and\n        /* \"erc3643/erc3643/Compliance/modular/ModularCompliance.sol\":1332:1343  _tokenBound */\n      swap2\n      and\n        /* \"erc3643/erc3643/Compliance/modular/ModularCompliance.sol\":1322:1343  _token == _tokenBound */\n      eq\n        /* \"erc3643/erc3643/Compliance/modular/ModularCompliance.sol\":1314:1371  require(_token == _tokenBound, \"This token is not bound\") */\n      tag_110\n      jumpi\n      mload(0x40)\n      shl(0xe5, 0x461bcd)\n      dup2\n      mstore\n        /* \"#utility.yul\":4342:4344   */\n      0x20\n        /* \"erc3643/erc3643/Compliance/modular/ModularCompliance.sol\":1314:1371  require(_token == _tokenBound, \"This token is not bound\") */\n      0x04\n      dup3\n      add\n        /* \"#utility.yul\":4324:4345   */\n      mstore\n        /* \"#utility.yul\":4381:4383   */\n      0x17\n        /* \"#utility.yul\":4361:4379   */\n      0x24\n      dup3\n      add\n        /* \"#utility.yul\":4354:4384   */\n      mstore\n        /* \"#utility.yul\":4420:4445   */\n      0x5468697320746f6b656e206973206e6f7420626f756e64000000000000000000\n        /* \"#utility.yul\":4400:4418   */\n      0x44\n      dup3\n      add\n        /* \"#utility.yul\":4393:4446   */\n      mstore\n        /* \"#utility.yul\":4463:4481   */\n      0x64\n      add\n        /* \"erc3643/erc3643/Compliance/modular/ModularCompliance.sol\":1314:1371  require(_token == _tokenBound, \"This token is not bound\") */\n      tag_82\n        /* \"#utility.yul\":4140:4487   */\n      jump\n        /* \"erc3643/erc3643/Compliance/modular/ModularCompliance.sol\":1314:1371  require(_token == _tokenBound, \"This token is not bound\") */\n    tag_110:\n      sub(shl(0xa0, 0x01), 0x01)\n        /* \"erc3643/erc3643/Compliance/modular/ModularCompliance.sol\":1389:1409  _token != address(0) */\n      dup2\n      and\n        /* \"erc3643/erc3643/Compliance/modular/ModularCompliance.sol\":1381:1445  require(_token != address(0), \"invalid argument - zero address\") */\n      tag_113\n      jumpi\n      mload(0x40)\n      shl(0xe5, 0x461bcd)\n      dup2\n      mstore\n      0x04\n      add\n      tag_82\n      swap1\n      tag_83\n      jump\t// in\n    tag_113:\n        /* \"erc3643/erc3643/Compliance/modular/ModularCompliance.sol\":1462:1473  _tokenBound */\n      0x65\n        /* \"erc3643/erc3643/Compliance/modular/ModularCompliance.sol\":1455:1473  delete _tokenBound */\n      dup1\n      sload\n      not(sub(shl(0xa0, 0x01), 0x01))\n      and\n      swap1\n      sstore\n        /* \"erc3643/erc3643/Compliance/modular/ModularCompliance.sol\":1488:1508  TokenUnbound(_token) */\n      mload(0x40)\n      sub(shl(0xa0, 0x01), 0x01)\n        /* \"#utility.yul\":806:838   */\n      dup3\n      and\n        /* \"#utility.yul\":788:839   */\n      dup2\n      mstore\n        /* \"erc3643/erc3643/Compliance/modular/ModularCompliance.sol\":1488:1508  TokenUnbound(_token) */\n      0x28a4ca7134a3b3f9aff286e79ad3daadb4a06d1b43d037a3a98bdc074edd9b7a\n      swap1\n        /* \"#utility.yul\":776:778   */\n      0x20\n        /* \"#utility.yul\":761:779   */\n      add\n        /* \"erc3643/erc3643/Compliance/modular/ModularCompliance.sol\":1488:1508  TokenUnbound(_token) */\n      tag_104\n        /* \"#utility.yul\":642:845   */\n      jump\n        /* \"erc3643/erc3643/Compliance/modular/ModularCompliance.sol\":3116:3496  function created(address _to, uint256 _value) external override onlyToken {... */\n    tag_35:\n        /* \"erc3643/erc3643/Compliance/modular/ModularCompliance.sol\":445:456  _tokenBound */\n      and(sub(shl(0xa0, 0x01), 0x01), sload(0x65))\n        /* \"erc3643/erc3643/Compliance/modular/ModularCompliance.sol\":431:441  msg.sender */\n      caller\n        /* \"erc3643/erc3643/Compliance/modular/ModularCompliance.sol\":431:456  msg.sender == _tokenBound */\n      eq\n        /* \"erc3643/erc3643/Compliance/modular/ModularCompliance.sol\":410:550  require(... */\n      tag_117\n      jumpi\n      mload(0x40)\n      shl(0xe5, 0x461bcd)\n      dup2\n      mstore\n      0x04\n      add\n      tag_82\n      swap1\n      tag_119\n      jump\t// in\n    tag_117:\n      sub(shl(0xa0, 0x01), 0x01)\n        /* \"erc3643/erc3643/Compliance/modular/ModularCompliance.sol\":3208:3225  _to != address(0) */\n      dup3\n      and\n        /* \"erc3643/erc3643/Compliance/modular/ModularCompliance.sol\":3200:3261  require(_to != address(0), \"invalid argument - zero address\") */\n      tag_121\n      jumpi\n      mload(0x40)\n      shl(0xe5, 0x461bcd)\n      dup2\n      mstore\n      0x04\n      add\n      tag_82\n      swap1\n      tag_83\n      jump\t// in\n    tag_121:\n        /* \"erc3643/erc3643/Compliance/modular/ModularCompliance.sol\":3288:3289  0 */\n      0x00\n        /* \"erc3643/erc3643/Compliance/modular/ModularCompliance.sol\":3279:3285  _value */\n      dup2\n        /* \"erc3643/erc3643/Compliance/modular/ModularCompliance.sol\":3279:3289  _value > 0 */\n      gt\n        /* \"erc3643/erc3643/Compliance/modular/ModularCompliance.sol\":3271:3326  require(_value > 0, \"invalid argument - no value mint\") */\n      tag_123\n      jumpi\n      mload(0x40)\n      shl(0xe5, 0x461bcd)\n      dup2\n      mstore\n        /* \"#utility.yul\":5171:5173   */\n      0x20\n        /* \"erc3643/erc3643/Compliance/modular/ModularCompliance.sol\":3271:3326  require(_value > 0, \"invalid argument - no value mint\") */\n      0x04\n      dup3\n      add\n        /* \"#utility.yul\":5153:5174   */\n      dup2\n      swap1\n      mstore\n        /* \"#utility.yul\":5190:5208   */\n      0x24\n      dup3\n      add\n        /* \"#utility.yul\":5183:5213   */\n      mstore\n        /* \"#utility.yul\":5249:5283   */\n      0x696e76616c696420617267756d656e74202d206e6f2076616c7565206d696e74\n        /* \"#utility.yul\":5229:5247   */\n      0x44\n      dup3\n      add\n        /* \"#utility.yul\":5222:5284   */\n      mstore\n        /* \"#utility.yul\":5301:5319   */\n      0x64\n      add\n        /* \"erc3643/erc3643/Compliance/modular/ModularCompliance.sol\":3271:3326  require(_value > 0, \"invalid argument - no value mint\") */\n      tag_82\n        /* \"#utility.yul\":4969:5325   */\n      jump\n        /* \"erc3643/erc3643/Compliance/modular/ModularCompliance.sol\":3271:3326  require(_value > 0, \"invalid argument - no value mint\") */\n    tag_123:\n        /* \"erc3643/erc3643/Compliance/modular/ModularCompliance.sol\":3353:3361  _modules */\n      0x66\n        /* \"erc3643/erc3643/Compliance/modular/ModularCompliance.sol\":3353:3368  _modules.length */\n      sload\n        /* \"erc3643/erc3643/Compliance/modular/ModularCompliance.sol\":3336:3350  uint256 length */\n      0x00\n        /* \"erc3643/erc3643/Compliance/modular/ModularCompliance.sol\":3378:3490  for (uint256 i = 0; i < length; i++) {... */\n    tag_126:\n        /* \"erc3643/erc3643/Compliance/modular/ModularCompliance.sol\":3402:3408  length */\n      dup2\n        /* \"erc3643/erc3643/Compliance/modular/ModularCompliance.sol\":3398:3399  i */\n      dup2\n        /* \"erc3643/erc3643/Compliance/modular/ModularCompliance.sol\":3398:3408  i < length */\n      lt\n        /* \"erc3643/erc3643/Compliance/modular/ModularCompliance.sol\":3378:3490  for (uint256 i = 0; i < length; i++) {... */\n      iszero\n      tag_127\n      jumpi\n        /* \"erc3643/erc3643/Compliance/modular/ModularCompliance.sol\":3437:3445  _modules */\n      0x66\n        /* \"erc3643/erc3643/Compliance/modular/ModularCompliance.sol\":3446:3447  i */\n      dup2\n        /* \"erc3643/erc3643/Compliance/modular/ModularCompliance.sol\":3437:3448  _modules[i] */\n      dup2\n      sload\n      dup2\n      lt\n      tag_130\n      jumpi\n      tag_130\n      tag_131\n      jump\t// in\n    tag_130:\n      0x00\n      swap2\n      dup3\n      mstore\n      0x20\n      swap1\n      swap2\n      keccak256\n      add\n      sload\n        /* \"erc3643/erc3643/Compliance/modular/ModularCompliance.sol\":3429:3479  IModule(_modules[i]).moduleMintAction(_to, _value) */\n      mload(0x40)\n      shl(0xe0, 0xf104a8c9)\n      dup2\n      mstore\n      sub(shl(0xa0, 0x01), 0x01)\n        /* \"#utility.yul\":5654:5686   */\n      dup7\n      dup2\n      and\n        /* \"erc3643/erc3643/Compliance/modular/ModularCompliance.sol\":3429:3479  IModule(_modules[i]).moduleMintAction(_to, _value) */\n      0x04\n      dup4\n      add\n        /* \"#utility.yul\":5636:5687   */\n      mstore\n        /* \"#utility.yul\":5703:5721   */\n      0x24\n      dup3\n      add\n        /* \"#utility.yul\":5696:5730   */\n      dup7\n      swap1\n      mstore\n        /* \"erc3643/erc3643/Compliance/modular/ModularCompliance.sol\":3437:3448  _modules[i] */\n      swap1\n      swap2\n      and\n      swap1\n        /* \"erc3643/erc3643/Compliance/modular/ModularCompliance.sol\":3429:3466  IModule(_modules[i]).moduleMintAction */\n      0xf104a8c9\n      swap1\n        /* \"#utility.yul\":5609:5627   */\n      0x44\n      add\n        /* \"erc3643/erc3643/Compliance/modular/ModularCompliance.sol\":3429:3479  IModule(_modules[i]).moduleMintAction(_to, _value) */\n      0x00\n      mload(0x40)\n      dup1\n      dup4\n      sub\n      dup2\n      0x00\n      dup8\n      dup1\n      extcodesize\n      iszero\n      dup1\n      iszero\n      tag_135\n      jumpi\n      0x00\n      dup1\n      revert\n    tag_135:\n      pop\n      gas\n      call\n      iszero\n      dup1\n      iszero\n      tag_137\n      jumpi\n      returndatasize\n      0x00\n      dup1\n      returndatacopy\n      revert(0x00, returndatasize)\n    tag_137:\n      pop\n      pop\n      pop\n      pop\n        /* \"erc3643/erc3643/Compliance/modular/ModularCompliance.sol\":3410:3413  i++ */\n      dup1\n      dup1\n      tag_138\n      swap1\n      tag_139\n      jump\t// in\n    tag_138:\n      swap2\n      pop\n      pop\n        /* \"erc3643/erc3643/Compliance/modular/ModularCompliance.sol\":3378:3490  for (uint256 i = 0; i < length; i++) {... */\n      jump(tag_126)\n    tag_127:\n      pop\n        /* \"erc3643/erc3643/Compliance/modular/ModularCompliance.sol\":3190:3496  {... */\n      pop\n        /* \"erc3643/erc3643/Compliance/modular/ModularCompliance.sol\":3116:3496  function created(address _to, uint256 _value) external override onlyToken {... */\n      pop\n      pop\n      jump\t// out\n        /* \"@openzeppelin/contracts-upgradeable/access/OwnableUpgradeable.sol\":2064:2165  function renounceOwnership() public virtual onlyOwner {... */\n    tag_41:\n        /* \"@openzeppelin/contracts-upgradeable/access/OwnableUpgradeable.sol\":1334:1347  _checkOwner() */\n      tag_142\n        /* \"@openzeppelin/contracts-upgradeable/access/OwnableUpgradeable.sol\":1334:1345  _checkOwner */\n      tag_79\n        /* \"@openzeppelin/contracts-upgradeable/access/OwnableUpgradeable.sol\":1334:1347  _checkOwner() */\n      jump\t// in\n    tag_142:\n        /* \"@openzeppelin/contracts-upgradeable/access/OwnableUpgradeable.sol\":2128:2158  _transferOwnership(address(0)) */\n      tag_144\n        /* \"@openzeppelin/contracts-upgradeable/access/OwnableUpgradeable.sol\":2155:2156  0 */\n      0x00\n        /* \"@openzeppelin/contracts-upgradeable/access/OwnableUpgradeable.sol\":2128:2146  _transferOwnership */\n      tag_145\n        /* \"@openzeppelin/contracts-upgradeable/access/OwnableUpgradeable.sol\":2128:2158  _transferOwnership(address(0)) */\n      jump\t// in\n    tag_144:\n        /* \"@openzeppelin/contracts-upgradeable/access/OwnableUpgradeable.sol\":2064:2165  function renounceOwnership() public virtual onlyOwner {... */\n      jump\t// out\n        /* \"erc3643/erc3643/Compliance/modular/ModularCompliance.sol\":2609:3110  function transferred(... */\n    tag_45:\n        /* \"erc3643/erc3643/Compliance/modular/ModularCompliance.sol\":445:456  _tokenBound */\n      and(sub(shl(0xa0, 0x01), 0x01), sload(0x65))\n        /* \"erc3643/erc3643/Compliance/modular/ModularCompliance.sol\":431:441  msg.sender */\n      caller\n        /* \"erc3643/erc3643/Compliance/modular/ModularCompliance.sol\":431:456  msg.sender == _tokenBound */\n      eq\n        /* \"erc3643/erc3643/Compliance/modular/ModularCompliance.sol\":410:550  require(... */\n      tag_147\n      jumpi\n      mload(0x40)\n      shl(0xe5, 0x461bcd)\n      dup2\n      mstore\n      0x04\n      add\n      tag_82\n      swap1\n      tag_119\n      jump\t// in\n    tag_147:\n      sub(shl(0xa0, 0x01), 0x01)\n        /* \"erc3643/erc3643/Compliance/modular/ModularCompliance.sol\":2763:2782  _from != address(0) */\n      dup4\n      and\n      iszero\n      dup1\n      iszero\n      swap1\n        /* \"erc3643/erc3643/Compliance/modular/ModularCompliance.sol\":2763:2803  _from != address(0) && _to != address(0) */\n      tag_150\n      jumpi\n      pop\n      sub(shl(0xa0, 0x01), 0x01)\n        /* \"erc3643/erc3643/Compliance/modular/ModularCompliance.sol\":2786:2803  _to != address(0) */\n      dup3\n      and\n      iszero\n      iszero\n        /* \"erc3643/erc3643/Compliance/modular/ModularCompliance.sol\":2763:2803  _from != address(0) && _to != address(0) */\n    tag_150:\n        /* \"erc3643/erc3643/Compliance/modular/ModularCompliance.sol\":2742:2860  require(... */\n      tag_151\n      jumpi\n      mload(0x40)\n      shl(0xe5, 0x461bcd)\n      dup2\n      mstore\n      0x04\n      add\n      tag_82\n      swap1\n      tag_83\n      jump\t// in\n    tag_151:\n        /* \"erc3643/erc3643/Compliance/modular/ModularCompliance.sol\":2887:2888  0 */\n      0x00\n        /* \"erc3643/erc3643/Compliance/modular/ModularCompliance.sol\":2878:2884  _value */\n      dup2\n        /* \"erc3643/erc3643/Compliance/modular/ModularCompliance.sol\":2878:2888  _value > 0 */\n      gt\n        /* \"erc3643/erc3643/Compliance/modular/ModularCompliance.sol\":2870:2929  require(_value > 0, \"invalid argument - no value transfer\") */\n      tag_153\n      jumpi\n      mload(0x40)\n      shl(0xe5, 0x461bcd)\n      dup2\n      mstore\n        /* \"#utility.yul\":6215:6217   */\n      0x20\n        /* \"erc3643/erc3643/Compliance/modular/ModularCompliance.sol\":2870:2929  require(_value > 0, \"invalid argument - no value transfer\") */\n      0x04\n      dup3\n      add\n        /* \"#utility.yul\":6197:6218   */\n      mstore\n        /* \"#utility.yul\":6254:6256   */\n      0x24\n        /* \"#utility.yul\":6234:6252   */\n      dup1\n      dup3\n      add\n        /* \"#utility.yul\":6227:6257   */\n      mstore\n        /* \"#utility.yul\":6293:6327   */\n      0x696e76616c696420617267756d656e74202d206e6f2076616c7565207472616e\n        /* \"#utility.yul\":6273:6291   */\n      0x44\n      dup3\n      add\n        /* \"#utility.yul\":6266:6328   */\n      mstore\n      shl(0xe1, 0x39b332b9)\n        /* \"#utility.yul\":6344:6362   */\n      0x64\n      dup3\n      add\n        /* \"#utility.yul\":6337:6371   */\n      mstore\n        /* \"#utility.yul\":6388:6407   */\n      0x84\n      add\n        /* \"erc3643/erc3643/Compliance/modular/ModularCompliance.sol\":2870:2929  require(_value > 0, \"invalid argument - no value transfer\") */\n      tag_82\n        /* \"#utility.yul\":6013:6413   */\n      jump\n        /* \"erc3643/erc3643/Compliance/modular/ModularCompliance.sol\":2870:2929  require(_value > 0, \"invalid argument - no value transfer\") */\n    tag_153:\n        /* \"erc3643/erc3643/Compliance/modular/ModularCompliance.sol\":2956:2964  _modules */\n      0x66\n        /* \"erc3643/erc3643/Compliance/modular/ModularCompliance.sol\":2956:2971  _modules.length */\n      sload\n        /* \"erc3643/erc3643/Compliance/modular/ModularCompliance.sol\":2939:2953  uint256 length */\n      0x00\n        /* \"erc3643/erc3643/Compliance/modular/ModularCompliance.sol\":2981:3104  for (uint256 i = 0; i < length; i++) {... */\n    tag_156:\n        /* \"erc3643/erc3643/Compliance/modular/ModularCompliance.sol\":3005:3011  length */\n      dup2\n        /* \"erc3643/erc3643/Compliance/modular/ModularCompliance.sol\":3001:3002  i */\n      dup2\n        /* \"erc3643/erc3643/Compliance/modular/ModularCompliance.sol\":3001:3011  i < length */\n      lt\n        /* \"erc3643/erc3643/Compliance/modular/ModularCompliance.sol\":2981:3104  for (uint256 i = 0; i < length; i++) {... */\n      iszero\n      tag_157\n      jumpi\n        /* \"erc3643/erc3643/Compliance/modular/ModularCompliance.sol\":3040:3048  _modules */\n      0x66\n        /* \"erc3643/erc3643/Compliance/modular/ModularCompliance.sol\":3049:3050  i */\n      dup2\n        /* \"erc3643/erc3643/Compliance/modular/ModularCompliance.sol\":3040:3051  _modules[i] */\n      dup2\n      sload\n      dup2\n      lt\n      tag_160\n      jumpi\n      tag_160\n      tag_131\n      jump\t// in\n    tag_160:\n      0x00\n      swap2\n      dup3\n      mstore\n      0x20\n      swap1\n      swap2\n      keccak256\n      add\n      sload\n        /* \"erc3643/erc3643/Compliance/modular/ModularCompliance.sol\":3032:3093  IModule(_modules[i]).moduleTransferAction(_from, _to, _value) */\n      mload(0x40)\n      shl(0xe2, 0x0b2df87b)\n      dup2\n      mstore\n      sub(shl(0xa0, 0x01), 0x01)\n        /* \"#utility.yul\":6676:6691   */\n      dup8\n      dup2\n      and\n        /* \"erc3643/erc3643/Compliance/modular/ModularCompliance.sol\":3032:3093  IModule(_modules[i]).moduleTransferAction(_from, _to, _value) */\n      0x04\n      dup4\n      add\n        /* \"#utility.yul\":6658:6692   */\n      mstore\n        /* \"#utility.yul\":6728:6743   */\n      dup7\n      dup2\n      and\n        /* \"#utility.yul\":6708:6726   */\n      0x24\n      dup4\n      add\n        /* \"#utility.yul\":6701:6744   */\n      mstore\n        /* \"#utility.yul\":6760:6778   */\n      0x44\n      dup3\n      add\n        /* \"#utility.yul\":6753:6787   */\n      dup7\n      swap1\n      mstore\n        /* \"erc3643/erc3643/Compliance/modular/ModularCompliance.sol\":3040:3051  _modules[i] */\n      swap1\n      swap2\n      and\n      swap1\n        /* \"erc3643/erc3643/Compliance/modular/ModularCompliance.sol\":3032:3073  IModule(_modules[i]).moduleTransferAction */\n      0x2cb7e1ec\n      swap1\n        /* \"#utility.yul\":6593:6611   */\n      0x64\n      add\n        /* \"erc3643/erc3643/Compliance/modular/ModularCompliance.sol\":3032:3093  IModule(_modules[i]).moduleTransferAction(_from, _to, _value) */\n      0x00\n      mload(0x40)\n      dup1\n      dup4\n      sub\n      dup2\n      0x00\n      dup8\n      dup1\n      extcodesize\n      iszero\n      dup1\n      iszero\n      tag_164\n      jumpi\n      0x00\n      dup1\n      revert\n    tag_164:\n      pop\n      gas\n      call\n      iszero\n      dup1\n      iszero\n      tag_166\n      jumpi\n      returndatasize\n      0x00\n      dup1\n      returndatacopy\n      revert(0x00, returndatasize)\n    tag_166:\n      pop\n      pop\n      pop\n      pop\n        /* \"erc3643/erc3643/Compliance/modular/ModularCompliance.sol\":3013:3016  i++ */\n      dup1\n      dup1\n      tag_167\n      swap1\n      tag_139\n      jump\t// in\n    tag_167:\n      swap2\n      pop\n      pop\n        /* \"erc3643/erc3643/Compliance/modular/ModularCompliance.sol\":2981:3104  for (uint256 i = 0; i < length; i++) {... */\n      jump(tag_156)\n    tag_157:\n      pop\n        /* \"erc3643/erc3643/Compliance/modular/ModularCompliance.sol\":2732:3110  {... */\n      pop\n        /* \"erc3643/erc3643/Compliance/modular/ModularCompliance.sol\":2609:3110  function transferred(... */\n      pop\n      pop\n      pop\n      jump\t// out\n        /* \"erc3643/erc3643/Compliance/modular/ModularCompliance.sol\":3502:3918  function destroyed(address _from, uint256 _value)... */\n    tag_48:\n        /* \"erc3643/erc3643/Compliance/modular/ModularCompliance.sol\":445:456  _tokenBound */\n      and(sub(shl(0xa0, 0x01), 0x01), sload(0x65))\n        /* \"erc3643/erc3643/Compliance/modular/ModularCompliance.sol\":431:441  msg.sender */\n      caller\n        /* \"erc3643/erc3643/Compliance/modular/ModularCompliance.sol\":431:456  msg.sender == _tokenBound */\n      eq\n        /* \"erc3643/erc3643/Compliance/modular/ModularCompliance.sol\":410:550  require(... */\n      tag_169\n      jumpi\n      mload(0x40)\n      shl(0xe5, 0x461bcd)\n      dup2\n      mstore\n      0x04\n      add\n      tag_82\n      swap1\n      tag_119\n      jump\t// in\n    tag_169:\n      sub(shl(0xa0, 0x01), 0x01)\n        /* \"erc3643/erc3643/Compliance/modular/ModularCompliance.sol\":3626:3645  _from != address(0) */\n      dup3\n      and\n        /* \"erc3643/erc3643/Compliance/modular/ModularCompliance.sol\":3618:3681  require(_from != address(0), \"invalid argument - zero address\") */\n      tag_172\n      jumpi\n      mload(0x40)\n      shl(0xe5, 0x461bcd)\n      dup2\n      mstore\n      0x04\n      add\n      tag_82\n      swap1\n      tag_83\n      jump\t// in\n    tag_172:\n        /* \"erc3643/erc3643/Compliance/modular/ModularCompliance.sol\":3708:3709  0 */\n      0x00\n        /* \"erc3643/erc3643/Compliance/modular/ModularCompliance.sol\":3699:3705  _value */\n      dup2\n        /* \"erc3643/erc3643/Compliance/modular/ModularCompliance.sol\":3699:3709  _value > 0 */\n      gt\n        /* \"erc3643/erc3643/Compliance/modular/ModularCompliance.sol\":3691:3746  require(_value > 0, \"invalid argument - no value burn\") */\n      tag_174\n      jumpi\n      mload(0x40)\n      shl(0xe5, 0x461bcd)\n      dup2\n      mstore\n        /* \"#utility.yul\":7000:7002   */\n      0x20\n        /* \"erc3643/erc3643/Compliance/modular/ModularCompliance.sol\":3691:3746  require(_value > 0, \"invalid argument - no value burn\") */\n      0x04\n      dup3\n      add\n        /* \"#utility.yul\":6982:7003   */\n      dup2\n      swap1\n      mstore\n        /* \"#utility.yul\":7019:7037   */\n      0x24\n      dup3\n      add\n        /* \"#utility.yul\":7012:7042   */\n      mstore\n        /* \"#utility.yul\":7078:7112   */\n      0x696e76616c696420617267756d656e74202d206e6f2076616c7565206275726e\n        /* \"#utility.yul\":7058:7076   */\n      0x44\n      dup3\n      add\n        /* \"#utility.yul\":7051:7113   */\n      mstore\n        /* \"#utility.yul\":7130:7148   */\n      0x64\n      add\n        /* \"erc3643/erc3643/Compliance/modular/ModularCompliance.sol\":3691:3746  require(_value > 0, \"invalid argument - no value burn\") */\n      tag_82\n        /* \"#utility.yul\":6798:7154   */\n      jump\n        /* \"erc3643/erc3643/Compliance/modular/ModularCompliance.sol\":3691:3746  require(_value > 0, \"invalid argument - no value burn\") */\n    tag_174:\n        /* \"erc3643/erc3643/Compliance/modular/ModularCompliance.sol\":3773:3781  _modules */\n      0x66\n        /* \"erc3643/erc3643/Compliance/modular/ModularCompliance.sol\":3773:3788  _modules.length */\n      sload\n        /* \"erc3643/erc3643/Compliance/modular/ModularCompliance.sol\":3756:3770  uint256 length */\n      0x00\n        /* \"erc3643/erc3643/Compliance/modular/ModularCompliance.sol\":3798:3912  for (uint256 i = 0; i < length; i++) {... */\n    tag_177:\n        /* \"erc3643/erc3643/Compliance/modular/ModularCompliance.sol\":3822:3828  length */\n      dup2\n        /* \"erc3643/erc3643/Compliance/modular/ModularCompliance.sol\":3818:3819  i */\n      dup2\n        /* \"erc3643/erc3643/Compliance/modular/ModularCompliance.sol\":3818:3828  i < length */\n      lt\n        /* \"erc3643/erc3643/Compliance/modular/ModularCompliance.sol\":3798:3912  for (uint256 i = 0; i < length; i++) {... */\n      iszero\n      tag_127\n      jumpi\n        /* \"erc3643/erc3643/Compliance/modular/ModularCompliance.sol\":3857:3865  _modules */\n      0x66\n        /* \"erc3643/erc3643/Compliance/modular/ModularCompliance.sol\":3866:3867  i */\n      dup2\n        /* \"erc3643/erc3643/Compliance/modular/ModularCompliance.sol\":3857:3868  _modules[i] */\n      dup2\n      sload\n      dup2\n      lt\n      tag_181\n      jumpi\n      tag_181\n      tag_131\n      jump\t// in\n    tag_181:\n      0x00\n      swap2\n      dup3\n      mstore\n      0x20\n      swap1\n      swap2\n      keccak256\n      add\n      sload\n        /* \"erc3643/erc3643/Compliance/modular/ModularCompliance.sol\":3849:3901  IModule(_modules[i]).moduleBurnAction(_from, _value) */\n      mload(0x40)\n      shl(0xe1, 0x1b9248d1)\n      dup2\n      mstore\n      sub(shl(0xa0, 0x01), 0x01)\n        /* \"#utility.yul\":5654:5686   */\n      dup7\n      dup2\n      and\n        /* \"erc3643/erc3643/Compliance/modular/ModularCompliance.sol\":3849:3901  IModule(_modules[i]).moduleBurnAction(_from, _value) */\n      0x04\n      dup4\n      add\n        /* \"#utility.yul\":5636:5687   */\n      mstore\n        /* \"#utility.yul\":5703:5721   */\n      0x24\n      dup3\n      add\n        /* \"#utility.yul\":5696:5730   */\n      dup7\n      swap1\n      mstore\n        /* \"erc3643/erc3643/Compliance/modular/ModularCompliance.sol\":3857:3868  _modules[i] */\n      swap1\n      swap2\n      and\n      swap1\n        /* \"erc3643/erc3643/Compliance/modular/ModularCompliance.sol\":3849:3886  IModule(_modules[i]).moduleBurnAction */\n      0x372491a2\n      swap1\n        /* \"#utility.yul\":5609:5627   */\n      0x44\n      add\n        /* \"erc3643/erc3643/Compliance/modular/ModularCompliance.sol\":3849:3901  IModule(_modules[i]).moduleBurnAction(_from, _value) */\n      0x00\n      mload(0x40)\n      dup1\n      dup4\n      sub\n      dup2\n      0x00\n      dup8\n      dup1\n      extcodesize\n      iszero\n      dup1\n      iszero\n      tag_184\n      jumpi\n      0x00\n      dup1\n      revert\n    tag_184:\n      pop\n      gas\n      call\n      iszero\n      dup1\n      iszero\n      tag_186\n      jumpi\n      returndatasize\n      0x00\n      dup1\n      returndatacopy\n      revert(0x00, returndatasize)\n    tag_186:\n      pop\n      pop\n      pop\n      pop\n        /* \"erc3643/erc3643/Compliance/modular/ModularCompliance.sol\":3830:3833  i++ */\n      dup1\n      dup1\n      tag_187\n      swap1\n      tag_139\n      jump\t// in\n    tag_187:\n      swap2\n      pop\n      pop\n        /* \"erc3643/erc3643/Compliance/modular/ModularCompliance.sol\":3798:3912  for (uint256 i = 0; i < length; i++) {... */\n      jump(tag_177)\n        /* \"erc3643/erc3643/Compliance/modular/ModularCompliance.sol\":1974:2603  function removeModule(address _module) external override onlyOwner {... */\n    tag_54:\n        /* \"@openzeppelin/contracts-upgradeable/access/OwnableUpgradeable.sol\":1334:1347  _checkOwner() */\n      tag_190\n        /* \"@openzeppelin/contracts-upgradeable/access/OwnableUpgradeable.sol\":1334:1345  _checkOwner */\n      tag_79\n        /* \"@openzeppelin/contracts-upgradeable/access/OwnableUpgradeable.sol\":1334:1347  _checkOwner() */\n      jump\t// in\n    tag_190:\n      sub(shl(0xa0, 0x01), 0x01)\n        /* \"erc3643/erc3643/Compliance/modular/ModularCompliance.sol\":2059:2080  _module != address(0) */\n      dup2\n      and\n        /* \"erc3643/erc3643/Compliance/modular/ModularCompliance.sol\":2051:2116  require(_module != address(0), \"invalid argument - zero address\") */\n      tag_192\n      jumpi\n      mload(0x40)\n      shl(0xe5, 0x461bcd)\n      dup2\n      mstore\n      0x04\n      add\n      tag_82\n      swap1\n      tag_83\n      jump\t// in\n    tag_192:\n      sub(shl(0xa0, 0x01), 0x01)\n        /* \"erc3643/erc3643/Compliance/modular/ModularCompliance.sol\":2134:2155  _moduleBound[_module] */\n      dup2\n      and\n      0x00\n      swap1\n      dup2\n      mstore\n        /* \"erc3643/erc3643/Compliance/modular/ModularCompliance.sol\":2134:2146  _moduleBound */\n      0x67\n        /* \"erc3643/erc3643/Compliance/modular/ModularCompliance.sol\":2134:2155  _moduleBound[_module] */\n      0x20\n      mstore\n      0x40\n      swap1\n      keccak256\n      sload\n      0xff\n      and\n        /* \"erc3643/erc3643/Compliance/modular/ModularCompliance.sol\":2126:2176  require(_moduleBound[_module], \"module not bound\") */\n      tag_194\n      jumpi\n      mload(0x40)\n      shl(0xe5, 0x461bcd)\n      dup2\n      mstore\n        /* \"#utility.yul\":7361:7363   */\n      0x20\n        /* \"erc3643/erc3643/Compliance/modular/ModularCompliance.sol\":2126:2176  require(_moduleBound[_module], \"module not bound\") */\n      0x04\n      dup3\n      add\n        /* \"#utility.yul\":7343:7364   */\n      mstore\n        /* \"#utility.yul\":7400:7402   */\n      0x10\n        /* \"#utility.yul\":7380:7398   */\n      0x24\n      dup3\n      add\n        /* \"#utility.yul\":7373:7403   */\n      mstore\n      shl(0x82, 0x1b5bd91d5b19481b9bdd08189bdd5b99)\n        /* \"#utility.yul\":7419:7437   */\n      0x44\n      dup3\n      add\n        /* \"#utility.yul\":7412:7458   */\n      mstore\n        /* \"#utility.yul\":7475:7493   */\n      0x64\n      add\n        /* \"erc3643/erc3643/Compliance/modular/ModularCompliance.sol\":2126:2176  require(_moduleBound[_module], \"module not bound\") */\n      tag_82\n        /* \"#utility.yul\":7159:7499   */\n      jump\n        /* \"erc3643/erc3643/Compliance/modular/ModularCompliance.sol\":2126:2176  require(_moduleBound[_module], \"module not bound\") */\n    tag_194:\n        /* \"erc3643/erc3643/Compliance/modular/ModularCompliance.sol\":2203:2211  _modules */\n      0x66\n        /* \"erc3643/erc3643/Compliance/modular/ModularCompliance.sol\":2203:2218  _modules.length */\n      sload\n        /* \"erc3643/erc3643/Compliance/modular/ModularCompliance.sol\":2186:2200  uint256 length */\n      0x00\n        /* \"erc3643/erc3643/Compliance/modular/ModularCompliance.sol\":2228:2597  for (uint256 i = 0; i < length; i++) {... */\n    tag_197:\n        /* \"erc3643/erc3643/Compliance/modular/ModularCompliance.sol\":2252:2258  length */\n      dup2\n        /* \"erc3643/erc3643/Compliance/modular/ModularCompliance.sol\":2248:2249  i */\n      dup2\n        /* \"erc3643/erc3643/Compliance/modular/ModularCompliance.sol\":2248:2258  i < length */\n      lt\n        /* \"erc3643/erc3643/Compliance/modular/ModularCompliance.sol\":2228:2597  for (uint256 i = 0; i < length; i++) {... */\n      iszero\n      tag_198\n      jumpi\n        /* \"erc3643/erc3643/Compliance/modular/ModularCompliance.sol\":2298:2305  _module */\n      dup3\n      sub(shl(0xa0, 0x01), 0x01)\n        /* \"erc3643/erc3643/Compliance/modular/ModularCompliance.sol\":2283:2305  _modules[i] == _module */\n      and\n        /* \"erc3643/erc3643/Compliance/modular/ModularCompliance.sol\":2283:2291  _modules */\n      0x66\n        /* \"erc3643/erc3643/Compliance/modular/ModularCompliance.sol\":2292:2293  i */\n      dup3\n        /* \"erc3643/erc3643/Compliance/modular/ModularCompliance.sol\":2283:2294  _modules[i] */\n      dup2\n      sload\n      dup2\n      lt\n      tag_201\n      jumpi\n      tag_201\n      tag_131\n      jump\t// in\n    tag_201:\n      0x00\n      swap2\n      dup3\n      mstore\n      0x20\n      swap1\n      swap2\n      keccak256\n      add\n      sload\n      sub(shl(0xa0, 0x01), 0x01)\n      and\n        /* \"erc3643/erc3643/Compliance/modular/ModularCompliance.sol\":2283:2305  _modules[i] == _module */\n      sub\n        /* \"erc3643/erc3643/Compliance/modular/ModularCompliance.sol\":2279:2587  if (_modules[i] == _module) {... */\n      tag_203\n      jumpi\n        /* \"erc3643/erc3643/Compliance/modular/ModularCompliance.sol\":2325:2373  IModule(_module).unbindCompliance(address(this)) */\n      mload(0x40)\n      shl(0xe0, 0x0694a5fb)\n      dup2\n      mstore\n        /* \"erc3643/erc3643/Compliance/modular/ModularCompliance.sol\":2367:2371  this */\n      address\n        /* \"erc3643/erc3643/Compliance/modular/ModularCompliance.sol\":2325:2373  IModule(_module).unbindCompliance(address(this)) */\n      0x04\n      dup3\n      add\n        /* \"#utility.yul\":788:839   */\n      mstore\n      sub(shl(0xa0, 0x01), 0x01)\n        /* \"erc3643/erc3643/Compliance/modular/ModularCompliance.sol\":2325:2358  IModule(_module).unbindCompliance */\n      dup5\n      and\n      swap1\n      0x0694a5fb\n      swap1\n        /* \"#utility.yul\":761:779   */\n      0x24\n      add\n        /* \"erc3643/erc3643/Compliance/modular/ModularCompliance.sol\":2325:2373  IModule(_module).unbindCompliance(address(this)) */\n      0x00\n      mload(0x40)\n      dup1\n      dup4\n      sub\n      dup2\n      0x00\n      dup8\n      dup1\n      extcodesize\n      iszero\n      dup1\n      iszero\n      tag_205\n      jumpi\n      0x00\n      dup1\n      revert\n    tag_205:\n      pop\n      gas\n      call\n      iszero\n      dup1\n      iszero\n      tag_207\n      jumpi\n      returndatasize\n      0x00\n      dup1\n      returndatacopy\n      revert(0x00, returndatasize)\n    tag_207:\n      pop\n      pop\n      pop\n      pop\n        /* \"erc3643/erc3643/Compliance/modular/ModularCompliance.sol\":2405:2413  _modules */\n      0x66\n        /* \"erc3643/erc3643/Compliance/modular/ModularCompliance.sol\":2423:2424  1 */\n      0x01\n        /* \"erc3643/erc3643/Compliance/modular/ModularCompliance.sol\":2414:2420  length */\n      dup4\n        /* \"erc3643/erc3643/Compliance/modular/ModularCompliance.sol\":2414:2424  length - 1 */\n      tag_208\n      swap2\n      swap1\n      tag_209\n      jump\t// in\n    tag_208:\n        /* \"erc3643/erc3643/Compliance/modular/ModularCompliance.sol\":2405:2425  _modules[length - 1] */\n      dup2\n      sload\n      dup2\n      lt\n      tag_211\n      jumpi\n      tag_211\n      tag_131\n      jump\t// in\n    tag_211:\n      0x00\n      swap2\n      dup3\n      mstore\n      0x20\n      swap1\n      swap2\n      keccak256\n      add\n      sload\n        /* \"erc3643/erc3643/Compliance/modular/ModularCompliance.sol\":2391:2399  _modules */\n      0x66\n        /* \"erc3643/erc3643/Compliance/modular/ModularCompliance.sol\":2391:2402  _modules[i] */\n      dup1\n      sload\n      sub(shl(0xa0, 0x01), 0x01)\n        /* \"erc3643/erc3643/Compliance/modular/ModularCompliance.sol\":2405:2425  _modules[length - 1] */\n      swap1\n      swap3\n      and\n      swap2\n        /* \"erc3643/erc3643/Compliance/modular/ModularCompliance.sol\":2400:2401  i */\n      dup4\n      swap1\n        /* \"erc3643/erc3643/Compliance/modular/ModularCompliance.sol\":2391:2402  _modules[i] */\n      dup2\n      lt\n      tag_214\n      jumpi\n      tag_214\n      tag_131\n      jump\t// in\n    tag_214:\n      swap1\n      0x00\n      mstore\n      keccak256(0x00, 0x20)\n      add\n      0x00\n        /* \"erc3643/erc3643/Compliance/modular/ModularCompliance.sol\":2391:2425  _modules[i] = _modules[length - 1] */\n      0x0100\n      exp\n      dup2\n      sload\n      dup2\n      sub(shl(0xa0, 0x01), 0x01)\n      mul\n      not\n      and\n      swap1\n      dup4\n      sub(shl(0xa0, 0x01), 0x01)\n      and\n      mul\n      or\n      swap1\n      sstore\n      pop\n        /* \"erc3643/erc3643/Compliance/modular/ModularCompliance.sol\":2443:2451  _modules */\n      0x66\n        /* \"erc3643/erc3643/Compliance/modular/ModularCompliance.sol\":2443:2457  _modules.pop() */\n      dup1\n      sload\n      dup1\n      tag_217\n      jumpi\n      tag_217\n      tag_218\n      jump\t// in\n    tag_217:\n      0x00\n      dup3\n      dup2\n      mstore\n      0x20\n      dup1\n      dup3\n      keccak256\n      dup4\n      add\n      not(0x00)\n      swap1\n      dup2\n      add\n      dup1\n      sload\n      not(sub(shl(0xa0, 0x01), 0x01))\n      and\n      swap1\n      sstore\n      swap1\n      swap3\n      add\n      swap1\n      swap3\n      sstore\n      sub(shl(0xa0, 0x01), 0x01)\n        /* \"erc3643/erc3643/Compliance/modular/ModularCompliance.sol\":2475:2496  _moduleBound[_module] */\n      dup6\n      and\n      dup1\n      dup4\n      mstore\n        /* \"erc3643/erc3643/Compliance/modular/ModularCompliance.sol\":2475:2487  _moduleBound */\n      0x67\n        /* \"erc3643/erc3643/Compliance/modular/ModularCompliance.sol\":2475:2496  _moduleBound[_module] */\n      swap1\n      swap2\n      mstore\n      0x40\n      dup1\n      dup4\n      keccak256\n        /* \"erc3643/erc3643/Compliance/modular/ModularCompliance.sol\":2475:2504  _moduleBound[_module] = false */\n      dup1\n      sload\n      not(0xff)\n      and\n      swap1\n      sstore\n        /* \"erc3643/erc3643/Compliance/modular/ModularCompliance.sol\":2527:2549  ModuleRemoved(_module) */\n      mload\n        /* \"erc3643/erc3643/Compliance/modular/ModularCompliance.sol\":2475:2496  _moduleBound[_module] */\n      swap1\n      swap2\n        /* \"erc3643/erc3643/Compliance/modular/ModularCompliance.sol\":2527:2549  ModuleRemoved(_module) */\n      0x0a1ee69f55c33d8467c69ca59ce2007a737a88603d75392972520bf67cb513b8\n      swap2\n      log2\n        /* \"erc3643/erc3643/Compliance/modular/ModularCompliance.sol\":2228:2597  for (uint256 i = 0; i < length; i++) {... */\n      pop\n        /* \"erc3643/erc3643/Compliance/modular/ModularCompliance.sol\":2041:2603  {... */\n      pop\n        /* \"erc3643/erc3643/Compliance/modular/ModularCompliance.sol\":1974:2603  function removeModule(address _module) external override onlyOwner {... */\n      pop\n      jump\t// out\n        /* \"erc3643/erc3643/Compliance/modular/ModularCompliance.sol\":2279:2587  if (_modules[i] == _module) {... */\n    tag_203:\n        /* \"erc3643/erc3643/Compliance/modular/ModularCompliance.sol\":2260:2263  i++ */\n      dup1\n      tag_220\n      dup2\n      tag_139\n      jump\t// in\n    tag_220:\n      swap2\n      pop\n      pop\n        /* \"erc3643/erc3643/Compliance/modular/ModularCompliance.sol\":2228:2597  for (uint256 i = 0; i < length; i++) {... */\n      jump(tag_197)\n    tag_198:\n      pop\n        /* \"erc3643/erc3643/Compliance/modular/ModularCompliance.sol\":2041:2603  {... */\n      pop\n        /* \"erc3643/erc3643/Compliance/modular/ModularCompliance.sol\":1974:2603  function removeModule(address _module) external override onlyOwner {... */\n      pop\n      jump\t// out\n        /* \"erc3643/erc3643/Compliance/modular/ModularCompliance.sol\":4908:5012  function getModules() external view override returns (address[] memory) {... */\n    tag_61:\n        /* \"erc3643/erc3643/Compliance/modular/ModularCompliance.sol\":4962:4978  address[] memory */\n      0x60\n        /* \"erc3643/erc3643/Compliance/modular/ModularCompliance.sol\":4997:5005  _modules */\n      0x66\n        /* \"erc3643/erc3643/Compliance/modular/ModularCompliance.sol\":4990:5005  return _modules */\n      dup1\n      sload\n      dup1\n      0x20\n      mul\n      0x20\n      add\n      mload(0x40)\n      swap1\n      dup2\n      add\n      0x40\n      mstore\n      dup1\n      swap3\n      swap2\n      swap1\n      dup2\n      dup2\n      mstore\n      0x20\n      add\n      dup3\n      dup1\n      sload\n      dup1\n      iszero\n      tag_223\n      jumpi\n      0x20\n      mul\n      dup3\n      add\n      swap2\n      swap1\n      0x00\n      mstore\n      keccak256(0x00, 0x20)\n      swap1\n    tag_224:\n      dup2\n      sload\n      sub(shl(0xa0, 0x01), 0x01)\n      and\n      dup2\n      mstore\n      0x01\n      swap1\n      swap2\n      add\n      swap1\n      0x20\n      add\n      dup1\n      dup4\n      gt\n      tag_224\n      jumpi\n    tag_223:\n      pop\n      pop\n      pop\n      pop\n      pop\n      swap1\n      pop\n        /* \"erc3643/erc3643/Compliance/modular/ModularCompliance.sol\":4908:5012  function getModules() external view override returns (address[] memory) {... */\n      swap1\n      jump\t// out\n        /* \"erc3643/erc3643/Compliance/modular/ModularCompliance.sol\":574:644  function init() external initializer {... */\n    tag_65:\n        /* \"@openzeppelin/contracts-upgradeable/proxy/utils/Initializable.sol\":3279:3298  bool isTopLevelCall */\n      0x00\n        /* \"@openzeppelin/contracts-upgradeable/proxy/utils/Initializable.sol\":3302:3315  _initializing */\n      sload\n      0x0100\n      swap1\n      div\n      0xff\n      and\n        /* \"@openzeppelin/contracts-upgradeable/proxy/utils/Initializable.sol\":3301:3315  !_initializing */\n      iszero\n      dup1\n        /* \"@openzeppelin/contracts-upgradeable/proxy/utils/Initializable.sol\":3347:3381  isTopLevelCall && _initialized < 1 */\n      dup1\n      iszero\n      tag_226\n      jumpi\n      pop\n        /* \"@openzeppelin/contracts-upgradeable/proxy/utils/Initializable.sol\":3365:3377  _initialized */\n      sload(0x00)\n        /* \"@openzeppelin/contracts-upgradeable/proxy/utils/Initializable.sol\":3380:3381  1 */\n      0x01\n        /* \"@openzeppelin/contracts-upgradeable/proxy/utils/Initializable.sol\":3365:3377  _initialized */\n      0xff\n      swap1\n      swap2\n      and\n        /* \"@openzeppelin/contracts-upgradeable/proxy/utils/Initializable.sol\":3365:3381  _initialized < 1 */\n      lt\n        /* \"@openzeppelin/contracts-upgradeable/proxy/utils/Initializable.sol\":3347:3381  isTopLevelCall && _initialized < 1 */\n    tag_226:\n        /* \"@openzeppelin/contracts-upgradeable/proxy/utils/Initializable.sol\":3346:3454  (isTopLevelCall && _initialized < 1) || (!AddressUpgradeable.isContract(address(this)) && _initialized == 1) */\n      dup1\n      tag_230\n      jumpi\n      pop\n        /* \"@openzeppelin/contracts-upgradeable/proxy/utils/Initializable.sol\":3426:3430  this */\n      address\n        /* \"@openzeppelin/contracts-upgradeable/utils/AddressUpgradeable.sol\":1713:1732  account.code.length */\n      extcodesize\n        /* \"@openzeppelin/contracts-upgradeable/utils/AddressUpgradeable.sol\":1713:1736  account.code.length > 0 */\n      iszero\n      dup1\n      iszero\n        /* \"@openzeppelin/contracts-upgradeable/proxy/utils/Initializable.sol\":3387:3453  !AddressUpgradeable.isContract(address(this)) && _initialized == 1 */\n      tag_230\n      jumpi\n      pop\n        /* \"@openzeppelin/contracts-upgradeable/proxy/utils/Initializable.sol\":3436:3448  _initialized */\n      and(0xff, sload(0x00))\n      0x01\n        /* \"@openzeppelin/contracts-upgradeable/proxy/utils/Initializable.sol\":3436:3453  _initialized == 1 */\n      eq\n        /* \"@openzeppelin/contracts-upgradeable/proxy/utils/Initializable.sol\":3387:3453  !AddressUpgradeable.isContract(address(this)) && _initialized == 1 */\n    tag_230:\n        /* \"@openzeppelin/contracts-upgradeable/proxy/utils/Initializable.sol\":3325:3526  require(... */\n      tag_231\n      jumpi\n      mload(0x40)\n      shl(0xe5, 0x461bcd)\n      dup2\n      mstore\n        /* \"#utility.yul\":7971:7973   */\n      0x20\n        /* \"@openzeppelin/contracts-upgradeable/proxy/utils/Initializable.sol\":3325:3526  require(... */\n      0x04\n      dup3\n      add\n        /* \"#utility.yul\":7953:7974   */\n      mstore\n        /* \"#utility.yul\":8010:8012   */\n      0x2e\n        /* \"#utility.yul\":7990:8008   */\n      0x24\n      dup3\n      add\n        /* \"#utility.yul\":7983:8013   */\n      mstore\n        /* \"#utility.yul\":8049:8083   */\n      0x496e697469616c697a61626c653a20636f6e747261637420697320616c726561\n        /* \"#utility.yul\":8029:8047   */\n      0x44\n      dup3\n      add\n        /* \"#utility.yul\":8022:8084   */\n      mstore\n      shl(0x92, 0x191e481a5b9a5d1a585b1a5e9959)\n        /* \"#utility.yul\":8100:8118   */\n      0x64\n      dup3\n      add\n        /* \"#utility.yul\":8093:8137   */\n      mstore\n        /* \"#utility.yul\":8154:8173   */\n      0x84\n      add\n        /* \"@openzeppelin/contracts-upgradeable/proxy/utils/Initializable.sol\":3325:3526  require(... */\n      tag_82\n        /* \"#utility.yul\":7769:8179   */\n      jump\n        /* \"@openzeppelin/contracts-upgradeable/proxy/utils/Initializable.sol\":3325:3526  require(... */\n    tag_231:\n        /* \"@openzeppelin/contracts-upgradeable/proxy/utils/Initializable.sol\":3536:3548  _initialized */\n      0x00\n        /* \"@openzeppelin/contracts-upgradeable/proxy/utils/Initializable.sol\":3536:3552  _initialized = 1 */\n      dup1\n      sload\n      not(0xff)\n      and\n        /* \"@openzeppelin/contracts-upgradeable/proxy/utils/Initializable.sol\":3551:3552  1 */\n      0x01\n        /* \"@openzeppelin/contracts-upgradeable/proxy/utils/Initializable.sol\":3536:3552  _initialized = 1 */\n      or\n      swap1\n      sstore\n        /* \"@openzeppelin/contracts-upgradeable/proxy/utils/Initializable.sol\":3562:3627  if (isTopLevelCall) {... */\n      dup1\n      iszero\n      tag_234\n      jumpi\n        /* \"@openzeppelin/contracts-upgradeable/proxy/utils/Initializable.sol\":3596:3609  _initializing */\n      0x00\n        /* \"@openzeppelin/contracts-upgradeable/proxy/utils/Initializable.sol\":3596:3616  _initializing = true */\n      dup1\n      sload\n      not(0xff00)\n      and\n      0x0100\n      or\n      swap1\n      sstore\n        /* \"@openzeppelin/contracts-upgradeable/proxy/utils/Initializable.sol\":3562:3627  if (isTopLevelCall) {... */\n    tag_234:\n        /* \"erc3643/erc3643/Compliance/modular/ModularCompliance.sol\":621:637  __Ownable_init() */\n      tag_236\n        /* \"erc3643/erc3643/Compliance/modular/ModularCompliance.sol\":621:635  __Ownable_init */\n      tag_237\n        /* \"erc3643/erc3643/Compliance/modular/ModularCompliance.sol\":621:637  __Ownable_init() */\n      jump\t// in\n    tag_236:\n        /* \"@openzeppelin/contracts-upgradeable/proxy/utils/Initializable.sol\":3651:3665  isTopLevelCall */\n      dup1\n        /* \"@openzeppelin/contracts-upgradeable/proxy/utils/Initializable.sol\":3647:3746  if (isTopLevelCall) {... */\n      iszero\n      tag_238\n      jumpi\n        /* \"@openzeppelin/contracts-upgradeable/proxy/utils/Initializable.sol\":3697:3702  false */\n      0x00\n        /* \"@openzeppelin/contracts-upgradeable/proxy/utils/Initializable.sol\":3681:3702  _initializing = false */\n      dup1\n      sload\n      not(0xff00)\n      and\n      swap1\n      sstore\n        /* \"@openzeppelin/contracts-upgradeable/proxy/utils/Initializable.sol\":3721:3735  Initialized(1) */\n      mload(0x40)\n      0x01\n        /* \"#utility.yul\":8336:8372   */\n      dup2\n      mstore\n        /* \"@openzeppelin/contracts-upgradeable/proxy/utils/Initializable.sol\":3721:3735  Initialized(1) */\n      0x7f26b83ff96e1f2b6a682f133852f6798a09c465da95921460cefb3847402498\n      swap1\n        /* \"#utility.yul\":8324:8326   */\n      0x20\n        /* \"#utility.yul\":8309:8327   */\n      add\n        /* \"@openzeppelin/contracts-upgradeable/proxy/utils/Initializable.sol\":3721:3735  Initialized(1) */\n      tag_104\n        /* \"#utility.yul\":8184:8378   */\n      jump\n        /* \"@openzeppelin/contracts-upgradeable/proxy/utils/Initializable.sol\":3647:3746  if (isTopLevelCall) {... */\n    tag_238:\n        /* \"@openzeppelin/contracts-upgradeable/proxy/utils/Initializable.sol\":3269:3752  {... */\n      pop\n        /* \"erc3643/erc3643/Compliance/modular/ModularCompliance.sol\":574:644  function init() external initializer {... */\n      jump\t// out\n        /* \"erc3643/erc3643/Compliance/modular/ModularCompliance.sol\":5125:5645  function canTransfer(... */\n    tag_68:\n        /* \"erc3643/erc3643/Compliance/modular/ModularCompliance.sol\":5285:5293  _modules */\n      0x66\n        /* \"erc3643/erc3643/Compliance/modular/ModularCompliance.sol\":5285:5300  _modules.length */\n      sload\n        /* \"erc3643/erc3643/Compliance/modular/ModularCompliance.sol\":5252:5256  bool */\n      0x00\n      swap1\n      dup2\n        /* \"erc3643/erc3643/Compliance/modular/ModularCompliance.sol\":5310:5618  for (uint256 i = 0; i < length; i++) {... */\n    tag_242:\n        /* \"erc3643/erc3643/Compliance/modular/ModularCompliance.sol\":5334:5340  length */\n      dup2\n        /* \"erc3643/erc3643/Compliance/modular/ModularCompliance.sol\":5330:5331  i */\n      dup2\n        /* \"erc3643/erc3643/Compliance/modular/ModularCompliance.sol\":5330:5340  i < length */\n      lt\n        /* \"erc3643/erc3643/Compliance/modular/ModularCompliance.sol\":5310:5618  for (uint256 i = 0; i < length; i++) {... */\n      iszero\n      tag_243\n      jumpi\n        /* \"erc3643/erc3643/Compliance/modular/ModularCompliance.sol\":5391:5399  _modules */\n      0x66\n        /* \"erc3643/erc3643/Compliance/modular/ModularCompliance.sol\":5400:5401  i */\n      dup2\n        /* \"erc3643/erc3643/Compliance/modular/ModularCompliance.sol\":5391:5402  _modules[i] */\n      dup2\n      sload\n      dup2\n      lt\n      tag_246\n      jumpi\n      tag_246\n      tag_131\n      jump\t// in\n    tag_246:\n      0x00\n      swap2\n      dup3\n      mstore\n      0x20\n      swap1\n      swap2\n      keccak256\n      add\n      sload\n        /* \"erc3643/erc3643/Compliance/modular/ModularCompliance.sol\":5383:5548  IModule(_modules[i]).moduleCheck(... */\n      mload(0x40)\n      shl(0xe2, 0x4edf39)\n      dup2\n      mstore\n      sub(shl(0xa0, 0x01), 0x01)\n        /* \"#utility.yul\":8670:8685   */\n      dup9\n      dup2\n      and\n        /* \"erc3643/erc3643/Compliance/modular/ModularCompliance.sol\":5383:5548  IModule(_modules[i]).moduleCheck(... */\n      0x04\n      dup4\n      add\n        /* \"#utility.yul\":8652:8686   */\n      mstore\n        /* \"#utility.yul\":8722:8737   */\n      dup8\n      dup2\n      and\n        /* \"#utility.yul\":8702:8720   */\n      0x24\n      dup4\n      add\n        /* \"#utility.yul\":8695:8738   */\n      mstore\n        /* \"#utility.yul\":8754:8772   */\n      0x44\n      dup3\n      add\n        /* \"#utility.yul\":8747:8781   */\n      dup8\n      swap1\n      mstore\n        /* \"erc3643/erc3643/Compliance/modular/ModularCompliance.sol\":5525:5529  this */\n      address\n        /* \"#utility.yul\":8797:8815   */\n      0x64\n      dup4\n      add\n        /* \"#utility.yul\":8790:8833   */\n      mstore\n        /* \"erc3643/erc3643/Compliance/modular/ModularCompliance.sol\":5391:5402  _modules[i] */\n      swap1\n      swap2\n      and\n      swap1\n        /* \"erc3643/erc3643/Compliance/modular/ModularCompliance.sol\":5383:5415  IModule(_modules[i]).moduleCheck */\n      0x013b7ce4\n      swap1\n        /* \"#utility.yul\":8586:8605   */\n      0x84\n      add\n        /* \"erc3643/erc3643/Compliance/modular/ModularCompliance.sol\":5383:5548  IModule(_modules[i]).moduleCheck(... */\n      0x20\n      mload(0x40)\n      dup1\n      dup4\n      sub\n      dup2\n      dup7\n      gas\n      staticcall\n      iszero\n      dup1\n      iszero\n      tag_251\n      jumpi\n      returndatasize\n      0x00\n      dup1\n      returndatacopy\n      revert(0x00, returndatasize)\n    tag_251:\n      pop\n      pop\n      pop\n      pop\n      mload(0x40)\n      returndatasize\n      not(0x1f)\n      0x1f\n      dup3\n      add\n      and\n      dup3\n      add\n      dup1\n      0x40\n      mstore\n      pop\n      dup2\n      add\n      swap1\n      tag_252\n      swap2\n      swap1\n      tag_253\n      jump\t// in\n    tag_252:\n        /* \"erc3643/erc3643/Compliance/modular/ModularCompliance.sol\":5361:5608  if (... */\n      tag_254\n      jumpi\n        /* \"erc3643/erc3643/Compliance/modular/ModularCompliance.sol\":5588:5593  false */\n      0x00\n        /* \"erc3643/erc3643/Compliance/modular/ModularCompliance.sol\":5581:5593  return false */\n      swap3\n      pop\n      pop\n      pop\n      jump(tag_241)\n        /* \"erc3643/erc3643/Compliance/modular/ModularCompliance.sol\":5361:5608  if (... */\n    tag_254:\n        /* \"erc3643/erc3643/Compliance/modular/ModularCompliance.sol\":5342:5345  i++ */\n      dup1\n      tag_255\n      dup2\n      tag_139\n      jump\t// in\n    tag_255:\n      swap2\n      pop\n      pop\n        /* \"erc3643/erc3643/Compliance/modular/ModularCompliance.sol\":5310:5618  for (uint256 i = 0; i < length; i++) {... */\n      jump(tag_242)\n    tag_243:\n      pop\n        /* \"erc3643/erc3643/Compliance/modular/ModularCompliance.sol\":5634:5638  true */\n      0x01\n        /* \"erc3643/erc3643/Compliance/modular/ModularCompliance.sol\":5627:5638  return true */\n      swap2\n      pop\n      pop\n        /* \"erc3643/erc3643/Compliance/modular/ModularCompliance.sol\":5125:5645  function canTransfer(... */\n    tag_241:\n      swap4\n      swap3\n      pop\n      pop\n      pop\n      jump\t// out\n        /* \"erc3643/erc3643/Compliance/modular/ModularCompliance.sol\":3924:4737  function callModuleFunction(bytes calldata callData, address _module)... */\n    tag_73:\n        /* \"@openzeppelin/contracts-upgradeable/access/OwnableUpgradeable.sol\":1334:1347  _checkOwner() */\n      tag_257\n        /* \"@openzeppelin/contracts-upgradeable/access/OwnableUpgradeable.sol\":1334:1345  _checkOwner */\n      tag_79\n        /* \"@openzeppelin/contracts-upgradeable/access/OwnableUpgradeable.sol\":1334:1347  _checkOwner() */\n      jump\t// in\n    tag_257:\n      sub(shl(0xa0, 0x01), 0x01)\n        /* \"erc3643/erc3643/Compliance/modular/ModularCompliance.sol\":4068:4089  _moduleBound[_module] */\n      dup2\n      and\n      0x00\n      swap1\n      dup2\n      mstore\n        /* \"erc3643/erc3643/Compliance/modular/ModularCompliance.sol\":4068:4080  _moduleBound */\n      0x67\n        /* \"erc3643/erc3643/Compliance/modular/ModularCompliance.sol\":4068:4089  _moduleBound[_module] */\n      0x20\n      mstore\n      0x40\n      swap1\n      keccak256\n      sload\n      0xff\n      and\n        /* \"erc3643/erc3643/Compliance/modular/ModularCompliance.sol\":4060:4119  require(_moduleBound[_module], \"call only on bound module\") */\n      tag_259\n      jumpi\n      mload(0x40)\n      shl(0xe5, 0x461bcd)\n      dup2\n      mstore\n        /* \"#utility.yul\":9328:9330   */\n      0x20\n        /* \"erc3643/erc3643/Compliance/modular/ModularCompliance.sol\":4060:4119  require(_moduleBound[_module], \"call only on bound module\") */\n      0x04\n      dup3\n      add\n        /* \"#utility.yul\":9310:9331   */\n      mstore\n        /* \"#utility.yul\":9367:9369   */\n      0x19\n        /* \"#utility.yul\":9347:9365   */\n      0x24\n      dup3\n      add\n        /* \"#utility.yul\":9340:9370   */\n      mstore\n        /* \"#utility.yul\":9406:9433   */\n      0x63616c6c206f6e6c79206f6e20626f756e64206d6f64756c6500000000000000\n        /* \"#utility.yul\":9386:9404   */\n      0x44\n      dup3\n      add\n        /* \"#utility.yul\":9379:9434   */\n      mstore\n        /* \"#utility.yul\":9451:9469   */\n      0x64\n      add\n        /* \"erc3643/erc3643/Compliance/modular/ModularCompliance.sol\":4060:4119  require(_moduleBound[_module], \"call only on bound module\") */\n      tag_82\n        /* \"#utility.yul\":9126:9475   */\n      jump\n        /* \"erc3643/erc3643/Compliance/modular/ModularCompliance.sol\":4060:4119  require(_moduleBound[_module], \"call only on bound module\") */\n    tag_259:\n        /* \"erc3643/erc3643/Compliance/modular/ModularCompliance.sol\":4183:4187  0x40 */\n      0x40\n        /* \"erc3643/erc3643/Compliance/modular/ModularCompliance.sol\":4177:4188  mload(0x40) */\n      mload\n        /* \"erc3643/erc3643/Compliance/modular/ModularCompliance.sol\":4250:4265  callData.length */\n      dup3\n        /* \"erc3643/erc3643/Compliance/modular/ModularCompliance.sol\":4233:4248  callData.offset */\n      dup5\n        /* \"erc3643/erc3643/Compliance/modular/ModularCompliance.sol\":4214:4231  freeMemoryPointer */\n      dup3\n        /* \"erc3643/erc3643/Compliance/modular/ModularCompliance.sol\":4201:4266  calldatacopy(freeMemoryPointer, callData.offset, callData.length) */\n      calldatacopy\n        /* \"erc3643/erc3643/Compliance/modular/ModularCompliance.sol\":4510:4511  0 */\n      0x00\n        /* \"erc3643/erc3643/Compliance/modular/ModularCompliance.sol\":4487:4488  0 */\n      dup1\n        /* \"erc3643/erc3643/Compliance/modular/ModularCompliance.sol\":4450:4465  callData.length */\n      dup5\n        /* \"erc3643/erc3643/Compliance/modular/ModularCompliance.sol\":4411:4428  freeMemoryPointer */\n      dup4\n        /* \"erc3643/erc3643/Compliance/modular/ModularCompliance.sol\":4388:4389  0 */\n      0x00\n        /* \"erc3643/erc3643/Compliance/modular/ModularCompliance.sol\":4359:4366  _module */\n      dup7\n        /* \"erc3643/erc3643/Compliance/modular/ModularCompliance.sol\":4332:4337  gas() */\n      gas\n        /* \"erc3643/erc3643/Compliance/modular/ModularCompliance.sol\":4306:4529  call(... */\n      call\n        /* \"erc3643/erc3643/Compliance/modular/ModularCompliance.sol\":4279:4658  if iszero(... */\n      tag_262\n      jumpi\n        /* \"erc3643/erc3643/Compliance/modular/ModularCompliance.sol\":4583:4599  returndatasize() */\n      returndatasize\n        /* \"erc3643/erc3643/Compliance/modular/ModularCompliance.sol\":4580:4581  0 */\n      0x00\n        /* \"erc3643/erc3643/Compliance/modular/ModularCompliance.sol\":4577:4578  0 */\n      dup1\n        /* \"erc3643/erc3643/Compliance/modular/ModularCompliance.sol\":4562:4600  returndatacopy(0, 0, returndatasize()) */\n      returndatacopy\n        /* \"erc3643/erc3643/Compliance/modular/ModularCompliance.sol\":4627:4643  returndatasize() */\n      returndatasize\n        /* \"erc3643/erc3643/Compliance/modular/ModularCompliance.sol\":4624:4625  0 */\n      0x00\n        /* \"erc3643/erc3643/Compliance/modular/ModularCompliance.sol\":4617:4644  revert(0, returndatasize()) */\n      revert\n        /* \"erc3643/erc3643/Compliance/modular/ModularCompliance.sol\":4279:4658  if iszero(... */\n    tag_262:\n      pop\n        /* \"erc3643/erc3643/Compliance/modular/ModularCompliance.sol\":4701:4708  _module */\n      dup1\n      sub(shl(0xa0, 0x01), 0x01)\n        /* \"erc3643/erc3643/Compliance/modular/ModularCompliance.sol\":4683:4730  ModuleInteraction(_module, _selector(callData)) */\n      and\n      0x20d79de70adcc6e9353d8a9a5646b46dc352710d0a310b1ad1f67faeca7ef891\n        /* \"erc3643/erc3643/Compliance/modular/ModularCompliance.sol\":4710:4729  _selector(callData) */\n      tag_263\n        /* \"erc3643/erc3643/Compliance/modular/ModularCompliance.sol\":4720:4728  callData */\n      dup6\n      dup6\n        /* \"erc3643/erc3643/Compliance/modular/ModularCompliance.sol\":4710:4719  _selector */\n      tag_264\n        /* \"erc3643/erc3643/Compliance/modular/ModularCompliance.sol\":4710:4729  _selector(callData) */\n      jump\t// in\n    tag_263:\n        /* \"erc3643/erc3643/Compliance/modular/ModularCompliance.sol\":4683:4730  ModuleInteraction(_module, _selector(callData)) */\n      mload(0x40)\n      not(sub(shl(0xe0, 0x01), 0x01))\n        /* \"#utility.yul\":9642:9675   */\n      swap1\n      swap2\n      and\n        /* \"#utility.yul\":9624:9676   */\n      dup2\n      mstore\n        /* \"#utility.yul\":9612:9614   */\n      0x20\n        /* \"#utility.yul\":9597:9615   */\n      add\n        /* \"erc3643/erc3643/Compliance/modular/ModularCompliance.sol\":4683:4730  ModuleInteraction(_module, _selector(callData)) */\n      mload(0x40)\n      dup1\n      swap2\n      sub\n      swap1\n      log2\n        /* \"erc3643/erc3643/Compliance/modular/ModularCompliance.sol\":3924:4737  function callModuleFunction(bytes calldata callData, address _module)... */\n      pop\n      pop\n      pop\n      jump\t// out\n        /* \"@openzeppelin/contracts-upgradeable/access/OwnableUpgradeable.sol\":2314:2512  function transferOwnership(address newOwner) public virtual onlyOwner {... */\n    tag_76:\n        /* \"@openzeppelin/contracts-upgradeable/access/OwnableUpgradeable.sol\":1334:1347  _checkOwner() */\n      tag_268\n        /* \"@openzeppelin/contracts-upgradeable/access/OwnableUpgradeable.sol\":1334:1345  _checkOwner */\n      tag_79\n        /* \"@openzeppelin/contracts-upgradeable/access/OwnableUpgradeable.sol\":1334:1347  _checkOwner() */\n      jump\t// in\n    tag_268:\n      sub(shl(0xa0, 0x01), 0x01)\n        /* \"@openzeppelin/contracts-upgradeable/access/OwnableUpgradeable.sol\":2402:2424  newOwner != address(0) */\n      dup2\n      and\n        /* \"@openzeppelin/contracts-upgradeable/access/OwnableUpgradeable.sol\":2394:2467  require(newOwner != address(0), \"Ownable: new owner is the zero address\") */\n      tag_270\n      jumpi\n      mload(0x40)\n      shl(0xe5, 0x461bcd)\n      dup2\n      mstore\n        /* \"#utility.yul\":9889:9891   */\n      0x20\n        /* \"@openzeppelin/contracts-upgradeable/access/OwnableUpgradeable.sol\":2394:2467  require(newOwner != address(0), \"Ownable: new owner is the zero address\") */\n      0x04\n      dup3\n      add\n        /* \"#utility.yul\":9871:9892   */\n      mstore\n        /* \"#utility.yul\":9928:9930   */\n      0x26\n        /* \"#utility.yul\":9908:9926   */\n      0x24\n      dup3\n      add\n        /* \"#utility.yul\":9901:9931   */\n      mstore\n        /* \"#utility.yul\":9967:10001   */\n      0x4f776e61626c653a206e6577206f776e657220697320746865207a65726f2061\n        /* \"#utility.yul\":9947:9965   */\n      0x44\n      dup3\n      add\n        /* \"#utility.yul\":9940:10002   */\n      mstore\n      shl(0xd0, 0x646472657373)\n        /* \"#utility.yul\":10018:10036   */\n      0x64\n      dup3\n      add\n        /* \"#utility.yul\":10011:10047   */\n      mstore\n        /* \"#utility.yul\":10064:10083   */\n      0x84\n      add\n        /* \"@openzeppelin/contracts-upgradeable/access/OwnableUpgradeable.sol\":2394:2467  require(newOwner != address(0), \"Ownable: new owner is the zero address\") */\n      tag_82\n        /* \"#utility.yul\":9687:10089   */\n      jump\n        /* \"@openzeppelin/contracts-upgradeable/access/OwnableUpgradeable.sol\":2394:2467  require(newOwner != address(0), \"Ownable: new owner is the zero address\") */\n    tag_270:\n        /* \"@openzeppelin/contracts-upgradeable/access/OwnableUpgradeable.sol\":2477:2505  _transferOwnership(newOwner) */\n      tag_238\n        /* \"@openzeppelin/contracts-upgradeable/access/OwnableUpgradeable.sol\":2496:2504  newOwner */\n      dup2\n        /* \"@openzeppelin/contracts-upgradeable/access/OwnableUpgradeable.sol\":2477:2495  _transferOwnership */\n      tag_145\n        /* \"@openzeppelin/contracts-upgradeable/access/OwnableUpgradeable.sol\":2477:2505  _transferOwnership(newOwner) */\n      jump\t// in\n        /* \"@openzeppelin/contracts-upgradeable/access/OwnableUpgradeable.sol\":1599:1729  function _checkOwner() internal view virtual {... */\n    tag_79:\n        /* \"@openzeppelin/contracts-upgradeable/access/OwnableUpgradeable.sol\":1513:1519  _owner */\n      and(sub(shl(0xa0, 0x01), 0x01), sload(0x33))\n        /* \"@openzeppelin/contracts-upgradeable/utils/ContextUpgradeable.sol\":929:939  msg.sender */\n      caller\n        /* \"@openzeppelin/contracts-upgradeable/access/OwnableUpgradeable.sol\":1662:1685  owner() == _msgSender() */\n      eq\n        /* \"@openzeppelin/contracts-upgradeable/access/OwnableUpgradeable.sol\":1654:1722  require(owner() == _msgSender(), \"Ownable: caller is not the owner\") */\n      tag_144\n      jumpi\n      mload(0x40)\n      shl(0xe5, 0x461bcd)\n      dup2\n      mstore\n        /* \"#utility.yul\":10296:10298   */\n      0x20\n        /* \"@openzeppelin/contracts-upgradeable/access/OwnableUpgradeable.sol\":1654:1722  require(owner() == _msgSender(), \"Ownable: caller is not the owner\") */\n      0x04\n      dup3\n      add\n        /* \"#utility.yul\":10278:10299   */\n      dup2\n      swap1\n      mstore\n        /* \"#utility.yul\":10315:10333   */\n      0x24\n      dup3\n      add\n        /* \"#utility.yul\":10308:10338   */\n      mstore\n        /* \"#utility.yul\":10374:10408   */\n      0x4f776e61626c653a2063616c6c6572206973206e6f7420746865206f776e6572\n        /* \"#utility.yul\":10354:10372   */\n      0x44\n      dup3\n      add\n        /* \"#utility.yul\":10347:10409   */\n      mstore\n        /* \"#utility.yul\":10426:10444   */\n      0x64\n      add\n        /* \"@openzeppelin/contracts-upgradeable/access/OwnableUpgradeable.sol\":1654:1722  require(owner() == _msgSender(), \"Ownable: caller is not the owner\") */\n      tag_82\n        /* \"#utility.yul\":10094:10450   */\n      jump\n        /* \"@openzeppelin/contracts-upgradeable/access/OwnableUpgradeable.sol\":2666:2853  function _transferOwnership(address newOwner) internal virtual {... */\n    tag_145:\n        /* \"@openzeppelin/contracts-upgradeable/access/OwnableUpgradeable.sol\":2758:2764  _owner */\n      0x33\n      dup1\n      sload\n      sub(shl(0xa0, 0x01), 0x01)\n        /* \"@openzeppelin/contracts-upgradeable/access/OwnableUpgradeable.sol\":2774:2791  _owner = newOwner */\n      dup4\n      dup2\n      and\n      not(sub(shl(0xa0, 0x01), 0x01))\n      dup4\n      and\n      dup2\n      or\n      swap1\n      swap4\n      sstore\n        /* \"@openzeppelin/contracts-upgradeable/access/OwnableUpgradeable.sol\":2806:2846  OwnershipTransferred(oldOwner, newOwner) */\n      mload(0x40)\n        /* \"@openzeppelin/contracts-upgradeable/access/OwnableUpgradeable.sol\":2758:2764  _owner */\n      swap2\n      and\n      swap2\n        /* \"@openzeppelin/contracts-upgradeable/access/OwnableUpgradeable.sol\":2774:2791  _owner = newOwner */\n      swap1\n        /* \"@openzeppelin/contracts-upgradeable/access/OwnableUpgradeable.sol\":2758:2764  _owner */\n      dup3\n      swap1\n        /* \"@openzeppelin/contracts-upgradeable/access/OwnableUpgradeable.sol\":2806:2846  OwnershipTransferred(oldOwner, newOwner) */\n      0x8be0079c531659141344cd1fd0a4f28419497f9722a3daafe3b4186f6b6457e0\n      swap1\n        /* \"@openzeppelin/contracts-upgradeable/access/OwnableUpgradeable.sol\":2739:2755  address oldOwner */\n      0x00\n      swap1\n        /* \"@openzeppelin/contracts-upgradeable/access/OwnableUpgradeable.sol\":2806:2846  OwnershipTransferred(oldOwner, newOwner) */\n      log3\n        /* \"@openzeppelin/contracts-upgradeable/access/OwnableUpgradeable.sol\":2729:2853  {... */\n      pop\n        /* \"@openzeppelin/contracts-upgradeable/access/OwnableUpgradeable.sol\":2666:2853  function _transferOwnership(address newOwner) internal virtual {... */\n      pop\n      jump\t// out\n        /* \"@openzeppelin/contracts-upgradeable/access/OwnableUpgradeable.sol\":1003:1098  function __Ownable_init() internal onlyInitializing {... */\n    tag_237:\n        /* \"@openzeppelin/contracts-upgradeable/proxy/utils/Initializable.sol\":5374:5387  _initializing */\n      sload(0x00)\n      0x0100\n      swap1\n      div\n      0xff\n      and\n        /* \"@openzeppelin/contracts-upgradeable/proxy/utils/Initializable.sol\":5366:5435  require(_initializing, \"Initializable: contract is not initializing\") */\n      tag_284\n      jumpi\n      mload(0x40)\n      shl(0xe5, 0x461bcd)\n      dup2\n      mstore\n      0x04\n      add\n      tag_82\n      swap1\n      tag_286\n      jump\t// in\n    tag_284:\n        /* \"@openzeppelin/contracts-upgradeable/access/OwnableUpgradeable.sol\":1065:1091  __Ownable_init_unchained() */\n      tag_144\n        /* \"@openzeppelin/contracts-upgradeable/access/OwnableUpgradeable.sol\":1065:1089  __Ownable_init_unchained */\n      tag_289\n        /* \"@openzeppelin/contracts-upgradeable/access/OwnableUpgradeable.sol\":1065:1091  __Ownable_init_unchained() */\n      jump\t// in\n        /* \"erc3643/erc3643/Compliance/modular/ModularCompliance.sol\":5651:5907  function _selector(bytes calldata callData)... */\n    tag_264:\n        /* \"erc3643/erc3643/Compliance/modular/ModularCompliance.sol\":5742:5755  bytes4 result */\n      0x00\n        /* \"erc3643/erc3643/Compliance/modular/ModularCompliance.sol\":5794:5795  4 */\n      0x04\n        /* \"erc3643/erc3643/Compliance/modular/ModularCompliance.sol\":5775:5795  callData.length >= 4 */\n      dup3\n      lt\n        /* \"erc3643/erc3643/Compliance/modular/ModularCompliance.sol\":5771:5901  if (callData.length >= 4) {... */\n      tag_291\n      jumpi\n      pop\n        /* \"erc3643/erc3643/Compliance/modular/ModularCompliance.sol\":5848:5877  calldataload(callData.offset) */\n      dup2\n      calldataload\n        /* \"erc3643/erc3643/Compliance/modular/ModularCompliance.sol\":5771:5901  if (callData.length >= 4) {... */\n    tag_291:\n        /* \"erc3643/erc3643/Compliance/modular/ModularCompliance.sol\":5651:5907  function _selector(bytes calldata callData)... */\n      swap3\n      swap2\n      pop\n      pop\n      jump\t// out\n        /* \"@openzeppelin/contracts-upgradeable/access/OwnableUpgradeable.sol\":1104:1215  function __Ownable_init_unchained() internal onlyInitializing {... */\n    tag_289:\n        /* \"@openzeppelin/contracts-upgradeable/proxy/utils/Initializable.sol\":5374:5387  _initializing */\n      sload(0x00)\n      0x0100\n      swap1\n      div\n      0xff\n      and\n        /* \"@openzeppelin/contracts-upgradeable/proxy/utils/Initializable.sol\":5366:5435  require(_initializing, \"Initializable: contract is not initializing\") */\n      tag_294\n      jumpi\n      mload(0x40)\n      shl(0xe5, 0x461bcd)\n      dup2\n      mstore\n      0x04\n      add\n      tag_82\n      swap1\n      tag_286\n      jump\t// in\n    tag_294:\n        /* \"@openzeppelin/contracts-upgradeable/access/OwnableUpgradeable.sol\":1176:1208  _transferOwnership(_msgSender()) */\n      tag_144\n        /* \"@openzeppelin/contracts-upgradeable/utils/ContextUpgradeable.sol\":929:939  msg.sender */\n      caller\n        /* \"@openzeppelin/contracts-upgradeable/access/OwnableUpgradeable.sol\":1176:1194  _transferOwnership */\n      tag_145\n        /* \"@openzeppelin/contracts-upgradeable/access/OwnableUpgradeable.sol\":1176:1208  _transferOwnership(_msgSender()) */\n      jump\t// in\n        /* \"#utility.yul\":14:187   */\n    tag_299:\n        /* \"#utility.yul\":82:102   */\n      dup1\n      calldataload\n      sub(shl(0xa0, 0x01), 0x01)\n        /* \"#utility.yul\":131:162   */\n      dup2\n      and\n        /* \"#utility.yul\":121:163   */\n      dup2\n      eq\n        /* \"#utility.yul\":111:181   */\n      tag_303\n      jumpi\n        /* \"#utility.yul\":177:178   */\n      0x00\n        /* \"#utility.yul\":174:175   */\n      dup1\n        /* \"#utility.yul\":167:179   */\n      revert\n        /* \"#utility.yul\":111:181   */\n    tag_303:\n        /* \"#utility.yul\":14:187   */\n      swap2\n      swap1\n      pop\n      jump\t// out\n        /* \"#utility.yul\":192:378   */\n    tag_24:\n        /* \"#utility.yul\":251:257   */\n      0x00\n        /* \"#utility.yul\":304:306   */\n      0x20\n        /* \"#utility.yul\":292:301   */\n      dup3\n        /* \"#utility.yul\":283:290   */\n      dup5\n        /* \"#utility.yul\":279:302   */\n      sub\n        /* \"#utility.yul\":275:307   */\n      slt\n        /* \"#utility.yul\":272:324   */\n      iszero\n      tag_305\n      jumpi\n        /* \"#utility.yul\":320:321   */\n      0x00\n        /* \"#utility.yul\":317:318   */\n      dup1\n        /* \"#utility.yul\":310:322   */\n      revert\n        /* \"#utility.yul\":272:324   */\n    tag_305:\n        /* \"#utility.yul\":343:372   */\n      tag_241\n        /* \"#utility.yul\":362:371   */\n      dup3\n        /* \"#utility.yul\":343:372   */\n      tag_299\n      jump\t// in\n        /* \"#utility.yul\":383:637   */\n    tag_34:\n        /* \"#utility.yul\":451:457   */\n      0x00\n        /* \"#utility.yul\":459:465   */\n      dup1\n        /* \"#utility.yul\":512:514   */\n      0x40\n        /* \"#utility.yul\":500:509   */\n      dup4\n        /* \"#utility.yul\":491:498   */\n      dup6\n        /* \"#utility.yul\":487:510   */\n      sub\n        /* \"#utility.yul\":483:515   */\n      slt\n        /* \"#utility.yul\":480:532   */\n      iszero\n      tag_308\n      jumpi\n        /* \"#utility.yul\":528:529   */\n      0x00\n        /* \"#utility.yul\":525:526   */\n      dup1\n        /* \"#utility.yul\":518:530   */\n      revert\n        /* \"#utility.yul\":480:532   */\n    tag_308:\n        /* \"#utility.yul\":551:580   */\n      tag_309\n        /* \"#utility.yul\":570:579   */\n      dup4\n        /* \"#utility.yul\":551:580   */\n      tag_299\n      jump\t// in\n    tag_309:\n        /* \"#utility.yul\":541:580   */\n      swap5\n        /* \"#utility.yul\":627:629   */\n      0x20\n        /* \"#utility.yul\":612:630   */\n      swap4\n      swap1\n      swap4\n      add\n        /* \"#utility.yul\":599:631   */\n      calldataload\n      swap4\n      pop\n      pop\n      pop\n        /* \"#utility.yul\":383:637   */\n      jump\t// out\n        /* \"#utility.yul\":850:1178   */\n    tag_44:\n        /* \"#utility.yul\":927:933   */\n      0x00\n        /* \"#utility.yul\":935:941   */\n      dup1\n        /* \"#utility.yul\":943:949   */\n      0x00\n        /* \"#utility.yul\":996:998   */\n      0x60\n        /* \"#utility.yul\":984:993   */\n      dup5\n        /* \"#utility.yul\":975:982   */\n      dup7\n        /* \"#utility.yul\":971:994   */\n      sub\n        /* \"#utility.yul\":967:999   */\n      slt\n        /* \"#utility.yul\":964:1016   */\n      iszero\n      tag_312\n      jumpi\n        /* \"#utility.yul\":1012:1013   */\n      0x00\n        /* \"#utility.yul\":1009:1010   */\n      dup1\n        /* \"#utility.yul\":1002:1014   */\n      revert\n        /* \"#utility.yul\":964:1016   */\n    tag_312:\n        /* \"#utility.yul\":1035:1064   */\n      tag_313\n        /* \"#utility.yul\":1054:1063   */\n      dup5\n        /* \"#utility.yul\":1035:1064   */\n      tag_299\n      jump\t// in\n    tag_313:\n        /* \"#utility.yul\":1025:1064   */\n      swap3\n      pop\n        /* \"#utility.yul\":1083:1121   */\n      tag_314\n        /* \"#utility.yul\":1117:1119   */\n      0x20\n        /* \"#utility.yul\":1106:1115   */\n      dup6\n        /* \"#utility.yul\":1102:1120   */\n      add\n        /* \"#utility.yul\":1083:1121   */\n      tag_299\n      jump\t// in\n    tag_314:\n        /* \"#utility.yul\":1073:1121   */\n      swap2\n      pop\n        /* \"#utility.yul\":1168:1170   */\n      0x40\n        /* \"#utility.yul\":1157:1166   */\n      dup5\n        /* \"#utility.yul\":1153:1171   */\n      add\n        /* \"#utility.yul\":1140:1172   */\n      calldataload\n        /* \"#utility.yul\":1130:1172   */\n      swap1\n      pop\n        /* \"#utility.yul\":850:1178   */\n      swap3\n      pop\n      swap3\n      pop\n      swap3\n      jump\t// out\n        /* \"#utility.yul\":1375:2033   */\n    tag_63:\n        /* \"#utility.yul\":1546:1548   */\n      0x20\n        /* \"#utility.yul\":1598:1619   */\n      dup1\n      dup3\n      mstore\n        /* \"#utility.yul\":1668:1681   */\n      dup3\n      mload\n        /* \"#utility.yul\":1571:1589   */\n      dup3\n      dup3\n      add\n        /* \"#utility.yul\":1690:1712   */\n      dup2\n      swap1\n      mstore\n        /* \"#utility.yul\":1517:1521   */\n      0x00\n      swap2\n        /* \"#utility.yul\":1546:1548   */\n      swap1\n        /* \"#utility.yul\":1769:1784   */\n      dup5\n      dup3\n      add\n      swap1\n        /* \"#utility.yul\":1743:1745   */\n      0x40\n        /* \"#utility.yul\":1728:1746   */\n      dup6\n      add\n      swap1\n        /* \"#utility.yul\":1517:1521   */\n      dup5\n        /* \"#utility.yul\":1812:2007   */\n    tag_317:\n        /* \"#utility.yul\":1826:1832   */\n      dup2\n        /* \"#utility.yul\":1823:1824   */\n      dup2\n        /* \"#utility.yul\":1820:1833   */\n      lt\n        /* \"#utility.yul\":1812:2007   */\n      iszero\n      tag_319\n      jumpi\n        /* \"#utility.yul\":1891:1904   */\n      dup4\n      mload\n      sub(shl(0xa0, 0x01), 0x01)\n        /* \"#utility.yul\":1887:1926   */\n      and\n        /* \"#utility.yul\":1875:1927   */\n      dup4\n      mstore\n        /* \"#utility.yul\":1982:1997   */\n      swap3\n      dup5\n      add\n      swap3\n        /* \"#utility.yul\":1947:1959   */\n      swap2\n      dup5\n      add\n      swap2\n        /* \"#utility.yul\":1923:1924   */\n      0x01\n        /* \"#utility.yul\":1841:1850   */\n      add\n        /* \"#utility.yul\":1812:2007   */\n      jump(tag_317)\n    tag_319:\n      pop\n        /* \"#utility.yul\":2024:2027   */\n      swap1\n      swap7\n        /* \"#utility.yul\":1375:2033   */\n      swap6\n      pop\n      pop\n      pop\n      pop\n      pop\n      pop\n      jump\t// out\n        /* \"#utility.yul\":2038:2709   */\n    tag_72:\n        /* \"#utility.yul\":2117:2123   */\n      0x00\n        /* \"#utility.yul\":2125:2131   */\n      dup1\n        /* \"#utility.yul\":2133:2139   */\n      0x00\n        /* \"#utility.yul\":2186:2188   */\n      0x40\n        /* \"#utility.yul\":2174:2183   */\n      dup5\n        /* \"#utility.yul\":2165:2172   */\n      dup7\n        /* \"#utility.yul\":2161:2184   */\n      sub\n        /* \"#utility.yul\":2157:2189   */\n      slt\n        /* \"#utility.yul\":2154:2206   */\n      iszero\n      tag_321\n      jumpi\n        /* \"#utility.yul\":2202:2203   */\n      0x00\n        /* \"#utility.yul\":2199:2200   */\n      dup1\n        /* \"#utility.yul\":2192:2204   */\n      revert\n        /* \"#utility.yul\":2154:2206   */\n    tag_321:\n        /* \"#utility.yul\":2242:2251   */\n      dup4\n        /* \"#utility.yul\":2229:2252   */\n      calldataload\n        /* \"#utility.yul\":2271:2289   */\n      0xffffffffffffffff\n        /* \"#utility.yul\":2312:2314   */\n      dup1\n        /* \"#utility.yul\":2304:2310   */\n      dup3\n        /* \"#utility.yul\":2301:2315   */\n      gt\n        /* \"#utility.yul\":2298:2332   */\n      iszero\n      tag_322\n      jumpi\n        /* \"#utility.yul\":2328:2329   */\n      0x00\n        /* \"#utility.yul\":2325:2326   */\n      dup1\n        /* \"#utility.yul\":2318:2330   */\n      revert\n        /* \"#utility.yul\":2298:2332   */\n    tag_322:\n        /* \"#utility.yul\":2366:2372   */\n      dup2\n        /* \"#utility.yul\":2355:2364   */\n      dup7\n        /* \"#utility.yul\":2351:2373   */\n      add\n        /* \"#utility.yul\":2341:2373   */\n      swap2\n      pop\n        /* \"#utility.yul\":2411:2418   */\n      dup7\n        /* \"#utility.yul\":2404:2408   */\n      0x1f\n        /* \"#utility.yul\":2400:2402   */\n      dup4\n        /* \"#utility.yul\":2396:2409   */\n      add\n        /* \"#utility.yul\":2392:2419   */\n      slt\n        /* \"#utility.yul\":2382:2437   */\n      tag_323\n      jumpi\n        /* \"#utility.yul\":2433:2434   */\n      0x00\n        /* \"#utility.yul\":2430:2431   */\n      dup1\n        /* \"#utility.yul\":2423:2435   */\n      revert\n        /* \"#utility.yul\":2382:2437   */\n    tag_323:\n        /* \"#utility.yul\":2473:2475   */\n      dup2\n        /* \"#utility.yul\":2460:2476   */\n      calldataload\n        /* \"#utility.yul\":2499:2501   */\n      dup2\n        /* \"#utility.yul\":2491:2497   */\n      dup2\n        /* \"#utility.yul\":2488:2502   */\n      gt\n        /* \"#utility.yul\":2485:2519   */\n      iszero\n      tag_324\n      jumpi\n        /* \"#utility.yul\":2515:2516   */\n      0x00\n        /* \"#utility.yul\":2512:2513   */\n      dup1\n        /* \"#utility.yul\":2505:2517   */\n      revert\n        /* \"#utility.yul\":2485:2519   */\n    tag_324:\n        /* \"#utility.yul\":2562:2569   */\n      dup8\n        /* \"#utility.yul\":2555:2559   */\n      0x20\n        /* \"#utility.yul\":2546:2552   */\n      dup3\n        /* \"#utility.yul\":2542:2544   */\n      dup6\n        /* \"#utility.yul\":2538:2553   */\n      add\n        /* \"#utility.yul\":2534:2560   */\n      add\n        /* \"#utility.yul\":2531:2570   */\n      gt\n        /* \"#utility.yul\":2528:2587   */\n      iszero\n      tag_325\n      jumpi\n        /* \"#utility.yul\":2583:2584   */\n      0x00\n        /* \"#utility.yul\":2580:2581   */\n      dup1\n        /* \"#utility.yul\":2573:2585   */\n      revert\n        /* \"#utility.yul\":2528:2587   */\n    tag_325:\n        /* \"#utility.yul\":2614:2618   */\n      0x20\n        /* \"#utility.yul\":2606:2619   */\n      swap3\n      dup4\n      add\n      swap6\n      pop\n        /* \"#utility.yul\":2638:2644   */\n      swap4\n      pop\n        /* \"#utility.yul\":2663:2703   */\n      tag_326\n      swap2\n        /* \"#utility.yul\":2682:2702   */\n      dup7\n      add\n      swap1\n      pop\n        /* \"#utility.yul\":2663:2703   */\n      tag_299\n      jump\t// in\n    tag_326:\n        /* \"#utility.yul\":2653:2703   */\n      swap1\n      pop\n        /* \"#utility.yul\":2038:2709   */\n      swap3\n      pop\n      swap3\n      pop\n      swap3\n      jump\t// out\n        /* \"#utility.yul\":2714:3069   */\n    tag_83:\n        /* \"#utility.yul\":2916:2918   */\n      0x20\n        /* \"#utility.yul\":2898:2919   */\n      dup1\n      dup3\n      mstore\n        /* \"#utility.yul\":2955:2957   */\n      0x1f\n        /* \"#utility.yul\":2935:2953   */\n      swap1\n      dup3\n      add\n        /* \"#utility.yul\":2928:2958   */\n      mstore\n        /* \"#utility.yul\":2994:3027   */\n      0x696e76616c696420617267756d656e74202d207a65726f206164647265737300\n        /* \"#utility.yul\":2989:2991   */\n      0x40\n        /* \"#utility.yul\":2974:2992   */\n      dup3\n      add\n        /* \"#utility.yul\":2967:3028   */\n      mstore\n        /* \"#utility.yul\":3060:3062   */\n      0x60\n        /* \"#utility.yul\":3045:3063   */\n      add\n      swap1\n        /* \"#utility.yul\":2714:3069   */\n      jump\t// out\n        /* \"#utility.yul\":4492:4964   */\n    tag_119:\n        /* \"#utility.yul\":4694:4696   */\n      0x20\n        /* \"#utility.yul\":4676:4697   */\n      dup1\n      dup3\n      mstore\n        /* \"#utility.yul\":4733:4735   */\n      0x44\n        /* \"#utility.yul\":4713:4731   */\n      swap1\n      dup3\n      add\n        /* \"#utility.yul\":4706:4736   */\n      mstore\n        /* \"#utility.yul\":4772:4806   */\n      0x6572726f72203a20746869732061646472657373206973206e6f74206120746f\n        /* \"#utility.yul\":4767:4769   */\n      0x40\n        /* \"#utility.yul\":4752:4770   */\n      dup3\n      add\n        /* \"#utility.yul\":4745:4807   */\n      mstore\n        /* \"#utility.yul\":4843:4877   */\n      0x6b656e20626f756e6420746f2074686520636f6d706c69616e636520636f6e74\n        /* \"#utility.yul\":4838:4840   */\n      0x60\n        /* \"#utility.yul\":4823:4841   */\n      dup3\n      add\n        /* \"#utility.yul\":4816:4878   */\n      mstore\n      shl(0xe2, 0x1c9858dd)\n        /* \"#utility.yul\":4909:4912   */\n      0x80\n        /* \"#utility.yul\":4894:4913   */\n      dup3\n      add\n        /* \"#utility.yul\":4887:4922   */\n      mstore\n        /* \"#utility.yul\":4954:4957   */\n      0xa0\n        /* \"#utility.yul\":4939:4958   */\n      add\n      swap1\n        /* \"#utility.yul\":4492:4964   */\n      jump\t// out\n        /* \"#utility.yul\":5330:5457   */\n    tag_131:\n        /* \"#utility.yul\":5391:5401   */\n      0x4e487b71\n        /* \"#utility.yul\":5386:5389   */\n      0xe0\n        /* \"#utility.yul\":5382:5402   */\n      shl\n        /* \"#utility.yul\":5379:5380   */\n      0x00\n        /* \"#utility.yul\":5372:5403   */\n      mstore\n        /* \"#utility.yul\":5422:5426   */\n      0x32\n        /* \"#utility.yul\":5419:5420   */\n      0x04\n        /* \"#utility.yul\":5412:5427   */\n      mstore\n        /* \"#utility.yul\":5446:5450   */\n      0x24\n        /* \"#utility.yul\":5443:5444   */\n      0x00\n        /* \"#utility.yul\":5436:5451   */\n      revert\n        /* \"#utility.yul\":5741:5868   */\n    tag_300:\n        /* \"#utility.yul\":5802:5812   */\n      0x4e487b71\n        /* \"#utility.yul\":5797:5800   */\n      0xe0\n        /* \"#utility.yul\":5793:5813   */\n      shl\n        /* \"#utility.yul\":5790:5791   */\n      0x00\n        /* \"#utility.yul\":5783:5814   */\n      mstore\n        /* \"#utility.yul\":5833:5837   */\n      0x11\n        /* \"#utility.yul\":5830:5831   */\n      0x04\n        /* \"#utility.yul\":5823:5838   */\n      mstore\n        /* \"#utility.yul\":5857:5861   */\n      0x24\n        /* \"#utility.yul\":5854:5855   */\n      0x00\n        /* \"#utility.yul\":5847:5862   */\n      revert\n        /* \"#utility.yul\":5873:6008   */\n    tag_139:\n        /* \"#utility.yul\":5912:5915   */\n      0x00\n        /* \"#utility.yul\":5933:5950   */\n      0x01\n      dup3\n      add\n        /* \"#utility.yul\":5930:5973   */\n      tag_339\n      jumpi\n        /* \"#utility.yul\":5953:5971   */\n      tag_339\n      tag_300\n      jump\t// in\n    tag_339:\n      pop\n        /* \"#utility.yul\":6000:6001   */\n      0x01\n        /* \"#utility.yul\":5989:6002   */\n      add\n      swap1\n        /* \"#utility.yul\":5873:6008   */\n      jump\t// out\n        /* \"#utility.yul\":7504:7632   */\n    tag_209:\n        /* \"#utility.yul\":7571:7580   */\n      dup2\n      dup2\n      sub\n        /* \"#utility.yul\":7592:7603   */\n      dup2\n      dup2\n      gt\n        /* \"#utility.yul\":7589:7626   */\n      iszero\n      tag_291\n      jumpi\n        /* \"#utility.yul\":7606:7624   */\n      tag_291\n      tag_300\n      jump\t// in\n        /* \"#utility.yul\":7637:7764   */\n    tag_218:\n        /* \"#utility.yul\":7698:7708   */\n      0x4e487b71\n        /* \"#utility.yul\":7693:7696   */\n      0xe0\n        /* \"#utility.yul\":7689:7709   */\n      shl\n        /* \"#utility.yul\":7686:7687   */\n      0x00\n        /* \"#utility.yul\":7679:7710   */\n      mstore\n        /* \"#utility.yul\":7729:7733   */\n      0x31\n        /* \"#utility.yul\":7726:7727   */\n      0x04\n        /* \"#utility.yul\":7719:7734   */\n      mstore\n        /* \"#utility.yul\":7753:7757   */\n      0x24\n        /* \"#utility.yul\":7750:7751   */\n      0x00\n        /* \"#utility.yul\":7743:7758   */\n      revert\n        /* \"#utility.yul\":8844:9121   */\n    tag_253:\n        /* \"#utility.yul\":8911:8917   */\n      0x00\n        /* \"#utility.yul\":8964:8966   */\n      0x20\n        /* \"#utility.yul\":8952:8961   */\n      dup3\n        /* \"#utility.yul\":8943:8950   */\n      dup5\n        /* \"#utility.yul\":8939:8962   */\n      sub\n        /* \"#utility.yul\":8935:8967   */\n      slt\n        /* \"#utility.yul\":8932:8984   */\n      iszero\n      tag_352\n      jumpi\n        /* \"#utility.yul\":8980:8981   */\n      0x00\n        /* \"#utility.yul\":8977:8978   */\n      dup1\n        /* \"#utility.yul\":8970:8982   */\n      revert\n        /* \"#utility.yul\":8932:8984   */\n    tag_352:\n        /* \"#utility.yul\":9012:9021   */\n      dup2\n        /* \"#utility.yul\":9006:9022   */\n      mload\n        /* \"#utility.yul\":9065:9070   */\n      dup1\n        /* \"#utility.yul\":9058:9071   */\n      iszero\n        /* \"#utility.yul\":9051:9072   */\n      iszero\n        /* \"#utility.yul\":9044:9049   */\n      dup2\n        /* \"#utility.yul\":9041:9073   */\n      eq\n        /* \"#utility.yul\":9031:9091   */\n      tag_241\n      jumpi\n        /* \"#utility.yul\":9087:9088   */\n      0x00\n        /* \"#utility.yul\":9084:9085   */\n      dup1\n        /* \"#utility.yul\":9077:9089   */\n      revert\n        /* \"#utility.yul\":10455:10862   */\n    tag_286:\n        /* \"#utility.yul\":10657:10659   */\n      0x20\n        /* \"#utility.yul\":10639:10660   */\n      dup1\n      dup3\n      mstore\n        /* \"#utility.yul\":10696:10698   */\n      0x2b\n        /* \"#utility.yul\":10676:10694   */\n      swap1\n      dup3\n      add\n        /* \"#utility.yul\":10669:10699   */\n      mstore\n        /* \"#utility.yul\":10735:10769   */\n      0x496e697469616c697a61626c653a20636f6e7472616374206973206e6f742069\n        /* \"#utility.yul\":10730:10732   */\n      0x40\n        /* \"#utility.yul\":10715:10733   */\n      dup3\n      add\n        /* \"#utility.yul\":10708:10770   */\n      mstore\n      shl(0xa8, 0x6e697469616c697a696e67)\n        /* \"#utility.yul\":10801:10803   */\n      0x60\n        /* \"#utility.yul\":10786:10804   */\n      dup3\n      add\n        /* \"#utility.yul\":10779:10820   */\n      mstore\n        /* \"#utility.yul\":10852:10855   */\n      0x80\n        /* \"#utility.yul\":10837:10856   */\n      add\n      swap1\n        /* \"#utility.yul\":10455:10862   */\n      jump\t// out\n\n    auxdata: 0xa2646970667358221220e3a0932b8c23d0b2378f3feb3b0f6d18a8a196f65797aa4901bbc49c0306058564736f6c63430008110033\n}\n",
				"bytecode": {
					"linkReferences": {},
					"object": "608060405234801561001057600080fd5b506114b6806100206000396000f3fe608060405234801561001057600080fd5b50600436106101005760003560e01c80638da5cb5b11610097578063e1c7392a11610066578063e1c7392a14610220578063e46638e614610228578063efb22d331461023b578063f2fde38b1461024e57600080fd5b80638da5cb5b146101ab578063a0632461146101bc578063a446d49f146101cf578063b2494df31461020b57600080fd5b80636a3edf28116100d35780636a3edf2814610153578063715018a61461017d5780638baf29b4146101855780638d2ea7721461019857600080fd5b80631ed86f19146101055780633ff5aa021461011a57806340db3b501461012d5780635f8dead314610140575b600080fd5b6101186101133660046111b5565b610261565b005b6101186101283660046111b5565b610433565b61011861013b3660046111b5565b61053e565b61011861014e3660046111d0565b610686565b6065546001600160a01b03165b6040516001600160a01b0390911681526020015b60405180910390f35b6101186107cf565b6101186101933660046111fa565b6107e3565b6101186101a63660046111d0565b610957565b6033546001600160a01b0316610160565b6101186101ca3660046111b5565b610a9a565b6101fb6101dd3660046111b5565b6001600160a01b031660009081526067602052604090205460ff1690565b6040519015158152602001610174565b610213610cd2565b6040516101749190611236565b610118610d34565b6101fb6102363660046111fa565b610e41565b610118610249366004611283565b610f1e565b61011861025c3660046111b5565b611004565b61026961107a565b6001600160a01b0381166102985760405162461bcd60e51b815260040161028f90611304565b60405180910390fd5b6001600160a01b03811660009081526067602052604090205460ff16156102f85760405162461bcd60e51b81526020600482015260146024820152731b5bd91d5b1948185b1c9958591e48189bdd5b9960621b604482015260640161028f565b6066546018101561034b5760405162461bcd60e51b815260206004820152601f60248201527f63616e6e6f7420616464206d6f7265207468616e203235206d6f64756c657300604482015260640161028f565b6040516312a4c95160e21b81523060048201526001600160a01b03821690634a93254490602401600060405180830381600087803b15801561038c57600080fd5b505af11580156103a0573d6000803e3d6000fd5b50506066805460018082019092557f46501879b8ca8525e8c2fd519e2fbfcfa2ebea26501294aa02cbfcfb12e943540180546001600160a01b0319166001600160a01b038616908117909155600081815260676020526040808220805460ff191690941790935591519093507fead6a006345da1073a106d5f32372d2d2204f46cb0b4bca8f5ebafcbbed12b8a9250a250565b336104466033546001600160a01b031690565b6001600160a01b0316148061047757506065546001600160a01b03161580156104775750336001600160a01b038216145b6104c35760405162461bcd60e51b815260206004820152601c60248201527f6f6e6c79206f776e6572206f7220746f6b656e2063616e2063616c6c00000000604482015260640161028f565b6001600160a01b0381166104e95760405162461bcd60e51b815260040161028f90611304565b606580546001600160a01b0319166001600160a01b0383169081179091556040519081527f2de35142b19ed5a07796cf30791959c592018f70b1d2d7c460eef8ffe713692b906020015b60405180910390a150565b336105516033546001600160a01b031690565b6001600160a01b0316148061056e5750336001600160a01b038216145b6105ba5760405162461bcd60e51b815260206004820152601c60248201527f6f6e6c79206f776e6572206f7220746f6b656e2063616e2063616c6c00000000604482015260640161028f565b6065546001600160a01b038281169116146106175760405162461bcd60e51b815260206004820152601760248201527f5468697320746f6b656e206973206e6f7420626f756e64000000000000000000604482015260640161028f565b6001600160a01b03811661063d5760405162461bcd60e51b815260040161028f90611304565b606580546001600160a01b03191690556040516001600160a01b03821681527f28a4ca7134a3b3f9aff286e79ad3daadb4a06d1b43d037a3a98bdc074edd9b7a90602001610533565b6065546001600160a01b031633146106b05760405162461bcd60e51b815260040161028f9061133b565b6001600160a01b0382166106d65760405162461bcd60e51b815260040161028f90611304565b600081116107265760405162461bcd60e51b815260206004820181905260248201527f696e76616c696420617267756d656e74202d206e6f2076616c7565206d696e74604482015260640161028f565b60665460005b818110156107c95760668181548110610747576107476113a5565b60009182526020909120015460405163f104a8c960e01b81526001600160a01b038681166004830152602482018690529091169063f104a8c990604401600060405180830381600087803b15801561079e57600080fd5b505af11580156107b2573d6000803e3d6000fd5b5050505080806107c1906113d1565b91505061072c565b50505050565b6107d761107a565b6107e160006110d4565b565b6065546001600160a01b0316331461080d5760405162461bcd60e51b815260040161028f9061133b565b6001600160a01b0383161580159061082d57506001600160a01b03821615155b6108495760405162461bcd60e51b815260040161028f90611304565b600081116108a55760405162461bcd60e51b8152602060048201526024808201527f696e76616c696420617267756d656e74202d206e6f2076616c7565207472616e60448201526339b332b960e11b606482015260840161028f565b60665460005b8181101561095057606681815481106108c6576108c66113a5565b600091825260209091200154604051630b2df87b60e21b81526001600160a01b03878116600483015286811660248301526044820186905290911690632cb7e1ec90606401600060405180830381600087803b15801561092557600080fd5b505af1158015610939573d6000803e3d6000fd5b505050508080610948906113d1565b9150506108ab565b5050505050565b6065546001600160a01b031633146109815760405162461bcd60e51b815260040161028f9061133b565b6001600160a01b0382166109a75760405162461bcd60e51b815260040161028f90611304565b600081116109f75760405162461bcd60e51b815260206004820181905260248201527f696e76616c696420617267756d656e74202d206e6f2076616c7565206275726e604482015260640161028f565b60665460005b818110156107c95760668181548110610a1857610a186113a5565b600091825260209091200154604051631b9248d160e11b81526001600160a01b038681166004830152602482018690529091169063372491a290604401600060405180830381600087803b158015610a6f57600080fd5b505af1158015610a83573d6000803e3d6000fd5b505050508080610a92906113d1565b9150506109fd565b610aa261107a565b6001600160a01b038116610ac85760405162461bcd60e51b815260040161028f90611304565b6001600160a01b03811660009081526067602052604090205460ff16610b235760405162461bcd60e51b815260206004820152601060248201526f1b5bd91d5b19481b9bdd08189bdd5b9960821b604482015260640161028f565b60665460005b81811015610ccd57826001600160a01b031660668281548110610b4e57610b4e6113a5565b6000918252602090912001546001600160a01b031603610cbb57604051630694a5fb60e01b81523060048201526001600160a01b03841690630694a5fb90602401600060405180830381600087803b158015610ba957600080fd5b505af1158015610bbd573d6000803e3d6000fd5b505050506066600183610bd091906113ea565b81548110610be057610be06113a5565b600091825260209091200154606680546001600160a01b039092169183908110610c0c57610c0c6113a5565b9060005260206000200160006101000a8154816001600160a01b0302191690836001600160a01b031602179055506066805480610c4b57610c4b6113fd565b60008281526020808220830160001990810180546001600160a01b03191690559092019092556001600160a01b03851680835260679091526040808320805460ff191690555190917f0a1ee69f55c33d8467c69ca59ce2007a737a88603d75392972520bf67cb513b891a2505050565b80610cc5816113d1565b915050610b29565b505050565b60606066805480602002602001604051908101604052809291908181526020018280548015610d2a57602002820191906000526020600020905b81546001600160a01b03168152600190910190602001808311610d0c575b5050505050905090565b600054610100900460ff1615808015610d545750600054600160ff909116105b80610d6e5750303b158015610d6e575060005460ff166001145b610dd15760405162461bcd60e51b815260206004820152602e60248201527f496e697469616c697a61626c653a20636f6e747261637420697320616c72656160448201526d191e481a5b9a5d1a585b1a5e995960921b606482015260840161028f565b6000805460ff191660011790558015610df4576000805461ff0019166101001790555b610dfc611126565b8015610e3e576000805461ff0019169055604051600181527f7f26b83ff96e1f2b6a682f133852f6798a09c465da95921460cefb384740249890602001610533565b50565b606654600090815b81811015610f105760668181548110610e6457610e646113a5565b600091825260209091200154604051624edf3960e21b81526001600160a01b0388811660048301528781166024830152604482018790523060648301529091169063013b7ce490608401602060405180830381865afa158015610ecb573d6000803e3d6000fd5b505050506040513d601f19601f82011682018060405250810190610eef9190611413565b610efe57600092505050610f17565b80610f08816113d1565b915050610e49565b5060019150505b9392505050565b610f2661107a565b6001600160a01b03811660009081526067602052604090205460ff16610f8e5760405162461bcd60e51b815260206004820152601960248201527f63616c6c206f6e6c79206f6e20626f756e64206d6f64756c6500000000000000604482015260640161028f565b6040518284823760008084836000865af1610fad573d6000803e3d6000fd5b50806001600160a01b03167f20d79de70adcc6e9353d8a9a5646b46dc352710d0a310b1ad1f67faeca7ef891610fe38585611155565b6040516001600160e01b0319909116815260200160405180910390a2505050565b61100c61107a565b6001600160a01b0381166110715760405162461bcd60e51b815260206004820152602660248201527f4f776e61626c653a206e6577206f776e657220697320746865207a65726f206160448201526564647265737360d01b606482015260840161028f565b610e3e816110d4565b6033546001600160a01b031633146107e15760405162461bcd60e51b815260206004820181905260248201527f4f776e61626c653a2063616c6c6572206973206e6f7420746865206f776e6572604482015260640161028f565b603380546001600160a01b038381166001600160a01b0319831681179093556040519116919082907f8be0079c531659141344cd1fd0a4f28419497f9722a3daafe3b4186f6b6457e090600090a35050565b600054610100900460ff1661114d5760405162461bcd60e51b815260040161028f90611435565b6107e1611169565b600060048210611163575081355b92915050565b600054610100900460ff166111905760405162461bcd60e51b815260040161028f90611435565b6107e1336110d4565b80356001600160a01b03811681146111b057600080fd5b919050565b6000602082840312156111c757600080fd5b610f1782611199565b600080604083850312156111e357600080fd5b6111ec83611199565b946020939093013593505050565b60008060006060848603121561120f57600080fd5b61121884611199565b925061122660208501611199565b9150604084013590509250925092565b6020808252825182820181905260009190848201906040850190845b818110156112775783516001600160a01b031683529284019291840191600101611252565b50909695505050505050565b60008060006040848603121561129857600080fd5b833567ffffffffffffffff808211156112b057600080fd5b818601915086601f8301126112c457600080fd5b8135818111156112d357600080fd5b8760208285010111156112e557600080fd5b6020928301955093506112fb9186019050611199565b90509250925092565b6020808252601f908201527f696e76616c696420617267756d656e74202d207a65726f206164647265737300604082015260600190565b60208082526044908201527f6572726f72203a20746869732061646472657373206973206e6f74206120746f60408201527f6b656e20626f756e6420746f2074686520636f6d706c69616e636520636f6e746060820152631c9858dd60e21b608082015260a00190565b634e487b7160e01b600052603260045260246000fd5b634e487b7160e01b600052601160045260246000fd5b6000600182016113e3576113e36113bb565b5060010190565b81810381811115611163576111636113bb565b634e487b7160e01b600052603160045260246000fd5b60006020828403121561142557600080fd5b81518015158114610f1757600080fd5b6020808252602b908201527f496e697469616c697a61626c653a20636f6e7472616374206973206e6f74206960408201526a6e697469616c697a696e6760a81b60608201526080019056fea2646970667358221220e3a0932b8c23d0b2378f3feb3b0f6d18a8a196f65797aa4901bbc49c0306058564736f6c63430008110033",
					"opcodes": "PUSH1 0x80 PUSH1 0x40 MSTORE CALLVALUE DUP1 ISZERO PUSH2 0x10 JUMPI PUSH1 0x0 DUP1 REVERT JUMPDEST POP PUSH2 0x14B6 DUP1 PUSH2 0x20 PUSH1 0x0 CODECOPY PUSH1 0x0 RETURN INVALID PUSH1 0x80 PUSH1 0x40 MSTORE CALLVALUE DUP1 ISZERO PUSH2 0x10 JUMPI PUSH1 0x0 DUP1 REVERT JUMPDEST POP PUSH1 0x4 CALLDATASIZE LT PUSH2 0x100 JUMPI PUSH1 0x0 CALLDATALOAD PUSH1 0xE0 SHR DUP1 PUSH4 0x8DA5CB5B GT PUSH2 0x97 JUMPI DUP1 PUSH4 0xE1C7392A GT PUSH2 0x66 JUMPI DUP1 PUSH4 0xE1C7392A EQ PUSH2 0x220 JUMPI DUP1 PUSH4 0xE46638E6 EQ PUSH2 0x228 JUMPI DUP1 PUSH4 0xEFB22D33 EQ PUSH2 0x23B JUMPI DUP1 PUSH4 0xF2FDE38B EQ PUSH2 0x24E JUMPI PUSH1 0x0 DUP1 REVERT JUMPDEST DUP1 PUSH4 0x8DA5CB5B EQ PUSH2 0x1AB JUMPI DUP1 PUSH4 0xA0632461 EQ PUSH2 0x1BC JUMPI DUP1 PUSH4 0xA446D49F EQ PUSH2 0x1CF JUMPI DUP1 PUSH4 0xB2494DF3 EQ PUSH2 0x20B JUMPI PUSH1 0x0 DUP1 REVERT JUMPDEST DUP1 PUSH4 0x6A3EDF28 GT PUSH2 0xD3 JUMPI DUP1 PUSH4 0x6A3EDF28 EQ PUSH2 0x153 JUMPI DUP1 PUSH4 0x715018A6 EQ PUSH2 0x17D JUMPI DUP1 PUSH4 0x8BAF29B4 EQ PUSH2 0x185 JUMPI DUP1 PUSH4 0x8D2EA772 EQ PUSH2 0x198 JUMPI PUSH1 0x0 DUP1 REVERT JUMPDEST DUP1 PUSH4 0x1ED86F19 EQ PUSH2 0x105 JUMPI DUP1 PUSH4 0x3FF5AA02 EQ PUSH2 0x11A JUMPI DUP1 PUSH4 0x40DB3B50 EQ PUSH2 0x12D JUMPI DUP1 PUSH4 0x5F8DEAD3 EQ PUSH2 0x140 JUMPI JUMPDEST PUSH1 0x0 DUP1 REVERT JUMPDEST PUSH2 0x118 PUSH2 0x113 CALLDATASIZE PUSH1 0x4 PUSH2 0x11B5 JUMP JUMPDEST PUSH2 0x261 JUMP JUMPDEST STOP JUMPDEST PUSH2 0x118 PUSH2 0x128 CALLDATASIZE PUSH1 0x4 PUSH2 0x11B5 JUMP JUMPDEST PUSH2 0x433 JUMP JUMPDEST PUSH2 0x118 PUSH2 0x13B CALLDATASIZE PUSH1 0x4 PUSH2 0x11B5 JUMP JUMPDEST PUSH2 0x53E JUMP JUMPDEST PUSH2 0x118 PUSH2 0x14E CALLDATASIZE PUSH1 0x4 PUSH2 0x11D0 JUMP JUMPDEST PUSH2 0x686 JUMP JUMPDEST PUSH1 0x65 SLOAD PUSH1 0x1 PUSH1 0x1 PUSH1 0xA0 SHL SUB AND JUMPDEST PUSH1 0x40 MLOAD PUSH1 0x1 PUSH1 0x1 PUSH1 0xA0 SHL SUB SWAP1 SWAP2 AND DUP2 MSTORE PUSH1 0x20 ADD JUMPDEST PUSH1 0x40 MLOAD DUP1 SWAP2 SUB SWAP1 RETURN JUMPDEST PUSH2 0x118 PUSH2 0x7CF JUMP JUMPDEST PUSH2 0x118 PUSH2 0x193 CALLDATASIZE PUSH1 0x4 PUSH2 0x11FA JUMP JUMPDEST PUSH2 0x7E3 JUMP JUMPDEST PUSH2 0x118 PUSH2 0x1A6 CALLDATASIZE PUSH1 0x4 PUSH2 0x11D0 JUMP JUMPDEST PUSH2 0x957 JUMP JUMPDEST PUSH1 0x33 SLOAD PUSH1 0x1 PUSH1 0x1 PUSH1 0xA0 SHL SUB AND PUSH2 0x160 JUMP JUMPDEST PUSH2 0x118 PUSH2 0x1CA CALLDATASIZE PUSH1 0x4 PUSH2 0x11B5 JUMP JUMPDEST PUSH2 0xA9A JUMP JUMPDEST PUSH2 0x1FB PUSH2 0x1DD CALLDATASIZE PUSH1 0x4 PUSH2 0x11B5 JUMP JUMPDEST PUSH1 0x1 PUSH1 0x1 PUSH1 0xA0 SHL SUB AND PUSH1 0x0 SWAP1 DUP2 MSTORE PUSH1 0x67 PUSH1 0x20 MSTORE PUSH1 0x40 SWAP1 KECCAK256 SLOAD PUSH1 0xFF AND SWAP1 JUMP JUMPDEST PUSH1 0x40 MLOAD SWAP1 ISZERO ISZERO DUP2 MSTORE PUSH1 0x20 ADD PUSH2 0x174 JUMP JUMPDEST PUSH2 0x213 PUSH2 0xCD2 JUMP JUMPDEST PUSH1 0x40 MLOAD PUSH2 0x174 SWAP2 SWAP1 PUSH2 0x1236 JUMP JUMPDEST PUSH2 0x118 PUSH2 0xD34 JUMP JUMPDEST PUSH2 0x1FB PUSH2 0x236 CALLDATASIZE PUSH1 0x4 PUSH2 0x11FA JUMP JUMPDEST PUSH2 0xE41 JUMP JUMPDEST PUSH2 0x118 PUSH2 0x249 CALLDATASIZE PUSH1 0x4 PUSH2 0x1283 JUMP JUMPDEST PUSH2 0xF1E JUMP JUMPDEST PUSH2 0x118 PUSH2 0x25C CALLDATASIZE PUSH1 0x4 PUSH2 0x11B5 JUMP JUMPDEST PUSH2 0x1004 JUMP JUMPDEST PUSH2 0x269 PUSH2 0x107A JUMP JUMPDEST PUSH1 0x1 PUSH1 0x1 PUSH1 0xA0 SHL SUB DUP2 AND PUSH2 0x298 JUMPI PUSH1 0x40 MLOAD PUSH3 0x461BCD PUSH1 0xE5 SHL DUP2 MSTORE PUSH1 0x4 ADD PUSH2 0x28F SWAP1 PUSH2 0x1304 JUMP JUMPDEST PUSH1 0x40 MLOAD DUP1 SWAP2 SUB SWAP1 REVERT JUMPDEST PUSH1 0x1 PUSH1 0x1 PUSH1 0xA0 SHL SUB DUP2 AND PUSH1 0x0 SWAP1 DUP2 MSTORE PUSH1 0x67 PUSH1 0x20 MSTORE PUSH1 0x40 SWAP1 KECCAK256 SLOAD PUSH1 0xFF AND ISZERO PUSH2 0x2F8 JUMPI PUSH1 0x40 MLOAD PUSH3 0x461BCD PUSH1 0xE5 SHL DUP2 MSTORE PUSH1 0x20 PUSH1 0x4 DUP3 ADD MSTORE PUSH1 0x14 PUSH1 0x24 DUP3 ADD MSTORE PUSH20 0x1B5BD91D5B1948185B1C9958591E48189BDD5B99 PUSH1 0x62 SHL PUSH1 0x44 DUP3 ADD MSTORE PUSH1 0x64 ADD PUSH2 0x28F JUMP JUMPDEST PUSH1 0x66 SLOAD PUSH1 0x18 LT ISZERO PUSH2 0x34B JUMPI PUSH1 0x40 MLOAD PUSH3 0x461BCD PUSH1 0xE5 SHL DUP2 MSTORE PUSH1 0x20 PUSH1 0x4 DUP3 ADD MSTORE PUSH1 0x1F PUSH1 0x24 DUP3 ADD MSTORE PUSH32 0x63616E6E6F7420616464206D6F7265207468616E203235206D6F64756C657300 PUSH1 0x44 DUP3 ADD MSTORE PUSH1 0x64 ADD PUSH2 0x28F JUMP JUMPDEST PUSH1 0x40 MLOAD PUSH4 0x12A4C951 PUSH1 0xE2 SHL DUP2 MSTORE ADDRESS PUSH1 0x4 DUP3 ADD MSTORE PUSH1 0x1 PUSH1 0x1 PUSH1 0xA0 SHL SUB DUP3 AND SWAP1 PUSH4 0x4A932544 SWAP1 PUSH1 0x24 ADD PUSH1 0x0 PUSH1 0x40 MLOAD DUP1 DUP4 SUB DUP2 PUSH1 0x0 DUP8 DUP1 EXTCODESIZE ISZERO DUP1 ISZERO PUSH2 0x38C JUMPI PUSH1 0x0 DUP1 REVERT JUMPDEST POP GAS CALL ISZERO DUP1 ISZERO PUSH2 0x3A0 JUMPI RETURNDATASIZE PUSH1 0x0 DUP1 RETURNDATACOPY RETURNDATASIZE PUSH1 0x0 REVERT JUMPDEST POP POP PUSH1 0x66 DUP1 SLOAD PUSH1 0x1 DUP1 DUP3 ADD SWAP1 SWAP3 SSTORE PUSH32 0x46501879B8CA8525E8C2FD519E2FBFCFA2EBEA26501294AA02CBFCFB12E94354 ADD DUP1 SLOAD PUSH1 0x1 PUSH1 0x1 PUSH1 0xA0 SHL SUB NOT AND PUSH1 0x1 PUSH1 0x1 PUSH1 0xA0 SHL SUB DUP7 AND SWAP1 DUP2 OR SWAP1 SWAP2 SSTORE PUSH1 0x0 DUP2 DUP2 MSTORE PUSH1 0x67 PUSH1 0x20 MSTORE PUSH1 0x40 DUP1 DUP3 KECCAK256 DUP1 SLOAD PUSH1 0xFF NOT AND SWAP1 SWAP5 OR SWAP1 SWAP4 SSTORE SWAP2 MLOAD SWAP1 SWAP4 POP PUSH32 0xEAD6A006345DA1073A106D5F32372D2D2204F46CB0B4BCA8F5EBAFCBBED12B8A SWAP3 POP LOG2 POP JUMP JUMPDEST CALLER PUSH2 0x446 PUSH1 0x33 SLOAD PUSH1 0x1 PUSH1 0x1 PUSH1 0xA0 SHL SUB AND SWAP1 JUMP JUMPDEST PUSH1 0x1 PUSH1 0x1 PUSH1 0xA0 SHL SUB AND EQ DUP1 PUSH2 0x477 JUMPI POP PUSH1 0x65 SLOAD PUSH1 0x1 PUSH1 0x1 PUSH1 0xA0 SHL SUB AND ISZERO DUP1 ISZERO PUSH2 0x477 JUMPI POP CALLER PUSH1 0x1 PUSH1 0x1 PUSH1 0xA0 SHL SUB DUP3 AND EQ JUMPDEST PUSH2 0x4C3 JUMPI PUSH1 0x40 MLOAD PUSH3 0x461BCD PUSH1 0xE5 SHL DUP2 MSTORE PUSH1 0x20 PUSH1 0x4 DUP3 ADD MSTORE PUSH1 0x1C PUSH1 0x24 DUP3 ADD MSTORE PUSH32 0x6F6E6C79206F776E6572206F7220746F6B656E2063616E2063616C6C00000000 PUSH1 0x44 DUP3 ADD MSTORE PUSH1 0x64 ADD PUSH2 0x28F JUMP JUMPDEST PUSH1 0x1 PUSH1 0x1 PUSH1 0xA0 SHL SUB DUP2 AND PUSH2 0x4E9 JUMPI PUSH1 0x40 MLOAD PUSH3 0x461BCD PUSH1 0xE5 SHL DUP2 MSTORE PUSH1 0x4 ADD PUSH2 0x28F SWAP1 PUSH2 0x1304 JUMP JUMPDEST PUSH1 0x65 DUP1 SLOAD PUSH1 0x1 PUSH1 0x1 PUSH1 0xA0 SHL SUB NOT AND PUSH1 0x1 PUSH1 0x1 PUSH1 0xA0 SHL SUB DUP4 AND SWAP1 DUP2 OR SWAP1 SWAP2 SSTORE PUSH1 0x40 MLOAD SWAP1 DUP2 MSTORE PUSH32 0x2DE35142B19ED5A07796CF30791959C592018F70B1D2D7C460EEF8FFE713692B SWAP1 PUSH1 0x20 ADD JUMPDEST PUSH1 0x40 MLOAD DUP1 SWAP2 SUB SWAP1 LOG1 POP JUMP JUMPDEST CALLER PUSH2 0x551 PUSH1 0x33 SLOAD PUSH1 0x1 PUSH1 0x1 PUSH1 0xA0 SHL SUB AND SWAP1 JUMP JUMPDEST PUSH1 0x1 PUSH1 0x1 PUSH1 0xA0 SHL SUB AND EQ DUP1 PUSH2 0x56E JUMPI POP CALLER PUSH1 0x1 PUSH1 0x1 PUSH1 0xA0 SHL SUB DUP3 AND EQ JUMPDEST PUSH2 0x5BA JUMPI PUSH1 0x40 MLOAD PUSH3 0x461BCD PUSH1 0xE5 SHL DUP2 MSTORE PUSH1 0x20 PUSH1 0x4 DUP3 ADD MSTORE PUSH1 0x1C PUSH1 0x24 DUP3 ADD MSTORE PUSH32 0x6F6E6C79206F776E6572206F7220746F6B656E2063616E2063616C6C00000000 PUSH1 0x44 DUP3 ADD MSTORE PUSH1 0x64 ADD PUSH2 0x28F JUMP JUMPDEST PUSH1 0x65 SLOAD PUSH1 0x1 PUSH1 0x1 PUSH1 0xA0 SHL SUB DUP3 DUP2 AND SWAP2 AND EQ PUSH2 0x617 JUMPI PUSH1 0x40 MLOAD PUSH3 0x461BCD PUSH1 0xE5 SHL DUP2 MSTORE PUSH1 0x20 PUSH1 0x4 DUP3 ADD MSTORE PUSH1 0x17 PUSH1 0x24 DUP3 ADD MSTORE PUSH32 0x5468697320746F6B656E206973206E6F7420626F756E64000000000000000000 PUSH1 0x44 DUP3 ADD MSTORE PUSH1 0x64 ADD PUSH2 0x28F JUMP JUMPDEST PUSH1 0x1 PUSH1 0x1 PUSH1 0xA0 SHL SUB DUP2 AND PUSH2 0x63D JUMPI PUSH1 0x40 MLOAD PUSH3 0x461BCD PUSH1 0xE5 SHL DUP2 MSTORE PUSH1 0x4 ADD PUSH2 0x28F SWAP1 PUSH2 0x1304 JUMP JUMPDEST PUSH1 0x65 DUP1 SLOAD PUSH1 0x1 PUSH1 0x1 PUSH1 0xA0 SHL SUB NOT AND SWAP1 SSTORE PUSH1 0x40 MLOAD PUSH1 0x1 PUSH1 0x1 PUSH1 0xA0 SHL SUB DUP3 AND DUP2 MSTORE PUSH32 0x28A4CA7134A3B3F9AFF286E79AD3DAADB4A06D1B43D037A3A98BDC074EDD9B7A SWAP1 PUSH1 0x20 ADD PUSH2 0x533 JUMP JUMPDEST PUSH1 0x65 SLOAD PUSH1 0x1 PUSH1 0x1 PUSH1 0xA0 SHL SUB AND CALLER EQ PUSH2 0x6B0 JUMPI PUSH1 0x40 MLOAD PUSH3 0x461BCD PUSH1 0xE5 SHL DUP2 MSTORE PUSH1 0x4 ADD PUSH2 0x28F SWAP1 PUSH2 0x133B JUMP JUMPDEST PUSH1 0x1 PUSH1 0x1 PUSH1 0xA0 SHL SUB DUP3 AND PUSH2 0x6D6 JUMPI PUSH1 0x40 MLOAD PUSH3 0x461BCD PUSH1 0xE5 SHL DUP2 MSTORE PUSH1 0x4 ADD PUSH2 0x28F SWAP1 PUSH2 0x1304 JUMP JUMPDEST PUSH1 0x0 DUP2 GT PUSH2 0x726 JUMPI PUSH1 0x40 MLOAD PUSH3 0x461BCD PUSH1 0xE5 SHL DUP2 MSTORE PUSH1 0x20 PUSH1 0x4 DUP3 ADD DUP2 SWAP1 MSTORE PUSH1 0x24 DUP3 ADD MSTORE PUSH32 0x696E76616C696420617267756D656E74202D206E6F2076616C7565206D696E74 PUSH1 0x44 DUP3 ADD MSTORE PUSH1 0x64 ADD PUSH2 0x28F JUMP JUMPDEST PUSH1 0x66 SLOAD PUSH1 0x0 JUMPDEST DUP2 DUP2 LT ISZERO PUSH2 0x7C9 JUMPI PUSH1 0x66 DUP2 DUP2 SLOAD DUP2 LT PUSH2 0x747 JUMPI PUSH2 0x747 PUSH2 0x13A5 JUMP JUMPDEST PUSH1 0x0 SWAP2 DUP3 MSTORE PUSH1 0x20 SWAP1 SWAP2 KECCAK256 ADD SLOAD PUSH1 0x40 MLOAD PUSH4 0xF104A8C9 PUSH1 0xE0 SHL DUP2 MSTORE PUSH1 0x1 PUSH1 0x1 PUSH1 0xA0 SHL SUB DUP7 DUP2 AND PUSH1 0x4 DUP4 ADD MSTORE PUSH1 0x24 DUP3 ADD DUP7 SWAP1 MSTORE SWAP1 SWAP2 AND SWAP1 PUSH4 0xF104A8C9 SWAP1 PUSH1 0x44 ADD PUSH1 0x0 PUSH1 0x40 MLOAD DUP1 DUP4 SUB DUP2 PUSH1 0x0 DUP8 DUP1 EXTCODESIZE ISZERO DUP1 ISZERO PUSH2 0x79E JUMPI PUSH1 0x0 DUP1 REVERT JUMPDEST POP GAS CALL ISZERO DUP1 ISZERO PUSH2 0x7B2 JUMPI RETURNDATASIZE PUSH1 0x0 DUP1 RETURNDATACOPY RETURNDATASIZE PUSH1 0x0 REVERT JUMPDEST POP POP POP POP DUP1 DUP1 PUSH2 0x7C1 SWAP1 PUSH2 0x13D1 JUMP JUMPDEST SWAP2 POP POP PUSH2 0x72C JUMP JUMPDEST POP POP POP POP JUMP JUMPDEST PUSH2 0x7D7 PUSH2 0x107A JUMP JUMPDEST PUSH2 0x7E1 PUSH1 0x0 PUSH2 0x10D4 JUMP JUMPDEST JUMP JUMPDEST PUSH1 0x65 SLOAD PUSH1 0x1 PUSH1 0x1 PUSH1 0xA0 SHL SUB AND CALLER EQ PUSH2 0x80D JUMPI PUSH1 0x40 MLOAD PUSH3 0x461BCD PUSH1 0xE5 SHL DUP2 MSTORE PUSH1 0x4 ADD PUSH2 0x28F SWAP1 PUSH2 0x133B JUMP JUMPDEST PUSH1 0x1 PUSH1 0x1 PUSH1 0xA0 SHL SUB DUP4 AND ISZERO DUP1 ISZERO SWAP1 PUSH2 0x82D JUMPI POP PUSH1 0x1 PUSH1 0x1 PUSH1 0xA0 SHL SUB DUP3 AND ISZERO ISZERO JUMPDEST PUSH2 0x849 JUMPI PUSH1 0x40 MLOAD PUSH3 0x461BCD PUSH1 0xE5 SHL DUP2 MSTORE PUSH1 0x4 ADD PUSH2 0x28F SWAP1 PUSH2 0x1304 JUMP JUMPDEST PUSH1 0x0 DUP2 GT PUSH2 0x8A5 JUMPI PUSH1 0x40 MLOAD PUSH3 0x461BCD PUSH1 0xE5 SHL DUP2 MSTORE PUSH1 0x20 PUSH1 0x4 DUP3 ADD MSTORE PUSH1 0x24 DUP1 DUP3 ADD MSTORE PUSH32 0x696E76616C696420617267756D656E74202D206E6F2076616C7565207472616E PUSH1 0x44 DUP3 ADD MSTORE PUSH4 0x39B332B9 PUSH1 0xE1 SHL PUSH1 0x64 DUP3 ADD MSTORE PUSH1 0x84 ADD PUSH2 0x28F JUMP JUMPDEST PUSH1 0x66 SLOAD PUSH1 0x0 JUMPDEST DUP2 DUP2 LT ISZERO PUSH2 0x950 JUMPI PUSH1 0x66 DUP2 DUP2 SLOAD DUP2 LT PUSH2 0x8C6 JUMPI PUSH2 0x8C6 PUSH2 0x13A5 JUMP JUMPDEST PUSH1 0x0 SWAP2 DUP3 MSTORE PUSH1 0x20 SWAP1 SWAP2 KECCAK256 ADD SLOAD PUSH1 0x40 MLOAD PUSH4 0xB2DF87B PUSH1 0xE2 SHL DUP2 MSTORE PUSH1 0x1 PUSH1 0x1 PUSH1 0xA0 SHL SUB DUP8 DUP2 AND PUSH1 0x4 DUP4 ADD MSTORE DUP7 DUP2 AND PUSH1 0x24 DUP4 ADD MSTORE PUSH1 0x44 DUP3 ADD DUP7 SWAP1 MSTORE SWAP1 SWAP2 AND SWAP1 PUSH4 0x2CB7E1EC SWAP1 PUSH1 0x64 ADD PUSH1 0x0 PUSH1 0x40 MLOAD DUP1 DUP4 SUB DUP2 PUSH1 0x0 DUP8 DUP1 EXTCODESIZE ISZERO DUP1 ISZERO PUSH2 0x925 JUMPI PUSH1 0x0 DUP1 REVERT JUMPDEST POP GAS CALL ISZERO DUP1 ISZERO PUSH2 0x939 JUMPI RETURNDATASIZE PUSH1 0x0 DUP1 RETURNDATACOPY RETURNDATASIZE PUSH1 0x0 REVERT JUMPDEST POP POP POP POP DUP1 DUP1 PUSH2 0x948 SWAP1 PUSH2 0x13D1 JUMP JUMPDEST SWAP2 POP POP PUSH2 0x8AB JUMP JUMPDEST POP POP POP POP POP JUMP JUMPDEST PUSH1 0x65 SLOAD PUSH1 0x1 PUSH1 0x1 PUSH1 0xA0 SHL SUB AND CALLER EQ PUSH2 0x981 JUMPI PUSH1 0x40 MLOAD PUSH3 0x461BCD PUSH1 0xE5 SHL DUP2 MSTORE PUSH1 0x4 ADD PUSH2 0x28F SWAP1 PUSH2 0x133B JUMP JUMPDEST PUSH1 0x1 PUSH1 0x1 PUSH1 0xA0 SHL SUB DUP3 AND PUSH2 0x9A7 JUMPI PUSH1 0x40 MLOAD PUSH3 0x461BCD PUSH1 0xE5 SHL DUP2 MSTORE PUSH1 0x4 ADD PUSH2 0x28F SWAP1 PUSH2 0x1304 JUMP JUMPDEST PUSH1 0x0 DUP2 GT PUSH2 0x9F7 JUMPI PUSH1 0x40 MLOAD PUSH3 0x461BCD PUSH1 0xE5 SHL DUP2 MSTORE PUSH1 0x20 PUSH1 0x4 DUP3 ADD DUP2 SWAP1 MSTORE PUSH1 0x24 DUP3 ADD MSTORE PUSH32 0x696E76616C696420617267756D656E74202D206E6F2076616C7565206275726E PUSH1 0x44 DUP3 ADD MSTORE PUSH1 0x64 ADD PUSH2 0x28F JUMP JUMPDEST PUSH1 0x66 SLOAD PUSH1 0x0 JUMPDEST DUP2 DUP2 LT ISZERO PUSH2 0x7C9 JUMPI PUSH1 0x66 DUP2 DUP2 SLOAD DUP2 LT PUSH2 0xA18 JUMPI PUSH2 0xA18 PUSH2 0x13A5 JUMP JUMPDEST PUSH1 0x0 SWAP2 DUP3 MSTORE PUSH1 0x20 SWAP1 SWAP2 KECCAK256 ADD SLOAD PUSH1 0x40 MLOAD PUSH4 0x1B9248D1 PUSH1 0xE1 SHL DUP2 MSTORE PUSH1 0x1 PUSH1 0x1 PUSH1 0xA0 SHL SUB DUP7 DUP2 AND PUSH1 0x4 DUP4 ADD MSTORE PUSH1 0x24 DUP3 ADD DUP7 SWAP1 MSTORE SWAP1 SWAP2 AND SWAP1 PUSH4 0x372491A2 SWAP1 PUSH1 0x44 ADD PUSH1 0x0 PUSH1 0x40 MLOAD DUP1 DUP4 SUB DUP2 PUSH1 0x0 DUP8 DUP1 EXTCODESIZE ISZERO DUP1 ISZERO PUSH2 0xA6F JUMPI PUSH1 0x0 DUP1 REVERT JUMPDEST POP GAS CALL ISZERO DUP1 ISZERO PUSH2 0xA83 JUMPI RETURNDATASIZE PUSH1 0x0 DUP1 RETURNDATACOPY RETURNDATASIZE PUSH1 0x0 REVERT JUMPDEST POP POP POP POP DUP1 DUP1 PUSH2 0xA92 SWAP1 PUSH2 0x13D1 JUMP JUMPDEST SWAP2 POP POP PUSH2 0x9FD JUMP JUMPDEST PUSH2 0xAA2 PUSH2 0x107A JUMP JUMPDEST PUSH1 0x1 PUSH1 0x1 PUSH1 0xA0 SHL SUB DUP2 AND PUSH2 0xAC8 JUMPI PUSH1 0x40 MLOAD PUSH3 0x461BCD PUSH1 0xE5 SHL DUP2 MSTORE PUSH1 0x4 ADD PUSH2 0x28F SWAP1 PUSH2 0x1304 JUMP JUMPDEST PUSH1 0x1 PUSH1 0x1 PUSH1 0xA0 SHL SUB DUP2 AND PUSH1 0x0 SWAP1 DUP2 MSTORE PUSH1 0x67 PUSH1 0x20 MSTORE PUSH1 0x40 SWAP1 KECCAK256 SLOAD PUSH1 0xFF AND PUSH2 0xB23 JUMPI PUSH1 0x40 MLOAD PUSH3 0x461BCD PUSH1 0xE5 SHL DUP2 MSTORE PUSH1 0x20 PUSH1 0x4 DUP3 ADD MSTORE PUSH1 0x10 PUSH1 0x24 DUP3 ADD MSTORE PUSH16 0x1B5BD91D5B19481B9BDD08189BDD5B99 PUSH1 0x82 SHL PUSH1 0x44 DUP3 ADD MSTORE PUSH1 0x64 ADD PUSH2 0x28F JUMP JUMPDEST PUSH1 0x66 SLOAD PUSH1 0x0 JUMPDEST DUP2 DUP2 LT ISZERO PUSH2 0xCCD JUMPI DUP3 PUSH1 0x1 PUSH1 0x1 PUSH1 0xA0 SHL SUB AND PUSH1 0x66 DUP3 DUP2 SLOAD DUP2 LT PUSH2 0xB4E JUMPI PUSH2 0xB4E PUSH2 0x13A5 JUMP JUMPDEST PUSH1 0x0 SWAP2 DUP3 MSTORE PUSH1 0x20 SWAP1 SWAP2 KECCAK256 ADD SLOAD PUSH1 0x1 PUSH1 0x1 PUSH1 0xA0 SHL SUB AND SUB PUSH2 0xCBB JUMPI PUSH1 0x40 MLOAD PUSH4 0x694A5FB PUSH1 0xE0 SHL DUP2 MSTORE ADDRESS PUSH1 0x4 DUP3 ADD MSTORE PUSH1 0x1 PUSH1 0x1 PUSH1 0xA0 SHL SUB DUP5 AND SWAP1 PUSH4 0x694A5FB SWAP1 PUSH1 0x24 ADD PUSH1 0x0 PUSH1 0x40 MLOAD DUP1 DUP4 SUB DUP2 PUSH1 0x0 DUP8 DUP1 EXTCODESIZE ISZERO DUP1 ISZERO PUSH2 0xBA9 JUMPI PUSH1 0x0 DUP1 REVERT JUMPDEST POP GAS CALL ISZERO DUP1 ISZERO PUSH2 0xBBD JUMPI RETURNDATASIZE PUSH1 0x0 DUP1 RETURNDATACOPY RETURNDATASIZE PUSH1 0x0 REVERT JUMPDEST POP POP POP POP PUSH1 0x66 PUSH1 0x1 DUP4 PUSH2 0xBD0 SWAP2 SWAP1 PUSH2 0x13EA JUMP JUMPDEST DUP2 SLOAD DUP2 LT PUSH2 0xBE0 JUMPI PUSH2 0xBE0 PUSH2 0x13A5 JUMP JUMPDEST PUSH1 0x0 SWAP2 DUP3 MSTORE PUSH1 0x20 SWAP1 SWAP2 KECCAK256 ADD SLOAD PUSH1 0x66 DUP1 SLOAD PUSH1 0x1 PUSH1 0x1 PUSH1 0xA0 SHL SUB SWAP1 SWAP3 AND SWAP2 DUP4 SWAP1 DUP2 LT PUSH2 0xC0C JUMPI PUSH2 0xC0C PUSH2 0x13A5 JUMP JUMPDEST SWAP1 PUSH1 0x0 MSTORE PUSH1 0x20 PUSH1 0x0 KECCAK256 ADD PUSH1 0x0 PUSH2 0x100 EXP DUP2 SLOAD DUP2 PUSH1 0x1 PUSH1 0x1 PUSH1 0xA0 SHL SUB MUL NOT AND SWAP1 DUP4 PUSH1 0x1 PUSH1 0x1 PUSH1 0xA0 SHL SUB AND MUL OR SWAP1 SSTORE POP PUSH1 0x66 DUP1 SLOAD DUP1 PUSH2 0xC4B JUMPI PUSH2 0xC4B PUSH2 0x13FD JUMP JUMPDEST PUSH1 0x0 DUP3 DUP2 MSTORE PUSH1 0x20 DUP1 DUP3 KECCAK256 DUP4 ADD PUSH1 0x0 NOT SWAP1 DUP2 ADD DUP1 SLOAD PUSH1 0x1 PUSH1 0x1 PUSH1 0xA0 SHL SUB NOT AND SWAP1 SSTORE SWAP1 SWAP3 ADD SWAP1 SWAP3 SSTORE PUSH1 0x1 PUSH1 0x1 PUSH1 0xA0 SHL SUB DUP6 AND DUP1 DUP4 MSTORE PUSH1 0x67 SWAP1 SWAP2 MSTORE PUSH1 0x40 DUP1 DUP4 KECCAK256 DUP1 SLOAD PUSH1 0xFF NOT AND SWAP1 SSTORE MLOAD SWAP1 SWAP2 PUSH32 0xA1EE69F55C33D8467C69CA59CE2007A737A88603D75392972520BF67CB513B8 SWAP2 LOG2 POP POP POP JUMP JUMPDEST DUP1 PUSH2 0xCC5 DUP2 PUSH2 0x13D1 JUMP JUMPDEST SWAP2 POP POP PUSH2 0xB29 JUMP JUMPDEST POP POP POP JUMP JUMPDEST PUSH1 0x60 PUSH1 0x66 DUP1 SLOAD DUP1 PUSH1 0x20 MUL PUSH1 0x20 ADD PUSH1 0x40 MLOAD SWAP1 DUP2 ADD PUSH1 0x40 MSTORE DUP1 SWAP3 SWAP2 SWAP1 DUP2 DUP2 MSTORE PUSH1 0x20 ADD DUP3 DUP1 SLOAD DUP1 ISZERO PUSH2 0xD2A JUMPI PUSH1 0x20 MUL DUP3 ADD SWAP2 SWAP1 PUSH1 0x0 MSTORE PUSH1 0x20 PUSH1 0x0 KECCAK256 SWAP1 JUMPDEST DUP2 SLOAD PUSH1 0x1 PUSH1 0x1 PUSH1 0xA0 SHL SUB AND DUP2 MSTORE PUSH1 0x1 SWAP1 SWAP2 ADD SWAP1 PUSH1 0x20 ADD DUP1 DUP4 GT PUSH2 0xD0C JUMPI JUMPDEST POP POP POP POP POP SWAP1 POP SWAP1 JUMP JUMPDEST PUSH1 0x0 SLOAD PUSH2 0x100 SWAP1 DIV PUSH1 0xFF AND ISZERO DUP1 DUP1 ISZERO PUSH2 0xD54 JUMPI POP PUSH1 0x0 SLOAD PUSH1 0x1 PUSH1 0xFF SWAP1 SWAP2 AND LT JUMPDEST DUP1 PUSH2 0xD6E JUMPI POP ADDRESS EXTCODESIZE ISZERO DUP1 ISZERO PUSH2 0xD6E JUMPI POP PUSH1 0x0 SLOAD PUSH1 0xFF AND PUSH1 0x1 EQ JUMPDEST PUSH2 0xDD1 JUMPI PUSH1 0x40 MLOAD PUSH3 0x461BCD PUSH1 0xE5 SHL DUP2 MSTORE PUSH1 0x20 PUSH1 0x4 DUP3 ADD MSTORE PUSH1 0x2E PUSH1 0x24 DUP3 ADD MSTORE PUSH32 0x496E697469616C697A61626C653A20636F6E747261637420697320616C726561 PUSH1 0x44 DUP3 ADD MSTORE PUSH14 0x191E481A5B9A5D1A585B1A5E9959 PUSH1 0x92 SHL PUSH1 0x64 DUP3 ADD MSTORE PUSH1 0x84 ADD PUSH2 0x28F JUMP JUMPDEST PUSH1 0x0 DUP1 SLOAD PUSH1 0xFF NOT AND PUSH1 0x1 OR SWAP1 SSTORE DUP1 ISZERO PUSH2 0xDF4 JUMPI PUSH1 0x0 DUP1 SLOAD PUSH2 0xFF00 NOT AND PUSH2 0x100 OR SWAP1 SSTORE JUMPDEST PUSH2 0xDFC PUSH2 0x1126 JUMP JUMPDEST DUP1 ISZERO PUSH2 0xE3E JUMPI PUSH1 0x0 DUP1 SLOAD PUSH2 0xFF00 NOT AND SWAP1 SSTORE PUSH1 0x40 MLOAD PUSH1 0x1 DUP2 MSTORE PUSH32 0x7F26B83FF96E1F2B6A682F133852F6798A09C465DA95921460CEFB3847402498 SWAP1 PUSH1 0x20 ADD PUSH2 0x533 JUMP JUMPDEST POP JUMP JUMPDEST PUSH1 0x66 SLOAD PUSH1 0x0 SWAP1 DUP2 JUMPDEST DUP2 DUP2 LT ISZERO PUSH2 0xF10 JUMPI PUSH1 0x66 DUP2 DUP2 SLOAD DUP2 LT PUSH2 0xE64 JUMPI PUSH2 0xE64 PUSH2 0x13A5 JUMP JUMPDEST PUSH1 0x0 SWAP2 DUP3 MSTORE PUSH1 0x20 SWAP1 SWAP2 KECCAK256 ADD SLOAD PUSH1 0x40 MLOAD PUSH3 0x4EDF39 PUSH1 0xE2 SHL DUP2 MSTORE PUSH1 0x1 PUSH1 0x1 PUSH1 0xA0 SHL SUB DUP9 DUP2 AND PUSH1 0x4 DUP4 ADD MSTORE DUP8 DUP2 AND PUSH1 0x24 DUP4 ADD MSTORE PUSH1 0x44 DUP3 ADD DUP8 SWAP1 MSTORE ADDRESS PUSH1 0x64 DUP4 ADD MSTORE SWAP1 SWAP2 AND SWAP1 PUSH4 0x13B7CE4 SWAP1 PUSH1 0x84 ADD PUSH1 0x20 PUSH1 0x40 MLOAD DUP1 DUP4 SUB DUP2 DUP7 GAS STATICCALL ISZERO DUP1 ISZERO PUSH2 0xECB JUMPI RETURNDATASIZE PUSH1 0x0 DUP1 RETURNDATACOPY RETURNDATASIZE PUSH1 0x0 REVERT JUMPDEST POP POP POP POP PUSH1 0x40 MLOAD RETURNDATASIZE PUSH1 0x1F NOT PUSH1 0x1F DUP3 ADD AND DUP3 ADD DUP1 PUSH1 0x40 MSTORE POP DUP2 ADD SWAP1 PUSH2 0xEEF SWAP2 SWAP1 PUSH2 0x1413 JUMP JUMPDEST PUSH2 0xEFE JUMPI PUSH1 0x0 SWAP3 POP POP POP PUSH2 0xF17 JUMP JUMPDEST DUP1 PUSH2 0xF08 DUP2 PUSH2 0x13D1 JUMP JUMPDEST SWAP2 POP POP PUSH2 0xE49 JUMP JUMPDEST POP PUSH1 0x1 SWAP2 POP POP JUMPDEST SWAP4 SWAP3 POP POP POP JUMP JUMPDEST PUSH2 0xF26 PUSH2 0x107A JUMP JUMPDEST PUSH1 0x1 PUSH1 0x1 PUSH1 0xA0 SHL SUB DUP2 AND PUSH1 0x0 SWAP1 DUP2 MSTORE PUSH1 0x67 PUSH1 0x20 MSTORE PUSH1 0x40 SWAP1 KECCAK256 SLOAD PUSH1 0xFF AND PUSH2 0xF8E JUMPI PUSH1 0x40 MLOAD PUSH3 0x461BCD PUSH1 0xE5 SHL DUP2 MSTORE PUSH1 0x20 PUSH1 0x4 DUP3 ADD MSTORE PUSH1 0x19 PUSH1 0x24 DUP3 ADD MSTORE PUSH32 0x63616C6C206F6E6C79206F6E20626F756E64206D6F64756C6500000000000000 PUSH1 0x44 DUP3 ADD MSTORE PUSH1 0x64 ADD PUSH2 0x28F JUMP JUMPDEST PUSH1 0x40 MLOAD DUP3 DUP5 DUP3 CALLDATACOPY PUSH1 0x0 DUP1 DUP5 DUP4 PUSH1 0x0 DUP7 GAS CALL PUSH2 0xFAD JUMPI RETURNDATASIZE PUSH1 0x0 DUP1 RETURNDATACOPY RETURNDATASIZE PUSH1 0x0 REVERT JUMPDEST POP DUP1 PUSH1 0x1 PUSH1 0x1 PUSH1 0xA0 SHL SUB AND PUSH32 0x20D79DE70ADCC6E9353D8A9A5646B46DC352710D0A310B1AD1F67FAECA7EF891 PUSH2 0xFE3 DUP6 DUP6 PUSH2 0x1155 JUMP JUMPDEST PUSH1 0x40 MLOAD PUSH1 0x1 PUSH1 0x1 PUSH1 0xE0 SHL SUB NOT SWAP1 SWAP2 AND DUP2 MSTORE PUSH1 0x20 ADD PUSH1 0x40 MLOAD DUP1 SWAP2 SUB SWAP1 LOG2 POP POP POP JUMP JUMPDEST PUSH2 0x100C PUSH2 0x107A JUMP JUMPDEST PUSH1 0x1 PUSH1 0x1 PUSH1 0xA0 SHL SUB DUP2 AND PUSH2 0x1071 JUMPI PUSH1 0x40 MLOAD PUSH3 0x461BCD PUSH1 0xE5 SHL DUP2 MSTORE PUSH1 0x20 PUSH1 0x4 DUP3 ADD MSTORE PUSH1 0x26 PUSH1 0x24 DUP3 ADD MSTORE PUSH32 0x4F776E61626C653A206E6577206F776E657220697320746865207A65726F2061 PUSH1 0x44 DUP3 ADD MSTORE PUSH6 0x646472657373 PUSH1 0xD0 SHL PUSH1 0x64 DUP3 ADD MSTORE PUSH1 0x84 ADD PUSH2 0x28F JUMP JUMPDEST PUSH2 0xE3E DUP2 PUSH2 0x10D4 JUMP JUMPDEST PUSH1 0x33 SLOAD PUSH1 0x1 PUSH1 0x1 PUSH1 0xA0 SHL SUB AND CALLER EQ PUSH2 0x7E1 JUMPI PUSH1 0x40 MLOAD PUSH3 0x461BCD PUSH1 0xE5 SHL DUP2 MSTORE PUSH1 0x20 PUSH1 0x4 DUP3 ADD DUP2 SWAP1 MSTORE PUSH1 0x24 DUP3 ADD MSTORE PUSH32 0x4F776E61626C653A2063616C6C6572206973206E6F7420746865206F776E6572 PUSH1 0x44 DUP3 ADD MSTORE PUSH1 0x64 ADD PUSH2 0x28F JUMP JUMPDEST PUSH1 0x33 DUP1 SLOAD PUSH1 0x1 PUSH1 0x1 PUSH1 0xA0 SHL SUB DUP4 DUP2 AND PUSH1 0x1 PUSH1 0x1 PUSH1 0xA0 SHL SUB NOT DUP4 AND DUP2 OR SWAP1 SWAP4 SSTORE PUSH1 0x40 MLOAD SWAP2 AND SWAP2 SWAP1 DUP3 SWAP1 PUSH32 0x8BE0079C531659141344CD1FD0A4F28419497F9722A3DAAFE3B4186F6B6457E0 SWAP1 PUSH1 0x0 SWAP1 LOG3 POP POP JUMP JUMPDEST PUSH1 0x0 SLOAD PUSH2 0x100 SWAP1 DIV PUSH1 0xFF AND PUSH2 0x114D JUMPI PUSH1 0x40 MLOAD PUSH3 0x461BCD PUSH1 0xE5 SHL DUP2 MSTORE PUSH1 0x4 ADD PUSH2 0x28F SWAP1 PUSH2 0x1435 JUMP JUMPDEST PUSH2 0x7E1 PUSH2 0x1169 JUMP JUMPDEST PUSH1 0x0 PUSH1 0x4 DUP3 LT PUSH2 0x1163 JUMPI POP DUP2 CALLDATALOAD JUMPDEST SWAP3 SWAP2 POP POP JUMP JUMPDEST PUSH1 0x0 SLOAD PUSH2 0x100 SWAP1 DIV PUSH1 0xFF AND PUSH2 0x1190 JUMPI PUSH1 0x40 MLOAD PUSH3 0x461BCD PUSH1 0xE5 SHL DUP2 MSTORE PUSH1 0x4 ADD PUSH2 0x28F SWAP1 PUSH2 0x1435 JUMP JUMPDEST PUSH2 0x7E1 CALLER PUSH2 0x10D4 JUMP JUMPDEST DUP1 CALLDATALOAD PUSH1 0x1 PUSH1 0x1 PUSH1 0xA0 SHL SUB DUP2 AND DUP2 EQ PUSH2 0x11B0 JUMPI PUSH1 0x0 DUP1 REVERT JUMPDEST SWAP2 SWAP1 POP JUMP JUMPDEST PUSH1 0x0 PUSH1 0x20 DUP3 DUP5 SUB SLT ISZERO PUSH2 0x11C7 JUMPI PUSH1 0x0 DUP1 REVERT JUMPDEST PUSH2 0xF17 DUP3 PUSH2 0x1199 JUMP JUMPDEST PUSH1 0x0 DUP1 PUSH1 0x40 DUP4 DUP6 SUB SLT ISZERO PUSH2 0x11E3 JUMPI PUSH1 0x0 DUP1 REVERT JUMPDEST PUSH2 0x11EC DUP4 PUSH2 0x1199 JUMP JUMPDEST SWAP5 PUSH1 0x20 SWAP4 SWAP1 SWAP4 ADD CALLDATALOAD SWAP4 POP POP POP JUMP JUMPDEST PUSH1 0x0 DUP1 PUSH1 0x0 PUSH1 0x60 DUP5 DUP7 SUB SLT ISZERO PUSH2 0x120F JUMPI PUSH1 0x0 DUP1 REVERT JUMPDEST PUSH2 0x1218 DUP5 PUSH2 0x1199 JUMP JUMPDEST SWAP3 POP PUSH2 0x1226 PUSH1 0x20 DUP6 ADD PUSH2 0x1199 JUMP JUMPDEST SWAP2 POP PUSH1 0x40 DUP5 ADD CALLDATALOAD SWAP1 POP SWAP3 POP SWAP3 POP SWAP3 JUMP JUMPDEST PUSH1 0x20 DUP1 DUP3 MSTORE DUP3 MLOAD DUP3 DUP3 ADD DUP2 SWAP1 MSTORE PUSH1 0x0 SWAP2 SWAP1 DUP5 DUP3 ADD SWAP1 PUSH1 0x40 DUP6 ADD SWAP1 DUP5 JUMPDEST DUP2 DUP2 LT ISZERO PUSH2 0x1277 JUMPI DUP4 MLOAD PUSH1 0x1 PUSH1 0x1 PUSH1 0xA0 SHL SUB AND DUP4 MSTORE SWAP3 DUP5 ADD SWAP3 SWAP2 DUP5 ADD SWAP2 PUSH1 0x1 ADD PUSH2 0x1252 JUMP JUMPDEST POP SWAP1 SWAP7 SWAP6 POP POP POP POP POP POP JUMP JUMPDEST PUSH1 0x0 DUP1 PUSH1 0x0 PUSH1 0x40 DUP5 DUP7 SUB SLT ISZERO PUSH2 0x1298 JUMPI PUSH1 0x0 DUP1 REVERT JUMPDEST DUP4 CALLDATALOAD PUSH8 0xFFFFFFFFFFFFFFFF DUP1 DUP3 GT ISZERO PUSH2 0x12B0 JUMPI PUSH1 0x0 DUP1 REVERT JUMPDEST DUP2 DUP7 ADD SWAP2 POP DUP7 PUSH1 0x1F DUP4 ADD SLT PUSH2 0x12C4 JUMPI PUSH1 0x0 DUP1 REVERT JUMPDEST DUP2 CALLDATALOAD DUP2 DUP2 GT ISZERO PUSH2 0x12D3 JUMPI PUSH1 0x0 DUP1 REVERT JUMPDEST DUP8 PUSH1 0x20 DUP3 DUP6 ADD ADD GT ISZERO PUSH2 0x12E5 JUMPI PUSH1 0x0 DUP1 REVERT JUMPDEST PUSH1 0x20 SWAP3 DUP4 ADD SWAP6 POP SWAP4 POP PUSH2 0x12FB SWAP2 DUP7 ADD SWAP1 POP PUSH2 0x1199 JUMP JUMPDEST SWAP1 POP SWAP3 POP SWAP3 POP SWAP3 JUMP JUMPDEST PUSH1 0x20 DUP1 DUP3 MSTORE PUSH1 0x1F SWAP1 DUP3 ADD MSTORE PUSH32 0x696E76616C696420617267756D656E74202D207A65726F206164647265737300 PUSH1 0x40 DUP3 ADD MSTORE PUSH1 0x60 ADD SWAP1 JUMP JUMPDEST PUSH1 0x20 DUP1 DUP3 MSTORE PUSH1 0x44 SWAP1 DUP3 ADD MSTORE PUSH32 0x6572726F72203A20746869732061646472657373206973206E6F74206120746F PUSH1 0x40 DUP3 ADD MSTORE PUSH32 0x6B656E20626F756E6420746F2074686520636F6D706C69616E636520636F6E74 PUSH1 0x60 DUP3 ADD MSTORE PUSH4 0x1C9858DD PUSH1 0xE2 SHL PUSH1 0x80 DUP3 ADD MSTORE PUSH1 0xA0 ADD SWAP1 JUMP JUMPDEST PUSH4 0x4E487B71 PUSH1 0xE0 SHL PUSH1 0x0 MSTORE PUSH1 0x32 PUSH1 0x4 MSTORE PUSH1 0x24 PUSH1 0x0 REVERT JUMPDEST PUSH4 0x4E487B71 PUSH1 0xE0 SHL PUSH1 0x0 MSTORE PUSH1 0x11 PUSH1 0x4 MSTORE PUSH1 0x24 PUSH1 0x0 REVERT JUMPDEST PUSH1 0x0 PUSH1 0x1 DUP3 ADD PUSH2 0x13E3 JUMPI PUSH2 0x13E3 PUSH2 0x13BB JUMP JUMPDEST POP PUSH1 0x1 ADD SWAP1 JUMP JUMPDEST DUP2 DUP2 SUB DUP2 DUP2 GT ISZERO PUSH2 0x1163 JUMPI PUSH2 0x1163 PUSH2 0x13BB JUMP JUMPDEST PUSH4 0x4E487B71 PUSH1 0xE0 SHL PUSH1 0x0 MSTORE PUSH1 0x31 PUSH1 0x4 MSTORE PUSH1 0x24 PUSH1 0x0 REVERT JUMPDEST PUSH1 0x0 PUSH1 0x20 DUP3 DUP5 SUB SLT ISZERO PUSH2 0x1425 JUMPI PUSH1 0x0 DUP1 REVERT JUMPDEST DUP2 MLOAD DUP1 ISZERO ISZERO DUP2 EQ PUSH2 0xF17 JUMPI PUSH1 0x0 DUP1 REVERT JUMPDEST PUSH1 0x20 DUP1 DUP3 MSTORE PUSH1 0x2B SWAP1 DUP3 ADD MSTORE PUSH32 0x496E697469616C697A61626C653A20636F6E7472616374206973206E6F742069 PUSH1 0x40 DUP3 ADD MSTORE PUSH11 0x6E697469616C697A696E67 PUSH1 0xA8 SHL PUSH1 0x60 DUP3 ADD MSTORE PUSH1 0x80 ADD SWAP1 JUMP INVALID LOG2 PUSH5 0x6970667358 0x22 SLT KECCAK256 0xE3 LOG0 SWAP4 0x2B DUP13 0x23 0xD0 0xB2 CALLDATACOPY DUP16 EXTCODEHASH 0xEB EXTCODESIZE 0xF PUSH14 0x18A8A196F65797AA4901BBC49C03 MOD SDIV DUP6 PUSH5 0x736F6C6343 STOP ADDMOD GT STOP CALLER "
				},
				"gasEstimates": {
					"creation": {
						"codeDepositCost": "1060400",
						"executionCost": "1100",
						"totalCost": "1061500"
					},
					"external": {
						"addModule(address)": "infinite",
						"bindToken(address)": "30069",
						"callModuleFunction(bytes,address)": "infinite",
						"canTransfer(address,address,uint256)": "infinite",
						"created(address,uint256)": "infinite",
						"destroyed(address,uint256)": "infinite",
						"getModules()": "infinite",
						"getTokenBound()": "2332",
						"init()": "infinite",
						"isModuleBound(address)": "2616",
						"owner()": "2343",
						"removeModule(address)": "infinite",
						"renounceOwnership()": "infinite",
						"transferOwnership(address)": "28424",
						"transferred(address,address,uint256)": "infinite",
						"unbindToken(address)": "30092"
					},
					"internal": {
						"_selector(bytes calldata)": "53"
					}
				},
				"methodIdentifiers": {
					"addModule(address)": "1ed86f19",
					"bindToken(address)": "3ff5aa02",
					"callModuleFunction(bytes,address)": "efb22d33",
					"canTransfer(address,address,uint256)": "e46638e6",
					"created(address,uint256)": "5f8dead3",
					"destroyed(address,uint256)": "8d2ea772",
					"getModules()": "b2494df3",
					"getTokenBound()": "6a3edf28",
					"init()": "e1c7392a",
					"isModuleBound(address)": "a446d49f",
					"owner()": "8da5cb5b",
					"removeModule(address)": "a0632461",
					"renounceOwnership()": "715018a6",
					"transferOwnership(address)": "f2fde38b",
					"transferred(address,address,uint256)": "8baf29b4",
					"unbindToken(address)": "40db3b50"
				}
			},
			"storageLayout": {
				"storage": [
					{
						"astId": 462,
						"contract": "erc3643/erc3643/Compliance/modular/ModularCompliance.sol:ModularCompliance",
						"label": "_initialized",
						"offset": 0,
						"slot": "0",
						"type": "t_uint8"
					},
					{
						"astId": 465,
						"contract": "erc3643/erc3643/Compliance/modular/ModularCompliance.sol:ModularCompliance",
						"label": "_initializing",
						"offset": 1,
						"slot": "0",
						"type": "t_bool"
					},
					{
						"astId": 995,
						"contract": "erc3643/erc3643/Compliance/modular/ModularCompliance.sol:ModularCompliance",
						"label": "__gap",
						"offset": 0,
						"slot": "1",
						"type": "t_array(t_uint256)50_storage"
					},
					{
						"astId": 334,
						"contract": "erc3643/erc3643/Compliance/modular/ModularCompliance.sol:ModularCompliance",
						"label": "_owner",
						"offset": 0,
						"slot": "51",
						"type": "t_address"
					},
					{
						"astId": 454,
						"contract": "erc3643/erc3643/Compliance/modular/ModularCompliance.sol:ModularCompliance",
						"label": "__gap",
						"offset": 0,
						"slot": "52",
						"type": "t_array(t_uint256)49_storage"
					},
					{
						"astId": 1183,
						"contract": "erc3643/erc3643/Compliance/modular/ModularCompliance.sol:ModularCompliance",
						"label": "_tokenBound",
						"offset": 0,
						"slot": "101",
						"type": "t_address"
					},
					{
						"astId": 1187,
						"contract": "erc3643/erc3643/Compliance/modular/ModularCompliance.sol:ModularCompliance",
						"label": "_modules",
						"offset": 0,
						"slot": "102",
						"type": "t_array(t_address)dyn_storage"
					},
					{
						"astId": 1192,
						"contract": "erc3643/erc3643/Compliance/modular/ModularCompliance.sol:ModularCompliance",
						"label": "_moduleBound",
						"offset": 0,
						"slot": "103",
						"type": "t_mapping(t_address,t_bool)"
					},
					{
						"astId": 1196,
						"contract": "erc3643/erc3643/Compliance/modular/ModularCompliance.sol:ModularCompliance",
						"label": "__gap",
						"offset": 0,
						"slot": "104",
						"type": "t_array(t_uint256)49_storage"
					}
				],
				"types": {
					"t_address": {
						"encoding": "inplace",
						"label": "address",
						"numberOfBytes": "20"
					},
					"t_array(t_address)dyn_storage": {
						"base": "t_address",
						"encoding": "dynamic_array",
						"label": "address[]",
						"numberOfBytes": "32"
					},
					"t_array(t_uint256)49_storage": {
						"base": "t_uint256",
						"encoding": "inplace",
						"label": "uint256[49]",
						"numberOfBytes": "1568"
					},
					"t_array(t_uint256)50_storage": {
						"base": "t_uint256",
						"encoding": "inplace",
						"label": "uint256[50]",
						"numberOfBytes": "1600"
					},
					"t_bool": {
						"encoding": "inplace",
						"label": "bool",
						"numberOfBytes": "1"
					},
					"t_mapping(t_address,t_bool)": {
						"encoding": "mapping",
						"key": "t_address",
						"label": "mapping(address => bool)",
						"numberOfBytes": "32",
						"value": "t_bool"
					},
					"t_uint256": {
						"encoding": "inplace",
						"label": "uint256",
						"numberOfBytes": "32"
					},
					"t_uint8": {
						"encoding": "inplace",
						"label": "uint8",
						"numberOfBytes": "1"
					}
				}
			},
			"userdoc": {
				"kind": "user",
				"methods": {},
				"version": 1
			}
		}
	}
}