{
	"erc3643/erc3643/registry/implementation/IdentityRegistryStorage.sol": {
		"IdentityRegistryStorage": {
			"abi": [
				{
					"anonymous": false,
					"inputs": [
						{
							"indexed": true,
							"internalType": "address",
							"name": "investorAddress",
							"type": "address"
						},
						{
							"indexed": true,
							"internalType": "uint16",
							"name": "country",
							"type": "uint16"
						}
					],
					"name": "CountryModified",
					"type": "event"
				},
				{
					"anonymous": false,
					"inputs": [
						{
							"indexed": true,
							"internalType": "contract IIdentity",
							"name": "oldIdentity",
							"type": "address"
						},
						{
							"indexed": true,
							"internalType": "contract IIdentity",
							"name": "newIdentity",
							"type": "address"
						}
					],
					"name": "IdentityModified",
					"type": "event"
				},
				{
					"anonymous": false,
					"inputs": [
						{
							"indexed": true,
							"internalType": "address",
							"name": "identityRegistry",
							"type": "address"
						}
					],
					"name": "IdentityRegistryBound",
					"type": "event"
				},
				{
					"anonymous": false,
					"inputs": [
						{
							"indexed": true,
							"internalType": "address",
							"name": "identityRegistry",
							"type": "address"
						}
					],
					"name": "IdentityRegistryUnbound",
					"type": "event"
				},
				{
					"anonymous": false,
					"inputs": [
						{
							"indexed": true,
							"internalType": "address",
							"name": "investorAddress",
							"type": "address"
						},
						{
							"indexed": true,
							"internalType": "contract IIdentity",
							"name": "identity",
							"type": "address"
						}
					],
					"name": "IdentityStored",
					"type": "event"
				},
				{
					"anonymous": false,
					"inputs": [
						{
							"indexed": true,
							"internalType": "address",
							"name": "investorAddress",
							"type": "address"
						},
						{
							"indexed": true,
							"internalType": "contract IIdentity",
							"name": "identity",
							"type": "address"
						}
					],
					"name": "IdentityUnstored",
					"type": "event"
				},
				{
					"anonymous": false,
					"inputs": [
						{
							"indexed": false,
							"internalType": "uint8",
							"name": "version",
							"type": "uint8"
						}
					],
					"name": "Initialized",
					"type": "event"
				},
				{
					"anonymous": false,
					"inputs": [
						{
							"indexed": true,
							"internalType": "address",
							"name": "previousOwner",
							"type": "address"
						},
						{
							"indexed": true,
							"internalType": "address",
							"name": "newOwner",
							"type": "address"
						}
					],
					"name": "OwnershipTransferred",
					"type": "event"
				},
				{
					"anonymous": false,
					"inputs": [
						{
							"indexed": true,
							"internalType": "bytes32",
							"name": "role",
							"type": "bytes32"
						},
						{
							"indexed": true,
							"internalType": "bytes32",
							"name": "previousAdminRole",
							"type": "bytes32"
						},
						{
							"indexed": true,
							"internalType": "bytes32",
							"name": "newAdminRole",
							"type": "bytes32"
						}
					],
					"name": "RoleAdminChanged",
					"type": "event"
				},
				{
					"anonymous": false,
					"inputs": [
						{
							"indexed": true,
							"internalType": "bytes32",
							"name": "role",
							"type": "bytes32"
						},
						{
							"indexed": true,
							"internalType": "address",
							"name": "account",
							"type": "address"
						},
						{
							"indexed": true,
							"internalType": "address",
							"name": "sender",
							"type": "address"
						}
					],
					"name": "RoleGranted",
					"type": "event"
				},
				{
					"anonymous": false,
					"inputs": [
						{
							"indexed": true,
							"internalType": "bytes32",
							"name": "role",
							"type": "bytes32"
						},
						{
							"indexed": true,
							"internalType": "address",
							"name": "account",
							"type": "address"
						},
						{
							"indexed": true,
							"internalType": "address",
							"name": "sender",
							"type": "address"
						}
					],
					"name": "RoleRevoked",
					"type": "event"
				},
				{
					"inputs": [],
					"name": "AGENT_ROLE",
					"outputs": [
						{
							"internalType": "bytes32",
							"name": "",
							"type": "bytes32"
						}
					],
					"stateMutability": "view",
					"type": "function"
				},
				{
					"inputs": [],
					"name": "DEFAULT_ADMIN_ROLE",
					"outputs": [
						{
							"internalType": "bytes32",
							"name": "",
							"type": "bytes32"
						}
					],
					"stateMutability": "view",
					"type": "function"
				},
				{
					"inputs": [],
					"name": "OWNER_ROLE",
					"outputs": [
						{
							"internalType": "bytes32",
							"name": "",
							"type": "bytes32"
						}
					],
					"stateMutability": "view",
					"type": "function"
				},
				{
					"inputs": [
						{
							"internalType": "address",
							"name": "_userAddress",
							"type": "address"
						},
						{
							"internalType": "contract IIdentity",
							"name": "_identity",
							"type": "address"
						},
						{
							"internalType": "uint16",
							"name": "_country",
							"type": "uint16"
						}
					],
					"name": "addIdentityToStorage",
					"outputs": [],
					"stateMutability": "nonpayable",
					"type": "function"
				},
				{
					"inputs": [
						{
							"internalType": "address",
							"name": "_identityRegistry",
							"type": "address"
						}
					],
					"name": "bindIdentityRegistry",
					"outputs": [],
					"stateMutability": "nonpayable",
					"type": "function"
				},
				{
					"inputs": [
						{
							"internalType": "bytes32",
							"name": "role",
							"type": "bytes32"
						}
					],
					"name": "getRoleAdmin",
					"outputs": [
						{
							"internalType": "bytes32",
							"name": "",
							"type": "bytes32"
						}
					],
					"stateMutability": "view",
					"type": "function"
				},
				{
					"inputs": [
						{
							"internalType": "bytes32",
							"name": "role",
							"type": "bytes32"
						},
						{
							"internalType": "address",
							"name": "account",
							"type": "address"
						}
					],
					"name": "grantRole",
					"outputs": [],
					"stateMutability": "nonpayable",
					"type": "function"
				},
				{
					"inputs": [
						{
							"internalType": "bytes32",
							"name": "role",
							"type": "bytes32"
						},
						{
							"internalType": "address",
							"name": "account",
							"type": "address"
						}
					],
					"name": "hasRole",
					"outputs": [
						{
							"internalType": "bool",
							"name": "",
							"type": "bool"
						}
					],
					"stateMutability": "view",
					"type": "function"
				},
				{
					"inputs": [],
					"name": "init",
					"outputs": [],
					"stateMutability": "nonpayable",
					"type": "function"
				},
				{
					"inputs": [],
					"name": "linkedIdentityRegistries",
					"outputs": [
						{
							"internalType": "address[]",
							"name": "",
							"type": "address[]"
						}
					],
					"stateMutability": "view",
					"type": "function"
				},
				{
					"inputs": [
						{
							"internalType": "address",
							"name": "_userAddress",
							"type": "address"
						},
						{
							"internalType": "contract IIdentity",
							"name": "_identity",
							"type": "address"
						}
					],
					"name": "modifyStoredIdentity",
					"outputs": [],
					"stateMutability": "nonpayable",
					"type": "function"
				},
				{
					"inputs": [
						{
							"internalType": "address",
							"name": "_userAddress",
							"type": "address"
						},
						{
							"internalType": "uint16",
							"name": "_country",
							"type": "uint16"
						}
					],
					"name": "modifyStoredInvestorCountry",
					"outputs": [],
					"stateMutability": "nonpayable",
					"type": "function"
				},
				{
					"inputs": [],
					"name": "owner",
					"outputs": [
						{
							"internalType": "address",
							"name": "",
							"type": "address"
						}
					],
					"stateMutability": "view",
					"type": "function"
				},
				{
					"inputs": [
						{
							"internalType": "address",
							"name": "_userAddress",
							"type": "address"
						}
					],
					"name": "removeIdentityFromStorage",
					"outputs": [],
					"stateMutability": "nonpayable",
					"type": "function"
				},
				{
					"inputs": [],
					"name": "renounceOwnership",
					"outputs": [],
					"stateMutability": "nonpayable",
					"type": "function"
				},
				{
					"inputs": [
						{
							"internalType": "bytes32",
							"name": "role",
							"type": "bytes32"
						},
						{
							"internalType": "address",
							"name": "account",
							"type": "address"
						}
					],
					"name": "renounceRole",
					"outputs": [],
					"stateMutability": "nonpayable",
					"type": "function"
				},
				{
					"inputs": [
						{
							"internalType": "bytes32",
							"name": "role",
							"type": "bytes32"
						},
						{
							"internalType": "address",
							"name": "account",
							"type": "address"
						}
					],
					"name": "revokeRole",
					"outputs": [],
					"stateMutability": "nonpayable",
					"type": "function"
				},
				{
					"inputs": [
						{
							"internalType": "address",
							"name": "_userAddress",
							"type": "address"
						}
					],
					"name": "storedIdentity",
					"outputs": [
						{
							"internalType": "contract IIdentity",
							"name": "",
							"type": "address"
						}
					],
					"stateMutability": "view",
					"type": "function"
				},
				{
					"inputs": [
						{
							"internalType": "address",
							"name": "_userAddress",
							"type": "address"
						}
					],
					"name": "storedInvestorCountry",
					"outputs": [
						{
							"internalType": "uint16",
							"name": "",
							"type": "uint16"
						}
					],
					"stateMutability": "view",
					"type": "function"
				},
				{
					"inputs": [
						{
							"internalType": "bytes4",
							"name": "interfaceId",
							"type": "bytes4"
						}
					],
					"name": "supportsInterface",
					"outputs": [
						{
							"internalType": "bool",
							"name": "",
							"type": "bool"
						}
					],
					"stateMutability": "view",
					"type": "function"
				},
				{
					"inputs": [
						{
							"internalType": "address",
							"name": "newOwner",
							"type": "address"
						}
					],
					"name": "transferOwnership",
					"outputs": [],
					"stateMutability": "nonpayable",
					"type": "function"
				},
				{
					"inputs": [
						{
							"internalType": "address",
							"name": "_identityRegistry",
							"type": "address"
						}
					],
					"name": "unbindIdentityRegistry",
					"outputs": [],
					"stateMutability": "nonpayable",
					"type": "function"
				}
			],
			"devdoc": {
				"kind": "dev",
				"methods": {
					"addIdentityToStorage(address,address,uint16)": {
						"details": "See {IIdentityRegistryStorage-addIdentityToStorage}."
					},
					"bindIdentityRegistry(address)": {
						"details": "See {IIdentityRegistryStorage-bindIdentityRegistry}."
					},
					"getRoleAdmin(bytes32)": {
						"details": "Returns the admin role that controls `role`. See {grantRole} and {revokeRole}. To change a role's admin, use {_setRoleAdmin}."
					},
					"grantRole(bytes32,address)": {
						"details": "Grants `role` to `account`. If `account` had not been already granted `role`, emits a {RoleGranted} event. Requirements: - the caller must have ``role``'s admin role. May emit a {RoleGranted} event."
					},
					"hasRole(bytes32,address)": {
						"details": "Returns `true` if `account` has been granted `role`."
					},
					"linkedIdentityRegistries()": {
						"details": "See {IIdentityRegistryStorage-linkedIdentityRegistries}."
					},
					"modifyStoredIdentity(address,address)": {
						"details": "See {IIdentityRegistryStorage-modifyStoredIdentity}."
					},
					"modifyStoredInvestorCountry(address,uint16)": {
						"details": "See {IIdentityRegistryStorage-modifyStoredInvestorCountry}."
					},
					"owner()": {
						"details": "Returns the address of the current owner."
					},
					"removeIdentityFromStorage(address)": {
						"details": "See {IIdentityRegistryStorage-removeIdentityFromStorage}."
					},
					"renounceOwnership()": {
						"details": "Leaves the contract without owner. It will not be possible to call `onlyOwner` functions. Can only be called by the current owner. NOTE: Renouncing ownership will leave the contract without an owner, thereby disabling any functionality that is only available to the owner."
					},
					"renounceRole(bytes32,address)": {
						"details": "Revokes `role` from the calling account. Roles are often managed via {grantRole} and {revokeRole}: this function's purpose is to provide a mechanism for accounts to lose their privileges if they are compromised (such as when a trusted device is misplaced). If the calling account had been revoked `role`, emits a {RoleRevoked} event. Requirements: - the caller must be `account`. May emit a {RoleRevoked} event."
					},
					"revokeRole(bytes32,address)": {
						"details": "Revokes `role` from `account`. If `account` had been granted `role`, emits a {RoleRevoked} event. Requirements: - the caller must have ``role``'s admin role. May emit a {RoleRevoked} event."
					},
					"storedIdentity(address)": {
						"details": "See {IIdentityRegistryStorage-storedIdentity}."
					},
					"storedInvestorCountry(address)": {
						"details": "See {IIdentityRegistryStorage-storedInvestorCountry}."
					},
					"supportsInterface(bytes4)": {
						"details": "See {IERC165-supportsInterface}."
					},
					"transferOwnership(address)": {
						"details": "Transfers ownership of the contract to a new account (`newOwner`). Can only be called by the current owner."
					},
					"unbindIdentityRegistry(address)": {
						"details": "See {IIdentityRegistryStorage-unbindIdentityRegistry}."
					}
				},
				"version": 1
			},
			"evm": {
				"assembly": "    /* \"erc3643/erc3643/registry/implementation/IdentityRegistryStorage.sol\":375:5879  contract IdentityRegistryStorage is... */\n  mstore(0x40, 0x80)\n  callvalue\n  dup1\n  iszero\n  tag_1\n  jumpi\n  0x00\n  dup1\n  revert\ntag_1:\n  pop\n  dataSize(sub_0)\n  dup1\n  dataOffset(sub_0)\n  0x00\n  codecopy\n  0x00\n  return\nstop\n\nsub_0: assembly {\n        /* \"erc3643/erc3643/registry/implementation/IdentityRegistryStorage.sol\":375:5879  contract IdentityRegistryStorage is... */\n      mstore(0x40, 0x80)\n      callvalue\n      dup1\n      iszero\n      tag_1\n      jumpi\n      0x00\n      dup1\n      revert\n    tag_1:\n      pop\n      jumpi(tag_2, lt(calldatasize, 0x04))\n      shr(0xe0, calldataload(0x00))\n      dup1\n      0x97a012f7\n      gt\n      tag_25\n      jumpi\n      dup1\n      0xcf191bcd\n      gt\n      tag_26\n      jumpi\n      dup1\n      0xcf191bcd\n      eq\n      tag_19\n      jumpi\n      dup1\n      0xd547741f\n      eq\n      tag_20\n      jumpi\n      dup1\n      0xe1c7392a\n      eq\n      tag_21\n      jumpi\n      dup1\n      0xe58378bb\n      eq\n      tag_22\n      jumpi\n      dup1\n      0xe805cf86\n      eq\n      tag_23\n      jumpi\n      dup1\n      0xf2fde38b\n      eq\n      tag_24\n      jumpi\n      0x00\n      dup1\n      revert\n    tag_26:\n      dup1\n      0x97a012f7\n      eq\n      tag_14\n      jumpi\n      dup1\n      0x9f3418d5\n      eq\n      tag_15\n      jumpi\n      dup1\n      0xa217fddf\n      eq\n      tag_16\n      jumpi\n      dup1\n      0xa53410dd\n      eq\n      tag_17\n      jumpi\n      dup1\n      0xbf9eb959\n      eq\n      tag_18\n      jumpi\n      0x00\n      dup1\n      revert\n    tag_25:\n      dup1\n      0x690a49f9\n      gt\n      tag_27\n      jumpi\n      dup1\n      0x690a49f9\n      eq\n      tag_8\n      jumpi\n      dup1\n      0x715018a6\n      eq\n      tag_9\n      jumpi\n      dup1\n      0x727e13bc\n      eq\n      tag_10\n      jumpi\n      dup1\n      0x7988d3a5\n      eq\n      tag_11\n      jumpi\n      dup1\n      0x8da5cb5b\n      eq\n      tag_12\n      jumpi\n      dup1\n      0x91d14854\n      eq\n      tag_13\n      jumpi\n      0x00\n      dup1\n      revert\n    tag_27:\n      dup1\n      0x01ffc9a7\n      eq\n      tag_3\n      jumpi\n      dup1\n      0x22459e18\n      eq\n      tag_4\n      jumpi\n      dup1\n      0x248a9ca3\n      eq\n      tag_5\n      jumpi\n      dup1\n      0x2f2ff15d\n      eq\n      tag_6\n      jumpi\n      dup1\n      0x36568abe\n      eq\n      tag_7\n      jumpi\n    tag_2:\n      0x00\n      dup1\n      revert\n        /* \"@openzeppelin/contracts-upgradeable/access/AccessControlUpgradeable.sol\":3029:3242  function supportsInterface(bytes4 interfaceId) public view virtual override returns (bool) {... */\n    tag_3:\n      tag_28\n      tag_29\n      calldatasize\n      0x04\n      tag_30\n      jump\t// in\n    tag_29:\n      tag_31\n      jump\t// in\n    tag_28:\n      mload(0x40)\n        /* \"#utility.yul\":470:484   */\n      swap1\n      iszero\n        /* \"#utility.yul\":463:485   */\n      iszero\n        /* \"#utility.yul\":445:486   */\n      dup2\n      mstore\n        /* \"#utility.yul\":433:435   */\n      0x20\n        /* \"#utility.yul\":418:436   */\n      add\n        /* \"@openzeppelin/contracts-upgradeable/access/AccessControlUpgradeable.sol\":3029:3242  function supportsInterface(bytes4 interfaceId) public view virtual override returns (bool) {... */\n    tag_32:\n      mload(0x40)\n      dup1\n      swap2\n      sub\n      swap1\n      return\n        /* \"erc3643/erc3643/registry/implementation/IdentityRegistryStorage.sol\":516:627  bytes32 public constant AGENT_ROLE =... */\n    tag_4:\n      tag_34\n      0x00\n      dup1\n      mload\n      0x20\n      data_83599f2fd2d7ecec31a0c854e1dfa0cd718f43d0f25b15e620b3800dba1a8107\n      dup4\n      codecopy\n      dup2\n      mload\n      swap2\n      mstore\n      dup2\n      jump\n    tag_34:\n      mload(0x40)\n        /* \"#utility.yul\":643:668   */\n      swap1\n      dup2\n      mstore\n        /* \"#utility.yul\":631:633   */\n      0x20\n        /* \"#utility.yul\":616:634   */\n      add\n        /* \"erc3643/erc3643/registry/implementation/IdentityRegistryStorage.sol\":516:627  bytes32 public constant AGENT_ROLE =... */\n      tag_32\n        /* \"#utility.yul\":497:674   */\n      jump\n        /* \"@openzeppelin/contracts-upgradeable/access/AccessControlUpgradeable.sol\":4834:4963  function getRoleAdmin(bytes32 role) public view virtual override returns (bytes32) {... */\n    tag_5:\n      tag_34\n      tag_39\n      calldatasize\n      0x04\n      tag_40\n      jump\t// in\n    tag_39:\n        /* \"@openzeppelin/contracts-upgradeable/access/AccessControlUpgradeable.sol\":4908:4915  bytes32 */\n      0x00\n        /* \"@openzeppelin/contracts-upgradeable/access/AccessControlUpgradeable.sol\":4934:4946  _roles[role] */\n      swap1\n      dup2\n      mstore\n        /* \"@openzeppelin/contracts-upgradeable/access/AccessControlUpgradeable.sol\":4934:4940  _roles */\n      0x65\n        /* \"@openzeppelin/contracts-upgradeable/access/AccessControlUpgradeable.sol\":4934:4946  _roles[role] */\n      0x20\n      mstore\n      0x40\n      swap1\n      keccak256\n        /* \"@openzeppelin/contracts-upgradeable/access/AccessControlUpgradeable.sol\":4934:4956  _roles[role].adminRole */\n      0x01\n      add\n      sload\n      swap1\n        /* \"@openzeppelin/contracts-upgradeable/access/AccessControlUpgradeable.sol\":4834:4963  function getRoleAdmin(bytes32 role) public view virtual override returns (bytes32) {... */\n      jump\n        /* \"@openzeppelin/contracts-upgradeable/access/AccessControlUpgradeable.sol\":5259:5404  function grantRole(bytes32 role, address account) public virtual override onlyRole(getRoleAdmin(role)) {... */\n    tag_6:\n      tag_43\n      tag_44\n      calldatasize\n      0x04\n      tag_45\n      jump\t// in\n    tag_44:\n      tag_46\n      jump\t// in\n    tag_43:\n      stop\n        /* \"@openzeppelin/contracts-upgradeable/access/AccessControlUpgradeable.sol\":6368:6582  function renounceRole(bytes32 role, address account) public virtual override {... */\n    tag_7:\n      tag_43\n      tag_48\n      calldatasize\n      0x04\n      tag_45\n      jump\t// in\n    tag_48:\n      tag_49\n      jump\t// in\n        /* \"erc3643/erc3643/registry/implementation/IdentityRegistryStorage.sol\":3711:4197  function bindIdentityRegistry(address _identityRegistry) external override {... */\n    tag_8:\n      tag_43\n      tag_51\n      calldatasize\n      0x04\n      tag_52\n      jump\t// in\n    tag_51:\n      tag_53\n      jump\t// in\n        /* \"@openzeppelin/contracts-upgradeable/access/OwnableUpgradeable.sol\":2064:2165  function renounceOwnership() public virtual onlyOwner {... */\n    tag_9:\n      tag_43\n      tag_55\n      jump\t// in\n        /* \"erc3643/erc3643/registry/implementation/IdentityRegistryStorage.sol\":5683:5877  function storedInvestorCountry(address _userAddress)... */\n    tag_10:\n      tag_56\n      tag_57\n      calldatasize\n      0x04\n      tag_52\n      jump\t// in\n    tag_57:\n      sub(shl(0xa0, 0x01), 0x01)\n        /* \"erc3643/erc3643/registry/implementation/IdentityRegistryStorage.sol\":5829:5854  _identities[_userAddress] */\n      and\n        /* \"erc3643/erc3643/registry/implementation/IdentityRegistryStorage.sol\":5800:5806  uint16 */\n      0x00\n        /* \"erc3643/erc3643/registry/implementation/IdentityRegistryStorage.sol\":5829:5854  _identities[_userAddress] */\n      swap1\n      dup2\n      mstore\n        /* \"erc3643/erc3643/registry/implementation/IdentityRegistryStorage.sol\":5829:5840  _identities */\n      0xc9\n        /* \"erc3643/erc3643/registry/implementation/IdentityRegistryStorage.sol\":5829:5854  _identities[_userAddress] */\n      0x20\n      mstore\n      0x40\n      swap1\n      keccak256\n        /* \"erc3643/erc3643/registry/implementation/IdentityRegistryStorage.sol\":5829:5870  _identities[_userAddress].investorCountry */\n      sload\n      shl(0xa0, 0x01)\n      swap1\n      div\n      0xffff\n      and\n      swap1\n        /* \"erc3643/erc3643/registry/implementation/IdentityRegistryStorage.sol\":5683:5877  function storedInvestorCountry(address _userAddress)... */\n      jump\n    tag_56:\n      mload(0x40)\n        /* \"#utility.yul\":1746:1752   */\n      0xffff\n        /* \"#utility.yul\":1734:1753   */\n      swap1\n      swap2\n      and\n        /* \"#utility.yul\":1716:1754   */\n      dup2\n      mstore\n        /* \"#utility.yul\":1704:1706   */\n      0x20\n        /* \"#utility.yul\":1689:1707   */\n      add\n        /* \"erc3643/erc3643/registry/implementation/IdentityRegistryStorage.sol\":5683:5877  function storedInvestorCountry(address _userAddress)... */\n      tag_32\n        /* \"#utility.yul\":1572:1760   */\n      jump\n        /* \"erc3643/erc3643/registry/implementation/IdentityRegistryStorage.sol\":5403:5594  function storedIdentity(address _userAddress)... */\n    tag_11:\n      tag_61\n      tag_62\n      calldatasize\n      0x04\n      tag_52\n      jump\t// in\n    tag_62:\n      sub(shl(0xa0, 0x01), 0x01)\n        /* \"erc3643/erc3643/registry/implementation/IdentityRegistryStorage.sol\":5545:5570  _identities[_userAddress] */\n      swap1\n      dup2\n      and\n        /* \"erc3643/erc3643/registry/implementation/IdentityRegistryStorage.sol\":5513:5522  IIdentity */\n      0x00\n        /* \"erc3643/erc3643/registry/implementation/IdentityRegistryStorage.sol\":5545:5570  _identities[_userAddress] */\n      swap1\n      dup2\n      mstore\n        /* \"erc3643/erc3643/registry/implementation/IdentityRegistryStorage.sol\":5545:5556  _identities */\n      0xc9\n        /* \"erc3643/erc3643/registry/implementation/IdentityRegistryStorage.sol\":5545:5570  _identities[_userAddress] */\n      0x20\n      mstore\n      0x40\n      swap1\n      keccak256\n        /* \"erc3643/erc3643/registry/implementation/IdentityRegistryStorage.sol\":5545:5587  _identities[_userAddress].identityContract */\n      sload\n      and\n      swap1\n        /* \"erc3643/erc3643/registry/implementation/IdentityRegistryStorage.sol\":5403:5594  function storedIdentity(address _userAddress)... */\n      jump\n    tag_61:\n      mload(0x40)\n      sub(shl(0xa0, 0x01), 0x01)\n        /* \"#utility.yul\":1946:1978   */\n      swap1\n      swap2\n      and\n        /* \"#utility.yul\":1928:1979   */\n      dup2\n      mstore\n        /* \"#utility.yul\":1916:1918   */\n      0x20\n        /* \"#utility.yul\":1901:1919   */\n      add\n        /* \"erc3643/erc3643/registry/implementation/IdentityRegistryStorage.sol\":5403:5594  function storedIdentity(address _userAddress)... */\n      tag_32\n        /* \"#utility.yul\":1765:1985   */\n      jump\n        /* \"@openzeppelin/contracts-upgradeable/access/OwnableUpgradeable.sol\":1441:1526  function owner() public view virtual returns (address) {... */\n    tag_12:\n        /* \"@openzeppelin/contracts-upgradeable/access/OwnableUpgradeable.sol\":1513:1519  _owner */\n      and(sub(shl(0xa0, 0x01), 0x01), sload(0x97))\n        /* \"@openzeppelin/contracts-upgradeable/access/OwnableUpgradeable.sol\":1441:1526  function owner() public view virtual returns (address) {... */\n      jump(tag_61)\n        /* \"@openzeppelin/contracts-upgradeable/access/AccessControlUpgradeable.sol\":3329:3474  function hasRole(bytes32 role, address account) public view virtual override returns (bool) {... */\n    tag_13:\n      tag_28\n      tag_71\n      calldatasize\n      0x04\n      tag_45\n      jump\t// in\n    tag_71:\n      tag_72\n      jump\t// in\n        /* \"erc3643/erc3643/registry/implementation/IdentityRegistryStorage.sol\":4287:5064  function unbindIdentityRegistry(address _identityRegistry)... */\n    tag_14:\n      tag_43\n      tag_75\n      calldatasize\n      0x04\n      tag_52\n      jump\t// in\n    tag_75:\n      tag_76\n      jump\t// in\n        /* \"erc3643/erc3643/registry/implementation/IdentityRegistryStorage.sol\":2509:2999  function modifyStoredInvestorCountry(address _userAddress, uint16 _country)... */\n    tag_15:\n      tag_43\n      tag_78\n      calldatasize\n      0x04\n      tag_79\n      jump\t// in\n    tag_78:\n      tag_80\n      jump\t// in\n        /* \"@openzeppelin/contracts-upgradeable/access/AccessControlUpgradeable.sol\":2450:2499  bytes32 public constant DEFAULT_ADMIN_ROLE = 0x00 */\n    tag_16:\n      tag_34\n        /* \"@openzeppelin/contracts-upgradeable/access/AccessControlUpgradeable.sol\":2495:2499  0x00 */\n      0x00\n        /* \"@openzeppelin/contracts-upgradeable/access/AccessControlUpgradeable.sol\":2450:2499  bytes32 public constant DEFAULT_ADMIN_ROLE = 0x00 */\n      dup2\n      jump\n        /* \"erc3643/erc3643/registry/implementation/IdentityRegistryStorage.sol\":1050:1690  function addIdentityToStorage(... */\n    tag_17:\n      tag_43\n      tag_85\n      calldatasize\n      0x04\n      tag_86\n      jump\t// in\n    tag_85:\n      tag_87\n      jump\t// in\n        /* \"erc3643/erc3643/registry/implementation/IdentityRegistryStorage.sol\":5156:5321  function linkedIdentityRegistries()... */\n    tag_18:\n      tag_88\n      tag_89\n      jump\t// in\n    tag_88:\n      mload(0x40)\n      tag_32\n      swap2\n      swap1\n      tag_91\n      jump\t// in\n        /* \"erc3643/erc3643/registry/implementation/IdentityRegistryStorage.sol\":3092:3623  function removeIdentityFromStorage(address _userAddress)... */\n    tag_19:\n      tag_43\n      tag_93\n      calldatasize\n      0x04\n      tag_52\n      jump\t// in\n    tag_93:\n      tag_94\n      jump\t// in\n        /* \"@openzeppelin/contracts-upgradeable/access/AccessControlUpgradeable.sol\":5684:5831  function revokeRole(bytes32 role, address account) public virtual override onlyRole(getRoleAdmin(role)) {... */\n    tag_20:\n      tag_43\n      tag_96\n      calldatasize\n      0x04\n      tag_45\n      jump\t// in\n    tag_96:\n      tag_97\n      jump\t// in\n        /* \"erc3643/erc3643/registry/implementation/IdentityRegistryStorage.sol\":752:962  function init() external initializer {... */\n    tag_21:\n      tag_43\n      tag_99\n      jump\t// in\n        /* \"erc3643/erc3643/registry/implementation/IdentityRegistryStorage.sol\":634:745  bytes32 public constant OWNER_ROLE =... */\n    tag_22:\n      tag_34\n        /* \"erc3643/erc3643/registry/implementation/IdentityRegistryStorage.sol\":679:745  0xb19546dff01e856fb3f010c267a7b1c60363cf8a4664e21cc89c26224620214e */\n      0xb19546dff01e856fb3f010c267a7b1c60363cf8a4664e21cc89c26224620214e\n        /* \"erc3643/erc3643/registry/implementation/IdentityRegistryStorage.sol\":634:745  bytes32 public constant OWNER_ROLE =... */\n      dup2\n      jump\n        /* \"erc3643/erc3643/registry/implementation/IdentityRegistryStorage.sol\":1778:2414  function modifyStoredIdentity(address _userAddress, IIdentity _identity)... */\n    tag_23:\n      tag_43\n      tag_104\n      calldatasize\n      0x04\n      tag_105\n      jump\t// in\n    tag_104:\n      tag_106\n      jump\t// in\n        /* \"@openzeppelin/contracts-upgradeable/access/OwnableUpgradeable.sol\":2314:2512  function transferOwnership(address newOwner) public virtual onlyOwner {... */\n    tag_24:\n      tag_43\n      tag_108\n      calldatasize\n      0x04\n      tag_52\n      jump\t// in\n    tag_108:\n      tag_109\n      jump\t// in\n        /* \"@openzeppelin/contracts-upgradeable/access/AccessControlUpgradeable.sol\":3029:3242  function supportsInterface(bytes4 interfaceId) public view virtual override returns (bool) {... */\n    tag_31:\n        /* \"@openzeppelin/contracts-upgradeable/access/AccessControlUpgradeable.sol\":3114:3118  bool */\n      0x00\n      not(sub(shl(0xe0, 0x01), 0x01))\n        /* \"@openzeppelin/contracts-upgradeable/access/AccessControlUpgradeable.sol\":3137:3195  interfaceId == type(IAccessControlUpgradeable).interfaceId */\n      dup3\n      and\n      shl(0xe0, 0x7965db0b)\n      eq\n      dup1\n        /* \"@openzeppelin/contracts-upgradeable/access/AccessControlUpgradeable.sol\":3137:3235  interfaceId == type(IAccessControlUpgradeable).interfaceId || super.supportsInterface(interfaceId) */\n      tag_112\n      jumpi\n      pop\n      shl(0xe0, 0x01ffc9a7)\n      not(sub(shl(0xe0, 0x01), 0x01))\n        /* \"@openzeppelin/contracts-upgradeable/utils/introspection/ERC165Upgradeable.sol\":1168:1219  interfaceId == type(IERC165Upgradeable).interfaceId */\n      dup4\n      and\n      eq\n        /* \"@openzeppelin/contracts-upgradeable/access/AccessControlUpgradeable.sol\":3199:3235  super.supportsInterface(interfaceId) */\n    tag_112:\n        /* \"@openzeppelin/contracts-upgradeable/access/AccessControlUpgradeable.sol\":3130:3235  return interfaceId == type(IAccessControlUpgradeable).interfaceId || super.supportsInterface(interfaceId) */\n      swap3\n        /* \"@openzeppelin/contracts-upgradeable/access/AccessControlUpgradeable.sol\":3029:3242  function supportsInterface(bytes4 interfaceId) public view virtual override returns (bool) {... */\n      swap2\n      pop\n      pop\n      jump\t// out\n        /* \"@openzeppelin/contracts-upgradeable/access/AccessControlUpgradeable.sol\":5259:5404  function grantRole(bytes32 role, address account) public virtual override onlyRole(getRoleAdmin(role)) {... */\n    tag_46:\n        /* \"@openzeppelin/contracts-upgradeable/access/AccessControlUpgradeable.sol\":4908:4915  bytes32 */\n      0x00\n        /* \"@openzeppelin/contracts-upgradeable/access/AccessControlUpgradeable.sol\":4934:4946  _roles[role] */\n      dup3\n      dup2\n      mstore\n        /* \"@openzeppelin/contracts-upgradeable/access/AccessControlUpgradeable.sol\":4934:4940  _roles */\n      0x65\n        /* \"@openzeppelin/contracts-upgradeable/access/AccessControlUpgradeable.sol\":4934:4946  _roles[role] */\n      0x20\n      mstore\n      0x40\n      swap1\n      keccak256\n        /* \"@openzeppelin/contracts-upgradeable/access/AccessControlUpgradeable.sol\":4934:4956  _roles[role].adminRole */\n      0x01\n      add\n      sload\n        /* \"@openzeppelin/contracts-upgradeable/access/AccessControlUpgradeable.sol\":2928:2944  _checkRole(role) */\n      tag_117\n        /* \"@openzeppelin/contracts-upgradeable/access/AccessControlUpgradeable.sol\":2939:2943  role */\n      dup2\n        /* \"@openzeppelin/contracts-upgradeable/access/AccessControlUpgradeable.sol\":2928:2938  _checkRole */\n      tag_118\n        /* \"@openzeppelin/contracts-upgradeable/access/AccessControlUpgradeable.sol\":2928:2944  _checkRole(role) */\n      jump\t// in\n    tag_117:\n        /* \"@openzeppelin/contracts-upgradeable/access/AccessControlUpgradeable.sol\":5372:5397  _grantRole(role, account) */\n      tag_120\n        /* \"@openzeppelin/contracts-upgradeable/access/AccessControlUpgradeable.sol\":5383:5387  role */\n      dup4\n        /* \"@openzeppelin/contracts-upgradeable/access/AccessControlUpgradeable.sol\":5389:5396  account */\n      dup4\n        /* \"@openzeppelin/contracts-upgradeable/access/AccessControlUpgradeable.sol\":5372:5382  _grantRole */\n      tag_121\n        /* \"@openzeppelin/contracts-upgradeable/access/AccessControlUpgradeable.sol\":5372:5397  _grantRole(role, account) */\n      jump\t// in\n    tag_120:\n        /* \"@openzeppelin/contracts-upgradeable/access/AccessControlUpgradeable.sol\":5259:5404  function grantRole(bytes32 role, address account) public virtual override onlyRole(getRoleAdmin(role)) {... */\n      pop\n      pop\n      pop\n      jump\t// out\n        /* \"@openzeppelin/contracts-upgradeable/access/AccessControlUpgradeable.sol\":6368:6582  function renounceRole(bytes32 role, address account) public virtual override {... */\n    tag_49:\n      sub(shl(0xa0, 0x01), 0x01)\n        /* \"@openzeppelin/contracts-upgradeable/access/AccessControlUpgradeable.sol\":6463:6486  account == _msgSender() */\n      dup2\n      and\n        /* \"@openzeppelin/contracts-upgradeable/utils/ContextUpgradeable.sol\":929:939  msg.sender */\n      caller\n        /* \"@openzeppelin/contracts-upgradeable/access/AccessControlUpgradeable.sol\":6463:6486  account == _msgSender() */\n      eq\n        /* \"@openzeppelin/contracts-upgradeable/access/AccessControlUpgradeable.sol\":6455:6538  require(account == _msgSender(), \"AccessControl: can only renounce roles for self\") */\n      tag_125\n      jumpi\n      mload(0x40)\n      shl(0xe5, 0x461bcd)\n      dup2\n      mstore\n        /* \"#utility.yul\":4443:4445   */\n      0x20\n        /* \"@openzeppelin/contracts-upgradeable/access/AccessControlUpgradeable.sol\":6455:6538  require(account == _msgSender(), \"AccessControl: can only renounce roles for self\") */\n      0x04\n      dup3\n      add\n        /* \"#utility.yul\":4425:4446   */\n      mstore\n        /* \"#utility.yul\":4482:4484   */\n      0x2f\n        /* \"#utility.yul\":4462:4480   */\n      0x24\n      dup3\n      add\n        /* \"#utility.yul\":4455:4485   */\n      mstore\n        /* \"#utility.yul\":4521:4555   */\n      0x416363657373436f6e74726f6c3a2063616e206f6e6c792072656e6f756e6365\n        /* \"#utility.yul\":4501:4519   */\n      0x44\n      dup3\n      add\n        /* \"#utility.yul\":4494:4556   */\n      mstore\n      shl(0x89, 0x103937b632b9903337b91039b2b633)\n        /* \"#utility.yul\":4572:4590   */\n      0x64\n      dup3\n      add\n        /* \"#utility.yul\":4565:4610   */\n      mstore\n        /* \"#utility.yul\":4627:4646   */\n      0x84\n      add\n        /* \"@openzeppelin/contracts-upgradeable/access/AccessControlUpgradeable.sol\":6455:6538  require(account == _msgSender(), \"AccessControl: can only renounce roles for self\") */\n    tag_126:\n      mload(0x40)\n      dup1\n      swap2\n      sub\n      swap1\n      revert\n    tag_125:\n        /* \"@openzeppelin/contracts-upgradeable/access/AccessControlUpgradeable.sol\":6549:6575  _revokeRole(role, account) */\n      tag_128\n        /* \"@openzeppelin/contracts-upgradeable/access/AccessControlUpgradeable.sol\":6561:6565  role */\n      dup3\n        /* \"@openzeppelin/contracts-upgradeable/access/AccessControlUpgradeable.sol\":6567:6574  account */\n      dup3\n        /* \"@openzeppelin/contracts-upgradeable/access/AccessControlUpgradeable.sol\":6549:6560  _revokeRole */\n      tag_129\n        /* \"@openzeppelin/contracts-upgradeable/access/AccessControlUpgradeable.sol\":6549:6575  _revokeRole(role, account) */\n      jump\t// in\n    tag_128:\n        /* \"@openzeppelin/contracts-upgradeable/access/AccessControlUpgradeable.sol\":6368:6582  function renounceRole(bytes32 role, address account) public virtual override {... */\n      pop\n      pop\n      jump\t// out\n        /* \"erc3643/erc3643/registry/implementation/IdentityRegistryStorage.sol\":3711:4197  function bindIdentityRegistry(address _identityRegistry) external override {... */\n    tag_53:\n      sub(shl(0xa0, 0x01), 0x01)\n        /* \"erc3643/erc3643/registry/implementation/IdentityRegistryStorage.sol\":3817:3848  _identityRegistry != address(0) */\n      dup2\n      and\n        /* \"erc3643/erc3643/registry/implementation/IdentityRegistryStorage.sol\":3796:3905  require(... */\n      tag_131\n      jumpi\n      mload(0x40)\n      shl(0xe5, 0x461bcd)\n      dup2\n      mstore\n      0x04\n      add\n      tag_126\n      swap1\n      tag_133\n      jump\t// in\n    tag_131:\n        /* \"erc3643/erc3643/registry/implementation/IdentityRegistryStorage.sol\":3936:3955  _identityRegistries */\n      0xca\n        /* \"erc3643/erc3643/registry/implementation/IdentityRegistryStorage.sol\":3936:3962  _identityRegistries.length */\n      sload\n        /* \"erc3643/erc3643/registry/implementation/IdentityRegistryStorage.sol\":3965:3968  300 */\n      0x012c\n      gt\n        /* \"erc3643/erc3643/registry/implementation/IdentityRegistryStorage.sol\":3915:4031  require(... */\n      tag_134\n      jumpi\n      mload(0x40)\n      shl(0xe5, 0x461bcd)\n      dup2\n      mstore\n        /* \"#utility.yul\":5219:5221   */\n      0x20\n        /* \"erc3643/erc3643/registry/implementation/IdentityRegistryStorage.sol\":3915:4031  require(... */\n      0x04\n      dup3\n      add\n        /* \"#utility.yul\":5201:5222   */\n      mstore\n        /* \"#utility.yul\":5258:5260   */\n      0x25\n        /* \"#utility.yul\":5238:5256   */\n      0x24\n      dup3\n      add\n        /* \"#utility.yul\":5231:5261   */\n      mstore\n        /* \"#utility.yul\":5297:5331   */\n      0x63616e6e6f742062696e64206d6f7265207468616e2033303020495220746f20\n        /* \"#utility.yul\":5277:5295   */\n      0x44\n      dup3\n      add\n        /* \"#utility.yul\":5270:5332   */\n      mstore\n      shl(0xd8, 0x3120495253)\n        /* \"#utility.yul\":5348:5366   */\n      0x64\n      dup3\n      add\n        /* \"#utility.yul\":5341:5376   */\n      mstore\n        /* \"#utility.yul\":5393:5412   */\n      0x84\n      add\n        /* \"erc3643/erc3643/registry/implementation/IdentityRegistryStorage.sol\":3915:4031  require(... */\n      tag_126\n        /* \"#utility.yul\":5017:5418   */\n      jump\n        /* \"erc3643/erc3643/registry/implementation/IdentityRegistryStorage.sol\":3915:4031  require(... */\n    tag_134:\n        /* \"erc3643/erc3643/registry/implementation/IdentityRegistryStorage.sol\":4041:4082  _grantRole(AGENT_ROLE, _identityRegistry) */\n      tag_137\n      0x00\n      dup1\n      mload\n      0x20\n      data_83599f2fd2d7ecec31a0c854e1dfa0cd718f43d0f25b15e620b3800dba1a8107\n      dup4\n      codecopy\n      dup2\n      mload\n      swap2\n      mstore\n        /* \"erc3643/erc3643/registry/implementation/IdentityRegistryStorage.sol\":4064:4081  _identityRegistry */\n      dup3\n        /* \"erc3643/erc3643/registry/implementation/IdentityRegistryStorage.sol\":4041:4051  _grantRole */\n      tag_121\n        /* \"erc3643/erc3643/registry/implementation/IdentityRegistryStorage.sol\":4041:4082  _grantRole(AGENT_ROLE, _identityRegistry) */\n      jump\t// in\n    tag_137:\n        /* \"erc3643/erc3643/registry/implementation/IdentityRegistryStorage.sol\":4092:4111  _identityRegistries */\n      0xca\n        /* \"erc3643/erc3643/registry/implementation/IdentityRegistryStorage.sol\":4092:4135  _identityRegistries.push(_identityRegistry) */\n      dup1\n      sload\n      0x01\n      dup2\n      add\n      dup3\n      sstore\n      0x00\n      swap2\n      dup3\n      mstore\n      0x42d72674974f694b5f5159593243114d38a5c39c89d6b62fee061ff523240ee1\n      add\n      dup1\n      sload\n      not(sub(shl(0xa0, 0x01), 0x01))\n      and\n      sub(shl(0xa0, 0x01), 0x01)\n      dup5\n      and\n      swap1\n      dup2\n      or\n      swap1\n      swap2\n      sstore\n        /* \"erc3643/erc3643/registry/implementation/IdentityRegistryStorage.sol\":4150:4190  IdentityRegistryBound(_identityRegistry) */\n      mload(0x40)\n        /* \"erc3643/erc3643/registry/implementation/IdentityRegistryStorage.sol\":4092:4135  _identityRegistries.push(_identityRegistry) */\n      swap1\n      swap2\n        /* \"erc3643/erc3643/registry/implementation/IdentityRegistryStorage.sol\":4150:4190  IdentityRegistryBound(_identityRegistry) */\n      0x500c250171aa20e861b680f93502547b9d436eda7d4c537fc360db6e0c6eedfb\n      swap2\n      log2\n        /* \"erc3643/erc3643/registry/implementation/IdentityRegistryStorage.sol\":3711:4197  function bindIdentityRegistry(address _identityRegistry) external override {... */\n      pop\n      jump\t// out\n        /* \"@openzeppelin/contracts-upgradeable/access/OwnableUpgradeable.sol\":2064:2165  function renounceOwnership() public virtual onlyOwner {... */\n    tag_55:\n        /* \"@openzeppelin/contracts-upgradeable/access/OwnableUpgradeable.sol\":1334:1347  _checkOwner() */\n      tag_140\n        /* \"@openzeppelin/contracts-upgradeable/access/OwnableUpgradeable.sol\":1334:1345  _checkOwner */\n      tag_141\n        /* \"@openzeppelin/contracts-upgradeable/access/OwnableUpgradeable.sol\":1334:1347  _checkOwner() */\n      jump\t// in\n    tag_140:\n        /* \"@openzeppelin/contracts-upgradeable/access/OwnableUpgradeable.sol\":2128:2158  _transferOwnership(address(0)) */\n      tag_143\n        /* \"@openzeppelin/contracts-upgradeable/access/OwnableUpgradeable.sol\":2155:2156  0 */\n      0x00\n        /* \"@openzeppelin/contracts-upgradeable/access/OwnableUpgradeable.sol\":2128:2146  _transferOwnership */\n      tag_144\n        /* \"@openzeppelin/contracts-upgradeable/access/OwnableUpgradeable.sol\":2128:2158  _transferOwnership(address(0)) */\n      jump\t// in\n    tag_143:\n        /* \"@openzeppelin/contracts-upgradeable/access/OwnableUpgradeable.sol\":2064:2165  function renounceOwnership() public virtual onlyOwner {... */\n      jump\t// out\n        /* \"@openzeppelin/contracts-upgradeable/access/AccessControlUpgradeable.sol\":3329:3474  function hasRole(bytes32 role, address account) public view virtual override returns (bool) {... */\n    tag_72:\n        /* \"@openzeppelin/contracts-upgradeable/access/AccessControlUpgradeable.sol\":3415:3419  bool */\n      0x00\n        /* \"@openzeppelin/contracts-upgradeable/access/AccessControlUpgradeable.sol\":3438:3450  _roles[role] */\n      swap2\n      dup3\n      mstore\n        /* \"@openzeppelin/contracts-upgradeable/access/AccessControlUpgradeable.sol\":3438:3444  _roles */\n      0x65\n        /* \"@openzeppelin/contracts-upgradeable/access/AccessControlUpgradeable.sol\":3438:3450  _roles[role] */\n      0x20\n      swap1\n      dup2\n      mstore\n      0x40\n      dup1\n      dup5\n      keccak256\n      sub(shl(0xa0, 0x01), 0x01)\n        /* \"@openzeppelin/contracts-upgradeable/access/AccessControlUpgradeable.sol\":3438:3467  _roles[role].members[account] */\n      swap4\n      swap1\n      swap4\n      and\n      dup5\n      mstore\n      swap2\n      swap1\n      mstore\n      swap1\n      keccak256\n      sload\n      0xff\n      and\n      swap1\n        /* \"@openzeppelin/contracts-upgradeable/access/AccessControlUpgradeable.sol\":3329:3474  function hasRole(bytes32 role, address account) public view virtual override returns (bool) {... */\n      jump\t// out\n        /* \"erc3643/erc3643/registry/implementation/IdentityRegistryStorage.sol\":4287:5064  function unbindIdentityRegistry(address _identityRegistry)... */\n    tag_76:\n      sub(shl(0xa0, 0x01), 0x01)\n        /* \"erc3643/erc3643/registry/implementation/IdentityRegistryStorage.sol\":4415:4446  _identityRegistry != address(0) */\n      dup2\n      and\n        /* \"erc3643/erc3643/registry/implementation/IdentityRegistryStorage.sol\":4394:4503  require(... */\n      tag_150\n      jumpi\n      mload(0x40)\n      shl(0xe5, 0x461bcd)\n      dup2\n      mstore\n      0x04\n      add\n      tag_126\n      swap1\n      tag_133\n      jump\t// in\n    tag_150:\n        /* \"erc3643/erc3643/registry/implementation/IdentityRegistryStorage.sol\":4534:4553  _identityRegistries */\n      0xca\n        /* \"erc3643/erc3643/registry/implementation/IdentityRegistryStorage.sol\":4534:4560  _identityRegistries.length */\n      sload\n        /* \"erc3643/erc3643/registry/implementation/IdentityRegistryStorage.sol\":4513:4621  require(... */\n      tag_152\n      jumpi\n      mload(0x40)\n      shl(0xe5, 0x461bcd)\n      dup2\n      mstore\n        /* \"#utility.yul\":5625:5627   */\n      0x20\n        /* \"erc3643/erc3643/registry/implementation/IdentityRegistryStorage.sol\":4513:4621  require(... */\n      0x04\n      dup3\n      add\n        /* \"#utility.yul\":5607:5628   */\n      mstore\n        /* \"#utility.yul\":5664:5666   */\n      0x1f\n        /* \"#utility.yul\":5644:5662   */\n      0x24\n      dup3\n      add\n        /* \"#utility.yul\":5637:5667   */\n      mstore\n        /* \"#utility.yul\":5703:5736   */\n      0x6964656e74697479207265676973747279206973206e6f742073746f72656400\n        /* \"#utility.yul\":5683:5701   */\n      0x44\n      dup3\n      add\n        /* \"#utility.yul\":5676:5737   */\n      mstore\n        /* \"#utility.yul\":5754:5772   */\n      0x64\n      add\n        /* \"erc3643/erc3643/registry/implementation/IdentityRegistryStorage.sol\":4513:4621  require(... */\n      tag_126\n        /* \"#utility.yul\":5423:5778   */\n      jump\n        /* \"erc3643/erc3643/registry/implementation/IdentityRegistryStorage.sol\":4513:4621  require(... */\n    tag_152:\n        /* \"erc3643/erc3643/registry/implementation/IdentityRegistryStorage.sol\":4648:4667  _identityRegistries */\n      0xca\n        /* \"erc3643/erc3643/registry/implementation/IdentityRegistryStorage.sol\":4648:4674  _identityRegistries.length */\n      sload\n        /* \"erc3643/erc3643/registry/implementation/IdentityRegistryStorage.sol\":4631:4645  uint256 length */\n      0x00\n        /* \"erc3643/erc3643/registry/implementation/IdentityRegistryStorage.sol\":4684:4949  for (uint256 i = 0; i < length; i++) {... */\n    tag_155:\n        /* \"erc3643/erc3643/registry/implementation/IdentityRegistryStorage.sol\":4708:4714  length */\n      dup2\n        /* \"erc3643/erc3643/registry/implementation/IdentityRegistryStorage.sol\":4704:4705  i */\n      dup2\n        /* \"erc3643/erc3643/registry/implementation/IdentityRegistryStorage.sol\":4704:4714  i < length */\n      lt\n        /* \"erc3643/erc3643/registry/implementation/IdentityRegistryStorage.sol\":4684:4949  for (uint256 i = 0; i < length; i++) {... */\n      iszero\n      tag_156\n      jumpi\n        /* \"erc3643/erc3643/registry/implementation/IdentityRegistryStorage.sol\":4765:4782  _identityRegistry */\n      dup3\n      sub(shl(0xa0, 0x01), 0x01)\n        /* \"erc3643/erc3643/registry/implementation/IdentityRegistryStorage.sol\":4739:4782  _identityRegistries[i] == _identityRegistry */\n      and\n        /* \"erc3643/erc3643/registry/implementation/IdentityRegistryStorage.sol\":4739:4758  _identityRegistries */\n      0xca\n        /* \"erc3643/erc3643/registry/implementation/IdentityRegistryStorage.sol\":4759:4760  i */\n      dup3\n        /* \"erc3643/erc3643/registry/implementation/IdentityRegistryStorage.sol\":4739:4761  _identityRegistries[i] */\n      dup2\n      sload\n      dup2\n      lt\n      tag_159\n      jumpi\n      tag_159\n      tag_160\n      jump\t// in\n    tag_159:\n      0x00\n      swap2\n      dup3\n      mstore\n      0x20\n      swap1\n      swap2\n      keccak256\n      add\n      sload\n      sub(shl(0xa0, 0x01), 0x01)\n      and\n        /* \"erc3643/erc3643/registry/implementation/IdentityRegistryStorage.sol\":4739:4782  _identityRegistries[i] == _identityRegistry */\n      sub\n        /* \"erc3643/erc3643/registry/implementation/IdentityRegistryStorage.sol\":4735:4939  if (_identityRegistries[i] == _identityRegistry) {... */\n      tag_162\n      jumpi\n        /* \"erc3643/erc3643/registry/implementation/IdentityRegistryStorage.sol\":4827:4846  _identityRegistries */\n      0xca\n        /* \"erc3643/erc3643/registry/implementation/IdentityRegistryStorage.sol\":4847:4857  length - 1 */\n      tag_163\n        /* \"erc3643/erc3643/registry/implementation/IdentityRegistryStorage.sol\":4856:4857  1 */\n      0x01\n        /* \"erc3643/erc3643/registry/implementation/IdentityRegistryStorage.sol\":4847:4853  length */\n      dup5\n        /* \"erc3643/erc3643/registry/implementation/IdentityRegistryStorage.sol\":4847:4857  length - 1 */\n      tag_164\n      jump\t// in\n    tag_163:\n        /* \"erc3643/erc3643/registry/implementation/IdentityRegistryStorage.sol\":4827:4858  _identityRegistries[length - 1] */\n      dup2\n      sload\n      dup2\n      lt\n      tag_166\n      jumpi\n      tag_166\n      tag_160\n      jump\t// in\n    tag_166:\n      0x00\n      swap2\n      dup3\n      mstore\n      0x20\n      swap1\n      swap2\n      keccak256\n      add\n      sload\n        /* \"erc3643/erc3643/registry/implementation/IdentityRegistryStorage.sol\":4802:4821  _identityRegistries */\n      0xca\n        /* \"erc3643/erc3643/registry/implementation/IdentityRegistryStorage.sol\":4802:4824  _identityRegistries[i] */\n      dup1\n      sload\n      sub(shl(0xa0, 0x01), 0x01)\n        /* \"erc3643/erc3643/registry/implementation/IdentityRegistryStorage.sol\":4827:4858  _identityRegistries[length - 1] */\n      swap1\n      swap3\n      and\n      swap2\n        /* \"erc3643/erc3643/registry/implementation/IdentityRegistryStorage.sol\":4822:4823  i */\n      dup4\n      swap1\n        /* \"erc3643/erc3643/registry/implementation/IdentityRegistryStorage.sol\":4802:4824  _identityRegistries[i] */\n      dup2\n      lt\n      tag_169\n      jumpi\n      tag_169\n      tag_160\n      jump\t// in\n    tag_169:\n      swap1\n      0x00\n      mstore\n      keccak256(0x00, 0x20)\n      add\n      0x00\n        /* \"erc3643/erc3643/registry/implementation/IdentityRegistryStorage.sol\":4802:4858  _identityRegistries[i] = _identityRegistries[length - 1] */\n      0x0100\n      exp\n      dup2\n      sload\n      dup2\n      sub(shl(0xa0, 0x01), 0x01)\n      mul\n      not\n      and\n      swap1\n      dup4\n      sub(shl(0xa0, 0x01), 0x01)\n      and\n      mul\n      or\n      swap1\n      sstore\n      pop\n        /* \"erc3643/erc3643/registry/implementation/IdentityRegistryStorage.sol\":4876:4895  _identityRegistries */\n      0xca\n        /* \"erc3643/erc3643/registry/implementation/IdentityRegistryStorage.sol\":4876:4901  _identityRegistries.pop() */\n      dup1\n      sload\n      dup1\n      tag_172\n      jumpi\n      tag_172\n      tag_173\n      jump\t// in\n    tag_172:\n      0x00\n      dup3\n      dup2\n      mstore\n      0x20\n      swap1\n      keccak256\n      dup2\n      add\n      not(0x00)\n      swap1\n      dup2\n      add\n      dup1\n      sload\n      not(sub(shl(0xa0, 0x01), 0x01))\n      and\n      swap1\n      sstore\n      add\n      swap1\n      sstore\n        /* \"erc3643/erc3643/registry/implementation/IdentityRegistryStorage.sol\":4919:4924  break */\n      jump(tag_156)\n        /* \"erc3643/erc3643/registry/implementation/IdentityRegistryStorage.sol\":4735:4939  if (_identityRegistries[i] == _identityRegistry) {... */\n    tag_162:\n        /* \"erc3643/erc3643/registry/implementation/IdentityRegistryStorage.sol\":4716:4719  i++ */\n      dup1\n      tag_175\n      dup2\n      tag_176\n      jump\t// in\n    tag_175:\n      swap2\n      pop\n      pop\n        /* \"erc3643/erc3643/registry/implementation/IdentityRegistryStorage.sol\":4684:4949  for (uint256 i = 0; i < length; i++) {... */\n      jump(tag_155)\n    tag_156:\n      pop\n        /* \"erc3643/erc3643/registry/implementation/IdentityRegistryStorage.sol\":4958:5000  _revokeRole(AGENT_ROLE, _identityRegistry) */\n      tag_177\n      0x00\n      dup1\n      mload\n      0x20\n      data_83599f2fd2d7ecec31a0c854e1dfa0cd718f43d0f25b15e620b3800dba1a8107\n      dup4\n      codecopy\n      dup2\n      mload\n      swap2\n      mstore\n        /* \"erc3643/erc3643/registry/implementation/IdentityRegistryStorage.sol\":4982:4999  _identityRegistry */\n      dup4\n        /* \"erc3643/erc3643/registry/implementation/IdentityRegistryStorage.sol\":4958:4969  _revokeRole */\n      tag_129\n        /* \"erc3643/erc3643/registry/implementation/IdentityRegistryStorage.sol\":4958:5000  _revokeRole(AGENT_ROLE, _identityRegistry) */\n      jump\t// in\n    tag_177:\n        /* \"erc3643/erc3643/registry/implementation/IdentityRegistryStorage.sol\":5015:5057  IdentityRegistryUnbound(_identityRegistry) */\n      mload(0x40)\n      sub(shl(0xa0, 0x01), 0x01)\n      dup4\n      and\n      swap1\n      0x51f353eb5801583fdf2706e43c045b62fdf6b1566820b349390616363ecf72c9\n      swap1\n      0x00\n      swap1\n      log2\n        /* \"erc3643/erc3643/registry/implementation/IdentityRegistryStorage.sol\":4384:5064  {... */\n      pop\n        /* \"erc3643/erc3643/registry/implementation/IdentityRegistryStorage.sol\":4287:5064  function unbindIdentityRegistry(address _identityRegistry)... */\n      pop\n      jump\t// out\n        /* \"erc3643/erc3643/registry/implementation/IdentityRegistryStorage.sol\":2509:2999  function modifyStoredInvestorCountry(address _userAddress, uint16 _country)... */\n    tag_80:\n      0x00\n      dup1\n      mload\n      0x20\n      data_83599f2fd2d7ecec31a0c854e1dfa0cd718f43d0f25b15e620b3800dba1a8107\n      dup4\n      codecopy\n      dup2\n      mload\n      swap2\n      mstore\n        /* \"@openzeppelin/contracts-upgradeable/access/AccessControlUpgradeable.sol\":2928:2944  _checkRole(role) */\n      tag_179\n        /* \"erc3643/erc3643/registry/implementation/IdentityRegistryStorage.sol\":561:627  0xcab5a0bfe0b79d2c4b1c2e02599fa044d115b7511f9659307cb4276950967709 */\n      dup2\n        /* \"@openzeppelin/contracts-upgradeable/access/AccessControlUpgradeable.sol\":2928:2938  _checkRole */\n      tag_118\n        /* \"@openzeppelin/contracts-upgradeable/access/AccessControlUpgradeable.sol\":2928:2944  _checkRole(role) */\n      jump\t// in\n    tag_179:\n      sub(shl(0xa0, 0x01), 0x01)\n        /* \"erc3643/erc3643/registry/implementation/IdentityRegistryStorage.sol\":2670:2696  _userAddress != address(0) */\n      dup4\n      and\n        /* \"erc3643/erc3643/registry/implementation/IdentityRegistryStorage.sol\":2662:2732  require(_userAddress != address(0), \"invalid argument - zero address\") */\n      tag_181\n      jumpi\n      mload(0x40)\n      shl(0xe5, 0x461bcd)\n      dup2\n      mstore\n      0x04\n      add\n      tag_126\n      swap1\n      tag_133\n      jump\t// in\n    tag_181:\n      sub(shl(0xa0, 0x01), 0x01)\n        /* \"erc3643/erc3643/registry/implementation/IdentityRegistryStorage.sol\":2771:2796  _identities[_userAddress] */\n      dup4\n      dup2\n      and\n        /* \"erc3643/erc3643/registry/implementation/IdentityRegistryStorage.sol\":2826:2827  0 */\n      0x00\n        /* \"erc3643/erc3643/registry/implementation/IdentityRegistryStorage.sol\":2771:2796  _identities[_userAddress] */\n      swap1\n      dup2\n      mstore\n        /* \"erc3643/erc3643/registry/implementation/IdentityRegistryStorage.sol\":2771:2782  _identities */\n      0xc9\n        /* \"erc3643/erc3643/registry/implementation/IdentityRegistryStorage.sol\":2771:2796  _identities[_userAddress] */\n      0x20\n      mstore\n      0x40\n      swap1\n      keccak256\n        /* \"erc3643/erc3643/registry/implementation/IdentityRegistryStorage.sol\":2771:2813  _identities[_userAddress].identityContract */\n      sload\n      and\n        /* \"erc3643/erc3643/registry/implementation/IdentityRegistryStorage.sol\":2742:2876  require(... */\n      tag_183\n      jumpi\n      mload(0x40)\n      shl(0xe5, 0x461bcd)\n      dup2\n      mstore\n      0x04\n      add\n      tag_126\n      swap1\n      tag_185\n      jump\t// in\n    tag_183:\n      sub(shl(0xa0, 0x01), 0x01)\n        /* \"erc3643/erc3643/registry/implementation/IdentityRegistryStorage.sol\":2886:2911  _identities[_userAddress] */\n      dup4\n      and\n      0x00\n      dup2\n      dup2\n      mstore\n        /* \"erc3643/erc3643/registry/implementation/IdentityRegistryStorage.sol\":2886:2897  _identities */\n      0xc9\n        /* \"erc3643/erc3643/registry/implementation/IdentityRegistryStorage.sol\":2886:2911  _identities[_userAddress] */\n      0x20\n      mstore\n      0x40\n      dup1\n      dup3\n      keccak256\n        /* \"erc3643/erc3643/registry/implementation/IdentityRegistryStorage.sol\":2886:2938  _identities[_userAddress].investorCountry = _country */\n      dup1\n      sload\n      not(shl(0xa0, 0xffff))\n      and\n      shl(0xa0, 0x01)\n      0xffff\n      dup9\n      and\n      swap1\n      dup2\n      mul\n      swap2\n      swap1\n      swap2\n      or\n      swap1\n      swap2\n      sstore\n        /* \"erc3643/erc3643/registry/implementation/IdentityRegistryStorage.sol\":2953:2992  CountryModified(_userAddress, _country) */\n      swap1\n      mload\n        /* \"erc3643/erc3643/registry/implementation/IdentityRegistryStorage.sol\":2886:2938  _identities[_userAddress].investorCountry = _country */\n      swap1\n      swap3\n        /* \"erc3643/erc3643/registry/implementation/IdentityRegistryStorage.sol\":2886:2911  _identities[_userAddress] */\n      swap2\n        /* \"erc3643/erc3643/registry/implementation/IdentityRegistryStorage.sol\":2953:2992  CountryModified(_userAddress, _country) */\n      0x20965fcdc6eed7ae398065b40ece4e732ba667992ca819fc54e80e9f2047c4cf\n      swap2\n      log3\n        /* \"erc3643/erc3643/registry/implementation/IdentityRegistryStorage.sol\":2509:2999  function modifyStoredInvestorCountry(address _userAddress, uint16 _country)... */\n      pop\n      pop\n      pop\n      jump\t// out\n        /* \"erc3643/erc3643/registry/implementation/IdentityRegistryStorage.sol\":1050:1690  function addIdentityToStorage(... */\n    tag_87:\n      0x00\n      dup1\n      mload\n      0x20\n      data_83599f2fd2d7ecec31a0c854e1dfa0cd718f43d0f25b15e620b3800dba1a8107\n      dup4\n      codecopy\n      dup2\n      mload\n      swap2\n      mstore\n        /* \"@openzeppelin/contracts-upgradeable/access/AccessControlUpgradeable.sol\":2928:2944  _checkRole(role) */\n      tag_187\n        /* \"erc3643/erc3643/registry/implementation/IdentityRegistryStorage.sol\":561:627  0xcab5a0bfe0b79d2c4b1c2e02599fa044d115b7511f9659307cb4276950967709 */\n      dup2\n        /* \"@openzeppelin/contracts-upgradeable/access/AccessControlUpgradeable.sol\":2928:2938  _checkRole */\n      tag_118\n        /* \"@openzeppelin/contracts-upgradeable/access/AccessControlUpgradeable.sol\":2928:2944  _checkRole(role) */\n      jump\t// in\n    tag_187:\n      sub(shl(0xa0, 0x01), 0x01)\n        /* \"erc3643/erc3643/registry/implementation/IdentityRegistryStorage.sol\":1240:1266  _userAddress != address(0) */\n      dup5\n      and\n      iszero\n      dup1\n      iszero\n      swap1\n        /* \"erc3643/erc3643/registry/implementation/IdentityRegistryStorage.sol\":1240:1302  _userAddress != address(0) && address(_identity) != address(0) */\n      tag_189\n      jumpi\n      pop\n      sub(shl(0xa0, 0x01), 0x01)\n        /* \"erc3643/erc3643/registry/implementation/IdentityRegistryStorage.sol\":1270:1302  address(_identity) != address(0) */\n      dup4\n      and\n      iszero\n      iszero\n        /* \"erc3643/erc3643/registry/implementation/IdentityRegistryStorage.sol\":1240:1302  _userAddress != address(0) && address(_identity) != address(0) */\n    tag_189:\n        /* \"erc3643/erc3643/registry/implementation/IdentityRegistryStorage.sol\":1219:1359  require(... */\n      tag_190\n      jumpi\n      mload(0x40)\n      shl(0xe5, 0x461bcd)\n      dup2\n      mstore\n      0x04\n      add\n      tag_126\n      swap1\n      tag_133\n      jump\t// in\n    tag_190:\n      sub(shl(0xa0, 0x01), 0x01)\n        /* \"erc3643/erc3643/registry/implementation/IdentityRegistryStorage.sol\":1398:1423  _identities[_userAddress] */\n      dup5\n      dup2\n      and\n        /* \"erc3643/erc3643/registry/implementation/IdentityRegistryStorage.sol\":1453:1454  0 */\n      0x00\n        /* \"erc3643/erc3643/registry/implementation/IdentityRegistryStorage.sol\":1398:1423  _identities[_userAddress] */\n      swap1\n      dup2\n      mstore\n        /* \"erc3643/erc3643/registry/implementation/IdentityRegistryStorage.sol\":1398:1409  _identities */\n      0xc9\n        /* \"erc3643/erc3643/registry/implementation/IdentityRegistryStorage.sol\":1398:1423  _identities[_userAddress] */\n      0x20\n      mstore\n      0x40\n      swap1\n      keccak256\n        /* \"erc3643/erc3643/registry/implementation/IdentityRegistryStorage.sol\":1398:1440  _identities[_userAddress].identityContract */\n      sload\n      and\n        /* \"erc3643/erc3643/registry/implementation/IdentityRegistryStorage.sol\":1390:1455  address(_identities[_userAddress].identityContract) == address(0) */\n      iszero\n        /* \"erc3643/erc3643/registry/implementation/IdentityRegistryStorage.sol\":1369:1503  require(... */\n      tag_192\n      jumpi\n      mload(0x40)\n      shl(0xe5, 0x461bcd)\n      dup2\n      mstore\n        /* \"#utility.yul\":7005:7007   */\n      0x20\n        /* \"erc3643/erc3643/registry/implementation/IdentityRegistryStorage.sol\":1369:1503  require(... */\n      0x04\n      dup3\n      add\n        /* \"#utility.yul\":6987:7008   */\n      mstore\n        /* \"#utility.yul\":7044:7046   */\n      0x16\n        /* \"#utility.yul\":7024:7042   */\n      0x24\n      dup3\n      add\n        /* \"#utility.yul\":7017:7047   */\n      mstore\n      shl(0x50, 0x616464726573732073746f72656420616c7265616479)\n        /* \"#utility.yul\":7063:7081   */\n      0x44\n      dup3\n      add\n        /* \"#utility.yul\":7056:7108   */\n      mstore\n        /* \"#utility.yul\":7125:7143   */\n      0x64\n      add\n        /* \"erc3643/erc3643/registry/implementation/IdentityRegistryStorage.sol\":1369:1503  require(... */\n      tag_126\n        /* \"#utility.yul\":6803:7149   */\n      jump\n        /* \"erc3643/erc3643/registry/implementation/IdentityRegistryStorage.sol\":1369:1503  require(... */\n    tag_192:\n      sub(shl(0xa0, 0x01), 0x01)\n        /* \"erc3643/erc3643/registry/implementation/IdentityRegistryStorage.sol\":1513:1538  _identities[_userAddress] */\n      dup5\n      dup2\n      and\n      0x00\n      dup2\n      dup2\n      mstore\n        /* \"erc3643/erc3643/registry/implementation/IdentityRegistryStorage.sol\":1513:1524  _identities */\n      0xc9\n        /* \"erc3643/erc3643/registry/implementation/IdentityRegistryStorage.sol\":1513:1538  _identities[_userAddress] */\n      0x20\n      mstore\n      0x40\n      dup1\n      dup3\n      keccak256\n        /* \"erc3643/erc3643/registry/implementation/IdentityRegistryStorage.sol\":1513:1567  _identities[_userAddress].identityContract = _identity */\n      dup1\n      sload\n      swap5\n      dup9\n      and\n      not(sub(shl(0xb0, 0x01), 0x01))\n        /* \"erc3643/erc3643/registry/implementation/IdentityRegistryStorage.sol\":1577:1629  _identities[_userAddress].investorCountry = _country */\n      swap1\n      swap6\n      and\n      dup6\n      or\n      shl(0xa0, 0x01)\n      0xffff\n      dup10\n      and\n      mul\n      or\n      swap1\n      sstore\n        /* \"erc3643/erc3643/registry/implementation/IdentityRegistryStorage.sol\":1644:1683  IdentityStored(_userAddress, _identity) */\n      mload\n      0x30dea7e9c9afaa2e3c9810f2fc9b5181f1bad74ca5a8db85f746a33585e747\n      swap2\n        /* \"erc3643/erc3643/registry/implementation/IdentityRegistryStorage.sol\":1513:1538  _identities[_userAddress] */\n      swap1\n        /* \"erc3643/erc3643/registry/implementation/IdentityRegistryStorage.sol\":1644:1683  IdentityStored(_userAddress, _identity) */\n      log3\n        /* \"erc3643/erc3643/registry/implementation/IdentityRegistryStorage.sol\":1050:1690  function addIdentityToStorage(... */\n      pop\n      pop\n      pop\n      pop\n      jump\t// out\n        /* \"erc3643/erc3643/registry/implementation/IdentityRegistryStorage.sol\":5156:5321  function linkedIdentityRegistries()... */\n    tag_89:\n        /* \"erc3643/erc3643/registry/implementation/IdentityRegistryStorage.sol\":5256:5272  address[] memory */\n      0x60\n        /* \"erc3643/erc3643/registry/implementation/IdentityRegistryStorage.sol\":5295:5314  _identityRegistries */\n      0xca\n        /* \"erc3643/erc3643/registry/implementation/IdentityRegistryStorage.sol\":5288:5314  return _identityRegistries */\n      dup1\n      sload\n      dup1\n      0x20\n      mul\n      0x20\n      add\n      mload(0x40)\n      swap1\n      dup2\n      add\n      0x40\n      mstore\n      dup1\n      swap3\n      swap2\n      swap1\n      dup2\n      dup2\n      mstore\n      0x20\n      add\n      dup3\n      dup1\n      sload\n      dup1\n      iszero\n      tag_196\n      jumpi\n      0x20\n      mul\n      dup3\n      add\n      swap2\n      swap1\n      0x00\n      mstore\n      keccak256(0x00, 0x20)\n      swap1\n    tag_197:\n      dup2\n      sload\n      sub(shl(0xa0, 0x01), 0x01)\n      and\n      dup2\n      mstore\n      0x01\n      swap1\n      swap2\n      add\n      swap1\n      0x20\n      add\n      dup1\n      dup4\n      gt\n      tag_197\n      jumpi\n    tag_196:\n      pop\n      pop\n      pop\n      pop\n      pop\n      swap1\n      pop\n        /* \"erc3643/erc3643/registry/implementation/IdentityRegistryStorage.sol\":5156:5321  function linkedIdentityRegistries()... */\n      swap1\n      jump\t// out\n        /* \"erc3643/erc3643/registry/implementation/IdentityRegistryStorage.sol\":3092:3623  function removeIdentityFromStorage(address _userAddress)... */\n    tag_94:\n      0x00\n      dup1\n      mload\n      0x20\n      data_83599f2fd2d7ecec31a0c854e1dfa0cd718f43d0f25b15e620b3800dba1a8107\n      dup4\n      codecopy\n      dup2\n      mload\n      swap2\n      mstore\n        /* \"@openzeppelin/contracts-upgradeable/access/AccessControlUpgradeable.sol\":2928:2944  _checkRole(role) */\n      tag_199\n        /* \"erc3643/erc3643/registry/implementation/IdentityRegistryStorage.sol\":561:627  0xcab5a0bfe0b79d2c4b1c2e02599fa044d115b7511f9659307cb4276950967709 */\n      dup2\n        /* \"@openzeppelin/contracts-upgradeable/access/AccessControlUpgradeable.sol\":2928:2938  _checkRole */\n      tag_118\n        /* \"@openzeppelin/contracts-upgradeable/access/AccessControlUpgradeable.sol\":2928:2944  _checkRole(role) */\n      jump\t// in\n    tag_199:\n      sub(shl(0xa0, 0x01), 0x01)\n        /* \"erc3643/erc3643/registry/implementation/IdentityRegistryStorage.sol\":3234:3260  _userAddress != address(0) */\n      dup3\n      and\n        /* \"erc3643/erc3643/registry/implementation/IdentityRegistryStorage.sol\":3226:3296  require(_userAddress != address(0), \"invalid argument - zero address\") */\n      tag_201\n      jumpi\n      mload(0x40)\n      shl(0xe5, 0x461bcd)\n      dup2\n      mstore\n      0x04\n      add\n      tag_126\n      swap1\n      tag_133\n      jump\t// in\n    tag_201:\n      sub(shl(0xa0, 0x01), 0x01)\n        /* \"erc3643/erc3643/registry/implementation/IdentityRegistryStorage.sol\":3335:3360  _identities[_userAddress] */\n      dup3\n      dup2\n      and\n        /* \"erc3643/erc3643/registry/implementation/IdentityRegistryStorage.sol\":3390:3391  0 */\n      0x00\n        /* \"erc3643/erc3643/registry/implementation/IdentityRegistryStorage.sol\":3335:3360  _identities[_userAddress] */\n      swap1\n      dup2\n      mstore\n        /* \"erc3643/erc3643/registry/implementation/IdentityRegistryStorage.sol\":3335:3346  _identities */\n      0xc9\n        /* \"erc3643/erc3643/registry/implementation/IdentityRegistryStorage.sol\":3335:3360  _identities[_userAddress] */\n      0x20\n      mstore\n      0x40\n      swap1\n      keccak256\n        /* \"erc3643/erc3643/registry/implementation/IdentityRegistryStorage.sol\":3335:3377  _identities[_userAddress].identityContract */\n      sload\n      and\n        /* \"erc3643/erc3643/registry/implementation/IdentityRegistryStorage.sol\":3306:3440  require(... */\n      tag_203\n      jumpi\n      mload(0x40)\n      shl(0xe5, 0x461bcd)\n      dup2\n      mstore\n      0x04\n      add\n      tag_126\n      swap1\n      tag_185\n      jump\t// in\n    tag_203:\n      sub(shl(0xa0, 0x01), 0x01)\n        /* \"erc3643/erc3643/registry/implementation/IdentityRegistryStorage.sol\":3474:3499  _identities[_userAddress] */\n      dup1\n      dup4\n      and\n        /* \"erc3643/erc3643/registry/implementation/IdentityRegistryStorage.sol\":3450:3471  IIdentity oldIdentity */\n      0x00\n        /* \"erc3643/erc3643/registry/implementation/IdentityRegistryStorage.sol\":3474:3499  _identities[_userAddress] */\n      dup2\n      dup2\n      mstore\n        /* \"erc3643/erc3643/registry/implementation/IdentityRegistryStorage.sol\":3474:3485  _identities */\n      0xc9\n        /* \"erc3643/erc3643/registry/implementation/IdentityRegistryStorage.sol\":3474:3499  _identities[_userAddress] */\n      0x20\n      mstore\n      0x40\n      dup1\n      dup3\n      keccak256\n        /* \"erc3643/erc3643/registry/implementation/IdentityRegistryStorage.sol\":3474:3516  _identities[_userAddress].identityContract */\n      dup1\n      sload\n      not(sub(shl(0xb0, 0x01), 0x01))\n        /* \"erc3643/erc3643/registry/implementation/IdentityRegistryStorage.sol\":3526:3558  delete _identities[_userAddress] */\n      dup2\n      and\n      swap1\n      swap2\n      sstore\n        /* \"erc3643/erc3643/registry/implementation/IdentityRegistryStorage.sol\":3573:3616  IdentityUnstored(_userAddress, oldIdentity) */\n      swap1\n      mload\n        /* \"erc3643/erc3643/registry/implementation/IdentityRegistryStorage.sol\":3474:3516  _identities[_userAddress].identityContract */\n      swap4\n      and\n      swap3\n      dup4\n      swap3\n        /* \"erc3643/erc3643/registry/implementation/IdentityRegistryStorage.sol\":3474:3499  _identities[_userAddress] */\n      swap2\n        /* \"erc3643/erc3643/registry/implementation/IdentityRegistryStorage.sol\":3573:3616  IdentityUnstored(_userAddress, oldIdentity) */\n      0xca6a4c3370b859312246e7f086284076e557997e10d856b716c23ab67067790b\n      swap2\n      log3\n        /* \"erc3643/erc3643/registry/implementation/IdentityRegistryStorage.sol\":3216:3623  {... */\n      pop\n        /* \"erc3643/erc3643/registry/implementation/IdentityRegistryStorage.sol\":3092:3623  function removeIdentityFromStorage(address _userAddress)... */\n      pop\n      pop\n      jump\t// out\n        /* \"@openzeppelin/contracts-upgradeable/access/AccessControlUpgradeable.sol\":5684:5831  function revokeRole(bytes32 role, address account) public virtual override onlyRole(getRoleAdmin(role)) {... */\n    tag_97:\n        /* \"@openzeppelin/contracts-upgradeable/access/AccessControlUpgradeable.sol\":4908:4915  bytes32 */\n      0x00\n        /* \"@openzeppelin/contracts-upgradeable/access/AccessControlUpgradeable.sol\":4934:4946  _roles[role] */\n      dup3\n      dup2\n      mstore\n        /* \"@openzeppelin/contracts-upgradeable/access/AccessControlUpgradeable.sol\":4934:4940  _roles */\n      0x65\n        /* \"@openzeppelin/contracts-upgradeable/access/AccessControlUpgradeable.sol\":4934:4946  _roles[role] */\n      0x20\n      mstore\n      0x40\n      swap1\n      keccak256\n        /* \"@openzeppelin/contracts-upgradeable/access/AccessControlUpgradeable.sol\":4934:4956  _roles[role].adminRole */\n      0x01\n      add\n      sload\n        /* \"@openzeppelin/contracts-upgradeable/access/AccessControlUpgradeable.sol\":2928:2944  _checkRole(role) */\n      tag_207\n        /* \"@openzeppelin/contracts-upgradeable/access/AccessControlUpgradeable.sol\":2939:2943  role */\n      dup2\n        /* \"@openzeppelin/contracts-upgradeable/access/AccessControlUpgradeable.sol\":2928:2938  _checkRole */\n      tag_118\n        /* \"@openzeppelin/contracts-upgradeable/access/AccessControlUpgradeable.sol\":2928:2944  _checkRole(role) */\n      jump\t// in\n    tag_207:\n        /* \"@openzeppelin/contracts-upgradeable/access/AccessControlUpgradeable.sol\":5798:5824  _revokeRole(role, account) */\n      tag_120\n        /* \"@openzeppelin/contracts-upgradeable/access/AccessControlUpgradeable.sol\":5810:5814  role */\n      dup4\n        /* \"@openzeppelin/contracts-upgradeable/access/AccessControlUpgradeable.sol\":5816:5823  account */\n      dup4\n        /* \"@openzeppelin/contracts-upgradeable/access/AccessControlUpgradeable.sol\":5798:5809  _revokeRole */\n      tag_129\n        /* \"@openzeppelin/contracts-upgradeable/access/AccessControlUpgradeable.sol\":5798:5824  _revokeRole(role, account) */\n      jump\t// in\n        /* \"erc3643/erc3643/registry/implementation/IdentityRegistryStorage.sol\":752:962  function init() external initializer {... */\n    tag_99:\n        /* \"@openzeppelin/contracts-upgradeable/proxy/utils/Initializable.sol\":3279:3298  bool isTopLevelCall */\n      0x00\n        /* \"@openzeppelin/contracts-upgradeable/proxy/utils/Initializable.sol\":3302:3315  _initializing */\n      sload\n      0x0100\n      swap1\n      div\n      0xff\n      and\n        /* \"@openzeppelin/contracts-upgradeable/proxy/utils/Initializable.sol\":3301:3315  !_initializing */\n      iszero\n      dup1\n        /* \"@openzeppelin/contracts-upgradeable/proxy/utils/Initializable.sol\":3347:3381  isTopLevelCall && _initialized < 1 */\n      dup1\n      iszero\n      tag_211\n      jumpi\n      pop\n        /* \"@openzeppelin/contracts-upgradeable/proxy/utils/Initializable.sol\":3365:3377  _initialized */\n      sload(0x00)\n        /* \"@openzeppelin/contracts-upgradeable/proxy/utils/Initializable.sol\":3380:3381  1 */\n      0x01\n        /* \"@openzeppelin/contracts-upgradeable/proxy/utils/Initializable.sol\":3365:3377  _initialized */\n      0xff\n      swap1\n      swap2\n      and\n        /* \"@openzeppelin/contracts-upgradeable/proxy/utils/Initializable.sol\":3365:3381  _initialized < 1 */\n      lt\n        /* \"@openzeppelin/contracts-upgradeable/proxy/utils/Initializable.sol\":3347:3381  isTopLevelCall && _initialized < 1 */\n    tag_211:\n        /* \"@openzeppelin/contracts-upgradeable/proxy/utils/Initializable.sol\":3346:3454  (isTopLevelCall && _initialized < 1) || (!AddressUpgradeable.isContract(address(this)) && _initialized == 1) */\n      dup1\n      tag_215\n      jumpi\n      pop\n        /* \"@openzeppelin/contracts-upgradeable/proxy/utils/Initializable.sol\":3426:3430  this */\n      address\n        /* \"@openzeppelin/contracts-upgradeable/utils/AddressUpgradeable.sol\":1713:1732  account.code.length */\n      extcodesize\n        /* \"@openzeppelin/contracts-upgradeable/utils/AddressUpgradeable.sol\":1713:1736  account.code.length > 0 */\n      iszero\n      dup1\n      iszero\n        /* \"@openzeppelin/contracts-upgradeable/proxy/utils/Initializable.sol\":3387:3453  !AddressUpgradeable.isContract(address(this)) && _initialized == 1 */\n      tag_215\n      jumpi\n      pop\n        /* \"@openzeppelin/contracts-upgradeable/proxy/utils/Initializable.sol\":3436:3448  _initialized */\n      and(0xff, sload(0x00))\n      0x01\n        /* \"@openzeppelin/contracts-upgradeable/proxy/utils/Initializable.sol\":3436:3453  _initialized == 1 */\n      eq\n        /* \"@openzeppelin/contracts-upgradeable/proxy/utils/Initializable.sol\":3387:3453  !AddressUpgradeable.isContract(address(this)) && _initialized == 1 */\n    tag_215:\n        /* \"@openzeppelin/contracts-upgradeable/proxy/utils/Initializable.sol\":3325:3526  require(... */\n      tag_216\n      jumpi\n      mload(0x40)\n      shl(0xe5, 0x461bcd)\n      dup2\n      mstore\n        /* \"#utility.yul\":7356:7358   */\n      0x20\n        /* \"@openzeppelin/contracts-upgradeable/proxy/utils/Initializable.sol\":3325:3526  require(... */\n      0x04\n      dup3\n      add\n        /* \"#utility.yul\":7338:7359   */\n      mstore\n        /* \"#utility.yul\":7395:7397   */\n      0x2e\n        /* \"#utility.yul\":7375:7393   */\n      0x24\n      dup3\n      add\n        /* \"#utility.yul\":7368:7398   */\n      mstore\n        /* \"#utility.yul\":7434:7468   */\n      0x496e697469616c697a61626c653a20636f6e747261637420697320616c726561\n        /* \"#utility.yul\":7414:7432   */\n      0x44\n      dup3\n      add\n        /* \"#utility.yul\":7407:7469   */\n      mstore\n      shl(0x92, 0x191e481a5b9a5d1a585b1a5e9959)\n        /* \"#utility.yul\":7485:7503   */\n      0x64\n      dup3\n      add\n        /* \"#utility.yul\":7478:7522   */\n      mstore\n        /* \"#utility.yul\":7539:7558   */\n      0x84\n      add\n        /* \"@openzeppelin/contracts-upgradeable/proxy/utils/Initializable.sol\":3325:3526  require(... */\n      tag_126\n        /* \"#utility.yul\":7154:7564   */\n      jump\n        /* \"@openzeppelin/contracts-upgradeable/proxy/utils/Initializable.sol\":3325:3526  require(... */\n    tag_216:\n        /* \"@openzeppelin/contracts-upgradeable/proxy/utils/Initializable.sol\":3536:3548  _initialized */\n      0x00\n        /* \"@openzeppelin/contracts-upgradeable/proxy/utils/Initializable.sol\":3536:3552  _initialized = 1 */\n      dup1\n      sload\n      not(0xff)\n      and\n        /* \"@openzeppelin/contracts-upgradeable/proxy/utils/Initializable.sol\":3551:3552  1 */\n      0x01\n        /* \"@openzeppelin/contracts-upgradeable/proxy/utils/Initializable.sol\":3536:3552  _initialized = 1 */\n      or\n      swap1\n      sstore\n        /* \"@openzeppelin/contracts-upgradeable/proxy/utils/Initializable.sol\":3562:3627  if (isTopLevelCall) {... */\n      dup1\n      iszero\n      tag_219\n      jumpi\n        /* \"@openzeppelin/contracts-upgradeable/proxy/utils/Initializable.sol\":3596:3609  _initializing */\n      0x00\n        /* \"@openzeppelin/contracts-upgradeable/proxy/utils/Initializable.sol\":3596:3616  _initializing = true */\n      dup1\n      sload\n      not(0xff00)\n      and\n      0x0100\n      or\n      swap1\n      sstore\n        /* \"@openzeppelin/contracts-upgradeable/proxy/utils/Initializable.sol\":3562:3627  if (isTopLevelCall) {... */\n    tag_219:\n        /* \"erc3643/erc3643/registry/implementation/IdentityRegistryStorage.sol\":799:835  _grantRole(bytes32(0), _msgSender()) */\n      tag_221\n        /* \"erc3643/erc3643/registry/implementation/IdentityRegistryStorage.sol\":818:819  0 */\n      0x00\n        /* \"@openzeppelin/contracts-upgradeable/utils/ContextUpgradeable.sol\":929:939  msg.sender */\n      caller\n        /* \"erc3643/erc3643/registry/implementation/IdentityRegistryStorage.sol\":799:809  _grantRole */\n      tag_121\n        /* \"erc3643/erc3643/registry/implementation/IdentityRegistryStorage.sol\":799:835  _grantRole(bytes32(0), _msgSender()) */\n      jump\t// in\n    tag_221:\n        /* \"erc3643/erc3643/registry/implementation/IdentityRegistryStorage.sol\":846:882  _grantRole(OWNER_ROLE, _msgSender()) */\n      tag_223\n        /* \"erc3643/erc3643/registry/implementation/IdentityRegistryStorage.sol\":679:745  0xb19546dff01e856fb3f010c267a7b1c60363cf8a4664e21cc89c26224620214e */\n      0xb19546dff01e856fb3f010c267a7b1c60363cf8a4664e21cc89c26224620214e\n        /* \"@openzeppelin/contracts-upgradeable/utils/ContextUpgradeable.sol\":929:939  msg.sender */\n      caller\n        /* \"erc3643/erc3643/registry/implementation/IdentityRegistryStorage.sol\":799:809  _grantRole */\n      tag_121\n        /* \"erc3643/erc3643/registry/implementation/IdentityRegistryStorage.sol\":799:835  _grantRole(bytes32(0), _msgSender()) */\n      jump\t// in\n        /* \"erc3643/erc3643/registry/implementation/IdentityRegistryStorage.sol\":846:882  _grantRole(OWNER_ROLE, _msgSender()) */\n    tag_223:\n        /* \"erc3643/erc3643/registry/implementation/IdentityRegistryStorage.sol\":893:929  _grantRole(AGENT_ROLE, _msgSender()) */\n      tag_225\n      0x00\n      dup1\n      mload\n      0x20\n      data_83599f2fd2d7ecec31a0c854e1dfa0cd718f43d0f25b15e620b3800dba1a8107\n      dup4\n      codecopy\n      dup2\n      mload\n      swap2\n      mstore\n        /* \"@openzeppelin/contracts-upgradeable/utils/ContextUpgradeable.sol\":929:939  msg.sender */\n      caller\n        /* \"erc3643/erc3643/registry/implementation/IdentityRegistryStorage.sol\":799:809  _grantRole */\n      tag_121\n        /* \"erc3643/erc3643/registry/implementation/IdentityRegistryStorage.sol\":799:835  _grantRole(bytes32(0), _msgSender()) */\n      jump\t// in\n        /* \"erc3643/erc3643/registry/implementation/IdentityRegistryStorage.sol\":893:929  _grantRole(AGENT_ROLE, _msgSender()) */\n    tag_225:\n        /* \"erc3643/erc3643/registry/implementation/IdentityRegistryStorage.sol\":939:955  __Ownable_init() */\n      tag_227\n        /* \"erc3643/erc3643/registry/implementation/IdentityRegistryStorage.sol\":939:953  __Ownable_init */\n      tag_228\n        /* \"erc3643/erc3643/registry/implementation/IdentityRegistryStorage.sol\":939:955  __Ownable_init() */\n      jump\t// in\n    tag_227:\n        /* \"@openzeppelin/contracts-upgradeable/proxy/utils/Initializable.sol\":3651:3665  isTopLevelCall */\n      dup1\n        /* \"@openzeppelin/contracts-upgradeable/proxy/utils/Initializable.sol\":3647:3746  if (isTopLevelCall) {... */\n      iszero\n      tag_229\n      jumpi\n        /* \"@openzeppelin/contracts-upgradeable/proxy/utils/Initializable.sol\":3697:3702  false */\n      0x00\n        /* \"@openzeppelin/contracts-upgradeable/proxy/utils/Initializable.sol\":3681:3702  _initializing = false */\n      dup1\n      sload\n      not(0xff00)\n      and\n      swap1\n      sstore\n        /* \"@openzeppelin/contracts-upgradeable/proxy/utils/Initializable.sol\":3721:3735  Initialized(1) */\n      mload(0x40)\n      0x01\n        /* \"#utility.yul\":7721:7757   */\n      dup2\n      mstore\n        /* \"@openzeppelin/contracts-upgradeable/proxy/utils/Initializable.sol\":3721:3735  Initialized(1) */\n      0x7f26b83ff96e1f2b6a682f133852f6798a09c465da95921460cefb3847402498\n      swap1\n        /* \"#utility.yul\":7709:7711   */\n      0x20\n        /* \"#utility.yul\":7694:7712   */\n      add\n        /* \"@openzeppelin/contracts-upgradeable/proxy/utils/Initializable.sol\":3721:3735  Initialized(1) */\n      mload(0x40)\n      dup1\n      swap2\n      sub\n      swap1\n      log1\n        /* \"@openzeppelin/contracts-upgradeable/proxy/utils/Initializable.sol\":3647:3746  if (isTopLevelCall) {... */\n    tag_229:\n        /* \"@openzeppelin/contracts-upgradeable/proxy/utils/Initializable.sol\":3269:3752  {... */\n      pop\n        /* \"erc3643/erc3643/registry/implementation/IdentityRegistryStorage.sol\":752:962  function init() external initializer {... */\n      jump\t// out\n        /* \"erc3643/erc3643/registry/implementation/IdentityRegistryStorage.sol\":1778:2414  function modifyStoredIdentity(address _userAddress, IIdentity _identity)... */\n    tag_106:\n      0x00\n      dup1\n      mload\n      0x20\n      data_83599f2fd2d7ecec31a0c854e1dfa0cd718f43d0f25b15e620b3800dba1a8107\n      dup4\n      codecopy\n      dup2\n      mload\n      swap2\n      mstore\n        /* \"@openzeppelin/contracts-upgradeable/access/AccessControlUpgradeable.sol\":2928:2944  _checkRole(role) */\n      tag_233\n        /* \"erc3643/erc3643/registry/implementation/IdentityRegistryStorage.sol\":561:627  0xcab5a0bfe0b79d2c4b1c2e02599fa044d115b7511f9659307cb4276950967709 */\n      dup2\n        /* \"@openzeppelin/contracts-upgradeable/access/AccessControlUpgradeable.sol\":2928:2938  _checkRole */\n      tag_118\n        /* \"@openzeppelin/contracts-upgradeable/access/AccessControlUpgradeable.sol\":2928:2944  _checkRole(role) */\n      jump\t// in\n    tag_233:\n      sub(shl(0xa0, 0x01), 0x01)\n        /* \"erc3643/erc3643/registry/implementation/IdentityRegistryStorage.sol\":1949:1975  _userAddress != address(0) */\n      dup4\n      and\n      iszero\n      dup1\n      iszero\n      swap1\n        /* \"erc3643/erc3643/registry/implementation/IdentityRegistryStorage.sol\":1949:2011  _userAddress != address(0) && address(_identity) != address(0) */\n      tag_235\n      jumpi\n      pop\n      sub(shl(0xa0, 0x01), 0x01)\n        /* \"erc3643/erc3643/registry/implementation/IdentityRegistryStorage.sol\":1979:2011  address(_identity) != address(0) */\n      dup3\n      and\n      iszero\n      iszero\n        /* \"erc3643/erc3643/registry/implementation/IdentityRegistryStorage.sol\":1949:2011  _userAddress != address(0) && address(_identity) != address(0) */\n    tag_235:\n        /* \"erc3643/erc3643/registry/implementation/IdentityRegistryStorage.sol\":1928:2068  require(... */\n      tag_236\n      jumpi\n      mload(0x40)\n      shl(0xe5, 0x461bcd)\n      dup2\n      mstore\n      0x04\n      add\n      tag_126\n      swap1\n      tag_133\n      jump\t// in\n    tag_236:\n      sub(shl(0xa0, 0x01), 0x01)\n        /* \"erc3643/erc3643/registry/implementation/IdentityRegistryStorage.sol\":2107:2132  _identities[_userAddress] */\n      dup4\n      dup2\n      and\n        /* \"erc3643/erc3643/registry/implementation/IdentityRegistryStorage.sol\":2162:2163  0 */\n      0x00\n        /* \"erc3643/erc3643/registry/implementation/IdentityRegistryStorage.sol\":2107:2132  _identities[_userAddress] */\n      swap1\n      dup2\n      mstore\n        /* \"erc3643/erc3643/registry/implementation/IdentityRegistryStorage.sol\":2107:2118  _identities */\n      0xc9\n        /* \"erc3643/erc3643/registry/implementation/IdentityRegistryStorage.sol\":2107:2132  _identities[_userAddress] */\n      0x20\n      mstore\n      0x40\n      swap1\n      keccak256\n        /* \"erc3643/erc3643/registry/implementation/IdentityRegistryStorage.sol\":2107:2149  _identities[_userAddress].identityContract */\n      sload\n      and\n        /* \"erc3643/erc3643/registry/implementation/IdentityRegistryStorage.sol\":2078:2212  require(... */\n      tag_238\n      jumpi\n      mload(0x40)\n      shl(0xe5, 0x461bcd)\n      dup2\n      mstore\n      0x04\n      add\n      tag_126\n      swap1\n      tag_185\n      jump\t// in\n    tag_238:\n      sub(shl(0xa0, 0x01), 0x01)\n        /* \"erc3643/erc3643/registry/implementation/IdentityRegistryStorage.sol\":2246:2271  _identities[_userAddress] */\n      dup1\n      dup5\n      and\n        /* \"erc3643/erc3643/registry/implementation/IdentityRegistryStorage.sol\":2222:2243  IIdentity oldIdentity */\n      0x00\n        /* \"erc3643/erc3643/registry/implementation/IdentityRegistryStorage.sol\":2246:2271  _identities[_userAddress] */\n      swap1\n      dup2\n      mstore\n        /* \"erc3643/erc3643/registry/implementation/IdentityRegistryStorage.sol\":2246:2257  _identities */\n      0xc9\n        /* \"erc3643/erc3643/registry/implementation/IdentityRegistryStorage.sol\":2246:2271  _identities[_userAddress] */\n      0x20\n      mstore\n      0x40\n      dup1\n      dup3\n      keccak256\n        /* \"erc3643/erc3643/registry/implementation/IdentityRegistryStorage.sol\":2246:2288  _identities[_userAddress].identityContract */\n      dup1\n      sload\n        /* \"erc3643/erc3643/registry/implementation/IdentityRegistryStorage.sol\":2298:2352  _identities[_userAddress].identityContract = _identity */\n      dup7\n      dup6\n      and\n      not(sub(shl(0xa0, 0x01), 0x01))\n      dup3\n      and\n      dup2\n      or\n      swap1\n      swap3\n      sstore\n        /* \"erc3643/erc3643/registry/implementation/IdentityRegistryStorage.sol\":2367:2407  IdentityModified(oldIdentity, _identity) */\n      swap2\n      mload\n        /* \"erc3643/erc3643/registry/implementation/IdentityRegistryStorage.sol\":2246:2288  _identities[_userAddress].identityContract */\n      swap2\n      swap1\n      swap4\n      and\n      swap3\n        /* \"erc3643/erc3643/registry/implementation/IdentityRegistryStorage.sol\":2298:2352  _identities[_userAddress].identityContract = _identity */\n      swap2\n        /* \"erc3643/erc3643/registry/implementation/IdentityRegistryStorage.sol\":2246:2288  _identities[_userAddress].identityContract */\n      dup4\n      swap2\n        /* \"erc3643/erc3643/registry/implementation/IdentityRegistryStorage.sol\":2367:2407  IdentityModified(oldIdentity, _identity) */\n      0x556ce885dfcea52155c773f1ed2e58781c51945c13030ab8f793c61f51d1b808\n      swap2\n        /* \"erc3643/erc3643/registry/implementation/IdentityRegistryStorage.sol\":2222:2243  IIdentity oldIdentity */\n      swap1\n        /* \"erc3643/erc3643/registry/implementation/IdentityRegistryStorage.sol\":2367:2407  IdentityModified(oldIdentity, _identity) */\n      log3\n        /* \"erc3643/erc3643/registry/implementation/IdentityRegistryStorage.sol\":1918:2414  {... */\n      pop\n        /* \"erc3643/erc3643/registry/implementation/IdentityRegistryStorage.sol\":1778:2414  function modifyStoredIdentity(address _userAddress, IIdentity _identity)... */\n      pop\n      pop\n      pop\n      jump\t// out\n        /* \"@openzeppelin/contracts-upgradeable/access/OwnableUpgradeable.sol\":2314:2512  function transferOwnership(address newOwner) public virtual onlyOwner {... */\n    tag_109:\n        /* \"@openzeppelin/contracts-upgradeable/access/OwnableUpgradeable.sol\":1334:1347  _checkOwner() */\n      tag_241\n        /* \"@openzeppelin/contracts-upgradeable/access/OwnableUpgradeable.sol\":1334:1345  _checkOwner */\n      tag_141\n        /* \"@openzeppelin/contracts-upgradeable/access/OwnableUpgradeable.sol\":1334:1347  _checkOwner() */\n      jump\t// in\n    tag_241:\n      sub(shl(0xa0, 0x01), 0x01)\n        /* \"@openzeppelin/contracts-upgradeable/access/OwnableUpgradeable.sol\":2402:2424  newOwner != address(0) */\n      dup2\n      and\n        /* \"@openzeppelin/contracts-upgradeable/access/OwnableUpgradeable.sol\":2394:2467  require(newOwner != address(0), \"Ownable: new owner is the zero address\") */\n      tag_243\n      jumpi\n      mload(0x40)\n      shl(0xe5, 0x461bcd)\n      dup2\n      mstore\n        /* \"#utility.yul\":7970:7972   */\n      0x20\n        /* \"@openzeppelin/contracts-upgradeable/access/OwnableUpgradeable.sol\":2394:2467  require(newOwner != address(0), \"Ownable: new owner is the zero address\") */\n      0x04\n      dup3\n      add\n        /* \"#utility.yul\":7952:7973   */\n      mstore\n        /* \"#utility.yul\":8009:8011   */\n      0x26\n        /* \"#utility.yul\":7989:8007   */\n      0x24\n      dup3\n      add\n        /* \"#utility.yul\":7982:8012   */\n      mstore\n        /* \"#utility.yul\":8048:8082   */\n      0x4f776e61626c653a206e6577206f776e657220697320746865207a65726f2061\n        /* \"#utility.yul\":8028:8046   */\n      0x44\n      dup3\n      add\n        /* \"#utility.yul\":8021:8083   */\n      mstore\n      shl(0xd0, 0x646472657373)\n        /* \"#utility.yul\":8099:8117   */\n      0x64\n      dup3\n      add\n        /* \"#utility.yul\":8092:8128   */\n      mstore\n        /* \"#utility.yul\":8145:8164   */\n      0x84\n      add\n        /* \"@openzeppelin/contracts-upgradeable/access/OwnableUpgradeable.sol\":2394:2467  require(newOwner != address(0), \"Ownable: new owner is the zero address\") */\n      tag_126\n        /* \"#utility.yul\":7768:8170   */\n      jump\n        /* \"@openzeppelin/contracts-upgradeable/access/OwnableUpgradeable.sol\":2394:2467  require(newOwner != address(0), \"Ownable: new owner is the zero address\") */\n    tag_243:\n        /* \"@openzeppelin/contracts-upgradeable/access/OwnableUpgradeable.sol\":2477:2505  _transferOwnership(newOwner) */\n      tag_229\n        /* \"@openzeppelin/contracts-upgradeable/access/OwnableUpgradeable.sol\":2496:2504  newOwner */\n      dup2\n        /* \"@openzeppelin/contracts-upgradeable/access/OwnableUpgradeable.sol\":2477:2495  _transferOwnership */\n      tag_144\n        /* \"@openzeppelin/contracts-upgradeable/access/OwnableUpgradeable.sol\":2477:2505  _transferOwnership(newOwner) */\n      jump\t// in\n        /* \"@openzeppelin/contracts-upgradeable/access/AccessControlUpgradeable.sol\":3768:3871  function _checkRole(bytes32 role) internal view virtual {... */\n    tag_118:\n        /* \"@openzeppelin/contracts-upgradeable/access/AccessControlUpgradeable.sol\":3834:3864  _checkRole(role, _msgSender()) */\n      tag_229\n        /* \"@openzeppelin/contracts-upgradeable/access/AccessControlUpgradeable.sol\":3845:3849  role */\n      dup2\n        /* \"@openzeppelin/contracts-upgradeable/utils/ContextUpgradeable.sol\":929:939  msg.sender */\n      caller\n        /* \"@openzeppelin/contracts-upgradeable/access/AccessControlUpgradeable.sol\":3834:3844  _checkRole */\n      tag_251\n        /* \"@openzeppelin/contracts-upgradeable/access/AccessControlUpgradeable.sol\":3834:3864  _checkRole(role, _msgSender()) */\n      jump\t// in\n        /* \"@openzeppelin/contracts-upgradeable/access/AccessControlUpgradeable.sol\":7917:8150  function _grantRole(bytes32 role, address account) internal virtual {... */\n    tag_121:\n        /* \"@openzeppelin/contracts-upgradeable/access/AccessControlUpgradeable.sol\":8000:8022  hasRole(role, account) */\n      tag_253\n        /* \"@openzeppelin/contracts-upgradeable/access/AccessControlUpgradeable.sol\":8008:8012  role */\n      dup3\n        /* \"@openzeppelin/contracts-upgradeable/access/AccessControlUpgradeable.sol\":8014:8021  account */\n      dup3\n        /* \"@openzeppelin/contracts-upgradeable/access/AccessControlUpgradeable.sol\":8000:8007  hasRole */\n      tag_72\n        /* \"@openzeppelin/contracts-upgradeable/access/AccessControlUpgradeable.sol\":8000:8022  hasRole(role, account) */\n      jump\t// in\n    tag_253:\n        /* \"@openzeppelin/contracts-upgradeable/access/AccessControlUpgradeable.sol\":7995:8144  if (!hasRole(role, account)) {... */\n      tag_128\n      jumpi\n        /* \"@openzeppelin/contracts-upgradeable/access/AccessControlUpgradeable.sol\":8038:8050  _roles[role] */\n      0x00\n      dup3\n      dup2\n      mstore\n        /* \"@openzeppelin/contracts-upgradeable/access/AccessControlUpgradeable.sol\":8038:8044  _roles */\n      0x65\n        /* \"@openzeppelin/contracts-upgradeable/access/AccessControlUpgradeable.sol\":8038:8050  _roles[role] */\n      0x20\n      swap1\n      dup2\n      mstore\n      0x40\n      dup1\n      dup4\n      keccak256\n      sub(shl(0xa0, 0x01), 0x01)\n        /* \"@openzeppelin/contracts-upgradeable/access/AccessControlUpgradeable.sol\":8038:8067  _roles[role].members[account] */\n      dup6\n      and\n      dup5\n      mstore\n      swap1\n      swap2\n      mstore\n      swap1\n      keccak256\n        /* \"@openzeppelin/contracts-upgradeable/access/AccessControlUpgradeable.sol\":8038:8074  _roles[role].members[account] = true */\n      dup1\n      sload\n      not(0xff)\n      and\n        /* \"@openzeppelin/contracts-upgradeable/access/AccessControlUpgradeable.sol\":8070:8074  true */\n      0x01\n        /* \"@openzeppelin/contracts-upgradeable/access/AccessControlUpgradeable.sol\":8038:8074  _roles[role].members[account] = true */\n      or\n      swap1\n      sstore\n        /* \"@openzeppelin/contracts-upgradeable/access/AccessControlUpgradeable.sol\":8120:8132  _msgSender() */\n      tag_255\n        /* \"@openzeppelin/contracts-upgradeable/utils/ContextUpgradeable.sol\":929:939  msg.sender */\n      caller\n      swap1\n        /* \"@openzeppelin/contracts-upgradeable/utils/ContextUpgradeable.sol\":850:946  function _msgSender() internal view virtual returns (address) {... */\n      jump\n        /* \"@openzeppelin/contracts-upgradeable/access/AccessControlUpgradeable.sol\":8120:8132  _msgSender() */\n    tag_255:\n      sub(shl(0xa0, 0x01), 0x01)\n        /* \"@openzeppelin/contracts-upgradeable/access/AccessControlUpgradeable.sol\":8093:8133  RoleGranted(role, account, _msgSender()) */\n      and\n        /* \"@openzeppelin/contracts-upgradeable/access/AccessControlUpgradeable.sol\":8111:8118  account */\n      dup2\n      sub(shl(0xa0, 0x01), 0x01)\n        /* \"@openzeppelin/contracts-upgradeable/access/AccessControlUpgradeable.sol\":8093:8133  RoleGranted(role, account, _msgSender()) */\n      and\n        /* \"@openzeppelin/contracts-upgradeable/access/AccessControlUpgradeable.sol\":8105:8109  role */\n      dup4\n        /* \"@openzeppelin/contracts-upgradeable/access/AccessControlUpgradeable.sol\":8093:8133  RoleGranted(role, account, _msgSender()) */\n      0x2f8788117e7eff1d82e926ec794901d17c78024a50270940304540a733656f0d\n      mload(0x40)\n      mload(0x40)\n      dup1\n      swap2\n      sub\n      swap1\n      log4\n        /* \"@openzeppelin/contracts-upgradeable/access/AccessControlUpgradeable.sol\":7917:8150  function _grantRole(bytes32 role, address account) internal virtual {... */\n      pop\n      pop\n      jump\t// out\n        /* \"@openzeppelin/contracts-upgradeable/access/AccessControlUpgradeable.sol\":8321:8555  function _revokeRole(bytes32 role, address account) internal virtual {... */\n    tag_129:\n        /* \"@openzeppelin/contracts-upgradeable/access/AccessControlUpgradeable.sol\":8404:8426  hasRole(role, account) */\n      tag_258\n        /* \"@openzeppelin/contracts-upgradeable/access/AccessControlUpgradeable.sol\":8412:8416  role */\n      dup3\n        /* \"@openzeppelin/contracts-upgradeable/access/AccessControlUpgradeable.sol\":8418:8425  account */\n      dup3\n        /* \"@openzeppelin/contracts-upgradeable/access/AccessControlUpgradeable.sol\":8404:8411  hasRole */\n      tag_72\n        /* \"@openzeppelin/contracts-upgradeable/access/AccessControlUpgradeable.sol\":8404:8426  hasRole(role, account) */\n      jump\t// in\n    tag_258:\n        /* \"@openzeppelin/contracts-upgradeable/access/AccessControlUpgradeable.sol\":8400:8549  if (hasRole(role, account)) {... */\n      iszero\n      tag_128\n      jumpi\n        /* \"@openzeppelin/contracts-upgradeable/access/AccessControlUpgradeable.sol\":8474:8479  false */\n      0x00\n        /* \"@openzeppelin/contracts-upgradeable/access/AccessControlUpgradeable.sol\":8442:8454  _roles[role] */\n      dup3\n      dup2\n      mstore\n        /* \"@openzeppelin/contracts-upgradeable/access/AccessControlUpgradeable.sol\":8442:8448  _roles */\n      0x65\n        /* \"@openzeppelin/contracts-upgradeable/access/AccessControlUpgradeable.sol\":8442:8454  _roles[role] */\n      0x20\n      swap1\n      dup2\n      mstore\n      0x40\n      dup1\n      dup4\n      keccak256\n      sub(shl(0xa0, 0x01), 0x01)\n        /* \"@openzeppelin/contracts-upgradeable/access/AccessControlUpgradeable.sol\":8442:8471  _roles[role].members[account] */\n      dup6\n      and\n      dup1\n      dup6\n      mstore\n      swap3\n      mstore\n      dup1\n      dup4\n      keccak256\n        /* \"@openzeppelin/contracts-upgradeable/access/AccessControlUpgradeable.sol\":8442:8479  _roles[role].members[account] = false */\n      dup1\n      sload\n      not(0xff)\n      and\n      swap1\n      sstore\n        /* \"@openzeppelin/contracts-upgradeable/access/AccessControlUpgradeable.sol\":8498:8538  RoleRevoked(role, account, _msgSender()) */\n      mload\n        /* \"@openzeppelin/contracts-upgradeable/utils/ContextUpgradeable.sol\":929:939  msg.sender */\n      caller\n      swap3\n        /* \"@openzeppelin/contracts-upgradeable/access/AccessControlUpgradeable.sol\":8442:8454  _roles[role] */\n      dup6\n      swap2\n        /* \"@openzeppelin/contracts-upgradeable/access/AccessControlUpgradeable.sol\":8498:8538  RoleRevoked(role, account, _msgSender()) */\n      0xf6391f5c32d9c69d2a47ea670b442974b53935d1edc7fd64eb21e047a839171b\n      swap2\n        /* \"@openzeppelin/contracts-upgradeable/access/AccessControlUpgradeable.sol\":8474:8479  false */\n      swap1\n        /* \"@openzeppelin/contracts-upgradeable/access/AccessControlUpgradeable.sol\":8498:8538  RoleRevoked(role, account, _msgSender()) */\n      log4\n        /* \"@openzeppelin/contracts-upgradeable/access/AccessControlUpgradeable.sol\":8321:8555  function _revokeRole(bytes32 role, address account) internal virtual {... */\n      pop\n      pop\n      jump\t// out\n        /* \"@openzeppelin/contracts-upgradeable/access/OwnableUpgradeable.sol\":1599:1729  function _checkOwner() internal view virtual {... */\n    tag_141:\n        /* \"@openzeppelin/contracts-upgradeable/access/OwnableUpgradeable.sol\":1513:1519  _owner */\n      and(sub(shl(0xa0, 0x01), 0x01), sload(0x97))\n        /* \"@openzeppelin/contracts-upgradeable/utils/ContextUpgradeable.sol\":929:939  msg.sender */\n      caller\n        /* \"@openzeppelin/contracts-upgradeable/access/OwnableUpgradeable.sol\":1662:1685  owner() == _msgSender() */\n      eq\n        /* \"@openzeppelin/contracts-upgradeable/access/OwnableUpgradeable.sol\":1654:1722  require(owner() == _msgSender(), \"Ownable: caller is not the owner\") */\n      tag_143\n      jumpi\n      mload(0x40)\n      shl(0xe5, 0x461bcd)\n      dup2\n      mstore\n        /* \"#utility.yul\":8377:8379   */\n      0x20\n        /* \"@openzeppelin/contracts-upgradeable/access/OwnableUpgradeable.sol\":1654:1722  require(owner() == _msgSender(), \"Ownable: caller is not the owner\") */\n      0x04\n      dup3\n      add\n        /* \"#utility.yul\":8359:8380   */\n      dup2\n      swap1\n      mstore\n        /* \"#utility.yul\":8396:8414   */\n      0x24\n      dup3\n      add\n        /* \"#utility.yul\":8389:8419   */\n      mstore\n        /* \"#utility.yul\":8455:8489   */\n      0x4f776e61626c653a2063616c6c6572206973206e6f7420746865206f776e6572\n        /* \"#utility.yul\":8435:8453   */\n      0x44\n      dup3\n      add\n        /* \"#utility.yul\":8428:8490   */\n      mstore\n        /* \"#utility.yul\":8507:8525   */\n      0x64\n      add\n        /* \"@openzeppelin/contracts-upgradeable/access/OwnableUpgradeable.sol\":1654:1722  require(owner() == _msgSender(), \"Ownable: caller is not the owner\") */\n      tag_126\n        /* \"#utility.yul\":8175:8531   */\n      jump\n        /* \"@openzeppelin/contracts-upgradeable/access/OwnableUpgradeable.sol\":2666:2853  function _transferOwnership(address newOwner) internal virtual {... */\n    tag_144:\n        /* \"@openzeppelin/contracts-upgradeable/access/OwnableUpgradeable.sol\":2758:2764  _owner */\n      0x97\n      dup1\n      sload\n      sub(shl(0xa0, 0x01), 0x01)\n        /* \"@openzeppelin/contracts-upgradeable/access/OwnableUpgradeable.sol\":2774:2791  _owner = newOwner */\n      dup4\n      dup2\n      and\n      not(sub(shl(0xa0, 0x01), 0x01))\n      dup4\n      and\n      dup2\n      or\n      swap1\n      swap4\n      sstore\n        /* \"@openzeppelin/contracts-upgradeable/access/OwnableUpgradeable.sol\":2806:2846  OwnershipTransferred(oldOwner, newOwner) */\n      mload(0x40)\n        /* \"@openzeppelin/contracts-upgradeable/access/OwnableUpgradeable.sol\":2758:2764  _owner */\n      swap2\n      and\n      swap2\n        /* \"@openzeppelin/contracts-upgradeable/access/OwnableUpgradeable.sol\":2774:2791  _owner = newOwner */\n      swap1\n        /* \"@openzeppelin/contracts-upgradeable/access/OwnableUpgradeable.sol\":2758:2764  _owner */\n      dup3\n      swap1\n        /* \"@openzeppelin/contracts-upgradeable/access/OwnableUpgradeable.sol\":2806:2846  OwnershipTransferred(oldOwner, newOwner) */\n      0x8be0079c531659141344cd1fd0a4f28419497f9722a3daafe3b4186f6b6457e0\n      swap1\n        /* \"@openzeppelin/contracts-upgradeable/access/OwnableUpgradeable.sol\":2739:2755  address oldOwner */\n      0x00\n      swap1\n        /* \"@openzeppelin/contracts-upgradeable/access/OwnableUpgradeable.sol\":2806:2846  OwnershipTransferred(oldOwner, newOwner) */\n      log3\n        /* \"@openzeppelin/contracts-upgradeable/access/OwnableUpgradeable.sol\":2729:2853  {... */\n      pop\n        /* \"@openzeppelin/contracts-upgradeable/access/OwnableUpgradeable.sol\":2666:2853  function _transferOwnership(address newOwner) internal virtual {... */\n      pop\n      jump\t// out\n        /* \"@openzeppelin/contracts-upgradeable/access/OwnableUpgradeable.sol\":1003:1098  function __Ownable_init() internal onlyInitializing {... */\n    tag_228:\n        /* \"@openzeppelin/contracts-upgradeable/proxy/utils/Initializable.sol\":5374:5387  _initializing */\n      sload(0x00)\n      0x0100\n      swap1\n      div\n      0xff\n      and\n        /* \"@openzeppelin/contracts-upgradeable/proxy/utils/Initializable.sol\":5366:5435  require(_initializing, \"Initializable: contract is not initializing\") */\n      tag_270\n      jumpi\n      mload(0x40)\n      shl(0xe5, 0x461bcd)\n      dup2\n      mstore\n      0x04\n      add\n      tag_126\n      swap1\n      tag_272\n      jump\t// in\n    tag_270:\n        /* \"@openzeppelin/contracts-upgradeable/access/OwnableUpgradeable.sol\":1065:1091  __Ownable_init_unchained() */\n      tag_143\n        /* \"@openzeppelin/contracts-upgradeable/access/OwnableUpgradeable.sol\":1065:1089  __Ownable_init_unchained */\n      tag_275\n        /* \"@openzeppelin/contracts-upgradeable/access/OwnableUpgradeable.sol\":1065:1091  __Ownable_init_unchained() */\n      jump\t// in\n        /* \"@openzeppelin/contracts-upgradeable/access/AccessControlUpgradeable.sol\":4152:4653  function _checkRole(bytes32 role, address account) internal view virtual {... */\n    tag_251:\n        /* \"@openzeppelin/contracts-upgradeable/access/AccessControlUpgradeable.sol\":4240:4262  hasRole(role, account) */\n      tag_277\n        /* \"@openzeppelin/contracts-upgradeable/access/AccessControlUpgradeable.sol\":4248:4252  role */\n      dup3\n        /* \"@openzeppelin/contracts-upgradeable/access/AccessControlUpgradeable.sol\":4254:4261  account */\n      dup3\n        /* \"@openzeppelin/contracts-upgradeable/access/AccessControlUpgradeable.sol\":4240:4247  hasRole */\n      tag_72\n        /* \"@openzeppelin/contracts-upgradeable/access/AccessControlUpgradeable.sol\":4240:4262  hasRole(role, account) */\n      jump\t// in\n    tag_277:\n        /* \"@openzeppelin/contracts-upgradeable/access/AccessControlUpgradeable.sol\":4235:4647  if (!hasRole(role, account)) {... */\n      tag_128\n      jumpi\n        /* \"@openzeppelin/contracts-upgradeable/access/AccessControlUpgradeable.sol\":4423:4462  StringsUpgradeable.toHexString(account) */\n      tag_279\n        /* \"@openzeppelin/contracts-upgradeable/access/AccessControlUpgradeable.sol\":4454:4461  account */\n      dup2\n        /* \"@openzeppelin/contracts-upgradeable/access/AccessControlUpgradeable.sol\":4423:4453  StringsUpgradeable.toHexString */\n      tag_280\n        /* \"@openzeppelin/contracts-upgradeable/access/AccessControlUpgradeable.sol\":4423:4462  StringsUpgradeable.toHexString(account) */\n      jump\t// in\n    tag_279:\n        /* \"@openzeppelin/contracts-upgradeable/access/AccessControlUpgradeable.sol\":4533:4582  StringsUpgradeable.toHexString(uint256(role), 32) */\n      tag_281\n        /* \"@openzeppelin/contracts-upgradeable/access/AccessControlUpgradeable.sol\":4572:4576  role */\n      dup4\n        /* \"@openzeppelin/contracts-upgradeable/access/AccessControlUpgradeable.sol\":4579:4581  32 */\n      0x20\n        /* \"@openzeppelin/contracts-upgradeable/access/AccessControlUpgradeable.sol\":4533:4563  StringsUpgradeable.toHexString */\n      tag_282\n        /* \"@openzeppelin/contracts-upgradeable/access/AccessControlUpgradeable.sol\":4533:4582  StringsUpgradeable.toHexString(uint256(role), 32) */\n      jump\t// in\n    tag_281:\n        /* \"@openzeppelin/contracts-upgradeable/access/AccessControlUpgradeable.sol\":4330:4604  abi.encodePacked(... */\n      add(0x20, mload(0x40))\n      tag_283\n      swap3\n      swap2\n      swap1\n      tag_284\n      jump\t// in\n    tag_283:\n      0x40\n      dup1\n      mload\n      not(0x1f)\n      dup2\n      dup5\n      sub\n      add\n      dup2\n      mstore\n      swap1\n      dup3\n      swap1\n      mstore\n      shl(0xe5, 0x461bcd)\n        /* \"@openzeppelin/contracts-upgradeable/access/AccessControlUpgradeable.sol\":4278:4636  revert(... */\n      dup3\n      mstore\n      tag_126\n      swap2\n      0x04\n      add\n      tag_286\n      jump\t// in\n        /* \"@openzeppelin/contracts-upgradeable/access/OwnableUpgradeable.sol\":1104:1215  function __Ownable_init_unchained() internal onlyInitializing {... */\n    tag_275:\n        /* \"@openzeppelin/contracts-upgradeable/proxy/utils/Initializable.sol\":5374:5387  _initializing */\n      sload(0x00)\n      0x0100\n      swap1\n      div\n      0xff\n      and\n        /* \"@openzeppelin/contracts-upgradeable/proxy/utils/Initializable.sol\":5366:5435  require(_initializing, \"Initializable: contract is not initializing\") */\n      tag_288\n      jumpi\n      mload(0x40)\n      shl(0xe5, 0x461bcd)\n      dup2\n      mstore\n      0x04\n      add\n      tag_126\n      swap1\n      tag_272\n      jump\t// in\n    tag_288:\n        /* \"@openzeppelin/contracts-upgradeable/access/OwnableUpgradeable.sol\":1176:1208  _transferOwnership(_msgSender()) */\n      tag_143\n        /* \"@openzeppelin/contracts-upgradeable/utils/ContextUpgradeable.sol\":929:939  msg.sender */\n      caller\n        /* \"@openzeppelin/contracts-upgradeable/access/OwnableUpgradeable.sol\":1176:1194  _transferOwnership */\n      tag_144\n        /* \"@openzeppelin/contracts-upgradeable/access/OwnableUpgradeable.sol\":1176:1208  _transferOwnership(_msgSender()) */\n      jump\t// in\n        /* \"@openzeppelin/contracts-upgradeable/utils/StringsUpgradeable.sol\":2473:2622  function toHexString(address addr) internal pure returns (string memory) {... */\n    tag_280:\n        /* \"@openzeppelin/contracts-upgradeable/utils/StringsUpgradeable.sol\":2531:2544  string memory */\n      0x60\n        /* \"@openzeppelin/contracts-upgradeable/utils/StringsUpgradeable.sol\":2563:2615  toHexString(uint256(uint160(addr)), _ADDRESS_LENGTH) */\n      tag_112\n      sub(shl(0xa0, 0x01), 0x01)\n        /* \"@openzeppelin/contracts-upgradeable/utils/StringsUpgradeable.sol\":2575:2597  uint256(uint160(addr)) */\n      dup4\n      and\n        /* \"@openzeppelin/contracts-upgradeable/utils/StringsUpgradeable.sol\":376:378  20 */\n      0x14\n        /* \"@openzeppelin/contracts-upgradeable/utils/StringsUpgradeable.sol\":1884:2321  function toHexString(uint256 value, uint256 length) internal pure returns (string memory) {... */\n    tag_282:\n        /* \"@openzeppelin/contracts-upgradeable/utils/StringsUpgradeable.sol\":1959:1972  string memory */\n      0x60\n        /* \"@openzeppelin/contracts-upgradeable/utils/StringsUpgradeable.sol\":1984:2003  bytes memory buffer */\n      0x00\n        /* \"@openzeppelin/contracts-upgradeable/utils/StringsUpgradeable.sol\":2016:2026  2 * length */\n      tag_296\n        /* \"@openzeppelin/contracts-upgradeable/utils/StringsUpgradeable.sol\":2020:2026  length */\n      dup4\n        /* \"@openzeppelin/contracts-upgradeable/utils/StringsUpgradeable.sol\":2016:2017  2 */\n      0x02\n        /* \"@openzeppelin/contracts-upgradeable/utils/StringsUpgradeable.sol\":2016:2026  2 * length */\n      tag_297\n      jump\t// in\n    tag_296:\n        /* \"@openzeppelin/contracts-upgradeable/utils/StringsUpgradeable.sol\":2016:2030  2 * length + 2 */\n      tag_298\n      swap1\n        /* \"@openzeppelin/contracts-upgradeable/utils/StringsUpgradeable.sol\":2029:2030  2 */\n      0x02\n        /* \"@openzeppelin/contracts-upgradeable/utils/StringsUpgradeable.sol\":2016:2030  2 * length + 2 */\n      tag_299\n      jump\t// in\n    tag_298:\n        /* \"@openzeppelin/contracts-upgradeable/utils/StringsUpgradeable.sol\":2006:2031  new bytes(2 * length + 2) */\n      0xffffffffffffffff\n      dup2\n      gt\n      iszero\n      tag_301\n      jumpi\n      tag_301\n      tag_302\n      jump\t// in\n    tag_301:\n      mload(0x40)\n      swap1\n      dup1\n      dup3\n      mstore\n      dup1\n      0x1f\n      add\n      not(0x1f)\n      and\n      0x20\n      add\n      dup3\n      add\n      0x40\n      mstore\n      dup1\n      iszero\n      tag_303\n      jumpi\n      0x20\n      dup3\n      add\n      dup2\n      dup1\n      calldatasize\n      dup4\n      calldatacopy\n      add\n      swap1\n      pop\n    tag_303:\n      pop\n        /* \"@openzeppelin/contracts-upgradeable/utils/StringsUpgradeable.sol\":1984:2031  bytes memory buffer = new bytes(2 * length + 2) */\n      swap1\n      pop\n      shl(0xfc, 0x03)\n        /* \"@openzeppelin/contracts-upgradeable/utils/StringsUpgradeable.sol\":2041:2047  buffer */\n      dup2\n        /* \"@openzeppelin/contracts-upgradeable/utils/StringsUpgradeable.sol\":2048:2049  0 */\n      0x00\n        /* \"@openzeppelin/contracts-upgradeable/utils/StringsUpgradeable.sol\":2041:2050  buffer[0] */\n      dup2\n      mload\n      dup2\n      lt\n      tag_305\n      jumpi\n      tag_305\n      tag_160\n      jump\t// in\n    tag_305:\n      0x20\n      add\n      add\n        /* \"@openzeppelin/contracts-upgradeable/utils/StringsUpgradeable.sol\":2041:2056  buffer[0] = \"0\" */\n      swap1\n      not(sub(shl(0xf8, 0x01), 0x01))\n      and\n      swap1\n      dup2\n      0x00\n      byte\n      swap1\n      mstore8\n      pop\n      shl(0xfb, 0x0f)\n        /* \"@openzeppelin/contracts-upgradeable/utils/StringsUpgradeable.sol\":2066:2072  buffer */\n      dup2\n        /* \"@openzeppelin/contracts-upgradeable/utils/StringsUpgradeable.sol\":2073:2074  1 */\n      0x01\n        /* \"@openzeppelin/contracts-upgradeable/utils/StringsUpgradeable.sol\":2066:2075  buffer[1] */\n      dup2\n      mload\n      dup2\n      lt\n      tag_307\n      jumpi\n      tag_307\n      tag_160\n      jump\t// in\n    tag_307:\n      0x20\n      add\n      add\n        /* \"@openzeppelin/contracts-upgradeable/utils/StringsUpgradeable.sol\":2066:2081  buffer[1] = \"x\" */\n      swap1\n      not(sub(shl(0xf8, 0x01), 0x01))\n      and\n      swap1\n      dup2\n      0x00\n      byte\n      swap1\n      mstore8\n      pop\n        /* \"@openzeppelin/contracts-upgradeable/utils/StringsUpgradeable.sol\":2096:2105  uint256 i */\n      0x00\n        /* \"@openzeppelin/contracts-upgradeable/utils/StringsUpgradeable.sol\":2108:2118  2 * length */\n      tag_311\n        /* \"@openzeppelin/contracts-upgradeable/utils/StringsUpgradeable.sol\":2112:2118  length */\n      dup5\n        /* \"@openzeppelin/contracts-upgradeable/utils/StringsUpgradeable.sol\":2108:2109  2 */\n      0x02\n        /* \"@openzeppelin/contracts-upgradeable/utils/StringsUpgradeable.sol\":2108:2118  2 * length */\n      tag_297\n      jump\t// in\n    tag_311:\n        /* \"@openzeppelin/contracts-upgradeable/utils/StringsUpgradeable.sol\":2108:2122  2 * length + 1 */\n      tag_312\n      swap1\n        /* \"@openzeppelin/contracts-upgradeable/utils/StringsUpgradeable.sol\":2121:2122  1 */\n      0x01\n        /* \"@openzeppelin/contracts-upgradeable/utils/StringsUpgradeable.sol\":2108:2122  2 * length + 1 */\n      tag_299\n      jump\t// in\n    tag_312:\n        /* \"@openzeppelin/contracts-upgradeable/utils/StringsUpgradeable.sol\":2096:2122  uint256 i = 2 * length + 1 */\n      swap1\n      pop\n        /* \"@openzeppelin/contracts-upgradeable/utils/StringsUpgradeable.sol\":2091:2219  for (uint256 i = 2 * length + 1; i > 1; --i) {... */\n    tag_308:\n        /* \"@openzeppelin/contracts-upgradeable/utils/StringsUpgradeable.sol\":2128:2129  1 */\n      0x01\n        /* \"@openzeppelin/contracts-upgradeable/utils/StringsUpgradeable.sol\":2124:2125  i */\n      dup2\n        /* \"@openzeppelin/contracts-upgradeable/utils/StringsUpgradeable.sol\":2124:2129  i > 1 */\n      gt\n        /* \"@openzeppelin/contracts-upgradeable/utils/StringsUpgradeable.sol\":2091:2219  for (uint256 i = 2 * length + 1; i > 1; --i) {... */\n      iszero\n      tag_309\n      jumpi\n      shl(0x81, 0x181899199a1a9b1b9c1cb0b131b232b3)\n        /* \"@openzeppelin/contracts-upgradeable/utils/StringsUpgradeable.sol\":2171:2176  value */\n      dup6\n        /* \"@openzeppelin/contracts-upgradeable/utils/StringsUpgradeable.sol\":2179:2182  0xf */\n      0x0f\n        /* \"@openzeppelin/contracts-upgradeable/utils/StringsUpgradeable.sol\":2171:2182  value & 0xf */\n      and\n        /* \"@openzeppelin/contracts-upgradeable/utils/StringsUpgradeable.sol\":2162:2183  _SYMBOLS[value & 0xf] */\n      0x10\n      dup2\n      lt\n      tag_314\n      jumpi\n      tag_314\n      tag_160\n      jump\t// in\n    tag_314:\n      byte\n      0xf8\n      shl\n        /* \"@openzeppelin/contracts-upgradeable/utils/StringsUpgradeable.sol\":2150:2156  buffer */\n      dup3\n        /* \"@openzeppelin/contracts-upgradeable/utils/StringsUpgradeable.sol\":2157:2158  i */\n      dup3\n        /* \"@openzeppelin/contracts-upgradeable/utils/StringsUpgradeable.sol\":2150:2159  buffer[i] */\n      dup2\n      mload\n      dup2\n      lt\n      tag_316\n      jumpi\n      tag_316\n      tag_160\n      jump\t// in\n    tag_316:\n      0x20\n      add\n      add\n        /* \"@openzeppelin/contracts-upgradeable/utils/StringsUpgradeable.sol\":2150:2183  buffer[i] = _SYMBOLS[value & 0xf] */\n      swap1\n      not(sub(shl(0xf8, 0x01), 0x01))\n      and\n      swap1\n      dup2\n      0x00\n      byte\n      swap1\n      mstore8\n      pop\n        /* \"@openzeppelin/contracts-upgradeable/utils/StringsUpgradeable.sol\":2207:2208  4 */\n      0x04\n        /* \"@openzeppelin/contracts-upgradeable/utils/StringsUpgradeable.sol\":2197:2208  value >>= 4 */\n      swap5\n      swap1\n      swap5\n      shr\n      swap4\n        /* \"@openzeppelin/contracts-upgradeable/utils/StringsUpgradeable.sol\":2131:2134  --i */\n      tag_317\n      dup2\n      tag_318\n      jump\t// in\n    tag_317:\n      swap1\n      pop\n        /* \"@openzeppelin/contracts-upgradeable/utils/StringsUpgradeable.sol\":2091:2219  for (uint256 i = 2 * length + 1; i > 1; --i) {... */\n      jump(tag_308)\n    tag_309:\n      pop\n        /* \"@openzeppelin/contracts-upgradeable/utils/StringsUpgradeable.sol\":2236:2246  value == 0 */\n      dup4\n      iszero\n        /* \"@openzeppelin/contracts-upgradeable/utils/StringsUpgradeable.sol\":2228:2283  require(value == 0, \"Strings: hex length insufficient\") */\n      tag_319\n      jumpi\n      mload(0x40)\n      shl(0xe5, 0x461bcd)\n      dup2\n      mstore\n        /* \"#utility.yul\":11199:11201   */\n      0x20\n        /* \"@openzeppelin/contracts-upgradeable/utils/StringsUpgradeable.sol\":2228:2283  require(value == 0, \"Strings: hex length insufficient\") */\n      0x04\n      dup3\n      add\n        /* \"#utility.yul\":11181:11202   */\n      dup2\n      swap1\n      mstore\n        /* \"#utility.yul\":11218:11236   */\n      0x24\n      dup3\n      add\n        /* \"#utility.yul\":11211:11241   */\n      mstore\n        /* \"#utility.yul\":11277:11311   */\n      0x537472696e67733a20686578206c656e67746820696e73756666696369656e74\n        /* \"#utility.yul\":11257:11275   */\n      0x44\n      dup3\n      add\n        /* \"#utility.yul\":11250:11312   */\n      mstore\n        /* \"#utility.yul\":11329:11347   */\n      0x64\n      add\n        /* \"@openzeppelin/contracts-upgradeable/utils/StringsUpgradeable.sol\":2228:2283  require(value == 0, \"Strings: hex length insufficient\") */\n      tag_126\n        /* \"#utility.yul\":10997:11353   */\n      jump\n        /* \"@openzeppelin/contracts-upgradeable/utils/StringsUpgradeable.sol\":2228:2283  require(value == 0, \"Strings: hex length insufficient\") */\n    tag_319:\n        /* \"@openzeppelin/contracts-upgradeable/utils/StringsUpgradeable.sol\":2307:2313  buffer */\n      swap4\n        /* \"@openzeppelin/contracts-upgradeable/utils/StringsUpgradeable.sol\":1884:2321  function toHexString(uint256 value, uint256 length) internal pure returns (string memory) {... */\n      swap3\n      pop\n      pop\n      pop\n      jump\t// out\n        /* \"#utility.yul\":14:300   */\n    tag_30:\n        /* \"#utility.yul\":72:78   */\n      0x00\n        /* \"#utility.yul\":125:127   */\n      0x20\n        /* \"#utility.yul\":113:122   */\n      dup3\n        /* \"#utility.yul\":104:111   */\n      dup5\n        /* \"#utility.yul\":100:123   */\n      sub\n        /* \"#utility.yul\":96:128   */\n      slt\n        /* \"#utility.yul\":93:145   */\n      iszero\n      tag_328\n      jumpi\n        /* \"#utility.yul\":141:142   */\n      0x00\n        /* \"#utility.yul\":138:139   */\n      dup1\n        /* \"#utility.yul\":131:143   */\n      revert\n        /* \"#utility.yul\":93:145   */\n    tag_328:\n        /* \"#utility.yul\":167:190   */\n      dup2\n      calldataload\n      not(sub(shl(0xe0, 0x01), 0x01))\n        /* \"#utility.yul\":219:251   */\n      dup2\n      and\n        /* \"#utility.yul\":209:252   */\n      dup2\n      eq\n        /* \"#utility.yul\":199:270   */\n      tag_319\n      jumpi\n        /* \"#utility.yul\":266:267   */\n      0x00\n        /* \"#utility.yul\":263:264   */\n      dup1\n        /* \"#utility.yul\":256:268   */\n      revert\n        /* \"#utility.yul\":679:859   */\n    tag_40:\n        /* \"#utility.yul\":738:744   */\n      0x00\n        /* \"#utility.yul\":791:793   */\n      0x20\n        /* \"#utility.yul\":779:788   */\n      dup3\n        /* \"#utility.yul\":770:777   */\n      dup5\n        /* \"#utility.yul\":766:789   */\n      sub\n        /* \"#utility.yul\":762:794   */\n      slt\n        /* \"#utility.yul\":759:811   */\n      iszero\n      tag_333\n      jumpi\n        /* \"#utility.yul\":807:808   */\n      0x00\n        /* \"#utility.yul\":804:805   */\n      dup1\n        /* \"#utility.yul\":797:809   */\n      revert\n        /* \"#utility.yul\":759:811   */\n    tag_333:\n      pop\n        /* \"#utility.yul\":830:853   */\n      calldataload\n      swap2\n        /* \"#utility.yul\":679:859   */\n      swap1\n      pop\n      jump\t// out\n        /* \"#utility.yul\":864:995   */\n    tag_322:\n      sub(shl(0xa0, 0x01), 0x01)\n        /* \"#utility.yul\":939:970   */\n      dup2\n      and\n        /* \"#utility.yul\":929:971   */\n      dup2\n      eq\n        /* \"#utility.yul\":919:989   */\n      tag_229\n      jumpi\n        /* \"#utility.yul\":985:986   */\n      0x00\n        /* \"#utility.yul\":982:983   */\n      dup1\n        /* \"#utility.yul\":975:987   */\n      revert\n        /* \"#utility.yul\":1000:1315   */\n    tag_45:\n        /* \"#utility.yul\":1068:1074   */\n      0x00\n        /* \"#utility.yul\":1076:1082   */\n      dup1\n        /* \"#utility.yul\":1129:1131   */\n      0x40\n        /* \"#utility.yul\":1117:1126   */\n      dup4\n        /* \"#utility.yul\":1108:1115   */\n      dup6\n        /* \"#utility.yul\":1104:1127   */\n      sub\n        /* \"#utility.yul\":1100:1132   */\n      slt\n        /* \"#utility.yul\":1097:1149   */\n      iszero\n      tag_337\n      jumpi\n        /* \"#utility.yul\":1145:1146   */\n      0x00\n        /* \"#utility.yul\":1142:1143   */\n      dup1\n        /* \"#utility.yul\":1135:1147   */\n      revert\n        /* \"#utility.yul\":1097:1149   */\n    tag_337:\n        /* \"#utility.yul\":1181:1190   */\n      dup3\n        /* \"#utility.yul\":1168:1191   */\n      calldataload\n        /* \"#utility.yul\":1158:1191   */\n      swap2\n      pop\n        /* \"#utility.yul\":1241:1243   */\n      0x20\n        /* \"#utility.yul\":1230:1239   */\n      dup4\n        /* \"#utility.yul\":1226:1244   */\n      add\n        /* \"#utility.yul\":1213:1245   */\n      calldataload\n        /* \"#utility.yul\":1254:1285   */\n      tag_338\n        /* \"#utility.yul\":1279:1284   */\n      dup2\n        /* \"#utility.yul\":1254:1285   */\n      tag_322\n      jump\t// in\n    tag_338:\n        /* \"#utility.yul\":1304:1309   */\n      dup1\n        /* \"#utility.yul\":1294:1309   */\n      swap2\n      pop\n      pop\n        /* \"#utility.yul\":1000:1315   */\n      swap3\n      pop\n      swap3\n      swap1\n      pop\n      jump\t// out\n        /* \"#utility.yul\":1320:1567   */\n    tag_52:\n        /* \"#utility.yul\":1379:1385   */\n      0x00\n        /* \"#utility.yul\":1432:1434   */\n      0x20\n        /* \"#utility.yul\":1420:1429   */\n      dup3\n        /* \"#utility.yul\":1411:1418   */\n      dup5\n        /* \"#utility.yul\":1407:1430   */\n      sub\n        /* \"#utility.yul\":1403:1435   */\n      slt\n        /* \"#utility.yul\":1400:1452   */\n      iszero\n      tag_340\n      jumpi\n        /* \"#utility.yul\":1448:1449   */\n      0x00\n        /* \"#utility.yul\":1445:1446   */\n      dup1\n        /* \"#utility.yul\":1438:1450   */\n      revert\n        /* \"#utility.yul\":1400:1452   */\n    tag_340:\n        /* \"#utility.yul\":1487:1496   */\n      dup2\n        /* \"#utility.yul\":1474:1497   */\n      calldataload\n        /* \"#utility.yul\":1506:1537   */\n      tag_319\n        /* \"#utility.yul\":1531:1536   */\n      dup2\n        /* \"#utility.yul\":1506:1537   */\n      tag_322\n      jump\t// in\n        /* \"#utility.yul\":2198:2357   */\n    tag_323:\n        /* \"#utility.yul\":2265:2285   */\n      dup1\n      calldataload\n        /* \"#utility.yul\":2325:2331   */\n      0xffff\n        /* \"#utility.yul\":2314:2332   */\n      dup2\n      and\n        /* \"#utility.yul\":2304:2333   */\n      dup2\n      eq\n        /* \"#utility.yul\":2294:2351   */\n      tag_346\n      jumpi\n        /* \"#utility.yul\":2347:2348   */\n      0x00\n        /* \"#utility.yul\":2344:2345   */\n      dup1\n        /* \"#utility.yul\":2337:2349   */\n      revert\n        /* \"#utility.yul\":2294:2351   */\n    tag_346:\n        /* \"#utility.yul\":2198:2357   */\n      swap2\n      swap1\n      pop\n      jump\t// out\n        /* \"#utility.yul\":2362:2681   */\n    tag_79:\n        /* \"#utility.yul\":2429:2435   */\n      0x00\n        /* \"#utility.yul\":2437:2443   */\n      dup1\n        /* \"#utility.yul\":2490:2492   */\n      0x40\n        /* \"#utility.yul\":2478:2487   */\n      dup4\n        /* \"#utility.yul\":2469:2476   */\n      dup6\n        /* \"#utility.yul\":2465:2488   */\n      sub\n        /* \"#utility.yul\":2461:2493   */\n      slt\n        /* \"#utility.yul\":2458:2510   */\n      iszero\n      tag_348\n      jumpi\n        /* \"#utility.yul\":2506:2507   */\n      0x00\n        /* \"#utility.yul\":2503:2504   */\n      dup1\n        /* \"#utility.yul\":2496:2508   */\n      revert\n        /* \"#utility.yul\":2458:2510   */\n    tag_348:\n        /* \"#utility.yul\":2545:2554   */\n      dup3\n        /* \"#utility.yul\":2532:2555   */\n      calldataload\n        /* \"#utility.yul\":2564:2595   */\n      tag_349\n        /* \"#utility.yul\":2589:2594   */\n      dup2\n        /* \"#utility.yul\":2564:2595   */\n      tag_322\n      jump\t// in\n    tag_349:\n        /* \"#utility.yul\":2614:2619   */\n      swap2\n      pop\n        /* \"#utility.yul\":2638:2675   */\n      tag_350\n        /* \"#utility.yul\":2671:2673   */\n      0x20\n        /* \"#utility.yul\":2656:2674   */\n      dup5\n      add\n        /* \"#utility.yul\":2638:2675   */\n      tag_323\n      jump\t// in\n    tag_350:\n        /* \"#utility.yul\":2628:2675   */\n      swap1\n      pop\n        /* \"#utility.yul\":2362:2681   */\n      swap3\n      pop\n      swap3\n      swap1\n      pop\n      jump\t// out\n        /* \"#utility.yul\":2686:3163   */\n    tag_86:\n        /* \"#utility.yul\":2779:2785   */\n      0x00\n        /* \"#utility.yul\":2787:2793   */\n      dup1\n        /* \"#utility.yul\":2795:2801   */\n      0x00\n        /* \"#utility.yul\":2848:2850   */\n      0x60\n        /* \"#utility.yul\":2836:2845   */\n      dup5\n        /* \"#utility.yul\":2827:2834   */\n      dup7\n        /* \"#utility.yul\":2823:2846   */\n      sub\n        /* \"#utility.yul\":2819:2851   */\n      slt\n        /* \"#utility.yul\":2816:2868   */\n      iszero\n      tag_352\n      jumpi\n        /* \"#utility.yul\":2864:2865   */\n      0x00\n        /* \"#utility.yul\":2861:2862   */\n      dup1\n        /* \"#utility.yul\":2854:2866   */\n      revert\n        /* \"#utility.yul\":2816:2868   */\n    tag_352:\n        /* \"#utility.yul\":2903:2912   */\n      dup4\n        /* \"#utility.yul\":2890:2913   */\n      calldataload\n        /* \"#utility.yul\":2922:2953   */\n      tag_353\n        /* \"#utility.yul\":2947:2952   */\n      dup2\n        /* \"#utility.yul\":2922:2953   */\n      tag_322\n      jump\t// in\n    tag_353:\n        /* \"#utility.yul\":2972:2977   */\n      swap3\n      pop\n        /* \"#utility.yul\":3029:3031   */\n      0x20\n        /* \"#utility.yul\":3014:3032   */\n      dup5\n      add\n        /* \"#utility.yul\":3001:3033   */\n      calldataload\n        /* \"#utility.yul\":3042:3075   */\n      tag_354\n        /* \"#utility.yul\":3001:3033   */\n      dup2\n        /* \"#utility.yul\":3042:3075   */\n      tag_322\n      jump\t// in\n    tag_354:\n        /* \"#utility.yul\":3094:3101   */\n      swap2\n      pop\n        /* \"#utility.yul\":3120:3157   */\n      tag_355\n        /* \"#utility.yul\":3153:3155   */\n      0x40\n        /* \"#utility.yul\":3138:3156   */\n      dup6\n      add\n        /* \"#utility.yul\":3120:3157   */\n      tag_323\n      jump\t// in\n    tag_355:\n        /* \"#utility.yul\":3110:3157   */\n      swap1\n      pop\n        /* \"#utility.yul\":2686:3163   */\n      swap3\n      pop\n      swap3\n      pop\n      swap3\n      jump\t// out\n        /* \"#utility.yul\":3168:3826   */\n    tag_91:\n        /* \"#utility.yul\":3339:3341   */\n      0x20\n        /* \"#utility.yul\":3391:3412   */\n      dup1\n      dup3\n      mstore\n        /* \"#utility.yul\":3461:3474   */\n      dup3\n      mload\n        /* \"#utility.yul\":3364:3382   */\n      dup3\n      dup3\n      add\n        /* \"#utility.yul\":3483:3505   */\n      dup2\n      swap1\n      mstore\n        /* \"#utility.yul\":3310:3314   */\n      0x00\n      swap2\n        /* \"#utility.yul\":3339:3341   */\n      swap1\n        /* \"#utility.yul\":3562:3577   */\n      dup5\n      dup3\n      add\n      swap1\n        /* \"#utility.yul\":3536:3538   */\n      0x40\n        /* \"#utility.yul\":3521:3539   */\n      dup6\n      add\n      swap1\n        /* \"#utility.yul\":3310:3314   */\n      dup5\n        /* \"#utility.yul\":3605:3800   */\n    tag_357:\n        /* \"#utility.yul\":3619:3625   */\n      dup2\n        /* \"#utility.yul\":3616:3617   */\n      dup2\n        /* \"#utility.yul\":3613:3626   */\n      lt\n        /* \"#utility.yul\":3605:3800   */\n      iszero\n      tag_359\n      jumpi\n        /* \"#utility.yul\":3684:3697   */\n      dup4\n      mload\n      sub(shl(0xa0, 0x01), 0x01)\n        /* \"#utility.yul\":3680:3719   */\n      and\n        /* \"#utility.yul\":3668:3720   */\n      dup4\n      mstore\n        /* \"#utility.yul\":3775:3790   */\n      swap3\n      dup5\n      add\n      swap3\n        /* \"#utility.yul\":3740:3752   */\n      swap2\n      dup5\n      add\n      swap2\n        /* \"#utility.yul\":3716:3717   */\n      0x01\n        /* \"#utility.yul\":3634:3643   */\n      add\n        /* \"#utility.yul\":3605:3800   */\n      jump(tag_357)\n    tag_359:\n      pop\n        /* \"#utility.yul\":3817:3820   */\n      swap1\n      swap7\n        /* \"#utility.yul\":3168:3826   */\n      swap6\n      pop\n      pop\n      pop\n      pop\n      pop\n      pop\n      jump\t// out\n        /* \"#utility.yul\":3831:4236   */\n    tag_105:\n        /* \"#utility.yul\":3916:3922   */\n      0x00\n        /* \"#utility.yul\":3924:3930   */\n      dup1\n        /* \"#utility.yul\":3977:3979   */\n      0x40\n        /* \"#utility.yul\":3965:3974   */\n      dup4\n        /* \"#utility.yul\":3956:3963   */\n      dup6\n        /* \"#utility.yul\":3952:3975   */\n      sub\n        /* \"#utility.yul\":3948:3980   */\n      slt\n        /* \"#utility.yul\":3945:3997   */\n      iszero\n      tag_361\n      jumpi\n        /* \"#utility.yul\":3993:3994   */\n      0x00\n        /* \"#utility.yul\":3990:3991   */\n      dup1\n        /* \"#utility.yul\":3983:3995   */\n      revert\n        /* \"#utility.yul\":3945:3997   */\n    tag_361:\n        /* \"#utility.yul\":4032:4041   */\n      dup3\n        /* \"#utility.yul\":4019:4042   */\n      calldataload\n        /* \"#utility.yul\":4051:4082   */\n      tag_362\n        /* \"#utility.yul\":4076:4081   */\n      dup2\n        /* \"#utility.yul\":4051:4082   */\n      tag_322\n      jump\t// in\n    tag_362:\n        /* \"#utility.yul\":4101:4106   */\n      swap2\n      pop\n        /* \"#utility.yul\":4158:4160   */\n      0x20\n        /* \"#utility.yul\":4143:4161   */\n      dup4\n      add\n        /* \"#utility.yul\":4130:4162   */\n      calldataload\n        /* \"#utility.yul\":4171:4204   */\n      tag_338\n        /* \"#utility.yul\":4130:4162   */\n      dup2\n        /* \"#utility.yul\":4171:4204   */\n      tag_322\n      jump\t// in\n        /* \"#utility.yul\":4657:5012   */\n    tag_133:\n        /* \"#utility.yul\":4859:4861   */\n      0x20\n        /* \"#utility.yul\":4841:4862   */\n      dup1\n      dup3\n      mstore\n        /* \"#utility.yul\":4898:4900   */\n      0x1f\n        /* \"#utility.yul\":4878:4896   */\n      swap1\n      dup3\n      add\n        /* \"#utility.yul\":4871:4901   */\n      mstore\n        /* \"#utility.yul\":4937:4970   */\n      0x696e76616c696420617267756d656e74202d207a65726f206164647265737300\n        /* \"#utility.yul\":4932:4934   */\n      0x40\n        /* \"#utility.yul\":4917:4935   */\n      dup3\n      add\n        /* \"#utility.yul\":4910:4971   */\n      mstore\n        /* \"#utility.yul\":5003:5005   */\n      0x60\n        /* \"#utility.yul\":4988:5006   */\n      add\n      swap1\n        /* \"#utility.yul\":4657:5012   */\n      jump\t// out\n        /* \"#utility.yul\":5783:5910   */\n    tag_160:\n        /* \"#utility.yul\":5844:5854   */\n      0x4e487b71\n        /* \"#utility.yul\":5839:5842   */\n      0xe0\n        /* \"#utility.yul\":5835:5855   */\n      shl\n        /* \"#utility.yul\":5832:5833   */\n      0x00\n        /* \"#utility.yul\":5825:5856   */\n      mstore\n        /* \"#utility.yul\":5875:5879   */\n      0x32\n        /* \"#utility.yul\":5872:5873   */\n      0x04\n        /* \"#utility.yul\":5865:5880   */\n      mstore\n        /* \"#utility.yul\":5899:5903   */\n      0x24\n        /* \"#utility.yul\":5896:5897   */\n      0x00\n        /* \"#utility.yul\":5889:5904   */\n      revert\n        /* \"#utility.yul\":5915:6042   */\n    tag_324:\n        /* \"#utility.yul\":5976:5986   */\n      0x4e487b71\n        /* \"#utility.yul\":5971:5974   */\n      0xe0\n        /* \"#utility.yul\":5967:5987   */\n      shl\n        /* \"#utility.yul\":5964:5965   */\n      0x00\n        /* \"#utility.yul\":5957:5988   */\n      mstore\n        /* \"#utility.yul\":6007:6011   */\n      0x11\n        /* \"#utility.yul\":6004:6005   */\n      0x04\n        /* \"#utility.yul\":5997:6012   */\n      mstore\n        /* \"#utility.yul\":6031:6035   */\n      0x24\n        /* \"#utility.yul\":6028:6029   */\n      0x00\n        /* \"#utility.yul\":6021:6036   */\n      revert\n        /* \"#utility.yul\":6047:6175   */\n    tag_164:\n        /* \"#utility.yul\":6114:6123   */\n      dup2\n      dup2\n      sub\n        /* \"#utility.yul\":6135:6146   */\n      dup2\n      dup2\n      gt\n        /* \"#utility.yul\":6132:6169   */\n      iszero\n      tag_112\n      jumpi\n        /* \"#utility.yul\":6149:6167   */\n      tag_112\n      tag_324\n      jump\t// in\n        /* \"#utility.yul\":6180:6307   */\n    tag_173:\n        /* \"#utility.yul\":6241:6251   */\n      0x4e487b71\n        /* \"#utility.yul\":6236:6239   */\n      0xe0\n        /* \"#utility.yul\":6232:6252   */\n      shl\n        /* \"#utility.yul\":6229:6230   */\n      0x00\n        /* \"#utility.yul\":6222:6253   */\n      mstore\n        /* \"#utility.yul\":6272:6276   */\n      0x31\n        /* \"#utility.yul\":6269:6270   */\n      0x04\n        /* \"#utility.yul\":6262:6277   */\n      mstore\n        /* \"#utility.yul\":6296:6300   */\n      0x24\n        /* \"#utility.yul\":6293:6294   */\n      0x00\n        /* \"#utility.yul\":6286:6301   */\n      revert\n        /* \"#utility.yul\":6312:6447   */\n    tag_176:\n        /* \"#utility.yul\":6351:6354   */\n      0x00\n        /* \"#utility.yul\":6372:6389   */\n      0x01\n      dup3\n      add\n        /* \"#utility.yul\":6369:6412   */\n      tag_376\n      jumpi\n        /* \"#utility.yul\":6392:6410   */\n      tag_376\n      tag_324\n      jump\t// in\n    tag_376:\n      pop\n        /* \"#utility.yul\":6439:6440   */\n      0x01\n        /* \"#utility.yul\":6428:6441   */\n      add\n      swap1\n        /* \"#utility.yul\":6312:6447   */\n      jump\t// out\n        /* \"#utility.yul\":6452:6798   */\n    tag_185:\n        /* \"#utility.yul\":6654:6656   */\n      0x20\n        /* \"#utility.yul\":6636:6657   */\n      dup1\n      dup3\n      mstore\n        /* \"#utility.yul\":6693:6695   */\n      0x16\n        /* \"#utility.yul\":6673:6691   */\n      swap1\n      dup3\n      add\n        /* \"#utility.yul\":6666:6696   */\n      mstore\n      shl(0x52, 0x1859191c995cdcc81b9bdd081cdd1bdc9959081e595d)\n        /* \"#utility.yul\":6727:6729   */\n      0x40\n        /* \"#utility.yul\":6712:6730   */\n      dup3\n      add\n        /* \"#utility.yul\":6705:6757   */\n      mstore\n        /* \"#utility.yul\":6789:6791   */\n      0x60\n        /* \"#utility.yul\":6774:6792   */\n      add\n      swap1\n        /* \"#utility.yul\":6452:6798   */\n      jump\t// out\n        /* \"#utility.yul\":8536:8943   */\n    tag_272:\n        /* \"#utility.yul\":8738:8740   */\n      0x20\n        /* \"#utility.yul\":8720:8741   */\n      dup1\n      dup3\n      mstore\n        /* \"#utility.yul\":8777:8779   */\n      0x2b\n        /* \"#utility.yul\":8757:8775   */\n      swap1\n      dup3\n      add\n        /* \"#utility.yul\":8750:8780   */\n      mstore\n        /* \"#utility.yul\":8816:8850   */\n      0x496e697469616c697a61626c653a20636f6e7472616374206973206e6f742069\n        /* \"#utility.yul\":8811:8813   */\n      0x40\n        /* \"#utility.yul\":8796:8814   */\n      dup3\n      add\n        /* \"#utility.yul\":8789:8851   */\n      mstore\n      shl(0xa8, 0x6e697469616c697a696e67)\n        /* \"#utility.yul\":8882:8884   */\n      0x60\n        /* \"#utility.yul\":8867:8885   */\n      dup3\n      add\n        /* \"#utility.yul\":8860:8901   */\n      mstore\n        /* \"#utility.yul\":8933:8936   */\n      0x80\n        /* \"#utility.yul\":8918:8937   */\n      add\n      swap1\n        /* \"#utility.yul\":8536:8943   */\n      jump\t// out\n        /* \"#utility.yul\":8948:9198   */\n    tag_325:\n        /* \"#utility.yul\":9033:9034   */\n      0x00\n        /* \"#utility.yul\":9043:9156   */\n    tag_385:\n        /* \"#utility.yul\":9057:9063   */\n      dup4\n        /* \"#utility.yul\":9054:9055   */\n      dup2\n        /* \"#utility.yul\":9051:9064   */\n      lt\n        /* \"#utility.yul\":9043:9156   */\n      iszero\n      tag_387\n      jumpi\n        /* \"#utility.yul\":9133:9144   */\n      dup2\n      dup2\n      add\n        /* \"#utility.yul\":9127:9145   */\n      mload\n        /* \"#utility.yul\":9114:9125   */\n      dup4\n      dup3\n      add\n        /* \"#utility.yul\":9107:9146   */\n      mstore\n        /* \"#utility.yul\":9079:9081   */\n      0x20\n        /* \"#utility.yul\":9072:9082   */\n      add\n        /* \"#utility.yul\":9043:9156   */\n      jump(tag_385)\n    tag_387:\n      pop\n      pop\n        /* \"#utility.yul\":9190:9191   */\n      0x00\n        /* \"#utility.yul\":9172:9188   */\n      swap2\n      add\n        /* \"#utility.yul\":9165:9192   */\n      mstore\n        /* \"#utility.yul\":8948:9198   */\n      jump\t// out\n        /* \"#utility.yul\":9203:10015   */\n    tag_284:\n        /* \"#utility.yul\":9614:9639   */\n      0x416363657373436f6e74726f6c3a206163636f756e7420000000000000000000\n        /* \"#utility.yul\":9609:9612   */\n      dup2\n        /* \"#utility.yul\":9602:9640   */\n      mstore\n        /* \"#utility.yul\":9584:9587   */\n      0x00\n        /* \"#utility.yul\":9669:9675   */\n      dup4\n        /* \"#utility.yul\":9663:9676   */\n      mload\n        /* \"#utility.yul\":9685:9760   */\n      tag_389\n        /* \"#utility.yul\":9753:9759   */\n      dup2\n        /* \"#utility.yul\":9748:9750   */\n      0x17\n        /* \"#utility.yul\":9743:9746   */\n      dup6\n        /* \"#utility.yul\":9739:9751   */\n      add\n        /* \"#utility.yul\":9732:9736   */\n      0x20\n        /* \"#utility.yul\":9724:9730   */\n      dup9\n        /* \"#utility.yul\":9720:9737   */\n      add\n        /* \"#utility.yul\":9685:9760   */\n      tag_325\n      jump\t// in\n    tag_389:\n      shl(0x7d, 0x01034b99036b4b9b9b4b733903937b6329)\n        /* \"#utility.yul\":9819:9821   */\n      0x17\n        /* \"#utility.yul\":9779:9795   */\n      swap2\n      dup5\n      add\n        /* \"#utility.yul\":9811:9822   */\n      swap2\n      dup3\n      add\n        /* \"#utility.yul\":9804:9844   */\n      mstore\n        /* \"#utility.yul\":9869:9882   */\n      dup4\n      mload\n        /* \"#utility.yul\":9891:9967   */\n      tag_390\n        /* \"#utility.yul\":9869:9882   */\n      dup2\n        /* \"#utility.yul\":9953:9955   */\n      0x28\n        /* \"#utility.yul\":9945:9956   */\n      dup5\n      add\n        /* \"#utility.yul\":9938:9942   */\n      0x20\n        /* \"#utility.yul\":9926:9943   */\n      dup9\n      add\n        /* \"#utility.yul\":9891:9967   */\n      tag_325\n      jump\t// in\n    tag_390:\n        /* \"#utility.yul\":9987:10004   */\n      add\n        /* \"#utility.yul\":10006:10008   */\n      0x28\n        /* \"#utility.yul\":9983:10009   */\n      add\n      swap5\n        /* \"#utility.yul\":9203:10015   */\n      swap4\n      pop\n      pop\n      pop\n      pop\n      jump\t// out\n        /* \"#utility.yul\":10020:10416   */\n    tag_286:\n        /* \"#utility.yul\":10169:10171   */\n      0x20\n        /* \"#utility.yul\":10158:10167   */\n      dup2\n        /* \"#utility.yul\":10151:10172   */\n      mstore\n        /* \"#utility.yul\":10132:10136   */\n      0x00\n        /* \"#utility.yul\":10201:10207   */\n      dup3\n        /* \"#utility.yul\":10195:10208   */\n      mload\n        /* \"#utility.yul\":10244:10250   */\n      dup1\n        /* \"#utility.yul\":10239:10241   */\n      0x20\n        /* \"#utility.yul\":10228:10237   */\n      dup5\n        /* \"#utility.yul\":10224:10242   */\n      add\n        /* \"#utility.yul\":10217:10251   */\n      mstore\n        /* \"#utility.yul\":10260:10339   */\n      tag_392\n        /* \"#utility.yul\":10332:10338   */\n      dup2\n        /* \"#utility.yul\":10327:10329   */\n      0x40\n        /* \"#utility.yul\":10316:10325   */\n      dup6\n        /* \"#utility.yul\":10312:10330   */\n      add\n        /* \"#utility.yul\":10307:10309   */\n      0x20\n        /* \"#utility.yul\":10299:10305   */\n      dup8\n        /* \"#utility.yul\":10295:10310   */\n      add\n        /* \"#utility.yul\":10260:10339   */\n      tag_325\n      jump\t// in\n    tag_392:\n        /* \"#utility.yul\":10400:10402   */\n      0x1f\n        /* \"#utility.yul\":10379:10394   */\n      add\n      not(0x1f)\n        /* \"#utility.yul\":10375:10404   */\n      and\n        /* \"#utility.yul\":10360:10405   */\n      swap2\n      swap1\n      swap2\n      add\n        /* \"#utility.yul\":10407:10409   */\n      0x40\n        /* \"#utility.yul\":10356:10410   */\n      add\n      swap3\n        /* \"#utility.yul\":10020:10416   */\n      swap2\n      pop\n      pop\n      jump\t// out\n        /* \"#utility.yul\":10421:10589   */\n    tag_297:\n        /* \"#utility.yul\":10494:10503   */\n      dup1\n      dup3\n      mul\n        /* \"#utility.yul\":10525:10534   */\n      dup2\n      iszero\n        /* \"#utility.yul\":10542:10557   */\n      dup3\n      dup3\n      div\n        /* \"#utility.yul\":10536:10558   */\n      dup5\n      eq\n        /* \"#utility.yul\":10522:10559   */\n      or\n        /* \"#utility.yul\":10512:10583   */\n      tag_112\n      jumpi\n        /* \"#utility.yul\":10563:10581   */\n      tag_112\n      tag_324\n      jump\t// in\n        /* \"#utility.yul\":10594:10719   */\n    tag_299:\n        /* \"#utility.yul\":10659:10668   */\n      dup1\n      dup3\n      add\n        /* \"#utility.yul\":10680:10690   */\n      dup1\n      dup3\n      gt\n        /* \"#utility.yul\":10677:10713   */\n      iszero\n      tag_112\n      jumpi\n        /* \"#utility.yul\":10693:10711   */\n      tag_112\n      tag_324\n      jump\t// in\n        /* \"#utility.yul\":10724:10851   */\n    tag_302:\n        /* \"#utility.yul\":10785:10795   */\n      0x4e487b71\n        /* \"#utility.yul\":10780:10783   */\n      0xe0\n        /* \"#utility.yul\":10776:10796   */\n      shl\n        /* \"#utility.yul\":10773:10774   */\n      0x00\n        /* \"#utility.yul\":10766:10797   */\n      mstore\n        /* \"#utility.yul\":10816:10820   */\n      0x41\n        /* \"#utility.yul\":10813:10814   */\n      0x04\n        /* \"#utility.yul\":10806:10821   */\n      mstore\n        /* \"#utility.yul\":10840:10844   */\n      0x24\n        /* \"#utility.yul\":10837:10838   */\n      0x00\n        /* \"#utility.yul\":10830:10845   */\n      revert\n        /* \"#utility.yul\":10856:10992   */\n    tag_318:\n        /* \"#utility.yul\":10895:10898   */\n      0x00\n        /* \"#utility.yul\":10923:10928   */\n      dup2\n        /* \"#utility.yul\":10913:10952   */\n      tag_402\n      jumpi\n        /* \"#utility.yul\":10932:10950   */\n      tag_402\n      tag_324\n      jump\t// in\n    tag_402:\n      pop\n      not(0x00)\n        /* \"#utility.yul\":10968:10986   */\n      add\n      swap1\n        /* \"#utility.yul\":10856:10992   */\n      jump\t// out\n    stop\n    data_83599f2fd2d7ecec31a0c854e1dfa0cd718f43d0f25b15e620b3800dba1a8107 cab5a0bfe0b79d2c4b1c2e02599fa044d115b7511f9659307cb4276950967709\n\n    auxdata: 0xa2646970667358221220455e2cde2e4217ab535adb8f94e662aecd4ae15afccf4bbb04d1afaa3b61168f64736f6c63430008110033\n}\n",
				"bytecode": {
					"linkReferences": {},
					"object": "608060405234801561001057600080fd5b506115e5806100206000396000f3fe608060405234801561001057600080fd5b50600436106101425760003560e01c806397a012f7116100b8578063cf191bcd1161007c578063cf191bcd146102fd578063d547741f14610310578063e1c7392a14610323578063e58378bb1461032b578063e805cf8614610352578063f2fde38b1461036557600080fd5b806397a012f7146102a75780639f3418d5146102ba578063a217fddf146102cd578063a53410dd146102d5578063bf9eb959146102e857600080fd5b8063690a49f91161010a578063690a49f9146101dd578063715018a6146101f0578063727e13bc146101f85780637988d3a51461023f5780638da5cb5b1461028357806391d148541461029457600080fd5b806301ffc9a71461014757806322459e181461016f578063248a9ca3146101925780632f2ff15d146101b557806336568abe146101ca575b600080fd5b61015a610155366004611199565b610378565b60405190151581526020015b60405180910390f35b61018460008051602061159083398151915281565b604051908152602001610166565b6101846101a03660046111c3565b60009081526065602052604090206001015490565b6101c86101c33660046111f1565b6103af565b005b6101c86101d83660046111f1565b6103d9565b6101c86101eb366004611221565b61045c565b6101c8610573565b61022c610206366004611221565b6001600160a01b0316600090815260c96020526040902054600160a01b900461ffff1690565b60405161ffff9091168152602001610166565b61026b61024d366004611221565b6001600160a01b03908116600090815260c960205260409020541690565b6040516001600160a01b039091168152602001610166565b6097546001600160a01b031661026b565b61015a6102a23660046111f1565b610587565b6101c86102b5366004611221565b6105b2565b6101c86102c8366004611255565b61077e565b610184600081565b6101c86102e336600461128a565b610857565b6102f0610971565b60405161016691906112d1565b6101c861030b366004611221565b6109d3565b6101c861031e3660046111f1565b610aa2565b6101c8610ac7565b6101847fb19546dff01e856fb3f010c267a7b1c60363cf8a4664e21cc89c26224620214e81565b6101c861036036600461131e565b610c25565b6101c8610373366004611221565b610d13565b60006001600160e01b03198216637965db0b60e01b14806103a957506301ffc9a760e01b6001600160e01b03198316145b92915050565b6000828152606560205260409020600101546103ca81610d89565b6103d48383610d93565b505050565b6001600160a01b038116331461044e5760405162461bcd60e51b815260206004820152602f60248201527f416363657373436f6e74726f6c3a2063616e206f6e6c792072656e6f756e636560448201526e103937b632b9903337b91039b2b63360891b60648201526084015b60405180910390fd5b6104588282610e19565b5050565b6001600160a01b0381166104825760405162461bcd60e51b81526004016104459061134c565b60ca5461012c116104e35760405162461bcd60e51b815260206004820152602560248201527f63616e6e6f742062696e64206d6f7265207468616e2033303020495220746f20604482015264312049525360d81b6064820152608401610445565b6104fb60008051602061159083398151915282610d93565b60ca805460018101825560009182527f42d72674974f694b5f5159593243114d38a5c39c89d6b62fee061ff523240ee10180546001600160a01b0319166001600160a01b03841690811790915560405190917f500c250171aa20e861b680f93502547b9d436eda7d4c537fc360db6e0c6eedfb91a250565b61057b610e80565b6105856000610eda565b565b60009182526065602090815260408084206001600160a01b0393909316845291905290205460ff1690565b6001600160a01b0381166105d85760405162461bcd60e51b81526004016104459061134c565b60ca546106275760405162461bcd60e51b815260206004820152601f60248201527f6964656e74697479207265676973747279206973206e6f742073746f726564006044820152606401610445565b60ca5460005b8181101561072d57826001600160a01b031660ca828154811061065257610652611383565b6000918252602090912001546001600160a01b03160361071b5760ca6106796001846113af565b8154811061068957610689611383565b60009182526020909120015460ca80546001600160a01b0390921691839081106106b5576106b5611383565b9060005260206000200160006101000a8154816001600160a01b0302191690836001600160a01b0316021790555060ca8054806106f4576106f46113c2565b600082815260209020810160001990810180546001600160a01b031916905501905561072d565b80610725816113d8565b91505061062d565b5061074660008051602061159083398151915283610e19565b6040516001600160a01b038316907f51f353eb5801583fdf2706e43c045b62fdf6b1566820b349390616363ecf72c990600090a25050565b60008051602061159083398151915261079681610d89565b6001600160a01b0383166107bc5760405162461bcd60e51b81526004016104459061134c565b6001600160a01b03838116600090815260c96020526040902054166107f35760405162461bcd60e51b8152600401610445906113f1565b6001600160a01b038316600081815260c96020526040808220805461ffff60a01b1916600160a01b61ffff88169081029190911790915590519092917f20965fcdc6eed7ae398065b40ece4e732ba667992ca819fc54e80e9f2047c4cf91a3505050565b60008051602061159083398151915261086f81610d89565b6001600160a01b0384161580159061088f57506001600160a01b03831615155b6108ab5760405162461bcd60e51b81526004016104459061134c565b6001600160a01b03848116600090815260c96020526040902054161561090c5760405162461bcd60e51b8152602060048201526016602482015275616464726573732073746f72656420616c726561647960501b6044820152606401610445565b6001600160a01b03848116600081815260c9602052604080822080549488166001600160b01b03199095168517600160a01b61ffff891602179055517e30dea7e9c9afaa2e3c9810f2fc9b5181f1bad74ca5a8db85f746a33585e7479190a350505050565b606060ca8054806020026020016040519081016040528092919081815260200182805480156109c957602002820191906000526020600020905b81546001600160a01b031681526001909101906020018083116109ab575b5050505050905090565b6000805160206115908339815191526109eb81610d89565b6001600160a01b038216610a115760405162461bcd60e51b81526004016104459061134c565b6001600160a01b03828116600090815260c9602052604090205416610a485760405162461bcd60e51b8152600401610445906113f1565b6001600160a01b03808316600081815260c9602052604080822080546001600160b01b0319811690915590519316928392917fca6a4c3370b859312246e7f086284076e557997e10d856b716c23ab67067790b91a3505050565b600082815260656020526040902060010154610abd81610d89565b6103d48383610e19565b600054610100900460ff1615808015610ae75750600054600160ff909116105b80610b015750303b158015610b01575060005460ff166001145b610b645760405162461bcd60e51b815260206004820152602e60248201527f496e697469616c697a61626c653a20636f6e747261637420697320616c72656160448201526d191e481a5b9a5d1a585b1a5e995960921b6064820152608401610445565b6000805460ff191660011790558015610b87576000805461ff0019166101001790555b610b92600033610d93565b610bbc7fb19546dff01e856fb3f010c267a7b1c60363cf8a4664e21cc89c26224620214e33610d93565b610bd460008051602061159083398151915233610d93565b610bdc610f2c565b8015610c22576000805461ff0019169055604051600181527f7f26b83ff96e1f2b6a682f133852f6798a09c465da95921460cefb38474024989060200160405180910390a15b50565b600080516020611590833981519152610c3d81610d89565b6001600160a01b03831615801590610c5d57506001600160a01b03821615155b610c795760405162461bcd60e51b81526004016104459061134c565b6001600160a01b03838116600090815260c9602052604090205416610cb05760405162461bcd60e51b8152600401610445906113f1565b6001600160a01b03808416600090815260c9602052604080822080548685166001600160a01b031982168117909255915191909316929183917f556ce885dfcea52155c773f1ed2e58781c51945c13030ab8f793c61f51d1b8089190a350505050565b610d1b610e80565b6001600160a01b038116610d805760405162461bcd60e51b815260206004820152602660248201527f4f776e61626c653a206e6577206f776e657220697320746865207a65726f206160448201526564647265737360d01b6064820152608401610445565b610c2281610eda565b610c228133610f5b565b610d9d8282610587565b6104585760008281526065602090815260408083206001600160a01b03851684529091529020805460ff19166001179055610dd53390565b6001600160a01b0316816001600160a01b0316837f2f8788117e7eff1d82e926ec794901d17c78024a50270940304540a733656f0d60405160405180910390a45050565b610e238282610587565b156104585760008281526065602090815260408083206001600160a01b0385168085529252808320805460ff1916905551339285917ff6391f5c32d9c69d2a47ea670b442974b53935d1edc7fd64eb21e047a839171b9190a45050565b6097546001600160a01b031633146105855760405162461bcd60e51b815260206004820181905260248201527f4f776e61626c653a2063616c6c6572206973206e6f7420746865206f776e65726044820152606401610445565b609780546001600160a01b038381166001600160a01b0319831681179093556040519116919082907f8be0079c531659141344cd1fd0a4f28419497f9722a3daafe3b4186f6b6457e090600090a35050565b600054610100900460ff16610f535760405162461bcd60e51b815260040161044590611421565b610585610fb4565b610f658282610587565b61045857610f7281610fe4565b610f7d836020610ff6565b604051602001610f8e929190611490565b60408051601f198184030181529082905262461bcd60e51b825261044591600401611505565b600054610100900460ff16610fdb5760405162461bcd60e51b815260040161044590611421565b61058533610eda565b60606103a96001600160a01b03831660145b60606000611005836002611538565b61101090600261154f565b67ffffffffffffffff81111561102857611028611562565b6040519080825280601f01601f191660200182016040528015611052576020820181803683370190505b509050600360fc1b8160008151811061106d5761106d611383565b60200101906001600160f81b031916908160001a905350600f60fb1b8160018151811061109c5761109c611383565b60200101906001600160f81b031916908160001a90535060006110c0846002611538565b6110cb90600161154f565b90505b6001811115611143576f181899199a1a9b1b9c1cb0b131b232b360811b85600f16601081106110ff576110ff611383565b1a60f81b82828151811061111557611115611383565b60200101906001600160f81b031916908160001a90535060049490941c9361113c81611578565b90506110ce565b5083156111925760405162461bcd60e51b815260206004820181905260248201527f537472696e67733a20686578206c656e67746820696e73756666696369656e746044820152606401610445565b9392505050565b6000602082840312156111ab57600080fd5b81356001600160e01b03198116811461119257600080fd5b6000602082840312156111d557600080fd5b5035919050565b6001600160a01b0381168114610c2257600080fd5b6000806040838503121561120457600080fd5b823591506020830135611216816111dc565b809150509250929050565b60006020828403121561123357600080fd5b8135611192816111dc565b803561ffff8116811461125057600080fd5b919050565b6000806040838503121561126857600080fd5b8235611273816111dc565b91506112816020840161123e565b90509250929050565b60008060006060848603121561129f57600080fd5b83356112aa816111dc565b925060208401356112ba816111dc565b91506112c86040850161123e565b90509250925092565b6020808252825182820181905260009190848201906040850190845b818110156113125783516001600160a01b0316835292840192918401916001016112ed565b50909695505050505050565b6000806040838503121561133157600080fd5b823561133c816111dc565b91506020830135611216816111dc565b6020808252601f908201527f696e76616c696420617267756d656e74202d207a65726f206164647265737300604082015260600190565b634e487b7160e01b600052603260045260246000fd5b634e487b7160e01b600052601160045260246000fd5b818103818111156103a9576103a9611399565b634e487b7160e01b600052603160045260246000fd5b6000600182016113ea576113ea611399565b5060010190565b6020808252601690820152751859191c995cdcc81b9bdd081cdd1bdc9959081e595d60521b604082015260600190565b6020808252602b908201527f496e697469616c697a61626c653a20636f6e7472616374206973206e6f74206960408201526a6e697469616c697a696e6760a81b606082015260800190565b60005b8381101561148757818101518382015260200161146f565b50506000910152565b7f416363657373436f6e74726f6c3a206163636f756e74200000000000000000008152600083516114c881601785016020880161146c565b7001034b99036b4b9b9b4b733903937b6329607d1b60179184019182015283516114f981602884016020880161146c565b01602801949350505050565b602081526000825180602084015261152481604085016020870161146c565b601f01601f19169190910160400192915050565b80820281158282048414176103a9576103a9611399565b808201808211156103a9576103a9611399565b634e487b7160e01b600052604160045260246000fd5b60008161158757611587611399565b50600019019056fecab5a0bfe0b79d2c4b1c2e02599fa044d115b7511f9659307cb4276950967709a2646970667358221220455e2cde2e4217ab535adb8f94e662aecd4ae15afccf4bbb04d1afaa3b61168f64736f6c63430008110033",
					"opcodes": "PUSH1 0x80 PUSH1 0x40 MSTORE CALLVALUE DUP1 ISZERO PUSH2 0x10 JUMPI PUSH1 0x0 DUP1 REVERT JUMPDEST POP PUSH2 0x15E5 DUP1 PUSH2 0x20 PUSH1 0x0 CODECOPY PUSH1 0x0 RETURN INVALID PUSH1 0x80 PUSH1 0x40 MSTORE CALLVALUE DUP1 ISZERO PUSH2 0x10 JUMPI PUSH1 0x0 DUP1 REVERT JUMPDEST POP PUSH1 0x4 CALLDATASIZE LT PUSH2 0x142 JUMPI PUSH1 0x0 CALLDATALOAD PUSH1 0xE0 SHR DUP1 PUSH4 0x97A012F7 GT PUSH2 0xB8 JUMPI DUP1 PUSH4 0xCF191BCD GT PUSH2 0x7C JUMPI DUP1 PUSH4 0xCF191BCD EQ PUSH2 0x2FD JUMPI DUP1 PUSH4 0xD547741F EQ PUSH2 0x310 JUMPI DUP1 PUSH4 0xE1C7392A EQ PUSH2 0x323 JUMPI DUP1 PUSH4 0xE58378BB EQ PUSH2 0x32B JUMPI DUP1 PUSH4 0xE805CF86 EQ PUSH2 0x352 JUMPI DUP1 PUSH4 0xF2FDE38B EQ PUSH2 0x365 JUMPI PUSH1 0x0 DUP1 REVERT JUMPDEST DUP1 PUSH4 0x97A012F7 EQ PUSH2 0x2A7 JUMPI DUP1 PUSH4 0x9F3418D5 EQ PUSH2 0x2BA JUMPI DUP1 PUSH4 0xA217FDDF EQ PUSH2 0x2CD JUMPI DUP1 PUSH4 0xA53410DD EQ PUSH2 0x2D5 JUMPI DUP1 PUSH4 0xBF9EB959 EQ PUSH2 0x2E8 JUMPI PUSH1 0x0 DUP1 REVERT JUMPDEST DUP1 PUSH4 0x690A49F9 GT PUSH2 0x10A JUMPI DUP1 PUSH4 0x690A49F9 EQ PUSH2 0x1DD JUMPI DUP1 PUSH4 0x715018A6 EQ PUSH2 0x1F0 JUMPI DUP1 PUSH4 0x727E13BC EQ PUSH2 0x1F8 JUMPI DUP1 PUSH4 0x7988D3A5 EQ PUSH2 0x23F JUMPI DUP1 PUSH4 0x8DA5CB5B EQ PUSH2 0x283 JUMPI DUP1 PUSH4 0x91D14854 EQ PUSH2 0x294 JUMPI PUSH1 0x0 DUP1 REVERT JUMPDEST DUP1 PUSH4 0x1FFC9A7 EQ PUSH2 0x147 JUMPI DUP1 PUSH4 0x22459E18 EQ PUSH2 0x16F JUMPI DUP1 PUSH4 0x248A9CA3 EQ PUSH2 0x192 JUMPI DUP1 PUSH4 0x2F2FF15D EQ PUSH2 0x1B5 JUMPI DUP1 PUSH4 0x36568ABE EQ PUSH2 0x1CA JUMPI JUMPDEST PUSH1 0x0 DUP1 REVERT JUMPDEST PUSH2 0x15A PUSH2 0x155 CALLDATASIZE PUSH1 0x4 PUSH2 0x1199 JUMP JUMPDEST PUSH2 0x378 JUMP JUMPDEST PUSH1 0x40 MLOAD SWAP1 ISZERO ISZERO DUP2 MSTORE PUSH1 0x20 ADD JUMPDEST PUSH1 0x40 MLOAD DUP1 SWAP2 SUB SWAP1 RETURN JUMPDEST PUSH2 0x184 PUSH1 0x0 DUP1 MLOAD PUSH1 0x20 PUSH2 0x1590 DUP4 CODECOPY DUP2 MLOAD SWAP2 MSTORE DUP2 JUMP JUMPDEST PUSH1 0x40 MLOAD SWAP1 DUP2 MSTORE PUSH1 0x20 ADD PUSH2 0x166 JUMP JUMPDEST PUSH2 0x184 PUSH2 0x1A0 CALLDATASIZE PUSH1 0x4 PUSH2 0x11C3 JUMP JUMPDEST PUSH1 0x0 SWAP1 DUP2 MSTORE PUSH1 0x65 PUSH1 0x20 MSTORE PUSH1 0x40 SWAP1 KECCAK256 PUSH1 0x1 ADD SLOAD SWAP1 JUMP JUMPDEST PUSH2 0x1C8 PUSH2 0x1C3 CALLDATASIZE PUSH1 0x4 PUSH2 0x11F1 JUMP JUMPDEST PUSH2 0x3AF JUMP JUMPDEST STOP JUMPDEST PUSH2 0x1C8 PUSH2 0x1D8 CALLDATASIZE PUSH1 0x4 PUSH2 0x11F1 JUMP JUMPDEST PUSH2 0x3D9 JUMP JUMPDEST PUSH2 0x1C8 PUSH2 0x1EB CALLDATASIZE PUSH1 0x4 PUSH2 0x1221 JUMP JUMPDEST PUSH2 0x45C JUMP JUMPDEST PUSH2 0x1C8 PUSH2 0x573 JUMP JUMPDEST PUSH2 0x22C PUSH2 0x206 CALLDATASIZE PUSH1 0x4 PUSH2 0x1221 JUMP JUMPDEST PUSH1 0x1 PUSH1 0x1 PUSH1 0xA0 SHL SUB AND PUSH1 0x0 SWAP1 DUP2 MSTORE PUSH1 0xC9 PUSH1 0x20 MSTORE PUSH1 0x40 SWAP1 KECCAK256 SLOAD PUSH1 0x1 PUSH1 0xA0 SHL SWAP1 DIV PUSH2 0xFFFF AND SWAP1 JUMP JUMPDEST PUSH1 0x40 MLOAD PUSH2 0xFFFF SWAP1 SWAP2 AND DUP2 MSTORE PUSH1 0x20 ADD PUSH2 0x166 JUMP JUMPDEST PUSH2 0x26B PUSH2 0x24D CALLDATASIZE PUSH1 0x4 PUSH2 0x1221 JUMP JUMPDEST PUSH1 0x1 PUSH1 0x1 PUSH1 0xA0 SHL SUB SWAP1 DUP2 AND PUSH1 0x0 SWAP1 DUP2 MSTORE PUSH1 0xC9 PUSH1 0x20 MSTORE PUSH1 0x40 SWAP1 KECCAK256 SLOAD AND SWAP1 JUMP JUMPDEST PUSH1 0x40 MLOAD PUSH1 0x1 PUSH1 0x1 PUSH1 0xA0 SHL SUB SWAP1 SWAP2 AND DUP2 MSTORE PUSH1 0x20 ADD PUSH2 0x166 JUMP JUMPDEST PUSH1 0x97 SLOAD PUSH1 0x1 PUSH1 0x1 PUSH1 0xA0 SHL SUB AND PUSH2 0x26B JUMP JUMPDEST PUSH2 0x15A PUSH2 0x2A2 CALLDATASIZE PUSH1 0x4 PUSH2 0x11F1 JUMP JUMPDEST PUSH2 0x587 JUMP JUMPDEST PUSH2 0x1C8 PUSH2 0x2B5 CALLDATASIZE PUSH1 0x4 PUSH2 0x1221 JUMP JUMPDEST PUSH2 0x5B2 JUMP JUMPDEST PUSH2 0x1C8 PUSH2 0x2C8 CALLDATASIZE PUSH1 0x4 PUSH2 0x1255 JUMP JUMPDEST PUSH2 0x77E JUMP JUMPDEST PUSH2 0x184 PUSH1 0x0 DUP2 JUMP JUMPDEST PUSH2 0x1C8 PUSH2 0x2E3 CALLDATASIZE PUSH1 0x4 PUSH2 0x128A JUMP JUMPDEST PUSH2 0x857 JUMP JUMPDEST PUSH2 0x2F0 PUSH2 0x971 JUMP JUMPDEST PUSH1 0x40 MLOAD PUSH2 0x166 SWAP2 SWAP1 PUSH2 0x12D1 JUMP JUMPDEST PUSH2 0x1C8 PUSH2 0x30B CALLDATASIZE PUSH1 0x4 PUSH2 0x1221 JUMP JUMPDEST PUSH2 0x9D3 JUMP JUMPDEST PUSH2 0x1C8 PUSH2 0x31E CALLDATASIZE PUSH1 0x4 PUSH2 0x11F1 JUMP JUMPDEST PUSH2 0xAA2 JUMP JUMPDEST PUSH2 0x1C8 PUSH2 0xAC7 JUMP JUMPDEST PUSH2 0x184 PUSH32 0xB19546DFF01E856FB3F010C267A7B1C60363CF8A4664E21CC89C26224620214E DUP2 JUMP JUMPDEST PUSH2 0x1C8 PUSH2 0x360 CALLDATASIZE PUSH1 0x4 PUSH2 0x131E JUMP JUMPDEST PUSH2 0xC25 JUMP JUMPDEST PUSH2 0x1C8 PUSH2 0x373 CALLDATASIZE PUSH1 0x4 PUSH2 0x1221 JUMP JUMPDEST PUSH2 0xD13 JUMP JUMPDEST PUSH1 0x0 PUSH1 0x1 PUSH1 0x1 PUSH1 0xE0 SHL SUB NOT DUP3 AND PUSH4 0x7965DB0B PUSH1 0xE0 SHL EQ DUP1 PUSH2 0x3A9 JUMPI POP PUSH4 0x1FFC9A7 PUSH1 0xE0 SHL PUSH1 0x1 PUSH1 0x1 PUSH1 0xE0 SHL SUB NOT DUP4 AND EQ JUMPDEST SWAP3 SWAP2 POP POP JUMP JUMPDEST PUSH1 0x0 DUP3 DUP2 MSTORE PUSH1 0x65 PUSH1 0x20 MSTORE PUSH1 0x40 SWAP1 KECCAK256 PUSH1 0x1 ADD SLOAD PUSH2 0x3CA DUP2 PUSH2 0xD89 JUMP JUMPDEST PUSH2 0x3D4 DUP4 DUP4 PUSH2 0xD93 JUMP JUMPDEST POP POP POP JUMP JUMPDEST PUSH1 0x1 PUSH1 0x1 PUSH1 0xA0 SHL SUB DUP2 AND CALLER EQ PUSH2 0x44E JUMPI PUSH1 0x40 MLOAD PUSH3 0x461BCD PUSH1 0xE5 SHL DUP2 MSTORE PUSH1 0x20 PUSH1 0x4 DUP3 ADD MSTORE PUSH1 0x2F PUSH1 0x24 DUP3 ADD MSTORE PUSH32 0x416363657373436F6E74726F6C3A2063616E206F6E6C792072656E6F756E6365 PUSH1 0x44 DUP3 ADD MSTORE PUSH15 0x103937B632B9903337B91039B2B633 PUSH1 0x89 SHL PUSH1 0x64 DUP3 ADD MSTORE PUSH1 0x84 ADD JUMPDEST PUSH1 0x40 MLOAD DUP1 SWAP2 SUB SWAP1 REVERT JUMPDEST PUSH2 0x458 DUP3 DUP3 PUSH2 0xE19 JUMP JUMPDEST POP POP JUMP JUMPDEST PUSH1 0x1 PUSH1 0x1 PUSH1 0xA0 SHL SUB DUP2 AND PUSH2 0x482 JUMPI PUSH1 0x40 MLOAD PUSH3 0x461BCD PUSH1 0xE5 SHL DUP2 MSTORE PUSH1 0x4 ADD PUSH2 0x445 SWAP1 PUSH2 0x134C JUMP JUMPDEST PUSH1 0xCA SLOAD PUSH2 0x12C GT PUSH2 0x4E3 JUMPI PUSH1 0x40 MLOAD PUSH3 0x461BCD PUSH1 0xE5 SHL DUP2 MSTORE PUSH1 0x20 PUSH1 0x4 DUP3 ADD MSTORE PUSH1 0x25 PUSH1 0x24 DUP3 ADD MSTORE PUSH32 0x63616E6E6F742062696E64206D6F7265207468616E2033303020495220746F20 PUSH1 0x44 DUP3 ADD MSTORE PUSH5 0x3120495253 PUSH1 0xD8 SHL PUSH1 0x64 DUP3 ADD MSTORE PUSH1 0x84 ADD PUSH2 0x445 JUMP JUMPDEST PUSH2 0x4FB PUSH1 0x0 DUP1 MLOAD PUSH1 0x20 PUSH2 0x1590 DUP4 CODECOPY DUP2 MLOAD SWAP2 MSTORE DUP3 PUSH2 0xD93 JUMP JUMPDEST PUSH1 0xCA DUP1 SLOAD PUSH1 0x1 DUP2 ADD DUP3 SSTORE PUSH1 0x0 SWAP2 DUP3 MSTORE PUSH32 0x42D72674974F694B5F5159593243114D38A5C39C89D6B62FEE061FF523240EE1 ADD DUP1 SLOAD PUSH1 0x1 PUSH1 0x1 PUSH1 0xA0 SHL SUB NOT AND PUSH1 0x1 PUSH1 0x1 PUSH1 0xA0 SHL SUB DUP5 AND SWAP1 DUP2 OR SWAP1 SWAP2 SSTORE PUSH1 0x40 MLOAD SWAP1 SWAP2 PUSH32 0x500C250171AA20E861B680F93502547B9D436EDA7D4C537FC360DB6E0C6EEDFB SWAP2 LOG2 POP JUMP JUMPDEST PUSH2 0x57B PUSH2 0xE80 JUMP JUMPDEST PUSH2 0x585 PUSH1 0x0 PUSH2 0xEDA JUMP JUMPDEST JUMP JUMPDEST PUSH1 0x0 SWAP2 DUP3 MSTORE PUSH1 0x65 PUSH1 0x20 SWAP1 DUP2 MSTORE PUSH1 0x40 DUP1 DUP5 KECCAK256 PUSH1 0x1 PUSH1 0x1 PUSH1 0xA0 SHL SUB SWAP4 SWAP1 SWAP4 AND DUP5 MSTORE SWAP2 SWAP1 MSTORE SWAP1 KECCAK256 SLOAD PUSH1 0xFF AND SWAP1 JUMP JUMPDEST PUSH1 0x1 PUSH1 0x1 PUSH1 0xA0 SHL SUB DUP2 AND PUSH2 0x5D8 JUMPI PUSH1 0x40 MLOAD PUSH3 0x461BCD PUSH1 0xE5 SHL DUP2 MSTORE PUSH1 0x4 ADD PUSH2 0x445 SWAP1 PUSH2 0x134C JUMP JUMPDEST PUSH1 0xCA SLOAD PUSH2 0x627 JUMPI PUSH1 0x40 MLOAD PUSH3 0x461BCD PUSH1 0xE5 SHL DUP2 MSTORE PUSH1 0x20 PUSH1 0x4 DUP3 ADD MSTORE PUSH1 0x1F PUSH1 0x24 DUP3 ADD MSTORE PUSH32 0x6964656E74697479207265676973747279206973206E6F742073746F72656400 PUSH1 0x44 DUP3 ADD MSTORE PUSH1 0x64 ADD PUSH2 0x445 JUMP JUMPDEST PUSH1 0xCA SLOAD PUSH1 0x0 JUMPDEST DUP2 DUP2 LT ISZERO PUSH2 0x72D JUMPI DUP3 PUSH1 0x1 PUSH1 0x1 PUSH1 0xA0 SHL SUB AND PUSH1 0xCA DUP3 DUP2 SLOAD DUP2 LT PUSH2 0x652 JUMPI PUSH2 0x652 PUSH2 0x1383 JUMP JUMPDEST PUSH1 0x0 SWAP2 DUP3 MSTORE PUSH1 0x20 SWAP1 SWAP2 KECCAK256 ADD SLOAD PUSH1 0x1 PUSH1 0x1 PUSH1 0xA0 SHL SUB AND SUB PUSH2 0x71B JUMPI PUSH1 0xCA PUSH2 0x679 PUSH1 0x1 DUP5 PUSH2 0x13AF JUMP JUMPDEST DUP2 SLOAD DUP2 LT PUSH2 0x689 JUMPI PUSH2 0x689 PUSH2 0x1383 JUMP JUMPDEST PUSH1 0x0 SWAP2 DUP3 MSTORE PUSH1 0x20 SWAP1 SWAP2 KECCAK256 ADD SLOAD PUSH1 0xCA DUP1 SLOAD PUSH1 0x1 PUSH1 0x1 PUSH1 0xA0 SHL SUB SWAP1 SWAP3 AND SWAP2 DUP4 SWAP1 DUP2 LT PUSH2 0x6B5 JUMPI PUSH2 0x6B5 PUSH2 0x1383 JUMP JUMPDEST SWAP1 PUSH1 0x0 MSTORE PUSH1 0x20 PUSH1 0x0 KECCAK256 ADD PUSH1 0x0 PUSH2 0x100 EXP DUP2 SLOAD DUP2 PUSH1 0x1 PUSH1 0x1 PUSH1 0xA0 SHL SUB MUL NOT AND SWAP1 DUP4 PUSH1 0x1 PUSH1 0x1 PUSH1 0xA0 SHL SUB AND MUL OR SWAP1 SSTORE POP PUSH1 0xCA DUP1 SLOAD DUP1 PUSH2 0x6F4 JUMPI PUSH2 0x6F4 PUSH2 0x13C2 JUMP JUMPDEST PUSH1 0x0 DUP3 DUP2 MSTORE PUSH1 0x20 SWAP1 KECCAK256 DUP2 ADD PUSH1 0x0 NOT SWAP1 DUP2 ADD DUP1 SLOAD PUSH1 0x1 PUSH1 0x1 PUSH1 0xA0 SHL SUB NOT AND SWAP1 SSTORE ADD SWAP1 SSTORE PUSH2 0x72D JUMP JUMPDEST DUP1 PUSH2 0x725 DUP2 PUSH2 0x13D8 JUMP JUMPDEST SWAP2 POP POP PUSH2 0x62D JUMP JUMPDEST POP PUSH2 0x746 PUSH1 0x0 DUP1 MLOAD PUSH1 0x20 PUSH2 0x1590 DUP4 CODECOPY DUP2 MLOAD SWAP2 MSTORE DUP4 PUSH2 0xE19 JUMP JUMPDEST PUSH1 0x40 MLOAD PUSH1 0x1 PUSH1 0x1 PUSH1 0xA0 SHL SUB DUP4 AND SWAP1 PUSH32 0x51F353EB5801583FDF2706E43C045B62FDF6B1566820B349390616363ECF72C9 SWAP1 PUSH1 0x0 SWAP1 LOG2 POP POP JUMP JUMPDEST PUSH1 0x0 DUP1 MLOAD PUSH1 0x20 PUSH2 0x1590 DUP4 CODECOPY DUP2 MLOAD SWAP2 MSTORE PUSH2 0x796 DUP2 PUSH2 0xD89 JUMP JUMPDEST PUSH1 0x1 PUSH1 0x1 PUSH1 0xA0 SHL SUB DUP4 AND PUSH2 0x7BC JUMPI PUSH1 0x40 MLOAD PUSH3 0x461BCD PUSH1 0xE5 SHL DUP2 MSTORE PUSH1 0x4 ADD PUSH2 0x445 SWAP1 PUSH2 0x134C JUMP JUMPDEST PUSH1 0x1 PUSH1 0x1 PUSH1 0xA0 SHL SUB DUP4 DUP2 AND PUSH1 0x0 SWAP1 DUP2 MSTORE PUSH1 0xC9 PUSH1 0x20 MSTORE PUSH1 0x40 SWAP1 KECCAK256 SLOAD AND PUSH2 0x7F3 JUMPI PUSH1 0x40 MLOAD PUSH3 0x461BCD PUSH1 0xE5 SHL DUP2 MSTORE PUSH1 0x4 ADD PUSH2 0x445 SWAP1 PUSH2 0x13F1 JUMP JUMPDEST PUSH1 0x1 PUSH1 0x1 PUSH1 0xA0 SHL SUB DUP4 AND PUSH1 0x0 DUP2 DUP2 MSTORE PUSH1 0xC9 PUSH1 0x20 MSTORE PUSH1 0x40 DUP1 DUP3 KECCAK256 DUP1 SLOAD PUSH2 0xFFFF PUSH1 0xA0 SHL NOT AND PUSH1 0x1 PUSH1 0xA0 SHL PUSH2 0xFFFF DUP9 AND SWAP1 DUP2 MUL SWAP2 SWAP1 SWAP2 OR SWAP1 SWAP2 SSTORE SWAP1 MLOAD SWAP1 SWAP3 SWAP2 PUSH32 0x20965FCDC6EED7AE398065B40ECE4E732BA667992CA819FC54E80E9F2047C4CF SWAP2 LOG3 POP POP POP JUMP JUMPDEST PUSH1 0x0 DUP1 MLOAD PUSH1 0x20 PUSH2 0x1590 DUP4 CODECOPY DUP2 MLOAD SWAP2 MSTORE PUSH2 0x86F DUP2 PUSH2 0xD89 JUMP JUMPDEST PUSH1 0x1 PUSH1 0x1 PUSH1 0xA0 SHL SUB DUP5 AND ISZERO DUP1 ISZERO SWAP1 PUSH2 0x88F JUMPI POP PUSH1 0x1 PUSH1 0x1 PUSH1 0xA0 SHL SUB DUP4 AND ISZERO ISZERO JUMPDEST PUSH2 0x8AB JUMPI PUSH1 0x40 MLOAD PUSH3 0x461BCD PUSH1 0xE5 SHL DUP2 MSTORE PUSH1 0x4 ADD PUSH2 0x445 SWAP1 PUSH2 0x134C JUMP JUMPDEST PUSH1 0x1 PUSH1 0x1 PUSH1 0xA0 SHL SUB DUP5 DUP2 AND PUSH1 0x0 SWAP1 DUP2 MSTORE PUSH1 0xC9 PUSH1 0x20 MSTORE PUSH1 0x40 SWAP1 KECCAK256 SLOAD AND ISZERO PUSH2 0x90C JUMPI PUSH1 0x40 MLOAD PUSH3 0x461BCD PUSH1 0xE5 SHL DUP2 MSTORE PUSH1 0x20 PUSH1 0x4 DUP3 ADD MSTORE PUSH1 0x16 PUSH1 0x24 DUP3 ADD MSTORE PUSH22 0x616464726573732073746F72656420616C7265616479 PUSH1 0x50 SHL PUSH1 0x44 DUP3 ADD MSTORE PUSH1 0x64 ADD PUSH2 0x445 JUMP JUMPDEST PUSH1 0x1 PUSH1 0x1 PUSH1 0xA0 SHL SUB DUP5 DUP2 AND PUSH1 0x0 DUP2 DUP2 MSTORE PUSH1 0xC9 PUSH1 0x20 MSTORE PUSH1 0x40 DUP1 DUP3 KECCAK256 DUP1 SLOAD SWAP5 DUP9 AND PUSH1 0x1 PUSH1 0x1 PUSH1 0xB0 SHL SUB NOT SWAP1 SWAP6 AND DUP6 OR PUSH1 0x1 PUSH1 0xA0 SHL PUSH2 0xFFFF DUP10 AND MUL OR SWAP1 SSTORE MLOAD PUSH31 0x30DEA7E9C9AFAA2E3C9810F2FC9B5181F1BAD74CA5A8DB85F746A33585E747 SWAP2 SWAP1 LOG3 POP POP POP POP JUMP JUMPDEST PUSH1 0x60 PUSH1 0xCA DUP1 SLOAD DUP1 PUSH1 0x20 MUL PUSH1 0x20 ADD PUSH1 0x40 MLOAD SWAP1 DUP2 ADD PUSH1 0x40 MSTORE DUP1 SWAP3 SWAP2 SWAP1 DUP2 DUP2 MSTORE PUSH1 0x20 ADD DUP3 DUP1 SLOAD DUP1 ISZERO PUSH2 0x9C9 JUMPI PUSH1 0x20 MUL DUP3 ADD SWAP2 SWAP1 PUSH1 0x0 MSTORE PUSH1 0x20 PUSH1 0x0 KECCAK256 SWAP1 JUMPDEST DUP2 SLOAD PUSH1 0x1 PUSH1 0x1 PUSH1 0xA0 SHL SUB AND DUP2 MSTORE PUSH1 0x1 SWAP1 SWAP2 ADD SWAP1 PUSH1 0x20 ADD DUP1 DUP4 GT PUSH2 0x9AB JUMPI JUMPDEST POP POP POP POP POP SWAP1 POP SWAP1 JUMP JUMPDEST PUSH1 0x0 DUP1 MLOAD PUSH1 0x20 PUSH2 0x1590 DUP4 CODECOPY DUP2 MLOAD SWAP2 MSTORE PUSH2 0x9EB DUP2 PUSH2 0xD89 JUMP JUMPDEST PUSH1 0x1 PUSH1 0x1 PUSH1 0xA0 SHL SUB DUP3 AND PUSH2 0xA11 JUMPI PUSH1 0x40 MLOAD PUSH3 0x461BCD PUSH1 0xE5 SHL DUP2 MSTORE PUSH1 0x4 ADD PUSH2 0x445 SWAP1 PUSH2 0x134C JUMP JUMPDEST PUSH1 0x1 PUSH1 0x1 PUSH1 0xA0 SHL SUB DUP3 DUP2 AND PUSH1 0x0 SWAP1 DUP2 MSTORE PUSH1 0xC9 PUSH1 0x20 MSTORE PUSH1 0x40 SWAP1 KECCAK256 SLOAD AND PUSH2 0xA48 JUMPI PUSH1 0x40 MLOAD PUSH3 0x461BCD PUSH1 0xE5 SHL DUP2 MSTORE PUSH1 0x4 ADD PUSH2 0x445 SWAP1 PUSH2 0x13F1 JUMP JUMPDEST PUSH1 0x1 PUSH1 0x1 PUSH1 0xA0 SHL SUB DUP1 DUP4 AND PUSH1 0x0 DUP2 DUP2 MSTORE PUSH1 0xC9 PUSH1 0x20 MSTORE PUSH1 0x40 DUP1 DUP3 KECCAK256 DUP1 SLOAD PUSH1 0x1 PUSH1 0x1 PUSH1 0xB0 SHL SUB NOT DUP2 AND SWAP1 SWAP2 SSTORE SWAP1 MLOAD SWAP4 AND SWAP3 DUP4 SWAP3 SWAP2 PUSH32 0xCA6A4C3370B859312246E7F086284076E557997E10D856B716C23AB67067790B SWAP2 LOG3 POP POP POP JUMP JUMPDEST PUSH1 0x0 DUP3 DUP2 MSTORE PUSH1 0x65 PUSH1 0x20 MSTORE PUSH1 0x40 SWAP1 KECCAK256 PUSH1 0x1 ADD SLOAD PUSH2 0xABD DUP2 PUSH2 0xD89 JUMP JUMPDEST PUSH2 0x3D4 DUP4 DUP4 PUSH2 0xE19 JUMP JUMPDEST PUSH1 0x0 SLOAD PUSH2 0x100 SWAP1 DIV PUSH1 0xFF AND ISZERO DUP1 DUP1 ISZERO PUSH2 0xAE7 JUMPI POP PUSH1 0x0 SLOAD PUSH1 0x1 PUSH1 0xFF SWAP1 SWAP2 AND LT JUMPDEST DUP1 PUSH2 0xB01 JUMPI POP ADDRESS EXTCODESIZE ISZERO DUP1 ISZERO PUSH2 0xB01 JUMPI POP PUSH1 0x0 SLOAD PUSH1 0xFF AND PUSH1 0x1 EQ JUMPDEST PUSH2 0xB64 JUMPI PUSH1 0x40 MLOAD PUSH3 0x461BCD PUSH1 0xE5 SHL DUP2 MSTORE PUSH1 0x20 PUSH1 0x4 DUP3 ADD MSTORE PUSH1 0x2E PUSH1 0x24 DUP3 ADD MSTORE PUSH32 0x496E697469616C697A61626C653A20636F6E747261637420697320616C726561 PUSH1 0x44 DUP3 ADD MSTORE PUSH14 0x191E481A5B9A5D1A585B1A5E9959 PUSH1 0x92 SHL PUSH1 0x64 DUP3 ADD MSTORE PUSH1 0x84 ADD PUSH2 0x445 JUMP JUMPDEST PUSH1 0x0 DUP1 SLOAD PUSH1 0xFF NOT AND PUSH1 0x1 OR SWAP1 SSTORE DUP1 ISZERO PUSH2 0xB87 JUMPI PUSH1 0x0 DUP1 SLOAD PUSH2 0xFF00 NOT AND PUSH2 0x100 OR SWAP1 SSTORE JUMPDEST PUSH2 0xB92 PUSH1 0x0 CALLER PUSH2 0xD93 JUMP JUMPDEST PUSH2 0xBBC PUSH32 0xB19546DFF01E856FB3F010C267A7B1C60363CF8A4664E21CC89C26224620214E CALLER PUSH2 0xD93 JUMP JUMPDEST PUSH2 0xBD4 PUSH1 0x0 DUP1 MLOAD PUSH1 0x20 PUSH2 0x1590 DUP4 CODECOPY DUP2 MLOAD SWAP2 MSTORE CALLER PUSH2 0xD93 JUMP JUMPDEST PUSH2 0xBDC PUSH2 0xF2C JUMP JUMPDEST DUP1 ISZERO PUSH2 0xC22 JUMPI PUSH1 0x0 DUP1 SLOAD PUSH2 0xFF00 NOT AND SWAP1 SSTORE PUSH1 0x40 MLOAD PUSH1 0x1 DUP2 MSTORE PUSH32 0x7F26B83FF96E1F2B6A682F133852F6798A09C465DA95921460CEFB3847402498 SWAP1 PUSH1 0x20 ADD PUSH1 0x40 MLOAD DUP1 SWAP2 SUB SWAP1 LOG1 JUMPDEST POP JUMP JUMPDEST PUSH1 0x0 DUP1 MLOAD PUSH1 0x20 PUSH2 0x1590 DUP4 CODECOPY DUP2 MLOAD SWAP2 MSTORE PUSH2 0xC3D DUP2 PUSH2 0xD89 JUMP JUMPDEST PUSH1 0x1 PUSH1 0x1 PUSH1 0xA0 SHL SUB DUP4 AND ISZERO DUP1 ISZERO SWAP1 PUSH2 0xC5D JUMPI POP PUSH1 0x1 PUSH1 0x1 PUSH1 0xA0 SHL SUB DUP3 AND ISZERO ISZERO JUMPDEST PUSH2 0xC79 JUMPI PUSH1 0x40 MLOAD PUSH3 0x461BCD PUSH1 0xE5 SHL DUP2 MSTORE PUSH1 0x4 ADD PUSH2 0x445 SWAP1 PUSH2 0x134C JUMP JUMPDEST PUSH1 0x1 PUSH1 0x1 PUSH1 0xA0 SHL SUB DUP4 DUP2 AND PUSH1 0x0 SWAP1 DUP2 MSTORE PUSH1 0xC9 PUSH1 0x20 MSTORE PUSH1 0x40 SWAP1 KECCAK256 SLOAD AND PUSH2 0xCB0 JUMPI PUSH1 0x40 MLOAD PUSH3 0x461BCD PUSH1 0xE5 SHL DUP2 MSTORE PUSH1 0x4 ADD PUSH2 0x445 SWAP1 PUSH2 0x13F1 JUMP JUMPDEST PUSH1 0x1 PUSH1 0x1 PUSH1 0xA0 SHL SUB DUP1 DUP5 AND PUSH1 0x0 SWAP1 DUP2 MSTORE PUSH1 0xC9 PUSH1 0x20 MSTORE PUSH1 0x40 DUP1 DUP3 KECCAK256 DUP1 SLOAD DUP7 DUP6 AND PUSH1 0x1 PUSH1 0x1 PUSH1 0xA0 SHL SUB NOT DUP3 AND DUP2 OR SWAP1 SWAP3 SSTORE SWAP2 MLOAD SWAP2 SWAP1 SWAP4 AND SWAP3 SWAP2 DUP4 SWAP2 PUSH32 0x556CE885DFCEA52155C773F1ED2E58781C51945C13030AB8F793C61F51D1B808 SWAP2 SWAP1 LOG3 POP POP POP POP JUMP JUMPDEST PUSH2 0xD1B PUSH2 0xE80 JUMP JUMPDEST PUSH1 0x1 PUSH1 0x1 PUSH1 0xA0 SHL SUB DUP2 AND PUSH2 0xD80 JUMPI PUSH1 0x40 MLOAD PUSH3 0x461BCD PUSH1 0xE5 SHL DUP2 MSTORE PUSH1 0x20 PUSH1 0x4 DUP3 ADD MSTORE PUSH1 0x26 PUSH1 0x24 DUP3 ADD MSTORE PUSH32 0x4F776E61626C653A206E6577206F776E657220697320746865207A65726F2061 PUSH1 0x44 DUP3 ADD MSTORE PUSH6 0x646472657373 PUSH1 0xD0 SHL PUSH1 0x64 DUP3 ADD MSTORE PUSH1 0x84 ADD PUSH2 0x445 JUMP JUMPDEST PUSH2 0xC22 DUP2 PUSH2 0xEDA JUMP JUMPDEST PUSH2 0xC22 DUP2 CALLER PUSH2 0xF5B JUMP JUMPDEST PUSH2 0xD9D DUP3 DUP3 PUSH2 0x587 JUMP JUMPDEST PUSH2 0x458 JUMPI PUSH1 0x0 DUP3 DUP2 MSTORE PUSH1 0x65 PUSH1 0x20 SWAP1 DUP2 MSTORE PUSH1 0x40 DUP1 DUP4 KECCAK256 PUSH1 0x1 PUSH1 0x1 PUSH1 0xA0 SHL SUB DUP6 AND DUP5 MSTORE SWAP1 SWAP2 MSTORE SWAP1 KECCAK256 DUP1 SLOAD PUSH1 0xFF NOT AND PUSH1 0x1 OR SWAP1 SSTORE PUSH2 0xDD5 CALLER SWAP1 JUMP JUMPDEST PUSH1 0x1 PUSH1 0x1 PUSH1 0xA0 SHL SUB AND DUP2 PUSH1 0x1 PUSH1 0x1 PUSH1 0xA0 SHL SUB AND DUP4 PUSH32 0x2F8788117E7EFF1D82E926EC794901D17C78024A50270940304540A733656F0D PUSH1 0x40 MLOAD PUSH1 0x40 MLOAD DUP1 SWAP2 SUB SWAP1 LOG4 POP POP JUMP JUMPDEST PUSH2 0xE23 DUP3 DUP3 PUSH2 0x587 JUMP JUMPDEST ISZERO PUSH2 0x458 JUMPI PUSH1 0x0 DUP3 DUP2 MSTORE PUSH1 0x65 PUSH1 0x20 SWAP1 DUP2 MSTORE PUSH1 0x40 DUP1 DUP4 KECCAK256 PUSH1 0x1 PUSH1 0x1 PUSH1 0xA0 SHL SUB DUP6 AND DUP1 DUP6 MSTORE SWAP3 MSTORE DUP1 DUP4 KECCAK256 DUP1 SLOAD PUSH1 0xFF NOT AND SWAP1 SSTORE MLOAD CALLER SWAP3 DUP6 SWAP2 PUSH32 0xF6391F5C32D9C69D2A47EA670B442974B53935D1EDC7FD64EB21E047A839171B SWAP2 SWAP1 LOG4 POP POP JUMP JUMPDEST PUSH1 0x97 SLOAD PUSH1 0x1 PUSH1 0x1 PUSH1 0xA0 SHL SUB AND CALLER EQ PUSH2 0x585 JUMPI PUSH1 0x40 MLOAD PUSH3 0x461BCD PUSH1 0xE5 SHL DUP2 MSTORE PUSH1 0x20 PUSH1 0x4 DUP3 ADD DUP2 SWAP1 MSTORE PUSH1 0x24 DUP3 ADD MSTORE PUSH32 0x4F776E61626C653A2063616C6C6572206973206E6F7420746865206F776E6572 PUSH1 0x44 DUP3 ADD MSTORE PUSH1 0x64 ADD PUSH2 0x445 JUMP JUMPDEST PUSH1 0x97 DUP1 SLOAD PUSH1 0x1 PUSH1 0x1 PUSH1 0xA0 SHL SUB DUP4 DUP2 AND PUSH1 0x1 PUSH1 0x1 PUSH1 0xA0 SHL SUB NOT DUP4 AND DUP2 OR SWAP1 SWAP4 SSTORE PUSH1 0x40 MLOAD SWAP2 AND SWAP2 SWAP1 DUP3 SWAP1 PUSH32 0x8BE0079C531659141344CD1FD0A4F28419497F9722A3DAAFE3B4186F6B6457E0 SWAP1 PUSH1 0x0 SWAP1 LOG3 POP POP JUMP JUMPDEST PUSH1 0x0 SLOAD PUSH2 0x100 SWAP1 DIV PUSH1 0xFF AND PUSH2 0xF53 JUMPI PUSH1 0x40 MLOAD PUSH3 0x461BCD PUSH1 0xE5 SHL DUP2 MSTORE PUSH1 0x4 ADD PUSH2 0x445 SWAP1 PUSH2 0x1421 JUMP JUMPDEST PUSH2 0x585 PUSH2 0xFB4 JUMP JUMPDEST PUSH2 0xF65 DUP3 DUP3 PUSH2 0x587 JUMP JUMPDEST PUSH2 0x458 JUMPI PUSH2 0xF72 DUP2 PUSH2 0xFE4 JUMP JUMPDEST PUSH2 0xF7D DUP4 PUSH1 0x20 PUSH2 0xFF6 JUMP JUMPDEST PUSH1 0x40 MLOAD PUSH1 0x20 ADD PUSH2 0xF8E SWAP3 SWAP2 SWAP1 PUSH2 0x1490 JUMP JUMPDEST PUSH1 0x40 DUP1 MLOAD PUSH1 0x1F NOT DUP2 DUP5 SUB ADD DUP2 MSTORE SWAP1 DUP3 SWAP1 MSTORE PUSH3 0x461BCD PUSH1 0xE5 SHL DUP3 MSTORE PUSH2 0x445 SWAP2 PUSH1 0x4 ADD PUSH2 0x1505 JUMP JUMPDEST PUSH1 0x0 SLOAD PUSH2 0x100 SWAP1 DIV PUSH1 0xFF AND PUSH2 0xFDB JUMPI PUSH1 0x40 MLOAD PUSH3 0x461BCD PUSH1 0xE5 SHL DUP2 MSTORE PUSH1 0x4 ADD PUSH2 0x445 SWAP1 PUSH2 0x1421 JUMP JUMPDEST PUSH2 0x585 CALLER PUSH2 0xEDA JUMP JUMPDEST PUSH1 0x60 PUSH2 0x3A9 PUSH1 0x1 PUSH1 0x1 PUSH1 0xA0 SHL SUB DUP4 AND PUSH1 0x14 JUMPDEST PUSH1 0x60 PUSH1 0x0 PUSH2 0x1005 DUP4 PUSH1 0x2 PUSH2 0x1538 JUMP JUMPDEST PUSH2 0x1010 SWAP1 PUSH1 0x2 PUSH2 0x154F JUMP JUMPDEST PUSH8 0xFFFFFFFFFFFFFFFF DUP2 GT ISZERO PUSH2 0x1028 JUMPI PUSH2 0x1028 PUSH2 0x1562 JUMP JUMPDEST PUSH1 0x40 MLOAD SWAP1 DUP1 DUP3 MSTORE DUP1 PUSH1 0x1F ADD PUSH1 0x1F NOT AND PUSH1 0x20 ADD DUP3 ADD PUSH1 0x40 MSTORE DUP1 ISZERO PUSH2 0x1052 JUMPI PUSH1 0x20 DUP3 ADD DUP2 DUP1 CALLDATASIZE DUP4 CALLDATACOPY ADD SWAP1 POP JUMPDEST POP SWAP1 POP PUSH1 0x3 PUSH1 0xFC SHL DUP2 PUSH1 0x0 DUP2 MLOAD DUP2 LT PUSH2 0x106D JUMPI PUSH2 0x106D PUSH2 0x1383 JUMP JUMPDEST PUSH1 0x20 ADD ADD SWAP1 PUSH1 0x1 PUSH1 0x1 PUSH1 0xF8 SHL SUB NOT AND SWAP1 DUP2 PUSH1 0x0 BYTE SWAP1 MSTORE8 POP PUSH1 0xF PUSH1 0xFB SHL DUP2 PUSH1 0x1 DUP2 MLOAD DUP2 LT PUSH2 0x109C JUMPI PUSH2 0x109C PUSH2 0x1383 JUMP JUMPDEST PUSH1 0x20 ADD ADD SWAP1 PUSH1 0x1 PUSH1 0x1 PUSH1 0xF8 SHL SUB NOT AND SWAP1 DUP2 PUSH1 0x0 BYTE SWAP1 MSTORE8 POP PUSH1 0x0 PUSH2 0x10C0 DUP5 PUSH1 0x2 PUSH2 0x1538 JUMP JUMPDEST PUSH2 0x10CB SWAP1 PUSH1 0x1 PUSH2 0x154F JUMP JUMPDEST SWAP1 POP JUMPDEST PUSH1 0x1 DUP2 GT ISZERO PUSH2 0x1143 JUMPI PUSH16 0x181899199A1A9B1B9C1CB0B131B232B3 PUSH1 0x81 SHL DUP6 PUSH1 0xF AND PUSH1 0x10 DUP2 LT PUSH2 0x10FF JUMPI PUSH2 0x10FF PUSH2 0x1383 JUMP JUMPDEST BYTE PUSH1 0xF8 SHL DUP3 DUP3 DUP2 MLOAD DUP2 LT PUSH2 0x1115 JUMPI PUSH2 0x1115 PUSH2 0x1383 JUMP JUMPDEST PUSH1 0x20 ADD ADD SWAP1 PUSH1 0x1 PUSH1 0x1 PUSH1 0xF8 SHL SUB NOT AND SWAP1 DUP2 PUSH1 0x0 BYTE SWAP1 MSTORE8 POP PUSH1 0x4 SWAP5 SWAP1 SWAP5 SHR SWAP4 PUSH2 0x113C DUP2 PUSH2 0x1578 JUMP JUMPDEST SWAP1 POP PUSH2 0x10CE JUMP JUMPDEST POP DUP4 ISZERO PUSH2 0x1192 JUMPI PUSH1 0x40 MLOAD PUSH3 0x461BCD PUSH1 0xE5 SHL DUP2 MSTORE PUSH1 0x20 PUSH1 0x4 DUP3 ADD DUP2 SWAP1 MSTORE PUSH1 0x24 DUP3 ADD MSTORE PUSH32 0x537472696E67733A20686578206C656E67746820696E73756666696369656E74 PUSH1 0x44 DUP3 ADD MSTORE PUSH1 0x64 ADD PUSH2 0x445 JUMP JUMPDEST SWAP4 SWAP3 POP POP POP JUMP JUMPDEST PUSH1 0x0 PUSH1 0x20 DUP3 DUP5 SUB SLT ISZERO PUSH2 0x11AB JUMPI PUSH1 0x0 DUP1 REVERT JUMPDEST DUP2 CALLDATALOAD PUSH1 0x1 PUSH1 0x1 PUSH1 0xE0 SHL SUB NOT DUP2 AND DUP2 EQ PUSH2 0x1192 JUMPI PUSH1 0x0 DUP1 REVERT JUMPDEST PUSH1 0x0 PUSH1 0x20 DUP3 DUP5 SUB SLT ISZERO PUSH2 0x11D5 JUMPI PUSH1 0x0 DUP1 REVERT JUMPDEST POP CALLDATALOAD SWAP2 SWAP1 POP JUMP JUMPDEST PUSH1 0x1 PUSH1 0x1 PUSH1 0xA0 SHL SUB DUP2 AND DUP2 EQ PUSH2 0xC22 JUMPI PUSH1 0x0 DUP1 REVERT JUMPDEST PUSH1 0x0 DUP1 PUSH1 0x40 DUP4 DUP6 SUB SLT ISZERO PUSH2 0x1204 JUMPI PUSH1 0x0 DUP1 REVERT JUMPDEST DUP3 CALLDATALOAD SWAP2 POP PUSH1 0x20 DUP4 ADD CALLDATALOAD PUSH2 0x1216 DUP2 PUSH2 0x11DC JUMP JUMPDEST DUP1 SWAP2 POP POP SWAP3 POP SWAP3 SWAP1 POP JUMP JUMPDEST PUSH1 0x0 PUSH1 0x20 DUP3 DUP5 SUB SLT ISZERO PUSH2 0x1233 JUMPI PUSH1 0x0 DUP1 REVERT JUMPDEST DUP2 CALLDATALOAD PUSH2 0x1192 DUP2 PUSH2 0x11DC JUMP JUMPDEST DUP1 CALLDATALOAD PUSH2 0xFFFF DUP2 AND DUP2 EQ PUSH2 0x1250 JUMPI PUSH1 0x0 DUP1 REVERT JUMPDEST SWAP2 SWAP1 POP JUMP JUMPDEST PUSH1 0x0 DUP1 PUSH1 0x40 DUP4 DUP6 SUB SLT ISZERO PUSH2 0x1268 JUMPI PUSH1 0x0 DUP1 REVERT JUMPDEST DUP3 CALLDATALOAD PUSH2 0x1273 DUP2 PUSH2 0x11DC JUMP JUMPDEST SWAP2 POP PUSH2 0x1281 PUSH1 0x20 DUP5 ADD PUSH2 0x123E JUMP JUMPDEST SWAP1 POP SWAP3 POP SWAP3 SWAP1 POP JUMP JUMPDEST PUSH1 0x0 DUP1 PUSH1 0x0 PUSH1 0x60 DUP5 DUP7 SUB SLT ISZERO PUSH2 0x129F JUMPI PUSH1 0x0 DUP1 REVERT JUMPDEST DUP4 CALLDATALOAD PUSH2 0x12AA DUP2 PUSH2 0x11DC JUMP JUMPDEST SWAP3 POP PUSH1 0x20 DUP5 ADD CALLDATALOAD PUSH2 0x12BA DUP2 PUSH2 0x11DC JUMP JUMPDEST SWAP2 POP PUSH2 0x12C8 PUSH1 0x40 DUP6 ADD PUSH2 0x123E JUMP JUMPDEST SWAP1 POP SWAP3 POP SWAP3 POP SWAP3 JUMP JUMPDEST PUSH1 0x20 DUP1 DUP3 MSTORE DUP3 MLOAD DUP3 DUP3 ADD DUP2 SWAP1 MSTORE PUSH1 0x0 SWAP2 SWAP1 DUP5 DUP3 ADD SWAP1 PUSH1 0x40 DUP6 ADD SWAP1 DUP5 JUMPDEST DUP2 DUP2 LT ISZERO PUSH2 0x1312 JUMPI DUP4 MLOAD PUSH1 0x1 PUSH1 0x1 PUSH1 0xA0 SHL SUB AND DUP4 MSTORE SWAP3 DUP5 ADD SWAP3 SWAP2 DUP5 ADD SWAP2 PUSH1 0x1 ADD PUSH2 0x12ED JUMP JUMPDEST POP SWAP1 SWAP7 SWAP6 POP POP POP POP POP POP JUMP JUMPDEST PUSH1 0x0 DUP1 PUSH1 0x40 DUP4 DUP6 SUB SLT ISZERO PUSH2 0x1331 JUMPI PUSH1 0x0 DUP1 REVERT JUMPDEST DUP3 CALLDATALOAD PUSH2 0x133C DUP2 PUSH2 0x11DC JUMP JUMPDEST SWAP2 POP PUSH1 0x20 DUP4 ADD CALLDATALOAD PUSH2 0x1216 DUP2 PUSH2 0x11DC JUMP JUMPDEST PUSH1 0x20 DUP1 DUP3 MSTORE PUSH1 0x1F SWAP1 DUP3 ADD MSTORE PUSH32 0x696E76616C696420617267756D656E74202D207A65726F206164647265737300 PUSH1 0x40 DUP3 ADD MSTORE PUSH1 0x60 ADD SWAP1 JUMP JUMPDEST PUSH4 0x4E487B71 PUSH1 0xE0 SHL PUSH1 0x0 MSTORE PUSH1 0x32 PUSH1 0x4 MSTORE PUSH1 0x24 PUSH1 0x0 REVERT JUMPDEST PUSH4 0x4E487B71 PUSH1 0xE0 SHL PUSH1 0x0 MSTORE PUSH1 0x11 PUSH1 0x4 MSTORE PUSH1 0x24 PUSH1 0x0 REVERT JUMPDEST DUP2 DUP2 SUB DUP2 DUP2 GT ISZERO PUSH2 0x3A9 JUMPI PUSH2 0x3A9 PUSH2 0x1399 JUMP JUMPDEST PUSH4 0x4E487B71 PUSH1 0xE0 SHL PUSH1 0x0 MSTORE PUSH1 0x31 PUSH1 0x4 MSTORE PUSH1 0x24 PUSH1 0x0 REVERT JUMPDEST PUSH1 0x0 PUSH1 0x1 DUP3 ADD PUSH2 0x13EA JUMPI PUSH2 0x13EA PUSH2 0x1399 JUMP JUMPDEST POP PUSH1 0x1 ADD SWAP1 JUMP JUMPDEST PUSH1 0x20 DUP1 DUP3 MSTORE PUSH1 0x16 SWAP1 DUP3 ADD MSTORE PUSH22 0x1859191C995CDCC81B9BDD081CDD1BDC9959081E595D PUSH1 0x52 SHL PUSH1 0x40 DUP3 ADD MSTORE PUSH1 0x60 ADD SWAP1 JUMP JUMPDEST PUSH1 0x20 DUP1 DUP3 MSTORE PUSH1 0x2B SWAP1 DUP3 ADD MSTORE PUSH32 0x496E697469616C697A61626C653A20636F6E7472616374206973206E6F742069 PUSH1 0x40 DUP3 ADD MSTORE PUSH11 0x6E697469616C697A696E67 PUSH1 0xA8 SHL PUSH1 0x60 DUP3 ADD MSTORE PUSH1 0x80 ADD SWAP1 JUMP JUMPDEST PUSH1 0x0 JUMPDEST DUP4 DUP2 LT ISZERO PUSH2 0x1487 JUMPI DUP2 DUP2 ADD MLOAD DUP4 DUP3 ADD MSTORE PUSH1 0x20 ADD PUSH2 0x146F JUMP JUMPDEST POP POP PUSH1 0x0 SWAP2 ADD MSTORE JUMP JUMPDEST PUSH32 0x416363657373436F6E74726F6C3A206163636F756E7420000000000000000000 DUP2 MSTORE PUSH1 0x0 DUP4 MLOAD PUSH2 0x14C8 DUP2 PUSH1 0x17 DUP6 ADD PUSH1 0x20 DUP9 ADD PUSH2 0x146C JUMP JUMPDEST PUSH17 0x1034B99036B4B9B9B4B733903937B6329 PUSH1 0x7D SHL PUSH1 0x17 SWAP2 DUP5 ADD SWAP2 DUP3 ADD MSTORE DUP4 MLOAD PUSH2 0x14F9 DUP2 PUSH1 0x28 DUP5 ADD PUSH1 0x20 DUP9 ADD PUSH2 0x146C JUMP JUMPDEST ADD PUSH1 0x28 ADD SWAP5 SWAP4 POP POP POP POP JUMP JUMPDEST PUSH1 0x20 DUP2 MSTORE PUSH1 0x0 DUP3 MLOAD DUP1 PUSH1 0x20 DUP5 ADD MSTORE PUSH2 0x1524 DUP2 PUSH1 0x40 DUP6 ADD PUSH1 0x20 DUP8 ADD PUSH2 0x146C JUMP JUMPDEST PUSH1 0x1F ADD PUSH1 0x1F NOT AND SWAP2 SWAP1 SWAP2 ADD PUSH1 0x40 ADD SWAP3 SWAP2 POP POP JUMP JUMPDEST DUP1 DUP3 MUL DUP2 ISZERO DUP3 DUP3 DIV DUP5 EQ OR PUSH2 0x3A9 JUMPI PUSH2 0x3A9 PUSH2 0x1399 JUMP JUMPDEST DUP1 DUP3 ADD DUP1 DUP3 GT ISZERO PUSH2 0x3A9 JUMPI PUSH2 0x3A9 PUSH2 0x1399 JUMP JUMPDEST PUSH4 0x4E487B71 PUSH1 0xE0 SHL PUSH1 0x0 MSTORE PUSH1 0x41 PUSH1 0x4 MSTORE PUSH1 0x24 PUSH1 0x0 REVERT JUMPDEST PUSH1 0x0 DUP2 PUSH2 0x1587 JUMPI PUSH2 0x1587 PUSH2 0x1399 JUMP JUMPDEST POP PUSH1 0x0 NOT ADD SWAP1 JUMP INVALID 0xCA 0xB5 LOG0 0xBF 0xE0 0xB7 SWAP14 0x2C 0x4B SHR 0x2E MUL MSIZE SWAP16 LOG0 DIFFICULTY 0xD1 ISZERO 0xB7 MLOAD 0x1F SWAP7 MSIZE ADDRESS PUSH29 0xB4276950967709A2646970667358221220455E2CDE2E4217AB535ADB8F SWAP5 0xE6 PUSH3 0xAECD4A 0xE1 GAS 0xFC 0xCF 0x4B 0xBB DIV 0xD1 0xAF 0xAA EXTCODESIZE PUSH2 0x168F PUSH5 0x736F6C6343 STOP ADDMOD GT STOP CALLER "
				},
				"gasEstimates": {
					"creation": {
						"codeDepositCost": "1121000",
						"executionCost": "1167",
						"totalCost": "1122167"
					},
					"external": {
						"AGENT_ROLE()": "infinite",
						"DEFAULT_ADMIN_ROLE()": "262",
						"OWNER_ROLE()": "283",
						"addIdentityToStorage(address,address,uint16)": "infinite",
						"bindIdentityRegistry(address)": "80843",
						"getRoleAdmin(bytes32)": "2512",
						"grantRole(bytes32,address)": "infinite",
						"hasRole(bytes32,address)": "2786",
						"init()": "infinite",
						"linkedIdentityRegistries()": "infinite",
						"modifyStoredIdentity(address,address)": "infinite",
						"modifyStoredInvestorCountry(address,uint16)": "infinite",
						"owner()": "2442",
						"removeIdentityFromStorage(address)": "infinite",
						"renounceOwnership()": "infinite",
						"renounceRole(bytes32,address)": "29112",
						"revokeRole(bytes32,address)": "infinite",
						"storedIdentity(address)": "2650",
						"storedInvestorCountry(address)": "2630",
						"supportsInterface(bytes4)": "450",
						"transferOwnership(address)": "infinite",
						"unbindIdentityRegistry(address)": "infinite"
					}
				},
				"methodIdentifiers": {
					"AGENT_ROLE()": "22459e18",
					"DEFAULT_ADMIN_ROLE()": "a217fddf",
					"OWNER_ROLE()": "e58378bb",
					"addIdentityToStorage(address,address,uint16)": "a53410dd",
					"bindIdentityRegistry(address)": "690a49f9",
					"getRoleAdmin(bytes32)": "248a9ca3",
					"grantRole(bytes32,address)": "2f2ff15d",
					"hasRole(bytes32,address)": "91d14854",
					"init()": "e1c7392a",
					"linkedIdentityRegistries()": "bf9eb959",
					"modifyStoredIdentity(address,address)": "e805cf86",
					"modifyStoredInvestorCountry(address,uint16)": "9f3418d5",
					"owner()": "8da5cb5b",
					"removeIdentityFromStorage(address)": "cf191bcd",
					"renounceOwnership()": "715018a6",
					"renounceRole(bytes32,address)": "36568abe",
					"revokeRole(bytes32,address)": "d547741f",
					"storedIdentity(address)": "7988d3a5",
					"storedInvestorCountry(address)": "727e13bc",
					"supportsInterface(bytes4)": "01ffc9a7",
					"transferOwnership(address)": "f2fde38b",
					"unbindIdentityRegistry(address)": "97a012f7"
				}
			},
			"storageLayout": {
				"storage": [
					{
						"astId": 811,
						"contract": "erc3643/erc3643/registry/implementation/IdentityRegistryStorage.sol:IdentityRegistryStorage",
						"label": "_initialized",
						"offset": 0,
						"slot": "0",
						"type": "t_uint8"
					},
					{
						"astId": 814,
						"contract": "erc3643/erc3643/registry/implementation/IdentityRegistryStorage.sol:IdentityRegistryStorage",
						"label": "_initializing",
						"offset": 1,
						"slot": "0",
						"type": "t_bool"
					},
					{
						"astId": 1344,
						"contract": "erc3643/erc3643/registry/implementation/IdentityRegistryStorage.sol:IdentityRegistryStorage",
						"label": "__gap",
						"offset": 0,
						"slot": "1",
						"type": "t_array(t_uint256)50_storage"
					},
					{
						"astId": 1617,
						"contract": "erc3643/erc3643/registry/implementation/IdentityRegistryStorage.sol:IdentityRegistryStorage",
						"label": "__gap",
						"offset": 0,
						"slot": "51",
						"type": "t_array(t_uint256)50_storage"
					},
					{
						"astId": 303,
						"contract": "erc3643/erc3643/registry/implementation/IdentityRegistryStorage.sol:IdentityRegistryStorage",
						"label": "_roles",
						"offset": 0,
						"slot": "101",
						"type": "t_mapping(t_bytes32,t_struct(RoleData)298_storage)"
					},
					{
						"astId": 598,
						"contract": "erc3643/erc3643/registry/implementation/IdentityRegistryStorage.sol:IdentityRegistryStorage",
						"label": "__gap",
						"offset": 0,
						"slot": "102",
						"type": "t_array(t_uint256)49_storage"
					},
					{
						"astId": 683,
						"contract": "erc3643/erc3643/registry/implementation/IdentityRegistryStorage.sol:IdentityRegistryStorage",
						"label": "_owner",
						"offset": 0,
						"slot": "151",
						"type": "t_address"
					},
					{
						"astId": 803,
						"contract": "erc3643/erc3643/registry/implementation/IdentityRegistryStorage.sol:IdentityRegistryStorage",
						"label": "__gap",
						"offset": 0,
						"slot": "152",
						"type": "t_array(t_uint256)49_storage"
					},
					{
						"astId": 3174,
						"contract": "erc3643/erc3643/registry/implementation/IdentityRegistryStorage.sol:IdentityRegistryStorage",
						"label": "_identities",
						"offset": 0,
						"slot": "201",
						"type": "t_mapping(t_address,t_struct(Identity)3169_storage)"
					},
					{
						"astId": 3177,
						"contract": "erc3643/erc3643/registry/implementation/IdentityRegistryStorage.sol:IdentityRegistryStorage",
						"label": "_identityRegistries",
						"offset": 0,
						"slot": "202",
						"type": "t_array(t_address)dyn_storage"
					},
					{
						"astId": 3181,
						"contract": "erc3643/erc3643/registry/implementation/IdentityRegistryStorage.sol:IdentityRegistryStorage",
						"label": "__gap",
						"offset": 0,
						"slot": "203",
						"type": "t_array(t_uint256)49_storage"
					}
				],
				"types": {
					"t_address": {
						"encoding": "inplace",
						"label": "address",
						"numberOfBytes": "20"
					},
					"t_array(t_address)dyn_storage": {
						"base": "t_address",
						"encoding": "dynamic_array",
						"label": "address[]",
						"numberOfBytes": "32"
					},
					"t_array(t_uint256)49_storage": {
						"base": "t_uint256",
						"encoding": "inplace",
						"label": "uint256[49]",
						"numberOfBytes": "1568"
					},
					"t_array(t_uint256)50_storage": {
						"base": "t_uint256",
						"encoding": "inplace",
						"label": "uint256[50]",
						"numberOfBytes": "1600"
					},
					"t_bool": {
						"encoding": "inplace",
						"label": "bool",
						"numberOfBytes": "1"
					},
					"t_bytes32": {
						"encoding": "inplace",
						"label": "bytes32",
						"numberOfBytes": "32"
					},
					"t_contract(IIdentity)263": {
						"encoding": "inplace",
						"label": "contract IIdentity",
						"numberOfBytes": "20"
					},
					"t_mapping(t_address,t_bool)": {
						"encoding": "mapping",
						"key": "t_address",
						"label": "mapping(address => bool)",
						"numberOfBytes": "32",
						"value": "t_bool"
					},
					"t_mapping(t_address,t_struct(Identity)3169_storage)": {
						"encoding": "mapping",
						"key": "t_address",
						"label": "mapping(address => struct IRSStorage.Identity)",
						"numberOfBytes": "32",
						"value": "t_struct(Identity)3169_storage"
					},
					"t_mapping(t_bytes32,t_struct(RoleData)298_storage)": {
						"encoding": "mapping",
						"key": "t_bytes32",
						"label": "mapping(bytes32 => struct AccessControlUpgradeable.RoleData)",
						"numberOfBytes": "32",
						"value": "t_struct(RoleData)298_storage"
					},
					"t_struct(Identity)3169_storage": {
						"encoding": "inplace",
						"label": "struct IRSStorage.Identity",
						"members": [
							{
								"astId": 3166,
								"contract": "erc3643/erc3643/registry/implementation/IdentityRegistryStorage.sol:IdentityRegistryStorage",
								"label": "identityContract",
								"offset": 0,
								"slot": "0",
								"type": "t_contract(IIdentity)263"
							},
							{
								"astId": 3168,
								"contract": "erc3643/erc3643/registry/implementation/IdentityRegistryStorage.sol:IdentityRegistryStorage",
								"label": "investorCountry",
								"offset": 20,
								"slot": "0",
								"type": "t_uint16"
							}
						],
						"numberOfBytes": "32"
					},
					"t_struct(RoleData)298_storage": {
						"encoding": "inplace",
						"label": "struct AccessControlUpgradeable.RoleData",
						"members": [
							{
								"astId": 295,
								"contract": "erc3643/erc3643/registry/implementation/IdentityRegistryStorage.sol:IdentityRegistryStorage",
								"label": "members",
								"offset": 0,
								"slot": "0",
								"type": "t_mapping(t_address,t_bool)"
							},
							{
								"astId": 297,
								"contract": "erc3643/erc3643/registry/implementation/IdentityRegistryStorage.sol:IdentityRegistryStorage",
								"label": "adminRole",
								"offset": 0,
								"slot": "1",
								"type": "t_bytes32"
							}
						],
						"numberOfBytes": "64"
					},
					"t_uint16": {
						"encoding": "inplace",
						"label": "uint16",
						"numberOfBytes": "2"
					},
					"t_uint256": {
						"encoding": "inplace",
						"label": "uint256",
						"numberOfBytes": "32"
					},
					"t_uint8": {
						"encoding": "inplace",
						"label": "uint8",
						"numberOfBytes": "1"
					}
				}
			},
			"userdoc": {
				"kind": "user",
				"methods": {},
				"version": 1
			}
		}
	}
}