{
	"erc3643/erc3643/registry/implementation/ClaimTopicsRegistry.sol": {
		"ClaimTopicsRegistry": {
			"abi": [
				{
					"anonymous": false,
					"inputs": [
						{
							"indexed": true,
							"internalType": "uint256",
							"name": "claimTopic",
							"type": "uint256"
						}
					],
					"name": "ClaimTopicAdded",
					"type": "event"
				},
				{
					"anonymous": false,
					"inputs": [
						{
							"indexed": true,
							"internalType": "uint256",
							"name": "claimTopic",
							"type": "uint256"
						}
					],
					"name": "ClaimTopicRemoved",
					"type": "event"
				},
				{
					"anonymous": false,
					"inputs": [
						{
							"indexed": false,
							"internalType": "uint8",
							"name": "version",
							"type": "uint8"
						}
					],
					"name": "Initialized",
					"type": "event"
				},
				{
					"anonymous": false,
					"inputs": [
						{
							"indexed": true,
							"internalType": "address",
							"name": "previousOwner",
							"type": "address"
						},
						{
							"indexed": true,
							"internalType": "address",
							"name": "newOwner",
							"type": "address"
						}
					],
					"name": "OwnershipTransferred",
					"type": "event"
				},
				{
					"inputs": [
						{
							"internalType": "uint256",
							"name": "_claimTopic",
							"type": "uint256"
						}
					],
					"name": "addClaimTopic",
					"outputs": [],
					"stateMutability": "nonpayable",
					"type": "function"
				},
				{
					"inputs": [],
					"name": "getClaimTopics",
					"outputs": [
						{
							"internalType": "uint256[]",
							"name": "",
							"type": "uint256[]"
						}
					],
					"stateMutability": "view",
					"type": "function"
				},
				{
					"inputs": [],
					"name": "init",
					"outputs": [],
					"stateMutability": "nonpayable",
					"type": "function"
				},
				{
					"inputs": [],
					"name": "owner",
					"outputs": [
						{
							"internalType": "address",
							"name": "",
							"type": "address"
						}
					],
					"stateMutability": "view",
					"type": "function"
				},
				{
					"inputs": [
						{
							"internalType": "uint256",
							"name": "_claimTopic",
							"type": "uint256"
						}
					],
					"name": "removeClaimTopic",
					"outputs": [],
					"stateMutability": "nonpayable",
					"type": "function"
				},
				{
					"inputs": [],
					"name": "renounceOwnership",
					"outputs": [],
					"stateMutability": "nonpayable",
					"type": "function"
				},
				{
					"inputs": [
						{
							"internalType": "address",
							"name": "newOwner",
							"type": "address"
						}
					],
					"name": "transferOwnership",
					"outputs": [],
					"stateMutability": "nonpayable",
					"type": "function"
				}
			],
			"devdoc": {
				"kind": "dev",
				"methods": {
					"getClaimTopics()": {
						"details": "See {IClaimTopicsRegistry-getClaimTopics}."
					},
					"owner()": {
						"details": "Returns the address of the current owner."
					},
					"removeClaimTopic(uint256)": {
						"details": "See {IClaimTopicsRegistry-removeClaimTopic}."
					},
					"renounceOwnership()": {
						"details": "Leaves the contract without owner. It will not be possible to call `onlyOwner` functions. Can only be called by the current owner. NOTE: Renouncing ownership will leave the contract without an owner, thereby disabling any functionality that is only available to the owner."
					},
					"transferOwnership(address)": {
						"details": "Transfers ownership of the contract to a new account (`newOwner`). Can only be called by the current owner."
					}
				},
				"version": 1
			},
			"evm": {
				"assembly": "    /* \"erc3643/erc3643/registry/implementation/ClaimTopicsRegistry.sol\":231:1549  contract ClaimTopicsRegistry is IClaimTopicsRegistry, OwnableUpgradeable, CTRStorage {... */\n  mstore(0x40, 0x80)\n  callvalue\n  dup1\n  iszero\n  tag_1\n  jumpi\n  0x00\n  dup1\n  revert\ntag_1:\n  pop\n  dataSize(sub_0)\n  dup1\n  dataOffset(sub_0)\n  0x00\n  codecopy\n  0x00\n  return\nstop\n\nsub_0: assembly {\n        /* \"erc3643/erc3643/registry/implementation/ClaimTopicsRegistry.sol\":231:1549  contract ClaimTopicsRegistry is IClaimTopicsRegistry, OwnableUpgradeable, CTRStorage {... */\n      mstore(0x40, 0x80)\n      callvalue\n      dup1\n      iszero\n      tag_1\n      jumpi\n      0x00\n      dup1\n      revert\n    tag_1:\n      pop\n      jumpi(tag_2, lt(calldatasize, 0x04))\n      shr(0xe0, calldataload(0x00))\n      dup1\n      0xc7b22551\n      gt\n      tag_10\n      jumpi\n      dup1\n      0xc7b22551\n      eq\n      tag_6\n      jumpi\n      dup1\n      0xdf09d604\n      eq\n      tag_7\n      jumpi\n      dup1\n      0xe1c7392a\n      eq\n      tag_8\n      jumpi\n      dup1\n      0xf2fde38b\n      eq\n      tag_9\n      jumpi\n      0x00\n      dup1\n      revert\n    tag_10:\n      dup1\n      0x08297846\n      eq\n      tag_3\n      jumpi\n      dup1\n      0x715018a6\n      eq\n      tag_4\n      jumpi\n      dup1\n      0x8da5cb5b\n      eq\n      tag_5\n      jumpi\n    tag_2:\n      0x00\n      dup1\n      revert\n        /* \"erc3643/erc3643/registry/implementation/ClaimTopicsRegistry.sol\":918:1349  function removeClaimTopic(uint256 _claimTopic) external override onlyOwner {... */\n    tag_3:\n      tag_11\n      tag_12\n      calldatasize\n      0x04\n      tag_13\n      jump\t// in\n    tag_12:\n      tag_14\n      jump\t// in\n    tag_11:\n      stop\n        /* \"@openzeppelin/contracts-upgradeable/access/OwnableUpgradeable.sol\":2064:2165  function renounceOwnership() public virtual onlyOwner {... */\n    tag_4:\n      tag_11\n      tag_16\n      jump\t// in\n        /* \"@openzeppelin/contracts-upgradeable/access/OwnableUpgradeable.sol\":1441:1526  function owner() public view virtual returns (address) {... */\n    tag_5:\n        /* \"@openzeppelin/contracts-upgradeable/access/OwnableUpgradeable.sol\":1513:1519  _owner */\n      sload(0x33)\n        /* \"@openzeppelin/contracts-upgradeable/access/OwnableUpgradeable.sol\":1441:1526  function owner() public view virtual returns (address) {... */\n      mload(0x40)\n      sub(shl(0xa0, 0x01), 0x01)\n        /* \"@openzeppelin/contracts-upgradeable/access/OwnableUpgradeable.sol\":1513:1519  _owner */\n      swap1\n      swap2\n      and\n        /* \"#utility.yul\":345:396   */\n      dup2\n      mstore\n        /* \"#utility.yul\":333:335   */\n      0x20\n        /* \"#utility.yul\":318:336   */\n      add\n        /* \"@openzeppelin/contracts-upgradeable/access/OwnableUpgradeable.sol\":1441:1526  function owner() public view virtual returns (address) {... */\n    tag_19:\n      mload(0x40)\n      dup1\n      swap2\n      sub\n      swap1\n      return\n        /* \"erc3643/erc3643/registry/implementation/ClaimTopicsRegistry.sol\":410:833  function addClaimTopic(uint256 _claimTopic) external override onlyOwner {... */\n    tag_6:\n      tag_11\n      tag_22\n      calldatasize\n      0x04\n      tag_13\n      jump\t// in\n    tag_22:\n      tag_23\n      jump\t// in\n        /* \"erc3643/erc3643/registry/implementation/ClaimTopicsRegistry.sol\":1432:1546  function getClaimTopics() external view override returns (uint256[] memory) {... */\n    tag_7:\n      tag_24\n      tag_25\n      jump\t// in\n    tag_24:\n      mload(0x40)\n      tag_19\n      swap2\n      swap1\n      tag_27\n      jump\t// in\n        /* \"erc3643/erc3643/registry/implementation/ClaimTopicsRegistry.sol\":325:397  function init() external initializer {... */\n    tag_8:\n      tag_11\n      tag_29\n      jump\t// in\n        /* \"@openzeppelin/contracts-upgradeable/access/OwnableUpgradeable.sol\":2314:2512  function transferOwnership(address newOwner) public virtual onlyOwner {... */\n    tag_9:\n      tag_11\n      tag_31\n      calldatasize\n      0x04\n      tag_32\n      jump\t// in\n    tag_31:\n      tag_33\n      jump\t// in\n        /* \"erc3643/erc3643/registry/implementation/ClaimTopicsRegistry.sol\":918:1349  function removeClaimTopic(uint256 _claimTopic) external override onlyOwner {... */\n    tag_14:\n        /* \"@openzeppelin/contracts-upgradeable/access/OwnableUpgradeable.sol\":1334:1347  _checkOwner() */\n      tag_35\n        /* \"@openzeppelin/contracts-upgradeable/access/OwnableUpgradeable.sol\":1334:1345  _checkOwner */\n      tag_36\n        /* \"@openzeppelin/contracts-upgradeable/access/OwnableUpgradeable.sol\":1334:1347  _checkOwner() */\n      jump\t// in\n    tag_35:\n        /* \"erc3643/erc3643/registry/implementation/ClaimTopicsRegistry.sol\":1021:1033  _claimTopics */\n      0x65\n        /* \"erc3643/erc3643/registry/implementation/ClaimTopicsRegistry.sol\":1021:1040  _claimTopics.length */\n      sload\n        /* \"erc3643/erc3643/registry/implementation/ClaimTopicsRegistry.sol\":1004:1018  uint256 length */\n      0x00\n        /* \"erc3643/erc3643/registry/implementation/ClaimTopicsRegistry.sol\":1051:1342  for (uint256 i = 0; i < length; i++) {... */\n    tag_38:\n        /* \"erc3643/erc3643/registry/implementation/ClaimTopicsRegistry.sol\":1075:1081  length */\n      dup2\n        /* \"erc3643/erc3643/registry/implementation/ClaimTopicsRegistry.sol\":1071:1072  i */\n      dup2\n        /* \"erc3643/erc3643/registry/implementation/ClaimTopicsRegistry.sol\":1071:1081  i < length */\n      lt\n        /* \"erc3643/erc3643/registry/implementation/ClaimTopicsRegistry.sol\":1051:1342  for (uint256 i = 0; i < length; i++) {... */\n      iszero\n      tag_39\n      jumpi\n        /* \"erc3643/erc3643/registry/implementation/ClaimTopicsRegistry.sol\":1126:1137  _claimTopic */\n      dup3\n        /* \"erc3643/erc3643/registry/implementation/ClaimTopicsRegistry.sol\":1107:1119  _claimTopics */\n      0x65\n        /* \"erc3643/erc3643/registry/implementation/ClaimTopicsRegistry.sol\":1120:1121  i */\n      dup3\n        /* \"erc3643/erc3643/registry/implementation/ClaimTopicsRegistry.sol\":1107:1122  _claimTopics[i] */\n      dup2\n      sload\n      dup2\n      lt\n      tag_42\n      jumpi\n      tag_42\n      tag_43\n      jump\t// in\n    tag_42:\n      swap1\n      0x00\n      mstore\n      keccak256(0x00, 0x20)\n      add\n      sload\n        /* \"erc3643/erc3643/registry/implementation/ClaimTopicsRegistry.sol\":1107:1137  _claimTopics[i] == _claimTopic */\n      sub\n        /* \"erc3643/erc3643/registry/implementation/ClaimTopicsRegistry.sol\":1103:1331  if (_claimTopics[i] == _claimTopic) {... */\n      tag_45\n      jumpi\n        /* \"erc3643/erc3643/registry/implementation/ClaimTopicsRegistry.sol\":1176:1188  _claimTopics */\n      0x65\n        /* \"erc3643/erc3643/registry/implementation/ClaimTopicsRegistry.sol\":1189:1199  length - 1 */\n      tag_46\n        /* \"erc3643/erc3643/registry/implementation/ClaimTopicsRegistry.sol\":1198:1199  1 */\n      0x01\n        /* \"erc3643/erc3643/registry/implementation/ClaimTopicsRegistry.sol\":1189:1195  length */\n      dup5\n        /* \"erc3643/erc3643/registry/implementation/ClaimTopicsRegistry.sol\":1189:1199  length - 1 */\n      tag_47\n      jump\t// in\n    tag_46:\n        /* \"erc3643/erc3643/registry/implementation/ClaimTopicsRegistry.sol\":1176:1200  _claimTopics[length - 1] */\n      dup2\n      sload\n      dup2\n      lt\n      tag_49\n      jumpi\n      tag_49\n      tag_43\n      jump\t// in\n    tag_49:\n      swap1\n      0x00\n      mstore\n      keccak256(0x00, 0x20)\n      add\n      sload\n        /* \"erc3643/erc3643/registry/implementation/ClaimTopicsRegistry.sol\":1158:1170  _claimTopics */\n      0x65\n        /* \"erc3643/erc3643/registry/implementation/ClaimTopicsRegistry.sol\":1171:1172  i */\n      dup3\n        /* \"erc3643/erc3643/registry/implementation/ClaimTopicsRegistry.sol\":1158:1173  _claimTopics[i] */\n      dup2\n      sload\n      dup2\n      lt\n      tag_52\n      jumpi\n      tag_52\n      tag_43\n      jump\t// in\n    tag_52:\n      0x00\n      swap2\n      dup3\n      mstore\n      0x20\n      swap1\n      swap2\n      keccak256\n      add\n        /* \"erc3643/erc3643/registry/implementation/ClaimTopicsRegistry.sol\":1158:1200  _claimTopics[i] = _claimTopics[length - 1] */\n      sstore\n        /* \"erc3643/erc3643/registry/implementation/ClaimTopicsRegistry.sol\":1219:1231  _claimTopics */\n      0x65\n        /* \"erc3643/erc3643/registry/implementation/ClaimTopicsRegistry.sol\":1219:1237  _claimTopics.pop() */\n      dup1\n      sload\n      dup1\n      tag_55\n      jumpi\n      tag_55\n      tag_56\n      jump\t// in\n    tag_55:\n      0x01\n      swap1\n      sub\n      dup2\n      dup2\n      swap1\n      0x00\n      mstore\n      keccak256(0x00, 0x20)\n      add\n      0x00\n      swap1\n      sstore\n      swap1\n      sstore\n        /* \"erc3643/erc3643/registry/implementation/ClaimTopicsRegistry.sol\":1279:1290  _claimTopic */\n      dup3\n        /* \"erc3643/erc3643/registry/implementation/ClaimTopicsRegistry.sol\":1261:1291  ClaimTopicRemoved(_claimTopic) */\n      0x0b1381093c776453c1bbe54fd68be1b235c65db61d099cb50d194b2991e0eec5\n      mload(0x40)\n      mload(0x40)\n      dup1\n      swap2\n      sub\n      swap1\n      log2\n        /* \"erc3643/erc3643/registry/implementation/ClaimTopicsRegistry.sol\":1051:1342  for (uint256 i = 0; i < length; i++) {... */\n      pop\n        /* \"erc3643/erc3643/registry/implementation/ClaimTopicsRegistry.sol\":993:1349  {... */\n      pop\n        /* \"erc3643/erc3643/registry/implementation/ClaimTopicsRegistry.sol\":918:1349  function removeClaimTopic(uint256 _claimTopic) external override onlyOwner {... */\n      pop\n      jump\t// out\n        /* \"erc3643/erc3643/registry/implementation/ClaimTopicsRegistry.sol\":1103:1331  if (_claimTopics[i] == _claimTopic) {... */\n    tag_45:\n        /* \"erc3643/erc3643/registry/implementation/ClaimTopicsRegistry.sol\":1083:1086  i++ */\n      dup1\n      tag_58\n      dup2\n      tag_59\n      jump\t// in\n    tag_58:\n      swap2\n      pop\n      pop\n        /* \"erc3643/erc3643/registry/implementation/ClaimTopicsRegistry.sol\":1051:1342  for (uint256 i = 0; i < length; i++) {... */\n      jump(tag_38)\n    tag_39:\n      pop\n        /* \"erc3643/erc3643/registry/implementation/ClaimTopicsRegistry.sol\":993:1349  {... */\n      pop\n        /* \"erc3643/erc3643/registry/implementation/ClaimTopicsRegistry.sol\":918:1349  function removeClaimTopic(uint256 _claimTopic) external override onlyOwner {... */\n      pop\n      jump\t// out\n        /* \"@openzeppelin/contracts-upgradeable/access/OwnableUpgradeable.sol\":2064:2165  function renounceOwnership() public virtual onlyOwner {... */\n    tag_16:\n        /* \"@openzeppelin/contracts-upgradeable/access/OwnableUpgradeable.sol\":1334:1347  _checkOwner() */\n      tag_61\n        /* \"@openzeppelin/contracts-upgradeable/access/OwnableUpgradeable.sol\":1334:1345  _checkOwner */\n      tag_36\n        /* \"@openzeppelin/contracts-upgradeable/access/OwnableUpgradeable.sol\":1334:1347  _checkOwner() */\n      jump\t// in\n    tag_61:\n        /* \"@openzeppelin/contracts-upgradeable/access/OwnableUpgradeable.sol\":2128:2158  _transferOwnership(address(0)) */\n      tag_63\n        /* \"@openzeppelin/contracts-upgradeable/access/OwnableUpgradeable.sol\":2155:2156  0 */\n      0x00\n        /* \"@openzeppelin/contracts-upgradeable/access/OwnableUpgradeable.sol\":2128:2146  _transferOwnership */\n      tag_64\n        /* \"@openzeppelin/contracts-upgradeable/access/OwnableUpgradeable.sol\":2128:2158  _transferOwnership(address(0)) */\n      jump\t// in\n    tag_63:\n        /* \"@openzeppelin/contracts-upgradeable/access/OwnableUpgradeable.sol\":2064:2165  function renounceOwnership() public virtual onlyOwner {... */\n      jump\t// out\n        /* \"erc3643/erc3643/registry/implementation/ClaimTopicsRegistry.sol\":410:833  function addClaimTopic(uint256 _claimTopic) external override onlyOwner {... */\n    tag_23:\n        /* \"@openzeppelin/contracts-upgradeable/access/OwnableUpgradeable.sol\":1334:1347  _checkOwner() */\n      tag_67\n        /* \"@openzeppelin/contracts-upgradeable/access/OwnableUpgradeable.sol\":1334:1345  _checkOwner */\n      tag_36\n        /* \"@openzeppelin/contracts-upgradeable/access/OwnableUpgradeable.sol\":1334:1347  _checkOwner() */\n      jump\t// in\n    tag_67:\n        /* \"erc3643/erc3643/registry/implementation/ClaimTopicsRegistry.sol\":510:522  _claimTopics */\n      0x65\n        /* \"erc3643/erc3643/registry/implementation/ClaimTopicsRegistry.sol\":510:529  _claimTopics.length */\n      sload\n        /* \"erc3643/erc3643/registry/implementation/ClaimTopicsRegistry.sol\":557:559  15 */\n      0x0f\n        /* \"erc3643/erc3643/registry/implementation/ClaimTopicsRegistry.sol\":548:559  length < 15 */\n      dup2\n      lt\n        /* \"erc3643/erc3643/registry/implementation/ClaimTopicsRegistry.sol\":540:598  require(length < 15, \"cannot require more than 15 topics\") */\n      tag_69\n      jumpi\n      mload(0x40)\n      shl(0xe5, 0x461bcd)\n      dup2\n      mstore\n        /* \"#utility.yul\":2206:2208   */\n      0x20\n        /* \"erc3643/erc3643/registry/implementation/ClaimTopicsRegistry.sol\":540:598  require(length < 15, \"cannot require more than 15 topics\") */\n      0x04\n      dup3\n      add\n        /* \"#utility.yul\":2188:2209   */\n      mstore\n        /* \"#utility.yul\":2245:2247   */\n      0x22\n        /* \"#utility.yul\":2225:2243   */\n      0x24\n      dup3\n      add\n        /* \"#utility.yul\":2218:2248   */\n      mstore\n        /* \"#utility.yul\":2284:2318   */\n      0x63616e6e6f742072657175697265206d6f7265207468616e20313520746f7069\n        /* \"#utility.yul\":2264:2282   */\n      0x44\n      dup3\n      add\n        /* \"#utility.yul\":2257:2319   */\n      mstore\n      shl(0xf0, 0x6373)\n        /* \"#utility.yul\":2335:2353   */\n      0x64\n      dup3\n      add\n        /* \"#utility.yul\":2328:2360   */\n      mstore\n        /* \"#utility.yul\":2377:2396   */\n      0x84\n      add\n        /* \"erc3643/erc3643/registry/implementation/ClaimTopicsRegistry.sol\":540:598  require(length < 15, \"cannot require more than 15 topics\") */\n    tag_70:\n      mload(0x40)\n      dup1\n      swap2\n      sub\n      swap1\n      revert\n    tag_69:\n        /* \"erc3643/erc3643/registry/implementation/ClaimTopicsRegistry.sol\":614:623  uint256 i */\n      0x00\n        /* \"erc3643/erc3643/registry/implementation/ClaimTopicsRegistry.sol\":609:741  for (uint256 i = 0; i < length; i++) {... */\n    tag_72:\n        /* \"erc3643/erc3643/registry/implementation/ClaimTopicsRegistry.sol\":633:639  length */\n      dup2\n        /* \"erc3643/erc3643/registry/implementation/ClaimTopicsRegistry.sol\":629:630  i */\n      dup2\n        /* \"erc3643/erc3643/registry/implementation/ClaimTopicsRegistry.sol\":629:639  i < length */\n      lt\n        /* \"erc3643/erc3643/registry/implementation/ClaimTopicsRegistry.sol\":609:741  for (uint256 i = 0; i < length; i++) {... */\n      iszero\n      tag_73\n      jumpi\n        /* \"erc3643/erc3643/registry/implementation/ClaimTopicsRegistry.sol\":688:699  _claimTopic */\n      dup3\n        /* \"erc3643/erc3643/registry/implementation/ClaimTopicsRegistry.sol\":669:681  _claimTopics */\n      0x65\n        /* \"erc3643/erc3643/registry/implementation/ClaimTopicsRegistry.sol\":682:683  i */\n      dup3\n        /* \"erc3643/erc3643/registry/implementation/ClaimTopicsRegistry.sol\":669:684  _claimTopics[i] */\n      dup2\n      sload\n      dup2\n      lt\n      tag_76\n      jumpi\n      tag_76\n      tag_43\n      jump\t// in\n    tag_76:\n      swap1\n      0x00\n      mstore\n      keccak256(0x00, 0x20)\n      add\n      sload\n        /* \"erc3643/erc3643/registry/implementation/ClaimTopicsRegistry.sol\":669:699  _claimTopics[i] != _claimTopic */\n      sub\n        /* \"erc3643/erc3643/registry/implementation/ClaimTopicsRegistry.sol\":661:729  require(_claimTopics[i] != _claimTopic, \"claimTopic already exists\") */\n      tag_78\n      jumpi\n      mload(0x40)\n      shl(0xe5, 0x461bcd)\n      dup2\n      mstore\n        /* \"#utility.yul\":2609:2611   */\n      0x20\n        /* \"erc3643/erc3643/registry/implementation/ClaimTopicsRegistry.sol\":661:729  require(_claimTopics[i] != _claimTopic, \"claimTopic already exists\") */\n      0x04\n      dup3\n      add\n        /* \"#utility.yul\":2591:2612   */\n      mstore\n        /* \"#utility.yul\":2648:2650   */\n      0x19\n        /* \"#utility.yul\":2628:2646   */\n      0x24\n      dup3\n      add\n        /* \"#utility.yul\":2621:2651   */\n      mstore\n        /* \"#utility.yul\":2687:2714   */\n      0x636c61696d546f70696320616c72656164792065786973747300000000000000\n        /* \"#utility.yul\":2667:2685   */\n      0x44\n      dup3\n      add\n        /* \"#utility.yul\":2660:2715   */\n      mstore\n        /* \"#utility.yul\":2732:2750   */\n      0x64\n      add\n        /* \"erc3643/erc3643/registry/implementation/ClaimTopicsRegistry.sol\":661:729  require(_claimTopics[i] != _claimTopic, \"claimTopic already exists\") */\n      tag_70\n        /* \"#utility.yul\":2407:2756   */\n      jump\n        /* \"erc3643/erc3643/registry/implementation/ClaimTopicsRegistry.sol\":661:729  require(_claimTopics[i] != _claimTopic, \"claimTopic already exists\") */\n    tag_78:\n        /* \"erc3643/erc3643/registry/implementation/ClaimTopicsRegistry.sol\":641:644  i++ */\n      dup1\n      tag_81\n      dup2\n      tag_59\n      jump\t// in\n    tag_81:\n      swap2\n      pop\n      pop\n        /* \"erc3643/erc3643/registry/implementation/ClaimTopicsRegistry.sol\":609:741  for (uint256 i = 0; i < length; i++) {... */\n      jump(tag_72)\n    tag_73:\n      pop\n        /* \"erc3643/erc3643/registry/implementation/ClaimTopicsRegistry.sol\":751:763  _claimTopics */\n      0x65\n        /* \"erc3643/erc3643/registry/implementation/ClaimTopicsRegistry.sol\":751:781  _claimTopics.push(_claimTopic) */\n      dup1\n      sload\n      0x01\n      dup2\n      add\n      dup3\n      sstore\n      0x00\n      swap2\n      dup3\n      mstore\n      0x8ff97419363ffd7000167f130ef7168fbea05faf9251824ca5043f113cc6a7c7\n      add\n      dup4\n      swap1\n      sstore\n        /* \"erc3643/erc3643/registry/implementation/ClaimTopicsRegistry.sol\":797:825  ClaimTopicAdded(_claimTopic) */\n      mload(0x40)\n        /* \"erc3643/erc3643/registry/implementation/ClaimTopicsRegistry.sol\":769:780  _claimTopic */\n      dup4\n      swap2\n        /* \"erc3643/erc3643/registry/implementation/ClaimTopicsRegistry.sol\":797:825  ClaimTopicAdded(_claimTopic) */\n      0x01c928b7f7ade2949e92366aa9454dbef3a416b731cf6ec786ba9595bbd814d6\n      swap2\n      log2\n        /* \"erc3643/erc3643/registry/implementation/ClaimTopicsRegistry.sol\":482:833  {... */\n      pop\n        /* \"erc3643/erc3643/registry/implementation/ClaimTopicsRegistry.sol\":410:833  function addClaimTopic(uint256 _claimTopic) external override onlyOwner {... */\n      pop\n      jump\t// out\n        /* \"erc3643/erc3643/registry/implementation/ClaimTopicsRegistry.sol\":1432:1546  function getClaimTopics() external view override returns (uint256[] memory) {... */\n    tag_25:\n        /* \"erc3643/erc3643/registry/implementation/ClaimTopicsRegistry.sol\":1490:1506  uint256[] memory */\n      0x60\n        /* \"erc3643/erc3643/registry/implementation/ClaimTopicsRegistry.sol\":1526:1538  _claimTopics */\n      0x65\n        /* \"erc3643/erc3643/registry/implementation/ClaimTopicsRegistry.sol\":1519:1538  return _claimTopics */\n      dup1\n      sload\n      dup1\n      0x20\n      mul\n      0x20\n      add\n      mload(0x40)\n      swap1\n      dup2\n      add\n      0x40\n      mstore\n      dup1\n      swap3\n      swap2\n      swap1\n      dup2\n      dup2\n      mstore\n      0x20\n      add\n      dup3\n      dup1\n      sload\n      dup1\n      iszero\n      tag_84\n      jumpi\n      0x20\n      mul\n      dup3\n      add\n      swap2\n      swap1\n      0x00\n      mstore\n      keccak256(0x00, 0x20)\n      swap1\n    tag_85:\n      dup2\n      sload\n      dup2\n      mstore\n      0x20\n      add\n      swap1\n      0x01\n      add\n      swap1\n      dup1\n      dup4\n      gt\n      tag_85\n      jumpi\n    tag_84:\n      pop\n      pop\n      pop\n      pop\n      pop\n      swap1\n      pop\n        /* \"erc3643/erc3643/registry/implementation/ClaimTopicsRegistry.sol\":1432:1546  function getClaimTopics() external view override returns (uint256[] memory) {... */\n      swap1\n      jump\t// out\n        /* \"erc3643/erc3643/registry/implementation/ClaimTopicsRegistry.sol\":325:397  function init() external initializer {... */\n    tag_29:\n        /* \"@openzeppelin/contracts-upgradeable/proxy/utils/Initializable.sol\":3279:3298  bool isTopLevelCall */\n      0x00\n        /* \"@openzeppelin/contracts-upgradeable/proxy/utils/Initializable.sol\":3302:3315  _initializing */\n      sload\n      0x0100\n      swap1\n      div\n      0xff\n      and\n        /* \"@openzeppelin/contracts-upgradeable/proxy/utils/Initializable.sol\":3301:3315  !_initializing */\n      iszero\n      dup1\n        /* \"@openzeppelin/contracts-upgradeable/proxy/utils/Initializable.sol\":3347:3381  isTopLevelCall && _initialized < 1 */\n      dup1\n      iszero\n      tag_87\n      jumpi\n      pop\n        /* \"@openzeppelin/contracts-upgradeable/proxy/utils/Initializable.sol\":3365:3377  _initialized */\n      sload(0x00)\n        /* \"@openzeppelin/contracts-upgradeable/proxy/utils/Initializable.sol\":3380:3381  1 */\n      0x01\n        /* \"@openzeppelin/contracts-upgradeable/proxy/utils/Initializable.sol\":3365:3377  _initialized */\n      0xff\n      swap1\n      swap2\n      and\n        /* \"@openzeppelin/contracts-upgradeable/proxy/utils/Initializable.sol\":3365:3381  _initialized < 1 */\n      lt\n        /* \"@openzeppelin/contracts-upgradeable/proxy/utils/Initializable.sol\":3347:3381  isTopLevelCall && _initialized < 1 */\n    tag_87:\n        /* \"@openzeppelin/contracts-upgradeable/proxy/utils/Initializable.sol\":3346:3454  (isTopLevelCall && _initialized < 1) || (!AddressUpgradeable.isContract(address(this)) && _initialized == 1) */\n      dup1\n      tag_91\n      jumpi\n      pop\n        /* \"@openzeppelin/contracts-upgradeable/proxy/utils/Initializable.sol\":3426:3430  this */\n      address\n        /* \"@openzeppelin/contracts-upgradeable/utils/AddressUpgradeable.sol\":1713:1732  account.code.length */\n      extcodesize\n        /* \"@openzeppelin/contracts-upgradeable/utils/AddressUpgradeable.sol\":1713:1736  account.code.length > 0 */\n      iszero\n      dup1\n      iszero\n        /* \"@openzeppelin/contracts-upgradeable/proxy/utils/Initializable.sol\":3387:3453  !AddressUpgradeable.isContract(address(this)) && _initialized == 1 */\n      tag_91\n      jumpi\n      pop\n        /* \"@openzeppelin/contracts-upgradeable/proxy/utils/Initializable.sol\":3436:3448  _initialized */\n      and(0xff, sload(0x00))\n      0x01\n        /* \"@openzeppelin/contracts-upgradeable/proxy/utils/Initializable.sol\":3436:3453  _initialized == 1 */\n      eq\n        /* \"@openzeppelin/contracts-upgradeable/proxy/utils/Initializable.sol\":3387:3453  !AddressUpgradeable.isContract(address(this)) && _initialized == 1 */\n    tag_91:\n        /* \"@openzeppelin/contracts-upgradeable/proxy/utils/Initializable.sol\":3325:3526  require(... */\n      tag_92\n      jumpi\n      mload(0x40)\n      shl(0xe5, 0x461bcd)\n      dup2\n      mstore\n        /* \"#utility.yul\":2963:2965   */\n      0x20\n        /* \"@openzeppelin/contracts-upgradeable/proxy/utils/Initializable.sol\":3325:3526  require(... */\n      0x04\n      dup3\n      add\n        /* \"#utility.yul\":2945:2966   */\n      mstore\n        /* \"#utility.yul\":3002:3004   */\n      0x2e\n        /* \"#utility.yul\":2982:3000   */\n      0x24\n      dup3\n      add\n        /* \"#utility.yul\":2975:3005   */\n      mstore\n        /* \"#utility.yul\":3041:3075   */\n      0x496e697469616c697a61626c653a20636f6e747261637420697320616c726561\n        /* \"#utility.yul\":3021:3039   */\n      0x44\n      dup3\n      add\n        /* \"#utility.yul\":3014:3076   */\n      mstore\n      shl(0x92, 0x191e481a5b9a5d1a585b1a5e9959)\n        /* \"#utility.yul\":3092:3110   */\n      0x64\n      dup3\n      add\n        /* \"#utility.yul\":3085:3129   */\n      mstore\n        /* \"#utility.yul\":3146:3165   */\n      0x84\n      add\n        /* \"@openzeppelin/contracts-upgradeable/proxy/utils/Initializable.sol\":3325:3526  require(... */\n      tag_70\n        /* \"#utility.yul\":2761:3171   */\n      jump\n        /* \"@openzeppelin/contracts-upgradeable/proxy/utils/Initializable.sol\":3325:3526  require(... */\n    tag_92:\n        /* \"@openzeppelin/contracts-upgradeable/proxy/utils/Initializable.sol\":3536:3548  _initialized */\n      0x00\n        /* \"@openzeppelin/contracts-upgradeable/proxy/utils/Initializable.sol\":3536:3552  _initialized = 1 */\n      dup1\n      sload\n      not(0xff)\n      and\n        /* \"@openzeppelin/contracts-upgradeable/proxy/utils/Initializable.sol\":3551:3552  1 */\n      0x01\n        /* \"@openzeppelin/contracts-upgradeable/proxy/utils/Initializable.sol\":3536:3552  _initialized = 1 */\n      or\n      swap1\n      sstore\n        /* \"@openzeppelin/contracts-upgradeable/proxy/utils/Initializable.sol\":3562:3627  if (isTopLevelCall) {... */\n      dup1\n      iszero\n      tag_95\n      jumpi\n        /* \"@openzeppelin/contracts-upgradeable/proxy/utils/Initializable.sol\":3596:3609  _initializing */\n      0x00\n        /* \"@openzeppelin/contracts-upgradeable/proxy/utils/Initializable.sol\":3596:3616  _initializing = true */\n      dup1\n      sload\n      not(0xff00)\n      and\n      0x0100\n      or\n      swap1\n      sstore\n        /* \"@openzeppelin/contracts-upgradeable/proxy/utils/Initializable.sol\":3562:3627  if (isTopLevelCall) {... */\n    tag_95:\n        /* \"erc3643/erc3643/registry/implementation/ClaimTopicsRegistry.sol\":373:389  __Ownable_init() */\n      tag_97\n        /* \"erc3643/erc3643/registry/implementation/ClaimTopicsRegistry.sol\":373:387  __Ownable_init */\n      tag_98\n        /* \"erc3643/erc3643/registry/implementation/ClaimTopicsRegistry.sol\":373:389  __Ownable_init() */\n      jump\t// in\n    tag_97:\n        /* \"@openzeppelin/contracts-upgradeable/proxy/utils/Initializable.sol\":3651:3665  isTopLevelCall */\n      dup1\n        /* \"@openzeppelin/contracts-upgradeable/proxy/utils/Initializable.sol\":3647:3746  if (isTopLevelCall) {... */\n      iszero\n      tag_99\n      jumpi\n        /* \"@openzeppelin/contracts-upgradeable/proxy/utils/Initializable.sol\":3697:3702  false */\n      0x00\n        /* \"@openzeppelin/contracts-upgradeable/proxy/utils/Initializable.sol\":3681:3702  _initializing = false */\n      dup1\n      sload\n      not(0xff00)\n      and\n      swap1\n      sstore\n        /* \"@openzeppelin/contracts-upgradeable/proxy/utils/Initializable.sol\":3721:3735  Initialized(1) */\n      mload(0x40)\n      0x01\n        /* \"#utility.yul\":3328:3364   */\n      dup2\n      mstore\n        /* \"@openzeppelin/contracts-upgradeable/proxy/utils/Initializable.sol\":3721:3735  Initialized(1) */\n      0x7f26b83ff96e1f2b6a682f133852f6798a09c465da95921460cefb3847402498\n      swap1\n        /* \"#utility.yul\":3316:3318   */\n      0x20\n        /* \"#utility.yul\":3301:3319   */\n      add\n        /* \"@openzeppelin/contracts-upgradeable/proxy/utils/Initializable.sol\":3721:3735  Initialized(1) */\n      mload(0x40)\n      dup1\n      swap2\n      sub\n      swap1\n      log1\n        /* \"@openzeppelin/contracts-upgradeable/proxy/utils/Initializable.sol\":3647:3746  if (isTopLevelCall) {... */\n    tag_99:\n        /* \"@openzeppelin/contracts-upgradeable/proxy/utils/Initializable.sol\":3269:3752  {... */\n      pop\n        /* \"erc3643/erc3643/registry/implementation/ClaimTopicsRegistry.sol\":325:397  function init() external initializer {... */\n      jump\t// out\n        /* \"@openzeppelin/contracts-upgradeable/access/OwnableUpgradeable.sol\":2314:2512  function transferOwnership(address newOwner) public virtual onlyOwner {... */\n    tag_33:\n        /* \"@openzeppelin/contracts-upgradeable/access/OwnableUpgradeable.sol\":1334:1347  _checkOwner() */\n      tag_103\n        /* \"@openzeppelin/contracts-upgradeable/access/OwnableUpgradeable.sol\":1334:1345  _checkOwner */\n      tag_36\n        /* \"@openzeppelin/contracts-upgradeable/access/OwnableUpgradeable.sol\":1334:1347  _checkOwner() */\n      jump\t// in\n    tag_103:\n      sub(shl(0xa0, 0x01), 0x01)\n        /* \"@openzeppelin/contracts-upgradeable/access/OwnableUpgradeable.sol\":2402:2424  newOwner != address(0) */\n      dup2\n      and\n        /* \"@openzeppelin/contracts-upgradeable/access/OwnableUpgradeable.sol\":2394:2467  require(newOwner != address(0), \"Ownable: new owner is the zero address\") */\n      tag_105\n      jumpi\n      mload(0x40)\n      shl(0xe5, 0x461bcd)\n      dup2\n      mstore\n        /* \"#utility.yul\":3577:3579   */\n      0x20\n        /* \"@openzeppelin/contracts-upgradeable/access/OwnableUpgradeable.sol\":2394:2467  require(newOwner != address(0), \"Ownable: new owner is the zero address\") */\n      0x04\n      dup3\n      add\n        /* \"#utility.yul\":3559:3580   */\n      mstore\n        /* \"#utility.yul\":3616:3618   */\n      0x26\n        /* \"#utility.yul\":3596:3614   */\n      0x24\n      dup3\n      add\n        /* \"#utility.yul\":3589:3619   */\n      mstore\n        /* \"#utility.yul\":3655:3689   */\n      0x4f776e61626c653a206e6577206f776e657220697320746865207a65726f2061\n        /* \"#utility.yul\":3635:3653   */\n      0x44\n      dup3\n      add\n        /* \"#utility.yul\":3628:3690   */\n      mstore\n      shl(0xd0, 0x646472657373)\n        /* \"#utility.yul\":3706:3724   */\n      0x64\n      dup3\n      add\n        /* \"#utility.yul\":3699:3735   */\n      mstore\n        /* \"#utility.yul\":3752:3771   */\n      0x84\n      add\n        /* \"@openzeppelin/contracts-upgradeable/access/OwnableUpgradeable.sol\":2394:2467  require(newOwner != address(0), \"Ownable: new owner is the zero address\") */\n      tag_70\n        /* \"#utility.yul\":3375:3777   */\n      jump\n        /* \"@openzeppelin/contracts-upgradeable/access/OwnableUpgradeable.sol\":2394:2467  require(newOwner != address(0), \"Ownable: new owner is the zero address\") */\n    tag_105:\n        /* \"@openzeppelin/contracts-upgradeable/access/OwnableUpgradeable.sol\":2477:2505  _transferOwnership(newOwner) */\n      tag_99\n        /* \"@openzeppelin/contracts-upgradeable/access/OwnableUpgradeable.sol\":2496:2504  newOwner */\n      dup2\n        /* \"@openzeppelin/contracts-upgradeable/access/OwnableUpgradeable.sol\":2477:2495  _transferOwnership */\n      tag_64\n        /* \"@openzeppelin/contracts-upgradeable/access/OwnableUpgradeable.sol\":2477:2505  _transferOwnership(newOwner) */\n      jump\t// in\n        /* \"@openzeppelin/contracts-upgradeable/access/OwnableUpgradeable.sol\":1599:1729  function _checkOwner() internal view virtual {... */\n    tag_36:\n        /* \"@openzeppelin/contracts-upgradeable/access/OwnableUpgradeable.sol\":1513:1519  _owner */\n      and(sub(shl(0xa0, 0x01), 0x01), sload(0x33))\n        /* \"@openzeppelin/contracts-upgradeable/utils/ContextUpgradeable.sol\":929:939  msg.sender */\n      caller\n        /* \"@openzeppelin/contracts-upgradeable/access/OwnableUpgradeable.sol\":1662:1685  owner() == _msgSender() */\n      eq\n        /* \"@openzeppelin/contracts-upgradeable/access/OwnableUpgradeable.sol\":1654:1722  require(owner() == _msgSender(), \"Ownable: caller is not the owner\") */\n      tag_63\n      jumpi\n      mload(0x40)\n      shl(0xe5, 0x461bcd)\n      dup2\n      mstore\n        /* \"#utility.yul\":3984:3986   */\n      0x20\n        /* \"@openzeppelin/contracts-upgradeable/access/OwnableUpgradeable.sol\":1654:1722  require(owner() == _msgSender(), \"Ownable: caller is not the owner\") */\n      0x04\n      dup3\n      add\n        /* \"#utility.yul\":3966:3987   */\n      dup2\n      swap1\n      mstore\n        /* \"#utility.yul\":4003:4021   */\n      0x24\n      dup3\n      add\n        /* \"#utility.yul\":3996:4026   */\n      mstore\n        /* \"#utility.yul\":4062:4096   */\n      0x4f776e61626c653a2063616c6c6572206973206e6f7420746865206f776e6572\n        /* \"#utility.yul\":4042:4060   */\n      0x44\n      dup3\n      add\n        /* \"#utility.yul\":4035:4097   */\n      mstore\n        /* \"#utility.yul\":4114:4132   */\n      0x64\n      add\n        /* \"@openzeppelin/contracts-upgradeable/access/OwnableUpgradeable.sol\":1654:1722  require(owner() == _msgSender(), \"Ownable: caller is not the owner\") */\n      tag_70\n        /* \"#utility.yul\":3782:4138   */\n      jump\n        /* \"@openzeppelin/contracts-upgradeable/access/OwnableUpgradeable.sol\":2666:2853  function _transferOwnership(address newOwner) internal virtual {... */\n    tag_64:\n        /* \"@openzeppelin/contracts-upgradeable/access/OwnableUpgradeable.sol\":2758:2764  _owner */\n      0x33\n      dup1\n      sload\n      sub(shl(0xa0, 0x01), 0x01)\n        /* \"@openzeppelin/contracts-upgradeable/access/OwnableUpgradeable.sol\":2774:2791  _owner = newOwner */\n      dup4\n      dup2\n      and\n      not(sub(shl(0xa0, 0x01), 0x01))\n      dup4\n      and\n      dup2\n      or\n      swap1\n      swap4\n      sstore\n        /* \"@openzeppelin/contracts-upgradeable/access/OwnableUpgradeable.sol\":2806:2846  OwnershipTransferred(oldOwner, newOwner) */\n      mload(0x40)\n        /* \"@openzeppelin/contracts-upgradeable/access/OwnableUpgradeable.sol\":2758:2764  _owner */\n      swap2\n      and\n      swap2\n        /* \"@openzeppelin/contracts-upgradeable/access/OwnableUpgradeable.sol\":2774:2791  _owner = newOwner */\n      swap1\n        /* \"@openzeppelin/contracts-upgradeable/access/OwnableUpgradeable.sol\":2758:2764  _owner */\n      dup3\n      swap1\n        /* \"@openzeppelin/contracts-upgradeable/access/OwnableUpgradeable.sol\":2806:2846  OwnershipTransferred(oldOwner, newOwner) */\n      0x8be0079c531659141344cd1fd0a4f28419497f9722a3daafe3b4186f6b6457e0\n      swap1\n        /* \"@openzeppelin/contracts-upgradeable/access/OwnableUpgradeable.sol\":2739:2755  address oldOwner */\n      0x00\n      swap1\n        /* \"@openzeppelin/contracts-upgradeable/access/OwnableUpgradeable.sol\":2806:2846  OwnershipTransferred(oldOwner, newOwner) */\n      log3\n        /* \"@openzeppelin/contracts-upgradeable/access/OwnableUpgradeable.sol\":2729:2853  {... */\n      pop\n        /* \"@openzeppelin/contracts-upgradeable/access/OwnableUpgradeable.sol\":2666:2853  function _transferOwnership(address newOwner) internal virtual {... */\n      pop\n      jump\t// out\n        /* \"@openzeppelin/contracts-upgradeable/access/OwnableUpgradeable.sol\":1003:1098  function __Ownable_init() internal onlyInitializing {... */\n    tag_98:\n        /* \"@openzeppelin/contracts-upgradeable/proxy/utils/Initializable.sol\":5374:5387  _initializing */\n      sload(0x00)\n      0x0100\n      swap1\n      div\n      0xff\n      and\n        /* \"@openzeppelin/contracts-upgradeable/proxy/utils/Initializable.sol\":5366:5435  require(_initializing, \"Initializable: contract is not initializing\") */\n      tag_119\n      jumpi\n      mload(0x40)\n      shl(0xe5, 0x461bcd)\n      dup2\n      mstore\n      0x04\n      add\n      tag_70\n      swap1\n      tag_121\n      jump\t// in\n    tag_119:\n        /* \"@openzeppelin/contracts-upgradeable/access/OwnableUpgradeable.sol\":1065:1091  __Ownable_init_unchained() */\n      tag_63\n        /* \"@openzeppelin/contracts-upgradeable/proxy/utils/Initializable.sol\":5374:5387  _initializing */\n      sload(0x00)\n      0x0100\n      swap1\n      div\n      0xff\n      and\n        /* \"@openzeppelin/contracts-upgradeable/proxy/utils/Initializable.sol\":5366:5435  require(_initializing, \"Initializable: contract is not initializing\") */\n      tag_127\n      jumpi\n      mload(0x40)\n      shl(0xe5, 0x461bcd)\n      dup2\n      mstore\n      0x04\n      add\n      tag_70\n      swap1\n      tag_121\n      jump\t// in\n    tag_127:\n        /* \"@openzeppelin/contracts-upgradeable/access/OwnableUpgradeable.sol\":1176:1208  _transferOwnership(_msgSender()) */\n      tag_63\n        /* \"@openzeppelin/contracts-upgradeable/utils/ContextUpgradeable.sol\":929:939  msg.sender */\n      caller\n        /* \"@openzeppelin/contracts-upgradeable/access/OwnableUpgradeable.sol\":1176:1194  _transferOwnership */\n      tag_64\n        /* \"@openzeppelin/contracts-upgradeable/access/OwnableUpgradeable.sol\":1176:1208  _transferOwnership(_msgSender()) */\n      jump\t// in\n        /* \"#utility.yul\":14:194   */\n    tag_13:\n        /* \"#utility.yul\":73:79   */\n      0x00\n        /* \"#utility.yul\":126:128   */\n      0x20\n        /* \"#utility.yul\":114:123   */\n      dup3\n        /* \"#utility.yul\":105:112   */\n      dup5\n        /* \"#utility.yul\":101:124   */\n      sub\n        /* \"#utility.yul\":97:129   */\n      slt\n        /* \"#utility.yul\":94:146   */\n      iszero\n      tag_135\n      jumpi\n        /* \"#utility.yul\":142:143   */\n      0x00\n        /* \"#utility.yul\":139:140   */\n      dup1\n        /* \"#utility.yul\":132:144   */\n      revert\n        /* \"#utility.yul\":94:146   */\n    tag_135:\n      pop\n        /* \"#utility.yul\":165:188   */\n      calldataload\n      swap2\n        /* \"#utility.yul\":14:194   */\n      swap1\n      pop\n      jump\t// out\n        /* \"#utility.yul\":407:1039   */\n    tag_27:\n        /* \"#utility.yul\":578:580   */\n      0x20\n        /* \"#utility.yul\":630:651   */\n      dup1\n      dup3\n      mstore\n        /* \"#utility.yul\":700:713   */\n      dup3\n      mload\n        /* \"#utility.yul\":603:621   */\n      dup3\n      dup3\n      add\n        /* \"#utility.yul\":722:744   */\n      dup2\n      swap1\n      mstore\n        /* \"#utility.yul\":549:553   */\n      0x00\n      swap2\n        /* \"#utility.yul\":578:580   */\n      swap1\n        /* \"#utility.yul\":801:816   */\n      dup5\n      dup3\n      add\n      swap1\n        /* \"#utility.yul\":775:777   */\n      0x40\n        /* \"#utility.yul\":760:778   */\n      dup6\n      add\n      swap1\n        /* \"#utility.yul\":549:553   */\n      dup5\n        /* \"#utility.yul\":844:1013   */\n    tag_138:\n        /* \"#utility.yul\":858:864   */\n      dup2\n        /* \"#utility.yul\":855:856   */\n      dup2\n        /* \"#utility.yul\":852:865   */\n      lt\n        /* \"#utility.yul\":844:1013   */\n      iszero\n      tag_140\n      jumpi\n        /* \"#utility.yul\":919:932   */\n      dup4\n      mload\n        /* \"#utility.yul\":907:933   */\n      dup4\n      mstore\n        /* \"#utility.yul\":988:1003   */\n      swap3\n      dup5\n      add\n      swap3\n        /* \"#utility.yul\":953:965   */\n      swap2\n      dup5\n      add\n      swap2\n        /* \"#utility.yul\":880:881   */\n      0x01\n        /* \"#utility.yul\":873:882   */\n      add\n        /* \"#utility.yul\":844:1013   */\n      jump(tag_138)\n    tag_140:\n      pop\n        /* \"#utility.yul\":1030:1033   */\n      swap1\n      swap7\n        /* \"#utility.yul\":407:1039   */\n      swap6\n      pop\n      pop\n      pop\n      pop\n      pop\n      pop\n      jump\t// out\n        /* \"#utility.yul\":1044:1330   */\n    tag_32:\n        /* \"#utility.yul\":1103:1109   */\n      0x00\n        /* \"#utility.yul\":1156:1158   */\n      0x20\n        /* \"#utility.yul\":1144:1153   */\n      dup3\n        /* \"#utility.yul\":1135:1142   */\n      dup5\n        /* \"#utility.yul\":1131:1154   */\n      sub\n        /* \"#utility.yul\":1127:1159   */\n      slt\n        /* \"#utility.yul\":1124:1176   */\n      iszero\n      tag_142\n      jumpi\n        /* \"#utility.yul\":1172:1173   */\n      0x00\n        /* \"#utility.yul\":1169:1170   */\n      dup1\n        /* \"#utility.yul\":1162:1174   */\n      revert\n        /* \"#utility.yul\":1124:1176   */\n    tag_142:\n        /* \"#utility.yul\":1198:1221   */\n      dup2\n      calldataload\n      sub(shl(0xa0, 0x01), 0x01)\n        /* \"#utility.yul\":1250:1281   */\n      dup2\n      and\n        /* \"#utility.yul\":1240:1282   */\n      dup2\n      eq\n        /* \"#utility.yul\":1230:1300   */\n      tag_143\n      jumpi\n        /* \"#utility.yul\":1296:1297   */\n      0x00\n        /* \"#utility.yul\":1293:1294   */\n      dup1\n        /* \"#utility.yul\":1286:1298   */\n      revert\n        /* \"#utility.yul\":1230:1300   */\n    tag_143:\n        /* \"#utility.yul\":1319:1324   */\n      swap4\n        /* \"#utility.yul\":1044:1330   */\n      swap3\n      pop\n      pop\n      pop\n      jump\t// out\n        /* \"#utility.yul\":1335:1462   */\n    tag_43:\n        /* \"#utility.yul\":1396:1406   */\n      0x4e487b71\n        /* \"#utility.yul\":1391:1394   */\n      0xe0\n        /* \"#utility.yul\":1387:1407   */\n      shl\n        /* \"#utility.yul\":1384:1385   */\n      0x00\n        /* \"#utility.yul\":1377:1408   */\n      mstore\n        /* \"#utility.yul\":1427:1431   */\n      0x32\n        /* \"#utility.yul\":1424:1425   */\n      0x04\n        /* \"#utility.yul\":1417:1432   */\n      mstore\n        /* \"#utility.yul\":1451:1455   */\n      0x24\n        /* \"#utility.yul\":1448:1449   */\n      0x00\n        /* \"#utility.yul\":1441:1456   */\n      revert\n        /* \"#utility.yul\":1467:1594   */\n    tag_132:\n        /* \"#utility.yul\":1528:1538   */\n      0x4e487b71\n        /* \"#utility.yul\":1523:1526   */\n      0xe0\n        /* \"#utility.yul\":1519:1539   */\n      shl\n        /* \"#utility.yul\":1516:1517   */\n      0x00\n        /* \"#utility.yul\":1509:1540   */\n      mstore\n        /* \"#utility.yul\":1559:1563   */\n      0x11\n        /* \"#utility.yul\":1556:1557   */\n      0x04\n        /* \"#utility.yul\":1549:1564   */\n      mstore\n        /* \"#utility.yul\":1583:1587   */\n      0x24\n        /* \"#utility.yul\":1580:1581   */\n      0x00\n        /* \"#utility.yul\":1573:1588   */\n      revert\n        /* \"#utility.yul\":1599:1727   */\n    tag_47:\n        /* \"#utility.yul\":1666:1675   */\n      dup2\n      dup2\n      sub\n        /* \"#utility.yul\":1687:1698   */\n      dup2\n      dup2\n      gt\n        /* \"#utility.yul\":1684:1721   */\n      iszero\n      tag_148\n      jumpi\n        /* \"#utility.yul\":1701:1719   */\n      tag_148\n      tag_132\n      jump\t// in\n    tag_148:\n        /* \"#utility.yul\":1599:1727   */\n      swap3\n      swap2\n      pop\n      pop\n      jump\t// out\n        /* \"#utility.yul\":1732:1859   */\n    tag_56:\n        /* \"#utility.yul\":1793:1803   */\n      0x4e487b71\n        /* \"#utility.yul\":1788:1791   */\n      0xe0\n        /* \"#utility.yul\":1784:1804   */\n      shl\n        /* \"#utility.yul\":1781:1782   */\n      0x00\n        /* \"#utility.yul\":1774:1805   */\n      mstore\n        /* \"#utility.yul\":1824:1828   */\n      0x31\n        /* \"#utility.yul\":1821:1822   */\n      0x04\n        /* \"#utility.yul\":1814:1829   */\n      mstore\n        /* \"#utility.yul\":1848:1852   */\n      0x24\n        /* \"#utility.yul\":1845:1846   */\n      0x00\n        /* \"#utility.yul\":1838:1853   */\n      revert\n        /* \"#utility.yul\":1864:1999   */\n    tag_59:\n        /* \"#utility.yul\":1903:1906   */\n      0x00\n        /* \"#utility.yul\":1924:1941   */\n      0x01\n      dup3\n      add\n        /* \"#utility.yul\":1921:1964   */\n      tag_152\n      jumpi\n        /* \"#utility.yul\":1944:1962   */\n      tag_152\n      tag_132\n      jump\t// in\n    tag_152:\n      pop\n        /* \"#utility.yul\":1991:1992   */\n      0x01\n        /* \"#utility.yul\":1980:1993   */\n      add\n      swap1\n        /* \"#utility.yul\":1864:1999   */\n      jump\t// out\n        /* \"#utility.yul\":4143:4550   */\n    tag_121:\n        /* \"#utility.yul\":4345:4347   */\n      0x20\n        /* \"#utility.yul\":4327:4348   */\n      dup1\n      dup3\n      mstore\n        /* \"#utility.yul\":4384:4386   */\n      0x2b\n        /* \"#utility.yul\":4364:4382   */\n      swap1\n      dup3\n      add\n        /* \"#utility.yul\":4357:4387   */\n      mstore\n        /* \"#utility.yul\":4423:4457   */\n      0x496e697469616c697a61626c653a20636f6e7472616374206973206e6f742069\n        /* \"#utility.yul\":4418:4420   */\n      0x40\n        /* \"#utility.yul\":4403:4421   */\n      dup3\n      add\n        /* \"#utility.yul\":4396:4458   */\n      mstore\n      shl(0xa8, 0x6e697469616c697a696e67)\n        /* \"#utility.yul\":4489:4491   */\n      0x60\n        /* \"#utility.yul\":4474:4492   */\n      dup3\n      add\n        /* \"#utility.yul\":4467:4508   */\n      mstore\n        /* \"#utility.yul\":4540:4543   */\n      0x80\n        /* \"#utility.yul\":4525:4544   */\n      add\n      swap1\n        /* \"#utility.yul\":4143:4550   */\n      jump\t// out\n\n    auxdata: 0xa264697066735822122033f653be68790c00212113297eb3ae5a18afee5807bccc5cbf3099f757daffac64736f6c63430008110033\n}\n",
				"bytecode": {
					"linkReferences": {},
					"object": "608060405234801561001057600080fd5b506107c3806100206000396000f3fe608060405234801561001057600080fd5b506004361061007d5760003560e01c8063c7b225511161005b578063c7b22551146100bf578063df09d604146100d2578063e1c7392a146100e7578063f2fde38b146100ef57600080fd5b80630829784614610082578063715018a6146100975780638da5cb5b1461009f575b600080fd5b610095610090366004610641565b610102565b005b6100956101f3565b6033546040516001600160a01b0390911681526020015b60405180910390f35b6100956100cd366004610641565b610207565b6100da61035c565b6040516100b6919061065a565b6100956103b4565b6100956100fd36600461069e565b6104c5565b61010a61053b565b60655460005b818110156101ee57826065828154811061012c5761012c6106ce565b9060005260206000200154036101dc5760656101496001846106fa565b81548110610159576101596106ce565b906000526020600020015460658281548110610177576101776106ce565b600091825260209091200155606580548061019457610194610713565b60019003818190600052602060002001600090559055827f0b1381093c776453c1bbe54fd68be1b235c65db61d099cb50d194b2991e0eec560405160405180910390a2505050565b806101e681610729565b915050610110565b505050565b6101fb61053b565b6102056000610595565b565b61020f61053b565b606554600f81106102725760405162461bcd60e51b815260206004820152602260248201527f63616e6e6f742072657175697265206d6f7265207468616e20313520746f7069604482015261637360f01b60648201526084015b60405180910390fd5b60005b818110156102fb578260658281548110610291576102916106ce565b9060005260206000200154036102e95760405162461bcd60e51b815260206004820152601960248201527f636c61696d546f70696320616c726561647920657869737473000000000000006044820152606401610269565b806102f381610729565b915050610275565b506065805460018101825560009182527f8ff97419363ffd7000167f130ef7168fbea05faf9251824ca5043f113cc6a7c70183905560405183917f01c928b7f7ade2949e92366aa9454dbef3a416b731cf6ec786ba9595bbd814d691a25050565b606060658054806020026020016040519081016040528092919081815260200182805480156103aa57602002820191906000526020600020905b815481526020019060010190808311610396575b5050505050905090565b600054610100900460ff16158080156103d45750600054600160ff909116105b806103ee5750303b1580156103ee575060005460ff166001145b6104515760405162461bcd60e51b815260206004820152602e60248201527f496e697469616c697a61626c653a20636f6e747261637420697320616c72656160448201526d191e481a5b9a5d1a585b1a5e995960921b6064820152608401610269565b6000805460ff191660011790558015610474576000805461ff0019166101001790555b61047c6105e7565b80156104c2576000805461ff0019169055604051600181527f7f26b83ff96e1f2b6a682f133852f6798a09c465da95921460cefb38474024989060200160405180910390a15b50565b6104cd61053b565b6001600160a01b0381166105325760405162461bcd60e51b815260206004820152602660248201527f4f776e61626c653a206e6577206f776e657220697320746865207a65726f206160448201526564647265737360d01b6064820152608401610269565b6104c281610595565b6033546001600160a01b031633146102055760405162461bcd60e51b815260206004820181905260248201527f4f776e61626c653a2063616c6c6572206973206e6f7420746865206f776e65726044820152606401610269565b603380546001600160a01b038381166001600160a01b0319831681179093556040519116919082907f8be0079c531659141344cd1fd0a4f28419497f9722a3daafe3b4186f6b6457e090600090a35050565b600054610100900460ff1661060e5760405162461bcd60e51b815260040161026990610742565b610205600054610100900460ff166106385760405162461bcd60e51b815260040161026990610742565b61020533610595565b60006020828403121561065357600080fd5b5035919050565b6020808252825182820181905260009190848201906040850190845b8181101561069257835183529284019291840191600101610676565b50909695505050505050565b6000602082840312156106b057600080fd5b81356001600160a01b03811681146106c757600080fd5b9392505050565b634e487b7160e01b600052603260045260246000fd5b634e487b7160e01b600052601160045260246000fd5b8181038181111561070d5761070d6106e4565b92915050565b634e487b7160e01b600052603160045260246000fd5b60006001820161073b5761073b6106e4565b5060010190565b6020808252602b908201527f496e697469616c697a61626c653a20636f6e7472616374206973206e6f74206960408201526a6e697469616c697a696e6760a81b60608201526080019056fea264697066735822122033f653be68790c00212113297eb3ae5a18afee5807bccc5cbf3099f757daffac64736f6c63430008110033",
					"opcodes": "PUSH1 0x80 PUSH1 0x40 MSTORE CALLVALUE DUP1 ISZERO PUSH2 0x10 JUMPI PUSH1 0x0 DUP1 REVERT JUMPDEST POP PUSH2 0x7C3 DUP1 PUSH2 0x20 PUSH1 0x0 CODECOPY PUSH1 0x0 RETURN INVALID PUSH1 0x80 PUSH1 0x40 MSTORE CALLVALUE DUP1 ISZERO PUSH2 0x10 JUMPI PUSH1 0x0 DUP1 REVERT JUMPDEST POP PUSH1 0x4 CALLDATASIZE LT PUSH2 0x7D JUMPI PUSH1 0x0 CALLDATALOAD PUSH1 0xE0 SHR DUP1 PUSH4 0xC7B22551 GT PUSH2 0x5B JUMPI DUP1 PUSH4 0xC7B22551 EQ PUSH2 0xBF JUMPI DUP1 PUSH4 0xDF09D604 EQ PUSH2 0xD2 JUMPI DUP1 PUSH4 0xE1C7392A EQ PUSH2 0xE7 JUMPI DUP1 PUSH4 0xF2FDE38B EQ PUSH2 0xEF JUMPI PUSH1 0x0 DUP1 REVERT JUMPDEST DUP1 PUSH4 0x8297846 EQ PUSH2 0x82 JUMPI DUP1 PUSH4 0x715018A6 EQ PUSH2 0x97 JUMPI DUP1 PUSH4 0x8DA5CB5B EQ PUSH2 0x9F JUMPI JUMPDEST PUSH1 0x0 DUP1 REVERT JUMPDEST PUSH2 0x95 PUSH2 0x90 CALLDATASIZE PUSH1 0x4 PUSH2 0x641 JUMP JUMPDEST PUSH2 0x102 JUMP JUMPDEST STOP JUMPDEST PUSH2 0x95 PUSH2 0x1F3 JUMP JUMPDEST PUSH1 0x33 SLOAD PUSH1 0x40 MLOAD PUSH1 0x1 PUSH1 0x1 PUSH1 0xA0 SHL SUB SWAP1 SWAP2 AND DUP2 MSTORE PUSH1 0x20 ADD JUMPDEST PUSH1 0x40 MLOAD DUP1 SWAP2 SUB SWAP1 RETURN JUMPDEST PUSH2 0x95 PUSH2 0xCD CALLDATASIZE PUSH1 0x4 PUSH2 0x641 JUMP JUMPDEST PUSH2 0x207 JUMP JUMPDEST PUSH2 0xDA PUSH2 0x35C JUMP JUMPDEST PUSH1 0x40 MLOAD PUSH2 0xB6 SWAP2 SWAP1 PUSH2 0x65A JUMP JUMPDEST PUSH2 0x95 PUSH2 0x3B4 JUMP JUMPDEST PUSH2 0x95 PUSH2 0xFD CALLDATASIZE PUSH1 0x4 PUSH2 0x69E JUMP JUMPDEST PUSH2 0x4C5 JUMP JUMPDEST PUSH2 0x10A PUSH2 0x53B JUMP JUMPDEST PUSH1 0x65 SLOAD PUSH1 0x0 JUMPDEST DUP2 DUP2 LT ISZERO PUSH2 0x1EE JUMPI DUP3 PUSH1 0x65 DUP3 DUP2 SLOAD DUP2 LT PUSH2 0x12C JUMPI PUSH2 0x12C PUSH2 0x6CE JUMP JUMPDEST SWAP1 PUSH1 0x0 MSTORE PUSH1 0x20 PUSH1 0x0 KECCAK256 ADD SLOAD SUB PUSH2 0x1DC JUMPI PUSH1 0x65 PUSH2 0x149 PUSH1 0x1 DUP5 PUSH2 0x6FA JUMP JUMPDEST DUP2 SLOAD DUP2 LT PUSH2 0x159 JUMPI PUSH2 0x159 PUSH2 0x6CE JUMP JUMPDEST SWAP1 PUSH1 0x0 MSTORE PUSH1 0x20 PUSH1 0x0 KECCAK256 ADD SLOAD PUSH1 0x65 DUP3 DUP2 SLOAD DUP2 LT PUSH2 0x177 JUMPI PUSH2 0x177 PUSH2 0x6CE JUMP JUMPDEST PUSH1 0x0 SWAP2 DUP3 MSTORE PUSH1 0x20 SWAP1 SWAP2 KECCAK256 ADD SSTORE PUSH1 0x65 DUP1 SLOAD DUP1 PUSH2 0x194 JUMPI PUSH2 0x194 PUSH2 0x713 JUMP JUMPDEST PUSH1 0x1 SWAP1 SUB DUP2 DUP2 SWAP1 PUSH1 0x0 MSTORE PUSH1 0x20 PUSH1 0x0 KECCAK256 ADD PUSH1 0x0 SWAP1 SSTORE SWAP1 SSTORE DUP3 PUSH32 0xB1381093C776453C1BBE54FD68BE1B235C65DB61D099CB50D194B2991E0EEC5 PUSH1 0x40 MLOAD PUSH1 0x40 MLOAD DUP1 SWAP2 SUB SWAP1 LOG2 POP POP POP JUMP JUMPDEST DUP1 PUSH2 0x1E6 DUP2 PUSH2 0x729 JUMP JUMPDEST SWAP2 POP POP PUSH2 0x110 JUMP JUMPDEST POP POP POP JUMP JUMPDEST PUSH2 0x1FB PUSH2 0x53B JUMP JUMPDEST PUSH2 0x205 PUSH1 0x0 PUSH2 0x595 JUMP JUMPDEST JUMP JUMPDEST PUSH2 0x20F PUSH2 0x53B JUMP JUMPDEST PUSH1 0x65 SLOAD PUSH1 0xF DUP2 LT PUSH2 0x272 JUMPI PUSH1 0x40 MLOAD PUSH3 0x461BCD PUSH1 0xE5 SHL DUP2 MSTORE PUSH1 0x20 PUSH1 0x4 DUP3 ADD MSTORE PUSH1 0x22 PUSH1 0x24 DUP3 ADD MSTORE PUSH32 0x63616E6E6F742072657175697265206D6F7265207468616E20313520746F7069 PUSH1 0x44 DUP3 ADD MSTORE PUSH2 0x6373 PUSH1 0xF0 SHL PUSH1 0x64 DUP3 ADD MSTORE PUSH1 0x84 ADD JUMPDEST PUSH1 0x40 MLOAD DUP1 SWAP2 SUB SWAP1 REVERT JUMPDEST PUSH1 0x0 JUMPDEST DUP2 DUP2 LT ISZERO PUSH2 0x2FB JUMPI DUP3 PUSH1 0x65 DUP3 DUP2 SLOAD DUP2 LT PUSH2 0x291 JUMPI PUSH2 0x291 PUSH2 0x6CE JUMP JUMPDEST SWAP1 PUSH1 0x0 MSTORE PUSH1 0x20 PUSH1 0x0 KECCAK256 ADD SLOAD SUB PUSH2 0x2E9 JUMPI PUSH1 0x40 MLOAD PUSH3 0x461BCD PUSH1 0xE5 SHL DUP2 MSTORE PUSH1 0x20 PUSH1 0x4 DUP3 ADD MSTORE PUSH1 0x19 PUSH1 0x24 DUP3 ADD MSTORE PUSH32 0x636C61696D546F70696320616C72656164792065786973747300000000000000 PUSH1 0x44 DUP3 ADD MSTORE PUSH1 0x64 ADD PUSH2 0x269 JUMP JUMPDEST DUP1 PUSH2 0x2F3 DUP2 PUSH2 0x729 JUMP JUMPDEST SWAP2 POP POP PUSH2 0x275 JUMP JUMPDEST POP PUSH1 0x65 DUP1 SLOAD PUSH1 0x1 DUP2 ADD DUP3 SSTORE PUSH1 0x0 SWAP2 DUP3 MSTORE PUSH32 0x8FF97419363FFD7000167F130EF7168FBEA05FAF9251824CA5043F113CC6A7C7 ADD DUP4 SWAP1 SSTORE PUSH1 0x40 MLOAD DUP4 SWAP2 PUSH32 0x1C928B7F7ADE2949E92366AA9454DBEF3A416B731CF6EC786BA9595BBD814D6 SWAP2 LOG2 POP POP JUMP JUMPDEST PUSH1 0x60 PUSH1 0x65 DUP1 SLOAD DUP1 PUSH1 0x20 MUL PUSH1 0x20 ADD PUSH1 0x40 MLOAD SWAP1 DUP2 ADD PUSH1 0x40 MSTORE DUP1 SWAP3 SWAP2 SWAP1 DUP2 DUP2 MSTORE PUSH1 0x20 ADD DUP3 DUP1 SLOAD DUP1 ISZERO PUSH2 0x3AA JUMPI PUSH1 0x20 MUL DUP3 ADD SWAP2 SWAP1 PUSH1 0x0 MSTORE PUSH1 0x20 PUSH1 0x0 KECCAK256 SWAP1 JUMPDEST DUP2 SLOAD DUP2 MSTORE PUSH1 0x20 ADD SWAP1 PUSH1 0x1 ADD SWAP1 DUP1 DUP4 GT PUSH2 0x396 JUMPI JUMPDEST POP POP POP POP POP SWAP1 POP SWAP1 JUMP JUMPDEST PUSH1 0x0 SLOAD PUSH2 0x100 SWAP1 DIV PUSH1 0xFF AND ISZERO DUP1 DUP1 ISZERO PUSH2 0x3D4 JUMPI POP PUSH1 0x0 SLOAD PUSH1 0x1 PUSH1 0xFF SWAP1 SWAP2 AND LT JUMPDEST DUP1 PUSH2 0x3EE JUMPI POP ADDRESS EXTCODESIZE ISZERO DUP1 ISZERO PUSH2 0x3EE JUMPI POP PUSH1 0x0 SLOAD PUSH1 0xFF AND PUSH1 0x1 EQ JUMPDEST PUSH2 0x451 JUMPI PUSH1 0x40 MLOAD PUSH3 0x461BCD PUSH1 0xE5 SHL DUP2 MSTORE PUSH1 0x20 PUSH1 0x4 DUP3 ADD MSTORE PUSH1 0x2E PUSH1 0x24 DUP3 ADD MSTORE PUSH32 0x496E697469616C697A61626C653A20636F6E747261637420697320616C726561 PUSH1 0x44 DUP3 ADD MSTORE PUSH14 0x191E481A5B9A5D1A585B1A5E9959 PUSH1 0x92 SHL PUSH1 0x64 DUP3 ADD MSTORE PUSH1 0x84 ADD PUSH2 0x269 JUMP JUMPDEST PUSH1 0x0 DUP1 SLOAD PUSH1 0xFF NOT AND PUSH1 0x1 OR SWAP1 SSTORE DUP1 ISZERO PUSH2 0x474 JUMPI PUSH1 0x0 DUP1 SLOAD PUSH2 0xFF00 NOT AND PUSH2 0x100 OR SWAP1 SSTORE JUMPDEST PUSH2 0x47C PUSH2 0x5E7 JUMP JUMPDEST DUP1 ISZERO PUSH2 0x4C2 JUMPI PUSH1 0x0 DUP1 SLOAD PUSH2 0xFF00 NOT AND SWAP1 SSTORE PUSH1 0x40 MLOAD PUSH1 0x1 DUP2 MSTORE PUSH32 0x7F26B83FF96E1F2B6A682F133852F6798A09C465DA95921460CEFB3847402498 SWAP1 PUSH1 0x20 ADD PUSH1 0x40 MLOAD DUP1 SWAP2 SUB SWAP1 LOG1 JUMPDEST POP JUMP JUMPDEST PUSH2 0x4CD PUSH2 0x53B JUMP JUMPDEST PUSH1 0x1 PUSH1 0x1 PUSH1 0xA0 SHL SUB DUP2 AND PUSH2 0x532 JUMPI PUSH1 0x40 MLOAD PUSH3 0x461BCD PUSH1 0xE5 SHL DUP2 MSTORE PUSH1 0x20 PUSH1 0x4 DUP3 ADD MSTORE PUSH1 0x26 PUSH1 0x24 DUP3 ADD MSTORE PUSH32 0x4F776E61626C653A206E6577206F776E657220697320746865207A65726F2061 PUSH1 0x44 DUP3 ADD MSTORE PUSH6 0x646472657373 PUSH1 0xD0 SHL PUSH1 0x64 DUP3 ADD MSTORE PUSH1 0x84 ADD PUSH2 0x269 JUMP JUMPDEST PUSH2 0x4C2 DUP2 PUSH2 0x595 JUMP JUMPDEST PUSH1 0x33 SLOAD PUSH1 0x1 PUSH1 0x1 PUSH1 0xA0 SHL SUB AND CALLER EQ PUSH2 0x205 JUMPI PUSH1 0x40 MLOAD PUSH3 0x461BCD PUSH1 0xE5 SHL DUP2 MSTORE PUSH1 0x20 PUSH1 0x4 DUP3 ADD DUP2 SWAP1 MSTORE PUSH1 0x24 DUP3 ADD MSTORE PUSH32 0x4F776E61626C653A2063616C6C6572206973206E6F7420746865206F776E6572 PUSH1 0x44 DUP3 ADD MSTORE PUSH1 0x64 ADD PUSH2 0x269 JUMP JUMPDEST PUSH1 0x33 DUP1 SLOAD PUSH1 0x1 PUSH1 0x1 PUSH1 0xA0 SHL SUB DUP4 DUP2 AND PUSH1 0x1 PUSH1 0x1 PUSH1 0xA0 SHL SUB NOT DUP4 AND DUP2 OR SWAP1 SWAP4 SSTORE PUSH1 0x40 MLOAD SWAP2 AND SWAP2 SWAP1 DUP3 SWAP1 PUSH32 0x8BE0079C531659141344CD1FD0A4F28419497F9722A3DAAFE3B4186F6B6457E0 SWAP1 PUSH1 0x0 SWAP1 LOG3 POP POP JUMP JUMPDEST PUSH1 0x0 SLOAD PUSH2 0x100 SWAP1 DIV PUSH1 0xFF AND PUSH2 0x60E JUMPI PUSH1 0x40 MLOAD PUSH3 0x461BCD PUSH1 0xE5 SHL DUP2 MSTORE PUSH1 0x4 ADD PUSH2 0x269 SWAP1 PUSH2 0x742 JUMP JUMPDEST PUSH2 0x205 PUSH1 0x0 SLOAD PUSH2 0x100 SWAP1 DIV PUSH1 0xFF AND PUSH2 0x638 JUMPI PUSH1 0x40 MLOAD PUSH3 0x461BCD PUSH1 0xE5 SHL DUP2 MSTORE PUSH1 0x4 ADD PUSH2 0x269 SWAP1 PUSH2 0x742 JUMP JUMPDEST PUSH2 0x205 CALLER PUSH2 0x595 JUMP JUMPDEST PUSH1 0x0 PUSH1 0x20 DUP3 DUP5 SUB SLT ISZERO PUSH2 0x653 JUMPI PUSH1 0x0 DUP1 REVERT JUMPDEST POP CALLDATALOAD SWAP2 SWAP1 POP JUMP JUMPDEST PUSH1 0x20 DUP1 DUP3 MSTORE DUP3 MLOAD DUP3 DUP3 ADD DUP2 SWAP1 MSTORE PUSH1 0x0 SWAP2 SWAP1 DUP5 DUP3 ADD SWAP1 PUSH1 0x40 DUP6 ADD SWAP1 DUP5 JUMPDEST DUP2 DUP2 LT ISZERO PUSH2 0x692 JUMPI DUP4 MLOAD DUP4 MSTORE SWAP3 DUP5 ADD SWAP3 SWAP2 DUP5 ADD SWAP2 PUSH1 0x1 ADD PUSH2 0x676 JUMP JUMPDEST POP SWAP1 SWAP7 SWAP6 POP POP POP POP POP POP JUMP JUMPDEST PUSH1 0x0 PUSH1 0x20 DUP3 DUP5 SUB SLT ISZERO PUSH2 0x6B0 JUMPI PUSH1 0x0 DUP1 REVERT JUMPDEST DUP2 CALLDATALOAD PUSH1 0x1 PUSH1 0x1 PUSH1 0xA0 SHL SUB DUP2 AND DUP2 EQ PUSH2 0x6C7 JUMPI PUSH1 0x0 DUP1 REVERT JUMPDEST SWAP4 SWAP3 POP POP POP JUMP JUMPDEST PUSH4 0x4E487B71 PUSH1 0xE0 SHL PUSH1 0x0 MSTORE PUSH1 0x32 PUSH1 0x4 MSTORE PUSH1 0x24 PUSH1 0x0 REVERT JUMPDEST PUSH4 0x4E487B71 PUSH1 0xE0 SHL PUSH1 0x0 MSTORE PUSH1 0x11 PUSH1 0x4 MSTORE PUSH1 0x24 PUSH1 0x0 REVERT JUMPDEST DUP2 DUP2 SUB DUP2 DUP2 GT ISZERO PUSH2 0x70D JUMPI PUSH2 0x70D PUSH2 0x6E4 JUMP JUMPDEST SWAP3 SWAP2 POP POP JUMP JUMPDEST PUSH4 0x4E487B71 PUSH1 0xE0 SHL PUSH1 0x0 MSTORE PUSH1 0x31 PUSH1 0x4 MSTORE PUSH1 0x24 PUSH1 0x0 REVERT JUMPDEST PUSH1 0x0 PUSH1 0x1 DUP3 ADD PUSH2 0x73B JUMPI PUSH2 0x73B PUSH2 0x6E4 JUMP JUMPDEST POP PUSH1 0x1 ADD SWAP1 JUMP JUMPDEST PUSH1 0x20 DUP1 DUP3 MSTORE PUSH1 0x2B SWAP1 DUP3 ADD MSTORE PUSH32 0x496E697469616C697A61626C653A20636F6E7472616374206973206E6F742069 PUSH1 0x40 DUP3 ADD MSTORE PUSH11 0x6E697469616C697A696E67 PUSH1 0xA8 SHL PUSH1 0x60 DUP3 ADD MSTORE PUSH1 0x80 ADD SWAP1 JUMP INVALID LOG2 PUSH5 0x6970667358 0x22 SLT KECCAK256 CALLER 0xF6 MSTORE8 0xBE PUSH9 0x790C00212113297EB3 0xAE GAS XOR 0xAF 0xEE PC SMOD 0xBC 0xCC 0x5C 0xBF ADDRESS SWAP10 0xF7 JUMPI 0xDA SELFDESTRUCT 0xAC PUSH5 0x736F6C6343 STOP ADDMOD GT STOP CALLER "
				},
				"gasEstimates": {
					"creation": {
						"codeDepositCost": "397400",
						"executionCost": "436",
						"totalCost": "397836"
					},
					"external": {
						"addClaimTopic(uint256)": "infinite",
						"getClaimTopics()": "infinite",
						"init()": "infinite",
						"owner()": "2335",
						"removeClaimTopic(uint256)": "infinite",
						"renounceOwnership()": "infinite",
						"transferOwnership(address)": "28367"
					}
				},
				"methodIdentifiers": {
					"addClaimTopic(uint256)": "c7b22551",
					"getClaimTopics()": "df09d604",
					"init()": "e1c7392a",
					"owner()": "8da5cb5b",
					"removeClaimTopic(uint256)": "08297846",
					"renounceOwnership()": "715018a6",
					"transferOwnership(address)": "f2fde38b"
				}
			},
			"storageLayout": {
				"storage": [
					{
						"astId": 138,
						"contract": "erc3643/erc3643/registry/implementation/ClaimTopicsRegistry.sol:ClaimTopicsRegistry",
						"label": "_initialized",
						"offset": 0,
						"slot": "0",
						"type": "t_uint8"
					},
					{
						"astId": 141,
						"contract": "erc3643/erc3643/registry/implementation/ClaimTopicsRegistry.sol:ClaimTopicsRegistry",
						"label": "_initializing",
						"offset": 1,
						"slot": "0",
						"type": "t_bool"
					},
					{
						"astId": 671,
						"contract": "erc3643/erc3643/registry/implementation/ClaimTopicsRegistry.sol:ClaimTopicsRegistry",
						"label": "__gap",
						"offset": 0,
						"slot": "1",
						"type": "t_array(t_uint256)50_storage"
					},
					{
						"astId": 10,
						"contract": "erc3643/erc3643/registry/implementation/ClaimTopicsRegistry.sol:ClaimTopicsRegistry",
						"label": "_owner",
						"offset": 0,
						"slot": "51",
						"type": "t_address"
					},
					{
						"astId": 130,
						"contract": "erc3643/erc3643/registry/implementation/ClaimTopicsRegistry.sol:ClaimTopicsRegistry",
						"label": "__gap",
						"offset": 0,
						"slot": "52",
						"type": "t_array(t_uint256)49_storage"
					},
					{
						"astId": 842,
						"contract": "erc3643/erc3643/registry/implementation/ClaimTopicsRegistry.sol:ClaimTopicsRegistry",
						"label": "_claimTopics",
						"offset": 0,
						"slot": "101",
						"type": "t_array(t_uint256)dyn_storage"
					},
					{
						"astId": 846,
						"contract": "erc3643/erc3643/registry/implementation/ClaimTopicsRegistry.sol:ClaimTopicsRegistry",
						"label": "__gap",
						"offset": 0,
						"slot": "102",
						"type": "t_array(t_uint256)49_storage"
					}
				],
				"types": {
					"t_address": {
						"encoding": "inplace",
						"label": "address",
						"numberOfBytes": "20"
					},
					"t_array(t_uint256)49_storage": {
						"base": "t_uint256",
						"encoding": "inplace",
						"label": "uint256[49]",
						"numberOfBytes": "1568"
					},
					"t_array(t_uint256)50_storage": {
						"base": "t_uint256",
						"encoding": "inplace",
						"label": "uint256[50]",
						"numberOfBytes": "1600"
					},
					"t_array(t_uint256)dyn_storage": {
						"base": "t_uint256",
						"encoding": "dynamic_array",
						"label": "uint256[]",
						"numberOfBytes": "32"
					},
					"t_bool": {
						"encoding": "inplace",
						"label": "bool",
						"numberOfBytes": "1"
					},
					"t_uint256": {
						"encoding": "inplace",
						"label": "uint256",
						"numberOfBytes": "32"
					},
					"t_uint8": {
						"encoding": "inplace",
						"label": "uint8",
						"numberOfBytes": "1"
					}
				}
			},
			"userdoc": {
				"kind": "user",
				"methods": {},
				"version": 1
			}
		}
	}
}