{
	"erc3643/erc3643/registry/implementation/TrustedIssuersRegistry.sol": {
		"TrustedIssuersRegistry": {
			"abi": [
				{
					"anonymous": false,
					"inputs": [
						{
							"indexed": true,
							"internalType": "contract IClaimIssuer",
							"name": "trustedIssuer",
							"type": "address"
						},
						{
							"indexed": false,
							"internalType": "uint256[]",
							"name": "claimTopics",
							"type": "uint256[]"
						}
					],
					"name": "ClaimTopicsUpdated",
					"type": "event"
				},
				{
					"anonymous": false,
					"inputs": [
						{
							"indexed": false,
							"internalType": "uint8",
							"name": "version",
							"type": "uint8"
						}
					],
					"name": "Initialized",
					"type": "event"
				},
				{
					"anonymous": false,
					"inputs": [
						{
							"indexed": true,
							"internalType": "address",
							"name": "previousOwner",
							"type": "address"
						},
						{
							"indexed": true,
							"internalType": "address",
							"name": "newOwner",
							"type": "address"
						}
					],
					"name": "OwnershipTransferred",
					"type": "event"
				},
				{
					"anonymous": false,
					"inputs": [
						{
							"indexed": true,
							"internalType": "contract IClaimIssuer",
							"name": "trustedIssuer",
							"type": "address"
						},
						{
							"indexed": false,
							"internalType": "uint256[]",
							"name": "claimTopics",
							"type": "uint256[]"
						}
					],
					"name": "TrustedIssuerAdded",
					"type": "event"
				},
				{
					"anonymous": false,
					"inputs": [
						{
							"indexed": true,
							"internalType": "contract IClaimIssuer",
							"name": "trustedIssuer",
							"type": "address"
						}
					],
					"name": "TrustedIssuerRemoved",
					"type": "event"
				},
				{
					"inputs": [
						{
							"internalType": "contract IClaimIssuer",
							"name": "_trustedIssuer",
							"type": "address"
						},
						{
							"internalType": "uint256[]",
							"name": "_claimTopics",
							"type": "uint256[]"
						}
					],
					"name": "addTrustedIssuer",
					"outputs": [],
					"stateMutability": "nonpayable",
					"type": "function"
				},
				{
					"inputs": [
						{
							"internalType": "contract IClaimIssuer",
							"name": "_trustedIssuer",
							"type": "address"
						}
					],
					"name": "getTrustedIssuerClaimTopics",
					"outputs": [
						{
							"internalType": "uint256[]",
							"name": "",
							"type": "uint256[]"
						}
					],
					"stateMutability": "view",
					"type": "function"
				},
				{
					"inputs": [],
					"name": "getTrustedIssuers",
					"outputs": [
						{
							"internalType": "contract IClaimIssuer[]",
							"name": "",
							"type": "address[]"
						}
					],
					"stateMutability": "view",
					"type": "function"
				},
				{
					"inputs": [
						{
							"internalType": "uint256",
							"name": "claimTopic",
							"type": "uint256"
						}
					],
					"name": "getTrustedIssuersForClaimTopic",
					"outputs": [
						{
							"internalType": "contract IClaimIssuer[]",
							"name": "",
							"type": "address[]"
						}
					],
					"stateMutability": "view",
					"type": "function"
				},
				{
					"inputs": [
						{
							"internalType": "address",
							"name": "_issuer",
							"type": "address"
						},
						{
							"internalType": "uint256",
							"name": "_claimTopic",
							"type": "uint256"
						}
					],
					"name": "hasClaimTopic",
					"outputs": [
						{
							"internalType": "bool",
							"name": "",
							"type": "bool"
						}
					],
					"stateMutability": "view",
					"type": "function"
				},
				{
					"inputs": [],
					"name": "init",
					"outputs": [],
					"stateMutability": "nonpayable",
					"type": "function"
				},
				{
					"inputs": [
						{
							"internalType": "address",
							"name": "_issuer",
							"type": "address"
						}
					],
					"name": "isTrustedIssuer",
					"outputs": [
						{
							"internalType": "bool",
							"name": "",
							"type": "bool"
						}
					],
					"stateMutability": "view",
					"type": "function"
				},
				{
					"inputs": [],
					"name": "owner",
					"outputs": [
						{
							"internalType": "address",
							"name": "",
							"type": "address"
						}
					],
					"stateMutability": "view",
					"type": "function"
				},
				{
					"inputs": [
						{
							"internalType": "contract IClaimIssuer",
							"name": "_trustedIssuer",
							"type": "address"
						}
					],
					"name": "removeTrustedIssuer",
					"outputs": [],
					"stateMutability": "nonpayable",
					"type": "function"
				},
				{
					"inputs": [],
					"name": "renounceOwnership",
					"outputs": [],
					"stateMutability": "nonpayable",
					"type": "function"
				},
				{
					"inputs": [
						{
							"internalType": "address",
							"name": "newOwner",
							"type": "address"
						}
					],
					"name": "transferOwnership",
					"outputs": [],
					"stateMutability": "nonpayable",
					"type": "function"
				},
				{
					"inputs": [
						{
							"internalType": "contract IClaimIssuer",
							"name": "_trustedIssuer",
							"type": "address"
						},
						{
							"internalType": "uint256[]",
							"name": "_claimTopics",
							"type": "uint256[]"
						}
					],
					"name": "updateIssuerClaimTopics",
					"outputs": [],
					"stateMutability": "nonpayable",
					"type": "function"
				}
			],
			"devdoc": {
				"kind": "dev",
				"methods": {
					"addTrustedIssuer(address,uint256[])": {
						"details": "See {ITrustedIssuersRegistry-addTrustedIssuer}."
					},
					"getTrustedIssuerClaimTopics(address)": {
						"details": "See {ITrustedIssuersRegistry-getTrustedIssuerClaimTopics}."
					},
					"getTrustedIssuers()": {
						"details": "See {ITrustedIssuersRegistry-getTrustedIssuers}."
					},
					"getTrustedIssuersForClaimTopic(uint256)": {
						"details": "See {ITrustedIssuersRegistry-getTrustedIssuersForClaimTopic}."
					},
					"hasClaimTopic(address,uint256)": {
						"details": "See {ITrustedIssuersRegistry-hasClaimTopic}."
					},
					"isTrustedIssuer(address)": {
						"details": "See {ITrustedIssuersRegistry-isTrustedIssuer}."
					},
					"owner()": {
						"details": "Returns the address of the current owner."
					},
					"removeTrustedIssuer(address)": {
						"details": "See {ITrustedIssuersRegistry-removeTrustedIssuer}."
					},
					"renounceOwnership()": {
						"details": "Leaves the contract without owner. It will not be possible to call `onlyOwner` functions. Can only be called by the current owner. NOTE: Renouncing ownership will leave the contract without an owner, thereby disabling any functionality that is only available to the owner."
					},
					"transferOwnership(address)": {
						"details": "Transfers ownership of the contract to a new account (`newOwner`). Can only be called by the current owner."
					},
					"updateIssuerClaimTopics(address,uint256[])": {
						"details": "See {ITrustedIssuersRegistry-updateIssuerClaimTopics}."
					}
				},
				"version": 1
			},
			"evm": {
				"assembly": "    /* \"erc3643/erc3643/registry/implementation/TrustedIssuersRegistry.sol\":294:7335  contract TrustedIssuersRegistry is... */\n  mstore(0x40, 0x80)\n  callvalue\n  dup1\n  iszero\n  tag_1\n  jumpi\n  0x00\n  dup1\n  revert\ntag_1:\n  pop\n  dataSize(sub_0)\n  dup1\n  dataOffset(sub_0)\n  0x00\n  codecopy\n  0x00\n  return\nstop\n\nsub_0: assembly {\n        /* \"erc3643/erc3643/registry/implementation/TrustedIssuersRegistry.sol\":294:7335  contract TrustedIssuersRegistry is... */\n      mstore(0x40, 0x80)\n      callvalue\n      dup1\n      iszero\n      tag_1\n      jumpi\n      0x00\n      dup1\n      revert\n    tag_1:\n      pop\n      jumpi(tag_2, lt(calldatasize, 0x04))\n      shr(0xe0, calldataload(0x00))\n      dup1\n      0xb93d28eb\n      gt\n      tag_15\n      jumpi\n      dup1\n      0xb93d28eb\n      eq\n      tag_9\n      jumpi\n      dup1\n      0xc28fb278\n      eq\n      tag_10\n      jumpi\n      dup1\n      0xd9dd24c5\n      eq\n      tag_11\n      jumpi\n      dup1\n      0xe1c7392a\n      eq\n      tag_12\n      jumpi\n      dup1\n      0xef2ed1a4\n      eq\n      tag_13\n      jumpi\n      dup1\n      0xf2fde38b\n      eq\n      tag_14\n      jumpi\n      0x00\n      dup1\n      revert\n    tag_15:\n      dup1\n      0x04bc7e84\n      eq\n      tag_3\n      jumpi\n      dup1\n      0x34a89987\n      eq\n      tag_4\n      jumpi\n      dup1\n      0x52c111d1\n      eq\n      tag_5\n      jumpi\n      dup1\n      0x715018a6\n      eq\n      tag_6\n      jumpi\n      dup1\n      0x8da5cb5b\n      eq\n      tag_7\n      jumpi\n      dup1\n      0x9f63ea98\n      eq\n      tag_8\n      jumpi\n    tag_2:\n      0x00\n      dup1\n      revert\n        /* \"erc3643/erc3643/registry/implementation/TrustedIssuersRegistry.sol\":3636:5452  function updateIssuerClaimTopics(... */\n    tag_3:\n      tag_16\n      tag_17\n      calldatasize\n      0x04\n      tag_18\n      jump\t// in\n    tag_17:\n      tag_19\n      jump\t// in\n    tag_16:\n      stop\n        /* \"erc3643/erc3643/registry/implementation/TrustedIssuersRegistry.sol\":6877:7333  function hasClaimTopic(address _issuer, uint256 _claimTopic)... */\n    tag_4:\n      tag_20\n      tag_21\n      calldatasize\n      0x04\n      tag_22\n      jump\t// in\n    tag_21:\n      tag_23\n      jump\t// in\n    tag_20:\n      mload(0x40)\n        /* \"#utility.yul\":1451:1465   */\n      swap1\n      iszero\n        /* \"#utility.yul\":1444:1466   */\n      iszero\n        /* \"#utility.yul\":1426:1467   */\n      dup2\n      mstore\n        /* \"#utility.yul\":1414:1416   */\n      0x20\n        /* \"#utility.yul\":1399:1417   */\n      add\n        /* \"erc3643/erc3643/registry/implementation/TrustedIssuersRegistry.sol\":6877:7333  function hasClaimTopic(address _issuer, uint256 _claimTopic)... */\n    tag_24:\n      mload(0x40)\n      dup1\n      swap2\n      sub\n      swap1\n      return\n        /* \"erc3643/erc3643/registry/implementation/TrustedIssuersRegistry.sol\":5792:6007  function getTrustedIssuersForClaimTopic(uint256 claimTopic)... */\n    tag_5:\n      tag_26\n      tag_27\n      calldatasize\n      0x04\n      tag_28\n      jump\t// in\n    tag_27:\n      tag_29\n      jump\t// in\n    tag_26:\n      mload(0x40)\n      tag_24\n      swap2\n      swap1\n      tag_31\n      jump\t// in\n        /* \"@openzeppelin/contracts-upgradeable/access/OwnableUpgradeable.sol\":2064:2165  function renounceOwnership() public virtual onlyOwner {... */\n    tag_6:\n      tag_16\n      tag_33\n      jump\t// in\n        /* \"@openzeppelin/contracts-upgradeable/access/OwnableUpgradeable.sol\":1441:1526  function owner() public view virtual returns (address) {... */\n    tag_7:\n        /* \"@openzeppelin/contracts-upgradeable/access/OwnableUpgradeable.sol\":1513:1519  _owner */\n      sload(0x33)\n        /* \"@openzeppelin/contracts-upgradeable/access/OwnableUpgradeable.sol\":1441:1526  function owner() public view virtual returns (address) {... */\n      mload(0x40)\n      sub(shl(0xa0, 0x01), 0x01)\n        /* \"@openzeppelin/contracts-upgradeable/access/OwnableUpgradeable.sol\":1513:1519  _owner */\n      swap1\n      swap2\n      and\n        /* \"#utility.yul\":2491:2542   */\n      dup2\n      mstore\n        /* \"#utility.yul\":2479:2481   */\n      0x20\n        /* \"#utility.yul\":2464:2482   */\n      add\n        /* \"@openzeppelin/contracts-upgradeable/access/OwnableUpgradeable.sol\":1441:1526  function owner() public view virtual returns (address) {... */\n      tag_24\n        /* \"#utility.yul\":2345:2548   */\n      jump\n        /* \"erc3643/erc3643/registry/implementation/TrustedIssuersRegistry.sol\":556:1667  function addTrustedIssuer(... */\n    tag_8:\n      tag_16\n      tag_39\n      calldatasize\n      0x04\n      tag_18\n      jump\t// in\n    tag_39:\n      tag_40\n      jump\t// in\n        /* \"erc3643/erc3643/registry/implementation/TrustedIssuersRegistry.sol\":1753:3546  function removeTrustedIssuer(IClaimIssuer _trustedIssuer)... */\n    tag_9:\n      tag_16\n      tag_42\n      calldatasize\n      0x04\n      tag_43\n      jump\t// in\n    tag_42:\n      tag_44\n      jump\t// in\n        /* \"erc3643/erc3643/registry/implementation/TrustedIssuersRegistry.sol\":6424:6797  function getTrustedIssuerClaimTopics(IClaimIssuer _trustedIssuer)... */\n    tag_10:\n      tag_45\n      tag_46\n      calldatasize\n      0x04\n      tag_43\n      jump\t// in\n    tag_46:\n      tag_47\n      jump\t// in\n    tag_45:\n      mload(0x40)\n      tag_24\n      swap2\n      swap1\n      tag_49\n      jump\t// in\n        /* \"erc3643/erc3643/registry/implementation/TrustedIssuersRegistry.sol\":5536:5695  function getTrustedIssuers()... */\n    tag_11:\n      tag_26\n      tag_51\n      jump\t// in\n        /* \"erc3643/erc3643/registry/implementation/TrustedIssuersRegistry.sol\":403:473  function init() external initializer {... */\n    tag_12:\n      tag_16\n      tag_54\n      jump\t// in\n        /* \"erc3643/erc3643/registry/implementation/TrustedIssuersRegistry.sol\":6089:6330  function isTrustedIssuer(address _issuer)... */\n    tag_13:\n      tag_20\n      tag_56\n      calldatasize\n      0x04\n      tag_43\n      jump\t// in\n    tag_56:\n      tag_58\n      jump\t// in\n        /* \"@openzeppelin/contracts-upgradeable/access/OwnableUpgradeable.sol\":2314:2512  function transferOwnership(address newOwner) public virtual onlyOwner {... */\n    tag_14:\n      tag_16\n      tag_61\n      calldatasize\n      0x04\n      tag_43\n      jump\t// in\n    tag_61:\n      tag_62\n      jump\t// in\n        /* \"erc3643/erc3643/registry/implementation/TrustedIssuersRegistry.sol\":3636:5452  function updateIssuerClaimTopics(... */\n    tag_19:\n        /* \"@openzeppelin/contracts-upgradeable/access/OwnableUpgradeable.sol\":1334:1347  _checkOwner() */\n      tag_64\n        /* \"@openzeppelin/contracts-upgradeable/access/OwnableUpgradeable.sol\":1334:1345  _checkOwner */\n      tag_65\n        /* \"@openzeppelin/contracts-upgradeable/access/OwnableUpgradeable.sol\":1334:1347  _checkOwner() */\n      jump\t// in\n    tag_64:\n      sub(shl(0xa0, 0x01), 0x01)\n        /* \"erc3643/erc3643/registry/implementation/TrustedIssuersRegistry.sol\":3812:3849  address(_trustedIssuer) != address(0) */\n      dup4\n      and\n        /* \"erc3643/erc3643/registry/implementation/TrustedIssuersRegistry.sol\":3791:3906  require(... */\n      tag_67\n      jumpi\n      mload(0x40)\n      shl(0xe5, 0x461bcd)\n      dup2\n      mstore\n      0x04\n      add\n      tag_68\n      swap1\n      tag_69\n      jump\t// in\n    tag_68:\n      mload(0x40)\n      dup1\n      swap2\n      sub\n      swap1\n      revert\n    tag_67:\n      sub(shl(0xa0, 0x01), 0x01)\n        /* \"erc3643/erc3643/registry/implementation/TrustedIssuersRegistry.sol\":3937:3987  _trustedIssuerClaimTopics[address(_trustedIssuer)] */\n      dup4\n      and\n      0x00\n      swap1\n      dup2\n      mstore\n        /* \"erc3643/erc3643/registry/implementation/TrustedIssuersRegistry.sol\":3937:3962  _trustedIssuerClaimTopics */\n      0x66\n        /* \"erc3643/erc3643/registry/implementation/TrustedIssuersRegistry.sol\":3937:3987  _trustedIssuerClaimTopics[address(_trustedIssuer)] */\n      0x20\n      mstore\n      0x40\n      dup2\n      keccak256\n        /* \"erc3643/erc3643/registry/implementation/TrustedIssuersRegistry.sol\":3937:3994  _trustedIssuerClaimTopics[address(_trustedIssuer)].length */\n      sload\n        /* \"erc3643/erc3643/registry/implementation/TrustedIssuersRegistry.sol\":3937:3999  _trustedIssuerClaimTopics[address(_trustedIssuer)].length != 0 */\n      swap1\n      sub\n        /* \"erc3643/erc3643/registry/implementation/TrustedIssuersRegistry.sol\":3916:4045  require(... */\n      tag_70\n      jumpi\n      mload(0x40)\n      shl(0xe5, 0x461bcd)\n      dup2\n      mstore\n        /* \"#utility.yul\":4303:4305   */\n      0x20\n        /* \"erc3643/erc3643/registry/implementation/TrustedIssuersRegistry.sol\":3916:4045  require(... */\n      0x04\n      dup3\n      add\n        /* \"#utility.yul\":4285:4306   */\n      mstore\n        /* \"#utility.yul\":4342:4344   */\n      0x14\n        /* \"#utility.yul\":4322:4340   */\n      0x24\n      dup3\n      add\n        /* \"#utility.yul\":4315:4345   */\n      mstore\n      shl(0x61, 0x2727aa1030903a393ab9ba32b21034b9b9bab2b9)\n        /* \"#utility.yul\":4361:4379   */\n      0x44\n      dup3\n      add\n        /* \"#utility.yul\":4354:4404   */\n      mstore\n        /* \"#utility.yul\":4421:4439   */\n      0x64\n      add\n        /* \"erc3643/erc3643/registry/implementation/TrustedIssuersRegistry.sol\":3916:4045  require(... */\n      tag_68\n        /* \"#utility.yul\":4101:4445   */\n      jump\n        /* \"erc3643/erc3643/registry/implementation/TrustedIssuersRegistry.sol\":3916:4045  require(... */\n    tag_70:\n        /* \"erc3643/erc3643/registry/implementation/TrustedIssuersRegistry.sol\":4099:4101  15 */\n      0x0f\n        /* \"erc3643/erc3643/registry/implementation/TrustedIssuersRegistry.sol\":4076:4101  _claimTopics.length <= 15 */\n      dup2\n      gt\n      iszero\n        /* \"erc3643/erc3643/registry/implementation/TrustedIssuersRegistry.sol\":4055:4164  require(... */\n      tag_73\n      jumpi\n      mload(0x40)\n      shl(0xe5, 0x461bcd)\n      dup2\n      mstore\n      0x04\n      add\n      tag_68\n      swap1\n      tag_75\n      jump\t// in\n    tag_73:\n        /* \"erc3643/erc3643/registry/implementation/TrustedIssuersRegistry.sol\":4182:4205  _claimTopics.length > 0 */\n      dup1\n        /* \"erc3643/erc3643/registry/implementation/TrustedIssuersRegistry.sol\":4174:4238  require(_claimTopics.length > 0, \"claim topics cannot be empty\") */\n      tag_76\n      jumpi\n      mload(0x40)\n      shl(0xe5, 0x461bcd)\n      dup2\n      mstore\n        /* \"#utility.yul\":5058:5060   */\n      0x20\n        /* \"erc3643/erc3643/registry/implementation/TrustedIssuersRegistry.sol\":4174:4238  require(_claimTopics.length > 0, \"claim topics cannot be empty\") */\n      0x04\n      dup3\n      add\n        /* \"#utility.yul\":5040:5061   */\n      mstore\n        /* \"#utility.yul\":5097:5099   */\n      0x1c\n        /* \"#utility.yul\":5077:5095   */\n      0x24\n      dup3\n      add\n        /* \"#utility.yul\":5070:5100   */\n      mstore\n        /* \"#utility.yul\":5136:5166   */\n      0x636c61696d20746f706963732063616e6e6f7420626520656d70747900000000\n        /* \"#utility.yul\":5116:5134   */\n      0x44\n      dup3\n      add\n        /* \"#utility.yul\":5109:5167   */\n      mstore\n        /* \"#utility.yul\":5184:5202   */\n      0x64\n      add\n        /* \"erc3643/erc3643/registry/implementation/TrustedIssuersRegistry.sol\":4174:4238  require(_claimTopics.length > 0, \"claim topics cannot be empty\") */\n      tag_68\n        /* \"#utility.yul\":4856:5208   */\n      jump\n        /* \"erc3643/erc3643/registry/implementation/TrustedIssuersRegistry.sol\":4174:4238  require(_claimTopics.length > 0, \"claim topics cannot be empty\") */\n    tag_76:\n        /* \"erc3643/erc3643/registry/implementation/TrustedIssuersRegistry.sol\":4267:4276  uint256 i */\n      0x00\n        /* \"erc3643/erc3643/registry/implementation/TrustedIssuersRegistry.sol\":4249:5158  for (... */\n    tag_79:\n      sub(shl(0xa0, 0x01), 0x01)\n        /* \"erc3643/erc3643/registry/implementation/TrustedIssuersRegistry.sol\":4298:4348  _trustedIssuerClaimTopics[address(_trustedIssuer)] */\n      dup5\n      and\n      0x00\n      swap1\n      dup2\n      mstore\n        /* \"erc3643/erc3643/registry/implementation/TrustedIssuersRegistry.sol\":4298:4323  _trustedIssuerClaimTopics */\n      0x66\n        /* \"erc3643/erc3643/registry/implementation/TrustedIssuersRegistry.sol\":4298:4348  _trustedIssuerClaimTopics[address(_trustedIssuer)] */\n      0x20\n      mstore\n      0x40\n      swap1\n      keccak256\n        /* \"erc3643/erc3643/registry/implementation/TrustedIssuersRegistry.sol\":4298:4355  _trustedIssuerClaimTopics[address(_trustedIssuer)].length */\n      sload\n        /* \"erc3643/erc3643/registry/implementation/TrustedIssuersRegistry.sol\":4294:4355  i < _trustedIssuerClaimTopics[address(_trustedIssuer)].length */\n      dup2\n      lt\n        /* \"erc3643/erc3643/registry/implementation/TrustedIssuersRegistry.sol\":4249:5158  for (... */\n      iszero\n      tag_80\n      jumpi\n      sub(shl(0xa0, 0x01), 0x01)\n        /* \"erc3643/erc3643/registry/implementation/TrustedIssuersRegistry.sol\":4418:4498  _trustedIssuerClaimTopics[... */\n      dup5\n      and\n        /* \"erc3643/erc3643/registry/implementation/TrustedIssuersRegistry.sol\":4397:4415  uint256 claimTopic */\n      0x00\n        /* \"erc3643/erc3643/registry/implementation/TrustedIssuersRegistry.sol\":4418:4498  _trustedIssuerClaimTopics[... */\n      swap1\n      dup2\n      mstore\n        /* \"erc3643/erc3643/registry/implementation/TrustedIssuersRegistry.sol\":4418:4443  _trustedIssuerClaimTopics */\n      0x66\n        /* \"erc3643/erc3643/registry/implementation/TrustedIssuersRegistry.sol\":4418:4498  _trustedIssuerClaimTopics[... */\n      0x20\n      mstore\n      0x40\n      dup2\n      keccak256\n        /* \"erc3643/erc3643/registry/implementation/TrustedIssuersRegistry.sol\":4418:4501  _trustedIssuerClaimTopics[... */\n      dup1\n      sload\n        /* \"erc3643/erc3643/registry/implementation/TrustedIssuersRegistry.sol\":4499:4500  i */\n      dup4\n      swap1\n        /* \"erc3643/erc3643/registry/implementation/TrustedIssuersRegistry.sol\":4418:4501  _trustedIssuerClaimTopics[... */\n      dup2\n      lt\n      tag_83\n      jumpi\n      tag_83\n      tag_84\n      jump\t// in\n    tag_83:\n      0x00\n      swap2\n      dup3\n      mstore\n      0x20\n      dup1\n      dup4\n      keccak256\n      swap1\n      swap2\n      add\n      sload\n        /* \"erc3643/erc3643/registry/implementation/TrustedIssuersRegistry.sol\":4538:4578  _claimTopicsToTrustedIssuers[claimTopic] */\n      dup1\n      dup4\n      mstore\n        /* \"erc3643/erc3643/registry/implementation/TrustedIssuersRegistry.sol\":4538:4566  _claimTopicsToTrustedIssuers */\n      0x67\n        /* \"erc3643/erc3643/registry/implementation/TrustedIssuersRegistry.sol\":4538:4578  _claimTopicsToTrustedIssuers[claimTopic] */\n      swap1\n      swap2\n      mstore\n      0x40\n      dup3\n      keccak256\n        /* \"erc3643/erc3643/registry/implementation/TrustedIssuersRegistry.sol\":4538:4602  _claimTopicsToTrustedIssuers[claimTopic]... */\n      sload\n        /* \"erc3643/erc3643/registry/implementation/TrustedIssuersRegistry.sol\":4418:4501  _trustedIssuerClaimTopics[... */\n      swap1\n      swap3\n      pop\n        /* \"erc3643/erc3643/registry/implementation/TrustedIssuersRegistry.sol\":4538:4602  _claimTopicsToTrustedIssuers[claimTopic]... */\n      swap1\n        /* \"erc3643/erc3643/registry/implementation/TrustedIssuersRegistry.sol\":4616:5148  for (uint256 j = 0; j < topicsLength; j++) {... */\n    tag_86:\n        /* \"erc3643/erc3643/registry/implementation/TrustedIssuersRegistry.sol\":4640:4652  topicsLength */\n      dup2\n        /* \"erc3643/erc3643/registry/implementation/TrustedIssuersRegistry.sol\":4636:4637  j */\n      dup2\n        /* \"erc3643/erc3643/registry/implementation/TrustedIssuersRegistry.sol\":4636:4652  j < topicsLength */\n      lt\n        /* \"erc3643/erc3643/registry/implementation/TrustedIssuersRegistry.sol\":4616:5148  for (uint256 j = 0; j < topicsLength; j++) {... */\n      iszero\n      tag_87\n      jumpi\n        /* \"erc3643/erc3643/registry/implementation/TrustedIssuersRegistry.sol\":4702:4742  _claimTopicsToTrustedIssuers[claimTopic] */\n      0x00\n      dup4\n      dup2\n      mstore\n        /* \"erc3643/erc3643/registry/implementation/TrustedIssuersRegistry.sol\":4702:4730  _claimTopicsToTrustedIssuers */\n      0x67\n        /* \"erc3643/erc3643/registry/implementation/TrustedIssuersRegistry.sol\":4702:4742  _claimTopicsToTrustedIssuers[claimTopic] */\n      0x20\n      mstore\n      0x40\n      swap1\n      keccak256\n        /* \"erc3643/erc3643/registry/implementation/TrustedIssuersRegistry.sol\":4702:4745  _claimTopicsToTrustedIssuers[claimTopic][j] */\n      dup1\n      sload\n      sub(shl(0xa0, 0x01), 0x01)\n        /* \"erc3643/erc3643/registry/implementation/TrustedIssuersRegistry.sol\":4702:4783  _claimTopicsToTrustedIssuers[claimTopic][j] ==... */\n      dup10\n      and\n      swap2\n        /* \"erc3643/erc3643/registry/implementation/TrustedIssuersRegistry.sol\":4702:4742  _claimTopicsToTrustedIssuers[claimTopic] */\n      swap1\n        /* \"erc3643/erc3643/registry/implementation/TrustedIssuersRegistry.sol\":4743:4744  j */\n      dup4\n      swap1\n        /* \"erc3643/erc3643/registry/implementation/TrustedIssuersRegistry.sol\":4702:4745  _claimTopicsToTrustedIssuers[claimTopic][j] */\n      dup2\n      lt\n      tag_90\n      jumpi\n      tag_90\n      tag_84\n      jump\t// in\n    tag_90:\n      0x00\n      swap2\n      dup3\n      mstore\n      0x20\n      swap1\n      swap2\n      keccak256\n      add\n      sload\n      sub(shl(0xa0, 0x01), 0x01)\n      and\n        /* \"erc3643/erc3643/registry/implementation/TrustedIssuersRegistry.sol\":4702:4783  _claimTopicsToTrustedIssuers[claimTopic][j] ==... */\n      sub\n        /* \"erc3643/erc3643/registry/implementation/TrustedIssuersRegistry.sol\":4677:5134  if (... */\n      tag_92\n      jumpi\n        /* \"erc3643/erc3643/registry/implementation/TrustedIssuersRegistry.sol\":4916:4956  _claimTopicsToTrustedIssuers[claimTopic] */\n      0x00\n      dup4\n      dup2\n      mstore\n        /* \"erc3643/erc3643/registry/implementation/TrustedIssuersRegistry.sol\":4916:4944  _claimTopicsToTrustedIssuers */\n      0x67\n        /* \"erc3643/erc3643/registry/implementation/TrustedIssuersRegistry.sol\":4916:4956  _claimTopicsToTrustedIssuers[claimTopic] */\n      0x20\n      mstore\n      0x40\n      swap1\n      keccak256\n        /* \"erc3643/erc3643/registry/implementation/TrustedIssuersRegistry.sol\":4982:4998  topicsLength - 1 */\n      tag_93\n        /* \"erc3643/erc3643/registry/implementation/TrustedIssuersRegistry.sol\":4997:4998  1 */\n      0x01\n        /* \"erc3643/erc3643/registry/implementation/TrustedIssuersRegistry.sol\":4982:4994  topicsLength */\n      dup5\n        /* \"erc3643/erc3643/registry/implementation/TrustedIssuersRegistry.sol\":4982:4998  topicsLength - 1 */\n      tag_94\n      jump\t// in\n    tag_93:\n        /* \"erc3643/erc3643/registry/implementation/TrustedIssuersRegistry.sol\":4916:5020  _claimTopicsToTrustedIssuers[claimTopic][... */\n      dup2\n      sload\n      dup2\n      lt\n      tag_96\n      jumpi\n      tag_96\n      tag_84\n      jump\t// in\n    tag_96:\n      0x00\n      swap2\n      dup3\n      mstore\n      0x20\n      dup1\n      dup4\n      keccak256\n      swap1\n      swap2\n      add\n      sload\n        /* \"erc3643/erc3643/registry/implementation/TrustedIssuersRegistry.sol\":4824:4864  _claimTopicsToTrustedIssuers[claimTopic] */\n      dup6\n      dup4\n      mstore\n        /* \"erc3643/erc3643/registry/implementation/TrustedIssuersRegistry.sol\":4824:4852  _claimTopicsToTrustedIssuers */\n      0x67\n        /* \"erc3643/erc3643/registry/implementation/TrustedIssuersRegistry.sol\":4824:4864  _claimTopicsToTrustedIssuers[claimTopic] */\n      swap1\n      swap2\n      mstore\n      0x40\n      swap1\n      swap2\n      keccak256\n        /* \"erc3643/erc3643/registry/implementation/TrustedIssuersRegistry.sol\":4824:4913  _claimTopicsToTrustedIssuers[claimTopic][... */\n      dup1\n      sload\n      sub(shl(0xa0, 0x01), 0x01)\n        /* \"erc3643/erc3643/registry/implementation/TrustedIssuersRegistry.sol\":4916:5020  _claimTopicsToTrustedIssuers[claimTopic][... */\n      swap1\n      swap3\n      and\n      swap2\n        /* \"erc3643/erc3643/registry/implementation/TrustedIssuersRegistry.sol\":4890:4891  j */\n      dup4\n      swap1\n        /* \"erc3643/erc3643/registry/implementation/TrustedIssuersRegistry.sol\":4824:4913  _claimTopicsToTrustedIssuers[claimTopic][... */\n      dup2\n      lt\n      tag_99\n      jumpi\n      tag_99\n      tag_84\n      jump\t// in\n    tag_99:\n      0x00\n      swap2\n      dup3\n      mstore\n      0x20\n      dup1\n      dup4\n      keccak256\n      swap2\n      swap1\n      swap2\n      add\n        /* \"erc3643/erc3643/registry/implementation/TrustedIssuersRegistry.sol\":4824:5020  _claimTopicsToTrustedIssuers[claimTopic][... */\n      dup1\n      sload\n      not(sub(shl(0xa0, 0x01), 0x01))\n      and\n      sub(shl(0xa0, 0x01), 0x01)\n      swap5\n      swap1\n      swap5\n      and\n      swap4\n      swap1\n      swap4\n      or\n      swap1\n      swap3\n      sstore\n        /* \"erc3643/erc3643/registry/implementation/TrustedIssuersRegistry.sol\":5042:5082  _claimTopicsToTrustedIssuers[claimTopic] */\n      dup5\n      dup2\n      mstore\n        /* \"erc3643/erc3643/registry/implementation/TrustedIssuersRegistry.sol\":5042:5070  _claimTopicsToTrustedIssuers */\n      0x67\n        /* \"erc3643/erc3643/registry/implementation/TrustedIssuersRegistry.sol\":5042:5082  _claimTopicsToTrustedIssuers[claimTopic] */\n      swap1\n      swap2\n      mstore\n      0x40\n      swap1\n      keccak256\n        /* \"erc3643/erc3643/registry/implementation/TrustedIssuersRegistry.sol\":5042:5088  _claimTopicsToTrustedIssuers[claimTopic].pop() */\n      dup1\n      sload\n      dup1\n      tag_102\n      jumpi\n      tag_102\n      tag_103\n      jump\t// in\n    tag_102:\n      0x00\n      dup3\n      dup2\n      mstore\n      0x20\n      swap1\n      keccak256\n      dup2\n      add\n      not(0x00)\n      swap1\n      dup2\n      add\n      dup1\n      sload\n      not(sub(shl(0xa0, 0x01), 0x01))\n      and\n      swap1\n      sstore\n      add\n      swap1\n      sstore\n        /* \"erc3643/erc3643/registry/implementation/TrustedIssuersRegistry.sol\":5110:5115  break */\n      jump(tag_87)\n        /* \"erc3643/erc3643/registry/implementation/TrustedIssuersRegistry.sol\":4677:5134  if (... */\n    tag_92:\n        /* \"erc3643/erc3643/registry/implementation/TrustedIssuersRegistry.sol\":4654:4657  j++ */\n      dup1\n      tag_105\n      dup2\n      tag_106\n      jump\t// in\n    tag_105:\n      swap2\n      pop\n      pop\n        /* \"erc3643/erc3643/registry/implementation/TrustedIssuersRegistry.sol\":4616:5148  for (uint256 j = 0; j < topicsLength; j++) {... */\n      jump(tag_86)\n    tag_87:\n      pop\n        /* \"erc3643/erc3643/registry/implementation/TrustedIssuersRegistry.sol\":4383:5158  {... */\n      pop\n      pop\n        /* \"erc3643/erc3643/registry/implementation/TrustedIssuersRegistry.sol\":4369:4372  i++ */\n      dup1\n      dup1\n      tag_107\n      swap1\n      tag_106\n      jump\t// in\n    tag_107:\n      swap2\n      pop\n      pop\n        /* \"erc3643/erc3643/registry/implementation/TrustedIssuersRegistry.sol\":4249:5158  for (... */\n      jump(tag_79)\n    tag_80:\n      pop\n      sub(shl(0xa0, 0x01), 0x01)\n        /* \"erc3643/erc3643/registry/implementation/TrustedIssuersRegistry.sol\":5167:5217  _trustedIssuerClaimTopics[address(_trustedIssuer)] */\n      dup4\n      and\n      0x00\n      swap1\n      dup2\n      mstore\n        /* \"erc3643/erc3643/registry/implementation/TrustedIssuersRegistry.sol\":5167:5192  _trustedIssuerClaimTopics */\n      0x66\n        /* \"erc3643/erc3643/registry/implementation/TrustedIssuersRegistry.sol\":5167:5217  _trustedIssuerClaimTopics[address(_trustedIssuer)] */\n      0x20\n      mstore\n      0x40\n      swap1\n      keccak256\n        /* \"erc3643/erc3643/registry/implementation/TrustedIssuersRegistry.sol\":5167:5232  _trustedIssuerClaimTopics[address(_trustedIssuer)] = _claimTopics */\n      tag_108\n      swap1\n        /* \"erc3643/erc3643/registry/implementation/TrustedIssuersRegistry.sol\":5220:5232  _claimTopics */\n      dup4\n      dup4\n        /* \"erc3643/erc3643/registry/implementation/TrustedIssuersRegistry.sol\":5167:5232  _trustedIssuerClaimTopics[address(_trustedIssuer)] = _claimTopics */\n      tag_109\n      jump\t// in\n    tag_108:\n      pop\n        /* \"erc3643/erc3643/registry/implementation/TrustedIssuersRegistry.sol\":5247:5256  uint256 i */\n      0x00\n        /* \"erc3643/erc3643/registry/implementation/TrustedIssuersRegistry.sol\":5242:5383  for (uint256 i = 0; i < _claimTopics.length; i++) {... */\n    tag_110:\n        /* \"erc3643/erc3643/registry/implementation/TrustedIssuersRegistry.sol\":5262:5285  i < _claimTopics.length */\n      dup2\n      dup2\n      lt\n        /* \"erc3643/erc3643/registry/implementation/TrustedIssuersRegistry.sol\":5242:5383  for (uint256 i = 0; i < _claimTopics.length; i++) {... */\n      iszero\n      tag_111\n      jumpi\n        /* \"erc3643/erc3643/registry/implementation/TrustedIssuersRegistry.sol\":5306:5334  _claimTopicsToTrustedIssuers */\n      0x67\n        /* \"erc3643/erc3643/registry/implementation/TrustedIssuersRegistry.sol\":5306:5351  _claimTopicsToTrustedIssuers[_claimTopics[i]] */\n      0x00\n        /* \"erc3643/erc3643/registry/implementation/TrustedIssuersRegistry.sol\":5335:5347  _claimTopics */\n      dup5\n      dup5\n        /* \"erc3643/erc3643/registry/implementation/TrustedIssuersRegistry.sol\":5348:5349  i */\n      dup5\n        /* \"erc3643/erc3643/registry/implementation/TrustedIssuersRegistry.sol\":5335:5350  _claimTopics[i] */\n      dup2\n      dup2\n      lt\n      tag_114\n      jumpi\n      tag_114\n      tag_84\n      jump\t// in\n    tag_114:\n      0x20\n      swap1\n      dup2\n      mul\n      swap3\n      swap1\n      swap3\n      add\n      calldataload\n        /* \"erc3643/erc3643/registry/implementation/TrustedIssuersRegistry.sol\":5306:5351  _claimTopicsToTrustedIssuers[_claimTopics[i]] */\n      dup4\n      mstore\n      pop\n      dup2\n      dup2\n      add\n      swap3\n      swap1\n      swap3\n      mstore\n      0x40\n      add\n      0x00\n      swap1\n      dup2\n      keccak256\n        /* \"erc3643/erc3643/registry/implementation/TrustedIssuersRegistry.sol\":5306:5372  _claimTopicsToTrustedIssuers[_claimTopics[i]].push(_trustedIssuer) */\n      dup1\n      sload\n      0x01\n      dup2\n      add\n      dup3\n      sstore\n      swap1\n      dup3\n      mstore\n      swap2\n      swap1\n      keccak256\n      add\n      dup1\n      sload\n      not(sub(shl(0xa0, 0x01), 0x01))\n      and\n      sub(shl(0xa0, 0x01), 0x01)\n      dup7\n      and\n      or\n      swap1\n      sstore\n        /* \"erc3643/erc3643/registry/implementation/TrustedIssuersRegistry.sol\":5287:5290  i++ */\n      dup1\n      tag_116\n      dup2\n      tag_106\n      jump\t// in\n    tag_116:\n      swap2\n      pop\n      pop\n        /* \"erc3643/erc3643/registry/implementation/TrustedIssuersRegistry.sol\":5242:5383  for (uint256 i = 0; i < _claimTopics.length; i++) {... */\n      jump(tag_110)\n    tag_111:\n      pop\n        /* \"erc3643/erc3643/registry/implementation/TrustedIssuersRegistry.sol\":5416:5430  _trustedIssuer */\n      dup3\n      sub(shl(0xa0, 0x01), 0x01)\n        /* \"erc3643/erc3643/registry/implementation/TrustedIssuersRegistry.sol\":5397:5445  ClaimTopicsUpdated(_trustedIssuer, _claimTopics) */\n      and\n      0xec753cfc52044f61676f18a11e500093a9f2b1cd5e4942bc476f2b0438159bcf\n        /* \"erc3643/erc3643/registry/implementation/TrustedIssuersRegistry.sol\":5432:5444  _claimTopics */\n      dup4\n      dup4\n        /* \"erc3643/erc3643/registry/implementation/TrustedIssuersRegistry.sol\":5397:5445  ClaimTopicsUpdated(_trustedIssuer, _claimTopics) */\n      mload(0x40)\n      tag_117\n      swap3\n      swap2\n      swap1\n      tag_118\n      jump\t// in\n    tag_117:\n      mload(0x40)\n      dup1\n      swap2\n      sub\n      swap1\n      log2\n        /* \"erc3643/erc3643/registry/implementation/TrustedIssuersRegistry.sol\":3636:5452  function updateIssuerClaimTopics(... */\n      pop\n      pop\n      pop\n      jump\t// out\n        /* \"erc3643/erc3643/registry/implementation/TrustedIssuersRegistry.sol\":6877:7333  function hasClaimTopic(address _issuer, uint256 _claimTopic)... */\n    tag_23:\n      sub(shl(0xa0, 0x01), 0x01)\n        /* \"erc3643/erc3643/registry/implementation/TrustedIssuersRegistry.sol\":7039:7073  _trustedIssuerClaimTopics[_issuer] */\n      dup3\n      and\n        /* \"erc3643/erc3643/registry/implementation/TrustedIssuersRegistry.sol\":7002:7006  bool */\n      0x00\n        /* \"erc3643/erc3643/registry/implementation/TrustedIssuersRegistry.sol\":7039:7073  _trustedIssuerClaimTopics[_issuer] */\n      swap1\n      dup2\n      mstore\n        /* \"erc3643/erc3643/registry/implementation/TrustedIssuersRegistry.sol\":7039:7064  _trustedIssuerClaimTopics */\n      0x66\n        /* \"erc3643/erc3643/registry/implementation/TrustedIssuersRegistry.sol\":7039:7073  _trustedIssuerClaimTopics[_issuer] */\n      0x20\n      swap1\n      dup2\n      mstore\n      0x40\n      dup1\n      dup4\n      keccak256\n        /* \"erc3643/erc3643/registry/implementation/TrustedIssuersRegistry.sol\":7039:7080  _trustedIssuerClaimTopics[_issuer].length */\n      dup1\n      sload\n        /* \"erc3643/erc3643/registry/implementation/TrustedIssuersRegistry.sol\":7090:7155  uint256[] memory claimTopics = _trustedIssuerClaimTopics[_issuer] */\n      dup3\n      mload\n      dup2\n      dup6\n      mul\n      dup2\n      add\n      dup6\n      add\n      swap1\n      swap4\n      mstore\n      dup1\n      dup4\n      mstore\n        /* \"erc3643/erc3643/registry/implementation/TrustedIssuersRegistry.sol\":7039:7080  _trustedIssuerClaimTopics[_issuer].length */\n      swap3\n        /* \"erc3643/erc3643/registry/implementation/TrustedIssuersRegistry.sol\":7002:7006  bool */\n      dup5\n      swap3\n        /* \"erc3643/erc3643/registry/implementation/TrustedIssuersRegistry.sol\":7090:7155  uint256[] memory claimTopics = _trustedIssuerClaimTopics[_issuer] */\n      swap2\n        /* \"erc3643/erc3643/registry/implementation/TrustedIssuersRegistry.sol\":7039:7073  _trustedIssuerClaimTopics[_issuer] */\n      swap1\n        /* \"erc3643/erc3643/registry/implementation/TrustedIssuersRegistry.sol\":7039:7080  _trustedIssuerClaimTopics[_issuer].length */\n      dup5\n      swap1\n        /* \"erc3643/erc3643/registry/implementation/TrustedIssuersRegistry.sol\":7090:7155  uint256[] memory claimTopics = _trustedIssuerClaimTopics[_issuer] */\n      dup4\n      add\n        /* \"erc3643/erc3643/registry/implementation/TrustedIssuersRegistry.sol\":7039:7073  _trustedIssuerClaimTopics[_issuer] */\n      dup3\n        /* \"erc3643/erc3643/registry/implementation/TrustedIssuersRegistry.sol\":7039:7080  _trustedIssuerClaimTopics[_issuer].length */\n      dup3\n        /* \"erc3643/erc3643/registry/implementation/TrustedIssuersRegistry.sol\":7090:7155  uint256[] memory claimTopics = _trustedIssuerClaimTopics[_issuer] */\n      dup1\n      iszero\n      tag_120\n      jumpi\n      0x20\n      mul\n      dup3\n      add\n      swap2\n      swap1\n      0x00\n      mstore\n      keccak256(0x00, 0x20)\n      swap1\n    tag_121:\n      dup2\n      sload\n      dup2\n      mstore\n      0x20\n      add\n      swap1\n      0x01\n      add\n      swap1\n      dup1\n      dup4\n      gt\n      tag_121\n      jumpi\n    tag_120:\n      pop\n      pop\n      pop\n      pop\n      pop\n      swap1\n      pop\n        /* \"erc3643/erc3643/registry/implementation/TrustedIssuersRegistry.sol\":7170:7179  uint256 i */\n      0x00\n        /* \"erc3643/erc3643/registry/implementation/TrustedIssuersRegistry.sol\":7165:7305  for (uint256 i = 0; i < length; i++) {... */\n    tag_122:\n        /* \"erc3643/erc3643/registry/implementation/TrustedIssuersRegistry.sol\":7189:7195  length */\n      dup3\n        /* \"erc3643/erc3643/registry/implementation/TrustedIssuersRegistry.sol\":7185:7186  i */\n      dup2\n        /* \"erc3643/erc3643/registry/implementation/TrustedIssuersRegistry.sol\":7185:7195  i < length */\n      lt\n        /* \"erc3643/erc3643/registry/implementation/TrustedIssuersRegistry.sol\":7165:7305  for (uint256 i = 0; i < length; i++) {... */\n      iszero\n      tag_123\n      jumpi\n        /* \"erc3643/erc3643/registry/implementation/TrustedIssuersRegistry.sol\":7238:7249  _claimTopic */\n      dup5\n        /* \"erc3643/erc3643/registry/implementation/TrustedIssuersRegistry.sol\":7220:7231  claimTopics */\n      dup3\n        /* \"erc3643/erc3643/registry/implementation/TrustedIssuersRegistry.sol\":7232:7233  i */\n      dup3\n        /* \"erc3643/erc3643/registry/implementation/TrustedIssuersRegistry.sol\":7220:7234  claimTopics[i] */\n      dup2\n      mload\n      dup2\n      lt\n      tag_126\n      jumpi\n      tag_126\n      tag_84\n      jump\t// in\n    tag_126:\n      0x20\n      mul\n      0x20\n      add\n      add\n      mload\n        /* \"erc3643/erc3643/registry/implementation/TrustedIssuersRegistry.sol\":7220:7249  claimTopics[i] == _claimTopic */\n      sub\n        /* \"erc3643/erc3643/registry/implementation/TrustedIssuersRegistry.sol\":7216:7295  if (claimTopics[i] == _claimTopic) {... */\n      tag_127\n      jumpi\n        /* \"erc3643/erc3643/registry/implementation/TrustedIssuersRegistry.sol\":7276:7280  true */\n      0x01\n        /* \"erc3643/erc3643/registry/implementation/TrustedIssuersRegistry.sol\":7269:7280  return true */\n      swap4\n      pop\n      pop\n      pop\n      pop\n      jump(tag_119)\n        /* \"erc3643/erc3643/registry/implementation/TrustedIssuersRegistry.sol\":7216:7295  if (claimTopics[i] == _claimTopic) {... */\n    tag_127:\n        /* \"erc3643/erc3643/registry/implementation/TrustedIssuersRegistry.sol\":7197:7200  i++ */\n      dup1\n      tag_128\n      dup2\n      tag_106\n      jump\t// in\n    tag_128:\n      swap2\n      pop\n      pop\n        /* \"erc3643/erc3643/registry/implementation/TrustedIssuersRegistry.sol\":7165:7305  for (uint256 i = 0; i < length; i++) {... */\n      jump(tag_122)\n    tag_123:\n      pop\n        /* \"erc3643/erc3643/registry/implementation/TrustedIssuersRegistry.sol\":7321:7326  false */\n      0x00\n        /* \"erc3643/erc3643/registry/implementation/TrustedIssuersRegistry.sol\":7314:7326  return false */\n      swap3\n      pop\n      pop\n      pop\n        /* \"erc3643/erc3643/registry/implementation/TrustedIssuersRegistry.sol\":6877:7333  function hasClaimTopic(address _issuer, uint256 _claimTopic)... */\n    tag_119:\n      swap3\n      swap2\n      pop\n      pop\n      jump\t// out\n        /* \"erc3643/erc3643/registry/implementation/TrustedIssuersRegistry.sol\":5792:6007  function getTrustedIssuersForClaimTopic(uint256 claimTopic)... */\n    tag_29:\n        /* \"erc3643/erc3643/registry/implementation/TrustedIssuersRegistry.sol\":5960:6000  _claimTopicsToTrustedIssuers[claimTopic] */\n      0x00\n      dup2\n      dup2\n      mstore\n        /* \"erc3643/erc3643/registry/implementation/TrustedIssuersRegistry.sol\":5960:5988  _claimTopicsToTrustedIssuers */\n      0x67\n        /* \"erc3643/erc3643/registry/implementation/TrustedIssuersRegistry.sol\":5960:6000  _claimTopicsToTrustedIssuers[claimTopic] */\n      0x20\n      swap1\n      dup2\n      mstore\n      0x40\n      swap2\n      dup3\n      swap1\n      keccak256\n        /* \"erc3643/erc3643/registry/implementation/TrustedIssuersRegistry.sol\":5953:6000  return _claimTopicsToTrustedIssuers[claimTopic] */\n      dup1\n      sload\n      dup4\n      mload\n      dup2\n      dup5\n      mul\n      dup2\n      add\n      dup5\n      add\n      swap1\n      swap5\n      mstore\n      dup1\n      dup5\n      mstore\n        /* \"erc3643/erc3643/registry/implementation/TrustedIssuersRegistry.sol\":5916:5937  IClaimIssuer[] memory */\n      0x60\n      swap4\n        /* \"erc3643/erc3643/registry/implementation/TrustedIssuersRegistry.sol\":5953:6000  return _claimTopicsToTrustedIssuers[claimTopic] */\n      swap3\n      dup4\n      add\n        /* \"erc3643/erc3643/registry/implementation/TrustedIssuersRegistry.sol\":5960:6000  _claimTopicsToTrustedIssuers[claimTopic] */\n      dup3\n        /* \"erc3643/erc3643/registry/implementation/TrustedIssuersRegistry.sol\":5953:6000  return _claimTopicsToTrustedIssuers[claimTopic] */\n      dup3\n      dup1\n      iszero\n      tag_130\n      jumpi\n      0x20\n      mul\n      dup3\n      add\n      swap2\n      swap1\n      0x00\n      mstore\n      keccak256(0x00, 0x20)\n      swap1\n    tag_131:\n      dup2\n      sload\n      sub(shl(0xa0, 0x01), 0x01)\n      and\n      dup2\n      mstore\n      0x01\n      swap1\n      swap2\n      add\n      swap1\n      0x20\n      add\n      dup1\n      dup4\n      gt\n      tag_131\n      jumpi\n    tag_130:\n      pop\n      pop\n      pop\n      pop\n      pop\n      swap1\n      pop\n        /* \"erc3643/erc3643/registry/implementation/TrustedIssuersRegistry.sol\":5792:6007  function getTrustedIssuersForClaimTopic(uint256 claimTopic)... */\n      swap2\n      swap1\n      pop\n      jump\t// out\n        /* \"@openzeppelin/contracts-upgradeable/access/OwnableUpgradeable.sol\":2064:2165  function renounceOwnership() public virtual onlyOwner {... */\n    tag_33:\n        /* \"@openzeppelin/contracts-upgradeable/access/OwnableUpgradeable.sol\":1334:1347  _checkOwner() */\n      tag_133\n        /* \"@openzeppelin/contracts-upgradeable/access/OwnableUpgradeable.sol\":1334:1345  _checkOwner */\n      tag_65\n        /* \"@openzeppelin/contracts-upgradeable/access/OwnableUpgradeable.sol\":1334:1347  _checkOwner() */\n      jump\t// in\n    tag_133:\n        /* \"@openzeppelin/contracts-upgradeable/access/OwnableUpgradeable.sol\":2128:2158  _transferOwnership(address(0)) */\n      tag_135\n        /* \"@openzeppelin/contracts-upgradeable/access/OwnableUpgradeable.sol\":2155:2156  0 */\n      0x00\n        /* \"@openzeppelin/contracts-upgradeable/access/OwnableUpgradeable.sol\":2128:2146  _transferOwnership */\n      tag_136\n        /* \"@openzeppelin/contracts-upgradeable/access/OwnableUpgradeable.sol\":2128:2158  _transferOwnership(address(0)) */\n      jump\t// in\n    tag_135:\n        /* \"@openzeppelin/contracts-upgradeable/access/OwnableUpgradeable.sol\":2064:2165  function renounceOwnership() public virtual onlyOwner {... */\n      jump\t// out\n        /* \"erc3643/erc3643/registry/implementation/TrustedIssuersRegistry.sol\":556:1667  function addTrustedIssuer(... */\n    tag_40:\n        /* \"@openzeppelin/contracts-upgradeable/access/OwnableUpgradeable.sol\":1334:1347  _checkOwner() */\n      tag_139\n        /* \"@openzeppelin/contracts-upgradeable/access/OwnableUpgradeable.sol\":1334:1345  _checkOwner */\n      tag_65\n        /* \"@openzeppelin/contracts-upgradeable/access/OwnableUpgradeable.sol\":1334:1347  _checkOwner() */\n      jump\t// in\n    tag_139:\n      sub(shl(0xa0, 0x01), 0x01)\n        /* \"erc3643/erc3643/registry/implementation/TrustedIssuersRegistry.sol\":725:762  address(_trustedIssuer) != address(0) */\n      dup4\n      and\n        /* \"erc3643/erc3643/registry/implementation/TrustedIssuersRegistry.sol\":704:819  require(... */\n      tag_141\n      jumpi\n      mload(0x40)\n      shl(0xe5, 0x461bcd)\n      dup2\n      mstore\n      0x04\n      add\n      tag_68\n      swap1\n      tag_69\n      jump\t// in\n    tag_141:\n      sub(shl(0xa0, 0x01), 0x01)\n        /* \"erc3643/erc3643/registry/implementation/TrustedIssuersRegistry.sol\":850:900  _trustedIssuerClaimTopics[address(_trustedIssuer)] */\n      dup4\n      and\n      0x00\n      swap1\n      dup2\n      mstore\n        /* \"erc3643/erc3643/registry/implementation/TrustedIssuersRegistry.sol\":850:875  _trustedIssuerClaimTopics */\n      0x66\n        /* \"erc3643/erc3643/registry/implementation/TrustedIssuersRegistry.sol\":850:900  _trustedIssuerClaimTopics[address(_trustedIssuer)] */\n      0x20\n      mstore\n      0x40\n      swap1\n      keccak256\n        /* \"erc3643/erc3643/registry/implementation/TrustedIssuersRegistry.sol\":850:907  _trustedIssuerClaimTopics[address(_trustedIssuer)].length */\n      sload\n        /* \"erc3643/erc3643/registry/implementation/TrustedIssuersRegistry.sol\":850:912  _trustedIssuerClaimTopics[address(_trustedIssuer)].length == 0 */\n      iszero\n        /* \"erc3643/erc3643/registry/implementation/TrustedIssuersRegistry.sol\":829:967  require(... */\n      tag_143\n      jumpi\n      mload(0x40)\n      shl(0xe5, 0x461bcd)\n      dup2\n      mstore\n        /* \"#utility.yul\":6532:6534   */\n      0x20\n        /* \"erc3643/erc3643/registry/implementation/TrustedIssuersRegistry.sol\":829:967  require(... */\n      0x04\n      dup3\n      add\n        /* \"#utility.yul\":6514:6535   */\n      mstore\n        /* \"#utility.yul\":6571:6573   */\n      0x1d\n        /* \"#utility.yul\":6551:6569   */\n      0x24\n      dup3\n      add\n        /* \"#utility.yul\":6544:6574   */\n      mstore\n        /* \"#utility.yul\":6610:6641   */\n      0x747275737465642049737375657220616c726561647920657869737473000000\n        /* \"#utility.yul\":6590:6608   */\n      0x44\n      dup3\n      add\n        /* \"#utility.yul\":6583:6642   */\n      mstore\n        /* \"#utility.yul\":6659:6677   */\n      0x64\n      add\n        /* \"erc3643/erc3643/registry/implementation/TrustedIssuersRegistry.sol\":829:967  require(... */\n      tag_68\n        /* \"#utility.yul\":6330:6683   */\n      jump\n        /* \"erc3643/erc3643/registry/implementation/TrustedIssuersRegistry.sol\":829:967  require(... */\n    tag_143:\n        /* \"erc3643/erc3643/registry/implementation/TrustedIssuersRegistry.sol\":998:1021  _claimTopics.length > 0 */\n      dup1\n        /* \"erc3643/erc3643/registry/implementation/TrustedIssuersRegistry.sol\":977:1083  require(... */\n      tag_146\n      jumpi\n      mload(0x40)\n      shl(0xe5, 0x461bcd)\n      dup2\n      mstore\n        /* \"#utility.yul\":6890:6892   */\n      0x20\n        /* \"erc3643/erc3643/registry/implementation/TrustedIssuersRegistry.sol\":977:1083  require(... */\n      0x04\n      dup3\n      add\n        /* \"#utility.yul\":6872:6893   */\n      mstore\n        /* \"#utility.yul\":6929:6931   */\n      0x24\n        /* \"#utility.yul\":6909:6927   */\n      dup1\n      dup3\n      add\n        /* \"#utility.yul\":6902:6932   */\n      mstore\n        /* \"#utility.yul\":6968:7002   */\n      0x7472757374656420636c61696d20746f706963732063616e6e6f742062652065\n        /* \"#utility.yul\":6948:6966   */\n      0x44\n      dup3\n      add\n        /* \"#utility.yul\":6941:7003   */\n      mstore\n      shl(0xe0, 0x6d707479)\n        /* \"#utility.yul\":7019:7037   */\n      0x64\n      dup3\n      add\n        /* \"#utility.yul\":7012:7046   */\n      mstore\n        /* \"#utility.yul\":7063:7082   */\n      0x84\n      add\n        /* \"erc3643/erc3643/registry/implementation/TrustedIssuersRegistry.sol\":977:1083  require(... */\n      tag_68\n        /* \"#utility.yul\":6688:7088   */\n      jump\n        /* \"erc3643/erc3643/registry/implementation/TrustedIssuersRegistry.sol\":977:1083  require(... */\n    tag_146:\n        /* \"erc3643/erc3643/registry/implementation/TrustedIssuersRegistry.sol\":1137:1139  15 */\n      0x0f\n        /* \"erc3643/erc3643/registry/implementation/TrustedIssuersRegistry.sol\":1114:1139  _claimTopics.length <= 15 */\n      dup2\n      gt\n      iszero\n        /* \"erc3643/erc3643/registry/implementation/TrustedIssuersRegistry.sol\":1093:1202  require(... */\n      tag_149\n      jumpi\n      mload(0x40)\n      shl(0xe5, 0x461bcd)\n      dup2\n      mstore\n      0x04\n      add\n      tag_68\n      swap1\n      tag_75\n      jump\t// in\n    tag_149:\n        /* \"erc3643/erc3643/registry/implementation/TrustedIssuersRegistry.sol\":1233:1248  _trustedIssuers */\n      0x65\n        /* \"erc3643/erc3643/registry/implementation/TrustedIssuersRegistry.sol\":1233:1255  _trustedIssuers.length */\n      sload\n        /* \"erc3643/erc3643/registry/implementation/TrustedIssuersRegistry.sol\":1258:1260  50 */\n      0x32\n      gt\n        /* \"erc3643/erc3643/registry/implementation/TrustedIssuersRegistry.sol\":1212:1326  require(... */\n      tag_151\n      jumpi\n      mload(0x40)\n      shl(0xe5, 0x461bcd)\n      dup2\n      mstore\n        /* \"#utility.yul\":7295:7297   */\n      0x20\n        /* \"erc3643/erc3643/registry/implementation/TrustedIssuersRegistry.sol\":1212:1326  require(... */\n      0x04\n      dup3\n      add\n        /* \"#utility.yul\":7277:7298   */\n      mstore\n        /* \"#utility.yul\":7334:7336   */\n      0x28\n        /* \"#utility.yul\":7314:7332   */\n      0x24\n      dup3\n      add\n        /* \"#utility.yul\":7307:7337   */\n      mstore\n        /* \"#utility.yul\":7373:7407   */\n      0x63616e6e6f742068617665206d6f7265207468616e2035302074727573746564\n        /* \"#utility.yul\":7353:7371   */\n      0x44\n      dup3\n      add\n        /* \"#utility.yul\":7346:7408   */\n      mstore\n      shl(0xc0, 0x2069737375657273)\n        /* \"#utility.yul\":7424:7442   */\n      0x64\n      dup3\n      add\n        /* \"#utility.yul\":7417:7455   */\n      mstore\n        /* \"#utility.yul\":7472:7491   */\n      0x84\n      add\n        /* \"erc3643/erc3643/registry/implementation/TrustedIssuersRegistry.sol\":1212:1326  require(... */\n      tag_68\n        /* \"#utility.yul\":7093:7497   */\n      jump\n        /* \"erc3643/erc3643/registry/implementation/TrustedIssuersRegistry.sol\":1212:1326  require(... */\n    tag_151:\n        /* \"erc3643/erc3643/registry/implementation/TrustedIssuersRegistry.sol\":1336:1351  _trustedIssuers */\n      0x65\n        /* \"erc3643/erc3643/registry/implementation/TrustedIssuersRegistry.sol\":1336:1372  _trustedIssuers.push(_trustedIssuer) */\n      dup1\n      sload\n      0x01\n      dup2\n      add\n      swap1\n      swap2\n      sstore\n      0x8ff97419363ffd7000167f130ef7168fbea05faf9251824ca5043f113cc6a7c7\n      add\n      dup1\n      sload\n      not(sub(shl(0xa0, 0x01), 0x01))\n      and\n      sub(shl(0xa0, 0x01), 0x01)\n      dup6\n      and\n      swap1\n      dup2\n      or\n      swap1\n      swap2\n      sstore\n      0x00\n        /* \"erc3643/erc3643/registry/implementation/TrustedIssuersRegistry.sol\":1382:1432  _trustedIssuerClaimTopics[address(_trustedIssuer)] */\n      swap1\n      dup2\n      mstore\n        /* \"erc3643/erc3643/registry/implementation/TrustedIssuersRegistry.sol\":1382:1407  _trustedIssuerClaimTopics */\n      0x66\n        /* \"erc3643/erc3643/registry/implementation/TrustedIssuersRegistry.sol\":1336:1372  _trustedIssuers.push(_trustedIssuer) */\n      0x20\n        /* \"erc3643/erc3643/registry/implementation/TrustedIssuersRegistry.sol\":1382:1432  _trustedIssuerClaimTopics[address(_trustedIssuer)] */\n      mstore\n      0x40\n      swap1\n      keccak256\n        /* \"erc3643/erc3643/registry/implementation/TrustedIssuersRegistry.sol\":1382:1447  _trustedIssuerClaimTopics[address(_trustedIssuer)] = _claimTopics */\n      tag_155\n      swap1\n        /* \"erc3643/erc3643/registry/implementation/TrustedIssuersRegistry.sol\":1435:1447  _claimTopics */\n      dup4\n      dup4\n        /* \"erc3643/erc3643/registry/implementation/TrustedIssuersRegistry.sol\":1382:1447  _trustedIssuerClaimTopics[address(_trustedIssuer)] = _claimTopics */\n      tag_109\n      jump\t// in\n    tag_155:\n      pop\n        /* \"erc3643/erc3643/registry/implementation/TrustedIssuersRegistry.sol\":1462:1471  uint256 i */\n      0x00\n        /* \"erc3643/erc3643/registry/implementation/TrustedIssuersRegistry.sol\":1457:1598  for (uint256 i = 0; i < _claimTopics.length; i++) {... */\n    tag_156:\n        /* \"erc3643/erc3643/registry/implementation/TrustedIssuersRegistry.sol\":1477:1500  i < _claimTopics.length */\n      dup2\n      dup2\n      lt\n        /* \"erc3643/erc3643/registry/implementation/TrustedIssuersRegistry.sol\":1457:1598  for (uint256 i = 0; i < _claimTopics.length; i++) {... */\n      iszero\n      tag_157\n      jumpi\n        /* \"erc3643/erc3643/registry/implementation/TrustedIssuersRegistry.sol\":1521:1549  _claimTopicsToTrustedIssuers */\n      0x67\n        /* \"erc3643/erc3643/registry/implementation/TrustedIssuersRegistry.sol\":1521:1566  _claimTopicsToTrustedIssuers[_claimTopics[i]] */\n      0x00\n        /* \"erc3643/erc3643/registry/implementation/TrustedIssuersRegistry.sol\":1550:1562  _claimTopics */\n      dup5\n      dup5\n        /* \"erc3643/erc3643/registry/implementation/TrustedIssuersRegistry.sol\":1563:1564  i */\n      dup5\n        /* \"erc3643/erc3643/registry/implementation/TrustedIssuersRegistry.sol\":1550:1565  _claimTopics[i] */\n      dup2\n      dup2\n      lt\n      tag_160\n      jumpi\n      tag_160\n      tag_84\n      jump\t// in\n    tag_160:\n      0x20\n      swap1\n      dup2\n      mul\n      swap3\n      swap1\n      swap3\n      add\n      calldataload\n        /* \"erc3643/erc3643/registry/implementation/TrustedIssuersRegistry.sol\":1521:1566  _claimTopicsToTrustedIssuers[_claimTopics[i]] */\n      dup4\n      mstore\n      pop\n      dup2\n      dup2\n      add\n      swap3\n      swap1\n      swap3\n      mstore\n      0x40\n      add\n      0x00\n      swap1\n      dup2\n      keccak256\n        /* \"erc3643/erc3643/registry/implementation/TrustedIssuersRegistry.sol\":1521:1587  _claimTopicsToTrustedIssuers[_claimTopics[i]].push(_trustedIssuer) */\n      dup1\n      sload\n      0x01\n      dup2\n      add\n      dup3\n      sstore\n      swap1\n      dup3\n      mstore\n      swap2\n      swap1\n      keccak256\n      add\n      dup1\n      sload\n      not(sub(shl(0xa0, 0x01), 0x01))\n      and\n      sub(shl(0xa0, 0x01), 0x01)\n      dup7\n      and\n      or\n      swap1\n      sstore\n        /* \"erc3643/erc3643/registry/implementation/TrustedIssuersRegistry.sol\":1502:1505  i++ */\n      dup1\n      tag_162\n      dup2\n      tag_106\n      jump\t// in\n    tag_162:\n      swap2\n      pop\n      pop\n        /* \"erc3643/erc3643/registry/implementation/TrustedIssuersRegistry.sol\":1457:1598  for (uint256 i = 0; i < _claimTopics.length; i++) {... */\n      jump(tag_156)\n    tag_157:\n      pop\n        /* \"erc3643/erc3643/registry/implementation/TrustedIssuersRegistry.sol\":1631:1645  _trustedIssuer */\n      dup3\n      sub(shl(0xa0, 0x01), 0x01)\n        /* \"erc3643/erc3643/registry/implementation/TrustedIssuersRegistry.sol\":1612:1660  TrustedIssuerAdded(_trustedIssuer, _claimTopics) */\n      and\n      0xfedc33fd34859594822c0ff6f3f4f9fc279cc6d5cae53068f706a088e4500872\n        /* \"erc3643/erc3643/registry/implementation/TrustedIssuersRegistry.sol\":1647:1659  _claimTopics */\n      dup4\n      dup4\n        /* \"erc3643/erc3643/registry/implementation/TrustedIssuersRegistry.sol\":1612:1660  TrustedIssuerAdded(_trustedIssuer, _claimTopics) */\n      mload(0x40)\n      tag_117\n      swap3\n      swap2\n      swap1\n      tag_118\n      jump\t// in\n        /* \"erc3643/erc3643/registry/implementation/TrustedIssuersRegistry.sol\":1753:3546  function removeTrustedIssuer(IClaimIssuer _trustedIssuer)... */\n    tag_44:\n        /* \"@openzeppelin/contracts-upgradeable/access/OwnableUpgradeable.sol\":1334:1347  _checkOwner() */\n      tag_165\n        /* \"@openzeppelin/contracts-upgradeable/access/OwnableUpgradeable.sol\":1334:1345  _checkOwner */\n      tag_65\n        /* \"@openzeppelin/contracts-upgradeable/access/OwnableUpgradeable.sol\":1334:1347  _checkOwner() */\n      jump\t// in\n    tag_165:\n      sub(shl(0xa0, 0x01), 0x01)\n        /* \"erc3643/erc3643/registry/implementation/TrustedIssuersRegistry.sol\":1898:1935  address(_trustedIssuer) != address(0) */\n      dup2\n      and\n        /* \"erc3643/erc3643/registry/implementation/TrustedIssuersRegistry.sol\":1877:1992  require(... */\n      tag_167\n      jumpi\n      mload(0x40)\n      shl(0xe5, 0x461bcd)\n      dup2\n      mstore\n      0x04\n      add\n      tag_68\n      swap1\n      tag_69\n      jump\t// in\n    tag_167:\n      sub(shl(0xa0, 0x01), 0x01)\n        /* \"erc3643/erc3643/registry/implementation/TrustedIssuersRegistry.sol\":2023:2073  _trustedIssuerClaimTopics[address(_trustedIssuer)] */\n      dup2\n      and\n      0x00\n      swap1\n      dup2\n      mstore\n        /* \"erc3643/erc3643/registry/implementation/TrustedIssuersRegistry.sol\":2023:2048  _trustedIssuerClaimTopics */\n      0x66\n        /* \"erc3643/erc3643/registry/implementation/TrustedIssuersRegistry.sol\":2023:2073  _trustedIssuerClaimTopics[address(_trustedIssuer)] */\n      0x20\n      mstore\n      0x40\n      dup2\n      keccak256\n        /* \"erc3643/erc3643/registry/implementation/TrustedIssuersRegistry.sol\":2023:2080  _trustedIssuerClaimTopics[address(_trustedIssuer)].length */\n      sload\n        /* \"erc3643/erc3643/registry/implementation/TrustedIssuersRegistry.sol\":2023:2085  _trustedIssuerClaimTopics[address(_trustedIssuer)].length != 0 */\n      swap1\n      sub\n        /* \"erc3643/erc3643/registry/implementation/TrustedIssuersRegistry.sol\":2002:2131  require(... */\n      tag_169\n      jumpi\n      mload(0x40)\n      shl(0xe5, 0x461bcd)\n      dup2\n      mstore\n        /* \"#utility.yul\":4303:4305   */\n      0x20\n        /* \"erc3643/erc3643/registry/implementation/TrustedIssuersRegistry.sol\":2002:2131  require(... */\n      0x04\n      dup3\n      add\n        /* \"#utility.yul\":4285:4306   */\n      mstore\n        /* \"#utility.yul\":4342:4344   */\n      0x14\n        /* \"#utility.yul\":4322:4340   */\n      0x24\n      dup3\n      add\n        /* \"#utility.yul\":4315:4345   */\n      mstore\n      shl(0x61, 0x2727aa1030903a393ab9ba32b21034b9b9bab2b9)\n        /* \"#utility.yul\":4361:4379   */\n      0x44\n      dup3\n      add\n        /* \"#utility.yul\":4354:4404   */\n      mstore\n        /* \"#utility.yul\":4421:4439   */\n      0x64\n      add\n        /* \"erc3643/erc3643/registry/implementation/TrustedIssuersRegistry.sol\":2002:2131  require(... */\n      tag_68\n        /* \"#utility.yul\":4101:4445   */\n      jump\n        /* \"erc3643/erc3643/registry/implementation/TrustedIssuersRegistry.sol\":2002:2131  require(... */\n    tag_169:\n        /* \"erc3643/erc3643/registry/implementation/TrustedIssuersRegistry.sol\":2158:2173  _trustedIssuers */\n      0x65\n        /* \"erc3643/erc3643/registry/implementation/TrustedIssuersRegistry.sol\":2158:2180  _trustedIssuers.length */\n      sload\n        /* \"erc3643/erc3643/registry/implementation/TrustedIssuersRegistry.sol\":2141:2155  uint256 length */\n      0x00\n        /* \"erc3643/erc3643/registry/implementation/TrustedIssuersRegistry.sol\":2190:2436  for (uint256 i = 0; i < length; i++) {... */\n    tag_171:\n        /* \"erc3643/erc3643/registry/implementation/TrustedIssuersRegistry.sol\":2214:2220  length */\n      dup2\n        /* \"erc3643/erc3643/registry/implementation/TrustedIssuersRegistry.sol\":2210:2211  i */\n      dup2\n        /* \"erc3643/erc3643/registry/implementation/TrustedIssuersRegistry.sol\":2210:2220  i < length */\n      lt\n        /* \"erc3643/erc3643/registry/implementation/TrustedIssuersRegistry.sol\":2190:2436  for (uint256 i = 0; i < length; i++) {... */\n      iszero\n      tag_172\n      jumpi\n        /* \"erc3643/erc3643/registry/implementation/TrustedIssuersRegistry.sol\":2267:2281  _trustedIssuer */\n      dup3\n      sub(shl(0xa0, 0x01), 0x01)\n        /* \"erc3643/erc3643/registry/implementation/TrustedIssuersRegistry.sol\":2245:2281  _trustedIssuers[i] == _trustedIssuer */\n      and\n        /* \"erc3643/erc3643/registry/implementation/TrustedIssuersRegistry.sol\":2245:2260  _trustedIssuers */\n      0x65\n        /* \"erc3643/erc3643/registry/implementation/TrustedIssuersRegistry.sol\":2261:2262  i */\n      dup3\n        /* \"erc3643/erc3643/registry/implementation/TrustedIssuersRegistry.sol\":2245:2263  _trustedIssuers[i] */\n      dup2\n      sload\n      dup2\n      lt\n      tag_175\n      jumpi\n      tag_175\n      tag_84\n      jump\t// in\n    tag_175:\n      0x00\n      swap2\n      dup3\n      mstore\n      0x20\n      swap1\n      swap2\n      keccak256\n      add\n      sload\n      sub(shl(0xa0, 0x01), 0x01)\n      and\n        /* \"erc3643/erc3643/registry/implementation/TrustedIssuersRegistry.sol\":2245:2281  _trustedIssuers[i] == _trustedIssuer */\n      sub\n        /* \"erc3643/erc3643/registry/implementation/TrustedIssuersRegistry.sol\":2241:2426  if (_trustedIssuers[i] == _trustedIssuer) {... */\n      tag_177\n      jumpi\n        /* \"erc3643/erc3643/registry/implementation/TrustedIssuersRegistry.sol\":2322:2337  _trustedIssuers */\n      0x65\n        /* \"erc3643/erc3643/registry/implementation/TrustedIssuersRegistry.sol\":2338:2348  length - 1 */\n      tag_178\n        /* \"erc3643/erc3643/registry/implementation/TrustedIssuersRegistry.sol\":2347:2348  1 */\n      0x01\n        /* \"erc3643/erc3643/registry/implementation/TrustedIssuersRegistry.sol\":2338:2344  length */\n      dup5\n        /* \"erc3643/erc3643/registry/implementation/TrustedIssuersRegistry.sol\":2338:2348  length - 1 */\n      tag_94\n      jump\t// in\n    tag_178:\n        /* \"erc3643/erc3643/registry/implementation/TrustedIssuersRegistry.sol\":2322:2349  _trustedIssuers[length - 1] */\n      dup2\n      sload\n      dup2\n      lt\n      tag_180\n      jumpi\n      tag_180\n      tag_84\n      jump\t// in\n    tag_180:\n      0x00\n      swap2\n      dup3\n      mstore\n      0x20\n      swap1\n      swap2\n      keccak256\n      add\n      sload\n        /* \"erc3643/erc3643/registry/implementation/TrustedIssuersRegistry.sol\":2301:2316  _trustedIssuers */\n      0x65\n        /* \"erc3643/erc3643/registry/implementation/TrustedIssuersRegistry.sol\":2301:2319  _trustedIssuers[i] */\n      dup1\n      sload\n      sub(shl(0xa0, 0x01), 0x01)\n        /* \"erc3643/erc3643/registry/implementation/TrustedIssuersRegistry.sol\":2322:2349  _trustedIssuers[length - 1] */\n      swap1\n      swap3\n      and\n      swap2\n        /* \"erc3643/erc3643/registry/implementation/TrustedIssuersRegistry.sol\":2317:2318  i */\n      dup4\n      swap1\n        /* \"erc3643/erc3643/registry/implementation/TrustedIssuersRegistry.sol\":2301:2319  _trustedIssuers[i] */\n      dup2\n      lt\n      tag_183\n      jumpi\n      tag_183\n      tag_84\n      jump\t// in\n    tag_183:\n      swap1\n      0x00\n      mstore\n      keccak256(0x00, 0x20)\n      add\n      0x00\n        /* \"erc3643/erc3643/registry/implementation/TrustedIssuersRegistry.sol\":2301:2349  _trustedIssuers[i] = _trustedIssuers[length - 1] */\n      0x0100\n      exp\n      dup2\n      sload\n      dup2\n      sub(shl(0xa0, 0x01), 0x01)\n      mul\n      not\n      and\n      swap1\n      dup4\n      sub(shl(0xa0, 0x01), 0x01)\n      and\n      mul\n      or\n      swap1\n      sstore\n      pop\n        /* \"erc3643/erc3643/registry/implementation/TrustedIssuersRegistry.sol\":2367:2382  _trustedIssuers */\n      0x65\n        /* \"erc3643/erc3643/registry/implementation/TrustedIssuersRegistry.sol\":2367:2388  _trustedIssuers.pop() */\n      dup1\n      sload\n      dup1\n      tag_186\n      jumpi\n      tag_186\n      tag_103\n      jump\t// in\n    tag_186:\n      0x00\n      dup3\n      dup2\n      mstore\n      0x20\n      swap1\n      keccak256\n      dup2\n      add\n      not(0x00)\n      swap1\n      dup2\n      add\n      dup1\n      sload\n      not(sub(shl(0xa0, 0x01), 0x01))\n      and\n      swap1\n      sstore\n      add\n      swap1\n      sstore\n        /* \"erc3643/erc3643/registry/implementation/TrustedIssuersRegistry.sol\":2406:2411  break */\n      jump(tag_172)\n        /* \"erc3643/erc3643/registry/implementation/TrustedIssuersRegistry.sol\":2241:2426  if (_trustedIssuers[i] == _trustedIssuer) {... */\n    tag_177:\n        /* \"erc3643/erc3643/registry/implementation/TrustedIssuersRegistry.sol\":2222:2225  i++ */\n      dup1\n      tag_188\n      dup2\n      tag_106\n      jump\t// in\n    tag_188:\n      swap2\n      pop\n      pop\n        /* \"erc3643/erc3643/registry/implementation/TrustedIssuersRegistry.sol\":2190:2436  for (uint256 i = 0; i < length; i++) {... */\n      jump(tag_171)\n    tag_172:\n      pop\n        /* \"erc3643/erc3643/registry/implementation/TrustedIssuersRegistry.sol\":2463:2486  uint256 claimTopicIndex */\n      0x00\n        /* \"erc3643/erc3643/registry/implementation/TrustedIssuersRegistry.sol\":2445:3422  for (... */\n    tag_189:\n      sub(shl(0xa0, 0x01), 0x01)\n        /* \"erc3643/erc3643/registry/implementation/TrustedIssuersRegistry.sol\":2534:2584  _trustedIssuerClaimTopics[address(_trustedIssuer)] */\n      dup4\n      and\n      0x00\n      swap1\n      dup2\n      mstore\n        /* \"erc3643/erc3643/registry/implementation/TrustedIssuersRegistry.sol\":2534:2559  _trustedIssuerClaimTopics */\n      0x66\n        /* \"erc3643/erc3643/registry/implementation/TrustedIssuersRegistry.sol\":2534:2584  _trustedIssuerClaimTopics[address(_trustedIssuer)] */\n      0x20\n      mstore\n      0x40\n      swap1\n      keccak256\n        /* \"erc3643/erc3643/registry/implementation/TrustedIssuersRegistry.sol\":2534:2591  _trustedIssuerClaimTopics[address(_trustedIssuer)].length */\n      sload\n        /* \"erc3643/erc3643/registry/implementation/TrustedIssuersRegistry.sol\":2504:2591  claimTopicIndex <... */\n      dup2\n      lt\n        /* \"erc3643/erc3643/registry/implementation/TrustedIssuersRegistry.sol\":2445:3422  for (... */\n      iszero\n      tag_190\n      jumpi\n      sub(shl(0xa0, 0x01), 0x01)\n        /* \"erc3643/erc3643/registry/implementation/TrustedIssuersRegistry.sol\":2668:2748  _trustedIssuerClaimTopics[... */\n      dup4\n      and\n        /* \"erc3643/erc3643/registry/implementation/TrustedIssuersRegistry.sol\":2647:2665  uint256 claimTopic */\n      0x00\n        /* \"erc3643/erc3643/registry/implementation/TrustedIssuersRegistry.sol\":2668:2748  _trustedIssuerClaimTopics[... */\n      swap1\n      dup2\n      mstore\n        /* \"erc3643/erc3643/registry/implementation/TrustedIssuersRegistry.sol\":2668:2693  _trustedIssuerClaimTopics */\n      0x66\n        /* \"erc3643/erc3643/registry/implementation/TrustedIssuersRegistry.sol\":2668:2748  _trustedIssuerClaimTopics[... */\n      0x20\n      mstore\n      0x40\n      dup2\n      keccak256\n        /* \"erc3643/erc3643/registry/implementation/TrustedIssuersRegistry.sol\":2668:2765  _trustedIssuerClaimTopics[... */\n      dup1\n      sload\n        /* \"erc3643/erc3643/registry/implementation/TrustedIssuersRegistry.sol\":2749:2764  claimTopicIndex */\n      dup4\n      swap1\n        /* \"erc3643/erc3643/registry/implementation/TrustedIssuersRegistry.sol\":2668:2765  _trustedIssuerClaimTopics[... */\n      dup2\n      lt\n      tag_193\n      jumpi\n      tag_193\n      tag_84\n      jump\t// in\n    tag_193:\n      0x00\n      swap2\n      dup3\n      mstore\n      0x20\n      dup1\n      dup4\n      keccak256\n      swap1\n      swap2\n      add\n      sload\n        /* \"erc3643/erc3643/registry/implementation/TrustedIssuersRegistry.sol\":2802:2842  _claimTopicsToTrustedIssuers[claimTopic] */\n      dup1\n      dup4\n      mstore\n        /* \"erc3643/erc3643/registry/implementation/TrustedIssuersRegistry.sol\":2802:2830  _claimTopicsToTrustedIssuers */\n      0x67\n        /* \"erc3643/erc3643/registry/implementation/TrustedIssuersRegistry.sol\":2802:2842  _claimTopicsToTrustedIssuers[claimTopic] */\n      swap1\n      swap2\n      mstore\n      0x40\n      dup3\n      keccak256\n        /* \"erc3643/erc3643/registry/implementation/TrustedIssuersRegistry.sol\":2802:2866  _claimTopicsToTrustedIssuers[claimTopic]... */\n      sload\n        /* \"erc3643/erc3643/registry/implementation/TrustedIssuersRegistry.sol\":2668:2765  _trustedIssuerClaimTopics[... */\n      swap1\n      swap3\n      pop\n        /* \"erc3643/erc3643/registry/implementation/TrustedIssuersRegistry.sol\":2802:2866  _claimTopicsToTrustedIssuers[claimTopic]... */\n      swap1\n        /* \"erc3643/erc3643/registry/implementation/TrustedIssuersRegistry.sol\":2880:3412  for (uint256 i = 0; i < topicsLength; i++) {... */\n    tag_195:\n        /* \"erc3643/erc3643/registry/implementation/TrustedIssuersRegistry.sol\":2904:2916  topicsLength */\n      dup2\n        /* \"erc3643/erc3643/registry/implementation/TrustedIssuersRegistry.sol\":2900:2901  i */\n      dup2\n        /* \"erc3643/erc3643/registry/implementation/TrustedIssuersRegistry.sol\":2900:2916  i < topicsLength */\n      lt\n        /* \"erc3643/erc3643/registry/implementation/TrustedIssuersRegistry.sol\":2880:3412  for (uint256 i = 0; i < topicsLength; i++) {... */\n      iszero\n      tag_196\n      jumpi\n        /* \"erc3643/erc3643/registry/implementation/TrustedIssuersRegistry.sol\":2966:3006  _claimTopicsToTrustedIssuers[claimTopic] */\n      0x00\n      dup4\n      dup2\n      mstore\n        /* \"erc3643/erc3643/registry/implementation/TrustedIssuersRegistry.sol\":2966:2994  _claimTopicsToTrustedIssuers */\n      0x67\n        /* \"erc3643/erc3643/registry/implementation/TrustedIssuersRegistry.sol\":2966:3006  _claimTopicsToTrustedIssuers[claimTopic] */\n      0x20\n      mstore\n      0x40\n      swap1\n      keccak256\n        /* \"erc3643/erc3643/registry/implementation/TrustedIssuersRegistry.sol\":2966:3009  _claimTopicsToTrustedIssuers[claimTopic][i] */\n      dup1\n      sload\n      sub(shl(0xa0, 0x01), 0x01)\n        /* \"erc3643/erc3643/registry/implementation/TrustedIssuersRegistry.sol\":2966:3047  _claimTopicsToTrustedIssuers[claimTopic][i] ==... */\n      dup9\n      and\n      swap2\n        /* \"erc3643/erc3643/registry/implementation/TrustedIssuersRegistry.sol\":2966:3006  _claimTopicsToTrustedIssuers[claimTopic] */\n      swap1\n        /* \"erc3643/erc3643/registry/implementation/TrustedIssuersRegistry.sol\":3007:3008  i */\n      dup4\n      swap1\n        /* \"erc3643/erc3643/registry/implementation/TrustedIssuersRegistry.sol\":2966:3009  _claimTopicsToTrustedIssuers[claimTopic][i] */\n      dup2\n      lt\n      tag_199\n      jumpi\n      tag_199\n      tag_84\n      jump\t// in\n    tag_199:\n      0x00\n      swap2\n      dup3\n      mstore\n      0x20\n      swap1\n      swap2\n      keccak256\n      add\n      sload\n      sub(shl(0xa0, 0x01), 0x01)\n      and\n        /* \"erc3643/erc3643/registry/implementation/TrustedIssuersRegistry.sol\":2966:3047  _claimTopicsToTrustedIssuers[claimTopic][i] ==... */\n      sub\n        /* \"erc3643/erc3643/registry/implementation/TrustedIssuersRegistry.sol\":2941:3398  if (... */\n      tag_201\n      jumpi\n        /* \"erc3643/erc3643/registry/implementation/TrustedIssuersRegistry.sol\":3180:3220  _claimTopicsToTrustedIssuers[claimTopic] */\n      0x00\n      dup4\n      dup2\n      mstore\n        /* \"erc3643/erc3643/registry/implementation/TrustedIssuersRegistry.sol\":3180:3208  _claimTopicsToTrustedIssuers */\n      0x67\n        /* \"erc3643/erc3643/registry/implementation/TrustedIssuersRegistry.sol\":3180:3220  _claimTopicsToTrustedIssuers[claimTopic] */\n      0x20\n      mstore\n      0x40\n      swap1\n      keccak256\n        /* \"erc3643/erc3643/registry/implementation/TrustedIssuersRegistry.sol\":3246:3262  topicsLength - 1 */\n      tag_202\n        /* \"erc3643/erc3643/registry/implementation/TrustedIssuersRegistry.sol\":3261:3262  1 */\n      0x01\n        /* \"erc3643/erc3643/registry/implementation/TrustedIssuersRegistry.sol\":3246:3258  topicsLength */\n      dup5\n        /* \"erc3643/erc3643/registry/implementation/TrustedIssuersRegistry.sol\":3246:3262  topicsLength - 1 */\n      tag_94\n      jump\t// in\n    tag_202:\n        /* \"erc3643/erc3643/registry/implementation/TrustedIssuersRegistry.sol\":3180:3284  _claimTopicsToTrustedIssuers[claimTopic][... */\n      dup2\n      sload\n      dup2\n      lt\n      tag_204\n      jumpi\n      tag_204\n      tag_84\n      jump\t// in\n    tag_204:\n      0x00\n      swap2\n      dup3\n      mstore\n      0x20\n      dup1\n      dup4\n      keccak256\n      swap1\n      swap2\n      add\n      sload\n        /* \"erc3643/erc3643/registry/implementation/TrustedIssuersRegistry.sol\":3088:3128  _claimTopicsToTrustedIssuers[claimTopic] */\n      dup6\n      dup4\n      mstore\n        /* \"erc3643/erc3643/registry/implementation/TrustedIssuersRegistry.sol\":3088:3116  _claimTopicsToTrustedIssuers */\n      0x67\n        /* \"erc3643/erc3643/registry/implementation/TrustedIssuersRegistry.sol\":3088:3128  _claimTopicsToTrustedIssuers[claimTopic] */\n      swap1\n      swap2\n      mstore\n      0x40\n      swap1\n      swap2\n      keccak256\n        /* \"erc3643/erc3643/registry/implementation/TrustedIssuersRegistry.sol\":3088:3177  _claimTopicsToTrustedIssuers[claimTopic][... */\n      dup1\n      sload\n      sub(shl(0xa0, 0x01), 0x01)\n        /* \"erc3643/erc3643/registry/implementation/TrustedIssuersRegistry.sol\":3180:3284  _claimTopicsToTrustedIssuers[claimTopic][... */\n      swap1\n      swap3\n      and\n      swap2\n        /* \"erc3643/erc3643/registry/implementation/TrustedIssuersRegistry.sol\":3154:3155  i */\n      dup4\n      swap1\n        /* \"erc3643/erc3643/registry/implementation/TrustedIssuersRegistry.sol\":3088:3177  _claimTopicsToTrustedIssuers[claimTopic][... */\n      dup2\n      lt\n      tag_207\n      jumpi\n      tag_207\n      tag_84\n      jump\t// in\n    tag_207:\n      0x00\n      swap2\n      dup3\n      mstore\n      0x20\n      dup1\n      dup4\n      keccak256\n      swap2\n      swap1\n      swap2\n      add\n        /* \"erc3643/erc3643/registry/implementation/TrustedIssuersRegistry.sol\":3088:3284  _claimTopicsToTrustedIssuers[claimTopic][... */\n      dup1\n      sload\n      not(sub(shl(0xa0, 0x01), 0x01))\n      and\n      sub(shl(0xa0, 0x01), 0x01)\n      swap5\n      swap1\n      swap5\n      and\n      swap4\n      swap1\n      swap4\n      or\n      swap1\n      swap3\n      sstore\n        /* \"erc3643/erc3643/registry/implementation/TrustedIssuersRegistry.sol\":3306:3346  _claimTopicsToTrustedIssuers[claimTopic] */\n      dup5\n      dup2\n      mstore\n        /* \"erc3643/erc3643/registry/implementation/TrustedIssuersRegistry.sol\":3306:3334  _claimTopicsToTrustedIssuers */\n      0x67\n        /* \"erc3643/erc3643/registry/implementation/TrustedIssuersRegistry.sol\":3306:3346  _claimTopicsToTrustedIssuers[claimTopic] */\n      swap1\n      swap2\n      mstore\n      0x40\n      swap1\n      keccak256\n        /* \"erc3643/erc3643/registry/implementation/TrustedIssuersRegistry.sol\":3306:3352  _claimTopicsToTrustedIssuers[claimTopic].pop() */\n      dup1\n      sload\n      dup1\n      tag_210\n      jumpi\n      tag_210\n      tag_103\n      jump\t// in\n    tag_210:\n      0x00\n      dup3\n      dup2\n      mstore\n      0x20\n      swap1\n      keccak256\n      dup2\n      add\n      not(0x00)\n      swap1\n      dup2\n      add\n      dup1\n      sload\n      not(sub(shl(0xa0, 0x01), 0x01))\n      and\n      swap1\n      sstore\n      add\n      swap1\n      sstore\n        /* \"erc3643/erc3643/registry/implementation/TrustedIssuersRegistry.sol\":3374:3379  break */\n      jump(tag_196)\n        /* \"erc3643/erc3643/registry/implementation/TrustedIssuersRegistry.sol\":2941:3398  if (... */\n    tag_201:\n        /* \"erc3643/erc3643/registry/implementation/TrustedIssuersRegistry.sol\":2918:2921  i++ */\n      dup1\n      tag_212\n      dup2\n      tag_106\n      jump\t// in\n    tag_212:\n      swap2\n      pop\n      pop\n        /* \"erc3643/erc3643/registry/implementation/TrustedIssuersRegistry.sol\":2880:3412  for (uint256 i = 0; i < topicsLength; i++) {... */\n      jump(tag_195)\n    tag_196:\n      pop\n        /* \"erc3643/erc3643/registry/implementation/TrustedIssuersRegistry.sol\":2633:3422  {... */\n      pop\n      pop\n        /* \"erc3643/erc3643/registry/implementation/TrustedIssuersRegistry.sol\":2605:2622  claimTopicIndex++ */\n      dup1\n      dup1\n      tag_213\n      swap1\n      tag_106\n      jump\t// in\n    tag_213:\n      swap2\n      pop\n      pop\n        /* \"erc3643/erc3643/registry/implementation/TrustedIssuersRegistry.sol\":2445:3422  for (... */\n      jump(tag_189)\n    tag_190:\n      pop\n      sub(shl(0xa0, 0x01), 0x01)\n        /* \"erc3643/erc3643/registry/implementation/TrustedIssuersRegistry.sol\":3438:3488  _trustedIssuerClaimTopics[address(_trustedIssuer)] */\n      dup3\n      and\n      0x00\n      swap1\n      dup2\n      mstore\n        /* \"erc3643/erc3643/registry/implementation/TrustedIssuersRegistry.sol\":3438:3463  _trustedIssuerClaimTopics */\n      0x66\n        /* \"erc3643/erc3643/registry/implementation/TrustedIssuersRegistry.sol\":3438:3488  _trustedIssuerClaimTopics[address(_trustedIssuer)] */\n      0x20\n      mstore\n      0x40\n      dup2\n      keccak256\n        /* \"erc3643/erc3643/registry/implementation/TrustedIssuersRegistry.sol\":3431:3488  delete _trustedIssuerClaimTopics[address(_trustedIssuer)] */\n      tag_214\n      swap2\n      tag_215\n      jump\t// in\n    tag_214:\n        /* \"erc3643/erc3643/registry/implementation/TrustedIssuersRegistry.sol\":3503:3539  TrustedIssuerRemoved(_trustedIssuer) */\n      mload(0x40)\n      sub(shl(0xa0, 0x01), 0x01)\n      dup4\n      and\n      swap1\n      0x2214ded40113cc3fb63fc206cafee88270b0a903dac7245d54efdde30ebb0321\n      swap1\n      0x00\n      swap1\n      log2\n        /* \"erc3643/erc3643/registry/implementation/TrustedIssuersRegistry.sol\":1867:3546  {... */\n      pop\n        /* \"erc3643/erc3643/registry/implementation/TrustedIssuersRegistry.sol\":1753:3546  function removeTrustedIssuer(IClaimIssuer _trustedIssuer)... */\n      pop\n      jump\t// out\n        /* \"erc3643/erc3643/registry/implementation/TrustedIssuersRegistry.sol\":6424:6797  function getTrustedIssuerClaimTopics(IClaimIssuer _trustedIssuer)... */\n    tag_47:\n      sub(shl(0xa0, 0x01), 0x01)\n        /* \"erc3643/erc3643/registry/implementation/TrustedIssuersRegistry.sol\":6607:6657  _trustedIssuerClaimTopics[address(_trustedIssuer)] */\n      dup2\n      and\n      0x00\n      swap1\n      dup2\n      mstore\n        /* \"erc3643/erc3643/registry/implementation/TrustedIssuersRegistry.sol\":6607:6632  _trustedIssuerClaimTopics */\n      0x66\n        /* \"erc3643/erc3643/registry/implementation/TrustedIssuersRegistry.sol\":6607:6657  _trustedIssuerClaimTopics[address(_trustedIssuer)] */\n      0x20\n      mstore\n      0x40\n      dup2\n      keccak256\n        /* \"erc3643/erc3643/registry/implementation/TrustedIssuersRegistry.sol\":6607:6664  _trustedIssuerClaimTopics[address(_trustedIssuer)].length */\n      sload\n        /* \"erc3643/erc3643/registry/implementation/TrustedIssuersRegistry.sol\":6554:6570  uint256[] memory */\n      0x60\n      swap2\n        /* \"erc3643/erc3643/registry/implementation/TrustedIssuersRegistry.sol\":6607:6669  _trustedIssuerClaimTopics[address(_trustedIssuer)].length != 0 */\n      sub\n        /* \"erc3643/erc3643/registry/implementation/TrustedIssuersRegistry.sol\":6586:6723  require(... */\n      tag_217\n      jumpi\n      mload(0x40)\n      shl(0xe5, 0x461bcd)\n      dup2\n      mstore\n        /* \"#utility.yul\":7704:7706   */\n      0x20\n        /* \"erc3643/erc3643/registry/implementation/TrustedIssuersRegistry.sol\":6586:6723  require(... */\n      0x04\n      dup3\n      add\n        /* \"#utility.yul\":7686:7707   */\n      mstore\n        /* \"#utility.yul\":7743:7745   */\n      0x1c\n        /* \"#utility.yul\":7723:7741   */\n      0x24\n      dup3\n      add\n        /* \"#utility.yul\":7716:7746   */\n      mstore\n        /* \"#utility.yul\":7782:7812   */\n      0x747275737465642049737375657220646f65736e277420657869737400000000\n        /* \"#utility.yul\":7762:7780   */\n      0x44\n      dup3\n      add\n        /* \"#utility.yul\":7755:7813   */\n      mstore\n        /* \"#utility.yul\":7830:7848   */\n      0x64\n      add\n        /* \"erc3643/erc3643/registry/implementation/TrustedIssuersRegistry.sol\":6586:6723  require(... */\n      tag_68\n        /* \"#utility.yul\":7502:7854   */\n      jump\n        /* \"erc3643/erc3643/registry/implementation/TrustedIssuersRegistry.sol\":6586:6723  require(... */\n    tag_217:\n      sub(shl(0xa0, 0x01), 0x01)\n        /* \"erc3643/erc3643/registry/implementation/TrustedIssuersRegistry.sol\":6740:6790  _trustedIssuerClaimTopics[address(_trustedIssuer)] */\n      dup3\n      and\n      0x00\n      swap1\n      dup2\n      mstore\n        /* \"erc3643/erc3643/registry/implementation/TrustedIssuersRegistry.sol\":6740:6765  _trustedIssuerClaimTopics */\n      0x66\n        /* \"erc3643/erc3643/registry/implementation/TrustedIssuersRegistry.sol\":6740:6790  _trustedIssuerClaimTopics[address(_trustedIssuer)] */\n      0x20\n      swap1\n      dup2\n      mstore\n      0x40\n      swap2\n      dup3\n      swap1\n      keccak256\n        /* \"erc3643/erc3643/registry/implementation/TrustedIssuersRegistry.sol\":6733:6790  return _trustedIssuerClaimTopics[address(_trustedIssuer)] */\n      dup1\n      sload\n      dup4\n      mload\n      dup2\n      dup5\n      mul\n      dup2\n      add\n      dup5\n      add\n      swap1\n      swap5\n      mstore\n      dup1\n      dup5\n      mstore\n        /* \"erc3643/erc3643/registry/implementation/TrustedIssuersRegistry.sol\":6740:6790  _trustedIssuerClaimTopics[address(_trustedIssuer)] */\n      swap1\n      swap2\n        /* \"erc3643/erc3643/registry/implementation/TrustedIssuersRegistry.sol\":6733:6790  return _trustedIssuerClaimTopics[address(_trustedIssuer)] */\n      dup4\n      add\n        /* \"erc3643/erc3643/registry/implementation/TrustedIssuersRegistry.sol\":6740:6790  _trustedIssuerClaimTopics[address(_trustedIssuer)] */\n      dup3\n        /* \"erc3643/erc3643/registry/implementation/TrustedIssuersRegistry.sol\":6733:6790  return _trustedIssuerClaimTopics[address(_trustedIssuer)] */\n      dup3\n      dup1\n      iszero\n      tag_130\n      jumpi\n      0x20\n      mul\n      dup3\n      add\n      swap2\n      swap1\n      0x00\n      mstore\n      keccak256(0x00, 0x20)\n      swap1\n    tag_221:\n      dup2\n      sload\n      dup2\n      mstore\n      0x20\n      add\n      swap1\n      0x01\n      add\n      swap1\n      dup1\n      dup4\n      gt\n      tag_221\n      jumpi\n      pop\n      pop\n      pop\n      pop\n      pop\n      swap1\n      pop\n        /* \"erc3643/erc3643/registry/implementation/TrustedIssuersRegistry.sol\":6424:6797  function getTrustedIssuerClaimTopics(IClaimIssuer _trustedIssuer)... */\n      swap2\n      swap1\n      pop\n      jump\t// out\n        /* \"erc3643/erc3643/registry/implementation/TrustedIssuersRegistry.sol\":5536:5695  function getTrustedIssuers()... */\n    tag_51:\n        /* \"erc3643/erc3643/registry/implementation/TrustedIssuersRegistry.sol\":5629:5650  IClaimIssuer[] memory */\n      0x60\n        /* \"erc3643/erc3643/registry/implementation/TrustedIssuersRegistry.sol\":5673:5688  _trustedIssuers */\n      0x65\n        /* \"erc3643/erc3643/registry/implementation/TrustedIssuersRegistry.sol\":5666:5688  return _trustedIssuers */\n      dup1\n      sload\n      dup1\n      0x20\n      mul\n      0x20\n      add\n      mload(0x40)\n      swap1\n      dup2\n      add\n      0x40\n      mstore\n      dup1\n      swap3\n      swap2\n      swap1\n      dup2\n      dup2\n      mstore\n      0x20\n      add\n      dup3\n      dup1\n      sload\n      dup1\n      iszero\n      tag_223\n      jumpi\n      0x20\n      mul\n      dup3\n      add\n      swap2\n      swap1\n      0x00\n      mstore\n      keccak256(0x00, 0x20)\n      swap1\n    tag_224:\n      dup2\n      sload\n      sub(shl(0xa0, 0x01), 0x01)\n      and\n      dup2\n      mstore\n      0x01\n      swap1\n      swap2\n      add\n      swap1\n      0x20\n      add\n      dup1\n      dup4\n      gt\n      tag_224\n      jumpi\n    tag_223:\n      pop\n      pop\n      pop\n      pop\n      pop\n      swap1\n      pop\n        /* \"erc3643/erc3643/registry/implementation/TrustedIssuersRegistry.sol\":5536:5695  function getTrustedIssuers()... */\n      swap1\n      jump\t// out\n        /* \"erc3643/erc3643/registry/implementation/TrustedIssuersRegistry.sol\":403:473  function init() external initializer {... */\n    tag_54:\n        /* \"@openzeppelin/contracts-upgradeable/proxy/utils/Initializable.sol\":3279:3298  bool isTopLevelCall */\n      0x00\n        /* \"@openzeppelin/contracts-upgradeable/proxy/utils/Initializable.sol\":3302:3315  _initializing */\n      sload\n      0x0100\n      swap1\n      div\n      0xff\n      and\n        /* \"@openzeppelin/contracts-upgradeable/proxy/utils/Initializable.sol\":3301:3315  !_initializing */\n      iszero\n      dup1\n        /* \"@openzeppelin/contracts-upgradeable/proxy/utils/Initializable.sol\":3347:3381  isTopLevelCall && _initialized < 1 */\n      dup1\n      iszero\n      tag_226\n      jumpi\n      pop\n        /* \"@openzeppelin/contracts-upgradeable/proxy/utils/Initializable.sol\":3365:3377  _initialized */\n      sload(0x00)\n        /* \"@openzeppelin/contracts-upgradeable/proxy/utils/Initializable.sol\":3380:3381  1 */\n      0x01\n        /* \"@openzeppelin/contracts-upgradeable/proxy/utils/Initializable.sol\":3365:3377  _initialized */\n      0xff\n      swap1\n      swap2\n      and\n        /* \"@openzeppelin/contracts-upgradeable/proxy/utils/Initializable.sol\":3365:3381  _initialized < 1 */\n      lt\n        /* \"@openzeppelin/contracts-upgradeable/proxy/utils/Initializable.sol\":3347:3381  isTopLevelCall && _initialized < 1 */\n    tag_226:\n        /* \"@openzeppelin/contracts-upgradeable/proxy/utils/Initializable.sol\":3346:3454  (isTopLevelCall && _initialized < 1) || (!AddressUpgradeable.isContract(address(this)) && _initialized == 1) */\n      dup1\n      tag_230\n      jumpi\n      pop\n        /* \"@openzeppelin/contracts-upgradeable/proxy/utils/Initializable.sol\":3426:3430  this */\n      address\n        /* \"@openzeppelin/contracts-upgradeable/utils/AddressUpgradeable.sol\":1713:1732  account.code.length */\n      extcodesize\n        /* \"@openzeppelin/contracts-upgradeable/utils/AddressUpgradeable.sol\":1713:1736  account.code.length > 0 */\n      iszero\n      dup1\n      iszero\n        /* \"@openzeppelin/contracts-upgradeable/proxy/utils/Initializable.sol\":3387:3453  !AddressUpgradeable.isContract(address(this)) && _initialized == 1 */\n      tag_230\n      jumpi\n      pop\n        /* \"@openzeppelin/contracts-upgradeable/proxy/utils/Initializable.sol\":3436:3448  _initialized */\n      and(0xff, sload(0x00))\n      0x01\n        /* \"@openzeppelin/contracts-upgradeable/proxy/utils/Initializable.sol\":3436:3453  _initialized == 1 */\n      eq\n        /* \"@openzeppelin/contracts-upgradeable/proxy/utils/Initializable.sol\":3387:3453  !AddressUpgradeable.isContract(address(this)) && _initialized == 1 */\n    tag_230:\n        /* \"@openzeppelin/contracts-upgradeable/proxy/utils/Initializable.sol\":3325:3526  require(... */\n      tag_231\n      jumpi\n      mload(0x40)\n      shl(0xe5, 0x461bcd)\n      dup2\n      mstore\n        /* \"#utility.yul\":8061:8063   */\n      0x20\n        /* \"@openzeppelin/contracts-upgradeable/proxy/utils/Initializable.sol\":3325:3526  require(... */\n      0x04\n      dup3\n      add\n        /* \"#utility.yul\":8043:8064   */\n      mstore\n        /* \"#utility.yul\":8100:8102   */\n      0x2e\n        /* \"#utility.yul\":8080:8098   */\n      0x24\n      dup3\n      add\n        /* \"#utility.yul\":8073:8103   */\n      mstore\n        /* \"#utility.yul\":8139:8173   */\n      0x496e697469616c697a61626c653a20636f6e747261637420697320616c726561\n        /* \"#utility.yul\":8119:8137   */\n      0x44\n      dup3\n      add\n        /* \"#utility.yul\":8112:8174   */\n      mstore\n      shl(0x92, 0x191e481a5b9a5d1a585b1a5e9959)\n        /* \"#utility.yul\":8190:8208   */\n      0x64\n      dup3\n      add\n        /* \"#utility.yul\":8183:8227   */\n      mstore\n        /* \"#utility.yul\":8244:8263   */\n      0x84\n      add\n        /* \"@openzeppelin/contracts-upgradeable/proxy/utils/Initializable.sol\":3325:3526  require(... */\n      tag_68\n        /* \"#utility.yul\":7859:8269   */\n      jump\n        /* \"@openzeppelin/contracts-upgradeable/proxy/utils/Initializable.sol\":3325:3526  require(... */\n    tag_231:\n        /* \"@openzeppelin/contracts-upgradeable/proxy/utils/Initializable.sol\":3536:3548  _initialized */\n      0x00\n        /* \"@openzeppelin/contracts-upgradeable/proxy/utils/Initializable.sol\":3536:3552  _initialized = 1 */\n      dup1\n      sload\n      not(0xff)\n      and\n        /* \"@openzeppelin/contracts-upgradeable/proxy/utils/Initializable.sol\":3551:3552  1 */\n      0x01\n        /* \"@openzeppelin/contracts-upgradeable/proxy/utils/Initializable.sol\":3536:3552  _initialized = 1 */\n      or\n      swap1\n      sstore\n        /* \"@openzeppelin/contracts-upgradeable/proxy/utils/Initializable.sol\":3562:3627  if (isTopLevelCall) {... */\n      dup1\n      iszero\n      tag_234\n      jumpi\n        /* \"@openzeppelin/contracts-upgradeable/proxy/utils/Initializable.sol\":3596:3609  _initializing */\n      0x00\n        /* \"@openzeppelin/contracts-upgradeable/proxy/utils/Initializable.sol\":3596:3616  _initializing = true */\n      dup1\n      sload\n      not(0xff00)\n      and\n      0x0100\n      or\n      swap1\n      sstore\n        /* \"@openzeppelin/contracts-upgradeable/proxy/utils/Initializable.sol\":3562:3627  if (isTopLevelCall) {... */\n    tag_234:\n        /* \"erc3643/erc3643/registry/implementation/TrustedIssuersRegistry.sol\":450:466  __Ownable_init() */\n      tag_236\n        /* \"erc3643/erc3643/registry/implementation/TrustedIssuersRegistry.sol\":450:464  __Ownable_init */\n      tag_237\n        /* \"erc3643/erc3643/registry/implementation/TrustedIssuersRegistry.sol\":450:466  __Ownable_init() */\n      jump\t// in\n    tag_236:\n        /* \"@openzeppelin/contracts-upgradeable/proxy/utils/Initializable.sol\":3651:3665  isTopLevelCall */\n      dup1\n        /* \"@openzeppelin/contracts-upgradeable/proxy/utils/Initializable.sol\":3647:3746  if (isTopLevelCall) {... */\n      iszero\n      tag_238\n      jumpi\n        /* \"@openzeppelin/contracts-upgradeable/proxy/utils/Initializable.sol\":3697:3702  false */\n      0x00\n        /* \"@openzeppelin/contracts-upgradeable/proxy/utils/Initializable.sol\":3681:3702  _initializing = false */\n      dup1\n      sload\n      not(0xff00)\n      and\n      swap1\n      sstore\n        /* \"@openzeppelin/contracts-upgradeable/proxy/utils/Initializable.sol\":3721:3735  Initialized(1) */\n      mload(0x40)\n      0x01\n        /* \"#utility.yul\":8426:8462   */\n      dup2\n      mstore\n        /* \"@openzeppelin/contracts-upgradeable/proxy/utils/Initializable.sol\":3721:3735  Initialized(1) */\n      0x7f26b83ff96e1f2b6a682f133852f6798a09c465da95921460cefb3847402498\n      swap1\n        /* \"#utility.yul\":8414:8416   */\n      0x20\n        /* \"#utility.yul\":8399:8417   */\n      add\n        /* \"@openzeppelin/contracts-upgradeable/proxy/utils/Initializable.sol\":3721:3735  Initialized(1) */\n      mload(0x40)\n      dup1\n      swap2\n      sub\n      swap1\n      log1\n        /* \"@openzeppelin/contracts-upgradeable/proxy/utils/Initializable.sol\":3647:3746  if (isTopLevelCall) {... */\n    tag_238:\n        /* \"@openzeppelin/contracts-upgradeable/proxy/utils/Initializable.sol\":3269:3752  {... */\n      pop\n        /* \"erc3643/erc3643/registry/implementation/TrustedIssuersRegistry.sol\":403:473  function init() external initializer {... */\n      jump\t// out\n        /* \"erc3643/erc3643/registry/implementation/TrustedIssuersRegistry.sol\":6089:6330  function isTrustedIssuer(address _issuer)... */\n    tag_58:\n      sub(shl(0xa0, 0x01), 0x01)\n        /* \"erc3643/erc3643/registry/implementation/TrustedIssuersRegistry.sol\":6219:6253  _trustedIssuerClaimTopics[_issuer] */\n      dup2\n      and\n        /* \"erc3643/erc3643/registry/implementation/TrustedIssuersRegistry.sol\":6195:6199  bool */\n      0x00\n        /* \"erc3643/erc3643/registry/implementation/TrustedIssuersRegistry.sol\":6219:6253  _trustedIssuerClaimTopics[_issuer] */\n      swap1\n      dup2\n      mstore\n        /* \"erc3643/erc3643/registry/implementation/TrustedIssuersRegistry.sol\":6219:6244  _trustedIssuerClaimTopics */\n      0x66\n        /* \"erc3643/erc3643/registry/implementation/TrustedIssuersRegistry.sol\":6219:6253  _trustedIssuerClaimTopics[_issuer] */\n      0x20\n      mstore\n      0x40\n      dup2\n      keccak256\n        /* \"erc3643/erc3643/registry/implementation/TrustedIssuersRegistry.sol\":6219:6260  _trustedIssuerClaimTopics[_issuer].length */\n      sload\n        /* \"erc3643/erc3643/registry/implementation/TrustedIssuersRegistry.sol\":6219:6264  _trustedIssuerClaimTopics[_issuer].length > 0 */\n      iszero\n        /* \"erc3643/erc3643/registry/implementation/TrustedIssuersRegistry.sol\":6215:6302  if (_trustedIssuerClaimTopics[_issuer].length > 0) {... */\n      tag_242\n      jumpi\n      pop\n        /* \"erc3643/erc3643/registry/implementation/TrustedIssuersRegistry.sol\":6287:6291  true */\n      0x01\n      swap2\n        /* \"erc3643/erc3643/registry/implementation/TrustedIssuersRegistry.sol\":6089:6330  function isTrustedIssuer(address _issuer)... */\n      swap1\n      pop\n      jump\t// out\n        /* \"erc3643/erc3643/registry/implementation/TrustedIssuersRegistry.sol\":6215:6302  if (_trustedIssuerClaimTopics[_issuer].length > 0) {... */\n    tag_242:\n      pop\n        /* \"erc3643/erc3643/registry/implementation/TrustedIssuersRegistry.sol\":6318:6323  false */\n      0x00\n      swap2\n        /* \"erc3643/erc3643/registry/implementation/TrustedIssuersRegistry.sol\":6089:6330  function isTrustedIssuer(address _issuer)... */\n      swap1\n      pop\n      jump\t// out\n        /* \"@openzeppelin/contracts-upgradeable/access/OwnableUpgradeable.sol\":2314:2512  function transferOwnership(address newOwner) public virtual onlyOwner {... */\n    tag_62:\n        /* \"@openzeppelin/contracts-upgradeable/access/OwnableUpgradeable.sol\":1334:1347  _checkOwner() */\n      tag_244\n        /* \"@openzeppelin/contracts-upgradeable/access/OwnableUpgradeable.sol\":1334:1345  _checkOwner */\n      tag_65\n        /* \"@openzeppelin/contracts-upgradeable/access/OwnableUpgradeable.sol\":1334:1347  _checkOwner() */\n      jump\t// in\n    tag_244:\n      sub(shl(0xa0, 0x01), 0x01)\n        /* \"@openzeppelin/contracts-upgradeable/access/OwnableUpgradeable.sol\":2402:2424  newOwner != address(0) */\n      dup2\n      and\n        /* \"@openzeppelin/contracts-upgradeable/access/OwnableUpgradeable.sol\":2394:2467  require(newOwner != address(0), \"Ownable: new owner is the zero address\") */\n      tag_246\n      jumpi\n      mload(0x40)\n      shl(0xe5, 0x461bcd)\n      dup2\n      mstore\n        /* \"#utility.yul\":8675:8677   */\n      0x20\n        /* \"@openzeppelin/contracts-upgradeable/access/OwnableUpgradeable.sol\":2394:2467  require(newOwner != address(0), \"Ownable: new owner is the zero address\") */\n      0x04\n      dup3\n      add\n        /* \"#utility.yul\":8657:8678   */\n      mstore\n        /* \"#utility.yul\":8714:8716   */\n      0x26\n        /* \"#utility.yul\":8694:8712   */\n      0x24\n      dup3\n      add\n        /* \"#utility.yul\":8687:8717   */\n      mstore\n        /* \"#utility.yul\":8753:8787   */\n      0x4f776e61626c653a206e6577206f776e657220697320746865207a65726f2061\n        /* \"#utility.yul\":8733:8751   */\n      0x44\n      dup3\n      add\n        /* \"#utility.yul\":8726:8788   */\n      mstore\n      shl(0xd0, 0x646472657373)\n        /* \"#utility.yul\":8804:8822   */\n      0x64\n      dup3\n      add\n        /* \"#utility.yul\":8797:8833   */\n      mstore\n        /* \"#utility.yul\":8850:8869   */\n      0x84\n      add\n        /* \"@openzeppelin/contracts-upgradeable/access/OwnableUpgradeable.sol\":2394:2467  require(newOwner != address(0), \"Ownable: new owner is the zero address\") */\n      tag_68\n        /* \"#utility.yul\":8473:8875   */\n      jump\n        /* \"@openzeppelin/contracts-upgradeable/access/OwnableUpgradeable.sol\":2394:2467  require(newOwner != address(0), \"Ownable: new owner is the zero address\") */\n    tag_246:\n        /* \"@openzeppelin/contracts-upgradeable/access/OwnableUpgradeable.sol\":2477:2505  _transferOwnership(newOwner) */\n      tag_238\n        /* \"@openzeppelin/contracts-upgradeable/access/OwnableUpgradeable.sol\":2496:2504  newOwner */\n      dup2\n        /* \"@openzeppelin/contracts-upgradeable/access/OwnableUpgradeable.sol\":2477:2495  _transferOwnership */\n      tag_136\n        /* \"@openzeppelin/contracts-upgradeable/access/OwnableUpgradeable.sol\":2477:2505  _transferOwnership(newOwner) */\n      jump\t// in\n        /* \"@openzeppelin/contracts-upgradeable/access/OwnableUpgradeable.sol\":1599:1729  function _checkOwner() internal view virtual {... */\n    tag_65:\n        /* \"@openzeppelin/contracts-upgradeable/access/OwnableUpgradeable.sol\":1513:1519  _owner */\n      and(sub(shl(0xa0, 0x01), 0x01), sload(0x33))\n        /* \"@openzeppelin/contracts-upgradeable/utils/ContextUpgradeable.sol\":929:939  msg.sender */\n      caller\n        /* \"@openzeppelin/contracts-upgradeable/access/OwnableUpgradeable.sol\":1662:1685  owner() == _msgSender() */\n      eq\n        /* \"@openzeppelin/contracts-upgradeable/access/OwnableUpgradeable.sol\":1654:1722  require(owner() == _msgSender(), \"Ownable: caller is not the owner\") */\n      tag_135\n      jumpi\n      mload(0x40)\n      shl(0xe5, 0x461bcd)\n      dup2\n      mstore\n        /* \"#utility.yul\":9082:9084   */\n      0x20\n        /* \"@openzeppelin/contracts-upgradeable/access/OwnableUpgradeable.sol\":1654:1722  require(owner() == _msgSender(), \"Ownable: caller is not the owner\") */\n      0x04\n      dup3\n      add\n        /* \"#utility.yul\":9064:9085   */\n      dup2\n      swap1\n      mstore\n        /* \"#utility.yul\":9101:9119   */\n      0x24\n      dup3\n      add\n        /* \"#utility.yul\":9094:9124   */\n      mstore\n        /* \"#utility.yul\":9160:9194   */\n      0x4f776e61626c653a2063616c6c6572206973206e6f7420746865206f776e6572\n        /* \"#utility.yul\":9140:9158   */\n      0x44\n      dup3\n      add\n        /* \"#utility.yul\":9133:9195   */\n      mstore\n        /* \"#utility.yul\":9212:9230   */\n      0x64\n      add\n        /* \"@openzeppelin/contracts-upgradeable/access/OwnableUpgradeable.sol\":1654:1722  require(owner() == _msgSender(), \"Ownable: caller is not the owner\") */\n      tag_68\n        /* \"#utility.yul\":8880:9236   */\n      jump\n        /* \"@openzeppelin/contracts-upgradeable/access/OwnableUpgradeable.sol\":2666:2853  function _transferOwnership(address newOwner) internal virtual {... */\n    tag_136:\n        /* \"@openzeppelin/contracts-upgradeable/access/OwnableUpgradeable.sol\":2758:2764  _owner */\n      0x33\n      dup1\n      sload\n      sub(shl(0xa0, 0x01), 0x01)\n        /* \"@openzeppelin/contracts-upgradeable/access/OwnableUpgradeable.sol\":2774:2791  _owner = newOwner */\n      dup4\n      dup2\n      and\n      not(sub(shl(0xa0, 0x01), 0x01))\n      dup4\n      and\n      dup2\n      or\n      swap1\n      swap4\n      sstore\n        /* \"@openzeppelin/contracts-upgradeable/access/OwnableUpgradeable.sol\":2806:2846  OwnershipTransferred(oldOwner, newOwner) */\n      mload(0x40)\n        /* \"@openzeppelin/contracts-upgradeable/access/OwnableUpgradeable.sol\":2758:2764  _owner */\n      swap2\n      and\n      swap2\n        /* \"@openzeppelin/contracts-upgradeable/access/OwnableUpgradeable.sol\":2774:2791  _owner = newOwner */\n      swap1\n        /* \"@openzeppelin/contracts-upgradeable/access/OwnableUpgradeable.sol\":2758:2764  _owner */\n      dup3\n      swap1\n        /* \"@openzeppelin/contracts-upgradeable/access/OwnableUpgradeable.sol\":2806:2846  OwnershipTransferred(oldOwner, newOwner) */\n      0x8be0079c531659141344cd1fd0a4f28419497f9722a3daafe3b4186f6b6457e0\n      swap1\n        /* \"@openzeppelin/contracts-upgradeable/access/OwnableUpgradeable.sol\":2739:2755  address oldOwner */\n      0x00\n      swap1\n        /* \"@openzeppelin/contracts-upgradeable/access/OwnableUpgradeable.sol\":2806:2846  OwnershipTransferred(oldOwner, newOwner) */\n      log3\n        /* \"@openzeppelin/contracts-upgradeable/access/OwnableUpgradeable.sol\":2729:2853  {... */\n      pop\n        /* \"@openzeppelin/contracts-upgradeable/access/OwnableUpgradeable.sol\":2666:2853  function _transferOwnership(address newOwner) internal virtual {... */\n      pop\n      jump\t// out\n        /* \"@openzeppelin/contracts-upgradeable/access/OwnableUpgradeable.sol\":1003:1098  function __Ownable_init() internal onlyInitializing {... */\n    tag_237:\n        /* \"@openzeppelin/contracts-upgradeable/proxy/utils/Initializable.sol\":5374:5387  _initializing */\n      sload(0x00)\n      0x0100\n      swap1\n      div\n      0xff\n      and\n        /* \"@openzeppelin/contracts-upgradeable/proxy/utils/Initializable.sol\":5366:5435  require(_initializing, \"Initializable: contract is not initializing\") */\n      tag_260\n      jumpi\n      mload(0x40)\n      shl(0xe5, 0x461bcd)\n      dup2\n      mstore\n      0x04\n      add\n      tag_68\n      swap1\n      tag_262\n      jump\t// in\n    tag_260:\n        /* \"@openzeppelin/contracts-upgradeable/access/OwnableUpgradeable.sol\":1065:1091  __Ownable_init_unchained() */\n      tag_135\n        /* \"@openzeppelin/contracts-upgradeable/proxy/utils/Initializable.sol\":5374:5387  _initializing */\n      sload(0x00)\n      0x0100\n      swap1\n      div\n      0xff\n      and\n        /* \"@openzeppelin/contracts-upgradeable/proxy/utils/Initializable.sol\":5366:5435  require(_initializing, \"Initializable: contract is not initializing\") */\n      tag_268\n      jumpi\n      mload(0x40)\n      shl(0xe5, 0x461bcd)\n      dup2\n      mstore\n      0x04\n      add\n      tag_68\n      swap1\n      tag_262\n      jump\t// in\n    tag_268:\n        /* \"@openzeppelin/contracts-upgradeable/access/OwnableUpgradeable.sol\":1176:1208  _transferOwnership(_msgSender()) */\n      tag_135\n        /* \"@openzeppelin/contracts-upgradeable/utils/ContextUpgradeable.sol\":929:939  msg.sender */\n      caller\n        /* \"@openzeppelin/contracts-upgradeable/access/OwnableUpgradeable.sol\":1176:1194  _transferOwnership */\n      tag_136\n        /* \"@openzeppelin/contracts-upgradeable/access/OwnableUpgradeable.sol\":1176:1208  _transferOwnership(_msgSender()) */\n      jump\t// in\n    tag_109:\n      dup3\n      dup1\n      sload\n      dup3\n      dup3\n      sstore\n      swap1\n      0x00\n      mstore\n      keccak256(0x00, 0x20)\n      swap1\n      dup2\n      add\n      swap3\n      dup3\n      iszero\n      tag_275\n      jumpi\n      swap2\n      0x20\n      mul\n      dup3\n      add\n    tag_274:\n      dup3\n      dup2\n      gt\n      iszero\n      tag_275\n      jumpi\n      dup3\n      calldataload\n      dup3\n      sstore\n      swap2\n      0x20\n      add\n      swap2\n      swap1\n      0x01\n      add\n      swap1\n      jump(tag_274)\n    tag_275:\n      pop\n      tag_276\n      swap3\n      swap2\n      pop\n      tag_277\n      jump\t// in\n    tag_276:\n      pop\n      swap1\n      jump\t// out\n    tag_215:\n      pop\n      dup1\n      sload\n      0x00\n      dup3\n      sstore\n      swap1\n      0x00\n      mstore\n      keccak256(0x00, 0x20)\n      swap1\n      dup2\n      add\n      swap1\n      tag_238\n      swap2\n      swap1\n    tag_277:\n    tag_280:\n      dup1\n      dup3\n      gt\n      iszero\n      tag_276\n      jumpi\n      0x00\n      dup2\n      sstore\n      0x01\n      add\n      jump(tag_280)\n        /* \"#utility.yul\":14:159   */\n    tag_282:\n      sub(shl(0xa0, 0x01), 0x01)\n        /* \"#utility.yul\":103:134   */\n      dup2\n      and\n        /* \"#utility.yul\":93:135   */\n      dup2\n      eq\n        /* \"#utility.yul\":83:153   */\n      tag_238\n      jumpi\n        /* \"#utility.yul\":149:150   */\n      0x00\n        /* \"#utility.yul\":146:147   */\n      dup1\n        /* \"#utility.yul\":139:151   */\n      revert\n        /* \"#utility.yul\":164:947   */\n    tag_18:\n        /* \"#utility.yul\":278:284   */\n      0x00\n        /* \"#utility.yul\":286:292   */\n      dup1\n        /* \"#utility.yul\":294:300   */\n      0x00\n        /* \"#utility.yul\":347:349   */\n      0x40\n        /* \"#utility.yul\":335:344   */\n      dup5\n        /* \"#utility.yul\":326:333   */\n      dup7\n        /* \"#utility.yul\":322:345   */\n      sub\n        /* \"#utility.yul\":318:350   */\n      slt\n        /* \"#utility.yul\":315:367   */\n      iszero\n      tag_288\n      jumpi\n        /* \"#utility.yul\":363:364   */\n      0x00\n        /* \"#utility.yul\":360:361   */\n      dup1\n        /* \"#utility.yul\":353:365   */\n      revert\n        /* \"#utility.yul\":315:367   */\n    tag_288:\n        /* \"#utility.yul\":402:411   */\n      dup4\n        /* \"#utility.yul\":389:412   */\n      calldataload\n        /* \"#utility.yul\":421:466   */\n      tag_289\n        /* \"#utility.yul\":460:465   */\n      dup2\n        /* \"#utility.yul\":421:466   */\n      tag_282\n      jump\t// in\n    tag_289:\n        /* \"#utility.yul\":485:490   */\n      swap3\n      pop\n        /* \"#utility.yul\":541:543   */\n      0x20\n        /* \"#utility.yul\":526:544   */\n      dup5\n      add\n        /* \"#utility.yul\":513:545   */\n      calldataload\n        /* \"#utility.yul\":564:582   */\n      0xffffffffffffffff\n        /* \"#utility.yul\":594:608   */\n      dup1\n      dup3\n      gt\n        /* \"#utility.yul\":591:625   */\n      iszero\n      tag_290\n      jumpi\n        /* \"#utility.yul\":621:622   */\n      0x00\n        /* \"#utility.yul\":618:619   */\n      dup1\n        /* \"#utility.yul\":611:623   */\n      revert\n        /* \"#utility.yul\":591:625   */\n    tag_290:\n        /* \"#utility.yul\":659:665   */\n      dup2\n        /* \"#utility.yul\":648:657   */\n      dup7\n        /* \"#utility.yul\":644:666   */\n      add\n        /* \"#utility.yul\":634:666   */\n      swap2\n      pop\n        /* \"#utility.yul\":704:711   */\n      dup7\n        /* \"#utility.yul\":697:701   */\n      0x1f\n        /* \"#utility.yul\":693:695   */\n      dup4\n        /* \"#utility.yul\":689:702   */\n      add\n        /* \"#utility.yul\":685:712   */\n      slt\n        /* \"#utility.yul\":675:730   */\n      tag_291\n      jumpi\n        /* \"#utility.yul\":726:727   */\n      0x00\n        /* \"#utility.yul\":723:724   */\n      dup1\n        /* \"#utility.yul\":716:728   */\n      revert\n        /* \"#utility.yul\":675:730   */\n    tag_291:\n        /* \"#utility.yul\":766:768   */\n      dup2\n        /* \"#utility.yul\":753:769   */\n      calldataload\n        /* \"#utility.yul\":792:794   */\n      dup2\n        /* \"#utility.yul\":784:790   */\n      dup2\n        /* \"#utility.yul\":781:795   */\n      gt\n        /* \"#utility.yul\":778:812   */\n      iszero\n      tag_292\n      jumpi\n        /* \"#utility.yul\":808:809   */\n      0x00\n        /* \"#utility.yul\":805:806   */\n      dup1\n        /* \"#utility.yul\":798:810   */\n      revert\n        /* \"#utility.yul\":778:812   */\n    tag_292:\n        /* \"#utility.yul\":861:868   */\n      dup8\n        /* \"#utility.yul\":856:858   */\n      0x20\n        /* \"#utility.yul\":846:852   */\n      dup3\n        /* \"#utility.yul\":843:844   */\n      0x05\n        /* \"#utility.yul\":839:853   */\n      shl\n        /* \"#utility.yul\":835:837   */\n      dup6\n        /* \"#utility.yul\":831:854   */\n      add\n        /* \"#utility.yul\":827:859   */\n      add\n        /* \"#utility.yul\":824:869   */\n      gt\n        /* \"#utility.yul\":821:886   */\n      iszero\n      tag_293\n      jumpi\n        /* \"#utility.yul\":882:883   */\n      0x00\n        /* \"#utility.yul\":879:880   */\n      dup1\n        /* \"#utility.yul\":872:884   */\n      revert\n        /* \"#utility.yul\":821:886   */\n    tag_293:\n        /* \"#utility.yul\":913:915   */\n      0x20\n        /* \"#utility.yul\":909:911   */\n      dup4\n        /* \"#utility.yul\":905:916   */\n      add\n        /* \"#utility.yul\":895:916   */\n      swap5\n      pop\n        /* \"#utility.yul\":935:941   */\n      dup1\n        /* \"#utility.yul\":925:941   */\n      swap4\n      pop\n      pop\n      pop\n      pop\n        /* \"#utility.yul\":164:947   */\n      swap3\n      pop\n      swap3\n      pop\n      swap3\n      jump\t// out\n        /* \"#utility.yul\":952:1281   */\n    tag_22:\n        /* \"#utility.yul\":1020:1026   */\n      0x00\n        /* \"#utility.yul\":1028:1034   */\n      dup1\n        /* \"#utility.yul\":1081:1083   */\n      0x40\n        /* \"#utility.yul\":1069:1078   */\n      dup4\n        /* \"#utility.yul\":1060:1067   */\n      dup6\n        /* \"#utility.yul\":1056:1079   */\n      sub\n        /* \"#utility.yul\":1052:1084   */\n      slt\n        /* \"#utility.yul\":1049:1101   */\n      iszero\n      tag_295\n      jumpi\n        /* \"#utility.yul\":1097:1098   */\n      0x00\n        /* \"#utility.yul\":1094:1095   */\n      dup1\n        /* \"#utility.yul\":1087:1099   */\n      revert\n        /* \"#utility.yul\":1049:1101   */\n    tag_295:\n        /* \"#utility.yul\":1136:1145   */\n      dup3\n        /* \"#utility.yul\":1123:1146   */\n      calldataload\n        /* \"#utility.yul\":1155:1200   */\n      tag_296\n        /* \"#utility.yul\":1194:1199   */\n      dup2\n        /* \"#utility.yul\":1155:1200   */\n      tag_282\n      jump\t// in\n    tag_296:\n        /* \"#utility.yul\":1219:1224   */\n      swap5\n        /* \"#utility.yul\":1271:1273   */\n      0x20\n        /* \"#utility.yul\":1256:1274   */\n      swap4\n      swap1\n      swap4\n      add\n        /* \"#utility.yul\":1243:1275   */\n      calldataload\n      swap4\n      pop\n      pop\n      pop\n        /* \"#utility.yul\":952:1281   */\n      jump\t// out\n        /* \"#utility.yul\":1478:1658   */\n    tag_28:\n        /* \"#utility.yul\":1537:1543   */\n      0x00\n        /* \"#utility.yul\":1590:1592   */\n      0x20\n        /* \"#utility.yul\":1578:1587   */\n      dup3\n        /* \"#utility.yul\":1569:1576   */\n      dup5\n        /* \"#utility.yul\":1565:1588   */\n      sub\n        /* \"#utility.yul\":1561:1593   */\n      slt\n        /* \"#utility.yul\":1558:1610   */\n      iszero\n      tag_299\n      jumpi\n        /* \"#utility.yul\":1606:1607   */\n      0x00\n        /* \"#utility.yul\":1603:1604   */\n      dup1\n        /* \"#utility.yul\":1596:1608   */\n      revert\n        /* \"#utility.yul\":1558:1610   */\n    tag_299:\n      pop\n        /* \"#utility.yul\":1629:1652   */\n      calldataload\n      swap2\n        /* \"#utility.yul\":1478:1658   */\n      swap1\n      pop\n      jump\t// out\n        /* \"#utility.yul\":1663:2340   */\n    tag_31:\n        /* \"#utility.yul\":1853:1855   */\n      0x20\n        /* \"#utility.yul\":1905:1926   */\n      dup1\n      dup3\n      mstore\n        /* \"#utility.yul\":1975:1988   */\n      dup3\n      mload\n        /* \"#utility.yul\":1878:1896   */\n      dup3\n      dup3\n      add\n        /* \"#utility.yul\":1997:2019   */\n      dup2\n      swap1\n      mstore\n        /* \"#utility.yul\":1824:1828   */\n      0x00\n      swap2\n        /* \"#utility.yul\":1853:1855   */\n      swap1\n        /* \"#utility.yul\":2076:2091   */\n      dup5\n      dup3\n      add\n      swap1\n        /* \"#utility.yul\":2050:2052   */\n      0x40\n        /* \"#utility.yul\":2035:2053   */\n      dup6\n      add\n      swap1\n        /* \"#utility.yul\":1824:1828   */\n      dup5\n        /* \"#utility.yul\":2119:2314   */\n    tag_301:\n        /* \"#utility.yul\":2133:2139   */\n      dup2\n        /* \"#utility.yul\":2130:2131   */\n      dup2\n        /* \"#utility.yul\":2127:2140   */\n      lt\n        /* \"#utility.yul\":2119:2314   */\n      iszero\n      tag_303\n      jumpi\n        /* \"#utility.yul\":2198:2211   */\n      dup4\n      mload\n      sub(shl(0xa0, 0x01), 0x01)\n        /* \"#utility.yul\":2194:2233   */\n      and\n        /* \"#utility.yul\":2182:2234   */\n      dup4\n      mstore\n        /* \"#utility.yul\":2289:2304   */\n      swap3\n      dup5\n      add\n      swap3\n        /* \"#utility.yul\":2254:2266   */\n      swap2\n      dup5\n      add\n      swap2\n        /* \"#utility.yul\":2230:2231   */\n      0x01\n        /* \"#utility.yul\":2148:2157   */\n      add\n        /* \"#utility.yul\":2119:2314   */\n      jump(tag_301)\n    tag_303:\n      pop\n        /* \"#utility.yul\":2331:2334   */\n      swap1\n      swap7\n        /* \"#utility.yul\":1663:2340   */\n      swap6\n      pop\n      pop\n      pop\n      pop\n      pop\n      pop\n      jump\t// out\n        /* \"#utility.yul\":2553:2833   */\n    tag_43:\n        /* \"#utility.yul\":2631:2637   */\n      0x00\n        /* \"#utility.yul\":2684:2686   */\n      0x20\n        /* \"#utility.yul\":2672:2681   */\n      dup3\n        /* \"#utility.yul\":2663:2670   */\n      dup5\n        /* \"#utility.yul\":2659:2682   */\n      sub\n        /* \"#utility.yul\":2655:2687   */\n      slt\n        /* \"#utility.yul\":2652:2704   */\n      iszero\n      tag_306\n      jumpi\n        /* \"#utility.yul\":2700:2701   */\n      0x00\n        /* \"#utility.yul\":2697:2698   */\n      dup1\n        /* \"#utility.yul\":2690:2702   */\n      revert\n        /* \"#utility.yul\":2652:2704   */\n    tag_306:\n        /* \"#utility.yul\":2739:2748   */\n      dup2\n        /* \"#utility.yul\":2726:2749   */\n      calldataload\n        /* \"#utility.yul\":2758:2803   */\n      tag_307\n        /* \"#utility.yul\":2797:2802   */\n      dup2\n        /* \"#utility.yul\":2758:2803   */\n      tag_282\n      jump\t// in\n    tag_307:\n        /* \"#utility.yul\":2822:2827   */\n      swap4\n        /* \"#utility.yul\":2553:2833   */\n      swap3\n      pop\n      pop\n      pop\n      jump\t// out\n        /* \"#utility.yul\":2838:3470   */\n    tag_49:\n        /* \"#utility.yul\":3009:3011   */\n      0x20\n        /* \"#utility.yul\":3061:3082   */\n      dup1\n      dup3\n      mstore\n        /* \"#utility.yul\":3131:3144   */\n      dup3\n      mload\n        /* \"#utility.yul\":3034:3052   */\n      dup3\n      dup3\n      add\n        /* \"#utility.yul\":3153:3175   */\n      dup2\n      swap1\n      mstore\n        /* \"#utility.yul\":2980:2984   */\n      0x00\n      swap2\n        /* \"#utility.yul\":3009:3011   */\n      swap1\n        /* \"#utility.yul\":3232:3247   */\n      dup5\n      dup3\n      add\n      swap1\n        /* \"#utility.yul\":3206:3208   */\n      0x40\n        /* \"#utility.yul\":3191:3209   */\n      dup6\n      add\n      swap1\n        /* \"#utility.yul\":2980:2984   */\n      dup5\n        /* \"#utility.yul\":3275:3444   */\n    tag_309:\n        /* \"#utility.yul\":3289:3295   */\n      dup2\n        /* \"#utility.yul\":3286:3287   */\n      dup2\n        /* \"#utility.yul\":3283:3296   */\n      lt\n        /* \"#utility.yul\":3275:3444   */\n      iszero\n      tag_303\n      jumpi\n        /* \"#utility.yul\":3350:3363   */\n      dup4\n      mload\n        /* \"#utility.yul\":3338:3364   */\n      dup4\n      mstore\n        /* \"#utility.yul\":3419:3434   */\n      swap3\n      dup5\n      add\n      swap3\n        /* \"#utility.yul\":3384:3396   */\n      swap2\n      dup5\n      add\n      swap2\n        /* \"#utility.yul\":3311:3312   */\n      0x01\n        /* \"#utility.yul\":3304:3313   */\n      add\n        /* \"#utility.yul\":3275:3444   */\n      jump(tag_309)\n        /* \"#utility.yul\":3741:4096   */\n    tag_69:\n        /* \"#utility.yul\":3943:3945   */\n      0x20\n        /* \"#utility.yul\":3925:3946   */\n      dup1\n      dup3\n      mstore\n        /* \"#utility.yul\":3982:3984   */\n      0x1f\n        /* \"#utility.yul\":3962:3980   */\n      swap1\n      dup3\n      add\n        /* \"#utility.yul\":3955:3985   */\n      mstore\n        /* \"#utility.yul\":4021:4054   */\n      0x696e76616c696420617267756d656e74202d207a65726f206164647265737300\n        /* \"#utility.yul\":4016:4018   */\n      0x40\n        /* \"#utility.yul\":4001:4019   */\n      dup3\n      add\n        /* \"#utility.yul\":3994:4055   */\n      mstore\n        /* \"#utility.yul\":4087:4089   */\n      0x60\n        /* \"#utility.yul\":4072:4090   */\n      add\n      swap1\n        /* \"#utility.yul\":3741:4096   */\n      jump\t// out\n        /* \"#utility.yul\":4450:4851   */\n    tag_75:\n        /* \"#utility.yul\":4652:4654   */\n      0x20\n        /* \"#utility.yul\":4634:4655   */\n      dup1\n      dup3\n      mstore\n        /* \"#utility.yul\":4691:4693   */\n      0x25\n        /* \"#utility.yul\":4671:4689   */\n      swap1\n      dup3\n      add\n        /* \"#utility.yul\":4664:4694   */\n      mstore\n        /* \"#utility.yul\":4730:4764   */\n      0x63616e6e6f742068617665206d6f7265207468616e20313520636c61696d2074\n        /* \"#utility.yul\":4725:4727   */\n      0x40\n        /* \"#utility.yul\":4710:4728   */\n      dup3\n      add\n        /* \"#utility.yul\":4703:4765   */\n      mstore\n      shl(0xd8, 0x6f70696373)\n        /* \"#utility.yul\":4796:4798   */\n      0x60\n        /* \"#utility.yul\":4781:4799   */\n      dup3\n      add\n        /* \"#utility.yul\":4774:4809   */\n      mstore\n        /* \"#utility.yul\":4841:4844   */\n      0x80\n        /* \"#utility.yul\":4826:4845   */\n      add\n      swap1\n        /* \"#utility.yul\":4450:4851   */\n      jump\t// out\n        /* \"#utility.yul\":5213:5340   */\n    tag_84:\n        /* \"#utility.yul\":5274:5284   */\n      0x4e487b71\n        /* \"#utility.yul\":5269:5272   */\n      0xe0\n        /* \"#utility.yul\":5265:5285   */\n      shl\n        /* \"#utility.yul\":5262:5263   */\n      0x00\n        /* \"#utility.yul\":5255:5286   */\n      mstore\n        /* \"#utility.yul\":5305:5309   */\n      0x32\n        /* \"#utility.yul\":5302:5303   */\n      0x04\n        /* \"#utility.yul\":5295:5310   */\n      mstore\n        /* \"#utility.yul\":5329:5333   */\n      0x24\n        /* \"#utility.yul\":5326:5327   */\n      0x00\n        /* \"#utility.yul\":5319:5334   */\n      revert\n        /* \"#utility.yul\":5345:5472   */\n    tag_283:\n        /* \"#utility.yul\":5406:5416   */\n      0x4e487b71\n        /* \"#utility.yul\":5401:5404   */\n      0xe0\n        /* \"#utility.yul\":5397:5417   */\n      shl\n        /* \"#utility.yul\":5394:5395   */\n      0x00\n        /* \"#utility.yul\":5387:5418   */\n      mstore\n        /* \"#utility.yul\":5437:5441   */\n      0x11\n        /* \"#utility.yul\":5434:5435   */\n      0x04\n        /* \"#utility.yul\":5427:5442   */\n      mstore\n        /* \"#utility.yul\":5461:5465   */\n      0x24\n        /* \"#utility.yul\":5458:5459   */\n      0x00\n        /* \"#utility.yul\":5451:5466   */\n      revert\n        /* \"#utility.yul\":5477:5605   */\n    tag_94:\n        /* \"#utility.yul\":5544:5553   */\n      dup2\n      dup2\n      sub\n        /* \"#utility.yul\":5565:5576   */\n      dup2\n      dup2\n      gt\n        /* \"#utility.yul\":5562:5599   */\n      iszero\n      tag_119\n      jumpi\n        /* \"#utility.yul\":5579:5597   */\n      tag_119\n      tag_283\n      jump\t// in\n        /* \"#utility.yul\":5610:5737   */\n    tag_103:\n        /* \"#utility.yul\":5671:5681   */\n      0x4e487b71\n        /* \"#utility.yul\":5666:5669   */\n      0xe0\n        /* \"#utility.yul\":5662:5682   */\n      shl\n        /* \"#utility.yul\":5659:5660   */\n      0x00\n        /* \"#utility.yul\":5652:5683   */\n      mstore\n        /* \"#utility.yul\":5702:5706   */\n      0x31\n        /* \"#utility.yul\":5699:5700   */\n      0x04\n        /* \"#utility.yul\":5692:5707   */\n      mstore\n        /* \"#utility.yul\":5726:5730   */\n      0x24\n        /* \"#utility.yul\":5723:5724   */\n      0x00\n        /* \"#utility.yul\":5716:5731   */\n      revert\n        /* \"#utility.yul\":5742:5877   */\n    tag_106:\n        /* \"#utility.yul\":5781:5784   */\n      0x00\n        /* \"#utility.yul\":5802:5819   */\n      0x01\n      dup3\n      add\n        /* \"#utility.yul\":5799:5842   */\n      tag_327\n      jumpi\n        /* \"#utility.yul\":5822:5840   */\n      tag_327\n      tag_283\n      jump\t// in\n    tag_327:\n      pop\n        /* \"#utility.yul\":5869:5870   */\n      0x01\n        /* \"#utility.yul\":5858:5871   */\n      add\n      swap1\n        /* \"#utility.yul\":5742:5877   */\n      jump\t// out\n        /* \"#utility.yul\":5882:6325   */\n    tag_118:\n        /* \"#utility.yul\":6071:6073   */\n      0x20\n        /* \"#utility.yul\":6053:6074   */\n      dup1\n      dup3\n      mstore\n        /* \"#utility.yul\":6090:6108   */\n      dup2\n      add\n        /* \"#utility.yul\":6083:6117   */\n      dup3\n      swap1\n      mstore\n      0x00\n      sub(shl(0xfb, 0x01), 0x01)\n        /* \"#utility.yul\":6129:6160   */\n      dup4\n      gt\n        /* \"#utility.yul\":6126:6177   */\n      iszero\n      tag_329\n      jumpi\n        /* \"#utility.yul\":6173:6174   */\n      0x00\n        /* \"#utility.yul\":6170:6171   */\n      dup1\n        /* \"#utility.yul\":6163:6175   */\n      revert\n        /* \"#utility.yul\":6126:6177   */\n    tag_329:\n        /* \"#utility.yul\":6207:6213   */\n      dup3\n        /* \"#utility.yul\":6204:6205   */\n      0x05\n        /* \"#utility.yul\":6200:6214   */\n      shl\n        /* \"#utility.yul\":6264:6270   */\n      dup1\n        /* \"#utility.yul\":6256:6262   */\n      dup6\n        /* \"#utility.yul\":6251:6253   */\n      0x40\n        /* \"#utility.yul\":6240:6249   */\n      dup6\n        /* \"#utility.yul\":6236:6254   */\n      add\n        /* \"#utility.yul\":6223:6271   */\n      calldatacopy\n        /* \"#utility.yul\":6292:6314   */\n      swap2\n      swap1\n      swap2\n      add\n        /* \"#utility.yul\":6316:6318   */\n      0x40\n        /* \"#utility.yul\":6288:6319   */\n      add\n      swap4\n        /* \"#utility.yul\":5882:6325   */\n      swap3\n      pop\n      pop\n      pop\n      jump\t// out\n        /* \"#utility.yul\":9241:9648   */\n    tag_262:\n        /* \"#utility.yul\":9443:9445   */\n      0x20\n        /* \"#utility.yul\":9425:9446   */\n      dup1\n      dup3\n      mstore\n        /* \"#utility.yul\":9482:9484   */\n      0x2b\n        /* \"#utility.yul\":9462:9480   */\n      swap1\n      dup3\n      add\n        /* \"#utility.yul\":9455:9485   */\n      mstore\n        /* \"#utility.yul\":9521:9555   */\n      0x496e697469616c697a61626c653a20636f6e7472616374206973206e6f742069\n        /* \"#utility.yul\":9516:9518   */\n      0x40\n        /* \"#utility.yul\":9501:9519   */\n      dup3\n      add\n        /* \"#utility.yul\":9494:9556   */\n      mstore\n      shl(0xa8, 0x6e697469616c697a696e67)\n        /* \"#utility.yul\":9587:9589   */\n      0x60\n        /* \"#utility.yul\":9572:9590   */\n      dup3\n      add\n        /* \"#utility.yul\":9565:9606   */\n      mstore\n        /* \"#utility.yul\":9638:9641   */\n      0x80\n        /* \"#utility.yul\":9623:9642   */\n      add\n      swap1\n        /* \"#utility.yul\":9241:9648   */\n      jump\t// out\n\n    auxdata: 0xa26469706673582212205f9d008637fb8bf91afd63b530f24bce652d56861310e076d31e260b440645fb64736f6c63430008110033\n}\n",
				"bytecode": {
					"linkReferences": {},
					"object": "608060405234801561001057600080fd5b50611451806100206000396000f3fe608060405234801561001057600080fd5b50600436106100b45760003560e01c8063b93d28eb11610071578063b93d28eb1461014c578063c28fb2781461015f578063d9dd24c51461017f578063e1c7392a14610187578063ef2ed1a41461018f578063f2fde38b146101a257600080fd5b806304bc7e84146100b957806334a89987146100ce57806352c111d1146100f6578063715018a6146101165780638da5cb5b1461011e5780639f63ea9814610139575b600080fd5b6100cc6100c7366004611137565b6101b5565b005b6100e16100dc3660046111bf565b610551565b60405190151581526020015b60405180910390f35b6101096101043660046111eb565b610611565b6040516100ed9190611204565b6100cc61067d565b6033546040516001600160a01b0390911681526020016100ed565b6100cc610147366004611137565b610691565b6100cc61015a366004611251565b610918565b61017261016d366004611251565b610cb9565b6040516100ed9190611275565b610109610d8b565b6100cc610ded565b6100e161019d366004611251565b610efe565b6100cc6101b0366004611251565b610f2c565b6101bd610fa2565b6001600160a01b0383166101ec5760405162461bcd60e51b81526004016101e3906112ad565b60405180910390fd5b6001600160a01b038316600090815260666020526040812054900361024a5760405162461bcd60e51b81526020600482015260146024820152732727aa1030903a393ab9ba32b21034b9b9bab2b960611b60448201526064016101e3565b600f81111561026b5760405162461bcd60e51b81526004016101e3906112e4565b806102b85760405162461bcd60e51b815260206004820152601c60248201527f636c61696d20746f706963732063616e6e6f7420626520656d7074790000000060448201526064016101e3565b60005b6001600160a01b03841660009081526066602052604090205481101561046c576001600160a01b038416600090815260666020526040812080548390811061030557610305611329565b600091825260208083209091015480835260679091526040822054909250905b8181101561045657600083815260676020526040902080546001600160a01b03891691908390811061035957610359611329565b6000918252602090912001546001600160a01b03160361044457600083815260676020526040902061038c600184611355565b8154811061039c5761039c611329565b60009182526020808320909101548583526067909152604090912080546001600160a01b0390921691839081106103d5576103d5611329565b600091825260208083209190910180546001600160a01b0319166001600160a01b03949094169390931790925584815260679091526040902080548061041d5761041d611368565b600082815260209020810160001990810180546001600160a01b0319169055019055610456565b8061044e8161137e565b915050610325565b50505080806104649061137e565b9150506102bb565b506001600160a01b03831660009081526066602052604090206104909083836110a8565b5060005b8181101561050857606760008484848181106104b2576104b2611329565b6020908102929092013583525081810192909252604001600090812080546001810182559082529190200180546001600160a01b0319166001600160a01b038616179055806105008161137e565b915050610494565b50826001600160a01b03167fec753cfc52044f61676f18a11e500093a9f2b1cd5e4942bc476f2b0438159bcf8383604051610544929190611397565b60405180910390a2505050565b6001600160a01b03821660009081526066602090815260408083208054825181850281018501909352808352928492919084908301828280156105b357602002820191906000526020600020905b81548152602001906001019080831161059f575b5050505050905060005b8281101561060357848282815181106105d8576105d8611329565b6020026020010151036105f1576001935050505061060b565b806105fb8161137e565b9150506105bd565b506000925050505b92915050565b60008181526067602090815260409182902080548351818402810184019094528084526060939283018282801561067157602002820191906000526020600020905b81546001600160a01b03168152600190910190602001808311610653575b50505050509050919050565b610685610fa2565b61068f6000610ffc565b565b610699610fa2565b6001600160a01b0383166106bf5760405162461bcd60e51b81526004016101e3906112ad565b6001600160a01b038316600090815260666020526040902054156107255760405162461bcd60e51b815260206004820152601d60248201527f747275737465642049737375657220616c72656164792065786973747300000060448201526064016101e3565b8061077e5760405162461bcd60e51b8152602060048201526024808201527f7472757374656420636c61696d20746f706963732063616e6e6f7420626520656044820152636d70747960e01b60648201526084016101e3565b600f81111561079f5760405162461bcd60e51b81526004016101e3906112e4565b6065546032116108025760405162461bcd60e51b815260206004820152602860248201527f63616e6e6f742068617665206d6f7265207468616e2035302074727573746564604482015267206973737565727360c01b60648201526084016101e3565b60658054600181019091557f8ff97419363ffd7000167f130ef7168fbea05faf9251824ca5043f113cc6a7c70180546001600160a01b0319166001600160a01b03851690811790915560009081526066602052604090206108649083836110a8565b5060005b818110156108dc576067600084848481811061088657610886611329565b6020908102929092013583525081810192909252604001600090812080546001810182559082529190200180546001600160a01b0319166001600160a01b038616179055806108d48161137e565b915050610868565b50826001600160a01b03167ffedc33fd34859594822c0ff6f3f4f9fc279cc6d5cae53068f706a088e45008728383604051610544929190611397565b610920610fa2565b6001600160a01b0381166109465760405162461bcd60e51b81526004016101e3906112ad565b6001600160a01b03811660009081526066602052604081205490036109a45760405162461bcd60e51b81526020600482015260146024820152732727aa1030903a393ab9ba32b21034b9b9bab2b960611b60448201526064016101e3565b60655460005b81811015610aaa57826001600160a01b0316606582815481106109cf576109cf611329565b6000918252602090912001546001600160a01b031603610a985760656109f6600184611355565b81548110610a0657610a06611329565b600091825260209091200154606580546001600160a01b039092169183908110610a3257610a32611329565b9060005260206000200160006101000a8154816001600160a01b0302191690836001600160a01b031602179055506065805480610a7157610a71611368565b600082815260209020810160001990810180546001600160a01b0319169055019055610aaa565b80610aa28161137e565b9150506109aa565b5060005b6001600160a01b038316600090815260666020526040902054811015610c5f576001600160a01b0383166000908152606660205260408120805483908110610af857610af8611329565b600091825260208083209091015480835260679091526040822054909250905b81811015610c4957600083815260676020526040902080546001600160a01b038816919083908110610b4c57610b4c611329565b6000918252602090912001546001600160a01b031603610c37576000838152606760205260409020610b7f600184611355565b81548110610b8f57610b8f611329565b60009182526020808320909101548583526067909152604090912080546001600160a01b039092169183908110610bc857610bc8611329565b600091825260208083209190910180546001600160a01b0319166001600160a01b039490941693909317909255848152606790915260409020805480610c1057610c10611368565b600082815260209020810160001990810180546001600160a01b0319169055019055610c49565b80610c418161137e565b915050610b18565b5050508080610c579061137e565b915050610aae565b506001600160a01b0382166000908152606660205260408120610c81916110f3565b6040516001600160a01b038316907f2214ded40113cc3fb63fc206cafee88270b0a903dac7245d54efdde30ebb032190600090a25050565b6001600160a01b03811660009081526066602052604081205460609103610d225760405162461bcd60e51b815260206004820152601c60248201527f747275737465642049737375657220646f65736e27742065786973740000000060448201526064016101e3565b6001600160a01b0382166000908152606660209081526040918290208054835181840281018401909452808452909183018282801561067157602002820191906000526020600020905b815481526020019060010190808311610d6c5750505050509050919050565b60606065805480602002602001604051908101604052809291908181526020018280548015610de357602002820191906000526020600020905b81546001600160a01b03168152600190910190602001808311610dc5575b5050505050905090565b600054610100900460ff1615808015610e0d5750600054600160ff909116105b80610e275750303b158015610e27575060005460ff166001145b610e8a5760405162461bcd60e51b815260206004820152602e60248201527f496e697469616c697a61626c653a20636f6e747261637420697320616c72656160448201526d191e481a5b9a5d1a585b1a5e995960921b60648201526084016101e3565b6000805460ff191660011790558015610ead576000805461ff0019166101001790555b610eb561104e565b8015610efb576000805461ff0019169055604051600181527f7f26b83ff96e1f2b6a682f133852f6798a09c465da95921460cefb38474024989060200160405180910390a15b50565b6001600160a01b03811660009081526066602052604081205415610f2457506001919050565b506000919050565b610f34610fa2565b6001600160a01b038116610f995760405162461bcd60e51b815260206004820152602660248201527f4f776e61626c653a206e6577206f776e657220697320746865207a65726f206160448201526564647265737360d01b60648201526084016101e3565b610efb81610ffc565b6033546001600160a01b0316331461068f5760405162461bcd60e51b815260206004820181905260248201527f4f776e61626c653a2063616c6c6572206973206e6f7420746865206f776e657260448201526064016101e3565b603380546001600160a01b038381166001600160a01b0319831681179093556040519116919082907f8be0079c531659141344cd1fd0a4f28419497f9722a3daafe3b4186f6b6457e090600090a35050565b600054610100900460ff166110755760405162461bcd60e51b81526004016101e3906113d0565b61068f600054610100900460ff1661109f5760405162461bcd60e51b81526004016101e3906113d0565b61068f33610ffc565b8280548282559060005260206000209081019282156110e3579160200282015b828111156110e35782358255916020019190600101906110c8565b506110ef92915061110d565b5090565b5080546000825590600052602060002090810190610efb91905b5b808211156110ef576000815560010161110e565b6001600160a01b0381168114610efb57600080fd5b60008060006040848603121561114c57600080fd5b833561115781611122565b9250602084013567ffffffffffffffff8082111561117457600080fd5b818601915086601f83011261118857600080fd5b81358181111561119757600080fd5b8760208260051b85010111156111ac57600080fd5b6020830194508093505050509250925092565b600080604083850312156111d257600080fd5b82356111dd81611122565b946020939093013593505050565b6000602082840312156111fd57600080fd5b5035919050565b6020808252825182820181905260009190848201906040850190845b818110156112455783516001600160a01b031683529284019291840191600101611220565b50909695505050505050565b60006020828403121561126357600080fd5b813561126e81611122565b9392505050565b6020808252825182820181905260009190848201906040850190845b8181101561124557835183529284019291840191600101611291565b6020808252601f908201527f696e76616c696420617267756d656e74202d207a65726f206164647265737300604082015260600190565b60208082526025908201527f63616e6e6f742068617665206d6f7265207468616e20313520636c61696d20746040820152646f7069637360d81b606082015260800190565b634e487b7160e01b600052603260045260246000fd5b634e487b7160e01b600052601160045260246000fd5b8181038181111561060b5761060b61133f565b634e487b7160e01b600052603160045260246000fd5b6000600182016113905761139061133f565b5060010190565b6020808252810182905260006001600160fb1b038311156113b757600080fd5b8260051b80856040850137919091016040019392505050565b6020808252602b908201527f496e697469616c697a61626c653a20636f6e7472616374206973206e6f74206960408201526a6e697469616c697a696e6760a81b60608201526080019056fea26469706673582212205f9d008637fb8bf91afd63b530f24bce652d56861310e076d31e260b440645fb64736f6c63430008110033",
					"opcodes": "PUSH1 0x80 PUSH1 0x40 MSTORE CALLVALUE DUP1 ISZERO PUSH2 0x10 JUMPI PUSH1 0x0 DUP1 REVERT JUMPDEST POP PUSH2 0x1451 DUP1 PUSH2 0x20 PUSH1 0x0 CODECOPY PUSH1 0x0 RETURN INVALID PUSH1 0x80 PUSH1 0x40 MSTORE CALLVALUE DUP1 ISZERO PUSH2 0x10 JUMPI PUSH1 0x0 DUP1 REVERT JUMPDEST POP PUSH1 0x4 CALLDATASIZE LT PUSH2 0xB4 JUMPI PUSH1 0x0 CALLDATALOAD PUSH1 0xE0 SHR DUP1 PUSH4 0xB93D28EB GT PUSH2 0x71 JUMPI DUP1 PUSH4 0xB93D28EB EQ PUSH2 0x14C JUMPI DUP1 PUSH4 0xC28FB278 EQ PUSH2 0x15F JUMPI DUP1 PUSH4 0xD9DD24C5 EQ PUSH2 0x17F JUMPI DUP1 PUSH4 0xE1C7392A EQ PUSH2 0x187 JUMPI DUP1 PUSH4 0xEF2ED1A4 EQ PUSH2 0x18F JUMPI DUP1 PUSH4 0xF2FDE38B EQ PUSH2 0x1A2 JUMPI PUSH1 0x0 DUP1 REVERT JUMPDEST DUP1 PUSH4 0x4BC7E84 EQ PUSH2 0xB9 JUMPI DUP1 PUSH4 0x34A89987 EQ PUSH2 0xCE JUMPI DUP1 PUSH4 0x52C111D1 EQ PUSH2 0xF6 JUMPI DUP1 PUSH4 0x715018A6 EQ PUSH2 0x116 JUMPI DUP1 PUSH4 0x8DA5CB5B EQ PUSH2 0x11E JUMPI DUP1 PUSH4 0x9F63EA98 EQ PUSH2 0x139 JUMPI JUMPDEST PUSH1 0x0 DUP1 REVERT JUMPDEST PUSH2 0xCC PUSH2 0xC7 CALLDATASIZE PUSH1 0x4 PUSH2 0x1137 JUMP JUMPDEST PUSH2 0x1B5 JUMP JUMPDEST STOP JUMPDEST PUSH2 0xE1 PUSH2 0xDC CALLDATASIZE PUSH1 0x4 PUSH2 0x11BF JUMP JUMPDEST PUSH2 0x551 JUMP JUMPDEST PUSH1 0x40 MLOAD SWAP1 ISZERO ISZERO DUP2 MSTORE PUSH1 0x20 ADD JUMPDEST PUSH1 0x40 MLOAD DUP1 SWAP2 SUB SWAP1 RETURN JUMPDEST PUSH2 0x109 PUSH2 0x104 CALLDATASIZE PUSH1 0x4 PUSH2 0x11EB JUMP JUMPDEST PUSH2 0x611 JUMP JUMPDEST PUSH1 0x40 MLOAD PUSH2 0xED SWAP2 SWAP1 PUSH2 0x1204 JUMP JUMPDEST PUSH2 0xCC PUSH2 0x67D JUMP JUMPDEST PUSH1 0x33 SLOAD PUSH1 0x40 MLOAD PUSH1 0x1 PUSH1 0x1 PUSH1 0xA0 SHL SUB SWAP1 SWAP2 AND DUP2 MSTORE PUSH1 0x20 ADD PUSH2 0xED JUMP JUMPDEST PUSH2 0xCC PUSH2 0x147 CALLDATASIZE PUSH1 0x4 PUSH2 0x1137 JUMP JUMPDEST PUSH2 0x691 JUMP JUMPDEST PUSH2 0xCC PUSH2 0x15A CALLDATASIZE PUSH1 0x4 PUSH2 0x1251 JUMP JUMPDEST PUSH2 0x918 JUMP JUMPDEST PUSH2 0x172 PUSH2 0x16D CALLDATASIZE PUSH1 0x4 PUSH2 0x1251 JUMP JUMPDEST PUSH2 0xCB9 JUMP JUMPDEST PUSH1 0x40 MLOAD PUSH2 0xED SWAP2 SWAP1 PUSH2 0x1275 JUMP JUMPDEST PUSH2 0x109 PUSH2 0xD8B JUMP JUMPDEST PUSH2 0xCC PUSH2 0xDED JUMP JUMPDEST PUSH2 0xE1 PUSH2 0x19D CALLDATASIZE PUSH1 0x4 PUSH2 0x1251 JUMP JUMPDEST PUSH2 0xEFE JUMP JUMPDEST PUSH2 0xCC PUSH2 0x1B0 CALLDATASIZE PUSH1 0x4 PUSH2 0x1251 JUMP JUMPDEST PUSH2 0xF2C JUMP JUMPDEST PUSH2 0x1BD PUSH2 0xFA2 JUMP JUMPDEST PUSH1 0x1 PUSH1 0x1 PUSH1 0xA0 SHL SUB DUP4 AND PUSH2 0x1EC JUMPI PUSH1 0x40 MLOAD PUSH3 0x461BCD PUSH1 0xE5 SHL DUP2 MSTORE PUSH1 0x4 ADD PUSH2 0x1E3 SWAP1 PUSH2 0x12AD JUMP JUMPDEST PUSH1 0x40 MLOAD DUP1 SWAP2 SUB SWAP1 REVERT JUMPDEST PUSH1 0x1 PUSH1 0x1 PUSH1 0xA0 SHL SUB DUP4 AND PUSH1 0x0 SWAP1 DUP2 MSTORE PUSH1 0x66 PUSH1 0x20 MSTORE PUSH1 0x40 DUP2 KECCAK256 SLOAD SWAP1 SUB PUSH2 0x24A JUMPI PUSH1 0x40 MLOAD PUSH3 0x461BCD PUSH1 0xE5 SHL DUP2 MSTORE PUSH1 0x20 PUSH1 0x4 DUP3 ADD MSTORE PUSH1 0x14 PUSH1 0x24 DUP3 ADD MSTORE PUSH20 0x2727AA1030903A393AB9BA32B21034B9B9BAB2B9 PUSH1 0x61 SHL PUSH1 0x44 DUP3 ADD MSTORE PUSH1 0x64 ADD PUSH2 0x1E3 JUMP JUMPDEST PUSH1 0xF DUP2 GT ISZERO PUSH2 0x26B JUMPI PUSH1 0x40 MLOAD PUSH3 0x461BCD PUSH1 0xE5 SHL DUP2 MSTORE PUSH1 0x4 ADD PUSH2 0x1E3 SWAP1 PUSH2 0x12E4 JUMP JUMPDEST DUP1 PUSH2 0x2B8 JUMPI PUSH1 0x40 MLOAD PUSH3 0x461BCD PUSH1 0xE5 SHL DUP2 MSTORE PUSH1 0x20 PUSH1 0x4 DUP3 ADD MSTORE PUSH1 0x1C PUSH1 0x24 DUP3 ADD MSTORE PUSH32 0x636C61696D20746F706963732063616E6E6F7420626520656D70747900000000 PUSH1 0x44 DUP3 ADD MSTORE PUSH1 0x64 ADD PUSH2 0x1E3 JUMP JUMPDEST PUSH1 0x0 JUMPDEST PUSH1 0x1 PUSH1 0x1 PUSH1 0xA0 SHL SUB DUP5 AND PUSH1 0x0 SWAP1 DUP2 MSTORE PUSH1 0x66 PUSH1 0x20 MSTORE PUSH1 0x40 SWAP1 KECCAK256 SLOAD DUP2 LT ISZERO PUSH2 0x46C JUMPI PUSH1 0x1 PUSH1 0x1 PUSH1 0xA0 SHL SUB DUP5 AND PUSH1 0x0 SWAP1 DUP2 MSTORE PUSH1 0x66 PUSH1 0x20 MSTORE PUSH1 0x40 DUP2 KECCAK256 DUP1 SLOAD DUP4 SWAP1 DUP2 LT PUSH2 0x305 JUMPI PUSH2 0x305 PUSH2 0x1329 JUMP JUMPDEST PUSH1 0x0 SWAP2 DUP3 MSTORE PUSH1 0x20 DUP1 DUP4 KECCAK256 SWAP1 SWAP2 ADD SLOAD DUP1 DUP4 MSTORE PUSH1 0x67 SWAP1 SWAP2 MSTORE PUSH1 0x40 DUP3 KECCAK256 SLOAD SWAP1 SWAP3 POP SWAP1 JUMPDEST DUP2 DUP2 LT ISZERO PUSH2 0x456 JUMPI PUSH1 0x0 DUP4 DUP2 MSTORE PUSH1 0x67 PUSH1 0x20 MSTORE PUSH1 0x40 SWAP1 KECCAK256 DUP1 SLOAD PUSH1 0x1 PUSH1 0x1 PUSH1 0xA0 SHL SUB DUP10 AND SWAP2 SWAP1 DUP4 SWAP1 DUP2 LT PUSH2 0x359 JUMPI PUSH2 0x359 PUSH2 0x1329 JUMP JUMPDEST PUSH1 0x0 SWAP2 DUP3 MSTORE PUSH1 0x20 SWAP1 SWAP2 KECCAK256 ADD SLOAD PUSH1 0x1 PUSH1 0x1 PUSH1 0xA0 SHL SUB AND SUB PUSH2 0x444 JUMPI PUSH1 0x0 DUP4 DUP2 MSTORE PUSH1 0x67 PUSH1 0x20 MSTORE PUSH1 0x40 SWAP1 KECCAK256 PUSH2 0x38C PUSH1 0x1 DUP5 PUSH2 0x1355 JUMP JUMPDEST DUP2 SLOAD DUP2 LT PUSH2 0x39C JUMPI PUSH2 0x39C PUSH2 0x1329 JUMP JUMPDEST PUSH1 0x0 SWAP2 DUP3 MSTORE PUSH1 0x20 DUP1 DUP4 KECCAK256 SWAP1 SWAP2 ADD SLOAD DUP6 DUP4 MSTORE PUSH1 0x67 SWAP1 SWAP2 MSTORE PUSH1 0x40 SWAP1 SWAP2 KECCAK256 DUP1 SLOAD PUSH1 0x1 PUSH1 0x1 PUSH1 0xA0 SHL SUB SWAP1 SWAP3 AND SWAP2 DUP4 SWAP1 DUP2 LT PUSH2 0x3D5 JUMPI PUSH2 0x3D5 PUSH2 0x1329 JUMP JUMPDEST PUSH1 0x0 SWAP2 DUP3 MSTORE PUSH1 0x20 DUP1 DUP4 KECCAK256 SWAP2 SWAP1 SWAP2 ADD DUP1 SLOAD PUSH1 0x1 PUSH1 0x1 PUSH1 0xA0 SHL SUB NOT AND PUSH1 0x1 PUSH1 0x1 PUSH1 0xA0 SHL SUB SWAP5 SWAP1 SWAP5 AND SWAP4 SWAP1 SWAP4 OR SWAP1 SWAP3 SSTORE DUP5 DUP2 MSTORE PUSH1 0x67 SWAP1 SWAP2 MSTORE PUSH1 0x40 SWAP1 KECCAK256 DUP1 SLOAD DUP1 PUSH2 0x41D JUMPI PUSH2 0x41D PUSH2 0x1368 JUMP JUMPDEST PUSH1 0x0 DUP3 DUP2 MSTORE PUSH1 0x20 SWAP1 KECCAK256 DUP2 ADD PUSH1 0x0 NOT SWAP1 DUP2 ADD DUP1 SLOAD PUSH1 0x1 PUSH1 0x1 PUSH1 0xA0 SHL SUB NOT AND SWAP1 SSTORE ADD SWAP1 SSTORE PUSH2 0x456 JUMP JUMPDEST DUP1 PUSH2 0x44E DUP2 PUSH2 0x137E JUMP JUMPDEST SWAP2 POP POP PUSH2 0x325 JUMP JUMPDEST POP POP POP DUP1 DUP1 PUSH2 0x464 SWAP1 PUSH2 0x137E JUMP JUMPDEST SWAP2 POP POP PUSH2 0x2BB JUMP JUMPDEST POP PUSH1 0x1 PUSH1 0x1 PUSH1 0xA0 SHL SUB DUP4 AND PUSH1 0x0 SWAP1 DUP2 MSTORE PUSH1 0x66 PUSH1 0x20 MSTORE PUSH1 0x40 SWAP1 KECCAK256 PUSH2 0x490 SWAP1 DUP4 DUP4 PUSH2 0x10A8 JUMP JUMPDEST POP PUSH1 0x0 JUMPDEST DUP2 DUP2 LT ISZERO PUSH2 0x508 JUMPI PUSH1 0x67 PUSH1 0x0 DUP5 DUP5 DUP5 DUP2 DUP2 LT PUSH2 0x4B2 JUMPI PUSH2 0x4B2 PUSH2 0x1329 JUMP JUMPDEST PUSH1 0x20 SWAP1 DUP2 MUL SWAP3 SWAP1 SWAP3 ADD CALLDATALOAD DUP4 MSTORE POP DUP2 DUP2 ADD SWAP3 SWAP1 SWAP3 MSTORE PUSH1 0x40 ADD PUSH1 0x0 SWAP1 DUP2 KECCAK256 DUP1 SLOAD PUSH1 0x1 DUP2 ADD DUP3 SSTORE SWAP1 DUP3 MSTORE SWAP2 SWAP1 KECCAK256 ADD DUP1 SLOAD PUSH1 0x1 PUSH1 0x1 PUSH1 0xA0 SHL SUB NOT AND PUSH1 0x1 PUSH1 0x1 PUSH1 0xA0 SHL SUB DUP7 AND OR SWAP1 SSTORE DUP1 PUSH2 0x500 DUP2 PUSH2 0x137E JUMP JUMPDEST SWAP2 POP POP PUSH2 0x494 JUMP JUMPDEST POP DUP3 PUSH1 0x1 PUSH1 0x1 PUSH1 0xA0 SHL SUB AND PUSH32 0xEC753CFC52044F61676F18A11E500093A9F2B1CD5E4942BC476F2B0438159BCF DUP4 DUP4 PUSH1 0x40 MLOAD PUSH2 0x544 SWAP3 SWAP2 SWAP1 PUSH2 0x1397 JUMP JUMPDEST PUSH1 0x40 MLOAD DUP1 SWAP2 SUB SWAP1 LOG2 POP POP POP JUMP JUMPDEST PUSH1 0x1 PUSH1 0x1 PUSH1 0xA0 SHL SUB DUP3 AND PUSH1 0x0 SWAP1 DUP2 MSTORE PUSH1 0x66 PUSH1 0x20 SWAP1 DUP2 MSTORE PUSH1 0x40 DUP1 DUP4 KECCAK256 DUP1 SLOAD DUP3 MLOAD DUP2 DUP6 MUL DUP2 ADD DUP6 ADD SWAP1 SWAP4 MSTORE DUP1 DUP4 MSTORE SWAP3 DUP5 SWAP3 SWAP2 SWAP1 DUP5 SWAP1 DUP4 ADD DUP3 DUP3 DUP1 ISZERO PUSH2 0x5B3 JUMPI PUSH1 0x20 MUL DUP3 ADD SWAP2 SWAP1 PUSH1 0x0 MSTORE PUSH1 0x20 PUSH1 0x0 KECCAK256 SWAP1 JUMPDEST DUP2 SLOAD DUP2 MSTORE PUSH1 0x20 ADD SWAP1 PUSH1 0x1 ADD SWAP1 DUP1 DUP4 GT PUSH2 0x59F JUMPI JUMPDEST POP POP POP POP POP SWAP1 POP PUSH1 0x0 JUMPDEST DUP3 DUP2 LT ISZERO PUSH2 0x603 JUMPI DUP5 DUP3 DUP3 DUP2 MLOAD DUP2 LT PUSH2 0x5D8 JUMPI PUSH2 0x5D8 PUSH2 0x1329 JUMP JUMPDEST PUSH1 0x20 MUL PUSH1 0x20 ADD ADD MLOAD SUB PUSH2 0x5F1 JUMPI PUSH1 0x1 SWAP4 POP POP POP POP PUSH2 0x60B JUMP JUMPDEST DUP1 PUSH2 0x5FB DUP2 PUSH2 0x137E JUMP JUMPDEST SWAP2 POP POP PUSH2 0x5BD JUMP JUMPDEST POP PUSH1 0x0 SWAP3 POP POP POP JUMPDEST SWAP3 SWAP2 POP POP JUMP JUMPDEST PUSH1 0x0 DUP2 DUP2 MSTORE PUSH1 0x67 PUSH1 0x20 SWAP1 DUP2 MSTORE PUSH1 0x40 SWAP2 DUP3 SWAP1 KECCAK256 DUP1 SLOAD DUP4 MLOAD DUP2 DUP5 MUL DUP2 ADD DUP5 ADD SWAP1 SWAP5 MSTORE DUP1 DUP5 MSTORE PUSH1 0x60 SWAP4 SWAP3 DUP4 ADD DUP3 DUP3 DUP1 ISZERO PUSH2 0x671 JUMPI PUSH1 0x20 MUL DUP3 ADD SWAP2 SWAP1 PUSH1 0x0 MSTORE PUSH1 0x20 PUSH1 0x0 KECCAK256 SWAP1 JUMPDEST DUP2 SLOAD PUSH1 0x1 PUSH1 0x1 PUSH1 0xA0 SHL SUB AND DUP2 MSTORE PUSH1 0x1 SWAP1 SWAP2 ADD SWAP1 PUSH1 0x20 ADD DUP1 DUP4 GT PUSH2 0x653 JUMPI JUMPDEST POP POP POP POP POP SWAP1 POP SWAP2 SWAP1 POP JUMP JUMPDEST PUSH2 0x685 PUSH2 0xFA2 JUMP JUMPDEST PUSH2 0x68F PUSH1 0x0 PUSH2 0xFFC JUMP JUMPDEST JUMP JUMPDEST PUSH2 0x699 PUSH2 0xFA2 JUMP JUMPDEST PUSH1 0x1 PUSH1 0x1 PUSH1 0xA0 SHL SUB DUP4 AND PUSH2 0x6BF JUMPI PUSH1 0x40 MLOAD PUSH3 0x461BCD PUSH1 0xE5 SHL DUP2 MSTORE PUSH1 0x4 ADD PUSH2 0x1E3 SWAP1 PUSH2 0x12AD JUMP JUMPDEST PUSH1 0x1 PUSH1 0x1 PUSH1 0xA0 SHL SUB DUP4 AND PUSH1 0x0 SWAP1 DUP2 MSTORE PUSH1 0x66 PUSH1 0x20 MSTORE PUSH1 0x40 SWAP1 KECCAK256 SLOAD ISZERO PUSH2 0x725 JUMPI PUSH1 0x40 MLOAD PUSH3 0x461BCD PUSH1 0xE5 SHL DUP2 MSTORE PUSH1 0x20 PUSH1 0x4 DUP3 ADD MSTORE PUSH1 0x1D PUSH1 0x24 DUP3 ADD MSTORE PUSH32 0x747275737465642049737375657220616C726561647920657869737473000000 PUSH1 0x44 DUP3 ADD MSTORE PUSH1 0x64 ADD PUSH2 0x1E3 JUMP JUMPDEST DUP1 PUSH2 0x77E JUMPI PUSH1 0x40 MLOAD PUSH3 0x461BCD PUSH1 0xE5 SHL DUP2 MSTORE PUSH1 0x20 PUSH1 0x4 DUP3 ADD MSTORE PUSH1 0x24 DUP1 DUP3 ADD MSTORE PUSH32 0x7472757374656420636C61696D20746F706963732063616E6E6F742062652065 PUSH1 0x44 DUP3 ADD MSTORE PUSH4 0x6D707479 PUSH1 0xE0 SHL PUSH1 0x64 DUP3 ADD MSTORE PUSH1 0x84 ADD PUSH2 0x1E3 JUMP JUMPDEST PUSH1 0xF DUP2 GT ISZERO PUSH2 0x79F JUMPI PUSH1 0x40 MLOAD PUSH3 0x461BCD PUSH1 0xE5 SHL DUP2 MSTORE PUSH1 0x4 ADD PUSH2 0x1E3 SWAP1 PUSH2 0x12E4 JUMP JUMPDEST PUSH1 0x65 SLOAD PUSH1 0x32 GT PUSH2 0x802 JUMPI PUSH1 0x40 MLOAD PUSH3 0x461BCD PUSH1 0xE5 SHL DUP2 MSTORE PUSH1 0x20 PUSH1 0x4 DUP3 ADD MSTORE PUSH1 0x28 PUSH1 0x24 DUP3 ADD MSTORE PUSH32 0x63616E6E6F742068617665206D6F7265207468616E2035302074727573746564 PUSH1 0x44 DUP3 ADD MSTORE PUSH8 0x2069737375657273 PUSH1 0xC0 SHL PUSH1 0x64 DUP3 ADD MSTORE PUSH1 0x84 ADD PUSH2 0x1E3 JUMP JUMPDEST PUSH1 0x65 DUP1 SLOAD PUSH1 0x1 DUP2 ADD SWAP1 SWAP2 SSTORE PUSH32 0x8FF97419363FFD7000167F130EF7168FBEA05FAF9251824CA5043F113CC6A7C7 ADD DUP1 SLOAD PUSH1 0x1 PUSH1 0x1 PUSH1 0xA0 SHL SUB NOT AND PUSH1 0x1 PUSH1 0x1 PUSH1 0xA0 SHL SUB DUP6 AND SWAP1 DUP2 OR SWAP1 SWAP2 SSTORE PUSH1 0x0 SWAP1 DUP2 MSTORE PUSH1 0x66 PUSH1 0x20 MSTORE PUSH1 0x40 SWAP1 KECCAK256 PUSH2 0x864 SWAP1 DUP4 DUP4 PUSH2 0x10A8 JUMP JUMPDEST POP PUSH1 0x0 JUMPDEST DUP2 DUP2 LT ISZERO PUSH2 0x8DC JUMPI PUSH1 0x67 PUSH1 0x0 DUP5 DUP5 DUP5 DUP2 DUP2 LT PUSH2 0x886 JUMPI PUSH2 0x886 PUSH2 0x1329 JUMP JUMPDEST PUSH1 0x20 SWAP1 DUP2 MUL SWAP3 SWAP1 SWAP3 ADD CALLDATALOAD DUP4 MSTORE POP DUP2 DUP2 ADD SWAP3 SWAP1 SWAP3 MSTORE PUSH1 0x40 ADD PUSH1 0x0 SWAP1 DUP2 KECCAK256 DUP1 SLOAD PUSH1 0x1 DUP2 ADD DUP3 SSTORE SWAP1 DUP3 MSTORE SWAP2 SWAP1 KECCAK256 ADD DUP1 SLOAD PUSH1 0x1 PUSH1 0x1 PUSH1 0xA0 SHL SUB NOT AND PUSH1 0x1 PUSH1 0x1 PUSH1 0xA0 SHL SUB DUP7 AND OR SWAP1 SSTORE DUP1 PUSH2 0x8D4 DUP2 PUSH2 0x137E JUMP JUMPDEST SWAP2 POP POP PUSH2 0x868 JUMP JUMPDEST POP DUP3 PUSH1 0x1 PUSH1 0x1 PUSH1 0xA0 SHL SUB AND PUSH32 0xFEDC33FD34859594822C0FF6F3F4F9FC279CC6D5CAE53068F706A088E4500872 DUP4 DUP4 PUSH1 0x40 MLOAD PUSH2 0x544 SWAP3 SWAP2 SWAP1 PUSH2 0x1397 JUMP JUMPDEST PUSH2 0x920 PUSH2 0xFA2 JUMP JUMPDEST PUSH1 0x1 PUSH1 0x1 PUSH1 0xA0 SHL SUB DUP2 AND PUSH2 0x946 JUMPI PUSH1 0x40 MLOAD PUSH3 0x461BCD PUSH1 0xE5 SHL DUP2 MSTORE PUSH1 0x4 ADD PUSH2 0x1E3 SWAP1 PUSH2 0x12AD JUMP JUMPDEST PUSH1 0x1 PUSH1 0x1 PUSH1 0xA0 SHL SUB DUP2 AND PUSH1 0x0 SWAP1 DUP2 MSTORE PUSH1 0x66 PUSH1 0x20 MSTORE PUSH1 0x40 DUP2 KECCAK256 SLOAD SWAP1 SUB PUSH2 0x9A4 JUMPI PUSH1 0x40 MLOAD PUSH3 0x461BCD PUSH1 0xE5 SHL DUP2 MSTORE PUSH1 0x20 PUSH1 0x4 DUP3 ADD MSTORE PUSH1 0x14 PUSH1 0x24 DUP3 ADD MSTORE PUSH20 0x2727AA1030903A393AB9BA32B21034B9B9BAB2B9 PUSH1 0x61 SHL PUSH1 0x44 DUP3 ADD MSTORE PUSH1 0x64 ADD PUSH2 0x1E3 JUMP JUMPDEST PUSH1 0x65 SLOAD PUSH1 0x0 JUMPDEST DUP2 DUP2 LT ISZERO PUSH2 0xAAA JUMPI DUP3 PUSH1 0x1 PUSH1 0x1 PUSH1 0xA0 SHL SUB AND PUSH1 0x65 DUP3 DUP2 SLOAD DUP2 LT PUSH2 0x9CF JUMPI PUSH2 0x9CF PUSH2 0x1329 JUMP JUMPDEST PUSH1 0x0 SWAP2 DUP3 MSTORE PUSH1 0x20 SWAP1 SWAP2 KECCAK256 ADD SLOAD PUSH1 0x1 PUSH1 0x1 PUSH1 0xA0 SHL SUB AND SUB PUSH2 0xA98 JUMPI PUSH1 0x65 PUSH2 0x9F6 PUSH1 0x1 DUP5 PUSH2 0x1355 JUMP JUMPDEST DUP2 SLOAD DUP2 LT PUSH2 0xA06 JUMPI PUSH2 0xA06 PUSH2 0x1329 JUMP JUMPDEST PUSH1 0x0 SWAP2 DUP3 MSTORE PUSH1 0x20 SWAP1 SWAP2 KECCAK256 ADD SLOAD PUSH1 0x65 DUP1 SLOAD PUSH1 0x1 PUSH1 0x1 PUSH1 0xA0 SHL SUB SWAP1 SWAP3 AND SWAP2 DUP4 SWAP1 DUP2 LT PUSH2 0xA32 JUMPI PUSH2 0xA32 PUSH2 0x1329 JUMP JUMPDEST SWAP1 PUSH1 0x0 MSTORE PUSH1 0x20 PUSH1 0x0 KECCAK256 ADD PUSH1 0x0 PUSH2 0x100 EXP DUP2 SLOAD DUP2 PUSH1 0x1 PUSH1 0x1 PUSH1 0xA0 SHL SUB MUL NOT AND SWAP1 DUP4 PUSH1 0x1 PUSH1 0x1 PUSH1 0xA0 SHL SUB AND MUL OR SWAP1 SSTORE POP PUSH1 0x65 DUP1 SLOAD DUP1 PUSH2 0xA71 JUMPI PUSH2 0xA71 PUSH2 0x1368 JUMP JUMPDEST PUSH1 0x0 DUP3 DUP2 MSTORE PUSH1 0x20 SWAP1 KECCAK256 DUP2 ADD PUSH1 0x0 NOT SWAP1 DUP2 ADD DUP1 SLOAD PUSH1 0x1 PUSH1 0x1 PUSH1 0xA0 SHL SUB NOT AND SWAP1 SSTORE ADD SWAP1 SSTORE PUSH2 0xAAA JUMP JUMPDEST DUP1 PUSH2 0xAA2 DUP2 PUSH2 0x137E JUMP JUMPDEST SWAP2 POP POP PUSH2 0x9AA JUMP JUMPDEST POP PUSH1 0x0 JUMPDEST PUSH1 0x1 PUSH1 0x1 PUSH1 0xA0 SHL SUB DUP4 AND PUSH1 0x0 SWAP1 DUP2 MSTORE PUSH1 0x66 PUSH1 0x20 MSTORE PUSH1 0x40 SWAP1 KECCAK256 SLOAD DUP2 LT ISZERO PUSH2 0xC5F JUMPI PUSH1 0x1 PUSH1 0x1 PUSH1 0xA0 SHL SUB DUP4 AND PUSH1 0x0 SWAP1 DUP2 MSTORE PUSH1 0x66 PUSH1 0x20 MSTORE PUSH1 0x40 DUP2 KECCAK256 DUP1 SLOAD DUP4 SWAP1 DUP2 LT PUSH2 0xAF8 JUMPI PUSH2 0xAF8 PUSH2 0x1329 JUMP JUMPDEST PUSH1 0x0 SWAP2 DUP3 MSTORE PUSH1 0x20 DUP1 DUP4 KECCAK256 SWAP1 SWAP2 ADD SLOAD DUP1 DUP4 MSTORE PUSH1 0x67 SWAP1 SWAP2 MSTORE PUSH1 0x40 DUP3 KECCAK256 SLOAD SWAP1 SWAP3 POP SWAP1 JUMPDEST DUP2 DUP2 LT ISZERO PUSH2 0xC49 JUMPI PUSH1 0x0 DUP4 DUP2 MSTORE PUSH1 0x67 PUSH1 0x20 MSTORE PUSH1 0x40 SWAP1 KECCAK256 DUP1 SLOAD PUSH1 0x1 PUSH1 0x1 PUSH1 0xA0 SHL SUB DUP9 AND SWAP2 SWAP1 DUP4 SWAP1 DUP2 LT PUSH2 0xB4C JUMPI PUSH2 0xB4C PUSH2 0x1329 JUMP JUMPDEST PUSH1 0x0 SWAP2 DUP3 MSTORE PUSH1 0x20 SWAP1 SWAP2 KECCAK256 ADD SLOAD PUSH1 0x1 PUSH1 0x1 PUSH1 0xA0 SHL SUB AND SUB PUSH2 0xC37 JUMPI PUSH1 0x0 DUP4 DUP2 MSTORE PUSH1 0x67 PUSH1 0x20 MSTORE PUSH1 0x40 SWAP1 KECCAK256 PUSH2 0xB7F PUSH1 0x1 DUP5 PUSH2 0x1355 JUMP JUMPDEST DUP2 SLOAD DUP2 LT PUSH2 0xB8F JUMPI PUSH2 0xB8F PUSH2 0x1329 JUMP JUMPDEST PUSH1 0x0 SWAP2 DUP3 MSTORE PUSH1 0x20 DUP1 DUP4 KECCAK256 SWAP1 SWAP2 ADD SLOAD DUP6 DUP4 MSTORE PUSH1 0x67 SWAP1 SWAP2 MSTORE PUSH1 0x40 SWAP1 SWAP2 KECCAK256 DUP1 SLOAD PUSH1 0x1 PUSH1 0x1 PUSH1 0xA0 SHL SUB SWAP1 SWAP3 AND SWAP2 DUP4 SWAP1 DUP2 LT PUSH2 0xBC8 JUMPI PUSH2 0xBC8 PUSH2 0x1329 JUMP JUMPDEST PUSH1 0x0 SWAP2 DUP3 MSTORE PUSH1 0x20 DUP1 DUP4 KECCAK256 SWAP2 SWAP1 SWAP2 ADD DUP1 SLOAD PUSH1 0x1 PUSH1 0x1 PUSH1 0xA0 SHL SUB NOT AND PUSH1 0x1 PUSH1 0x1 PUSH1 0xA0 SHL SUB SWAP5 SWAP1 SWAP5 AND SWAP4 SWAP1 SWAP4 OR SWAP1 SWAP3 SSTORE DUP5 DUP2 MSTORE PUSH1 0x67 SWAP1 SWAP2 MSTORE PUSH1 0x40 SWAP1 KECCAK256 DUP1 SLOAD DUP1 PUSH2 0xC10 JUMPI PUSH2 0xC10 PUSH2 0x1368 JUMP JUMPDEST PUSH1 0x0 DUP3 DUP2 MSTORE PUSH1 0x20 SWAP1 KECCAK256 DUP2 ADD PUSH1 0x0 NOT SWAP1 DUP2 ADD DUP1 SLOAD PUSH1 0x1 PUSH1 0x1 PUSH1 0xA0 SHL SUB NOT AND SWAP1 SSTORE ADD SWAP1 SSTORE PUSH2 0xC49 JUMP JUMPDEST DUP1 PUSH2 0xC41 DUP2 PUSH2 0x137E JUMP JUMPDEST SWAP2 POP POP PUSH2 0xB18 JUMP JUMPDEST POP POP POP DUP1 DUP1 PUSH2 0xC57 SWAP1 PUSH2 0x137E JUMP JUMPDEST SWAP2 POP POP PUSH2 0xAAE JUMP JUMPDEST POP PUSH1 0x1 PUSH1 0x1 PUSH1 0xA0 SHL SUB DUP3 AND PUSH1 0x0 SWAP1 DUP2 MSTORE PUSH1 0x66 PUSH1 0x20 MSTORE PUSH1 0x40 DUP2 KECCAK256 PUSH2 0xC81 SWAP2 PUSH2 0x10F3 JUMP JUMPDEST PUSH1 0x40 MLOAD PUSH1 0x1 PUSH1 0x1 PUSH1 0xA0 SHL SUB DUP4 AND SWAP1 PUSH32 0x2214DED40113CC3FB63FC206CAFEE88270B0A903DAC7245D54EFDDE30EBB0321 SWAP1 PUSH1 0x0 SWAP1 LOG2 POP POP JUMP JUMPDEST PUSH1 0x1 PUSH1 0x1 PUSH1 0xA0 SHL SUB DUP2 AND PUSH1 0x0 SWAP1 DUP2 MSTORE PUSH1 0x66 PUSH1 0x20 MSTORE PUSH1 0x40 DUP2 KECCAK256 SLOAD PUSH1 0x60 SWAP2 SUB PUSH2 0xD22 JUMPI PUSH1 0x40 MLOAD PUSH3 0x461BCD PUSH1 0xE5 SHL DUP2 MSTORE PUSH1 0x20 PUSH1 0x4 DUP3 ADD MSTORE PUSH1 0x1C PUSH1 0x24 DUP3 ADD MSTORE PUSH32 0x747275737465642049737375657220646F65736E277420657869737400000000 PUSH1 0x44 DUP3 ADD MSTORE PUSH1 0x64 ADD PUSH2 0x1E3 JUMP JUMPDEST PUSH1 0x1 PUSH1 0x1 PUSH1 0xA0 SHL SUB DUP3 AND PUSH1 0x0 SWAP1 DUP2 MSTORE PUSH1 0x66 PUSH1 0x20 SWAP1 DUP2 MSTORE PUSH1 0x40 SWAP2 DUP3 SWAP1 KECCAK256 DUP1 SLOAD DUP4 MLOAD DUP2 DUP5 MUL DUP2 ADD DUP5 ADD SWAP1 SWAP5 MSTORE DUP1 DUP5 MSTORE SWAP1 SWAP2 DUP4 ADD DUP3 DUP3 DUP1 ISZERO PUSH2 0x671 JUMPI PUSH1 0x20 MUL DUP3 ADD SWAP2 SWAP1 PUSH1 0x0 MSTORE PUSH1 0x20 PUSH1 0x0 KECCAK256 SWAP1 JUMPDEST DUP2 SLOAD DUP2 MSTORE PUSH1 0x20 ADD SWAP1 PUSH1 0x1 ADD SWAP1 DUP1 DUP4 GT PUSH2 0xD6C JUMPI POP POP POP POP POP SWAP1 POP SWAP2 SWAP1 POP JUMP JUMPDEST PUSH1 0x60 PUSH1 0x65 DUP1 SLOAD DUP1 PUSH1 0x20 MUL PUSH1 0x20 ADD PUSH1 0x40 MLOAD SWAP1 DUP2 ADD PUSH1 0x40 MSTORE DUP1 SWAP3 SWAP2 SWAP1 DUP2 DUP2 MSTORE PUSH1 0x20 ADD DUP3 DUP1 SLOAD DUP1 ISZERO PUSH2 0xDE3 JUMPI PUSH1 0x20 MUL DUP3 ADD SWAP2 SWAP1 PUSH1 0x0 MSTORE PUSH1 0x20 PUSH1 0x0 KECCAK256 SWAP1 JUMPDEST DUP2 SLOAD PUSH1 0x1 PUSH1 0x1 PUSH1 0xA0 SHL SUB AND DUP2 MSTORE PUSH1 0x1 SWAP1 SWAP2 ADD SWAP1 PUSH1 0x20 ADD DUP1 DUP4 GT PUSH2 0xDC5 JUMPI JUMPDEST POP POP POP POP POP SWAP1 POP SWAP1 JUMP JUMPDEST PUSH1 0x0 SLOAD PUSH2 0x100 SWAP1 DIV PUSH1 0xFF AND ISZERO DUP1 DUP1 ISZERO PUSH2 0xE0D JUMPI POP PUSH1 0x0 SLOAD PUSH1 0x1 PUSH1 0xFF SWAP1 SWAP2 AND LT JUMPDEST DUP1 PUSH2 0xE27 JUMPI POP ADDRESS EXTCODESIZE ISZERO DUP1 ISZERO PUSH2 0xE27 JUMPI POP PUSH1 0x0 SLOAD PUSH1 0xFF AND PUSH1 0x1 EQ JUMPDEST PUSH2 0xE8A JUMPI PUSH1 0x40 MLOAD PUSH3 0x461BCD PUSH1 0xE5 SHL DUP2 MSTORE PUSH1 0x20 PUSH1 0x4 DUP3 ADD MSTORE PUSH1 0x2E PUSH1 0x24 DUP3 ADD MSTORE PUSH32 0x496E697469616C697A61626C653A20636F6E747261637420697320616C726561 PUSH1 0x44 DUP3 ADD MSTORE PUSH14 0x191E481A5B9A5D1A585B1A5E9959 PUSH1 0x92 SHL PUSH1 0x64 DUP3 ADD MSTORE PUSH1 0x84 ADD PUSH2 0x1E3 JUMP JUMPDEST PUSH1 0x0 DUP1 SLOAD PUSH1 0xFF NOT AND PUSH1 0x1 OR SWAP1 SSTORE DUP1 ISZERO PUSH2 0xEAD JUMPI PUSH1 0x0 DUP1 SLOAD PUSH2 0xFF00 NOT AND PUSH2 0x100 OR SWAP1 SSTORE JUMPDEST PUSH2 0xEB5 PUSH2 0x104E JUMP JUMPDEST DUP1 ISZERO PUSH2 0xEFB JUMPI PUSH1 0x0 DUP1 SLOAD PUSH2 0xFF00 NOT AND SWAP1 SSTORE PUSH1 0x40 MLOAD PUSH1 0x1 DUP2 MSTORE PUSH32 0x7F26B83FF96E1F2B6A682F133852F6798A09C465DA95921460CEFB3847402498 SWAP1 PUSH1 0x20 ADD PUSH1 0x40 MLOAD DUP1 SWAP2 SUB SWAP1 LOG1 JUMPDEST POP JUMP JUMPDEST PUSH1 0x1 PUSH1 0x1 PUSH1 0xA0 SHL SUB DUP2 AND PUSH1 0x0 SWAP1 DUP2 MSTORE PUSH1 0x66 PUSH1 0x20 MSTORE PUSH1 0x40 DUP2 KECCAK256 SLOAD ISZERO PUSH2 0xF24 JUMPI POP PUSH1 0x1 SWAP2 SWAP1 POP JUMP JUMPDEST POP PUSH1 0x0 SWAP2 SWAP1 POP JUMP JUMPDEST PUSH2 0xF34 PUSH2 0xFA2 JUMP JUMPDEST PUSH1 0x1 PUSH1 0x1 PUSH1 0xA0 SHL SUB DUP2 AND PUSH2 0xF99 JUMPI PUSH1 0x40 MLOAD PUSH3 0x461BCD PUSH1 0xE5 SHL DUP2 MSTORE PUSH1 0x20 PUSH1 0x4 DUP3 ADD MSTORE PUSH1 0x26 PUSH1 0x24 DUP3 ADD MSTORE PUSH32 0x4F776E61626C653A206E6577206F776E657220697320746865207A65726F2061 PUSH1 0x44 DUP3 ADD MSTORE PUSH6 0x646472657373 PUSH1 0xD0 SHL PUSH1 0x64 DUP3 ADD MSTORE PUSH1 0x84 ADD PUSH2 0x1E3 JUMP JUMPDEST PUSH2 0xEFB DUP2 PUSH2 0xFFC JUMP JUMPDEST PUSH1 0x33 SLOAD PUSH1 0x1 PUSH1 0x1 PUSH1 0xA0 SHL SUB AND CALLER EQ PUSH2 0x68F JUMPI PUSH1 0x40 MLOAD PUSH3 0x461BCD PUSH1 0xE5 SHL DUP2 MSTORE PUSH1 0x20 PUSH1 0x4 DUP3 ADD DUP2 SWAP1 MSTORE PUSH1 0x24 DUP3 ADD MSTORE PUSH32 0x4F776E61626C653A2063616C6C6572206973206E6F7420746865206F776E6572 PUSH1 0x44 DUP3 ADD MSTORE PUSH1 0x64 ADD PUSH2 0x1E3 JUMP JUMPDEST PUSH1 0x33 DUP1 SLOAD PUSH1 0x1 PUSH1 0x1 PUSH1 0xA0 SHL SUB DUP4 DUP2 AND PUSH1 0x1 PUSH1 0x1 PUSH1 0xA0 SHL SUB NOT DUP4 AND DUP2 OR SWAP1 SWAP4 SSTORE PUSH1 0x40 MLOAD SWAP2 AND SWAP2 SWAP1 DUP3 SWAP1 PUSH32 0x8BE0079C531659141344CD1FD0A4F28419497F9722A3DAAFE3B4186F6B6457E0 SWAP1 PUSH1 0x0 SWAP1 LOG3 POP POP JUMP JUMPDEST PUSH1 0x0 SLOAD PUSH2 0x100 SWAP1 DIV PUSH1 0xFF AND PUSH2 0x1075 JUMPI PUSH1 0x40 MLOAD PUSH3 0x461BCD PUSH1 0xE5 SHL DUP2 MSTORE PUSH1 0x4 ADD PUSH2 0x1E3 SWAP1 PUSH2 0x13D0 JUMP JUMPDEST PUSH2 0x68F PUSH1 0x0 SLOAD PUSH2 0x100 SWAP1 DIV PUSH1 0xFF AND PUSH2 0x109F JUMPI PUSH1 0x40 MLOAD PUSH3 0x461BCD PUSH1 0xE5 SHL DUP2 MSTORE PUSH1 0x4 ADD PUSH2 0x1E3 SWAP1 PUSH2 0x13D0 JUMP JUMPDEST PUSH2 0x68F CALLER PUSH2 0xFFC JUMP JUMPDEST DUP3 DUP1 SLOAD DUP3 DUP3 SSTORE SWAP1 PUSH1 0x0 MSTORE PUSH1 0x20 PUSH1 0x0 KECCAK256 SWAP1 DUP2 ADD SWAP3 DUP3 ISZERO PUSH2 0x10E3 JUMPI SWAP2 PUSH1 0x20 MUL DUP3 ADD JUMPDEST DUP3 DUP2 GT ISZERO PUSH2 0x10E3 JUMPI DUP3 CALLDATALOAD DUP3 SSTORE SWAP2 PUSH1 0x20 ADD SWAP2 SWAP1 PUSH1 0x1 ADD SWAP1 PUSH2 0x10C8 JUMP JUMPDEST POP PUSH2 0x10EF SWAP3 SWAP2 POP PUSH2 0x110D JUMP JUMPDEST POP SWAP1 JUMP JUMPDEST POP DUP1 SLOAD PUSH1 0x0 DUP3 SSTORE SWAP1 PUSH1 0x0 MSTORE PUSH1 0x20 PUSH1 0x0 KECCAK256 SWAP1 DUP2 ADD SWAP1 PUSH2 0xEFB SWAP2 SWAP1 JUMPDEST JUMPDEST DUP1 DUP3 GT ISZERO PUSH2 0x10EF JUMPI PUSH1 0x0 DUP2 SSTORE PUSH1 0x1 ADD PUSH2 0x110E JUMP JUMPDEST PUSH1 0x1 PUSH1 0x1 PUSH1 0xA0 SHL SUB DUP2 AND DUP2 EQ PUSH2 0xEFB JUMPI PUSH1 0x0 DUP1 REVERT JUMPDEST PUSH1 0x0 DUP1 PUSH1 0x0 PUSH1 0x40 DUP5 DUP7 SUB SLT ISZERO PUSH2 0x114C JUMPI PUSH1 0x0 DUP1 REVERT JUMPDEST DUP4 CALLDATALOAD PUSH2 0x1157 DUP2 PUSH2 0x1122 JUMP JUMPDEST SWAP3 POP PUSH1 0x20 DUP5 ADD CALLDATALOAD PUSH8 0xFFFFFFFFFFFFFFFF DUP1 DUP3 GT ISZERO PUSH2 0x1174 JUMPI PUSH1 0x0 DUP1 REVERT JUMPDEST DUP2 DUP7 ADD SWAP2 POP DUP7 PUSH1 0x1F DUP4 ADD SLT PUSH2 0x1188 JUMPI PUSH1 0x0 DUP1 REVERT JUMPDEST DUP2 CALLDATALOAD DUP2 DUP2 GT ISZERO PUSH2 0x1197 JUMPI PUSH1 0x0 DUP1 REVERT JUMPDEST DUP8 PUSH1 0x20 DUP3 PUSH1 0x5 SHL DUP6 ADD ADD GT ISZERO PUSH2 0x11AC JUMPI PUSH1 0x0 DUP1 REVERT JUMPDEST PUSH1 0x20 DUP4 ADD SWAP5 POP DUP1 SWAP4 POP POP POP POP SWAP3 POP SWAP3 POP SWAP3 JUMP JUMPDEST PUSH1 0x0 DUP1 PUSH1 0x40 DUP4 DUP6 SUB SLT ISZERO PUSH2 0x11D2 JUMPI PUSH1 0x0 DUP1 REVERT JUMPDEST DUP3 CALLDATALOAD PUSH2 0x11DD DUP2 PUSH2 0x1122 JUMP JUMPDEST SWAP5 PUSH1 0x20 SWAP4 SWAP1 SWAP4 ADD CALLDATALOAD SWAP4 POP POP POP JUMP JUMPDEST PUSH1 0x0 PUSH1 0x20 DUP3 DUP5 SUB SLT ISZERO PUSH2 0x11FD JUMPI PUSH1 0x0 DUP1 REVERT JUMPDEST POP CALLDATALOAD SWAP2 SWAP1 POP JUMP JUMPDEST PUSH1 0x20 DUP1 DUP3 MSTORE DUP3 MLOAD DUP3 DUP3 ADD DUP2 SWAP1 MSTORE PUSH1 0x0 SWAP2 SWAP1 DUP5 DUP3 ADD SWAP1 PUSH1 0x40 DUP6 ADD SWAP1 DUP5 JUMPDEST DUP2 DUP2 LT ISZERO PUSH2 0x1245 JUMPI DUP4 MLOAD PUSH1 0x1 PUSH1 0x1 PUSH1 0xA0 SHL SUB AND DUP4 MSTORE SWAP3 DUP5 ADD SWAP3 SWAP2 DUP5 ADD SWAP2 PUSH1 0x1 ADD PUSH2 0x1220 JUMP JUMPDEST POP SWAP1 SWAP7 SWAP6 POP POP POP POP POP POP JUMP JUMPDEST PUSH1 0x0 PUSH1 0x20 DUP3 DUP5 SUB SLT ISZERO PUSH2 0x1263 JUMPI PUSH1 0x0 DUP1 REVERT JUMPDEST DUP2 CALLDATALOAD PUSH2 0x126E DUP2 PUSH2 0x1122 JUMP JUMPDEST SWAP4 SWAP3 POP POP POP JUMP JUMPDEST PUSH1 0x20 DUP1 DUP3 MSTORE DUP3 MLOAD DUP3 DUP3 ADD DUP2 SWAP1 MSTORE PUSH1 0x0 SWAP2 SWAP1 DUP5 DUP3 ADD SWAP1 PUSH1 0x40 DUP6 ADD SWAP1 DUP5 JUMPDEST DUP2 DUP2 LT ISZERO PUSH2 0x1245 JUMPI DUP4 MLOAD DUP4 MSTORE SWAP3 DUP5 ADD SWAP3 SWAP2 DUP5 ADD SWAP2 PUSH1 0x1 ADD PUSH2 0x1291 JUMP JUMPDEST PUSH1 0x20 DUP1 DUP3 MSTORE PUSH1 0x1F SWAP1 DUP3 ADD MSTORE PUSH32 0x696E76616C696420617267756D656E74202D207A65726F206164647265737300 PUSH1 0x40 DUP3 ADD MSTORE PUSH1 0x60 ADD SWAP1 JUMP JUMPDEST PUSH1 0x20 DUP1 DUP3 MSTORE PUSH1 0x25 SWAP1 DUP3 ADD MSTORE PUSH32 0x63616E6E6F742068617665206D6F7265207468616E20313520636C61696D2074 PUSH1 0x40 DUP3 ADD MSTORE PUSH5 0x6F70696373 PUSH1 0xD8 SHL PUSH1 0x60 DUP3 ADD MSTORE PUSH1 0x80 ADD SWAP1 JUMP JUMPDEST PUSH4 0x4E487B71 PUSH1 0xE0 SHL PUSH1 0x0 MSTORE PUSH1 0x32 PUSH1 0x4 MSTORE PUSH1 0x24 PUSH1 0x0 REVERT JUMPDEST PUSH4 0x4E487B71 PUSH1 0xE0 SHL PUSH1 0x0 MSTORE PUSH1 0x11 PUSH1 0x4 MSTORE PUSH1 0x24 PUSH1 0x0 REVERT JUMPDEST DUP2 DUP2 SUB DUP2 DUP2 GT ISZERO PUSH2 0x60B JUMPI PUSH2 0x60B PUSH2 0x133F JUMP JUMPDEST PUSH4 0x4E487B71 PUSH1 0xE0 SHL PUSH1 0x0 MSTORE PUSH1 0x31 PUSH1 0x4 MSTORE PUSH1 0x24 PUSH1 0x0 REVERT JUMPDEST PUSH1 0x0 PUSH1 0x1 DUP3 ADD PUSH2 0x1390 JUMPI PUSH2 0x1390 PUSH2 0x133F JUMP JUMPDEST POP PUSH1 0x1 ADD SWAP1 JUMP JUMPDEST PUSH1 0x20 DUP1 DUP3 MSTORE DUP2 ADD DUP3 SWAP1 MSTORE PUSH1 0x0 PUSH1 0x1 PUSH1 0x1 PUSH1 0xFB SHL SUB DUP4 GT ISZERO PUSH2 0x13B7 JUMPI PUSH1 0x0 DUP1 REVERT JUMPDEST DUP3 PUSH1 0x5 SHL DUP1 DUP6 PUSH1 0x40 DUP6 ADD CALLDATACOPY SWAP2 SWAP1 SWAP2 ADD PUSH1 0x40 ADD SWAP4 SWAP3 POP POP POP JUMP JUMPDEST PUSH1 0x20 DUP1 DUP3 MSTORE PUSH1 0x2B SWAP1 DUP3 ADD MSTORE PUSH32 0x496E697469616C697A61626C653A20636F6E7472616374206973206E6F742069 PUSH1 0x40 DUP3 ADD MSTORE PUSH11 0x6E697469616C697A696E67 PUSH1 0xA8 SHL PUSH1 0x60 DUP3 ADD MSTORE PUSH1 0x80 ADD SWAP1 JUMP INVALID LOG2 PUSH5 0x6970667358 0x22 SLT KECCAK256 0x5F SWAP14 STOP DUP7 CALLDATACOPY 0xFB DUP12 0xF9 BYTE REVERT PUSH4 0xB530F24B 0xCE PUSH6 0x2D56861310E0 PUSH23 0xD31E260B440645FB64736F6C6343000811003300000000 "
				},
				"gasEstimates": {
					"creation": {
						"codeDepositCost": "1040200",
						"executionCost": "1080",
						"totalCost": "1041280"
					},
					"external": {
						"addTrustedIssuer(address,uint256[])": "infinite",
						"getTrustedIssuerClaimTopics(address)": "infinite",
						"getTrustedIssuers()": "infinite",
						"getTrustedIssuersForClaimTopic(uint256)": "infinite",
						"hasClaimTopic(address,uint256)": "infinite",
						"init()": "infinite",
						"isTrustedIssuer(address)": "2656",
						"owner()": "2390",
						"removeTrustedIssuer(address)": "infinite",
						"renounceOwnership()": "infinite",
						"transferOwnership(address)": "infinite",
						"updateIssuerClaimTopics(address,uint256[])": "infinite"
					}
				},
				"methodIdentifiers": {
					"addTrustedIssuer(address,uint256[])": "9f63ea98",
					"getTrustedIssuerClaimTopics(address)": "c28fb278",
					"getTrustedIssuers()": "d9dd24c5",
					"getTrustedIssuersForClaimTopic(uint256)": "52c111d1",
					"hasClaimTopic(address,uint256)": "34a89987",
					"init()": "e1c7392a",
					"isTrustedIssuer(address)": "ef2ed1a4",
					"owner()": "8da5cb5b",
					"removeTrustedIssuer(address)": "b93d28eb",
					"renounceOwnership()": "715018a6",
					"transferOwnership(address)": "f2fde38b",
					"updateIssuerClaimTopics(address,uint256[])": "04bc7e84"
				}
			},
			"storageLayout": {
				"storage": [
					{
						"astId": 462,
						"contract": "erc3643/erc3643/registry/implementation/TrustedIssuersRegistry.sol:TrustedIssuersRegistry",
						"label": "_initialized",
						"offset": 0,
						"slot": "0",
						"type": "t_uint8"
					},
					{
						"astId": 465,
						"contract": "erc3643/erc3643/registry/implementation/TrustedIssuersRegistry.sol:TrustedIssuersRegistry",
						"label": "_initializing",
						"offset": 1,
						"slot": "0",
						"type": "t_bool"
					},
					{
						"astId": 995,
						"contract": "erc3643/erc3643/registry/implementation/TrustedIssuersRegistry.sol:TrustedIssuersRegistry",
						"label": "__gap",
						"offset": 0,
						"slot": "1",
						"type": "t_array(t_uint256)50_storage"
					},
					{
						"astId": 334,
						"contract": "erc3643/erc3643/registry/implementation/TrustedIssuersRegistry.sol:TrustedIssuersRegistry",
						"label": "_owner",
						"offset": 0,
						"slot": "51",
						"type": "t_address"
					},
					{
						"astId": 454,
						"contract": "erc3643/erc3643/registry/implementation/TrustedIssuersRegistry.sol:TrustedIssuersRegistry",
						"label": "__gap",
						"offset": 0,
						"slot": "52",
						"type": "t_array(t_uint256)49_storage"
					},
					{
						"astId": 1691,
						"contract": "erc3643/erc3643/registry/implementation/TrustedIssuersRegistry.sol:TrustedIssuersRegistry",
						"label": "_trustedIssuers",
						"offset": 0,
						"slot": "101",
						"type": "t_array(t_contract(IClaimIssuer)59)dyn_storage"
					},
					{
						"astId": 1696,
						"contract": "erc3643/erc3643/registry/implementation/TrustedIssuersRegistry.sol:TrustedIssuersRegistry",
						"label": "_trustedIssuerClaimTopics",
						"offset": 0,
						"slot": "102",
						"type": "t_mapping(t_address,t_array(t_uint256)dyn_storage)"
					},
					{
						"astId": 1702,
						"contract": "erc3643/erc3643/registry/implementation/TrustedIssuersRegistry.sol:TrustedIssuersRegistry",
						"label": "_claimTopicsToTrustedIssuers",
						"offset": 0,
						"slot": "103",
						"type": "t_mapping(t_uint256,t_array(t_contract(IClaimIssuer)59)dyn_storage)"
					},
					{
						"astId": 1706,
						"contract": "erc3643/erc3643/registry/implementation/TrustedIssuersRegistry.sol:TrustedIssuersRegistry",
						"label": "__gap",
						"offset": 0,
						"slot": "104",
						"type": "t_array(t_uint256)49_storage"
					}
				],
				"types": {
					"t_address": {
						"encoding": "inplace",
						"label": "address",
						"numberOfBytes": "20"
					},
					"t_array(t_contract(IClaimIssuer)59)dyn_storage": {
						"base": "t_contract(IClaimIssuer)59",
						"encoding": "dynamic_array",
						"label": "contract IClaimIssuer[]",
						"numberOfBytes": "32"
					},
					"t_array(t_uint256)49_storage": {
						"base": "t_uint256",
						"encoding": "inplace",
						"label": "uint256[49]",
						"numberOfBytes": "1568"
					},
					"t_array(t_uint256)50_storage": {
						"base": "t_uint256",
						"encoding": "inplace",
						"label": "uint256[50]",
						"numberOfBytes": "1600"
					},
					"t_array(t_uint256)dyn_storage": {
						"base": "t_uint256",
						"encoding": "dynamic_array",
						"label": "uint256[]",
						"numberOfBytes": "32"
					},
					"t_bool": {
						"encoding": "inplace",
						"label": "bool",
						"numberOfBytes": "1"
					},
					"t_contract(IClaimIssuer)59": {
						"encoding": "inplace",
						"label": "contract IClaimIssuer",
						"numberOfBytes": "20"
					},
					"t_mapping(t_address,t_array(t_uint256)dyn_storage)": {
						"encoding": "mapping",
						"key": "t_address",
						"label": "mapping(address => uint256[])",
						"numberOfBytes": "32",
						"value": "t_array(t_uint256)dyn_storage"
					},
					"t_mapping(t_uint256,t_array(t_contract(IClaimIssuer)59)dyn_storage)": {
						"encoding": "mapping",
						"key": "t_uint256",
						"label": "mapping(uint256 => contract IClaimIssuer[])",
						"numberOfBytes": "32",
						"value": "t_array(t_contract(IClaimIssuer)59)dyn_storage"
					},
					"t_uint256": {
						"encoding": "inplace",
						"label": "uint256",
						"numberOfBytes": "32"
					},
					"t_uint8": {
						"encoding": "inplace",
						"label": "uint8",
						"numberOfBytes": "1"
					}
				}
			},
			"userdoc": {
				"kind": "user",
				"methods": {},
				"version": 1
			}
		}
	}
}