{
	"erc3643/registry/implementation/IdentityRegistry.sol": {
		"IdentityRegistry": {
			"abi": [
				{
					"anonymous": false,
					"inputs": [
						{
							"indexed": true,
							"internalType": "address",
							"name": "claimTopicsRegistry",
							"type": "address"
						}
					],
					"name": "ClaimTopicsRegistrySet",
					"type": "event"
				},
				{
					"anonymous": false,
					"inputs": [
						{
							"indexed": true,
							"internalType": "address",
							"name": "investorAddress",
							"type": "address"
						},
						{
							"indexed": true,
							"internalType": "uint16",
							"name": "country",
							"type": "uint16"
						}
					],
					"name": "CountryUpdated",
					"type": "event"
				},
				{
					"anonymous": false,
					"inputs": [
						{
							"indexed": true,
							"internalType": "address",
							"name": "investorAddress",
							"type": "address"
						},
						{
							"indexed": true,
							"internalType": "contract IIdentity",
							"name": "identity",
							"type": "address"
						}
					],
					"name": "IdentityRegistered",
					"type": "event"
				},
				{
					"anonymous": false,
					"inputs": [
						{
							"indexed": true,
							"internalType": "address",
							"name": "investorAddress",
							"type": "address"
						},
						{
							"indexed": true,
							"internalType": "contract IIdentity",
							"name": "identity",
							"type": "address"
						}
					],
					"name": "IdentityRemoved",
					"type": "event"
				},
				{
					"anonymous": false,
					"inputs": [
						{
							"indexed": true,
							"internalType": "address",
							"name": "identityStorage",
							"type": "address"
						}
					],
					"name": "IdentityStorageSet",
					"type": "event"
				},
				{
					"anonymous": false,
					"inputs": [
						{
							"indexed": true,
							"internalType": "contract IIdentity",
							"name": "oldIdentity",
							"type": "address"
						},
						{
							"indexed": true,
							"internalType": "contract IIdentity",
							"name": "newIdentity",
							"type": "address"
						}
					],
					"name": "IdentityUpdated",
					"type": "event"
				},
				{
					"anonymous": false,
					"inputs": [
						{
							"indexed": false,
							"internalType": "uint8",
							"name": "version",
							"type": "uint8"
						}
					],
					"name": "Initialized",
					"type": "event"
				},
				{
					"anonymous": false,
					"inputs": [
						{
							"indexed": true,
							"internalType": "address",
							"name": "previousOwner",
							"type": "address"
						},
						{
							"indexed": true,
							"internalType": "address",
							"name": "newOwner",
							"type": "address"
						}
					],
					"name": "OwnershipTransferred",
					"type": "event"
				},
				{
					"anonymous": false,
					"inputs": [
						{
							"indexed": true,
							"internalType": "bytes32",
							"name": "role",
							"type": "bytes32"
						},
						{
							"indexed": true,
							"internalType": "bytes32",
							"name": "previousAdminRole",
							"type": "bytes32"
						},
						{
							"indexed": true,
							"internalType": "bytes32",
							"name": "newAdminRole",
							"type": "bytes32"
						}
					],
					"name": "RoleAdminChanged",
					"type": "event"
				},
				{
					"anonymous": false,
					"inputs": [
						{
							"indexed": true,
							"internalType": "bytes32",
							"name": "role",
							"type": "bytes32"
						},
						{
							"indexed": true,
							"internalType": "address",
							"name": "account",
							"type": "address"
						},
						{
							"indexed": true,
							"internalType": "address",
							"name": "sender",
							"type": "address"
						}
					],
					"name": "RoleGranted",
					"type": "event"
				},
				{
					"anonymous": false,
					"inputs": [
						{
							"indexed": true,
							"internalType": "bytes32",
							"name": "role",
							"type": "bytes32"
						},
						{
							"indexed": true,
							"internalType": "address",
							"name": "account",
							"type": "address"
						},
						{
							"indexed": true,
							"internalType": "address",
							"name": "sender",
							"type": "address"
						}
					],
					"name": "RoleRevoked",
					"type": "event"
				},
				{
					"anonymous": false,
					"inputs": [
						{
							"indexed": true,
							"internalType": "address",
							"name": "trustedIssuersRegistry",
							"type": "address"
						}
					],
					"name": "TrustedIssuersRegistrySet",
					"type": "event"
				},
				{
					"inputs": [],
					"name": "AGENT_ROLE",
					"outputs": [
						{
							"internalType": "bytes32",
							"name": "",
							"type": "bytes32"
						}
					],
					"stateMutability": "view",
					"type": "function"
				},
				{
					"inputs": [],
					"name": "DEFAULT_ADMIN_ROLE",
					"outputs": [
						{
							"internalType": "bytes32",
							"name": "",
							"type": "bytes32"
						}
					],
					"stateMutability": "view",
					"type": "function"
				},
				{
					"inputs": [],
					"name": "OWNER_ROLE",
					"outputs": [
						{
							"internalType": "bytes32",
							"name": "",
							"type": "bytes32"
						}
					],
					"stateMutability": "view",
					"type": "function"
				},
				{
					"inputs": [
						{
							"internalType": "address[]",
							"name": "_userAddresses",
							"type": "address[]"
						},
						{
							"internalType": "contract IIdentity[]",
							"name": "_identities",
							"type": "address[]"
						},
						{
							"internalType": "uint16[]",
							"name": "_countries",
							"type": "uint16[]"
						}
					],
					"name": "batchRegisterIdentity",
					"outputs": [],
					"stateMutability": "nonpayable",
					"type": "function"
				},
				{
					"inputs": [
						{
							"internalType": "address",
							"name": "_userAddress",
							"type": "address"
						}
					],
					"name": "contains",
					"outputs": [
						{
							"internalType": "bool",
							"name": "",
							"type": "bool"
						}
					],
					"stateMutability": "view",
					"type": "function"
				},
				{
					"inputs": [
						{
							"internalType": "address",
							"name": "_userAddress",
							"type": "address"
						}
					],
					"name": "deleteIdentity",
					"outputs": [],
					"stateMutability": "nonpayable",
					"type": "function"
				},
				{
					"inputs": [
						{
							"internalType": "bytes32",
							"name": "role",
							"type": "bytes32"
						}
					],
					"name": "getRoleAdmin",
					"outputs": [
						{
							"internalType": "bytes32",
							"name": "",
							"type": "bytes32"
						}
					],
					"stateMutability": "view",
					"type": "function"
				},
				{
					"inputs": [
						{
							"internalType": "bytes32",
							"name": "role",
							"type": "bytes32"
						},
						{
							"internalType": "address",
							"name": "account",
							"type": "address"
						}
					],
					"name": "grantRole",
					"outputs": [],
					"stateMutability": "nonpayable",
					"type": "function"
				},
				{
					"inputs": [
						{
							"internalType": "bytes32",
							"name": "role",
							"type": "bytes32"
						},
						{
							"internalType": "address",
							"name": "account",
							"type": "address"
						}
					],
					"name": "hasRole",
					"outputs": [
						{
							"internalType": "bool",
							"name": "",
							"type": "bool"
						}
					],
					"stateMutability": "view",
					"type": "function"
				},
				{
					"inputs": [
						{
							"internalType": "address",
							"name": "_userAddress",
							"type": "address"
						}
					],
					"name": "identity",
					"outputs": [
						{
							"internalType": "contract IIdentity",
							"name": "",
							"type": "address"
						}
					],
					"stateMutability": "view",
					"type": "function"
				},
				{
					"inputs": [],
					"name": "identityStorage",
					"outputs": [
						{
							"internalType": "contract IIdentityRegistryStorage",
							"name": "",
							"type": "address"
						}
					],
					"stateMutability": "view",
					"type": "function"
				},
				{
					"inputs": [
						{
							"internalType": "address",
							"name": "_trustedIssuersRegistry",
							"type": "address"
						},
						{
							"internalType": "address",
							"name": "_claimTopicsRegistry",
							"type": "address"
						},
						{
							"internalType": "address",
							"name": "_identityStorage",
							"type": "address"
						}
					],
					"name": "init",
					"outputs": [],
					"stateMutability": "nonpayable",
					"type": "function"
				},
				{
					"inputs": [
						{
							"internalType": "address",
							"name": "_userAddress",
							"type": "address"
						}
					],
					"name": "investorCountry",
					"outputs": [
						{
							"internalType": "uint16",
							"name": "",
							"type": "uint16"
						}
					],
					"stateMutability": "view",
					"type": "function"
				},
				{
					"inputs": [
						{
							"internalType": "address",
							"name": "_userAddress",
							"type": "address"
						}
					],
					"name": "isVerified",
					"outputs": [
						{
							"internalType": "bool",
							"name": "",
							"type": "bool"
						}
					],
					"stateMutability": "view",
					"type": "function"
				},
				{
					"inputs": [],
					"name": "issuersRegistry",
					"outputs": [
						{
							"internalType": "contract ITrustedIssuersRegistry",
							"name": "",
							"type": "address"
						}
					],
					"stateMutability": "view",
					"type": "function"
				},
				{
					"inputs": [],
					"name": "owner",
					"outputs": [
						{
							"internalType": "address",
							"name": "",
							"type": "address"
						}
					],
					"stateMutability": "view",
					"type": "function"
				},
				{
					"inputs": [
						{
							"internalType": "address",
							"name": "_userAddress",
							"type": "address"
						},
						{
							"internalType": "contract IIdentity",
							"name": "_identity",
							"type": "address"
						},
						{
							"internalType": "uint16",
							"name": "_country",
							"type": "uint16"
						}
					],
					"name": "registerIdentity",
					"outputs": [],
					"stateMutability": "nonpayable",
					"type": "function"
				},
				{
					"inputs": [],
					"name": "renounceOwnership",
					"outputs": [],
					"stateMutability": "nonpayable",
					"type": "function"
				},
				{
					"inputs": [
						{
							"internalType": "bytes32",
							"name": "role",
							"type": "bytes32"
						},
						{
							"internalType": "address",
							"name": "account",
							"type": "address"
						}
					],
					"name": "renounceRole",
					"outputs": [],
					"stateMutability": "nonpayable",
					"type": "function"
				},
				{
					"inputs": [
						{
							"internalType": "bytes32",
							"name": "role",
							"type": "bytes32"
						},
						{
							"internalType": "address",
							"name": "account",
							"type": "address"
						}
					],
					"name": "revokeRole",
					"outputs": [],
					"stateMutability": "nonpayable",
					"type": "function"
				},
				{
					"inputs": [
						{
							"internalType": "address",
							"name": "_claimTopicsRegistry",
							"type": "address"
						}
					],
					"name": "setClaimTopicsRegistry",
					"outputs": [],
					"stateMutability": "nonpayable",
					"type": "function"
				},
				{
					"inputs": [
						{
							"internalType": "address",
							"name": "_identityRegistryStorage",
							"type": "address"
						}
					],
					"name": "setIdentityRegistryStorage",
					"outputs": [],
					"stateMutability": "nonpayable",
					"type": "function"
				},
				{
					"inputs": [
						{
							"internalType": "address",
							"name": "_trustedIssuersRegistry",
							"type": "address"
						}
					],
					"name": "setTrustedIssuersRegistry",
					"outputs": [],
					"stateMutability": "nonpayable",
					"type": "function"
				},
				{
					"inputs": [
						{
							"internalType": "bytes4",
							"name": "interfaceId",
							"type": "bytes4"
						}
					],
					"name": "supportsInterface",
					"outputs": [
						{
							"internalType": "bool",
							"name": "",
							"type": "bool"
						}
					],
					"stateMutability": "view",
					"type": "function"
				},
				{
					"inputs": [],
					"name": "topicsRegistry",
					"outputs": [
						{
							"internalType": "contract IClaimTopicsRegistry",
							"name": "",
							"type": "address"
						}
					],
					"stateMutability": "view",
					"type": "function"
				},
				{
					"inputs": [
						{
							"internalType": "address",
							"name": "newOwner",
							"type": "address"
						}
					],
					"name": "transferOwnership",
					"outputs": [],
					"stateMutability": "nonpayable",
					"type": "function"
				},
				{
					"inputs": [
						{
							"internalType": "address",
							"name": "_userAddress",
							"type": "address"
						},
						{
							"internalType": "uint16",
							"name": "_country",
							"type": "uint16"
						}
					],
					"name": "updateCountry",
					"outputs": [],
					"stateMutability": "nonpayable",
					"type": "function"
				},
				{
					"inputs": [
						{
							"internalType": "address",
							"name": "_userAddress",
							"type": "address"
						},
						{
							"internalType": "contract IIdentity",
							"name": "_identity",
							"type": "address"
						}
					],
					"name": "updateIdentity",
					"outputs": [],
					"stateMutability": "nonpayable",
					"type": "function"
				}
			],
			"devdoc": {
				"kind": "dev",
				"methods": {
					"batchRegisterIdentity(address[],address[],uint16[])": {
						"details": "See {IIdentityRegistry-batchRegisterIdentity}."
					},
					"contains(address)": {
						"details": "See {IIdentityRegistry-contains}."
					},
					"deleteIdentity(address)": {
						"details": "See {IIdentityRegistry-deleteIdentity}."
					},
					"getRoleAdmin(bytes32)": {
						"details": "Returns the admin role that controls `role`. See {grantRole} and {revokeRole}. To change a role's admin, use {_setRoleAdmin}."
					},
					"grantRole(bytes32,address)": {
						"details": "Grants `role` to `account`. If `account` had not been already granted `role`, emits a {RoleGranted} event. Requirements: - the caller must have ``role``'s admin role. May emit a {RoleGranted} event."
					},
					"hasRole(bytes32,address)": {
						"details": "Returns `true` if `account` has been granted `role`."
					},
					"identity(address)": {
						"details": "See {IIdentityRegistry-identity}."
					},
					"identityStorage()": {
						"details": "See {IIdentityRegistry-identityStorage}."
					},
					"investorCountry(address)": {
						"details": "See {IIdentityRegistry-investorCountry}."
					},
					"isVerified(address)": {
						"details": "See {IIdentityRegistry-isVerified}."
					},
					"issuersRegistry()": {
						"details": "See {IIdentityRegistry-issuersRegistry}."
					},
					"owner()": {
						"details": "Returns the address of the current owner."
					},
					"registerIdentity(address,address,uint16)": {
						"details": "See {IIdentityRegistry-registerIdentity}."
					},
					"renounceOwnership()": {
						"details": "Leaves the contract without owner. It will not be possible to call `onlyOwner` functions. Can only be called by the current owner. NOTE: Renouncing ownership will leave the contract without an owner, thereby disabling any functionality that is only available to the owner."
					},
					"renounceRole(bytes32,address)": {
						"details": "Revokes `role` from the calling account. Roles are often managed via {grantRole} and {revokeRole}: this function's purpose is to provide a mechanism for accounts to lose their privileges if they are compromised (such as when a trusted device is misplaced). If the calling account had been revoked `role`, emits a {RoleRevoked} event. Requirements: - the caller must be `account`. May emit a {RoleRevoked} event."
					},
					"revokeRole(bytes32,address)": {
						"details": "Revokes `role` from `account`. If `account` had been granted `role`, emits a {RoleRevoked} event. Requirements: - the caller must have ``role``'s admin role. May emit a {RoleRevoked} event."
					},
					"setClaimTopicsRegistry(address)": {
						"details": "See {IIdentityRegistry-setClaimTopicsRegistry}."
					},
					"setIdentityRegistryStorage(address)": {
						"details": "See {IIdentityRegistry-setIdentityRegistryStorage}."
					},
					"setTrustedIssuersRegistry(address)": {
						"details": "See {IIdentityRegistry-setTrustedIssuersRegistry}."
					},
					"supportsInterface(bytes4)": {
						"details": "See {IERC165-supportsInterface}."
					},
					"topicsRegistry()": {
						"details": "See {IIdentityRegistry-topicsRegistry}."
					},
					"transferOwnership(address)": {
						"details": "Transfers ownership of the contract to a new account (`newOwner`). Can only be called by the current owner."
					},
					"updateCountry(address,uint16)": {
						"details": "See {IIdentityRegistry-updateCountry}."
					},
					"updateIdentity(address,address)": {
						"details": "See {IIdentityRegistry-updateIdentity}."
					}
				},
				"version": 1
			},
			"evm": {
				"assembly": "    /* \"erc3643/registry/implementation/IdentityRegistry.sol\":587:9203  contract IdentityRegistry is... */\n  mstore(0x40, 0x80)\n  callvalue\n  dup1\n  iszero\n  tag_1\n  jumpi\n  0x00\n  dup1\n  revert\ntag_1:\n  pop\n  dataSize(sub_0)\n  dup1\n  dataOffset(sub_0)\n  0x00\n  codecopy\n  0x00\n  return\nstop\n\nsub_0: assembly {\n        /* \"erc3643/registry/implementation/IdentityRegistry.sol\":587:9203  contract IdentityRegistry is... */\n      mstore(0x40, 0x80)\n      callvalue\n      dup1\n      iszero\n      tag_1\n      jumpi\n      0x00\n      dup1\n      revert\n    tag_1:\n      pop\n      jumpi(tag_2, lt(calldatasize, 0x04))\n      shr(0xe0, calldataload(0x00))\n      dup1\n      0x7e42683b\n      gt\n      tag_31\n      jumpi\n      dup1\n      0xb9209e33\n      gt\n      tag_32\n      jumpi\n      dup1\n      0xe744d789\n      gt\n      tag_33\n      jumpi\n      dup1\n      0xe744d789\n      eq\n      tag_27\n      jumpi\n      dup1\n      0xf0eb5e54\n      eq\n      tag_28\n      jumpi\n      dup1\n      0xf11abfd8\n      eq\n      tag_29\n      jumpi\n      dup1\n      0xf2fde38b\n      eq\n      tag_30\n      jumpi\n      0x00\n      dup1\n      revert\n    tag_33:\n      dup1\n      0xb9209e33\n      eq\n      tag_24\n      jumpi\n      dup1\n      0xd547741f\n      eq\n      tag_25\n      jumpi\n      dup1\n      0xe58378bb\n      eq\n      tag_26\n      jumpi\n      0x00\n      dup1\n      revert\n    tag_32:\n      dup1\n      0x91d14854\n      gt\n      tag_34\n      jumpi\n      dup1\n      0x91d14854\n      eq\n      tag_20\n      jumpi\n      dup1\n      0xa217fddf\n      eq\n      tag_21\n      jumpi\n      dup1\n      0xa8d29d1d\n      eq\n      tag_22\n      jumpi\n      dup1\n      0xb4f3fcb7\n      eq\n      tag_23\n      jumpi\n      0x00\n      dup1\n      revert\n    tag_34:\n      dup1\n      0x7e42683b\n      eq\n      tag_17\n      jumpi\n      dup1\n      0x8da5cb5b\n      eq\n      tag_18\n      jumpi\n      dup1\n      0x8e098ca1\n      eq\n      tag_19\n      jumpi\n      0x00\n      dup1\n      revert\n    tag_31:\n      dup1\n      0x3b239a7f\n      gt\n      tag_35\n      jumpi\n      dup1\n      0x5dbe47e8\n      gt\n      tag_36\n      jumpi\n      dup1\n      0x5dbe47e8\n      eq\n      tag_13\n      jumpi\n      dup1\n      0x653dc9f1\n      eq\n      tag_14\n      jumpi\n      dup1\n      0x670af6a9\n      eq\n      tag_15\n      jumpi\n      dup1\n      0x715018a6\n      eq\n      tag_16\n      jumpi\n      0x00\n      dup1\n      revert\n    tag_36:\n      dup1\n      0x3b239a7f\n      eq\n      tag_10\n      jumpi\n      dup1\n      0x3b3e12f4\n      eq\n      tag_11\n      jumpi\n      dup1\n      0x454a03e0\n      eq\n      tag_12\n      jumpi\n      0x00\n      dup1\n      revert\n    tag_35:\n      dup1\n      0x248a9ca3\n      gt\n      tag_37\n      jumpi\n      dup1\n      0x248a9ca3\n      eq\n      tag_6\n      jumpi\n      dup1\n      0x26d941ae\n      eq\n      tag_7\n      jumpi\n      dup1\n      0x2f2ff15d\n      eq\n      tag_8\n      jumpi\n      dup1\n      0x36568abe\n      eq\n      tag_9\n      jumpi\n      0x00\n      dup1\n      revert\n    tag_37:\n      dup1\n      0x01ffc9a7\n      eq\n      tag_3\n      jumpi\n      dup1\n      0x184b9559\n      eq\n      tag_4\n      jumpi\n      dup1\n      0x22459e18\n      eq\n      tag_5\n      jumpi\n    tag_2:\n      0x00\n      dup1\n      revert\n        /* \"@openzeppelin/contracts-upgradeable/access/AccessControlUpgradeable.sol\":3029:3242  function supportsInterface(bytes4 interfaceId) public view virtual override returns (bool) {... */\n    tag_3:\n      tag_38\n      tag_39\n      calldatasize\n      0x04\n      tag_40\n      jump\t// in\n    tag_39:\n      tag_41\n      jump\t// in\n    tag_38:\n      mload(0x40)\n        /* \"#utility.yul\":470:484   */\n      swap1\n      iszero\n        /* \"#utility.yul\":463:485   */\n      iszero\n        /* \"#utility.yul\":445:486   */\n      dup2\n      mstore\n        /* \"#utility.yul\":433:435   */\n      0x20\n        /* \"#utility.yul\":418:436   */\n      add\n        /* \"@openzeppelin/contracts-upgradeable/access/AccessControlUpgradeable.sol\":3029:3242  function supportsInterface(bytes4 interfaceId) public view virtual override returns (bool) {... */\n    tag_42:\n      mload(0x40)\n      dup1\n      swap2\n      sub\n      swap1\n      return\n        /* \"erc3643/registry/implementation/IdentityRegistry.sol\":954:1800  function init(... */\n    tag_4:\n      tag_44\n      tag_45\n      calldatasize\n      0x04\n      tag_46\n      jump\t// in\n    tag_45:\n      tag_47\n      jump\t// in\n    tag_44:\n      stop\n        /* \"erc3643/registry/implementation/IdentityRegistry.sol\":713:824  bytes32 public constant AGENT_ROLE =... */\n    tag_5:\n      tag_48\n      0x00\n      dup1\n      mload\n      0x20\n      data_83599f2fd2d7ecec31a0c854e1dfa0cd718f43d0f25b15e620b3800dba1a8107\n      dup4\n      codecopy\n      dup2\n      mload\n      swap2\n      mstore\n      dup2\n      jump\n    tag_48:\n      mload(0x40)\n        /* \"#utility.yul\":1313:1338   */\n      swap1\n      dup2\n      mstore\n        /* \"#utility.yul\":1301:1303   */\n      0x20\n        /* \"#utility.yul\":1286:1304   */\n      add\n        /* \"erc3643/registry/implementation/IdentityRegistry.sol\":713:824  bytes32 public constant AGENT_ROLE =... */\n      tag_42\n        /* \"#utility.yul\":1167:1344   */\n      jump\n        /* \"@openzeppelin/contracts-upgradeable/access/AccessControlUpgradeable.sol\":4834:4963  function getRoleAdmin(bytes32 role) public view virtual override returns (bytes32) {... */\n    tag_6:\n      tag_48\n      tag_53\n      calldatasize\n      0x04\n      tag_54\n      jump\t// in\n    tag_53:\n        /* \"@openzeppelin/contracts-upgradeable/access/AccessControlUpgradeable.sol\":4908:4915  bytes32 */\n      0x00\n        /* \"@openzeppelin/contracts-upgradeable/access/AccessControlUpgradeable.sol\":4934:4946  _roles[role] */\n      swap1\n      dup2\n      mstore\n        /* \"@openzeppelin/contracts-upgradeable/access/AccessControlUpgradeable.sol\":4934:4940  _roles */\n      0x65\n        /* \"@openzeppelin/contracts-upgradeable/access/AccessControlUpgradeable.sol\":4934:4946  _roles[role] */\n      0x20\n      mstore\n      0x40\n      swap1\n      keccak256\n        /* \"@openzeppelin/contracts-upgradeable/access/AccessControlUpgradeable.sol\":4934:4956  _roles[role].adminRole */\n      0x01\n      add\n      sload\n      swap1\n        /* \"@openzeppelin/contracts-upgradeable/access/AccessControlUpgradeable.sol\":4834:4963  function getRoleAdmin(bytes32 role) public view virtual override returns (bytes32) {... */\n      jump\n        /* \"erc3643/registry/implementation/IdentityRegistry.sol\":3468:3777  function setIdentityRegistryStorage(address _identityRegistryStorage)... */\n    tag_7:\n      tag_44\n      tag_58\n      calldatasize\n      0x04\n      tag_59\n      jump\t// in\n    tag_58:\n      tag_60\n      jump\t// in\n        /* \"@openzeppelin/contracts-upgradeable/access/AccessControlUpgradeable.sol\":5259:5404  function grantRole(bytes32 role, address account) public virtual override onlyRole(getRoleAdmin(role)) {... */\n    tag_8:\n      tag_44\n      tag_62\n      calldatasize\n      0x04\n      tag_63\n      jump\t// in\n    tag_62:\n      tag_64\n      jump\t// in\n        /* \"@openzeppelin/contracts-upgradeable/access/AccessControlUpgradeable.sol\":6368:6582  function renounceRole(bytes32 role, address account) public virtual override {... */\n    tag_9:\n      tag_44\n      tag_66\n      calldatasize\n      0x04\n      tag_63\n      jump\t// in\n    tag_66:\n      tag_67\n      jump\t// in\n        /* \"erc3643/registry/implementation/IdentityRegistry.sol\":2696:3002  function updateCountry(address _userAddress, uint16 _country)... */\n    tag_10:\n      tag_44\n      tag_69\n      calldatasize\n      0x04\n      tag_70\n      jump\t// in\n    tag_69:\n      tag_71\n      jump\t// in\n        /* \"erc3643/registry/implementation/IdentityRegistry.sol\":7803:7963  function topicsRegistry()... */\n    tag_11:\n        /* \"erc3643/registry/implementation/IdentityRegistry.sol\":7936:7956  _tokenTopicsRegistry */\n      and(sub(shl(0xa0, 0x01), 0x01), sload(0xc9))\n        /* \"erc3643/registry/implementation/IdentityRegistry.sol\":7803:7963  function topicsRegistry()... */\n    tag_72:\n      mload(0x40)\n      sub(shl(0xa0, 0x01), 0x01)\n        /* \"#utility.yul\":2812:2844   */\n      swap1\n      swap2\n      and\n        /* \"#utility.yul\":2794:2845   */\n      dup2\n      mstore\n        /* \"#utility.yul\":2782:2784   */\n      0x20\n        /* \"#utility.yul\":2767:2785   */\n      add\n        /* \"erc3643/registry/implementation/IdentityRegistry.sol\":7803:7963  function topicsRegistry()... */\n      tag_42\n        /* \"#utility.yul\":2619:2851   */\n      jump\n        /* \"erc3643/registry/implementation/IdentityRegistry.sol\":8590:8941  function registerIdentity(... */\n    tag_12:\n      tag_44\n      tag_77\n      calldatasize\n      0x04\n      tag_78\n      jump\t// in\n    tag_77:\n      tag_79\n      jump\t// in\n        /* \"erc3643/registry/implementation/IdentityRegistry.sol\":8274:8513  function contains(address _userAddress)... */\n    tag_13:\n      tag_38\n      tag_81\n      calldatasize\n      0x04\n      tag_59\n      jump\t// in\n    tag_81:\n      tag_82\n      jump\t// in\n        /* \"erc3643/registry/implementation/IdentityRegistry.sol\":1882:2219  function batchRegisterIdentity(... */\n    tag_14:\n      tag_44\n      tag_85\n      calldatasize\n      0x04\n      tag_86\n      jump\t// in\n    tag_85:\n      tag_87\n      jump\t// in\n        /* \"erc3643/registry/implementation/IdentityRegistry.sol\":3860:4130  function setClaimTopicsRegistry(address _claimTopicsRegistry)... */\n    tag_15:\n      tag_44\n      tag_89\n      calldatasize\n      0x04\n      tag_59\n      jump\t// in\n    tag_89:\n      tag_90\n      jump\t// in\n        /* \"@openzeppelin/contracts-upgradeable/access/OwnableUpgradeable.sol\":2064:2165  function renounceOwnership() public virtual onlyOwner {... */\n    tag_16:\n      tag_44\n      tag_92\n      jump\t// in\n        /* \"erc3643/registry/implementation/IdentityRegistry.sol\":7283:7487  function investorCountry(address _userAddress)... */\n    tag_17:\n      tag_93\n      tag_94\n      calldatasize\n      0x04\n      tag_59\n      jump\t// in\n    tag_94:\n      tag_95\n      jump\t// in\n    tag_93:\n      mload(0x40)\n        /* \"#utility.yul\":5060:5066   */\n      0xffff\n        /* \"#utility.yul\":5048:5067   */\n      swap1\n      swap2\n      and\n        /* \"#utility.yul\":5030:5068   */\n      dup2\n      mstore\n        /* \"#utility.yul\":5018:5020   */\n      0x20\n        /* \"#utility.yul\":5003:5021   */\n      add\n        /* \"erc3643/registry/implementation/IdentityRegistry.sol\":7283:7487  function investorCountry(address _userAddress)... */\n      tag_42\n        /* \"#utility.yul\":4886:5074   */\n      jump\n        /* \"@openzeppelin/contracts-upgradeable/access/OwnableUpgradeable.sol\":1441:1526  function owner() public view virtual returns (address) {... */\n    tag_18:\n        /* \"@openzeppelin/contracts-upgradeable/access/OwnableUpgradeable.sol\":1513:1519  _owner */\n      and(sub(shl(0xa0, 0x01), 0x01), sload(0x97))\n        /* \"@openzeppelin/contracts-upgradeable/access/OwnableUpgradeable.sol\":1441:1526  function owner() public view virtual returns (address) {... */\n      jump(tag_72)\n        /* \"erc3643/registry/implementation/IdentityRegistry.sol\":2294:2622  function updateIdentity(address _userAddress, IIdentity _identity)... */\n    tag_19:\n      tag_44\n      tag_103\n      calldatasize\n      0x04\n      tag_104\n      jump\t// in\n    tag_103:\n      tag_105\n      jump\t// in\n        /* \"@openzeppelin/contracts-upgradeable/access/AccessControlUpgradeable.sol\":3329:3474  function hasRole(bytes32 role, address account) public view virtual override returns (bool) {... */\n    tag_20:\n      tag_38\n      tag_107\n      calldatasize\n      0x04\n      tag_63\n      jump\t// in\n    tag_107:\n      tag_108\n      jump\t// in\n        /* \"@openzeppelin/contracts-upgradeable/access/AccessControlUpgradeable.sol\":2450:2499  bytes32 public constant DEFAULT_ADMIN_ROLE = 0x00 */\n    tag_21:\n      tag_48\n        /* \"@openzeppelin/contracts-upgradeable/access/AccessControlUpgradeable.sol\":2495:2499  0x00 */\n      0x00\n        /* \"@openzeppelin/contracts-upgradeable/access/AccessControlUpgradeable.sol\":2450:2499  bytes32 public constant DEFAULT_ADMIN_ROLE = 0x00 */\n      dup2\n      jump\n        /* \"erc3643/registry/implementation/IdentityRegistry.sol\":3077:3381  function deleteIdentity(address _userAddress)... */\n    tag_22:\n      tag_44\n      tag_114\n      calldatasize\n      0x04\n      tag_59\n      jump\t// in\n    tag_114:\n      tag_115\n      jump\t// in\n        /* \"erc3643/registry/implementation/IdentityRegistry.sol\":7563:7728  function issuersRegistry()... */\n    tag_23:\n        /* \"erc3643/registry/implementation/IdentityRegistry.sol\":7700:7721  _tokenIssuersRegistry */\n      and(sub(shl(0xa0, 0x01), 0x01), sload(0xca))\n        /* \"erc3643/registry/implementation/IdentityRegistry.sol\":7563:7728  function issuersRegistry()... */\n      jump(tag_72)\n        /* \"erc3643/registry/implementation/IdentityRegistry.sol\":4647:7207  function isVerified(address _userAddress)... */\n    tag_24:\n      tag_38\n      tag_121\n      calldatasize\n      0x04\n      tag_59\n      jump\t// in\n    tag_121:\n      tag_122\n      jump\t// in\n        /* \"@openzeppelin/contracts-upgradeable/access/AccessControlUpgradeable.sol\":5684:5831  function revokeRole(bytes32 role, address account) public virtual override onlyRole(getRoleAdmin(role)) {... */\n    tag_25:\n      tag_44\n      tag_125\n      calldatasize\n      0x04\n      tag_63\n      jump\t// in\n    tag_125:\n      tag_126\n      jump\t// in\n        /* \"erc3643/registry/implementation/IdentityRegistry.sol\":831:942  bytes32 public constant OWNER_ROLE =... */\n    tag_26:\n      tag_48\n      0x00\n      dup1\n      mload\n      0x20\n      data_48848f6f4af5ff2a90f75345111ffab654da14e01d0d715638da4379c8c19ae3\n      dup4\n      codecopy\n      dup2\n      mload\n      swap2\n      mstore\n      dup2\n      jump\n        /* \"erc3643/registry/implementation/IdentityRegistry.sol\":4216:4527  function setTrustedIssuersRegistry(address _trustedIssuersRegistry)... */\n    tag_27:\n      tag_44\n      tag_131\n      calldatasize\n      0x04\n      tag_59\n      jump\t// in\n    tag_131:\n      tag_132\n      jump\t// in\n        /* \"erc3643/registry/implementation/IdentityRegistry.sol\":9010:9201  function identity(address _userAddress)... */\n    tag_28:\n      tag_72\n      tag_134\n      calldatasize\n      0x04\n      tag_59\n      jump\t// in\n    tag_134:\n      tag_135\n      jump\t// in\n        /* \"erc3643/registry/implementation/IdentityRegistry.sol\":8039:8205  function identityStorage()... */\n    tag_29:\n        /* \"erc3643/registry/implementation/IdentityRegistry.sol\":8177:8198  _tokenIdentityStorage */\n      and(sub(shl(0xa0, 0x01), 0x01), sload(0xcb))\n        /* \"erc3643/registry/implementation/IdentityRegistry.sol\":8039:8205  function identityStorage()... */\n      jump(tag_72)\n        /* \"@openzeppelin/contracts-upgradeable/access/OwnableUpgradeable.sol\":2314:2512  function transferOwnership(address newOwner) public virtual onlyOwner {... */\n    tag_30:\n      tag_44\n      tag_143\n      calldatasize\n      0x04\n      tag_59\n      jump\t// in\n    tag_143:\n      tag_144\n      jump\t// in\n        /* \"@openzeppelin/contracts-upgradeable/access/AccessControlUpgradeable.sol\":3029:3242  function supportsInterface(bytes4 interfaceId) public view virtual override returns (bool) {... */\n    tag_41:\n        /* \"@openzeppelin/contracts-upgradeable/access/AccessControlUpgradeable.sol\":3114:3118  bool */\n      0x00\n      not(sub(shl(0xe0, 0x01), 0x01))\n        /* \"@openzeppelin/contracts-upgradeable/access/AccessControlUpgradeable.sol\":3137:3195  interfaceId == type(IAccessControlUpgradeable).interfaceId */\n      dup3\n      and\n      shl(0xe0, 0x7965db0b)\n      eq\n      dup1\n        /* \"@openzeppelin/contracts-upgradeable/access/AccessControlUpgradeable.sol\":3137:3235  interfaceId == type(IAccessControlUpgradeable).interfaceId || super.supportsInterface(interfaceId) */\n      tag_147\n      jumpi\n      pop\n      shl(0xe0, 0x01ffc9a7)\n      not(sub(shl(0xe0, 0x01), 0x01))\n        /* \"@openzeppelin/contracts-upgradeable/utils/introspection/ERC165Upgradeable.sol\":1168:1219  interfaceId == type(IERC165Upgradeable).interfaceId */\n      dup4\n      and\n      eq\n        /* \"@openzeppelin/contracts-upgradeable/access/AccessControlUpgradeable.sol\":3199:3235  super.supportsInterface(interfaceId) */\n    tag_147:\n        /* \"@openzeppelin/contracts-upgradeable/access/AccessControlUpgradeable.sol\":3130:3235  return interfaceId == type(IAccessControlUpgradeable).interfaceId || super.supportsInterface(interfaceId) */\n      swap3\n        /* \"@openzeppelin/contracts-upgradeable/access/AccessControlUpgradeable.sol\":3029:3242  function supportsInterface(bytes4 interfaceId) public view virtual override returns (bool) {... */\n      swap2\n      pop\n      pop\n      jump\t// out\n        /* \"erc3643/registry/implementation/IdentityRegistry.sol\":954:1800  function init(... */\n    tag_47:\n        /* \"@openzeppelin/contracts-upgradeable/proxy/utils/Initializable.sol\":3279:3298  bool isTopLevelCall */\n      0x00\n        /* \"@openzeppelin/contracts-upgradeable/proxy/utils/Initializable.sol\":3302:3315  _initializing */\n      sload\n      0x0100\n      swap1\n      div\n      0xff\n      and\n        /* \"@openzeppelin/contracts-upgradeable/proxy/utils/Initializable.sol\":3301:3315  !_initializing */\n      iszero\n      dup1\n        /* \"@openzeppelin/contracts-upgradeable/proxy/utils/Initializable.sol\":3347:3381  isTopLevelCall && _initialized < 1 */\n      dup1\n      iszero\n      tag_150\n      jumpi\n      pop\n        /* \"@openzeppelin/contracts-upgradeable/proxy/utils/Initializable.sol\":3365:3377  _initialized */\n      sload(0x00)\n        /* \"@openzeppelin/contracts-upgradeable/proxy/utils/Initializable.sol\":3380:3381  1 */\n      0x01\n        /* \"@openzeppelin/contracts-upgradeable/proxy/utils/Initializable.sol\":3365:3377  _initialized */\n      0xff\n      swap1\n      swap2\n      and\n        /* \"@openzeppelin/contracts-upgradeable/proxy/utils/Initializable.sol\":3365:3381  _initialized < 1 */\n      lt\n        /* \"@openzeppelin/contracts-upgradeable/proxy/utils/Initializable.sol\":3347:3381  isTopLevelCall && _initialized < 1 */\n    tag_150:\n        /* \"@openzeppelin/contracts-upgradeable/proxy/utils/Initializable.sol\":3346:3454  (isTopLevelCall && _initialized < 1) || (!AddressUpgradeable.isContract(address(this)) && _initialized == 1) */\n      dup1\n      tag_154\n      jumpi\n      pop\n        /* \"@openzeppelin/contracts-upgradeable/proxy/utils/Initializable.sol\":3426:3430  this */\n      address\n        /* \"@openzeppelin/contracts-upgradeable/utils/AddressUpgradeable.sol\":1713:1732  account.code.length */\n      extcodesize\n        /* \"@openzeppelin/contracts-upgradeable/utils/AddressUpgradeable.sol\":1713:1736  account.code.length > 0 */\n      iszero\n      dup1\n      iszero\n        /* \"@openzeppelin/contracts-upgradeable/proxy/utils/Initializable.sol\":3387:3453  !AddressUpgradeable.isContract(address(this)) && _initialized == 1 */\n      tag_154\n      jumpi\n      pop\n        /* \"@openzeppelin/contracts-upgradeable/proxy/utils/Initializable.sol\":3436:3448  _initialized */\n      and(0xff, sload(0x00))\n      0x01\n        /* \"@openzeppelin/contracts-upgradeable/proxy/utils/Initializable.sol\":3436:3453  _initialized == 1 */\n      eq\n        /* \"@openzeppelin/contracts-upgradeable/proxy/utils/Initializable.sol\":3387:3453  !AddressUpgradeable.isContract(address(this)) && _initialized == 1 */\n    tag_154:\n        /* \"@openzeppelin/contracts-upgradeable/proxy/utils/Initializable.sol\":3325:3526  require(... */\n      tag_155\n      jumpi\n      mload(0x40)\n      shl(0xe5, 0x461bcd)\n      dup2\n      mstore\n        /* \"#utility.yul\":6605:6607   */\n      0x20\n        /* \"@openzeppelin/contracts-upgradeable/proxy/utils/Initializable.sol\":3325:3526  require(... */\n      0x04\n      dup3\n      add\n        /* \"#utility.yul\":6587:6608   */\n      mstore\n        /* \"#utility.yul\":6644:6646   */\n      0x2e\n        /* \"#utility.yul\":6624:6642   */\n      0x24\n      dup3\n      add\n        /* \"#utility.yul\":6617:6647   */\n      mstore\n        /* \"#utility.yul\":6683:6717   */\n      0x496e697469616c697a61626c653a20636f6e747261637420697320616c726561\n        /* \"#utility.yul\":6663:6681   */\n      0x44\n      dup3\n      add\n        /* \"#utility.yul\":6656:6718   */\n      mstore\n      shl(0x92, 0x191e481a5b9a5d1a585b1a5e9959)\n        /* \"#utility.yul\":6734:6752   */\n      0x64\n      dup3\n      add\n        /* \"#utility.yul\":6727:6771   */\n      mstore\n        /* \"#utility.yul\":6788:6807   */\n      0x84\n      add\n        /* \"@openzeppelin/contracts-upgradeable/proxy/utils/Initializable.sol\":3325:3526  require(... */\n    tag_156:\n      mload(0x40)\n      dup1\n      swap2\n      sub\n      swap1\n      revert\n    tag_155:\n        /* \"@openzeppelin/contracts-upgradeable/proxy/utils/Initializable.sol\":3536:3548  _initialized */\n      0x00\n        /* \"@openzeppelin/contracts-upgradeable/proxy/utils/Initializable.sol\":3536:3552  _initialized = 1 */\n      dup1\n      sload\n      not(0xff)\n      and\n        /* \"@openzeppelin/contracts-upgradeable/proxy/utils/Initializable.sol\":3551:3552  1 */\n      0x01\n        /* \"@openzeppelin/contracts-upgradeable/proxy/utils/Initializable.sol\":3536:3552  _initialized = 1 */\n      or\n      swap1\n      sstore\n        /* \"@openzeppelin/contracts-upgradeable/proxy/utils/Initializable.sol\":3562:3627  if (isTopLevelCall) {... */\n      dup1\n      iszero\n      tag_158\n      jumpi\n        /* \"@openzeppelin/contracts-upgradeable/proxy/utils/Initializable.sol\":3596:3609  _initializing */\n      0x00\n        /* \"@openzeppelin/contracts-upgradeable/proxy/utils/Initializable.sol\":3596:3616  _initializing = true */\n      dup1\n      sload\n      not(0xff00)\n      and\n      0x0100\n      or\n      swap1\n      sstore\n        /* \"@openzeppelin/contracts-upgradeable/proxy/utils/Initializable.sol\":3562:3627  if (isTopLevelCall) {... */\n    tag_158:\n      sub(shl(0xa0, 0x01), 0x01)\n        /* \"erc3643/registry/implementation/IdentityRegistry.sol\":1139:1176  _trustedIssuersRegistry != address(0) */\n      dup5\n      and\n      iszero\n      dup1\n      iszero\n      swap1\n        /* \"erc3643/registry/implementation/IdentityRegistry.sol\":1139:1230  _trustedIssuersRegistry != address(0) &&... */\n      tag_160\n      jumpi\n      pop\n      sub(shl(0xa0, 0x01), 0x01)\n        /* \"erc3643/registry/implementation/IdentityRegistry.sol\":1196:1230  _claimTopicsRegistry != address(0) */\n      dup4\n      and\n      iszero\n      iszero\n        /* \"erc3643/registry/implementation/IdentityRegistry.sol\":1139:1230  _trustedIssuersRegistry != address(0) &&... */\n    tag_160:\n        /* \"erc3643/registry/implementation/IdentityRegistry.sol\":1139:1280  _trustedIssuersRegistry != address(0) &&... */\n      dup1\n      iszero\n      tag_161\n      jumpi\n      pop\n      sub(shl(0xa0, 0x01), 0x01)\n        /* \"erc3643/registry/implementation/IdentityRegistry.sol\":1250:1280  _identityStorage != address(0) */\n      dup3\n      and\n      iszero\n      iszero\n        /* \"erc3643/registry/implementation/IdentityRegistry.sol\":1139:1280  _trustedIssuersRegistry != address(0) &&... */\n    tag_161:\n        /* \"erc3643/registry/implementation/IdentityRegistry.sol\":1118:1337  require(... */\n      tag_162\n      jumpi\n      mload(0x40)\n      shl(0xe5, 0x461bcd)\n      dup2\n      mstore\n        /* \"#utility.yul\":7020:7022   */\n      0x20\n        /* \"erc3643/registry/implementation/IdentityRegistry.sol\":1118:1337  require(... */\n      0x04\n      dup3\n      add\n        /* \"#utility.yul\":7002:7023   */\n      mstore\n        /* \"#utility.yul\":7059:7061   */\n      0x1f\n        /* \"#utility.yul\":7039:7057   */\n      0x24\n      dup3\n      add\n        /* \"#utility.yul\":7032:7062   */\n      mstore\n        /* \"#utility.yul\":7098:7131   */\n      0x696e76616c696420617267756d656e74202d207a65726f206164647265737300\n        /* \"#utility.yul\":7078:7096   */\n      0x44\n      dup3\n      add\n        /* \"#utility.yul\":7071:7132   */\n      mstore\n        /* \"#utility.yul\":7149:7167   */\n      0x64\n      add\n        /* \"erc3643/registry/implementation/IdentityRegistry.sol\":1118:1337  require(... */\n      tag_156\n        /* \"#utility.yul\":6818:7173   */\n      jump\n        /* \"erc3643/registry/implementation/IdentityRegistry.sol\":1118:1337  require(... */\n    tag_162:\n        /* \"erc3643/registry/implementation/IdentityRegistry.sol\":1347:1367  _tokenTopicsRegistry */\n      0xc9\n        /* \"erc3643/registry/implementation/IdentityRegistry.sol\":1347:1412  _tokenTopicsRegistry = IClaimTopicsRegistry(_claimTopicsRegistry) */\n      dup1\n      sload\n      sub(shl(0xa0, 0x01), 0x01)\n      dup1\n      dup7\n      and\n      not(sub(shl(0xa0, 0x01), 0x01))\n      swap3\n      dup4\n      and\n      dup2\n      or\n      swap1\n      swap4\n      sstore\n        /* \"erc3643/registry/implementation/IdentityRegistry.sol\":1422:1443  _tokenIssuersRegistry */\n      0xca\n        /* \"erc3643/registry/implementation/IdentityRegistry.sol\":1422:1516  _tokenIssuersRegistry = ITrustedIssuersRegistry(... */\n      dup1\n      sload\n      dup9\n      dup4\n      and\n      swap1\n      dup5\n      and\n      or\n      swap1\n      sstore\n        /* \"erc3643/registry/implementation/IdentityRegistry.sol\":1526:1547  _tokenIdentityStorage */\n      0xcb\n        /* \"erc3643/registry/implementation/IdentityRegistry.sol\":1526:1592  _tokenIdentityStorage = IIdentityRegistryStorage(_identityStorage) */\n      dup1\n      sload\n      swap2\n      dup7\n      and\n      swap2\n      swap1\n      swap3\n      and\n      or\n      swap1\n      sstore\n        /* \"erc3643/registry/implementation/IdentityRegistry.sol\":1607:1651  ClaimTopicsRegistrySet(_claimTopicsRegistry) */\n      mload(0x40)\n      0x7170bf15b246e880b2369cd7c67d057760d8a35149e8c64dde91efa22bcc76d0\n      swap1\n        /* \"erc3643/registry/implementation/IdentityRegistry.sol\":1347:1367  _tokenTopicsRegistry */\n      0x00\n      swap1\n        /* \"erc3643/registry/implementation/IdentityRegistry.sol\":1607:1651  ClaimTopicsRegistrySet(_claimTopicsRegistry) */\n      log2\n        /* \"erc3643/registry/implementation/IdentityRegistry.sol\":1666:1716  TrustedIssuersRegistrySet(_trustedIssuersRegistry) */\n      mload(0x40)\n      sub(shl(0xa0, 0x01), 0x01)\n      dup6\n      and\n      swap1\n      0x1b98cb79e6f73020175fe87333f1b91ad6a881519c0afe30340c2599b2b4bde0\n      swap1\n      0x00\n      swap1\n      log2\n        /* \"erc3643/registry/implementation/IdentityRegistry.sol\":1731:1767  IdentityStorageSet(_identityStorage) */\n      mload(0x40)\n      sub(shl(0xa0, 0x01), 0x01)\n      dup4\n      and\n      swap1\n      0x2fa8b95c1db7afe99e3398f3792f008135cedc1fa26b0bb2ecd2352cd166d53c\n      swap1\n      0x00\n      swap1\n      log2\n        /* \"erc3643/registry/implementation/IdentityRegistry.sol\":1777:1793  __Ownable_init() */\n      tag_165\n        /* \"erc3643/registry/implementation/IdentityRegistry.sol\":1777:1791  __Ownable_init */\n      tag_166\n        /* \"erc3643/registry/implementation/IdentityRegistry.sol\":1777:1793  __Ownable_init() */\n      jump\t// in\n    tag_165:\n        /* \"@openzeppelin/contracts-upgradeable/proxy/utils/Initializable.sol\":3651:3665  isTopLevelCall */\n      dup1\n        /* \"@openzeppelin/contracts-upgradeable/proxy/utils/Initializable.sol\":3647:3746  if (isTopLevelCall) {... */\n      iszero\n      tag_167\n      jumpi\n        /* \"@openzeppelin/contracts-upgradeable/proxy/utils/Initializable.sol\":3697:3702  false */\n      0x00\n        /* \"@openzeppelin/contracts-upgradeable/proxy/utils/Initializable.sol\":3681:3702  _initializing = false */\n      dup1\n      sload\n      not(0xff00)\n      and\n      swap1\n      sstore\n        /* \"@openzeppelin/contracts-upgradeable/proxy/utils/Initializable.sol\":3721:3735  Initialized(1) */\n      mload(0x40)\n      0x01\n        /* \"#utility.yul\":7330:7366   */\n      dup2\n      mstore\n        /* \"@openzeppelin/contracts-upgradeable/proxy/utils/Initializable.sol\":3721:3735  Initialized(1) */\n      0x7f26b83ff96e1f2b6a682f133852f6798a09c465da95921460cefb3847402498\n      swap1\n        /* \"#utility.yul\":7318:7320   */\n      0x20\n        /* \"#utility.yul\":7303:7321   */\n      add\n        /* \"@openzeppelin/contracts-upgradeable/proxy/utils/Initializable.sol\":3721:3735  Initialized(1) */\n      mload(0x40)\n      dup1\n      swap2\n      sub\n      swap1\n      log1\n        /* \"@openzeppelin/contracts-upgradeable/proxy/utils/Initializable.sol\":3647:3746  if (isTopLevelCall) {... */\n    tag_167:\n        /* \"@openzeppelin/contracts-upgradeable/proxy/utils/Initializable.sol\":3269:3752  {... */\n      pop\n        /* \"erc3643/registry/implementation/IdentityRegistry.sol\":954:1800  function init(... */\n      pop\n      pop\n      pop\n      jump\t// out\n        /* \"erc3643/registry/implementation/IdentityRegistry.sol\":3468:3777  function setIdentityRegistryStorage(address _identityRegistryStorage)... */\n    tag_60:\n      0x00\n      dup1\n      mload\n      0x20\n      data_48848f6f4af5ff2a90f75345111ffab654da14e01d0d715638da4379c8c19ae3\n      dup4\n      codecopy\n      dup2\n      mload\n      swap2\n      mstore\n        /* \"@openzeppelin/contracts-upgradeable/access/AccessControlUpgradeable.sol\":2928:2944  _checkRole(role) */\n      tag_172\n        /* \"erc3643/registry/implementation/IdentityRegistry.sol\":876:942  0xb19546dff01e856fb3f010c267a7b1c60363cf8a4664e21cc89c26224620214e */\n      dup2\n        /* \"@openzeppelin/contracts-upgradeable/access/AccessControlUpgradeable.sol\":2928:2938  _checkRole */\n      tag_173\n        /* \"@openzeppelin/contracts-upgradeable/access/AccessControlUpgradeable.sol\":2928:2944  _checkRole(role) */\n      jump\t// in\n    tag_172:\n        /* \"erc3643/registry/implementation/IdentityRegistry.sol\":3615:3636  _tokenIdentityStorage */\n      0xcb\n        /* \"erc3643/registry/implementation/IdentityRegistry.sol\":3615:3711  _tokenIdentityStorage = IIdentityRegistryStorage(... */\n      dup1\n      sload\n      not(sub(shl(0xa0, 0x01), 0x01))\n      and\n      sub(shl(0xa0, 0x01), 0x01)\n      dup5\n      and\n      swap1\n      dup2\n      or\n      swap1\n      swap2\n      sstore\n        /* \"erc3643/registry/implementation/IdentityRegistry.sol\":3726:3770  IdentityStorageSet(_identityRegistryStorage) */\n      mload(0x40)\n      0x2fa8b95c1db7afe99e3398f3792f008135cedc1fa26b0bb2ecd2352cd166d53c\n      swap1\n      0x00\n      swap1\n      log2\n        /* \"erc3643/registry/implementation/IdentityRegistry.sol\":3468:3777  function setIdentityRegistryStorage(address _identityRegistryStorage)... */\n      pop\n      pop\n      jump\t// out\n        /* \"@openzeppelin/contracts-upgradeable/access/AccessControlUpgradeable.sol\":5259:5404  function grantRole(bytes32 role, address account) public virtual override onlyRole(getRoleAdmin(role)) {... */\n    tag_64:\n        /* \"@openzeppelin/contracts-upgradeable/access/AccessControlUpgradeable.sol\":4908:4915  bytes32 */\n      0x00\n        /* \"@openzeppelin/contracts-upgradeable/access/AccessControlUpgradeable.sol\":4934:4946  _roles[role] */\n      dup3\n      dup2\n      mstore\n        /* \"@openzeppelin/contracts-upgradeable/access/AccessControlUpgradeable.sol\":4934:4940  _roles */\n      0x65\n        /* \"@openzeppelin/contracts-upgradeable/access/AccessControlUpgradeable.sol\":4934:4946  _roles[role] */\n      0x20\n      mstore\n      0x40\n      swap1\n      keccak256\n        /* \"@openzeppelin/contracts-upgradeable/access/AccessControlUpgradeable.sol\":4934:4956  _roles[role].adminRole */\n      0x01\n      add\n      sload\n        /* \"@openzeppelin/contracts-upgradeable/access/AccessControlUpgradeable.sol\":2928:2944  _checkRole(role) */\n      tag_177\n        /* \"@openzeppelin/contracts-upgradeable/access/AccessControlUpgradeable.sol\":2939:2943  role */\n      dup2\n        /* \"@openzeppelin/contracts-upgradeable/access/AccessControlUpgradeable.sol\":2928:2938  _checkRole */\n      tag_173\n        /* \"@openzeppelin/contracts-upgradeable/access/AccessControlUpgradeable.sol\":2928:2944  _checkRole(role) */\n      jump\t// in\n    tag_177:\n        /* \"@openzeppelin/contracts-upgradeable/access/AccessControlUpgradeable.sol\":5372:5397  _grantRole(role, account) */\n      tag_179\n        /* \"@openzeppelin/contracts-upgradeable/access/AccessControlUpgradeable.sol\":5383:5387  role */\n      dup4\n        /* \"@openzeppelin/contracts-upgradeable/access/AccessControlUpgradeable.sol\":5389:5396  account */\n      dup4\n        /* \"@openzeppelin/contracts-upgradeable/access/AccessControlUpgradeable.sol\":5372:5382  _grantRole */\n      tag_180\n        /* \"@openzeppelin/contracts-upgradeable/access/AccessControlUpgradeable.sol\":5372:5397  _grantRole(role, account) */\n      jump\t// in\n    tag_179:\n        /* \"@openzeppelin/contracts-upgradeable/access/AccessControlUpgradeable.sol\":5259:5404  function grantRole(bytes32 role, address account) public virtual override onlyRole(getRoleAdmin(role)) {... */\n      pop\n      pop\n      pop\n      jump\t// out\n        /* \"@openzeppelin/contracts-upgradeable/access/AccessControlUpgradeable.sol\":6368:6582  function renounceRole(bytes32 role, address account) public virtual override {... */\n    tag_67:\n      sub(shl(0xa0, 0x01), 0x01)\n        /* \"@openzeppelin/contracts-upgradeable/access/AccessControlUpgradeable.sol\":6463:6486  account == _msgSender() */\n      dup2\n      and\n        /* \"@openzeppelin/contracts-upgradeable/utils/ContextUpgradeable.sol\":929:939  msg.sender */\n      caller\n        /* \"@openzeppelin/contracts-upgradeable/access/AccessControlUpgradeable.sol\":6463:6486  account == _msgSender() */\n      eq\n        /* \"@openzeppelin/contracts-upgradeable/access/AccessControlUpgradeable.sol\":6455:6538  require(account == _msgSender(), \"AccessControl: can only renounce roles for self\") */\n      tag_184\n      jumpi\n      mload(0x40)\n      shl(0xe5, 0x461bcd)\n      dup2\n      mstore\n        /* \"#utility.yul\":7579:7581   */\n      0x20\n        /* \"@openzeppelin/contracts-upgradeable/access/AccessControlUpgradeable.sol\":6455:6538  require(account == _msgSender(), \"AccessControl: can only renounce roles for self\") */\n      0x04\n      dup3\n      add\n        /* \"#utility.yul\":7561:7582   */\n      mstore\n        /* \"#utility.yul\":7618:7620   */\n      0x2f\n        /* \"#utility.yul\":7598:7616   */\n      0x24\n      dup3\n      add\n        /* \"#utility.yul\":7591:7621   */\n      mstore\n        /* \"#utility.yul\":7657:7691   */\n      0x416363657373436f6e74726f6c3a2063616e206f6e6c792072656e6f756e6365\n        /* \"#utility.yul\":7637:7655   */\n      0x44\n      dup3\n      add\n        /* \"#utility.yul\":7630:7692   */\n      mstore\n      shl(0x89, 0x103937b632b9903337b91039b2b633)\n        /* \"#utility.yul\":7708:7726   */\n      0x64\n      dup3\n      add\n        /* \"#utility.yul\":7701:7746   */\n      mstore\n        /* \"#utility.yul\":7763:7782   */\n      0x84\n      add\n        /* \"@openzeppelin/contracts-upgradeable/access/AccessControlUpgradeable.sol\":6455:6538  require(account == _msgSender(), \"AccessControl: can only renounce roles for self\") */\n      tag_156\n        /* \"#utility.yul\":7377:7788   */\n      jump\n        /* \"@openzeppelin/contracts-upgradeable/access/AccessControlUpgradeable.sol\":6455:6538  require(account == _msgSender(), \"AccessControl: can only renounce roles for self\") */\n    tag_184:\n        /* \"@openzeppelin/contracts-upgradeable/access/AccessControlUpgradeable.sol\":6549:6575  _revokeRole(role, account) */\n      tag_187\n        /* \"@openzeppelin/contracts-upgradeable/access/AccessControlUpgradeable.sol\":6561:6565  role */\n      dup3\n        /* \"@openzeppelin/contracts-upgradeable/access/AccessControlUpgradeable.sol\":6567:6574  account */\n      dup3\n        /* \"@openzeppelin/contracts-upgradeable/access/AccessControlUpgradeable.sol\":6549:6560  _revokeRole */\n      tag_188\n        /* \"@openzeppelin/contracts-upgradeable/access/AccessControlUpgradeable.sol\":6549:6575  _revokeRole(role, account) */\n      jump\t// in\n    tag_187:\n        /* \"@openzeppelin/contracts-upgradeable/access/AccessControlUpgradeable.sol\":6368:6582  function renounceRole(bytes32 role, address account) public virtual override {... */\n      pop\n      pop\n      jump\t// out\n        /* \"erc3643/registry/implementation/IdentityRegistry.sol\":2696:3002  function updateCountry(address _userAddress, uint16 _country)... */\n    tag_71:\n      0x00\n      dup1\n      mload\n      0x20\n      data_83599f2fd2d7ecec31a0c854e1dfa0cd718f43d0f25b15e620b3800dba1a8107\n      dup4\n      codecopy\n      dup2\n      mload\n      swap2\n      mstore\n        /* \"@openzeppelin/contracts-upgradeable/access/AccessControlUpgradeable.sol\":2928:2944  _checkRole(role) */\n      tag_190\n        /* \"erc3643/registry/implementation/IdentityRegistry.sol\":758:824  0xcab5a0bfe0b79d2c4b1c2e02599fa044d115b7511f9659307cb4276950967709 */\n      dup2\n        /* \"@openzeppelin/contracts-upgradeable/access/AccessControlUpgradeable.sol\":2928:2938  _checkRole */\n      tag_173\n        /* \"@openzeppelin/contracts-upgradeable/access/AccessControlUpgradeable.sol\":2928:2944  _checkRole(role) */\n      jump\t// in\n    tag_190:\n        /* \"erc3643/registry/implementation/IdentityRegistry.sol\":2835:2856  _tokenIdentityStorage */\n      sload(0xcb)\n        /* \"erc3643/registry/implementation/IdentityRegistry.sol\":2835:2942  _tokenIdentityStorage.modifyStoredInvestorCountry(... */\n      mload(0x40)\n      shl(0xe0, 0x9f3418d5)\n      dup2\n      mstore\n      sub(shl(0xa0, 0x01), 0x01)\n        /* \"#utility.yul\":7983:8015   */\n      dup6\n      dup2\n      and\n        /* \"erc3643/registry/implementation/IdentityRegistry.sol\":2835:2942  _tokenIdentityStorage.modifyStoredInvestorCountry(... */\n      0x04\n      dup4\n      add\n        /* \"#utility.yul\":7965:8016   */\n      mstore\n        /* \"#utility.yul\":8064:8070   */\n      0xffff\n        /* \"#utility.yul\":8052:8071   */\n      dup6\n      and\n        /* \"#utility.yul\":8032:8050   */\n      0x24\n      dup4\n      add\n        /* \"#utility.yul\":8025:8072   */\n      mstore\n        /* \"erc3643/registry/implementation/IdentityRegistry.sol\":2835:2856  _tokenIdentityStorage */\n      swap1\n      swap2\n      and\n      swap1\n        /* \"erc3643/registry/implementation/IdentityRegistry.sol\":2835:2884  _tokenIdentityStorage.modifyStoredInvestorCountry */\n      0x9f3418d5\n      swap1\n        /* \"#utility.yul\":7938:7956   */\n      0x44\n      add\n        /* \"erc3643/registry/implementation/IdentityRegistry.sol\":2835:2942  _tokenIdentityStorage.modifyStoredInvestorCountry(... */\n      0x00\n      mload(0x40)\n      dup1\n      dup4\n      sub\n      dup2\n      0x00\n      dup8\n      dup1\n      extcodesize\n      iszero\n      dup1\n      iszero\n      tag_194\n      jumpi\n      0x00\n      dup1\n      revert\n    tag_194:\n      pop\n      gas\n      call\n      iszero\n      dup1\n      iszero\n      tag_196\n      jumpi\n      returndatasize\n      0x00\n      dup1\n      returndatacopy\n      revert(0x00, returndatasize)\n    tag_196:\n      pop\n      pop\n        /* \"erc3643/registry/implementation/IdentityRegistry.sol\":2957:2995  CountryUpdated(_userAddress, _country) */\n      mload(0x40)\n      0xffff\n      dup6\n      and\n      swap3\n      pop\n      sub(shl(0xa0, 0x01), 0x01)\n      dup7\n      and\n      swap2\n      pop\n      0x04ed3b726495c2dca1ff1215d9ca54e1a4030abb5e82b0f6ce55702416cee853\n      swap1\n      0x00\n      swap1\n      log3\n        /* \"erc3643/registry/implementation/IdentityRegistry.sol\":2696:3002  function updateCountry(address _userAddress, uint16 _country)... */\n      pop\n      pop\n      pop\n      jump\t// out\n        /* \"erc3643/registry/implementation/IdentityRegistry.sol\":8590:8941  function registerIdentity(... */\n    tag_79:\n      0x00\n      dup1\n      mload\n      0x20\n      data_83599f2fd2d7ecec31a0c854e1dfa0cd718f43d0f25b15e620b3800dba1a8107\n      dup4\n      codecopy\n      dup2\n      mload\n      swap2\n      mstore\n        /* \"@openzeppelin/contracts-upgradeable/access/AccessControlUpgradeable.sol\":2928:2944  _checkRole(role) */\n      tag_199\n        /* \"erc3643/registry/implementation/IdentityRegistry.sol\":758:824  0xcab5a0bfe0b79d2c4b1c2e02599fa044d115b7511f9659307cb4276950967709 */\n      dup2\n        /* \"@openzeppelin/contracts-upgradeable/access/AccessControlUpgradeable.sol\":2928:2938  _checkRole */\n      tag_173\n        /* \"@openzeppelin/contracts-upgradeable/access/AccessControlUpgradeable.sol\":2928:2944  _checkRole(role) */\n      jump\t// in\n    tag_199:\n        /* \"erc3643/registry/implementation/IdentityRegistry.sol\":8753:8774  _tokenIdentityStorage */\n      sload(0xcb)\n        /* \"erc3643/registry/implementation/IdentityRegistry.sol\":8753:8876  _tokenIdentityStorage.addIdentityToStorage(... */\n      mload(0x40)\n      shl(0xe0, 0xa53410dd)\n      dup2\n      mstore\n      sub(shl(0xa0, 0x01), 0x01)\n        /* \"#utility.yul\":8356:8371   */\n      dup7\n      dup2\n      and\n        /* \"erc3643/registry/implementation/IdentityRegistry.sol\":8753:8876  _tokenIdentityStorage.addIdentityToStorage(... */\n      0x04\n      dup4\n      add\n        /* \"#utility.yul\":8338:8372   */\n      mstore\n        /* \"#utility.yul\":8408:8423   */\n      dup6\n      dup2\n      and\n        /* \"#utility.yul\":8388:8406   */\n      0x24\n      dup4\n      add\n        /* \"#utility.yul\":8381:8424   */\n      mstore\n        /* \"#utility.yul\":8472:8478   */\n      0xffff\n        /* \"#utility.yul\":8460:8479   */\n      dup6\n      and\n        /* \"#utility.yul\":8440:8458   */\n      0x44\n      dup4\n      add\n        /* \"#utility.yul\":8433:8480   */\n      mstore\n        /* \"erc3643/registry/implementation/IdentityRegistry.sol\":8753:8774  _tokenIdentityStorage */\n      swap1\n      swap2\n      and\n      swap1\n        /* \"erc3643/registry/implementation/IdentityRegistry.sol\":8753:8795  _tokenIdentityStorage.addIdentityToStorage */\n      0xa53410dd\n      swap1\n        /* \"#utility.yul\":8273:8291   */\n      0x64\n      add\n        /* \"erc3643/registry/implementation/IdentityRegistry.sol\":8753:8876  _tokenIdentityStorage.addIdentityToStorage(... */\n      0x00\n      mload(0x40)\n      dup1\n      dup4\n      sub\n      dup2\n      0x00\n      dup8\n      dup1\n      extcodesize\n      iszero\n      dup1\n      iszero\n      tag_203\n      jumpi\n      0x00\n      dup1\n      revert\n    tag_203:\n      pop\n      gas\n      call\n      iszero\n      dup1\n      iszero\n      tag_205\n      jumpi\n      returndatasize\n      0x00\n      dup1\n      returndatacopy\n      revert(0x00, returndatasize)\n    tag_205:\n      pop\n      pop\n        /* \"erc3643/registry/implementation/IdentityRegistry.sol\":8891:8934  IdentityRegistered(_userAddress, _identity) */\n      mload(0x40)\n      sub(shl(0xa0, 0x01), 0x01)\n      dup1\n      dup8\n      and\n      swap4\n      pop\n      dup8\n      and\n      swap2\n      pop\n      0x6ae73635c50d24a45af6fbd5e016ac4bed179addbc8bf24e04ff0fcc6d33af19\n      swap1\n      0x00\n      swap1\n      log3\n        /* \"erc3643/registry/implementation/IdentityRegistry.sol\":8590:8941  function registerIdentity(... */\n      pop\n      pop\n      pop\n      pop\n      jump\t// out\n        /* \"erc3643/registry/implementation/IdentityRegistry.sol\":8274:8513  function contains(address _userAddress)... */\n    tag_82:\n        /* \"erc3643/registry/implementation/IdentityRegistry.sol\":8378:8382  bool */\n      0x00\n      dup1\n        /* \"erc3643/registry/implementation/IdentityRegistry.sol\":8410:8432  identity(_userAddress) */\n      tag_207\n        /* \"erc3643/registry/implementation/IdentityRegistry.sol\":8419:8431  _userAddress */\n      dup4\n        /* \"erc3643/registry/implementation/IdentityRegistry.sol\":8410:8418  identity */\n      tag_135\n        /* \"erc3643/registry/implementation/IdentityRegistry.sol\":8410:8432  identity(_userAddress) */\n      jump\t// in\n    tag_207:\n      sub(shl(0xa0, 0x01), 0x01)\n        /* \"erc3643/registry/implementation/IdentityRegistry.sol\":8402:8447  address(identity(_userAddress)) == address(0) */\n      and\n      sub\n        /* \"erc3643/registry/implementation/IdentityRegistry.sol\":8398:8486  if (address(identity(_userAddress)) == address(0)) {... */\n      tag_208\n      jumpi\n      pop\n        /* \"erc3643/registry/implementation/IdentityRegistry.sol\":8470:8475  false */\n      0x00\n      swap2\n        /* \"erc3643/registry/implementation/IdentityRegistry.sol\":8274:8513  function contains(address _userAddress)... */\n      swap1\n      pop\n      jump\t// out\n        /* \"erc3643/registry/implementation/IdentityRegistry.sol\":8398:8486  if (address(identity(_userAddress)) == address(0)) {... */\n    tag_208:\n      pop\n        /* \"erc3643/registry/implementation/IdentityRegistry.sol\":8502:8506  true */\n      0x01\n      swap2\n        /* \"erc3643/registry/implementation/IdentityRegistry.sol\":8274:8513  function contains(address _userAddress)... */\n      swap1\n      pop\n      jump\t// out\n        /* \"erc3643/registry/implementation/IdentityRegistry.sol\":1882:2219  function batchRegisterIdentity(... */\n    tag_87:\n        /* \"erc3643/registry/implementation/IdentityRegistry.sol\":2075:2084  uint256 i */\n      0x00\n        /* \"erc3643/registry/implementation/IdentityRegistry.sol\":2070:2213  for (uint256 i = 0; i < _userAddresses.length; i++) {... */\n    tag_210:\n        /* \"erc3643/registry/implementation/IdentityRegistry.sol\":2090:2115  i < _userAddresses.length */\n      dup6\n      dup2\n      lt\n        /* \"erc3643/registry/implementation/IdentityRegistry.sol\":2070:2213  for (uint256 i = 0; i < _userAddresses.length; i++) {... */\n      iszero\n      tag_211\n      jumpi\n        /* \"erc3643/registry/implementation/IdentityRegistry.sol\":2136:2202  registerIdentity(_userAddresses[i], _identities[i], _countries[i]) */\n      tag_213\n        /* \"erc3643/registry/implementation/IdentityRegistry.sol\":2153:2167  _userAddresses */\n      dup8\n      dup8\n        /* \"erc3643/registry/implementation/IdentityRegistry.sol\":2168:2169  i */\n      dup4\n        /* \"erc3643/registry/implementation/IdentityRegistry.sol\":2153:2170  _userAddresses[i] */\n      dup2\n      dup2\n      lt\n      tag_215\n      jumpi\n      tag_215\n      tag_216\n      jump\t// in\n    tag_215:\n      swap1\n      pop\n      0x20\n      mul\n      add\n      0x20\n      dup2\n      add\n      swap1\n      tag_217\n      swap2\n      swap1\n      tag_59\n      jump\t// in\n    tag_217:\n        /* \"erc3643/registry/implementation/IdentityRegistry.sol\":2172:2183  _identities */\n      dup7\n      dup7\n        /* \"erc3643/registry/implementation/IdentityRegistry.sol\":2184:2185  i */\n      dup5\n        /* \"erc3643/registry/implementation/IdentityRegistry.sol\":2172:2186  _identities[i] */\n      dup2\n      dup2\n      lt\n      tag_219\n      jumpi\n      tag_219\n      tag_216\n      jump\t// in\n    tag_219:\n      swap1\n      pop\n      0x20\n      mul\n      add\n      0x20\n      dup2\n      add\n      swap1\n      tag_220\n      swap2\n      swap1\n      tag_59\n      jump\t// in\n    tag_220:\n        /* \"erc3643/registry/implementation/IdentityRegistry.sol\":2188:2198  _countries */\n      dup6\n      dup6\n        /* \"erc3643/registry/implementation/IdentityRegistry.sol\":2199:2200  i */\n      dup6\n        /* \"erc3643/registry/implementation/IdentityRegistry.sol\":2188:2201  _countries[i] */\n      dup2\n      dup2\n      lt\n      tag_223\n      jumpi\n      tag_223\n      tag_216\n      jump\t// in\n    tag_223:\n      swap1\n      pop\n      0x20\n      mul\n      add\n      0x20\n      dup2\n      add\n      swap1\n      tag_77\n      swap2\n      swap1\n      tag_225\n      jump\t// in\n        /* \"erc3643/registry/implementation/IdentityRegistry.sol\":2136:2202  registerIdentity(_userAddresses[i], _identities[i], _countries[i]) */\n    tag_213:\n        /* \"erc3643/registry/implementation/IdentityRegistry.sol\":2117:2120  i++ */\n      dup1\n      tag_226\n      dup2\n      tag_227\n      jump\t// in\n    tag_226:\n      swap2\n      pop\n      pop\n        /* \"erc3643/registry/implementation/IdentityRegistry.sol\":2070:2213  for (uint256 i = 0; i < _userAddresses.length; i++) {... */\n      jump(tag_210)\n    tag_211:\n      pop\n        /* \"erc3643/registry/implementation/IdentityRegistry.sol\":1882:2219  function batchRegisterIdentity(... */\n      pop\n      pop\n      pop\n      pop\n      pop\n      pop\n      jump\t// out\n        /* \"erc3643/registry/implementation/IdentityRegistry.sol\":3860:4130  function setClaimTopicsRegistry(address _claimTopicsRegistry)... */\n    tag_90:\n      0x00\n      dup1\n      mload\n      0x20\n      data_48848f6f4af5ff2a90f75345111ffab654da14e01d0d715638da4379c8c19ae3\n      dup4\n      codecopy\n      dup2\n      mload\n      swap2\n      mstore\n        /* \"@openzeppelin/contracts-upgradeable/access/AccessControlUpgradeable.sol\":2928:2944  _checkRole(role) */\n      tag_229\n        /* \"erc3643/registry/implementation/IdentityRegistry.sol\":876:942  0xb19546dff01e856fb3f010c267a7b1c60363cf8a4664e21cc89c26224620214e */\n      dup2\n        /* \"@openzeppelin/contracts-upgradeable/access/AccessControlUpgradeable.sol\":2928:2938  _checkRole */\n      tag_173\n        /* \"@openzeppelin/contracts-upgradeable/access/AccessControlUpgradeable.sol\":2928:2944  _checkRole(role) */\n      jump\t// in\n    tag_229:\n        /* \"erc3643/registry/implementation/IdentityRegistry.sol\":3999:4019  _tokenTopicsRegistry */\n      0xc9\n        /* \"erc3643/registry/implementation/IdentityRegistry.sol\":3999:4064  _tokenTopicsRegistry = IClaimTopicsRegistry(_claimTopicsRegistry) */\n      dup1\n      sload\n      not(sub(shl(0xa0, 0x01), 0x01))\n      and\n      sub(shl(0xa0, 0x01), 0x01)\n      dup5\n      and\n      swap1\n      dup2\n      or\n      swap1\n      swap2\n      sstore\n        /* \"erc3643/registry/implementation/IdentityRegistry.sol\":4079:4123  ClaimTopicsRegistrySet(_claimTopicsRegistry) */\n      mload(0x40)\n      0x7170bf15b246e880b2369cd7c67d057760d8a35149e8c64dde91efa22bcc76d0\n      swap1\n      0x00\n      swap1\n      log2\n        /* \"erc3643/registry/implementation/IdentityRegistry.sol\":3860:4130  function setClaimTopicsRegistry(address _claimTopicsRegistry)... */\n      pop\n      pop\n      jump\t// out\n        /* \"@openzeppelin/contracts-upgradeable/access/OwnableUpgradeable.sol\":2064:2165  function renounceOwnership() public virtual onlyOwner {... */\n    tag_92:\n        /* \"@openzeppelin/contracts-upgradeable/access/OwnableUpgradeable.sol\":1334:1347  _checkOwner() */\n      tag_232\n        /* \"@openzeppelin/contracts-upgradeable/access/OwnableUpgradeable.sol\":1334:1345  _checkOwner */\n      tag_233\n        /* \"@openzeppelin/contracts-upgradeable/access/OwnableUpgradeable.sol\":1334:1347  _checkOwner() */\n      jump\t// in\n    tag_232:\n        /* \"@openzeppelin/contracts-upgradeable/access/OwnableUpgradeable.sol\":2128:2158  _transferOwnership(address(0)) */\n      tag_235\n        /* \"@openzeppelin/contracts-upgradeable/access/OwnableUpgradeable.sol\":2155:2156  0 */\n      0x00\n        /* \"@openzeppelin/contracts-upgradeable/access/OwnableUpgradeable.sol\":2128:2146  _transferOwnership */\n      tag_236\n        /* \"@openzeppelin/contracts-upgradeable/access/OwnableUpgradeable.sol\":2128:2158  _transferOwnership(address(0)) */\n      jump\t// in\n    tag_235:\n        /* \"@openzeppelin/contracts-upgradeable/access/OwnableUpgradeable.sol\":2064:2165  function renounceOwnership() public virtual onlyOwner {... */\n      jump\t// out\n        /* \"erc3643/registry/implementation/IdentityRegistry.sol\":7283:7487  function investorCountry(address _userAddress)... */\n    tag_95:\n        /* \"erc3643/registry/implementation/IdentityRegistry.sol\":7423:7444  _tokenIdentityStorage */\n      sload(0xcb)\n        /* \"erc3643/registry/implementation/IdentityRegistry.sol\":7423:7480  _tokenIdentityStorage.storedInvestorCountry(_userAddress) */\n      mload(0x40)\n      shl(0xe2, 0x1c9f84ef)\n      dup2\n      mstore\n      sub(shl(0xa0, 0x01), 0x01)\n        /* \"#utility.yul\":2812:2844   */\n      dup4\n      dup2\n      and\n        /* \"erc3643/registry/implementation/IdentityRegistry.sol\":7423:7480  _tokenIdentityStorage.storedInvestorCountry(_userAddress) */\n      0x04\n      dup4\n      add\n        /* \"#utility.yul\":2794:2845   */\n      mstore\n        /* \"erc3643/registry/implementation/IdentityRegistry.sol\":7394:7400  uint16 */\n      0x00\n      swap3\n        /* \"erc3643/registry/implementation/IdentityRegistry.sol\":7423:7444  _tokenIdentityStorage */\n      and\n      swap1\n        /* \"erc3643/registry/implementation/IdentityRegistry.sol\":7423:7466  _tokenIdentityStorage.storedInvestorCountry */\n      0x727e13bc\n      swap1\n        /* \"#utility.yul\":2767:2785   */\n      0x24\n      add\n        /* \"erc3643/registry/implementation/IdentityRegistry.sol\":7423:7480  _tokenIdentityStorage.storedInvestorCountry(_userAddress) */\n      0x20\n      mload(0x40)\n      dup1\n      dup4\n      sub\n      dup2\n      dup7\n      gas\n      staticcall\n      iszero\n      dup1\n      iszero\n      tag_240\n      jumpi\n      returndatasize\n      0x00\n      dup1\n      returndatacopy\n      revert(0x00, returndatasize)\n    tag_240:\n      pop\n      pop\n      pop\n      pop\n      mload(0x40)\n      returndatasize\n      not(0x1f)\n      0x1f\n      dup3\n      add\n      and\n      dup3\n      add\n      dup1\n      0x40\n      mstore\n      pop\n      dup2\n      add\n      swap1\n      tag_147\n      swap2\n      swap1\n      tag_242\n      jump\t// in\n        /* \"erc3643/registry/implementation/IdentityRegistry.sol\":2294:2622  function updateIdentity(address _userAddress, IIdentity _identity)... */\n    tag_105:\n      0x00\n      dup1\n      mload\n      0x20\n      data_83599f2fd2d7ecec31a0c854e1dfa0cd718f43d0f25b15e620b3800dba1a8107\n      dup4\n      codecopy\n      dup2\n      mload\n      swap2\n      mstore\n        /* \"@openzeppelin/contracts-upgradeable/access/AccessControlUpgradeable.sol\":2928:2944  _checkRole(role) */\n      tag_245\n        /* \"erc3643/registry/implementation/IdentityRegistry.sol\":758:824  0xcab5a0bfe0b79d2c4b1c2e02599fa044d115b7511f9659307cb4276950967709 */\n      dup2\n        /* \"@openzeppelin/contracts-upgradeable/access/AccessControlUpgradeable.sol\":2928:2938  _checkRole */\n      tag_173\n        /* \"@openzeppelin/contracts-upgradeable/access/AccessControlUpgradeable.sol\":2928:2944  _checkRole(role) */\n      jump\t// in\n    tag_245:\n        /* \"erc3643/registry/implementation/IdentityRegistry.sol\":2438:2459  IIdentity oldIdentity */\n      0x00\n        /* \"erc3643/registry/implementation/IdentityRegistry.sol\":2462:2484  identity(_userAddress) */\n      tag_247\n        /* \"erc3643/registry/implementation/IdentityRegistry.sol\":2471:2483  _userAddress */\n      dup5\n        /* \"erc3643/registry/implementation/IdentityRegistry.sol\":2462:2470  identity */\n      tag_135\n        /* \"erc3643/registry/implementation/IdentityRegistry.sol\":2462:2484  identity(_userAddress) */\n      jump\t// in\n    tag_247:\n        /* \"erc3643/registry/implementation/IdentityRegistry.sol\":2494:2515  _tokenIdentityStorage */\n      sload(0xcb)\n        /* \"erc3643/registry/implementation/IdentityRegistry.sol\":2494:2561  _tokenIdentityStorage.modifyStoredIdentity(_userAddress, _identity) */\n      mload(0x40)\n      shl(0xe1, 0x7402e7c3)\n      dup2\n      mstore\n      sub(shl(0xa0, 0x01), 0x01)\n        /* \"#utility.yul\":9915:9930   */\n      dup8\n      dup2\n      and\n        /* \"erc3643/registry/implementation/IdentityRegistry.sol\":2494:2561  _tokenIdentityStorage.modifyStoredIdentity(_userAddress, _identity) */\n      0x04\n      dup4\n      add\n        /* \"#utility.yul\":9897:9931   */\n      mstore\n        /* \"#utility.yul\":9967:9982   */\n      dup7\n      dup2\n      and\n        /* \"#utility.yul\":9947:9965   */\n      0x24\n      dup4\n      add\n        /* \"#utility.yul\":9940:9983   */\n      mstore\n        /* \"erc3643/registry/implementation/IdentityRegistry.sol\":2438:2484  IIdentity oldIdentity = identity(_userAddress) */\n      swap3\n      swap4\n      pop\n        /* \"erc3643/registry/implementation/IdentityRegistry.sol\":2494:2515  _tokenIdentityStorage */\n      swap2\n      and\n      swap1\n        /* \"erc3643/registry/implementation/IdentityRegistry.sol\":2494:2536  _tokenIdentityStorage.modifyStoredIdentity */\n      0xe805cf86\n      swap1\n        /* \"#utility.yul\":9832:9850   */\n      0x44\n      add\n        /* \"erc3643/registry/implementation/IdentityRegistry.sol\":2494:2561  _tokenIdentityStorage.modifyStoredIdentity(_userAddress, _identity) */\n      0x00\n      mload(0x40)\n      dup1\n      dup4\n      sub\n      dup2\n      0x00\n      dup8\n      dup1\n      extcodesize\n      iszero\n      dup1\n      iszero\n      tag_250\n      jumpi\n      0x00\n      dup1\n      revert\n    tag_250:\n      pop\n      gas\n      call\n      iszero\n      dup1\n      iszero\n      tag_252\n      jumpi\n      returndatasize\n      0x00\n      dup1\n      returndatacopy\n      revert(0x00, returndatasize)\n    tag_252:\n      pop\n      pop\n        /* \"erc3643/registry/implementation/IdentityRegistry.sol\":2576:2615  IdentityUpdated(oldIdentity, _identity) */\n      mload(0x40)\n      sub(shl(0xa0, 0x01), 0x01)\n      dup1\n      dup8\n      and\n      swap4\n      pop\n      dup5\n      and\n      swap2\n      pop\n      0xe98082932c8056a0f514da9104e4a66bc2cbaef102ad59d90c4b24220ebf6010\n      swap1\n      0x00\n      swap1\n      log3\n        /* \"erc3643/registry/implementation/IdentityRegistry.sol\":2428:2622  {... */\n      pop\n        /* \"erc3643/registry/implementation/IdentityRegistry.sol\":2294:2622  function updateIdentity(address _userAddress, IIdentity _identity)... */\n      pop\n      pop\n      pop\n      jump\t// out\n        /* \"@openzeppelin/contracts-upgradeable/access/AccessControlUpgradeable.sol\":3329:3474  function hasRole(bytes32 role, address account) public view virtual override returns (bool) {... */\n    tag_108:\n        /* \"@openzeppelin/contracts-upgradeable/access/AccessControlUpgradeable.sol\":3415:3419  bool */\n      0x00\n        /* \"@openzeppelin/contracts-upgradeable/access/AccessControlUpgradeable.sol\":3438:3450  _roles[role] */\n      swap2\n      dup3\n      mstore\n        /* \"@openzeppelin/contracts-upgradeable/access/AccessControlUpgradeable.sol\":3438:3444  _roles */\n      0x65\n        /* \"@openzeppelin/contracts-upgradeable/access/AccessControlUpgradeable.sol\":3438:3450  _roles[role] */\n      0x20\n      swap1\n      dup2\n      mstore\n      0x40\n      dup1\n      dup5\n      keccak256\n      sub(shl(0xa0, 0x01), 0x01)\n        /* \"@openzeppelin/contracts-upgradeable/access/AccessControlUpgradeable.sol\":3438:3467  _roles[role].members[account] */\n      swap4\n      swap1\n      swap4\n      and\n      dup5\n      mstore\n      swap2\n      swap1\n      mstore\n      swap1\n      keccak256\n      sload\n      0xff\n      and\n      swap1\n        /* \"@openzeppelin/contracts-upgradeable/access/AccessControlUpgradeable.sol\":3329:3474  function hasRole(bytes32 role, address account) public view virtual override returns (bool) {... */\n      jump\t// out\n        /* \"erc3643/registry/implementation/IdentityRegistry.sol\":3077:3381  function deleteIdentity(address _userAddress)... */\n    tag_115:\n      0x00\n      dup1\n      mload\n      0x20\n      data_83599f2fd2d7ecec31a0c854e1dfa0cd718f43d0f25b15e620b3800dba1a8107\n      dup4\n      codecopy\n      dup2\n      mload\n      swap2\n      mstore\n        /* \"@openzeppelin/contracts-upgradeable/access/AccessControlUpgradeable.sol\":2928:2944  _checkRole(role) */\n      tag_255\n        /* \"erc3643/registry/implementation/IdentityRegistry.sol\":758:824  0xcab5a0bfe0b79d2c4b1c2e02599fa044d115b7511f9659307cb4276950967709 */\n      dup2\n        /* \"@openzeppelin/contracts-upgradeable/access/AccessControlUpgradeable.sol\":2928:2938  _checkRole */\n      tag_173\n        /* \"@openzeppelin/contracts-upgradeable/access/AccessControlUpgradeable.sol\":2928:2944  _checkRole(role) */\n      jump\t// in\n    tag_255:\n        /* \"erc3643/registry/implementation/IdentityRegistry.sol\":3200:3221  IIdentity oldIdentity */\n      0x00\n        /* \"erc3643/registry/implementation/IdentityRegistry.sol\":3224:3246  identity(_userAddress) */\n      tag_257\n        /* \"erc3643/registry/implementation/IdentityRegistry.sol\":3233:3245  _userAddress */\n      dup4\n        /* \"erc3643/registry/implementation/IdentityRegistry.sol\":3224:3232  identity */\n      tag_135\n        /* \"erc3643/registry/implementation/IdentityRegistry.sol\":3224:3246  identity(_userAddress) */\n      jump\t// in\n    tag_257:\n        /* \"erc3643/registry/implementation/IdentityRegistry.sol\":3256:3277  _tokenIdentityStorage */\n      sload(0xcb)\n        /* \"erc3643/registry/implementation/IdentityRegistry.sol\":3256:3317  _tokenIdentityStorage.removeIdentityFromStorage(_userAddress) */\n      mload(0x40)\n      shl(0xe0, 0xcf191bcd)\n      dup2\n      mstore\n      sub(shl(0xa0, 0x01), 0x01)\n        /* \"#utility.yul\":2812:2844   */\n      dup7\n      dup2\n      and\n        /* \"erc3643/registry/implementation/IdentityRegistry.sol\":3256:3317  _tokenIdentityStorage.removeIdentityFromStorage(_userAddress) */\n      0x04\n      dup4\n      add\n        /* \"#utility.yul\":2794:2845   */\n      mstore\n        /* \"erc3643/registry/implementation/IdentityRegistry.sol\":3200:3246  IIdentity oldIdentity = identity(_userAddress) */\n      swap3\n      swap4\n      pop\n        /* \"erc3643/registry/implementation/IdentityRegistry.sol\":3256:3277  _tokenIdentityStorage */\n      swap2\n      and\n      swap1\n        /* \"erc3643/registry/implementation/IdentityRegistry.sol\":3256:3303  _tokenIdentityStorage.removeIdentityFromStorage */\n      0xcf191bcd\n      swap1\n        /* \"#utility.yul\":2767:2785   */\n      0x24\n      add\n        /* \"erc3643/registry/implementation/IdentityRegistry.sol\":3256:3317  _tokenIdentityStorage.removeIdentityFromStorage(_userAddress) */\n      0x00\n      mload(0x40)\n      dup1\n      dup4\n      sub\n      dup2\n      0x00\n      dup8\n      dup1\n      extcodesize\n      iszero\n      dup1\n      iszero\n      tag_259\n      jumpi\n      0x00\n      dup1\n      revert\n    tag_259:\n      pop\n      gas\n      call\n      iszero\n      dup1\n      iszero\n      tag_261\n      jumpi\n      returndatasize\n      0x00\n      dup1\n      returndatacopy\n      revert(0x00, returndatasize)\n    tag_261:\n      pop\n      pop\n        /* \"erc3643/registry/implementation/IdentityRegistry.sol\":3332:3374  IdentityRemoved(_userAddress, oldIdentity) */\n      mload(0x40)\n      sub(shl(0xa0, 0x01), 0x01)\n      dup1\n      dup6\n      and\n      swap4\n      pop\n      dup7\n      and\n      swap2\n      pop\n      0x59d6590e225b81befe259af056324092801080acbb7feab310eb34678871f327\n      swap1\n      0x00\n      swap1\n      log3\n        /* \"erc3643/registry/implementation/IdentityRegistry.sol\":3190:3381  {... */\n      pop\n        /* \"erc3643/registry/implementation/IdentityRegistry.sol\":3077:3381  function deleteIdentity(address _userAddress)... */\n      pop\n      pop\n      jump\t// out\n        /* \"erc3643/registry/implementation/IdentityRegistry.sol\":4647:7207  function isVerified(address _userAddress)... */\n    tag_122:\n        /* \"erc3643/registry/implementation/IdentityRegistry.sol\":4753:4757  bool */\n      0x00\n      dup1\n        /* \"erc3643/registry/implementation/IdentityRegistry.sol\":4785:4807  identity(_userAddress) */\n      tag_264\n        /* \"erc3643/registry/implementation/IdentityRegistry.sol\":4794:4806  _userAddress */\n      dup4\n        /* \"erc3643/registry/implementation/IdentityRegistry.sol\":4785:4793  identity */\n      tag_135\n        /* \"erc3643/registry/implementation/IdentityRegistry.sol\":4785:4807  identity(_userAddress) */\n      jump\t// in\n    tag_264:\n      sub(shl(0xa0, 0x01), 0x01)\n        /* \"erc3643/registry/implementation/IdentityRegistry.sol\":4777:4822  address(identity(_userAddress)) == address(0) */\n      and\n      sub\n        /* \"erc3643/registry/implementation/IdentityRegistry.sol\":4773:4861  if (address(identity(_userAddress)) == address(0)) {... */\n      tag_265\n      jumpi\n      pop\n        /* \"erc3643/registry/implementation/IdentityRegistry.sol\":4845:4850  false */\n      0x00\n      swap2\n        /* \"erc3643/registry/implementation/IdentityRegistry.sol\":4647:7207  function isVerified(address _userAddress)... */\n      swap1\n      pop\n      jump\t// out\n        /* \"erc3643/registry/implementation/IdentityRegistry.sol\":4773:4861  if (address(identity(_userAddress)) == address(0)) {... */\n    tag_265:\n        /* \"erc3643/registry/implementation/IdentityRegistry.sol\":4909:4929  _tokenTopicsRegistry */\n      sload(0xc9)\n        /* \"erc3643/registry/implementation/IdentityRegistry.sol\":4909:4959  _tokenTopicsRegistry... */\n      0x40\n      dup1\n      mload\n      shl(0xe2, 0x37c27581)\n      dup2\n      mstore\n      swap1\n      mload\n        /* \"erc3643/registry/implementation/IdentityRegistry.sol\":4870:4906  uint256[] memory requiredClaimTopics */\n      0x00\n      swap3\n      sub(shl(0xa0, 0x01), 0x01)\n        /* \"erc3643/registry/implementation/IdentityRegistry.sol\":4909:4929  _tokenTopicsRegistry */\n      and\n      swap2\n        /* \"erc3643/registry/implementation/IdentityRegistry.sol\":4909:4957  _tokenTopicsRegistry... */\n      0xdf09d604\n      swap2\n        /* \"erc3643/registry/implementation/IdentityRegistry.sol\":4909:4959  _tokenTopicsRegistry... */\n      0x04\n      dup1\n      dup4\n      add\n      swap3\n        /* \"erc3643/registry/implementation/IdentityRegistry.sol\":4870:4906  uint256[] memory requiredClaimTopics */\n      dup7\n      swap3\n        /* \"erc3643/registry/implementation/IdentityRegistry.sol\":4909:4959  _tokenTopicsRegistry... */\n      swap2\n      swap1\n      dup3\n      swap1\n      sub\n      add\n      dup2\n        /* \"erc3643/registry/implementation/IdentityRegistry.sol\":4909:4929  _tokenTopicsRegistry */\n      dup7\n        /* \"erc3643/registry/implementation/IdentityRegistry.sol\":4909:4959  _tokenTopicsRegistry... */\n      gas\n      staticcall\n      iszero\n      dup1\n      iszero\n      tag_267\n      jumpi\n      returndatasize\n      0x00\n      dup1\n      returndatacopy\n      revert(0x00, returndatasize)\n    tag_267:\n      pop\n      pop\n      pop\n      pop\n      mload(0x40)\n      returndatasize\n      0x00\n      dup3\n      returndatacopy\n      0x1f\n      returndatasize\n      swap1\n      dup2\n      add\n      not(0x1f)\n      and\n      dup3\n      add\n      0x40\n      mstore\n      tag_268\n      swap2\n      swap1\n      dup2\n      add\n      swap1\n      tag_269\n      jump\t// in\n    tag_268:\n        /* \"erc3643/registry/implementation/IdentityRegistry.sol\":4870:4959  uint256[] memory requiredClaimTopics = _tokenTopicsRegistry... */\n      swap1\n      pop\n        /* \"erc3643/registry/implementation/IdentityRegistry.sol\":4973:4992  requiredClaimTopics */\n      dup1\n        /* \"erc3643/registry/implementation/IdentityRegistry.sol\":4973:4999  requiredClaimTopics.length */\n      mload\n        /* \"erc3643/registry/implementation/IdentityRegistry.sol\":5003:5004  0 */\n      0x00\n        /* \"erc3643/registry/implementation/IdentityRegistry.sol\":4973:5004  requiredClaimTopics.length == 0 */\n      sub\n        /* \"erc3643/registry/implementation/IdentityRegistry.sol\":4969:5042  if (requiredClaimTopics.length == 0) {... */\n      tag_270\n      jumpi\n      pop\n        /* \"erc3643/registry/implementation/IdentityRegistry.sol\":5027:5031  true */\n      0x01\n      swap3\n        /* \"erc3643/registry/implementation/IdentityRegistry.sol\":4647:7207  function isVerified(address _userAddress)... */\n      swap2\n      pop\n      pop\n      jump\t// out\n        /* \"erc3643/registry/implementation/IdentityRegistry.sol\":4969:5042  if (requiredClaimTopics.length == 0) {... */\n    tag_270:\n        /* \"erc3643/registry/implementation/IdentityRegistry.sol\":5052:5075  uint256 foundClaimTopic */\n      0x00\n        /* \"erc3643/registry/implementation/IdentityRegistry.sol\":5085:5099  uint256 scheme */\n      dup1\n        /* \"erc3643/registry/implementation/IdentityRegistry.sol\":5109:5123  address issuer */\n      0x00\n        /* \"erc3643/registry/implementation/IdentityRegistry.sol\":5133:5149  bytes memory sig */\n      0x60\n        /* \"erc3643/registry/implementation/IdentityRegistry.sol\":5159:5176  bytes memory data */\n      dup1\n        /* \"erc3643/registry/implementation/IdentityRegistry.sol\":5186:5204  uint256 claimTopic */\n      0x00\n        /* \"erc3643/registry/implementation/IdentityRegistry.sol\":5214:7180  for (... */\n    tag_271:\n        /* \"erc3643/registry/implementation/IdentityRegistry.sol\":5273:5292  requiredClaimTopics */\n      dup7\n        /* \"erc3643/registry/implementation/IdentityRegistry.sol\":5273:5299  requiredClaimTopics.length */\n      mload\n        /* \"erc3643/registry/implementation/IdentityRegistry.sol\":5260:5270  claimTopic */\n      dup2\n        /* \"erc3643/registry/implementation/IdentityRegistry.sol\":5260:5299  claimTopic < requiredClaimTopics.length */\n      lt\n        /* \"erc3643/registry/implementation/IdentityRegistry.sol\":5214:7180  for (... */\n      iszero\n      tag_272\n      jumpi\n        /* \"erc3643/registry/implementation/IdentityRegistry.sol\":5389:5410  _tokenIssuersRegistry */\n      sload(0xca)\n        /* \"erc3643/registry/implementation/IdentityRegistry.sol\":5480:5511  requiredClaimTopics[claimTopic] */\n      dup8\n      mload\n        /* \"erc3643/registry/implementation/IdentityRegistry.sol\":5350:5386  IClaimIssuer[] memory trustedIssuers */\n      0x00\n      swap2\n      sub(shl(0xa0, 0x01), 0x01)\n        /* \"erc3643/registry/implementation/IdentityRegistry.sol\":5389:5410  _tokenIssuersRegistry */\n      and\n      swap1\n        /* \"erc3643/registry/implementation/IdentityRegistry.sol\":5389:5458  _tokenIssuersRegistry... */\n      0x52c111d1\n      swap1\n        /* \"erc3643/registry/implementation/IdentityRegistry.sol\":5480:5499  requiredClaimTopics */\n      dup11\n      swap1\n        /* \"erc3643/registry/implementation/IdentityRegistry.sol\":5500:5510  claimTopic */\n      dup6\n      swap1\n        /* \"erc3643/registry/implementation/IdentityRegistry.sol\":5480:5511  requiredClaimTopics[claimTopic] */\n      dup2\n      lt\n      tag_275\n      jumpi\n      tag_275\n      tag_216\n      jump\t// in\n    tag_275:\n      0x20\n      mul\n      0x20\n      add\n      add\n      mload\n        /* \"erc3643/registry/implementation/IdentityRegistry.sol\":5389:5529  _tokenIssuersRegistry... */\n      mload(0x40)\n      dup3\n      0xffffffff\n      and\n      0xe0\n      shl\n      dup2\n      mstore\n      0x04\n      add\n      tag_276\n      swap2\n        /* \"#utility.yul\":1313:1338   */\n      dup2\n      mstore\n        /* \"#utility.yul\":1301:1303   */\n      0x20\n        /* \"#utility.yul\":1286:1304   */\n      add\n      swap1\n        /* \"#utility.yul\":1167:1344   */\n      jump\n        /* \"erc3643/registry/implementation/IdentityRegistry.sol\":5389:5529  _tokenIssuersRegistry... */\n    tag_276:\n      0x00\n      mload(0x40)\n      dup1\n      dup4\n      sub\n      dup2\n      dup7\n      gas\n      staticcall\n      iszero\n      dup1\n      iszero\n      tag_279\n      jumpi\n      returndatasize\n      0x00\n      dup1\n      returndatacopy\n      revert(0x00, returndatasize)\n    tag_279:\n      pop\n      pop\n      pop\n      pop\n      mload(0x40)\n      returndatasize\n      0x00\n      dup3\n      returndatacopy\n      0x1f\n      returndatasize\n      swap1\n      dup2\n      add\n      not(0x1f)\n      and\n      dup3\n      add\n      0x40\n      mstore\n      tag_280\n      swap2\n      swap1\n      dup2\n      add\n      swap1\n      tag_281\n      jump\t// in\n    tag_280:\n        /* \"erc3643/registry/implementation/IdentityRegistry.sol\":5350:5529  IClaimIssuer[] memory trustedIssuers = _tokenIssuersRegistry... */\n      swap1\n      pop\n        /* \"erc3643/registry/implementation/IdentityRegistry.sol\":5548:5562  trustedIssuers */\n      dup1\n        /* \"erc3643/registry/implementation/IdentityRegistry.sol\":5548:5569  trustedIssuers.length */\n      mload\n        /* \"erc3643/registry/implementation/IdentityRegistry.sol\":5573:5574  0 */\n      0x00\n        /* \"erc3643/registry/implementation/IdentityRegistry.sol\":5548:5574  trustedIssuers.length == 0 */\n      sub\n        /* \"erc3643/registry/implementation/IdentityRegistry.sol\":5544:5621  if (trustedIssuers.length == 0) {... */\n      tag_282\n      jumpi\n      pop\n        /* \"erc3643/registry/implementation/IdentityRegistry.sol\":5601:5606  false */\n      0x00\n      swap10\n        /* \"erc3643/registry/implementation/IdentityRegistry.sol\":4647:7207  function isVerified(address _userAddress)... */\n      swap9\n      pop\n      pop\n      pop\n      pop\n      pop\n      pop\n      pop\n      pop\n      pop\n      jump\t// out\n        /* \"erc3643/registry/implementation/IdentityRegistry.sol\":5544:5621  if (trustedIssuers.length == 0) {... */\n    tag_282:\n        /* \"erc3643/registry/implementation/IdentityRegistry.sol\":5635:5660  bytes32[] memory claimIds */\n      0x00\n        /* \"erc3643/registry/implementation/IdentityRegistry.sol\":5677:5691  trustedIssuers */\n      dup2\n        /* \"erc3643/registry/implementation/IdentityRegistry.sol\":5677:5698  trustedIssuers.length */\n      mload\n        /* \"erc3643/registry/implementation/IdentityRegistry.sol\":5663:5699  new bytes32[](trustedIssuers.length) */\n      0xffffffffffffffff\n      dup2\n      gt\n      iszero\n      tag_284\n      jumpi\n      tag_284\n      tag_285\n      jump\t// in\n    tag_284:\n      mload(0x40)\n      swap1\n      dup1\n      dup3\n      mstore\n      dup1\n      0x20\n      mul\n      0x20\n      add\n      dup3\n      add\n      0x40\n      mstore\n      dup1\n      iszero\n      tag_286\n      jumpi\n      dup2\n      0x20\n      add\n      0x20\n      dup3\n      mul\n      dup1\n      calldatasize\n      dup4\n      calldatacopy\n      add\n      swap1\n      pop\n    tag_286:\n      pop\n        /* \"erc3643/registry/implementation/IdentityRegistry.sol\":5635:5699  bytes32[] memory claimIds = new bytes32[](trustedIssuers.length) */\n      swap1\n      pop\n        /* \"erc3643/registry/implementation/IdentityRegistry.sol\":5718:5727  uint256 i */\n      0x00\n        /* \"erc3643/registry/implementation/IdentityRegistry.sol\":5713:5993  for (uint256 i = 0; i < trustedIssuers.length; i++) {... */\n    tag_287:\n        /* \"erc3643/registry/implementation/IdentityRegistry.sol\":5737:5751  trustedIssuers */\n      dup3\n        /* \"erc3643/registry/implementation/IdentityRegistry.sol\":5737:5758  trustedIssuers.length */\n      mload\n        /* \"erc3643/registry/implementation/IdentityRegistry.sol\":5733:5734  i */\n      dup2\n        /* \"erc3643/registry/implementation/IdentityRegistry.sol\":5733:5758  i < trustedIssuers.length */\n      lt\n        /* \"erc3643/registry/implementation/IdentityRegistry.sol\":5713:5993  for (uint256 i = 0; i < trustedIssuers.length; i++) {... */\n      iszero\n      tag_288\n      jumpi\n        /* \"erc3643/registry/implementation/IdentityRegistry.sol\":5864:5878  trustedIssuers */\n      dup3\n        /* \"erc3643/registry/implementation/IdentityRegistry.sol\":5879:5880  i */\n      dup2\n        /* \"erc3643/registry/implementation/IdentityRegistry.sol\":5864:5881  trustedIssuers[i] */\n      dup2\n      mload\n      dup2\n      lt\n      tag_291\n      jumpi\n      tag_291\n      tag_216\n      jump\t// in\n    tag_291:\n      0x20\n      mul\n      0x20\n      add\n      add\n      mload\n        /* \"erc3643/registry/implementation/IdentityRegistry.sol\":5907:5926  requiredClaimTopics */\n      dup11\n        /* \"erc3643/registry/implementation/IdentityRegistry.sol\":5927:5937  claimTopic */\n      dup6\n        /* \"erc3643/registry/implementation/IdentityRegistry.sol\":5907:5938  requiredClaimTopics[claimTopic] */\n      dup2\n      mload\n      dup2\n      lt\n      tag_293\n      jumpi\n      tag_293\n      tag_216\n      jump\t// in\n    tag_293:\n      0x20\n      mul\n      0x20\n      add\n      add\n      mload\n        /* \"erc3643/registry/implementation/IdentityRegistry.sol\":5828:5960  abi.encode(... */\n      add(0x20, mload(0x40))\n      tag_294\n      swap3\n      swap2\n      swap1\n      sub(shl(0xa0, 0x01), 0x01)\n        /* \"#utility.yul\":12853:12885   */\n      swap3\n      swap1\n      swap3\n      and\n        /* \"#utility.yul\":12835:12886   */\n      dup3\n      mstore\n        /* \"#utility.yul\":12917:12919   */\n      0x20\n        /* \"#utility.yul\":12902:12920   */\n      dup3\n      add\n        /* \"#utility.yul\":12895:12929   */\n      mstore\n        /* \"#utility.yul\":12823:12825   */\n      0x40\n        /* \"#utility.yul\":12808:12826   */\n      add\n      swap1\n        /* \"#utility.yul\":12642:12935   */\n      jump\n        /* \"erc3643/registry/implementation/IdentityRegistry.sol\":5828:5960  abi.encode(... */\n    tag_294:\n      mload(0x40)\n      0x20\n      dup2\n      dup4\n      sub\n      sub\n      dup2\n      mstore\n      swap1\n      0x40\n      mstore\n        /* \"erc3643/registry/implementation/IdentityRegistry.sol\":5797:5978  keccak256(... */\n      dup1\n      mload\n      swap1\n      0x20\n      add\n      keccak256\n        /* \"erc3643/registry/implementation/IdentityRegistry.sol\":5783:5791  claimIds */\n      dup3\n        /* \"erc3643/registry/implementation/IdentityRegistry.sol\":5792:5793  i */\n      dup3\n        /* \"erc3643/registry/implementation/IdentityRegistry.sol\":5783:5794  claimIds[i] */\n      dup2\n      mload\n      dup2\n      lt\n      tag_297\n      jumpi\n      tag_297\n      tag_216\n      jump\t// in\n    tag_297:\n      0x20\n      swap1\n      dup2\n      mul\n      swap2\n      swap1\n      swap2\n      add\n      add\n        /* \"erc3643/registry/implementation/IdentityRegistry.sol\":5783:5978  claimIds[i] = keccak256(... */\n      mstore\n        /* \"erc3643/registry/implementation/IdentityRegistry.sol\":5760:5763  i++ */\n      dup1\n      tag_298\n      dup2\n      tag_227\n      jump\t// in\n    tag_298:\n      swap2\n      pop\n      pop\n        /* \"erc3643/registry/implementation/IdentityRegistry.sol\":5713:5993  for (uint256 i = 0; i < trustedIssuers.length; i++) {... */\n      jump(tag_287)\n    tag_288:\n      pop\n        /* \"erc3643/registry/implementation/IdentityRegistry.sol\":6012:6021  uint256 j */\n      0x00\n        /* \"erc3643/registry/implementation/IdentityRegistry.sol\":6007:7170  for (uint256 j = 0; j < claimIds.length; j++) {... */\n    tag_299:\n        /* \"erc3643/registry/implementation/IdentityRegistry.sol\":6031:6039  claimIds */\n      dup2\n        /* \"erc3643/registry/implementation/IdentityRegistry.sol\":6031:6046  claimIds.length */\n      mload\n        /* \"erc3643/registry/implementation/IdentityRegistry.sol\":6027:6028  j */\n      dup2\n        /* \"erc3643/registry/implementation/IdentityRegistry.sol\":6027:6046  j < claimIds.length */\n      lt\n        /* \"erc3643/registry/implementation/IdentityRegistry.sol\":6007:7170  for (uint256 j = 0; j < claimIds.length; j++) {... */\n      iszero\n      tag_300\n      jumpi\n        /* \"erc3643/registry/implementation/IdentityRegistry.sol\":6120:6180  identity(... */\n      tag_302\n        /* \"erc3643/registry/implementation/IdentityRegistry.sol\":6150:6162  _userAddress */\n      dup13\n        /* \"erc3643/registry/implementation/IdentityRegistry.sol\":6120:6128  identity */\n      tag_135\n        /* \"erc3643/registry/implementation/IdentityRegistry.sol\":6120:6180  identity(... */\n      jump\t// in\n    tag_302:\n      sub(shl(0xa0, 0x01), 0x01)\n        /* \"erc3643/registry/implementation/IdentityRegistry.sol\":6120:6189  identity(... */\n      and\n      0xc9100bcb\n        /* \"erc3643/registry/implementation/IdentityRegistry.sol\":6190:6198  claimIds */\n      dup4\n        /* \"erc3643/registry/implementation/IdentityRegistry.sol\":6199:6200  j */\n      dup4\n        /* \"erc3643/registry/implementation/IdentityRegistry.sol\":6190:6201  claimIds[j] */\n      dup2\n      mload\n      dup2\n      lt\n      tag_304\n      jumpi\n      tag_304\n      tag_216\n      jump\t// in\n    tag_304:\n      0x20\n      mul\n      0x20\n      add\n      add\n      mload\n        /* \"erc3643/registry/implementation/IdentityRegistry.sol\":6120:6202  identity(... */\n      mload(0x40)\n      dup3\n      0xffffffff\n      and\n      0xe0\n      shl\n      dup2\n      mstore\n      0x04\n      add\n      tag_305\n      swap2\n        /* \"#utility.yul\":1313:1338   */\n      dup2\n      mstore\n        /* \"#utility.yul\":1301:1303   */\n      0x20\n        /* \"#utility.yul\":1286:1304   */\n      add\n      swap1\n        /* \"#utility.yul\":1167:1344   */\n      jump\n        /* \"erc3643/registry/implementation/IdentityRegistry.sol\":6120:6202  identity(... */\n    tag_305:\n      0x00\n      mload(0x40)\n      dup1\n      dup4\n      sub\n      dup2\n      dup7\n      gas\n      staticcall\n      iszero\n      dup1\n      iszero\n      tag_307\n      jumpi\n      returndatasize\n      0x00\n      dup1\n      returndatacopy\n      revert(0x00, returndatasize)\n    tag_307:\n      pop\n      pop\n      pop\n      pop\n      mload(0x40)\n      returndatasize\n      0x00\n      dup3\n      returndatacopy\n      0x1f\n      returndatasize\n      swap1\n      dup2\n      add\n      not(0x1f)\n      and\n      dup3\n      add\n      0x40\n      mstore\n      tag_308\n      swap2\n      swap1\n      dup2\n      add\n      swap1\n      tag_309\n      jump\t// in\n    tag_308:\n      pop\n        /* \"erc3643/registry/implementation/IdentityRegistry.sol\":6244:6275  requiredClaimTopics[claimTopic] */\n      dup15\n      mload\n        /* \"erc3643/registry/implementation/IdentityRegistry.sol\":6071:6202  (foundClaimTopic, scheme, issuer, sig, data, ) = identity(... */\n      swap5\n      swap14\n      pop\n      swap3\n      swap12\n      pop\n      swap1\n      swap10\n      pop\n      swap8\n      pop\n      swap6\n      pop\n        /* \"erc3643/registry/implementation/IdentityRegistry.sol\":6244:6263  requiredClaimTopics */\n      dup11\n      swap1\n        /* \"erc3643/registry/implementation/IdentityRegistry.sol\":6264:6274  claimTopic */\n      dup6\n      swap1\n        /* \"erc3643/registry/implementation/IdentityRegistry.sol\":6244:6275  requiredClaimTopics[claimTopic] */\n      dup2\n      lt\n      tag_311\n      jumpi\n      tag_311\n      tag_216\n      jump\t// in\n    tag_311:\n      0x20\n      mul\n      0x20\n      add\n      add\n      mload\n        /* \"erc3643/registry/implementation/IdentityRegistry.sol\":6225:6240  foundClaimTopic */\n      dup10\n        /* \"erc3643/registry/implementation/IdentityRegistry.sol\":6225:6275  foundClaimTopic == requiredClaimTopics[claimTopic] */\n      sub\n        /* \"erc3643/registry/implementation/IdentityRegistry.sol\":6221:7156  if (foundClaimTopic == requiredClaimTopics[claimTopic]) {... */\n      tag_312\n      jumpi\n        /* \"erc3643/registry/implementation/IdentityRegistry.sol\":6340:6346  issuer */\n      dup7\n      sub(shl(0xa0, 0x01), 0x01)\n        /* \"erc3643/registry/implementation/IdentityRegistry.sol\":6327:6360  IClaimIssuer(issuer).isClaimValid */\n      and\n      0xc0969a6e\n        /* \"erc3643/registry/implementation/IdentityRegistry.sol\":6390:6412  identity(_userAddress) */\n      tag_313\n        /* \"erc3643/registry/implementation/IdentityRegistry.sol\":6399:6411  _userAddress */\n      dup15\n        /* \"erc3643/registry/implementation/IdentityRegistry.sol\":6390:6398  identity */\n      tag_135\n        /* \"erc3643/registry/implementation/IdentityRegistry.sol\":6390:6412  identity(_userAddress) */\n      jump\t// in\n    tag_313:\n        /* \"erc3643/registry/implementation/IdentityRegistry.sol\":6442:6461  requiredClaimTopics */\n      dup13\n        /* \"erc3643/registry/implementation/IdentityRegistry.sol\":6462:6472  claimTopic */\n      dup8\n        /* \"erc3643/registry/implementation/IdentityRegistry.sol\":6442:6473  requiredClaimTopics[claimTopic] */\n      dup2\n      mload\n      dup2\n      lt\n      tag_315\n      jumpi\n      tag_315\n      tag_216\n      jump\t// in\n    tag_315:\n      0x20\n      mul\n      0x20\n      add\n      add\n      mload\n        /* \"erc3643/registry/implementation/IdentityRegistry.sol\":6503:6506  sig */\n      dup10\n        /* \"erc3643/registry/implementation/IdentityRegistry.sol\":6536:6540  data */\n      dup10\n        /* \"erc3643/registry/implementation/IdentityRegistry.sol\":6327:6566  IClaimIssuer(issuer).isClaimValid(... */\n      mload(0x40)\n      dup6\n      0xffffffff\n      and\n      0xe0\n      shl\n      dup2\n      mstore\n      0x04\n      add\n      tag_316\n      swap5\n      swap4\n      swap3\n      swap2\n      swap1\n      tag_317\n      jump\t// in\n    tag_316:\n      0x20\n      mload(0x40)\n      dup1\n      dup4\n      sub\n      dup2\n      dup7\n      gas\n      staticcall\n      swap3\n      pop\n      pop\n      pop\n      dup1\n      iszero\n      tag_318\n      jumpi\n      pop\n      0x40\n      dup1\n      mload\n      0x1f\n      returndatasize\n      swap1\n      dup2\n      add\n      not(0x1f)\n      and\n      dup3\n      add\n      swap1\n      swap3\n      mstore\n      tag_319\n      swap2\n      dup2\n      add\n      swap1\n      tag_320\n      jump\t// in\n    tag_319:\n      0x01\n    tag_318:\n        /* \"erc3643/registry/implementation/IdentityRegistry.sol\":6299:7047  try... */\n      tag_321\n      jumpi\n        /* \"erc3643/registry/implementation/IdentityRegistry.sol\":6952:6953  1 */\n      0x01\n        /* \"erc3643/registry/implementation/IdentityRegistry.sol\":6934:6942  claimIds */\n      dup3\n        /* \"erc3643/registry/implementation/IdentityRegistry.sol\":6934:6949  claimIds.length */\n      mload\n        /* \"erc3643/registry/implementation/IdentityRegistry.sol\":6934:6953  claimIds.length - 1 */\n      tag_325\n      swap2\n      swap1\n      tag_326\n      jump\t// in\n    tag_325:\n        /* \"erc3643/registry/implementation/IdentityRegistry.sol\":6928:6929  j */\n      dup2\n        /* \"erc3643/registry/implementation/IdentityRegistry.sol\":6928:6954  j == (claimIds.length - 1) */\n      sub\n        /* \"erc3643/registry/implementation/IdentityRegistry.sol\":6924:7025  if (j == (claimIds.length - 1)) {... */\n      tag_327\n      jumpi\n      pop\n        /* \"erc3643/registry/implementation/IdentityRegistry.sol\":6993:6998  false */\n      0x00\n      swap12\n        /* \"erc3643/registry/implementation/IdentityRegistry.sol\":4647:7207  function isVerified(address _userAddress)... */\n      swap11\n      pop\n      pop\n      pop\n      pop\n      pop\n      pop\n      pop\n      pop\n      pop\n      pop\n      pop\n      jump\t// out\n        /* \"erc3643/registry/implementation/IdentityRegistry.sol\":6924:7025  if (j == (claimIds.length - 1)) {... */\n    tag_327:\n        /* \"erc3643/registry/implementation/IdentityRegistry.sol\":6221:7156  if (foundClaimTopic == requiredClaimTopics[claimTopic]) {... */\n      jump(tag_335)\n        /* \"erc3643/registry/implementation/IdentityRegistry.sol\":6299:7047  try... */\n    tag_321:\n        /* \"erc3643/registry/implementation/IdentityRegistry.sol\":6642:6651  _validity */\n      dup1\n        /* \"erc3643/registry/implementation/IdentityRegistry.sol\":6638:6729  if (_validity) {... */\n      iszero\n      tag_329\n      jumpi\n        /* \"erc3643/registry/implementation/IdentityRegistry.sol\":6687:6695  claimIds */\n      dup3\n        /* \"erc3643/registry/implementation/IdentityRegistry.sol\":6687:6702  claimIds.length */\n      mload\n        /* \"erc3643/registry/implementation/IdentityRegistry.sol\":6683:6702  j = claimIds.length */\n      swap2\n      pop\n        /* \"erc3643/registry/implementation/IdentityRegistry.sol\":6638:6729  if (_validity) {... */\n    tag_329:\n        /* \"erc3643/registry/implementation/IdentityRegistry.sol\":6759:6768  _validity */\n      dup1\n        /* \"erc3643/registry/implementation/IdentityRegistry.sol\":6758:6768  !_validity */\n      iszero\n        /* \"erc3643/registry/implementation/IdentityRegistry.sol\":6758:6798  !_validity && j == (claimIds.length - 1) */\n      dup1\n      iszero\n      tag_330\n      jumpi\n      pop\n        /* \"erc3643/registry/implementation/IdentityRegistry.sol\":6796:6797  1 */\n      0x01\n        /* \"erc3643/registry/implementation/IdentityRegistry.sol\":6778:6786  claimIds */\n      dup4\n        /* \"erc3643/registry/implementation/IdentityRegistry.sol\":6778:6793  claimIds.length */\n      mload\n        /* \"erc3643/registry/implementation/IdentityRegistry.sol\":6778:6797  claimIds.length - 1 */\n      tag_331\n      swap2\n      swap1\n      tag_326\n      jump\t// in\n    tag_331:\n        /* \"erc3643/registry/implementation/IdentityRegistry.sol\":6772:6773  j */\n      dup3\n        /* \"erc3643/registry/implementation/IdentityRegistry.sol\":6772:6798  j == (claimIds.length - 1) */\n      eq\n        /* \"erc3643/registry/implementation/IdentityRegistry.sol\":6758:6798  !_validity && j == (claimIds.length - 1) */\n    tag_330:\n        /* \"erc3643/registry/implementation/IdentityRegistry.sol\":6754:6869  if (!_validity && j == (claimIds.length - 1)) {... */\n      iszero\n      tag_332\n      jumpi\n      pop\n        /* \"erc3643/registry/implementation/IdentityRegistry.sol\":6837:6842  false */\n      0x00\n      swap13\n        /* \"erc3643/registry/implementation/IdentityRegistry.sol\":4647:7207  function isVerified(address _userAddress)... */\n      swap12\n      pop\n      pop\n      pop\n      pop\n      pop\n      pop\n      pop\n      pop\n      pop\n      pop\n      pop\n      pop\n      jump\t// out\n        /* \"erc3643/registry/implementation/IdentityRegistry.sol\":6754:6869  if (!_validity && j == (claimIds.length - 1)) {... */\n    tag_332:\n        /* \"erc3643/registry/implementation/IdentityRegistry.sol\":6587:6891  returns (bool _validity) {... */\n      pop\n        /* \"erc3643/registry/implementation/IdentityRegistry.sol\":6221:7156  if (foundClaimTopic == requiredClaimTopics[claimTopic]) {... */\n      jump(tag_335)\n    tag_312:\n        /* \"erc3643/registry/implementation/IdentityRegistry.sol\":7099:7100  1 */\n      0x01\n        /* \"erc3643/registry/implementation/IdentityRegistry.sol\":7081:7089  claimIds */\n      dup3\n        /* \"erc3643/registry/implementation/IdentityRegistry.sol\":7081:7096  claimIds.length */\n      mload\n        /* \"erc3643/registry/implementation/IdentityRegistry.sol\":7081:7100  claimIds.length - 1 */\n      tag_334\n      swap2\n      swap1\n      tag_326\n      jump\t// in\n    tag_334:\n        /* \"erc3643/registry/implementation/IdentityRegistry.sol\":7075:7076  j */\n      dup2\n        /* \"erc3643/registry/implementation/IdentityRegistry.sol\":7075:7101  j == (claimIds.length - 1) */\n      sub\n        /* \"erc3643/registry/implementation/IdentityRegistry.sol\":7071:7156  if (j == (claimIds.length - 1)) {... */\n      tag_335\n      jumpi\n      pop\n        /* \"erc3643/registry/implementation/IdentityRegistry.sol\":7132:7137  false */\n      0x00\n      swap12\n        /* \"erc3643/registry/implementation/IdentityRegistry.sol\":4647:7207  function isVerified(address _userAddress)... */\n      swap11\n      pop\n      pop\n      pop\n      pop\n      pop\n      pop\n      pop\n      pop\n      pop\n      pop\n      pop\n      jump\t// out\n        /* \"erc3643/registry/implementation/IdentityRegistry.sol\":7071:7156  if (j == (claimIds.length - 1)) {... */\n    tag_335:\n        /* \"erc3643/registry/implementation/IdentityRegistry.sol\":6048:6051  j++ */\n      dup1\n      tag_336\n      dup2\n      tag_227\n      jump\t// in\n    tag_336:\n      swap2\n      pop\n      pop\n        /* \"erc3643/registry/implementation/IdentityRegistry.sol\":6007:7170  for (uint256 j = 0; j < claimIds.length; j++) {... */\n      jump(tag_299)\n    tag_300:\n      pop\n        /* \"erc3643/registry/implementation/IdentityRegistry.sol\":5336:7180  {... */\n      pop\n      pop\n        /* \"erc3643/registry/implementation/IdentityRegistry.sol\":5313:5325  claimTopic++ */\n      dup1\n      dup1\n      tag_337\n      swap1\n      tag_227\n      jump\t// in\n    tag_337:\n      swap2\n      pop\n      pop\n        /* \"erc3643/registry/implementation/IdentityRegistry.sol\":5214:7180  for (... */\n      jump(tag_271)\n    tag_272:\n      pop\n        /* \"erc3643/registry/implementation/IdentityRegistry.sol\":7196:7200  true */\n      0x01\n      swap9\n        /* \"erc3643/registry/implementation/IdentityRegistry.sol\":4647:7207  function isVerified(address _userAddress)... */\n      swap8\n      pop\n      pop\n      pop\n      pop\n      pop\n      pop\n      pop\n      pop\n      jump\t// out\n        /* \"@openzeppelin/contracts-upgradeable/access/AccessControlUpgradeable.sol\":5684:5831  function revokeRole(bytes32 role, address account) public virtual override onlyRole(getRoleAdmin(role)) {... */\n    tag_126:\n        /* \"@openzeppelin/contracts-upgradeable/access/AccessControlUpgradeable.sol\":4908:4915  bytes32 */\n      0x00\n        /* \"@openzeppelin/contracts-upgradeable/access/AccessControlUpgradeable.sol\":4934:4946  _roles[role] */\n      dup3\n      dup2\n      mstore\n        /* \"@openzeppelin/contracts-upgradeable/access/AccessControlUpgradeable.sol\":4934:4940  _roles */\n      0x65\n        /* \"@openzeppelin/contracts-upgradeable/access/AccessControlUpgradeable.sol\":4934:4946  _roles[role] */\n      0x20\n      mstore\n      0x40\n      swap1\n      keccak256\n        /* \"@openzeppelin/contracts-upgradeable/access/AccessControlUpgradeable.sol\":4934:4956  _roles[role].adminRole */\n      0x01\n      add\n      sload\n        /* \"@openzeppelin/contracts-upgradeable/access/AccessControlUpgradeable.sol\":2928:2944  _checkRole(role) */\n      tag_340\n        /* \"@openzeppelin/contracts-upgradeable/access/AccessControlUpgradeable.sol\":2939:2943  role */\n      dup2\n        /* \"@openzeppelin/contracts-upgradeable/access/AccessControlUpgradeable.sol\":2928:2938  _checkRole */\n      tag_173\n        /* \"@openzeppelin/contracts-upgradeable/access/AccessControlUpgradeable.sol\":2928:2944  _checkRole(role) */\n      jump\t// in\n    tag_340:\n        /* \"@openzeppelin/contracts-upgradeable/access/AccessControlUpgradeable.sol\":5798:5824  _revokeRole(role, account) */\n      tag_179\n        /* \"@openzeppelin/contracts-upgradeable/access/AccessControlUpgradeable.sol\":5810:5814  role */\n      dup4\n        /* \"@openzeppelin/contracts-upgradeable/access/AccessControlUpgradeable.sol\":5816:5823  account */\n      dup4\n        /* \"@openzeppelin/contracts-upgradeable/access/AccessControlUpgradeable.sol\":5798:5809  _revokeRole */\n      tag_188\n        /* \"@openzeppelin/contracts-upgradeable/access/AccessControlUpgradeable.sol\":5798:5824  _revokeRole(role, account) */\n      jump\t// in\n        /* \"erc3643/registry/implementation/IdentityRegistry.sol\":4216:4527  function setTrustedIssuersRegistry(address _trustedIssuersRegistry)... */\n    tag_132:\n      0x00\n      dup1\n      mload\n      0x20\n      data_48848f6f4af5ff2a90f75345111ffab654da14e01d0d715638da4379c8c19ae3\n      dup4\n      codecopy\n      dup2\n      mload\n      swap2\n      mstore\n        /* \"@openzeppelin/contracts-upgradeable/access/AccessControlUpgradeable.sol\":2928:2944  _checkRole(role) */\n      tag_344\n        /* \"erc3643/registry/implementation/IdentityRegistry.sol\":876:942  0xb19546dff01e856fb3f010c267a7b1c60363cf8a4664e21cc89c26224620214e */\n      dup2\n        /* \"@openzeppelin/contracts-upgradeable/access/AccessControlUpgradeable.sol\":2928:2938  _checkRole */\n      tag_173\n        /* \"@openzeppelin/contracts-upgradeable/access/AccessControlUpgradeable.sol\":2928:2944  _checkRole(role) */\n      jump\t// in\n    tag_344:\n        /* \"erc3643/registry/implementation/IdentityRegistry.sol\":4361:4382  _tokenIssuersRegistry */\n      0xca\n        /* \"erc3643/registry/implementation/IdentityRegistry.sol\":4361:4455  _tokenIssuersRegistry = ITrustedIssuersRegistry(... */\n      dup1\n      sload\n      not(sub(shl(0xa0, 0x01), 0x01))\n      and\n      sub(shl(0xa0, 0x01), 0x01)\n      dup5\n      and\n      swap1\n      dup2\n      or\n      swap1\n      swap2\n      sstore\n        /* \"erc3643/registry/implementation/IdentityRegistry.sol\":4470:4520  TrustedIssuersRegistrySet(_trustedIssuersRegistry) */\n      mload(0x40)\n      0x1b98cb79e6f73020175fe87333f1b91ad6a881519c0afe30340c2599b2b4bde0\n      swap1\n      0x00\n      swap1\n      log2\n        /* \"erc3643/registry/implementation/IdentityRegistry.sol\":4216:4527  function setTrustedIssuersRegistry(address _trustedIssuersRegistry)... */\n      pop\n      pop\n      jump\t// out\n        /* \"erc3643/registry/implementation/IdentityRegistry.sol\":9010:9201  function identity(address _userAddress)... */\n    tag_135:\n        /* \"erc3643/registry/implementation/IdentityRegistry.sol\":9144:9165  _tokenIdentityStorage */\n      sload(0xcb)\n        /* \"erc3643/registry/implementation/IdentityRegistry.sol\":9144:9194  _tokenIdentityStorage.storedIdentity(_userAddress) */\n      mload(0x40)\n      shl(0xe0, 0x7988d3a5)\n      dup2\n      mstore\n      sub(shl(0xa0, 0x01), 0x01)\n        /* \"#utility.yul\":2812:2844   */\n      dup4\n      dup2\n      and\n        /* \"erc3643/registry/implementation/IdentityRegistry.sol\":9144:9194  _tokenIdentityStorage.storedIdentity(_userAddress) */\n      0x04\n      dup4\n      add\n        /* \"#utility.yul\":2794:2845   */\n      mstore\n        /* \"erc3643/registry/implementation/IdentityRegistry.sol\":9112:9121  IIdentity */\n      0x00\n      swap3\n        /* \"erc3643/registry/implementation/IdentityRegistry.sol\":9144:9165  _tokenIdentityStorage */\n      and\n      swap1\n        /* \"erc3643/registry/implementation/IdentityRegistry.sol\":9144:9180  _tokenIdentityStorage.storedIdentity */\n      0x7988d3a5\n      swap1\n        /* \"#utility.yul\":2767:2785   */\n      0x24\n      add\n        /* \"erc3643/registry/implementation/IdentityRegistry.sol\":9144:9194  _tokenIdentityStorage.storedIdentity(_userAddress) */\n      0x20\n      mload(0x40)\n      dup1\n      dup4\n      sub\n      dup2\n      dup7\n      gas\n      staticcall\n      iszero\n      dup1\n      iszero\n      tag_349\n      jumpi\n      returndatasize\n      0x00\n      dup1\n      returndatacopy\n      revert(0x00, returndatasize)\n    tag_349:\n      pop\n      pop\n      pop\n      pop\n      mload(0x40)\n      returndatasize\n      not(0x1f)\n      0x1f\n      dup3\n      add\n      and\n      dup3\n      add\n      dup1\n      0x40\n      mstore\n      pop\n      dup2\n      add\n      swap1\n      tag_147\n      swap2\n      swap1\n      tag_351\n      jump\t// in\n        /* \"@openzeppelin/contracts-upgradeable/access/OwnableUpgradeable.sol\":2314:2512  function transferOwnership(address newOwner) public virtual onlyOwner {... */\n    tag_144:\n        /* \"@openzeppelin/contracts-upgradeable/access/OwnableUpgradeable.sol\":1334:1347  _checkOwner() */\n      tag_354\n        /* \"@openzeppelin/contracts-upgradeable/access/OwnableUpgradeable.sol\":1334:1345  _checkOwner */\n      tag_233\n        /* \"@openzeppelin/contracts-upgradeable/access/OwnableUpgradeable.sol\":1334:1347  _checkOwner() */\n      jump\t// in\n    tag_354:\n      sub(shl(0xa0, 0x01), 0x01)\n        /* \"@openzeppelin/contracts-upgradeable/access/OwnableUpgradeable.sol\":2402:2424  newOwner != address(0) */\n      dup2\n      and\n        /* \"@openzeppelin/contracts-upgradeable/access/OwnableUpgradeable.sol\":2394:2467  require(newOwner != address(0), \"Ownable: new owner is the zero address\") */\n      tag_356\n      jumpi\n      mload(0x40)\n      shl(0xe5, 0x461bcd)\n      dup2\n      mstore\n        /* \"#utility.yul\":16705:16707   */\n      0x20\n        /* \"@openzeppelin/contracts-upgradeable/access/OwnableUpgradeable.sol\":2394:2467  require(newOwner != address(0), \"Ownable: new owner is the zero address\") */\n      0x04\n      dup3\n      add\n        /* \"#utility.yul\":16687:16708   */\n      mstore\n        /* \"#utility.yul\":16744:16746   */\n      0x26\n        /* \"#utility.yul\":16724:16742   */\n      0x24\n      dup3\n      add\n        /* \"#utility.yul\":16717:16747   */\n      mstore\n        /* \"#utility.yul\":16783:16817   */\n      0x4f776e61626c653a206e6577206f776e657220697320746865207a65726f2061\n        /* \"#utility.yul\":16763:16781   */\n      0x44\n      dup3\n      add\n        /* \"#utility.yul\":16756:16818   */\n      mstore\n      shl(0xd0, 0x646472657373)\n        /* \"#utility.yul\":16834:16852   */\n      0x64\n      dup3\n      add\n        /* \"#utility.yul\":16827:16863   */\n      mstore\n        /* \"#utility.yul\":16880:16899   */\n      0x84\n      add\n        /* \"@openzeppelin/contracts-upgradeable/access/OwnableUpgradeable.sol\":2394:2467  require(newOwner != address(0), \"Ownable: new owner is the zero address\") */\n      tag_156\n        /* \"#utility.yul\":16503:16905   */\n      jump\n        /* \"@openzeppelin/contracts-upgradeable/access/OwnableUpgradeable.sol\":2394:2467  require(newOwner != address(0), \"Ownable: new owner is the zero address\") */\n    tag_356:\n        /* \"@openzeppelin/contracts-upgradeable/access/OwnableUpgradeable.sol\":2477:2505  _transferOwnership(newOwner) */\n      tag_359\n        /* \"@openzeppelin/contracts-upgradeable/access/OwnableUpgradeable.sol\":2496:2504  newOwner */\n      dup2\n        /* \"@openzeppelin/contracts-upgradeable/access/OwnableUpgradeable.sol\":2477:2495  _transferOwnership */\n      tag_236\n        /* \"@openzeppelin/contracts-upgradeable/access/OwnableUpgradeable.sol\":2477:2505  _transferOwnership(newOwner) */\n      jump\t// in\n    tag_359:\n        /* \"@openzeppelin/contracts-upgradeable/access/OwnableUpgradeable.sol\":2314:2512  function transferOwnership(address newOwner) public virtual onlyOwner {... */\n      pop\n      jump\t// out\n        /* \"@openzeppelin/contracts-upgradeable/access/OwnableUpgradeable.sol\":1003:1098  function __Ownable_init() internal onlyInitializing {... */\n    tag_166:\n        /* \"@openzeppelin/contracts-upgradeable/proxy/utils/Initializable.sol\":5374:5387  _initializing */\n      sload(0x00)\n      0x0100\n      swap1\n      div\n      0xff\n      and\n        /* \"@openzeppelin/contracts-upgradeable/proxy/utils/Initializable.sol\":5366:5435  require(_initializing, \"Initializable: contract is not initializing\") */\n      tag_363\n      jumpi\n      mload(0x40)\n      shl(0xe5, 0x461bcd)\n      dup2\n      mstore\n      0x04\n      add\n      tag_156\n      swap1\n      tag_365\n      jump\t// in\n    tag_363:\n        /* \"@openzeppelin/contracts-upgradeable/access/OwnableUpgradeable.sol\":1065:1091  __Ownable_init_unchained() */\n      tag_235\n        /* \"@openzeppelin/contracts-upgradeable/access/OwnableUpgradeable.sol\":1065:1089  __Ownable_init_unchained */\n      tag_368\n        /* \"@openzeppelin/contracts-upgradeable/access/OwnableUpgradeable.sol\":1065:1091  __Ownable_init_unchained() */\n      jump\t// in\n        /* \"@openzeppelin/contracts-upgradeable/access/AccessControlUpgradeable.sol\":3768:3871  function _checkRole(bytes32 role) internal view virtual {... */\n    tag_173:\n        /* \"@openzeppelin/contracts-upgradeable/access/AccessControlUpgradeable.sol\":3834:3864  _checkRole(role, _msgSender()) */\n      tag_359\n        /* \"@openzeppelin/contracts-upgradeable/access/AccessControlUpgradeable.sol\":3845:3849  role */\n      dup2\n        /* \"@openzeppelin/contracts-upgradeable/utils/ContextUpgradeable.sol\":929:939  msg.sender */\n      caller\n        /* \"@openzeppelin/contracts-upgradeable/access/AccessControlUpgradeable.sol\":3834:3844  _checkRole */\n      tag_372\n        /* \"@openzeppelin/contracts-upgradeable/access/AccessControlUpgradeable.sol\":3834:3864  _checkRole(role, _msgSender()) */\n      jump\t// in\n        /* \"@openzeppelin/contracts-upgradeable/access/AccessControlUpgradeable.sol\":7917:8150  function _grantRole(bytes32 role, address account) internal virtual {... */\n    tag_180:\n        /* \"@openzeppelin/contracts-upgradeable/access/AccessControlUpgradeable.sol\":8000:8022  hasRole(role, account) */\n      tag_374\n        /* \"@openzeppelin/contracts-upgradeable/access/AccessControlUpgradeable.sol\":8008:8012  role */\n      dup3\n        /* \"@openzeppelin/contracts-upgradeable/access/AccessControlUpgradeable.sol\":8014:8021  account */\n      dup3\n        /* \"@openzeppelin/contracts-upgradeable/access/AccessControlUpgradeable.sol\":8000:8007  hasRole */\n      tag_108\n        /* \"@openzeppelin/contracts-upgradeable/access/AccessControlUpgradeable.sol\":8000:8022  hasRole(role, account) */\n      jump\t// in\n    tag_374:\n        /* \"@openzeppelin/contracts-upgradeable/access/AccessControlUpgradeable.sol\":7995:8144  if (!hasRole(role, account)) {... */\n      tag_187\n      jumpi\n        /* \"@openzeppelin/contracts-upgradeable/access/AccessControlUpgradeable.sol\":8038:8050  _roles[role] */\n      0x00\n      dup3\n      dup2\n      mstore\n        /* \"@openzeppelin/contracts-upgradeable/access/AccessControlUpgradeable.sol\":8038:8044  _roles */\n      0x65\n        /* \"@openzeppelin/contracts-upgradeable/access/AccessControlUpgradeable.sol\":8038:8050  _roles[role] */\n      0x20\n      swap1\n      dup2\n      mstore\n      0x40\n      dup1\n      dup4\n      keccak256\n      sub(shl(0xa0, 0x01), 0x01)\n        /* \"@openzeppelin/contracts-upgradeable/access/AccessControlUpgradeable.sol\":8038:8067  _roles[role].members[account] */\n      dup6\n      and\n      dup5\n      mstore\n      swap1\n      swap2\n      mstore\n      swap1\n      keccak256\n        /* \"@openzeppelin/contracts-upgradeable/access/AccessControlUpgradeable.sol\":8038:8074  _roles[role].members[account] = true */\n      dup1\n      sload\n      not(0xff)\n      and\n        /* \"@openzeppelin/contracts-upgradeable/access/AccessControlUpgradeable.sol\":8070:8074  true */\n      0x01\n        /* \"@openzeppelin/contracts-upgradeable/access/AccessControlUpgradeable.sol\":8038:8074  _roles[role].members[account] = true */\n      or\n      swap1\n      sstore\n        /* \"@openzeppelin/contracts-upgradeable/access/AccessControlUpgradeable.sol\":8120:8132  _msgSender() */\n      tag_376\n        /* \"@openzeppelin/contracts-upgradeable/utils/ContextUpgradeable.sol\":929:939  msg.sender */\n      caller\n      swap1\n        /* \"@openzeppelin/contracts-upgradeable/utils/ContextUpgradeable.sol\":850:946  function _msgSender() internal view virtual returns (address) {... */\n      jump\n        /* \"@openzeppelin/contracts-upgradeable/access/AccessControlUpgradeable.sol\":8120:8132  _msgSender() */\n    tag_376:\n      sub(shl(0xa0, 0x01), 0x01)\n        /* \"@openzeppelin/contracts-upgradeable/access/AccessControlUpgradeable.sol\":8093:8133  RoleGranted(role, account, _msgSender()) */\n      and\n        /* \"@openzeppelin/contracts-upgradeable/access/AccessControlUpgradeable.sol\":8111:8118  account */\n      dup2\n      sub(shl(0xa0, 0x01), 0x01)\n        /* \"@openzeppelin/contracts-upgradeable/access/AccessControlUpgradeable.sol\":8093:8133  RoleGranted(role, account, _msgSender()) */\n      and\n        /* \"@openzeppelin/contracts-upgradeable/access/AccessControlUpgradeable.sol\":8105:8109  role */\n      dup4\n        /* \"@openzeppelin/contracts-upgradeable/access/AccessControlUpgradeable.sol\":8093:8133  RoleGranted(role, account, _msgSender()) */\n      0x2f8788117e7eff1d82e926ec794901d17c78024a50270940304540a733656f0d\n      mload(0x40)\n      mload(0x40)\n      dup1\n      swap2\n      sub\n      swap1\n      log4\n        /* \"@openzeppelin/contracts-upgradeable/access/AccessControlUpgradeable.sol\":7917:8150  function _grantRole(bytes32 role, address account) internal virtual {... */\n      pop\n      pop\n      jump\t// out\n        /* \"@openzeppelin/contracts-upgradeable/access/AccessControlUpgradeable.sol\":8321:8555  function _revokeRole(bytes32 role, address account) internal virtual {... */\n    tag_188:\n        /* \"@openzeppelin/contracts-upgradeable/access/AccessControlUpgradeable.sol\":8404:8426  hasRole(role, account) */\n      tag_379\n        /* \"@openzeppelin/contracts-upgradeable/access/AccessControlUpgradeable.sol\":8412:8416  role */\n      dup3\n        /* \"@openzeppelin/contracts-upgradeable/access/AccessControlUpgradeable.sol\":8418:8425  account */\n      dup3\n        /* \"@openzeppelin/contracts-upgradeable/access/AccessControlUpgradeable.sol\":8404:8411  hasRole */\n      tag_108\n        /* \"@openzeppelin/contracts-upgradeable/access/AccessControlUpgradeable.sol\":8404:8426  hasRole(role, account) */\n      jump\t// in\n    tag_379:\n        /* \"@openzeppelin/contracts-upgradeable/access/AccessControlUpgradeable.sol\":8400:8549  if (hasRole(role, account)) {... */\n      iszero\n      tag_187\n      jumpi\n        /* \"@openzeppelin/contracts-upgradeable/access/AccessControlUpgradeable.sol\":8474:8479  false */\n      0x00\n        /* \"@openzeppelin/contracts-upgradeable/access/AccessControlUpgradeable.sol\":8442:8454  _roles[role] */\n      dup3\n      dup2\n      mstore\n        /* \"@openzeppelin/contracts-upgradeable/access/AccessControlUpgradeable.sol\":8442:8448  _roles */\n      0x65\n        /* \"@openzeppelin/contracts-upgradeable/access/AccessControlUpgradeable.sol\":8442:8454  _roles[role] */\n      0x20\n      swap1\n      dup2\n      mstore\n      0x40\n      dup1\n      dup4\n      keccak256\n      sub(shl(0xa0, 0x01), 0x01)\n        /* \"@openzeppelin/contracts-upgradeable/access/AccessControlUpgradeable.sol\":8442:8471  _roles[role].members[account] */\n      dup6\n      and\n      dup1\n      dup6\n      mstore\n      swap3\n      mstore\n      dup1\n      dup4\n      keccak256\n        /* \"@openzeppelin/contracts-upgradeable/access/AccessControlUpgradeable.sol\":8442:8479  _roles[role].members[account] = false */\n      dup1\n      sload\n      not(0xff)\n      and\n      swap1\n      sstore\n        /* \"@openzeppelin/contracts-upgradeable/access/AccessControlUpgradeable.sol\":8498:8538  RoleRevoked(role, account, _msgSender()) */\n      mload\n        /* \"@openzeppelin/contracts-upgradeable/utils/ContextUpgradeable.sol\":929:939  msg.sender */\n      caller\n      swap3\n        /* \"@openzeppelin/contracts-upgradeable/access/AccessControlUpgradeable.sol\":8442:8454  _roles[role] */\n      dup6\n      swap2\n        /* \"@openzeppelin/contracts-upgradeable/access/AccessControlUpgradeable.sol\":8498:8538  RoleRevoked(role, account, _msgSender()) */\n      0xf6391f5c32d9c69d2a47ea670b442974b53935d1edc7fd64eb21e047a839171b\n      swap2\n        /* \"@openzeppelin/contracts-upgradeable/access/AccessControlUpgradeable.sol\":8474:8479  false */\n      swap1\n        /* \"@openzeppelin/contracts-upgradeable/access/AccessControlUpgradeable.sol\":8498:8538  RoleRevoked(role, account, _msgSender()) */\n      log4\n        /* \"@openzeppelin/contracts-upgradeable/access/AccessControlUpgradeable.sol\":8321:8555  function _revokeRole(bytes32 role, address account) internal virtual {... */\n      pop\n      pop\n      jump\t// out\n        /* \"@openzeppelin/contracts-upgradeable/access/OwnableUpgradeable.sol\":1599:1729  function _checkOwner() internal view virtual {... */\n    tag_233:\n        /* \"@openzeppelin/contracts-upgradeable/access/OwnableUpgradeable.sol\":1513:1519  _owner */\n      and(sub(shl(0xa0, 0x01), 0x01), sload(0x97))\n        /* \"@openzeppelin/contracts-upgradeable/utils/ContextUpgradeable.sol\":929:939  msg.sender */\n      caller\n        /* \"@openzeppelin/contracts-upgradeable/access/OwnableUpgradeable.sol\":1662:1685  owner() == _msgSender() */\n      eq\n        /* \"@openzeppelin/contracts-upgradeable/access/OwnableUpgradeable.sol\":1654:1722  require(owner() == _msgSender(), \"Ownable: caller is not the owner\") */\n      tag_235\n      jumpi\n      mload(0x40)\n      shl(0xe5, 0x461bcd)\n      dup2\n      mstore\n        /* \"#utility.yul\":17524:17526   */\n      0x20\n        /* \"@openzeppelin/contracts-upgradeable/access/OwnableUpgradeable.sol\":1654:1722  require(owner() == _msgSender(), \"Ownable: caller is not the owner\") */\n      0x04\n      dup3\n      add\n        /* \"#utility.yul\":17506:17527   */\n      dup2\n      swap1\n      mstore\n        /* \"#utility.yul\":17543:17561   */\n      0x24\n      dup3\n      add\n        /* \"#utility.yul\":17536:17566   */\n      mstore\n        /* \"#utility.yul\":17602:17636   */\n      0x4f776e61626c653a2063616c6c6572206973206e6f7420746865206f776e6572\n        /* \"#utility.yul\":17582:17600   */\n      0x44\n      dup3\n      add\n        /* \"#utility.yul\":17575:17637   */\n      mstore\n        /* \"#utility.yul\":17654:17672   */\n      0x64\n      add\n        /* \"@openzeppelin/contracts-upgradeable/access/OwnableUpgradeable.sol\":1654:1722  require(owner() == _msgSender(), \"Ownable: caller is not the owner\") */\n      tag_156\n        /* \"#utility.yul\":17322:17678   */\n      jump\n        /* \"@openzeppelin/contracts-upgradeable/access/OwnableUpgradeable.sol\":2666:2853  function _transferOwnership(address newOwner) internal virtual {... */\n    tag_236:\n        /* \"@openzeppelin/contracts-upgradeable/access/OwnableUpgradeable.sol\":2758:2764  _owner */\n      0x97\n      dup1\n      sload\n      sub(shl(0xa0, 0x01), 0x01)\n        /* \"@openzeppelin/contracts-upgradeable/access/OwnableUpgradeable.sol\":2774:2791  _owner = newOwner */\n      dup4\n      dup2\n      and\n      not(sub(shl(0xa0, 0x01), 0x01))\n      dup4\n      and\n      dup2\n      or\n      swap1\n      swap4\n      sstore\n        /* \"@openzeppelin/contracts-upgradeable/access/OwnableUpgradeable.sol\":2806:2846  OwnershipTransferred(oldOwner, newOwner) */\n      mload(0x40)\n        /* \"@openzeppelin/contracts-upgradeable/access/OwnableUpgradeable.sol\":2758:2764  _owner */\n      swap2\n      and\n      swap2\n        /* \"@openzeppelin/contracts-upgradeable/access/OwnableUpgradeable.sol\":2774:2791  _owner = newOwner */\n      swap1\n        /* \"@openzeppelin/contracts-upgradeable/access/OwnableUpgradeable.sol\":2758:2764  _owner */\n      dup3\n      swap1\n        /* \"@openzeppelin/contracts-upgradeable/access/OwnableUpgradeable.sol\":2806:2846  OwnershipTransferred(oldOwner, newOwner) */\n      0x8be0079c531659141344cd1fd0a4f28419497f9722a3daafe3b4186f6b6457e0\n      swap1\n        /* \"@openzeppelin/contracts-upgradeable/access/OwnableUpgradeable.sol\":2739:2755  address oldOwner */\n      0x00\n      swap1\n        /* \"@openzeppelin/contracts-upgradeable/access/OwnableUpgradeable.sol\":2806:2846  OwnershipTransferred(oldOwner, newOwner) */\n      log3\n        /* \"@openzeppelin/contracts-upgradeable/access/OwnableUpgradeable.sol\":2729:2853  {... */\n      pop\n        /* \"@openzeppelin/contracts-upgradeable/access/OwnableUpgradeable.sol\":2666:2853  function _transferOwnership(address newOwner) internal virtual {... */\n      pop\n      jump\t// out\n        /* \"@openzeppelin/contracts-upgradeable/access/OwnableUpgradeable.sol\":1104:1215  function __Ownable_init_unchained() internal onlyInitializing {... */\n    tag_368:\n        /* \"@openzeppelin/contracts-upgradeable/proxy/utils/Initializable.sol\":5374:5387  _initializing */\n      sload(0x00)\n      0x0100\n      swap1\n      div\n      0xff\n      and\n        /* \"@openzeppelin/contracts-upgradeable/proxy/utils/Initializable.sol\":5366:5435  require(_initializing, \"Initializable: contract is not initializing\") */\n      tag_390\n      jumpi\n      mload(0x40)\n      shl(0xe5, 0x461bcd)\n      dup2\n      mstore\n      0x04\n      add\n      tag_156\n      swap1\n      tag_365\n      jump\t// in\n    tag_390:\n        /* \"@openzeppelin/contracts-upgradeable/access/OwnableUpgradeable.sol\":1176:1208  _transferOwnership(_msgSender()) */\n      tag_235\n        /* \"@openzeppelin/contracts-upgradeable/utils/ContextUpgradeable.sol\":929:939  msg.sender */\n      caller\n        /* \"@openzeppelin/contracts-upgradeable/access/OwnableUpgradeable.sol\":1176:1194  _transferOwnership */\n      tag_236\n        /* \"@openzeppelin/contracts-upgradeable/access/OwnableUpgradeable.sol\":1176:1208  _transferOwnership(_msgSender()) */\n      jump\t// in\n        /* \"@openzeppelin/contracts-upgradeable/access/AccessControlUpgradeable.sol\":4152:4653  function _checkRole(bytes32 role, address account) internal view virtual {... */\n    tag_372:\n        /* \"@openzeppelin/contracts-upgradeable/access/AccessControlUpgradeable.sol\":4240:4262  hasRole(role, account) */\n      tag_396\n        /* \"@openzeppelin/contracts-upgradeable/access/AccessControlUpgradeable.sol\":4248:4252  role */\n      dup3\n        /* \"@openzeppelin/contracts-upgradeable/access/AccessControlUpgradeable.sol\":4254:4261  account */\n      dup3\n        /* \"@openzeppelin/contracts-upgradeable/access/AccessControlUpgradeable.sol\":4240:4247  hasRole */\n      tag_108\n        /* \"@openzeppelin/contracts-upgradeable/access/AccessControlUpgradeable.sol\":4240:4262  hasRole(role, account) */\n      jump\t// in\n    tag_396:\n        /* \"@openzeppelin/contracts-upgradeable/access/AccessControlUpgradeable.sol\":4235:4647  if (!hasRole(role, account)) {... */\n      tag_187\n      jumpi\n        /* \"@openzeppelin/contracts-upgradeable/access/AccessControlUpgradeable.sol\":4423:4462  StringsUpgradeable.toHexString(account) */\n      tag_398\n        /* \"@openzeppelin/contracts-upgradeable/access/AccessControlUpgradeable.sol\":4454:4461  account */\n      dup2\n        /* \"@openzeppelin/contracts-upgradeable/access/AccessControlUpgradeable.sol\":4423:4453  StringsUpgradeable.toHexString */\n      tag_399\n        /* \"@openzeppelin/contracts-upgradeable/access/AccessControlUpgradeable.sol\":4423:4462  StringsUpgradeable.toHexString(account) */\n      jump\t// in\n    tag_398:\n        /* \"@openzeppelin/contracts-upgradeable/access/AccessControlUpgradeable.sol\":4533:4582  StringsUpgradeable.toHexString(uint256(role), 32) */\n      tag_400\n        /* \"@openzeppelin/contracts-upgradeable/access/AccessControlUpgradeable.sol\":4572:4576  role */\n      dup4\n        /* \"@openzeppelin/contracts-upgradeable/access/AccessControlUpgradeable.sol\":4579:4581  32 */\n      0x20\n        /* \"@openzeppelin/contracts-upgradeable/access/AccessControlUpgradeable.sol\":4533:4563  StringsUpgradeable.toHexString */\n      tag_401\n        /* \"@openzeppelin/contracts-upgradeable/access/AccessControlUpgradeable.sol\":4533:4582  StringsUpgradeable.toHexString(uint256(role), 32) */\n      jump\t// in\n    tag_400:\n        /* \"@openzeppelin/contracts-upgradeable/access/AccessControlUpgradeable.sol\":4330:4604  abi.encodePacked(... */\n      add(0x20, mload(0x40))\n      tag_402\n      swap3\n      swap2\n      swap1\n      tag_403\n      jump\t// in\n    tag_402:\n      0x40\n      dup1\n      mload\n      not(0x1f)\n      dup2\n      dup5\n      sub\n      add\n      dup2\n      mstore\n      swap1\n      dup3\n      swap1\n      mstore\n      shl(0xe5, 0x461bcd)\n        /* \"@openzeppelin/contracts-upgradeable/access/AccessControlUpgradeable.sol\":4278:4636  revert(... */\n      dup3\n      mstore\n      tag_156\n      swap2\n      0x04\n      add\n      tag_405\n      jump\t// in\n        /* \"@openzeppelin/contracts-upgradeable/utils/StringsUpgradeable.sol\":2473:2622  function toHexString(address addr) internal pure returns (string memory) {... */\n    tag_399:\n        /* \"@openzeppelin/contracts-upgradeable/utils/StringsUpgradeable.sol\":2531:2544  string memory */\n      0x60\n        /* \"@openzeppelin/contracts-upgradeable/utils/StringsUpgradeable.sol\":2563:2615  toHexString(uint256(uint160(addr)), _ADDRESS_LENGTH) */\n      tag_147\n      sub(shl(0xa0, 0x01), 0x01)\n        /* \"@openzeppelin/contracts-upgradeable/utils/StringsUpgradeable.sol\":2575:2597  uint256(uint160(addr)) */\n      dup4\n      and\n        /* \"@openzeppelin/contracts-upgradeable/utils/StringsUpgradeable.sol\":376:378  20 */\n      0x14\n        /* \"@openzeppelin/contracts-upgradeable/utils/StringsUpgradeable.sol\":1884:2321  function toHexString(uint256 value, uint256 length) internal pure returns (string memory) {... */\n    tag_401:\n        /* \"@openzeppelin/contracts-upgradeable/utils/StringsUpgradeable.sol\":1959:1972  string memory */\n      0x60\n        /* \"@openzeppelin/contracts-upgradeable/utils/StringsUpgradeable.sol\":1984:2003  bytes memory buffer */\n      0x00\n        /* \"@openzeppelin/contracts-upgradeable/utils/StringsUpgradeable.sol\":2016:2026  2 * length */\n      tag_409\n        /* \"@openzeppelin/contracts-upgradeable/utils/StringsUpgradeable.sol\":2020:2026  length */\n      dup4\n        /* \"@openzeppelin/contracts-upgradeable/utils/StringsUpgradeable.sol\":2016:2017  2 */\n      0x02\n        /* \"@openzeppelin/contracts-upgradeable/utils/StringsUpgradeable.sol\":2016:2026  2 * length */\n      tag_410\n      jump\t// in\n    tag_409:\n        /* \"@openzeppelin/contracts-upgradeable/utils/StringsUpgradeable.sol\":2016:2030  2 * length + 2 */\n      tag_411\n      swap1\n        /* \"@openzeppelin/contracts-upgradeable/utils/StringsUpgradeable.sol\":2029:2030  2 */\n      0x02\n        /* \"@openzeppelin/contracts-upgradeable/utils/StringsUpgradeable.sol\":2016:2030  2 * length + 2 */\n      tag_412\n      jump\t// in\n    tag_411:\n        /* \"@openzeppelin/contracts-upgradeable/utils/StringsUpgradeable.sol\":2006:2031  new bytes(2 * length + 2) */\n      0xffffffffffffffff\n      dup2\n      gt\n      iszero\n      tag_414\n      jumpi\n      tag_414\n      tag_285\n      jump\t// in\n    tag_414:\n      mload(0x40)\n      swap1\n      dup1\n      dup3\n      mstore\n      dup1\n      0x1f\n      add\n      not(0x1f)\n      and\n      0x20\n      add\n      dup3\n      add\n      0x40\n      mstore\n      dup1\n      iszero\n      tag_415\n      jumpi\n      0x20\n      dup3\n      add\n      dup2\n      dup1\n      calldatasize\n      dup4\n      calldatacopy\n      add\n      swap1\n      pop\n    tag_415:\n      pop\n        /* \"@openzeppelin/contracts-upgradeable/utils/StringsUpgradeable.sol\":1984:2031  bytes memory buffer = new bytes(2 * length + 2) */\n      swap1\n      pop\n      shl(0xfc, 0x03)\n        /* \"@openzeppelin/contracts-upgradeable/utils/StringsUpgradeable.sol\":2041:2047  buffer */\n      dup2\n        /* \"@openzeppelin/contracts-upgradeable/utils/StringsUpgradeable.sol\":2048:2049  0 */\n      0x00\n        /* \"@openzeppelin/contracts-upgradeable/utils/StringsUpgradeable.sol\":2041:2050  buffer[0] */\n      dup2\n      mload\n      dup2\n      lt\n      tag_417\n      jumpi\n      tag_417\n      tag_216\n      jump\t// in\n    tag_417:\n      0x20\n      add\n      add\n        /* \"@openzeppelin/contracts-upgradeable/utils/StringsUpgradeable.sol\":2041:2056  buffer[0] = \"0\" */\n      swap1\n      not(sub(shl(0xf8, 0x01), 0x01))\n      and\n      swap1\n      dup2\n      0x00\n      byte\n      swap1\n      mstore8\n      pop\n      shl(0xfb, 0x0f)\n        /* \"@openzeppelin/contracts-upgradeable/utils/StringsUpgradeable.sol\":2066:2072  buffer */\n      dup2\n        /* \"@openzeppelin/contracts-upgradeable/utils/StringsUpgradeable.sol\":2073:2074  1 */\n      0x01\n        /* \"@openzeppelin/contracts-upgradeable/utils/StringsUpgradeable.sol\":2066:2075  buffer[1] */\n      dup2\n      mload\n      dup2\n      lt\n      tag_419\n      jumpi\n      tag_419\n      tag_216\n      jump\t// in\n    tag_419:\n      0x20\n      add\n      add\n        /* \"@openzeppelin/contracts-upgradeable/utils/StringsUpgradeable.sol\":2066:2081  buffer[1] = \"x\" */\n      swap1\n      not(sub(shl(0xf8, 0x01), 0x01))\n      and\n      swap1\n      dup2\n      0x00\n      byte\n      swap1\n      mstore8\n      pop\n        /* \"@openzeppelin/contracts-upgradeable/utils/StringsUpgradeable.sol\":2096:2105  uint256 i */\n      0x00\n        /* \"@openzeppelin/contracts-upgradeable/utils/StringsUpgradeable.sol\":2108:2118  2 * length */\n      tag_423\n        /* \"@openzeppelin/contracts-upgradeable/utils/StringsUpgradeable.sol\":2112:2118  length */\n      dup5\n        /* \"@openzeppelin/contracts-upgradeable/utils/StringsUpgradeable.sol\":2108:2109  2 */\n      0x02\n        /* \"@openzeppelin/contracts-upgradeable/utils/StringsUpgradeable.sol\":2108:2118  2 * length */\n      tag_410\n      jump\t// in\n    tag_423:\n        /* \"@openzeppelin/contracts-upgradeable/utils/StringsUpgradeable.sol\":2108:2122  2 * length + 1 */\n      tag_424\n      swap1\n        /* \"@openzeppelin/contracts-upgradeable/utils/StringsUpgradeable.sol\":2121:2122  1 */\n      0x01\n        /* \"@openzeppelin/contracts-upgradeable/utils/StringsUpgradeable.sol\":2108:2122  2 * length + 1 */\n      tag_412\n      jump\t// in\n    tag_424:\n        /* \"@openzeppelin/contracts-upgradeable/utils/StringsUpgradeable.sol\":2096:2122  uint256 i = 2 * length + 1 */\n      swap1\n      pop\n        /* \"@openzeppelin/contracts-upgradeable/utils/StringsUpgradeable.sol\":2091:2219  for (uint256 i = 2 * length + 1; i > 1; --i) {... */\n    tag_420:\n        /* \"@openzeppelin/contracts-upgradeable/utils/StringsUpgradeable.sol\":2128:2129  1 */\n      0x01\n        /* \"@openzeppelin/contracts-upgradeable/utils/StringsUpgradeable.sol\":2124:2125  i */\n      dup2\n        /* \"@openzeppelin/contracts-upgradeable/utils/StringsUpgradeable.sol\":2124:2129  i > 1 */\n      gt\n        /* \"@openzeppelin/contracts-upgradeable/utils/StringsUpgradeable.sol\":2091:2219  for (uint256 i = 2 * length + 1; i > 1; --i) {... */\n      iszero\n      tag_421\n      jumpi\n      shl(0x81, 0x181899199a1a9b1b9c1cb0b131b232b3)\n        /* \"@openzeppelin/contracts-upgradeable/utils/StringsUpgradeable.sol\":2171:2176  value */\n      dup6\n        /* \"@openzeppelin/contracts-upgradeable/utils/StringsUpgradeable.sol\":2179:2182  0xf */\n      0x0f\n        /* \"@openzeppelin/contracts-upgradeable/utils/StringsUpgradeable.sol\":2171:2182  value & 0xf */\n      and\n        /* \"@openzeppelin/contracts-upgradeable/utils/StringsUpgradeable.sol\":2162:2183  _SYMBOLS[value & 0xf] */\n      0x10\n      dup2\n      lt\n      tag_426\n      jumpi\n      tag_426\n      tag_216\n      jump\t// in\n    tag_426:\n      byte\n      0xf8\n      shl\n        /* \"@openzeppelin/contracts-upgradeable/utils/StringsUpgradeable.sol\":2150:2156  buffer */\n      dup3\n        /* \"@openzeppelin/contracts-upgradeable/utils/StringsUpgradeable.sol\":2157:2158  i */\n      dup3\n        /* \"@openzeppelin/contracts-upgradeable/utils/StringsUpgradeable.sol\":2150:2159  buffer[i] */\n      dup2\n      mload\n      dup2\n      lt\n      tag_428\n      jumpi\n      tag_428\n      tag_216\n      jump\t// in\n    tag_428:\n      0x20\n      add\n      add\n        /* \"@openzeppelin/contracts-upgradeable/utils/StringsUpgradeable.sol\":2150:2183  buffer[i] = _SYMBOLS[value & 0xf] */\n      swap1\n      not(sub(shl(0xf8, 0x01), 0x01))\n      and\n      swap1\n      dup2\n      0x00\n      byte\n      swap1\n      mstore8\n      pop\n        /* \"@openzeppelin/contracts-upgradeable/utils/StringsUpgradeable.sol\":2207:2208  4 */\n      0x04\n        /* \"@openzeppelin/contracts-upgradeable/utils/StringsUpgradeable.sol\":2197:2208  value >>= 4 */\n      swap5\n      swap1\n      swap5\n      shr\n      swap4\n        /* \"@openzeppelin/contracts-upgradeable/utils/StringsUpgradeable.sol\":2131:2134  --i */\n      tag_429\n      dup2\n      tag_430\n      jump\t// in\n    tag_429:\n      swap1\n      pop\n        /* \"@openzeppelin/contracts-upgradeable/utils/StringsUpgradeable.sol\":2091:2219  for (uint256 i = 2 * length + 1; i > 1; --i) {... */\n      jump(tag_420)\n    tag_421:\n      pop\n        /* \"@openzeppelin/contracts-upgradeable/utils/StringsUpgradeable.sol\":2236:2246  value == 0 */\n      dup4\n      iszero\n        /* \"@openzeppelin/contracts-upgradeable/utils/StringsUpgradeable.sol\":2228:2283  require(value == 0, \"Strings: hex length insufficient\") */\n      tag_431\n      jumpi\n      mload(0x40)\n      shl(0xe5, 0x461bcd)\n      dup2\n      mstore\n        /* \"#utility.yul\":19370:19372   */\n      0x20\n        /* \"@openzeppelin/contracts-upgradeable/utils/StringsUpgradeable.sol\":2228:2283  require(value == 0, \"Strings: hex length insufficient\") */\n      0x04\n      dup3\n      add\n        /* \"#utility.yul\":19352:19373   */\n      dup2\n      swap1\n      mstore\n        /* \"#utility.yul\":19389:19407   */\n      0x24\n      dup3\n      add\n        /* \"#utility.yul\":19382:19412   */\n      mstore\n        /* \"#utility.yul\":19448:19482   */\n      0x537472696e67733a20686578206c656e67746820696e73756666696369656e74\n        /* \"#utility.yul\":19428:19446   */\n      0x44\n      dup3\n      add\n        /* \"#utility.yul\":19421:19483   */\n      mstore\n        /* \"#utility.yul\":19500:19518   */\n      0x64\n      add\n        /* \"@openzeppelin/contracts-upgradeable/utils/StringsUpgradeable.sol\":2228:2283  require(value == 0, \"Strings: hex length insufficient\") */\n      tag_156\n        /* \"#utility.yul\":19168:19524   */\n      jump\n        /* \"@openzeppelin/contracts-upgradeable/utils/StringsUpgradeable.sol\":2228:2283  require(value == 0, \"Strings: hex length insufficient\") */\n    tag_431:\n        /* \"@openzeppelin/contracts-upgradeable/utils/StringsUpgradeable.sol\":2307:2313  buffer */\n      swap4\n        /* \"@openzeppelin/contracts-upgradeable/utils/StringsUpgradeable.sol\":1884:2321  function toHexString(uint256 value, uint256 length) internal pure returns (string memory) {... */\n      swap3\n      pop\n      pop\n      pop\n      jump\t// out\n        /* \"#utility.yul\":14:300   */\n    tag_40:\n        /* \"#utility.yul\":72:78   */\n      0x00\n        /* \"#utility.yul\":125:127   */\n      0x20\n        /* \"#utility.yul\":113:122   */\n      dup3\n        /* \"#utility.yul\":104:111   */\n      dup5\n        /* \"#utility.yul\":100:123   */\n      sub\n        /* \"#utility.yul\":96:128   */\n      slt\n        /* \"#utility.yul\":93:145   */\n      iszero\n      tag_446\n      jumpi\n        /* \"#utility.yul\":141:142   */\n      0x00\n        /* \"#utility.yul\":138:139   */\n      dup1\n        /* \"#utility.yul\":131:143   */\n      revert\n        /* \"#utility.yul\":93:145   */\n    tag_446:\n        /* \"#utility.yul\":167:190   */\n      dup2\n      calldataload\n      not(sub(shl(0xe0, 0x01), 0x01))\n        /* \"#utility.yul\":219:251   */\n      dup2\n      and\n        /* \"#utility.yul\":209:252   */\n      dup2\n      eq\n        /* \"#utility.yul\":199:270   */\n      tag_431\n      jumpi\n        /* \"#utility.yul\":266:267   */\n      0x00\n        /* \"#utility.yul\":263:264   */\n      dup1\n        /* \"#utility.yul\":256:268   */\n      revert\n        /* \"#utility.yul\":497:628   */\n    tag_434:\n      sub(shl(0xa0, 0x01), 0x01)\n        /* \"#utility.yul\":572:603   */\n      dup2\n      and\n        /* \"#utility.yul\":562:604   */\n      dup2\n      eq\n        /* \"#utility.yul\":552:622   */\n      tag_359\n      jumpi\n        /* \"#utility.yul\":618:619   */\n      0x00\n        /* \"#utility.yul\":615:616   */\n      dup1\n        /* \"#utility.yul\":608:620   */\n      revert\n        /* \"#utility.yul\":633:1162   */\n    tag_46:\n        /* \"#utility.yul\":710:716   */\n      0x00\n        /* \"#utility.yul\":718:724   */\n      dup1\n        /* \"#utility.yul\":726:732   */\n      0x00\n        /* \"#utility.yul\":779:781   */\n      0x60\n        /* \"#utility.yul\":767:776   */\n      dup5\n        /* \"#utility.yul\":758:765   */\n      dup7\n        /* \"#utility.yul\":754:777   */\n      sub\n        /* \"#utility.yul\":750:782   */\n      slt\n        /* \"#utility.yul\":747:799   */\n      iszero\n      tag_452\n      jumpi\n        /* \"#utility.yul\":795:796   */\n      0x00\n        /* \"#utility.yul\":792:793   */\n      dup1\n        /* \"#utility.yul\":785:797   */\n      revert\n        /* \"#utility.yul\":747:799   */\n    tag_452:\n        /* \"#utility.yul\":834:843   */\n      dup4\n        /* \"#utility.yul\":821:844   */\n      calldataload\n        /* \"#utility.yul\":853:884   */\n      tag_453\n        /* \"#utility.yul\":878:883   */\n      dup2\n        /* \"#utility.yul\":853:884   */\n      tag_434\n      jump\t// in\n    tag_453:\n        /* \"#utility.yul\":903:908   */\n      swap3\n      pop\n        /* \"#utility.yul\":960:962   */\n      0x20\n        /* \"#utility.yul\":945:963   */\n      dup5\n      add\n        /* \"#utility.yul\":932:964   */\n      calldataload\n        /* \"#utility.yul\":973:1006   */\n      tag_454\n        /* \"#utility.yul\":932:964   */\n      dup2\n        /* \"#utility.yul\":973:1006   */\n      tag_434\n      jump\t// in\n    tag_454:\n        /* \"#utility.yul\":1025:1032   */\n      swap2\n      pop\n        /* \"#utility.yul\":1084:1086   */\n      0x40\n        /* \"#utility.yul\":1069:1087   */\n      dup5\n      add\n        /* \"#utility.yul\":1056:1088   */\n      calldataload\n        /* \"#utility.yul\":1097:1130   */\n      tag_455\n        /* \"#utility.yul\":1056:1088   */\n      dup2\n        /* \"#utility.yul\":1097:1130   */\n      tag_434\n      jump\t// in\n    tag_455:\n        /* \"#utility.yul\":1149:1156   */\n      dup1\n        /* \"#utility.yul\":1139:1156   */\n      swap2\n      pop\n      pop\n        /* \"#utility.yul\":633:1162   */\n      swap3\n      pop\n      swap3\n      pop\n      swap3\n      jump\t// out\n        /* \"#utility.yul\":1349:1529   */\n    tag_54:\n        /* \"#utility.yul\":1408:1414   */\n      0x00\n        /* \"#utility.yul\":1461:1463   */\n      0x20\n        /* \"#utility.yul\":1449:1458   */\n      dup3\n        /* \"#utility.yul\":1440:1447   */\n      dup5\n        /* \"#utility.yul\":1436:1459   */\n      sub\n        /* \"#utility.yul\":1432:1464   */\n      slt\n        /* \"#utility.yul\":1429:1481   */\n      iszero\n      tag_458\n      jumpi\n        /* \"#utility.yul\":1477:1478   */\n      0x00\n        /* \"#utility.yul\":1474:1475   */\n      dup1\n        /* \"#utility.yul\":1467:1479   */\n      revert\n        /* \"#utility.yul\":1429:1481   */\n    tag_458:\n      pop\n        /* \"#utility.yul\":1500:1523   */\n      calldataload\n      swap2\n        /* \"#utility.yul\":1349:1529   */\n      swap1\n      pop\n      jump\t// out\n        /* \"#utility.yul\":1534:1781   */\n    tag_59:\n        /* \"#utility.yul\":1593:1599   */\n      0x00\n        /* \"#utility.yul\":1646:1648   */\n      0x20\n        /* \"#utility.yul\":1634:1643   */\n      dup3\n        /* \"#utility.yul\":1625:1632   */\n      dup5\n        /* \"#utility.yul\":1621:1644   */\n      sub\n        /* \"#utility.yul\":1617:1649   */\n      slt\n        /* \"#utility.yul\":1614:1666   */\n      iszero\n      tag_460\n      jumpi\n        /* \"#utility.yul\":1662:1663   */\n      0x00\n        /* \"#utility.yul\":1659:1660   */\n      dup1\n        /* \"#utility.yul\":1652:1664   */\n      revert\n        /* \"#utility.yul\":1614:1666   */\n    tag_460:\n        /* \"#utility.yul\":1701:1710   */\n      dup2\n        /* \"#utility.yul\":1688:1711   */\n      calldataload\n        /* \"#utility.yul\":1720:1751   */\n      tag_431\n        /* \"#utility.yul\":1745:1750   */\n      dup2\n        /* \"#utility.yul\":1720:1751   */\n      tag_434\n      jump\t// in\n        /* \"#utility.yul\":1786:2101   */\n    tag_63:\n        /* \"#utility.yul\":1854:1860   */\n      0x00\n        /* \"#utility.yul\":1862:1868   */\n      dup1\n        /* \"#utility.yul\":1915:1917   */\n      0x40\n        /* \"#utility.yul\":1903:1912   */\n      dup4\n        /* \"#utility.yul\":1894:1901   */\n      dup6\n        /* \"#utility.yul\":1890:1913   */\n      sub\n        /* \"#utility.yul\":1886:1918   */\n      slt\n        /* \"#utility.yul\":1883:1935   */\n      iszero\n      tag_463\n      jumpi\n        /* \"#utility.yul\":1931:1932   */\n      0x00\n        /* \"#utility.yul\":1928:1929   */\n      dup1\n        /* \"#utility.yul\":1921:1933   */\n      revert\n        /* \"#utility.yul\":1883:1935   */\n    tag_463:\n        /* \"#utility.yul\":1967:1976   */\n      dup3\n        /* \"#utility.yul\":1954:1977   */\n      calldataload\n        /* \"#utility.yul\":1944:1977   */\n      swap2\n      pop\n        /* \"#utility.yul\":2027:2029   */\n      0x20\n        /* \"#utility.yul\":2016:2025   */\n      dup4\n        /* \"#utility.yul\":2012:2030   */\n      add\n        /* \"#utility.yul\":1999:2031   */\n      calldataload\n        /* \"#utility.yul\":2040:2071   */\n      tag_464\n        /* \"#utility.yul\":2065:2070   */\n      dup2\n        /* \"#utility.yul\":2040:2071   */\n      tag_434\n      jump\t// in\n    tag_464:\n        /* \"#utility.yul\":2090:2095   */\n      dup1\n        /* \"#utility.yul\":2080:2095   */\n      swap2\n      pop\n      pop\n        /* \"#utility.yul\":1786:2101   */\n      swap3\n      pop\n      swap3\n      swap1\n      pop\n      jump\t// out\n        /* \"#utility.yul\":2106:2223   */\n    tag_435:\n        /* \"#utility.yul\":2191:2197   */\n      0xffff\n        /* \"#utility.yul\":2184:2189   */\n      dup2\n        /* \"#utility.yul\":2180:2198   */\n      and\n        /* \"#utility.yul\":2173:2178   */\n      dup2\n        /* \"#utility.yul\":2170:2199   */\n      eq\n        /* \"#utility.yul\":2160:2217   */\n      tag_359\n      jumpi\n        /* \"#utility.yul\":2213:2214   */\n      0x00\n        /* \"#utility.yul\":2210:2211   */\n      dup1\n        /* \"#utility.yul\":2203:2215   */\n      revert\n        /* \"#utility.yul\":2228:2614   */\n    tag_70:\n        /* \"#utility.yul\":2295:2301   */\n      0x00\n        /* \"#utility.yul\":2303:2309   */\n      dup1\n        /* \"#utility.yul\":2356:2358   */\n      0x40\n        /* \"#utility.yul\":2344:2353   */\n      dup4\n        /* \"#utility.yul\":2335:2342   */\n      dup6\n        /* \"#utility.yul\":2331:2354   */\n      sub\n        /* \"#utility.yul\":2327:2359   */\n      slt\n        /* \"#utility.yul\":2324:2376   */\n      iszero\n      tag_468\n      jumpi\n        /* \"#utility.yul\":2372:2373   */\n      0x00\n        /* \"#utility.yul\":2369:2370   */\n      dup1\n        /* \"#utility.yul\":2362:2374   */\n      revert\n        /* \"#utility.yul\":2324:2376   */\n    tag_468:\n        /* \"#utility.yul\":2411:2420   */\n      dup3\n        /* \"#utility.yul\":2398:2421   */\n      calldataload\n        /* \"#utility.yul\":2430:2461   */\n      tag_469\n        /* \"#utility.yul\":2455:2460   */\n      dup2\n        /* \"#utility.yul\":2430:2461   */\n      tag_434\n      jump\t// in\n    tag_469:\n        /* \"#utility.yul\":2480:2485   */\n      swap2\n      pop\n        /* \"#utility.yul\":2537:2539   */\n      0x20\n        /* \"#utility.yul\":2522:2540   */\n      dup4\n      add\n        /* \"#utility.yul\":2509:2541   */\n      calldataload\n        /* \"#utility.yul\":2550:2582   */\n      tag_464\n        /* \"#utility.yul\":2509:2541   */\n      dup2\n        /* \"#utility.yul\":2550:2582   */\n      tag_435\n      jump\t// in\n        /* \"#utility.yul\":2856:3400   */\n    tag_78:\n        /* \"#utility.yul\":2949:2955   */\n      0x00\n        /* \"#utility.yul\":2957:2963   */\n      dup1\n        /* \"#utility.yul\":2965:2971   */\n      0x00\n        /* \"#utility.yul\":3018:3020   */\n      0x60\n        /* \"#utility.yul\":3006:3015   */\n      dup5\n        /* \"#utility.yul\":2997:3004   */\n      dup7\n        /* \"#utility.yul\":2993:3016   */\n      sub\n        /* \"#utility.yul\":2989:3021   */\n      slt\n        /* \"#utility.yul\":2986:3038   */\n      iszero\n      tag_473\n      jumpi\n        /* \"#utility.yul\":3034:3035   */\n      0x00\n        /* \"#utility.yul\":3031:3032   */\n      dup1\n        /* \"#utility.yul\":3024:3036   */\n      revert\n        /* \"#utility.yul\":2986:3038   */\n    tag_473:\n        /* \"#utility.yul\":3073:3082   */\n      dup4\n        /* \"#utility.yul\":3060:3083   */\n      calldataload\n        /* \"#utility.yul\":3092:3123   */\n      tag_474\n        /* \"#utility.yul\":3117:3122   */\n      dup2\n        /* \"#utility.yul\":3092:3123   */\n      tag_434\n      jump\t// in\n    tag_474:\n        /* \"#utility.yul\":3142:3147   */\n      swap3\n      pop\n        /* \"#utility.yul\":3199:3201   */\n      0x20\n        /* \"#utility.yul\":3184:3202   */\n      dup5\n      add\n        /* \"#utility.yul\":3171:3203   */\n      calldataload\n        /* \"#utility.yul\":3212:3245   */\n      tag_475\n        /* \"#utility.yul\":3171:3203   */\n      dup2\n        /* \"#utility.yul\":3212:3245   */\n      tag_434\n      jump\t// in\n    tag_475:\n        /* \"#utility.yul\":3264:3271   */\n      swap2\n      pop\n        /* \"#utility.yul\":3323:3325   */\n      0x40\n        /* \"#utility.yul\":3308:3326   */\n      dup5\n      add\n        /* \"#utility.yul\":3295:3327   */\n      calldataload\n        /* \"#utility.yul\":3336:3368   */\n      tag_455\n        /* \"#utility.yul\":3295:3327   */\n      dup2\n        /* \"#utility.yul\":3336:3368   */\n      tag_435\n      jump\t// in\n        /* \"#utility.yul\":3405:3772   */\n    tag_436:\n        /* \"#utility.yul\":3468:3476   */\n      0x00\n        /* \"#utility.yul\":3478:3484   */\n      dup1\n        /* \"#utility.yul\":3532:3535   */\n      dup4\n        /* \"#utility.yul\":3525:3529   */\n      0x1f\n        /* \"#utility.yul\":3517:3523   */\n      dup5\n        /* \"#utility.yul\":3513:3530   */\n      add\n        /* \"#utility.yul\":3509:3536   */\n      slt\n        /* \"#utility.yul\":3499:3554   */\n      tag_478\n      jumpi\n        /* \"#utility.yul\":3550:3551   */\n      0x00\n        /* \"#utility.yul\":3547:3548   */\n      dup1\n        /* \"#utility.yul\":3540:3552   */\n      revert\n        /* \"#utility.yul\":3499:3554   */\n    tag_478:\n      pop\n        /* \"#utility.yul\":3573:3593   */\n      dup2\n      calldataload\n        /* \"#utility.yul\":3616:3634   */\n      0xffffffffffffffff\n        /* \"#utility.yul\":3605:3635   */\n      dup2\n      gt\n        /* \"#utility.yul\":3602:3652   */\n      iszero\n      tag_479\n      jumpi\n        /* \"#utility.yul\":3648:3649   */\n      0x00\n        /* \"#utility.yul\":3645:3646   */\n      dup1\n        /* \"#utility.yul\":3638:3650   */\n      revert\n        /* \"#utility.yul\":3602:3652   */\n    tag_479:\n        /* \"#utility.yul\":3685:3689   */\n      0x20\n        /* \"#utility.yul\":3677:3683   */\n      dup4\n        /* \"#utility.yul\":3673:3690   */\n      add\n        /* \"#utility.yul\":3661:3690   */\n      swap2\n      pop\n        /* \"#utility.yul\":3745:3748   */\n      dup4\n        /* \"#utility.yul\":3738:3742   */\n      0x20\n        /* \"#utility.yul\":3728:3734   */\n      dup3\n        /* \"#utility.yul\":3725:3726   */\n      0x05\n        /* \"#utility.yul\":3721:3735   */\n      shl\n        /* \"#utility.yul\":3713:3719   */\n      dup6\n        /* \"#utility.yul\":3709:3736   */\n      add\n        /* \"#utility.yul\":3705:3743   */\n      add\n        /* \"#utility.yul\":3702:3749   */\n      gt\n        /* \"#utility.yul\":3699:3766   */\n      iszero\n      tag_480\n      jumpi\n        /* \"#utility.yul\":3762:3763   */\n      0x00\n        /* \"#utility.yul\":3759:3760   */\n      dup1\n        /* \"#utility.yul\":3752:3764   */\n      revert\n        /* \"#utility.yul\":3699:3766   */\n    tag_480:\n        /* \"#utility.yul\":3405:3772   */\n      swap3\n      pop\n      swap3\n      swap1\n      pop\n      jump\t// out\n        /* \"#utility.yul\":3777:4881   */\n    tag_86:\n        /* \"#utility.yul\":3951:3957   */\n      0x00\n        /* \"#utility.yul\":3959:3965   */\n      dup1\n        /* \"#utility.yul\":3967:3973   */\n      0x00\n        /* \"#utility.yul\":3975:3981   */\n      dup1\n        /* \"#utility.yul\":3983:3989   */\n      0x00\n        /* \"#utility.yul\":3991:3997   */\n      dup1\n        /* \"#utility.yul\":4044:4046   */\n      0x60\n        /* \"#utility.yul\":4032:4041   */\n      dup8\n        /* \"#utility.yul\":4023:4030   */\n      dup10\n        /* \"#utility.yul\":4019:4042   */\n      sub\n        /* \"#utility.yul\":4015:4047   */\n      slt\n        /* \"#utility.yul\":4012:4064   */\n      iszero\n      tag_482\n      jumpi\n        /* \"#utility.yul\":4060:4061   */\n      0x00\n        /* \"#utility.yul\":4057:4058   */\n      dup1\n        /* \"#utility.yul\":4050:4062   */\n      revert\n        /* \"#utility.yul\":4012:4064   */\n    tag_482:\n        /* \"#utility.yul\":4100:4109   */\n      dup7\n        /* \"#utility.yul\":4087:4110   */\n      calldataload\n        /* \"#utility.yul\":4129:4147   */\n      0xffffffffffffffff\n        /* \"#utility.yul\":4170:4172   */\n      dup1\n        /* \"#utility.yul\":4162:4168   */\n      dup3\n        /* \"#utility.yul\":4159:4173   */\n      gt\n        /* \"#utility.yul\":4156:4190   */\n      iszero\n      tag_483\n      jumpi\n        /* \"#utility.yul\":4186:4187   */\n      0x00\n        /* \"#utility.yul\":4183:4184   */\n      dup1\n        /* \"#utility.yul\":4176:4188   */\n      revert\n        /* \"#utility.yul\":4156:4190   */\n    tag_483:\n        /* \"#utility.yul\":4225:4295   */\n      tag_484\n        /* \"#utility.yul\":4287:4294   */\n      dup11\n        /* \"#utility.yul\":4278:4284   */\n      dup4\n        /* \"#utility.yul\":4267:4276   */\n      dup12\n        /* \"#utility.yul\":4263:4285   */\n      add\n        /* \"#utility.yul\":4225:4295   */\n      tag_436\n      jump\t// in\n    tag_484:\n        /* \"#utility.yul\":4314:4322   */\n      swap1\n      swap9\n      pop\n        /* \"#utility.yul\":4199:4295   */\n      swap7\n      pop\n        /* \"#utility.yul\":4402:4404   */\n      0x20\n        /* \"#utility.yul\":4387:4405   */\n      dup10\n      add\n        /* \"#utility.yul\":4374:4406   */\n      calldataload\n      swap2\n      pop\n        /* \"#utility.yul\":4418:4434   */\n      dup1\n      dup3\n      gt\n        /* \"#utility.yul\":4415:4451   */\n      iszero\n      tag_485\n      jumpi\n        /* \"#utility.yul\":4447:4448   */\n      0x00\n        /* \"#utility.yul\":4444:4445   */\n      dup1\n        /* \"#utility.yul\":4437:4449   */\n      revert\n        /* \"#utility.yul\":4415:4451   */\n    tag_485:\n        /* \"#utility.yul\":4486:4558   */\n      tag_486\n        /* \"#utility.yul\":4550:4557   */\n      dup11\n        /* \"#utility.yul\":4539:4547   */\n      dup4\n        /* \"#utility.yul\":4528:4537   */\n      dup12\n        /* \"#utility.yul\":4524:4548   */\n      add\n        /* \"#utility.yul\":4486:4558   */\n      tag_436\n      jump\t// in\n    tag_486:\n        /* \"#utility.yul\":4577:4585   */\n      swap1\n      swap7\n      pop\n        /* \"#utility.yul\":4460:4558   */\n      swap5\n      pop\n        /* \"#utility.yul\":4665:4667   */\n      0x40\n        /* \"#utility.yul\":4650:4668   */\n      dup10\n      add\n        /* \"#utility.yul\":4637:4669   */\n      calldataload\n      swap2\n      pop\n        /* \"#utility.yul\":4681:4697   */\n      dup1\n      dup3\n      gt\n        /* \"#utility.yul\":4678:4714   */\n      iszero\n      tag_487\n      jumpi\n        /* \"#utility.yul\":4710:4711   */\n      0x00\n        /* \"#utility.yul\":4707:4708   */\n      dup1\n        /* \"#utility.yul\":4700:4712   */\n      revert\n        /* \"#utility.yul\":4678:4714   */\n    tag_487:\n      pop\n        /* \"#utility.yul\":4749:4821   */\n      tag_488\n        /* \"#utility.yul\":4813:4820   */\n      dup10\n        /* \"#utility.yul\":4802:4810   */\n      dup3\n        /* \"#utility.yul\":4791:4800   */\n      dup11\n        /* \"#utility.yul\":4787:4811   */\n      add\n        /* \"#utility.yul\":4749:4821   */\n      tag_436\n      jump\t// in\n    tag_488:\n        /* \"#utility.yul\":3777:4881   */\n      swap8\n      swap11\n      swap7\n      swap10\n      pop\n      swap5\n      swap8\n      pop\n      swap3\n      swap6\n        /* \"#utility.yul\":4840:4848   */\n      swap4\n      swap5\n        /* \"#utility.yul\":3777:4881   */\n      swap3\n      pop\n      pop\n      pop\n      jump\t// out\n        /* \"#utility.yul\":5287:5692   */\n    tag_104:\n        /* \"#utility.yul\":5372:5378   */\n      0x00\n        /* \"#utility.yul\":5380:5386   */\n      dup1\n        /* \"#utility.yul\":5433:5435   */\n      0x40\n        /* \"#utility.yul\":5421:5430   */\n      dup4\n        /* \"#utility.yul\":5412:5419   */\n      dup6\n        /* \"#utility.yul\":5408:5431   */\n      sub\n        /* \"#utility.yul\":5404:5436   */\n      slt\n        /* \"#utility.yul\":5401:5453   */\n      iszero\n      tag_492\n      jumpi\n        /* \"#utility.yul\":5449:5450   */\n      0x00\n        /* \"#utility.yul\":5446:5447   */\n      dup1\n        /* \"#utility.yul\":5439:5451   */\n      revert\n        /* \"#utility.yul\":5401:5453   */\n    tag_492:\n        /* \"#utility.yul\":5488:5497   */\n      dup3\n        /* \"#utility.yul\":5475:5498   */\n      calldataload\n        /* \"#utility.yul\":5507:5538   */\n      tag_493\n        /* \"#utility.yul\":5532:5537   */\n      dup2\n        /* \"#utility.yul\":5507:5538   */\n      tag_434\n      jump\t// in\n    tag_493:\n        /* \"#utility.yul\":5557:5562   */\n      swap2\n      pop\n        /* \"#utility.yul\":5614:5616   */\n      0x20\n        /* \"#utility.yul\":5599:5617   */\n      dup4\n      add\n        /* \"#utility.yul\":5586:5618   */\n      calldataload\n        /* \"#utility.yul\":5627:5660   */\n      tag_464\n        /* \"#utility.yul\":5586:5618   */\n      dup2\n        /* \"#utility.yul\":5627:5660   */\n      tag_434\n      jump\t// in\n        /* \"#utility.yul\":8491:8618   */\n    tag_216:\n        /* \"#utility.yul\":8552:8562   */\n      0x4e487b71\n        /* \"#utility.yul\":8547:8550   */\n      0xe0\n        /* \"#utility.yul\":8543:8563   */\n      shl\n        /* \"#utility.yul\":8540:8541   */\n      0x00\n        /* \"#utility.yul\":8533:8564   */\n      mstore\n        /* \"#utility.yul\":8583:8587   */\n      0x32\n        /* \"#utility.yul\":8580:8581   */\n      0x04\n        /* \"#utility.yul\":8573:8588   */\n      mstore\n        /* \"#utility.yul\":8607:8611   */\n      0x24\n        /* \"#utility.yul\":8604:8605   */\n      0x00\n        /* \"#utility.yul\":8597:8612   */\n      revert\n        /* \"#utility.yul\":8892:9137   */\n    tag_225:\n        /* \"#utility.yul\":8950:8956   */\n      0x00\n        /* \"#utility.yul\":9003:9005   */\n      0x20\n        /* \"#utility.yul\":8991:9000   */\n      dup3\n        /* \"#utility.yul\":8982:8989   */\n      dup5\n        /* \"#utility.yul\":8978:9001   */\n      sub\n        /* \"#utility.yul\":8974:9006   */\n      slt\n        /* \"#utility.yul\":8971:9023   */\n      iszero\n      tag_509\n      jumpi\n        /* \"#utility.yul\":9019:9020   */\n      0x00\n        /* \"#utility.yul\":9016:9017   */\n      dup1\n        /* \"#utility.yul\":9009:9021   */\n      revert\n        /* \"#utility.yul\":8971:9023   */\n    tag_509:\n        /* \"#utility.yul\":9058:9067   */\n      dup2\n        /* \"#utility.yul\":9045:9068   */\n      calldataload\n        /* \"#utility.yul\":9077:9107   */\n      tag_431\n        /* \"#utility.yul\":9101:9106   */\n      dup2\n        /* \"#utility.yul\":9077:9107   */\n      tag_435\n      jump\t// in\n        /* \"#utility.yul\":9142:9269   */\n    tag_437:\n        /* \"#utility.yul\":9203:9213   */\n      0x4e487b71\n        /* \"#utility.yul\":9198:9201   */\n      0xe0\n        /* \"#utility.yul\":9194:9214   */\n      shl\n        /* \"#utility.yul\":9191:9192   */\n      0x00\n        /* \"#utility.yul\":9184:9215   */\n      mstore\n        /* \"#utility.yul\":9234:9238   */\n      0x11\n        /* \"#utility.yul\":9231:9232   */\n      0x04\n        /* \"#utility.yul\":9224:9239   */\n      mstore\n        /* \"#utility.yul\":9258:9262   */\n      0x24\n        /* \"#utility.yul\":9255:9256   */\n      0x00\n        /* \"#utility.yul\":9248:9263   */\n      revert\n        /* \"#utility.yul\":9274:9409   */\n    tag_227:\n        /* \"#utility.yul\":9313:9316   */\n      0x00\n        /* \"#utility.yul\":9334:9351   */\n      0x01\n      dup3\n      add\n        /* \"#utility.yul\":9331:9374   */\n      tag_514\n      jumpi\n        /* \"#utility.yul\":9354:9372   */\n      tag_514\n      tag_437\n      jump\t// in\n    tag_514:\n      pop\n        /* \"#utility.yul\":9401:9402   */\n      0x01\n        /* \"#utility.yul\":9390:9403   */\n      add\n      swap1\n        /* \"#utility.yul\":9274:9409   */\n      jump\t// out\n        /* \"#utility.yul\":9414:9663   */\n    tag_242:\n        /* \"#utility.yul\":9483:9489   */\n      0x00\n        /* \"#utility.yul\":9536:9538   */\n      0x20\n        /* \"#utility.yul\":9524:9533   */\n      dup3\n        /* \"#utility.yul\":9515:9522   */\n      dup5\n        /* \"#utility.yul\":9511:9534   */\n      sub\n        /* \"#utility.yul\":9507:9539   */\n      slt\n        /* \"#utility.yul\":9504:9556   */\n      iszero\n      tag_516\n      jumpi\n        /* \"#utility.yul\":9552:9553   */\n      0x00\n        /* \"#utility.yul\":9549:9550   */\n      dup1\n        /* \"#utility.yul\":9542:9554   */\n      revert\n        /* \"#utility.yul\":9504:9556   */\n    tag_516:\n        /* \"#utility.yul\":9584:9593   */\n      dup2\n        /* \"#utility.yul\":9578:9594   */\n      mload\n        /* \"#utility.yul\":9603:9633   */\n      tag_431\n        /* \"#utility.yul\":9627:9632   */\n      dup2\n        /* \"#utility.yul\":9603:9633   */\n      tag_435\n      jump\t// in\n        /* \"#utility.yul\":9994:10121   */\n    tag_285:\n        /* \"#utility.yul\":10055:10065   */\n      0x4e487b71\n        /* \"#utility.yul\":10050:10053   */\n      0xe0\n        /* \"#utility.yul\":10046:10066   */\n      shl\n        /* \"#utility.yul\":10043:10044   */\n      0x00\n        /* \"#utility.yul\":10036:10067   */\n      mstore\n        /* \"#utility.yul\":10086:10090   */\n      0x41\n        /* \"#utility.yul\":10083:10084   */\n      0x04\n        /* \"#utility.yul\":10076:10091   */\n      mstore\n        /* \"#utility.yul\":10110:10114   */\n      0x24\n        /* \"#utility.yul\":10107:10108   */\n      0x00\n        /* \"#utility.yul\":10100:10115   */\n      revert\n        /* \"#utility.yul\":10126:10401   */\n    tag_438:\n        /* \"#utility.yul\":10197:10199   */\n      0x40\n        /* \"#utility.yul\":10191:10200   */\n      mload\n        /* \"#utility.yul\":10262:10264   */\n      0x1f\n        /* \"#utility.yul\":10243:10256   */\n      dup3\n      add\n      not(0x1f)\n        /* \"#utility.yul\":10239:10266   */\n      and\n        /* \"#utility.yul\":10227:10267   */\n      dup2\n      add\n        /* \"#utility.yul\":10297:10315   */\n      0xffffffffffffffff\n        /* \"#utility.yul\":10282:10316   */\n      dup2\n      gt\n        /* \"#utility.yul\":10318:10340   */\n      dup3\n      dup3\n      lt\n        /* \"#utility.yul\":10279:10341   */\n      or\n        /* \"#utility.yul\":10276:10364   */\n      iszero\n      tag_522\n      jumpi\n        /* \"#utility.yul\":10344:10362   */\n      tag_522\n      tag_285\n      jump\t// in\n    tag_522:\n        /* \"#utility.yul\":10380:10382   */\n      0x40\n        /* \"#utility.yul\":10373:10395   */\n      mstore\n        /* \"#utility.yul\":10126:10401   */\n      swap2\n      swap1\n      pop\n      jump\t// out\n        /* \"#utility.yul\":10406:10589   */\n    tag_439:\n        /* \"#utility.yul\":10466:10470   */\n      0x00\n        /* \"#utility.yul\":10499:10517   */\n      0xffffffffffffffff\n        /* \"#utility.yul\":10491:10497   */\n      dup3\n        /* \"#utility.yul\":10488:10518   */\n      gt\n        /* \"#utility.yul\":10485:10541   */\n      iszero\n      tag_525\n      jumpi\n        /* \"#utility.yul\":10521:10539   */\n      tag_525\n      tag_285\n      jump\t// in\n    tag_525:\n      pop\n        /* \"#utility.yul\":10566:10567   */\n      0x05\n        /* \"#utility.yul\":10562:10576   */\n      shl\n        /* \"#utility.yul\":10578:10582   */\n      0x20\n        /* \"#utility.yul\":10558:10583   */\n      add\n      swap1\n        /* \"#utility.yul\":10406:10589   */\n      jump\t// out\n        /* \"#utility.yul\":10594:11475   */\n    tag_269:\n        /* \"#utility.yul\":10689:10695   */\n      0x00\n        /* \"#utility.yul\":10720:10722   */\n      0x20\n        /* \"#utility.yul\":10763:10765   */\n      dup1\n        /* \"#utility.yul\":10751:10760   */\n      dup4\n        /* \"#utility.yul\":10742:10749   */\n      dup6\n        /* \"#utility.yul\":10738:10761   */\n      sub\n        /* \"#utility.yul\":10734:10766   */\n      slt\n        /* \"#utility.yul\":10731:10783   */\n      iszero\n      tag_527\n      jumpi\n        /* \"#utility.yul\":10779:10780   */\n      0x00\n        /* \"#utility.yul\":10776:10777   */\n      dup1\n        /* \"#utility.yul\":10769:10781   */\n      revert\n        /* \"#utility.yul\":10731:10783   */\n    tag_527:\n        /* \"#utility.yul\":10812:10821   */\n      dup3\n        /* \"#utility.yul\":10806:10822   */\n      mload\n        /* \"#utility.yul\":10845:10863   */\n      0xffffffffffffffff\n        /* \"#utility.yul\":10837:10843   */\n      dup2\n        /* \"#utility.yul\":10834:10864   */\n      gt\n        /* \"#utility.yul\":10831:10881   */\n      iszero\n      tag_528\n      jumpi\n        /* \"#utility.yul\":10877:10878   */\n      0x00\n        /* \"#utility.yul\":10874:10875   */\n      dup1\n        /* \"#utility.yul\":10867:10879   */\n      revert\n        /* \"#utility.yul\":10831:10881   */\n    tag_528:\n        /* \"#utility.yul\":10900:10922   */\n      dup4\n      add\n        /* \"#utility.yul\":10953:10957   */\n      0x1f\n        /* \"#utility.yul\":10945:10958   */\n      dup2\n      add\n        /* \"#utility.yul\":10941:10968   */\n      dup6\n      sgt\n        /* \"#utility.yul\":10931:10986   */\n      tag_529\n      jumpi\n        /* \"#utility.yul\":10982:10983   */\n      0x00\n        /* \"#utility.yul\":10979:10980   */\n      dup1\n        /* \"#utility.yul\":10972:10984   */\n      revert\n        /* \"#utility.yul\":10931:10986   */\n    tag_529:\n        /* \"#utility.yul\":11011:11013   */\n      dup1\n        /* \"#utility.yul\":11005:11014   */\n      mload\n        /* \"#utility.yul\":11034:11094   */\n      tag_530\n        /* \"#utility.yul\":11050:11093   */\n      tag_531\n        /* \"#utility.yul\":11090:11092   */\n      dup3\n        /* \"#utility.yul\":11050:11093   */\n      tag_439\n      jump\t// in\n    tag_531:\n        /* \"#utility.yul\":11034:11094   */\n      tag_438\n      jump\t// in\n    tag_530:\n        /* \"#utility.yul\":11128:11143   */\n      dup2\n      dup2\n      mstore\n        /* \"#utility.yul\":11210:11211   */\n      0x05\n        /* \"#utility.yul\":11206:11216   */\n      swap2\n      swap1\n      swap2\n      shl\n        /* \"#utility.yul\":11198:11217   */\n      dup3\n      add\n        /* \"#utility.yul\":11194:11222   */\n      dup4\n      add\n      swap1\n        /* \"#utility.yul\":11159:11171   */\n      dup4\n      dup2\n      add\n      swap1\n        /* \"#utility.yul\":11234:11253   */\n      dup8\n      dup4\n      gt\n        /* \"#utility.yul\":11231:11270   */\n      iszero\n      tag_532\n      jumpi\n        /* \"#utility.yul\":11266:11267   */\n      0x00\n        /* \"#utility.yul\":11263:11264   */\n      dup1\n        /* \"#utility.yul\":11256:11268   */\n      revert\n        /* \"#utility.yul\":11231:11270   */\n    tag_532:\n        /* \"#utility.yul\":11290:11301   */\n      swap3\n      dup5\n      add\n      swap3\n        /* \"#utility.yul\":11310:11445   */\n    tag_533:\n        /* \"#utility.yul\":11326:11332   */\n      dup3\n        /* \"#utility.yul\":11321:11324   */\n      dup5\n        /* \"#utility.yul\":11318:11333   */\n      lt\n        /* \"#utility.yul\":11310:11445   */\n      iszero\n      tag_535\n      jumpi\n        /* \"#utility.yul\":11392:11402   */\n      dup4\n      mload\n        /* \"#utility.yul\":11380:11403   */\n      dup3\n      mstore\n        /* \"#utility.yul\":11343:11355   */\n      swap3\n      dup5\n      add\n      swap3\n        /* \"#utility.yul\":11423:11435   */\n      swap1\n      dup5\n      add\n      swap1\n        /* \"#utility.yul\":11310:11445   */\n      jump(tag_533)\n    tag_535:\n        /* \"#utility.yul\":11464:11469   */\n      swap8\n        /* \"#utility.yul\":10594:11475   */\n      swap7\n      pop\n      pop\n      pop\n      pop\n      pop\n      pop\n      pop\n      jump\t// out\n        /* \"#utility.yul\":11662:12637   */\n    tag_281:\n        /* \"#utility.yul\":11776:11782   */\n      0x00\n        /* \"#utility.yul\":11807:11809   */\n      0x20\n        /* \"#utility.yul\":11850:11852   */\n      dup1\n        /* \"#utility.yul\":11838:11847   */\n      dup4\n        /* \"#utility.yul\":11829:11836   */\n      dup6\n        /* \"#utility.yul\":11825:11848   */\n      sub\n        /* \"#utility.yul\":11821:11853   */\n      slt\n        /* \"#utility.yul\":11818:11870   */\n      iszero\n      tag_538\n      jumpi\n        /* \"#utility.yul\":11866:11867   */\n      0x00\n        /* \"#utility.yul\":11863:11864   */\n      dup1\n        /* \"#utility.yul\":11856:11868   */\n      revert\n        /* \"#utility.yul\":11818:11870   */\n    tag_538:\n        /* \"#utility.yul\":11899:11908   */\n      dup3\n        /* \"#utility.yul\":11893:11909   */\n      mload\n        /* \"#utility.yul\":11932:11950   */\n      0xffffffffffffffff\n        /* \"#utility.yul\":11924:11930   */\n      dup2\n        /* \"#utility.yul\":11921:11951   */\n      gt\n        /* \"#utility.yul\":11918:11968   */\n      iszero\n      tag_539\n      jumpi\n        /* \"#utility.yul\":11964:11965   */\n      0x00\n        /* \"#utility.yul\":11961:11962   */\n      dup1\n        /* \"#utility.yul\":11954:11966   */\n      revert\n        /* \"#utility.yul\":11918:11968   */\n    tag_539:\n        /* \"#utility.yul\":11987:12009   */\n      dup4\n      add\n        /* \"#utility.yul\":12040:12044   */\n      0x1f\n        /* \"#utility.yul\":12032:12045   */\n      dup2\n      add\n        /* \"#utility.yul\":12028:12055   */\n      dup6\n      sgt\n        /* \"#utility.yul\":12018:12073   */\n      tag_540\n      jumpi\n        /* \"#utility.yul\":12069:12070   */\n      0x00\n        /* \"#utility.yul\":12066:12067   */\n      dup1\n        /* \"#utility.yul\":12059:12071   */\n      revert\n        /* \"#utility.yul\":12018:12073   */\n    tag_540:\n        /* \"#utility.yul\":12098:12100   */\n      dup1\n        /* \"#utility.yul\":12092:12101   */\n      mload\n        /* \"#utility.yul\":12121:12181   */\n      tag_541\n        /* \"#utility.yul\":12137:12180   */\n      tag_531\n        /* \"#utility.yul\":12177:12179   */\n      dup3\n        /* \"#utility.yul\":12137:12180   */\n      tag_439\n      jump\t// in\n        /* \"#utility.yul\":12121:12181   */\n    tag_541:\n        /* \"#utility.yul\":12215:12230   */\n      dup2\n      dup2\n      mstore\n        /* \"#utility.yul\":12297:12298   */\n      0x05\n        /* \"#utility.yul\":12293:12303   */\n      swap2\n      swap1\n      swap2\n      shl\n        /* \"#utility.yul\":12285:12304   */\n      dup3\n      add\n        /* \"#utility.yul\":12281:12309   */\n      dup4\n      add\n      swap1\n        /* \"#utility.yul\":12246:12258   */\n      dup4\n      dup2\n      add\n      swap1\n        /* \"#utility.yul\":12321:12340   */\n      dup8\n      dup4\n      gt\n        /* \"#utility.yul\":12318:12357   */\n      iszero\n      tag_543\n      jumpi\n        /* \"#utility.yul\":12353:12354   */\n      0x00\n        /* \"#utility.yul\":12350:12351   */\n      dup1\n        /* \"#utility.yul\":12343:12355   */\n      revert\n        /* \"#utility.yul\":12318:12357   */\n    tag_543:\n        /* \"#utility.yul\":12377:12388   */\n      swap3\n      dup5\n      add\n      swap3\n        /* \"#utility.yul\":12397:12607   */\n    tag_544:\n        /* \"#utility.yul\":12413:12419   */\n      dup3\n        /* \"#utility.yul\":12408:12411   */\n      dup5\n        /* \"#utility.yul\":12405:12420   */\n      lt\n        /* \"#utility.yul\":12397:12607   */\n      iszero\n      tag_535\n      jumpi\n        /* \"#utility.yul\":12486:12489   */\n      dup4\n        /* \"#utility.yul\":12480:12490   */\n      mload\n        /* \"#utility.yul\":12503:12534   */\n      tag_547\n        /* \"#utility.yul\":12528:12533   */\n      dup2\n        /* \"#utility.yul\":12503:12534   */\n      tag_434\n      jump\t// in\n    tag_547:\n        /* \"#utility.yul\":12547:12565   */\n      dup3\n      mstore\n        /* \"#utility.yul\":12430:12442   */\n      swap3\n      dup5\n      add\n      swap3\n        /* \"#utility.yul\":12585:12597   */\n      swap1\n      dup5\n      add\n      swap1\n        /* \"#utility.yul\":12397:12607   */\n      jump(tag_544)\n        /* \"#utility.yul\":12940:13190   */\n    tag_440:\n        /* \"#utility.yul\":13025:13026   */\n      0x00\n        /* \"#utility.yul\":13035:13148   */\n    tag_550:\n        /* \"#utility.yul\":13049:13055   */\n      dup4\n        /* \"#utility.yul\":13046:13047   */\n      dup2\n        /* \"#utility.yul\":13043:13056   */\n      lt\n        /* \"#utility.yul\":13035:13148   */\n      iszero\n      tag_552\n      jumpi\n        /* \"#utility.yul\":13125:13136   */\n      dup2\n      dup2\n      add\n        /* \"#utility.yul\":13119:13137   */\n      mload\n        /* \"#utility.yul\":13106:13117   */\n      dup4\n      dup3\n      add\n        /* \"#utility.yul\":13099:13138   */\n      mstore\n        /* \"#utility.yul\":13071:13073   */\n      0x20\n        /* \"#utility.yul\":13064:13074   */\n      add\n        /* \"#utility.yul\":13035:13148   */\n      jump(tag_550)\n    tag_552:\n      pop\n      pop\n        /* \"#utility.yul\":13182:13183   */\n      0x00\n        /* \"#utility.yul\":13164:13180   */\n      swap2\n      add\n        /* \"#utility.yul\":13157:13184   */\n      mstore\n        /* \"#utility.yul\":12940:13190   */\n      jump\t// out\n        /* \"#utility.yul\":13195:13585   */\n    tag_441:\n        /* \"#utility.yul\":13270:13275   */\n      0x00\n        /* \"#utility.yul\":13304:13322   */\n      0xffffffffffffffff\n        /* \"#utility.yul\":13296:13302   */\n      dup4\n        /* \"#utility.yul\":13293:13323   */\n      gt\n        /* \"#utility.yul\":13290:13346   */\n      iszero\n      tag_555\n      jumpi\n        /* \"#utility.yul\":13326:13344   */\n      tag_555\n      tag_285\n      jump\t// in\n    tag_555:\n        /* \"#utility.yul\":13364:13421   */\n      tag_556\n        /* \"#utility.yul\":13409:13411   */\n      0x1f\n        /* \"#utility.yul\":13388:13403   */\n      dup5\n      add\n      not(0x1f)\n        /* \"#utility.yul\":13384:13413   */\n      and\n        /* \"#utility.yul\":13415:13419   */\n      0x20\n        /* \"#utility.yul\":13380:13420   */\n      add\n        /* \"#utility.yul\":13364:13421   */\n      tag_438\n      jump\t// in\n    tag_556:\n        /* \"#utility.yul\":13355:13421   */\n      swap1\n      pop\n        /* \"#utility.yul\":13444:13450   */\n      dup3\n        /* \"#utility.yul\":13437:13442   */\n      dup2\n        /* \"#utility.yul\":13430:13451   */\n      mstore\n        /* \"#utility.yul\":13484:13487   */\n      dup4\n        /* \"#utility.yul\":13475:13481   */\n      dup4\n        /* \"#utility.yul\":13470:13473   */\n      dup4\n        /* \"#utility.yul\":13466:13482   */\n      add\n        /* \"#utility.yul\":13463:13488   */\n      gt\n        /* \"#utility.yul\":13460:13505   */\n      iszero\n      tag_557\n      jumpi\n        /* \"#utility.yul\":13501:13502   */\n      0x00\n        /* \"#utility.yul\":13498:13499   */\n      dup1\n        /* \"#utility.yul\":13491:13503   */\n      revert\n        /* \"#utility.yul\":13460:13505   */\n    tag_557:\n        /* \"#utility.yul\":13514:13579   */\n      tag_431\n        /* \"#utility.yul\":13572:13578   */\n      dup4\n        /* \"#utility.yul\":13565:13569   */\n      0x20\n        /* \"#utility.yul\":13558:13563   */\n      dup4\n        /* \"#utility.yul\":13554:13570   */\n      add\n        /* \"#utility.yul\":13549:13552   */\n      dup5\n        /* \"#utility.yul\":13514:13579   */\n      tag_440\n      jump\t// in\n        /* \"#utility.yul\":13590:13825   */\n    tag_442:\n        /* \"#utility.yul\":13643:13648   */\n      0x00\n        /* \"#utility.yul\":13696:13699   */\n      dup3\n        /* \"#utility.yul\":13689:13693   */\n      0x1f\n        /* \"#utility.yul\":13681:13687   */\n      dup4\n        /* \"#utility.yul\":13677:13694   */\n      add\n        /* \"#utility.yul\":13673:13700   */\n      slt\n        /* \"#utility.yul\":13663:13718   */\n      tag_560\n      jumpi\n        /* \"#utility.yul\":13714:13715   */\n      0x00\n        /* \"#utility.yul\":13711:13712   */\n      dup1\n        /* \"#utility.yul\":13704:13716   */\n      revert\n        /* \"#utility.yul\":13663:13718   */\n    tag_560:\n        /* \"#utility.yul\":13736:13819   */\n      tag_431\n        /* \"#utility.yul\":13815:13818   */\n      dup4\n        /* \"#utility.yul\":13806:13812   */\n      dup4\n        /* \"#utility.yul\":13800:13813   */\n      mload\n        /* \"#utility.yul\":13793:13797   */\n      0x20\n        /* \"#utility.yul\":13785:13791   */\n      dup6\n        /* \"#utility.yul\":13781:13798   */\n      add\n        /* \"#utility.yul\":13736:13819   */\n      tag_441\n      jump\t// in\n        /* \"#utility.yul\":13830:14966   */\n    tag_309:\n        /* \"#utility.yul\":13973:13979   */\n      0x00\n        /* \"#utility.yul\":13981:13987   */\n      dup1\n        /* \"#utility.yul\":13989:13995   */\n      0x00\n        /* \"#utility.yul\":13997:14003   */\n      dup1\n        /* \"#utility.yul\":14005:14011   */\n      0x00\n        /* \"#utility.yul\":14013:14019   */\n      dup1\n        /* \"#utility.yul\":14066:14069   */\n      0xc0\n        /* \"#utility.yul\":14054:14063   */\n      dup8\n        /* \"#utility.yul\":14045:14052   */\n      dup10\n        /* \"#utility.yul\":14041:14064   */\n      sub\n        /* \"#utility.yul\":14037:14070   */\n      slt\n        /* \"#utility.yul\":14034:14087   */\n      iszero\n      tag_563\n      jumpi\n        /* \"#utility.yul\":14083:14084   */\n      0x00\n        /* \"#utility.yul\":14080:14081   */\n      dup1\n        /* \"#utility.yul\":14073:14085   */\n      revert\n        /* \"#utility.yul\":14034:14087   */\n    tag_563:\n        /* \"#utility.yul\":14112:14121   */\n      dup7\n        /* \"#utility.yul\":14106:14122   */\n      mload\n        /* \"#utility.yul\":14096:14122   */\n      swap6\n      pop\n        /* \"#utility.yul\":14162:14164   */\n      0x20\n        /* \"#utility.yul\":14151:14160   */\n      dup8\n        /* \"#utility.yul\":14147:14165   */\n      add\n        /* \"#utility.yul\":14141:14166   */\n      mload\n        /* \"#utility.yul\":14131:14166   */\n      swap5\n      pop\n        /* \"#utility.yul\":14209:14211   */\n      0x40\n        /* \"#utility.yul\":14198:14207   */\n      dup8\n        /* \"#utility.yul\":14194:14212   */\n      add\n        /* \"#utility.yul\":14188:14213   */\n      mload\n        /* \"#utility.yul\":14222:14253   */\n      tag_564\n        /* \"#utility.yul\":14247:14252   */\n      dup2\n        /* \"#utility.yul\":14222:14253   */\n      tag_434\n      jump\t// in\n    tag_564:\n        /* \"#utility.yul\":14321:14323   */\n      0x60\n        /* \"#utility.yul\":14306:14324   */\n      dup9\n      add\n        /* \"#utility.yul\":14300:14325   */\n      mload\n        /* \"#utility.yul\":14272:14277   */\n      swap1\n      swap5\n      pop\n        /* \"#utility.yul\":14344:14362   */\n      0xffffffffffffffff\n        /* \"#utility.yul\":14374:14388   */\n      dup1\n      dup3\n      gt\n        /* \"#utility.yul\":14371:14405   */\n      iszero\n      tag_565\n      jumpi\n        /* \"#utility.yul\":14401:14402   */\n      0x00\n        /* \"#utility.yul\":14398:14399   */\n      dup1\n        /* \"#utility.yul\":14391:14403   */\n      revert\n        /* \"#utility.yul\":14371:14405   */\n    tag_565:\n        /* \"#utility.yul\":14424:14484   */\n      tag_566\n        /* \"#utility.yul\":14476:14483   */\n      dup11\n        /* \"#utility.yul\":14467:14473   */\n      dup4\n        /* \"#utility.yul\":14456:14465   */\n      dup12\n        /* \"#utility.yul\":14452:14474   */\n      add\n        /* \"#utility.yul\":14424:14484   */\n      tag_442\n      jump\t// in\n    tag_566:\n        /* \"#utility.yul\":14414:14484   */\n      swap5\n      pop\n        /* \"#utility.yul\":14530:14533   */\n      0x80\n        /* \"#utility.yul\":14519:14528   */\n      dup10\n        /* \"#utility.yul\":14515:14534   */\n      add\n        /* \"#utility.yul\":14509:14535   */\n      mload\n        /* \"#utility.yul\":14493:14535   */\n      swap2\n      pop\n        /* \"#utility.yul\":14560:14562   */\n      dup1\n        /* \"#utility.yul\":14550:14558   */\n      dup3\n        /* \"#utility.yul\":14547:14563   */\n      gt\n        /* \"#utility.yul\":14544:14580   */\n      iszero\n      tag_567\n      jumpi\n        /* \"#utility.yul\":14576:14577   */\n      0x00\n        /* \"#utility.yul\":14573:14574   */\n      dup1\n        /* \"#utility.yul\":14566:14578   */\n      revert\n        /* \"#utility.yul\":14544:14580   */\n    tag_567:\n        /* \"#utility.yul\":14599:14661   */\n      tag_568\n        /* \"#utility.yul\":14653:14660   */\n      dup11\n        /* \"#utility.yul\":14642:14650   */\n      dup4\n        /* \"#utility.yul\":14631:14640   */\n      dup12\n        /* \"#utility.yul\":14627:14651   */\n      add\n        /* \"#utility.yul\":14599:14661   */\n      tag_442\n      jump\t// in\n    tag_568:\n        /* \"#utility.yul\":14589:14661   */\n      swap4\n      pop\n        /* \"#utility.yul\":14707:14710   */\n      0xa0\n        /* \"#utility.yul\":14696:14705   */\n      dup10\n        /* \"#utility.yul\":14692:14711   */\n      add\n        /* \"#utility.yul\":14686:14712   */\n      mload\n        /* \"#utility.yul\":14670:14712   */\n      swap2\n      pop\n        /* \"#utility.yul\":14737:14739   */\n      dup1\n        /* \"#utility.yul\":14727:14735   */\n      dup3\n        /* \"#utility.yul\":14724:14740   */\n      gt\n        /* \"#utility.yul\":14721:14757   */\n      iszero\n      tag_569\n      jumpi\n        /* \"#utility.yul\":14753:14754   */\n      0x00\n        /* \"#utility.yul\":14750:14751   */\n      dup1\n        /* \"#utility.yul\":14743:14755   */\n      revert\n        /* \"#utility.yul\":14721:14757   */\n    tag_569:\n      pop\n        /* \"#utility.yul\":14776:14800   */\n      dup8\n      add\n        /* \"#utility.yul\":14831:14835   */\n      0x1f\n        /* \"#utility.yul\":14823:14836   */\n      dup2\n      add\n        /* \"#utility.yul\":14819:14846   */\n      dup10\n      sgt\n        /* \"#utility.yul\":14809:14864   */\n      tag_570\n      jumpi\n        /* \"#utility.yul\":14860:14861   */\n      0x00\n        /* \"#utility.yul\":14857:14858   */\n      dup1\n        /* \"#utility.yul\":14850:14862   */\n      revert\n        /* \"#utility.yul\":14809:14864   */\n    tag_570:\n        /* \"#utility.yul\":14883:14960   */\n      tag_571\n        /* \"#utility.yul\":14952:14959   */\n      dup10\n        /* \"#utility.yul\":14947:14949   */\n      dup3\n        /* \"#utility.yul\":14941:14950   */\n      mload\n        /* \"#utility.yul\":14936:14938   */\n      0x20\n        /* \"#utility.yul\":14932:14934   */\n      dup5\n        /* \"#utility.yul\":14928:14939   */\n      add\n        /* \"#utility.yul\":14883:14960   */\n      tag_441\n      jump\t// in\n    tag_571:\n        /* \"#utility.yul\":14873:14960   */\n      swap2\n      pop\n      pop\n        /* \"#utility.yul\":13830:14966   */\n      swap3\n      swap6\n      pop\n      swap3\n      swap6\n      pop\n      swap3\n      swap6\n      jump\t// out\n        /* \"#utility.yul\":14971:15241   */\n    tag_443:\n        /* \"#utility.yul\":15012:15015   */\n      0x00\n        /* \"#utility.yul\":15050:15055   */\n      dup2\n        /* \"#utility.yul\":15044:15056   */\n      mload\n        /* \"#utility.yul\":15077:15083   */\n      dup1\n        /* \"#utility.yul\":15072:15075   */\n      dup5\n        /* \"#utility.yul\":15065:15084   */\n      mstore\n        /* \"#utility.yul\":15093:15169   */\n      tag_573\n        /* \"#utility.yul\":15162:15168   */\n      dup2\n        /* \"#utility.yul\":15155:15159   */\n      0x20\n        /* \"#utility.yul\":15150:15153   */\n      dup7\n        /* \"#utility.yul\":15146:15160   */\n      add\n        /* \"#utility.yul\":15139:15143   */\n      0x20\n        /* \"#utility.yul\":15132:15137   */\n      dup7\n        /* \"#utility.yul\":15128:15144   */\n      add\n        /* \"#utility.yul\":15093:15169   */\n      tag_440\n      jump\t// in\n    tag_573:\n        /* \"#utility.yul\":15223:15225   */\n      0x1f\n        /* \"#utility.yul\":15202:15217   */\n      add\n      not(0x1f)\n        /* \"#utility.yul\":15198:15227   */\n      and\n        /* \"#utility.yul\":15189:15228   */\n      swap3\n      swap1\n      swap3\n      add\n        /* \"#utility.yul\":15230:15234   */\n      0x20\n        /* \"#utility.yul\":15185:15235   */\n      add\n      swap3\n        /* \"#utility.yul\":14971:15241   */\n      swap2\n      pop\n      pop\n      jump\t// out\n        /* \"#utility.yul\":15246:15810   */\n    tag_317:\n        /* \"#utility.yul\":15541:15542   */\n      0x01\n        /* \"#utility.yul\":15537:15538   */\n      dup1\n        /* \"#utility.yul\":15532:15535   */\n      0xa0\n        /* \"#utility.yul\":15528:15539   */\n      shl\n        /* \"#utility.yul\":15524:15543   */\n      sub\n        /* \"#utility.yul\":15516:15522   */\n      dup6\n        /* \"#utility.yul\":15512:15544   */\n      and\n        /* \"#utility.yul\":15501:15510   */\n      dup2\n        /* \"#utility.yul\":15494:15545   */\n      mstore\n        /* \"#utility.yul\":15581:15587   */\n      dup4\n        /* \"#utility.yul\":15576:15578   */\n      0x20\n        /* \"#utility.yul\":15565:15574   */\n      dup3\n        /* \"#utility.yul\":15561:15579   */\n      add\n        /* \"#utility.yul\":15554:15588   */\n      mstore\n        /* \"#utility.yul\":15624:15627   */\n      0x80\n        /* \"#utility.yul\":15619:15621   */\n      0x40\n        /* \"#utility.yul\":15608:15617   */\n      dup3\n        /* \"#utility.yul\":15604:15622   */\n      add\n        /* \"#utility.yul\":15597:15628   */\n      mstore\n        /* \"#utility.yul\":15475:15479   */\n      0x00\n        /* \"#utility.yul\":15651:15696   */\n      tag_575\n        /* \"#utility.yul\":15691:15694   */\n      0x80\n        /* \"#utility.yul\":15680:15689   */\n      dup4\n        /* \"#utility.yul\":15676:15695   */\n      add\n        /* \"#utility.yul\":15668:15674   */\n      dup6\n        /* \"#utility.yul\":15651:15696   */\n      tag_443\n      jump\t// in\n    tag_575:\n        /* \"#utility.yul\":15744:15753   */\n      dup3\n        /* \"#utility.yul\":15736:15742   */\n      dup2\n        /* \"#utility.yul\":15732:15754   */\n      sub\n        /* \"#utility.yul\":15727:15729   */\n      0x60\n        /* \"#utility.yul\":15716:15725   */\n      dup5\n        /* \"#utility.yul\":15712:15730   */\n      add\n        /* \"#utility.yul\":15705:15755   */\n      mstore\n        /* \"#utility.yul\":15772:15804   */\n      tag_535\n        /* \"#utility.yul\":15797:15803   */\n      dup2\n        /* \"#utility.yul\":15789:15795   */\n      dup6\n        /* \"#utility.yul\":15772:15804   */\n      tag_443\n      jump\t// in\n        /* \"#utility.yul\":15815:16092   */\n    tag_320:\n        /* \"#utility.yul\":15882:15888   */\n      0x00\n        /* \"#utility.yul\":15935:15937   */\n      0x20\n        /* \"#utility.yul\":15923:15932   */\n      dup3\n        /* \"#utility.yul\":15914:15921   */\n      dup5\n        /* \"#utility.yul\":15910:15933   */\n      sub\n        /* \"#utility.yul\":15906:15938   */\n      slt\n        /* \"#utility.yul\":15903:15955   */\n      iszero\n      tag_578\n      jumpi\n        /* \"#utility.yul\":15951:15952   */\n      0x00\n        /* \"#utility.yul\":15948:15949   */\n      dup1\n        /* \"#utility.yul\":15941:15953   */\n      revert\n        /* \"#utility.yul\":15903:15955   */\n    tag_578:\n        /* \"#utility.yul\":15983:15992   */\n      dup2\n        /* \"#utility.yul\":15977:15993   */\n      mload\n        /* \"#utility.yul\":16036:16041   */\n      dup1\n        /* \"#utility.yul\":16029:16042   */\n      iszero\n        /* \"#utility.yul\":16022:16043   */\n      iszero\n        /* \"#utility.yul\":16015:16020   */\n      dup2\n        /* \"#utility.yul\":16012:16044   */\n      eq\n        /* \"#utility.yul\":16002:16062   */\n      tag_431\n      jumpi\n        /* \"#utility.yul\":16058:16059   */\n      0x00\n        /* \"#utility.yul\":16055:16056   */\n      dup1\n        /* \"#utility.yul\":16048:16060   */\n      revert\n        /* \"#utility.yul\":16097:16225   */\n    tag_326:\n        /* \"#utility.yul\":16164:16173   */\n      dup2\n      dup2\n      sub\n        /* \"#utility.yul\":16185:16196   */\n      dup2\n      dup2\n      gt\n        /* \"#utility.yul\":16182:16219   */\n      iszero\n      tag_147\n      jumpi\n        /* \"#utility.yul\":16199:16217   */\n      tag_147\n      tag_437\n      jump\t// in\n        /* \"#utility.yul\":16230:16498   */\n    tag_351:\n        /* \"#utility.yul\":16317:16323   */\n      0x00\n        /* \"#utility.yul\":16370:16372   */\n      0x20\n        /* \"#utility.yul\":16358:16367   */\n      dup3\n        /* \"#utility.yul\":16349:16356   */\n      dup5\n        /* \"#utility.yul\":16345:16368   */\n      sub\n        /* \"#utility.yul\":16341:16373   */\n      slt\n        /* \"#utility.yul\":16338:16390   */\n      iszero\n      tag_584\n      jumpi\n        /* \"#utility.yul\":16386:16387   */\n      0x00\n        /* \"#utility.yul\":16383:16384   */\n      dup1\n        /* \"#utility.yul\":16376:16388   */\n      revert\n        /* \"#utility.yul\":16338:16390   */\n    tag_584:\n        /* \"#utility.yul\":16418:16427   */\n      dup2\n        /* \"#utility.yul\":16412:16428   */\n      mload\n        /* \"#utility.yul\":16437:16468   */\n      tag_431\n        /* \"#utility.yul\":16462:16467   */\n      dup2\n        /* \"#utility.yul\":16437:16468   */\n      tag_434\n      jump\t// in\n        /* \"#utility.yul\":16910:17317   */\n    tag_365:\n        /* \"#utility.yul\":17112:17114   */\n      0x20\n        /* \"#utility.yul\":17094:17115   */\n      dup1\n      dup3\n      mstore\n        /* \"#utility.yul\":17151:17153   */\n      0x2b\n        /* \"#utility.yul\":17131:17149   */\n      swap1\n      dup3\n      add\n        /* \"#utility.yul\":17124:17154   */\n      mstore\n        /* \"#utility.yul\":17190:17224   */\n      0x496e697469616c697a61626c653a20636f6e7472616374206973206e6f742069\n        /* \"#utility.yul\":17185:17187   */\n      0x40\n        /* \"#utility.yul\":17170:17188   */\n      dup3\n      add\n        /* \"#utility.yul\":17163:17225   */\n      mstore\n      shl(0xa8, 0x6e697469616c697a696e67)\n        /* \"#utility.yul\":17256:17258   */\n      0x60\n        /* \"#utility.yul\":17241:17259   */\n      dup3\n      add\n        /* \"#utility.yul\":17234:17275   */\n      mstore\n        /* \"#utility.yul\":17307:17310   */\n      0x80\n        /* \"#utility.yul\":17292:17311   */\n      add\n      swap1\n        /* \"#utility.yul\":16910:17317   */\n      jump\t// out\n        /* \"#utility.yul\":17683:18495   */\n    tag_403:\n        /* \"#utility.yul\":18094:18119   */\n      0x416363657373436f6e74726f6c3a206163636f756e7420000000000000000000\n        /* \"#utility.yul\":18089:18092   */\n      dup2\n        /* \"#utility.yul\":18082:18120   */\n      mstore\n        /* \"#utility.yul\":18064:18067   */\n      0x00\n        /* \"#utility.yul\":18149:18155   */\n      dup4\n        /* \"#utility.yul\":18143:18156   */\n      mload\n        /* \"#utility.yul\":18165:18240   */\n      tag_590\n        /* \"#utility.yul\":18233:18239   */\n      dup2\n        /* \"#utility.yul\":18228:18230   */\n      0x17\n        /* \"#utility.yul\":18223:18226   */\n      dup6\n        /* \"#utility.yul\":18219:18231   */\n      add\n        /* \"#utility.yul\":18212:18216   */\n      0x20\n        /* \"#utility.yul\":18204:18210   */\n      dup9\n        /* \"#utility.yul\":18200:18217   */\n      add\n        /* \"#utility.yul\":18165:18240   */\n      tag_440\n      jump\t// in\n    tag_590:\n      shl(0x7d, 0x01034b99036b4b9b9b4b733903937b6329)\n        /* \"#utility.yul\":18299:18301   */\n      0x17\n        /* \"#utility.yul\":18259:18275   */\n      swap2\n      dup5\n      add\n        /* \"#utility.yul\":18291:18302   */\n      swap2\n      dup3\n      add\n        /* \"#utility.yul\":18284:18324   */\n      mstore\n        /* \"#utility.yul\":18349:18362   */\n      dup4\n      mload\n        /* \"#utility.yul\":18371:18447   */\n      tag_591\n        /* \"#utility.yul\":18349:18362   */\n      dup2\n        /* \"#utility.yul\":18433:18435   */\n      0x28\n        /* \"#utility.yul\":18425:18436   */\n      dup5\n      add\n        /* \"#utility.yul\":18418:18422   */\n      0x20\n        /* \"#utility.yul\":18406:18423   */\n      dup9\n      add\n        /* \"#utility.yul\":18371:18447   */\n      tag_440\n      jump\t// in\n    tag_591:\n        /* \"#utility.yul\":18467:18484   */\n      add\n        /* \"#utility.yul\":18486:18488   */\n      0x28\n        /* \"#utility.yul\":18463:18489   */\n      add\n      swap5\n        /* \"#utility.yul\":17683:18495   */\n      swap4\n      pop\n      pop\n      pop\n      pop\n      jump\t// out\n        /* \"#utility.yul\":18500:18719   */\n    tag_405:\n        /* \"#utility.yul\":18649:18651   */\n      0x20\n        /* \"#utility.yul\":18638:18647   */\n      dup2\n        /* \"#utility.yul\":18631:18652   */\n      mstore\n        /* \"#utility.yul\":18612:18616   */\n      0x00\n        /* \"#utility.yul\":18669:18713   */\n      tag_431\n        /* \"#utility.yul\":18709:18711   */\n      0x20\n        /* \"#utility.yul\":18698:18707   */\n      dup4\n        /* \"#utility.yul\":18694:18712   */\n      add\n        /* \"#utility.yul\":18686:18692   */\n      dup5\n        /* \"#utility.yul\":18669:18713   */\n      tag_443\n      jump\t// in\n        /* \"#utility.yul\":18724:18892   */\n    tag_410:\n        /* \"#utility.yul\":18797:18806   */\n      dup1\n      dup3\n      mul\n        /* \"#utility.yul\":18828:18837   */\n      dup2\n      iszero\n        /* \"#utility.yul\":18845:18860   */\n      dup3\n      dup3\n      div\n        /* \"#utility.yul\":18839:18861   */\n      dup5\n      eq\n        /* \"#utility.yul\":18825:18862   */\n      or\n        /* \"#utility.yul\":18815:18886   */\n      tag_147\n      jumpi\n        /* \"#utility.yul\":18866:18884   */\n      tag_147\n      tag_437\n      jump\t// in\n        /* \"#utility.yul\":18897:19022   */\n    tag_412:\n        /* \"#utility.yul\":18962:18971   */\n      dup1\n      dup3\n      add\n        /* \"#utility.yul\":18983:18993   */\n      dup1\n      dup3\n      gt\n        /* \"#utility.yul\":18980:19016   */\n      iszero\n      tag_147\n      jumpi\n        /* \"#utility.yul\":18996:19014   */\n      tag_147\n      tag_437\n      jump\t// in\n        /* \"#utility.yul\":19027:19163   */\n    tag_430:\n        /* \"#utility.yul\":19066:19069   */\n      0x00\n        /* \"#utility.yul\":19094:19099   */\n      dup2\n        /* \"#utility.yul\":19084:19123   */\n      tag_602\n      jumpi\n        /* \"#utility.yul\":19103:19121   */\n      tag_602\n      tag_437\n      jump\t// in\n    tag_602:\n      pop\n      not(0x00)\n        /* \"#utility.yul\":19139:19157   */\n      add\n      swap1\n        /* \"#utility.yul\":19027:19163   */\n      jump\t// out\n    stop\n    data_48848f6f4af5ff2a90f75345111ffab654da14e01d0d715638da4379c8c19ae3 b19546dff01e856fb3f010c267a7b1c60363cf8a4664e21cc89c26224620214e\n    data_83599f2fd2d7ecec31a0c854e1dfa0cd718f43d0f25b15e620b3800dba1a8107 cab5a0bfe0b79d2c4b1c2e02599fa044d115b7511f9659307cb4276950967709\n\n    auxdata: 0xa2646970667358221220e7a0b492083a7c3c8cdad88cf24513c6b5e8f4102c08e53ff65524bd979c216064736f6c63430008110033\n}\n",
				"bytecode": {
					"linkReferences": {},
					"object": "608060405234801561001057600080fd5b50611ee1806100206000396000f3fe608060405234801561001057600080fd5b50600436106101c45760003560e01c80637e42683b116100f9578063b9209e3311610097578063e744d78911610071578063e744d789146103d5578063f0eb5e54146103e8578063f11abfd8146103fb578063f2fde38b1461040c57600080fd5b8063b9209e331461039a578063d547741f146103ad578063e58378bb146103c057600080fd5b806391d14854116100d357806391d148541461035b578063a217fddf1461036e578063a8d29d1d14610376578063b4f3fcb71461038957600080fd5b80637e42683b146103115780638da5cb5b146103375780638e098ca11461034857600080fd5b80633b239a7f116101665780635dbe47e8116101405780635dbe47e8146102d0578063653dc9f1146102e3578063670af6a9146102f6578063715018a61461030957600080fd5b80633b239a7f146102855780633b3e12f414610298578063454a03e0146102bd57600080fd5b8063248a9ca3116101a2578063248a9ca31461022957806326d941ae1461024c5780632f2ff15d1461025f57806336568abe1461027257600080fd5b806301ffc9a7146101c9578063184b9559146101f157806322459e1814610206575b600080fd5b6101dc6101d73660046116ba565b61041f565b60405190151581526020015b60405180910390f35b6102046101ff3660046116f9565b610456565b005b61021b600080516020611e8c83398151915281565b6040519081526020016101e8565b61021b610237366004611744565b60009081526065602052604090206001015490565b61020461025a36600461175d565b6106bb565b61020461026d36600461177a565b61071e565b61020461028036600461177a565b610748565b6102046102933660046117ba565b6107c6565b60c9546001600160a01b03165b6040516001600160a01b0390911681526020016101e8565b6102046102cb3660046117e8565b610886565b6101dc6102de36600461175d565b61094d565b6102046102f1366004611874565b610977565b61020461030436600461175d565b610a15565b610204610a78565b61032461031f36600461175d565b610a8c565b60405161ffff90911681526020016101e8565b6097546001600160a01b03166102a5565b61020461035636600461190e565b610afb565b6101dc61036936600461177a565b610bc5565b61021b600081565b61020461038436600461175d565b610bf0565b60ca546001600160a01b03166102a5565b6101dc6103a836600461175d565b610cb1565b6102046103bb36600461177a565b61113a565b61021b600080516020611e6c83398151915281565b6102046103e336600461175d565b61115f565b6102a56103f636600461175d565b6111c2565b60cb546001600160a01b03166102a5565b61020461041a36600461175d565b611231565b60006001600160e01b03198216637965db0b60e01b148061045057506301ffc9a760e01b6001600160e01b03198316145b92915050565b600054610100900460ff16158080156104765750600054600160ff909116105b806104905750303b158015610490575060005460ff166001145b6104f85760405162461bcd60e51b815260206004820152602e60248201527f496e697469616c697a61626c653a20636f6e747261637420697320616c72656160448201526d191e481a5b9a5d1a585b1a5e995960921b60648201526084015b60405180910390fd5b6000805460ff19166001179055801561051b576000805461ff0019166101001790555b6001600160a01b0384161580159061053b57506001600160a01b03831615155b801561054f57506001600160a01b03821615155b61059b5760405162461bcd60e51b815260206004820152601f60248201527f696e76616c696420617267756d656e74202d207a65726f20616464726573730060448201526064016104ef565b60c980546001600160a01b038086166001600160a01b0319928316811790935560ca805488831690841617905560cb8054918616919092161790556040517f7170bf15b246e880b2369cd7c67d057760d8a35149e8c64dde91efa22bcc76d090600090a26040516001600160a01b038516907f1b98cb79e6f73020175fe87333f1b91ad6a881519c0afe30340c2599b2b4bde090600090a26040516001600160a01b038316907f2fa8b95c1db7afe99e3398f3792f008135cedc1fa26b0bb2ecd2352cd166d53c90600090a261066f6112aa565b80156106b5576000805461ff0019169055604051600181527f7f26b83ff96e1f2b6a682f133852f6798a09c465da95921460cefb38474024989060200160405180910390a15b50505050565b600080516020611e6c8339815191526106d3816112d9565b60cb80546001600160a01b0319166001600160a01b0384169081179091556040517f2fa8b95c1db7afe99e3398f3792f008135cedc1fa26b0bb2ecd2352cd166d53c90600090a25050565b600082815260656020526040902060010154610739816112d9565b61074383836112e3565b505050565b6001600160a01b03811633146107b85760405162461bcd60e51b815260206004820152602f60248201527f416363657373436f6e74726f6c3a2063616e206f6e6c792072656e6f756e636560448201526e103937b632b9903337b91039b2b63360891b60648201526084016104ef565b6107c28282611369565b5050565b600080516020611e8c8339815191526107de816112d9565b60cb54604051639f3418d560e01b81526001600160a01b03858116600483015261ffff8516602483015290911690639f3418d590604401600060405180830381600087803b15801561082f57600080fd5b505af1158015610843573d6000803e3d6000fd5b505060405161ffff851692506001600160a01b03861691507f04ed3b726495c2dca1ff1215d9ca54e1a4030abb5e82b0f6ce55702416cee85390600090a3505050565b600080516020611e8c83398151915261089e816112d9565b60cb5460405163a53410dd60e01b81526001600160a01b038681166004830152858116602483015261ffff851660448301529091169063a53410dd90606401600060405180830381600087803b1580156108f757600080fd5b505af115801561090b573d6000803e3d6000fd5b50506040516001600160a01b038087169350871691507f6ae73635c50d24a45af6fbd5e016ac4bed179addbc8bf24e04ff0fcc6d33af1990600090a350505050565b600080610959836111c2565b6001600160a01b03160361096f57506000919050565b506001919050565b60005b85811015610a0c576109fa8787838181106109975761099761193c565b90506020020160208101906109ac919061175d565b8686848181106109be576109be61193c565b90506020020160208101906109d3919061175d565b8585858181106109e5576109e561193c565b90506020020160208101906102cb9190611952565b80610a0481611985565b91505061097a565b50505050505050565b600080516020611e6c833981519152610a2d816112d9565b60c980546001600160a01b0319166001600160a01b0384169081179091556040517f7170bf15b246e880b2369cd7c67d057760d8a35149e8c64dde91efa22bcc76d090600090a25050565b610a806113d0565b610a8a600061142a565b565b60cb54604051631c9f84ef60e21b81526001600160a01b038381166004830152600092169063727e13bc90602401602060405180830381865afa158015610ad7573d6000803e3d6000fd5b505050506040513d601f19601f82011682018060405250810190610450919061199e565b600080516020611e8c833981519152610b13816112d9565b6000610b1e846111c2565b60cb54604051637402e7c360e11b81526001600160a01b038781166004830152868116602483015292935091169063e805cf8690604401600060405180830381600087803b158015610b6f57600080fd5b505af1158015610b83573d6000803e3d6000fd5b50506040516001600160a01b038087169350841691507fe98082932c8056a0f514da9104e4a66bc2cbaef102ad59d90c4b24220ebf601090600090a350505050565b60009182526065602090815260408084206001600160a01b0393909316845291905290205460ff1690565b600080516020611e8c833981519152610c08816112d9565b6000610c13836111c2565b60cb5460405163cf191bcd60e01b81526001600160a01b03868116600483015292935091169063cf191bcd90602401600060405180830381600087803b158015610c5c57600080fd5b505af1158015610c70573d6000803e3d6000fd5b50506040516001600160a01b038085169350861691507f59d6590e225b81befe259af056324092801080acbb7feab310eb34678871f32790600090a3505050565b600080610cbd836111c2565b6001600160a01b031603610cd357506000919050565b60c954604080516337c2758160e21b815290516000926001600160a01b03169163df09d60491600480830192869291908290030181865afa158015610d1c573d6000803e3d6000fd5b505050506040513d6000823e601f3d908101601f19168201604052610d449190810190611a26565b90508051600003610d585750600192915050565b600080600060608060005b865181101561112b5760ca5487516000916001600160a01b0316906352c111d1908a9085908110610d9657610d9661193c565b60200260200101516040518263ffffffff1660e01b8152600401610dbc91815260200190565b600060405180830381865afa158015610dd9573d6000803e3d6000fd5b505050506040513d6000823e601f3d908101601f19168201604052610e019190810190611abc565b90508051600003610e1c575060009998505050505050505050565b6000815167ffffffffffffffff811115610e3857610e386119bb565b604051908082528060200260200182016040528015610e61578160200160208202803683370190505b50905060005b8251811015610f0e57828181518110610e8257610e8261193c565b60200260200101518a8581518110610e9c57610e9c61193c565b6020026020010151604051602001610ec99291906001600160a01b03929092168252602082015260400190565b60405160208183030381529060405280519060200120828281518110610ef157610ef161193c565b602090810291909101015280610f0681611985565b915050610e67565b5060005b815181101561111557610f248c6111c2565b6001600160a01b031663c9100bcb838381518110610f4457610f4461193c565b60200260200101516040518263ffffffff1660e01b8152600401610f6a91815260200190565b600060405180830381865afa158015610f87573d6000803e3d6000fd5b505050506040513d6000823e601f3d908101601f19168201604052610faf9190810190611bde565b508e51949d50929b50909950975095508a9085908110610fd157610fd161193c565b602002602001015189036110dd57866001600160a01b031663c0969a6e610ff78e6111c2565b8c87815181106110095761100961193c565b602002602001015189896040518563ffffffff1660e01b81526004016110329493929190611ccc565b602060405180830381865afa92505050801561106b575060408051601f3d908101601f1916820190925261106891810190611d05565b60015b61109a576001825161107d9190611d27565b8103611095575060009b9a5050505050505050505050565b611103565b80156110a557825191505b801580156110bf5750600183516110bc9190611d27565b82145b156110d7575060009c9b505050505050505050505050565b50611103565b600182516110eb9190611d27565b8103611103575060009b9a5050505050505050505050565b8061110d81611985565b915050610f12565b505050808061112390611985565b915050610d63565b50600198975050505050505050565b600082815260656020526040902060010154611155816112d9565b6107438383611369565b600080516020611e6c833981519152611177816112d9565b60ca80546001600160a01b0319166001600160a01b0384169081179091556040517f1b98cb79e6f73020175fe87333f1b91ad6a881519c0afe30340c2599b2b4bde090600090a25050565b60cb54604051637988d3a560e01b81526001600160a01b0383811660048301526000921690637988d3a590602401602060405180830381865afa15801561120d573d6000803e3d6000fd5b505050506040513d601f19601f820116820180604052508101906104509190611d3a565b6112396113d0565b6001600160a01b03811661129e5760405162461bcd60e51b815260206004820152602660248201527f4f776e61626c653a206e6577206f776e657220697320746865207a65726f206160448201526564647265737360d01b60648201526084016104ef565b6112a78161142a565b50565b600054610100900460ff166112d15760405162461bcd60e51b81526004016104ef90611d57565b610a8a61147c565b6112a781336114ac565b6112ed8282610bc5565b6107c25760008281526065602090815260408083206001600160a01b03851684529091529020805460ff191660011790556113253390565b6001600160a01b0316816001600160a01b0316837f2f8788117e7eff1d82e926ec794901d17c78024a50270940304540a733656f0d60405160405180910390a45050565b6113738282610bc5565b156107c25760008281526065602090815260408083206001600160a01b0385168085529252808320805460ff1916905551339285917ff6391f5c32d9c69d2a47ea670b442974b53935d1edc7fd64eb21e047a839171b9190a45050565b6097546001600160a01b03163314610a8a5760405162461bcd60e51b815260206004820181905260248201527f4f776e61626c653a2063616c6c6572206973206e6f7420746865206f776e657260448201526064016104ef565b609780546001600160a01b038381166001600160a01b0319831681179093556040519116919082907f8be0079c531659141344cd1fd0a4f28419497f9722a3daafe3b4186f6b6457e090600090a35050565b600054610100900460ff166114a35760405162461bcd60e51b81526004016104ef90611d57565b610a8a3361142a565b6114b68282610bc5565b6107c2576114c381611505565b6114ce836020611517565b6040516020016114df929190611da2565b60408051601f198184030181529082905262461bcd60e51b82526104ef91600401611e17565b60606104506001600160a01b03831660145b60606000611526836002611e2a565b611531906002611e41565b67ffffffffffffffff811115611549576115496119bb565b6040519080825280601f01601f191660200182016040528015611573576020820181803683370190505b509050600360fc1b8160008151811061158e5761158e61193c565b60200101906001600160f81b031916908160001a905350600f60fb1b816001815181106115bd576115bd61193c565b60200101906001600160f81b031916908160001a90535060006115e1846002611e2a565b6115ec906001611e41565b90505b6001811115611664576f181899199a1a9b1b9c1cb0b131b232b360811b85600f16601081106116205761162061193c565b1a60f81b8282815181106116365761163661193c565b60200101906001600160f81b031916908160001a90535060049490941c9361165d81611e54565b90506115ef565b5083156116b35760405162461bcd60e51b815260206004820181905260248201527f537472696e67733a20686578206c656e67746820696e73756666696369656e7460448201526064016104ef565b9392505050565b6000602082840312156116cc57600080fd5b81356001600160e01b0319811681146116b357600080fd5b6001600160a01b03811681146112a757600080fd5b60008060006060848603121561170e57600080fd5b8335611719816116e4565b92506020840135611729816116e4565b91506040840135611739816116e4565b809150509250925092565b60006020828403121561175657600080fd5b5035919050565b60006020828403121561176f57600080fd5b81356116b3816116e4565b6000806040838503121561178d57600080fd5b82359150602083013561179f816116e4565b809150509250929050565b61ffff811681146112a757600080fd5b600080604083850312156117cd57600080fd5b82356117d8816116e4565b9150602083013561179f816117aa565b6000806000606084860312156117fd57600080fd5b8335611808816116e4565b92506020840135611818816116e4565b91506040840135611739816117aa565b60008083601f84011261183a57600080fd5b50813567ffffffffffffffff81111561185257600080fd5b6020830191508360208260051b850101111561186d57600080fd5b9250929050565b6000806000806000806060878903121561188d57600080fd5b863567ffffffffffffffff808211156118a557600080fd5b6118b18a838b01611828565b909850965060208901359150808211156118ca57600080fd5b6118d68a838b01611828565b909650945060408901359150808211156118ef57600080fd5b506118fc89828a01611828565b979a9699509497509295939492505050565b6000806040838503121561192157600080fd5b823561192c816116e4565b9150602083013561179f816116e4565b634e487b7160e01b600052603260045260246000fd5b60006020828403121561196457600080fd5b81356116b3816117aa565b634e487b7160e01b600052601160045260246000fd5b6000600182016119975761199761196f565b5060010190565b6000602082840312156119b057600080fd5b81516116b3816117aa565b634e487b7160e01b600052604160045260246000fd5b604051601f8201601f1916810167ffffffffffffffff811182821017156119fa576119fa6119bb565b604052919050565b600067ffffffffffffffff821115611a1c57611a1c6119bb565b5060051b60200190565b60006020808385031215611a3957600080fd5b825167ffffffffffffffff811115611a5057600080fd5b8301601f81018513611a6157600080fd5b8051611a74611a6f82611a02565b6119d1565b81815260059190911b82018301908381019087831115611a9357600080fd5b928401925b82841015611ab157835182529284019290840190611a98565b979650505050505050565b60006020808385031215611acf57600080fd5b825167ffffffffffffffff811115611ae657600080fd5b8301601f81018513611af757600080fd5b8051611b05611a6f82611a02565b81815260059190911b82018301908381019087831115611b2457600080fd5b928401925b82841015611ab1578351611b3c816116e4565b82529284019290840190611b29565b60005b83811015611b66578181015183820152602001611b4e565b50506000910152565b600067ffffffffffffffff831115611b8957611b896119bb565b611b9c601f8401601f19166020016119d1565b9050828152838383011115611bb057600080fd5b6116b3836020830184611b4b565b600082601f830112611bcf57600080fd5b6116b383835160208501611b6f565b60008060008060008060c08789031215611bf757600080fd5b86519550602087015194506040870151611c10816116e4565b606088015190945067ffffffffffffffff80821115611c2e57600080fd5b611c3a8a838b01611bbe565b94506080890151915080821115611c5057600080fd5b611c5c8a838b01611bbe565b935060a0890151915080821115611c7257600080fd5b508701601f81018913611c8457600080fd5b611c9389825160208401611b6f565b9150509295509295509295565b60008151808452611cb8816020860160208601611b4b565b601f01601f19169290920160200192915050565b60018060a01b0385168152836020820152608060408201526000611cf36080830185611ca0565b8281036060840152611ab18185611ca0565b600060208284031215611d1757600080fd5b815180151581146116b357600080fd5b818103818111156104505761045061196f565b600060208284031215611d4c57600080fd5b81516116b3816116e4565b6020808252602b908201527f496e697469616c697a61626c653a20636f6e7472616374206973206e6f74206960408201526a6e697469616c697a696e6760a81b606082015260800190565b7f416363657373436f6e74726f6c3a206163636f756e7420000000000000000000815260008351611dda816017850160208801611b4b565b7001034b99036b4b9b9b4b733903937b6329607d1b6017918401918201528351611e0b816028840160208801611b4b565b01602801949350505050565b6020815260006116b36020830184611ca0565b80820281158282048414176104505761045061196f565b808201808211156104505761045061196f565b600081611e6357611e6361196f565b50600019019056feb19546dff01e856fb3f010c267a7b1c60363cf8a4664e21cc89c26224620214ecab5a0bfe0b79d2c4b1c2e02599fa044d115b7511f9659307cb4276950967709a2646970667358221220e7a0b492083a7c3c8cdad88cf24513c6b5e8f4102c08e53ff65524bd979c216064736f6c63430008110033",
					"opcodes": "PUSH1 0x80 PUSH1 0x40 MSTORE CALLVALUE DUP1 ISZERO PUSH2 0x10 JUMPI PUSH1 0x0 DUP1 REVERT JUMPDEST POP PUSH2 0x1EE1 DUP1 PUSH2 0x20 PUSH1 0x0 CODECOPY PUSH1 0x0 RETURN INVALID PUSH1 0x80 PUSH1 0x40 MSTORE CALLVALUE DUP1 ISZERO PUSH2 0x10 JUMPI PUSH1 0x0 DUP1 REVERT JUMPDEST POP PUSH1 0x4 CALLDATASIZE LT PUSH2 0x1C4 JUMPI PUSH1 0x0 CALLDATALOAD PUSH1 0xE0 SHR DUP1 PUSH4 0x7E42683B GT PUSH2 0xF9 JUMPI DUP1 PUSH4 0xB9209E33 GT PUSH2 0x97 JUMPI DUP1 PUSH4 0xE744D789 GT PUSH2 0x71 JUMPI DUP1 PUSH4 0xE744D789 EQ PUSH2 0x3D5 JUMPI DUP1 PUSH4 0xF0EB5E54 EQ PUSH2 0x3E8 JUMPI DUP1 PUSH4 0xF11ABFD8 EQ PUSH2 0x3FB JUMPI DUP1 PUSH4 0xF2FDE38B EQ PUSH2 0x40C JUMPI PUSH1 0x0 DUP1 REVERT JUMPDEST DUP1 PUSH4 0xB9209E33 EQ PUSH2 0x39A JUMPI DUP1 PUSH4 0xD547741F EQ PUSH2 0x3AD JUMPI DUP1 PUSH4 0xE58378BB EQ PUSH2 0x3C0 JUMPI PUSH1 0x0 DUP1 REVERT JUMPDEST DUP1 PUSH4 0x91D14854 GT PUSH2 0xD3 JUMPI DUP1 PUSH4 0x91D14854 EQ PUSH2 0x35B JUMPI DUP1 PUSH4 0xA217FDDF EQ PUSH2 0x36E JUMPI DUP1 PUSH4 0xA8D29D1D EQ PUSH2 0x376 JUMPI DUP1 PUSH4 0xB4F3FCB7 EQ PUSH2 0x389 JUMPI PUSH1 0x0 DUP1 REVERT JUMPDEST DUP1 PUSH4 0x7E42683B EQ PUSH2 0x311 JUMPI DUP1 PUSH4 0x8DA5CB5B EQ PUSH2 0x337 JUMPI DUP1 PUSH4 0x8E098CA1 EQ PUSH2 0x348 JUMPI PUSH1 0x0 DUP1 REVERT JUMPDEST DUP1 PUSH4 0x3B239A7F GT PUSH2 0x166 JUMPI DUP1 PUSH4 0x5DBE47E8 GT PUSH2 0x140 JUMPI DUP1 PUSH4 0x5DBE47E8 EQ PUSH2 0x2D0 JUMPI DUP1 PUSH4 0x653DC9F1 EQ PUSH2 0x2E3 JUMPI DUP1 PUSH4 0x670AF6A9 EQ PUSH2 0x2F6 JUMPI DUP1 PUSH4 0x715018A6 EQ PUSH2 0x309 JUMPI PUSH1 0x0 DUP1 REVERT JUMPDEST DUP1 PUSH4 0x3B239A7F EQ PUSH2 0x285 JUMPI DUP1 PUSH4 0x3B3E12F4 EQ PUSH2 0x298 JUMPI DUP1 PUSH4 0x454A03E0 EQ PUSH2 0x2BD JUMPI PUSH1 0x0 DUP1 REVERT JUMPDEST DUP1 PUSH4 0x248A9CA3 GT PUSH2 0x1A2 JUMPI DUP1 PUSH4 0x248A9CA3 EQ PUSH2 0x229 JUMPI DUP1 PUSH4 0x26D941AE EQ PUSH2 0x24C JUMPI DUP1 PUSH4 0x2F2FF15D EQ PUSH2 0x25F JUMPI DUP1 PUSH4 0x36568ABE EQ PUSH2 0x272 JUMPI PUSH1 0x0 DUP1 REVERT JUMPDEST DUP1 PUSH4 0x1FFC9A7 EQ PUSH2 0x1C9 JUMPI DUP1 PUSH4 0x184B9559 EQ PUSH2 0x1F1 JUMPI DUP1 PUSH4 0x22459E18 EQ PUSH2 0x206 JUMPI JUMPDEST PUSH1 0x0 DUP1 REVERT JUMPDEST PUSH2 0x1DC PUSH2 0x1D7 CALLDATASIZE PUSH1 0x4 PUSH2 0x16BA JUMP JUMPDEST PUSH2 0x41F JUMP JUMPDEST PUSH1 0x40 MLOAD SWAP1 ISZERO ISZERO DUP2 MSTORE PUSH1 0x20 ADD JUMPDEST PUSH1 0x40 MLOAD DUP1 SWAP2 SUB SWAP1 RETURN JUMPDEST PUSH2 0x204 PUSH2 0x1FF CALLDATASIZE PUSH1 0x4 PUSH2 0x16F9 JUMP JUMPDEST PUSH2 0x456 JUMP JUMPDEST STOP JUMPDEST PUSH2 0x21B PUSH1 0x0 DUP1 MLOAD PUSH1 0x20 PUSH2 0x1E8C DUP4 CODECOPY DUP2 MLOAD SWAP2 MSTORE DUP2 JUMP JUMPDEST PUSH1 0x40 MLOAD SWAP1 DUP2 MSTORE PUSH1 0x20 ADD PUSH2 0x1E8 JUMP JUMPDEST PUSH2 0x21B PUSH2 0x237 CALLDATASIZE PUSH1 0x4 PUSH2 0x1744 JUMP JUMPDEST PUSH1 0x0 SWAP1 DUP2 MSTORE PUSH1 0x65 PUSH1 0x20 MSTORE PUSH1 0x40 SWAP1 KECCAK256 PUSH1 0x1 ADD SLOAD SWAP1 JUMP JUMPDEST PUSH2 0x204 PUSH2 0x25A CALLDATASIZE PUSH1 0x4 PUSH2 0x175D JUMP JUMPDEST PUSH2 0x6BB JUMP JUMPDEST PUSH2 0x204 PUSH2 0x26D CALLDATASIZE PUSH1 0x4 PUSH2 0x177A JUMP JUMPDEST PUSH2 0x71E JUMP JUMPDEST PUSH2 0x204 PUSH2 0x280 CALLDATASIZE PUSH1 0x4 PUSH2 0x177A JUMP JUMPDEST PUSH2 0x748 JUMP JUMPDEST PUSH2 0x204 PUSH2 0x293 CALLDATASIZE PUSH1 0x4 PUSH2 0x17BA JUMP JUMPDEST PUSH2 0x7C6 JUMP JUMPDEST PUSH1 0xC9 SLOAD PUSH1 0x1 PUSH1 0x1 PUSH1 0xA0 SHL SUB AND JUMPDEST PUSH1 0x40 MLOAD PUSH1 0x1 PUSH1 0x1 PUSH1 0xA0 SHL SUB SWAP1 SWAP2 AND DUP2 MSTORE PUSH1 0x20 ADD PUSH2 0x1E8 JUMP JUMPDEST PUSH2 0x204 PUSH2 0x2CB CALLDATASIZE PUSH1 0x4 PUSH2 0x17E8 JUMP JUMPDEST PUSH2 0x886 JUMP JUMPDEST PUSH2 0x1DC PUSH2 0x2DE CALLDATASIZE PUSH1 0x4 PUSH2 0x175D JUMP JUMPDEST PUSH2 0x94D JUMP JUMPDEST PUSH2 0x204 PUSH2 0x2F1 CALLDATASIZE PUSH1 0x4 PUSH2 0x1874 JUMP JUMPDEST PUSH2 0x977 JUMP JUMPDEST PUSH2 0x204 PUSH2 0x304 CALLDATASIZE PUSH1 0x4 PUSH2 0x175D JUMP JUMPDEST PUSH2 0xA15 JUMP JUMPDEST PUSH2 0x204 PUSH2 0xA78 JUMP JUMPDEST PUSH2 0x324 PUSH2 0x31F CALLDATASIZE PUSH1 0x4 PUSH2 0x175D JUMP JUMPDEST PUSH2 0xA8C JUMP JUMPDEST PUSH1 0x40 MLOAD PUSH2 0xFFFF SWAP1 SWAP2 AND DUP2 MSTORE PUSH1 0x20 ADD PUSH2 0x1E8 JUMP JUMPDEST PUSH1 0x97 SLOAD PUSH1 0x1 PUSH1 0x1 PUSH1 0xA0 SHL SUB AND PUSH2 0x2A5 JUMP JUMPDEST PUSH2 0x204 PUSH2 0x356 CALLDATASIZE PUSH1 0x4 PUSH2 0x190E JUMP JUMPDEST PUSH2 0xAFB JUMP JUMPDEST PUSH2 0x1DC PUSH2 0x369 CALLDATASIZE PUSH1 0x4 PUSH2 0x177A JUMP JUMPDEST PUSH2 0xBC5 JUMP JUMPDEST PUSH2 0x21B PUSH1 0x0 DUP2 JUMP JUMPDEST PUSH2 0x204 PUSH2 0x384 CALLDATASIZE PUSH1 0x4 PUSH2 0x175D JUMP JUMPDEST PUSH2 0xBF0 JUMP JUMPDEST PUSH1 0xCA SLOAD PUSH1 0x1 PUSH1 0x1 PUSH1 0xA0 SHL SUB AND PUSH2 0x2A5 JUMP JUMPDEST PUSH2 0x1DC PUSH2 0x3A8 CALLDATASIZE PUSH1 0x4 PUSH2 0x175D JUMP JUMPDEST PUSH2 0xCB1 JUMP JUMPDEST PUSH2 0x204 PUSH2 0x3BB CALLDATASIZE PUSH1 0x4 PUSH2 0x177A JUMP JUMPDEST PUSH2 0x113A JUMP JUMPDEST PUSH2 0x21B PUSH1 0x0 DUP1 MLOAD PUSH1 0x20 PUSH2 0x1E6C DUP4 CODECOPY DUP2 MLOAD SWAP2 MSTORE DUP2 JUMP JUMPDEST PUSH2 0x204 PUSH2 0x3E3 CALLDATASIZE PUSH1 0x4 PUSH2 0x175D JUMP JUMPDEST PUSH2 0x115F JUMP JUMPDEST PUSH2 0x2A5 PUSH2 0x3F6 CALLDATASIZE PUSH1 0x4 PUSH2 0x175D JUMP JUMPDEST PUSH2 0x11C2 JUMP JUMPDEST PUSH1 0xCB SLOAD PUSH1 0x1 PUSH1 0x1 PUSH1 0xA0 SHL SUB AND PUSH2 0x2A5 JUMP JUMPDEST PUSH2 0x204 PUSH2 0x41A CALLDATASIZE PUSH1 0x4 PUSH2 0x175D JUMP JUMPDEST PUSH2 0x1231 JUMP JUMPDEST PUSH1 0x0 PUSH1 0x1 PUSH1 0x1 PUSH1 0xE0 SHL SUB NOT DUP3 AND PUSH4 0x7965DB0B PUSH1 0xE0 SHL EQ DUP1 PUSH2 0x450 JUMPI POP PUSH4 0x1FFC9A7 PUSH1 0xE0 SHL PUSH1 0x1 PUSH1 0x1 PUSH1 0xE0 SHL SUB NOT DUP4 AND EQ JUMPDEST SWAP3 SWAP2 POP POP JUMP JUMPDEST PUSH1 0x0 SLOAD PUSH2 0x100 SWAP1 DIV PUSH1 0xFF AND ISZERO DUP1 DUP1 ISZERO PUSH2 0x476 JUMPI POP PUSH1 0x0 SLOAD PUSH1 0x1 PUSH1 0xFF SWAP1 SWAP2 AND LT JUMPDEST DUP1 PUSH2 0x490 JUMPI POP ADDRESS EXTCODESIZE ISZERO DUP1 ISZERO PUSH2 0x490 JUMPI POP PUSH1 0x0 SLOAD PUSH1 0xFF AND PUSH1 0x1 EQ JUMPDEST PUSH2 0x4F8 JUMPI PUSH1 0x40 MLOAD PUSH3 0x461BCD PUSH1 0xE5 SHL DUP2 MSTORE PUSH1 0x20 PUSH1 0x4 DUP3 ADD MSTORE PUSH1 0x2E PUSH1 0x24 DUP3 ADD MSTORE PUSH32 0x496E697469616C697A61626C653A20636F6E747261637420697320616C726561 PUSH1 0x44 DUP3 ADD MSTORE PUSH14 0x191E481A5B9A5D1A585B1A5E9959 PUSH1 0x92 SHL PUSH1 0x64 DUP3 ADD MSTORE PUSH1 0x84 ADD JUMPDEST PUSH1 0x40 MLOAD DUP1 SWAP2 SUB SWAP1 REVERT JUMPDEST PUSH1 0x0 DUP1 SLOAD PUSH1 0xFF NOT AND PUSH1 0x1 OR SWAP1 SSTORE DUP1 ISZERO PUSH2 0x51B JUMPI PUSH1 0x0 DUP1 SLOAD PUSH2 0xFF00 NOT AND PUSH2 0x100 OR SWAP1 SSTORE JUMPDEST PUSH1 0x1 PUSH1 0x1 PUSH1 0xA0 SHL SUB DUP5 AND ISZERO DUP1 ISZERO SWAP1 PUSH2 0x53B JUMPI POP PUSH1 0x1 PUSH1 0x1 PUSH1 0xA0 SHL SUB DUP4 AND ISZERO ISZERO JUMPDEST DUP1 ISZERO PUSH2 0x54F JUMPI POP PUSH1 0x1 PUSH1 0x1 PUSH1 0xA0 SHL SUB DUP3 AND ISZERO ISZERO JUMPDEST PUSH2 0x59B JUMPI PUSH1 0x40 MLOAD PUSH3 0x461BCD PUSH1 0xE5 SHL DUP2 MSTORE PUSH1 0x20 PUSH1 0x4 DUP3 ADD MSTORE PUSH1 0x1F PUSH1 0x24 DUP3 ADD MSTORE PUSH32 0x696E76616C696420617267756D656E74202D207A65726F206164647265737300 PUSH1 0x44 DUP3 ADD MSTORE PUSH1 0x64 ADD PUSH2 0x4EF JUMP JUMPDEST PUSH1 0xC9 DUP1 SLOAD PUSH1 0x1 PUSH1 0x1 PUSH1 0xA0 SHL SUB DUP1 DUP7 AND PUSH1 0x1 PUSH1 0x1 PUSH1 0xA0 SHL SUB NOT SWAP3 DUP4 AND DUP2 OR SWAP1 SWAP4 SSTORE PUSH1 0xCA DUP1 SLOAD DUP9 DUP4 AND SWAP1 DUP5 AND OR SWAP1 SSTORE PUSH1 0xCB DUP1 SLOAD SWAP2 DUP7 AND SWAP2 SWAP1 SWAP3 AND OR SWAP1 SSTORE PUSH1 0x40 MLOAD PUSH32 0x7170BF15B246E880B2369CD7C67D057760D8A35149E8C64DDE91EFA22BCC76D0 SWAP1 PUSH1 0x0 SWAP1 LOG2 PUSH1 0x40 MLOAD PUSH1 0x1 PUSH1 0x1 PUSH1 0xA0 SHL SUB DUP6 AND SWAP1 PUSH32 0x1B98CB79E6F73020175FE87333F1B91AD6A881519C0AFE30340C2599B2B4BDE0 SWAP1 PUSH1 0x0 SWAP1 LOG2 PUSH1 0x40 MLOAD PUSH1 0x1 PUSH1 0x1 PUSH1 0xA0 SHL SUB DUP4 AND SWAP1 PUSH32 0x2FA8B95C1DB7AFE99E3398F3792F008135CEDC1FA26B0BB2ECD2352CD166D53C SWAP1 PUSH1 0x0 SWAP1 LOG2 PUSH2 0x66F PUSH2 0x12AA JUMP JUMPDEST DUP1 ISZERO PUSH2 0x6B5 JUMPI PUSH1 0x0 DUP1 SLOAD PUSH2 0xFF00 NOT AND SWAP1 SSTORE PUSH1 0x40 MLOAD PUSH1 0x1 DUP2 MSTORE PUSH32 0x7F26B83FF96E1F2B6A682F133852F6798A09C465DA95921460CEFB3847402498 SWAP1 PUSH1 0x20 ADD PUSH1 0x40 MLOAD DUP1 SWAP2 SUB SWAP1 LOG1 JUMPDEST POP POP POP POP JUMP JUMPDEST PUSH1 0x0 DUP1 MLOAD PUSH1 0x20 PUSH2 0x1E6C DUP4 CODECOPY DUP2 MLOAD SWAP2 MSTORE PUSH2 0x6D3 DUP2 PUSH2 0x12D9 JUMP JUMPDEST PUSH1 0xCB DUP1 SLOAD PUSH1 0x1 PUSH1 0x1 PUSH1 0xA0 SHL SUB NOT AND PUSH1 0x1 PUSH1 0x1 PUSH1 0xA0 SHL SUB DUP5 AND SWAP1 DUP2 OR SWAP1 SWAP2 SSTORE PUSH1 0x40 MLOAD PUSH32 0x2FA8B95C1DB7AFE99E3398F3792F008135CEDC1FA26B0BB2ECD2352CD166D53C SWAP1 PUSH1 0x0 SWAP1 LOG2 POP POP JUMP JUMPDEST PUSH1 0x0 DUP3 DUP2 MSTORE PUSH1 0x65 PUSH1 0x20 MSTORE PUSH1 0x40 SWAP1 KECCAK256 PUSH1 0x1 ADD SLOAD PUSH2 0x739 DUP2 PUSH2 0x12D9 JUMP JUMPDEST PUSH2 0x743 DUP4 DUP4 PUSH2 0x12E3 JUMP JUMPDEST POP POP POP JUMP JUMPDEST PUSH1 0x1 PUSH1 0x1 PUSH1 0xA0 SHL SUB DUP2 AND CALLER EQ PUSH2 0x7B8 JUMPI PUSH1 0x40 MLOAD PUSH3 0x461BCD PUSH1 0xE5 SHL DUP2 MSTORE PUSH1 0x20 PUSH1 0x4 DUP3 ADD MSTORE PUSH1 0x2F PUSH1 0x24 DUP3 ADD MSTORE PUSH32 0x416363657373436F6E74726F6C3A2063616E206F6E6C792072656E6F756E6365 PUSH1 0x44 DUP3 ADD MSTORE PUSH15 0x103937B632B9903337B91039B2B633 PUSH1 0x89 SHL PUSH1 0x64 DUP3 ADD MSTORE PUSH1 0x84 ADD PUSH2 0x4EF JUMP JUMPDEST PUSH2 0x7C2 DUP3 DUP3 PUSH2 0x1369 JUMP JUMPDEST POP POP JUMP JUMPDEST PUSH1 0x0 DUP1 MLOAD PUSH1 0x20 PUSH2 0x1E8C DUP4 CODECOPY DUP2 MLOAD SWAP2 MSTORE PUSH2 0x7DE DUP2 PUSH2 0x12D9 JUMP JUMPDEST PUSH1 0xCB SLOAD PUSH1 0x40 MLOAD PUSH4 0x9F3418D5 PUSH1 0xE0 SHL DUP2 MSTORE PUSH1 0x1 PUSH1 0x1 PUSH1 0xA0 SHL SUB DUP6 DUP2 AND PUSH1 0x4 DUP4 ADD MSTORE PUSH2 0xFFFF DUP6 AND PUSH1 0x24 DUP4 ADD MSTORE SWAP1 SWAP2 AND SWAP1 PUSH4 0x9F3418D5 SWAP1 PUSH1 0x44 ADD PUSH1 0x0 PUSH1 0x40 MLOAD DUP1 DUP4 SUB DUP2 PUSH1 0x0 DUP8 DUP1 EXTCODESIZE ISZERO DUP1 ISZERO PUSH2 0x82F JUMPI PUSH1 0x0 DUP1 REVERT JUMPDEST POP GAS CALL ISZERO DUP1 ISZERO PUSH2 0x843 JUMPI RETURNDATASIZE PUSH1 0x0 DUP1 RETURNDATACOPY RETURNDATASIZE PUSH1 0x0 REVERT JUMPDEST POP POP PUSH1 0x40 MLOAD PUSH2 0xFFFF DUP6 AND SWAP3 POP PUSH1 0x1 PUSH1 0x1 PUSH1 0xA0 SHL SUB DUP7 AND SWAP2 POP PUSH32 0x4ED3B726495C2DCA1FF1215D9CA54E1A4030ABB5E82B0F6CE55702416CEE853 SWAP1 PUSH1 0x0 SWAP1 LOG3 POP POP POP JUMP JUMPDEST PUSH1 0x0 DUP1 MLOAD PUSH1 0x20 PUSH2 0x1E8C DUP4 CODECOPY DUP2 MLOAD SWAP2 MSTORE PUSH2 0x89E DUP2 PUSH2 0x12D9 JUMP JUMPDEST PUSH1 0xCB SLOAD PUSH1 0x40 MLOAD PUSH4 0xA53410DD PUSH1 0xE0 SHL DUP2 MSTORE PUSH1 0x1 PUSH1 0x1 PUSH1 0xA0 SHL SUB DUP7 DUP2 AND PUSH1 0x4 DUP4 ADD MSTORE DUP6 DUP2 AND PUSH1 0x24 DUP4 ADD MSTORE PUSH2 0xFFFF DUP6 AND PUSH1 0x44 DUP4 ADD MSTORE SWAP1 SWAP2 AND SWAP1 PUSH4 0xA53410DD SWAP1 PUSH1 0x64 ADD PUSH1 0x0 PUSH1 0x40 MLOAD DUP1 DUP4 SUB DUP2 PUSH1 0x0 DUP8 DUP1 EXTCODESIZE ISZERO DUP1 ISZERO PUSH2 0x8F7 JUMPI PUSH1 0x0 DUP1 REVERT JUMPDEST POP GAS CALL ISZERO DUP1 ISZERO PUSH2 0x90B JUMPI RETURNDATASIZE PUSH1 0x0 DUP1 RETURNDATACOPY RETURNDATASIZE PUSH1 0x0 REVERT JUMPDEST POP POP PUSH1 0x40 MLOAD PUSH1 0x1 PUSH1 0x1 PUSH1 0xA0 SHL SUB DUP1 DUP8 AND SWAP4 POP DUP8 AND SWAP2 POP PUSH32 0x6AE73635C50D24A45AF6FBD5E016AC4BED179ADDBC8BF24E04FF0FCC6D33AF19 SWAP1 PUSH1 0x0 SWAP1 LOG3 POP POP POP POP JUMP JUMPDEST PUSH1 0x0 DUP1 PUSH2 0x959 DUP4 PUSH2 0x11C2 JUMP JUMPDEST PUSH1 0x1 PUSH1 0x1 PUSH1 0xA0 SHL SUB AND SUB PUSH2 0x96F JUMPI POP PUSH1 0x0 SWAP2 SWAP1 POP JUMP JUMPDEST POP PUSH1 0x1 SWAP2 SWAP1 POP JUMP JUMPDEST PUSH1 0x0 JUMPDEST DUP6 DUP2 LT ISZERO PUSH2 0xA0C JUMPI PUSH2 0x9FA DUP8 DUP8 DUP4 DUP2 DUP2 LT PUSH2 0x997 JUMPI PUSH2 0x997 PUSH2 0x193C JUMP JUMPDEST SWAP1 POP PUSH1 0x20 MUL ADD PUSH1 0x20 DUP2 ADD SWAP1 PUSH2 0x9AC SWAP2 SWAP1 PUSH2 0x175D JUMP JUMPDEST DUP7 DUP7 DUP5 DUP2 DUP2 LT PUSH2 0x9BE JUMPI PUSH2 0x9BE PUSH2 0x193C JUMP JUMPDEST SWAP1 POP PUSH1 0x20 MUL ADD PUSH1 0x20 DUP2 ADD SWAP1 PUSH2 0x9D3 SWAP2 SWAP1 PUSH2 0x175D JUMP JUMPDEST DUP6 DUP6 DUP6 DUP2 DUP2 LT PUSH2 0x9E5 JUMPI PUSH2 0x9E5 PUSH2 0x193C JUMP JUMPDEST SWAP1 POP PUSH1 0x20 MUL ADD PUSH1 0x20 DUP2 ADD SWAP1 PUSH2 0x2CB SWAP2 SWAP1 PUSH2 0x1952 JUMP JUMPDEST DUP1 PUSH2 0xA04 DUP2 PUSH2 0x1985 JUMP JUMPDEST SWAP2 POP POP PUSH2 0x97A JUMP JUMPDEST POP POP POP POP POP POP POP JUMP JUMPDEST PUSH1 0x0 DUP1 MLOAD PUSH1 0x20 PUSH2 0x1E6C DUP4 CODECOPY DUP2 MLOAD SWAP2 MSTORE PUSH2 0xA2D DUP2 PUSH2 0x12D9 JUMP JUMPDEST PUSH1 0xC9 DUP1 SLOAD PUSH1 0x1 PUSH1 0x1 PUSH1 0xA0 SHL SUB NOT AND PUSH1 0x1 PUSH1 0x1 PUSH1 0xA0 SHL SUB DUP5 AND SWAP1 DUP2 OR SWAP1 SWAP2 SSTORE PUSH1 0x40 MLOAD PUSH32 0x7170BF15B246E880B2369CD7C67D057760D8A35149E8C64DDE91EFA22BCC76D0 SWAP1 PUSH1 0x0 SWAP1 LOG2 POP POP JUMP JUMPDEST PUSH2 0xA80 PUSH2 0x13D0 JUMP JUMPDEST PUSH2 0xA8A PUSH1 0x0 PUSH2 0x142A JUMP JUMPDEST JUMP JUMPDEST PUSH1 0xCB SLOAD PUSH1 0x40 MLOAD PUSH4 0x1C9F84EF PUSH1 0xE2 SHL DUP2 MSTORE PUSH1 0x1 PUSH1 0x1 PUSH1 0xA0 SHL SUB DUP4 DUP2 AND PUSH1 0x4 DUP4 ADD MSTORE PUSH1 0x0 SWAP3 AND SWAP1 PUSH4 0x727E13BC SWAP1 PUSH1 0x24 ADD PUSH1 0x20 PUSH1 0x40 MLOAD DUP1 DUP4 SUB DUP2 DUP7 GAS STATICCALL ISZERO DUP1 ISZERO PUSH2 0xAD7 JUMPI RETURNDATASIZE PUSH1 0x0 DUP1 RETURNDATACOPY RETURNDATASIZE PUSH1 0x0 REVERT JUMPDEST POP POP POP POP PUSH1 0x40 MLOAD RETURNDATASIZE PUSH1 0x1F NOT PUSH1 0x1F DUP3 ADD AND DUP3 ADD DUP1 PUSH1 0x40 MSTORE POP DUP2 ADD SWAP1 PUSH2 0x450 SWAP2 SWAP1 PUSH2 0x199E JUMP JUMPDEST PUSH1 0x0 DUP1 MLOAD PUSH1 0x20 PUSH2 0x1E8C DUP4 CODECOPY DUP2 MLOAD SWAP2 MSTORE PUSH2 0xB13 DUP2 PUSH2 0x12D9 JUMP JUMPDEST PUSH1 0x0 PUSH2 0xB1E DUP5 PUSH2 0x11C2 JUMP JUMPDEST PUSH1 0xCB SLOAD PUSH1 0x40 MLOAD PUSH4 0x7402E7C3 PUSH1 0xE1 SHL DUP2 MSTORE PUSH1 0x1 PUSH1 0x1 PUSH1 0xA0 SHL SUB DUP8 DUP2 AND PUSH1 0x4 DUP4 ADD MSTORE DUP7 DUP2 AND PUSH1 0x24 DUP4 ADD MSTORE SWAP3 SWAP4 POP SWAP2 AND SWAP1 PUSH4 0xE805CF86 SWAP1 PUSH1 0x44 ADD PUSH1 0x0 PUSH1 0x40 MLOAD DUP1 DUP4 SUB DUP2 PUSH1 0x0 DUP8 DUP1 EXTCODESIZE ISZERO DUP1 ISZERO PUSH2 0xB6F JUMPI PUSH1 0x0 DUP1 REVERT JUMPDEST POP GAS CALL ISZERO DUP1 ISZERO PUSH2 0xB83 JUMPI RETURNDATASIZE PUSH1 0x0 DUP1 RETURNDATACOPY RETURNDATASIZE PUSH1 0x0 REVERT JUMPDEST POP POP PUSH1 0x40 MLOAD PUSH1 0x1 PUSH1 0x1 PUSH1 0xA0 SHL SUB DUP1 DUP8 AND SWAP4 POP DUP5 AND SWAP2 POP PUSH32 0xE98082932C8056A0F514DA9104E4A66BC2CBAEF102AD59D90C4B24220EBF6010 SWAP1 PUSH1 0x0 SWAP1 LOG3 POP POP POP POP JUMP JUMPDEST PUSH1 0x0 SWAP2 DUP3 MSTORE PUSH1 0x65 PUSH1 0x20 SWAP1 DUP2 MSTORE PUSH1 0x40 DUP1 DUP5 KECCAK256 PUSH1 0x1 PUSH1 0x1 PUSH1 0xA0 SHL SUB SWAP4 SWAP1 SWAP4 AND DUP5 MSTORE SWAP2 SWAP1 MSTORE SWAP1 KECCAK256 SLOAD PUSH1 0xFF AND SWAP1 JUMP JUMPDEST PUSH1 0x0 DUP1 MLOAD PUSH1 0x20 PUSH2 0x1E8C DUP4 CODECOPY DUP2 MLOAD SWAP2 MSTORE PUSH2 0xC08 DUP2 PUSH2 0x12D9 JUMP JUMPDEST PUSH1 0x0 PUSH2 0xC13 DUP4 PUSH2 0x11C2 JUMP JUMPDEST PUSH1 0xCB SLOAD PUSH1 0x40 MLOAD PUSH4 0xCF191BCD PUSH1 0xE0 SHL DUP2 MSTORE PUSH1 0x1 PUSH1 0x1 PUSH1 0xA0 SHL SUB DUP7 DUP2 AND PUSH1 0x4 DUP4 ADD MSTORE SWAP3 SWAP4 POP SWAP2 AND SWAP1 PUSH4 0xCF191BCD SWAP1 PUSH1 0x24 ADD PUSH1 0x0 PUSH1 0x40 MLOAD DUP1 DUP4 SUB DUP2 PUSH1 0x0 DUP8 DUP1 EXTCODESIZE ISZERO DUP1 ISZERO PUSH2 0xC5C JUMPI PUSH1 0x0 DUP1 REVERT JUMPDEST POP GAS CALL ISZERO DUP1 ISZERO PUSH2 0xC70 JUMPI RETURNDATASIZE PUSH1 0x0 DUP1 RETURNDATACOPY RETURNDATASIZE PUSH1 0x0 REVERT JUMPDEST POP POP PUSH1 0x40 MLOAD PUSH1 0x1 PUSH1 0x1 PUSH1 0xA0 SHL SUB DUP1 DUP6 AND SWAP4 POP DUP7 AND SWAP2 POP PUSH32 0x59D6590E225B81BEFE259AF056324092801080ACBB7FEAB310EB34678871F327 SWAP1 PUSH1 0x0 SWAP1 LOG3 POP POP POP JUMP JUMPDEST PUSH1 0x0 DUP1 PUSH2 0xCBD DUP4 PUSH2 0x11C2 JUMP JUMPDEST PUSH1 0x1 PUSH1 0x1 PUSH1 0xA0 SHL SUB AND SUB PUSH2 0xCD3 JUMPI POP PUSH1 0x0 SWAP2 SWAP1 POP JUMP JUMPDEST PUSH1 0xC9 SLOAD PUSH1 0x40 DUP1 MLOAD PUSH4 0x37C27581 PUSH1 0xE2 SHL DUP2 MSTORE SWAP1 MLOAD PUSH1 0x0 SWAP3 PUSH1 0x1 PUSH1 0x1 PUSH1 0xA0 SHL SUB AND SWAP2 PUSH4 0xDF09D604 SWAP2 PUSH1 0x4 DUP1 DUP4 ADD SWAP3 DUP7 SWAP3 SWAP2 SWAP1 DUP3 SWAP1 SUB ADD DUP2 DUP7 GAS STATICCALL ISZERO DUP1 ISZERO PUSH2 0xD1C JUMPI RETURNDATASIZE PUSH1 0x0 DUP1 RETURNDATACOPY RETURNDATASIZE PUSH1 0x0 REVERT JUMPDEST POP POP POP POP PUSH1 0x40 MLOAD RETURNDATASIZE PUSH1 0x0 DUP3 RETURNDATACOPY PUSH1 0x1F RETURNDATASIZE SWAP1 DUP2 ADD PUSH1 0x1F NOT AND DUP3 ADD PUSH1 0x40 MSTORE PUSH2 0xD44 SWAP2 SWAP1 DUP2 ADD SWAP1 PUSH2 0x1A26 JUMP JUMPDEST SWAP1 POP DUP1 MLOAD PUSH1 0x0 SUB PUSH2 0xD58 JUMPI POP PUSH1 0x1 SWAP3 SWAP2 POP POP JUMP JUMPDEST PUSH1 0x0 DUP1 PUSH1 0x0 PUSH1 0x60 DUP1 PUSH1 0x0 JUMPDEST DUP7 MLOAD DUP2 LT ISZERO PUSH2 0x112B JUMPI PUSH1 0xCA SLOAD DUP8 MLOAD PUSH1 0x0 SWAP2 PUSH1 0x1 PUSH1 0x1 PUSH1 0xA0 SHL SUB AND SWAP1 PUSH4 0x52C111D1 SWAP1 DUP11 SWAP1 DUP6 SWAP1 DUP2 LT PUSH2 0xD96 JUMPI PUSH2 0xD96 PUSH2 0x193C JUMP JUMPDEST PUSH1 0x20 MUL PUSH1 0x20 ADD ADD MLOAD PUSH1 0x40 MLOAD DUP3 PUSH4 0xFFFFFFFF AND PUSH1 0xE0 SHL DUP2 MSTORE PUSH1 0x4 ADD PUSH2 0xDBC SWAP2 DUP2 MSTORE PUSH1 0x20 ADD SWAP1 JUMP JUMPDEST PUSH1 0x0 PUSH1 0x40 MLOAD DUP1 DUP4 SUB DUP2 DUP7 GAS STATICCALL ISZERO DUP1 ISZERO PUSH2 0xDD9 JUMPI RETURNDATASIZE PUSH1 0x0 DUP1 RETURNDATACOPY RETURNDATASIZE PUSH1 0x0 REVERT JUMPDEST POP POP POP POP PUSH1 0x40 MLOAD RETURNDATASIZE PUSH1 0x0 DUP3 RETURNDATACOPY PUSH1 0x1F RETURNDATASIZE SWAP1 DUP2 ADD PUSH1 0x1F NOT AND DUP3 ADD PUSH1 0x40 MSTORE PUSH2 0xE01 SWAP2 SWAP1 DUP2 ADD SWAP1 PUSH2 0x1ABC JUMP JUMPDEST SWAP1 POP DUP1 MLOAD PUSH1 0x0 SUB PUSH2 0xE1C JUMPI POP PUSH1 0x0 SWAP10 SWAP9 POP POP POP POP POP POP POP POP POP JUMP JUMPDEST PUSH1 0x0 DUP2 MLOAD PUSH8 0xFFFFFFFFFFFFFFFF DUP2 GT ISZERO PUSH2 0xE38 JUMPI PUSH2 0xE38 PUSH2 0x19BB JUMP JUMPDEST PUSH1 0x40 MLOAD SWAP1 DUP1 DUP3 MSTORE DUP1 PUSH1 0x20 MUL PUSH1 0x20 ADD DUP3 ADD PUSH1 0x40 MSTORE DUP1 ISZERO PUSH2 0xE61 JUMPI DUP2 PUSH1 0x20 ADD PUSH1 0x20 DUP3 MUL DUP1 CALLDATASIZE DUP4 CALLDATACOPY ADD SWAP1 POP JUMPDEST POP SWAP1 POP PUSH1 0x0 JUMPDEST DUP3 MLOAD DUP2 LT ISZERO PUSH2 0xF0E JUMPI DUP3 DUP2 DUP2 MLOAD DUP2 LT PUSH2 0xE82 JUMPI PUSH2 0xE82 PUSH2 0x193C JUMP JUMPDEST PUSH1 0x20 MUL PUSH1 0x20 ADD ADD MLOAD DUP11 DUP6 DUP2 MLOAD DUP2 LT PUSH2 0xE9C JUMPI PUSH2 0xE9C PUSH2 0x193C JUMP JUMPDEST PUSH1 0x20 MUL PUSH1 0x20 ADD ADD MLOAD PUSH1 0x40 MLOAD PUSH1 0x20 ADD PUSH2 0xEC9 SWAP3 SWAP2 SWAP1 PUSH1 0x1 PUSH1 0x1 PUSH1 0xA0 SHL SUB SWAP3 SWAP1 SWAP3 AND DUP3 MSTORE PUSH1 0x20 DUP3 ADD MSTORE PUSH1 0x40 ADD SWAP1 JUMP JUMPDEST PUSH1 0x40 MLOAD PUSH1 0x20 DUP2 DUP4 SUB SUB DUP2 MSTORE SWAP1 PUSH1 0x40 MSTORE DUP1 MLOAD SWAP1 PUSH1 0x20 ADD KECCAK256 DUP3 DUP3 DUP2 MLOAD DUP2 LT PUSH2 0xEF1 JUMPI PUSH2 0xEF1 PUSH2 0x193C JUMP JUMPDEST PUSH1 0x20 SWAP1 DUP2 MUL SWAP2 SWAP1 SWAP2 ADD ADD MSTORE DUP1 PUSH2 0xF06 DUP2 PUSH2 0x1985 JUMP JUMPDEST SWAP2 POP POP PUSH2 0xE67 JUMP JUMPDEST POP PUSH1 0x0 JUMPDEST DUP2 MLOAD DUP2 LT ISZERO PUSH2 0x1115 JUMPI PUSH2 0xF24 DUP13 PUSH2 0x11C2 JUMP JUMPDEST PUSH1 0x1 PUSH1 0x1 PUSH1 0xA0 SHL SUB AND PUSH4 0xC9100BCB DUP4 DUP4 DUP2 MLOAD DUP2 LT PUSH2 0xF44 JUMPI PUSH2 0xF44 PUSH2 0x193C JUMP JUMPDEST PUSH1 0x20 MUL PUSH1 0x20 ADD ADD MLOAD PUSH1 0x40 MLOAD DUP3 PUSH4 0xFFFFFFFF AND PUSH1 0xE0 SHL DUP2 MSTORE PUSH1 0x4 ADD PUSH2 0xF6A SWAP2 DUP2 MSTORE PUSH1 0x20 ADD SWAP1 JUMP JUMPDEST PUSH1 0x0 PUSH1 0x40 MLOAD DUP1 DUP4 SUB DUP2 DUP7 GAS STATICCALL ISZERO DUP1 ISZERO PUSH2 0xF87 JUMPI RETURNDATASIZE PUSH1 0x0 DUP1 RETURNDATACOPY RETURNDATASIZE PUSH1 0x0 REVERT JUMPDEST POP POP POP POP PUSH1 0x40 MLOAD RETURNDATASIZE PUSH1 0x0 DUP3 RETURNDATACOPY PUSH1 0x1F RETURNDATASIZE SWAP1 DUP2 ADD PUSH1 0x1F NOT AND DUP3 ADD PUSH1 0x40 MSTORE PUSH2 0xFAF SWAP2 SWAP1 DUP2 ADD SWAP1 PUSH2 0x1BDE JUMP JUMPDEST POP DUP15 MLOAD SWAP5 SWAP14 POP SWAP3 SWAP12 POP SWAP1 SWAP10 POP SWAP8 POP SWAP6 POP DUP11 SWAP1 DUP6 SWAP1 DUP2 LT PUSH2 0xFD1 JUMPI PUSH2 0xFD1 PUSH2 0x193C JUMP JUMPDEST PUSH1 0x20 MUL PUSH1 0x20 ADD ADD MLOAD DUP10 SUB PUSH2 0x10DD JUMPI DUP7 PUSH1 0x1 PUSH1 0x1 PUSH1 0xA0 SHL SUB AND PUSH4 0xC0969A6E PUSH2 0xFF7 DUP15 PUSH2 0x11C2 JUMP JUMPDEST DUP13 DUP8 DUP2 MLOAD DUP2 LT PUSH2 0x1009 JUMPI PUSH2 0x1009 PUSH2 0x193C JUMP JUMPDEST PUSH1 0x20 MUL PUSH1 0x20 ADD ADD MLOAD DUP10 DUP10 PUSH1 0x40 MLOAD DUP6 PUSH4 0xFFFFFFFF AND PUSH1 0xE0 SHL DUP2 MSTORE PUSH1 0x4 ADD PUSH2 0x1032 SWAP5 SWAP4 SWAP3 SWAP2 SWAP1 PUSH2 0x1CCC JUMP JUMPDEST PUSH1 0x20 PUSH1 0x40 MLOAD DUP1 DUP4 SUB DUP2 DUP7 GAS STATICCALL SWAP3 POP POP POP DUP1 ISZERO PUSH2 0x106B JUMPI POP PUSH1 0x40 DUP1 MLOAD PUSH1 0x1F RETURNDATASIZE SWAP1 DUP2 ADD PUSH1 0x1F NOT AND DUP3 ADD SWAP1 SWAP3 MSTORE PUSH2 0x1068 SWAP2 DUP2 ADD SWAP1 PUSH2 0x1D05 JUMP JUMPDEST PUSH1 0x1 JUMPDEST PUSH2 0x109A JUMPI PUSH1 0x1 DUP3 MLOAD PUSH2 0x107D SWAP2 SWAP1 PUSH2 0x1D27 JUMP JUMPDEST DUP2 SUB PUSH2 0x1095 JUMPI POP PUSH1 0x0 SWAP12 SWAP11 POP POP POP POP POP POP POP POP POP POP POP JUMP JUMPDEST PUSH2 0x1103 JUMP JUMPDEST DUP1 ISZERO PUSH2 0x10A5 JUMPI DUP3 MLOAD SWAP2 POP JUMPDEST DUP1 ISZERO DUP1 ISZERO PUSH2 0x10BF JUMPI POP PUSH1 0x1 DUP4 MLOAD PUSH2 0x10BC SWAP2 SWAP1 PUSH2 0x1D27 JUMP JUMPDEST DUP3 EQ JUMPDEST ISZERO PUSH2 0x10D7 JUMPI POP PUSH1 0x0 SWAP13 SWAP12 POP POP POP POP POP POP POP POP POP POP POP POP JUMP JUMPDEST POP PUSH2 0x1103 JUMP JUMPDEST PUSH1 0x1 DUP3 MLOAD PUSH2 0x10EB SWAP2 SWAP1 PUSH2 0x1D27 JUMP JUMPDEST DUP2 SUB PUSH2 0x1103 JUMPI POP PUSH1 0x0 SWAP12 SWAP11 POP POP POP POP POP POP POP POP POP POP POP JUMP JUMPDEST DUP1 PUSH2 0x110D DUP2 PUSH2 0x1985 JUMP JUMPDEST SWAP2 POP POP PUSH2 0xF12 JUMP JUMPDEST POP POP POP DUP1 DUP1 PUSH2 0x1123 SWAP1 PUSH2 0x1985 JUMP JUMPDEST SWAP2 POP POP PUSH2 0xD63 JUMP JUMPDEST POP PUSH1 0x1 SWAP9 SWAP8 POP POP POP POP POP POP POP POP JUMP JUMPDEST PUSH1 0x0 DUP3 DUP2 MSTORE PUSH1 0x65 PUSH1 0x20 MSTORE PUSH1 0x40 SWAP1 KECCAK256 PUSH1 0x1 ADD SLOAD PUSH2 0x1155 DUP2 PUSH2 0x12D9 JUMP JUMPDEST PUSH2 0x743 DUP4 DUP4 PUSH2 0x1369 JUMP JUMPDEST PUSH1 0x0 DUP1 MLOAD PUSH1 0x20 PUSH2 0x1E6C DUP4 CODECOPY DUP2 MLOAD SWAP2 MSTORE PUSH2 0x1177 DUP2 PUSH2 0x12D9 JUMP JUMPDEST PUSH1 0xCA DUP1 SLOAD PUSH1 0x1 PUSH1 0x1 PUSH1 0xA0 SHL SUB NOT AND PUSH1 0x1 PUSH1 0x1 PUSH1 0xA0 SHL SUB DUP5 AND SWAP1 DUP2 OR SWAP1 SWAP2 SSTORE PUSH1 0x40 MLOAD PUSH32 0x1B98CB79E6F73020175FE87333F1B91AD6A881519C0AFE30340C2599B2B4BDE0 SWAP1 PUSH1 0x0 SWAP1 LOG2 POP POP JUMP JUMPDEST PUSH1 0xCB SLOAD PUSH1 0x40 MLOAD PUSH4 0x7988D3A5 PUSH1 0xE0 SHL DUP2 MSTORE PUSH1 0x1 PUSH1 0x1 PUSH1 0xA0 SHL SUB DUP4 DUP2 AND PUSH1 0x4 DUP4 ADD MSTORE PUSH1 0x0 SWAP3 AND SWAP1 PUSH4 0x7988D3A5 SWAP1 PUSH1 0x24 ADD PUSH1 0x20 PUSH1 0x40 MLOAD DUP1 DUP4 SUB DUP2 DUP7 GAS STATICCALL ISZERO DUP1 ISZERO PUSH2 0x120D JUMPI RETURNDATASIZE PUSH1 0x0 DUP1 RETURNDATACOPY RETURNDATASIZE PUSH1 0x0 REVERT JUMPDEST POP POP POP POP PUSH1 0x40 MLOAD RETURNDATASIZE PUSH1 0x1F NOT PUSH1 0x1F DUP3 ADD AND DUP3 ADD DUP1 PUSH1 0x40 MSTORE POP DUP2 ADD SWAP1 PUSH2 0x450 SWAP2 SWAP1 PUSH2 0x1D3A JUMP JUMPDEST PUSH2 0x1239 PUSH2 0x13D0 JUMP JUMPDEST PUSH1 0x1 PUSH1 0x1 PUSH1 0xA0 SHL SUB DUP2 AND PUSH2 0x129E JUMPI PUSH1 0x40 MLOAD PUSH3 0x461BCD PUSH1 0xE5 SHL DUP2 MSTORE PUSH1 0x20 PUSH1 0x4 DUP3 ADD MSTORE PUSH1 0x26 PUSH1 0x24 DUP3 ADD MSTORE PUSH32 0x4F776E61626C653A206E6577206F776E657220697320746865207A65726F2061 PUSH1 0x44 DUP3 ADD MSTORE PUSH6 0x646472657373 PUSH1 0xD0 SHL PUSH1 0x64 DUP3 ADD MSTORE PUSH1 0x84 ADD PUSH2 0x4EF JUMP JUMPDEST PUSH2 0x12A7 DUP2 PUSH2 0x142A JUMP JUMPDEST POP JUMP JUMPDEST PUSH1 0x0 SLOAD PUSH2 0x100 SWAP1 DIV PUSH1 0xFF AND PUSH2 0x12D1 JUMPI PUSH1 0x40 MLOAD PUSH3 0x461BCD PUSH1 0xE5 SHL DUP2 MSTORE PUSH1 0x4 ADD PUSH2 0x4EF SWAP1 PUSH2 0x1D57 JUMP JUMPDEST PUSH2 0xA8A PUSH2 0x147C JUMP JUMPDEST PUSH2 0x12A7 DUP2 CALLER PUSH2 0x14AC JUMP JUMPDEST PUSH2 0x12ED DUP3 DUP3 PUSH2 0xBC5 JUMP JUMPDEST PUSH2 0x7C2 JUMPI PUSH1 0x0 DUP3 DUP2 MSTORE PUSH1 0x65 PUSH1 0x20 SWAP1 DUP2 MSTORE PUSH1 0x40 DUP1 DUP4 KECCAK256 PUSH1 0x1 PUSH1 0x1 PUSH1 0xA0 SHL SUB DUP6 AND DUP5 MSTORE SWAP1 SWAP2 MSTORE SWAP1 KECCAK256 DUP1 SLOAD PUSH1 0xFF NOT AND PUSH1 0x1 OR SWAP1 SSTORE PUSH2 0x1325 CALLER SWAP1 JUMP JUMPDEST PUSH1 0x1 PUSH1 0x1 PUSH1 0xA0 SHL SUB AND DUP2 PUSH1 0x1 PUSH1 0x1 PUSH1 0xA0 SHL SUB AND DUP4 PUSH32 0x2F8788117E7EFF1D82E926EC794901D17C78024A50270940304540A733656F0D PUSH1 0x40 MLOAD PUSH1 0x40 MLOAD DUP1 SWAP2 SUB SWAP1 LOG4 POP POP JUMP JUMPDEST PUSH2 0x1373 DUP3 DUP3 PUSH2 0xBC5 JUMP JUMPDEST ISZERO PUSH2 0x7C2 JUMPI PUSH1 0x0 DUP3 DUP2 MSTORE PUSH1 0x65 PUSH1 0x20 SWAP1 DUP2 MSTORE PUSH1 0x40 DUP1 DUP4 KECCAK256 PUSH1 0x1 PUSH1 0x1 PUSH1 0xA0 SHL SUB DUP6 AND DUP1 DUP6 MSTORE SWAP3 MSTORE DUP1 DUP4 KECCAK256 DUP1 SLOAD PUSH1 0xFF NOT AND SWAP1 SSTORE MLOAD CALLER SWAP3 DUP6 SWAP2 PUSH32 0xF6391F5C32D9C69D2A47EA670B442974B53935D1EDC7FD64EB21E047A839171B SWAP2 SWAP1 LOG4 POP POP JUMP JUMPDEST PUSH1 0x97 SLOAD PUSH1 0x1 PUSH1 0x1 PUSH1 0xA0 SHL SUB AND CALLER EQ PUSH2 0xA8A JUMPI PUSH1 0x40 MLOAD PUSH3 0x461BCD PUSH1 0xE5 SHL DUP2 MSTORE PUSH1 0x20 PUSH1 0x4 DUP3 ADD DUP2 SWAP1 MSTORE PUSH1 0x24 DUP3 ADD MSTORE PUSH32 0x4F776E61626C653A2063616C6C6572206973206E6F7420746865206F776E6572 PUSH1 0x44 DUP3 ADD MSTORE PUSH1 0x64 ADD PUSH2 0x4EF JUMP JUMPDEST PUSH1 0x97 DUP1 SLOAD PUSH1 0x1 PUSH1 0x1 PUSH1 0xA0 SHL SUB DUP4 DUP2 AND PUSH1 0x1 PUSH1 0x1 PUSH1 0xA0 SHL SUB NOT DUP4 AND DUP2 OR SWAP1 SWAP4 SSTORE PUSH1 0x40 MLOAD SWAP2 AND SWAP2 SWAP1 DUP3 SWAP1 PUSH32 0x8BE0079C531659141344CD1FD0A4F28419497F9722A3DAAFE3B4186F6B6457E0 SWAP1 PUSH1 0x0 SWAP1 LOG3 POP POP JUMP JUMPDEST PUSH1 0x0 SLOAD PUSH2 0x100 SWAP1 DIV PUSH1 0xFF AND PUSH2 0x14A3 JUMPI PUSH1 0x40 MLOAD PUSH3 0x461BCD PUSH1 0xE5 SHL DUP2 MSTORE PUSH1 0x4 ADD PUSH2 0x4EF SWAP1 PUSH2 0x1D57 JUMP JUMPDEST PUSH2 0xA8A CALLER PUSH2 0x142A JUMP JUMPDEST PUSH2 0x14B6 DUP3 DUP3 PUSH2 0xBC5 JUMP JUMPDEST PUSH2 0x7C2 JUMPI PUSH2 0x14C3 DUP2 PUSH2 0x1505 JUMP JUMPDEST PUSH2 0x14CE DUP4 PUSH1 0x20 PUSH2 0x1517 JUMP JUMPDEST PUSH1 0x40 MLOAD PUSH1 0x20 ADD PUSH2 0x14DF SWAP3 SWAP2 SWAP1 PUSH2 0x1DA2 JUMP JUMPDEST PUSH1 0x40 DUP1 MLOAD PUSH1 0x1F NOT DUP2 DUP5 SUB ADD DUP2 MSTORE SWAP1 DUP3 SWAP1 MSTORE PUSH3 0x461BCD PUSH1 0xE5 SHL DUP3 MSTORE PUSH2 0x4EF SWAP2 PUSH1 0x4 ADD PUSH2 0x1E17 JUMP JUMPDEST PUSH1 0x60 PUSH2 0x450 PUSH1 0x1 PUSH1 0x1 PUSH1 0xA0 SHL SUB DUP4 AND PUSH1 0x14 JUMPDEST PUSH1 0x60 PUSH1 0x0 PUSH2 0x1526 DUP4 PUSH1 0x2 PUSH2 0x1E2A JUMP JUMPDEST PUSH2 0x1531 SWAP1 PUSH1 0x2 PUSH2 0x1E41 JUMP JUMPDEST PUSH8 0xFFFFFFFFFFFFFFFF DUP2 GT ISZERO PUSH2 0x1549 JUMPI PUSH2 0x1549 PUSH2 0x19BB JUMP JUMPDEST PUSH1 0x40 MLOAD SWAP1 DUP1 DUP3 MSTORE DUP1 PUSH1 0x1F ADD PUSH1 0x1F NOT AND PUSH1 0x20 ADD DUP3 ADD PUSH1 0x40 MSTORE DUP1 ISZERO PUSH2 0x1573 JUMPI PUSH1 0x20 DUP3 ADD DUP2 DUP1 CALLDATASIZE DUP4 CALLDATACOPY ADD SWAP1 POP JUMPDEST POP SWAP1 POP PUSH1 0x3 PUSH1 0xFC SHL DUP2 PUSH1 0x0 DUP2 MLOAD DUP2 LT PUSH2 0x158E JUMPI PUSH2 0x158E PUSH2 0x193C JUMP JUMPDEST PUSH1 0x20 ADD ADD SWAP1 PUSH1 0x1 PUSH1 0x1 PUSH1 0xF8 SHL SUB NOT AND SWAP1 DUP2 PUSH1 0x0 BYTE SWAP1 MSTORE8 POP PUSH1 0xF PUSH1 0xFB SHL DUP2 PUSH1 0x1 DUP2 MLOAD DUP2 LT PUSH2 0x15BD JUMPI PUSH2 0x15BD PUSH2 0x193C JUMP JUMPDEST PUSH1 0x20 ADD ADD SWAP1 PUSH1 0x1 PUSH1 0x1 PUSH1 0xF8 SHL SUB NOT AND SWAP1 DUP2 PUSH1 0x0 BYTE SWAP1 MSTORE8 POP PUSH1 0x0 PUSH2 0x15E1 DUP5 PUSH1 0x2 PUSH2 0x1E2A JUMP JUMPDEST PUSH2 0x15EC SWAP1 PUSH1 0x1 PUSH2 0x1E41 JUMP JUMPDEST SWAP1 POP JUMPDEST PUSH1 0x1 DUP2 GT ISZERO PUSH2 0x1664 JUMPI PUSH16 0x181899199A1A9B1B9C1CB0B131B232B3 PUSH1 0x81 SHL DUP6 PUSH1 0xF AND PUSH1 0x10 DUP2 LT PUSH2 0x1620 JUMPI PUSH2 0x1620 PUSH2 0x193C JUMP JUMPDEST BYTE PUSH1 0xF8 SHL DUP3 DUP3 DUP2 MLOAD DUP2 LT PUSH2 0x1636 JUMPI PUSH2 0x1636 PUSH2 0x193C JUMP JUMPDEST PUSH1 0x20 ADD ADD SWAP1 PUSH1 0x1 PUSH1 0x1 PUSH1 0xF8 SHL SUB NOT AND SWAP1 DUP2 PUSH1 0x0 BYTE SWAP1 MSTORE8 POP PUSH1 0x4 SWAP5 SWAP1 SWAP5 SHR SWAP4 PUSH2 0x165D DUP2 PUSH2 0x1E54 JUMP JUMPDEST SWAP1 POP PUSH2 0x15EF JUMP JUMPDEST POP DUP4 ISZERO PUSH2 0x16B3 JUMPI PUSH1 0x40 MLOAD PUSH3 0x461BCD PUSH1 0xE5 SHL DUP2 MSTORE PUSH1 0x20 PUSH1 0x4 DUP3 ADD DUP2 SWAP1 MSTORE PUSH1 0x24 DUP3 ADD MSTORE PUSH32 0x537472696E67733A20686578206C656E67746820696E73756666696369656E74 PUSH1 0x44 DUP3 ADD MSTORE PUSH1 0x64 ADD PUSH2 0x4EF JUMP JUMPDEST SWAP4 SWAP3 POP POP POP JUMP JUMPDEST PUSH1 0x0 PUSH1 0x20 DUP3 DUP5 SUB SLT ISZERO PUSH2 0x16CC JUMPI PUSH1 0x0 DUP1 REVERT JUMPDEST DUP2 CALLDATALOAD PUSH1 0x1 PUSH1 0x1 PUSH1 0xE0 SHL SUB NOT DUP2 AND DUP2 EQ PUSH2 0x16B3 JUMPI PUSH1 0x0 DUP1 REVERT JUMPDEST PUSH1 0x1 PUSH1 0x1 PUSH1 0xA0 SHL SUB DUP2 AND DUP2 EQ PUSH2 0x12A7 JUMPI PUSH1 0x0 DUP1 REVERT JUMPDEST PUSH1 0x0 DUP1 PUSH1 0x0 PUSH1 0x60 DUP5 DUP7 SUB SLT ISZERO PUSH2 0x170E JUMPI PUSH1 0x0 DUP1 REVERT JUMPDEST DUP4 CALLDATALOAD PUSH2 0x1719 DUP2 PUSH2 0x16E4 JUMP JUMPDEST SWAP3 POP PUSH1 0x20 DUP5 ADD CALLDATALOAD PUSH2 0x1729 DUP2 PUSH2 0x16E4 JUMP JUMPDEST SWAP2 POP PUSH1 0x40 DUP5 ADD CALLDATALOAD PUSH2 0x1739 DUP2 PUSH2 0x16E4 JUMP JUMPDEST DUP1 SWAP2 POP POP SWAP3 POP SWAP3 POP SWAP3 JUMP JUMPDEST PUSH1 0x0 PUSH1 0x20 DUP3 DUP5 SUB SLT ISZERO PUSH2 0x1756 JUMPI PUSH1 0x0 DUP1 REVERT JUMPDEST POP CALLDATALOAD SWAP2 SWAP1 POP JUMP JUMPDEST PUSH1 0x0 PUSH1 0x20 DUP3 DUP5 SUB SLT ISZERO PUSH2 0x176F JUMPI PUSH1 0x0 DUP1 REVERT JUMPDEST DUP2 CALLDATALOAD PUSH2 0x16B3 DUP2 PUSH2 0x16E4 JUMP JUMPDEST PUSH1 0x0 DUP1 PUSH1 0x40 DUP4 DUP6 SUB SLT ISZERO PUSH2 0x178D JUMPI PUSH1 0x0 DUP1 REVERT JUMPDEST DUP3 CALLDATALOAD SWAP2 POP PUSH1 0x20 DUP4 ADD CALLDATALOAD PUSH2 0x179F DUP2 PUSH2 0x16E4 JUMP JUMPDEST DUP1 SWAP2 POP POP SWAP3 POP SWAP3 SWAP1 POP JUMP JUMPDEST PUSH2 0xFFFF DUP2 AND DUP2 EQ PUSH2 0x12A7 JUMPI PUSH1 0x0 DUP1 REVERT JUMPDEST PUSH1 0x0 DUP1 PUSH1 0x40 DUP4 DUP6 SUB SLT ISZERO PUSH2 0x17CD JUMPI PUSH1 0x0 DUP1 REVERT JUMPDEST DUP3 CALLDATALOAD PUSH2 0x17D8 DUP2 PUSH2 0x16E4 JUMP JUMPDEST SWAP2 POP PUSH1 0x20 DUP4 ADD CALLDATALOAD PUSH2 0x179F DUP2 PUSH2 0x17AA JUMP JUMPDEST PUSH1 0x0 DUP1 PUSH1 0x0 PUSH1 0x60 DUP5 DUP7 SUB SLT ISZERO PUSH2 0x17FD JUMPI PUSH1 0x0 DUP1 REVERT JUMPDEST DUP4 CALLDATALOAD PUSH2 0x1808 DUP2 PUSH2 0x16E4 JUMP JUMPDEST SWAP3 POP PUSH1 0x20 DUP5 ADD CALLDATALOAD PUSH2 0x1818 DUP2 PUSH2 0x16E4 JUMP JUMPDEST SWAP2 POP PUSH1 0x40 DUP5 ADD CALLDATALOAD PUSH2 0x1739 DUP2 PUSH2 0x17AA JUMP JUMPDEST PUSH1 0x0 DUP1 DUP4 PUSH1 0x1F DUP5 ADD SLT PUSH2 0x183A JUMPI PUSH1 0x0 DUP1 REVERT JUMPDEST POP DUP2 CALLDATALOAD PUSH8 0xFFFFFFFFFFFFFFFF DUP2 GT ISZERO PUSH2 0x1852 JUMPI PUSH1 0x0 DUP1 REVERT JUMPDEST PUSH1 0x20 DUP4 ADD SWAP2 POP DUP4 PUSH1 0x20 DUP3 PUSH1 0x5 SHL DUP6 ADD ADD GT ISZERO PUSH2 0x186D JUMPI PUSH1 0x0 DUP1 REVERT JUMPDEST SWAP3 POP SWAP3 SWAP1 POP JUMP JUMPDEST PUSH1 0x0 DUP1 PUSH1 0x0 DUP1 PUSH1 0x0 DUP1 PUSH1 0x60 DUP8 DUP10 SUB SLT ISZERO PUSH2 0x188D JUMPI PUSH1 0x0 DUP1 REVERT JUMPDEST DUP7 CALLDATALOAD PUSH8 0xFFFFFFFFFFFFFFFF DUP1 DUP3 GT ISZERO PUSH2 0x18A5 JUMPI PUSH1 0x0 DUP1 REVERT JUMPDEST PUSH2 0x18B1 DUP11 DUP4 DUP12 ADD PUSH2 0x1828 JUMP JUMPDEST SWAP1 SWAP9 POP SWAP7 POP PUSH1 0x20 DUP10 ADD CALLDATALOAD SWAP2 POP DUP1 DUP3 GT ISZERO PUSH2 0x18CA JUMPI PUSH1 0x0 DUP1 REVERT JUMPDEST PUSH2 0x18D6 DUP11 DUP4 DUP12 ADD PUSH2 0x1828 JUMP JUMPDEST SWAP1 SWAP7 POP SWAP5 POP PUSH1 0x40 DUP10 ADD CALLDATALOAD SWAP2 POP DUP1 DUP3 GT ISZERO PUSH2 0x18EF JUMPI PUSH1 0x0 DUP1 REVERT JUMPDEST POP PUSH2 0x18FC DUP10 DUP3 DUP11 ADD PUSH2 0x1828 JUMP JUMPDEST SWAP8 SWAP11 SWAP7 SWAP10 POP SWAP5 SWAP8 POP SWAP3 SWAP6 SWAP4 SWAP5 SWAP3 POP POP POP JUMP JUMPDEST PUSH1 0x0 DUP1 PUSH1 0x40 DUP4 DUP6 SUB SLT ISZERO PUSH2 0x1921 JUMPI PUSH1 0x0 DUP1 REVERT JUMPDEST DUP3 CALLDATALOAD PUSH2 0x192C DUP2 PUSH2 0x16E4 JUMP JUMPDEST SWAP2 POP PUSH1 0x20 DUP4 ADD CALLDATALOAD PUSH2 0x179F DUP2 PUSH2 0x16E4 JUMP JUMPDEST PUSH4 0x4E487B71 PUSH1 0xE0 SHL PUSH1 0x0 MSTORE PUSH1 0x32 PUSH1 0x4 MSTORE PUSH1 0x24 PUSH1 0x0 REVERT JUMPDEST PUSH1 0x0 PUSH1 0x20 DUP3 DUP5 SUB SLT ISZERO PUSH2 0x1964 JUMPI PUSH1 0x0 DUP1 REVERT JUMPDEST DUP2 CALLDATALOAD PUSH2 0x16B3 DUP2 PUSH2 0x17AA JUMP JUMPDEST PUSH4 0x4E487B71 PUSH1 0xE0 SHL PUSH1 0x0 MSTORE PUSH1 0x11 PUSH1 0x4 MSTORE PUSH1 0x24 PUSH1 0x0 REVERT JUMPDEST PUSH1 0x0 PUSH1 0x1 DUP3 ADD PUSH2 0x1997 JUMPI PUSH2 0x1997 PUSH2 0x196F JUMP JUMPDEST POP PUSH1 0x1 ADD SWAP1 JUMP JUMPDEST PUSH1 0x0 PUSH1 0x20 DUP3 DUP5 SUB SLT ISZERO PUSH2 0x19B0 JUMPI PUSH1 0x0 DUP1 REVERT JUMPDEST DUP2 MLOAD PUSH2 0x16B3 DUP2 PUSH2 0x17AA JUMP JUMPDEST PUSH4 0x4E487B71 PUSH1 0xE0 SHL PUSH1 0x0 MSTORE PUSH1 0x41 PUSH1 0x4 MSTORE PUSH1 0x24 PUSH1 0x0 REVERT JUMPDEST PUSH1 0x40 MLOAD PUSH1 0x1F DUP3 ADD PUSH1 0x1F NOT AND DUP2 ADD PUSH8 0xFFFFFFFFFFFFFFFF DUP2 GT DUP3 DUP3 LT OR ISZERO PUSH2 0x19FA JUMPI PUSH2 0x19FA PUSH2 0x19BB JUMP JUMPDEST PUSH1 0x40 MSTORE SWAP2 SWAP1 POP JUMP JUMPDEST PUSH1 0x0 PUSH8 0xFFFFFFFFFFFFFFFF DUP3 GT ISZERO PUSH2 0x1A1C JUMPI PUSH2 0x1A1C PUSH2 0x19BB JUMP JUMPDEST POP PUSH1 0x5 SHL PUSH1 0x20 ADD SWAP1 JUMP JUMPDEST PUSH1 0x0 PUSH1 0x20 DUP1 DUP4 DUP6 SUB SLT ISZERO PUSH2 0x1A39 JUMPI PUSH1 0x0 DUP1 REVERT JUMPDEST DUP3 MLOAD PUSH8 0xFFFFFFFFFFFFFFFF DUP2 GT ISZERO PUSH2 0x1A50 JUMPI PUSH1 0x0 DUP1 REVERT JUMPDEST DUP4 ADD PUSH1 0x1F DUP2 ADD DUP6 SGT PUSH2 0x1A61 JUMPI PUSH1 0x0 DUP1 REVERT JUMPDEST DUP1 MLOAD PUSH2 0x1A74 PUSH2 0x1A6F DUP3 PUSH2 0x1A02 JUMP JUMPDEST PUSH2 0x19D1 JUMP JUMPDEST DUP2 DUP2 MSTORE PUSH1 0x5 SWAP2 SWAP1 SWAP2 SHL DUP3 ADD DUP4 ADD SWAP1 DUP4 DUP2 ADD SWAP1 DUP8 DUP4 GT ISZERO PUSH2 0x1A93 JUMPI PUSH1 0x0 DUP1 REVERT JUMPDEST SWAP3 DUP5 ADD SWAP3 JUMPDEST DUP3 DUP5 LT ISZERO PUSH2 0x1AB1 JUMPI DUP4 MLOAD DUP3 MSTORE SWAP3 DUP5 ADD SWAP3 SWAP1 DUP5 ADD SWAP1 PUSH2 0x1A98 JUMP JUMPDEST SWAP8 SWAP7 POP POP POP POP POP POP POP JUMP JUMPDEST PUSH1 0x0 PUSH1 0x20 DUP1 DUP4 DUP6 SUB SLT ISZERO PUSH2 0x1ACF JUMPI PUSH1 0x0 DUP1 REVERT JUMPDEST DUP3 MLOAD PUSH8 0xFFFFFFFFFFFFFFFF DUP2 GT ISZERO PUSH2 0x1AE6 JUMPI PUSH1 0x0 DUP1 REVERT JUMPDEST DUP4 ADD PUSH1 0x1F DUP2 ADD DUP6 SGT PUSH2 0x1AF7 JUMPI PUSH1 0x0 DUP1 REVERT JUMPDEST DUP1 MLOAD PUSH2 0x1B05 PUSH2 0x1A6F DUP3 PUSH2 0x1A02 JUMP JUMPDEST DUP2 DUP2 MSTORE PUSH1 0x5 SWAP2 SWAP1 SWAP2 SHL DUP3 ADD DUP4 ADD SWAP1 DUP4 DUP2 ADD SWAP1 DUP8 DUP4 GT ISZERO PUSH2 0x1B24 JUMPI PUSH1 0x0 DUP1 REVERT JUMPDEST SWAP3 DUP5 ADD SWAP3 JUMPDEST DUP3 DUP5 LT ISZERO PUSH2 0x1AB1 JUMPI DUP4 MLOAD PUSH2 0x1B3C DUP2 PUSH2 0x16E4 JUMP JUMPDEST DUP3 MSTORE SWAP3 DUP5 ADD SWAP3 SWAP1 DUP5 ADD SWAP1 PUSH2 0x1B29 JUMP JUMPDEST PUSH1 0x0 JUMPDEST DUP4 DUP2 LT ISZERO PUSH2 0x1B66 JUMPI DUP2 DUP2 ADD MLOAD DUP4 DUP3 ADD MSTORE PUSH1 0x20 ADD PUSH2 0x1B4E JUMP JUMPDEST POP POP PUSH1 0x0 SWAP2 ADD MSTORE JUMP JUMPDEST PUSH1 0x0 PUSH8 0xFFFFFFFFFFFFFFFF DUP4 GT ISZERO PUSH2 0x1B89 JUMPI PUSH2 0x1B89 PUSH2 0x19BB JUMP JUMPDEST PUSH2 0x1B9C PUSH1 0x1F DUP5 ADD PUSH1 0x1F NOT AND PUSH1 0x20 ADD PUSH2 0x19D1 JUMP JUMPDEST SWAP1 POP DUP3 DUP2 MSTORE DUP4 DUP4 DUP4 ADD GT ISZERO PUSH2 0x1BB0 JUMPI PUSH1 0x0 DUP1 REVERT JUMPDEST PUSH2 0x16B3 DUP4 PUSH1 0x20 DUP4 ADD DUP5 PUSH2 0x1B4B JUMP JUMPDEST PUSH1 0x0 DUP3 PUSH1 0x1F DUP4 ADD SLT PUSH2 0x1BCF JUMPI PUSH1 0x0 DUP1 REVERT JUMPDEST PUSH2 0x16B3 DUP4 DUP4 MLOAD PUSH1 0x20 DUP6 ADD PUSH2 0x1B6F JUMP JUMPDEST PUSH1 0x0 DUP1 PUSH1 0x0 DUP1 PUSH1 0x0 DUP1 PUSH1 0xC0 DUP8 DUP10 SUB SLT ISZERO PUSH2 0x1BF7 JUMPI PUSH1 0x0 DUP1 REVERT JUMPDEST DUP7 MLOAD SWAP6 POP PUSH1 0x20 DUP8 ADD MLOAD SWAP5 POP PUSH1 0x40 DUP8 ADD MLOAD PUSH2 0x1C10 DUP2 PUSH2 0x16E4 JUMP JUMPDEST PUSH1 0x60 DUP9 ADD MLOAD SWAP1 SWAP5 POP PUSH8 0xFFFFFFFFFFFFFFFF DUP1 DUP3 GT ISZERO PUSH2 0x1C2E JUMPI PUSH1 0x0 DUP1 REVERT JUMPDEST PUSH2 0x1C3A DUP11 DUP4 DUP12 ADD PUSH2 0x1BBE JUMP JUMPDEST SWAP5 POP PUSH1 0x80 DUP10 ADD MLOAD SWAP2 POP DUP1 DUP3 GT ISZERO PUSH2 0x1C50 JUMPI PUSH1 0x0 DUP1 REVERT JUMPDEST PUSH2 0x1C5C DUP11 DUP4 DUP12 ADD PUSH2 0x1BBE JUMP JUMPDEST SWAP4 POP PUSH1 0xA0 DUP10 ADD MLOAD SWAP2 POP DUP1 DUP3 GT ISZERO PUSH2 0x1C72 JUMPI PUSH1 0x0 DUP1 REVERT JUMPDEST POP DUP8 ADD PUSH1 0x1F DUP2 ADD DUP10 SGT PUSH2 0x1C84 JUMPI PUSH1 0x0 DUP1 REVERT JUMPDEST PUSH2 0x1C93 DUP10 DUP3 MLOAD PUSH1 0x20 DUP5 ADD PUSH2 0x1B6F JUMP JUMPDEST SWAP2 POP POP SWAP3 SWAP6 POP SWAP3 SWAP6 POP SWAP3 SWAP6 JUMP JUMPDEST PUSH1 0x0 DUP2 MLOAD DUP1 DUP5 MSTORE PUSH2 0x1CB8 DUP2 PUSH1 0x20 DUP7 ADD PUSH1 0x20 DUP7 ADD PUSH2 0x1B4B JUMP JUMPDEST PUSH1 0x1F ADD PUSH1 0x1F NOT AND SWAP3 SWAP1 SWAP3 ADD PUSH1 0x20 ADD SWAP3 SWAP2 POP POP JUMP JUMPDEST PUSH1 0x1 DUP1 PUSH1 0xA0 SHL SUB DUP6 AND DUP2 MSTORE DUP4 PUSH1 0x20 DUP3 ADD MSTORE PUSH1 0x80 PUSH1 0x40 DUP3 ADD MSTORE PUSH1 0x0 PUSH2 0x1CF3 PUSH1 0x80 DUP4 ADD DUP6 PUSH2 0x1CA0 JUMP JUMPDEST DUP3 DUP2 SUB PUSH1 0x60 DUP5 ADD MSTORE PUSH2 0x1AB1 DUP2 DUP6 PUSH2 0x1CA0 JUMP JUMPDEST PUSH1 0x0 PUSH1 0x20 DUP3 DUP5 SUB SLT ISZERO PUSH2 0x1D17 JUMPI PUSH1 0x0 DUP1 REVERT JUMPDEST DUP2 MLOAD DUP1 ISZERO ISZERO DUP2 EQ PUSH2 0x16B3 JUMPI PUSH1 0x0 DUP1 REVERT JUMPDEST DUP2 DUP2 SUB DUP2 DUP2 GT ISZERO PUSH2 0x450 JUMPI PUSH2 0x450 PUSH2 0x196F JUMP JUMPDEST PUSH1 0x0 PUSH1 0x20 DUP3 DUP5 SUB SLT ISZERO PUSH2 0x1D4C JUMPI PUSH1 0x0 DUP1 REVERT JUMPDEST DUP2 MLOAD PUSH2 0x16B3 DUP2 PUSH2 0x16E4 JUMP JUMPDEST PUSH1 0x20 DUP1 DUP3 MSTORE PUSH1 0x2B SWAP1 DUP3 ADD MSTORE PUSH32 0x496E697469616C697A61626C653A20636F6E7472616374206973206E6F742069 PUSH1 0x40 DUP3 ADD MSTORE PUSH11 0x6E697469616C697A696E67 PUSH1 0xA8 SHL PUSH1 0x60 DUP3 ADD MSTORE PUSH1 0x80 ADD SWAP1 JUMP JUMPDEST PUSH32 0x416363657373436F6E74726F6C3A206163636F756E7420000000000000000000 DUP2 MSTORE PUSH1 0x0 DUP4 MLOAD PUSH2 0x1DDA DUP2 PUSH1 0x17 DUP6 ADD PUSH1 0x20 DUP9 ADD PUSH2 0x1B4B JUMP JUMPDEST PUSH17 0x1034B99036B4B9B9B4B733903937B6329 PUSH1 0x7D SHL PUSH1 0x17 SWAP2 DUP5 ADD SWAP2 DUP3 ADD MSTORE DUP4 MLOAD PUSH2 0x1E0B DUP2 PUSH1 0x28 DUP5 ADD PUSH1 0x20 DUP9 ADD PUSH2 0x1B4B JUMP JUMPDEST ADD PUSH1 0x28 ADD SWAP5 SWAP4 POP POP POP POP JUMP JUMPDEST PUSH1 0x20 DUP2 MSTORE PUSH1 0x0 PUSH2 0x16B3 PUSH1 0x20 DUP4 ADD DUP5 PUSH2 0x1CA0 JUMP JUMPDEST DUP1 DUP3 MUL DUP2 ISZERO DUP3 DUP3 DIV DUP5 EQ OR PUSH2 0x450 JUMPI PUSH2 0x450 PUSH2 0x196F JUMP JUMPDEST DUP1 DUP3 ADD DUP1 DUP3 GT ISZERO PUSH2 0x450 JUMPI PUSH2 0x450 PUSH2 0x196F JUMP JUMPDEST PUSH1 0x0 DUP2 PUSH2 0x1E63 JUMPI PUSH2 0x1E63 PUSH2 0x196F JUMP JUMPDEST POP PUSH1 0x0 NOT ADD SWAP1 JUMP INVALID 0xB1 SWAP6 CHAINID 0xDF CREATE 0x1E DUP6 PUSH16 0xB3F010C267A7B1C60363CF8A4664E21C 0xC8 SWAP13 0x26 0x22 CHAINID KECCAK256 0x21 0x4E 0xCA 0xB5 LOG0 0xBF 0xE0 0xB7 SWAP14 0x2C 0x4B SHR 0x2E MUL MSIZE SWAP16 LOG0 DIFFICULTY 0xD1 ISZERO 0xB7 MLOAD 0x1F SWAP7 MSIZE ADDRESS PUSH29 0xB4276950967709A2646970667358221220E7A0B492083A7C3C8CDAD88C CALLCODE GASLIMIT SGT 0xC6 0xB5 0xE8 DELEGATECALL LT 0x2C ADDMOD 0xE5 EXTCODEHASH 0xF6 SSTORE 0x24 0xBD SWAP8 SWAP13 0x21 PUSH1 0x64 PUSH20 0x6F6C634300081100330000000000000000000000 "
				},
				"gasEstimates": {
					"creation": {
						"codeDepositCost": "1581000",
						"executionCost": "1659",
						"totalCost": "1582659"
					},
					"external": {
						"AGENT_ROLE()": "infinite",
						"DEFAULT_ADMIN_ROLE()": "262",
						"OWNER_ROLE()": "infinite",
						"batchRegisterIdentity(address[],address[],uint16[])": "infinite",
						"contains(address)": "infinite",
						"deleteIdentity(address)": "infinite",
						"getRoleAdmin(bytes32)": "2490",
						"grantRole(bytes32,address)": "infinite",
						"hasRole(bytes32,address)": "2698",
						"identity(address)": "infinite",
						"identityStorage()": "2419",
						"init(address,address,address)": "infinite",
						"investorCountry(address)": "infinite",
						"isVerified(address)": "infinite",
						"issuersRegistry()": "2442",
						"owner()": "2399",
						"registerIdentity(address,address,uint16)": "infinite",
						"renounceOwnership()": "infinite",
						"renounceRole(bytes32,address)": "29112",
						"revokeRole(bytes32,address)": "infinite",
						"setClaimTopicsRegistry(address)": "infinite",
						"setIdentityRegistryStorage(address)": "infinite",
						"setTrustedIssuersRegistry(address)": "infinite",
						"supportsInterface(bytes4)": "473",
						"topicsRegistry()": "2388",
						"transferOwnership(address)": "infinite",
						"updateCountry(address,uint16)": "infinite",
						"updateIdentity(address,address)": "infinite"
					}
				},
				"methodIdentifiers": {
					"AGENT_ROLE()": "22459e18",
					"DEFAULT_ADMIN_ROLE()": "a217fddf",
					"OWNER_ROLE()": "e58378bb",
					"batchRegisterIdentity(address[],address[],uint16[])": "653dc9f1",
					"contains(address)": "5dbe47e8",
					"deleteIdentity(address)": "a8d29d1d",
					"getRoleAdmin(bytes32)": "248a9ca3",
					"grantRole(bytes32,address)": "2f2ff15d",
					"hasRole(bytes32,address)": "91d14854",
					"identity(address)": "f0eb5e54",
					"identityStorage()": "f11abfd8",
					"init(address,address,address)": "184b9559",
					"investorCountry(address)": "7e42683b",
					"isVerified(address)": "b9209e33",
					"issuersRegistry()": "b4f3fcb7",
					"owner()": "8da5cb5b",
					"registerIdentity(address,address,uint16)": "454a03e0",
					"renounceOwnership()": "715018a6",
					"renounceRole(bytes32,address)": "36568abe",
					"revokeRole(bytes32,address)": "d547741f",
					"setClaimTopicsRegistry(address)": "670af6a9",
					"setIdentityRegistryStorage(address)": "26d941ae",
					"setTrustedIssuersRegistry(address)": "e744d789",
					"supportsInterface(bytes4)": "01ffc9a7",
					"topicsRegistry()": "3b3e12f4",
					"transferOwnership(address)": "f2fde38b",
					"updateCountry(address,uint16)": "3b239a7f",
					"updateIdentity(address,address)": "8e098ca1"
				}
			},
			"storageLayout": {
				"storage": [
					{
						"astId": 871,
						"contract": "erc3643/registry/implementation/IdentityRegistry.sol:IdentityRegistry",
						"label": "_initialized",
						"offset": 0,
						"slot": "0",
						"type": "t_uint8"
					},
					{
						"astId": 874,
						"contract": "erc3643/registry/implementation/IdentityRegistry.sol:IdentityRegistry",
						"label": "_initializing",
						"offset": 1,
						"slot": "0",
						"type": "t_bool"
					},
					{
						"astId": 1404,
						"contract": "erc3643/registry/implementation/IdentityRegistry.sol:IdentityRegistry",
						"label": "__gap",
						"offset": 0,
						"slot": "1",
						"type": "t_array(t_uint256)50_storage"
					},
					{
						"astId": 1677,
						"contract": "erc3643/registry/implementation/IdentityRegistry.sol:IdentityRegistry",
						"label": "__gap",
						"offset": 0,
						"slot": "51",
						"type": "t_array(t_uint256)50_storage"
					},
					{
						"astId": 363,
						"contract": "erc3643/registry/implementation/IdentityRegistry.sol:IdentityRegistry",
						"label": "_roles",
						"offset": 0,
						"slot": "101",
						"type": "t_mapping(t_bytes32,t_struct(RoleData)358_storage)"
					},
					{
						"astId": 658,
						"contract": "erc3643/registry/implementation/IdentityRegistry.sol:IdentityRegistry",
						"label": "__gap",
						"offset": 0,
						"slot": "102",
						"type": "t_array(t_uint256)49_storage"
					},
					{
						"astId": 743,
						"contract": "erc3643/registry/implementation/IdentityRegistry.sol:IdentityRegistry",
						"label": "_owner",
						"offset": 0,
						"slot": "151",
						"type": "t_address"
					},
					{
						"astId": 863,
						"contract": "erc3643/registry/implementation/IdentityRegistry.sol:IdentityRegistry",
						"label": "__gap",
						"offset": 0,
						"slot": "152",
						"type": "t_array(t_uint256)49_storage"
					},
					{
						"astId": 3684,
						"contract": "erc3643/registry/implementation/IdentityRegistry.sol:IdentityRegistry",
						"label": "_tokenTopicsRegistry",
						"offset": 0,
						"slot": "201",
						"type": "t_contract(IClaimTopicsRegistry)3331"
					},
					{
						"astId": 3687,
						"contract": "erc3643/registry/implementation/IdentityRegistry.sol:IdentityRegistry",
						"label": "_tokenIssuersRegistry",
						"offset": 0,
						"slot": "202",
						"type": "t_contract(ITrustedIssuersRegistry)3676"
					},
					{
						"astId": 3690,
						"contract": "erc3643/registry/implementation/IdentityRegistry.sol:IdentityRegistry",
						"label": "_tokenIdentityStorage",
						"offset": 0,
						"slot": "203",
						"type": "t_contract(IIdentityRegistryStorage)3586"
					},
					{
						"astId": 3694,
						"contract": "erc3643/registry/implementation/IdentityRegistry.sol:IdentityRegistry",
						"label": "__gap",
						"offset": 0,
						"slot": "204",
						"type": "t_array(t_uint256)49_storage"
					}
				],
				"types": {
					"t_address": {
						"encoding": "inplace",
						"label": "address",
						"numberOfBytes": "20"
					},
					"t_array(t_uint256)49_storage": {
						"base": "t_uint256",
						"encoding": "inplace",
						"label": "uint256[49]",
						"numberOfBytes": "1568"
					},
					"t_array(t_uint256)50_storage": {
						"base": "t_uint256",
						"encoding": "inplace",
						"label": "uint256[50]",
						"numberOfBytes": "1600"
					},
					"t_bool": {
						"encoding": "inplace",
						"label": "bool",
						"numberOfBytes": "1"
					},
					"t_bytes32": {
						"encoding": "inplace",
						"label": "bytes32",
						"numberOfBytes": "32"
					},
					"t_contract(IClaimTopicsRegistry)3331": {
						"encoding": "inplace",
						"label": "contract IClaimTopicsRegistry",
						"numberOfBytes": "20"
					},
					"t_contract(IIdentityRegistryStorage)3586": {
						"encoding": "inplace",
						"label": "contract IIdentityRegistryStorage",
						"numberOfBytes": "20"
					},
					"t_contract(ITrustedIssuersRegistry)3676": {
						"encoding": "inplace",
						"label": "contract ITrustedIssuersRegistry",
						"numberOfBytes": "20"
					},
					"t_mapping(t_address,t_bool)": {
						"encoding": "mapping",
						"key": "t_address",
						"label": "mapping(address => bool)",
						"numberOfBytes": "32",
						"value": "t_bool"
					},
					"t_mapping(t_bytes32,t_struct(RoleData)358_storage)": {
						"encoding": "mapping",
						"key": "t_bytes32",
						"label": "mapping(bytes32 => struct AccessControlUpgradeable.RoleData)",
						"numberOfBytes": "32",
						"value": "t_struct(RoleData)358_storage"
					},
					"t_struct(RoleData)358_storage": {
						"encoding": "inplace",
						"label": "struct AccessControlUpgradeable.RoleData",
						"members": [
							{
								"astId": 355,
								"contract": "erc3643/registry/implementation/IdentityRegistry.sol:IdentityRegistry",
								"label": "members",
								"offset": 0,
								"slot": "0",
								"type": "t_mapping(t_address,t_bool)"
							},
							{
								"astId": 357,
								"contract": "erc3643/registry/implementation/IdentityRegistry.sol:IdentityRegistry",
								"label": "adminRole",
								"offset": 0,
								"slot": "1",
								"type": "t_bytes32"
							}
						],
						"numberOfBytes": "64"
					},
					"t_uint256": {
						"encoding": "inplace",
						"label": "uint256",
						"numberOfBytes": "32"
					},
					"t_uint8": {
						"encoding": "inplace",
						"label": "uint8",
						"numberOfBytes": "1"
					}
				}
			},
			"userdoc": {
				"kind": "user",
				"methods": {},
				"version": 1
			}
		}
	}
}