{
	"erc3643/proxy/ModularComplianceProxy.sol": {
		"ModularComplianceProxy": {
			"abi": [
				{
					"inputs": [
						{
							"internalType": "address",
							"name": "implementationAuthority",
							"type": "address"
						}
					],
					"stateMutability": "nonpayable",
					"type": "constructor"
				},
				{
					"anonymous": false,
					"inputs": [
						{
							"indexed": true,
							"internalType": "address",
							"name": "_implementationAuthority",
							"type": "address"
						}
					],
					"name": "ImplementationAuthoritySet",
					"type": "event"
				},
				{
					"anonymous": false,
					"inputs": [
						{
							"indexed": false,
							"internalType": "uint8",
							"name": "version",
							"type": "uint8"
						}
					],
					"name": "Initialized",
					"type": "event"
				},
				{
					"stateMutability": "nonpayable",
					"type": "fallback"
				},
				{
					"inputs": [],
					"name": "getImplementationAuthority",
					"outputs": [
						{
							"internalType": "address",
							"name": "",
							"type": "address"
						}
					],
					"stateMutability": "view",
					"type": "function"
				},
				{
					"inputs": [
						{
							"internalType": "address",
							"name": "_newImplementationAuthority",
							"type": "address"
						}
					],
					"name": "setImplementationAuthority",
					"outputs": [],
					"stateMutability": "nonpayable",
					"type": "function"
				}
			],
			"devdoc": {
				"kind": "dev",
				"methods": {},
				"version": 1
			},
			"evm": {
				"assembly": "    /* \"erc3643/proxy/ModularComplianceProxy.sol\":93:1544  contract ModularComplianceProxy is AbstractProxy {... */\n  mstore(0x40, 0x80)\n    /* \"erc3643/proxy/ModularComplianceProxy.sol\":148:771  constructor(address implementationAuthority) {... */\n  callvalue\n  dup1\n  iszero\n  tag_1\n  jumpi\n  0x00\n  dup1\n  revert\ntag_1:\n  pop\n  mload(0x40)\n  sub(codesize, bytecodeSize)\n  dup1\n  bytecodeSize\n  dup4\n  codecopy\n  dup2\n  add\n  0x40\n  dup2\n  swap1\n  mstore\n  tag_2\n  swap2\n  tag_3\n  jump\t// in\ntag_2:\n  sub(shl(0xa0, 0x01), 0x01)\n    /* \"erc3643/proxy/ModularComplianceProxy.sol\":224:261  implementationAuthority != address(0) */\n  dup2\n  and\n    /* \"erc3643/proxy/ModularComplianceProxy.sol\":203:318  require(... */\n  tag_6\n  jumpi\n  mload(0x40)\n  shl(0xe5, 0x461bcd)\n  dup2\n  mstore\n    /* \"#utility.yul\":511:513   */\n  0x20\n    /* \"erc3643/proxy/ModularComplianceProxy.sol\":203:318  require(... */\n  0x04\n  dup3\n  add\n    /* \"#utility.yul\":493:514   */\n  mstore\n    /* \"#utility.yul\":550:552   */\n  0x1f\n    /* \"#utility.yul\":530:548   */\n  0x24\n  dup3\n  add\n    /* \"#utility.yul\":523:553   */\n  mstore\n    /* \"#utility.yul\":589:622   */\n  0x696e76616c696420617267756d656e74202d207a65726f206164647265737300\n    /* \"#utility.yul\":569:587   */\n  0x44\n  dup3\n  add\n    /* \"#utility.yul\":562:623   */\n  mstore\n    /* \"#utility.yul\":640:658   */\n  0x64\n  add\n    /* \"erc3643/proxy/ModularComplianceProxy.sol\":203:318  require(... */\ntag_7:\n  mload(0x40)\n  dup1\n  swap2\n  sub\n  swap1\n  revert\ntag_6:\n    /* \"erc3643/proxy/ModularComplianceProxy.sol\":328:382  _storeImplementationAuthority(implementationAuthority) */\n  tag_9\n    /* \"erc3643/proxy/ModularComplianceProxy.sol\":358:381  implementationAuthority */\n  dup2\n  0x00\n  dup1\n  mload\n  0x20\n  data_84a68099d90273a356d72f7f1ac67971932136236b8a743afb53ffad2bcdb03d\n  dup4\n  codecopy\n  dup2\n  mload\n  swap2\n  mstore\n    /* \"erc3643/proxy/AbstractProxy.sol\":1262:1407  sstore(... */\n  sstore\n    /* \"erc3643/proxy/AbstractProxy.sol\":1136:1423  function _storeImplementationAuthority(address implementationAuthority)... */\n  jump\n    /* \"erc3643/proxy/ModularComplianceProxy.sol\":328:382  _storeImplementationAuthority(implementationAuthority) */\ntag_9:\n    /* \"erc3643/proxy/ModularComplianceProxy.sol\":397:448  ImplementationAuthoritySet(implementationAuthority) */\n  mload(0x40)\n  sub(shl(0xa0, 0x01), 0x01)\n  dup3\n  and\n  swap1\n  0x3b1074392ed8e8424715d0dda2197eede67080b377fc8370e26f3e882207f6b8\n  swap1\n  0x00\n  swap1\n  log2\n    /* \"erc3643/proxy/ModularComplianceProxy.sol\":459:472  address logic */\n  0x00\n    /* \"erc3643/proxy/ModularComplianceProxy.sol\":484:512  getImplementationAuthority() */\n  tag_11\n  0x00\n  dup1\n  mload\n  0x20\n  data_84a68099d90273a356d72f7f1ac67971932136236b8a743afb53ffad2bcdb03d\n  dup4\n  codecopy\n  dup2\n  mload\n  swap2\n  mstore\n    /* \"erc3643/proxy/AbstractProxy.sol\":984:1087  sload(... */\n  sload\n  swap1\n    /* \"erc3643/proxy/AbstractProxy.sol\":795:1130  function getImplementationAuthority()... */\n  jump\n    /* \"erc3643/proxy/ModularComplianceProxy.sol\":484:512  getImplementationAuthority() */\ntag_11:\n  sub(shl(0xa0, 0x01), 0x01)\n    /* \"erc3643/proxy/ModularComplianceProxy.sol\":475:546  Ifactory(getImplementationAuthority())... */\n  and\n  0x61f89825\n    /* \"erc3643/proxy/ModularComplianceProxy.sol\":475:548  Ifactory(getImplementationAuthority())... */\n  mload(0x40)\n  dup2\n  0xffffffff\n  and\n  0xe0\n  shl\n  dup2\n  mstore\n  0x04\n  add\n  0x20\n  mload(0x40)\n  dup1\n  dup4\n  sub\n  dup2\n  dup7\n  gas\n  staticcall\n  iszero\n  dup1\n  iszero\n  tag_14\n  jumpi\n  returndatasize\n  0x00\n  dup1\n  returndatacopy\n  revert(0x00, returndatasize)\ntag_14:\n  pop\n  pop\n  pop\n  pop\n  mload(0x40)\n  returndatasize\n  not(0x1f)\n  0x1f\n  dup3\n  add\n  and\n  dup3\n  add\n  dup1\n  0x40\n  mstore\n  pop\n  dup2\n  add\n  swap1\n  tag_15\n  swap2\n  swap1\n  tag_3\n  jump\t// in\ntag_15:\n    /* \"erc3643/proxy/ModularComplianceProxy.sol\":669:702  abi.encodeWithSignature(\"init()\") */\n  0x40\n  dup1\n  mload\n  0x04\n  dup2\n  mstore\n  0x24\n  dup2\n  add\n  dup3\n  mstore\n  0x20\n  dup2\n  add\n  dup1\n  mload\n  sub(shl(0xe0, 0x01), 0x01)\n  and\n  shl(0xe1, 0x70e39c95)\n  or\n  swap1\n  mstore\n    /* \"erc3643/proxy/ModularComplianceProxy.sol\":637:712  logic.delegatecall(... */\n  swap1\n  mload\n    /* \"erc3643/proxy/ModularComplianceProxy.sol\":459:548  address logic = Ifactory(getImplementationAuthority())... */\n  swap2\n  swap3\n  pop\n    /* \"erc3643/proxy/ModularComplianceProxy.sol\":619:631  bool success */\n  0x00\n  swap2\n  sub(shl(0xa0, 0x01), 0x01)\n    /* \"erc3643/proxy/ModularComplianceProxy.sol\":637:655  logic.delegatecall */\n  dup5\n  and\n  swap2\n    /* \"erc3643/proxy/ModularComplianceProxy.sol\":637:712  logic.delegatecall(... */\n  tag_16\n  swap2\n  tag_17\n  jump\t// in\ntag_16:\n  0x00\n  mload(0x40)\n  dup1\n  dup4\n  sub\n  dup2\n  dup6\n  gas\n  delegatecall\n  swap2\n  pop\n  pop\n  returndatasize\n  dup1\n  0x00\n  dup2\n  eq\n  tag_20\n  jumpi\n  mload(0x40)\n  swap2\n  pop\n  and(add(returndatasize, 0x3f), not(0x1f))\n  dup3\n  add\n  0x40\n  mstore\n  returndatasize\n  dup3\n  mstore\n  returndatasize\n  0x00\n  0x20\n  dup5\n  add\n  returndatacopy\n  jump(tag_19)\ntag_20:\n  0x60\n  swap2\n  pop\ntag_19:\n  pop\n    /* \"erc3643/proxy/ModularComplianceProxy.sol\":618:712  (bool success, ) = logic.delegatecall(... */\n  pop\n  swap1\n  pop\n    /* \"erc3643/proxy/ModularComplianceProxy.sol\":730:737  success */\n  dup1\n    /* \"erc3643/proxy/ModularComplianceProxy.sol\":722:764  require(success, \"Initialization failed.\") */\n  tag_21\n  jumpi\n  mload(0x40)\n  shl(0xe5, 0x461bcd)\n  dup2\n  mstore\n    /* \"#utility.yul\":1288:1290   */\n  0x20\n    /* \"erc3643/proxy/ModularComplianceProxy.sol\":722:764  require(success, \"Initialization failed.\") */\n  0x04\n  dup3\n  add\n    /* \"#utility.yul\":1270:1291   */\n  mstore\n    /* \"#utility.yul\":1327:1329   */\n  0x16\n    /* \"#utility.yul\":1307:1325   */\n  0x24\n  dup3\n  add\n    /* \"#utility.yul\":1300:1330   */\n  mstore\n    /* \"#utility.yul\":1366:1390   */\n  0x496e697469616c697a6174696f6e206661696c65642e00000000000000000000\n    /* \"#utility.yul\":1346:1364   */\n  0x44\n  dup3\n  add\n    /* \"#utility.yul\":1339:1391   */\n  mstore\n    /* \"#utility.yul\":1408:1426   */\n  0x64\n  add\n    /* \"erc3643/proxy/ModularComplianceProxy.sol\":722:764  require(success, \"Initialization failed.\") */\n  tag_7\n    /* \"#utility.yul\":1086:1432   */\n  jump\n    /* \"erc3643/proxy/ModularComplianceProxy.sol\":722:764  require(success, \"Initialization failed.\") */\ntag_21:\n    /* \"erc3643/proxy/ModularComplianceProxy.sol\":193:771  {... */\n  pop\n  pop\n    /* \"erc3643/proxy/ModularComplianceProxy.sol\":148:771  constructor(address implementationAuthority) {... */\n  pop\n    /* \"erc3643/proxy/ModularComplianceProxy.sol\":93:1544  contract ModularComplianceProxy is AbstractProxy {... */\n  jump(tag_27)\n    /* \"#utility.yul\":14:304   */\ntag_3:\n    /* \"#utility.yul\":84:90   */\n  0x00\n    /* \"#utility.yul\":137:139   */\n  0x20\n    /* \"#utility.yul\":125:134   */\n  dup3\n    /* \"#utility.yul\":116:123   */\n  dup5\n    /* \"#utility.yul\":112:135   */\n  sub\n    /* \"#utility.yul\":108:140   */\n  slt\n    /* \"#utility.yul\":105:157   */\n  iszero\n  tag_29\n  jumpi\n    /* \"#utility.yul\":153:154   */\n  0x00\n    /* \"#utility.yul\":150:151   */\n  dup1\n    /* \"#utility.yul\":143:155   */\n  revert\n    /* \"#utility.yul\":105:157   */\ntag_29:\n    /* \"#utility.yul\":179:195   */\n  dup2\n  mload\n  sub(shl(0xa0, 0x01), 0x01)\n    /* \"#utility.yul\":224:255   */\n  dup2\n  and\n    /* \"#utility.yul\":214:256   */\n  dup2\n  eq\n    /* \"#utility.yul\":204:274   */\n  tag_30\n  jumpi\n    /* \"#utility.yul\":270:271   */\n  0x00\n    /* \"#utility.yul\":267:268   */\n  dup1\n    /* \"#utility.yul\":260:272   */\n  revert\n    /* \"#utility.yul\":204:274   */\ntag_30:\n    /* \"#utility.yul\":293:298   */\n  swap4\n    /* \"#utility.yul\":14:304   */\n  swap3\n  pop\n  pop\n  pop\n  jump\t// out\n    /* \"#utility.yul\":669:1081   */\ntag_17:\n    /* \"#utility.yul\":798:801   */\n  0x00\n    /* \"#utility.yul\":836:842   */\n  dup3\n    /* \"#utility.yul\":830:843   */\n  mload\n    /* \"#utility.yul\":861:862   */\n  0x00\n    /* \"#utility.yul\":871:1000   */\ntag_33:\n    /* \"#utility.yul\":885:891   */\n  dup2\n    /* \"#utility.yul\":882:883   */\n  dup2\n    /* \"#utility.yul\":879:892   */\n  lt\n    /* \"#utility.yul\":871:1000   */\n  iszero\n  tag_35\n  jumpi\n    /* \"#utility.yul\":983:987   */\n  0x20\n    /* \"#utility.yul\":967:981   */\n  dup2\n  dup7\n  add\n    /* \"#utility.yul\":963:988   */\n  dup2\n  add\n    /* \"#utility.yul\":957:989   */\n  mload\n    /* \"#utility.yul\":944:955   */\n  dup6\n  dup4\n  add\n    /* \"#utility.yul\":937:990   */\n  mstore\n    /* \"#utility.yul\":900:912   */\n  add\n    /* \"#utility.yul\":871:1000   */\n  jump(tag_33)\ntag_35:\n  pop\n    /* \"#utility.yul\":1055:1056   */\n  0x00\n    /* \"#utility.yul\":1019:1035   */\n  swap3\n  add\n    /* \"#utility.yul\":1044:1057   */\n  swap2\n  dup3\n  mstore\n  pop\n    /* \"#utility.yul\":1019:1035   */\n  swap2\n    /* \"#utility.yul\":669:1081   */\n  swap1\n  pop\n  jump\t// out\n    /* \"#utility.yul\":1086:1432   */\ntag_27:\n    /* \"erc3643/proxy/ModularComplianceProxy.sol\":93:1544  contract ModularComplianceProxy is AbstractProxy {... */\n  dataSize(sub_0)\n  dup1\n  dataOffset(sub_0)\n  0x00\n  codecopy\n  0x00\n  return\nstop\ndata_84a68099d90273a356d72f7f1ac67971932136236b8a743afb53ffad2bcdb03d c5f16f0fcc639fa48a6947836d9850f504798523bf8c9a3a87d5876cf622bcf7\n\nsub_0: assembly {\n        /* \"erc3643/proxy/ModularComplianceProxy.sol\":93:1544  contract ModularComplianceProxy is AbstractProxy {... */\n      mstore(0x40, 0x80)\n      callvalue\n      dup1\n      iszero\n      tag_1\n      jumpi\n      0x00\n      dup1\n      revert\n    tag_1:\n      pop\n      jumpi(tag_2, lt(calldatasize, 0x04))\n      shr(0xe0, calldataload(0x00))\n      dup1\n      0x2d5f1187\n      eq\n      tag_4\n      jumpi\n      dup1\n      0x92dd9d65\n      eq\n      tag_5\n      jumpi\n    tag_2:\n        /* \"erc3643/proxy/ModularComplianceProxy.sol\":860:873  address logic */\n      0x00\n        /* \"erc3643/proxy/ModularComplianceProxy.sol\":885:913  getImplementationAuthority() */\n      tag_8\n      0x00\n      dup1\n      mload\n      0x20\n      data_84a68099d90273a356d72f7f1ac67971932136236b8a743afb53ffad2bcdb03d\n      dup4\n      codecopy\n      dup2\n      mload\n      swap2\n      mstore\n        /* \"erc3643/proxy/AbstractProxy.sol\":984:1087  sload(... */\n      sload\n      swap1\n        /* \"erc3643/proxy/AbstractProxy.sol\":795:1130  function getImplementationAuthority()... */\n      jump\n        /* \"erc3643/proxy/ModularComplianceProxy.sol\":885:913  getImplementationAuthority() */\n    tag_8:\n      sub(shl(0xa0, 0x01), 0x01)\n        /* \"erc3643/proxy/ModularComplianceProxy.sol\":876:947  Ifactory(getImplementationAuthority())... */\n      and\n      0x61f89825\n        /* \"erc3643/proxy/ModularComplianceProxy.sol\":876:949  Ifactory(getImplementationAuthority())... */\n      mload(0x40)\n      dup2\n      0xffffffff\n      and\n      0xe0\n      shl\n      dup2\n      mstore\n      0x04\n      add\n      0x20\n      mload(0x40)\n      dup1\n      dup4\n      sub\n      dup2\n      dup7\n      gas\n      staticcall\n      iszero\n      dup1\n      iszero\n      tag_11\n      jumpi\n      returndatasize\n      0x00\n      dup1\n      returndatacopy\n      revert(0x00, returndatasize)\n    tag_11:\n      pop\n      pop\n      pop\n      pop\n      mload(0x40)\n      returndatasize\n      not(0x1f)\n      0x1f\n      dup3\n      add\n      and\n      dup3\n      add\n      dup1\n      0x40\n      mstore\n      pop\n      dup2\n      add\n      swap1\n      tag_12\n      swap2\n      swap1\n      tag_13\n      jump\t// in\n    tag_12:\n        /* \"erc3643/proxy/ModularComplianceProxy.sol\":860:949  address logic = Ifactory(getImplementationAuthority())... */\n      swap1\n      pop\n        /* \"erc3643/proxy/ModularComplianceProxy.sol\":1062:1076  calldatasize() */\n      calldatasize\n        /* \"erc3643/proxy/ModularComplianceProxy.sol\":1057:1060  0x0 */\n      0x00\n        /* \"erc3643/proxy/ModularComplianceProxy.sol\":1052:1055  0x0 */\n      dup1\n        /* \"erc3643/proxy/ModularComplianceProxy.sol\":1039:1077  calldatacopy(0x0, 0x0, calldatasize()) */\n      calldatacopy\n        /* \"erc3643/proxy/ModularComplianceProxy.sol\":1265:1266  0 */\n      0x00\n        /* \"erc3643/proxy/ModularComplianceProxy.sol\":1246:1247  0 */\n      dup1\n        /* \"erc3643/proxy/ModularComplianceProxy.sol\":1214:1228  calldatasize() */\n      calldatasize\n        /* \"erc3643/proxy/ModularComplianceProxy.sol\":1193:1196  0x0 */\n      0x00\n        /* \"erc3643/proxy/ModularComplianceProxy.sol\":1170:1175  logic */\n      dup5\n        /* \"erc3643/proxy/ModularComplianceProxy.sol\":1146:1151  10000 */\n      0x2710\n        /* \"erc3643/proxy/ModularComplianceProxy.sol\":1139:1144  gas() */\n      gas\n        /* \"erc3643/proxy/ModularComplianceProxy.sol\":1135:1152  sub(gas(), 10000) */\n      sub\n        /* \"erc3643/proxy/ModularComplianceProxy.sol\":1105:1280  delegatecall(... */\n      delegatecall\n        /* \"erc3643/proxy/ModularComplianceProxy.sol\":1306:1322  returndatasize() */\n      returndatasize\n        /* \"erc3643/proxy/ModularComplianceProxy.sol\":1356:1361  retSz */\n      dup1\n        /* \"erc3643/proxy/ModularComplianceProxy.sol\":1353:1354  0 */\n      0x00\n        /* \"erc3643/proxy/ModularComplianceProxy.sol\":1350:1351  0 */\n      dup1\n        /* \"erc3643/proxy/ModularComplianceProxy.sol\":1335:1362  returndatacopy(0, 0, retSz) */\n      returndatacopy\n        /* \"erc3643/proxy/ModularComplianceProxy.sol\":1382:1389  success */\n      dup2\n        /* \"erc3643/proxy/ModularComplianceProxy.sol\":1402:1457  case 0 {... */\n      dup1\n      iszero\n      tag_15\n      jumpi\n        /* \"erc3643/proxy/ModularComplianceProxy.sol\":1506:1511  retSz */\n      dup2\n        /* \"erc3643/proxy/ModularComplianceProxy.sol\":1503:1504  0 */\n      0x00\n        /* \"erc3643/proxy/ModularComplianceProxy.sol\":1496:1512  return(0, retSz) */\n      return\n        /* \"erc3643/proxy/ModularComplianceProxy.sol\":1402:1457  case 0 {... */\n    tag_15:\n        /* \"erc3643/proxy/ModularComplianceProxy.sol\":1437:1442  retSz */\n      dup2\n        /* \"erc3643/proxy/ModularComplianceProxy.sol\":1434:1435  0 */\n      0x00\n        /* \"erc3643/proxy/ModularComplianceProxy.sol\":1427:1443  revert(0, retSz) */\n      revert\n        /* \"erc3643/proxy/ModularComplianceProxy.sol\":1375:1526  switch success... */\n    tag_14:\n      stop\n        /* \"erc3643/proxy/AbstractProxy.sol\":795:1130  function getImplementationAuthority()... */\n    tag_4:\n      0x00\n      dup1\n      mload\n      0x20\n      data_84a68099d90273a356d72f7f1ac67971932136236b8a743afb53ffad2bcdb03d\n      dup4\n      codecopy\n      dup2\n      mload\n      swap2\n      mstore\n        /* \"erc3643/proxy/AbstractProxy.sol\":984:1087  sload(... */\n      sload\n        /* \"erc3643/proxy/AbstractProxy.sol\":795:1130  function getImplementationAuthority()... */\n      mload(0x40)\n      sub(shl(0xa0, 0x01), 0x01)\n        /* \"#utility.yul\":570:602   */\n      swap1\n      swap2\n      and\n        /* \"#utility.yul\":552:603   */\n      dup2\n      mstore\n        /* \"#utility.yul\":540:542   */\n      0x20\n        /* \"#utility.yul\":525:543   */\n      add\n        /* \"erc3643/proxy/AbstractProxy.sol\":795:1130  function getImplementationAuthority()... */\n      mload(0x40)\n      dup1\n      swap2\n      sub\n      swap1\n      return\n        /* \"erc3643/proxy/AbstractProxy.sol\":259:789  function setImplementationAuthority(address _newImplementationAuthority)... */\n    tag_5:\n      tag_14\n      tag_20\n      calldatasize\n      0x04\n      tag_21\n      jump\t// in\n    tag_20:\n      0x00\n      dup1\n      mload\n      0x20\n      data_84a68099d90273a356d72f7f1ac67971932136236b8a743afb53ffad2bcdb03d\n      dup4\n      codecopy\n      dup2\n      mload\n      swap2\n      mstore\n        /* \"erc3643/proxy/AbstractProxy.sol\":984:1087  sload(... */\n      sload\n      sub(shl(0xa0, 0x01), 0x01)\n        /* \"erc3643/proxy/AbstractProxy.sol\":401:443  msg.sender == getImplementationAuthority() */\n      and\n        /* \"erc3643/proxy/AbstractProxy.sol\":401:411  msg.sender */\n      caller\n      sub(shl(0xa0, 0x01), 0x01)\n        /* \"erc3643/proxy/AbstractProxy.sol\":401:443  msg.sender == getImplementationAuthority() */\n      and\n      eq\n        /* \"erc3643/proxy/AbstractProxy.sol\":380:514  require(... */\n      tag_26\n      jumpi\n      mload(0x40)\n      shl(0xe5, 0x461bcd)\n      dup2\n      mstore\n        /* \"#utility.yul\":1068:1070   */\n      0x20\n        /* \"erc3643/proxy/AbstractProxy.sol\":380:514  require(... */\n      0x04\n      dup3\n      add\n        /* \"#utility.yul\":1050:1071   */\n      mstore\n        /* \"#utility.yul\":1107:1109   */\n      0x2d\n        /* \"#utility.yul\":1087:1105   */\n      0x24\n      dup3\n      add\n        /* \"#utility.yul\":1080:1110   */\n      mstore\n        /* \"#utility.yul\":1146:1180   */\n      0x6f6e6c792063757272656e7420696d706c656d656e746174696f6e417574686f\n        /* \"#utility.yul\":1126:1144   */\n      0x44\n      dup3\n      add\n        /* \"#utility.yul\":1119:1181   */\n      mstore\n      shl(0x9a, 0x1c9a5d1e4818d85b8818d85b1b)\n        /* \"#utility.yul\":1197:1215   */\n      0x64\n      dup3\n      add\n        /* \"#utility.yul\":1190:1233   */\n      mstore\n        /* \"#utility.yul\":1250:1269   */\n      0x84\n      add\n        /* \"erc3643/proxy/AbstractProxy.sol\":380:514  require(... */\n    tag_27:\n      mload(0x40)\n      dup1\n      swap2\n      sub\n      swap1\n      revert\n    tag_26:\n      sub(shl(0xa0, 0x01), 0x01)\n        /* \"erc3643/proxy/AbstractProxy.sol\":545:586  _newImplementationAuthority != address(0) */\n      dup2\n      and\n        /* \"erc3643/proxy/AbstractProxy.sol\":524:643  require(... */\n      tag_29\n      jumpi\n      mload(0x40)\n      shl(0xe5, 0x461bcd)\n      dup2\n      mstore\n        /* \"#utility.yul\":1482:1484   */\n      0x20\n        /* \"erc3643/proxy/AbstractProxy.sol\":524:643  require(... */\n      0x04\n      dup3\n      add\n        /* \"#utility.yul\":1464:1485   */\n      mstore\n        /* \"#utility.yul\":1521:1523   */\n      0x1f\n        /* \"#utility.yul\":1501:1519   */\n      0x24\n      dup3\n      add\n        /* \"#utility.yul\":1494:1524   */\n      mstore\n        /* \"#utility.yul\":1560:1593   */\n      0x696e76616c696420617267756d656e74202d207a65726f206164647265737300\n        /* \"#utility.yul\":1540:1558   */\n      0x44\n      dup3\n      add\n        /* \"#utility.yul\":1533:1594   */\n      mstore\n        /* \"#utility.yul\":1611:1629   */\n      0x64\n      add\n        /* \"erc3643/proxy/AbstractProxy.sol\":524:643  require(... */\n      tag_27\n        /* \"#utility.yul\":1280:1635   */\n      jump\n        /* \"erc3643/proxy/AbstractProxy.sol\":524:643  require(... */\n    tag_29:\n        /* \"erc3643/proxy/AbstractProxy.sol\":654:712  _storeImplementationAuthority(_newImplementationAuthority) */\n      tag_32\n        /* \"erc3643/proxy/AbstractProxy.sol\":684:711  _newImplementationAuthority */\n      dup2\n      0x00\n      dup1\n      mload\n      0x20\n      data_84a68099d90273a356d72f7f1ac67971932136236b8a743afb53ffad2bcdb03d\n      dup4\n      codecopy\n      dup2\n      mload\n      swap2\n      mstore\n        /* \"erc3643/proxy/AbstractProxy.sol\":1262:1407  sstore(... */\n      sstore\n        /* \"erc3643/proxy/AbstractProxy.sol\":1136:1423  function _storeImplementationAuthority(address implementationAuthority)... */\n      jump\n        /* \"erc3643/proxy/AbstractProxy.sol\":654:712  _storeImplementationAuthority(_newImplementationAuthority) */\n    tag_32:\n        /* \"erc3643/proxy/AbstractProxy.sol\":727:782  ImplementationAuthoritySet(_newImplementationAuthority) */\n      mload(0x40)\n      sub(shl(0xa0, 0x01), 0x01)\n      dup3\n      and\n      swap1\n      0x3b1074392ed8e8424715d0dda2197eede67080b377fc8370e26f3e882207f6b8\n      swap1\n      0x00\n      swap1\n      log2\n        /* \"erc3643/proxy/AbstractProxy.sol\":259:789  function setImplementationAuthority(address _newImplementationAuthority)... */\n      pop\n      jump\t// out\n        /* \"#utility.yul\":14:145   */\n    tag_35:\n      sub(shl(0xa0, 0x01), 0x01)\n        /* \"#utility.yul\":89:120   */\n      dup2\n      and\n        /* \"#utility.yul\":79:121   */\n      dup2\n      eq\n        /* \"#utility.yul\":69:139   */\n      tag_38\n      jumpi\n        /* \"#utility.yul\":135:136   */\n      0x00\n        /* \"#utility.yul\":132:133   */\n      dup1\n        /* \"#utility.yul\":125:137   */\n      revert\n        /* \"#utility.yul\":69:139   */\n    tag_38:\n        /* \"#utility.yul\":14:145   */\n      pop\n      jump\t// out\n        /* \"#utility.yul\":150:401   */\n    tag_13:\n        /* \"#utility.yul\":220:226   */\n      0x00\n        /* \"#utility.yul\":273:275   */\n      0x20\n        /* \"#utility.yul\":261:270   */\n      dup3\n        /* \"#utility.yul\":252:259   */\n      dup5\n        /* \"#utility.yul\":248:271   */\n      sub\n        /* \"#utility.yul\":244:276   */\n      slt\n        /* \"#utility.yul\":241:293   */\n      iszero\n      tag_40\n      jumpi\n        /* \"#utility.yul\":289:290   */\n      0x00\n        /* \"#utility.yul\":286:287   */\n      dup1\n        /* \"#utility.yul\":279:291   */\n      revert\n        /* \"#utility.yul\":241:293   */\n    tag_40:\n        /* \"#utility.yul\":321:330   */\n      dup2\n        /* \"#utility.yul\":315:331   */\n      mload\n        /* \"#utility.yul\":340:371   */\n      tag_41\n        /* \"#utility.yul\":365:370   */\n      dup2\n        /* \"#utility.yul\":340:371   */\n      tag_35\n      jump\t// in\n    tag_41:\n        /* \"#utility.yul\":390:395   */\n      swap4\n        /* \"#utility.yul\":150:401   */\n      swap3\n      pop\n      pop\n      pop\n      jump\t// out\n        /* \"#utility.yul\":614:861   */\n    tag_21:\n        /* \"#utility.yul\":673:679   */\n      0x00\n        /* \"#utility.yul\":726:728   */\n      0x20\n        /* \"#utility.yul\":714:723   */\n      dup3\n        /* \"#utility.yul\":705:712   */\n      dup5\n        /* \"#utility.yul\":701:724   */\n      sub\n        /* \"#utility.yul\":697:729   */\n      slt\n        /* \"#utility.yul\":694:746   */\n      iszero\n      tag_44\n      jumpi\n        /* \"#utility.yul\":742:743   */\n      0x00\n        /* \"#utility.yul\":739:740   */\n      dup1\n        /* \"#utility.yul\":732:744   */\n      revert\n        /* \"#utility.yul\":694:746   */\n    tag_44:\n        /* \"#utility.yul\":781:790   */\n      dup2\n        /* \"#utility.yul\":768:791   */\n      calldataload\n        /* \"#utility.yul\":800:831   */\n      tag_41\n        /* \"#utility.yul\":825:830   */\n      dup2\n        /* \"#utility.yul\":800:831   */\n      tag_35\n      jump\t// in\n    stop\n    data_84a68099d90273a356d72f7f1ac67971932136236b8a743afb53ffad2bcdb03d c5f16f0fcc639fa48a6947836d9850f504798523bf8c9a3a87d5876cf622bcf7\n\n    auxdata: 0xa2646970667358221220e55cc1d86497e166840ea00d3b9d03d32002a2be9bdb5c18168e3fb67d9166fe64736f6c63430008110033\n}\n",
				"bytecode": {
					"linkReferences": {},
					"object": "608060405234801561001057600080fd5b506040516105ab3803806105ab83398101604081905261002f9161022a565b6001600160a01b03811661008a5760405162461bcd60e51b815260206004820152601f60248201527f696e76616c696420617267756d656e74202d207a65726f20616464726573730060448201526064015b60405180910390fd5b6100a08160008051602061058b83398151915255565b6040516001600160a01b038216907f3b1074392ed8e8424715d0dda2197eede67080b377fc8370e26f3e882207f6b890600090a260006100ec60008051602061058b8339815191525490565b6001600160a01b03166361f898256040518163ffffffff1660e01b8152600401602060405180830381865afa158015610129573d6000803e3d6000fd5b505050506040513d601f19601f8201168201806040525081019061014d919061022a565b60408051600481526024810182526020810180516001600160e01b03166370e39c9560e11b17905290519192506000916001600160a01b038416916101919161025a565b600060405180830381855af49150503d80600081146101cc576040519150601f19603f3d011682016040523d82523d6000602084013e6101d1565b606091505b50509050806102225760405162461bcd60e51b815260206004820152601660248201527f496e697469616c697a6174696f6e206661696c65642e000000000000000000006044820152606401610081565b505050610289565b60006020828403121561023c57600080fd5b81516001600160a01b038116811461025357600080fd5b9392505050565b6000825160005b8181101561027b5760208186018101518583015201610261565b506000920191825250919050565b6102f3806102986000396000f3fe608060405234801561001057600080fd5b50600436106100365760003560e01c80632d5f1187146100dc57806392dd9d6514610108575b600061004e60008051602061029e8339815191525490565b6001600160a01b03166361f898256040518163ffffffff1660e01b8152600401602060405180830381865afa15801561008b573d6000803e3d6000fd5b505050506040513d601f19601f820116820180604052508101906100af919061025c565b90503660008037600080366000846127105a03f43d806000803e8180156100d557816000f35b816000fd5b005b60008051602061029e833981519152546040516001600160a01b03909116815260200160405180910390f35b6100da610116366004610280565b60008051602061029e833981519152546001600160a01b0316336001600160a01b0316146101a15760405162461bcd60e51b815260206004820152602d60248201527f6f6e6c792063757272656e7420696d706c656d656e746174696f6e417574686f60448201526c1c9a5d1e4818d85b8818d85b1b609a1b60648201526084015b60405180910390fd5b6001600160a01b0381166101f75760405162461bcd60e51b815260206004820152601f60248201527f696e76616c696420617267756d656e74202d207a65726f2061646472657373006044820152606401610198565b61020d8160008051602061029e83398151915255565b6040516001600160a01b038216907f3b1074392ed8e8424715d0dda2197eede67080b377fc8370e26f3e882207f6b890600090a250565b6001600160a01b038116811461025957600080fd5b50565b60006020828403121561026e57600080fd5b815161027981610244565b9392505050565b60006020828403121561029257600080fd5b81356102798161024456fec5f16f0fcc639fa48a6947836d9850f504798523bf8c9a3a87d5876cf622bcf7a2646970667358221220e55cc1d86497e166840ea00d3b9d03d32002a2be9bdb5c18168e3fb67d9166fe64736f6c63430008110033c5f16f0fcc639fa48a6947836d9850f504798523bf8c9a3a87d5876cf622bcf7",
					"opcodes": "PUSH1 0x80 PUSH1 0x40 MSTORE CALLVALUE DUP1 ISZERO PUSH2 0x10 JUMPI PUSH1 0x0 DUP1 REVERT JUMPDEST POP PUSH1 0x40 MLOAD PUSH2 0x5AB CODESIZE SUB DUP1 PUSH2 0x5AB DUP4 CODECOPY DUP2 ADD PUSH1 0x40 DUP2 SWAP1 MSTORE PUSH2 0x2F SWAP2 PUSH2 0x22A JUMP JUMPDEST PUSH1 0x1 PUSH1 0x1 PUSH1 0xA0 SHL SUB DUP2 AND PUSH2 0x8A JUMPI PUSH1 0x40 MLOAD PUSH3 0x461BCD PUSH1 0xE5 SHL DUP2 MSTORE PUSH1 0x20 PUSH1 0x4 DUP3 ADD MSTORE PUSH1 0x1F PUSH1 0x24 DUP3 ADD MSTORE PUSH32 0x696E76616C696420617267756D656E74202D207A65726F206164647265737300 PUSH1 0x44 DUP3 ADD MSTORE PUSH1 0x64 ADD JUMPDEST PUSH1 0x40 MLOAD DUP1 SWAP2 SUB SWAP1 REVERT JUMPDEST PUSH2 0xA0 DUP2 PUSH1 0x0 DUP1 MLOAD PUSH1 0x20 PUSH2 0x58B DUP4 CODECOPY DUP2 MLOAD SWAP2 MSTORE SSTORE JUMP JUMPDEST PUSH1 0x40 MLOAD PUSH1 0x1 PUSH1 0x1 PUSH1 0xA0 SHL SUB DUP3 AND SWAP1 PUSH32 0x3B1074392ED8E8424715D0DDA2197EEDE67080B377FC8370E26F3E882207F6B8 SWAP1 PUSH1 0x0 SWAP1 LOG2 PUSH1 0x0 PUSH2 0xEC PUSH1 0x0 DUP1 MLOAD PUSH1 0x20 PUSH2 0x58B DUP4 CODECOPY DUP2 MLOAD SWAP2 MSTORE SLOAD SWAP1 JUMP JUMPDEST PUSH1 0x1 PUSH1 0x1 PUSH1 0xA0 SHL SUB AND PUSH4 0x61F89825 PUSH1 0x40 MLOAD DUP2 PUSH4 0xFFFFFFFF AND PUSH1 0xE0 SHL DUP2 MSTORE PUSH1 0x4 ADD PUSH1 0x20 PUSH1 0x40 MLOAD DUP1 DUP4 SUB DUP2 DUP7 GAS STATICCALL ISZERO DUP1 ISZERO PUSH2 0x129 JUMPI RETURNDATASIZE PUSH1 0x0 DUP1 RETURNDATACOPY RETURNDATASIZE PUSH1 0x0 REVERT JUMPDEST POP POP POP POP PUSH1 0x40 MLOAD RETURNDATASIZE PUSH1 0x1F NOT PUSH1 0x1F DUP3 ADD AND DUP3 ADD DUP1 PUSH1 0x40 MSTORE POP DUP2 ADD SWAP1 PUSH2 0x14D SWAP2 SWAP1 PUSH2 0x22A JUMP JUMPDEST PUSH1 0x40 DUP1 MLOAD PUSH1 0x4 DUP2 MSTORE PUSH1 0x24 DUP2 ADD DUP3 MSTORE PUSH1 0x20 DUP2 ADD DUP1 MLOAD PUSH1 0x1 PUSH1 0x1 PUSH1 0xE0 SHL SUB AND PUSH4 0x70E39C95 PUSH1 0xE1 SHL OR SWAP1 MSTORE SWAP1 MLOAD SWAP2 SWAP3 POP PUSH1 0x0 SWAP2 PUSH1 0x1 PUSH1 0x1 PUSH1 0xA0 SHL SUB DUP5 AND SWAP2 PUSH2 0x191 SWAP2 PUSH2 0x25A JUMP JUMPDEST PUSH1 0x0 PUSH1 0x40 MLOAD DUP1 DUP4 SUB DUP2 DUP6 GAS DELEGATECALL SWAP2 POP POP RETURNDATASIZE DUP1 PUSH1 0x0 DUP2 EQ PUSH2 0x1CC JUMPI PUSH1 0x40 MLOAD SWAP2 POP PUSH1 0x1F NOT PUSH1 0x3F RETURNDATASIZE ADD AND DUP3 ADD PUSH1 0x40 MSTORE RETURNDATASIZE DUP3 MSTORE RETURNDATASIZE PUSH1 0x0 PUSH1 0x20 DUP5 ADD RETURNDATACOPY PUSH2 0x1D1 JUMP JUMPDEST PUSH1 0x60 SWAP2 POP JUMPDEST POP POP SWAP1 POP DUP1 PUSH2 0x222 JUMPI PUSH1 0x40 MLOAD PUSH3 0x461BCD PUSH1 0xE5 SHL DUP2 MSTORE PUSH1 0x20 PUSH1 0x4 DUP3 ADD MSTORE PUSH1 0x16 PUSH1 0x24 DUP3 ADD MSTORE PUSH32 0x496E697469616C697A6174696F6E206661696C65642E00000000000000000000 PUSH1 0x44 DUP3 ADD MSTORE PUSH1 0x64 ADD PUSH2 0x81 JUMP JUMPDEST POP POP POP PUSH2 0x289 JUMP JUMPDEST PUSH1 0x0 PUSH1 0x20 DUP3 DUP5 SUB SLT ISZERO PUSH2 0x23C JUMPI PUSH1 0x0 DUP1 REVERT JUMPDEST DUP2 MLOAD PUSH1 0x1 PUSH1 0x1 PUSH1 0xA0 SHL SUB DUP2 AND DUP2 EQ PUSH2 0x253 JUMPI PUSH1 0x0 DUP1 REVERT JUMPDEST SWAP4 SWAP3 POP POP POP JUMP JUMPDEST PUSH1 0x0 DUP3 MLOAD PUSH1 0x0 JUMPDEST DUP2 DUP2 LT ISZERO PUSH2 0x27B JUMPI PUSH1 0x20 DUP2 DUP7 ADD DUP2 ADD MLOAD DUP6 DUP4 ADD MSTORE ADD PUSH2 0x261 JUMP JUMPDEST POP PUSH1 0x0 SWAP3 ADD SWAP2 DUP3 MSTORE POP SWAP2 SWAP1 POP JUMP JUMPDEST PUSH2 0x2F3 DUP1 PUSH2 0x298 PUSH1 0x0 CODECOPY PUSH1 0x0 RETURN INVALID PUSH1 0x80 PUSH1 0x40 MSTORE CALLVALUE DUP1 ISZERO PUSH2 0x10 JUMPI PUSH1 0x0 DUP1 REVERT JUMPDEST POP PUSH1 0x4 CALLDATASIZE LT PUSH2 0x36 JUMPI PUSH1 0x0 CALLDATALOAD PUSH1 0xE0 SHR DUP1 PUSH4 0x2D5F1187 EQ PUSH2 0xDC JUMPI DUP1 PUSH4 0x92DD9D65 EQ PUSH2 0x108 JUMPI JUMPDEST PUSH1 0x0 PUSH2 0x4E PUSH1 0x0 DUP1 MLOAD PUSH1 0x20 PUSH2 0x29E DUP4 CODECOPY DUP2 MLOAD SWAP2 MSTORE SLOAD SWAP1 JUMP JUMPDEST PUSH1 0x1 PUSH1 0x1 PUSH1 0xA0 SHL SUB AND PUSH4 0x61F89825 PUSH1 0x40 MLOAD DUP2 PUSH4 0xFFFFFFFF AND PUSH1 0xE0 SHL DUP2 MSTORE PUSH1 0x4 ADD PUSH1 0x20 PUSH1 0x40 MLOAD DUP1 DUP4 SUB DUP2 DUP7 GAS STATICCALL ISZERO DUP1 ISZERO PUSH2 0x8B JUMPI RETURNDATASIZE PUSH1 0x0 DUP1 RETURNDATACOPY RETURNDATASIZE PUSH1 0x0 REVERT JUMPDEST POP POP POP POP PUSH1 0x40 MLOAD RETURNDATASIZE PUSH1 0x1F NOT PUSH1 0x1F DUP3 ADD AND DUP3 ADD DUP1 PUSH1 0x40 MSTORE POP DUP2 ADD SWAP1 PUSH2 0xAF SWAP2 SWAP1 PUSH2 0x25C JUMP JUMPDEST SWAP1 POP CALLDATASIZE PUSH1 0x0 DUP1 CALLDATACOPY PUSH1 0x0 DUP1 CALLDATASIZE PUSH1 0x0 DUP5 PUSH2 0x2710 GAS SUB DELEGATECALL RETURNDATASIZE DUP1 PUSH1 0x0 DUP1 RETURNDATACOPY DUP2 DUP1 ISZERO PUSH2 0xD5 JUMPI DUP2 PUSH1 0x0 RETURN JUMPDEST DUP2 PUSH1 0x0 REVERT JUMPDEST STOP JUMPDEST PUSH1 0x0 DUP1 MLOAD PUSH1 0x20 PUSH2 0x29E DUP4 CODECOPY DUP2 MLOAD SWAP2 MSTORE SLOAD PUSH1 0x40 MLOAD PUSH1 0x1 PUSH1 0x1 PUSH1 0xA0 SHL SUB SWAP1 SWAP2 AND DUP2 MSTORE PUSH1 0x20 ADD PUSH1 0x40 MLOAD DUP1 SWAP2 SUB SWAP1 RETURN JUMPDEST PUSH2 0xDA PUSH2 0x116 CALLDATASIZE PUSH1 0x4 PUSH2 0x280 JUMP JUMPDEST PUSH1 0x0 DUP1 MLOAD PUSH1 0x20 PUSH2 0x29E DUP4 CODECOPY DUP2 MLOAD SWAP2 MSTORE SLOAD PUSH1 0x1 PUSH1 0x1 PUSH1 0xA0 SHL SUB AND CALLER PUSH1 0x1 PUSH1 0x1 PUSH1 0xA0 SHL SUB AND EQ PUSH2 0x1A1 JUMPI PUSH1 0x40 MLOAD PUSH3 0x461BCD PUSH1 0xE5 SHL DUP2 MSTORE PUSH1 0x20 PUSH1 0x4 DUP3 ADD MSTORE PUSH1 0x2D PUSH1 0x24 DUP3 ADD MSTORE PUSH32 0x6F6E6C792063757272656E7420696D706C656D656E746174696F6E417574686F PUSH1 0x44 DUP3 ADD MSTORE PUSH13 0x1C9A5D1E4818D85B8818D85B1B PUSH1 0x9A SHL PUSH1 0x64 DUP3 ADD MSTORE PUSH1 0x84 ADD JUMPDEST PUSH1 0x40 MLOAD DUP1 SWAP2 SUB SWAP1 REVERT JUMPDEST PUSH1 0x1 PUSH1 0x1 PUSH1 0xA0 SHL SUB DUP2 AND PUSH2 0x1F7 JUMPI PUSH1 0x40 MLOAD PUSH3 0x461BCD PUSH1 0xE5 SHL DUP2 MSTORE PUSH1 0x20 PUSH1 0x4 DUP3 ADD MSTORE PUSH1 0x1F PUSH1 0x24 DUP3 ADD MSTORE PUSH32 0x696E76616C696420617267756D656E74202D207A65726F206164647265737300 PUSH1 0x44 DUP3 ADD MSTORE PUSH1 0x64 ADD PUSH2 0x198 JUMP JUMPDEST PUSH2 0x20D DUP2 PUSH1 0x0 DUP1 MLOAD PUSH1 0x20 PUSH2 0x29E DUP4 CODECOPY DUP2 MLOAD SWAP2 MSTORE SSTORE JUMP JUMPDEST PUSH1 0x40 MLOAD PUSH1 0x1 PUSH1 0x1 PUSH1 0xA0 SHL SUB DUP3 AND SWAP1 PUSH32 0x3B1074392ED8E8424715D0DDA2197EEDE67080B377FC8370E26F3E882207F6B8 SWAP1 PUSH1 0x0 SWAP1 LOG2 POP JUMP JUMPDEST PUSH1 0x1 PUSH1 0x1 PUSH1 0xA0 SHL SUB DUP2 AND DUP2 EQ PUSH2 0x259 JUMPI PUSH1 0x0 DUP1 REVERT JUMPDEST POP JUMP JUMPDEST PUSH1 0x0 PUSH1 0x20 DUP3 DUP5 SUB SLT ISZERO PUSH2 0x26E JUMPI PUSH1 0x0 DUP1 REVERT JUMPDEST DUP2 MLOAD PUSH2 0x279 DUP2 PUSH2 0x244 JUMP JUMPDEST SWAP4 SWAP3 POP POP POP JUMP JUMPDEST PUSH1 0x0 PUSH1 0x20 DUP3 DUP5 SUB SLT ISZERO PUSH2 0x292 JUMPI PUSH1 0x0 DUP1 REVERT JUMPDEST DUP2 CALLDATALOAD PUSH2 0x279 DUP2 PUSH2 0x244 JUMP INVALID 0xC5 CALL PUSH16 0xFCC639FA48A6947836D9850F5047985 0x23 0xBF DUP13 SWAP11 GASPRICE DUP8 0xD5 DUP8 PUSH13 0xF622BCF7A26469706673582212 KECCAK256 0xE5 0x5C 0xC1 0xD8 PUSH5 0x97E166840E LOG0 0xD EXTCODESIZE SWAP14 SUB 0xD3 KECCAK256 MUL LOG2 0xBE SWAP12 0xDB 0x5C XOR AND DUP15 EXTCODEHASH 0xB6 PUSH30 0x9166FE64736F6C63430008110033C5F16F0FCC639FA48A6947836D9850F5 DIV PUSH26 0x8523BF8C9A3A87D5876CF622BCF7000000000000000000000000 "
				},
				"gasEstimates": {
					"creation": {
						"codeDepositCost": "151000",
						"executionCost": "infinite",
						"totalCost": "infinite"
					},
					"external": {
						"": "infinite",
						"getImplementationAuthority()": "infinite",
						"setImplementationAuthority(address)": "infinite"
					}
				},
				"methodIdentifiers": {
					"getImplementationAuthority()": "2d5f1187",
					"setImplementationAuthority(address)": "92dd9d65"
				}
			},
			"storageLayout": {
				"storage": [
					{
						"astId": 6,
						"contract": "erc3643/proxy/ModularComplianceProxy.sol:ModularComplianceProxy",
						"label": "_initialized",
						"offset": 0,
						"slot": "0",
						"type": "t_uint8"
					},
					{
						"astId": 9,
						"contract": "erc3643/proxy/ModularComplianceProxy.sol:ModularComplianceProxy",
						"label": "_initializing",
						"offset": 1,
						"slot": "0",
						"type": "t_bool"
					}
				],
				"types": {
					"t_bool": {
						"encoding": "inplace",
						"label": "bool",
						"numberOfBytes": "1"
					},
					"t_uint8": {
						"encoding": "inplace",
						"label": "uint8",
						"numberOfBytes": "1"
					}
				}
			},
			"userdoc": {
				"events": {
					"ImplementationAuthoritySet(address)": {
						"notice": "events"
					}
				},
				"kind": "user",
				"methods": {
					"setImplementationAuthority(address)": {
						"notice": "functions"
					}
				},
				"version": 1
			}
		}
	}
}